{
	"contracts/main.sol": {
		"main": {
			"abi": [
				{
					"inputs": [
						{
							"internalType": "string",
							"name": "_donorPass",
							"type": "string"
						},
						{
							"internalType": "string",
							"name": "_recipientPass",
							"type": "string"
						},
						{
							"internalType": "string",
							"name": "_matchedPass",
							"type": "string"
						}
					],
					"stateMutability": "nonpayable",
					"type": "constructor"
				},
				{
					"anonymous": false,
					"inputs": [
						{
							"indexed": false,
							"internalType": "string",
							"name": "donorOwner",
							"type": "string"
						},
						{
							"indexed": false,
							"internalType": "uint256",
							"name": "donorBloodType",
							"type": "uint256"
						},
						{
							"indexed": false,
							"internalType": "string",
							"name": "donorOrgan",
							"type": "string"
						},
						{
							"indexed": false,
							"internalType": "uint256",
							"name": "donorQuantity",
							"type": "uint256"
						}
					],
					"name": "DonMatchFound",
					"type": "event"
				},
				{
					"anonymous": false,
					"inputs": [
						{
							"indexed": false,
							"internalType": "string",
							"name": "recipientOwner",
							"type": "string"
						},
						{
							"indexed": false,
							"internalType": "uint256",
							"name": "recipientBloodType",
							"type": "uint256"
						},
						{
							"indexed": false,
							"internalType": "string",
							"name": "recipientOrgan",
							"type": "string"
						},
						{
							"indexed": false,
							"internalType": "uint256",
							"name": "recipientQuantity",
							"type": "uint256"
						}
					],
					"name": "RecMatchFound",
					"type": "event"
				},
				{
					"inputs": [
						{
							"internalType": "string",
							"name": "_owner",
							"type": "string"
						},
						{
							"internalType": "uint256",
							"name": "_bloodtype",
							"type": "uint256"
						},
						{
							"internalType": "string",
							"name": "_organ",
							"type": "string"
						},
						{
							"internalType": "uint256",
							"name": "_quantity",
							"type": "uint256"
						}
					],
					"name": "regDonor",
					"outputs": [],
					"stateMutability": "nonpayable",
					"type": "function"
				},
				{
					"inputs": [
						{
							"internalType": "string",
							"name": "_owner",
							"type": "string"
						},
						{
							"internalType": "string",
							"name": "_organ",
							"type": "string"
						},
						{
							"internalType": "uint256",
							"name": "_bloodtype",
							"type": "uint256"
						},
						{
							"internalType": "uint256",
							"name": "_quantity",
							"type": "uint256"
						}
					],
					"name": "regRecipient",
					"outputs": [],
					"stateMutability": "nonpayable",
					"type": "function"
				},
				{
					"inputs": [
						{
							"internalType": "string",
							"name": "_pass",
							"type": "string"
						}
					],
					"name": "showDonors",
					"outputs": [
						{
							"components": [
								{
									"internalType": "string",
									"name": "owner",
									"type": "string"
								},
								{
									"internalType": "uint256",
									"name": "bloodtype",
									"type": "uint256"
								},
								{
									"internalType": "string",
									"name": "organ",
									"type": "string"
								},
								{
									"internalType": "uint256",
									"name": "quantity",
									"type": "uint256"
								}
							],
							"internalType": "struct main.orgdet[]",
							"name": "",
							"type": "tuple[]"
						}
					],
					"stateMutability": "view",
					"type": "function"
				},
				{
					"inputs": [
						{
							"internalType": "string",
							"name": "_pass",
							"type": "string"
						}
					],
					"name": "showMatches",
					"outputs": [
						{
							"components": [
								{
									"internalType": "string",
									"name": "donor",
									"type": "string"
								},
								{
									"internalType": "string",
									"name": "recipient",
									"type": "string"
								},
								{
									"internalType": "uint256",
									"name": "donorbloodtype",
									"type": "uint256"
								},
								{
									"internalType": "uint256",
									"name": "recipientbloodtype",
									"type": "uint256"
								},
								{
									"internalType": "string",
									"name": "organ",
									"type": "string"
								},
								{
									"internalType": "uint256",
									"name": "donorquantity",
									"type": "uint256"
								},
								{
									"internalType": "uint256",
									"name": "recipientquantity",
									"type": "uint256"
								},
								{
									"internalType": "uint256",
									"name": "matchedquantity",
									"type": "uint256"
								}
							],
							"internalType": "struct main.matched_orgdet[]",
							"name": "",
							"type": "tuple[]"
						}
					],
					"stateMutability": "view",
					"type": "function"
				},
				{
					"inputs": [
						{
							"internalType": "string",
							"name": "_pass",
							"type": "string"
						}
					],
					"name": "showRecipient",
					"outputs": [
						{
							"components": [
								{
									"internalType": "string",
									"name": "owner",
									"type": "string"
								},
								{
									"internalType": "uint256",
									"name": "bloodtype",
									"type": "uint256"
								},
								{
									"internalType": "string",
									"name": "organ",
									"type": "string"
								},
								{
									"internalType": "uint256",
									"name": "quantity",
									"type": "uint256"
								}
							],
							"internalType": "struct main.orgdet[]",
							"name": "",
							"type": "tuple[]"
						}
					],
					"stateMutability": "view",
					"type": "function"
				}
			],
			"devdoc": {
				"kind": "dev",
				"methods": {},
				"version": 1
			},
			"evm": {
				"assembly": "    /* \"contracts/main.sol\":58:7173  contract main {... */\n  mstore(0x40, 0x80)\n    /* \"contracts/main.sol\":1919:2377  uint256[10][10] private compatMatrix = [[1, 1, 0, 0, 0, 0, 1, 1, 0, 0],... */\n  mload(0x40)\n  dup1\n  0x0140\n  add\n  0x40\n  mstore\n  dup1\n  mload(0x40)\n  dup1\n  0x0140\n  add\n  0x40\n  mstore\n  dup1\n    /* \"contracts/main.sol\":1960:1961  1 */\n  0x01\n    /* \"contracts/main.sol\":1919:2377  uint256[10][10] private compatMatrix = [[1, 1, 0, 0, 0, 0, 1, 1, 0, 0],... */\n  0xff\n  and\n  dup2\n  mstore\n  0x20\n  add\n    /* \"contracts/main.sol\":1963:1964  1 */\n  0x01\n    /* \"contracts/main.sol\":1919:2377  uint256[10][10] private compatMatrix = [[1, 1, 0, 0, 0, 0, 1, 1, 0, 0],... */\n  0xff\n  and\n  dup2\n  mstore\n  0x20\n  add\n    /* \"contracts/main.sol\":1966:1967  0 */\n  0x00\n    /* \"contracts/main.sol\":1919:2377  uint256[10][10] private compatMatrix = [[1, 1, 0, 0, 0, 0, 1, 1, 0, 0],... */\n  0xff\n  and\n  dup2\n  mstore\n  0x20\n  add\n    /* \"contracts/main.sol\":1969:1970  0 */\n  0x00\n    /* \"contracts/main.sol\":1919:2377  uint256[10][10] private compatMatrix = [[1, 1, 0, 0, 0, 0, 1, 1, 0, 0],... */\n  0xff\n  and\n  dup2\n  mstore\n  0x20\n  add\n    /* \"contracts/main.sol\":1972:1973  0 */\n  0x00\n    /* \"contracts/main.sol\":1919:2377  uint256[10][10] private compatMatrix = [[1, 1, 0, 0, 0, 0, 1, 1, 0, 0],... */\n  0xff\n  and\n  dup2\n  mstore\n  0x20\n  add\n    /* \"contracts/main.sol\":1975:1976  0 */\n  0x00\n    /* \"contracts/main.sol\":1919:2377  uint256[10][10] private compatMatrix = [[1, 1, 0, 0, 0, 0, 1, 1, 0, 0],... */\n  0xff\n  and\n  dup2\n  mstore\n  0x20\n  add\n    /* \"contracts/main.sol\":1978:1979  1 */\n  0x01\n    /* \"contracts/main.sol\":1919:2377  uint256[10][10] private compatMatrix = [[1, 1, 0, 0, 0, 0, 1, 1, 0, 0],... */\n  0xff\n  and\n  dup2\n  mstore\n  0x20\n  add\n    /* \"contracts/main.sol\":1981:1982  1 */\n  0x01\n    /* \"contracts/main.sol\":1919:2377  uint256[10][10] private compatMatrix = [[1, 1, 0, 0, 0, 0, 1, 1, 0, 0],... */\n  0xff\n  and\n  dup2\n  mstore\n  0x20\n  add\n    /* \"contracts/main.sol\":1984:1985  0 */\n  0x00\n    /* \"contracts/main.sol\":1919:2377  uint256[10][10] private compatMatrix = [[1, 1, 0, 0, 0, 0, 1, 1, 0, 0],... */\n  0xff\n  and\n  dup2\n  mstore\n  0x20\n  add\n    /* \"contracts/main.sol\":1987:1988  0 */\n  0x00\n    /* \"contracts/main.sol\":1919:2377  uint256[10][10] private compatMatrix = [[1, 1, 0, 0, 0, 0, 1, 1, 0, 0],... */\n  0xff\n  and\n  dup2\n  mstore\n  pop\n  dup2\n  mstore\n  0x20\n  add\n  mload(0x40)\n  dup1\n  0x0140\n  add\n  0x40\n  mstore\n  dup1\n    /* \"contracts/main.sol\":2003:2004  0 */\n  0x00\n    /* \"contracts/main.sol\":1919:2377  uint256[10][10] private compatMatrix = [[1, 1, 0, 0, 0, 0, 1, 1, 0, 0],... */\n  0xff\n  and\n  dup2\n  mstore\n  0x20\n  add\n    /* \"contracts/main.sol\":2006:2007  1 */\n  0x01\n    /* \"contracts/main.sol\":1919:2377  uint256[10][10] private compatMatrix = [[1, 1, 0, 0, 0, 0, 1, 1, 0, 0],... */\n  0xff\n  and\n  dup2\n  mstore\n  0x20\n  add\n    /* \"contracts/main.sol\":2009:2010  0 */\n  0x00\n    /* \"contracts/main.sol\":1919:2377  uint256[10][10] private compatMatrix = [[1, 1, 0, 0, 0, 0, 1, 1, 0, 0],... */\n  0xff\n  and\n  dup2\n  mstore\n  0x20\n  add\n    /* \"contracts/main.sol\":2012:2013  0 */\n  0x00\n    /* \"contracts/main.sol\":1919:2377  uint256[10][10] private compatMatrix = [[1, 1, 0, 0, 0, 0, 1, 1, 0, 0],... */\n  0xff\n  and\n  dup2\n  mstore\n  0x20\n  add\n    /* \"contracts/main.sol\":2015:2016  0 */\n  0x00\n    /* \"contracts/main.sol\":1919:2377  uint256[10][10] private compatMatrix = [[1, 1, 0, 0, 0, 0, 1, 1, 0, 0],... */\n  0xff\n  and\n  dup2\n  mstore\n  0x20\n  add\n    /* \"contracts/main.sol\":2018:2019  0 */\n  0x00\n    /* \"contracts/main.sol\":1919:2377  uint256[10][10] private compatMatrix = [[1, 1, 0, 0, 0, 0, 1, 1, 0, 0],... */\n  0xff\n  and\n  dup2\n  mstore\n  0x20\n  add\n    /* \"contracts/main.sol\":2021:2022  0 */\n  0x00\n    /* \"contracts/main.sol\":1919:2377  uint256[10][10] private compatMatrix = [[1, 1, 0, 0, 0, 0, 1, 1, 0, 0],... */\n  0xff\n  and\n  dup2\n  mstore\n  0x20\n  add\n    /* \"contracts/main.sol\":2024:2025  1 */\n  0x01\n    /* \"contracts/main.sol\":1919:2377  uint256[10][10] private compatMatrix = [[1, 1, 0, 0, 0, 0, 1, 1, 0, 0],... */\n  0xff\n  and\n  dup2\n  mstore\n  0x20\n  add\n    /* \"contracts/main.sol\":2027:2028  0 */\n  0x00\n    /* \"contracts/main.sol\":1919:2377  uint256[10][10] private compatMatrix = [[1, 1, 0, 0, 0, 0, 1, 1, 0, 0],... */\n  0xff\n  and\n  dup2\n  mstore\n  0x20\n  add\n    /* \"contracts/main.sol\":2030:2031  0 */\n  0x00\n    /* \"contracts/main.sol\":1919:2377  uint256[10][10] private compatMatrix = [[1, 1, 0, 0, 0, 0, 1, 1, 0, 0],... */\n  0xff\n  and\n  dup2\n  mstore\n  pop\n  dup2\n  mstore\n  0x20\n  add\n  mload(0x40)\n  dup1\n  0x0140\n  add\n  0x40\n  mstore\n  dup1\n    /* \"contracts/main.sol\":2046:2047  0 */\n  0x00\n    /* \"contracts/main.sol\":1919:2377  uint256[10][10] private compatMatrix = [[1, 1, 0, 0, 0, 0, 1, 1, 0, 0],... */\n  0xff\n  and\n  dup2\n  mstore\n  0x20\n  add\n    /* \"contracts/main.sol\":2049:2050  0 */\n  0x00\n    /* \"contracts/main.sol\":1919:2377  uint256[10][10] private compatMatrix = [[1, 1, 0, 0, 0, 0, 1, 1, 0, 0],... */\n  0xff\n  and\n  dup2\n  mstore\n  0x20\n  add\n    /* \"contracts/main.sol\":2052:2053  1 */\n  0x01\n    /* \"contracts/main.sol\":1919:2377  uint256[10][10] private compatMatrix = [[1, 1, 0, 0, 0, 0, 1, 1, 0, 0],... */\n  0xff\n  and\n  dup2\n  mstore\n  0x20\n  add\n    /* \"contracts/main.sol\":2055:2056  1 */\n  0x01\n    /* \"contracts/main.sol\":1919:2377  uint256[10][10] private compatMatrix = [[1, 1, 0, 0, 0, 0, 1, 1, 0, 0],... */\n  0xff\n  and\n  dup2\n  mstore\n  0x20\n  add\n    /* \"contracts/main.sol\":2058:2059  0 */\n  0x00\n    /* \"contracts/main.sol\":1919:2377  uint256[10][10] private compatMatrix = [[1, 1, 0, 0, 0, 0, 1, 1, 0, 0],... */\n  0xff\n  and\n  dup2\n  mstore\n  0x20\n  add\n    /* \"contracts/main.sol\":2061:2062  0 */\n  0x00\n    /* \"contracts/main.sol\":1919:2377  uint256[10][10] private compatMatrix = [[1, 1, 0, 0, 0, 0, 1, 1, 0, 0],... */\n  0xff\n  and\n  dup2\n  mstore\n  0x20\n  add\n    /* \"contracts/main.sol\":2064:2065  1 */\n  0x01\n    /* \"contracts/main.sol\":1919:2377  uint256[10][10] private compatMatrix = [[1, 1, 0, 0, 0, 0, 1, 1, 0, 0],... */\n  0xff\n  and\n  dup2\n  mstore\n  0x20\n  add\n    /* \"contracts/main.sol\":2067:2068  1 */\n  0x01\n    /* \"contracts/main.sol\":1919:2377  uint256[10][10] private compatMatrix = [[1, 1, 0, 0, 0, 0, 1, 1, 0, 0],... */\n  0xff\n  and\n  dup2\n  mstore\n  0x20\n  add\n    /* \"contracts/main.sol\":2070:2071  0 */\n  0x00\n    /* \"contracts/main.sol\":1919:2377  uint256[10][10] private compatMatrix = [[1, 1, 0, 0, 0, 0, 1, 1, 0, 0],... */\n  0xff\n  and\n  dup2\n  mstore\n  0x20\n  add\n    /* \"contracts/main.sol\":2073:2074  0 */\n  0x00\n    /* \"contracts/main.sol\":1919:2377  uint256[10][10] private compatMatrix = [[1, 1, 0, 0, 0, 0, 1, 1, 0, 0],... */\n  0xff\n  and\n  dup2\n  mstore\n  pop\n  dup2\n  mstore\n  0x20\n  add\n  mload(0x40)\n  dup1\n  0x0140\n  add\n  0x40\n  mstore\n  dup1\n    /* \"contracts/main.sol\":2089:2090  0 */\n  0x00\n    /* \"contracts/main.sol\":1919:2377  uint256[10][10] private compatMatrix = [[1, 1, 0, 0, 0, 0, 1, 1, 0, 0],... */\n  0xff\n  and\n  dup2\n  mstore\n  0x20\n  add\n    /* \"contracts/main.sol\":2092:2093  0 */\n  0x00\n    /* \"contracts/main.sol\":1919:2377  uint256[10][10] private compatMatrix = [[1, 1, 0, 0, 0, 0, 1, 1, 0, 0],... */\n  0xff\n  and\n  dup2\n  mstore\n  0x20\n  add\n    /* \"contracts/main.sol\":2095:2096  0 */\n  0x00\n    /* \"contracts/main.sol\":1919:2377  uint256[10][10] private compatMatrix = [[1, 1, 0, 0, 0, 0, 1, 1, 0, 0],... */\n  0xff\n  and\n  dup2\n  mstore\n  0x20\n  add\n    /* \"contracts/main.sol\":2098:2099  1 */\n  0x01\n    /* \"contracts/main.sol\":1919:2377  uint256[10][10] private compatMatrix = [[1, 1, 0, 0, 0, 0, 1, 1, 0, 0],... */\n  0xff\n  and\n  dup2\n  mstore\n  0x20\n  add\n    /* \"contracts/main.sol\":2101:2102  0 */\n  0x00\n    /* \"contracts/main.sol\":1919:2377  uint256[10][10] private compatMatrix = [[1, 1, 0, 0, 0, 0, 1, 1, 0, 0],... */\n  0xff\n  and\n  dup2\n  mstore\n  0x20\n  add\n    /* \"contracts/main.sol\":2104:2105  0 */\n  0x00\n    /* \"contracts/main.sol\":1919:2377  uint256[10][10] private compatMatrix = [[1, 1, 0, 0, 0, 0, 1, 1, 0, 0],... */\n  0xff\n  and\n  dup2\n  mstore\n  0x20\n  add\n    /* \"contracts/main.sol\":2107:2108  0 */\n  0x00\n    /* \"contracts/main.sol\":1919:2377  uint256[10][10] private compatMatrix = [[1, 1, 0, 0, 0, 0, 1, 1, 0, 0],... */\n  0xff\n  and\n  dup2\n  mstore\n  0x20\n  add\n    /* \"contracts/main.sol\":2110:2111  1 */\n  0x01\n    /* \"contracts/main.sol\":1919:2377  uint256[10][10] private compatMatrix = [[1, 1, 0, 0, 0, 0, 1, 1, 0, 0],... */\n  0xff\n  and\n  dup2\n  mstore\n  0x20\n  add\n    /* \"contracts/main.sol\":2113:2114  0 */\n  0x00\n    /* \"contracts/main.sol\":1919:2377  uint256[10][10] private compatMatrix = [[1, 1, 0, 0, 0, 0, 1, 1, 0, 0],... */\n  0xff\n  and\n  dup2\n  mstore\n  0x20\n  add\n    /* \"contracts/main.sol\":2116:2117  0 */\n  0x00\n    /* \"contracts/main.sol\":1919:2377  uint256[10][10] private compatMatrix = [[1, 1, 0, 0, 0, 0, 1, 1, 0, 0],... */\n  0xff\n  and\n  dup2\n  mstore\n  pop\n  dup2\n  mstore\n  0x20\n  add\n  mload(0x40)\n  dup1\n  0x0140\n  add\n  0x40\n  mstore\n  dup1\n    /* \"contracts/main.sol\":2132:2133  1 */\n  0x01\n    /* \"contracts/main.sol\":1919:2377  uint256[10][10] private compatMatrix = [[1, 1, 0, 0, 0, 0, 1, 1, 0, 0],... */\n  0xff\n  and\n  dup2\n  mstore\n  0x20\n  add\n    /* \"contracts/main.sol\":2135:2136  1 */\n  0x01\n    /* \"contracts/main.sol\":1919:2377  uint256[10][10] private compatMatrix = [[1, 1, 0, 0, 0, 0, 1, 1, 0, 0],... */\n  0xff\n  and\n  dup2\n  mstore\n  0x20\n  add\n    /* \"contracts/main.sol\":2138:2139  1 */\n  0x01\n    /* \"contracts/main.sol\":1919:2377  uint256[10][10] private compatMatrix = [[1, 1, 0, 0, 0, 0, 1, 1, 0, 0],... */\n  0xff\n  and\n  dup2\n  mstore\n  0x20\n  add\n    /* \"contracts/main.sol\":2141:2142  1 */\n  0x01\n    /* \"contracts/main.sol\":1919:2377  uint256[10][10] private compatMatrix = [[1, 1, 0, 0, 0, 0, 1, 1, 0, 0],... */\n  0xff\n  and\n  dup2\n  mstore\n  0x20\n  add\n    /* \"contracts/main.sol\":2144:2145  1 */\n  0x01\n    /* \"contracts/main.sol\":1919:2377  uint256[10][10] private compatMatrix = [[1, 1, 0, 0, 0, 0, 1, 1, 0, 0],... */\n  0xff\n  and\n  dup2\n  mstore\n  0x20\n  add\n    /* \"contracts/main.sol\":2147:2148  1 */\n  0x01\n    /* \"contracts/main.sol\":1919:2377  uint256[10][10] private compatMatrix = [[1, 1, 0, 0, 0, 0, 1, 1, 0, 0],... */\n  0xff\n  and\n  dup2\n  mstore\n  0x20\n  add\n    /* \"contracts/main.sol\":2150:2151  1 */\n  0x01\n    /* \"contracts/main.sol\":1919:2377  uint256[10][10] private compatMatrix = [[1, 1, 0, 0, 0, 0, 1, 1, 0, 0],... */\n  0xff\n  and\n  dup2\n  mstore\n  0x20\n  add\n    /* \"contracts/main.sol\":2153:2154  1 */\n  0x01\n    /* \"contracts/main.sol\":1919:2377  uint256[10][10] private compatMatrix = [[1, 1, 0, 0, 0, 0, 1, 1, 0, 0],... */\n  0xff\n  and\n  dup2\n  mstore\n  0x20\n  add\n    /* \"contracts/main.sol\":2156:2157  0 */\n  0x00\n    /* \"contracts/main.sol\":1919:2377  uint256[10][10] private compatMatrix = [[1, 1, 0, 0, 0, 0, 1, 1, 0, 0],... */\n  0xff\n  and\n  dup2\n  mstore\n  0x20\n  add\n    /* \"contracts/main.sol\":2159:2160  0 */\n  0x00\n    /* \"contracts/main.sol\":1919:2377  uint256[10][10] private compatMatrix = [[1, 1, 0, 0, 0, 0, 1, 1, 0, 0],... */\n  0xff\n  and\n  dup2\n  mstore\n  pop\n  dup2\n  mstore\n  0x20\n  add\n  mload(0x40)\n  dup1\n  0x0140\n  add\n  0x40\n  mstore\n  dup1\n    /* \"contracts/main.sol\":2175:2176  0 */\n  0x00\n    /* \"contracts/main.sol\":1919:2377  uint256[10][10] private compatMatrix = [[1, 1, 0, 0, 0, 0, 1, 1, 0, 0],... */\n  0xff\n  and\n  dup2\n  mstore\n  0x20\n  add\n    /* \"contracts/main.sol\":2178:2179  1 */\n  0x01\n    /* \"contracts/main.sol\":1919:2377  uint256[10][10] private compatMatrix = [[1, 1, 0, 0, 0, 0, 1, 1, 0, 0],... */\n  0xff\n  and\n  dup2\n  mstore\n  0x20\n  add\n    /* \"contracts/main.sol\":2181:2182  0 */\n  0x00\n    /* \"contracts/main.sol\":1919:2377  uint256[10][10] private compatMatrix = [[1, 1, 0, 0, 0, 0, 1, 1, 0, 0],... */\n  0xff\n  and\n  dup2\n  mstore\n  0x20\n  add\n    /* \"contracts/main.sol\":2184:2185  1 */\n  0x01\n    /* \"contracts/main.sol\":1919:2377  uint256[10][10] private compatMatrix = [[1, 1, 0, 0, 0, 0, 1, 1, 0, 0],... */\n  0xff\n  and\n  dup2\n  mstore\n  0x20\n  add\n    /* \"contracts/main.sol\":2187:2188  0 */\n  0x00\n    /* \"contracts/main.sol\":1919:2377  uint256[10][10] private compatMatrix = [[1, 1, 0, 0, 0, 0, 1, 1, 0, 0],... */\n  0xff\n  and\n  dup2\n  mstore\n  0x20\n  add\n    /* \"contracts/main.sol\":2190:2191  1 */\n  0x01\n    /* \"contracts/main.sol\":1919:2377  uint256[10][10] private compatMatrix = [[1, 1, 0, 0, 0, 0, 1, 1, 0, 0],... */\n  0xff\n  and\n  dup2\n  mstore\n  0x20\n  add\n    /* \"contracts/main.sol\":2193:2194  0 */\n  0x00\n    /* \"contracts/main.sol\":1919:2377  uint256[10][10] private compatMatrix = [[1, 1, 0, 0, 0, 0, 1, 1, 0, 0],... */\n  0xff\n  and\n  dup2\n  mstore\n  0x20\n  add\n    /* \"contracts/main.sol\":2196:2197  1 */\n  0x01\n    /* \"contracts/main.sol\":1919:2377  uint256[10][10] private compatMatrix = [[1, 1, 0, 0, 0, 0, 1, 1, 0, 0],... */\n  0xff\n  and\n  dup2\n  mstore\n  0x20\n  add\n    /* \"contracts/main.sol\":2199:2200  0 */\n  0x00\n    /* \"contracts/main.sol\":1919:2377  uint256[10][10] private compatMatrix = [[1, 1, 0, 0, 0, 0, 1, 1, 0, 0],... */\n  0xff\n  and\n  dup2\n  mstore\n  0x20\n  add\n    /* \"contracts/main.sol\":2202:2203  0 */\n  0x00\n    /* \"contracts/main.sol\":1919:2377  uint256[10][10] private compatMatrix = [[1, 1, 0, 0, 0, 0, 1, 1, 0, 0],... */\n  0xff\n  and\n  dup2\n  mstore\n  pop\n  dup2\n  mstore\n  0x20\n  add\n  mload(0x40)\n  dup1\n  0x0140\n  add\n  0x40\n  mstore\n  dup1\n    /* \"contracts/main.sol\":2218:2219  0 */\n  0x00\n    /* \"contracts/main.sol\":1919:2377  uint256[10][10] private compatMatrix = [[1, 1, 0, 0, 0, 0, 1, 1, 0, 0],... */\n  0xff\n  and\n  dup2\n  mstore\n  0x20\n  add\n    /* \"contracts/main.sol\":2221:2222  0 */\n  0x00\n    /* \"contracts/main.sol\":1919:2377  uint256[10][10] private compatMatrix = [[1, 1, 0, 0, 0, 0, 1, 1, 0, 0],... */\n  0xff\n  and\n  dup2\n  mstore\n  0x20\n  add\n    /* \"contracts/main.sol\":2224:2225  0 */\n  0x00\n    /* \"contracts/main.sol\":1919:2377  uint256[10][10] private compatMatrix = [[1, 1, 0, 0, 0, 0, 1, 1, 0, 0],... */\n  0xff\n  and\n  dup2\n  mstore\n  0x20\n  add\n    /* \"contracts/main.sol\":2227:2228  0 */\n  0x00\n    /* \"contracts/main.sol\":1919:2377  uint256[10][10] private compatMatrix = [[1, 1, 0, 0, 0, 0, 1, 1, 0, 0],... */\n  0xff\n  and\n  dup2\n  mstore\n  0x20\n  add\n    /* \"contracts/main.sol\":2230:2231  0 */\n  0x00\n    /* \"contracts/main.sol\":1919:2377  uint256[10][10] private compatMatrix = [[1, 1, 0, 0, 0, 0, 1, 1, 0, 0],... */\n  0xff\n  and\n  dup2\n  mstore\n  0x20\n  add\n    /* \"contracts/main.sol\":2233:2234  0 */\n  0x00\n    /* \"contracts/main.sol\":1919:2377  uint256[10][10] private compatMatrix = [[1, 1, 0, 0, 0, 0, 1, 1, 0, 0],... */\n  0xff\n  and\n  dup2\n  mstore\n  0x20\n  add\n    /* \"contracts/main.sol\":2236:2237  1 */\n  0x01\n    /* \"contracts/main.sol\":1919:2377  uint256[10][10] private compatMatrix = [[1, 1, 0, 0, 0, 0, 1, 1, 0, 0],... */\n  0xff\n  and\n  dup2\n  mstore\n  0x20\n  add\n    /* \"contracts/main.sol\":2239:2240  1 */\n  0x01\n    /* \"contracts/main.sol\":1919:2377  uint256[10][10] private compatMatrix = [[1, 1, 0, 0, 0, 0, 1, 1, 0, 0],... */\n  0xff\n  and\n  dup2\n  mstore\n  0x20\n  add\n    /* \"contracts/main.sol\":2242:2243  0 */\n  0x00\n    /* \"contracts/main.sol\":1919:2377  uint256[10][10] private compatMatrix = [[1, 1, 0, 0, 0, 0, 1, 1, 0, 0],... */\n  0xff\n  and\n  dup2\n  mstore\n  0x20\n  add\n    /* \"contracts/main.sol\":2245:2246  0 */\n  0x00\n    /* \"contracts/main.sol\":1919:2377  uint256[10][10] private compatMatrix = [[1, 1, 0, 0, 0, 0, 1, 1, 0, 0],... */\n  0xff\n  and\n  dup2\n  mstore\n  pop\n  dup2\n  mstore\n  0x20\n  add\n  mload(0x40)\n  dup1\n  0x0140\n  add\n  0x40\n  mstore\n  dup1\n    /* \"contracts/main.sol\":2261:2262  0 */\n  0x00\n    /* \"contracts/main.sol\":1919:2377  uint256[10][10] private compatMatrix = [[1, 1, 0, 0, 0, 0, 1, 1, 0, 0],... */\n  0xff\n  and\n  dup2\n  mstore\n  0x20\n  add\n    /* \"contracts/main.sol\":2264:2265  0 */\n  0x00\n    /* \"contracts/main.sol\":1919:2377  uint256[10][10] private compatMatrix = [[1, 1, 0, 0, 0, 0, 1, 1, 0, 0],... */\n  0xff\n  and\n  dup2\n  mstore\n  0x20\n  add\n    /* \"contracts/main.sol\":2267:2268  0 */\n  0x00\n    /* \"contracts/main.sol\":1919:2377  uint256[10][10] private compatMatrix = [[1, 1, 0, 0, 0, 0, 1, 1, 0, 0],... */\n  0xff\n  and\n  dup2\n  mstore\n  0x20\n  add\n    /* \"contracts/main.sol\":2270:2271  0 */\n  0x00\n    /* \"contracts/main.sol\":1919:2377  uint256[10][10] private compatMatrix = [[1, 1, 0, 0, 0, 0, 1, 1, 0, 0],... */\n  0xff\n  and\n  dup2\n  mstore\n  0x20\n  add\n    /* \"contracts/main.sol\":2273:2274  0 */\n  0x00\n    /* \"contracts/main.sol\":1919:2377  uint256[10][10] private compatMatrix = [[1, 1, 0, 0, 0, 0, 1, 1, 0, 0],... */\n  0xff\n  and\n  dup2\n  mstore\n  0x20\n  add\n    /* \"contracts/main.sol\":2276:2277  0 */\n  0x00\n    /* \"contracts/main.sol\":1919:2377  uint256[10][10] private compatMatrix = [[1, 1, 0, 0, 0, 0, 1, 1, 0, 0],... */\n  0xff\n  and\n  dup2\n  mstore\n  0x20\n  add\n    /* \"contracts/main.sol\":2279:2280  0 */\n  0x00\n    /* \"contracts/main.sol\":1919:2377  uint256[10][10] private compatMatrix = [[1, 1, 0, 0, 0, 0, 1, 1, 0, 0],... */\n  0xff\n  and\n  dup2\n  mstore\n  0x20\n  add\n    /* \"contracts/main.sol\":2282:2283  1 */\n  0x01\n    /* \"contracts/main.sol\":1919:2377  uint256[10][10] private compatMatrix = [[1, 1, 0, 0, 0, 0, 1, 1, 0, 0],... */\n  0xff\n  and\n  dup2\n  mstore\n  0x20\n  add\n    /* \"contracts/main.sol\":2285:2286  0 */\n  0x00\n    /* \"contracts/main.sol\":1919:2377  uint256[10][10] private compatMatrix = [[1, 1, 0, 0, 0, 0, 1, 1, 0, 0],... */\n  0xff\n  and\n  dup2\n  mstore\n  0x20\n  add\n    /* \"contracts/main.sol\":2288:2289  0 */\n  0x00\n    /* \"contracts/main.sol\":1919:2377  uint256[10][10] private compatMatrix = [[1, 1, 0, 0, 0, 0, 1, 1, 0, 0],... */\n  0xff\n  and\n  dup2\n  mstore\n  pop\n  dup2\n  mstore\n  0x20\n  add\n  mload(0x40)\n  dup1\n  0x0140\n  add\n  0x40\n  mstore\n  dup1\n    /* \"contracts/main.sol\":2304:2305  0 */\n  0x00\n    /* \"contracts/main.sol\":1919:2377  uint256[10][10] private compatMatrix = [[1, 1, 0, 0, 0, 0, 1, 1, 0, 0],... */\n  0xff\n  and\n  dup2\n  mstore\n  0x20\n  add\n    /* \"contracts/main.sol\":2307:2308  0 */\n  0x00\n    /* \"contracts/main.sol\":1919:2377  uint256[10][10] private compatMatrix = [[1, 1, 0, 0, 0, 0, 1, 1, 0, 0],... */\n  0xff\n  and\n  dup2\n  mstore\n  0x20\n  add\n    /* \"contracts/main.sol\":2310:2311  0 */\n  0x00\n    /* \"contracts/main.sol\":1919:2377  uint256[10][10] private compatMatrix = [[1, 1, 0, 0, 0, 0, 1, 1, 0, 0],... */\n  0xff\n  and\n  dup2\n  mstore\n  0x20\n  add\n    /* \"contracts/main.sol\":2313:2314  0 */\n  0x00\n    /* \"contracts/main.sol\":1919:2377  uint256[10][10] private compatMatrix = [[1, 1, 0, 0, 0, 0, 1, 1, 0, 0],... */\n  0xff\n  and\n  dup2\n  mstore\n  0x20\n  add\n    /* \"contracts/main.sol\":2316:2317  0 */\n  0x00\n    /* \"contracts/main.sol\":1919:2377  uint256[10][10] private compatMatrix = [[1, 1, 0, 0, 0, 0, 1, 1, 0, 0],... */\n  0xff\n  and\n  dup2\n  mstore\n  0x20\n  add\n    /* \"contracts/main.sol\":2319:2320  0 */\n  0x00\n    /* \"contracts/main.sol\":1919:2377  uint256[10][10] private compatMatrix = [[1, 1, 0, 0, 0, 0, 1, 1, 0, 0],... */\n  0xff\n  and\n  dup2\n  mstore\n  0x20\n  add\n    /* \"contracts/main.sol\":2322:2323  0 */\n  0x00\n    /* \"contracts/main.sol\":1919:2377  uint256[10][10] private compatMatrix = [[1, 1, 0, 0, 0, 0, 1, 1, 0, 0],... */\n  0xff\n  and\n  dup2\n  mstore\n  0x20\n  add\n    /* \"contracts/main.sol\":2325:2326  0 */\n  0x00\n    /* \"contracts/main.sol\":1919:2377  uint256[10][10] private compatMatrix = [[1, 1, 0, 0, 0, 0, 1, 1, 0, 0],... */\n  0xff\n  and\n  dup2\n  mstore\n  0x20\n  add\n    /* \"contracts/main.sol\":2328:2329  1 */\n  0x01\n    /* \"contracts/main.sol\":1919:2377  uint256[10][10] private compatMatrix = [[1, 1, 0, 0, 0, 0, 1, 1, 0, 0],... */\n  0xff\n  and\n  dup2\n  mstore\n  0x20\n  add\n    /* \"contracts/main.sol\":2331:2332  0 */\n  0x00\n    /* \"contracts/main.sol\":1919:2377  uint256[10][10] private compatMatrix = [[1, 1, 0, 0, 0, 0, 1, 1, 0, 0],... */\n  0xff\n  and\n  dup2\n  mstore\n  pop\n  dup2\n  mstore\n  0x20\n  add\n  mload(0x40)\n  dup1\n  0x0140\n  add\n  0x40\n  mstore\n  dup1\n    /* \"contracts/main.sol\":2347:2348  0 */\n  0x00\n    /* \"contracts/main.sol\":1919:2377  uint256[10][10] private compatMatrix = [[1, 1, 0, 0, 0, 0, 1, 1, 0, 0],... */\n  0xff\n  and\n  dup2\n  mstore\n  0x20\n  add\n    /* \"contracts/main.sol\":2350:2351  0 */\n  0x00\n    /* \"contracts/main.sol\":1919:2377  uint256[10][10] private compatMatrix = [[1, 1, 0, 0, 0, 0, 1, 1, 0, 0],... */\n  0xff\n  and\n  dup2\n  mstore\n  0x20\n  add\n    /* \"contracts/main.sol\":2353:2354  0 */\n  0x00\n    /* \"contracts/main.sol\":1919:2377  uint256[10][10] private compatMatrix = [[1, 1, 0, 0, 0, 0, 1, 1, 0, 0],... */\n  0xff\n  and\n  dup2\n  mstore\n  0x20\n  add\n    /* \"contracts/main.sol\":2356:2357  0 */\n  0x00\n    /* \"contracts/main.sol\":1919:2377  uint256[10][10] private compatMatrix = [[1, 1, 0, 0, 0, 0, 1, 1, 0, 0],... */\n  0xff\n  and\n  dup2\n  mstore\n  0x20\n  add\n    /* \"contracts/main.sol\":2359:2360  0 */\n  0x00\n    /* \"contracts/main.sol\":1919:2377  uint256[10][10] private compatMatrix = [[1, 1, 0, 0, 0, 0, 1, 1, 0, 0],... */\n  0xff\n  and\n  dup2\n  mstore\n  0x20\n  add\n    /* \"contracts/main.sol\":2362:2363  0 */\n  0x00\n    /* \"contracts/main.sol\":1919:2377  uint256[10][10] private compatMatrix = [[1, 1, 0, 0, 0, 0, 1, 1, 0, 0],... */\n  0xff\n  and\n  dup2\n  mstore\n  0x20\n  add\n    /* \"contracts/main.sol\":2365:2366  0 */\n  0x00\n    /* \"contracts/main.sol\":1919:2377  uint256[10][10] private compatMatrix = [[1, 1, 0, 0, 0, 0, 1, 1, 0, 0],... */\n  0xff\n  and\n  dup2\n  mstore\n  0x20\n  add\n    /* \"contracts/main.sol\":2368:2369  0 */\n  0x00\n    /* \"contracts/main.sol\":1919:2377  uint256[10][10] private compatMatrix = [[1, 1, 0, 0, 0, 0, 1, 1, 0, 0],... */\n  0xff\n  and\n  dup2\n  mstore\n  0x20\n  add\n    /* \"contracts/main.sol\":2371:2372  0 */\n  0x00\n    /* \"contracts/main.sol\":1919:2377  uint256[10][10] private compatMatrix = [[1, 1, 0, 0, 0, 0, 1, 1, 0, 0],... */\n  0xff\n  and\n  dup2\n  mstore\n  0x20\n  add\n    /* \"contracts/main.sol\":2374:2375  1 */\n  0x01\n    /* \"contracts/main.sol\":1919:2377  uint256[10][10] private compatMatrix = [[1, 1, 0, 0, 0, 0, 1, 1, 0, 0],... */\n  0xff\n  and\n  dup2\n  mstore\n  pop\n  dup2\n  mstore\n  pop\n  0x06\n  swap1\n  0x0a\n  tag_1\n  swap3\n  swap2\n  swap1\n  tag_2\n  jump\t// in\ntag_1:\n  pop\n    /* \"contracts/main.sol\":166:618  constructor (string memory _donorPass, string memory _recipientPass, string memory _matchedPass) {... */\n  callvalue\n  dup1\n  iszero\n  tag_3\n  jumpi\n  0x00\n  dup1\n  revert\ntag_3:\n  pop\n  mload(0x40)\n  sub(codesize, bytecodeSize)\n  dup1\n  bytecodeSize\n  dup4\n  codecopy\n  dup2\n  dup2\n  add\n  0x40\n  mstore\n  dup2\n  add\n  swap1\n  tag_4\n  swap2\n  swap1\n  tag_5\n  jump\t// in\ntag_4:\n    /* \"contracts/main.sol\":306:316  _donorPass */\n  dup3\n    /* \"contracts/main.sol\":289:317  abi.encodePacked(_donorPass) */\n  add(0x20, mload(0x40))\n  tag_8\n  swap2\n  swap1\n  tag_9\n  jump\t// in\ntag_8:\n  mload(0x40)\n  0x20\n  dup2\n  dup4\n  sub\n  sub\n  dup2\n  mstore\n  swap1\n  0x40\n  mstore\n    /* \"contracts/main.sol\":279:318  keccak256(abi.encodePacked(_donorPass)) */\n  dup1\n  mload\n  swap1\n  0x20\n  add\n  keccak256\n    /* \"contracts/main.sol\":267:276  donorPass */\n  0x00\n    /* \"contracts/main.sol\":267:318  donorPass = keccak256(abi.encodePacked(_donorPass)) */\n  dup2\n  swap1\n  sstore\n  pop\n    /* \"contracts/main.sol\":361:370  donorPass */\n  sload(0x00)\n    /* \"contracts/main.sol\":344:371  abi.encodePacked(donorPass) */\n  add(0x20, mload(0x40))\n  tag_10\n  swap2\n  swap1\n  tag_11\n  jump\t// in\ntag_10:\n  mload(0x40)\n  0x20\n  dup2\n  dup4\n  sub\n  sub\n  dup2\n  mstore\n  swap1\n  0x40\n  mstore\n    /* \"contracts/main.sol\":334:372  keccak256(abi.encodePacked(donorPass)) */\n  dup1\n  mload\n  swap1\n  0x20\n  add\n  keccak256\n    /* \"contracts/main.sol\":322:331  donorPass */\n  0x00\n    /* \"contracts/main.sol\":322:372  donorPass = keccak256(abi.encodePacked(donorPass)) */\n  dup2\n  swap1\n  sstore\n  pop\n    /* \"contracts/main.sol\":419:433  _recipientPass */\n  dup2\n    /* \"contracts/main.sol\":402:434  abi.encodePacked(_recipientPass) */\n  add(0x20, mload(0x40))\n  tag_12\n  swap2\n  swap1\n  tag_9\n  jump\t// in\ntag_12:\n  mload(0x40)\n  0x20\n  dup2\n  dup4\n  sub\n  sub\n  dup2\n  mstore\n  swap1\n  0x40\n  mstore\n    /* \"contracts/main.sol\":392:435  keccak256(abi.encodePacked(_recipientPass)) */\n  dup1\n  mload\n  swap1\n  0x20\n  add\n  keccak256\n    /* \"contracts/main.sol\":376:389  recipientPass */\n  0x01\n    /* \"contracts/main.sol\":376:435  recipientPass = keccak256(abi.encodePacked(_recipientPass)) */\n  dup2\n  swap1\n  sstore\n  pop\n    /* \"contracts/main.sol\":482:495  recipientPass */\n  sload(0x01)\n    /* \"contracts/main.sol\":465:496  abi.encodePacked(recipientPass) */\n  add(0x20, mload(0x40))\n  tag_13\n  swap2\n  swap1\n  tag_11\n  jump\t// in\ntag_13:\n  mload(0x40)\n  0x20\n  dup2\n  dup4\n  sub\n  sub\n  dup2\n  mstore\n  swap1\n  0x40\n  mstore\n    /* \"contracts/main.sol\":455:497  keccak256(abi.encodePacked(recipientPass)) */\n  dup1\n  mload\n  swap1\n  0x20\n  add\n  keccak256\n    /* \"contracts/main.sol\":439:452  recipientPass */\n  0x01\n    /* \"contracts/main.sol\":439:497  recipientPass = keccak256(abi.encodePacked(recipientPass)) */\n  dup2\n  swap1\n  sstore\n  pop\n    /* \"contracts/main.sol\":542:554  _matchedPass */\n  dup1\n    /* \"contracts/main.sol\":525:555  abi.encodePacked(_matchedPass) */\n  add(0x20, mload(0x40))\n  tag_14\n  swap2\n  swap1\n  tag_9\n  jump\t// in\ntag_14:\n  mload(0x40)\n  0x20\n  dup2\n  dup4\n  sub\n  sub\n  dup2\n  mstore\n  swap1\n  0x40\n  mstore\n    /* \"contracts/main.sol\":515:556  keccak256(abi.encodePacked(_matchedPass)) */\n  dup1\n  mload\n  swap1\n  0x20\n  add\n  keccak256\n    /* \"contracts/main.sol\":501:512  matchedPass */\n  0x02\n    /* \"contracts/main.sol\":501:556  matchedPass = keccak256(abi.encodePacked(_matchedPass)) */\n  dup2\n  swap1\n  sstore\n  pop\n    /* \"contracts/main.sol\":601:612  matchedPass */\n  sload(0x02)\n    /* \"contracts/main.sol\":584:613  abi.encodePacked(matchedPass) */\n  add(0x20, mload(0x40))\n  tag_15\n  swap2\n  swap1\n  tag_11\n  jump\t// in\ntag_15:\n  mload(0x40)\n  0x20\n  dup2\n  dup4\n  sub\n  sub\n  dup2\n  mstore\n  swap1\n  0x40\n  mstore\n    /* \"contracts/main.sol\":574:614  keccak256(abi.encodePacked(matchedPass)) */\n  dup1\n  mload\n  swap1\n  0x20\n  add\n  keccak256\n    /* \"contracts/main.sol\":560:571  matchedPass */\n  0x02\n    /* \"contracts/main.sol\":560:614  matchedPass = keccak256(abi.encodePacked(matchedPass)) */\n  dup2\n  swap1\n  sstore\n  pop\n    /* \"contracts/main.sol\":166:618  constructor (string memory _donorPass, string memory _recipientPass, string memory _matchedPass) {... */\n  pop\n  pop\n  pop\n    /* \"contracts/main.sol\":58:7173  contract main {... */\n  jump(tag_16)\ntag_2:\n  dup3\n  0x0a\n  dup1\n  mul\n  dup2\n  add\n  swap3\n  dup3\n  iszero\n  tag_17\n  jumpi\n  swap2\n  0x20\n  mul\n  dup3\n  add\ntag_18:\n  dup3\n  dup2\n  gt\n  iszero\n  tag_19\n  jumpi\n  dup3\n  mload\n  dup3\n  swap1\n  0x0a\n  tag_20\n  swap3\n  swap2\n  swap1\n  tag_21\n  jump\t// in\ntag_20:\n  pop\n  swap2\n  0x20\n  add\n  swap2\n  swap1\n  0x0a\n  add\n  swap1\n  jump(tag_18)\ntag_19:\ntag_17:\n  pop\n  swap1\n  pop\n  tag_22\n  swap2\n  swap1\n  tag_23\n  jump\t// in\ntag_22:\n  pop\n  swap1\n  jump\t// out\ntag_21:\n  dup3\n  0x0a\n  dup2\n  add\n  swap3\n  dup3\n  iszero\n  tag_24\n  jumpi\n  swap2\n  0x20\n  mul\n  dup3\n  add\ntag_25:\n  dup3\n  dup2\n  gt\n  iszero\n  tag_26\n  jumpi\n  dup3\n  mload\n  dup3\n  swap1\n  0xff\n  and\n  swap1\n  sstore\n  swap2\n  0x20\n  add\n  swap2\n  swap1\n  0x01\n  add\n  swap1\n  jump(tag_25)\ntag_26:\ntag_24:\n  pop\n  swap1\n  pop\n  tag_27\n  swap2\n  swap1\n  tag_28\n  jump\t// in\ntag_27:\n  pop\n  swap1\n  jump\t// out\ntag_23:\ntag_29:\n  dup1\n  dup3\n  gt\n  iszero\n  tag_30\n  jumpi\n  0x00\n  dup2\n  dup2\n  tag_31\n  swap2\n  swap1\n  tag_32\n  jump\t// in\ntag_31:\n  pop\n  0x0a\n  add\n  jump(tag_29)\ntag_30:\n  pop\n  swap1\n  jump\t// out\ntag_28:\ntag_33:\n  dup1\n  dup3\n  gt\n  iszero\n  tag_34\n  jumpi\n  0x00\n  dup2\n  0x00\n  swap1\n  sstore\n  pop\n  0x01\n  add\n  jump(tag_33)\ntag_34:\n  pop\n  swap1\n  jump\t// out\ntag_32:\n  pop\n  dup1\n  0x0a\n  add\n  swap1\n  tag_35\n  swap2\n  swap1\n  tag_28\n  jump\t// in\ntag_35:\n  pop\n  jump\t// out\n    /* \"#utility.yul\":7:82   */\ntag_36:\n    /* \"#utility.yul\":40:46   */\n  0x00\n    /* \"#utility.yul\":73:75   */\n  0x40\n    /* \"#utility.yul\":67:76   */\n  mload\n    /* \"#utility.yul\":57:76   */\n  swap1\n  pop\n    /* \"#utility.yul\":7:82   */\n  swap1\n  jump\t// out\n    /* \"#utility.yul\":88:205   */\ntag_37:\n    /* \"#utility.yul\":197:198   */\n  0x00\n    /* \"#utility.yul\":194:195   */\n  dup1\n    /* \"#utility.yul\":187:199   */\n  revert\n    /* \"#utility.yul\":211:328   */\ntag_38:\n    /* \"#utility.yul\":320:321   */\n  0x00\n    /* \"#utility.yul\":317:318   */\n  dup1\n    /* \"#utility.yul\":310:322   */\n  revert\n    /* \"#utility.yul\":334:451   */\ntag_39:\n    /* \"#utility.yul\":443:444   */\n  0x00\n    /* \"#utility.yul\":440:441   */\n  dup1\n    /* \"#utility.yul\":433:445   */\n  revert\n    /* \"#utility.yul\":457:574   */\ntag_40:\n    /* \"#utility.yul\":566:567   */\n  0x00\n    /* \"#utility.yul\":563:564   */\n  dup1\n    /* \"#utility.yul\":556:568   */\n  revert\n    /* \"#utility.yul\":580:682   */\ntag_41:\n    /* \"#utility.yul\":621:627   */\n  0x00\n    /* \"#utility.yul\":672:674   */\n  0x1f\n    /* \"#utility.yul\":668:675   */\n  not\n    /* \"#utility.yul\":663:665   */\n  0x1f\n    /* \"#utility.yul\":656:661   */\n  dup4\n    /* \"#utility.yul\":652:666   */\n  add\n    /* \"#utility.yul\":648:676   */\n  and\n    /* \"#utility.yul\":638:676   */\n  swap1\n  pop\n    /* \"#utility.yul\":580:682   */\n  swap2\n  swap1\n  pop\n  jump\t// out\n    /* \"#utility.yul\":688:868   */\ntag_42:\n    /* \"#utility.yul\":736:813   */\n  0x4e487b7100000000000000000000000000000000000000000000000000000000\n    /* \"#utility.yul\":733:734   */\n  0x00\n    /* \"#utility.yul\":726:814   */\n  mstore\n    /* \"#utility.yul\":833:837   */\n  0x41\n    /* \"#utility.yul\":830:831   */\n  0x04\n    /* \"#utility.yul\":823:838   */\n  mstore\n    /* \"#utility.yul\":857:861   */\n  0x24\n    /* \"#utility.yul\":854:855   */\n  0x00\n    /* \"#utility.yul\":847:862   */\n  revert\n    /* \"#utility.yul\":874:1155   */\ntag_43:\n    /* \"#utility.yul\":957:984   */\n  tag_64\n    /* \"#utility.yul\":979:983   */\n  dup3\n    /* \"#utility.yul\":957:984   */\n  tag_41\n  jump\t// in\ntag_64:\n    /* \"#utility.yul\":949:955   */\n  dup2\n    /* \"#utility.yul\":945:985   */\n  add\n    /* \"#utility.yul\":1087:1093   */\n  dup2\n    /* \"#utility.yul\":1075:1085   */\n  dup2\n    /* \"#utility.yul\":1072:1094   */\n  lt\n    /* \"#utility.yul\":1051:1069   */\n  0xffffffffffffffff\n    /* \"#utility.yul\":1039:1049   */\n  dup3\n    /* \"#utility.yul\":1036:1070   */\n  gt\n    /* \"#utility.yul\":1033:1095   */\n  or\n    /* \"#utility.yul\":1030:1118   */\n  iszero\n  tag_65\n  jumpi\n    /* \"#utility.yul\":1098:1116   */\n  tag_66\n  tag_42\n  jump\t// in\ntag_66:\n    /* \"#utility.yul\":1030:1118   */\ntag_65:\n    /* \"#utility.yul\":1138:1148   */\n  dup1\n    /* \"#utility.yul\":1134:1136   */\n  0x40\n    /* \"#utility.yul\":1127:1149   */\n  mstore\n    /* \"#utility.yul\":917:1155   */\n  pop\n    /* \"#utility.yul\":874:1155   */\n  pop\n  pop\n  jump\t// out\n    /* \"#utility.yul\":1161:1290   */\ntag_44:\n    /* \"#utility.yul\":1195:1201   */\n  0x00\n    /* \"#utility.yul\":1222:1242   */\n  tag_68\n  tag_36\n  jump\t// in\ntag_68:\n    /* \"#utility.yul\":1212:1242   */\n  swap1\n  pop\n    /* \"#utility.yul\":1251:1284   */\n  tag_69\n    /* \"#utility.yul\":1279:1283   */\n  dup3\n    /* \"#utility.yul\":1271:1277   */\n  dup3\n    /* \"#utility.yul\":1251:1284   */\n  tag_43\n  jump\t// in\ntag_69:\n    /* \"#utility.yul\":1161:1290   */\n  swap2\n  swap1\n  pop\n  jump\t// out\n    /* \"#utility.yul\":1296:1604   */\ntag_45:\n    /* \"#utility.yul\":1358:1362   */\n  0x00\n    /* \"#utility.yul\":1448:1466   */\n  0xffffffffffffffff\n    /* \"#utility.yul\":1440:1446   */\n  dup3\n    /* \"#utility.yul\":1437:1467   */\n  gt\n    /* \"#utility.yul\":1434:1490   */\n  iszero\n  tag_71\n  jumpi\n    /* \"#utility.yul\":1470:1488   */\n  tag_72\n  tag_42\n  jump\t// in\ntag_72:\n    /* \"#utility.yul\":1434:1490   */\ntag_71:\n    /* \"#utility.yul\":1508:1537   */\n  tag_73\n    /* \"#utility.yul\":1530:1536   */\n  dup3\n    /* \"#utility.yul\":1508:1537   */\n  tag_41\n  jump\t// in\ntag_73:\n    /* \"#utility.yul\":1500:1537   */\n  swap1\n  pop\n    /* \"#utility.yul\":1592:1596   */\n  0x20\n    /* \"#utility.yul\":1586:1590   */\n  dup2\n    /* \"#utility.yul\":1582:1597   */\n  add\n    /* \"#utility.yul\":1574:1597   */\n  swap1\n  pop\n    /* \"#utility.yul\":1296:1604   */\n  swap2\n  swap1\n  pop\n  jump\t// out\n    /* \"#utility.yul\":1610:1749   */\ntag_46:\n    /* \"#utility.yul\":1699:1705   */\n  dup3\n    /* \"#utility.yul\":1694:1697   */\n  dup2\n    /* \"#utility.yul\":1689:1692   */\n  dup4\n    /* \"#utility.yul\":1683:1706   */\n  mcopy\n    /* \"#utility.yul\":1740:1741   */\n  0x00\n    /* \"#utility.yul\":1731:1737   */\n  dup4\n    /* \"#utility.yul\":1726:1729   */\n  dup4\n    /* \"#utility.yul\":1722:1738   */\n  add\n    /* \"#utility.yul\":1715:1742   */\n  mstore\n    /* \"#utility.yul\":1610:1749   */\n  pop\n  pop\n  pop\n  jump\t// out\n    /* \"#utility.yul\":1755:2189   */\ntag_47:\n    /* \"#utility.yul\":1844:1849   */\n  0x00\n    /* \"#utility.yul\":1869:1935   */\n  tag_76\n    /* \"#utility.yul\":1885:1934   */\n  tag_77\n    /* \"#utility.yul\":1927:1933   */\n  dup5\n    /* \"#utility.yul\":1885:1934   */\n  tag_45\n  jump\t// in\ntag_77:\n    /* \"#utility.yul\":1869:1935   */\n  tag_44\n  jump\t// in\ntag_76:\n    /* \"#utility.yul\":1860:1935   */\n  swap1\n  pop\n    /* \"#utility.yul\":1958:1964   */\n  dup3\n    /* \"#utility.yul\":1951:1956   */\n  dup2\n    /* \"#utility.yul\":1944:1965   */\n  mstore\n    /* \"#utility.yul\":1996:2000   */\n  0x20\n    /* \"#utility.yul\":1989:1994   */\n  dup2\n    /* \"#utility.yul\":1985:2001   */\n  add\n    /* \"#utility.yul\":2034:2037   */\n  dup5\n    /* \"#utility.yul\":2025:2031   */\n  dup5\n    /* \"#utility.yul\":2020:2023   */\n  dup5\n    /* \"#utility.yul\":2016:2032   */\n  add\n    /* \"#utility.yul\":2013:2038   */\n  gt\n    /* \"#utility.yul\":2010:2122   */\n  iszero\n  tag_78\n  jumpi\n    /* \"#utility.yul\":2041:2120   */\n  tag_79\n  tag_40\n  jump\t// in\ntag_79:\n    /* \"#utility.yul\":2010:2122   */\ntag_78:\n    /* \"#utility.yul\":2131:2183   */\n  tag_80\n    /* \"#utility.yul\":2176:2182   */\n  dup5\n    /* \"#utility.yul\":2171:2174   */\n  dup3\n    /* \"#utility.yul\":2166:2169   */\n  dup6\n    /* \"#utility.yul\":2131:2183   */\n  tag_46\n  jump\t// in\ntag_80:\n    /* \"#utility.yul\":1850:2189   */\n  pop\n    /* \"#utility.yul\":1755:2189   */\n  swap4\n  swap3\n  pop\n  pop\n  pop\n  jump\t// out\n    /* \"#utility.yul\":2209:2564   */\ntag_48:\n    /* \"#utility.yul\":2276:2281   */\n  0x00\n    /* \"#utility.yul\":2325:2328   */\n  dup3\n    /* \"#utility.yul\":2318:2322   */\n  0x1f\n    /* \"#utility.yul\":2310:2316   */\n  dup4\n    /* \"#utility.yul\":2306:2323   */\n  add\n    /* \"#utility.yul\":2302:2329   */\n  slt\n    /* \"#utility.yul\":2292:2414   */\n  tag_82\n  jumpi\n    /* \"#utility.yul\":2333:2412   */\n  tag_83\n  tag_39\n  jump\t// in\ntag_83:\n    /* \"#utility.yul\":2292:2414   */\ntag_82:\n    /* \"#utility.yul\":2443:2449   */\n  dup2\n    /* \"#utility.yul\":2437:2450   */\n  mload\n    /* \"#utility.yul\":2468:2558   */\n  tag_84\n    /* \"#utility.yul\":2554:2557   */\n  dup5\n    /* \"#utility.yul\":2546:2552   */\n  dup3\n    /* \"#utility.yul\":2539:2543   */\n  0x20\n    /* \"#utility.yul\":2531:2537   */\n  dup7\n    /* \"#utility.yul\":2527:2544   */\n  add\n    /* \"#utility.yul\":2468:2558   */\n  tag_47\n  jump\t// in\ntag_84:\n    /* \"#utility.yul\":2459:2558   */\n  swap2\n  pop\n    /* \"#utility.yul\":2282:2564   */\n  pop\n    /* \"#utility.yul\":2209:2564   */\n  swap3\n  swap2\n  pop\n  pop\n  jump\t// out\n    /* \"#utility.yul\":2570:3752   */\ntag_5:\n    /* \"#utility.yul\":2688:2694   */\n  0x00\n    /* \"#utility.yul\":2696:2702   */\n  dup1\n    /* \"#utility.yul\":2704:2710   */\n  0x00\n    /* \"#utility.yul\":2753:2755   */\n  0x60\n    /* \"#utility.yul\":2741:2750   */\n  dup5\n    /* \"#utility.yul\":2732:2739   */\n  dup7\n    /* \"#utility.yul\":2728:2751   */\n  sub\n    /* \"#utility.yul\":2724:2756   */\n  slt\n    /* \"#utility.yul\":2721:2840   */\n  iszero\n  tag_86\n  jumpi\n    /* \"#utility.yul\":2759:2838   */\n  tag_87\n  tag_37\n  jump\t// in\ntag_87:\n    /* \"#utility.yul\":2721:2840   */\ntag_86:\n    /* \"#utility.yul\":2900:2901   */\n  0x00\n    /* \"#utility.yul\":2889:2898   */\n  dup5\n    /* \"#utility.yul\":2885:2902   */\n  add\n    /* \"#utility.yul\":2879:2903   */\n  mload\n    /* \"#utility.yul\":2930:2948   */\n  0xffffffffffffffff\n    /* \"#utility.yul\":2922:2928   */\n  dup2\n    /* \"#utility.yul\":2919:2949   */\n  gt\n    /* \"#utility.yul\":2916:3033   */\n  iszero\n  tag_88\n  jumpi\n    /* \"#utility.yul\":2952:3031   */\n  tag_89\n  tag_38\n  jump\t// in\ntag_89:\n    /* \"#utility.yul\":2916:3033   */\ntag_88:\n    /* \"#utility.yul\":3057:3131   */\n  tag_90\n    /* \"#utility.yul\":3123:3130   */\n  dup7\n    /* \"#utility.yul\":3114:3120   */\n  dup3\n    /* \"#utility.yul\":3103:3112   */\n  dup8\n    /* \"#utility.yul\":3099:3121   */\n  add\n    /* \"#utility.yul\":3057:3131   */\n  tag_48\n  jump\t// in\ntag_90:\n    /* \"#utility.yul\":3047:3131   */\n  swap4\n  pop\n    /* \"#utility.yul\":2850:3141   */\n  pop\n    /* \"#utility.yul\":3201:3203   */\n  0x20\n    /* \"#utility.yul\":3190:3199   */\n  dup5\n    /* \"#utility.yul\":3186:3204   */\n  add\n    /* \"#utility.yul\":3180:3205   */\n  mload\n    /* \"#utility.yul\":3232:3250   */\n  0xffffffffffffffff\n    /* \"#utility.yul\":3224:3230   */\n  dup2\n    /* \"#utility.yul\":3221:3251   */\n  gt\n    /* \"#utility.yul\":3218:3335   */\n  iszero\n  tag_91\n  jumpi\n    /* \"#utility.yul\":3254:3333   */\n  tag_92\n  tag_38\n  jump\t// in\ntag_92:\n    /* \"#utility.yul\":3218:3335   */\ntag_91:\n    /* \"#utility.yul\":3359:3433   */\n  tag_93\n    /* \"#utility.yul\":3425:3432   */\n  dup7\n    /* \"#utility.yul\":3416:3422   */\n  dup3\n    /* \"#utility.yul\":3405:3414   */\n  dup8\n    /* \"#utility.yul\":3401:3423   */\n  add\n    /* \"#utility.yul\":3359:3433   */\n  tag_48\n  jump\t// in\ntag_93:\n    /* \"#utility.yul\":3349:3433   */\n  swap3\n  pop\n    /* \"#utility.yul\":3151:3443   */\n  pop\n    /* \"#utility.yul\":3503:3505   */\n  0x40\n    /* \"#utility.yul\":3492:3501   */\n  dup5\n    /* \"#utility.yul\":3488:3506   */\n  add\n    /* \"#utility.yul\":3482:3507   */\n  mload\n    /* \"#utility.yul\":3534:3552   */\n  0xffffffffffffffff\n    /* \"#utility.yul\":3526:3532   */\n  dup2\n    /* \"#utility.yul\":3523:3553   */\n  gt\n    /* \"#utility.yul\":3520:3637   */\n  iszero\n  tag_94\n  jumpi\n    /* \"#utility.yul\":3556:3635   */\n  tag_95\n  tag_38\n  jump\t// in\ntag_95:\n    /* \"#utility.yul\":3520:3637   */\ntag_94:\n    /* \"#utility.yul\":3661:3735   */\n  tag_96\n    /* \"#utility.yul\":3727:3734   */\n  dup7\n    /* \"#utility.yul\":3718:3724   */\n  dup3\n    /* \"#utility.yul\":3707:3716   */\n  dup8\n    /* \"#utility.yul\":3703:3725   */\n  add\n    /* \"#utility.yul\":3661:3735   */\n  tag_48\n  jump\t// in\ntag_96:\n    /* \"#utility.yul\":3651:3735   */\n  swap2\n  pop\n    /* \"#utility.yul\":3453:3745   */\n  pop\n    /* \"#utility.yul\":2570:3752   */\n  swap3\n  pop\n  swap3\n  pop\n  swap3\n  jump\t// out\n    /* \"#utility.yul\":3758:3857   */\ntag_49:\n    /* \"#utility.yul\":3810:3816   */\n  0x00\n    /* \"#utility.yul\":3844:3849   */\n  dup2\n    /* \"#utility.yul\":3838:3850   */\n  mload\n    /* \"#utility.yul\":3828:3850   */\n  swap1\n  pop\n    /* \"#utility.yul\":3758:3857   */\n  swap2\n  swap1\n  pop\n  jump\t// out\n    /* \"#utility.yul\":3863:4011   */\ntag_50:\n    /* \"#utility.yul\":3965:3976   */\n  0x00\n    /* \"#utility.yul\":4002:4005   */\n  dup2\n    /* \"#utility.yul\":3987:4005   */\n  swap1\n  pop\n    /* \"#utility.yul\":3863:4011   */\n  swap3\n  swap2\n  pop\n  pop\n  jump\t// out\n    /* \"#utility.yul\":4017:4407   */\ntag_51:\n    /* \"#utility.yul\":4123:4126   */\n  0x00\n    /* \"#utility.yul\":4151:4190   */\n  tag_100\n    /* \"#utility.yul\":4184:4189   */\n  dup3\n    /* \"#utility.yul\":4151:4190   */\n  tag_49\n  jump\t// in\ntag_100:\n    /* \"#utility.yul\":4206:4295   */\n  tag_101\n    /* \"#utility.yul\":4288:4294   */\n  dup2\n    /* \"#utility.yul\":4283:4286   */\n  dup6\n    /* \"#utility.yul\":4206:4295   */\n  tag_50\n  jump\t// in\ntag_101:\n    /* \"#utility.yul\":4199:4295   */\n  swap4\n  pop\n    /* \"#utility.yul\":4304:4369   */\n  tag_102\n    /* \"#utility.yul\":4362:4368   */\n  dup2\n    /* \"#utility.yul\":4357:4360   */\n  dup6\n    /* \"#utility.yul\":4350:4354   */\n  0x20\n    /* \"#utility.yul\":4343:4348   */\n  dup7\n    /* \"#utility.yul\":4339:4355   */\n  add\n    /* \"#utility.yul\":4304:4369   */\n  tag_46\n  jump\t// in\ntag_102:\n    /* \"#utility.yul\":4394:4400   */\n  dup1\n    /* \"#utility.yul\":4389:4392   */\n  dup5\n    /* \"#utility.yul\":4385:4401   */\n  add\n    /* \"#utility.yul\":4378:4401   */\n  swap2\n  pop\n    /* \"#utility.yul\":4127:4407   */\n  pop\n    /* \"#utility.yul\":4017:4407   */\n  swap3\n  swap2\n  pop\n  pop\n  jump\t// out\n    /* \"#utility.yul\":4413:4688   */\ntag_9:\n    /* \"#utility.yul\":4545:4548   */\n  0x00\n    /* \"#utility.yul\":4567:4662   */\n  tag_104\n    /* \"#utility.yul\":4658:4661   */\n  dup3\n    /* \"#utility.yul\":4649:4655   */\n  dup5\n    /* \"#utility.yul\":4567:4662   */\n  tag_51\n  jump\t// in\ntag_104:\n    /* \"#utility.yul\":4560:4662   */\n  swap2\n  pop\n    /* \"#utility.yul\":4679:4682   */\n  dup2\n    /* \"#utility.yul\":4672:4682   */\n  swap1\n  pop\n    /* \"#utility.yul\":4413:4688   */\n  swap3\n  swap2\n  pop\n  pop\n  jump\t// out\n    /* \"#utility.yul\":4694:4771   */\ntag_52:\n    /* \"#utility.yul\":4731:4738   */\n  0x00\n    /* \"#utility.yul\":4760:4765   */\n  dup2\n    /* \"#utility.yul\":4749:4765   */\n  swap1\n  pop\n    /* \"#utility.yul\":4694:4771   */\n  swap2\n  swap1\n  pop\n  jump\t// out\n    /* \"#utility.yul\":4777:4856   */\ntag_53:\n    /* \"#utility.yul\":4816:4823   */\n  0x00\n    /* \"#utility.yul\":4845:4850   */\n  dup2\n    /* \"#utility.yul\":4834:4850   */\n  swap1\n  pop\n    /* \"#utility.yul\":4777:4856   */\n  swap2\n  swap1\n  pop\n  jump\t// out\n    /* \"#utility.yul\":4862:5019   */\ntag_54:\n    /* \"#utility.yul\":4967:5012   */\n  tag_108\n    /* \"#utility.yul\":4987:5011   */\n  tag_109\n    /* \"#utility.yul\":5005:5010   */\n  dup3\n    /* \"#utility.yul\":4987:5011   */\n  tag_52\n  jump\t// in\ntag_109:\n    /* \"#utility.yul\":4967:5012   */\n  tag_53\n  jump\t// in\ntag_108:\n    /* \"#utility.yul\":4962:4965   */\n  dup3\n    /* \"#utility.yul\":4955:5013   */\n  mstore\n    /* \"#utility.yul\":4862:5019   */\n  pop\n  pop\n  jump\t// out\n    /* \"#utility.yul\":5025:5281   */\ntag_11:\n    /* \"#utility.yul\":5137:5140   */\n  0x00\n    /* \"#utility.yul\":5152:5227   */\n  tag_111\n    /* \"#utility.yul\":5223:5226   */\n  dup3\n    /* \"#utility.yul\":5214:5220   */\n  dup5\n    /* \"#utility.yul\":5152:5227   */\n  tag_54\n  jump\t// in\ntag_111:\n    /* \"#utility.yul\":5252:5254   */\n  0x20\n    /* \"#utility.yul\":5247:5250   */\n  dup3\n    /* \"#utility.yul\":5243:5255   */\n  add\n    /* \"#utility.yul\":5236:5255   */\n  swap2\n  pop\n    /* \"#utility.yul\":5272:5275   */\n  dup2\n    /* \"#utility.yul\":5265:5275   */\n  swap1\n  pop\n    /* \"#utility.yul\":5025:5281   */\n  swap3\n  swap2\n  pop\n  pop\n  jump\t// out\n    /* \"contracts/main.sol\":58:7173  contract main {... */\ntag_16:\n  dataSize(sub_0)\n  dup1\n  dataOffset(sub_0)\n  0x00\n  codecopy\n  0x00\n  return\nstop\n\nsub_0: assembly {\n        /* \"contracts/main.sol\":58:7173  contract main {... */\n      mstore(0x40, 0x80)\n      callvalue\n      dup1\n      iszero\n      tag_1\n      jumpi\n      0x00\n      dup1\n      revert\n    tag_1:\n      pop\n      jumpi(tag_2, lt(calldatasize, 0x04))\n      shr(0xe0, calldataload(0x00))\n      dup1\n      0x4bb792ac\n      eq\n      tag_3\n      jumpi\n      dup1\n      0x822e242e\n      eq\n      tag_4\n      jumpi\n      dup1\n      0x963e9f1f\n      eq\n      tag_5\n      jumpi\n      dup1\n      0xae9ec457\n      eq\n      tag_6\n      jumpi\n      dup1\n      0xc005a930\n      eq\n      tag_7\n      jumpi\n    tag_2:\n      0x00\n      dup1\n      revert\n        /* \"contracts/main.sol\":5139:6778  function regRecipient(string memory _owner, string memory _organ, uint256 _bloodtype, uint256 _quantity) public {... */\n    tag_3:\n      tag_8\n      0x04\n      dup1\n      calldatasize\n      sub\n      dup2\n      add\n      swap1\n      tag_9\n      swap2\n      swap1\n      tag_10\n      jump\t// in\n    tag_9:\n      tag_11\n      jump\t// in\n    tag_8:\n      stop\n        /* \"contracts/main.sol\":3420:5136  function regDonor(string memory _owner, uint256 _bloodtype, string memory _organ, uint256 _quantity) public {... */\n    tag_4:\n      tag_12\n      0x04\n      dup1\n      calldatasize\n      sub\n      dup2\n      add\n      swap1\n      tag_13\n      swap2\n      swap1\n      tag_14\n      jump\t// in\n    tag_13:\n      tag_15\n      jump\t// in\n    tag_12:\n      stop\n        /* \"contracts/main.sol\":6906:7035  function showRecipient(string memory _pass) public view rlPassCheck(_pass) returns (orgdet[] memory) {... */\n    tag_5:\n      tag_16\n      0x04\n      dup1\n      calldatasize\n      sub\n      dup2\n      add\n      swap1\n      tag_17\n      swap2\n      swap1\n      tag_18\n      jump\t// in\n    tag_17:\n      tag_19\n      jump\t// in\n    tag_16:\n      mload(0x40)\n      tag_20\n      swap2\n      swap1\n      tag_21\n      jump\t// in\n    tag_20:\n      mload(0x40)\n      dup1\n      swap2\n      sub\n      swap1\n      return\n        /* \"contracts/main.sol\":6781:6903  function showDonors(string memory _pass) public view dlPassCheck(_pass) returns (orgdet[] memory) {... */\n    tag_6:\n      tag_22\n      0x04\n      dup1\n      calldatasize\n      sub\n      dup2\n      add\n      swap1\n      tag_23\n      swap2\n      swap1\n      tag_18\n      jump\t// in\n    tag_23:\n      tag_24\n      jump\t// in\n    tag_22:\n      mload(0x40)\n      tag_25\n      swap2\n      swap1\n      tag_21\n      jump\t// in\n    tag_25:\n      mload(0x40)\n      dup1\n      swap2\n      sub\n      swap1\n      return\n        /* \"contracts/main.sol\":7038:7171  function showMatches(string memory _pass) public view mlPassCheck(_pass) returns (matched_orgdet[] memory) {... */\n    tag_7:\n      tag_26\n      0x04\n      dup1\n      calldatasize\n      sub\n      dup2\n      add\n      swap1\n      tag_27\n      swap2\n      swap1\n      tag_18\n      jump\t// in\n    tag_27:\n      tag_28\n      jump\t// in\n    tag_26:\n      mload(0x40)\n      tag_29\n      swap2\n      swap1\n      tag_30\n      jump\t// in\n    tag_29:\n      mload(0x40)\n      dup1\n      swap2\n      sub\n      swap1\n      return\n        /* \"contracts/main.sol\":5139:6778  function regRecipient(string memory _owner, string memory _organ, uint256 _bloodtype, uint256 _quantity) public {... */\n    tag_11:\n        /* \"contracts/main.sol\":5274:5275  8 */\n      0x08\n        /* \"contracts/main.sol\":5260:5270  _bloodtype */\n      dup3\n        /* \"contracts/main.sol\":5260:5275  _bloodtype == 8 */\n      eq\n        /* \"contracts/main.sol\":5260:5294  _bloodtype == 8 || _bloodtype == 9 */\n      dup1\n      tag_32\n      jumpi\n      pop\n        /* \"contracts/main.sol\":5293:5294  9 */\n      0x09\n        /* \"contracts/main.sol\":5279:5289  _bloodtype */\n      dup3\n        /* \"contracts/main.sol\":5279:5294  _bloodtype == 9 */\n      eq\n        /* \"contracts/main.sol\":5260:5294  _bloodtype == 8 || _bloodtype == 9 */\n    tag_32:\n        /* \"contracts/main.sol\":5256:5449  if (_bloodtype == 8 || _bloodtype == 9) {... */\n      iszero\n      tag_33\n      jumpi\n        /* \"contracts/main.sol\":5301:5321  posBT = [_bloodtype] */\n      mload(0x40)\n      dup1\n      0x20\n      add\n      0x40\n      mstore\n      dup1\n        /* \"contracts/main.sol\":5310:5320  _bloodtype */\n      dup4\n        /* \"contracts/main.sol\":5301:5321  posBT = [_bloodtype] */\n      dup2\n      mstore\n      pop\n        /* \"contracts/main.sol\":5301:5306  posBT */\n      0x6a\n        /* \"contracts/main.sol\":5301:5321  posBT = [_bloodtype] */\n      swap1\n      0x01\n      tag_34\n      swap3\n      swap2\n      swap1\n      tag_35\n      jump\t// in\n    tag_34:\n      pop\n        /* \"contracts/main.sol\":5256:5449  if (_bloodtype == 8 || _bloodtype == 9) {... */\n      jump(tag_36)\n    tag_33:\n        /* \"contracts/main.sol\":5342:5351  uint256 i */\n      0x00\n        /* \"contracts/main.sol\":5337:5445  for (uint256 i = 0; i < 8; i++) {... */\n    tag_37:\n        /* \"contracts/main.sol\":5361:5362  8 */\n      0x08\n        /* \"contracts/main.sol\":5357:5358  i */\n      dup2\n        /* \"contracts/main.sol\":5357:5362  i < 8 */\n      lt\n        /* \"contracts/main.sol\":5337:5445  for (uint256 i = 0; i < 8; i++) {... */\n      iszero\n      tag_38\n      jumpi\n        /* \"contracts/main.sol\":5410:5411  1 */\n      0x01\n        /* \"contracts/main.sol\":5379:5391  compatMatrix */\n      0x06\n        /* \"contracts/main.sol\":5392:5402  _bloodtype */\n      dup5\n        /* \"contracts/main.sol\":5379:5403  compatMatrix[_bloodtype] */\n      0x0a\n      dup2\n      lt\n      tag_40\n      jumpi\n      tag_41\n      tag_42\n      jump\t// in\n    tag_41:\n    tag_40:\n      0x0a\n      mul\n      add\n        /* \"contracts/main.sol\":5404:5405  i */\n      dup3\n        /* \"contracts/main.sol\":5379:5406  compatMatrix[_bloodtype][i] */\n      0x0a\n      dup2\n      lt\n      tag_44\n      jumpi\n      tag_45\n      tag_42\n      jump\t// in\n    tag_45:\n    tag_44:\n      add\n      sload\n        /* \"contracts/main.sol\":5379:5411  compatMatrix[_bloodtype][i] == 1 */\n      sub\n        /* \"contracts/main.sol\":5375:5440  if (compatMatrix[_bloodtype][i] == 1) {... */\n      tag_47\n      jumpi\n        /* \"contracts/main.sol\":5420:5425  posBT */\n      0x6a\n        /* \"contracts/main.sol\":5431:5432  i */\n      dup2\n        /* \"contracts/main.sol\":5420:5433  posBT.push(i) */\n      swap1\n      dup1\n      0x01\n      dup2\n      sload\n      add\n      dup1\n      dup3\n      sstore\n      dup1\n      swap2\n      pop\n      pop\n      0x01\n      swap1\n      sub\n      swap1\n      0x00\n      mstore\n      keccak256(0x00, 0x20)\n      add\n      0x00\n      swap1\n      swap2\n      swap1\n      swap2\n      swap1\n      swap2\n      pop\n      sstore\n        /* \"contracts/main.sol\":5375:5440  if (compatMatrix[_bloodtype][i] == 1) {... */\n    tag_47:\n        /* \"contracts/main.sol\":5364:5367  i++ */\n      dup1\n      dup1\n      0x01\n      add\n      swap2\n      pop\n      pop\n        /* \"contracts/main.sol\":5337:5445  for (uint256 i = 0; i < 8; i++) {... */\n      jump(tag_37)\n    tag_38:\n      pop\n        /* \"contracts/main.sol\":5256:5449  if (_bloodtype == 8 || _bloodtype == 9) {... */\n    tag_36:\n        /* \"contracts/main.sol\":5453:5468  bool matchFound */\n      0x00\n        /* \"contracts/main.sol\":5486:5495  uint256 i */\n      dup1\n        /* \"contracts/main.sol\":5481:6695  for (uint256 i = 0; i < donorList.length; i++) {... */\n    tag_49:\n        /* \"contracts/main.sol\":5505:5514  donorList */\n      0x03\n        /* \"contracts/main.sol\":5505:5521  donorList.length */\n      dup1\n      sload\n      swap1\n      pop\n        /* \"contracts/main.sol\":5501:5502  i */\n      dup2\n        /* \"contracts/main.sol\":5501:5521  i < donorList.length */\n      lt\n        /* \"contracts/main.sol\":5481:6695  for (uint256 i = 0; i < donorList.length; i++) {... */\n      iszero\n      tag_50\n      jumpi\n        /* \"contracts/main.sol\":5593:5599  _organ */\n      dup5\n        /* \"contracts/main.sol\":5577:5601  keccak256(bytes(_organ)) */\n      dup1\n      mload\n      swap1\n      0x20\n      add\n      keccak256\n        /* \"contracts/main.sol\":5553:5562  donorList */\n      0x03\n        /* \"contracts/main.sol\":5563:5564  i */\n      dup3\n        /* \"contracts/main.sol\":5553:5565  donorList[i] */\n      dup2\n      sload\n      dup2\n      lt\n      tag_52\n      jumpi\n      tag_53\n      tag_42\n      jump\t// in\n    tag_53:\n    tag_52:\n      swap1\n      0x00\n      mstore\n      keccak256(0x00, 0x20)\n      swap1\n      0x04\n      mul\n      add\n        /* \"contracts/main.sol\":5553:5571  donorList[i].organ */\n      0x02\n      add\n        /* \"contracts/main.sol\":5537:5573  keccak256(bytes(donorList[i].organ)) */\n      mload(0x40)\n      tag_55\n      swap2\n      swap1\n      tag_56\n      jump\t// in\n    tag_55:\n      mload(0x40)\n      dup1\n      swap2\n      sub\n      swap1\n      keccak256\n        /* \"contracts/main.sol\":5537:5601  keccak256(bytes(donorList[i].organ)) == keccak256(bytes(_organ)) */\n      sub\n        /* \"contracts/main.sol\":5533:6691  if (keccak256(bytes(donorList[i].organ)) == keccak256(bytes(_organ))) {... */\n      tag_57\n      jumpi\n        /* \"contracts/main.sol\":5614:5623  uint256 j */\n      0x00\n        /* \"contracts/main.sol\":5609:6686  for (uint256 j = 0; j <\tposBT.length; j++) {... */\n    tag_58:\n        /* \"contracts/main.sol\":5633:5638  posBT */\n      0x6a\n        /* \"contracts/main.sol\":5633:5645  posBT.length */\n      dup1\n      sload\n      swap1\n      pop\n        /* \"contracts/main.sol\":5629:5630  j */\n      dup2\n        /* \"contracts/main.sol\":5629:5645  j <\tposBT.length */\n      lt\n        /* \"contracts/main.sol\":5609:6686  for (uint256 j = 0; j <\tposBT.length; j++) {... */\n      iszero\n      tag_59\n      jumpi\n        /* \"contracts/main.sol\":5689:5694  posBT */\n      0x6a\n        /* \"contracts/main.sol\":5695:5696  j */\n      dup2\n        /* \"contracts/main.sol\":5689:5697  posBT[j] */\n      dup2\n      sload\n      dup2\n      lt\n      tag_61\n      jumpi\n      tag_62\n      tag_42\n      jump\t// in\n    tag_62:\n    tag_61:\n      swap1\n      0x00\n      mstore\n      keccak256(0x00, 0x20)\n      add\n      sload\n        /* \"contracts/main.sol\":5663:5672  donorList */\n      0x03\n        /* \"contracts/main.sol\":5673:5674  i */\n      dup4\n        /* \"contracts/main.sol\":5663:5675  donorList[i] */\n      dup2\n      sload\n      dup2\n      lt\n      tag_64\n      jumpi\n      tag_65\n      tag_42\n      jump\t// in\n    tag_65:\n    tag_64:\n      swap1\n      0x00\n      mstore\n      keccak256(0x00, 0x20)\n      swap1\n      0x04\n      mul\n      add\n        /* \"contracts/main.sol\":5663:5685  donorList[i].bloodtype */\n      0x01\n      add\n      sload\n        /* \"contracts/main.sol\":5663:5697  donorList[i].bloodtype == posBT[j] */\n      sub\n        /* \"contracts/main.sol\":5659:6680  if (donorList[i].bloodtype == posBT[j]) {... */\n      tag_67\n      jumpi\n        /* \"contracts/main.sol\":5720:5724  true */\n      0x01\n        /* \"contracts/main.sol\":5707:5724  matchFound = true */\n      swap3\n      pop\n        /* \"contracts/main.sol\":5737:5837  DonMatchFound(donorList[i].owner, donorList[i].bloodtype, donorList[i].organ, donorList[i].quantity) */\n      0x2a721c885fffcf96f50f455dd2ca696caf61d72d984ea9334daea189844a932b\n        /* \"contracts/main.sol\":5751:5760  donorList */\n      0x03\n        /* \"contracts/main.sol\":5761:5762  i */\n      dup4\n        /* \"contracts/main.sol\":5751:5763  donorList[i] */\n      dup2\n      sload\n      dup2\n      lt\n      tag_68\n      jumpi\n      tag_69\n      tag_42\n      jump\t// in\n    tag_69:\n    tag_68:\n      swap1\n      0x00\n      mstore\n      keccak256(0x00, 0x20)\n      swap1\n      0x04\n      mul\n      add\n        /* \"contracts/main.sol\":5751:5769  donorList[i].owner */\n      0x00\n      add\n        /* \"contracts/main.sol\":5771:5780  donorList */\n      0x03\n        /* \"contracts/main.sol\":5781:5782  i */\n      dup5\n        /* \"contracts/main.sol\":5771:5783  donorList[i] */\n      dup2\n      sload\n      dup2\n      lt\n      tag_71\n      jumpi\n      tag_72\n      tag_42\n      jump\t// in\n    tag_72:\n    tag_71:\n      swap1\n      0x00\n      mstore\n      keccak256(0x00, 0x20)\n      swap1\n      0x04\n      mul\n      add\n        /* \"contracts/main.sol\":5771:5793  donorList[i].bloodtype */\n      0x01\n      add\n      sload\n        /* \"contracts/main.sol\":5795:5804  donorList */\n      0x03\n        /* \"contracts/main.sol\":5805:5806  i */\n      dup6\n        /* \"contracts/main.sol\":5795:5807  donorList[i] */\n      dup2\n      sload\n      dup2\n      lt\n      tag_74\n      jumpi\n      tag_75\n      tag_42\n      jump\t// in\n    tag_75:\n    tag_74:\n      swap1\n      0x00\n      mstore\n      keccak256(0x00, 0x20)\n      swap1\n      0x04\n      mul\n      add\n        /* \"contracts/main.sol\":5795:5813  donorList[i].organ */\n      0x02\n      add\n        /* \"contracts/main.sol\":5815:5824  donorList */\n      0x03\n        /* \"contracts/main.sol\":5825:5826  i */\n      dup7\n        /* \"contracts/main.sol\":5815:5827  donorList[i] */\n      dup2\n      sload\n      dup2\n      lt\n      tag_77\n      jumpi\n      tag_78\n      tag_42\n      jump\t// in\n    tag_78:\n    tag_77:\n      swap1\n      0x00\n      mstore\n      keccak256(0x00, 0x20)\n      swap1\n      0x04\n      mul\n      add\n        /* \"contracts/main.sol\":5815:5836  donorList[i].quantity */\n      0x03\n      add\n      sload\n        /* \"contracts/main.sol\":5737:5837  DonMatchFound(donorList[i].owner, donorList[i].bloodtype, donorList[i].organ, donorList[i].quantity) */\n      mload(0x40)\n      tag_80\n      swap5\n      swap4\n      swap3\n      swap2\n      swap1\n      tag_81\n      jump\t// in\n    tag_80:\n      mload(0x40)\n      dup1\n      swap2\n      sub\n      swap1\n      log1\n        /* \"contracts/main.sol\":5845:5864  int256 remainingqty */\n      0x00\n        /* \"contracts/main.sol\":5894:5903  donorList */\n      0x03\n        /* \"contracts/main.sol\":5904:5905  i */\n      dup4\n        /* \"contracts/main.sol\":5894:5906  donorList[i] */\n      dup2\n      sload\n      dup2\n      lt\n      tag_82\n      jumpi\n      tag_83\n      tag_42\n      jump\t// in\n    tag_83:\n    tag_82:\n      swap1\n      0x00\n      mstore\n      keccak256(0x00, 0x20)\n      swap1\n      0x04\n      mul\n      add\n        /* \"contracts/main.sol\":5894:5915  donorList[i].quantity */\n      0x03\n      add\n      sload\n        /* \"contracts/main.sol\":5874:5883  _quantity */\n      dup6\n        /* \"contracts/main.sol\":5867:5916  int256(_quantity) - int256(donorList[i].quantity) */\n      tag_85\n      swap2\n      swap1\n      tag_86\n      jump\t// in\n    tag_85:\n        /* \"contracts/main.sol\":5845:5916  int256 remainingqty = int256(_quantity) - int256(donorList[i].quantity) */\n      swap1\n      pop\n        /* \"contracts/main.sol\":5943:5944  0 */\n      0x00\n        /* \"contracts/main.sol\":5928:5940  remainingqty */\n      dup2\n        /* \"contracts/main.sol\":5928:5944  remainingqty > 0 */\n      sgt\n        /* \"contracts/main.sol\":5924:6673  if (remainingqty > 0 ) {... */\n      iszero\n      tag_87\n      jumpi\n        /* \"contracts/main.sol\":5956:6094  pushMatch(donorList[i].owner, _owner, donorList[i].bloodtype, _bloodtype, _organ, donorList[i].quantity, _quantity, donorList[i].quantity) */\n      tag_88\n        /* \"contracts/main.sol\":5966:5975  donorList */\n      0x03\n        /* \"contracts/main.sol\":5976:5977  i */\n      dup5\n        /* \"contracts/main.sol\":5966:5978  donorList[i] */\n      dup2\n      sload\n      dup2\n      lt\n      tag_89\n      jumpi\n      tag_90\n      tag_42\n      jump\t// in\n    tag_90:\n    tag_89:\n      swap1\n      0x00\n      mstore\n      keccak256(0x00, 0x20)\n      swap1\n      0x04\n      mul\n      add\n        /* \"contracts/main.sol\":5966:5984  donorList[i].owner */\n      0x00\n      add\n        /* \"contracts/main.sol\":5956:6094  pushMatch(donorList[i].owner, _owner, donorList[i].bloodtype, _bloodtype, _organ, donorList[i].quantity, _quantity, donorList[i].quantity) */\n      dup1\n      sload\n      tag_92\n      swap1\n      tag_93\n      jump\t// in\n    tag_92:\n      dup1\n      0x1f\n      add\n      0x20\n      dup1\n      swap2\n      div\n      mul\n      0x20\n      add\n      mload(0x40)\n      swap1\n      dup2\n      add\n      0x40\n      mstore\n      dup1\n      swap3\n      swap2\n      swap1\n      dup2\n      dup2\n      mstore\n      0x20\n      add\n      dup3\n      dup1\n      sload\n      tag_94\n      swap1\n      tag_93\n      jump\t// in\n    tag_94:\n      dup1\n      iszero\n      tag_95\n      jumpi\n      dup1\n      0x1f\n      lt\n      tag_96\n      jumpi\n      0x0100\n      dup1\n      dup4\n      sload\n      div\n      mul\n      dup4\n      mstore\n      swap2\n      0x20\n      add\n      swap2\n      jump(tag_95)\n    tag_96:\n      dup3\n      add\n      swap2\n      swap1\n      0x00\n      mstore\n      keccak256(0x00, 0x20)\n      swap1\n    tag_97:\n      dup2\n      sload\n      dup2\n      mstore\n      swap1\n      0x01\n      add\n      swap1\n      0x20\n      add\n      dup1\n      dup4\n      gt\n      tag_97\n      jumpi\n      dup3\n      swap1\n      sub\n      0x1f\n      and\n      dup3\n      add\n      swap2\n    tag_95:\n      pop\n      pop\n      pop\n      pop\n      pop\n        /* \"contracts/main.sol\":5986:5992  _owner */\n      dup10\n        /* \"contracts/main.sol\":5994:6003  donorList */\n      0x03\n        /* \"contracts/main.sol\":6004:6005  i */\n      dup7\n        /* \"contracts/main.sol\":5994:6006  donorList[i] */\n      dup2\n      sload\n      dup2\n      lt\n      tag_98\n      jumpi\n      tag_99\n      tag_42\n      jump\t// in\n    tag_99:\n    tag_98:\n      swap1\n      0x00\n      mstore\n      keccak256(0x00, 0x20)\n      swap1\n      0x04\n      mul\n      add\n        /* \"contracts/main.sol\":5994:6016  donorList[i].bloodtype */\n      0x01\n      add\n      sload\n        /* \"contracts/main.sol\":6018:6028  _bloodtype */\n      dup10\n        /* \"contracts/main.sol\":6030:6036  _organ */\n      dup12\n        /* \"contracts/main.sol\":6038:6047  donorList */\n      0x03\n        /* \"contracts/main.sol\":6048:6049  i */\n      dup10\n        /* \"contracts/main.sol\":6038:6050  donorList[i] */\n      dup2\n      sload\n      dup2\n      lt\n      tag_101\n      jumpi\n      tag_102\n      tag_42\n      jump\t// in\n    tag_102:\n    tag_101:\n      swap1\n      0x00\n      mstore\n      keccak256(0x00, 0x20)\n      swap1\n      0x04\n      mul\n      add\n        /* \"contracts/main.sol\":6038:6059  donorList[i].quantity */\n      0x03\n      add\n      sload\n        /* \"contracts/main.sol\":6061:6070  _quantity */\n      dup12\n        /* \"contracts/main.sol\":6072:6081  donorList */\n      0x03\n        /* \"contracts/main.sol\":6082:6083  i */\n      dup12\n        /* \"contracts/main.sol\":6072:6084  donorList[i] */\n      dup2\n      sload\n      dup2\n      lt\n      tag_104\n      jumpi\n      tag_105\n      tag_42\n      jump\t// in\n    tag_105:\n    tag_104:\n      swap1\n      0x00\n      mstore\n      keccak256(0x00, 0x20)\n      swap1\n      0x04\n      mul\n      add\n        /* \"contracts/main.sol\":6072:6093  donorList[i].quantity */\n      0x03\n      add\n      sload\n        /* \"contracts/main.sol\":5956:5965  pushMatch */\n      tag_107\n        /* \"contracts/main.sol\":5956:6094  pushMatch(donorList[i].owner, _owner, donorList[i].bloodtype, _bloodtype, _organ, donorList[i].quantity, _quantity, donorList[i].quantity) */\n      jump\t// in\n    tag_88:\n        /* \"contracts/main.sol\":6103:6164  pushNew(_owner, _bloodtype, _organ, uint256(remainingqty), 1) */\n      tag_108\n        /* \"contracts/main.sol\":6111:6117  _owner */\n      dup9\n        /* \"contracts/main.sol\":6119:6129  _bloodtype */\n      dup8\n        /* \"contracts/main.sol\":6131:6137  _organ */\n      dup10\n        /* \"contracts/main.sol\":6147:6159  remainingqty */\n      dup5\n        /* \"contracts/main.sol\":6162:6163  1 */\n      0x01\n        /* \"contracts/main.sol\":6103:6110  pushNew */\n      tag_109\n        /* \"contracts/main.sol\":6103:6164  pushNew(_owner, _bloodtype, _organ, uint256(remainingqty), 1) */\n      jump\t// in\n    tag_108:\n        /* \"contracts/main.sol\":6173:6190  pop(donorList, i) */\n      tag_110\n        /* \"contracts/main.sol\":6177:6186  donorList */\n      0x03\n        /* \"contracts/main.sol\":6188:6189  i */\n      dup5\n        /* \"contracts/main.sol\":6173:6176  pop */\n      tag_111\n        /* \"contracts/main.sol\":6173:6190  pop(donorList, i) */\n      jump\t// in\n    tag_110:\n        /* \"contracts/main.sol\":6199:6204  break */\n      pop\n      jump(tag_59)\n        /* \"contracts/main.sol\":5924:6673  if (remainingqty > 0 ) {... */\n    tag_87:\n        /* \"contracts/main.sol\":6239:6240  0 */\n      0x00\n        /* \"contracts/main.sol\":6223:6235  remainingqty */\n      dup2\n        /* \"contracts/main.sol\":6223:6240  remainingqty == 0 */\n      sub\n        /* \"contracts/main.sol\":6219:6673  if (remainingqty == 0) {... */\n      tag_113\n      jumpi\n        /* \"contracts/main.sol\":6251:6389  pushMatch(donorList[i].owner, _owner, donorList[i].bloodtype, _bloodtype, _organ, donorList[i].quantity, _quantity, donorList[i].quantity) */\n      tag_114\n        /* \"contracts/main.sol\":6261:6270  donorList */\n      0x03\n        /* \"contracts/main.sol\":6271:6272  i */\n      dup5\n        /* \"contracts/main.sol\":6261:6273  donorList[i] */\n      dup2\n      sload\n      dup2\n      lt\n      tag_115\n      jumpi\n      tag_116\n      tag_42\n      jump\t// in\n    tag_116:\n    tag_115:\n      swap1\n      0x00\n      mstore\n      keccak256(0x00, 0x20)\n      swap1\n      0x04\n      mul\n      add\n        /* \"contracts/main.sol\":6261:6279  donorList[i].owner */\n      0x00\n      add\n        /* \"contracts/main.sol\":6251:6389  pushMatch(donorList[i].owner, _owner, donorList[i].bloodtype, _bloodtype, _organ, donorList[i].quantity, _quantity, donorList[i].quantity) */\n      dup1\n      sload\n      tag_118\n      swap1\n      tag_93\n      jump\t// in\n    tag_118:\n      dup1\n      0x1f\n      add\n      0x20\n      dup1\n      swap2\n      div\n      mul\n      0x20\n      add\n      mload(0x40)\n      swap1\n      dup2\n      add\n      0x40\n      mstore\n      dup1\n      swap3\n      swap2\n      swap1\n      dup2\n      dup2\n      mstore\n      0x20\n      add\n      dup3\n      dup1\n      sload\n      tag_119\n      swap1\n      tag_93\n      jump\t// in\n    tag_119:\n      dup1\n      iszero\n      tag_120\n      jumpi\n      dup1\n      0x1f\n      lt\n      tag_121\n      jumpi\n      0x0100\n      dup1\n      dup4\n      sload\n      div\n      mul\n      dup4\n      mstore\n      swap2\n      0x20\n      add\n      swap2\n      jump(tag_120)\n    tag_121:\n      dup3\n      add\n      swap2\n      swap1\n      0x00\n      mstore\n      keccak256(0x00, 0x20)\n      swap1\n    tag_122:\n      dup2\n      sload\n      dup2\n      mstore\n      swap1\n      0x01\n      add\n      swap1\n      0x20\n      add\n      dup1\n      dup4\n      gt\n      tag_122\n      jumpi\n      dup3\n      swap1\n      sub\n      0x1f\n      and\n      dup3\n      add\n      swap2\n    tag_120:\n      pop\n      pop\n      pop\n      pop\n      pop\n        /* \"contracts/main.sol\":6281:6287  _owner */\n      dup10\n        /* \"contracts/main.sol\":6289:6298  donorList */\n      0x03\n        /* \"contracts/main.sol\":6299:6300  i */\n      dup7\n        /* \"contracts/main.sol\":6289:6301  donorList[i] */\n      dup2\n      sload\n      dup2\n      lt\n      tag_123\n      jumpi\n      tag_124\n      tag_42\n      jump\t// in\n    tag_124:\n    tag_123:\n      swap1\n      0x00\n      mstore\n      keccak256(0x00, 0x20)\n      swap1\n      0x04\n      mul\n      add\n        /* \"contracts/main.sol\":6289:6311  donorList[i].bloodtype */\n      0x01\n      add\n      sload\n        /* \"contracts/main.sol\":6313:6323  _bloodtype */\n      dup10\n        /* \"contracts/main.sol\":6325:6331  _organ */\n      dup12\n        /* \"contracts/main.sol\":6333:6342  donorList */\n      0x03\n        /* \"contracts/main.sol\":6343:6344  i */\n      dup10\n        /* \"contracts/main.sol\":6333:6345  donorList[i] */\n      dup2\n      sload\n      dup2\n      lt\n      tag_126\n      jumpi\n      tag_127\n      tag_42\n      jump\t// in\n    tag_127:\n    tag_126:\n      swap1\n      0x00\n      mstore\n      keccak256(0x00, 0x20)\n      swap1\n      0x04\n      mul\n      add\n        /* \"contracts/main.sol\":6333:6354  donorList[i].quantity */\n      0x03\n      add\n      sload\n        /* \"contracts/main.sol\":6356:6365  _quantity */\n      dup12\n        /* \"contracts/main.sol\":6367:6376  donorList */\n      0x03\n        /* \"contracts/main.sol\":6377:6378  i */\n      dup12\n        /* \"contracts/main.sol\":6367:6379  donorList[i] */\n      dup2\n      sload\n      dup2\n      lt\n      tag_129\n      jumpi\n      tag_130\n      tag_42\n      jump\t// in\n    tag_130:\n    tag_129:\n      swap1\n      0x00\n      mstore\n      keccak256(0x00, 0x20)\n      swap1\n      0x04\n      mul\n      add\n        /* \"contracts/main.sol\":6367:6388  donorList[i].quantity */\n      0x03\n      add\n      sload\n        /* \"contracts/main.sol\":6251:6260  pushMatch */\n      tag_107\n        /* \"contracts/main.sol\":6251:6389  pushMatch(donorList[i].owner, _owner, donorList[i].bloodtype, _bloodtype, _organ, donorList[i].quantity, _quantity, donorList[i].quantity) */\n      jump\t// in\n    tag_114:\n        /* \"contracts/main.sol\":6398:6415  pop(donorList, i) */\n      tag_132\n        /* \"contracts/main.sol\":6402:6411  donorList */\n      0x03\n        /* \"contracts/main.sol\":6413:6414  i */\n      dup5\n        /* \"contracts/main.sol\":6398:6401  pop */\n      tag_111\n        /* \"contracts/main.sol\":6398:6415  pop(donorList, i) */\n      jump\t// in\n    tag_132:\n        /* \"contracts/main.sol\":6424:6429  break */\n      pop\n      jump(tag_59)\n        /* \"contracts/main.sol\":6219:6673  if (remainingqty == 0) {... */\n    tag_113:\n        /* \"contracts/main.sol\":6453:6591  pushMatch(donorList[i].owner, _owner, donorList[i].bloodtype, _bloodtype, _organ, donorList[i].quantity, _quantity, donorList[i].quantity) */\n      tag_134\n        /* \"contracts/main.sol\":6463:6472  donorList */\n      0x03\n        /* \"contracts/main.sol\":6473:6474  i */\n      dup5\n        /* \"contracts/main.sol\":6463:6475  donorList[i] */\n      dup2\n      sload\n      dup2\n      lt\n      tag_135\n      jumpi\n      tag_136\n      tag_42\n      jump\t// in\n    tag_136:\n    tag_135:\n      swap1\n      0x00\n      mstore\n      keccak256(0x00, 0x20)\n      swap1\n      0x04\n      mul\n      add\n        /* \"contracts/main.sol\":6463:6481  donorList[i].owner */\n      0x00\n      add\n        /* \"contracts/main.sol\":6453:6591  pushMatch(donorList[i].owner, _owner, donorList[i].bloodtype, _bloodtype, _organ, donorList[i].quantity, _quantity, donorList[i].quantity) */\n      dup1\n      sload\n      tag_138\n      swap1\n      tag_93\n      jump\t// in\n    tag_138:\n      dup1\n      0x1f\n      add\n      0x20\n      dup1\n      swap2\n      div\n      mul\n      0x20\n      add\n      mload(0x40)\n      swap1\n      dup2\n      add\n      0x40\n      mstore\n      dup1\n      swap3\n      swap2\n      swap1\n      dup2\n      dup2\n      mstore\n      0x20\n      add\n      dup3\n      dup1\n      sload\n      tag_139\n      swap1\n      tag_93\n      jump\t// in\n    tag_139:\n      dup1\n      iszero\n      tag_140\n      jumpi\n      dup1\n      0x1f\n      lt\n      tag_141\n      jumpi\n      0x0100\n      dup1\n      dup4\n      sload\n      div\n      mul\n      dup4\n      mstore\n      swap2\n      0x20\n      add\n      swap2\n      jump(tag_140)\n    tag_141:\n      dup3\n      add\n      swap2\n      swap1\n      0x00\n      mstore\n      keccak256(0x00, 0x20)\n      swap1\n    tag_142:\n      dup2\n      sload\n      dup2\n      mstore\n      swap1\n      0x01\n      add\n      swap1\n      0x20\n      add\n      dup1\n      dup4\n      gt\n      tag_142\n      jumpi\n      dup3\n      swap1\n      sub\n      0x1f\n      and\n      dup3\n      add\n      swap2\n    tag_140:\n      pop\n      pop\n      pop\n      pop\n      pop\n        /* \"contracts/main.sol\":6483:6489  _owner */\n      dup10\n        /* \"contracts/main.sol\":6491:6500  donorList */\n      0x03\n        /* \"contracts/main.sol\":6501:6502  i */\n      dup7\n        /* \"contracts/main.sol\":6491:6503  donorList[i] */\n      dup2\n      sload\n      dup2\n      lt\n      tag_143\n      jumpi\n      tag_144\n      tag_42\n      jump\t// in\n    tag_144:\n    tag_143:\n      swap1\n      0x00\n      mstore\n      keccak256(0x00, 0x20)\n      swap1\n      0x04\n      mul\n      add\n        /* \"contracts/main.sol\":6491:6513  donorList[i].bloodtype */\n      0x01\n      add\n      sload\n        /* \"contracts/main.sol\":6515:6525  _bloodtype */\n      dup10\n        /* \"contracts/main.sol\":6527:6533  _organ */\n      dup12\n        /* \"contracts/main.sol\":6535:6544  donorList */\n      0x03\n        /* \"contracts/main.sol\":6545:6546  i */\n      dup10\n        /* \"contracts/main.sol\":6535:6547  donorList[i] */\n      dup2\n      sload\n      dup2\n      lt\n      tag_146\n      jumpi\n      tag_147\n      tag_42\n      jump\t// in\n    tag_147:\n    tag_146:\n      swap1\n      0x00\n      mstore\n      keccak256(0x00, 0x20)\n      swap1\n      0x04\n      mul\n      add\n        /* \"contracts/main.sol\":6535:6556  donorList[i].quantity */\n      0x03\n      add\n      sload\n        /* \"contracts/main.sol\":6558:6567  _quantity */\n      dup12\n        /* \"contracts/main.sol\":6569:6578  donorList */\n      0x03\n        /* \"contracts/main.sol\":6579:6580  i */\n      dup12\n        /* \"contracts/main.sol\":6569:6581  donorList[i] */\n      dup2\n      sload\n      dup2\n      lt\n      tag_149\n      jumpi\n      tag_150\n      tag_42\n      jump\t// in\n    tag_150:\n    tag_149:\n      swap1\n      0x00\n      mstore\n      keccak256(0x00, 0x20)\n      swap1\n      0x04\n      mul\n      add\n        /* \"contracts/main.sol\":6569:6590  donorList[i].quantity */\n      0x03\n      add\n      sload\n        /* \"contracts/main.sol\":6453:6462  pushMatch */\n      tag_107\n        /* \"contracts/main.sol\":6453:6591  pushMatch(donorList[i].owner, _owner, donorList[i].bloodtype, _bloodtype, _organ, donorList[i].quantity, _quantity, donorList[i].quantity) */\n      jump\t// in\n    tag_134:\n        /* \"contracts/main.sol\":6647:6649  -1 */\n      0xffffffffffffffffffffffffffffffffffffffffffffffffffffffffffffffff\n        /* \"contracts/main.sol\":6632:6644  remainingqty */\n      dup2\n        /* \"contracts/main.sol\":6632:6649  remainingqty * -1 */\n      tag_152\n      swap2\n      swap1\n      tag_153\n      jump\t// in\n    tag_152:\n        /* \"contracts/main.sol\":6600:6609  donorList */\n      0x03\n        /* \"contracts/main.sol\":6610:6611  i */\n      dup5\n        /* \"contracts/main.sol\":6600:6612  donorList[i] */\n      dup2\n      sload\n      dup2\n      lt\n      tag_154\n      jumpi\n      tag_155\n      tag_42\n      jump\t// in\n    tag_155:\n    tag_154:\n      swap1\n      0x00\n      mstore\n      keccak256(0x00, 0x20)\n      swap1\n      0x04\n      mul\n      add\n        /* \"contracts/main.sol\":6600:6621  donorList[i].quantity */\n      0x03\n      add\n        /* \"contracts/main.sol\":6600:6650  donorList[i].quantity = uint256(remainingqty * -1) */\n      dup2\n      swap1\n      sstore\n      pop\n        /* \"contracts/main.sol\":6659:6664  break */\n      pop\n      jump(tag_59)\n        /* \"contracts/main.sol\":5659:6680  if (donorList[i].bloodtype == posBT[j]) {... */\n    tag_67:\n        /* \"contracts/main.sol\":5647:5650  j++ */\n      dup1\n      dup1\n      0x01\n      add\n      swap2\n      pop\n      pop\n        /* \"contracts/main.sol\":5609:6686  for (uint256 j = 0; j <\tposBT.length; j++) {... */\n      jump(tag_58)\n    tag_59:\n      pop\n        /* \"contracts/main.sol\":5533:6691  if (keccak256(bytes(donorList[i].organ)) == keccak256(bytes(_organ))) {... */\n    tag_57:\n        /* \"contracts/main.sol\":5523:5526  i++ */\n      dup1\n      dup1\n      0x01\n      add\n      swap2\n      pop\n      pop\n        /* \"contracts/main.sol\":5481:6695  for (uint256 i = 0; i < donorList.length; i++) {... */\n      jump(tag_49)\n    tag_50:\n      pop\n        /* \"contracts/main.sol\":6704:6714  matchFound */\n      dup1\n        /* \"contracts/main.sol\":6699:6775  if (!matchFound) {... */\n      tag_157\n      jumpi\n        /* \"contracts/main.sol\":6721:6770  pushNew(_owner, _bloodtype, _organ, _quantity, 1) */\n      tag_158\n        /* \"contracts/main.sol\":6729:6735  _owner */\n      dup6\n        /* \"contracts/main.sol\":6737:6747  _bloodtype */\n      dup5\n        /* \"contracts/main.sol\":6749:6755  _organ */\n      dup7\n        /* \"contracts/main.sol\":6757:6766  _quantity */\n      dup6\n        /* \"contracts/main.sol\":6768:6769  1 */\n      0x01\n        /* \"contracts/main.sol\":6721:6728  pushNew */\n      tag_109\n        /* \"contracts/main.sol\":6721:6770  pushNew(_owner, _bloodtype, _organ, _quantity, 1) */\n      jump\t// in\n    tag_158:\n        /* \"contracts/main.sol\":6699:6775  if (!matchFound) {... */\n    tag_157:\n        /* \"contracts/main.sol\":5251:6778  {... */\n      pop\n        /* \"contracts/main.sol\":5139:6778  function regRecipient(string memory _owner, string memory _organ, uint256 _bloodtype, uint256 _quantity) public {... */\n      pop\n      pop\n      pop\n      pop\n      jump\t// out\n        /* \"contracts/main.sol\":3420:5136  function regDonor(string memory _owner, uint256 _bloodtype, string memory _organ, uint256 _quantity) public {... */\n    tag_15:\n        /* \"contracts/main.sol\":3551:3552  8 */\n      0x08\n        /* \"contracts/main.sol\":3537:3547  _bloodtype */\n      dup4\n        /* \"contracts/main.sol\":3537:3552  _bloodtype == 8 */\n      eq\n        /* \"contracts/main.sol\":3537:3571  _bloodtype == 8 || _bloodtype == 9 */\n      dup1\n      tag_160\n      jumpi\n      pop\n        /* \"contracts/main.sol\":3570:3571  9 */\n      0x09\n        /* \"contracts/main.sol\":3556:3566  _bloodtype */\n      dup4\n        /* \"contracts/main.sol\":3556:3571  _bloodtype == 9 */\n      eq\n        /* \"contracts/main.sol\":3537:3571  _bloodtype == 8 || _bloodtype == 9 */\n    tag_160:\n        /* \"contracts/main.sol\":3533:3726  if (_bloodtype == 8 || _bloodtype == 9) {... */\n      iszero\n      tag_161\n      jumpi\n        /* \"contracts/main.sol\":3578:3598  posBT = [_bloodtype] */\n      mload(0x40)\n      dup1\n      0x20\n      add\n      0x40\n      mstore\n      dup1\n        /* \"contracts/main.sol\":3587:3597  _bloodtype */\n      dup5\n        /* \"contracts/main.sol\":3578:3598  posBT = [_bloodtype] */\n      dup2\n      mstore\n      pop\n        /* \"contracts/main.sol\":3578:3583  posBT */\n      0x6a\n        /* \"contracts/main.sol\":3578:3598  posBT = [_bloodtype] */\n      swap1\n      0x01\n      tag_162\n      swap3\n      swap2\n      swap1\n      tag_35\n      jump\t// in\n    tag_162:\n      pop\n        /* \"contracts/main.sol\":3533:3726  if (_bloodtype == 8 || _bloodtype == 9) {... */\n      jump(tag_163)\n    tag_161:\n        /* \"contracts/main.sol\":3619:3628  uint256 i */\n      0x00\n        /* \"contracts/main.sol\":3614:3722  for (uint256 i = 0; i < 8; i++) {... */\n    tag_164:\n        /* \"contracts/main.sol\":3638:3639  8 */\n      0x08\n        /* \"contracts/main.sol\":3634:3635  i */\n      dup2\n        /* \"contracts/main.sol\":3634:3639  i < 8 */\n      lt\n        /* \"contracts/main.sol\":3614:3722  for (uint256 i = 0; i < 8; i++) {... */\n      iszero\n      tag_165\n      jumpi\n        /* \"contracts/main.sol\":3687:3688  1 */\n      0x01\n        /* \"contracts/main.sol\":3656:3668  compatMatrix */\n      0x06\n        /* \"contracts/main.sol\":3669:3670  i */\n      dup3\n        /* \"contracts/main.sol\":3656:3671  compatMatrix[i] */\n      0x0a\n      dup2\n      lt\n      tag_167\n      jumpi\n      tag_168\n      tag_42\n      jump\t// in\n    tag_168:\n    tag_167:\n      0x0a\n      mul\n      add\n        /* \"contracts/main.sol\":3672:3682  _bloodtype */\n      dup6\n        /* \"contracts/main.sol\":3656:3683  compatMatrix[i][_bloodtype] */\n      0x0a\n      dup2\n      lt\n      tag_170\n      jumpi\n      tag_171\n      tag_42\n      jump\t// in\n    tag_171:\n    tag_170:\n      add\n      sload\n        /* \"contracts/main.sol\":3656:3688  compatMatrix[i][_bloodtype] == 1 */\n      sub\n        /* \"contracts/main.sol\":3652:3717  if (compatMatrix[i][_bloodtype] == 1) {... */\n      tag_173\n      jumpi\n        /* \"contracts/main.sol\":3697:3702  posBT */\n      0x6a\n        /* \"contracts/main.sol\":3708:3709  i */\n      dup2\n        /* \"contracts/main.sol\":3697:3710  posBT.push(i) */\n      swap1\n      dup1\n      0x01\n      dup2\n      sload\n      add\n      dup1\n      dup3\n      sstore\n      dup1\n      swap2\n      pop\n      pop\n      0x01\n      swap1\n      sub\n      swap1\n      0x00\n      mstore\n      keccak256(0x00, 0x20)\n      add\n      0x00\n      swap1\n      swap2\n      swap1\n      swap2\n      swap1\n      swap2\n      pop\n      sstore\n        /* \"contracts/main.sol\":3652:3717  if (compatMatrix[i][_bloodtype] == 1) {... */\n    tag_173:\n        /* \"contracts/main.sol\":3641:3644  i++ */\n      dup1\n      dup1\n      0x01\n      add\n      swap2\n      pop\n      pop\n        /* \"contracts/main.sol\":3614:3722  for (uint256 i = 0; i < 8; i++) {... */\n      jump(tag_164)\n    tag_165:\n      pop\n        /* \"contracts/main.sol\":3533:3726  if (_bloodtype == 8 || _bloodtype == 9) {... */\n    tag_163:\n        /* \"contracts/main.sol\":3730:3745  bool matchFound */\n      0x00\n        /* \"contracts/main.sol\":3763:3772  uint256 i */\n      dup1\n        /* \"contracts/main.sol\":3758:5053  for (uint256 i = 0; i < recipientList.length; i++) {... */\n    tag_175:\n        /* \"contracts/main.sol\":3782:3795  recipientList */\n      0x04\n        /* \"contracts/main.sol\":3782:3802  recipientList.length */\n      dup1\n      sload\n      swap1\n      pop\n        /* \"contracts/main.sol\":3778:3779  i */\n      dup2\n        /* \"contracts/main.sol\":3778:3802  i < recipientList.length */\n      lt\n        /* \"contracts/main.sol\":3758:5053  for (uint256 i = 0; i < recipientList.length; i++) {... */\n      iszero\n      tag_176\n      jumpi\n        /* \"contracts/main.sol\":3878:3884  _organ */\n      dup4\n        /* \"contracts/main.sol\":3862:3886  keccak256(bytes(_organ)) */\n      dup1\n      mload\n      swap1\n      0x20\n      add\n      keccak256\n        /* \"contracts/main.sol\":3834:3847  recipientList */\n      0x04\n        /* \"contracts/main.sol\":3848:3849  i */\n      dup3\n        /* \"contracts/main.sol\":3834:3850  recipientList[i] */\n      dup2\n      sload\n      dup2\n      lt\n      tag_178\n      jumpi\n      tag_179\n      tag_42\n      jump\t// in\n    tag_179:\n    tag_178:\n      swap1\n      0x00\n      mstore\n      keccak256(0x00, 0x20)\n      swap1\n      0x04\n      mul\n      add\n        /* \"contracts/main.sol\":3834:3856  recipientList[i].organ */\n      0x02\n      add\n        /* \"contracts/main.sol\":3818:3858  keccak256(bytes(recipientList[i].organ)) */\n      mload(0x40)\n      tag_181\n      swap2\n      swap1\n      tag_56\n      jump\t// in\n    tag_181:\n      mload(0x40)\n      dup1\n      swap2\n      sub\n      swap1\n      keccak256\n        /* \"contracts/main.sol\":3818:3886  keccak256(bytes(recipientList[i].organ)) == keccak256(bytes(_organ)) */\n      sub\n        /* \"contracts/main.sol\":3814:5049  if (keccak256(bytes(recipientList[i].organ)) == keccak256(bytes(_organ))) {... */\n      tag_182\n      jumpi\n        /* \"contracts/main.sol\":3899:3908  uint256 j */\n      0x00\n        /* \"contracts/main.sol\":3894:5044  for (uint256 j = 0; j <\tposBT.length; j++) {... */\n    tag_183:\n        /* \"contracts/main.sol\":3918:3923  posBT */\n      0x6a\n        /* \"contracts/main.sol\":3918:3930  posBT.length */\n      dup1\n      sload\n      swap1\n      pop\n        /* \"contracts/main.sol\":3914:3915  j */\n      dup2\n        /* \"contracts/main.sol\":3914:3930  j <\tposBT.length */\n      lt\n        /* \"contracts/main.sol\":3894:5044  for (uint256 j = 0; j <\tposBT.length; j++) {... */\n      iszero\n      tag_184\n      jumpi\n        /* \"contracts/main.sol\":3978:3983  posBT */\n      0x6a\n        /* \"contracts/main.sol\":3984:3985  j */\n      dup2\n        /* \"contracts/main.sol\":3978:3986  posBT[j] */\n      dup2\n      sload\n      dup2\n      lt\n      tag_186\n      jumpi\n      tag_187\n      tag_42\n      jump\t// in\n    tag_187:\n    tag_186:\n      swap1\n      0x00\n      mstore\n      keccak256(0x00, 0x20)\n      add\n      sload\n        /* \"contracts/main.sol\":3948:3961  recipientList */\n      0x04\n        /* \"contracts/main.sol\":3962:3963  i */\n      dup4\n        /* \"contracts/main.sol\":3948:3964  recipientList[i] */\n      dup2\n      sload\n      dup2\n      lt\n      tag_189\n      jumpi\n      tag_190\n      tag_42\n      jump\t// in\n    tag_190:\n    tag_189:\n      swap1\n      0x00\n      mstore\n      keccak256(0x00, 0x20)\n      swap1\n      0x04\n      mul\n      add\n        /* \"contracts/main.sol\":3948:3974  recipientList[i].bloodtype */\n      0x01\n      add\n      sload\n        /* \"contracts/main.sol\":3948:3986  recipientList[i].bloodtype == posBT[j] */\n      sub\n        /* \"contracts/main.sol\":3944:5038  if (recipientList[i].bloodtype == posBT[j]) {... */\n      tag_192\n      jumpi\n        /* \"contracts/main.sol\":4009:4013  true */\n      0x01\n        /* \"contracts/main.sol\":3996:4013  matchFound = true */\n      swap3\n      pop\n        /* \"contracts/main.sol\":4026:4142  RecMatchFound(recipientList[i].owner, recipientList[i].bloodtype, recipientList[i].organ, recipientList[i].quantity) */\n      0xcc97805e28e324dc39be995161797f1fdf935c9b4ebab652ef2cc60de7f0f394\n        /* \"contracts/main.sol\":4040:4053  recipientList */\n      0x04\n        /* \"contracts/main.sol\":4054:4055  i */\n      dup4\n        /* \"contracts/main.sol\":4040:4056  recipientList[i] */\n      dup2\n      sload\n      dup2\n      lt\n      tag_193\n      jumpi\n      tag_194\n      tag_42\n      jump\t// in\n    tag_194:\n    tag_193:\n      swap1\n      0x00\n      mstore\n      keccak256(0x00, 0x20)\n      swap1\n      0x04\n      mul\n      add\n        /* \"contracts/main.sol\":4040:4062  recipientList[i].owner */\n      0x00\n      add\n        /* \"contracts/main.sol\":4064:4077  recipientList */\n      0x04\n        /* \"contracts/main.sol\":4078:4079  i */\n      dup5\n        /* \"contracts/main.sol\":4064:4080  recipientList[i] */\n      dup2\n      sload\n      dup2\n      lt\n      tag_196\n      jumpi\n      tag_197\n      tag_42\n      jump\t// in\n    tag_197:\n    tag_196:\n      swap1\n      0x00\n      mstore\n      keccak256(0x00, 0x20)\n      swap1\n      0x04\n      mul\n      add\n        /* \"contracts/main.sol\":4064:4090  recipientList[i].bloodtype */\n      0x01\n      add\n      sload\n        /* \"contracts/main.sol\":4092:4105  recipientList */\n      0x04\n        /* \"contracts/main.sol\":4106:4107  i */\n      dup6\n        /* \"contracts/main.sol\":4092:4108  recipientList[i] */\n      dup2\n      sload\n      dup2\n      lt\n      tag_199\n      jumpi\n      tag_200\n      tag_42\n      jump\t// in\n    tag_200:\n    tag_199:\n      swap1\n      0x00\n      mstore\n      keccak256(0x00, 0x20)\n      swap1\n      0x04\n      mul\n      add\n        /* \"contracts/main.sol\":4092:4114  recipientList[i].organ */\n      0x02\n      add\n        /* \"contracts/main.sol\":4116:4129  recipientList */\n      0x04\n        /* \"contracts/main.sol\":4130:4131  i */\n      dup7\n        /* \"contracts/main.sol\":4116:4132  recipientList[i] */\n      dup2\n      sload\n      dup2\n      lt\n      tag_202\n      jumpi\n      tag_203\n      tag_42\n      jump\t// in\n    tag_203:\n    tag_202:\n      swap1\n      0x00\n      mstore\n      keccak256(0x00, 0x20)\n      swap1\n      0x04\n      mul\n      add\n        /* \"contracts/main.sol\":4116:4141  recipientList[i].quantity */\n      0x03\n      add\n      sload\n        /* \"contracts/main.sol\":4026:4142  RecMatchFound(recipientList[i].owner, recipientList[i].bloodtype, recipientList[i].organ, recipientList[i].quantity) */\n      mload(0x40)\n      tag_205\n      swap5\n      swap4\n      swap3\n      swap2\n      swap1\n      tag_81\n      jump\t// in\n    tag_205:\n      mload(0x40)\n      dup1\n      swap2\n      sub\n      swap1\n      log1\n        /* \"contracts/main.sol\":4150:4167  int256 pendingqty */\n      0x00\n        /* \"contracts/main.sol\":4197:4210  recipientList */\n      0x04\n        /* \"contracts/main.sol\":4211:4212  i */\n      dup4\n        /* \"contracts/main.sol\":4197:4213  recipientList[i] */\n      dup2\n      sload\n      dup2\n      lt\n      tag_206\n      jumpi\n      tag_207\n      tag_42\n      jump\t// in\n    tag_207:\n    tag_206:\n      swap1\n      0x00\n      mstore\n      keccak256(0x00, 0x20)\n      swap1\n      0x04\n      mul\n      add\n        /* \"contracts/main.sol\":4197:4222  recipientList[i].quantity */\n      0x03\n      add\n      sload\n        /* \"contracts/main.sol\":4177:4186  _quantity */\n      dup6\n        /* \"contracts/main.sol\":4170:4223  int256(_quantity) - int256(recipientList[i].quantity) */\n      tag_209\n      swap2\n      swap1\n      tag_86\n      jump\t// in\n    tag_209:\n        /* \"contracts/main.sol\":4150:4223  int256 pendingqty = int256(_quantity) - int256(recipientList[i].quantity) */\n      swap1\n      pop\n        /* \"contracts/main.sol\":4248:4249  0 */\n      0x00\n        /* \"contracts/main.sol\":4235:4245  pendingqty */\n      dup2\n        /* \"contracts/main.sol\":4235:4249  pendingqty > 0 */\n      sgt\n        /* \"contracts/main.sol\":4231:5031  if (pendingqty > 0) {... */\n      iszero\n      tag_210\n      jumpi\n        /* \"contracts/main.sol\":4260:4414  pushMatch(_owner, recipientList[i].owner, _bloodtype, recipientList[i].bloodtype, _organ, _quantity, recipientList[i].quantity, recipientList[i].quantity) */\n      tag_211\n        /* \"contracts/main.sol\":4270:4276  _owner */\n      dup9\n        /* \"contracts/main.sol\":4278:4291  recipientList */\n      0x04\n        /* \"contracts/main.sol\":4292:4293  i */\n      dup6\n        /* \"contracts/main.sol\":4278:4294  recipientList[i] */\n      dup2\n      sload\n      dup2\n      lt\n      tag_212\n      jumpi\n      tag_213\n      tag_42\n      jump\t// in\n    tag_213:\n    tag_212:\n      swap1\n      0x00\n      mstore\n      keccak256(0x00, 0x20)\n      swap1\n      0x04\n      mul\n      add\n        /* \"contracts/main.sol\":4278:4300  recipientList[i].owner */\n      0x00\n      add\n        /* \"contracts/main.sol\":4260:4414  pushMatch(_owner, recipientList[i].owner, _bloodtype, recipientList[i].bloodtype, _organ, _quantity, recipientList[i].quantity, recipientList[i].quantity) */\n      dup1\n      sload\n      tag_215\n      swap1\n      tag_93\n      jump\t// in\n    tag_215:\n      dup1\n      0x1f\n      add\n      0x20\n      dup1\n      swap2\n      div\n      mul\n      0x20\n      add\n      mload(0x40)\n      swap1\n      dup2\n      add\n      0x40\n      mstore\n      dup1\n      swap3\n      swap2\n      swap1\n      dup2\n      dup2\n      mstore\n      0x20\n      add\n      dup3\n      dup1\n      sload\n      tag_216\n      swap1\n      tag_93\n      jump\t// in\n    tag_216:\n      dup1\n      iszero\n      tag_217\n      jumpi\n      dup1\n      0x1f\n      lt\n      tag_218\n      jumpi\n      0x0100\n      dup1\n      dup4\n      sload\n      div\n      mul\n      dup4\n      mstore\n      swap2\n      0x20\n      add\n      swap2\n      jump(tag_217)\n    tag_218:\n      dup3\n      add\n      swap2\n      swap1\n      0x00\n      mstore\n      keccak256(0x00, 0x20)\n      swap1\n    tag_219:\n      dup2\n      sload\n      dup2\n      mstore\n      swap1\n      0x01\n      add\n      swap1\n      0x20\n      add\n      dup1\n      dup4\n      gt\n      tag_219\n      jumpi\n      dup3\n      swap1\n      sub\n      0x1f\n      and\n      dup3\n      add\n      swap2\n    tag_217:\n      pop\n      pop\n      pop\n      pop\n      pop\n        /* \"contracts/main.sol\":4302:4312  _bloodtype */\n      dup10\n        /* \"contracts/main.sol\":4314:4327  recipientList */\n      0x04\n        /* \"contracts/main.sol\":4328:4329  i */\n      dup8\n        /* \"contracts/main.sol\":4314:4330  recipientList[i] */\n      dup2\n      sload\n      dup2\n      lt\n      tag_220\n      jumpi\n      tag_221\n      tag_42\n      jump\t// in\n    tag_221:\n    tag_220:\n      swap1\n      0x00\n      mstore\n      keccak256(0x00, 0x20)\n      swap1\n      0x04\n      mul\n      add\n        /* \"contracts/main.sol\":4314:4340  recipientList[i].bloodtype */\n      0x01\n      add\n      sload\n        /* \"contracts/main.sol\":4342:4348  _organ */\n      dup11\n        /* \"contracts/main.sol\":4350:4359  _quantity */\n      dup11\n        /* \"contracts/main.sol\":4361:4374  recipientList */\n      0x04\n        /* \"contracts/main.sol\":4375:4376  i */\n      dup11\n        /* \"contracts/main.sol\":4361:4377  recipientList[i] */\n      dup2\n      sload\n      dup2\n      lt\n      tag_223\n      jumpi\n      tag_224\n      tag_42\n      jump\t// in\n    tag_224:\n    tag_223:\n      swap1\n      0x00\n      mstore\n      keccak256(0x00, 0x20)\n      swap1\n      0x04\n      mul\n      add\n        /* \"contracts/main.sol\":4361:4386  recipientList[i].quantity */\n      0x03\n      add\n      sload\n        /* \"contracts/main.sol\":4388:4401  recipientList */\n      0x04\n        /* \"contracts/main.sol\":4402:4403  i */\n      dup12\n        /* \"contracts/main.sol\":4388:4404  recipientList[i] */\n      dup2\n      sload\n      dup2\n      lt\n      tag_226\n      jumpi\n      tag_227\n      tag_42\n      jump\t// in\n    tag_227:\n    tag_226:\n      swap1\n      0x00\n      mstore\n      keccak256(0x00, 0x20)\n      swap1\n      0x04\n      mul\n      add\n        /* \"contracts/main.sol\":4388:4413  recipientList[i].quantity */\n      0x03\n      add\n      sload\n        /* \"contracts/main.sol\":4260:4269  pushMatch */\n      tag_107\n        /* \"contracts/main.sol\":4260:4414  pushMatch(_owner, recipientList[i].owner, _bloodtype, recipientList[i].bloodtype, _organ, _quantity, recipientList[i].quantity, recipientList[i].quantity) */\n      jump\t// in\n    tag_211:\n        /* \"contracts/main.sol\":4423:4482  pushNew(_owner, _bloodtype, _organ, uint256(pendingqty), 0) */\n      tag_229\n        /* \"contracts/main.sol\":4431:4437  _owner */\n      dup9\n        /* \"contracts/main.sol\":4439:4449  _bloodtype */\n      dup9\n        /* \"contracts/main.sol\":4451:4457  _organ */\n      dup9\n        /* \"contracts/main.sol\":4467:4477  pendingqty */\n      dup5\n        /* \"contracts/main.sol\":4480:4481  0 */\n      0x00\n        /* \"contracts/main.sol\":4423:4430  pushNew */\n      tag_109\n        /* \"contracts/main.sol\":4423:4482  pushNew(_owner, _bloodtype, _organ, uint256(pendingqty), 0) */\n      jump\t// in\n    tag_229:\n        /* \"contracts/main.sol\":4491:4512  pop(recipientList, i) */\n      tag_230\n        /* \"contracts/main.sol\":4495:4508  recipientList */\n      0x04\n        /* \"contracts/main.sol\":4510:4511  i */\n      dup5\n        /* \"contracts/main.sol\":4491:4494  pop */\n      tag_111\n        /* \"contracts/main.sol\":4491:4512  pop(recipientList, i) */\n      jump\t// in\n    tag_230:\n        /* \"contracts/main.sol\":4521:4526  break */\n      pop\n      jump(tag_184)\n        /* \"contracts/main.sol\":4231:5031  if (pendingqty > 0) {... */\n    tag_210:\n        /* \"contracts/main.sol\":4559:4560  0 */\n      0x00\n        /* \"contracts/main.sol\":4545:4555  pendingqty */\n      dup2\n        /* \"contracts/main.sol\":4545:4560  pendingqty == 0 */\n      sub\n        /* \"contracts/main.sol\":4541:5031  if (pendingqty == 0) {... */\n      tag_232\n      jumpi\n        /* \"contracts/main.sol\":4571:4725  pushMatch(_owner, recipientList[i].owner, _bloodtype, recipientList[i].bloodtype, _organ, _quantity, recipientList[i].quantity, recipientList[i].quantity) */\n      tag_233\n        /* \"contracts/main.sol\":4581:4587  _owner */\n      dup9\n        /* \"contracts/main.sol\":4589:4602  recipientList */\n      0x04\n        /* \"contracts/main.sol\":4603:4604  i */\n      dup6\n        /* \"contracts/main.sol\":4589:4605  recipientList[i] */\n      dup2\n      sload\n      dup2\n      lt\n      tag_234\n      jumpi\n      tag_235\n      tag_42\n      jump\t// in\n    tag_235:\n    tag_234:\n      swap1\n      0x00\n      mstore\n      keccak256(0x00, 0x20)\n      swap1\n      0x04\n      mul\n      add\n        /* \"contracts/main.sol\":4589:4611  recipientList[i].owner */\n      0x00\n      add\n        /* \"contracts/main.sol\":4571:4725  pushMatch(_owner, recipientList[i].owner, _bloodtype, recipientList[i].bloodtype, _organ, _quantity, recipientList[i].quantity, recipientList[i].quantity) */\n      dup1\n      sload\n      tag_237\n      swap1\n      tag_93\n      jump\t// in\n    tag_237:\n      dup1\n      0x1f\n      add\n      0x20\n      dup1\n      swap2\n      div\n      mul\n      0x20\n      add\n      mload(0x40)\n      swap1\n      dup2\n      add\n      0x40\n      mstore\n      dup1\n      swap3\n      swap2\n      swap1\n      dup2\n      dup2\n      mstore\n      0x20\n      add\n      dup3\n      dup1\n      sload\n      tag_238\n      swap1\n      tag_93\n      jump\t// in\n    tag_238:\n      dup1\n      iszero\n      tag_239\n      jumpi\n      dup1\n      0x1f\n      lt\n      tag_240\n      jumpi\n      0x0100\n      dup1\n      dup4\n      sload\n      div\n      mul\n      dup4\n      mstore\n      swap2\n      0x20\n      add\n      swap2\n      jump(tag_239)\n    tag_240:\n      dup3\n      add\n      swap2\n      swap1\n      0x00\n      mstore\n      keccak256(0x00, 0x20)\n      swap1\n    tag_241:\n      dup2\n      sload\n      dup2\n      mstore\n      swap1\n      0x01\n      add\n      swap1\n      0x20\n      add\n      dup1\n      dup4\n      gt\n      tag_241\n      jumpi\n      dup3\n      swap1\n      sub\n      0x1f\n      and\n      dup3\n      add\n      swap2\n    tag_239:\n      pop\n      pop\n      pop\n      pop\n      pop\n        /* \"contracts/main.sol\":4613:4623  _bloodtype */\n      dup10\n        /* \"contracts/main.sol\":4625:4638  recipientList */\n      0x04\n        /* \"contracts/main.sol\":4639:4640  i */\n      dup8\n        /* \"contracts/main.sol\":4625:4641  recipientList[i] */\n      dup2\n      sload\n      dup2\n      lt\n      tag_242\n      jumpi\n      tag_243\n      tag_42\n      jump\t// in\n    tag_243:\n    tag_242:\n      swap1\n      0x00\n      mstore\n      keccak256(0x00, 0x20)\n      swap1\n      0x04\n      mul\n      add\n        /* \"contracts/main.sol\":4625:4651  recipientList[i].bloodtype */\n      0x01\n      add\n      sload\n        /* \"contracts/main.sol\":4653:4659  _organ */\n      dup11\n        /* \"contracts/main.sol\":4661:4670  _quantity */\n      dup11\n        /* \"contracts/main.sol\":4672:4685  recipientList */\n      0x04\n        /* \"contracts/main.sol\":4686:4687  i */\n      dup11\n        /* \"contracts/main.sol\":4672:4688  recipientList[i] */\n      dup2\n      sload\n      dup2\n      lt\n      tag_245\n      jumpi\n      tag_246\n      tag_42\n      jump\t// in\n    tag_246:\n    tag_245:\n      swap1\n      0x00\n      mstore\n      keccak256(0x00, 0x20)\n      swap1\n      0x04\n      mul\n      add\n        /* \"contracts/main.sol\":4672:4697  recipientList[i].quantity */\n      0x03\n      add\n      sload\n        /* \"contracts/main.sol\":4699:4712  recipientList */\n      0x04\n        /* \"contracts/main.sol\":4713:4714  i */\n      dup12\n        /* \"contracts/main.sol\":4699:4715  recipientList[i] */\n      dup2\n      sload\n      dup2\n      lt\n      tag_248\n      jumpi\n      tag_249\n      tag_42\n      jump\t// in\n    tag_249:\n    tag_248:\n      swap1\n      0x00\n      mstore\n      keccak256(0x00, 0x20)\n      swap1\n      0x04\n      mul\n      add\n        /* \"contracts/main.sol\":4699:4724  recipientList[i].quantity */\n      0x03\n      add\n      sload\n        /* \"contracts/main.sol\":4571:4580  pushMatch */\n      tag_107\n        /* \"contracts/main.sol\":4571:4725  pushMatch(_owner, recipientList[i].owner, _bloodtype, recipientList[i].bloodtype, _organ, _quantity, recipientList[i].quantity, recipientList[i].quantity) */\n      jump\t// in\n    tag_233:\n        /* \"contracts/main.sol\":4734:4755  pop(recipientList, i) */\n      tag_251\n        /* \"contracts/main.sol\":4738:4751  recipientList */\n      0x04\n        /* \"contracts/main.sol\":4753:4754  i */\n      dup5\n        /* \"contracts/main.sol\":4734:4737  pop */\n      tag_111\n        /* \"contracts/main.sol\":4734:4755  pop(recipientList, i) */\n      jump\t// in\n    tag_251:\n        /* \"contracts/main.sol\":4764:4769  break */\n      pop\n      jump(tag_184)\n        /* \"contracts/main.sol\":4541:5031  if (pendingqty == 0) {... */\n    tag_232:\n        /* \"contracts/main.sol\":4793:4947  pushMatch(_owner, recipientList[i].owner, _bloodtype, recipientList[i].bloodtype, _organ, _quantity, recipientList[i].quantity, recipientList[i].quantity) */\n      tag_253\n        /* \"contracts/main.sol\":4803:4809  _owner */\n      dup9\n        /* \"contracts/main.sol\":4811:4824  recipientList */\n      0x04\n        /* \"contracts/main.sol\":4825:4826  i */\n      dup6\n        /* \"contracts/main.sol\":4811:4827  recipientList[i] */\n      dup2\n      sload\n      dup2\n      lt\n      tag_254\n      jumpi\n      tag_255\n      tag_42\n      jump\t// in\n    tag_255:\n    tag_254:\n      swap1\n      0x00\n      mstore\n      keccak256(0x00, 0x20)\n      swap1\n      0x04\n      mul\n      add\n        /* \"contracts/main.sol\":4811:4833  recipientList[i].owner */\n      0x00\n      add\n        /* \"contracts/main.sol\":4793:4947  pushMatch(_owner, recipientList[i].owner, _bloodtype, recipientList[i].bloodtype, _organ, _quantity, recipientList[i].quantity, recipientList[i].quantity) */\n      dup1\n      sload\n      tag_257\n      swap1\n      tag_93\n      jump\t// in\n    tag_257:\n      dup1\n      0x1f\n      add\n      0x20\n      dup1\n      swap2\n      div\n      mul\n      0x20\n      add\n      mload(0x40)\n      swap1\n      dup2\n      add\n      0x40\n      mstore\n      dup1\n      swap3\n      swap2\n      swap1\n      dup2\n      dup2\n      mstore\n      0x20\n      add\n      dup3\n      dup1\n      sload\n      tag_258\n      swap1\n      tag_93\n      jump\t// in\n    tag_258:\n      dup1\n      iszero\n      tag_259\n      jumpi\n      dup1\n      0x1f\n      lt\n      tag_260\n      jumpi\n      0x0100\n      dup1\n      dup4\n      sload\n      div\n      mul\n      dup4\n      mstore\n      swap2\n      0x20\n      add\n      swap2\n      jump(tag_259)\n    tag_260:\n      dup3\n      add\n      swap2\n      swap1\n      0x00\n      mstore\n      keccak256(0x00, 0x20)\n      swap1\n    tag_261:\n      dup2\n      sload\n      dup2\n      mstore\n      swap1\n      0x01\n      add\n      swap1\n      0x20\n      add\n      dup1\n      dup4\n      gt\n      tag_261\n      jumpi\n      dup3\n      swap1\n      sub\n      0x1f\n      and\n      dup3\n      add\n      swap2\n    tag_259:\n      pop\n      pop\n      pop\n      pop\n      pop\n        /* \"contracts/main.sol\":4835:4845  _bloodtype */\n      dup10\n        /* \"contracts/main.sol\":4847:4860  recipientList */\n      0x04\n        /* \"contracts/main.sol\":4861:4862  i */\n      dup8\n        /* \"contracts/main.sol\":4847:4863  recipientList[i] */\n      dup2\n      sload\n      dup2\n      lt\n      tag_262\n      jumpi\n      tag_263\n      tag_42\n      jump\t// in\n    tag_263:\n    tag_262:\n      swap1\n      0x00\n      mstore\n      keccak256(0x00, 0x20)\n      swap1\n      0x04\n      mul\n      add\n        /* \"contracts/main.sol\":4847:4873  recipientList[i].bloodtype */\n      0x01\n      add\n      sload\n        /* \"contracts/main.sol\":4875:4881  _organ */\n      dup11\n        /* \"contracts/main.sol\":4883:4892  _quantity */\n      dup11\n        /* \"contracts/main.sol\":4894:4907  recipientList */\n      0x04\n        /* \"contracts/main.sol\":4908:4909  i */\n      dup11\n        /* \"contracts/main.sol\":4894:4910  recipientList[i] */\n      dup2\n      sload\n      dup2\n      lt\n      tag_265\n      jumpi\n      tag_266\n      tag_42\n      jump\t// in\n    tag_266:\n    tag_265:\n      swap1\n      0x00\n      mstore\n      keccak256(0x00, 0x20)\n      swap1\n      0x04\n      mul\n      add\n        /* \"contracts/main.sol\":4894:4919  recipientList[i].quantity */\n      0x03\n      add\n      sload\n        /* \"contracts/main.sol\":4921:4934  recipientList */\n      0x04\n        /* \"contracts/main.sol\":4935:4936  i */\n      dup12\n        /* \"contracts/main.sol\":4921:4937  recipientList[i] */\n      dup2\n      sload\n      dup2\n      lt\n      tag_268\n      jumpi\n      tag_269\n      tag_42\n      jump\t// in\n    tag_269:\n    tag_268:\n      swap1\n      0x00\n      mstore\n      keccak256(0x00, 0x20)\n      swap1\n      0x04\n      mul\n      add\n        /* \"contracts/main.sol\":4921:4946  recipientList[i].quantity */\n      0x03\n      add\n      sload\n        /* \"contracts/main.sol\":4793:4802  pushMatch */\n      tag_107\n        /* \"contracts/main.sol\":4793:4947  pushMatch(_owner, recipientList[i].owner, _bloodtype, recipientList[i].bloodtype, _organ, _quantity, recipientList[i].quantity, recipientList[i].quantity) */\n      jump\t// in\n    tag_253:\n        /* \"contracts/main.sol\":5005:5007  -1 */\n      0xffffffffffffffffffffffffffffffffffffffffffffffffffffffffffffffff\n        /* \"contracts/main.sol\":4992:5002  pendingqty */\n      dup2\n        /* \"contracts/main.sol\":4992:5007  pendingqty * -1 */\n      tag_271\n      swap2\n      swap1\n      tag_153\n      jump\t// in\n    tag_271:\n        /* \"contracts/main.sol\":4956:4969  recipientList */\n      0x04\n        /* \"contracts/main.sol\":4970:4971  i */\n      dup5\n        /* \"contracts/main.sol\":4956:4972  recipientList[i] */\n      dup2\n      sload\n      dup2\n      lt\n      tag_272\n      jumpi\n      tag_273\n      tag_42\n      jump\t// in\n    tag_273:\n    tag_272:\n      swap1\n      0x00\n      mstore\n      keccak256(0x00, 0x20)\n      swap1\n      0x04\n      mul\n      add\n        /* \"contracts/main.sol\":4956:4981  recipientList[i].quantity */\n      0x03\n      add\n        /* \"contracts/main.sol\":4956:5008  recipientList[i].quantity = uint256(pendingqty * -1) */\n      dup2\n      swap1\n      sstore\n      pop\n        /* \"contracts/main.sol\":5017:5022  break */\n      pop\n      jump(tag_184)\n        /* \"contracts/main.sol\":3944:5038  if (recipientList[i].bloodtype == posBT[j]) {... */\n    tag_192:\n        /* \"contracts/main.sol\":3932:3935  j++ */\n      dup1\n      dup1\n      0x01\n      add\n      swap2\n      pop\n      pop\n        /* \"contracts/main.sol\":3894:5044  for (uint256 j = 0; j <\tposBT.length; j++) {... */\n      jump(tag_183)\n    tag_184:\n      pop\n        /* \"contracts/main.sol\":3814:5049  if (keccak256(bytes(recipientList[i].organ)) == keccak256(bytes(_organ))) {... */\n    tag_182:\n        /* \"contracts/main.sol\":3804:3807  i++ */\n      dup1\n      dup1\n      0x01\n      add\n      swap2\n      pop\n      pop\n        /* \"contracts/main.sol\":3758:5053  for (uint256 i = 0; i < recipientList.length; i++) {... */\n      jump(tag_175)\n    tag_176:\n      pop\n        /* \"contracts/main.sol\":5062:5072  matchFound */\n      dup1\n        /* \"contracts/main.sol\":5057:5133  if (!matchFound) {... */\n      tag_275\n      jumpi\n        /* \"contracts/main.sol\":5079:5128  pushNew(_owner, _bloodtype, _organ, _quantity, 0) */\n      tag_276\n        /* \"contracts/main.sol\":5087:5093  _owner */\n      dup6\n        /* \"contracts/main.sol\":5095:5105  _bloodtype */\n      dup6\n        /* \"contracts/main.sol\":5107:5113  _organ */\n      dup6\n        /* \"contracts/main.sol\":5115:5124  _quantity */\n      dup6\n        /* \"contracts/main.sol\":5126:5127  0 */\n      0x00\n        /* \"contracts/main.sol\":5079:5086  pushNew */\n      tag_109\n        /* \"contracts/main.sol\":5079:5128  pushNew(_owner, _bloodtype, _organ, _quantity, 0) */\n      jump\t// in\n    tag_276:\n        /* \"contracts/main.sol\":5057:5133  if (!matchFound) {... */\n    tag_275:\n        /* \"contracts/main.sol\":3528:5136  {... */\n      pop\n        /* \"contracts/main.sol\":3420:5136  function regDonor(string memory _owner, uint256 _bloodtype, string memory _organ, uint256 _quantity) public {... */\n      pop\n      pop\n      pop\n      pop\n      jump\t// out\n        /* \"contracts/main.sol\":6906:7035  function showRecipient(string memory _pass) public view rlPassCheck(_pass) returns (orgdet[] memory) {... */\n    tag_19:\n        /* \"contracts/main.sol\":6990:7005  orgdet[] memory */\n      0x60\n        /* \"contracts/main.sol\":6974:6979  _pass */\n      dup2\n        /* \"contracts/main.sol\":908:921  recipientPass */\n      sload(0x01)\n        /* \"contracts/main.sol\":895:900  _pass */\n      dup2\n        /* \"contracts/main.sol\":878:901  abi.encodePacked(_pass) */\n      add(0x20, mload(0x40))\n      tag_278\n      swap2\n      swap1\n      tag_279\n      jump\t// in\n    tag_278:\n      mload(0x40)\n      0x20\n      dup2\n      dup4\n      sub\n      sub\n      dup2\n      mstore\n      swap1\n      0x40\n      mstore\n        /* \"contracts/main.sol\":868:902  keccak256(abi.encodePacked(_pass)) */\n      dup1\n      mload\n      swap1\n      0x20\n      add\n      keccak256\n        /* \"contracts/main.sol\":851:903  abi.encodePacked(keccak256(abi.encodePacked(_pass))) */\n      add(0x20, mload(0x40))\n      tag_280\n      swap2\n      swap1\n      tag_281\n      jump\t// in\n    tag_280:\n      mload(0x40)\n      0x20\n      dup2\n      dup4\n      sub\n      sub\n      dup2\n      mstore\n      swap1\n      0x40\n      mstore\n        /* \"contracts/main.sol\":841:904  keccak256(abi.encodePacked(keccak256(abi.encodePacked(_pass)))) */\n      dup1\n      mload\n      swap1\n      0x20\n      add\n      keccak256\n        /* \"contracts/main.sol\":841:921  keccak256(abi.encodePacked(keccak256(abi.encodePacked(_pass)))) == recipientPass */\n      eq\n        /* \"contracts/main.sol\":833:945  require(keccak256(abi.encodePacked(keccak256(abi.encodePacked(_pass)))) == recipientPass, \"Incorrect password!\") */\n      tag_282\n      jumpi\n      mload(0x40)\n      0x08c379a000000000000000000000000000000000000000000000000000000000\n      dup2\n      mstore\n      0x04\n      add\n      tag_283\n      swap1\n      tag_284\n      jump\t// in\n    tag_283:\n      mload(0x40)\n      dup1\n      swap2\n      sub\n      swap1\n      revert\n    tag_282:\n        /* \"contracts/main.sol\":7018:7031  recipientList */\n      0x04\n        /* \"contracts/main.sol\":7011:7031  return recipientList */\n      dup1\n      sload\n      dup1\n      0x20\n      mul\n      0x20\n      add\n      mload(0x40)\n      swap1\n      dup2\n      add\n      0x40\n      mstore\n      dup1\n      swap3\n      swap2\n      swap1\n      dup2\n      dup2\n      mstore\n      0x20\n      add\n      0x00\n      swap1\n    tag_286:\n      dup3\n      dup3\n      lt\n      iszero\n      tag_287\n      jumpi\n      dup4\n      dup3\n      swap1\n      0x00\n      mstore\n      keccak256(0x00, 0x20)\n      swap1\n      0x04\n      mul\n      add\n      mload(0x40)\n      dup1\n      0x80\n      add\n      0x40\n      mstore\n      swap1\n      dup2\n      0x00\n      dup3\n      add\n      dup1\n      sload\n      tag_289\n      swap1\n      tag_93\n      jump\t// in\n    tag_289:\n      dup1\n      0x1f\n      add\n      0x20\n      dup1\n      swap2\n      div\n      mul\n      0x20\n      add\n      mload(0x40)\n      swap1\n      dup2\n      add\n      0x40\n      mstore\n      dup1\n      swap3\n      swap2\n      swap1\n      dup2\n      dup2\n      mstore\n      0x20\n      add\n      dup3\n      dup1\n      sload\n      tag_290\n      swap1\n      tag_93\n      jump\t// in\n    tag_290:\n      dup1\n      iszero\n      tag_291\n      jumpi\n      dup1\n      0x1f\n      lt\n      tag_292\n      jumpi\n      0x0100\n      dup1\n      dup4\n      sload\n      div\n      mul\n      dup4\n      mstore\n      swap2\n      0x20\n      add\n      swap2\n      jump(tag_291)\n    tag_292:\n      dup3\n      add\n      swap2\n      swap1\n      0x00\n      mstore\n      keccak256(0x00, 0x20)\n      swap1\n    tag_293:\n      dup2\n      sload\n      dup2\n      mstore\n      swap1\n      0x01\n      add\n      swap1\n      0x20\n      add\n      dup1\n      dup4\n      gt\n      tag_293\n      jumpi\n      dup3\n      swap1\n      sub\n      0x1f\n      and\n      dup3\n      add\n      swap2\n    tag_291:\n      pop\n      pop\n      pop\n      pop\n      pop\n      dup2\n      mstore\n      0x20\n      add\n      0x01\n      dup3\n      add\n      sload\n      dup2\n      mstore\n      0x20\n      add\n      0x02\n      dup3\n      add\n      dup1\n      sload\n      tag_294\n      swap1\n      tag_93\n      jump\t// in\n    tag_294:\n      dup1\n      0x1f\n      add\n      0x20\n      dup1\n      swap2\n      div\n      mul\n      0x20\n      add\n      mload(0x40)\n      swap1\n      dup2\n      add\n      0x40\n      mstore\n      dup1\n      swap3\n      swap2\n      swap1\n      dup2\n      dup2\n      mstore\n      0x20\n      add\n      dup3\n      dup1\n      sload\n      tag_295\n      swap1\n      tag_93\n      jump\t// in\n    tag_295:\n      dup1\n      iszero\n      tag_296\n      jumpi\n      dup1\n      0x1f\n      lt\n      tag_297\n      jumpi\n      0x0100\n      dup1\n      dup4\n      sload\n      div\n      mul\n      dup4\n      mstore\n      swap2\n      0x20\n      add\n      swap2\n      jump(tag_296)\n    tag_297:\n      dup3\n      add\n      swap2\n      swap1\n      0x00\n      mstore\n      keccak256(0x00, 0x20)\n      swap1\n    tag_298:\n      dup2\n      sload\n      dup2\n      mstore\n      swap1\n      0x01\n      add\n      swap1\n      0x20\n      add\n      dup1\n      dup4\n      gt\n      tag_298\n      jumpi\n      dup3\n      swap1\n      sub\n      0x1f\n      and\n      dup3\n      add\n      swap2\n    tag_296:\n      pop\n      pop\n      pop\n      pop\n      pop\n      dup2\n      mstore\n      0x20\n      add\n      0x03\n      dup3\n      add\n      sload\n      dup2\n      mstore\n      pop\n      pop\n      dup2\n      mstore\n      0x20\n      add\n      swap1\n      0x01\n      add\n      swap1\n      jump(tag_286)\n    tag_287:\n      pop\n      pop\n      pop\n      pop\n      swap2\n      pop\n        /* \"contracts/main.sol\":6906:7035  function showRecipient(string memory _pass) public view rlPassCheck(_pass) returns (orgdet[] memory) {... */\n      pop\n      swap2\n      swap1\n      pop\n      jump\t// out\n        /* \"contracts/main.sol\":6781:6903  function showDonors(string memory _pass) public view dlPassCheck(_pass) returns (orgdet[] memory) {... */\n    tag_24:\n        /* \"contracts/main.sol\":6862:6877  orgdet[] memory */\n      0x60\n        /* \"contracts/main.sol\":6846:6851  _pass */\n      dup2\n        /* \"contracts/main.sol\":742:751  donorPass */\n      sload(0x00)\n        /* \"contracts/main.sol\":729:734  _pass */\n      dup2\n        /* \"contracts/main.sol\":712:735  abi.encodePacked(_pass) */\n      add(0x20, mload(0x40))\n      tag_300\n      swap2\n      swap1\n      tag_279\n      jump\t// in\n    tag_300:\n      mload(0x40)\n      0x20\n      dup2\n      dup4\n      sub\n      sub\n      dup2\n      mstore\n      swap1\n      0x40\n      mstore\n        /* \"contracts/main.sol\":702:736  keccak256(abi.encodePacked(_pass)) */\n      dup1\n      mload\n      swap1\n      0x20\n      add\n      keccak256\n        /* \"contracts/main.sol\":685:737  abi.encodePacked(keccak256(abi.encodePacked(_pass))) */\n      add(0x20, mload(0x40))\n      tag_301\n      swap2\n      swap1\n      tag_281\n      jump\t// in\n    tag_301:\n      mload(0x40)\n      0x20\n      dup2\n      dup4\n      sub\n      sub\n      dup2\n      mstore\n      swap1\n      0x40\n      mstore\n        /* \"contracts/main.sol\":675:738  keccak256(abi.encodePacked(keccak256(abi.encodePacked(_pass)))) */\n      dup1\n      mload\n      swap1\n      0x20\n      add\n      keccak256\n        /* \"contracts/main.sol\":675:751  keccak256(abi.encodePacked(keccak256(abi.encodePacked(_pass)))) == donorPass */\n      eq\n        /* \"contracts/main.sol\":667:775  require(keccak256(abi.encodePacked(keccak256(abi.encodePacked(_pass)))) == donorPass, \"Incorrect password!\") */\n      tag_302\n      jumpi\n      mload(0x40)\n      0x08c379a000000000000000000000000000000000000000000000000000000000\n      dup2\n      mstore\n      0x04\n      add\n      tag_303\n      swap1\n      tag_284\n      jump\t// in\n    tag_303:\n      mload(0x40)\n      dup1\n      swap2\n      sub\n      swap1\n      revert\n    tag_302:\n        /* \"contracts/main.sol\":6890:6899  donorList */\n      0x03\n        /* \"contracts/main.sol\":6883:6899  return donorList */\n      dup1\n      sload\n      dup1\n      0x20\n      mul\n      0x20\n      add\n      mload(0x40)\n      swap1\n      dup2\n      add\n      0x40\n      mstore\n      dup1\n      swap3\n      swap2\n      swap1\n      dup2\n      dup2\n      mstore\n      0x20\n      add\n      0x00\n      swap1\n    tag_305:\n      dup3\n      dup3\n      lt\n      iszero\n      tag_306\n      jumpi\n      dup4\n      dup3\n      swap1\n      0x00\n      mstore\n      keccak256(0x00, 0x20)\n      swap1\n      0x04\n      mul\n      add\n      mload(0x40)\n      dup1\n      0x80\n      add\n      0x40\n      mstore\n      swap1\n      dup2\n      0x00\n      dup3\n      add\n      dup1\n      sload\n      tag_308\n      swap1\n      tag_93\n      jump\t// in\n    tag_308:\n      dup1\n      0x1f\n      add\n      0x20\n      dup1\n      swap2\n      div\n      mul\n      0x20\n      add\n      mload(0x40)\n      swap1\n      dup2\n      add\n      0x40\n      mstore\n      dup1\n      swap3\n      swap2\n      swap1\n      dup2\n      dup2\n      mstore\n      0x20\n      add\n      dup3\n      dup1\n      sload\n      tag_309\n      swap1\n      tag_93\n      jump\t// in\n    tag_309:\n      dup1\n      iszero\n      tag_310\n      jumpi\n      dup1\n      0x1f\n      lt\n      tag_311\n      jumpi\n      0x0100\n      dup1\n      dup4\n      sload\n      div\n      mul\n      dup4\n      mstore\n      swap2\n      0x20\n      add\n      swap2\n      jump(tag_310)\n    tag_311:\n      dup3\n      add\n      swap2\n      swap1\n      0x00\n      mstore\n      keccak256(0x00, 0x20)\n      swap1\n    tag_312:\n      dup2\n      sload\n      dup2\n      mstore\n      swap1\n      0x01\n      add\n      swap1\n      0x20\n      add\n      dup1\n      dup4\n      gt\n      tag_312\n      jumpi\n      dup3\n      swap1\n      sub\n      0x1f\n      and\n      dup3\n      add\n      swap2\n    tag_310:\n      pop\n      pop\n      pop\n      pop\n      pop\n      dup2\n      mstore\n      0x20\n      add\n      0x01\n      dup3\n      add\n      sload\n      dup2\n      mstore\n      0x20\n      add\n      0x02\n      dup3\n      add\n      dup1\n      sload\n      tag_313\n      swap1\n      tag_93\n      jump\t// in\n    tag_313:\n      dup1\n      0x1f\n      add\n      0x20\n      dup1\n      swap2\n      div\n      mul\n      0x20\n      add\n      mload(0x40)\n      swap1\n      dup2\n      add\n      0x40\n      mstore\n      dup1\n      swap3\n      swap2\n      swap1\n      dup2\n      dup2\n      mstore\n      0x20\n      add\n      dup3\n      dup1\n      sload\n      tag_314\n      swap1\n      tag_93\n      jump\t// in\n    tag_314:\n      dup1\n      iszero\n      tag_315\n      jumpi\n      dup1\n      0x1f\n      lt\n      tag_316\n      jumpi\n      0x0100\n      dup1\n      dup4\n      sload\n      div\n      mul\n      dup4\n      mstore\n      swap2\n      0x20\n      add\n      swap2\n      jump(tag_315)\n    tag_316:\n      dup3\n      add\n      swap2\n      swap1\n      0x00\n      mstore\n      keccak256(0x00, 0x20)\n      swap1\n    tag_317:\n      dup2\n      sload\n      dup2\n      mstore\n      swap1\n      0x01\n      add\n      swap1\n      0x20\n      add\n      dup1\n      dup4\n      gt\n      tag_317\n      jumpi\n      dup3\n      swap1\n      sub\n      0x1f\n      and\n      dup3\n      add\n      swap2\n    tag_315:\n      pop\n      pop\n      pop\n      pop\n      pop\n      dup2\n      mstore\n      0x20\n      add\n      0x03\n      dup3\n      add\n      sload\n      dup2\n      mstore\n      pop\n      pop\n      dup2\n      mstore\n      0x20\n      add\n      swap1\n      0x01\n      add\n      swap1\n      jump(tag_305)\n    tag_306:\n      pop\n      pop\n      pop\n      pop\n      swap2\n      pop\n        /* \"contracts/main.sol\":6781:6903  function showDonors(string memory _pass) public view dlPassCheck(_pass) returns (orgdet[] memory) {... */\n      pop\n      swap2\n      swap1\n      pop\n      jump\t// out\n        /* \"contracts/main.sol\":7038:7171  function showMatches(string memory _pass) public view mlPassCheck(_pass) returns (matched_orgdet[] memory) {... */\n    tag_28:\n        /* \"contracts/main.sol\":7120:7143  matched_orgdet[] memory */\n      0x60\n        /* \"contracts/main.sol\":7104:7109  _pass */\n      dup2\n        /* \"contracts/main.sol\":1078:1089  matchedPass */\n      sload(0x02)\n        /* \"contracts/main.sol\":1065:1070  _pass */\n      dup2\n        /* \"contracts/main.sol\":1048:1071  abi.encodePacked(_pass) */\n      add(0x20, mload(0x40))\n      tag_319\n      swap2\n      swap1\n      tag_279\n      jump\t// in\n    tag_319:\n      mload(0x40)\n      0x20\n      dup2\n      dup4\n      sub\n      sub\n      dup2\n      mstore\n      swap1\n      0x40\n      mstore\n        /* \"contracts/main.sol\":1038:1072  keccak256(abi.encodePacked(_pass)) */\n      dup1\n      mload\n      swap1\n      0x20\n      add\n      keccak256\n        /* \"contracts/main.sol\":1021:1073  abi.encodePacked(keccak256(abi.encodePacked(_pass))) */\n      add(0x20, mload(0x40))\n      tag_320\n      swap2\n      swap1\n      tag_281\n      jump\t// in\n    tag_320:\n      mload(0x40)\n      0x20\n      dup2\n      dup4\n      sub\n      sub\n      dup2\n      mstore\n      swap1\n      0x40\n      mstore\n        /* \"contracts/main.sol\":1011:1074  keccak256(abi.encodePacked(keccak256(abi.encodePacked(_pass)))) */\n      dup1\n      mload\n      swap1\n      0x20\n      add\n      keccak256\n        /* \"contracts/main.sol\":1011:1089  keccak256(abi.encodePacked(keccak256(abi.encodePacked(_pass)))) == matchedPass */\n      eq\n        /* \"contracts/main.sol\":1003:1113  require(keccak256(abi.encodePacked(keccak256(abi.encodePacked(_pass)))) == matchedPass, \"Incorrect password!\") */\n      tag_321\n      jumpi\n      mload(0x40)\n      0x08c379a000000000000000000000000000000000000000000000000000000000\n      dup2\n      mstore\n      0x04\n      add\n      tag_322\n      swap1\n      tag_284\n      jump\t// in\n    tag_322:\n      mload(0x40)\n      dup1\n      swap2\n      sub\n      swap1\n      revert\n    tag_321:\n        /* \"contracts/main.sol\":7156:7167  matchedList */\n      0x05\n        /* \"contracts/main.sol\":7149:7167  return matchedList */\n      dup1\n      sload\n      dup1\n      0x20\n      mul\n      0x20\n      add\n      mload(0x40)\n      swap1\n      dup2\n      add\n      0x40\n      mstore\n      dup1\n      swap3\n      swap2\n      swap1\n      dup2\n      dup2\n      mstore\n      0x20\n      add\n      0x00\n      swap1\n    tag_324:\n      dup3\n      dup3\n      lt\n      iszero\n      tag_325\n      jumpi\n      dup4\n      dup3\n      swap1\n      0x00\n      mstore\n      keccak256(0x00, 0x20)\n      swap1\n      0x08\n      mul\n      add\n      mload(0x40)\n      dup1\n      0x0100\n      add\n      0x40\n      mstore\n      swap1\n      dup2\n      0x00\n      dup3\n      add\n      dup1\n      sload\n      tag_327\n      swap1\n      tag_93\n      jump\t// in\n    tag_327:\n      dup1\n      0x1f\n      add\n      0x20\n      dup1\n      swap2\n      div\n      mul\n      0x20\n      add\n      mload(0x40)\n      swap1\n      dup2\n      add\n      0x40\n      mstore\n      dup1\n      swap3\n      swap2\n      swap1\n      dup2\n      dup2\n      mstore\n      0x20\n      add\n      dup3\n      dup1\n      sload\n      tag_328\n      swap1\n      tag_93\n      jump\t// in\n    tag_328:\n      dup1\n      iszero\n      tag_329\n      jumpi\n      dup1\n      0x1f\n      lt\n      tag_330\n      jumpi\n      0x0100\n      dup1\n      dup4\n      sload\n      div\n      mul\n      dup4\n      mstore\n      swap2\n      0x20\n      add\n      swap2\n      jump(tag_329)\n    tag_330:\n      dup3\n      add\n      swap2\n      swap1\n      0x00\n      mstore\n      keccak256(0x00, 0x20)\n      swap1\n    tag_331:\n      dup2\n      sload\n      dup2\n      mstore\n      swap1\n      0x01\n      add\n      swap1\n      0x20\n      add\n      dup1\n      dup4\n      gt\n      tag_331\n      jumpi\n      dup3\n      swap1\n      sub\n      0x1f\n      and\n      dup3\n      add\n      swap2\n    tag_329:\n      pop\n      pop\n      pop\n      pop\n      pop\n      dup2\n      mstore\n      0x20\n      add\n      0x01\n      dup3\n      add\n      dup1\n      sload\n      tag_332\n      swap1\n      tag_93\n      jump\t// in\n    tag_332:\n      dup1\n      0x1f\n      add\n      0x20\n      dup1\n      swap2\n      div\n      mul\n      0x20\n      add\n      mload(0x40)\n      swap1\n      dup2\n      add\n      0x40\n      mstore\n      dup1\n      swap3\n      swap2\n      swap1\n      dup2\n      dup2\n      mstore\n      0x20\n      add\n      dup3\n      dup1\n      sload\n      tag_333\n      swap1\n      tag_93\n      jump\t// in\n    tag_333:\n      dup1\n      iszero\n      tag_334\n      jumpi\n      dup1\n      0x1f\n      lt\n      tag_335\n      jumpi\n      0x0100\n      dup1\n      dup4\n      sload\n      div\n      mul\n      dup4\n      mstore\n      swap2\n      0x20\n      add\n      swap2\n      jump(tag_334)\n    tag_335:\n      dup3\n      add\n      swap2\n      swap1\n      0x00\n      mstore\n      keccak256(0x00, 0x20)\n      swap1\n    tag_336:\n      dup2\n      sload\n      dup2\n      mstore\n      swap1\n      0x01\n      add\n      swap1\n      0x20\n      add\n      dup1\n      dup4\n      gt\n      tag_336\n      jumpi\n      dup3\n      swap1\n      sub\n      0x1f\n      and\n      dup3\n      add\n      swap2\n    tag_334:\n      pop\n      pop\n      pop\n      pop\n      pop\n      dup2\n      mstore\n      0x20\n      add\n      0x02\n      dup3\n      add\n      sload\n      dup2\n      mstore\n      0x20\n      add\n      0x03\n      dup3\n      add\n      sload\n      dup2\n      mstore\n      0x20\n      add\n      0x04\n      dup3\n      add\n      dup1\n      sload\n      tag_337\n      swap1\n      tag_93\n      jump\t// in\n    tag_337:\n      dup1\n      0x1f\n      add\n      0x20\n      dup1\n      swap2\n      div\n      mul\n      0x20\n      add\n      mload(0x40)\n      swap1\n      dup2\n      add\n      0x40\n      mstore\n      dup1\n      swap3\n      swap2\n      swap1\n      dup2\n      dup2\n      mstore\n      0x20\n      add\n      dup3\n      dup1\n      sload\n      tag_338\n      swap1\n      tag_93\n      jump\t// in\n    tag_338:\n      dup1\n      iszero\n      tag_339\n      jumpi\n      dup1\n      0x1f\n      lt\n      tag_340\n      jumpi\n      0x0100\n      dup1\n      dup4\n      sload\n      div\n      mul\n      dup4\n      mstore\n      swap2\n      0x20\n      add\n      swap2\n      jump(tag_339)\n    tag_340:\n      dup3\n      add\n      swap2\n      swap1\n      0x00\n      mstore\n      keccak256(0x00, 0x20)\n      swap1\n    tag_341:\n      dup2\n      sload\n      dup2\n      mstore\n      swap1\n      0x01\n      add\n      swap1\n      0x20\n      add\n      dup1\n      dup4\n      gt\n      tag_341\n      jumpi\n      dup3\n      swap1\n      sub\n      0x1f\n      and\n      dup3\n      add\n      swap2\n    tag_339:\n      pop\n      pop\n      pop\n      pop\n      pop\n      dup2\n      mstore\n      0x20\n      add\n      0x05\n      dup3\n      add\n      sload\n      dup2\n      mstore\n      0x20\n      add\n      0x06\n      dup3\n      add\n      sload\n      dup2\n      mstore\n      0x20\n      add\n      0x07\n      dup3\n      add\n      sload\n      dup2\n      mstore\n      pop\n      pop\n      dup2\n      mstore\n      0x20\n      add\n      swap1\n      0x01\n      add\n      swap1\n      jump(tag_324)\n    tag_325:\n      pop\n      pop\n      pop\n      pop\n      swap2\n      pop\n        /* \"contracts/main.sol\":7038:7171  function showMatches(string memory _pass) public view mlPassCheck(_pass) returns (matched_orgdet[] memory) {... */\n      pop\n      swap2\n      swap1\n      pop\n      jump\t// out\n        /* \"contracts/main.sol\":2594:3054  function pushMatch(string memory _donor, string memory _recipient, uint256 _dbt, uint256 _rbt, string memory _organ, uint256 _dqty, uint256 _rqty, uint256 _mqty) private {... */\n    tag_107:\n        /* \"contracts/main.sol\":2768:2799  matched_orgdet memory match_det */\n      0x00\n        /* \"contracts/main.sol\":2802:3019  matched_orgdet({... */\n      mload(0x40)\n      dup1\n      0x0100\n      add\n      0x40\n      mstore\n      dup1\n        /* \"contracts/main.sol\":2829:2835  _donor */\n      dup11\n        /* \"contracts/main.sol\":2802:3019  matched_orgdet({... */\n      dup2\n      mstore\n      0x20\n      add\n        /* \"contracts/main.sol\":2851:2861  _recipient */\n      dup10\n        /* \"contracts/main.sol\":2802:3019  matched_orgdet({... */\n      dup2\n      mstore\n      0x20\n      add\n        /* \"contracts/main.sol\":2882:2886  _dbt */\n      dup9\n        /* \"contracts/main.sol\":2802:3019  matched_orgdet({... */\n      dup2\n      mstore\n      0x20\n      add\n        /* \"contracts/main.sol\":2911:2915  _rbt */\n      dup8\n        /* \"contracts/main.sol\":2802:3019  matched_orgdet({... */\n      dup2\n      mstore\n      0x20\n      add\n        /* \"contracts/main.sol\":2927:2933  _organ */\n      dup7\n        /* \"contracts/main.sol\":2802:3019  matched_orgdet({... */\n      dup2\n      mstore\n      0x20\n      add\n        /* \"contracts/main.sol\":2953:2958  _dqty */\n      dup6\n        /* \"contracts/main.sol\":2802:3019  matched_orgdet({... */\n      dup2\n      mstore\n      0x20\n      add\n        /* \"contracts/main.sol\":2982:2987  _rqty */\n      dup5\n        /* \"contracts/main.sol\":2802:3019  matched_orgdet({... */\n      dup2\n      mstore\n      0x20\n      add\n        /* \"contracts/main.sol\":3009:3014  _mqty */\n      dup4\n        /* \"contracts/main.sol\":2802:3019  matched_orgdet({... */\n      dup2\n      mstore\n      pop\n        /* \"contracts/main.sol\":2768:3019  matched_orgdet memory match_det = matched_orgdet({... */\n      swap1\n      pop\n        /* \"contracts/main.sol\":3023:3034  matchedList */\n      0x05\n        /* \"contracts/main.sol\":3040:3049  match_det */\n      dup2\n        /* \"contracts/main.sol\":3023:3050  matchedList.push(match_det) */\n      swap1\n      dup1\n      0x01\n      dup2\n      sload\n      add\n      dup1\n      dup3\n      sstore\n      dup1\n      swap2\n      pop\n      pop\n      0x01\n      swap1\n      sub\n      swap1\n      0x00\n      mstore\n      keccak256(0x00, 0x20)\n      swap1\n      0x08\n      mul\n      add\n      0x00\n      swap1\n      swap2\n      swap1\n      swap2\n      swap1\n      swap2\n      pop\n      0x00\n      dup3\n      add\n      mload\n      dup2\n      0x00\n      add\n      swap1\n      dup2\n      tag_344\n      swap2\n      swap1\n      tag_345\n      jump\t// in\n    tag_344:\n      pop\n      0x20\n      dup3\n      add\n      mload\n      dup2\n      0x01\n      add\n      swap1\n      dup2\n      tag_346\n      swap2\n      swap1\n      tag_345\n      jump\t// in\n    tag_346:\n      pop\n      0x40\n      dup3\n      add\n      mload\n      dup2\n      0x02\n      add\n      sstore\n      0x60\n      dup3\n      add\n      mload\n      dup2\n      0x03\n      add\n      sstore\n      0x80\n      dup3\n      add\n      mload\n      dup2\n      0x04\n      add\n      swap1\n      dup2\n      tag_347\n      swap2\n      swap1\n      tag_345\n      jump\t// in\n    tag_347:\n      pop\n      0xa0\n      dup3\n      add\n      mload\n      dup2\n      0x05\n      add\n      sstore\n      0xc0\n      dup3\n      add\n      mload\n      dup2\n      0x06\n      add\n      sstore\n      0xe0\n      dup3\n      add\n      mload\n      dup2\n      0x07\n      add\n      sstore\n      pop\n      pop\n        /* \"contracts/main.sol\":2764:3054  {... */\n      pop\n        /* \"contracts/main.sol\":2594:3054  function pushMatch(string memory _donor, string memory _recipient, uint256 _dbt, uint256 _rbt, string memory _organ, uint256 _dqty, uint256 _rqty, uint256 _mqty) private {... */\n      pop\n      pop\n      pop\n      pop\n      pop\n      pop\n      pop\n      pop\n      jump\t// out\n        /* \"contracts/main.sol\":3057:3417  function pushNew(string memory _owner, uint256 _bloodtype, string memory _organ, uint256 _quantity, uint256 _type) private {... */\n    tag_109:\n        /* \"contracts/main.sol\":3184:3206  orgdet memory newEntry */\n      0x00\n        /* \"contracts/main.sol\":3209:3316  orgdet({... */\n      mload(0x40)\n      dup1\n      0x80\n      add\n      0x40\n      mstore\n      dup1\n        /* \"contracts/main.sol\":3228:3234  _owner */\n      dup8\n        /* \"contracts/main.sol\":3209:3316  orgdet({... */\n      dup2\n      mstore\n      0x20\n      add\n        /* \"contracts/main.sol\":3250:3260  _bloodtype */\n      dup7\n        /* \"contracts/main.sol\":3209:3316  orgdet({... */\n      dup2\n      mstore\n      0x20\n      add\n        /* \"contracts/main.sol\":3272:3278  _organ */\n      dup6\n        /* \"contracts/main.sol\":3209:3316  orgdet({... */\n      dup2\n      mstore\n      0x20\n      add\n        /* \"contracts/main.sol\":3301:3310  _quantity */\n      dup5\n        /* \"contracts/main.sol\":3209:3316  orgdet({... */\n      dup2\n      mstore\n      pop\n        /* \"contracts/main.sol\":3184:3316  orgdet memory newEntry = orgdet({... */\n      swap1\n      pop\n        /* \"contracts/main.sol\":3333:3334  0 */\n      0x00\n        /* \"contracts/main.sol\":3324:3329  _type */\n      dup3\n        /* \"contracts/main.sol\":3324:3334  _type == 0 */\n      sub\n        /* \"contracts/main.sol\":3320:3414  if (_type == 0) {... */\n      tag_349\n      jumpi\n        /* \"contracts/main.sol\":3341:3350  donorList */\n      0x03\n        /* \"contracts/main.sol\":3356:3364  newEntry */\n      dup2\n        /* \"contracts/main.sol\":3341:3365  donorList.push(newEntry) */\n      swap1\n      dup1\n      0x01\n      dup2\n      sload\n      add\n      dup1\n      dup3\n      sstore\n      dup1\n      swap2\n      pop\n      pop\n      0x01\n      swap1\n      sub\n      swap1\n      0x00\n      mstore\n      keccak256(0x00, 0x20)\n      swap1\n      0x04\n      mul\n      add\n      0x00\n      swap1\n      swap2\n      swap1\n      swap2\n      swap1\n      swap2\n      pop\n      0x00\n      dup3\n      add\n      mload\n      dup2\n      0x00\n      add\n      swap1\n      dup2\n      tag_351\n      swap2\n      swap1\n      tag_345\n      jump\t// in\n    tag_351:\n      pop\n      0x20\n      dup3\n      add\n      mload\n      dup2\n      0x01\n      add\n      sstore\n      0x40\n      dup3\n      add\n      mload\n      dup2\n      0x02\n      add\n      swap1\n      dup2\n      tag_352\n      swap2\n      swap1\n      tag_345\n      jump\t// in\n    tag_352:\n      pop\n      0x60\n      dup3\n      add\n      mload\n      dup2\n      0x03\n      add\n      sstore\n      pop\n      pop\n        /* \"contracts/main.sol\":3320:3414  if (_type == 0) {... */\n      jump(tag_353)\n    tag_349:\n        /* \"contracts/main.sol\":3381:3394  recipientList */\n      0x04\n        /* \"contracts/main.sol\":3400:3408  newEntry */\n      dup2\n        /* \"contracts/main.sol\":3381:3409  recipientList.push(newEntry) */\n      swap1\n      dup1\n      0x01\n      dup2\n      sload\n      add\n      dup1\n      dup3\n      sstore\n      dup1\n      swap2\n      pop\n      pop\n      0x01\n      swap1\n      sub\n      swap1\n      0x00\n      mstore\n      keccak256(0x00, 0x20)\n      swap1\n      0x04\n      mul\n      add\n      0x00\n      swap1\n      swap2\n      swap1\n      swap2\n      swap1\n      swap2\n      pop\n      0x00\n      dup3\n      add\n      mload\n      dup2\n      0x00\n      add\n      swap1\n      dup2\n      tag_355\n      swap2\n      swap1\n      tag_345\n      jump\t// in\n    tag_355:\n      pop\n      0x20\n      dup3\n      add\n      mload\n      dup2\n      0x01\n      add\n      sstore\n      0x40\n      dup3\n      add\n      mload\n      dup2\n      0x02\n      add\n      swap1\n      dup2\n      tag_356\n      swap2\n      swap1\n      tag_345\n      jump\t// in\n    tag_356:\n      pop\n      0x60\n      dup3\n      add\n      mload\n      dup2\n      0x03\n      add\n      sstore\n      pop\n      pop\n        /* \"contracts/main.sol\":3320:3414  if (_type == 0) {... */\n    tag_353:\n        /* \"contracts/main.sol\":3180:3417  {... */\n      pop\n        /* \"contracts/main.sol\":3057:3417  function pushNew(string memory _owner, uint256 _bloodtype, string memory _organ, uint256 _quantity, uint256 _type) private {... */\n      pop\n      pop\n      pop\n      pop\n      pop\n      jump\t// out\n        /* \"contracts/main.sol\":2408:2591  function pop(orgdet[] storage _list, uint256 _i) private {... */\n    tag_111:\n        /* \"contracts/main.sol\":2469:2487  orgdet memory temp */\n      0x00\n        /* \"contracts/main.sol\":2490:2495  _list */\n      dup3\n        /* \"contracts/main.sol\":2496:2498  _i */\n      dup3\n        /* \"contracts/main.sol\":2490:2499  _list[_i] */\n      dup2\n      sload\n      dup2\n      lt\n      tag_358\n      jumpi\n      tag_359\n      tag_42\n      jump\t// in\n    tag_359:\n    tag_358:\n      swap1\n      0x00\n      mstore\n      keccak256(0x00, 0x20)\n      swap1\n      0x04\n      mul\n      add\n        /* \"contracts/main.sol\":2469:2499  orgdet memory temp = _list[_i] */\n      mload(0x40)\n      dup1\n      0x80\n      add\n      0x40\n      mstore\n      swap1\n      dup2\n      0x00\n      dup3\n      add\n      dup1\n      sload\n      tag_361\n      swap1\n      tag_93\n      jump\t// in\n    tag_361:\n      dup1\n      0x1f\n      add\n      0x20\n      dup1\n      swap2\n      div\n      mul\n      0x20\n      add\n      mload(0x40)\n      swap1\n      dup2\n      add\n      0x40\n      mstore\n      dup1\n      swap3\n      swap2\n      swap1\n      dup2\n      dup2\n      mstore\n      0x20\n      add\n      dup3\n      dup1\n      sload\n      tag_362\n      swap1\n      tag_93\n      jump\t// in\n    tag_362:\n      dup1\n      iszero\n      tag_363\n      jumpi\n      dup1\n      0x1f\n      lt\n      tag_364\n      jumpi\n      0x0100\n      dup1\n      dup4\n      sload\n      div\n      mul\n      dup4\n      mstore\n      swap2\n      0x20\n      add\n      swap2\n      jump(tag_363)\n    tag_364:\n      dup3\n      add\n      swap2\n      swap1\n      0x00\n      mstore\n      keccak256(0x00, 0x20)\n      swap1\n    tag_365:\n      dup2\n      sload\n      dup2\n      mstore\n      swap1\n      0x01\n      add\n      swap1\n      0x20\n      add\n      dup1\n      dup4\n      gt\n      tag_365\n      jumpi\n      dup3\n      swap1\n      sub\n      0x1f\n      and\n      dup3\n      add\n      swap2\n    tag_363:\n      pop\n      pop\n      pop\n      pop\n      pop\n      dup2\n      mstore\n      0x20\n      add\n      0x01\n      dup3\n      add\n      sload\n      dup2\n      mstore\n      0x20\n      add\n      0x02\n      dup3\n      add\n      dup1\n      sload\n      tag_366\n      swap1\n      tag_93\n      jump\t// in\n    tag_366:\n      dup1\n      0x1f\n      add\n      0x20\n      dup1\n      swap2\n      div\n      mul\n      0x20\n      add\n      mload(0x40)\n      swap1\n      dup2\n      add\n      0x40\n      mstore\n      dup1\n      swap3\n      swap2\n      swap1\n      dup2\n      dup2\n      mstore\n      0x20\n      add\n      dup3\n      dup1\n      sload\n      tag_367\n      swap1\n      tag_93\n      jump\t// in\n    tag_367:\n      dup1\n      iszero\n      tag_368\n      jumpi\n      dup1\n      0x1f\n      lt\n      tag_369\n      jumpi\n      0x0100\n      dup1\n      dup4\n      sload\n      div\n      mul\n      dup4\n      mstore\n      swap2\n      0x20\n      add\n      swap2\n      jump(tag_368)\n    tag_369:\n      dup3\n      add\n      swap2\n      swap1\n      0x00\n      mstore\n      keccak256(0x00, 0x20)\n      swap1\n    tag_370:\n      dup2\n      sload\n      dup2\n      mstore\n      swap1\n      0x01\n      add\n      swap1\n      0x20\n      add\n      dup1\n      dup4\n      gt\n      tag_370\n      jumpi\n      dup3\n      swap1\n      sub\n      0x1f\n      and\n      dup3\n      add\n      swap2\n    tag_368:\n      pop\n      pop\n      pop\n      pop\n      pop\n      dup2\n      mstore\n      0x20\n      add\n      0x03\n      dup3\n      add\n      sload\n      dup2\n      mstore\n      pop\n      pop\n      swap1\n      pop\n        /* \"contracts/main.sol\":2515:2520  _list */\n      dup3\n        /* \"contracts/main.sol\":2536:2537  1 */\n      0x01\n        /* \"contracts/main.sol\":2521:2526  _list */\n      dup5\n        /* \"contracts/main.sol\":2521:2533  _list.length */\n      dup1\n      sload\n      swap1\n      pop\n        /* \"contracts/main.sol\":2521:2537  _list.length - 1 */\n      tag_371\n      swap2\n      swap1\n      tag_372\n      jump\t// in\n    tag_371:\n        /* \"contracts/main.sol\":2515:2538  _list[_list.length - 1] */\n      dup2\n      sload\n      dup2\n      lt\n      tag_373\n      jumpi\n      tag_374\n      tag_42\n      jump\t// in\n    tag_374:\n    tag_373:\n      swap1\n      0x00\n      mstore\n      keccak256(0x00, 0x20)\n      swap1\n      0x04\n      mul\n      add\n        /* \"contracts/main.sol\":2503:2508  _list */\n      dup4\n        /* \"contracts/main.sol\":2509:2511  _i */\n      dup4\n        /* \"contracts/main.sol\":2503:2512  _list[_i] */\n      dup2\n      sload\n      dup2\n      lt\n      tag_376\n      jumpi\n      tag_377\n      tag_42\n      jump\t// in\n    tag_377:\n    tag_376:\n      swap1\n      0x00\n      mstore\n      keccak256(0x00, 0x20)\n      swap1\n      0x04\n      mul\n      add\n        /* \"contracts/main.sol\":2503:2538  _list[_i] = _list[_list.length - 1] */\n      0x00\n      dup3\n      add\n      dup2\n      0x00\n      add\n      swap1\n      dup2\n      tag_379\n      swap2\n      swap1\n      tag_380\n      jump\t// in\n    tag_379:\n      pop\n      0x01\n      dup3\n      add\n      sload\n      dup2\n      0x01\n      add\n      sstore\n      0x02\n      dup3\n      add\n      dup2\n      0x02\n      add\n      swap1\n      dup2\n      tag_381\n      swap2\n      swap1\n      tag_380\n      jump\t// in\n    tag_381:\n      pop\n      0x03\n      dup3\n      add\n      sload\n      dup2\n      0x03\n      add\n      sstore\n      swap1\n      pop\n      pop\n        /* \"contracts/main.sol\":2568:2572  temp */\n      dup1\n        /* \"contracts/main.sol\":2542:2547  _list */\n      dup4\n        /* \"contracts/main.sol\":2563:2564  1 */\n      0x01\n        /* \"contracts/main.sol\":2548:2553  _list */\n      dup6\n        /* \"contracts/main.sol\":2548:2560  _list.length */\n      dup1\n      sload\n      swap1\n      pop\n        /* \"contracts/main.sol\":2548:2564  _list.length - 1 */\n      tag_382\n      swap2\n      swap1\n      tag_372\n      jump\t// in\n    tag_382:\n        /* \"contracts/main.sol\":2542:2565  _list[_list.length - 1] */\n      dup2\n      sload\n      dup2\n      lt\n      tag_383\n      jumpi\n      tag_384\n      tag_42\n      jump\t// in\n    tag_384:\n    tag_383:\n      swap1\n      0x00\n      mstore\n      keccak256(0x00, 0x20)\n      swap1\n      0x04\n      mul\n      add\n        /* \"contracts/main.sol\":2542:2572  _list[_list.length - 1] = temp */\n      0x00\n      dup3\n      add\n      mload\n      dup2\n      0x00\n      add\n      swap1\n      dup2\n      tag_386\n      swap2\n      swap1\n      tag_345\n      jump\t// in\n    tag_386:\n      pop\n      0x20\n      dup3\n      add\n      mload\n      dup2\n      0x01\n      add\n      sstore\n      0x40\n      dup3\n      add\n      mload\n      dup2\n      0x02\n      add\n      swap1\n      dup2\n      tag_387\n      swap2\n      swap1\n      tag_345\n      jump\t// in\n    tag_387:\n      pop\n      0x60\n      dup3\n      add\n      mload\n      dup2\n      0x03\n      add\n      sstore\n      swap1\n      pop\n      pop\n        /* \"contracts/main.sol\":2576:2581  _list */\n      dup3\n        /* \"contracts/main.sol\":2576:2587  _list.pop() */\n      dup1\n      sload\n      dup1\n      tag_388\n      jumpi\n      tag_389\n      tag_390\n      jump\t// in\n    tag_389:\n    tag_388:\n      0x01\n      swap1\n      sub\n      dup2\n      dup2\n      swap1\n      0x00\n      mstore\n      keccak256(0x00, 0x20)\n      swap1\n      0x04\n      mul\n      add\n      0x00\n      dup1\n      dup3\n      add\n      0x00\n      tag_392\n      swap2\n      swap1\n      tag_393\n      jump\t// in\n    tag_392:\n      0x01\n      dup3\n      add\n      0x00\n      swap1\n      sstore\n      0x02\n      dup3\n      add\n      0x00\n      tag_394\n      swap2\n      swap1\n      tag_393\n      jump\t// in\n    tag_394:\n      0x03\n      dup3\n      add\n      0x00\n      swap1\n      sstore\n      pop\n      pop\n      swap1\n      sstore\n        /* \"contracts/main.sol\":2465:2591  {... */\n      pop\n        /* \"contracts/main.sol\":2408:2591  function pop(orgdet[] storage _list, uint256 _i) private {... */\n      pop\n      pop\n      jump\t// out\n    tag_35:\n      dup3\n      dup1\n      sload\n      dup3\n      dup3\n      sstore\n      swap1\n      0x00\n      mstore\n      keccak256(0x00, 0x20)\n      swap1\n      dup2\n      add\n      swap3\n      dup3\n      iszero\n      tag_395\n      jumpi\n      swap2\n      0x20\n      mul\n      dup3\n      add\n    tag_396:\n      dup3\n      dup2\n      gt\n      iszero\n      tag_397\n      jumpi\n      dup3\n      mload\n      dup3\n      sstore\n      swap2\n      0x20\n      add\n      swap2\n      swap1\n      0x01\n      add\n      swap1\n      jump(tag_396)\n    tag_397:\n    tag_395:\n      pop\n      swap1\n      pop\n      tag_398\n      swap2\n      swap1\n      tag_399\n      jump\t// in\n    tag_398:\n      pop\n      swap1\n      jump\t// out\n    tag_393:\n      pop\n      dup1\n      sload\n      tag_400\n      swap1\n      tag_93\n      jump\t// in\n    tag_400:\n      0x00\n      dup3\n      sstore\n      dup1\n      0x1f\n      lt\n      tag_402\n      jumpi\n      pop\n      jump(tag_401)\n    tag_402:\n      0x1f\n      add\n      0x20\n      swap1\n      div\n      swap1\n      0x00\n      mstore\n      keccak256(0x00, 0x20)\n      swap1\n      dup2\n      add\n      swap1\n      tag_403\n      swap2\n      swap1\n      tag_399\n      jump\t// in\n    tag_403:\n    tag_401:\n      pop\n      jump\t// out\n    tag_399:\n    tag_404:\n      dup1\n      dup3\n      gt\n      iszero\n      tag_405\n      jumpi\n      0x00\n      dup2\n      0x00\n      swap1\n      sstore\n      pop\n      0x01\n      add\n      jump(tag_404)\n    tag_405:\n      pop\n      swap1\n      jump\t// out\n        /* \"#utility.yul\":7:82   */\n    tag_406:\n        /* \"#utility.yul\":40:46   */\n      0x00\n        /* \"#utility.yul\":73:75   */\n      0x40\n        /* \"#utility.yul\":67:76   */\n      mload\n        /* \"#utility.yul\":57:76   */\n      swap1\n      pop\n        /* \"#utility.yul\":7:82   */\n      swap1\n      jump\t// out\n        /* \"#utility.yul\":88:205   */\n    tag_407:\n        /* \"#utility.yul\":197:198   */\n      0x00\n        /* \"#utility.yul\":194:195   */\n      dup1\n        /* \"#utility.yul\":187:199   */\n      revert\n        /* \"#utility.yul\":211:328   */\n    tag_408:\n        /* \"#utility.yul\":320:321   */\n      0x00\n        /* \"#utility.yul\":317:318   */\n      dup1\n        /* \"#utility.yul\":310:322   */\n      revert\n        /* \"#utility.yul\":334:451   */\n    tag_409:\n        /* \"#utility.yul\":443:444   */\n      0x00\n        /* \"#utility.yul\":440:441   */\n      dup1\n        /* \"#utility.yul\":433:445   */\n      revert\n        /* \"#utility.yul\":457:574   */\n    tag_410:\n        /* \"#utility.yul\":566:567   */\n      0x00\n        /* \"#utility.yul\":563:564   */\n      dup1\n        /* \"#utility.yul\":556:568   */\n      revert\n        /* \"#utility.yul\":580:682   */\n    tag_411:\n        /* \"#utility.yul\":621:627   */\n      0x00\n        /* \"#utility.yul\":672:674   */\n      0x1f\n        /* \"#utility.yul\":668:675   */\n      not\n        /* \"#utility.yul\":663:665   */\n      0x1f\n        /* \"#utility.yul\":656:661   */\n      dup4\n        /* \"#utility.yul\":652:666   */\n      add\n        /* \"#utility.yul\":648:676   */\n      and\n        /* \"#utility.yul\":638:676   */\n      swap1\n      pop\n        /* \"#utility.yul\":580:682   */\n      swap2\n      swap1\n      pop\n      jump\t// out\n        /* \"#utility.yul\":688:868   */\n    tag_412:\n        /* \"#utility.yul\":736:813   */\n      0x4e487b7100000000000000000000000000000000000000000000000000000000\n        /* \"#utility.yul\":733:734   */\n      0x00\n        /* \"#utility.yul\":726:814   */\n      mstore\n        /* \"#utility.yul\":833:837   */\n      0x41\n        /* \"#utility.yul\":830:831   */\n      0x04\n        /* \"#utility.yul\":823:838   */\n      mstore\n        /* \"#utility.yul\":857:861   */\n      0x24\n        /* \"#utility.yul\":854:855   */\n      0x00\n        /* \"#utility.yul\":847:862   */\n      revert\n        /* \"#utility.yul\":874:1155   */\n    tag_413:\n        /* \"#utility.yul\":957:984   */\n      tag_482\n        /* \"#utility.yul\":979:983   */\n      dup3\n        /* \"#utility.yul\":957:984   */\n      tag_411\n      jump\t// in\n    tag_482:\n        /* \"#utility.yul\":949:955   */\n      dup2\n        /* \"#utility.yul\":945:985   */\n      add\n        /* \"#utility.yul\":1087:1093   */\n      dup2\n        /* \"#utility.yul\":1075:1085   */\n      dup2\n        /* \"#utility.yul\":1072:1094   */\n      lt\n        /* \"#utility.yul\":1051:1069   */\n      0xffffffffffffffff\n        /* \"#utility.yul\":1039:1049   */\n      dup3\n        /* \"#utility.yul\":1036:1070   */\n      gt\n        /* \"#utility.yul\":1033:1095   */\n      or\n        /* \"#utility.yul\":1030:1118   */\n      iszero\n      tag_483\n      jumpi\n        /* \"#utility.yul\":1098:1116   */\n      tag_484\n      tag_412\n      jump\t// in\n    tag_484:\n        /* \"#utility.yul\":1030:1118   */\n    tag_483:\n        /* \"#utility.yul\":1138:1148   */\n      dup1\n        /* \"#utility.yul\":1134:1136   */\n      0x40\n        /* \"#utility.yul\":1127:1149   */\n      mstore\n        /* \"#utility.yul\":917:1155   */\n      pop\n        /* \"#utility.yul\":874:1155   */\n      pop\n      pop\n      jump\t// out\n        /* \"#utility.yul\":1161:1290   */\n    tag_414:\n        /* \"#utility.yul\":1195:1201   */\n      0x00\n        /* \"#utility.yul\":1222:1242   */\n      tag_486\n      tag_406\n      jump\t// in\n    tag_486:\n        /* \"#utility.yul\":1212:1242   */\n      swap1\n      pop\n        /* \"#utility.yul\":1251:1284   */\n      tag_487\n        /* \"#utility.yul\":1279:1283   */\n      dup3\n        /* \"#utility.yul\":1271:1277   */\n      dup3\n        /* \"#utility.yul\":1251:1284   */\n      tag_413\n      jump\t// in\n    tag_487:\n        /* \"#utility.yul\":1161:1290   */\n      swap2\n      swap1\n      pop\n      jump\t// out\n        /* \"#utility.yul\":1296:1604   */\n    tag_415:\n        /* \"#utility.yul\":1358:1362   */\n      0x00\n        /* \"#utility.yul\":1448:1466   */\n      0xffffffffffffffff\n        /* \"#utility.yul\":1440:1446   */\n      dup3\n        /* \"#utility.yul\":1437:1467   */\n      gt\n        /* \"#utility.yul\":1434:1490   */\n      iszero\n      tag_489\n      jumpi\n        /* \"#utility.yul\":1470:1488   */\n      tag_490\n      tag_412\n      jump\t// in\n    tag_490:\n        /* \"#utility.yul\":1434:1490   */\n    tag_489:\n        /* \"#utility.yul\":1508:1537   */\n      tag_491\n        /* \"#utility.yul\":1530:1536   */\n      dup3\n        /* \"#utility.yul\":1508:1537   */\n      tag_411\n      jump\t// in\n    tag_491:\n        /* \"#utility.yul\":1500:1537   */\n      swap1\n      pop\n        /* \"#utility.yul\":1592:1596   */\n      0x20\n        /* \"#utility.yul\":1586:1590   */\n      dup2\n        /* \"#utility.yul\":1582:1597   */\n      add\n        /* \"#utility.yul\":1574:1597   */\n      swap1\n      pop\n        /* \"#utility.yul\":1296:1604   */\n      swap2\n      swap1\n      pop\n      jump\t// out\n        /* \"#utility.yul\":1610:1758   */\n    tag_416:\n        /* \"#utility.yul\":1708:1714   */\n      dup3\n        /* \"#utility.yul\":1703:1706   */\n      dup2\n        /* \"#utility.yul\":1698:1701   */\n      dup4\n        /* \"#utility.yul\":1685:1715   */\n      calldatacopy\n        /* \"#utility.yul\":1749:1750   */\n      0x00\n        /* \"#utility.yul\":1740:1746   */\n      dup4\n        /* \"#utility.yul\":1735:1738   */\n      dup4\n        /* \"#utility.yul\":1731:1747   */\n      add\n        /* \"#utility.yul\":1724:1751   */\n      mstore\n        /* \"#utility.yul\":1610:1758   */\n      pop\n      pop\n      pop\n      jump\t// out\n        /* \"#utility.yul\":1764:2189   */\n    tag_417:\n        /* \"#utility.yul\":1842:1847   */\n      0x00\n        /* \"#utility.yul\":1867:1933   */\n      tag_494\n        /* \"#utility.yul\":1883:1932   */\n      tag_495\n        /* \"#utility.yul\":1925:1931   */\n      dup5\n        /* \"#utility.yul\":1883:1932   */\n      tag_415\n      jump\t// in\n    tag_495:\n        /* \"#utility.yul\":1867:1933   */\n      tag_414\n      jump\t// in\n    tag_494:\n        /* \"#utility.yul\":1858:1933   */\n      swap1\n      pop\n        /* \"#utility.yul\":1956:1962   */\n      dup3\n        /* \"#utility.yul\":1949:1954   */\n      dup2\n        /* \"#utility.yul\":1942:1963   */\n      mstore\n        /* \"#utility.yul\":1994:1998   */\n      0x20\n        /* \"#utility.yul\":1987:1992   */\n      dup2\n        /* \"#utility.yul\":1983:1999   */\n      add\n        /* \"#utility.yul\":2032:2035   */\n      dup5\n        /* \"#utility.yul\":2023:2029   */\n      dup5\n        /* \"#utility.yul\":2018:2021   */\n      dup5\n        /* \"#utility.yul\":2014:2030   */\n      add\n        /* \"#utility.yul\":2011:2036   */\n      gt\n        /* \"#utility.yul\":2008:2120   */\n      iszero\n      tag_496\n      jumpi\n        /* \"#utility.yul\":2039:2118   */\n      tag_497\n      tag_410\n      jump\t// in\n    tag_497:\n        /* \"#utility.yul\":2008:2120   */\n    tag_496:\n        /* \"#utility.yul\":2129:2183   */\n      tag_498\n        /* \"#utility.yul\":2176:2182   */\n      dup5\n        /* \"#utility.yul\":2171:2174   */\n      dup3\n        /* \"#utility.yul\":2166:2169   */\n      dup6\n        /* \"#utility.yul\":2129:2183   */\n      tag_416\n      jump\t// in\n    tag_498:\n        /* \"#utility.yul\":1848:2189   */\n      pop\n        /* \"#utility.yul\":1764:2189   */\n      swap4\n      swap3\n      pop\n      pop\n      pop\n      jump\t// out\n        /* \"#utility.yul\":2209:2549   */\n    tag_418:\n        /* \"#utility.yul\":2265:2270   */\n      0x00\n        /* \"#utility.yul\":2314:2317   */\n      dup3\n        /* \"#utility.yul\":2307:2311   */\n      0x1f\n        /* \"#utility.yul\":2299:2305   */\n      dup4\n        /* \"#utility.yul\":2295:2312   */\n      add\n        /* \"#utility.yul\":2291:2318   */\n      slt\n        /* \"#utility.yul\":2281:2403   */\n      tag_500\n      jumpi\n        /* \"#utility.yul\":2322:2401   */\n      tag_501\n      tag_409\n      jump\t// in\n    tag_501:\n        /* \"#utility.yul\":2281:2403   */\n    tag_500:\n        /* \"#utility.yul\":2439:2445   */\n      dup2\n        /* \"#utility.yul\":2426:2446   */\n      calldataload\n        /* \"#utility.yul\":2464:2543   */\n      tag_502\n        /* \"#utility.yul\":2539:2542   */\n      dup5\n        /* \"#utility.yul\":2531:2537   */\n      dup3\n        /* \"#utility.yul\":2524:2528   */\n      0x20\n        /* \"#utility.yul\":2516:2522   */\n      dup7\n        /* \"#utility.yul\":2512:2529   */\n      add\n        /* \"#utility.yul\":2464:2543   */\n      tag_417\n      jump\t// in\n    tag_502:\n        /* \"#utility.yul\":2455:2543   */\n      swap2\n      pop\n        /* \"#utility.yul\":2271:2549   */\n      pop\n        /* \"#utility.yul\":2209:2549   */\n      swap3\n      swap2\n      pop\n      pop\n      jump\t// out\n        /* \"#utility.yul\":2555:2632   */\n    tag_419:\n        /* \"#utility.yul\":2592:2599   */\n      0x00\n        /* \"#utility.yul\":2621:2626   */\n      dup2\n        /* \"#utility.yul\":2610:2626   */\n      swap1\n      pop\n        /* \"#utility.yul\":2555:2632   */\n      swap2\n      swap1\n      pop\n      jump\t// out\n        /* \"#utility.yul\":2638:2760   */\n    tag_420:\n        /* \"#utility.yul\":2711:2735   */\n      tag_505\n        /* \"#utility.yul\":2729:2734   */\n      dup2\n        /* \"#utility.yul\":2711:2735   */\n      tag_419\n      jump\t// in\n    tag_505:\n        /* \"#utility.yul\":2704:2709   */\n      dup2\n        /* \"#utility.yul\":2701:2736   */\n      eq\n        /* \"#utility.yul\":2691:2754   */\n      tag_506\n      jumpi\n        /* \"#utility.yul\":2750:2751   */\n      0x00\n        /* \"#utility.yul\":2747:2748   */\n      dup1\n        /* \"#utility.yul\":2740:2752   */\n      revert\n        /* \"#utility.yul\":2691:2754   */\n    tag_506:\n        /* \"#utility.yul\":2638:2760   */\n      pop\n      jump\t// out\n        /* \"#utility.yul\":2766:2905   */\n    tag_421:\n        /* \"#utility.yul\":2812:2817   */\n      0x00\n        /* \"#utility.yul\":2850:2856   */\n      dup2\n        /* \"#utility.yul\":2837:2857   */\n      calldataload\n        /* \"#utility.yul\":2828:2857   */\n      swap1\n      pop\n        /* \"#utility.yul\":2866:2899   */\n      tag_508\n        /* \"#utility.yul\":2893:2898   */\n      dup2\n        /* \"#utility.yul\":2866:2899   */\n      tag_420\n      jump\t// in\n    tag_508:\n        /* \"#utility.yul\":2766:2905   */\n      swap3\n      swap2\n      pop\n      pop\n      jump\t// out\n        /* \"#utility.yul\":2911:4036   */\n    tag_10:\n        /* \"#utility.yul\":3017:3023   */\n      0x00\n        /* \"#utility.yul\":3025:3031   */\n      dup1\n        /* \"#utility.yul\":3033:3039   */\n      0x00\n        /* \"#utility.yul\":3041:3047   */\n      dup1\n        /* \"#utility.yul\":3090:3093   */\n      0x80\n        /* \"#utility.yul\":3078:3087   */\n      dup6\n        /* \"#utility.yul\":3069:3076   */\n      dup8\n        /* \"#utility.yul\":3065:3088   */\n      sub\n        /* \"#utility.yul\":3061:3094   */\n      slt\n        /* \"#utility.yul\":3058:3178   */\n      iszero\n      tag_510\n      jumpi\n        /* \"#utility.yul\":3097:3176   */\n      tag_511\n      tag_407\n      jump\t// in\n    tag_511:\n        /* \"#utility.yul\":3058:3178   */\n    tag_510:\n        /* \"#utility.yul\":3245:3246   */\n      0x00\n        /* \"#utility.yul\":3234:3243   */\n      dup6\n        /* \"#utility.yul\":3230:3247   */\n      add\n        /* \"#utility.yul\":3217:3248   */\n      calldataload\n        /* \"#utility.yul\":3275:3293   */\n      0xffffffffffffffff\n        /* \"#utility.yul\":3267:3273   */\n      dup2\n        /* \"#utility.yul\":3264:3294   */\n      gt\n        /* \"#utility.yul\":3261:3378   */\n      iszero\n      tag_512\n      jumpi\n        /* \"#utility.yul\":3297:3376   */\n      tag_513\n      tag_408\n      jump\t// in\n    tag_513:\n        /* \"#utility.yul\":3261:3378   */\n    tag_512:\n        /* \"#utility.yul\":3402:3465   */\n      tag_514\n        /* \"#utility.yul\":3457:3464   */\n      dup8\n        /* \"#utility.yul\":3448:3454   */\n      dup3\n        /* \"#utility.yul\":3437:3446   */\n      dup9\n        /* \"#utility.yul\":3433:3455   */\n      add\n        /* \"#utility.yul\":3402:3465   */\n      tag_418\n      jump\t// in\n    tag_514:\n        /* \"#utility.yul\":3392:3465   */\n      swap5\n      pop\n        /* \"#utility.yul\":3188:3475   */\n      pop\n        /* \"#utility.yul\":3542:3544   */\n      0x20\n        /* \"#utility.yul\":3531:3540   */\n      dup6\n        /* \"#utility.yul\":3527:3545   */\n      add\n        /* \"#utility.yul\":3514:3546   */\n      calldataload\n        /* \"#utility.yul\":3573:3591   */\n      0xffffffffffffffff\n        /* \"#utility.yul\":3565:3571   */\n      dup2\n        /* \"#utility.yul\":3562:3592   */\n      gt\n        /* \"#utility.yul\":3559:3676   */\n      iszero\n      tag_515\n      jumpi\n        /* \"#utility.yul\":3595:3674   */\n      tag_516\n      tag_408\n      jump\t// in\n    tag_516:\n        /* \"#utility.yul\":3559:3676   */\n    tag_515:\n        /* \"#utility.yul\":3700:3763   */\n      tag_517\n        /* \"#utility.yul\":3755:3762   */\n      dup8\n        /* \"#utility.yul\":3746:3752   */\n      dup3\n        /* \"#utility.yul\":3735:3744   */\n      dup9\n        /* \"#utility.yul\":3731:3753   */\n      add\n        /* \"#utility.yul\":3700:3763   */\n      tag_418\n      jump\t// in\n    tag_517:\n        /* \"#utility.yul\":3690:3763   */\n      swap4\n      pop\n        /* \"#utility.yul\":3485:3773   */\n      pop\n        /* \"#utility.yul\":3812:3814   */\n      0x40\n        /* \"#utility.yul\":3838:3891   */\n      tag_518\n        /* \"#utility.yul\":3883:3890   */\n      dup8\n        /* \"#utility.yul\":3874:3880   */\n      dup3\n        /* \"#utility.yul\":3863:3872   */\n      dup9\n        /* \"#utility.yul\":3859:3881   */\n      add\n        /* \"#utility.yul\":3838:3891   */\n      tag_421\n      jump\t// in\n    tag_518:\n        /* \"#utility.yul\":3828:3891   */\n      swap3\n      pop\n        /* \"#utility.yul\":3783:3901   */\n      pop\n        /* \"#utility.yul\":3940:3942   */\n      0x60\n        /* \"#utility.yul\":3966:4019   */\n      tag_519\n        /* \"#utility.yul\":4011:4018   */\n      dup8\n        /* \"#utility.yul\":4002:4008   */\n      dup3\n        /* \"#utility.yul\":3991:4000   */\n      dup9\n        /* \"#utility.yul\":3987:4009   */\n      add\n        /* \"#utility.yul\":3966:4019   */\n      tag_421\n      jump\t// in\n    tag_519:\n        /* \"#utility.yul\":3956:4019   */\n      swap2\n      pop\n        /* \"#utility.yul\":3911:4029   */\n      pop\n        /* \"#utility.yul\":2911:4036   */\n      swap3\n      swap6\n      swap2\n      swap5\n      pop\n      swap3\n      pop\n      jump\t// out\n        /* \"#utility.yul\":4042:5167   */\n    tag_14:\n        /* \"#utility.yul\":4148:4154   */\n      0x00\n        /* \"#utility.yul\":4156:4162   */\n      dup1\n        /* \"#utility.yul\":4164:4170   */\n      0x00\n        /* \"#utility.yul\":4172:4178   */\n      dup1\n        /* \"#utility.yul\":4221:4224   */\n      0x80\n        /* \"#utility.yul\":4209:4218   */\n      dup6\n        /* \"#utility.yul\":4200:4207   */\n      dup8\n        /* \"#utility.yul\":4196:4219   */\n      sub\n        /* \"#utility.yul\":4192:4225   */\n      slt\n        /* \"#utility.yul\":4189:4309   */\n      iszero\n      tag_521\n      jumpi\n        /* \"#utility.yul\":4228:4307   */\n      tag_522\n      tag_407\n      jump\t// in\n    tag_522:\n        /* \"#utility.yul\":4189:4309   */\n    tag_521:\n        /* \"#utility.yul\":4376:4377   */\n      0x00\n        /* \"#utility.yul\":4365:4374   */\n      dup6\n        /* \"#utility.yul\":4361:4378   */\n      add\n        /* \"#utility.yul\":4348:4379   */\n      calldataload\n        /* \"#utility.yul\":4406:4424   */\n      0xffffffffffffffff\n        /* \"#utility.yul\":4398:4404   */\n      dup2\n        /* \"#utility.yul\":4395:4425   */\n      gt\n        /* \"#utility.yul\":4392:4509   */\n      iszero\n      tag_523\n      jumpi\n        /* \"#utility.yul\":4428:4507   */\n      tag_524\n      tag_408\n      jump\t// in\n    tag_524:\n        /* \"#utility.yul\":4392:4509   */\n    tag_523:\n        /* \"#utility.yul\":4533:4596   */\n      tag_525\n        /* \"#utility.yul\":4588:4595   */\n      dup8\n        /* \"#utility.yul\":4579:4585   */\n      dup3\n        /* \"#utility.yul\":4568:4577   */\n      dup9\n        /* \"#utility.yul\":4564:4586   */\n      add\n        /* \"#utility.yul\":4533:4596   */\n      tag_418\n      jump\t// in\n    tag_525:\n        /* \"#utility.yul\":4523:4596   */\n      swap5\n      pop\n        /* \"#utility.yul\":4319:4606   */\n      pop\n        /* \"#utility.yul\":4645:4647   */\n      0x20\n        /* \"#utility.yul\":4671:4724   */\n      tag_526\n        /* \"#utility.yul\":4716:4723   */\n      dup8\n        /* \"#utility.yul\":4707:4713   */\n      dup3\n        /* \"#utility.yul\":4696:4705   */\n      dup9\n        /* \"#utility.yul\":4692:4714   */\n      add\n        /* \"#utility.yul\":4671:4724   */\n      tag_421\n      jump\t// in\n    tag_526:\n        /* \"#utility.yul\":4661:4724   */\n      swap4\n      pop\n        /* \"#utility.yul\":4616:4734   */\n      pop\n        /* \"#utility.yul\":4801:4803   */\n      0x40\n        /* \"#utility.yul\":4790:4799   */\n      dup6\n        /* \"#utility.yul\":4786:4804   */\n      add\n        /* \"#utility.yul\":4773:4805   */\n      calldataload\n        /* \"#utility.yul\":4832:4850   */\n      0xffffffffffffffff\n        /* \"#utility.yul\":4824:4830   */\n      dup2\n        /* \"#utility.yul\":4821:4851   */\n      gt\n        /* \"#utility.yul\":4818:4935   */\n      iszero\n      tag_527\n      jumpi\n        /* \"#utility.yul\":4854:4933   */\n      tag_528\n      tag_408\n      jump\t// in\n    tag_528:\n        /* \"#utility.yul\":4818:4935   */\n    tag_527:\n        /* \"#utility.yul\":4959:5022   */\n      tag_529\n        /* \"#utility.yul\":5014:5021   */\n      dup8\n        /* \"#utility.yul\":5005:5011   */\n      dup3\n        /* \"#utility.yul\":4994:5003   */\n      dup9\n        /* \"#utility.yul\":4990:5012   */\n      add\n        /* \"#utility.yul\":4959:5022   */\n      tag_418\n      jump\t// in\n    tag_529:\n        /* \"#utility.yul\":4949:5022   */\n      swap3\n      pop\n        /* \"#utility.yul\":4744:5032   */\n      pop\n        /* \"#utility.yul\":5071:5073   */\n      0x60\n        /* \"#utility.yul\":5097:5150   */\n      tag_530\n        /* \"#utility.yul\":5142:5149   */\n      dup8\n        /* \"#utility.yul\":5133:5139   */\n      dup3\n        /* \"#utility.yul\":5122:5131   */\n      dup9\n        /* \"#utility.yul\":5118:5140   */\n      add\n        /* \"#utility.yul\":5097:5150   */\n      tag_421\n      jump\t// in\n    tag_530:\n        /* \"#utility.yul\":5087:5150   */\n      swap2\n      pop\n        /* \"#utility.yul\":5042:5160   */\n      pop\n        /* \"#utility.yul\":4042:5167   */\n      swap3\n      swap6\n      swap2\n      swap5\n      pop\n      swap3\n      pop\n      jump\t// out\n        /* \"#utility.yul\":5173:5682   */\n    tag_18:\n        /* \"#utility.yul\":5242:5248   */\n      0x00\n        /* \"#utility.yul\":5291:5293   */\n      0x20\n        /* \"#utility.yul\":5279:5288   */\n      dup3\n        /* \"#utility.yul\":5270:5277   */\n      dup5\n        /* \"#utility.yul\":5266:5289   */\n      sub\n        /* \"#utility.yul\":5262:5294   */\n      slt\n        /* \"#utility.yul\":5259:5378   */\n      iszero\n      tag_532\n      jumpi\n        /* \"#utility.yul\":5297:5376   */\n      tag_533\n      tag_407\n      jump\t// in\n    tag_533:\n        /* \"#utility.yul\":5259:5378   */\n    tag_532:\n        /* \"#utility.yul\":5445:5446   */\n      0x00\n        /* \"#utility.yul\":5434:5443   */\n      dup3\n        /* \"#utility.yul\":5430:5447   */\n      add\n        /* \"#utility.yul\":5417:5448   */\n      calldataload\n        /* \"#utility.yul\":5475:5493   */\n      0xffffffffffffffff\n        /* \"#utility.yul\":5467:5473   */\n      dup2\n        /* \"#utility.yul\":5464:5494   */\n      gt\n        /* \"#utility.yul\":5461:5578   */\n      iszero\n      tag_534\n      jumpi\n        /* \"#utility.yul\":5497:5576   */\n      tag_535\n      tag_408\n      jump\t// in\n    tag_535:\n        /* \"#utility.yul\":5461:5578   */\n    tag_534:\n        /* \"#utility.yul\":5602:5665   */\n      tag_536\n        /* \"#utility.yul\":5657:5664   */\n      dup5\n        /* \"#utility.yul\":5648:5654   */\n      dup3\n        /* \"#utility.yul\":5637:5646   */\n      dup6\n        /* \"#utility.yul\":5633:5655   */\n      add\n        /* \"#utility.yul\":5602:5665   */\n      tag_418\n      jump\t// in\n    tag_536:\n        /* \"#utility.yul\":5592:5665   */\n      swap2\n      pop\n        /* \"#utility.yul\":5388:5675   */\n      pop\n        /* \"#utility.yul\":5173:5682   */\n      swap3\n      swap2\n      pop\n      pop\n      jump\t// out\n        /* \"#utility.yul\":5688:5825   */\n    tag_422:\n        /* \"#utility.yul\":5778:5784   */\n      0x00\n        /* \"#utility.yul\":5812:5817   */\n      dup2\n        /* \"#utility.yul\":5806:5818   */\n      mload\n        /* \"#utility.yul\":5796:5818   */\n      swap1\n      pop\n        /* \"#utility.yul\":5688:5825   */\n      swap2\n      swap1\n      pop\n      jump\t// out\n        /* \"#utility.yul\":5831:6038   */\n    tag_423:\n        /* \"#utility.yul\":5953:5964   */\n      0x00\n        /* \"#utility.yul\":5987:5993   */\n      dup3\n        /* \"#utility.yul\":5982:5985   */\n      dup3\n        /* \"#utility.yul\":5975:5994   */\n      mstore\n        /* \"#utility.yul\":6027:6031   */\n      0x20\n        /* \"#utility.yul\":6022:6025   */\n      dup3\n        /* \"#utility.yul\":6018:6032   */\n      add\n        /* \"#utility.yul\":6003:6032   */\n      swap1\n      pop\n        /* \"#utility.yul\":5831:6038   */\n      swap3\n      swap2\n      pop\n      pop\n      jump\t// out\n        /* \"#utility.yul\":6044:6199   */\n    tag_424:\n        /* \"#utility.yul\":6134:6138   */\n      0x00\n        /* \"#utility.yul\":6157:6160   */\n      dup2\n        /* \"#utility.yul\":6149:6160   */\n      swap1\n      pop\n        /* \"#utility.yul\":6187:6191   */\n      0x20\n        /* \"#utility.yul\":6182:6185   */\n      dup3\n        /* \"#utility.yul\":6178:6192   */\n      add\n        /* \"#utility.yul\":6170:6192   */\n      swap1\n      pop\n        /* \"#utility.yul\":6044:6199   */\n      swap2\n      swap1\n      pop\n      jump\t// out\n        /* \"#utility.yul\":6205:6304   */\n    tag_425:\n        /* \"#utility.yul\":6257:6263   */\n      0x00\n        /* \"#utility.yul\":6291:6296   */\n      dup2\n        /* \"#utility.yul\":6285:6297   */\n      mload\n        /* \"#utility.yul\":6275:6297   */\n      swap1\n      pop\n        /* \"#utility.yul\":6205:6304   */\n      swap2\n      swap1\n      pop\n      jump\t// out\n        /* \"#utility.yul\":6310:6469   */\n    tag_426:\n        /* \"#utility.yul\":6384:6395   */\n      0x00\n        /* \"#utility.yul\":6418:6424   */\n      dup3\n        /* \"#utility.yul\":6413:6416   */\n      dup3\n        /* \"#utility.yul\":6406:6425   */\n      mstore\n        /* \"#utility.yul\":6458:6462   */\n      0x20\n        /* \"#utility.yul\":6453:6456   */\n      dup3\n        /* \"#utility.yul\":6449:6463   */\n      add\n        /* \"#utility.yul\":6434:6463   */\n      swap1\n      pop\n        /* \"#utility.yul\":6310:6469   */\n      swap3\n      swap2\n      pop\n      pop\n      jump\t// out\n        /* \"#utility.yul\":6475:6614   */\n    tag_427:\n        /* \"#utility.yul\":6564:6570   */\n      dup3\n        /* \"#utility.yul\":6559:6562   */\n      dup2\n        /* \"#utility.yul\":6554:6557   */\n      dup4\n        /* \"#utility.yul\":6548:6571   */\n      mcopy\n        /* \"#utility.yul\":6605:6606   */\n      0x00\n        /* \"#utility.yul\":6596:6602   */\n      dup4\n        /* \"#utility.yul\":6591:6594   */\n      dup4\n        /* \"#utility.yul\":6587:6603   */\n      add\n        /* \"#utility.yul\":6580:6607   */\n      mstore\n        /* \"#utility.yul\":6475:6614   */\n      pop\n      pop\n      pop\n      jump\t// out\n        /* \"#utility.yul\":6620:6977   */\n    tag_428:\n        /* \"#utility.yul\":6698:6701   */\n      0x00\n        /* \"#utility.yul\":6726:6765   */\n      tag_544\n        /* \"#utility.yul\":6759:6764   */\n      dup3\n        /* \"#utility.yul\":6726:6765   */\n      tag_425\n      jump\t// in\n    tag_544:\n        /* \"#utility.yul\":6781:6842   */\n      tag_545\n        /* \"#utility.yul\":6835:6841   */\n      dup2\n        /* \"#utility.yul\":6830:6833   */\n      dup6\n        /* \"#utility.yul\":6781:6842   */\n      tag_426\n      jump\t// in\n    tag_545:\n        /* \"#utility.yul\":6774:6842   */\n      swap4\n      pop\n        /* \"#utility.yul\":6851:6916   */\n      tag_546\n        /* \"#utility.yul\":6909:6915   */\n      dup2\n        /* \"#utility.yul\":6904:6907   */\n      dup6\n        /* \"#utility.yul\":6897:6901   */\n      0x20\n        /* \"#utility.yul\":6890:6895   */\n      dup7\n        /* \"#utility.yul\":6886:6902   */\n      add\n        /* \"#utility.yul\":6851:6916   */\n      tag_427\n      jump\t// in\n    tag_546:\n        /* \"#utility.yul\":6941:6970   */\n      tag_547\n        /* \"#utility.yul\":6963:6969   */\n      dup2\n        /* \"#utility.yul\":6941:6970   */\n      tag_411\n      jump\t// in\n    tag_547:\n        /* \"#utility.yul\":6936:6939   */\n      dup5\n        /* \"#utility.yul\":6932:6971   */\n      add\n        /* \"#utility.yul\":6925:6971   */\n      swap2\n      pop\n        /* \"#utility.yul\":6702:6977   */\n      pop\n        /* \"#utility.yul\":6620:6977   */\n      swap3\n      swap2\n      pop\n      pop\n      jump\t// out\n        /* \"#utility.yul\":6983:7091   */\n    tag_429:\n        /* \"#utility.yul\":7060:7084   */\n      tag_549\n        /* \"#utility.yul\":7078:7083   */\n      dup2\n        /* \"#utility.yul\":7060:7084   */\n      tag_419\n      jump\t// in\n    tag_549:\n        /* \"#utility.yul\":7055:7058   */\n      dup3\n        /* \"#utility.yul\":7048:7085   */\n      mstore\n        /* \"#utility.yul\":6983:7091   */\n      pop\n      pop\n      jump\t// out\n        /* \"#utility.yul\":7145:8167   */\n    tag_430:\n        /* \"#utility.yul\":7250:7253   */\n      0x00\n        /* \"#utility.yul\":7286:7290   */\n      0x80\n        /* \"#utility.yul\":7281:7284   */\n      dup4\n        /* \"#utility.yul\":7277:7291   */\n      add\n        /* \"#utility.yul\":7374:7378   */\n      0x00\n        /* \"#utility.yul\":7367:7372   */\n      dup4\n        /* \"#utility.yul\":7363:7379   */\n      add\n        /* \"#utility.yul\":7357:7380   */\n      mload\n        /* \"#utility.yul\":7427:7430   */\n      dup5\n        /* \"#utility.yul\":7421:7425   */\n      dup3\n        /* \"#utility.yul\":7417:7431   */\n      sub\n        /* \"#utility.yul\":7410:7414   */\n      0x00\n        /* \"#utility.yul\":7405:7408   */\n      dup7\n        /* \"#utility.yul\":7401:7415   */\n      add\n        /* \"#utility.yul\":7394:7432   */\n      mstore\n        /* \"#utility.yul\":7453:7526   */\n      tag_551\n        /* \"#utility.yul\":7521:7525   */\n      dup3\n        /* \"#utility.yul\":7507:7519   */\n      dup3\n        /* \"#utility.yul\":7453:7526   */\n      tag_428\n      jump\t// in\n    tag_551:\n        /* \"#utility.yul\":7445:7526   */\n      swap2\n      pop\n        /* \"#utility.yul\":7301:7537   */\n      pop\n        /* \"#utility.yul\":7624:7628   */\n      0x20\n        /* \"#utility.yul\":7617:7622   */\n      dup4\n        /* \"#utility.yul\":7613:7629   */\n      add\n        /* \"#utility.yul\":7607:7630   */\n      mload\n        /* \"#utility.yul\":7643:7706   */\n      tag_552\n        /* \"#utility.yul\":7700:7704   */\n      0x20\n        /* \"#utility.yul\":7695:7698   */\n      dup7\n        /* \"#utility.yul\":7691:7705   */\n      add\n        /* \"#utility.yul\":7677:7689   */\n      dup3\n        /* \"#utility.yul\":7643:7706   */\n      tag_429\n      jump\t// in\n    tag_552:\n        /* \"#utility.yul\":7547:7716   */\n      pop\n        /* \"#utility.yul\":7799:7803   */\n      0x40\n        /* \"#utility.yul\":7792:7797   */\n      dup4\n        /* \"#utility.yul\":7788:7804   */\n      add\n        /* \"#utility.yul\":7782:7805   */\n      mload\n        /* \"#utility.yul\":7852:7855   */\n      dup5\n        /* \"#utility.yul\":7846:7850   */\n      dup3\n        /* \"#utility.yul\":7842:7856   */\n      sub\n        /* \"#utility.yul\":7835:7839   */\n      0x40\n        /* \"#utility.yul\":7830:7833   */\n      dup7\n        /* \"#utility.yul\":7826:7840   */\n      add\n        /* \"#utility.yul\":7819:7857   */\n      mstore\n        /* \"#utility.yul\":7878:7951   */\n      tag_553\n        /* \"#utility.yul\":7946:7950   */\n      dup3\n        /* \"#utility.yul\":7932:7944   */\n      dup3\n        /* \"#utility.yul\":7878:7951   */\n      tag_428\n      jump\t// in\n    tag_553:\n        /* \"#utility.yul\":7870:7951   */\n      swap2\n      pop\n        /* \"#utility.yul\":7726:7962   */\n      pop\n        /* \"#utility.yul\":8048:8052   */\n      0x60\n        /* \"#utility.yul\":8041:8046   */\n      dup4\n        /* \"#utility.yul\":8037:8053   */\n      add\n        /* \"#utility.yul\":8031:8054   */\n      mload\n        /* \"#utility.yul\":8067:8130   */\n      tag_554\n        /* \"#utility.yul\":8124:8128   */\n      0x60\n        /* \"#utility.yul\":8119:8122   */\n      dup7\n        /* \"#utility.yul\":8115:8129   */\n      add\n        /* \"#utility.yul\":8101:8113   */\n      dup3\n        /* \"#utility.yul\":8067:8130   */\n      tag_429\n      jump\t// in\n    tag_554:\n        /* \"#utility.yul\":7972:8140   */\n      pop\n        /* \"#utility.yul\":8157:8161   */\n      dup1\n        /* \"#utility.yul\":8150:8161   */\n      swap2\n      pop\n        /* \"#utility.yul\":7255:8167   */\n      pop\n        /* \"#utility.yul\":7145:8167   */\n      swap3\n      swap2\n      pop\n      pop\n      jump\t// out\n        /* \"#utility.yul\":8173:8421   */\n    tag_431:\n        /* \"#utility.yul\":8288:8298   */\n      0x00\n        /* \"#utility.yul\":8323:8415   */\n      tag_556\n        /* \"#utility.yul\":8411:8414   */\n      dup4\n        /* \"#utility.yul\":8403:8409   */\n      dup4\n        /* \"#utility.yul\":8323:8415   */\n      tag_430\n      jump\t// in\n    tag_556:\n        /* \"#utility.yul\":8309:8415   */\n      swap1\n      pop\n        /* \"#utility.yul\":8173:8421   */\n      swap3\n      swap2\n      pop\n      pop\n      jump\t// out\n        /* \"#utility.yul\":8427:8563   */\n    tag_432:\n        /* \"#utility.yul\":8520:8524   */\n      0x00\n        /* \"#utility.yul\":8552:8556   */\n      0x20\n        /* \"#utility.yul\":8547:8550   */\n      dup3\n        /* \"#utility.yul\":8543:8557   */\n      add\n        /* \"#utility.yul\":8535:8557   */\n      swap1\n      pop\n        /* \"#utility.yul\":8427:8563   */\n      swap2\n      swap1\n      pop\n      jump\t// out\n        /* \"#utility.yul\":8621:9716   */\n    tag_433:\n        /* \"#utility.yul\":8786:8789   */\n      0x00\n        /* \"#utility.yul\":8815:8892   */\n      tag_559\n        /* \"#utility.yul\":8886:8891   */\n      dup3\n        /* \"#utility.yul\":8815:8892   */\n      tag_422\n      jump\t// in\n    tag_559:\n        /* \"#utility.yul\":8908:9017   */\n      tag_560\n        /* \"#utility.yul\":9010:9016   */\n      dup2\n        /* \"#utility.yul\":9005:9008   */\n      dup6\n        /* \"#utility.yul\":8908:9017   */\n      tag_423\n      jump\t// in\n    tag_560:\n        /* \"#utility.yul\":8901:9017   */\n      swap4\n      pop\n        /* \"#utility.yul\":9043:9046   */\n      dup4\n        /* \"#utility.yul\":9088:9092   */\n      0x20\n        /* \"#utility.yul\":9080:9086   */\n      dup3\n        /* \"#utility.yul\":9076:9093   */\n      mul\n        /* \"#utility.yul\":9071:9074   */\n      dup6\n        /* \"#utility.yul\":9067:9094   */\n      add\n        /* \"#utility.yul\":9118:9197   */\n      tag_561\n        /* \"#utility.yul\":9191:9196   */\n      dup6\n        /* \"#utility.yul\":9118:9197   */\n      tag_424\n      jump\t// in\n    tag_561:\n        /* \"#utility.yul\":9220:9227   */\n      dup1\n        /* \"#utility.yul\":9251:9252   */\n      0x00\n        /* \"#utility.yul\":9236:9671   */\n    tag_562:\n        /* \"#utility.yul\":9261:9267   */\n      dup6\n        /* \"#utility.yul\":9258:9259   */\n      dup2\n        /* \"#utility.yul\":9255:9268   */\n      lt\n        /* \"#utility.yul\":9236:9671   */\n      iszero\n      tag_564\n      jumpi\n        /* \"#utility.yul\":9332:9341   */\n      dup5\n        /* \"#utility.yul\":9326:9330   */\n      dup5\n        /* \"#utility.yul\":9322:9342   */\n      sub\n        /* \"#utility.yul\":9317:9320   */\n      dup10\n        /* \"#utility.yul\":9310:9343   */\n      mstore\n        /* \"#utility.yul\":9383:9389   */\n      dup2\n        /* \"#utility.yul\":9377:9390   */\n      mload\n        /* \"#utility.yul\":9411:9521   */\n      tag_565\n        /* \"#utility.yul\":9516:9520   */\n      dup6\n        /* \"#utility.yul\":9501:9514   */\n      dup3\n        /* \"#utility.yul\":9411:9521   */\n      tag_431\n      jump\t// in\n    tag_565:\n        /* \"#utility.yul\":9403:9521   */\n      swap5\n      pop\n        /* \"#utility.yul\":9544:9627   */\n      tag_566\n        /* \"#utility.yul\":9620:9626   */\n      dup4\n        /* \"#utility.yul\":9544:9627   */\n      tag_432\n      jump\t// in\n    tag_566:\n        /* \"#utility.yul\":9534:9627   */\n      swap3\n      pop\n        /* \"#utility.yul\":9656:9660   */\n      0x20\n        /* \"#utility.yul\":9651:9654   */\n      dup11\n        /* \"#utility.yul\":9647:9661   */\n      add\n        /* \"#utility.yul\":9640:9661   */\n      swap10\n      pop\n        /* \"#utility.yul\":9296:9671   */\n      pop\n        /* \"#utility.yul\":9283:9284   */\n      0x01\n        /* \"#utility.yul\":9280:9281   */\n      dup2\n        /* \"#utility.yul\":9276:9285   */\n      add\n        /* \"#utility.yul\":9271:9285   */\n      swap1\n      pop\n        /* \"#utility.yul\":9236:9671   */\n      jump(tag_562)\n    tag_564:\n        /* \"#utility.yul\":9240:9254   */\n      pop\n        /* \"#utility.yul\":9687:9691   */\n      dup3\n        /* \"#utility.yul\":9680:9691   */\n      swap8\n      pop\n        /* \"#utility.yul\":9707:9710   */\n      dup8\n        /* \"#utility.yul\":9700:9710   */\n      swap6\n      pop\n        /* \"#utility.yul\":8791:9716   */\n      pop\n      pop\n      pop\n      pop\n      pop\n        /* \"#utility.yul\":8621:9716   */\n      swap3\n      swap2\n      pop\n      pop\n      jump\t// out\n        /* \"#utility.yul\":9722:10187   */\n    tag_21:\n        /* \"#utility.yul\":9911:9915   */\n      0x00\n        /* \"#utility.yul\":9949:9951   */\n      0x20\n        /* \"#utility.yul\":9938:9947   */\n      dup3\n        /* \"#utility.yul\":9934:9952   */\n      add\n        /* \"#utility.yul\":9926:9952   */\n      swap1\n      pop\n        /* \"#utility.yul\":9998:10007   */\n      dup2\n        /* \"#utility.yul\":9992:9996   */\n      dup2\n        /* \"#utility.yul\":9988:10008   */\n      sub\n        /* \"#utility.yul\":9984:9985   */\n      0x00\n        /* \"#utility.yul\":9973:9982   */\n      dup4\n        /* \"#utility.yul\":9969:9986   */\n      add\n        /* \"#utility.yul\":9962:10009   */\n      mstore\n        /* \"#utility.yul\":10026:10180   */\n      tag_568\n        /* \"#utility.yul\":10175:10179   */\n      dup2\n        /* \"#utility.yul\":10166:10172   */\n      dup5\n        /* \"#utility.yul\":10026:10180   */\n      tag_433\n      jump\t// in\n    tag_568:\n        /* \"#utility.yul\":10018:10180   */\n      swap1\n      pop\n        /* \"#utility.yul\":9722:10187   */\n      swap3\n      swap2\n      pop\n      pop\n      jump\t// out\n        /* \"#utility.yul\":10193:10338   */\n    tag_434:\n        /* \"#utility.yul\":10291:10297   */\n      0x00\n        /* \"#utility.yul\":10325:10330   */\n      dup2\n        /* \"#utility.yul\":10319:10331   */\n      mload\n        /* \"#utility.yul\":10309:10331   */\n      swap1\n      pop\n        /* \"#utility.yul\":10193:10338   */\n      swap2\n      swap1\n      pop\n      jump\t// out\n        /* \"#utility.yul\":10344:10559   */\n    tag_435:\n        /* \"#utility.yul\":10474:10485   */\n      0x00\n        /* \"#utility.yul\":10508:10514   */\n      dup3\n        /* \"#utility.yul\":10503:10506   */\n      dup3\n        /* \"#utility.yul\":10496:10515   */\n      mstore\n        /* \"#utility.yul\":10548:10552   */\n      0x20\n        /* \"#utility.yul\":10543:10546   */\n      dup3\n        /* \"#utility.yul\":10539:10553   */\n      add\n        /* \"#utility.yul\":10524:10553   */\n      swap1\n      pop\n        /* \"#utility.yul\":10344:10559   */\n      swap3\n      swap2\n      pop\n      pop\n      jump\t// out\n        /* \"#utility.yul\":10565:10728   */\n    tag_436:\n        /* \"#utility.yul\":10663:10667   */\n      0x00\n        /* \"#utility.yul\":10686:10689   */\n      dup2\n        /* \"#utility.yul\":10678:10689   */\n      swap1\n      pop\n        /* \"#utility.yul\":10716:10720   */\n      0x20\n        /* \"#utility.yul\":10711:10714   */\n      dup3\n        /* \"#utility.yul\":10707:10721   */\n      add\n        /* \"#utility.yul\":10699:10721   */\n      swap1\n      pop\n        /* \"#utility.yul\":10565:10728   */\n      swap2\n      swap1\n      pop\n      jump\t// out\n        /* \"#utility.yul\":10798:12658   */\n    tag_437:\n        /* \"#utility.yul\":10919:10922   */\n      0x00\n        /* \"#utility.yul\":10955:10961   */\n      0x0100\n        /* \"#utility.yul\":10950:10953   */\n      dup4\n        /* \"#utility.yul\":10946:10962   */\n      add\n        /* \"#utility.yul\":11045:11049   */\n      0x00\n        /* \"#utility.yul\":11038:11043   */\n      dup4\n        /* \"#utility.yul\":11034:11050   */\n      add\n        /* \"#utility.yul\":11028:11051   */\n      mload\n        /* \"#utility.yul\":11098:11101   */\n      dup5\n        /* \"#utility.yul\":11092:11096   */\n      dup3\n        /* \"#utility.yul\":11088:11102   */\n      sub\n        /* \"#utility.yul\":11081:11085   */\n      0x00\n        /* \"#utility.yul\":11076:11079   */\n      dup7\n        /* \"#utility.yul\":11072:11086   */\n      add\n        /* \"#utility.yul\":11065:11103   */\n      mstore\n        /* \"#utility.yul\":11124:11197   */\n      tag_573\n        /* \"#utility.yul\":11192:11196   */\n      dup3\n        /* \"#utility.yul\":11178:11190   */\n      dup3\n        /* \"#utility.yul\":11124:11197   */\n      tag_428\n      jump\t// in\n    tag_573:\n        /* \"#utility.yul\":11116:11197   */\n      swap2\n      pop\n        /* \"#utility.yul\":10972:11208   */\n      pop\n        /* \"#utility.yul\":11295:11299   */\n      0x20\n        /* \"#utility.yul\":11288:11293   */\n      dup4\n        /* \"#utility.yul\":11284:11300   */\n      add\n        /* \"#utility.yul\":11278:11301   */\n      mload\n        /* \"#utility.yul\":11348:11351   */\n      dup5\n        /* \"#utility.yul\":11342:11346   */\n      dup3\n        /* \"#utility.yul\":11338:11352   */\n      sub\n        /* \"#utility.yul\":11331:11335   */\n      0x20\n        /* \"#utility.yul\":11326:11329   */\n      dup7\n        /* \"#utility.yul\":11322:11336   */\n      add\n        /* \"#utility.yul\":11315:11353   */\n      mstore\n        /* \"#utility.yul\":11374:11447   */\n      tag_574\n        /* \"#utility.yul\":11442:11446   */\n      dup3\n        /* \"#utility.yul\":11428:11440   */\n      dup3\n        /* \"#utility.yul\":11374:11447   */\n      tag_428\n      jump\t// in\n    tag_574:\n        /* \"#utility.yul\":11366:11447   */\n      swap2\n      pop\n        /* \"#utility.yul\":11218:11458   */\n      pop\n        /* \"#utility.yul\":11550:11554   */\n      0x40\n        /* \"#utility.yul\":11543:11548   */\n      dup4\n        /* \"#utility.yul\":11539:11555   */\n      add\n        /* \"#utility.yul\":11533:11556   */\n      mload\n        /* \"#utility.yul\":11569:11632   */\n      tag_575\n        /* \"#utility.yul\":11626:11630   */\n      0x40\n        /* \"#utility.yul\":11621:11624   */\n      dup7\n        /* \"#utility.yul\":11617:11631   */\n      add\n        /* \"#utility.yul\":11603:11615   */\n      dup3\n        /* \"#utility.yul\":11569:11632   */\n      tag_429\n      jump\t// in\n    tag_575:\n        /* \"#utility.yul\":11468:11642   */\n      pop\n        /* \"#utility.yul\":11738:11742   */\n      0x60\n        /* \"#utility.yul\":11731:11736   */\n      dup4\n        /* \"#utility.yul\":11727:11743   */\n      add\n        /* \"#utility.yul\":11721:11744   */\n      mload\n        /* \"#utility.yul\":11757:11820   */\n      tag_576\n        /* \"#utility.yul\":11814:11818   */\n      0x60\n        /* \"#utility.yul\":11809:11812   */\n      dup7\n        /* \"#utility.yul\":11805:11819   */\n      add\n        /* \"#utility.yul\":11791:11803   */\n      dup3\n        /* \"#utility.yul\":11757:11820   */\n      tag_429\n      jump\t// in\n    tag_576:\n        /* \"#utility.yul\":11652:11830   */\n      pop\n        /* \"#utility.yul\":11913:11917   */\n      0x80\n        /* \"#utility.yul\":11906:11911   */\n      dup4\n        /* \"#utility.yul\":11902:11918   */\n      add\n        /* \"#utility.yul\":11896:11919   */\n      mload\n        /* \"#utility.yul\":11966:11969   */\n      dup5\n        /* \"#utility.yul\":11960:11964   */\n      dup3\n        /* \"#utility.yul\":11956:11970   */\n      sub\n        /* \"#utility.yul\":11949:11953   */\n      0x80\n        /* \"#utility.yul\":11944:11947   */\n      dup7\n        /* \"#utility.yul\":11940:11954   */\n      add\n        /* \"#utility.yul\":11933:11971   */\n      mstore\n        /* \"#utility.yul\":11992:12065   */\n      tag_577\n        /* \"#utility.yul\":12060:12064   */\n      dup3\n        /* \"#utility.yul\":12046:12058   */\n      dup3\n        /* \"#utility.yul\":11992:12065   */\n      tag_428\n      jump\t// in\n    tag_577:\n        /* \"#utility.yul\":11984:12065   */\n      swap2\n      pop\n        /* \"#utility.yul\":11840:12076   */\n      pop\n        /* \"#utility.yul\":12167:12171   */\n      0xa0\n        /* \"#utility.yul\":12160:12165   */\n      dup4\n        /* \"#utility.yul\":12156:12172   */\n      add\n        /* \"#utility.yul\":12150:12173   */\n      mload\n        /* \"#utility.yul\":12186:12249   */\n      tag_578\n        /* \"#utility.yul\":12243:12247   */\n      0xa0\n        /* \"#utility.yul\":12238:12241   */\n      dup7\n        /* \"#utility.yul\":12234:12248   */\n      add\n        /* \"#utility.yul\":12220:12232   */\n      dup3\n        /* \"#utility.yul\":12186:12249   */\n      tag_429\n      jump\t// in\n    tag_578:\n        /* \"#utility.yul\":12086:12259   */\n      pop\n        /* \"#utility.yul\":12354:12358   */\n      0xc0\n        /* \"#utility.yul\":12347:12352   */\n      dup4\n        /* \"#utility.yul\":12343:12359   */\n      add\n        /* \"#utility.yul\":12337:12360   */\n      mload\n        /* \"#utility.yul\":12373:12436   */\n      tag_579\n        /* \"#utility.yul\":12430:12434   */\n      0xc0\n        /* \"#utility.yul\":12425:12428   */\n      dup7\n        /* \"#utility.yul\":12421:12435   */\n      add\n        /* \"#utility.yul\":12407:12419   */\n      dup3\n        /* \"#utility.yul\":12373:12436   */\n      tag_429\n      jump\t// in\n    tag_579:\n        /* \"#utility.yul\":12269:12446   */\n      pop\n        /* \"#utility.yul\":12539:12543   */\n      0xe0\n        /* \"#utility.yul\":12532:12537   */\n      dup4\n        /* \"#utility.yul\":12528:12544   */\n      add\n        /* \"#utility.yul\":12522:12545   */\n      mload\n        /* \"#utility.yul\":12558:12621   */\n      tag_580\n        /* \"#utility.yul\":12615:12619   */\n      0xe0\n        /* \"#utility.yul\":12610:12613   */\n      dup7\n        /* \"#utility.yul\":12606:12620   */\n      add\n        /* \"#utility.yul\":12592:12604   */\n      dup3\n        /* \"#utility.yul\":12558:12621   */\n      tag_429\n      jump\t// in\n    tag_580:\n        /* \"#utility.yul\":12456:12631   */\n      pop\n        /* \"#utility.yul\":12648:12652   */\n      dup1\n        /* \"#utility.yul\":12641:12652   */\n      swap2\n      pop\n        /* \"#utility.yul\":10924:12658   */\n      pop\n        /* \"#utility.yul\":10798:12658   */\n      swap3\n      swap2\n      pop\n      pop\n      jump\t// out\n        /* \"#utility.yul\":12664:12944   */\n    tag_438:\n        /* \"#utility.yul\":12795:12805   */\n      0x00\n        /* \"#utility.yul\":12830:12938   */\n      tag_582\n        /* \"#utility.yul\":12934:12937   */\n      dup4\n        /* \"#utility.yul\":12926:12932   */\n      dup4\n        /* \"#utility.yul\":12830:12938   */\n      tag_437\n      jump\t// in\n    tag_582:\n        /* \"#utility.yul\":12816:12938   */\n      swap1\n      pop\n        /* \"#utility.yul\":12664:12944   */\n      swap3\n      swap2\n      pop\n      pop\n      jump\t// out\n        /* \"#utility.yul\":12950:13094   */\n    tag_439:\n        /* \"#utility.yul\":13051:13055   */\n      0x00\n        /* \"#utility.yul\":13083:13087   */\n      0x20\n        /* \"#utility.yul\":13078:13081   */\n      dup3\n        /* \"#utility.yul\":13074:13088   */\n      add\n        /* \"#utility.yul\":13066:13088   */\n      swap1\n      pop\n        /* \"#utility.yul\":12950:13094   */\n      swap2\n      swap1\n      pop\n      jump\t// out\n        /* \"#utility.yul\":13168:14327   */\n    tag_440:\n        /* \"#utility.yul\":13349:13352   */\n      0x00\n        /* \"#utility.yul\":13378:13463   */\n      tag_585\n        /* \"#utility.yul\":13457:13462   */\n      dup3\n        /* \"#utility.yul\":13378:13463   */\n      tag_434\n      jump\t// in\n    tag_585:\n        /* \"#utility.yul\":13479:13596   */\n      tag_586\n        /* \"#utility.yul\":13589:13595   */\n      dup2\n        /* \"#utility.yul\":13584:13587   */\n      dup6\n        /* \"#utility.yul\":13479:13596   */\n      tag_435\n      jump\t// in\n    tag_586:\n        /* \"#utility.yul\":13472:13596   */\n      swap4\n      pop\n        /* \"#utility.yul\":13622:13625   */\n      dup4\n        /* \"#utility.yul\":13667:13671   */\n      0x20\n        /* \"#utility.yul\":13659:13665   */\n      dup3\n        /* \"#utility.yul\":13655:13672   */\n      mul\n        /* \"#utility.yul\":13650:13653   */\n      dup6\n        /* \"#utility.yul\":13646:13673   */\n      add\n        /* \"#utility.yul\":13697:13784   */\n      tag_587\n        /* \"#utility.yul\":13778:13783   */\n      dup6\n        /* \"#utility.yul\":13697:13784   */\n      tag_436\n      jump\t// in\n    tag_587:\n        /* \"#utility.yul\":13807:13814   */\n      dup1\n        /* \"#utility.yul\":13838:13839   */\n      0x00\n        /* \"#utility.yul\":13823:14282   */\n    tag_588:\n        /* \"#utility.yul\":13848:13854   */\n      dup6\n        /* \"#utility.yul\":13845:13846   */\n      dup2\n        /* \"#utility.yul\":13842:13855   */\n      lt\n        /* \"#utility.yul\":13823:14282   */\n      iszero\n      tag_590\n      jumpi\n        /* \"#utility.yul\":13919:13928   */\n      dup5\n        /* \"#utility.yul\":13913:13917   */\n      dup5\n        /* \"#utility.yul\":13909:13929   */\n      sub\n        /* \"#utility.yul\":13904:13907   */\n      dup10\n        /* \"#utility.yul\":13897:13930   */\n      mstore\n        /* \"#utility.yul\":13970:13976   */\n      dup2\n        /* \"#utility.yul\":13964:13977   */\n      mload\n        /* \"#utility.yul\":13998:14124   */\n      tag_591\n        /* \"#utility.yul\":14119:14123   */\n      dup6\n        /* \"#utility.yul\":14104:14117   */\n      dup3\n        /* \"#utility.yul\":13998:14124   */\n      tag_438\n      jump\t// in\n    tag_591:\n        /* \"#utility.yul\":13990:14124   */\n      swap5\n      pop\n        /* \"#utility.yul\":14147:14238   */\n      tag_592\n        /* \"#utility.yul\":14231:14237   */\n      dup4\n        /* \"#utility.yul\":14147:14238   */\n      tag_439\n      jump\t// in\n    tag_592:\n        /* \"#utility.yul\":14137:14238   */\n      swap3\n      pop\n        /* \"#utility.yul\":14267:14271   */\n      0x20\n        /* \"#utility.yul\":14262:14265   */\n      dup11\n        /* \"#utility.yul\":14258:14272   */\n      add\n        /* \"#utility.yul\":14251:14272   */\n      swap10\n      pop\n        /* \"#utility.yul\":13883:14282   */\n      pop\n        /* \"#utility.yul\":13870:13871   */\n      0x01\n        /* \"#utility.yul\":13867:13868   */\n      dup2\n        /* \"#utility.yul\":13863:13872   */\n      add\n        /* \"#utility.yul\":13858:13872   */\n      swap1\n      pop\n        /* \"#utility.yul\":13823:14282   */\n      jump(tag_588)\n    tag_590:\n        /* \"#utility.yul\":13827:13841   */\n      pop\n        /* \"#utility.yul\":14298:14302   */\n      dup3\n        /* \"#utility.yul\":14291:14302   */\n      swap8\n      pop\n        /* \"#utility.yul\":14318:14321   */\n      dup8\n        /* \"#utility.yul\":14311:14321   */\n      swap6\n      pop\n        /* \"#utility.yul\":13354:14327   */\n      pop\n      pop\n      pop\n      pop\n      pop\n        /* \"#utility.yul\":13168:14327   */\n      swap3\n      swap2\n      pop\n      pop\n      jump\t// out\n        /* \"#utility.yul\":14333:14830   */\n    tag_30:\n        /* \"#utility.yul\":14538:14542   */\n      0x00\n        /* \"#utility.yul\":14576:14578   */\n      0x20\n        /* \"#utility.yul\":14565:14574   */\n      dup3\n        /* \"#utility.yul\":14561:14579   */\n      add\n        /* \"#utility.yul\":14553:14579   */\n      swap1\n      pop\n        /* \"#utility.yul\":14625:14634   */\n      dup2\n        /* \"#utility.yul\":14619:14623   */\n      dup2\n        /* \"#utility.yul\":14615:14635   */\n      sub\n        /* \"#utility.yul\":14611:14612   */\n      0x00\n        /* \"#utility.yul\":14600:14609   */\n      dup4\n        /* \"#utility.yul\":14596:14613   */\n      add\n        /* \"#utility.yul\":14589:14636   */\n      mstore\n        /* \"#utility.yul\":14653:14823   */\n      tag_594\n        /* \"#utility.yul\":14818:14822   */\n      dup2\n        /* \"#utility.yul\":14809:14815   */\n      dup5\n        /* \"#utility.yul\":14653:14823   */\n      tag_440\n      jump\t// in\n    tag_594:\n        /* \"#utility.yul\":14645:14823   */\n      swap1\n      pop\n        /* \"#utility.yul\":14333:14830   */\n      swap3\n      swap2\n      pop\n      pop\n      jump\t// out\n        /* \"#utility.yul\":14836:15016   */\n    tag_42:\n        /* \"#utility.yul\":14884:14961   */\n      0x4e487b7100000000000000000000000000000000000000000000000000000000\n        /* \"#utility.yul\":14881:14882   */\n      0x00\n        /* \"#utility.yul\":14874:14962   */\n      mstore\n        /* \"#utility.yul\":14981:14985   */\n      0x32\n        /* \"#utility.yul\":14978:14979   */\n      0x04\n        /* \"#utility.yul\":14971:14986   */\n      mstore\n        /* \"#utility.yul\":15005:15009   */\n      0x24\n        /* \"#utility.yul\":15002:15003   */\n      0x00\n        /* \"#utility.yul\":14995:15010   */\n      revert\n        /* \"#utility.yul\":15022:15202   */\n    tag_441:\n        /* \"#utility.yul\":15070:15147   */\n      0x4e487b7100000000000000000000000000000000000000000000000000000000\n        /* \"#utility.yul\":15067:15068   */\n      0x00\n        /* \"#utility.yul\":15060:15148   */\n      mstore\n        /* \"#utility.yul\":15167:15171   */\n      0x22\n        /* \"#utility.yul\":15164:15165   */\n      0x04\n        /* \"#utility.yul\":15157:15172   */\n      mstore\n        /* \"#utility.yul\":15191:15195   */\n      0x24\n        /* \"#utility.yul\":15188:15189   */\n      0x00\n        /* \"#utility.yul\":15181:15196   */\n      revert\n        /* \"#utility.yul\":15208:15528   */\n    tag_93:\n        /* \"#utility.yul\":15252:15258   */\n      0x00\n        /* \"#utility.yul\":15289:15290   */\n      0x02\n        /* \"#utility.yul\":15283:15287   */\n      dup3\n        /* \"#utility.yul\":15279:15291   */\n      div\n        /* \"#utility.yul\":15269:15291   */\n      swap1\n      pop\n        /* \"#utility.yul\":15336:15337   */\n      0x01\n        /* \"#utility.yul\":15330:15334   */\n      dup3\n        /* \"#utility.yul\":15326:15338   */\n      and\n        /* \"#utility.yul\":15357:15375   */\n      dup1\n        /* \"#utility.yul\":15347:15428   */\n      tag_598\n      jumpi\n        /* \"#utility.yul\":15413:15417   */\n      0x7f\n        /* \"#utility.yul\":15405:15411   */\n      dup3\n        /* \"#utility.yul\":15401:15418   */\n      and\n        /* \"#utility.yul\":15391:15418   */\n      swap2\n      pop\n        /* \"#utility.yul\":15347:15428   */\n    tag_598:\n        /* \"#utility.yul\":15475:15477   */\n      0x20\n        /* \"#utility.yul\":15467:15473   */\n      dup3\n        /* \"#utility.yul\":15464:15478   */\n      lt\n        /* \"#utility.yul\":15444:15462   */\n      dup2\n        /* \"#utility.yul\":15441:15479   */\n      sub\n        /* \"#utility.yul\":15438:15522   */\n      tag_599\n      jumpi\n        /* \"#utility.yul\":15494:15512   */\n      tag_600\n      tag_441\n      jump\t// in\n    tag_600:\n        /* \"#utility.yul\":15438:15522   */\n    tag_599:\n        /* \"#utility.yul\":15259:15528   */\n      pop\n        /* \"#utility.yul\":15208:15528   */\n      swap2\n      swap1\n      pop\n      jump\t// out\n        /* \"#utility.yul\":15534:15681   */\n    tag_442:\n        /* \"#utility.yul\":15635:15646   */\n      0x00\n        /* \"#utility.yul\":15672:15675   */\n      dup2\n        /* \"#utility.yul\":15657:15675   */\n      swap1\n      pop\n        /* \"#utility.yul\":15534:15681   */\n      swap3\n      swap2\n      pop\n      pop\n      jump\t// out\n        /* \"#utility.yul\":15687:15831   */\n    tag_443:\n        /* \"#utility.yul\":15739:15743   */\n      0x00\n        /* \"#utility.yul\":15762:15765   */\n      dup2\n        /* \"#utility.yul\":15754:15765   */\n      swap1\n      pop\n        /* \"#utility.yul\":15785:15788   */\n      dup2\n        /* \"#utility.yul\":15782:15783   */\n      0x00\n        /* \"#utility.yul\":15775:15789   */\n      mstore\n        /* \"#utility.yul\":15819:15823   */\n      0x20\n        /* \"#utility.yul\":15816:15817   */\n      0x00\n        /* \"#utility.yul\":15806:15824   */\n      keccak256\n        /* \"#utility.yul\":15798:15824   */\n      swap1\n      pop\n        /* \"#utility.yul\":15687:15831   */\n      swap2\n      swap1\n      pop\n      jump\t// out\n        /* \"#utility.yul\":15859:16737   */\n    tag_444:\n        /* \"#utility.yul\":15964:15967   */\n      0x00\n        /* \"#utility.yul\":16001:16006   */\n      dup2\n        /* \"#utility.yul\":15995:16007   */\n      sload\n        /* \"#utility.yul\":16030:16066   */\n      tag_604\n        /* \"#utility.yul\":16056:16065   */\n      dup2\n        /* \"#utility.yul\":16030:16066   */\n      tag_93\n      jump\t// in\n    tag_604:\n        /* \"#utility.yul\":16082:16170   */\n      tag_605\n        /* \"#utility.yul\":16163:16169   */\n      dup2\n        /* \"#utility.yul\":16158:16161   */\n      dup7\n        /* \"#utility.yul\":16082:16170   */\n      tag_442\n      jump\t// in\n    tag_605:\n        /* \"#utility.yul\":16075:16170   */\n      swap5\n      pop\n        /* \"#utility.yul\":16201:16202   */\n      0x01\n        /* \"#utility.yul\":16190:16199   */\n      dup3\n        /* \"#utility.yul\":16186:16203   */\n      and\n        /* \"#utility.yul\":16217:16218   */\n      0x00\n        /* \"#utility.yul\":16212:16378   */\n      dup2\n      eq\n      tag_607\n      jumpi\n        /* \"#utility.yul\":16392:16393   */\n      0x01\n        /* \"#utility.yul\":16387:16731   */\n      dup2\n      eq\n      tag_608\n      jumpi\n        /* \"#utility.yul\":16179:16731   */\n      jump(tag_606)\n        /* \"#utility.yul\":16212:16378   */\n    tag_607:\n        /* \"#utility.yul\":16296:16300   */\n      0xff\n        /* \"#utility.yul\":16292:16301   */\n      not\n        /* \"#utility.yul\":16281:16290   */\n      dup4\n        /* \"#utility.yul\":16277:16302   */\n      and\n        /* \"#utility.yul\":16272:16275   */\n      dup7\n        /* \"#utility.yul\":16265:16303   */\n      mstore\n        /* \"#utility.yul\":16358:16364   */\n      dup2\n        /* \"#utility.yul\":16351:16365   */\n      iszero\n        /* \"#utility.yul\":16344:16366   */\n      iszero\n        /* \"#utility.yul\":16336:16342   */\n      dup3\n        /* \"#utility.yul\":16332:16367   */\n      mul\n        /* \"#utility.yul\":16327:16330   */\n      dup7\n        /* \"#utility.yul\":16323:16368   */\n      add\n        /* \"#utility.yul\":16316:16368   */\n      swap4\n      pop\n        /* \"#utility.yul\":16212:16378   */\n      jump(tag_606)\n        /* \"#utility.yul\":16387:16731   */\n    tag_608:\n        /* \"#utility.yul\":16454:16495   */\n      tag_609\n        /* \"#utility.yul\":16489:16494   */\n      dup6\n        /* \"#utility.yul\":16454:16495   */\n      tag_443\n      jump\t// in\n    tag_609:\n        /* \"#utility.yul\":16517:16518   */\n      0x00\n        /* \"#utility.yul\":16531:16685   */\n    tag_610:\n        /* \"#utility.yul\":16545:16551   */\n      dup4\n        /* \"#utility.yul\":16542:16543   */\n      dup2\n        /* \"#utility.yul\":16539:16552   */\n      lt\n        /* \"#utility.yul\":16531:16685   */\n      iszero\n      tag_612\n      jumpi\n        /* \"#utility.yul\":16619:16626   */\n      dup2\n        /* \"#utility.yul\":16613:16627   */\n      sload\n        /* \"#utility.yul\":16609:16610   */\n      dup2\n        /* \"#utility.yul\":16604:16607   */\n      dup10\n        /* \"#utility.yul\":16600:16611   */\n      add\n        /* \"#utility.yul\":16593:16628   */\n      mstore\n        /* \"#utility.yul\":16669:16670   */\n      0x01\n        /* \"#utility.yul\":16660:16667   */\n      dup3\n        /* \"#utility.yul\":16656:16671   */\n      add\n        /* \"#utility.yul\":16645:16671   */\n      swap2\n      pop\n        /* \"#utility.yul\":16567:16571   */\n      0x20\n        /* \"#utility.yul\":16564:16565   */\n      dup2\n        /* \"#utility.yul\":16560:16572   */\n      add\n        /* \"#utility.yul\":16555:16572   */\n      swap1\n      pop\n        /* \"#utility.yul\":16531:16685   */\n      jump(tag_610)\n    tag_612:\n        /* \"#utility.yul\":16714:16720   */\n      dup4\n        /* \"#utility.yul\":16709:16712   */\n      dup9\n        /* \"#utility.yul\":16705:16721   */\n      add\n        /* \"#utility.yul\":16698:16721   */\n      swap6\n      pop\n        /* \"#utility.yul\":16394:16731   */\n      pop\n      pop\n        /* \"#utility.yul\":16179:16731   */\n    tag_606:\n      pop\n        /* \"#utility.yul\":15968:16737   */\n      pop\n      pop\n        /* \"#utility.yul\":15859:16737   */\n      swap3\n      swap2\n      pop\n      pop\n      jump\t// out\n        /* \"#utility.yul\":16743:17016   */\n    tag_56:\n        /* \"#utility.yul\":16874:16877   */\n      0x00\n        /* \"#utility.yul\":16896:16990   */\n      tag_614\n        /* \"#utility.yul\":16986:16989   */\n      dup3\n        /* \"#utility.yul\":16977:16983   */\n      dup5\n        /* \"#utility.yul\":16896:16990   */\n      tag_444\n      jump\t// in\n    tag_614:\n        /* \"#utility.yul\":16889:16990   */\n      swap2\n      pop\n        /* \"#utility.yul\":17007:17010   */\n      dup2\n        /* \"#utility.yul\":17000:17010   */\n      swap1\n      pop\n        /* \"#utility.yul\":16743:17016   */\n      swap3\n      swap2\n      pop\n      pop\n      jump\t// out\n        /* \"#utility.yul\":17022:17191   */\n    tag_445:\n        /* \"#utility.yul\":17106:17117   */\n      0x00\n        /* \"#utility.yul\":17140:17146   */\n      dup3\n        /* \"#utility.yul\":17135:17138   */\n      dup3\n        /* \"#utility.yul\":17128:17147   */\n      mstore\n        /* \"#utility.yul\":17180:17184   */\n      0x20\n        /* \"#utility.yul\":17175:17178   */\n      dup3\n        /* \"#utility.yul\":17171:17185   */\n      add\n        /* \"#utility.yul\":17156:17185   */\n      swap1\n      pop\n        /* \"#utility.yul\":17022:17191   */\n      swap3\n      swap2\n      pop\n      pop\n      jump\t// out\n        /* \"#utility.yul\":17197:17338   */\n    tag_446:\n        /* \"#utility.yul\":17246:17250   */\n      0x00\n        /* \"#utility.yul\":17269:17272   */\n      dup2\n        /* \"#utility.yul\":17261:17272   */\n      swap1\n      pop\n        /* \"#utility.yul\":17292:17295   */\n      dup2\n        /* \"#utility.yul\":17289:17290   */\n      0x00\n        /* \"#utility.yul\":17282:17296   */\n      mstore\n        /* \"#utility.yul\":17326:17330   */\n      0x20\n        /* \"#utility.yul\":17323:17324   */\n      0x00\n        /* \"#utility.yul\":17313:17331   */\n      keccak256\n        /* \"#utility.yul\":17305:17331   */\n      swap1\n      pop\n        /* \"#utility.yul\":17197:17338   */\n      swap2\n      swap1\n      pop\n      jump\t// out\n        /* \"#utility.yul\":17368:18199   */\n    tag_447:\n        /* \"#utility.yul\":17453:17456   */\n      0x00\n        /* \"#utility.yul\":17490:17495   */\n      dup2\n        /* \"#utility.yul\":17484:17496   */\n      sload\n        /* \"#utility.yul\":17519:17555   */\n      tag_618\n        /* \"#utility.yul\":17545:17554   */\n      dup2\n        /* \"#utility.yul\":17519:17555   */\n      tag_93\n      jump\t// in\n    tag_618:\n        /* \"#utility.yul\":17571:17642   */\n      tag_619\n        /* \"#utility.yul\":17635:17641   */\n      dup2\n        /* \"#utility.yul\":17630:17633   */\n      dup7\n        /* \"#utility.yul\":17571:17642   */\n      tag_445\n      jump\t// in\n    tag_619:\n        /* \"#utility.yul\":17564:17642   */\n      swap5\n      pop\n        /* \"#utility.yul\":17673:17674   */\n      0x01\n        /* \"#utility.yul\":17662:17671   */\n      dup3\n        /* \"#utility.yul\":17658:17675   */\n      and\n        /* \"#utility.yul\":17689:17690   */\n      0x00\n        /* \"#utility.yul\":17684:17848   */\n      dup2\n      eq\n      tag_621\n      jumpi\n        /* \"#utility.yul\":17862:17863   */\n      0x01\n        /* \"#utility.yul\":17857:18193   */\n      dup2\n      eq\n      tag_622\n      jumpi\n        /* \"#utility.yul\":17651:18193   */\n      jump(tag_620)\n        /* \"#utility.yul\":17684:17848   */\n    tag_621:\n        /* \"#utility.yul\":17768:17772   */\n      0xff\n        /* \"#utility.yul\":17764:17773   */\n      not\n        /* \"#utility.yul\":17753:17762   */\n      dup4\n        /* \"#utility.yul\":17749:17774   */\n      and\n        /* \"#utility.yul\":17744:17747   */\n      dup7\n        /* \"#utility.yul\":17737:17775   */\n      mstore\n        /* \"#utility.yul\":17828:17834   */\n      dup2\n        /* \"#utility.yul\":17821:17835   */\n      iszero\n        /* \"#utility.yul\":17814:17836   */\n      iszero\n        /* \"#utility.yul\":17808:17812   */\n      0x20\n        /* \"#utility.yul\":17804:17837   */\n      mul\n        /* \"#utility.yul\":17799:17802   */\n      dup7\n        /* \"#utility.yul\":17795:17838   */\n      add\n        /* \"#utility.yul\":17788:17838   */\n      swap4\n      pop\n        /* \"#utility.yul\":17684:17848   */\n      jump(tag_620)\n        /* \"#utility.yul\":17857:18193   */\n    tag_622:\n        /* \"#utility.yul\":17924:17962   */\n      tag_623\n        /* \"#utility.yul\":17956:17961   */\n      dup6\n        /* \"#utility.yul\":17924:17962   */\n      tag_446\n      jump\t// in\n    tag_623:\n        /* \"#utility.yul\":17984:17985   */\n      0x00\n        /* \"#utility.yul\":17998:18152   */\n    tag_624:\n        /* \"#utility.yul\":18012:18018   */\n      dup4\n        /* \"#utility.yul\":18009:18010   */\n      dup2\n        /* \"#utility.yul\":18006:18019   */\n      lt\n        /* \"#utility.yul\":17998:18152   */\n      iszero\n      tag_626\n      jumpi\n        /* \"#utility.yul\":18086:18093   */\n      dup2\n        /* \"#utility.yul\":18080:18094   */\n      sload\n        /* \"#utility.yul\":18076:18077   */\n      dup2\n        /* \"#utility.yul\":18071:18074   */\n      dup10\n        /* \"#utility.yul\":18067:18078   */\n      add\n        /* \"#utility.yul\":18060:18095   */\n      mstore\n        /* \"#utility.yul\":18136:18137   */\n      0x01\n        /* \"#utility.yul\":18127:18134   */\n      dup3\n        /* \"#utility.yul\":18123:18138   */\n      add\n        /* \"#utility.yul\":18112:18138   */\n      swap2\n      pop\n        /* \"#utility.yul\":18034:18038   */\n      0x20\n        /* \"#utility.yul\":18031:18032   */\n      dup2\n        /* \"#utility.yul\":18027:18039   */\n      add\n        /* \"#utility.yul\":18022:18039   */\n      swap1\n      pop\n        /* \"#utility.yul\":17998:18152   */\n      jump(tag_624)\n    tag_626:\n        /* \"#utility.yul\":18181:18182   */\n      dup1\n        /* \"#utility.yul\":18176:18179   */\n      dup9\n        /* \"#utility.yul\":18172:18183   */\n      add\n        /* \"#utility.yul\":18165:18183   */\n      swap6\n      pop\n        /* \"#utility.yul\":17864:18193   */\n      pop\n      pop\n        /* \"#utility.yul\":17651:18193   */\n    tag_620:\n      pop\n        /* \"#utility.yul\":17457:18199   */\n      pop\n      pop\n        /* \"#utility.yul\":17368:18199   */\n      swap3\n      swap2\n      pop\n      pop\n      jump\t// out\n        /* \"#utility.yul\":18205:18323   */\n    tag_448:\n        /* \"#utility.yul\":18292:18316   */\n      tag_628\n        /* \"#utility.yul\":18310:18315   */\n      dup2\n        /* \"#utility.yul\":18292:18316   */\n      tag_419\n      jump\t// in\n    tag_628:\n        /* \"#utility.yul\":18287:18290   */\n      dup3\n        /* \"#utility.yul\":18280:18317   */\n      mstore\n        /* \"#utility.yul\":18205:18323   */\n      pop\n      pop\n      jump\t// out\n        /* \"#utility.yul\":18329:19052   */\n    tag_81:\n        /* \"#utility.yul\":18540:18544   */\n      0x00\n        /* \"#utility.yul\":18578:18581   */\n      0x80\n        /* \"#utility.yul\":18567:18576   */\n      dup3\n        /* \"#utility.yul\":18563:18582   */\n      add\n        /* \"#utility.yul\":18555:18582   */\n      swap1\n      pop\n        /* \"#utility.yul\":18628:18637   */\n      dup2\n        /* \"#utility.yul\":18622:18626   */\n      dup2\n        /* \"#utility.yul\":18618:18638   */\n      sub\n        /* \"#utility.yul\":18614:18615   */\n      0x00\n        /* \"#utility.yul\":18603:18612   */\n      dup4\n        /* \"#utility.yul\":18599:18616   */\n      add\n        /* \"#utility.yul\":18592:18639   */\n      mstore\n        /* \"#utility.yul\":18656:18731   */\n      tag_630\n        /* \"#utility.yul\":18726:18730   */\n      dup2\n        /* \"#utility.yul\":18717:18723   */\n      dup8\n        /* \"#utility.yul\":18656:18731   */\n      tag_447\n      jump\t// in\n    tag_630:\n        /* \"#utility.yul\":18648:18731   */\n      swap1\n      pop\n        /* \"#utility.yul\":18741:18813   */\n      tag_631\n        /* \"#utility.yul\":18809:18811   */\n      0x20\n        /* \"#utility.yul\":18798:18807   */\n      dup4\n        /* \"#utility.yul\":18794:18812   */\n      add\n        /* \"#utility.yul\":18785:18791   */\n      dup7\n        /* \"#utility.yul\":18741:18813   */\n      tag_448\n      jump\t// in\n    tag_631:\n        /* \"#utility.yul\":18860:18869   */\n      dup2\n        /* \"#utility.yul\":18854:18858   */\n      dup2\n        /* \"#utility.yul\":18850:18870   */\n      sub\n        /* \"#utility.yul\":18845:18847   */\n      0x40\n        /* \"#utility.yul\":18834:18843   */\n      dup4\n        /* \"#utility.yul\":18830:18848   */\n      add\n        /* \"#utility.yul\":18823:18871   */\n      mstore\n        /* \"#utility.yul\":18888:18963   */\n      tag_632\n        /* \"#utility.yul\":18958:18962   */\n      dup2\n        /* \"#utility.yul\":18949:18955   */\n      dup6\n        /* \"#utility.yul\":18888:18963   */\n      tag_447\n      jump\t// in\n    tag_632:\n        /* \"#utility.yul\":18880:18963   */\n      swap1\n      pop\n        /* \"#utility.yul\":18973:19045   */\n      tag_633\n        /* \"#utility.yul\":19041:19043   */\n      0x60\n        /* \"#utility.yul\":19030:19039   */\n      dup4\n        /* \"#utility.yul\":19026:19044   */\n      add\n        /* \"#utility.yul\":19017:19023   */\n      dup5\n        /* \"#utility.yul\":18973:19045   */\n      tag_448\n      jump\t// in\n    tag_633:\n        /* \"#utility.yul\":18329:19052   */\n      swap6\n      swap5\n      pop\n      pop\n      pop\n      pop\n      pop\n      jump\t// out\n        /* \"#utility.yul\":19058:19134   */\n    tag_449:\n        /* \"#utility.yul\":19094:19101   */\n      0x00\n        /* \"#utility.yul\":19123:19128   */\n      dup2\n        /* \"#utility.yul\":19112:19128   */\n      swap1\n      pop\n        /* \"#utility.yul\":19058:19134   */\n      swap2\n      swap1\n      pop\n      jump\t// out\n        /* \"#utility.yul\":19140:19320   */\n    tag_450:\n        /* \"#utility.yul\":19188:19265   */\n      0x4e487b7100000000000000000000000000000000000000000000000000000000\n        /* \"#utility.yul\":19185:19186   */\n      0x00\n        /* \"#utility.yul\":19178:19266   */\n      mstore\n        /* \"#utility.yul\":19285:19289   */\n      0x11\n        /* \"#utility.yul\":19282:19283   */\n      0x04\n        /* \"#utility.yul\":19275:19290   */\n      mstore\n        /* \"#utility.yul\":19309:19313   */\n      0x24\n        /* \"#utility.yul\":19306:19307   */\n      0x00\n        /* \"#utility.yul\":19299:19314   */\n      revert\n        /* \"#utility.yul\":19326:19698   */\n    tag_86:\n        /* \"#utility.yul\":19365:19369   */\n      0x00\n        /* \"#utility.yul\":19385:19404   */\n      tag_637\n        /* \"#utility.yul\":19402:19403   */\n      dup3\n        /* \"#utility.yul\":19385:19404   */\n      tag_449\n      jump\t// in\n    tag_637:\n        /* \"#utility.yul\":19380:19404   */\n      swap2\n      pop\n        /* \"#utility.yul\":19418:19437   */\n      tag_638\n        /* \"#utility.yul\":19435:19436   */\n      dup4\n        /* \"#utility.yul\":19418:19437   */\n      tag_449\n      jump\t// in\n    tag_638:\n        /* \"#utility.yul\":19413:19437   */\n      swap3\n      pop\n        /* \"#utility.yul\":19461:19462   */\n      dup3\n        /* \"#utility.yul\":19458:19459   */\n      dup3\n        /* \"#utility.yul\":19454:19463   */\n      sub\n        /* \"#utility.yul\":19446:19463   */\n      swap1\n      pop\n        /* \"#utility.yul\":19655:19656   */\n      dup2\n        /* \"#utility.yul\":19649:19653   */\n      dup2\n        /* \"#utility.yul\":19645:19657   */\n      slt\n        /* \"#utility.yul\":19641:19642   */\n      0x00\n        /* \"#utility.yul\":19638:19639   */\n      dup5\n        /* \"#utility.yul\":19634:19643   */\n      slt\n        /* \"#utility.yul\":19630:19658   */\n      and\n        /* \"#utility.yul\":19613:19614   */\n      dup3\n        /* \"#utility.yul\":19607:19611   */\n      dup3\n        /* \"#utility.yul\":19603:19615   */\n      sgt\n        /* \"#utility.yul\":19598:19599   */\n      0x00\n        /* \"#utility.yul\":19595:19596   */\n      dup6\n        /* \"#utility.yul\":19591:19600   */\n      slt\n        /* \"#utility.yul\":19584:19601   */\n      iszero\n        /* \"#utility.yul\":19580:19616   */\n      and\n        /* \"#utility.yul\":19564:19668   */\n      or\n        /* \"#utility.yul\":19561:19691   */\n      iszero\n      tag_639\n      jumpi\n        /* \"#utility.yul\":19671:19689   */\n      tag_640\n      tag_450\n      jump\t// in\n    tag_640:\n        /* \"#utility.yul\":19561:19691   */\n    tag_639:\n        /* \"#utility.yul\":19326:19698   */\n      swap3\n      swap2\n      pop\n      pop\n      jump\t// out\n        /* \"#utility.yul\":19704:20260   */\n    tag_153:\n        /* \"#utility.yul\":19743:19750   */\n      0x00\n        /* \"#utility.yul\":19766:19785   */\n      tag_642\n        /* \"#utility.yul\":19783:19784   */\n      dup3\n        /* \"#utility.yul\":19766:19785   */\n      tag_449\n      jump\t// in\n    tag_642:\n        /* \"#utility.yul\":19761:19785   */\n      swap2\n      pop\n        /* \"#utility.yul\":19799:19818   */\n      tag_643\n        /* \"#utility.yul\":19816:19817   */\n      dup4\n        /* \"#utility.yul\":19799:19818   */\n      tag_449\n      jump\t// in\n    tag_643:\n        /* \"#utility.yul\":19794:19818   */\n      swap3\n      pop\n        /* \"#utility.yul\":19853:19854   */\n      dup3\n        /* \"#utility.yul\":19850:19851   */\n      dup3\n        /* \"#utility.yul\":19846:19855   */\n      mul\n        /* \"#utility.yul\":19875:19904   */\n      tag_644\n        /* \"#utility.yul\":19892:19903   */\n      dup2\n        /* \"#utility.yul\":19875:19904   */\n      tag_449\n      jump\t// in\n    tag_644:\n        /* \"#utility.yul\":19864:19904   */\n      swap2\n      pop\n        /* \"#utility.yul\":19962:20028   */\n      0x8000000000000000000000000000000000000000000000000000000000000000\n        /* \"#utility.yul\":19959:19960   */\n      dup5\n        /* \"#utility.yul\":19956:20029   */\n      eq\n        /* \"#utility.yul\":19952:19953   */\n      0x00\n        /* \"#utility.yul\":19949:19950   */\n      dup5\n        /* \"#utility.yul\":19945:19954   */\n      slt\n        /* \"#utility.yul\":19941:20030   */\n      and\n        /* \"#utility.yul\":19938:20053   */\n      iszero\n      tag_645\n      jumpi\n        /* \"#utility.yul\":20033:20051   */\n      tag_646\n      tag_450\n      jump\t// in\n    tag_646:\n        /* \"#utility.yul\":19938:20053   */\n    tag_645:\n        /* \"#utility.yul\":20203:20204   */\n      dup3\n        /* \"#utility.yul\":20194:20201   */\n      dup3\n        /* \"#utility.yul\":20189:20205   */\n      sdiv\n        /* \"#utility.yul\":20186:20187   */\n      dup5\n        /* \"#utility.yul\":20183:20206   */\n      eq\n        /* \"#utility.yul\":20163:20164   */\n      dup4\n        /* \"#utility.yul\":20156:20165   */\n      iszero\n        /* \"#utility.yul\":20136:20220   */\n      or\n        /* \"#utility.yul\":20113:20253   */\n      tag_647\n      jumpi\n        /* \"#utility.yul\":20233:20251   */\n      tag_648\n      tag_450\n      jump\t// in\n    tag_648:\n        /* \"#utility.yul\":20113:20253   */\n    tag_647:\n        /* \"#utility.yul\":19751:20260   */\n      pop\n        /* \"#utility.yul\":19704:20260   */\n      swap3\n      swap2\n      pop\n      pop\n      jump\t// out\n        /* \"#utility.yul\":20266:20414   */\n    tag_451:\n        /* \"#utility.yul\":20368:20379   */\n      0x00\n        /* \"#utility.yul\":20405:20408   */\n      dup2\n        /* \"#utility.yul\":20390:20408   */\n      swap1\n      pop\n        /* \"#utility.yul\":20266:20414   */\n      swap3\n      swap2\n      pop\n      pop\n      jump\t// out\n        /* \"#utility.yul\":20420:20810   */\n    tag_452:\n        /* \"#utility.yul\":20526:20529   */\n      0x00\n        /* \"#utility.yul\":20554:20593   */\n      tag_651\n        /* \"#utility.yul\":20587:20592   */\n      dup3\n        /* \"#utility.yul\":20554:20593   */\n      tag_425\n      jump\t// in\n    tag_651:\n        /* \"#utility.yul\":20609:20698   */\n      tag_652\n        /* \"#utility.yul\":20691:20697   */\n      dup2\n        /* \"#utility.yul\":20686:20689   */\n      dup6\n        /* \"#utility.yul\":20609:20698   */\n      tag_451\n      jump\t// in\n    tag_652:\n        /* \"#utility.yul\":20602:20698   */\n      swap4\n      pop\n        /* \"#utility.yul\":20707:20772   */\n      tag_653\n        /* \"#utility.yul\":20765:20771   */\n      dup2\n        /* \"#utility.yul\":20760:20763   */\n      dup6\n        /* \"#utility.yul\":20753:20757   */\n      0x20\n        /* \"#utility.yul\":20746:20751   */\n      dup7\n        /* \"#utility.yul\":20742:20758   */\n      add\n        /* \"#utility.yul\":20707:20772   */\n      tag_427\n      jump\t// in\n    tag_653:\n        /* \"#utility.yul\":20797:20803   */\n      dup1\n        /* \"#utility.yul\":20792:20795   */\n      dup5\n        /* \"#utility.yul\":20788:20804   */\n      add\n        /* \"#utility.yul\":20781:20804   */\n      swap2\n      pop\n        /* \"#utility.yul\":20530:20810   */\n      pop\n        /* \"#utility.yul\":20420:20810   */\n      swap3\n      swap2\n      pop\n      pop\n      jump\t// out\n        /* \"#utility.yul\":20816:21091   */\n    tag_279:\n        /* \"#utility.yul\":20948:20951   */\n      0x00\n        /* \"#utility.yul\":20970:21065   */\n      tag_655\n        /* \"#utility.yul\":21061:21064   */\n      dup3\n        /* \"#utility.yul\":21052:21058   */\n      dup5\n        /* \"#utility.yul\":20970:21065   */\n      tag_452\n      jump\t// in\n    tag_655:\n        /* \"#utility.yul\":20963:21065   */\n      swap2\n      pop\n        /* \"#utility.yul\":21082:21085   */\n      dup2\n        /* \"#utility.yul\":21075:21085   */\n      swap1\n      pop\n        /* \"#utility.yul\":20816:21091   */\n      swap3\n      swap2\n      pop\n      pop\n      jump\t// out\n        /* \"#utility.yul\":21097:21174   */\n    tag_453:\n        /* \"#utility.yul\":21134:21141   */\n      0x00\n        /* \"#utility.yul\":21163:21168   */\n      dup2\n        /* \"#utility.yul\":21152:21168   */\n      swap1\n      pop\n        /* \"#utility.yul\":21097:21174   */\n      swap2\n      swap1\n      pop\n      jump\t// out\n        /* \"#utility.yul\":21180:21259   */\n    tag_454:\n        /* \"#utility.yul\":21219:21226   */\n      0x00\n        /* \"#utility.yul\":21248:21253   */\n      dup2\n        /* \"#utility.yul\":21237:21253   */\n      swap1\n      pop\n        /* \"#utility.yul\":21180:21259   */\n      swap2\n      swap1\n      pop\n      jump\t// out\n        /* \"#utility.yul\":21265:21422   */\n    tag_455:\n        /* \"#utility.yul\":21370:21415   */\n      tag_659\n        /* \"#utility.yul\":21390:21414   */\n      tag_660\n        /* \"#utility.yul\":21408:21413   */\n      dup3\n        /* \"#utility.yul\":21390:21414   */\n      tag_453\n      jump\t// in\n    tag_660:\n        /* \"#utility.yul\":21370:21415   */\n      tag_454\n      jump\t// in\n    tag_659:\n        /* \"#utility.yul\":21365:21368   */\n      dup3\n        /* \"#utility.yul\":21358:21416   */\n      mstore\n        /* \"#utility.yul\":21265:21422   */\n      pop\n      pop\n      jump\t// out\n        /* \"#utility.yul\":21428:21684   */\n    tag_281:\n        /* \"#utility.yul\":21540:21543   */\n      0x00\n        /* \"#utility.yul\":21555:21630   */\n      tag_662\n        /* \"#utility.yul\":21626:21629   */\n      dup3\n        /* \"#utility.yul\":21617:21623   */\n      dup5\n        /* \"#utility.yul\":21555:21630   */\n      tag_455\n      jump\t// in\n    tag_662:\n        /* \"#utility.yul\":21655:21657   */\n      0x20\n        /* \"#utility.yul\":21650:21653   */\n      dup3\n        /* \"#utility.yul\":21646:21658   */\n      add\n        /* \"#utility.yul\":21639:21658   */\n      swap2\n      pop\n        /* \"#utility.yul\":21675:21678   */\n      dup2\n        /* \"#utility.yul\":21668:21678   */\n      swap1\n      pop\n        /* \"#utility.yul\":21428:21684   */\n      swap3\n      swap2\n      pop\n      pop\n      jump\t// out\n        /* \"#utility.yul\":21690:21859   */\n    tag_456:\n        /* \"#utility.yul\":21830:21851   */\n      0x496e636f72726563742070617373776f72642100000000000000000000000000\n        /* \"#utility.yul\":21826:21827   */\n      0x00\n        /* \"#utility.yul\":21818:21824   */\n      dup3\n        /* \"#utility.yul\":21814:21828   */\n      add\n        /* \"#utility.yul\":21807:21852   */\n      mstore\n        /* \"#utility.yul\":21690:21859   */\n      pop\n      jump\t// out\n        /* \"#utility.yul\":21865:22231   */\n    tag_457:\n        /* \"#utility.yul\":22007:22010   */\n      0x00\n        /* \"#utility.yul\":22028:22095   */\n      tag_665\n        /* \"#utility.yul\":22092:22094   */\n      0x13\n        /* \"#utility.yul\":22087:22090   */\n      dup4\n        /* \"#utility.yul\":22028:22095   */\n      tag_445\n      jump\t// in\n    tag_665:\n        /* \"#utility.yul\":22021:22095   */\n      swap2\n      pop\n        /* \"#utility.yul\":22104:22197   */\n      tag_666\n        /* \"#utility.yul\":22193:22196   */\n      dup3\n        /* \"#utility.yul\":22104:22197   */\n      tag_456\n      jump\t// in\n    tag_666:\n        /* \"#utility.yul\":22222:22224   */\n      0x20\n        /* \"#utility.yul\":22217:22220   */\n      dup3\n        /* \"#utility.yul\":22213:22225   */\n      add\n        /* \"#utility.yul\":22206:22225   */\n      swap1\n      pop\n        /* \"#utility.yul\":21865:22231   */\n      swap2\n      swap1\n      pop\n      jump\t// out\n        /* \"#utility.yul\":22237:22656   */\n    tag_284:\n        /* \"#utility.yul\":22403:22407   */\n      0x00\n        /* \"#utility.yul\":22441:22443   */\n      0x20\n        /* \"#utility.yul\":22430:22439   */\n      dup3\n        /* \"#utility.yul\":22426:22444   */\n      add\n        /* \"#utility.yul\":22418:22444   */\n      swap1\n      pop\n        /* \"#utility.yul\":22490:22499   */\n      dup2\n        /* \"#utility.yul\":22484:22488   */\n      dup2\n        /* \"#utility.yul\":22480:22500   */\n      sub\n        /* \"#utility.yul\":22476:22477   */\n      0x00\n        /* \"#utility.yul\":22465:22474   */\n      dup4\n        /* \"#utility.yul\":22461:22478   */\n      add\n        /* \"#utility.yul\":22454:22501   */\n      mstore\n        /* \"#utility.yul\":22518:22649   */\n      tag_668\n        /* \"#utility.yul\":22644:22648   */\n      dup2\n        /* \"#utility.yul\":22518:22649   */\n      tag_457\n      jump\t// in\n    tag_668:\n        /* \"#utility.yul\":22510:22649   */\n      swap1\n      pop\n        /* \"#utility.yul\":22237:22656   */\n      swap2\n      swap1\n      pop\n      jump\t// out\n        /* \"#utility.yul\":22662:22755   */\n    tag_458:\n        /* \"#utility.yul\":22699:22705   */\n      0x00\n        /* \"#utility.yul\":22746:22748   */\n      0x20\n        /* \"#utility.yul\":22741:22743   */\n      0x1f\n        /* \"#utility.yul\":22734:22739   */\n      dup4\n        /* \"#utility.yul\":22730:22744   */\n      add\n        /* \"#utility.yul\":22726:22749   */\n      div\n        /* \"#utility.yul\":22716:22749   */\n      swap1\n      pop\n        /* \"#utility.yul\":22662:22755   */\n      swap2\n      swap1\n      pop\n      jump\t// out\n        /* \"#utility.yul\":22761:22868   */\n    tag_459:\n        /* \"#utility.yul\":22805:22813   */\n      0x00\n        /* \"#utility.yul\":22855:22860   */\n      dup3\n        /* \"#utility.yul\":22849:22853   */\n      dup3\n        /* \"#utility.yul\":22845:22861   */\n      shl\n        /* \"#utility.yul\":22824:22861   */\n      swap1\n      pop\n        /* \"#utility.yul\":22761:22868   */\n      swap3\n      swap2\n      pop\n      pop\n      jump\t// out\n        /* \"#utility.yul\":22874:23267   */\n    tag_460:\n        /* \"#utility.yul\":22943:22949   */\n      0x00\n        /* \"#utility.yul\":22993:22994   */\n      0x08\n        /* \"#utility.yul\":22981:22991   */\n      dup4\n        /* \"#utility.yul\":22977:22995   */\n      mul\n        /* \"#utility.yul\":23016:23113   */\n      tag_672\n        /* \"#utility.yul\":23046:23112   */\n      0xffffffffffffffffffffffffffffffffffffffffffffffffffffffffffffffff\n        /* \"#utility.yul\":23035:23044   */\n      dup3\n        /* \"#utility.yul\":23016:23113   */\n      tag_459\n      jump\t// in\n    tag_672:\n        /* \"#utility.yul\":23134:23173   */\n      tag_673\n        /* \"#utility.yul\":23164:23172   */\n      dup7\n        /* \"#utility.yul\":23153:23162   */\n      dup4\n        /* \"#utility.yul\":23134:23173   */\n      tag_459\n      jump\t// in\n    tag_673:\n        /* \"#utility.yul\":23122:23173   */\n      swap6\n      pop\n        /* \"#utility.yul\":23206:23210   */\n      dup1\n        /* \"#utility.yul\":23202:23211   */\n      not\n        /* \"#utility.yul\":23195:23200   */\n      dup5\n        /* \"#utility.yul\":23191:23212   */\n      and\n        /* \"#utility.yul\":23182:23212   */\n      swap4\n      pop\n        /* \"#utility.yul\":23255:23259   */\n      dup1\n        /* \"#utility.yul\":23245:23253   */\n      dup7\n        /* \"#utility.yul\":23241:23260   */\n      and\n        /* \"#utility.yul\":23234:23239   */\n      dup5\n        /* \"#utility.yul\":23231:23261   */\n      or\n        /* \"#utility.yul\":23221:23261   */\n      swap3\n      pop\n        /* \"#utility.yul\":22950:23267   */\n      pop\n      pop\n        /* \"#utility.yul\":22874:23267   */\n      swap4\n      swap3\n      pop\n      pop\n      pop\n      jump\t// out\n        /* \"#utility.yul\":23273:23333   */\n    tag_461:\n        /* \"#utility.yul\":23301:23304   */\n      0x00\n        /* \"#utility.yul\":23322:23327   */\n      dup2\n        /* \"#utility.yul\":23315:23327   */\n      swap1\n      pop\n        /* \"#utility.yul\":23273:23333   */\n      swap2\n      swap1\n      pop\n      jump\t// out\n        /* \"#utility.yul\":23339:23481   */\n    tag_462:\n        /* \"#utility.yul\":23389:23398   */\n      0x00\n        /* \"#utility.yul\":23422:23475   */\n      tag_676\n        /* \"#utility.yul\":23440:23474   */\n      tag_677\n        /* \"#utility.yul\":23449:23473   */\n      tag_678\n        /* \"#utility.yul\":23467:23472   */\n      dup5\n        /* \"#utility.yul\":23449:23473   */\n      tag_419\n      jump\t// in\n    tag_678:\n        /* \"#utility.yul\":23440:23474   */\n      tag_461\n      jump\t// in\n    tag_677:\n        /* \"#utility.yul\":23422:23475   */\n      tag_419\n      jump\t// in\n    tag_676:\n        /* \"#utility.yul\":23409:23475   */\n      swap1\n      pop\n        /* \"#utility.yul\":23339:23481   */\n      swap2\n      swap1\n      pop\n      jump\t// out\n        /* \"#utility.yul\":23487:23562   */\n    tag_463:\n        /* \"#utility.yul\":23530:23533   */\n      0x00\n        /* \"#utility.yul\":23551:23556   */\n      dup2\n        /* \"#utility.yul\":23544:23556   */\n      swap1\n      pop\n        /* \"#utility.yul\":23487:23562   */\n      swap2\n      swap1\n      pop\n      jump\t// out\n        /* \"#utility.yul\":23568:23837   */\n    tag_464:\n        /* \"#utility.yul\":23678:23717   */\n      tag_681\n        /* \"#utility.yul\":23709:23716   */\n      dup4\n        /* \"#utility.yul\":23678:23717   */\n      tag_462\n      jump\t// in\n    tag_681:\n        /* \"#utility.yul\":23739:23830   */\n      tag_682\n        /* \"#utility.yul\":23788:23829   */\n      tag_683\n        /* \"#utility.yul\":23812:23828   */\n      dup3\n        /* \"#utility.yul\":23788:23829   */\n      tag_463\n      jump\t// in\n    tag_683:\n        /* \"#utility.yul\":23780:23786   */\n      dup5\n        /* \"#utility.yul\":23773:23777   */\n      dup5\n        /* \"#utility.yul\":23767:23778   */\n      sload\n        /* \"#utility.yul\":23739:23830   */\n      tag_460\n      jump\t// in\n    tag_682:\n        /* \"#utility.yul\":23733:23737   */\n      dup3\n        /* \"#utility.yul\":23726:23831   */\n      sstore\n        /* \"#utility.yul\":23644:23837   */\n      pop\n        /* \"#utility.yul\":23568:23837   */\n      pop\n      pop\n      pop\n      jump\t// out\n        /* \"#utility.yul\":23843:23916   */\n    tag_465:\n        /* \"#utility.yul\":23888:23891   */\n      0x00\n        /* \"#utility.yul\":23843:23916   */\n      swap1\n      jump\t// out\n        /* \"#utility.yul\":23922:24111   */\n    tag_466:\n        /* \"#utility.yul\":23999:24031   */\n      tag_686\n      tag_465\n      jump\t// in\n    tag_686:\n        /* \"#utility.yul\":24040:24105   */\n      tag_687\n        /* \"#utility.yul\":24098:24104   */\n      dup2\n        /* \"#utility.yul\":24090:24096   */\n      dup5\n        /* \"#utility.yul\":24084:24088   */\n      dup5\n        /* \"#utility.yul\":24040:24105   */\n      tag_464\n      jump\t// in\n    tag_687:\n        /* \"#utility.yul\":23975:24111   */\n      pop\n        /* \"#utility.yul\":23922:24111   */\n      pop\n      pop\n      jump\t// out\n        /* \"#utility.yul\":24117:24303   */\n    tag_467:\n        /* \"#utility.yul\":24177:24297   */\n    tag_689:\n        /* \"#utility.yul\":24194:24197   */\n      dup2\n        /* \"#utility.yul\":24187:24192   */\n      dup2\n        /* \"#utility.yul\":24184:24198   */\n      lt\n        /* \"#utility.yul\":24177:24297   */\n      iszero\n      tag_691\n      jumpi\n        /* \"#utility.yul\":24248:24287   */\n      tag_692\n        /* \"#utility.yul\":24285:24286   */\n      0x00\n        /* \"#utility.yul\":24278:24283   */\n      dup3\n        /* \"#utility.yul\":24248:24287   */\n      tag_466\n      jump\t// in\n    tag_692:\n        /* \"#utility.yul\":24221:24222   */\n      0x01\n        /* \"#utility.yul\":24214:24219   */\n      dup2\n        /* \"#utility.yul\":24210:24223   */\n      add\n        /* \"#utility.yul\":24201:24223   */\n      swap1\n      pop\n        /* \"#utility.yul\":24177:24297   */\n      jump(tag_689)\n    tag_691:\n        /* \"#utility.yul\":24117:24303   */\n      pop\n      pop\n      jump\t// out\n        /* \"#utility.yul\":24309:24852   */\n    tag_468:\n        /* \"#utility.yul\":24410:24412   */\n      0x1f\n        /* \"#utility.yul\":24405:24408   */\n      dup3\n        /* \"#utility.yul\":24402:24413   */\n      gt\n        /* \"#utility.yul\":24399:24845   */\n      iszero\n      tag_694\n      jumpi\n        /* \"#utility.yul\":24444:24482   */\n      tag_695\n        /* \"#utility.yul\":24476:24481   */\n      dup2\n        /* \"#utility.yul\":24444:24482   */\n      tag_446\n      jump\t// in\n    tag_695:\n        /* \"#utility.yul\":24528:24557   */\n      tag_696\n        /* \"#utility.yul\":24546:24556   */\n      dup5\n        /* \"#utility.yul\":24528:24557   */\n      tag_458\n      jump\t// in\n    tag_696:\n        /* \"#utility.yul\":24518:24526   */\n      dup2\n        /* \"#utility.yul\":24514:24558   */\n      add\n        /* \"#utility.yul\":24711:24713   */\n      0x20\n        /* \"#utility.yul\":24699:24709   */\n      dup6\n        /* \"#utility.yul\":24696:24714   */\n      lt\n        /* \"#utility.yul\":24693:24742   */\n      iszero\n      tag_697\n      jumpi\n        /* \"#utility.yul\":24732:24740   */\n      dup2\n        /* \"#utility.yul\":24717:24740   */\n      swap1\n      pop\n        /* \"#utility.yul\":24693:24742   */\n    tag_697:\n        /* \"#utility.yul\":24755:24835   */\n      tag_698\n        /* \"#utility.yul\":24811:24833   */\n      tag_699\n        /* \"#utility.yul\":24829:24832   */\n      dup6\n        /* \"#utility.yul\":24811:24833   */\n      tag_458\n      jump\t// in\n    tag_699:\n        /* \"#utility.yul\":24801:24809   */\n      dup4\n        /* \"#utility.yul\":24797:24834   */\n      add\n        /* \"#utility.yul\":24784:24795   */\n      dup3\n        /* \"#utility.yul\":24755:24835   */\n      tag_467\n      jump\t// in\n    tag_698:\n        /* \"#utility.yul\":24414:24845   */\n      pop\n      pop\n        /* \"#utility.yul\":24399:24845   */\n    tag_694:\n        /* \"#utility.yul\":24309:24852   */\n      pop\n      pop\n      pop\n      jump\t// out\n        /* \"#utility.yul\":24858:24975   */\n    tag_469:\n        /* \"#utility.yul\":24912:24920   */\n      0x00\n        /* \"#utility.yul\":24962:24967   */\n      dup3\n        /* \"#utility.yul\":24956:24960   */\n      dup3\n        /* \"#utility.yul\":24952:24968   */\n      shr\n        /* \"#utility.yul\":24931:24968   */\n      swap1\n      pop\n        /* \"#utility.yul\":24858:24975   */\n      swap3\n      swap2\n      pop\n      pop\n      jump\t// out\n        /* \"#utility.yul\":24981:25150   */\n    tag_470:\n        /* \"#utility.yul\":25025:25031   */\n      0x00\n        /* \"#utility.yul\":25058:25109   */\n      tag_702\n        /* \"#utility.yul\":25106:25107   */\n      0x00\n        /* \"#utility.yul\":25102:25108   */\n      not\n        /* \"#utility.yul\":25094:25099   */\n      dup5\n        /* \"#utility.yul\":25091:25092   */\n      0x08\n        /* \"#utility.yul\":25087:25100   */\n      mul\n        /* \"#utility.yul\":25058:25109   */\n      tag_469\n      jump\t// in\n    tag_702:\n        /* \"#utility.yul\":25054:25110   */\n      not\n        /* \"#utility.yul\":25139:25143   */\n      dup1\n        /* \"#utility.yul\":25133:25137   */\n      dup4\n        /* \"#utility.yul\":25129:25144   */\n      and\n        /* \"#utility.yul\":25119:25144   */\n      swap2\n      pop\n        /* \"#utility.yul\":25032:25150   */\n      pop\n        /* \"#utility.yul\":24981:25150   */\n      swap3\n      swap2\n      pop\n      pop\n      jump\t// out\n        /* \"#utility.yul\":25155:25450   */\n    tag_471:\n        /* \"#utility.yul\":25231:25235   */\n      0x00\n        /* \"#utility.yul\":25377:25406   */\n      tag_704\n        /* \"#utility.yul\":25402:25405   */\n      dup4\n        /* \"#utility.yul\":25396:25400   */\n      dup4\n        /* \"#utility.yul\":25377:25406   */\n      tag_470\n      jump\t// in\n    tag_704:\n        /* \"#utility.yul\":25369:25406   */\n      swap2\n      pop\n        /* \"#utility.yul\":25439:25442   */\n      dup3\n        /* \"#utility.yul\":25436:25437   */\n      0x02\n        /* \"#utility.yul\":25432:25443   */\n      mul\n        /* \"#utility.yul\":25426:25430   */\n      dup3\n        /* \"#utility.yul\":25423:25444   */\n      or\n        /* \"#utility.yul\":25415:25444   */\n      swap1\n      pop\n        /* \"#utility.yul\":25155:25450   */\n      swap3\n      swap2\n      pop\n      pop\n      jump\t// out\n        /* \"#utility.yul\":25455:26850   */\n    tag_345:\n        /* \"#utility.yul\":25572:25609   */\n      tag_706\n        /* \"#utility.yul\":25605:25608   */\n      dup3\n        /* \"#utility.yul\":25572:25609   */\n      tag_425\n      jump\t// in\n    tag_706:\n        /* \"#utility.yul\":25674:25692   */\n      0xffffffffffffffff\n        /* \"#utility.yul\":25666:25672   */\n      dup2\n        /* \"#utility.yul\":25663:25693   */\n      gt\n        /* \"#utility.yul\":25660:25716   */\n      iszero\n      tag_707\n      jumpi\n        /* \"#utility.yul\":25696:25714   */\n      tag_708\n      tag_412\n      jump\t// in\n    tag_708:\n        /* \"#utility.yul\":25660:25716   */\n    tag_707:\n        /* \"#utility.yul\":25740:25778   */\n      tag_709\n        /* \"#utility.yul\":25772:25776   */\n      dup3\n        /* \"#utility.yul\":25766:25777   */\n      sload\n        /* \"#utility.yul\":25740:25778   */\n      tag_93\n      jump\t// in\n    tag_709:\n        /* \"#utility.yul\":25825:25892   */\n      tag_710\n        /* \"#utility.yul\":25885:25891   */\n      dup3\n        /* \"#utility.yul\":25877:25883   */\n      dup3\n        /* \"#utility.yul\":25871:25875   */\n      dup6\n        /* \"#utility.yul\":25825:25892   */\n      tag_468\n      jump\t// in\n    tag_710:\n        /* \"#utility.yul\":25919:25920   */\n      0x00\n        /* \"#utility.yul\":25943:25947   */\n      0x20\n        /* \"#utility.yul\":25930:25947   */\n      swap1\n      pop\n        /* \"#utility.yul\":25975:25977   */\n      0x1f\n        /* \"#utility.yul\":25967:25973   */\n      dup4\n        /* \"#utility.yul\":25964:25978   */\n      gt\n        /* \"#utility.yul\":25992:25993   */\n      0x01\n        /* \"#utility.yul\":25987:26605   */\n      dup2\n      eq\n      tag_712\n      jumpi\n        /* \"#utility.yul\":26649:26650   */\n      0x00\n        /* \"#utility.yul\":26666:26672   */\n      dup5\n        /* \"#utility.yul\":26663:26740   */\n      iszero\n      tag_713\n      jumpi\n        /* \"#utility.yul\":26715:26724   */\n      dup3\n        /* \"#utility.yul\":26710:26713   */\n      dup8\n        /* \"#utility.yul\":26706:26725   */\n      add\n        /* \"#utility.yul\":26700:26726   */\n      mload\n        /* \"#utility.yul\":26691:26726   */\n      swap1\n      pop\n        /* \"#utility.yul\":26663:26740   */\n    tag_713:\n        /* \"#utility.yul\":26766:26833   */\n      tag_714\n        /* \"#utility.yul\":26826:26832   */\n      dup6\n        /* \"#utility.yul\":26819:26824   */\n      dup3\n        /* \"#utility.yul\":26766:26833   */\n      tag_471\n      jump\t// in\n    tag_714:\n        /* \"#utility.yul\":26760:26764   */\n      dup7\n        /* \"#utility.yul\":26753:26834   */\n      sstore\n        /* \"#utility.yul\":26622:26844   */\n      pop\n        /* \"#utility.yul\":25957:26844   */\n      jump(tag_711)\n        /* \"#utility.yul\":25987:26605   */\n    tag_712:\n        /* \"#utility.yul\":26039:26043   */\n      0x1f\n        /* \"#utility.yul\":26035:26044   */\n      not\n        /* \"#utility.yul\":26027:26033   */\n      dup5\n        /* \"#utility.yul\":26023:26045   */\n      and\n        /* \"#utility.yul\":26073:26110   */\n      tag_715\n        /* \"#utility.yul\":26105:26109   */\n      dup7\n        /* \"#utility.yul\":26073:26110   */\n      tag_446\n      jump\t// in\n    tag_715:\n        /* \"#utility.yul\":26132:26133   */\n      0x00\n        /* \"#utility.yul\":26146:26354   */\n    tag_716:\n        /* \"#utility.yul\":26160:26167   */\n      dup3\n        /* \"#utility.yul\":26157:26158   */\n      dup2\n        /* \"#utility.yul\":26154:26168   */\n      lt\n        /* \"#utility.yul\":26146:26354   */\n      iszero\n      tag_718\n      jumpi\n        /* \"#utility.yul\":26239:26248   */\n      dup5\n        /* \"#utility.yul\":26234:26237   */\n      dup10\n        /* \"#utility.yul\":26230:26249   */\n      add\n        /* \"#utility.yul\":26224:26250   */\n      mload\n        /* \"#utility.yul\":26216:26222   */\n      dup3\n        /* \"#utility.yul\":26209:26251   */\n      sstore\n        /* \"#utility.yul\":26290:26291   */\n      0x01\n        /* \"#utility.yul\":26282:26288   */\n      dup3\n        /* \"#utility.yul\":26278:26292   */\n      add\n        /* \"#utility.yul\":26268:26292   */\n      swap2\n      pop\n        /* \"#utility.yul\":26337:26339   */\n      0x20\n        /* \"#utility.yul\":26326:26335   */\n      dup6\n        /* \"#utility.yul\":26322:26340   */\n      add\n        /* \"#utility.yul\":26309:26340   */\n      swap5\n      pop\n        /* \"#utility.yul\":26183:26187   */\n      0x20\n        /* \"#utility.yul\":26180:26181   */\n      dup2\n        /* \"#utility.yul\":26176:26188   */\n      add\n        /* \"#utility.yul\":26171:26188   */\n      swap1\n      pop\n        /* \"#utility.yul\":26146:26354   */\n      jump(tag_716)\n    tag_718:\n        /* \"#utility.yul\":26382:26388   */\n      dup7\n        /* \"#utility.yul\":26373:26380   */\n      dup4\n        /* \"#utility.yul\":26370:26389   */\n      lt\n        /* \"#utility.yul\":26367:26546   */\n      iszero\n      tag_719\n      jumpi\n        /* \"#utility.yul\":26440:26449   */\n      dup5\n        /* \"#utility.yul\":26435:26438   */\n      dup10\n        /* \"#utility.yul\":26431:26450   */\n      add\n        /* \"#utility.yul\":26425:26451   */\n      mload\n        /* \"#utility.yul\":26483:26531   */\n      tag_720\n        /* \"#utility.yul\":26525:26529   */\n      0x1f\n        /* \"#utility.yul\":26517:26523   */\n      dup10\n        /* \"#utility.yul\":26513:26530   */\n      and\n        /* \"#utility.yul\":26502:26511   */\n      dup3\n        /* \"#utility.yul\":26483:26531   */\n      tag_470\n      jump\t// in\n    tag_720:\n        /* \"#utility.yul\":26475:26481   */\n      dup4\n        /* \"#utility.yul\":26468:26532   */\n      sstore\n        /* \"#utility.yul\":26390:26546   */\n      pop\n        /* \"#utility.yul\":26367:26546   */\n    tag_719:\n        /* \"#utility.yul\":26592:26593   */\n      0x01\n        /* \"#utility.yul\":26588:26589   */\n      0x02\n        /* \"#utility.yul\":26580:26586   */\n      dup9\n        /* \"#utility.yul\":26576:26590   */\n      mul\n        /* \"#utility.yul\":26572:26594   */\n      add\n        /* \"#utility.yul\":26566:26570   */\n      dup9\n        /* \"#utility.yul\":26559:26595   */\n      sstore\n        /* \"#utility.yul\":25994:26605   */\n      pop\n      pop\n      pop\n        /* \"#utility.yul\":25957:26844   */\n    tag_711:\n      pop\n        /* \"#utility.yul\":25547:26850   */\n      pop\n      pop\n      pop\n        /* \"#utility.yul\":25455:26850   */\n      pop\n      pop\n      jump\t// out\n        /* \"#utility.yul\":26856:27050   */\n    tag_372:\n        /* \"#utility.yul\":26896:26900   */\n      0x00\n        /* \"#utility.yul\":26916:26936   */\n      tag_722\n        /* \"#utility.yul\":26934:26935   */\n      dup3\n        /* \"#utility.yul\":26916:26936   */\n      tag_419\n      jump\t// in\n    tag_722:\n        /* \"#utility.yul\":26911:26936   */\n      swap2\n      pop\n        /* \"#utility.yul\":26950:26970   */\n      tag_723\n        /* \"#utility.yul\":26968:26969   */\n      dup4\n        /* \"#utility.yul\":26950:26970   */\n      tag_419\n      jump\t// in\n    tag_723:\n        /* \"#utility.yul\":26945:26970   */\n      swap3\n      pop\n        /* \"#utility.yul\":26994:26995   */\n      dup3\n        /* \"#utility.yul\":26991:26992   */\n      dup3\n        /* \"#utility.yul\":26987:26996   */\n      sub\n        /* \"#utility.yul\":26979:26996   */\n      swap1\n      pop\n        /* \"#utility.yul\":27018:27019   */\n      dup2\n        /* \"#utility.yul\":27012:27016   */\n      dup2\n        /* \"#utility.yul\":27009:27020   */\n      gt\n        /* \"#utility.yul\":27006:27043   */\n      iszero\n      tag_724\n      jumpi\n        /* \"#utility.yul\":27023:27041   */\n      tag_725\n      tag_450\n      jump\t// in\n    tag_725:\n        /* \"#utility.yul\":27006:27043   */\n    tag_724:\n        /* \"#utility.yul\":26856:27050   */\n      swap3\n      swap2\n      pop\n      pop\n      jump\t// out\n        /* \"#utility.yul\":27056:27205   */\n    tag_472:\n        /* \"#utility.yul\":27105:27111   */\n      0x00\n        /* \"#utility.yul\":27139:27144   */\n      dup2\n        /* \"#utility.yul\":27133:27145   */\n      sload\n        /* \"#utility.yul\":27123:27145   */\n      swap1\n      pop\n        /* \"#utility.yul\":27165:27198   */\n      tag_727\n        /* \"#utility.yul\":27191:27197   */\n      dup2\n        /* \"#utility.yul\":27165:27198   */\n      tag_93\n      jump\t// in\n    tag_727:\n        /* \"#utility.yul\":27155:27198   */\n      swap1\n      pop\n        /* \"#utility.yul\":27056:27205   */\n      swap2\n      swap1\n      pop\n      jump\t// out\n        /* \"#utility.yul\":27211:28662   */\n    tag_380:\n        /* \"#utility.yul\":27322:27325   */\n      dup2\n        /* \"#utility.yul\":27316:27320   */\n      dup2\n        /* \"#utility.yul\":27313:27326   */\n      sub\n        /* \"#utility.yul\":27310:27336   */\n      tag_729\n      jumpi\n        /* \"#utility.yul\":27329:27334   */\n      pop\n      pop\n      jump(tag_728)\n        /* \"#utility.yul\":27310:27336   */\n    tag_729:\n        /* \"#utility.yul\":27360:27394   */\n      tag_730\n        /* \"#utility.yul\":27390:27393   */\n      dup3\n        /* \"#utility.yul\":27360:27394   */\n      tag_472\n      jump\t// in\n    tag_730:\n        /* \"#utility.yul\":27459:27477   */\n      0xffffffffffffffff\n        /* \"#utility.yul\":27451:27457   */\n      dup2\n        /* \"#utility.yul\":27448:27478   */\n      gt\n        /* \"#utility.yul\":27445:27501   */\n      iszero\n      tag_731\n      jumpi\n        /* \"#utility.yul\":27481:27499   */\n      tag_732\n      tag_412\n      jump\t// in\n    tag_732:\n        /* \"#utility.yul\":27445:27501   */\n    tag_731:\n        /* \"#utility.yul\":27525:27563   */\n      tag_733\n        /* \"#utility.yul\":27557:27561   */\n      dup3\n        /* \"#utility.yul\":27551:27562   */\n      sload\n        /* \"#utility.yul\":27525:27563   */\n      tag_93\n      jump\t// in\n    tag_733:\n        /* \"#utility.yul\":27610:27677   */\n      tag_734\n        /* \"#utility.yul\":27670:27676   */\n      dup3\n        /* \"#utility.yul\":27662:27668   */\n      dup3\n        /* \"#utility.yul\":27656:27660   */\n      dup6\n        /* \"#utility.yul\":27610:27677   */\n      tag_468\n      jump\t// in\n    tag_734:\n        /* \"#utility.yul\":27704:27705   */\n      0x00\n        /* \"#utility.yul\":27733:27735   */\n      0x1f\n        /* \"#utility.yul\":27725:27731   */\n      dup4\n        /* \"#utility.yul\":27722:27736   */\n      gt\n        /* \"#utility.yul\":27750:27751   */\n      0x01\n        /* \"#utility.yul\":27745:28417   */\n      dup2\n      eq\n      tag_736\n      jumpi\n        /* \"#utility.yul\":28461:28462   */\n      0x00\n        /* \"#utility.yul\":28478:28484   */\n      dup5\n        /* \"#utility.yul\":28475:28552   */\n      iszero\n      tag_737\n      jumpi\n        /* \"#utility.yul\":28527:28536   */\n      dup3\n        /* \"#utility.yul\":28522:28525   */\n      dup8\n        /* \"#utility.yul\":28518:28537   */\n      add\n        /* \"#utility.yul\":28512:28538   */\n      sload\n        /* \"#utility.yul\":28503:28538   */\n      swap1\n      pop\n        /* \"#utility.yul\":28475:28552   */\n    tag_737:\n        /* \"#utility.yul\":28578:28645   */\n      tag_738\n        /* \"#utility.yul\":28638:28644   */\n      dup6\n        /* \"#utility.yul\":28631:28636   */\n      dup3\n        /* \"#utility.yul\":28578:28645   */\n      tag_471\n      jump\t// in\n    tag_738:\n        /* \"#utility.yul\":28572:28576   */\n      dup7\n        /* \"#utility.yul\":28565:28646   */\n      sstore\n        /* \"#utility.yul\":28434:28656   */\n      pop\n        /* \"#utility.yul\":27715:28656   */\n      jump(tag_735)\n        /* \"#utility.yul\":27745:28417   */\n    tag_736:\n        /* \"#utility.yul\":27797:27801   */\n      0x1f\n        /* \"#utility.yul\":27793:27802   */\n      not\n        /* \"#utility.yul\":27785:27791   */\n      dup5\n        /* \"#utility.yul\":27781:27803   */\n      and\n        /* \"#utility.yul\":27823:27859   */\n      tag_739\n        /* \"#utility.yul\":27855:27858   */\n      dup8\n        /* \"#utility.yul\":27823:27859   */\n      tag_446\n      jump\t// in\n    tag_739:\n        /* \"#utility.yul\":27816:27859   */\n      swap7\n      pop\n        /* \"#utility.yul\":27886:27923   */\n      tag_740\n        /* \"#utility.yul\":27918:27922   */\n      dup7\n        /* \"#utility.yul\":27886:27923   */\n      tag_446\n      jump\t// in\n    tag_740:\n        /* \"#utility.yul\":27945:27946   */\n      0x00\n        /* \"#utility.yul\":27959:28166   */\n    tag_741:\n        /* \"#utility.yul\":27973:27980   */\n      dup3\n        /* \"#utility.yul\":27970:27971   */\n      dup2\n        /* \"#utility.yul\":27967:27981   */\n      lt\n        /* \"#utility.yul\":27959:28166   */\n      iszero\n      tag_743\n      jumpi\n        /* \"#utility.yul\":28052:28061   */\n      dup5\n        /* \"#utility.yul\":28047:28050   */\n      dup10\n        /* \"#utility.yul\":28043:28062   */\n      add\n        /* \"#utility.yul\":28037:28063   */\n      sload\n        /* \"#utility.yul\":28029:28035   */\n      dup3\n        /* \"#utility.yul\":28022:28064   */\n      sstore\n        /* \"#utility.yul\":28103:28104   */\n      0x01\n        /* \"#utility.yul\":28095:28101   */\n      dup3\n        /* \"#utility.yul\":28091:28105   */\n      add\n        /* \"#utility.yul\":28081:28105   */\n      swap2\n      pop\n        /* \"#utility.yul\":28150:28151   */\n      0x01\n        /* \"#utility.yul\":28139:28148   */\n      dup6\n        /* \"#utility.yul\":28135:28152   */\n      add\n        /* \"#utility.yul\":28122:28152   */\n      swap5\n      pop\n        /* \"#utility.yul\":27996:28000   */\n      0x20\n        /* \"#utility.yul\":27993:27994   */\n      dup2\n        /* \"#utility.yul\":27989:28001   */\n      add\n        /* \"#utility.yul\":27984:28001   */\n      swap1\n      pop\n        /* \"#utility.yul\":27959:28166   */\n      jump(tag_741)\n    tag_743:\n        /* \"#utility.yul\":28194:28200   */\n      dup7\n        /* \"#utility.yul\":28185:28192   */\n      dup4\n        /* \"#utility.yul\":28182:28201   */\n      lt\n        /* \"#utility.yul\":28179:28358   */\n      iszero\n      tag_744\n      jumpi\n        /* \"#utility.yul\":28252:28261   */\n      dup5\n        /* \"#utility.yul\":28247:28250   */\n      dup10\n        /* \"#utility.yul\":28243:28262   */\n      add\n        /* \"#utility.yul\":28237:28263   */\n      sload\n        /* \"#utility.yul\":28295:28343   */\n      tag_745\n        /* \"#utility.yul\":28337:28341   */\n      0x1f\n        /* \"#utility.yul\":28329:28335   */\n      dup10\n        /* \"#utility.yul\":28325:28342   */\n      and\n        /* \"#utility.yul\":28314:28323   */\n      dup3\n        /* \"#utility.yul\":28295:28343   */\n      tag_470\n      jump\t// in\n    tag_745:\n        /* \"#utility.yul\":28287:28293   */\n      dup4\n        /* \"#utility.yul\":28280:28344   */\n      sstore\n        /* \"#utility.yul\":28202:28358   */\n      pop\n        /* \"#utility.yul\":28179:28358   */\n    tag_744:\n        /* \"#utility.yul\":28404:28405   */\n      0x01\n        /* \"#utility.yul\":28400:28401   */\n      0x02\n        /* \"#utility.yul\":28392:28398   */\n      dup9\n        /* \"#utility.yul\":28388:28402   */\n      mul\n        /* \"#utility.yul\":28384:28406   */\n      add\n        /* \"#utility.yul\":28378:28382   */\n      dup9\n        /* \"#utility.yul\":28371:28407   */\n      sstore\n        /* \"#utility.yul\":27752:28417   */\n      pop\n      pop\n      pop\n        /* \"#utility.yul\":27715:28656   */\n    tag_735:\n      pop\n        /* \"#utility.yul\":27300:28662   */\n      pop\n      pop\n      pop\n        /* \"#utility.yul\":27211:28662   */\n      pop\n      pop\n    tag_728:\n      jump\t// out\n        /* \"#utility.yul\":28668:28848   */\n    tag_390:\n        /* \"#utility.yul\":28716:28793   */\n      0x4e487b7100000000000000000000000000000000000000000000000000000000\n        /* \"#utility.yul\":28713:28714   */\n      0x00\n        /* \"#utility.yul\":28706:28794   */\n      mstore\n        /* \"#utility.yul\":28813:28817   */\n      0x31\n        /* \"#utility.yul\":28810:28811   */\n      0x04\n        /* \"#utility.yul\":28803:28818   */\n      mstore\n        /* \"#utility.yul\":28837:28841   */\n      0x24\n        /* \"#utility.yul\":28834:28835   */\n      0x00\n        /* \"#utility.yul\":28827:28842   */\n      revert\n\n    auxdata: 0xa26469706673582212208872068e68a7427fdcc7e2c06171544d080317115dca21ed86e321b3bb7eef2164736f6c634300081a0033\n}\n",
				"bytecode": {
					"linkReferences": {},
					"object": "6080604052604051806101400160405280604051806101400160405280600160ff168152602001600160ff1681526020015f60ff1681526020015f60ff1681526020015f60ff1681526020015f60ff168152602001600160ff168152602001600160ff1681526020015f60ff1681526020015f60ff1681525081526020016040518061014001604052805f60ff168152602001600160ff1681526020015f60ff1681526020015f60ff1681526020015f60ff1681526020015f60ff1681526020015f60ff168152602001600160ff1681526020015f60ff1681526020015f60ff1681525081526020016040518061014001604052805f60ff1681526020015f60ff168152602001600160ff168152602001600160ff1681526020015f60ff1681526020015f60ff168152602001600160ff168152602001600160ff1681526020015f60ff1681526020015f60ff1681525081526020016040518061014001604052805f60ff1681526020015f60ff1681526020015f60ff168152602001600160ff1681526020015f60ff1681526020015f60ff1681526020015f60ff168152602001600160ff1681526020015f60ff1681526020015f60ff168152508152602001604051806101400160405280600160ff168152602001600160ff168152602001600160ff168152602001600160ff168152602001600160ff168152602001600160ff168152602001600160ff168152602001600160ff1681526020015f60ff1681526020015f60ff1681525081526020016040518061014001604052805f60ff168152602001600160ff1681526020015f60ff168152602001600160ff1681526020015f60ff168152602001600160ff1681526020015f60ff168152602001600160ff1681526020015f60ff1681526020015f60ff1681525081526020016040518061014001604052805f60ff1681526020015f60ff1681526020015f60ff1681526020015f60ff1681526020015f60ff1681526020015f60ff168152602001600160ff168152602001600160ff1681526020015f60ff1681526020015f60ff1681525081526020016040518061014001604052805f60ff1681526020015f60ff1681526020015f60ff1681526020015f60ff1681526020015f60ff1681526020015f60ff1681526020015f60ff168152602001600160ff1681526020015f60ff1681526020015f60ff1681525081526020016040518061014001604052805f60ff1681526020015f60ff1681526020015f60ff1681526020015f60ff1681526020015f60ff1681526020015f60ff1681526020015f60ff1681526020015f60ff168152602001600160ff1681526020015f60ff1681525081526020016040518061014001604052805f60ff1681526020015f60ff1681526020015f60ff1681526020015f60ff1681526020015f60ff1681526020015f60ff1681526020015f60ff1681526020015f60ff1681526020015f60ff168152602001600160ff16815250815250600690600a61045592919061059c565b50348015610461575f80fd5b506040516131fe3803806131fe833981810160405281019061048391906107cf565b8260405160200161049491906108b7565b604051602081830303815290604052805190602001205f819055505f546040516020016104c191906108f6565b604051602081830303815290604052805190602001205f81905550816040516020016104ed91906108b7565b6040516020818303038152906040528051906020012060018190555060015460405160200161051c91906108f6565b604051602081830303815290604052805190602001206001819055508060405160200161054991906108b7565b6040516020818303038152906040528051906020012060028190555060025460405160200161057891906108f6565b60405160208183030381529060405280519060200120600281905550505050610910565b82600a800281019282156105db579160200282015b828111156105da5782518290600a6105ca9291906105ec565b50916020019190600a01906105b1565b5b5090506105e89190610631565b5090565b82600a8101928215610620579160200282015b8281111561061f578251829060ff169055916020019190600101906105ff565b5b50905061062d9190610654565b5090565b5b80821115610650575f8181610647919061066f565b50600a01610632565b5090565b5b8082111561066b575f815f905550600101610655565b5090565b5080600a019061067f9190610654565b50565b5f604051905090565b5f80fd5b5f80fd5b5f80fd5b5f80fd5b5f601f19601f8301169050919050565b7f4e487b71000000000000000000000000000000000000000000000000000000005f52604160045260245ffd5b6106e18261069b565b810181811067ffffffffffffffff82111715610700576106ff6106ab565b5b80604052505050565b5f610712610682565b905061071e82826106d8565b919050565b5f67ffffffffffffffff82111561073d5761073c6106ab565b5b6107468261069b565b9050602081019050919050565b8281835e5f83830152505050565b5f61077361076e84610723565b610709565b90508281526020810184848401111561078f5761078e610697565b5b61079a848285610753565b509392505050565b5f82601f8301126107b6576107b5610693565b5b81516107c6848260208601610761565b91505092915050565b5f805f606084860312156107e6576107e561068b565b5b5f84015167ffffffffffffffff8111156108035761080261068f565b5b61080f868287016107a2565b935050602084015167ffffffffffffffff8111156108305761082f61068f565b5b61083c868287016107a2565b925050604084015167ffffffffffffffff81111561085d5761085c61068f565b5b610869868287016107a2565b9150509250925092565b5f81519050919050565b5f81905092915050565b5f61089182610873565b61089b818561087d565b93506108ab818560208601610753565b80840191505092915050565b5f6108c28284610887565b915081905092915050565b5f819050919050565b5f819050919050565b6108f06108eb826108cd565b6108d6565b82525050565b5f61090182846108df565b60208201915081905092915050565b6128e18061091d5f395ff3fe608060405234801561000f575f80fd5b5060043610610055575f3560e01c80634bb792ac14610059578063822e242e14610075578063963e9f1f14610091578063ae9ec457146100c1578063c005a930146100f1575b5f80fd5b610073600480360381019061006e9190611c0b565b610121565b005b61008f600480360381019061008a9190611ca7565b6107a7565b005b6100ab60048036038101906100a69190611d43565b610e2b565b6040516100b89190611f1b565b60405180910390f35b6100db60048036038101906100d69190611d43565b61104e565b6040516100e89190611f1b565b60405180910390f35b61010b60048036038101906101069190611d43565b611270565b60405161011891906120b1565b60405180910390f35b60088214806101305750600982145b1561015a57604051806020016040528083815250606a9060016101549291906119e8565b506101ce565b5f5b60088110156101cc576001600684600a811061017b5761017a6120d1565b5b600a020182600a8110610191576101906120d1565b5b0154036101bf57606a81908060018154018082558091505060019003905f5260205f20015f90919091909150555b808060010191505061015c565b505b5f805b60038054905081101561078b578480519060200120600382815481106101fa576101f96120d1565b5b905f5260205f20906004020160020160405161021691906121f7565b60405180910390200361077e575f5b606a8054905081101561077c57606a8181548110610246576102456120d1565b5b905f5260205f20015460038381548110610263576102626120d1565b5b905f5260205f209060040201600101540361076f57600192507f2a721c885fffcf96f50f455dd2ca696caf61d72d984ea9334daea189844a932b600383815481106102b1576102b06120d1565b5b905f5260205f2090600402015f01600384815481106102d3576102d26120d1565b5b905f5260205f20906004020160010154600385815481106102f7576102f66120d1565b5b905f5260205f2090600402016002016003868154811061031a576103196120d1565b5b905f5260205f2090600402016003015460405161033a94939291906122bf565b60405180910390a15f60038381548110610357576103566120d1565b5b905f5260205f20906004020160030154856103729190612346565b90505f8113156104bc5761049d60038481548110610393576103926120d1565b5b905f5260205f2090600402015f0180546103ac9061212b565b80601f01602080910402602001604051908101604052809291908181526020018280546103d89061212b565b80156104235780601f106103fa57610100808354040283529160200191610423565b820191905f5260205f20905b81548152906001019060200180831161040657829003601f168201915b5050505050896003868154811061043d5761043c6120d1565b5b905f5260205f20906004020160010154898b60038981548110610463576104626120d1565b5b905f5260205f209060040201600301548b60038b81548110610488576104876120d1565b5b905f5260205f20906004020160030154611542565b6104ab888789846001611627565b6104b6600384611732565b5061077c565b5f81036105f5576105e4600384815481106104da576104d96120d1565b5b905f5260205f2090600402015f0180546104f39061212b565b80601f016020809104026020016040519081016040528092919081815260200182805461051f9061212b565b801561056a5780601f106105415761010080835404028352916020019161056a565b820191905f5260205f20905b81548152906001019060200180831161054d57829003601f168201915b50505050508960038681548110610584576105836120d1565b5b905f5260205f20906004020160010154898b600389815481106105aa576105a96120d1565b5b905f5260205f209060040201600301548b60038b815481106105cf576105ce6120d1565b5b905f5260205f20906004020160030154611542565b6105ef600384611732565b5061077c565b6107166003848154811061060c5761060b6120d1565b5b905f5260205f2090600402015f0180546106259061212b565b80601f01602080910402602001604051908101604052809291908181526020018280546106519061212b565b801561069c5780601f106106735761010080835404028352916020019161069c565b820191905f5260205f20905b81548152906001019060200180831161067f57829003601f168201915b505050505089600386815481106106b6576106b56120d1565b5b905f5260205f20906004020160010154898b600389815481106106dc576106db6120d1565b5b905f5260205f209060040201600301548b60038b81548110610701576107006120d1565b5b905f5260205f20906004020160030154611542565b7fffffffffffffffffffffffffffffffffffffffffffffffffffffffffffffffff816107429190612386565b60038481548110610756576107556120d1565b5b905f5260205f209060040201600301819055505061077c565b8080600101915050610225565b505b80806001019150506101d1565b50806107a05761079f858486856001611627565b5b5050505050565b60088314806107b65750600983145b156107e057604051806020016040528084815250606a9060016107da9291906119e8565b50610854565b5f5b6008811015610852576001600682600a8110610801576108006120d1565b5b600a020185600a8110610817576108166120d1565b5b01540361084557606a81908060018154018082558091505060019003905f5260205f20015f90919091909150555b80806001019150506107e2565b505b5f805b600480549050811015610e10578380519060200120600482815481106108805761087f6120d1565b5b905f5260205f20906004020160020160405161089c91906121f7565b604051809103902003610e03575f5b606a80549050811015610e0157606a81815481106108cc576108cb6120d1565b5b905f5260205f200154600483815481106108e9576108e86120d1565b5b905f5260205f2090600402016001015403610df457600192507fcc97805e28e324dc39be995161797f1fdf935c9b4ebab652ef2cc60de7f0f39460048381548110610937576109366120d1565b5b905f5260205f2090600402015f0160048481548110610959576109586120d1565b5b905f5260205f209060040201600101546004858154811061097d5761097c6120d1565b5b905f5260205f209060040201600201600486815481106109a05761099f6120d1565b5b905f5260205f209060040201600301546040516109c094939291906122bf565b60405180910390a15f600483815481106109dd576109dc6120d1565b5b905f5260205f20906004020160030154856109f89190612346565b90505f811315610b4157610b238860048581548110610a1a57610a196120d1565b5b905f5260205f2090600402015f018054610a339061212b565b80601f0160208091040260200160405190810160405280929190818152602001828054610a5f9061212b565b8015610aaa5780601f10610a8157610100808354040283529160200191610aaa565b820191905f5260205f20905b815481529060010190602001808311610a8d57829003601f168201915b50505050508960048781548110610ac457610ac36120d1565b5b905f5260205f209060040201600101548a8a60048a81548110610aea57610ae96120d1565b5b905f5260205f2090600402016003015460048b81548110610b0e57610b0d6120d1565b5b905f5260205f20906004020160030154611542565b610b30888888845f611627565b610b3b600484611732565b50610e01565b5f8103610c7a57610c698860048581548110610b6057610b5f6120d1565b5b905f5260205f2090600402015f018054610b799061212b565b80601f0160208091040260200160405190810160405280929190818152602001828054610ba59061212b565b8015610bf05780601f10610bc757610100808354040283529160200191610bf0565b820191905f5260205f20905b815481529060010190602001808311610bd357829003601f168201915b50505050508960048781548110610c0a57610c096120d1565b5b905f5260205f209060040201600101548a8a60048a81548110610c3057610c2f6120d1565b5b905f5260205f2090600402016003015460048b81548110610c5457610c536120d1565b5b905f5260205f20906004020160030154611542565b610c74600484611732565b50610e01565b610d9b8860048581548110610c9257610c916120d1565b5b905f5260205f2090600402015f018054610cab9061212b565b80601f0160208091040260200160405190810160405280929190818152602001828054610cd79061212b565b8015610d225780601f10610cf957610100808354040283529160200191610d22565b820191905f5260205f20905b815481529060010190602001808311610d0557829003601f168201915b50505050508960048781548110610d3c57610d3b6120d1565b5b905f5260205f209060040201600101548a8a60048a81548110610d6257610d616120d1565b5b905f5260205f2090600402016003015460048b81548110610d8657610d856120d1565b5b905f5260205f20906004020160030154611542565b7fffffffffffffffffffffffffffffffffffffffffffffffffffffffffffffffff81610dc79190612386565b60048481548110610ddb57610dda6120d1565b5b905f5260205f2090600402016003018190555050610e01565b80806001019150506108ab565b505b8080600101915050610857565b5080610e2457610e23858585855f611627565b5b5050505050565b60608160015481604051602001610e429190612436565b60405160208183030381529060405280519060200120604051602001610e689190612475565b6040516020818303038152906040528051906020012014610ebe576040517f08c379a0000000000000000000000000000000000000000000000000000000008152600401610eb5906124d9565b60405180910390fd5b6004805480602002602001604051908101604052809291908181526020015f905b82821015611042578382905f5260205f2090600402016040518060800160405290815f82018054610f0f9061212b565b80601f0160208091040260200160405190810160405280929190818152602001828054610f3b9061212b565b8015610f865780601f10610f5d57610100808354040283529160200191610f86565b820191905f5260205f20905b815481529060010190602001808311610f6957829003601f168201915b5050505050815260200160018201548152602001600282018054610fa99061212b565b80601f0160208091040260200160405190810160405280929190818152602001828054610fd59061212b565b80156110205780601f10610ff757610100808354040283529160200191611020565b820191905f5260205f20905b81548152906001019060200180831161100357829003601f168201915b5050505050815260200160038201548152505081526020019060010190610edf565b50505050915050919050565b6060815f54816040516020016110649190612436565b6040516020818303038152906040528051906020012060405160200161108a9190612475565b60405160208183030381529060405280519060200120146110e0576040517f08c379a00000000000000000000000000000000000000000000000000000000081526004016110d7906124d9565b60405180910390fd5b6003805480602002602001604051908101604052809291908181526020015f905b82821015611264578382905f5260205f2090600402016040518060800160405290815f820180546111319061212b565b80601f016020809104026020016040519081016040528092919081815260200182805461115d9061212b565b80156111a85780601f1061117f576101008083540402835291602001916111a8565b820191905f5260205f20905b81548152906001019060200180831161118b57829003601f168201915b50505050508152602001600182015481526020016002820180546111cb9061212b565b80601f01602080910402602001604051908101604052809291908181526020018280546111f79061212b565b80156112425780601f1061121957610100808354040283529160200191611242565b820191905f5260205f20905b81548152906001019060200180831161122557829003601f168201915b5050505050815260200160038201548152505081526020019060010190611101565b50505050915050919050565b606081600254816040516020016112879190612436565b604051602081830303815290604052805190602001206040516020016112ad9190612475565b6040516020818303038152906040528051906020012014611303576040517f08c379a00000000000000000000000000000000000000000000000000000000081526004016112fa906124d9565b60405180910390fd5b6005805480602002602001604051908101604052809291908181526020015f905b82821015611536578382905f5260205f209060080201604051806101000160405290815f820180546113559061212b565b80601f01602080910402602001604051908101604052809291908181526020018280546113819061212b565b80156113cc5780601f106113a3576101008083540402835291602001916113cc565b820191905f5260205f20905b8154815290600101906020018083116113af57829003601f168201915b505050505081526020016001820180546113e59061212b565b80601f01602080910402602001604051908101604052809291908181526020018280546114119061212b565b801561145c5780601f106114335761010080835404028352916020019161145c565b820191905f5260205f20905b81548152906001019060200180831161143f57829003601f168201915b5050505050815260200160028201548152602001600382015481526020016004820180546114899061212b565b80601f01602080910402602001604051908101604052809291908181526020018280546114b59061212b565b80156115005780601f106114d757610100808354040283529160200191611500565b820191905f5260205f20905b8154815290600101906020018083116114e357829003601f168201915b50505050508152602001600582015481526020016006820154815260200160078201548152505081526020019060010190611324565b50505050915050919050565b5f6040518061010001604052808a8152602001898152602001888152602001878152602001868152602001858152602001848152602001838152509050600581908060018154018082558091505060019003905f5260205f2090600802015f909190919091505f820151815f0190816115bb9190612682565b5060208201518160010190816115d19190612682565b50604082015181600201556060820151816003015560808201518160040190816115fb9190612682565b5060a0820151816005015560c0820151816006015560e082015181600701555050505050505050505050565b5f60405180608001604052808781526020018681526020018581526020018481525090505f82036116c057600381908060018154018082558091505060019003905f5260205f2090600402015f909190919091505f820151815f01908161168e9190612682565b506020820151816001015560408201518160020190816116ae9190612682565b5060608201518160030155505061172a565b600481908060018154018082558091505060019003905f5260205f2090600402015f909190919091505f820151815f0190816116fc9190612682565b5060208201518160010155604082015181600201908161171c9190612682565b506060820151816003015550505b505050505050565b5f828281548110611746576117456120d1565b5b905f5260205f2090600402016040518060800160405290815f8201805461176c9061212b565b80601f01602080910402602001604051908101604052809291908181526020018280546117989061212b565b80156117e35780601f106117ba576101008083540402835291602001916117e3565b820191905f5260205f20905b8154815290600101906020018083116117c657829003601f168201915b50505050508152602001600182015481526020016002820180546118069061212b565b80601f01602080910402602001604051908101604052809291908181526020018280546118329061212b565b801561187d5780601f106118545761010080835404028352916020019161187d565b820191905f5260205f20905b81548152906001019060200180831161186057829003601f168201915b50505050508152602001600382015481525050905082600184805490506118a49190612751565b815481106118b5576118b46120d1565b5b905f5260205f2090600402018383815481106118d4576118d36120d1565b5b905f5260205f2090600402015f8201815f0190816118f29190612799565b5060018201548160010155600282018160020190816119119190612799565b50600382015481600301559050508083600185805490506119329190612751565b81548110611943576119426120d1565b5b905f5260205f2090600402015f820151815f0190816119629190612682565b506020820151816001015560408201518160020190816119829190612682565b5060608201518160030155905050828054806119a1576119a061287e565b5b600190038181905f5260205f2090600402015f8082015f6119c29190611a33565b600182015f9055600282015f6119d89190611a33565b600382015f905550509055505050565b828054828255905f5260205f20908101928215611a22579160200282015b82811115611a21578251825591602001919060010190611a06565b5b509050611a2f9190611a70565b5090565b508054611a3f9061212b565b5f825580601f10611a505750611a6d565b601f0160209004905f5260205f2090810190611a6c9190611a70565b5b50565b5b80821115611a87575f815f905550600101611a71565b5090565b5f604051905090565b5f80fd5b5f80fd5b5f80fd5b5f80fd5b5f601f19601f8301169050919050565b7f4e487b71000000000000000000000000000000000000000000000000000000005f52604160045260245ffd5b611aea82611aa4565b810181811067ffffffffffffffff82111715611b0957611b08611ab4565b5b80604052505050565b5f611b1b611a8b565b9050611b278282611ae1565b919050565b5f67ffffffffffffffff821115611b4657611b45611ab4565b5b611b4f82611aa4565b9050602081019050919050565b828183375f83830152505050565b5f611b7c611b7784611b2c565b611b12565b905082815260208101848484011115611b9857611b97611aa0565b5b611ba3848285611b5c565b509392505050565b5f82601f830112611bbf57611bbe611a9c565b5b8135611bcf848260208601611b6a565b91505092915050565b5f819050919050565b611bea81611bd8565b8114611bf4575f80fd5b50565b5f81359050611c0581611be1565b92915050565b5f805f8060808587031215611c2357611c22611a94565b5b5f85013567ffffffffffffffff811115611c4057611c3f611a98565b5b611c4c87828801611bab565b945050602085013567ffffffffffffffff811115611c6d57611c6c611a98565b5b611c7987828801611bab565b9350506040611c8a87828801611bf7565b9250506060611c9b87828801611bf7565b91505092959194509250565b5f805f8060808587031215611cbf57611cbe611a94565b5b5f85013567ffffffffffffffff811115611cdc57611cdb611a98565b5b611ce887828801611bab565b9450506020611cf987828801611bf7565b935050604085013567ffffffffffffffff811115611d1a57611d19611a98565b5b611d2687828801611bab565b9250506060611d3787828801611bf7565b91505092959194509250565b5f60208284031215611d5857611d57611a94565b5b5f82013567ffffffffffffffff811115611d7557611d74611a98565b5b611d8184828501611bab565b91505092915050565b5f81519050919050565b5f82825260208201905092915050565b5f819050602082019050919050565b5f81519050919050565b5f82825260208201905092915050565b8281835e5f83830152505050565b5f611de582611db3565b611def8185611dbd565b9350611dff818560208601611dcd565b611e0881611aa4565b840191505092915050565b611e1c81611bd8565b82525050565b5f608083015f8301518482035f860152611e3c8282611ddb565b9150506020830151611e516020860182611e13565b5060408301518482036040860152611e698282611ddb565b9150506060830151611e7e6060860182611e13565b508091505092915050565b5f611e948383611e22565b905092915050565b5f602082019050919050565b5f611eb282611d8a565b611ebc8185611d94565b935083602082028501611ece85611da4565b805f5b85811015611f095784840389528151611eea8582611e89565b9450611ef583611e9c565b925060208a01995050600181019050611ed1565b50829750879550505050505092915050565b5f6020820190508181035f830152611f338184611ea8565b905092915050565b5f81519050919050565b5f82825260208201905092915050565b5f819050602082019050919050565b5f61010083015f8301518482035f860152611f7f8282611ddb565b91505060208301518482036020860152611f998282611ddb565b9150506040830151611fae6040860182611e13565b506060830151611fc16060860182611e13565b5060808301518482036080860152611fd98282611ddb565b91505060a0830151611fee60a0860182611e13565b5060c083015161200160c0860182611e13565b5060e083015161201460e0860182611e13565b508091505092915050565b5f61202a8383611f64565b905092915050565b5f602082019050919050565b5f61204882611f3b565b6120528185611f45565b93508360208202850161206485611f55565b805f5b8581101561209f5784840389528151612080858261201f565b945061208b83612032565b925060208a01995050600181019050612067565b50829750879550505050505092915050565b5f6020820190508181035f8301526120c9818461203e565b905092915050565b7f4e487b71000000000000000000000000000000000000000000000000000000005f52603260045260245ffd5b7f4e487b71000000000000000000000000000000000000000000000000000000005f52602260045260245ffd5b5f600282049050600182168061214257607f821691505b602082108103612155576121546120fe565b5b50919050565b5f81905092915050565b5f819050815f5260205f209050919050565b5f81546121838161212b565b61218d818661215b565b9450600182165f81146121a757600181146121bc576121ee565b60ff19831686528115158202860193506121ee565b6121c585612165565b5f5b838110156121e6578154818901526001820191506020810190506121c7565b838801955050505b50505092915050565b5f6122028284612177565b915081905092915050565b5f82825260208201905092915050565b5f819050815f5260205f209050919050565b5f815461223b8161212b565b612245818661220d565b9450600182165f811461225f5760018114612275576122a7565b60ff1983168652811515602002860193506122a7565b61227e8561221d565b5f5b8381101561229f57815481890152600182019150602081019050612280565b808801955050505b50505092915050565b6122b981611bd8565b82525050565b5f6080820190508181035f8301526122d7818761222f565b90506122e660208301866122b0565b81810360408301526122f8818561222f565b905061230760608301846122b0565b95945050505050565b5f819050919050565b7f4e487b71000000000000000000000000000000000000000000000000000000005f52601160045260245ffd5b5f61235082612310565b915061235b83612310565b925082820390508181125f8412168282135f8512151617156123805761237f612319565b5b92915050565b5f61239082612310565b915061239b83612310565b92508282026123a981612310565b91507f800000000000000000000000000000000000000000000000000000000000000084145f841216156123e0576123df612319565b5b82820584148315176123f5576123f4612319565b5b5092915050565b5f81905092915050565b5f61241082611db3565b61241a81856123fc565b935061242a818560208601611dcd565b80840191505092915050565b5f6124418284612406565b915081905092915050565b5f819050919050565b5f819050919050565b61246f61246a8261244c565b612455565b82525050565b5f612480828461245e565b60208201915081905092915050565b7f496e636f72726563742070617373776f726421000000000000000000000000005f82015250565b5f6124c360138361220d565b91506124ce8261248f565b602082019050919050565b5f6020820190508181035f8301526124f0816124b7565b9050919050565b5f6020601f8301049050919050565b5f82821b905092915050565b5f600883026125417fffffffffffffffffffffffffffffffffffffffffffffffffffffffffffffffff82612506565b61254b8683612506565b95508019841693508086168417925050509392505050565b5f819050919050565b5f61258661258161257c84611bd8565b612563565b611bd8565b9050919050565b5f819050919050565b61259f8361256c565b6125b36125ab8261258d565b848454612512565b825550505050565b5f90565b6125c76125bb565b6125d2818484612596565b505050565b5b818110156125f5576125ea5f826125bf565b6001810190506125d8565b5050565b601f82111561263a5761260b8161221d565b612614846124f7565b81016020851015612623578190505b61263761262f856124f7565b8301826125d7565b50505b505050565b5f82821c905092915050565b5f61265a5f198460080261263f565b1980831691505092915050565b5f612672838361264b565b9150826002028217905092915050565b61268b82611db3565b67ffffffffffffffff8111156126a4576126a3611ab4565b5b6126ae825461212b565b6126b98282856125f9565b5f60209050601f8311600181146126ea575f84156126d8578287015190505b6126e28582612667565b865550612749565b601f1984166126f88661221d565b5f5b8281101561271f578489015182556001820191506020850194506020810190506126fa565b8683101561273c5784890151612738601f89168261264b565b8355505b6001600288020188555050505b505050505050565b5f61275b82611bd8565b915061276683611bd8565b925082820390508181111561277e5761277d612319565b5b92915050565b5f815490506127928161212b565b9050919050565b8181036127a757505061287c565b6127b082612784565b67ffffffffffffffff8111156127c9576127c8611ab4565b5b6127d3825461212b565b6127de8282856125f9565b5f601f83116001811461280b575f84156127f9578287015490505b6128038582612667565b865550612875565b601f1984166128198761221d565b96506128248661221d565b5f5b8281101561284b57848901548255600182019150600185019450602081019050612826565b868310156128685784890154612864601f89168261264b565b8355505b6001600288020188555050505b5050505050505b565b7f4e487b71000000000000000000000000000000000000000000000000000000005f52603160045260245ffdfea26469706673582212208872068e68a7427fdcc7e2c06171544d080317115dca21ed86e321b3bb7eef2164736f6c634300081a0033",
					"opcodes": "PUSH1 0x80 PUSH1 0x40 MSTORE PUSH1 0x40 MLOAD DUP1 PUSH2 0x140 ADD PUSH1 0x40 MSTORE DUP1 PUSH1 0x40 MLOAD DUP1 PUSH2 0x140 ADD PUSH1 0x40 MSTORE DUP1 PUSH1 0x1 PUSH1 0xFF AND DUP2 MSTORE PUSH1 0x20 ADD PUSH1 0x1 PUSH1 0xFF AND DUP2 MSTORE PUSH1 0x20 ADD PUSH0 PUSH1 0xFF AND DUP2 MSTORE PUSH1 0x20 ADD PUSH0 PUSH1 0xFF AND DUP2 MSTORE PUSH1 0x20 ADD PUSH0 PUSH1 0xFF AND DUP2 MSTORE PUSH1 0x20 ADD PUSH0 PUSH1 0xFF AND DUP2 MSTORE PUSH1 0x20 ADD PUSH1 0x1 PUSH1 0xFF AND DUP2 MSTORE PUSH1 0x20 ADD PUSH1 0x1 PUSH1 0xFF AND DUP2 MSTORE PUSH1 0x20 ADD PUSH0 PUSH1 0xFF AND DUP2 MSTORE PUSH1 0x20 ADD PUSH0 PUSH1 0xFF AND DUP2 MSTORE POP DUP2 MSTORE PUSH1 0x20 ADD PUSH1 0x40 MLOAD DUP1 PUSH2 0x140 ADD PUSH1 0x40 MSTORE DUP1 PUSH0 PUSH1 0xFF AND DUP2 MSTORE PUSH1 0x20 ADD PUSH1 0x1 PUSH1 0xFF AND DUP2 MSTORE PUSH1 0x20 ADD PUSH0 PUSH1 0xFF AND DUP2 MSTORE PUSH1 0x20 ADD PUSH0 PUSH1 0xFF AND DUP2 MSTORE PUSH1 0x20 ADD PUSH0 PUSH1 0xFF AND DUP2 MSTORE PUSH1 0x20 ADD PUSH0 PUSH1 0xFF AND DUP2 MSTORE PUSH1 0x20 ADD PUSH0 PUSH1 0xFF AND DUP2 MSTORE PUSH1 0x20 ADD PUSH1 0x1 PUSH1 0xFF AND DUP2 MSTORE PUSH1 0x20 ADD PUSH0 PUSH1 0xFF AND DUP2 MSTORE PUSH1 0x20 ADD PUSH0 PUSH1 0xFF AND DUP2 MSTORE POP DUP2 MSTORE PUSH1 0x20 ADD PUSH1 0x40 MLOAD DUP1 PUSH2 0x140 ADD PUSH1 0x40 MSTORE DUP1 PUSH0 PUSH1 0xFF AND DUP2 MSTORE PUSH1 0x20 ADD PUSH0 PUSH1 0xFF AND DUP2 MSTORE PUSH1 0x20 ADD PUSH1 0x1 PUSH1 0xFF AND DUP2 MSTORE PUSH1 0x20 ADD PUSH1 0x1 PUSH1 0xFF AND DUP2 MSTORE PUSH1 0x20 ADD PUSH0 PUSH1 0xFF AND DUP2 MSTORE PUSH1 0x20 ADD PUSH0 PUSH1 0xFF AND DUP2 MSTORE PUSH1 0x20 ADD PUSH1 0x1 PUSH1 0xFF AND DUP2 MSTORE PUSH1 0x20 ADD PUSH1 0x1 PUSH1 0xFF AND DUP2 MSTORE PUSH1 0x20 ADD PUSH0 PUSH1 0xFF AND DUP2 MSTORE PUSH1 0x20 ADD PUSH0 PUSH1 0xFF AND DUP2 MSTORE POP DUP2 MSTORE PUSH1 0x20 ADD PUSH1 0x40 MLOAD DUP1 PUSH2 0x140 ADD PUSH1 0x40 MSTORE DUP1 PUSH0 PUSH1 0xFF AND DUP2 MSTORE PUSH1 0x20 ADD PUSH0 PUSH1 0xFF AND DUP2 MSTORE PUSH1 0x20 ADD PUSH0 PUSH1 0xFF AND DUP2 MSTORE PUSH1 0x20 ADD PUSH1 0x1 PUSH1 0xFF AND DUP2 MSTORE PUSH1 0x20 ADD PUSH0 PUSH1 0xFF AND DUP2 MSTORE PUSH1 0x20 ADD PUSH0 PUSH1 0xFF AND DUP2 MSTORE PUSH1 0x20 ADD PUSH0 PUSH1 0xFF AND DUP2 MSTORE PUSH1 0x20 ADD PUSH1 0x1 PUSH1 0xFF AND DUP2 MSTORE PUSH1 0x20 ADD PUSH0 PUSH1 0xFF AND DUP2 MSTORE PUSH1 0x20 ADD PUSH0 PUSH1 0xFF AND DUP2 MSTORE POP DUP2 MSTORE PUSH1 0x20 ADD PUSH1 0x40 MLOAD DUP1 PUSH2 0x140 ADD PUSH1 0x40 MSTORE DUP1 PUSH1 0x1 PUSH1 0xFF AND DUP2 MSTORE PUSH1 0x20 ADD PUSH1 0x1 PUSH1 0xFF AND DUP2 MSTORE PUSH1 0x20 ADD PUSH1 0x1 PUSH1 0xFF AND DUP2 MSTORE PUSH1 0x20 ADD PUSH1 0x1 PUSH1 0xFF AND DUP2 MSTORE PUSH1 0x20 ADD PUSH1 0x1 PUSH1 0xFF AND DUP2 MSTORE PUSH1 0x20 ADD PUSH1 0x1 PUSH1 0xFF AND DUP2 MSTORE PUSH1 0x20 ADD PUSH1 0x1 PUSH1 0xFF AND DUP2 MSTORE PUSH1 0x20 ADD PUSH1 0x1 PUSH1 0xFF AND DUP2 MSTORE PUSH1 0x20 ADD PUSH0 PUSH1 0xFF AND DUP2 MSTORE PUSH1 0x20 ADD PUSH0 PUSH1 0xFF AND DUP2 MSTORE POP DUP2 MSTORE PUSH1 0x20 ADD PUSH1 0x40 MLOAD DUP1 PUSH2 0x140 ADD PUSH1 0x40 MSTORE DUP1 PUSH0 PUSH1 0xFF AND DUP2 MSTORE PUSH1 0x20 ADD PUSH1 0x1 PUSH1 0xFF AND DUP2 MSTORE PUSH1 0x20 ADD PUSH0 PUSH1 0xFF AND DUP2 MSTORE PUSH1 0x20 ADD PUSH1 0x1 PUSH1 0xFF AND DUP2 MSTORE PUSH1 0x20 ADD PUSH0 PUSH1 0xFF AND DUP2 MSTORE PUSH1 0x20 ADD PUSH1 0x1 PUSH1 0xFF AND DUP2 MSTORE PUSH1 0x20 ADD PUSH0 PUSH1 0xFF AND DUP2 MSTORE PUSH1 0x20 ADD PUSH1 0x1 PUSH1 0xFF AND DUP2 MSTORE PUSH1 0x20 ADD PUSH0 PUSH1 0xFF AND DUP2 MSTORE PUSH1 0x20 ADD PUSH0 PUSH1 0xFF AND DUP2 MSTORE POP DUP2 MSTORE PUSH1 0x20 ADD PUSH1 0x40 MLOAD DUP1 PUSH2 0x140 ADD PUSH1 0x40 MSTORE DUP1 PUSH0 PUSH1 0xFF AND DUP2 MSTORE PUSH1 0x20 ADD PUSH0 PUSH1 0xFF AND DUP2 MSTORE PUSH1 0x20 ADD PUSH0 PUSH1 0xFF AND DUP2 MSTORE PUSH1 0x20 ADD PUSH0 PUSH1 0xFF AND DUP2 MSTORE PUSH1 0x20 ADD PUSH0 PUSH1 0xFF AND DUP2 MSTORE PUSH1 0x20 ADD PUSH0 PUSH1 0xFF AND DUP2 MSTORE PUSH1 0x20 ADD PUSH1 0x1 PUSH1 0xFF AND DUP2 MSTORE PUSH1 0x20 ADD PUSH1 0x1 PUSH1 0xFF AND DUP2 MSTORE PUSH1 0x20 ADD PUSH0 PUSH1 0xFF AND DUP2 MSTORE PUSH1 0x20 ADD PUSH0 PUSH1 0xFF AND DUP2 MSTORE POP DUP2 MSTORE PUSH1 0x20 ADD PUSH1 0x40 MLOAD DUP1 PUSH2 0x140 ADD PUSH1 0x40 MSTORE DUP1 PUSH0 PUSH1 0xFF AND DUP2 MSTORE PUSH1 0x20 ADD PUSH0 PUSH1 0xFF AND DUP2 MSTORE PUSH1 0x20 ADD PUSH0 PUSH1 0xFF AND DUP2 MSTORE PUSH1 0x20 ADD PUSH0 PUSH1 0xFF AND DUP2 MSTORE PUSH1 0x20 ADD PUSH0 PUSH1 0xFF AND DUP2 MSTORE PUSH1 0x20 ADD PUSH0 PUSH1 0xFF AND DUP2 MSTORE PUSH1 0x20 ADD PUSH0 PUSH1 0xFF AND DUP2 MSTORE PUSH1 0x20 ADD PUSH1 0x1 PUSH1 0xFF AND DUP2 MSTORE PUSH1 0x20 ADD PUSH0 PUSH1 0xFF AND DUP2 MSTORE PUSH1 0x20 ADD PUSH0 PUSH1 0xFF AND DUP2 MSTORE POP DUP2 MSTORE PUSH1 0x20 ADD PUSH1 0x40 MLOAD DUP1 PUSH2 0x140 ADD PUSH1 0x40 MSTORE DUP1 PUSH0 PUSH1 0xFF AND DUP2 MSTORE PUSH1 0x20 ADD PUSH0 PUSH1 0xFF AND DUP2 MSTORE PUSH1 0x20 ADD PUSH0 PUSH1 0xFF AND DUP2 MSTORE PUSH1 0x20 ADD PUSH0 PUSH1 0xFF AND DUP2 MSTORE PUSH1 0x20 ADD PUSH0 PUSH1 0xFF AND DUP2 MSTORE PUSH1 0x20 ADD PUSH0 PUSH1 0xFF AND DUP2 MSTORE PUSH1 0x20 ADD PUSH0 PUSH1 0xFF AND DUP2 MSTORE PUSH1 0x20 ADD PUSH0 PUSH1 0xFF AND DUP2 MSTORE PUSH1 0x20 ADD PUSH1 0x1 PUSH1 0xFF AND DUP2 MSTORE PUSH1 0x20 ADD PUSH0 PUSH1 0xFF AND DUP2 MSTORE POP DUP2 MSTORE PUSH1 0x20 ADD PUSH1 0x40 MLOAD DUP1 PUSH2 0x140 ADD PUSH1 0x40 MSTORE DUP1 PUSH0 PUSH1 0xFF AND DUP2 MSTORE PUSH1 0x20 ADD PUSH0 PUSH1 0xFF AND DUP2 MSTORE PUSH1 0x20 ADD PUSH0 PUSH1 0xFF AND DUP2 MSTORE PUSH1 0x20 ADD PUSH0 PUSH1 0xFF AND DUP2 MSTORE PUSH1 0x20 ADD PUSH0 PUSH1 0xFF AND DUP2 MSTORE PUSH1 0x20 ADD PUSH0 PUSH1 0xFF AND DUP2 MSTORE PUSH1 0x20 ADD PUSH0 PUSH1 0xFF AND DUP2 MSTORE PUSH1 0x20 ADD PUSH0 PUSH1 0xFF AND DUP2 MSTORE PUSH1 0x20 ADD PUSH0 PUSH1 0xFF AND DUP2 MSTORE PUSH1 0x20 ADD PUSH1 0x1 PUSH1 0xFF AND DUP2 MSTORE POP DUP2 MSTORE POP PUSH1 0x6 SWAP1 PUSH1 0xA PUSH2 0x455 SWAP3 SWAP2 SWAP1 PUSH2 0x59C JUMP JUMPDEST POP CALLVALUE DUP1 ISZERO PUSH2 0x461 JUMPI PUSH0 DUP1 REVERT JUMPDEST POP PUSH1 0x40 MLOAD PUSH2 0x31FE CODESIZE SUB DUP1 PUSH2 0x31FE DUP4 CODECOPY DUP2 DUP2 ADD PUSH1 0x40 MSTORE DUP2 ADD SWAP1 PUSH2 0x483 SWAP2 SWAP1 PUSH2 0x7CF JUMP JUMPDEST DUP3 PUSH1 0x40 MLOAD PUSH1 0x20 ADD PUSH2 0x494 SWAP2 SWAP1 PUSH2 0x8B7 JUMP JUMPDEST PUSH1 0x40 MLOAD PUSH1 0x20 DUP2 DUP4 SUB SUB DUP2 MSTORE SWAP1 PUSH1 0x40 MSTORE DUP1 MLOAD SWAP1 PUSH1 0x20 ADD KECCAK256 PUSH0 DUP2 SWAP1 SSTORE POP PUSH0 SLOAD PUSH1 0x40 MLOAD PUSH1 0x20 ADD PUSH2 0x4C1 SWAP2 SWAP1 PUSH2 0x8F6 JUMP JUMPDEST PUSH1 0x40 MLOAD PUSH1 0x20 DUP2 DUP4 SUB SUB DUP2 MSTORE SWAP1 PUSH1 0x40 MSTORE DUP1 MLOAD SWAP1 PUSH1 0x20 ADD KECCAK256 PUSH0 DUP2 SWAP1 SSTORE POP DUP2 PUSH1 0x40 MLOAD PUSH1 0x20 ADD PUSH2 0x4ED SWAP2 SWAP1 PUSH2 0x8B7 JUMP JUMPDEST PUSH1 0x40 MLOAD PUSH1 0x20 DUP2 DUP4 SUB SUB DUP2 MSTORE SWAP1 PUSH1 0x40 MSTORE DUP1 MLOAD SWAP1 PUSH1 0x20 ADD KECCAK256 PUSH1 0x1 DUP2 SWAP1 SSTORE POP PUSH1 0x1 SLOAD PUSH1 0x40 MLOAD PUSH1 0x20 ADD PUSH2 0x51C SWAP2 SWAP1 PUSH2 0x8F6 JUMP JUMPDEST PUSH1 0x40 MLOAD PUSH1 0x20 DUP2 DUP4 SUB SUB DUP2 MSTORE SWAP1 PUSH1 0x40 MSTORE DUP1 MLOAD SWAP1 PUSH1 0x20 ADD KECCAK256 PUSH1 0x1 DUP2 SWAP1 SSTORE POP DUP1 PUSH1 0x40 MLOAD PUSH1 0x20 ADD PUSH2 0x549 SWAP2 SWAP1 PUSH2 0x8B7 JUMP JUMPDEST PUSH1 0x40 MLOAD PUSH1 0x20 DUP2 DUP4 SUB SUB DUP2 MSTORE SWAP1 PUSH1 0x40 MSTORE DUP1 MLOAD SWAP1 PUSH1 0x20 ADD KECCAK256 PUSH1 0x2 DUP2 SWAP1 SSTORE POP PUSH1 0x2 SLOAD PUSH1 0x40 MLOAD PUSH1 0x20 ADD PUSH2 0x578 SWAP2 SWAP1 PUSH2 0x8F6 JUMP JUMPDEST PUSH1 0x40 MLOAD PUSH1 0x20 DUP2 DUP4 SUB SUB DUP2 MSTORE SWAP1 PUSH1 0x40 MSTORE DUP1 MLOAD SWAP1 PUSH1 0x20 ADD KECCAK256 PUSH1 0x2 DUP2 SWAP1 SSTORE POP POP POP POP PUSH2 0x910 JUMP JUMPDEST DUP3 PUSH1 0xA DUP1 MUL DUP2 ADD SWAP3 DUP3 ISZERO PUSH2 0x5DB JUMPI SWAP2 PUSH1 0x20 MUL DUP3 ADD JUMPDEST DUP3 DUP2 GT ISZERO PUSH2 0x5DA JUMPI DUP3 MLOAD DUP3 SWAP1 PUSH1 0xA PUSH2 0x5CA SWAP3 SWAP2 SWAP1 PUSH2 0x5EC JUMP JUMPDEST POP SWAP2 PUSH1 0x20 ADD SWAP2 SWAP1 PUSH1 0xA ADD SWAP1 PUSH2 0x5B1 JUMP JUMPDEST JUMPDEST POP SWAP1 POP PUSH2 0x5E8 SWAP2 SWAP1 PUSH2 0x631 JUMP JUMPDEST POP SWAP1 JUMP JUMPDEST DUP3 PUSH1 0xA DUP2 ADD SWAP3 DUP3 ISZERO PUSH2 0x620 JUMPI SWAP2 PUSH1 0x20 MUL DUP3 ADD JUMPDEST DUP3 DUP2 GT ISZERO PUSH2 0x61F JUMPI DUP3 MLOAD DUP3 SWAP1 PUSH1 0xFF AND SWAP1 SSTORE SWAP2 PUSH1 0x20 ADD SWAP2 SWAP1 PUSH1 0x1 ADD SWAP1 PUSH2 0x5FF JUMP JUMPDEST JUMPDEST POP SWAP1 POP PUSH2 0x62D SWAP2 SWAP1 PUSH2 0x654 JUMP JUMPDEST POP SWAP1 JUMP JUMPDEST JUMPDEST DUP1 DUP3 GT ISZERO PUSH2 0x650 JUMPI PUSH0 DUP2 DUP2 PUSH2 0x647 SWAP2 SWAP1 PUSH2 0x66F JUMP JUMPDEST POP PUSH1 0xA ADD PUSH2 0x632 JUMP JUMPDEST POP SWAP1 JUMP JUMPDEST JUMPDEST DUP1 DUP3 GT ISZERO PUSH2 0x66B JUMPI PUSH0 DUP2 PUSH0 SWAP1 SSTORE POP PUSH1 0x1 ADD PUSH2 0x655 JUMP JUMPDEST POP SWAP1 JUMP JUMPDEST POP DUP1 PUSH1 0xA ADD SWAP1 PUSH2 0x67F SWAP2 SWAP1 PUSH2 0x654 JUMP JUMPDEST POP JUMP JUMPDEST PUSH0 PUSH1 0x40 MLOAD SWAP1 POP SWAP1 JUMP JUMPDEST PUSH0 DUP1 REVERT JUMPDEST PUSH0 DUP1 REVERT JUMPDEST PUSH0 DUP1 REVERT JUMPDEST PUSH0 DUP1 REVERT JUMPDEST PUSH0 PUSH1 0x1F NOT PUSH1 0x1F DUP4 ADD AND SWAP1 POP SWAP2 SWAP1 POP JUMP JUMPDEST PUSH32 0x4E487B7100000000000000000000000000000000000000000000000000000000 PUSH0 MSTORE PUSH1 0x41 PUSH1 0x4 MSTORE PUSH1 0x24 PUSH0 REVERT JUMPDEST PUSH2 0x6E1 DUP3 PUSH2 0x69B JUMP JUMPDEST DUP2 ADD DUP2 DUP2 LT PUSH8 0xFFFFFFFFFFFFFFFF DUP3 GT OR ISZERO PUSH2 0x700 JUMPI PUSH2 0x6FF PUSH2 0x6AB JUMP JUMPDEST JUMPDEST DUP1 PUSH1 0x40 MSTORE POP POP POP JUMP JUMPDEST PUSH0 PUSH2 0x712 PUSH2 0x682 JUMP JUMPDEST SWAP1 POP PUSH2 0x71E DUP3 DUP3 PUSH2 0x6D8 JUMP JUMPDEST SWAP2 SWAP1 POP JUMP JUMPDEST PUSH0 PUSH8 0xFFFFFFFFFFFFFFFF DUP3 GT ISZERO PUSH2 0x73D JUMPI PUSH2 0x73C PUSH2 0x6AB JUMP JUMPDEST JUMPDEST PUSH2 0x746 DUP3 PUSH2 0x69B JUMP JUMPDEST SWAP1 POP PUSH1 0x20 DUP2 ADD SWAP1 POP SWAP2 SWAP1 POP JUMP JUMPDEST DUP3 DUP2 DUP4 MCOPY PUSH0 DUP4 DUP4 ADD MSTORE POP POP POP JUMP JUMPDEST PUSH0 PUSH2 0x773 PUSH2 0x76E DUP5 PUSH2 0x723 JUMP JUMPDEST PUSH2 0x709 JUMP JUMPDEST SWAP1 POP DUP3 DUP2 MSTORE PUSH1 0x20 DUP2 ADD DUP5 DUP5 DUP5 ADD GT ISZERO PUSH2 0x78F JUMPI PUSH2 0x78E PUSH2 0x697 JUMP JUMPDEST JUMPDEST PUSH2 0x79A DUP5 DUP3 DUP6 PUSH2 0x753 JUMP JUMPDEST POP SWAP4 SWAP3 POP POP POP JUMP JUMPDEST PUSH0 DUP3 PUSH1 0x1F DUP4 ADD SLT PUSH2 0x7B6 JUMPI PUSH2 0x7B5 PUSH2 0x693 JUMP JUMPDEST JUMPDEST DUP2 MLOAD PUSH2 0x7C6 DUP5 DUP3 PUSH1 0x20 DUP7 ADD PUSH2 0x761 JUMP JUMPDEST SWAP2 POP POP SWAP3 SWAP2 POP POP JUMP JUMPDEST PUSH0 DUP1 PUSH0 PUSH1 0x60 DUP5 DUP7 SUB SLT ISZERO PUSH2 0x7E6 JUMPI PUSH2 0x7E5 PUSH2 0x68B JUMP JUMPDEST JUMPDEST PUSH0 DUP5 ADD MLOAD PUSH8 0xFFFFFFFFFFFFFFFF DUP2 GT ISZERO PUSH2 0x803 JUMPI PUSH2 0x802 PUSH2 0x68F JUMP JUMPDEST JUMPDEST PUSH2 0x80F DUP7 DUP3 DUP8 ADD PUSH2 0x7A2 JUMP JUMPDEST SWAP4 POP POP PUSH1 0x20 DUP5 ADD MLOAD PUSH8 0xFFFFFFFFFFFFFFFF DUP2 GT ISZERO PUSH2 0x830 JUMPI PUSH2 0x82F PUSH2 0x68F JUMP JUMPDEST JUMPDEST PUSH2 0x83C DUP7 DUP3 DUP8 ADD PUSH2 0x7A2 JUMP JUMPDEST SWAP3 POP POP PUSH1 0x40 DUP5 ADD MLOAD PUSH8 0xFFFFFFFFFFFFFFFF DUP2 GT ISZERO PUSH2 0x85D JUMPI PUSH2 0x85C PUSH2 0x68F JUMP JUMPDEST JUMPDEST PUSH2 0x869 DUP7 DUP3 DUP8 ADD PUSH2 0x7A2 JUMP JUMPDEST SWAP2 POP POP SWAP3 POP SWAP3 POP SWAP3 JUMP JUMPDEST PUSH0 DUP2 MLOAD SWAP1 POP SWAP2 SWAP1 POP JUMP JUMPDEST PUSH0 DUP2 SWAP1 POP SWAP3 SWAP2 POP POP JUMP JUMPDEST PUSH0 PUSH2 0x891 DUP3 PUSH2 0x873 JUMP JUMPDEST PUSH2 0x89B DUP2 DUP6 PUSH2 0x87D JUMP JUMPDEST SWAP4 POP PUSH2 0x8AB DUP2 DUP6 PUSH1 0x20 DUP7 ADD PUSH2 0x753 JUMP JUMPDEST DUP1 DUP5 ADD SWAP2 POP POP SWAP3 SWAP2 POP POP JUMP JUMPDEST PUSH0 PUSH2 0x8C2 DUP3 DUP5 PUSH2 0x887 JUMP JUMPDEST SWAP2 POP DUP2 SWAP1 POP SWAP3 SWAP2 POP POP JUMP JUMPDEST PUSH0 DUP2 SWAP1 POP SWAP2 SWAP1 POP JUMP JUMPDEST PUSH0 DUP2 SWAP1 POP SWAP2 SWAP1 POP JUMP JUMPDEST PUSH2 0x8F0 PUSH2 0x8EB DUP3 PUSH2 0x8CD JUMP JUMPDEST PUSH2 0x8D6 JUMP JUMPDEST DUP3 MSTORE POP POP JUMP JUMPDEST PUSH0 PUSH2 0x901 DUP3 DUP5 PUSH2 0x8DF JUMP JUMPDEST PUSH1 0x20 DUP3 ADD SWAP2 POP DUP2 SWAP1 POP SWAP3 SWAP2 POP POP JUMP JUMPDEST PUSH2 0x28E1 DUP1 PUSH2 0x91D PUSH0 CODECOPY PUSH0 RETURN INVALID PUSH1 0x80 PUSH1 0x40 MSTORE CALLVALUE DUP1 ISZERO PUSH2 0xF JUMPI PUSH0 DUP1 REVERT JUMPDEST POP PUSH1 0x4 CALLDATASIZE LT PUSH2 0x55 JUMPI PUSH0 CALLDATALOAD PUSH1 0xE0 SHR DUP1 PUSH4 0x4BB792AC EQ PUSH2 0x59 JUMPI DUP1 PUSH4 0x822E242E EQ PUSH2 0x75 JUMPI DUP1 PUSH4 0x963E9F1F EQ PUSH2 0x91 JUMPI DUP1 PUSH4 0xAE9EC457 EQ PUSH2 0xC1 JUMPI DUP1 PUSH4 0xC005A930 EQ PUSH2 0xF1 JUMPI JUMPDEST PUSH0 DUP1 REVERT JUMPDEST PUSH2 0x73 PUSH1 0x4 DUP1 CALLDATASIZE SUB DUP2 ADD SWAP1 PUSH2 0x6E SWAP2 SWAP1 PUSH2 0x1C0B JUMP JUMPDEST PUSH2 0x121 JUMP JUMPDEST STOP JUMPDEST PUSH2 0x8F PUSH1 0x4 DUP1 CALLDATASIZE SUB DUP2 ADD SWAP1 PUSH2 0x8A SWAP2 SWAP1 PUSH2 0x1CA7 JUMP JUMPDEST PUSH2 0x7A7 JUMP JUMPDEST STOP JUMPDEST PUSH2 0xAB PUSH1 0x4 DUP1 CALLDATASIZE SUB DUP2 ADD SWAP1 PUSH2 0xA6 SWAP2 SWAP1 PUSH2 0x1D43 JUMP JUMPDEST PUSH2 0xE2B JUMP JUMPDEST PUSH1 0x40 MLOAD PUSH2 0xB8 SWAP2 SWAP1 PUSH2 0x1F1B JUMP JUMPDEST PUSH1 0x40 MLOAD DUP1 SWAP2 SUB SWAP1 RETURN JUMPDEST PUSH2 0xDB PUSH1 0x4 DUP1 CALLDATASIZE SUB DUP2 ADD SWAP1 PUSH2 0xD6 SWAP2 SWAP1 PUSH2 0x1D43 JUMP JUMPDEST PUSH2 0x104E JUMP JUMPDEST PUSH1 0x40 MLOAD PUSH2 0xE8 SWAP2 SWAP1 PUSH2 0x1F1B JUMP JUMPDEST PUSH1 0x40 MLOAD DUP1 SWAP2 SUB SWAP1 RETURN JUMPDEST PUSH2 0x10B PUSH1 0x4 DUP1 CALLDATASIZE SUB DUP2 ADD SWAP1 PUSH2 0x106 SWAP2 SWAP1 PUSH2 0x1D43 JUMP JUMPDEST PUSH2 0x1270 JUMP JUMPDEST PUSH1 0x40 MLOAD PUSH2 0x118 SWAP2 SWAP1 PUSH2 0x20B1 JUMP JUMPDEST PUSH1 0x40 MLOAD DUP1 SWAP2 SUB SWAP1 RETURN JUMPDEST PUSH1 0x8 DUP3 EQ DUP1 PUSH2 0x130 JUMPI POP PUSH1 0x9 DUP3 EQ JUMPDEST ISZERO PUSH2 0x15A JUMPI PUSH1 0x40 MLOAD DUP1 PUSH1 0x20 ADD PUSH1 0x40 MSTORE DUP1 DUP4 DUP2 MSTORE POP PUSH1 0x6A SWAP1 PUSH1 0x1 PUSH2 0x154 SWAP3 SWAP2 SWAP1 PUSH2 0x19E8 JUMP JUMPDEST POP PUSH2 0x1CE JUMP JUMPDEST PUSH0 JUMPDEST PUSH1 0x8 DUP2 LT ISZERO PUSH2 0x1CC JUMPI PUSH1 0x1 PUSH1 0x6 DUP5 PUSH1 0xA DUP2 LT PUSH2 0x17B JUMPI PUSH2 0x17A PUSH2 0x20D1 JUMP JUMPDEST JUMPDEST PUSH1 0xA MUL ADD DUP3 PUSH1 0xA DUP2 LT PUSH2 0x191 JUMPI PUSH2 0x190 PUSH2 0x20D1 JUMP JUMPDEST JUMPDEST ADD SLOAD SUB PUSH2 0x1BF JUMPI PUSH1 0x6A DUP2 SWAP1 DUP1 PUSH1 0x1 DUP2 SLOAD ADD DUP1 DUP3 SSTORE DUP1 SWAP2 POP POP PUSH1 0x1 SWAP1 SUB SWAP1 PUSH0 MSTORE PUSH1 0x20 PUSH0 KECCAK256 ADD PUSH0 SWAP1 SWAP2 SWAP1 SWAP2 SWAP1 SWAP2 POP SSTORE JUMPDEST DUP1 DUP1 PUSH1 0x1 ADD SWAP2 POP POP PUSH2 0x15C JUMP JUMPDEST POP JUMPDEST PUSH0 DUP1 JUMPDEST PUSH1 0x3 DUP1 SLOAD SWAP1 POP DUP2 LT ISZERO PUSH2 0x78B JUMPI DUP5 DUP1 MLOAD SWAP1 PUSH1 0x20 ADD KECCAK256 PUSH1 0x3 DUP3 DUP2 SLOAD DUP2 LT PUSH2 0x1FA JUMPI PUSH2 0x1F9 PUSH2 0x20D1 JUMP JUMPDEST JUMPDEST SWAP1 PUSH0 MSTORE PUSH1 0x20 PUSH0 KECCAK256 SWAP1 PUSH1 0x4 MUL ADD PUSH1 0x2 ADD PUSH1 0x40 MLOAD PUSH2 0x216 SWAP2 SWAP1 PUSH2 0x21F7 JUMP JUMPDEST PUSH1 0x40 MLOAD DUP1 SWAP2 SUB SWAP1 KECCAK256 SUB PUSH2 0x77E JUMPI PUSH0 JUMPDEST PUSH1 0x6A DUP1 SLOAD SWAP1 POP DUP2 LT ISZERO PUSH2 0x77C JUMPI PUSH1 0x6A DUP2 DUP2 SLOAD DUP2 LT PUSH2 0x246 JUMPI PUSH2 0x245 PUSH2 0x20D1 JUMP JUMPDEST JUMPDEST SWAP1 PUSH0 MSTORE PUSH1 0x20 PUSH0 KECCAK256 ADD SLOAD PUSH1 0x3 DUP4 DUP2 SLOAD DUP2 LT PUSH2 0x263 JUMPI PUSH2 0x262 PUSH2 0x20D1 JUMP JUMPDEST JUMPDEST SWAP1 PUSH0 MSTORE PUSH1 0x20 PUSH0 KECCAK256 SWAP1 PUSH1 0x4 MUL ADD PUSH1 0x1 ADD SLOAD SUB PUSH2 0x76F JUMPI PUSH1 0x1 SWAP3 POP PUSH32 0x2A721C885FFFCF96F50F455DD2CA696CAF61D72D984EA9334DAEA189844A932B PUSH1 0x3 DUP4 DUP2 SLOAD DUP2 LT PUSH2 0x2B1 JUMPI PUSH2 0x2B0 PUSH2 0x20D1 JUMP JUMPDEST JUMPDEST SWAP1 PUSH0 MSTORE PUSH1 0x20 PUSH0 KECCAK256 SWAP1 PUSH1 0x4 MUL ADD PUSH0 ADD PUSH1 0x3 DUP5 DUP2 SLOAD DUP2 LT PUSH2 0x2D3 JUMPI PUSH2 0x2D2 PUSH2 0x20D1 JUMP JUMPDEST JUMPDEST SWAP1 PUSH0 MSTORE PUSH1 0x20 PUSH0 KECCAK256 SWAP1 PUSH1 0x4 MUL ADD PUSH1 0x1 ADD SLOAD PUSH1 0x3 DUP6 DUP2 SLOAD DUP2 LT PUSH2 0x2F7 JUMPI PUSH2 0x2F6 PUSH2 0x20D1 JUMP JUMPDEST JUMPDEST SWAP1 PUSH0 MSTORE PUSH1 0x20 PUSH0 KECCAK256 SWAP1 PUSH1 0x4 MUL ADD PUSH1 0x2 ADD PUSH1 0x3 DUP7 DUP2 SLOAD DUP2 LT PUSH2 0x31A JUMPI PUSH2 0x319 PUSH2 0x20D1 JUMP JUMPDEST JUMPDEST SWAP1 PUSH0 MSTORE PUSH1 0x20 PUSH0 KECCAK256 SWAP1 PUSH1 0x4 MUL ADD PUSH1 0x3 ADD SLOAD PUSH1 0x40 MLOAD PUSH2 0x33A SWAP5 SWAP4 SWAP3 SWAP2 SWAP1 PUSH2 0x22BF JUMP JUMPDEST PUSH1 0x40 MLOAD DUP1 SWAP2 SUB SWAP1 LOG1 PUSH0 PUSH1 0x3 DUP4 DUP2 SLOAD DUP2 LT PUSH2 0x357 JUMPI PUSH2 0x356 PUSH2 0x20D1 JUMP JUMPDEST JUMPDEST SWAP1 PUSH0 MSTORE PUSH1 0x20 PUSH0 KECCAK256 SWAP1 PUSH1 0x4 MUL ADD PUSH1 0x3 ADD SLOAD DUP6 PUSH2 0x372 SWAP2 SWAP1 PUSH2 0x2346 JUMP JUMPDEST SWAP1 POP PUSH0 DUP2 SGT ISZERO PUSH2 0x4BC JUMPI PUSH2 0x49D PUSH1 0x3 DUP5 DUP2 SLOAD DUP2 LT PUSH2 0x393 JUMPI PUSH2 0x392 PUSH2 0x20D1 JUMP JUMPDEST JUMPDEST SWAP1 PUSH0 MSTORE PUSH1 0x20 PUSH0 KECCAK256 SWAP1 PUSH1 0x4 MUL ADD PUSH0 ADD DUP1 SLOAD PUSH2 0x3AC SWAP1 PUSH2 0x212B JUMP JUMPDEST DUP1 PUSH1 0x1F ADD PUSH1 0x20 DUP1 SWAP2 DIV MUL PUSH1 0x20 ADD PUSH1 0x40 MLOAD SWAP1 DUP2 ADD PUSH1 0x40 MSTORE DUP1 SWAP3 SWAP2 SWAP1 DUP2 DUP2 MSTORE PUSH1 0x20 ADD DUP3 DUP1 SLOAD PUSH2 0x3D8 SWAP1 PUSH2 0x212B JUMP JUMPDEST DUP1 ISZERO PUSH2 0x423 JUMPI DUP1 PUSH1 0x1F LT PUSH2 0x3FA JUMPI PUSH2 0x100 DUP1 DUP4 SLOAD DIV MUL DUP4 MSTORE SWAP2 PUSH1 0x20 ADD SWAP2 PUSH2 0x423 JUMP JUMPDEST DUP3 ADD SWAP2 SWAP1 PUSH0 MSTORE PUSH1 0x20 PUSH0 KECCAK256 SWAP1 JUMPDEST DUP2 SLOAD DUP2 MSTORE SWAP1 PUSH1 0x1 ADD SWAP1 PUSH1 0x20 ADD DUP1 DUP4 GT PUSH2 0x406 JUMPI DUP3 SWAP1 SUB PUSH1 0x1F AND DUP3 ADD SWAP2 JUMPDEST POP POP POP POP POP DUP10 PUSH1 0x3 DUP7 DUP2 SLOAD DUP2 LT PUSH2 0x43D JUMPI PUSH2 0x43C PUSH2 0x20D1 JUMP JUMPDEST JUMPDEST SWAP1 PUSH0 MSTORE PUSH1 0x20 PUSH0 KECCAK256 SWAP1 PUSH1 0x4 MUL ADD PUSH1 0x1 ADD SLOAD DUP10 DUP12 PUSH1 0x3 DUP10 DUP2 SLOAD DUP2 LT PUSH2 0x463 JUMPI PUSH2 0x462 PUSH2 0x20D1 JUMP JUMPDEST JUMPDEST SWAP1 PUSH0 MSTORE PUSH1 0x20 PUSH0 KECCAK256 SWAP1 PUSH1 0x4 MUL ADD PUSH1 0x3 ADD SLOAD DUP12 PUSH1 0x3 DUP12 DUP2 SLOAD DUP2 LT PUSH2 0x488 JUMPI PUSH2 0x487 PUSH2 0x20D1 JUMP JUMPDEST JUMPDEST SWAP1 PUSH0 MSTORE PUSH1 0x20 PUSH0 KECCAK256 SWAP1 PUSH1 0x4 MUL ADD PUSH1 0x3 ADD SLOAD PUSH2 0x1542 JUMP JUMPDEST PUSH2 0x4AB DUP9 DUP8 DUP10 DUP5 PUSH1 0x1 PUSH2 0x1627 JUMP JUMPDEST PUSH2 0x4B6 PUSH1 0x3 DUP5 PUSH2 0x1732 JUMP JUMPDEST POP PUSH2 0x77C JUMP JUMPDEST PUSH0 DUP2 SUB PUSH2 0x5F5 JUMPI PUSH2 0x5E4 PUSH1 0x3 DUP5 DUP2 SLOAD DUP2 LT PUSH2 0x4DA JUMPI PUSH2 0x4D9 PUSH2 0x20D1 JUMP JUMPDEST JUMPDEST SWAP1 PUSH0 MSTORE PUSH1 0x20 PUSH0 KECCAK256 SWAP1 PUSH1 0x4 MUL ADD PUSH0 ADD DUP1 SLOAD PUSH2 0x4F3 SWAP1 PUSH2 0x212B JUMP JUMPDEST DUP1 PUSH1 0x1F ADD PUSH1 0x20 DUP1 SWAP2 DIV MUL PUSH1 0x20 ADD PUSH1 0x40 MLOAD SWAP1 DUP2 ADD PUSH1 0x40 MSTORE DUP1 SWAP3 SWAP2 SWAP1 DUP2 DUP2 MSTORE PUSH1 0x20 ADD DUP3 DUP1 SLOAD PUSH2 0x51F SWAP1 PUSH2 0x212B JUMP JUMPDEST DUP1 ISZERO PUSH2 0x56A JUMPI DUP1 PUSH1 0x1F LT PUSH2 0x541 JUMPI PUSH2 0x100 DUP1 DUP4 SLOAD DIV MUL DUP4 MSTORE SWAP2 PUSH1 0x20 ADD SWAP2 PUSH2 0x56A JUMP JUMPDEST DUP3 ADD SWAP2 SWAP1 PUSH0 MSTORE PUSH1 0x20 PUSH0 KECCAK256 SWAP1 JUMPDEST DUP2 SLOAD DUP2 MSTORE SWAP1 PUSH1 0x1 ADD SWAP1 PUSH1 0x20 ADD DUP1 DUP4 GT PUSH2 0x54D JUMPI DUP3 SWAP1 SUB PUSH1 0x1F AND DUP3 ADD SWAP2 JUMPDEST POP POP POP POP POP DUP10 PUSH1 0x3 DUP7 DUP2 SLOAD DUP2 LT PUSH2 0x584 JUMPI PUSH2 0x583 PUSH2 0x20D1 JUMP JUMPDEST JUMPDEST SWAP1 PUSH0 MSTORE PUSH1 0x20 PUSH0 KECCAK256 SWAP1 PUSH1 0x4 MUL ADD PUSH1 0x1 ADD SLOAD DUP10 DUP12 PUSH1 0x3 DUP10 DUP2 SLOAD DUP2 LT PUSH2 0x5AA JUMPI PUSH2 0x5A9 PUSH2 0x20D1 JUMP JUMPDEST JUMPDEST SWAP1 PUSH0 MSTORE PUSH1 0x20 PUSH0 KECCAK256 SWAP1 PUSH1 0x4 MUL ADD PUSH1 0x3 ADD SLOAD DUP12 PUSH1 0x3 DUP12 DUP2 SLOAD DUP2 LT PUSH2 0x5CF JUMPI PUSH2 0x5CE PUSH2 0x20D1 JUMP JUMPDEST JUMPDEST SWAP1 PUSH0 MSTORE PUSH1 0x20 PUSH0 KECCAK256 SWAP1 PUSH1 0x4 MUL ADD PUSH1 0x3 ADD SLOAD PUSH2 0x1542 JUMP JUMPDEST PUSH2 0x5EF PUSH1 0x3 DUP5 PUSH2 0x1732 JUMP JUMPDEST POP PUSH2 0x77C JUMP JUMPDEST PUSH2 0x716 PUSH1 0x3 DUP5 DUP2 SLOAD DUP2 LT PUSH2 0x60C JUMPI PUSH2 0x60B PUSH2 0x20D1 JUMP JUMPDEST JUMPDEST SWAP1 PUSH0 MSTORE PUSH1 0x20 PUSH0 KECCAK256 SWAP1 PUSH1 0x4 MUL ADD PUSH0 ADD DUP1 SLOAD PUSH2 0x625 SWAP1 PUSH2 0x212B JUMP JUMPDEST DUP1 PUSH1 0x1F ADD PUSH1 0x20 DUP1 SWAP2 DIV MUL PUSH1 0x20 ADD PUSH1 0x40 MLOAD SWAP1 DUP2 ADD PUSH1 0x40 MSTORE DUP1 SWAP3 SWAP2 SWAP1 DUP2 DUP2 MSTORE PUSH1 0x20 ADD DUP3 DUP1 SLOAD PUSH2 0x651 SWAP1 PUSH2 0x212B JUMP JUMPDEST DUP1 ISZERO PUSH2 0x69C JUMPI DUP1 PUSH1 0x1F LT PUSH2 0x673 JUMPI PUSH2 0x100 DUP1 DUP4 SLOAD DIV MUL DUP4 MSTORE SWAP2 PUSH1 0x20 ADD SWAP2 PUSH2 0x69C JUMP JUMPDEST DUP3 ADD SWAP2 SWAP1 PUSH0 MSTORE PUSH1 0x20 PUSH0 KECCAK256 SWAP1 JUMPDEST DUP2 SLOAD DUP2 MSTORE SWAP1 PUSH1 0x1 ADD SWAP1 PUSH1 0x20 ADD DUP1 DUP4 GT PUSH2 0x67F JUMPI DUP3 SWAP1 SUB PUSH1 0x1F AND DUP3 ADD SWAP2 JUMPDEST POP POP POP POP POP DUP10 PUSH1 0x3 DUP7 DUP2 SLOAD DUP2 LT PUSH2 0x6B6 JUMPI PUSH2 0x6B5 PUSH2 0x20D1 JUMP JUMPDEST JUMPDEST SWAP1 PUSH0 MSTORE PUSH1 0x20 PUSH0 KECCAK256 SWAP1 PUSH1 0x4 MUL ADD PUSH1 0x1 ADD SLOAD DUP10 DUP12 PUSH1 0x3 DUP10 DUP2 SLOAD DUP2 LT PUSH2 0x6DC JUMPI PUSH2 0x6DB PUSH2 0x20D1 JUMP JUMPDEST JUMPDEST SWAP1 PUSH0 MSTORE PUSH1 0x20 PUSH0 KECCAK256 SWAP1 PUSH1 0x4 MUL ADD PUSH1 0x3 ADD SLOAD DUP12 PUSH1 0x3 DUP12 DUP2 SLOAD DUP2 LT PUSH2 0x701 JUMPI PUSH2 0x700 PUSH2 0x20D1 JUMP JUMPDEST JUMPDEST SWAP1 PUSH0 MSTORE PUSH1 0x20 PUSH0 KECCAK256 SWAP1 PUSH1 0x4 MUL ADD PUSH1 0x3 ADD SLOAD PUSH2 0x1542 JUMP JUMPDEST PUSH32 0xFFFFFFFFFFFFFFFFFFFFFFFFFFFFFFFFFFFFFFFFFFFFFFFFFFFFFFFFFFFFFFFF DUP2 PUSH2 0x742 SWAP2 SWAP1 PUSH2 0x2386 JUMP JUMPDEST PUSH1 0x3 DUP5 DUP2 SLOAD DUP2 LT PUSH2 0x756 JUMPI PUSH2 0x755 PUSH2 0x20D1 JUMP JUMPDEST JUMPDEST SWAP1 PUSH0 MSTORE PUSH1 0x20 PUSH0 KECCAK256 SWAP1 PUSH1 0x4 MUL ADD PUSH1 0x3 ADD DUP2 SWAP1 SSTORE POP POP PUSH2 0x77C JUMP JUMPDEST DUP1 DUP1 PUSH1 0x1 ADD SWAP2 POP POP PUSH2 0x225 JUMP JUMPDEST POP JUMPDEST DUP1 DUP1 PUSH1 0x1 ADD SWAP2 POP POP PUSH2 0x1D1 JUMP JUMPDEST POP DUP1 PUSH2 0x7A0 JUMPI PUSH2 0x79F DUP6 DUP5 DUP7 DUP6 PUSH1 0x1 PUSH2 0x1627 JUMP JUMPDEST JUMPDEST POP POP POP POP POP JUMP JUMPDEST PUSH1 0x8 DUP4 EQ DUP1 PUSH2 0x7B6 JUMPI POP PUSH1 0x9 DUP4 EQ JUMPDEST ISZERO PUSH2 0x7E0 JUMPI PUSH1 0x40 MLOAD DUP1 PUSH1 0x20 ADD PUSH1 0x40 MSTORE DUP1 DUP5 DUP2 MSTORE POP PUSH1 0x6A SWAP1 PUSH1 0x1 PUSH2 0x7DA SWAP3 SWAP2 SWAP1 PUSH2 0x19E8 JUMP JUMPDEST POP PUSH2 0x854 JUMP JUMPDEST PUSH0 JUMPDEST PUSH1 0x8 DUP2 LT ISZERO PUSH2 0x852 JUMPI PUSH1 0x1 PUSH1 0x6 DUP3 PUSH1 0xA DUP2 LT PUSH2 0x801 JUMPI PUSH2 0x800 PUSH2 0x20D1 JUMP JUMPDEST JUMPDEST PUSH1 0xA MUL ADD DUP6 PUSH1 0xA DUP2 LT PUSH2 0x817 JUMPI PUSH2 0x816 PUSH2 0x20D1 JUMP JUMPDEST JUMPDEST ADD SLOAD SUB PUSH2 0x845 JUMPI PUSH1 0x6A DUP2 SWAP1 DUP1 PUSH1 0x1 DUP2 SLOAD ADD DUP1 DUP3 SSTORE DUP1 SWAP2 POP POP PUSH1 0x1 SWAP1 SUB SWAP1 PUSH0 MSTORE PUSH1 0x20 PUSH0 KECCAK256 ADD PUSH0 SWAP1 SWAP2 SWAP1 SWAP2 SWAP1 SWAP2 POP SSTORE JUMPDEST DUP1 DUP1 PUSH1 0x1 ADD SWAP2 POP POP PUSH2 0x7E2 JUMP JUMPDEST POP JUMPDEST PUSH0 DUP1 JUMPDEST PUSH1 0x4 DUP1 SLOAD SWAP1 POP DUP2 LT ISZERO PUSH2 0xE10 JUMPI DUP4 DUP1 MLOAD SWAP1 PUSH1 0x20 ADD KECCAK256 PUSH1 0x4 DUP3 DUP2 SLOAD DUP2 LT PUSH2 0x880 JUMPI PUSH2 0x87F PUSH2 0x20D1 JUMP JUMPDEST JUMPDEST SWAP1 PUSH0 MSTORE PUSH1 0x20 PUSH0 KECCAK256 SWAP1 PUSH1 0x4 MUL ADD PUSH1 0x2 ADD PUSH1 0x40 MLOAD PUSH2 0x89C SWAP2 SWAP1 PUSH2 0x21F7 JUMP JUMPDEST PUSH1 0x40 MLOAD DUP1 SWAP2 SUB SWAP1 KECCAK256 SUB PUSH2 0xE03 JUMPI PUSH0 JUMPDEST PUSH1 0x6A DUP1 SLOAD SWAP1 POP DUP2 LT ISZERO PUSH2 0xE01 JUMPI PUSH1 0x6A DUP2 DUP2 SLOAD DUP2 LT PUSH2 0x8CC JUMPI PUSH2 0x8CB PUSH2 0x20D1 JUMP JUMPDEST JUMPDEST SWAP1 PUSH0 MSTORE PUSH1 0x20 PUSH0 KECCAK256 ADD SLOAD PUSH1 0x4 DUP4 DUP2 SLOAD DUP2 LT PUSH2 0x8E9 JUMPI PUSH2 0x8E8 PUSH2 0x20D1 JUMP JUMPDEST JUMPDEST SWAP1 PUSH0 MSTORE PUSH1 0x20 PUSH0 KECCAK256 SWAP1 PUSH1 0x4 MUL ADD PUSH1 0x1 ADD SLOAD SUB PUSH2 0xDF4 JUMPI PUSH1 0x1 SWAP3 POP PUSH32 0xCC97805E28E324DC39BE995161797F1FDF935C9B4EBAB652EF2CC60DE7F0F394 PUSH1 0x4 DUP4 DUP2 SLOAD DUP2 LT PUSH2 0x937 JUMPI PUSH2 0x936 PUSH2 0x20D1 JUMP JUMPDEST JUMPDEST SWAP1 PUSH0 MSTORE PUSH1 0x20 PUSH0 KECCAK256 SWAP1 PUSH1 0x4 MUL ADD PUSH0 ADD PUSH1 0x4 DUP5 DUP2 SLOAD DUP2 LT PUSH2 0x959 JUMPI PUSH2 0x958 PUSH2 0x20D1 JUMP JUMPDEST JUMPDEST SWAP1 PUSH0 MSTORE PUSH1 0x20 PUSH0 KECCAK256 SWAP1 PUSH1 0x4 MUL ADD PUSH1 0x1 ADD SLOAD PUSH1 0x4 DUP6 DUP2 SLOAD DUP2 LT PUSH2 0x97D JUMPI PUSH2 0x97C PUSH2 0x20D1 JUMP JUMPDEST JUMPDEST SWAP1 PUSH0 MSTORE PUSH1 0x20 PUSH0 KECCAK256 SWAP1 PUSH1 0x4 MUL ADD PUSH1 0x2 ADD PUSH1 0x4 DUP7 DUP2 SLOAD DUP2 LT PUSH2 0x9A0 JUMPI PUSH2 0x99F PUSH2 0x20D1 JUMP JUMPDEST JUMPDEST SWAP1 PUSH0 MSTORE PUSH1 0x20 PUSH0 KECCAK256 SWAP1 PUSH1 0x4 MUL ADD PUSH1 0x3 ADD SLOAD PUSH1 0x40 MLOAD PUSH2 0x9C0 SWAP5 SWAP4 SWAP3 SWAP2 SWAP1 PUSH2 0x22BF JUMP JUMPDEST PUSH1 0x40 MLOAD DUP1 SWAP2 SUB SWAP1 LOG1 PUSH0 PUSH1 0x4 DUP4 DUP2 SLOAD DUP2 LT PUSH2 0x9DD JUMPI PUSH2 0x9DC PUSH2 0x20D1 JUMP JUMPDEST JUMPDEST SWAP1 PUSH0 MSTORE PUSH1 0x20 PUSH0 KECCAK256 SWAP1 PUSH1 0x4 MUL ADD PUSH1 0x3 ADD SLOAD DUP6 PUSH2 0x9F8 SWAP2 SWAP1 PUSH2 0x2346 JUMP JUMPDEST SWAP1 POP PUSH0 DUP2 SGT ISZERO PUSH2 0xB41 JUMPI PUSH2 0xB23 DUP9 PUSH1 0x4 DUP6 DUP2 SLOAD DUP2 LT PUSH2 0xA1A JUMPI PUSH2 0xA19 PUSH2 0x20D1 JUMP JUMPDEST JUMPDEST SWAP1 PUSH0 MSTORE PUSH1 0x20 PUSH0 KECCAK256 SWAP1 PUSH1 0x4 MUL ADD PUSH0 ADD DUP1 SLOAD PUSH2 0xA33 SWAP1 PUSH2 0x212B JUMP JUMPDEST DUP1 PUSH1 0x1F ADD PUSH1 0x20 DUP1 SWAP2 DIV MUL PUSH1 0x20 ADD PUSH1 0x40 MLOAD SWAP1 DUP2 ADD PUSH1 0x40 MSTORE DUP1 SWAP3 SWAP2 SWAP1 DUP2 DUP2 MSTORE PUSH1 0x20 ADD DUP3 DUP1 SLOAD PUSH2 0xA5F SWAP1 PUSH2 0x212B JUMP JUMPDEST DUP1 ISZERO PUSH2 0xAAA JUMPI DUP1 PUSH1 0x1F LT PUSH2 0xA81 JUMPI PUSH2 0x100 DUP1 DUP4 SLOAD DIV MUL DUP4 MSTORE SWAP2 PUSH1 0x20 ADD SWAP2 PUSH2 0xAAA JUMP JUMPDEST DUP3 ADD SWAP2 SWAP1 PUSH0 MSTORE PUSH1 0x20 PUSH0 KECCAK256 SWAP1 JUMPDEST DUP2 SLOAD DUP2 MSTORE SWAP1 PUSH1 0x1 ADD SWAP1 PUSH1 0x20 ADD DUP1 DUP4 GT PUSH2 0xA8D JUMPI DUP3 SWAP1 SUB PUSH1 0x1F AND DUP3 ADD SWAP2 JUMPDEST POP POP POP POP POP DUP10 PUSH1 0x4 DUP8 DUP2 SLOAD DUP2 LT PUSH2 0xAC4 JUMPI PUSH2 0xAC3 PUSH2 0x20D1 JUMP JUMPDEST JUMPDEST SWAP1 PUSH0 MSTORE PUSH1 0x20 PUSH0 KECCAK256 SWAP1 PUSH1 0x4 MUL ADD PUSH1 0x1 ADD SLOAD DUP11 DUP11 PUSH1 0x4 DUP11 DUP2 SLOAD DUP2 LT PUSH2 0xAEA JUMPI PUSH2 0xAE9 PUSH2 0x20D1 JUMP JUMPDEST JUMPDEST SWAP1 PUSH0 MSTORE PUSH1 0x20 PUSH0 KECCAK256 SWAP1 PUSH1 0x4 MUL ADD PUSH1 0x3 ADD SLOAD PUSH1 0x4 DUP12 DUP2 SLOAD DUP2 LT PUSH2 0xB0E JUMPI PUSH2 0xB0D PUSH2 0x20D1 JUMP JUMPDEST JUMPDEST SWAP1 PUSH0 MSTORE PUSH1 0x20 PUSH0 KECCAK256 SWAP1 PUSH1 0x4 MUL ADD PUSH1 0x3 ADD SLOAD PUSH2 0x1542 JUMP JUMPDEST PUSH2 0xB30 DUP9 DUP9 DUP9 DUP5 PUSH0 PUSH2 0x1627 JUMP JUMPDEST PUSH2 0xB3B PUSH1 0x4 DUP5 PUSH2 0x1732 JUMP JUMPDEST POP PUSH2 0xE01 JUMP JUMPDEST PUSH0 DUP2 SUB PUSH2 0xC7A JUMPI PUSH2 0xC69 DUP9 PUSH1 0x4 DUP6 DUP2 SLOAD DUP2 LT PUSH2 0xB60 JUMPI PUSH2 0xB5F PUSH2 0x20D1 JUMP JUMPDEST JUMPDEST SWAP1 PUSH0 MSTORE PUSH1 0x20 PUSH0 KECCAK256 SWAP1 PUSH1 0x4 MUL ADD PUSH0 ADD DUP1 SLOAD PUSH2 0xB79 SWAP1 PUSH2 0x212B JUMP JUMPDEST DUP1 PUSH1 0x1F ADD PUSH1 0x20 DUP1 SWAP2 DIV MUL PUSH1 0x20 ADD PUSH1 0x40 MLOAD SWAP1 DUP2 ADD PUSH1 0x40 MSTORE DUP1 SWAP3 SWAP2 SWAP1 DUP2 DUP2 MSTORE PUSH1 0x20 ADD DUP3 DUP1 SLOAD PUSH2 0xBA5 SWAP1 PUSH2 0x212B JUMP JUMPDEST DUP1 ISZERO PUSH2 0xBF0 JUMPI DUP1 PUSH1 0x1F LT PUSH2 0xBC7 JUMPI PUSH2 0x100 DUP1 DUP4 SLOAD DIV MUL DUP4 MSTORE SWAP2 PUSH1 0x20 ADD SWAP2 PUSH2 0xBF0 JUMP JUMPDEST DUP3 ADD SWAP2 SWAP1 PUSH0 MSTORE PUSH1 0x20 PUSH0 KECCAK256 SWAP1 JUMPDEST DUP2 SLOAD DUP2 MSTORE SWAP1 PUSH1 0x1 ADD SWAP1 PUSH1 0x20 ADD DUP1 DUP4 GT PUSH2 0xBD3 JUMPI DUP3 SWAP1 SUB PUSH1 0x1F AND DUP3 ADD SWAP2 JUMPDEST POP POP POP POP POP DUP10 PUSH1 0x4 DUP8 DUP2 SLOAD DUP2 LT PUSH2 0xC0A JUMPI PUSH2 0xC09 PUSH2 0x20D1 JUMP JUMPDEST JUMPDEST SWAP1 PUSH0 MSTORE PUSH1 0x20 PUSH0 KECCAK256 SWAP1 PUSH1 0x4 MUL ADD PUSH1 0x1 ADD SLOAD DUP11 DUP11 PUSH1 0x4 DUP11 DUP2 SLOAD DUP2 LT PUSH2 0xC30 JUMPI PUSH2 0xC2F PUSH2 0x20D1 JUMP JUMPDEST JUMPDEST SWAP1 PUSH0 MSTORE PUSH1 0x20 PUSH0 KECCAK256 SWAP1 PUSH1 0x4 MUL ADD PUSH1 0x3 ADD SLOAD PUSH1 0x4 DUP12 DUP2 SLOAD DUP2 LT PUSH2 0xC54 JUMPI PUSH2 0xC53 PUSH2 0x20D1 JUMP JUMPDEST JUMPDEST SWAP1 PUSH0 MSTORE PUSH1 0x20 PUSH0 KECCAK256 SWAP1 PUSH1 0x4 MUL ADD PUSH1 0x3 ADD SLOAD PUSH2 0x1542 JUMP JUMPDEST PUSH2 0xC74 PUSH1 0x4 DUP5 PUSH2 0x1732 JUMP JUMPDEST POP PUSH2 0xE01 JUMP JUMPDEST PUSH2 0xD9B DUP9 PUSH1 0x4 DUP6 DUP2 SLOAD DUP2 LT PUSH2 0xC92 JUMPI PUSH2 0xC91 PUSH2 0x20D1 JUMP JUMPDEST JUMPDEST SWAP1 PUSH0 MSTORE PUSH1 0x20 PUSH0 KECCAK256 SWAP1 PUSH1 0x4 MUL ADD PUSH0 ADD DUP1 SLOAD PUSH2 0xCAB SWAP1 PUSH2 0x212B JUMP JUMPDEST DUP1 PUSH1 0x1F ADD PUSH1 0x20 DUP1 SWAP2 DIV MUL PUSH1 0x20 ADD PUSH1 0x40 MLOAD SWAP1 DUP2 ADD PUSH1 0x40 MSTORE DUP1 SWAP3 SWAP2 SWAP1 DUP2 DUP2 MSTORE PUSH1 0x20 ADD DUP3 DUP1 SLOAD PUSH2 0xCD7 SWAP1 PUSH2 0x212B JUMP JUMPDEST DUP1 ISZERO PUSH2 0xD22 JUMPI DUP1 PUSH1 0x1F LT PUSH2 0xCF9 JUMPI PUSH2 0x100 DUP1 DUP4 SLOAD DIV MUL DUP4 MSTORE SWAP2 PUSH1 0x20 ADD SWAP2 PUSH2 0xD22 JUMP JUMPDEST DUP3 ADD SWAP2 SWAP1 PUSH0 MSTORE PUSH1 0x20 PUSH0 KECCAK256 SWAP1 JUMPDEST DUP2 SLOAD DUP2 MSTORE SWAP1 PUSH1 0x1 ADD SWAP1 PUSH1 0x20 ADD DUP1 DUP4 GT PUSH2 0xD05 JUMPI DUP3 SWAP1 SUB PUSH1 0x1F AND DUP3 ADD SWAP2 JUMPDEST POP POP POP POP POP DUP10 PUSH1 0x4 DUP8 DUP2 SLOAD DUP2 LT PUSH2 0xD3C JUMPI PUSH2 0xD3B PUSH2 0x20D1 JUMP JUMPDEST JUMPDEST SWAP1 PUSH0 MSTORE PUSH1 0x20 PUSH0 KECCAK256 SWAP1 PUSH1 0x4 MUL ADD PUSH1 0x1 ADD SLOAD DUP11 DUP11 PUSH1 0x4 DUP11 DUP2 SLOAD DUP2 LT PUSH2 0xD62 JUMPI PUSH2 0xD61 PUSH2 0x20D1 JUMP JUMPDEST JUMPDEST SWAP1 PUSH0 MSTORE PUSH1 0x20 PUSH0 KECCAK256 SWAP1 PUSH1 0x4 MUL ADD PUSH1 0x3 ADD SLOAD PUSH1 0x4 DUP12 DUP2 SLOAD DUP2 LT PUSH2 0xD86 JUMPI PUSH2 0xD85 PUSH2 0x20D1 JUMP JUMPDEST JUMPDEST SWAP1 PUSH0 MSTORE PUSH1 0x20 PUSH0 KECCAK256 SWAP1 PUSH1 0x4 MUL ADD PUSH1 0x3 ADD SLOAD PUSH2 0x1542 JUMP JUMPDEST PUSH32 0xFFFFFFFFFFFFFFFFFFFFFFFFFFFFFFFFFFFFFFFFFFFFFFFFFFFFFFFFFFFFFFFF DUP2 PUSH2 0xDC7 SWAP2 SWAP1 PUSH2 0x2386 JUMP JUMPDEST PUSH1 0x4 DUP5 DUP2 SLOAD DUP2 LT PUSH2 0xDDB JUMPI PUSH2 0xDDA PUSH2 0x20D1 JUMP JUMPDEST JUMPDEST SWAP1 PUSH0 MSTORE PUSH1 0x20 PUSH0 KECCAK256 SWAP1 PUSH1 0x4 MUL ADD PUSH1 0x3 ADD DUP2 SWAP1 SSTORE POP POP PUSH2 0xE01 JUMP JUMPDEST DUP1 DUP1 PUSH1 0x1 ADD SWAP2 POP POP PUSH2 0x8AB JUMP JUMPDEST POP JUMPDEST DUP1 DUP1 PUSH1 0x1 ADD SWAP2 POP POP PUSH2 0x857 JUMP JUMPDEST POP DUP1 PUSH2 0xE24 JUMPI PUSH2 0xE23 DUP6 DUP6 DUP6 DUP6 PUSH0 PUSH2 0x1627 JUMP JUMPDEST JUMPDEST POP POP POP POP POP JUMP JUMPDEST PUSH1 0x60 DUP2 PUSH1 0x1 SLOAD DUP2 PUSH1 0x40 MLOAD PUSH1 0x20 ADD PUSH2 0xE42 SWAP2 SWAP1 PUSH2 0x2436 JUMP JUMPDEST PUSH1 0x40 MLOAD PUSH1 0x20 DUP2 DUP4 SUB SUB DUP2 MSTORE SWAP1 PUSH1 0x40 MSTORE DUP1 MLOAD SWAP1 PUSH1 0x20 ADD KECCAK256 PUSH1 0x40 MLOAD PUSH1 0x20 ADD PUSH2 0xE68 SWAP2 SWAP1 PUSH2 0x2475 JUMP JUMPDEST PUSH1 0x40 MLOAD PUSH1 0x20 DUP2 DUP4 SUB SUB DUP2 MSTORE SWAP1 PUSH1 0x40 MSTORE DUP1 MLOAD SWAP1 PUSH1 0x20 ADD KECCAK256 EQ PUSH2 0xEBE JUMPI PUSH1 0x40 MLOAD PUSH32 0x8C379A000000000000000000000000000000000000000000000000000000000 DUP2 MSTORE PUSH1 0x4 ADD PUSH2 0xEB5 SWAP1 PUSH2 0x24D9 JUMP JUMPDEST PUSH1 0x40 MLOAD DUP1 SWAP2 SUB SWAP1 REVERT JUMPDEST PUSH1 0x4 DUP1 SLOAD DUP1 PUSH1 0x20 MUL PUSH1 0x20 ADD PUSH1 0x40 MLOAD SWAP1 DUP2 ADD PUSH1 0x40 MSTORE DUP1 SWAP3 SWAP2 SWAP1 DUP2 DUP2 MSTORE PUSH1 0x20 ADD PUSH0 SWAP1 JUMPDEST DUP3 DUP3 LT ISZERO PUSH2 0x1042 JUMPI DUP4 DUP3 SWAP1 PUSH0 MSTORE PUSH1 0x20 PUSH0 KECCAK256 SWAP1 PUSH1 0x4 MUL ADD PUSH1 0x40 MLOAD DUP1 PUSH1 0x80 ADD PUSH1 0x40 MSTORE SWAP1 DUP2 PUSH0 DUP3 ADD DUP1 SLOAD PUSH2 0xF0F SWAP1 PUSH2 0x212B JUMP JUMPDEST DUP1 PUSH1 0x1F ADD PUSH1 0x20 DUP1 SWAP2 DIV MUL PUSH1 0x20 ADD PUSH1 0x40 MLOAD SWAP1 DUP2 ADD PUSH1 0x40 MSTORE DUP1 SWAP3 SWAP2 SWAP1 DUP2 DUP2 MSTORE PUSH1 0x20 ADD DUP3 DUP1 SLOAD PUSH2 0xF3B SWAP1 PUSH2 0x212B JUMP JUMPDEST DUP1 ISZERO PUSH2 0xF86 JUMPI DUP1 PUSH1 0x1F LT PUSH2 0xF5D JUMPI PUSH2 0x100 DUP1 DUP4 SLOAD DIV MUL DUP4 MSTORE SWAP2 PUSH1 0x20 ADD SWAP2 PUSH2 0xF86 JUMP JUMPDEST DUP3 ADD SWAP2 SWAP1 PUSH0 MSTORE PUSH1 0x20 PUSH0 KECCAK256 SWAP1 JUMPDEST DUP2 SLOAD DUP2 MSTORE SWAP1 PUSH1 0x1 ADD SWAP1 PUSH1 0x20 ADD DUP1 DUP4 GT PUSH2 0xF69 JUMPI DUP3 SWAP1 SUB PUSH1 0x1F AND DUP3 ADD SWAP2 JUMPDEST POP POP POP POP POP DUP2 MSTORE PUSH1 0x20 ADD PUSH1 0x1 DUP3 ADD SLOAD DUP2 MSTORE PUSH1 0x20 ADD PUSH1 0x2 DUP3 ADD DUP1 SLOAD PUSH2 0xFA9 SWAP1 PUSH2 0x212B JUMP JUMPDEST DUP1 PUSH1 0x1F ADD PUSH1 0x20 DUP1 SWAP2 DIV MUL PUSH1 0x20 ADD PUSH1 0x40 MLOAD SWAP1 DUP2 ADD PUSH1 0x40 MSTORE DUP1 SWAP3 SWAP2 SWAP1 DUP2 DUP2 MSTORE PUSH1 0x20 ADD DUP3 DUP1 SLOAD PUSH2 0xFD5 SWAP1 PUSH2 0x212B JUMP JUMPDEST DUP1 ISZERO PUSH2 0x1020 JUMPI DUP1 PUSH1 0x1F LT PUSH2 0xFF7 JUMPI PUSH2 0x100 DUP1 DUP4 SLOAD DIV MUL DUP4 MSTORE SWAP2 PUSH1 0x20 ADD SWAP2 PUSH2 0x1020 JUMP JUMPDEST DUP3 ADD SWAP2 SWAP1 PUSH0 MSTORE PUSH1 0x20 PUSH0 KECCAK256 SWAP1 JUMPDEST DUP2 SLOAD DUP2 MSTORE SWAP1 PUSH1 0x1 ADD SWAP1 PUSH1 0x20 ADD DUP1 DUP4 GT PUSH2 0x1003 JUMPI DUP3 SWAP1 SUB PUSH1 0x1F AND DUP3 ADD SWAP2 JUMPDEST POP POP POP POP POP DUP2 MSTORE PUSH1 0x20 ADD PUSH1 0x3 DUP3 ADD SLOAD DUP2 MSTORE POP POP DUP2 MSTORE PUSH1 0x20 ADD SWAP1 PUSH1 0x1 ADD SWAP1 PUSH2 0xEDF JUMP JUMPDEST POP POP POP POP SWAP2 POP POP SWAP2 SWAP1 POP JUMP JUMPDEST PUSH1 0x60 DUP2 PUSH0 SLOAD DUP2 PUSH1 0x40 MLOAD PUSH1 0x20 ADD PUSH2 0x1064 SWAP2 SWAP1 PUSH2 0x2436 JUMP JUMPDEST PUSH1 0x40 MLOAD PUSH1 0x20 DUP2 DUP4 SUB SUB DUP2 MSTORE SWAP1 PUSH1 0x40 MSTORE DUP1 MLOAD SWAP1 PUSH1 0x20 ADD KECCAK256 PUSH1 0x40 MLOAD PUSH1 0x20 ADD PUSH2 0x108A SWAP2 SWAP1 PUSH2 0x2475 JUMP JUMPDEST PUSH1 0x40 MLOAD PUSH1 0x20 DUP2 DUP4 SUB SUB DUP2 MSTORE SWAP1 PUSH1 0x40 MSTORE DUP1 MLOAD SWAP1 PUSH1 0x20 ADD KECCAK256 EQ PUSH2 0x10E0 JUMPI PUSH1 0x40 MLOAD PUSH32 0x8C379A000000000000000000000000000000000000000000000000000000000 DUP2 MSTORE PUSH1 0x4 ADD PUSH2 0x10D7 SWAP1 PUSH2 0x24D9 JUMP JUMPDEST PUSH1 0x40 MLOAD DUP1 SWAP2 SUB SWAP1 REVERT JUMPDEST PUSH1 0x3 DUP1 SLOAD DUP1 PUSH1 0x20 MUL PUSH1 0x20 ADD PUSH1 0x40 MLOAD SWAP1 DUP2 ADD PUSH1 0x40 MSTORE DUP1 SWAP3 SWAP2 SWAP1 DUP2 DUP2 MSTORE PUSH1 0x20 ADD PUSH0 SWAP1 JUMPDEST DUP3 DUP3 LT ISZERO PUSH2 0x1264 JUMPI DUP4 DUP3 SWAP1 PUSH0 MSTORE PUSH1 0x20 PUSH0 KECCAK256 SWAP1 PUSH1 0x4 MUL ADD PUSH1 0x40 MLOAD DUP1 PUSH1 0x80 ADD PUSH1 0x40 MSTORE SWAP1 DUP2 PUSH0 DUP3 ADD DUP1 SLOAD PUSH2 0x1131 SWAP1 PUSH2 0x212B JUMP JUMPDEST DUP1 PUSH1 0x1F ADD PUSH1 0x20 DUP1 SWAP2 DIV MUL PUSH1 0x20 ADD PUSH1 0x40 MLOAD SWAP1 DUP2 ADD PUSH1 0x40 MSTORE DUP1 SWAP3 SWAP2 SWAP1 DUP2 DUP2 MSTORE PUSH1 0x20 ADD DUP3 DUP1 SLOAD PUSH2 0x115D SWAP1 PUSH2 0x212B JUMP JUMPDEST DUP1 ISZERO PUSH2 0x11A8 JUMPI DUP1 PUSH1 0x1F LT PUSH2 0x117F JUMPI PUSH2 0x100 DUP1 DUP4 SLOAD DIV MUL DUP4 MSTORE SWAP2 PUSH1 0x20 ADD SWAP2 PUSH2 0x11A8 JUMP JUMPDEST DUP3 ADD SWAP2 SWAP1 PUSH0 MSTORE PUSH1 0x20 PUSH0 KECCAK256 SWAP1 JUMPDEST DUP2 SLOAD DUP2 MSTORE SWAP1 PUSH1 0x1 ADD SWAP1 PUSH1 0x20 ADD DUP1 DUP4 GT PUSH2 0x118B JUMPI DUP3 SWAP1 SUB PUSH1 0x1F AND DUP3 ADD SWAP2 JUMPDEST POP POP POP POP POP DUP2 MSTORE PUSH1 0x20 ADD PUSH1 0x1 DUP3 ADD SLOAD DUP2 MSTORE PUSH1 0x20 ADD PUSH1 0x2 DUP3 ADD DUP1 SLOAD PUSH2 0x11CB SWAP1 PUSH2 0x212B JUMP JUMPDEST DUP1 PUSH1 0x1F ADD PUSH1 0x20 DUP1 SWAP2 DIV MUL PUSH1 0x20 ADD PUSH1 0x40 MLOAD SWAP1 DUP2 ADD PUSH1 0x40 MSTORE DUP1 SWAP3 SWAP2 SWAP1 DUP2 DUP2 MSTORE PUSH1 0x20 ADD DUP3 DUP1 SLOAD PUSH2 0x11F7 SWAP1 PUSH2 0x212B JUMP JUMPDEST DUP1 ISZERO PUSH2 0x1242 JUMPI DUP1 PUSH1 0x1F LT PUSH2 0x1219 JUMPI PUSH2 0x100 DUP1 DUP4 SLOAD DIV MUL DUP4 MSTORE SWAP2 PUSH1 0x20 ADD SWAP2 PUSH2 0x1242 JUMP JUMPDEST DUP3 ADD SWAP2 SWAP1 PUSH0 MSTORE PUSH1 0x20 PUSH0 KECCAK256 SWAP1 JUMPDEST DUP2 SLOAD DUP2 MSTORE SWAP1 PUSH1 0x1 ADD SWAP1 PUSH1 0x20 ADD DUP1 DUP4 GT PUSH2 0x1225 JUMPI DUP3 SWAP1 SUB PUSH1 0x1F AND DUP3 ADD SWAP2 JUMPDEST POP POP POP POP POP DUP2 MSTORE PUSH1 0x20 ADD PUSH1 0x3 DUP3 ADD SLOAD DUP2 MSTORE POP POP DUP2 MSTORE PUSH1 0x20 ADD SWAP1 PUSH1 0x1 ADD SWAP1 PUSH2 0x1101 JUMP JUMPDEST POP POP POP POP SWAP2 POP POP SWAP2 SWAP1 POP JUMP JUMPDEST PUSH1 0x60 DUP2 PUSH1 0x2 SLOAD DUP2 PUSH1 0x40 MLOAD PUSH1 0x20 ADD PUSH2 0x1287 SWAP2 SWAP1 PUSH2 0x2436 JUMP JUMPDEST PUSH1 0x40 MLOAD PUSH1 0x20 DUP2 DUP4 SUB SUB DUP2 MSTORE SWAP1 PUSH1 0x40 MSTORE DUP1 MLOAD SWAP1 PUSH1 0x20 ADD KECCAK256 PUSH1 0x40 MLOAD PUSH1 0x20 ADD PUSH2 0x12AD SWAP2 SWAP1 PUSH2 0x2475 JUMP JUMPDEST PUSH1 0x40 MLOAD PUSH1 0x20 DUP2 DUP4 SUB SUB DUP2 MSTORE SWAP1 PUSH1 0x40 MSTORE DUP1 MLOAD SWAP1 PUSH1 0x20 ADD KECCAK256 EQ PUSH2 0x1303 JUMPI PUSH1 0x40 MLOAD PUSH32 0x8C379A000000000000000000000000000000000000000000000000000000000 DUP2 MSTORE PUSH1 0x4 ADD PUSH2 0x12FA SWAP1 PUSH2 0x24D9 JUMP JUMPDEST PUSH1 0x40 MLOAD DUP1 SWAP2 SUB SWAP1 REVERT JUMPDEST PUSH1 0x5 DUP1 SLOAD DUP1 PUSH1 0x20 MUL PUSH1 0x20 ADD PUSH1 0x40 MLOAD SWAP1 DUP2 ADD PUSH1 0x40 MSTORE DUP1 SWAP3 SWAP2 SWAP1 DUP2 DUP2 MSTORE PUSH1 0x20 ADD PUSH0 SWAP1 JUMPDEST DUP3 DUP3 LT ISZERO PUSH2 0x1536 JUMPI DUP4 DUP3 SWAP1 PUSH0 MSTORE PUSH1 0x20 PUSH0 KECCAK256 SWAP1 PUSH1 0x8 MUL ADD PUSH1 0x40 MLOAD DUP1 PUSH2 0x100 ADD PUSH1 0x40 MSTORE SWAP1 DUP2 PUSH0 DUP3 ADD DUP1 SLOAD PUSH2 0x1355 SWAP1 PUSH2 0x212B JUMP JUMPDEST DUP1 PUSH1 0x1F ADD PUSH1 0x20 DUP1 SWAP2 DIV MUL PUSH1 0x20 ADD PUSH1 0x40 MLOAD SWAP1 DUP2 ADD PUSH1 0x40 MSTORE DUP1 SWAP3 SWAP2 SWAP1 DUP2 DUP2 MSTORE PUSH1 0x20 ADD DUP3 DUP1 SLOAD PUSH2 0x1381 SWAP1 PUSH2 0x212B JUMP JUMPDEST DUP1 ISZERO PUSH2 0x13CC JUMPI DUP1 PUSH1 0x1F LT PUSH2 0x13A3 JUMPI PUSH2 0x100 DUP1 DUP4 SLOAD DIV MUL DUP4 MSTORE SWAP2 PUSH1 0x20 ADD SWAP2 PUSH2 0x13CC JUMP JUMPDEST DUP3 ADD SWAP2 SWAP1 PUSH0 MSTORE PUSH1 0x20 PUSH0 KECCAK256 SWAP1 JUMPDEST DUP2 SLOAD DUP2 MSTORE SWAP1 PUSH1 0x1 ADD SWAP1 PUSH1 0x20 ADD DUP1 DUP4 GT PUSH2 0x13AF JUMPI DUP3 SWAP1 SUB PUSH1 0x1F AND DUP3 ADD SWAP2 JUMPDEST POP POP POP POP POP DUP2 MSTORE PUSH1 0x20 ADD PUSH1 0x1 DUP3 ADD DUP1 SLOAD PUSH2 0x13E5 SWAP1 PUSH2 0x212B JUMP JUMPDEST DUP1 PUSH1 0x1F ADD PUSH1 0x20 DUP1 SWAP2 DIV MUL PUSH1 0x20 ADD PUSH1 0x40 MLOAD SWAP1 DUP2 ADD PUSH1 0x40 MSTORE DUP1 SWAP3 SWAP2 SWAP1 DUP2 DUP2 MSTORE PUSH1 0x20 ADD DUP3 DUP1 SLOAD PUSH2 0x1411 SWAP1 PUSH2 0x212B JUMP JUMPDEST DUP1 ISZERO PUSH2 0x145C JUMPI DUP1 PUSH1 0x1F LT PUSH2 0x1433 JUMPI PUSH2 0x100 DUP1 DUP4 SLOAD DIV MUL DUP4 MSTORE SWAP2 PUSH1 0x20 ADD SWAP2 PUSH2 0x145C JUMP JUMPDEST DUP3 ADD SWAP2 SWAP1 PUSH0 MSTORE PUSH1 0x20 PUSH0 KECCAK256 SWAP1 JUMPDEST DUP2 SLOAD DUP2 MSTORE SWAP1 PUSH1 0x1 ADD SWAP1 PUSH1 0x20 ADD DUP1 DUP4 GT PUSH2 0x143F JUMPI DUP3 SWAP1 SUB PUSH1 0x1F AND DUP3 ADD SWAP2 JUMPDEST POP POP POP POP POP DUP2 MSTORE PUSH1 0x20 ADD PUSH1 0x2 DUP3 ADD SLOAD DUP2 MSTORE PUSH1 0x20 ADD PUSH1 0x3 DUP3 ADD SLOAD DUP2 MSTORE PUSH1 0x20 ADD PUSH1 0x4 DUP3 ADD DUP1 SLOAD PUSH2 0x1489 SWAP1 PUSH2 0x212B JUMP JUMPDEST DUP1 PUSH1 0x1F ADD PUSH1 0x20 DUP1 SWAP2 DIV MUL PUSH1 0x20 ADD PUSH1 0x40 MLOAD SWAP1 DUP2 ADD PUSH1 0x40 MSTORE DUP1 SWAP3 SWAP2 SWAP1 DUP2 DUP2 MSTORE PUSH1 0x20 ADD DUP3 DUP1 SLOAD PUSH2 0x14B5 SWAP1 PUSH2 0x212B JUMP JUMPDEST DUP1 ISZERO PUSH2 0x1500 JUMPI DUP1 PUSH1 0x1F LT PUSH2 0x14D7 JUMPI PUSH2 0x100 DUP1 DUP4 SLOAD DIV MUL DUP4 MSTORE SWAP2 PUSH1 0x20 ADD SWAP2 PUSH2 0x1500 JUMP JUMPDEST DUP3 ADD SWAP2 SWAP1 PUSH0 MSTORE PUSH1 0x20 PUSH0 KECCAK256 SWAP1 JUMPDEST DUP2 SLOAD DUP2 MSTORE SWAP1 PUSH1 0x1 ADD SWAP1 PUSH1 0x20 ADD DUP1 DUP4 GT PUSH2 0x14E3 JUMPI DUP3 SWAP1 SUB PUSH1 0x1F AND DUP3 ADD SWAP2 JUMPDEST POP POP POP POP POP DUP2 MSTORE PUSH1 0x20 ADD PUSH1 0x5 DUP3 ADD SLOAD DUP2 MSTORE PUSH1 0x20 ADD PUSH1 0x6 DUP3 ADD SLOAD DUP2 MSTORE PUSH1 0x20 ADD PUSH1 0x7 DUP3 ADD SLOAD DUP2 MSTORE POP POP DUP2 MSTORE PUSH1 0x20 ADD SWAP1 PUSH1 0x1 ADD SWAP1 PUSH2 0x1324 JUMP JUMPDEST POP POP POP POP SWAP2 POP POP SWAP2 SWAP1 POP JUMP JUMPDEST PUSH0 PUSH1 0x40 MLOAD DUP1 PUSH2 0x100 ADD PUSH1 0x40 MSTORE DUP1 DUP11 DUP2 MSTORE PUSH1 0x20 ADD DUP10 DUP2 MSTORE PUSH1 0x20 ADD DUP9 DUP2 MSTORE PUSH1 0x20 ADD DUP8 DUP2 MSTORE PUSH1 0x20 ADD DUP7 DUP2 MSTORE PUSH1 0x20 ADD DUP6 DUP2 MSTORE PUSH1 0x20 ADD DUP5 DUP2 MSTORE PUSH1 0x20 ADD DUP4 DUP2 MSTORE POP SWAP1 POP PUSH1 0x5 DUP2 SWAP1 DUP1 PUSH1 0x1 DUP2 SLOAD ADD DUP1 DUP3 SSTORE DUP1 SWAP2 POP POP PUSH1 0x1 SWAP1 SUB SWAP1 PUSH0 MSTORE PUSH1 0x20 PUSH0 KECCAK256 SWAP1 PUSH1 0x8 MUL ADD PUSH0 SWAP1 SWAP2 SWAP1 SWAP2 SWAP1 SWAP2 POP PUSH0 DUP3 ADD MLOAD DUP2 PUSH0 ADD SWAP1 DUP2 PUSH2 0x15BB SWAP2 SWAP1 PUSH2 0x2682 JUMP JUMPDEST POP PUSH1 0x20 DUP3 ADD MLOAD DUP2 PUSH1 0x1 ADD SWAP1 DUP2 PUSH2 0x15D1 SWAP2 SWAP1 PUSH2 0x2682 JUMP JUMPDEST POP PUSH1 0x40 DUP3 ADD MLOAD DUP2 PUSH1 0x2 ADD SSTORE PUSH1 0x60 DUP3 ADD MLOAD DUP2 PUSH1 0x3 ADD SSTORE PUSH1 0x80 DUP3 ADD MLOAD DUP2 PUSH1 0x4 ADD SWAP1 DUP2 PUSH2 0x15FB SWAP2 SWAP1 PUSH2 0x2682 JUMP JUMPDEST POP PUSH1 0xA0 DUP3 ADD MLOAD DUP2 PUSH1 0x5 ADD SSTORE PUSH1 0xC0 DUP3 ADD MLOAD DUP2 PUSH1 0x6 ADD SSTORE PUSH1 0xE0 DUP3 ADD MLOAD DUP2 PUSH1 0x7 ADD SSTORE POP POP POP POP POP POP POP POP POP POP POP JUMP JUMPDEST PUSH0 PUSH1 0x40 MLOAD DUP1 PUSH1 0x80 ADD PUSH1 0x40 MSTORE DUP1 DUP8 DUP2 MSTORE PUSH1 0x20 ADD DUP7 DUP2 MSTORE PUSH1 0x20 ADD DUP6 DUP2 MSTORE PUSH1 0x20 ADD DUP5 DUP2 MSTORE POP SWAP1 POP PUSH0 DUP3 SUB PUSH2 0x16C0 JUMPI PUSH1 0x3 DUP2 SWAP1 DUP1 PUSH1 0x1 DUP2 SLOAD ADD DUP1 DUP3 SSTORE DUP1 SWAP2 POP POP PUSH1 0x1 SWAP1 SUB SWAP1 PUSH0 MSTORE PUSH1 0x20 PUSH0 KECCAK256 SWAP1 PUSH1 0x4 MUL ADD PUSH0 SWAP1 SWAP2 SWAP1 SWAP2 SWAP1 SWAP2 POP PUSH0 DUP3 ADD MLOAD DUP2 PUSH0 ADD SWAP1 DUP2 PUSH2 0x168E SWAP2 SWAP1 PUSH2 0x2682 JUMP JUMPDEST POP PUSH1 0x20 DUP3 ADD MLOAD DUP2 PUSH1 0x1 ADD SSTORE PUSH1 0x40 DUP3 ADD MLOAD DUP2 PUSH1 0x2 ADD SWAP1 DUP2 PUSH2 0x16AE SWAP2 SWAP1 PUSH2 0x2682 JUMP JUMPDEST POP PUSH1 0x60 DUP3 ADD MLOAD DUP2 PUSH1 0x3 ADD SSTORE POP POP PUSH2 0x172A JUMP JUMPDEST PUSH1 0x4 DUP2 SWAP1 DUP1 PUSH1 0x1 DUP2 SLOAD ADD DUP1 DUP3 SSTORE DUP1 SWAP2 POP POP PUSH1 0x1 SWAP1 SUB SWAP1 PUSH0 MSTORE PUSH1 0x20 PUSH0 KECCAK256 SWAP1 PUSH1 0x4 MUL ADD PUSH0 SWAP1 SWAP2 SWAP1 SWAP2 SWAP1 SWAP2 POP PUSH0 DUP3 ADD MLOAD DUP2 PUSH0 ADD SWAP1 DUP2 PUSH2 0x16FC SWAP2 SWAP1 PUSH2 0x2682 JUMP JUMPDEST POP PUSH1 0x20 DUP3 ADD MLOAD DUP2 PUSH1 0x1 ADD SSTORE PUSH1 0x40 DUP3 ADD MLOAD DUP2 PUSH1 0x2 ADD SWAP1 DUP2 PUSH2 0x171C SWAP2 SWAP1 PUSH2 0x2682 JUMP JUMPDEST POP PUSH1 0x60 DUP3 ADD MLOAD DUP2 PUSH1 0x3 ADD SSTORE POP POP JUMPDEST POP POP POP POP POP POP JUMP JUMPDEST PUSH0 DUP3 DUP3 DUP2 SLOAD DUP2 LT PUSH2 0x1746 JUMPI PUSH2 0x1745 PUSH2 0x20D1 JUMP JUMPDEST JUMPDEST SWAP1 PUSH0 MSTORE PUSH1 0x20 PUSH0 KECCAK256 SWAP1 PUSH1 0x4 MUL ADD PUSH1 0x40 MLOAD DUP1 PUSH1 0x80 ADD PUSH1 0x40 MSTORE SWAP1 DUP2 PUSH0 DUP3 ADD DUP1 SLOAD PUSH2 0x176C SWAP1 PUSH2 0x212B JUMP JUMPDEST DUP1 PUSH1 0x1F ADD PUSH1 0x20 DUP1 SWAP2 DIV MUL PUSH1 0x20 ADD PUSH1 0x40 MLOAD SWAP1 DUP2 ADD PUSH1 0x40 MSTORE DUP1 SWAP3 SWAP2 SWAP1 DUP2 DUP2 MSTORE PUSH1 0x20 ADD DUP3 DUP1 SLOAD PUSH2 0x1798 SWAP1 PUSH2 0x212B JUMP JUMPDEST DUP1 ISZERO PUSH2 0x17E3 JUMPI DUP1 PUSH1 0x1F LT PUSH2 0x17BA JUMPI PUSH2 0x100 DUP1 DUP4 SLOAD DIV MUL DUP4 MSTORE SWAP2 PUSH1 0x20 ADD SWAP2 PUSH2 0x17E3 JUMP JUMPDEST DUP3 ADD SWAP2 SWAP1 PUSH0 MSTORE PUSH1 0x20 PUSH0 KECCAK256 SWAP1 JUMPDEST DUP2 SLOAD DUP2 MSTORE SWAP1 PUSH1 0x1 ADD SWAP1 PUSH1 0x20 ADD DUP1 DUP4 GT PUSH2 0x17C6 JUMPI DUP3 SWAP1 SUB PUSH1 0x1F AND DUP3 ADD SWAP2 JUMPDEST POP POP POP POP POP DUP2 MSTORE PUSH1 0x20 ADD PUSH1 0x1 DUP3 ADD SLOAD DUP2 MSTORE PUSH1 0x20 ADD PUSH1 0x2 DUP3 ADD DUP1 SLOAD PUSH2 0x1806 SWAP1 PUSH2 0x212B JUMP JUMPDEST DUP1 PUSH1 0x1F ADD PUSH1 0x20 DUP1 SWAP2 DIV MUL PUSH1 0x20 ADD PUSH1 0x40 MLOAD SWAP1 DUP2 ADD PUSH1 0x40 MSTORE DUP1 SWAP3 SWAP2 SWAP1 DUP2 DUP2 MSTORE PUSH1 0x20 ADD DUP3 DUP1 SLOAD PUSH2 0x1832 SWAP1 PUSH2 0x212B JUMP JUMPDEST DUP1 ISZERO PUSH2 0x187D JUMPI DUP1 PUSH1 0x1F LT PUSH2 0x1854 JUMPI PUSH2 0x100 DUP1 DUP4 SLOAD DIV MUL DUP4 MSTORE SWAP2 PUSH1 0x20 ADD SWAP2 PUSH2 0x187D JUMP JUMPDEST DUP3 ADD SWAP2 SWAP1 PUSH0 MSTORE PUSH1 0x20 PUSH0 KECCAK256 SWAP1 JUMPDEST DUP2 SLOAD DUP2 MSTORE SWAP1 PUSH1 0x1 ADD SWAP1 PUSH1 0x20 ADD DUP1 DUP4 GT PUSH2 0x1860 JUMPI DUP3 SWAP1 SUB PUSH1 0x1F AND DUP3 ADD SWAP2 JUMPDEST POP POP POP POP POP DUP2 MSTORE PUSH1 0x20 ADD PUSH1 0x3 DUP3 ADD SLOAD DUP2 MSTORE POP POP SWAP1 POP DUP3 PUSH1 0x1 DUP5 DUP1 SLOAD SWAP1 POP PUSH2 0x18A4 SWAP2 SWAP1 PUSH2 0x2751 JUMP JUMPDEST DUP2 SLOAD DUP2 LT PUSH2 0x18B5 JUMPI PUSH2 0x18B4 PUSH2 0x20D1 JUMP JUMPDEST JUMPDEST SWAP1 PUSH0 MSTORE PUSH1 0x20 PUSH0 KECCAK256 SWAP1 PUSH1 0x4 MUL ADD DUP4 DUP4 DUP2 SLOAD DUP2 LT PUSH2 0x18D4 JUMPI PUSH2 0x18D3 PUSH2 0x20D1 JUMP JUMPDEST JUMPDEST SWAP1 PUSH0 MSTORE PUSH1 0x20 PUSH0 KECCAK256 SWAP1 PUSH1 0x4 MUL ADD PUSH0 DUP3 ADD DUP2 PUSH0 ADD SWAP1 DUP2 PUSH2 0x18F2 SWAP2 SWAP1 PUSH2 0x2799 JUMP JUMPDEST POP PUSH1 0x1 DUP3 ADD SLOAD DUP2 PUSH1 0x1 ADD SSTORE PUSH1 0x2 DUP3 ADD DUP2 PUSH1 0x2 ADD SWAP1 DUP2 PUSH2 0x1911 SWAP2 SWAP1 PUSH2 0x2799 JUMP JUMPDEST POP PUSH1 0x3 DUP3 ADD SLOAD DUP2 PUSH1 0x3 ADD SSTORE SWAP1 POP POP DUP1 DUP4 PUSH1 0x1 DUP6 DUP1 SLOAD SWAP1 POP PUSH2 0x1932 SWAP2 SWAP1 PUSH2 0x2751 JUMP JUMPDEST DUP2 SLOAD DUP2 LT PUSH2 0x1943 JUMPI PUSH2 0x1942 PUSH2 0x20D1 JUMP JUMPDEST JUMPDEST SWAP1 PUSH0 MSTORE PUSH1 0x20 PUSH0 KECCAK256 SWAP1 PUSH1 0x4 MUL ADD PUSH0 DUP3 ADD MLOAD DUP2 PUSH0 ADD SWAP1 DUP2 PUSH2 0x1962 SWAP2 SWAP1 PUSH2 0x2682 JUMP JUMPDEST POP PUSH1 0x20 DUP3 ADD MLOAD DUP2 PUSH1 0x1 ADD SSTORE PUSH1 0x40 DUP3 ADD MLOAD DUP2 PUSH1 0x2 ADD SWAP1 DUP2 PUSH2 0x1982 SWAP2 SWAP1 PUSH2 0x2682 JUMP JUMPDEST POP PUSH1 0x60 DUP3 ADD MLOAD DUP2 PUSH1 0x3 ADD SSTORE SWAP1 POP POP DUP3 DUP1 SLOAD DUP1 PUSH2 0x19A1 JUMPI PUSH2 0x19A0 PUSH2 0x287E JUMP JUMPDEST JUMPDEST PUSH1 0x1 SWAP1 SUB DUP2 DUP2 SWAP1 PUSH0 MSTORE PUSH1 0x20 PUSH0 KECCAK256 SWAP1 PUSH1 0x4 MUL ADD PUSH0 DUP1 DUP3 ADD PUSH0 PUSH2 0x19C2 SWAP2 SWAP1 PUSH2 0x1A33 JUMP JUMPDEST PUSH1 0x1 DUP3 ADD PUSH0 SWAP1 SSTORE PUSH1 0x2 DUP3 ADD PUSH0 PUSH2 0x19D8 SWAP2 SWAP1 PUSH2 0x1A33 JUMP JUMPDEST PUSH1 0x3 DUP3 ADD PUSH0 SWAP1 SSTORE POP POP SWAP1 SSTORE POP POP POP JUMP JUMPDEST DUP3 DUP1 SLOAD DUP3 DUP3 SSTORE SWAP1 PUSH0 MSTORE PUSH1 0x20 PUSH0 KECCAK256 SWAP1 DUP2 ADD SWAP3 DUP3 ISZERO PUSH2 0x1A22 JUMPI SWAP2 PUSH1 0x20 MUL DUP3 ADD JUMPDEST DUP3 DUP2 GT ISZERO PUSH2 0x1A21 JUMPI DUP3 MLOAD DUP3 SSTORE SWAP2 PUSH1 0x20 ADD SWAP2 SWAP1 PUSH1 0x1 ADD SWAP1 PUSH2 0x1A06 JUMP JUMPDEST JUMPDEST POP SWAP1 POP PUSH2 0x1A2F SWAP2 SWAP1 PUSH2 0x1A70 JUMP JUMPDEST POP SWAP1 JUMP JUMPDEST POP DUP1 SLOAD PUSH2 0x1A3F SWAP1 PUSH2 0x212B JUMP JUMPDEST PUSH0 DUP3 SSTORE DUP1 PUSH1 0x1F LT PUSH2 0x1A50 JUMPI POP PUSH2 0x1A6D JUMP JUMPDEST PUSH1 0x1F ADD PUSH1 0x20 SWAP1 DIV SWAP1 PUSH0 MSTORE PUSH1 0x20 PUSH0 KECCAK256 SWAP1 DUP2 ADD SWAP1 PUSH2 0x1A6C SWAP2 SWAP1 PUSH2 0x1A70 JUMP JUMPDEST JUMPDEST POP JUMP JUMPDEST JUMPDEST DUP1 DUP3 GT ISZERO PUSH2 0x1A87 JUMPI PUSH0 DUP2 PUSH0 SWAP1 SSTORE POP PUSH1 0x1 ADD PUSH2 0x1A71 JUMP JUMPDEST POP SWAP1 JUMP JUMPDEST PUSH0 PUSH1 0x40 MLOAD SWAP1 POP SWAP1 JUMP JUMPDEST PUSH0 DUP1 REVERT JUMPDEST PUSH0 DUP1 REVERT JUMPDEST PUSH0 DUP1 REVERT JUMPDEST PUSH0 DUP1 REVERT JUMPDEST PUSH0 PUSH1 0x1F NOT PUSH1 0x1F DUP4 ADD AND SWAP1 POP SWAP2 SWAP1 POP JUMP JUMPDEST PUSH32 0x4E487B7100000000000000000000000000000000000000000000000000000000 PUSH0 MSTORE PUSH1 0x41 PUSH1 0x4 MSTORE PUSH1 0x24 PUSH0 REVERT JUMPDEST PUSH2 0x1AEA DUP3 PUSH2 0x1AA4 JUMP JUMPDEST DUP2 ADD DUP2 DUP2 LT PUSH8 0xFFFFFFFFFFFFFFFF DUP3 GT OR ISZERO PUSH2 0x1B09 JUMPI PUSH2 0x1B08 PUSH2 0x1AB4 JUMP JUMPDEST JUMPDEST DUP1 PUSH1 0x40 MSTORE POP POP POP JUMP JUMPDEST PUSH0 PUSH2 0x1B1B PUSH2 0x1A8B JUMP JUMPDEST SWAP1 POP PUSH2 0x1B27 DUP3 DUP3 PUSH2 0x1AE1 JUMP JUMPDEST SWAP2 SWAP1 POP JUMP JUMPDEST PUSH0 PUSH8 0xFFFFFFFFFFFFFFFF DUP3 GT ISZERO PUSH2 0x1B46 JUMPI PUSH2 0x1B45 PUSH2 0x1AB4 JUMP JUMPDEST JUMPDEST PUSH2 0x1B4F DUP3 PUSH2 0x1AA4 JUMP JUMPDEST SWAP1 POP PUSH1 0x20 DUP2 ADD SWAP1 POP SWAP2 SWAP1 POP JUMP JUMPDEST DUP3 DUP2 DUP4 CALLDATACOPY PUSH0 DUP4 DUP4 ADD MSTORE POP POP POP JUMP JUMPDEST PUSH0 PUSH2 0x1B7C PUSH2 0x1B77 DUP5 PUSH2 0x1B2C JUMP JUMPDEST PUSH2 0x1B12 JUMP JUMPDEST SWAP1 POP DUP3 DUP2 MSTORE PUSH1 0x20 DUP2 ADD DUP5 DUP5 DUP5 ADD GT ISZERO PUSH2 0x1B98 JUMPI PUSH2 0x1B97 PUSH2 0x1AA0 JUMP JUMPDEST JUMPDEST PUSH2 0x1BA3 DUP5 DUP3 DUP6 PUSH2 0x1B5C JUMP JUMPDEST POP SWAP4 SWAP3 POP POP POP JUMP JUMPDEST PUSH0 DUP3 PUSH1 0x1F DUP4 ADD SLT PUSH2 0x1BBF JUMPI PUSH2 0x1BBE PUSH2 0x1A9C JUMP JUMPDEST JUMPDEST DUP2 CALLDATALOAD PUSH2 0x1BCF DUP5 DUP3 PUSH1 0x20 DUP7 ADD PUSH2 0x1B6A JUMP JUMPDEST SWAP2 POP POP SWAP3 SWAP2 POP POP JUMP JUMPDEST PUSH0 DUP2 SWAP1 POP SWAP2 SWAP1 POP JUMP JUMPDEST PUSH2 0x1BEA DUP2 PUSH2 0x1BD8 JUMP JUMPDEST DUP2 EQ PUSH2 0x1BF4 JUMPI PUSH0 DUP1 REVERT JUMPDEST POP JUMP JUMPDEST PUSH0 DUP2 CALLDATALOAD SWAP1 POP PUSH2 0x1C05 DUP2 PUSH2 0x1BE1 JUMP JUMPDEST SWAP3 SWAP2 POP POP JUMP JUMPDEST PUSH0 DUP1 PUSH0 DUP1 PUSH1 0x80 DUP6 DUP8 SUB SLT ISZERO PUSH2 0x1C23 JUMPI PUSH2 0x1C22 PUSH2 0x1A94 JUMP JUMPDEST JUMPDEST PUSH0 DUP6 ADD CALLDATALOAD PUSH8 0xFFFFFFFFFFFFFFFF DUP2 GT ISZERO PUSH2 0x1C40 JUMPI PUSH2 0x1C3F PUSH2 0x1A98 JUMP JUMPDEST JUMPDEST PUSH2 0x1C4C DUP8 DUP3 DUP9 ADD PUSH2 0x1BAB JUMP JUMPDEST SWAP5 POP POP PUSH1 0x20 DUP6 ADD CALLDATALOAD PUSH8 0xFFFFFFFFFFFFFFFF DUP2 GT ISZERO PUSH2 0x1C6D JUMPI PUSH2 0x1C6C PUSH2 0x1A98 JUMP JUMPDEST JUMPDEST PUSH2 0x1C79 DUP8 DUP3 DUP9 ADD PUSH2 0x1BAB JUMP JUMPDEST SWAP4 POP POP PUSH1 0x40 PUSH2 0x1C8A DUP8 DUP3 DUP9 ADD PUSH2 0x1BF7 JUMP JUMPDEST SWAP3 POP POP PUSH1 0x60 PUSH2 0x1C9B DUP8 DUP3 DUP9 ADD PUSH2 0x1BF7 JUMP JUMPDEST SWAP2 POP POP SWAP3 SWAP6 SWAP2 SWAP5 POP SWAP3 POP JUMP JUMPDEST PUSH0 DUP1 PUSH0 DUP1 PUSH1 0x80 DUP6 DUP8 SUB SLT ISZERO PUSH2 0x1CBF JUMPI PUSH2 0x1CBE PUSH2 0x1A94 JUMP JUMPDEST JUMPDEST PUSH0 DUP6 ADD CALLDATALOAD PUSH8 0xFFFFFFFFFFFFFFFF DUP2 GT ISZERO PUSH2 0x1CDC JUMPI PUSH2 0x1CDB PUSH2 0x1A98 JUMP JUMPDEST JUMPDEST PUSH2 0x1CE8 DUP8 DUP3 DUP9 ADD PUSH2 0x1BAB JUMP JUMPDEST SWAP5 POP POP PUSH1 0x20 PUSH2 0x1CF9 DUP8 DUP3 DUP9 ADD PUSH2 0x1BF7 JUMP JUMPDEST SWAP4 POP POP PUSH1 0x40 DUP6 ADD CALLDATALOAD PUSH8 0xFFFFFFFFFFFFFFFF DUP2 GT ISZERO PUSH2 0x1D1A JUMPI PUSH2 0x1D19 PUSH2 0x1A98 JUMP JUMPDEST JUMPDEST PUSH2 0x1D26 DUP8 DUP3 DUP9 ADD PUSH2 0x1BAB JUMP JUMPDEST SWAP3 POP POP PUSH1 0x60 PUSH2 0x1D37 DUP8 DUP3 DUP9 ADD PUSH2 0x1BF7 JUMP JUMPDEST SWAP2 POP POP SWAP3 SWAP6 SWAP2 SWAP5 POP SWAP3 POP JUMP JUMPDEST PUSH0 PUSH1 0x20 DUP3 DUP5 SUB SLT ISZERO PUSH2 0x1D58 JUMPI PUSH2 0x1D57 PUSH2 0x1A94 JUMP JUMPDEST JUMPDEST PUSH0 DUP3 ADD CALLDATALOAD PUSH8 0xFFFFFFFFFFFFFFFF DUP2 GT ISZERO PUSH2 0x1D75 JUMPI PUSH2 0x1D74 PUSH2 0x1A98 JUMP JUMPDEST JUMPDEST PUSH2 0x1D81 DUP5 DUP3 DUP6 ADD PUSH2 0x1BAB JUMP JUMPDEST SWAP2 POP POP SWAP3 SWAP2 POP POP JUMP JUMPDEST PUSH0 DUP2 MLOAD SWAP1 POP SWAP2 SWAP1 POP JUMP JUMPDEST PUSH0 DUP3 DUP3 MSTORE PUSH1 0x20 DUP3 ADD SWAP1 POP SWAP3 SWAP2 POP POP JUMP JUMPDEST PUSH0 DUP2 SWAP1 POP PUSH1 0x20 DUP3 ADD SWAP1 POP SWAP2 SWAP1 POP JUMP JUMPDEST PUSH0 DUP2 MLOAD SWAP1 POP SWAP2 SWAP1 POP JUMP JUMPDEST PUSH0 DUP3 DUP3 MSTORE PUSH1 0x20 DUP3 ADD SWAP1 POP SWAP3 SWAP2 POP POP JUMP JUMPDEST DUP3 DUP2 DUP4 MCOPY PUSH0 DUP4 DUP4 ADD MSTORE POP POP POP JUMP JUMPDEST PUSH0 PUSH2 0x1DE5 DUP3 PUSH2 0x1DB3 JUMP JUMPDEST PUSH2 0x1DEF DUP2 DUP6 PUSH2 0x1DBD JUMP JUMPDEST SWAP4 POP PUSH2 0x1DFF DUP2 DUP6 PUSH1 0x20 DUP7 ADD PUSH2 0x1DCD JUMP JUMPDEST PUSH2 0x1E08 DUP2 PUSH2 0x1AA4 JUMP JUMPDEST DUP5 ADD SWAP2 POP POP SWAP3 SWAP2 POP POP JUMP JUMPDEST PUSH2 0x1E1C DUP2 PUSH2 0x1BD8 JUMP JUMPDEST DUP3 MSTORE POP POP JUMP JUMPDEST PUSH0 PUSH1 0x80 DUP4 ADD PUSH0 DUP4 ADD MLOAD DUP5 DUP3 SUB PUSH0 DUP7 ADD MSTORE PUSH2 0x1E3C DUP3 DUP3 PUSH2 0x1DDB JUMP JUMPDEST SWAP2 POP POP PUSH1 0x20 DUP4 ADD MLOAD PUSH2 0x1E51 PUSH1 0x20 DUP7 ADD DUP3 PUSH2 0x1E13 JUMP JUMPDEST POP PUSH1 0x40 DUP4 ADD MLOAD DUP5 DUP3 SUB PUSH1 0x40 DUP7 ADD MSTORE PUSH2 0x1E69 DUP3 DUP3 PUSH2 0x1DDB JUMP JUMPDEST SWAP2 POP POP PUSH1 0x60 DUP4 ADD MLOAD PUSH2 0x1E7E PUSH1 0x60 DUP7 ADD DUP3 PUSH2 0x1E13 JUMP JUMPDEST POP DUP1 SWAP2 POP POP SWAP3 SWAP2 POP POP JUMP JUMPDEST PUSH0 PUSH2 0x1E94 DUP4 DUP4 PUSH2 0x1E22 JUMP JUMPDEST SWAP1 POP SWAP3 SWAP2 POP POP JUMP JUMPDEST PUSH0 PUSH1 0x20 DUP3 ADD SWAP1 POP SWAP2 SWAP1 POP JUMP JUMPDEST PUSH0 PUSH2 0x1EB2 DUP3 PUSH2 0x1D8A JUMP JUMPDEST PUSH2 0x1EBC DUP2 DUP6 PUSH2 0x1D94 JUMP JUMPDEST SWAP4 POP DUP4 PUSH1 0x20 DUP3 MUL DUP6 ADD PUSH2 0x1ECE DUP6 PUSH2 0x1DA4 JUMP JUMPDEST DUP1 PUSH0 JUMPDEST DUP6 DUP2 LT ISZERO PUSH2 0x1F09 JUMPI DUP5 DUP5 SUB DUP10 MSTORE DUP2 MLOAD PUSH2 0x1EEA DUP6 DUP3 PUSH2 0x1E89 JUMP JUMPDEST SWAP5 POP PUSH2 0x1EF5 DUP4 PUSH2 0x1E9C JUMP JUMPDEST SWAP3 POP PUSH1 0x20 DUP11 ADD SWAP10 POP POP PUSH1 0x1 DUP2 ADD SWAP1 POP PUSH2 0x1ED1 JUMP JUMPDEST POP DUP3 SWAP8 POP DUP8 SWAP6 POP POP POP POP POP POP SWAP3 SWAP2 POP POP JUMP JUMPDEST PUSH0 PUSH1 0x20 DUP3 ADD SWAP1 POP DUP2 DUP2 SUB PUSH0 DUP4 ADD MSTORE PUSH2 0x1F33 DUP2 DUP5 PUSH2 0x1EA8 JUMP JUMPDEST SWAP1 POP SWAP3 SWAP2 POP POP JUMP JUMPDEST PUSH0 DUP2 MLOAD SWAP1 POP SWAP2 SWAP1 POP JUMP JUMPDEST PUSH0 DUP3 DUP3 MSTORE PUSH1 0x20 DUP3 ADD SWAP1 POP SWAP3 SWAP2 POP POP JUMP JUMPDEST PUSH0 DUP2 SWAP1 POP PUSH1 0x20 DUP3 ADD SWAP1 POP SWAP2 SWAP1 POP JUMP JUMPDEST PUSH0 PUSH2 0x100 DUP4 ADD PUSH0 DUP4 ADD MLOAD DUP5 DUP3 SUB PUSH0 DUP7 ADD MSTORE PUSH2 0x1F7F DUP3 DUP3 PUSH2 0x1DDB JUMP JUMPDEST SWAP2 POP POP PUSH1 0x20 DUP4 ADD MLOAD DUP5 DUP3 SUB PUSH1 0x20 DUP7 ADD MSTORE PUSH2 0x1F99 DUP3 DUP3 PUSH2 0x1DDB JUMP JUMPDEST SWAP2 POP POP PUSH1 0x40 DUP4 ADD MLOAD PUSH2 0x1FAE PUSH1 0x40 DUP7 ADD DUP3 PUSH2 0x1E13 JUMP JUMPDEST POP PUSH1 0x60 DUP4 ADD MLOAD PUSH2 0x1FC1 PUSH1 0x60 DUP7 ADD DUP3 PUSH2 0x1E13 JUMP JUMPDEST POP PUSH1 0x80 DUP4 ADD MLOAD DUP5 DUP3 SUB PUSH1 0x80 DUP7 ADD MSTORE PUSH2 0x1FD9 DUP3 DUP3 PUSH2 0x1DDB JUMP JUMPDEST SWAP2 POP POP PUSH1 0xA0 DUP4 ADD MLOAD PUSH2 0x1FEE PUSH1 0xA0 DUP7 ADD DUP3 PUSH2 0x1E13 JUMP JUMPDEST POP PUSH1 0xC0 DUP4 ADD MLOAD PUSH2 0x2001 PUSH1 0xC0 DUP7 ADD DUP3 PUSH2 0x1E13 JUMP JUMPDEST POP PUSH1 0xE0 DUP4 ADD MLOAD PUSH2 0x2014 PUSH1 0xE0 DUP7 ADD DUP3 PUSH2 0x1E13 JUMP JUMPDEST POP DUP1 SWAP2 POP POP SWAP3 SWAP2 POP POP JUMP JUMPDEST PUSH0 PUSH2 0x202A DUP4 DUP4 PUSH2 0x1F64 JUMP JUMPDEST SWAP1 POP SWAP3 SWAP2 POP POP JUMP JUMPDEST PUSH0 PUSH1 0x20 DUP3 ADD SWAP1 POP SWAP2 SWAP1 POP JUMP JUMPDEST PUSH0 PUSH2 0x2048 DUP3 PUSH2 0x1F3B JUMP JUMPDEST PUSH2 0x2052 DUP2 DUP6 PUSH2 0x1F45 JUMP JUMPDEST SWAP4 POP DUP4 PUSH1 0x20 DUP3 MUL DUP6 ADD PUSH2 0x2064 DUP6 PUSH2 0x1F55 JUMP JUMPDEST DUP1 PUSH0 JUMPDEST DUP6 DUP2 LT ISZERO PUSH2 0x209F JUMPI DUP5 DUP5 SUB DUP10 MSTORE DUP2 MLOAD PUSH2 0x2080 DUP6 DUP3 PUSH2 0x201F JUMP JUMPDEST SWAP5 POP PUSH2 0x208B DUP4 PUSH2 0x2032 JUMP JUMPDEST SWAP3 POP PUSH1 0x20 DUP11 ADD SWAP10 POP POP PUSH1 0x1 DUP2 ADD SWAP1 POP PUSH2 0x2067 JUMP JUMPDEST POP DUP3 SWAP8 POP DUP8 SWAP6 POP POP POP POP POP POP SWAP3 SWAP2 POP POP JUMP JUMPDEST PUSH0 PUSH1 0x20 DUP3 ADD SWAP1 POP DUP2 DUP2 SUB PUSH0 DUP4 ADD MSTORE PUSH2 0x20C9 DUP2 DUP5 PUSH2 0x203E JUMP JUMPDEST SWAP1 POP SWAP3 SWAP2 POP POP JUMP JUMPDEST PUSH32 0x4E487B7100000000000000000000000000000000000000000000000000000000 PUSH0 MSTORE PUSH1 0x32 PUSH1 0x4 MSTORE PUSH1 0x24 PUSH0 REVERT JUMPDEST PUSH32 0x4E487B7100000000000000000000000000000000000000000000000000000000 PUSH0 MSTORE PUSH1 0x22 PUSH1 0x4 MSTORE PUSH1 0x24 PUSH0 REVERT JUMPDEST PUSH0 PUSH1 0x2 DUP3 DIV SWAP1 POP PUSH1 0x1 DUP3 AND DUP1 PUSH2 0x2142 JUMPI PUSH1 0x7F DUP3 AND SWAP2 POP JUMPDEST PUSH1 0x20 DUP3 LT DUP2 SUB PUSH2 0x2155 JUMPI PUSH2 0x2154 PUSH2 0x20FE JUMP JUMPDEST JUMPDEST POP SWAP2 SWAP1 POP JUMP JUMPDEST PUSH0 DUP2 SWAP1 POP SWAP3 SWAP2 POP POP JUMP JUMPDEST PUSH0 DUP2 SWAP1 POP DUP2 PUSH0 MSTORE PUSH1 0x20 PUSH0 KECCAK256 SWAP1 POP SWAP2 SWAP1 POP JUMP JUMPDEST PUSH0 DUP2 SLOAD PUSH2 0x2183 DUP2 PUSH2 0x212B JUMP JUMPDEST PUSH2 0x218D DUP2 DUP7 PUSH2 0x215B JUMP JUMPDEST SWAP5 POP PUSH1 0x1 DUP3 AND PUSH0 DUP2 EQ PUSH2 0x21A7 JUMPI PUSH1 0x1 DUP2 EQ PUSH2 0x21BC JUMPI PUSH2 0x21EE JUMP JUMPDEST PUSH1 0xFF NOT DUP4 AND DUP7 MSTORE DUP2 ISZERO ISZERO DUP3 MUL DUP7 ADD SWAP4 POP PUSH2 0x21EE JUMP JUMPDEST PUSH2 0x21C5 DUP6 PUSH2 0x2165 JUMP JUMPDEST PUSH0 JUMPDEST DUP4 DUP2 LT ISZERO PUSH2 0x21E6 JUMPI DUP2 SLOAD DUP2 DUP10 ADD MSTORE PUSH1 0x1 DUP3 ADD SWAP2 POP PUSH1 0x20 DUP2 ADD SWAP1 POP PUSH2 0x21C7 JUMP JUMPDEST DUP4 DUP9 ADD SWAP6 POP POP POP JUMPDEST POP POP POP SWAP3 SWAP2 POP POP JUMP JUMPDEST PUSH0 PUSH2 0x2202 DUP3 DUP5 PUSH2 0x2177 JUMP JUMPDEST SWAP2 POP DUP2 SWAP1 POP SWAP3 SWAP2 POP POP JUMP JUMPDEST PUSH0 DUP3 DUP3 MSTORE PUSH1 0x20 DUP3 ADD SWAP1 POP SWAP3 SWAP2 POP POP JUMP JUMPDEST PUSH0 DUP2 SWAP1 POP DUP2 PUSH0 MSTORE PUSH1 0x20 PUSH0 KECCAK256 SWAP1 POP SWAP2 SWAP1 POP JUMP JUMPDEST PUSH0 DUP2 SLOAD PUSH2 0x223B DUP2 PUSH2 0x212B JUMP JUMPDEST PUSH2 0x2245 DUP2 DUP7 PUSH2 0x220D JUMP JUMPDEST SWAP5 POP PUSH1 0x1 DUP3 AND PUSH0 DUP2 EQ PUSH2 0x225F JUMPI PUSH1 0x1 DUP2 EQ PUSH2 0x2275 JUMPI PUSH2 0x22A7 JUMP JUMPDEST PUSH1 0xFF NOT DUP4 AND DUP7 MSTORE DUP2 ISZERO ISZERO PUSH1 0x20 MUL DUP7 ADD SWAP4 POP PUSH2 0x22A7 JUMP JUMPDEST PUSH2 0x227E DUP6 PUSH2 0x221D JUMP JUMPDEST PUSH0 JUMPDEST DUP4 DUP2 LT ISZERO PUSH2 0x229F JUMPI DUP2 SLOAD DUP2 DUP10 ADD MSTORE PUSH1 0x1 DUP3 ADD SWAP2 POP PUSH1 0x20 DUP2 ADD SWAP1 POP PUSH2 0x2280 JUMP JUMPDEST DUP1 DUP9 ADD SWAP6 POP POP POP JUMPDEST POP POP POP SWAP3 SWAP2 POP POP JUMP JUMPDEST PUSH2 0x22B9 DUP2 PUSH2 0x1BD8 JUMP JUMPDEST DUP3 MSTORE POP POP JUMP JUMPDEST PUSH0 PUSH1 0x80 DUP3 ADD SWAP1 POP DUP2 DUP2 SUB PUSH0 DUP4 ADD MSTORE PUSH2 0x22D7 DUP2 DUP8 PUSH2 0x222F JUMP JUMPDEST SWAP1 POP PUSH2 0x22E6 PUSH1 0x20 DUP4 ADD DUP7 PUSH2 0x22B0 JUMP JUMPDEST DUP2 DUP2 SUB PUSH1 0x40 DUP4 ADD MSTORE PUSH2 0x22F8 DUP2 DUP6 PUSH2 0x222F JUMP JUMPDEST SWAP1 POP PUSH2 0x2307 PUSH1 0x60 DUP4 ADD DUP5 PUSH2 0x22B0 JUMP JUMPDEST SWAP6 SWAP5 POP POP POP POP POP JUMP JUMPDEST PUSH0 DUP2 SWAP1 POP SWAP2 SWAP1 POP JUMP JUMPDEST PUSH32 0x4E487B7100000000000000000000000000000000000000000000000000000000 PUSH0 MSTORE PUSH1 0x11 PUSH1 0x4 MSTORE PUSH1 0x24 PUSH0 REVERT JUMPDEST PUSH0 PUSH2 0x2350 DUP3 PUSH2 0x2310 JUMP JUMPDEST SWAP2 POP PUSH2 0x235B DUP4 PUSH2 0x2310 JUMP JUMPDEST SWAP3 POP DUP3 DUP3 SUB SWAP1 POP DUP2 DUP2 SLT PUSH0 DUP5 SLT AND DUP3 DUP3 SGT PUSH0 DUP6 SLT ISZERO AND OR ISZERO PUSH2 0x2380 JUMPI PUSH2 0x237F PUSH2 0x2319 JUMP JUMPDEST JUMPDEST SWAP3 SWAP2 POP POP JUMP JUMPDEST PUSH0 PUSH2 0x2390 DUP3 PUSH2 0x2310 JUMP JUMPDEST SWAP2 POP PUSH2 0x239B DUP4 PUSH2 0x2310 JUMP JUMPDEST SWAP3 POP DUP3 DUP3 MUL PUSH2 0x23A9 DUP2 PUSH2 0x2310 JUMP JUMPDEST SWAP2 POP PUSH32 0x8000000000000000000000000000000000000000000000000000000000000000 DUP5 EQ PUSH0 DUP5 SLT AND ISZERO PUSH2 0x23E0 JUMPI PUSH2 0x23DF PUSH2 0x2319 JUMP JUMPDEST JUMPDEST DUP3 DUP3 SDIV DUP5 EQ DUP4 ISZERO OR PUSH2 0x23F5 JUMPI PUSH2 0x23F4 PUSH2 0x2319 JUMP JUMPDEST JUMPDEST POP SWAP3 SWAP2 POP POP JUMP JUMPDEST PUSH0 DUP2 SWAP1 POP SWAP3 SWAP2 POP POP JUMP JUMPDEST PUSH0 PUSH2 0x2410 DUP3 PUSH2 0x1DB3 JUMP JUMPDEST PUSH2 0x241A DUP2 DUP6 PUSH2 0x23FC JUMP JUMPDEST SWAP4 POP PUSH2 0x242A DUP2 DUP6 PUSH1 0x20 DUP7 ADD PUSH2 0x1DCD JUMP JUMPDEST DUP1 DUP5 ADD SWAP2 POP POP SWAP3 SWAP2 POP POP JUMP JUMPDEST PUSH0 PUSH2 0x2441 DUP3 DUP5 PUSH2 0x2406 JUMP JUMPDEST SWAP2 POP DUP2 SWAP1 POP SWAP3 SWAP2 POP POP JUMP JUMPDEST PUSH0 DUP2 SWAP1 POP SWAP2 SWAP1 POP JUMP JUMPDEST PUSH0 DUP2 SWAP1 POP SWAP2 SWAP1 POP JUMP JUMPDEST PUSH2 0x246F PUSH2 0x246A DUP3 PUSH2 0x244C JUMP JUMPDEST PUSH2 0x2455 JUMP JUMPDEST DUP3 MSTORE POP POP JUMP JUMPDEST PUSH0 PUSH2 0x2480 DUP3 DUP5 PUSH2 0x245E JUMP JUMPDEST PUSH1 0x20 DUP3 ADD SWAP2 POP DUP2 SWAP1 POP SWAP3 SWAP2 POP POP JUMP JUMPDEST PUSH32 0x496E636F72726563742070617373776F72642100000000000000000000000000 PUSH0 DUP3 ADD MSTORE POP JUMP JUMPDEST PUSH0 PUSH2 0x24C3 PUSH1 0x13 DUP4 PUSH2 0x220D JUMP JUMPDEST SWAP2 POP PUSH2 0x24CE DUP3 PUSH2 0x248F JUMP JUMPDEST PUSH1 0x20 DUP3 ADD SWAP1 POP SWAP2 SWAP1 POP JUMP JUMPDEST PUSH0 PUSH1 0x20 DUP3 ADD SWAP1 POP DUP2 DUP2 SUB PUSH0 DUP4 ADD MSTORE PUSH2 0x24F0 DUP2 PUSH2 0x24B7 JUMP JUMPDEST SWAP1 POP SWAP2 SWAP1 POP JUMP JUMPDEST PUSH0 PUSH1 0x20 PUSH1 0x1F DUP4 ADD DIV SWAP1 POP SWAP2 SWAP1 POP JUMP JUMPDEST PUSH0 DUP3 DUP3 SHL SWAP1 POP SWAP3 SWAP2 POP POP JUMP JUMPDEST PUSH0 PUSH1 0x8 DUP4 MUL PUSH2 0x2541 PUSH32 0xFFFFFFFFFFFFFFFFFFFFFFFFFFFFFFFFFFFFFFFFFFFFFFFFFFFFFFFFFFFFFFFF DUP3 PUSH2 0x2506 JUMP JUMPDEST PUSH2 0x254B DUP7 DUP4 PUSH2 0x2506 JUMP JUMPDEST SWAP6 POP DUP1 NOT DUP5 AND SWAP4 POP DUP1 DUP7 AND DUP5 OR SWAP3 POP POP POP SWAP4 SWAP3 POP POP POP JUMP JUMPDEST PUSH0 DUP2 SWAP1 POP SWAP2 SWAP1 POP JUMP JUMPDEST PUSH0 PUSH2 0x2586 PUSH2 0x2581 PUSH2 0x257C DUP5 PUSH2 0x1BD8 JUMP JUMPDEST PUSH2 0x2563 JUMP JUMPDEST PUSH2 0x1BD8 JUMP JUMPDEST SWAP1 POP SWAP2 SWAP1 POP JUMP JUMPDEST PUSH0 DUP2 SWAP1 POP SWAP2 SWAP1 POP JUMP JUMPDEST PUSH2 0x259F DUP4 PUSH2 0x256C JUMP JUMPDEST PUSH2 0x25B3 PUSH2 0x25AB DUP3 PUSH2 0x258D JUMP JUMPDEST DUP5 DUP5 SLOAD PUSH2 0x2512 JUMP JUMPDEST DUP3 SSTORE POP POP POP POP JUMP JUMPDEST PUSH0 SWAP1 JUMP JUMPDEST PUSH2 0x25C7 PUSH2 0x25BB JUMP JUMPDEST PUSH2 0x25D2 DUP2 DUP5 DUP5 PUSH2 0x2596 JUMP JUMPDEST POP POP POP JUMP JUMPDEST JUMPDEST DUP2 DUP2 LT ISZERO PUSH2 0x25F5 JUMPI PUSH2 0x25EA PUSH0 DUP3 PUSH2 0x25BF JUMP JUMPDEST PUSH1 0x1 DUP2 ADD SWAP1 POP PUSH2 0x25D8 JUMP JUMPDEST POP POP JUMP JUMPDEST PUSH1 0x1F DUP3 GT ISZERO PUSH2 0x263A JUMPI PUSH2 0x260B DUP2 PUSH2 0x221D JUMP JUMPDEST PUSH2 0x2614 DUP5 PUSH2 0x24F7 JUMP JUMPDEST DUP2 ADD PUSH1 0x20 DUP6 LT ISZERO PUSH2 0x2623 JUMPI DUP2 SWAP1 POP JUMPDEST PUSH2 0x2637 PUSH2 0x262F DUP6 PUSH2 0x24F7 JUMP JUMPDEST DUP4 ADD DUP3 PUSH2 0x25D7 JUMP JUMPDEST POP POP JUMPDEST POP POP POP JUMP JUMPDEST PUSH0 DUP3 DUP3 SHR SWAP1 POP SWAP3 SWAP2 POP POP JUMP JUMPDEST PUSH0 PUSH2 0x265A PUSH0 NOT DUP5 PUSH1 0x8 MUL PUSH2 0x263F JUMP JUMPDEST NOT DUP1 DUP4 AND SWAP2 POP POP SWAP3 SWAP2 POP POP JUMP JUMPDEST PUSH0 PUSH2 0x2672 DUP4 DUP4 PUSH2 0x264B JUMP JUMPDEST SWAP2 POP DUP3 PUSH1 0x2 MUL DUP3 OR SWAP1 POP SWAP3 SWAP2 POP POP JUMP JUMPDEST PUSH2 0x268B DUP3 PUSH2 0x1DB3 JUMP JUMPDEST PUSH8 0xFFFFFFFFFFFFFFFF DUP2 GT ISZERO PUSH2 0x26A4 JUMPI PUSH2 0x26A3 PUSH2 0x1AB4 JUMP JUMPDEST JUMPDEST PUSH2 0x26AE DUP3 SLOAD PUSH2 0x212B JUMP JUMPDEST PUSH2 0x26B9 DUP3 DUP3 DUP6 PUSH2 0x25F9 JUMP JUMPDEST PUSH0 PUSH1 0x20 SWAP1 POP PUSH1 0x1F DUP4 GT PUSH1 0x1 DUP2 EQ PUSH2 0x26EA JUMPI PUSH0 DUP5 ISZERO PUSH2 0x26D8 JUMPI DUP3 DUP8 ADD MLOAD SWAP1 POP JUMPDEST PUSH2 0x26E2 DUP6 DUP3 PUSH2 0x2667 JUMP JUMPDEST DUP7 SSTORE POP PUSH2 0x2749 JUMP JUMPDEST PUSH1 0x1F NOT DUP5 AND PUSH2 0x26F8 DUP7 PUSH2 0x221D JUMP JUMPDEST PUSH0 JUMPDEST DUP3 DUP2 LT ISZERO PUSH2 0x271F JUMPI DUP5 DUP10 ADD MLOAD DUP3 SSTORE PUSH1 0x1 DUP3 ADD SWAP2 POP PUSH1 0x20 DUP6 ADD SWAP5 POP PUSH1 0x20 DUP2 ADD SWAP1 POP PUSH2 0x26FA JUMP JUMPDEST DUP7 DUP4 LT ISZERO PUSH2 0x273C JUMPI DUP5 DUP10 ADD MLOAD PUSH2 0x2738 PUSH1 0x1F DUP10 AND DUP3 PUSH2 0x264B JUMP JUMPDEST DUP4 SSTORE POP JUMPDEST PUSH1 0x1 PUSH1 0x2 DUP9 MUL ADD DUP9 SSTORE POP POP POP JUMPDEST POP POP POP POP POP POP JUMP JUMPDEST PUSH0 PUSH2 0x275B DUP3 PUSH2 0x1BD8 JUMP JUMPDEST SWAP2 POP PUSH2 0x2766 DUP4 PUSH2 0x1BD8 JUMP JUMPDEST SWAP3 POP DUP3 DUP3 SUB SWAP1 POP DUP2 DUP2 GT ISZERO PUSH2 0x277E JUMPI PUSH2 0x277D PUSH2 0x2319 JUMP JUMPDEST JUMPDEST SWAP3 SWAP2 POP POP JUMP JUMPDEST PUSH0 DUP2 SLOAD SWAP1 POP PUSH2 0x2792 DUP2 PUSH2 0x212B JUMP JUMPDEST SWAP1 POP SWAP2 SWAP1 POP JUMP JUMPDEST DUP2 DUP2 SUB PUSH2 0x27A7 JUMPI POP POP PUSH2 0x287C JUMP JUMPDEST PUSH2 0x27B0 DUP3 PUSH2 0x2784 JUMP JUMPDEST PUSH8 0xFFFFFFFFFFFFFFFF DUP2 GT ISZERO PUSH2 0x27C9 JUMPI PUSH2 0x27C8 PUSH2 0x1AB4 JUMP JUMPDEST JUMPDEST PUSH2 0x27D3 DUP3 SLOAD PUSH2 0x212B JUMP JUMPDEST PUSH2 0x27DE DUP3 DUP3 DUP6 PUSH2 0x25F9 JUMP JUMPDEST PUSH0 PUSH1 0x1F DUP4 GT PUSH1 0x1 DUP2 EQ PUSH2 0x280B JUMPI PUSH0 DUP5 ISZERO PUSH2 0x27F9 JUMPI DUP3 DUP8 ADD SLOAD SWAP1 POP JUMPDEST PUSH2 0x2803 DUP6 DUP3 PUSH2 0x2667 JUMP JUMPDEST DUP7 SSTORE POP PUSH2 0x2875 JUMP JUMPDEST PUSH1 0x1F NOT DUP5 AND PUSH2 0x2819 DUP8 PUSH2 0x221D JUMP JUMPDEST SWAP7 POP PUSH2 0x2824 DUP7 PUSH2 0x221D JUMP JUMPDEST PUSH0 JUMPDEST DUP3 DUP2 LT ISZERO PUSH2 0x284B JUMPI DUP5 DUP10 ADD SLOAD DUP3 SSTORE PUSH1 0x1 DUP3 ADD SWAP2 POP PUSH1 0x1 DUP6 ADD SWAP5 POP PUSH1 0x20 DUP2 ADD SWAP1 POP PUSH2 0x2826 JUMP JUMPDEST DUP7 DUP4 LT ISZERO PUSH2 0x2868 JUMPI DUP5 DUP10 ADD SLOAD PUSH2 0x2864 PUSH1 0x1F DUP10 AND DUP3 PUSH2 0x264B JUMP JUMPDEST DUP4 SSTORE POP JUMPDEST PUSH1 0x1 PUSH1 0x2 DUP9 MUL ADD DUP9 SSTORE POP POP POP JUMPDEST POP POP POP POP POP POP JUMPDEST JUMP JUMPDEST PUSH32 0x4E487B7100000000000000000000000000000000000000000000000000000000 PUSH0 MSTORE PUSH1 0x31 PUSH1 0x4 MSTORE PUSH1 0x24 PUSH0 REVERT INVALID LOG2 PUSH5 0x6970667358 0x22 SLT KECCAK256 DUP9 PUSH19 0x68E68A7427FDCC7E2C06171544D080317115D 0xCA 0x21 0xED DUP7 0xE3 0x21 0xB3 0xBB PUSH31 0xEF2164736F6C634300081A0033000000000000000000000000000000000000 "
				},
				"gasEstimates": {
					"creation": {
						"codeDepositCost": "2093000",
						"executionCost": "infinite",
						"totalCost": "infinite"
					},
					"external": {
						"regDonor(string,uint256,string,uint256)": "infinite",
						"regRecipient(string,string,uint256,uint256)": "infinite",
						"showDonors(string)": "infinite",
						"showMatches(string)": "infinite",
						"showRecipient(string)": "infinite"
					},
					"internal": {
						"pop(struct main.orgdet storage ref[] storage pointer,uint256)": "infinite",
						"pushMatch(string memory,string memory,uint256,uint256,string memory,uint256,uint256,uint256)": "infinite",
						"pushNew(string memory,uint256,string memory,uint256,uint256)": "infinite"
					}
				},
				"methodIdentifiers": {
					"regDonor(string,uint256,string,uint256)": "822e242e",
					"regRecipient(string,string,uint256,uint256)": "4bb792ac",
					"showDonors(string)": "ae9ec457",
					"showMatches(string)": "c005a930",
					"showRecipient(string)": "963e9f1f"
				}
			},
			"storageLayout": {
				"storage": [
					{
						"astId": 3,
						"contract": "contracts/main.sol:main",
						"label": "donorPass",
						"offset": 0,
						"slot": "0",
						"type": "t_bytes32"
					},
					{
						"astId": 5,
						"contract": "contracts/main.sol:main",
						"label": "recipientPass",
						"offset": 0,
						"slot": "1",
						"type": "t_bytes32"
					},
					{
						"astId": 7,
						"contract": "contracts/main.sol:main",
						"label": "matchedPass",
						"offset": 0,
						"slot": "2",
						"type": "t_bytes32"
					},
					{
						"astId": 190,
						"contract": "contracts/main.sol:main",
						"label": "donorList",
						"offset": 0,
						"slot": "3",
						"type": "t_array(t_struct(orgdet)149_storage)dyn_storage"
					},
					{
						"astId": 194,
						"contract": "contracts/main.sol:main",
						"label": "recipientList",
						"offset": 0,
						"slot": "4",
						"type": "t_array(t_struct(orgdet)149_storage)dyn_storage"
					},
					{
						"astId": 198,
						"contract": "contracts/main.sol:main",
						"label": "matchedList",
						"offset": 0,
						"slot": "5",
						"type": "t_array(t_struct(matched_orgdet)166_storage)dyn_storage"
					},
					{
						"astId": 315,
						"contract": "contracts/main.sol:main",
						"label": "compatMatrix",
						"offset": 0,
						"slot": "6",
						"type": "t_array(t_array(t_uint256)10_storage)10_storage"
					},
					{
						"astId": 318,
						"contract": "contracts/main.sol:main",
						"label": "posBT",
						"offset": 0,
						"slot": "106",
						"type": "t_array(t_uint256)dyn_storage"
					}
				],
				"types": {
					"t_array(t_array(t_uint256)10_storage)10_storage": {
						"base": "t_array(t_uint256)10_storage",
						"encoding": "inplace",
						"label": "uint256[10][10]",
						"numberOfBytes": "3200"
					},
					"t_array(t_struct(matched_orgdet)166_storage)dyn_storage": {
						"base": "t_struct(matched_orgdet)166_storage",
						"encoding": "dynamic_array",
						"label": "struct main.matched_orgdet[]",
						"numberOfBytes": "32"
					},
					"t_array(t_struct(orgdet)149_storage)dyn_storage": {
						"base": "t_struct(orgdet)149_storage",
						"encoding": "dynamic_array",
						"label": "struct main.orgdet[]",
						"numberOfBytes": "32"
					},
					"t_array(t_uint256)10_storage": {
						"base": "t_uint256",
						"encoding": "inplace",
						"label": "uint256[10]",
						"numberOfBytes": "320"
					},
					"t_array(t_uint256)dyn_storage": {
						"base": "t_uint256",
						"encoding": "dynamic_array",
						"label": "uint256[]",
						"numberOfBytes": "32"
					},
					"t_bytes32": {
						"encoding": "inplace",
						"label": "bytes32",
						"numberOfBytes": "32"
					},
					"t_string_storage": {
						"encoding": "bytes",
						"label": "string",
						"numberOfBytes": "32"
					},
					"t_struct(matched_orgdet)166_storage": {
						"encoding": "inplace",
						"label": "struct main.matched_orgdet",
						"members": [
							{
								"astId": 151,
								"contract": "contracts/main.sol:main",
								"label": "donor",
								"offset": 0,
								"slot": "0",
								"type": "t_string_storage"
							},
							{
								"astId": 153,
								"contract": "contracts/main.sol:main",
								"label": "recipient",
								"offset": 0,
								"slot": "1",
								"type": "t_string_storage"
							},
							{
								"astId": 155,
								"contract": "contracts/main.sol:main",
								"label": "donorbloodtype",
								"offset": 0,
								"slot": "2",
								"type": "t_uint256"
							},
							{
								"astId": 157,
								"contract": "contracts/main.sol:main",
								"label": "recipientbloodtype",
								"offset": 0,
								"slot": "3",
								"type": "t_uint256"
							},
							{
								"astId": 159,
								"contract": "contracts/main.sol:main",
								"label": "organ",
								"offset": 0,
								"slot": "4",
								"type": "t_string_storage"
							},
							{
								"astId": 161,
								"contract": "contracts/main.sol:main",
								"label": "donorquantity",
								"offset": 0,
								"slot": "5",
								"type": "t_uint256"
							},
							{
								"astId": 163,
								"contract": "contracts/main.sol:main",
								"label": "recipientquantity",
								"offset": 0,
								"slot": "6",
								"type": "t_uint256"
							},
							{
								"astId": 165,
								"contract": "contracts/main.sol:main",
								"label": "matchedquantity",
								"offset": 0,
								"slot": "7",
								"type": "t_uint256"
							}
						],
						"numberOfBytes": "256"
					},
					"t_struct(orgdet)149_storage": {
						"encoding": "inplace",
						"label": "struct main.orgdet",
						"members": [
							{
								"astId": 142,
								"contract": "contracts/main.sol:main",
								"label": "owner",
								"offset": 0,
								"slot": "0",
								"type": "t_string_storage"
							},
							{
								"astId": 144,
								"contract": "contracts/main.sol:main",
								"label": "bloodtype",
								"offset": 0,
								"slot": "1",
								"type": "t_uint256"
							},
							{
								"astId": 146,
								"contract": "contracts/main.sol:main",
								"label": "organ",
								"offset": 0,
								"slot": "2",
								"type": "t_string_storage"
							},
							{
								"astId": 148,
								"contract": "contracts/main.sol:main",
								"label": "quantity",
								"offset": 0,
								"slot": "3",
								"type": "t_uint256"
							}
						],
						"numberOfBytes": "128"
					},
					"t_uint256": {
						"encoding": "inplace",
						"label": "uint256",
						"numberOfBytes": "32"
					}
				}
			},
			"userdoc": {
				"kind": "user",
				"methods": {},
				"version": 1
			}
		}
	}
}