{
	"contracts/login.sol": {
		"LoginSystem": {
			"abi": [
				{
					"anonymous": false,
					"inputs": [
						{
							"indexed": false,
							"internalType": "address",
							"name": "user",
							"type": "address"
						}
					],
					"name": "UserRegistered",
					"type": "event"
				},
				{
					"inputs": [],
					"name": "isUserRegistered",
					"outputs": [
						{
							"internalType": "bool",
							"name": "",
							"type": "bool"
						}
					],
					"stateMutability": "view",
					"type": "function"
				},
				{
					"inputs": [
						{
							"internalType": "string",
							"name": "password",
							"type": "string"
						}
					],
					"name": "login",
					"outputs": [
						{
							"internalType": "bool",
							"name": "",
							"type": "bool"
						}
					],
					"stateMutability": "view",
					"type": "function"
				},
				{
					"inputs": [
						{
							"internalType": "string",
							"name": "password",
							"type": "string"
						}
					],
					"name": "register",
					"outputs": [],
					"stateMutability": "nonpayable",
					"type": "function"
				}
			],
			"devdoc": {
				"kind": "dev",
				"methods": {},
				"version": 1
			},
			"evm": {
				"assembly": "    /* \"contracts/login.sol\":61:853  contract LoginSystem {... */\n  mstore(0x40, 0x80)\n  callvalue\n  dup1\n  iszero\n  tag_1\n  jumpi\n  0x00\n  dup1\n  revert\ntag_1:\n  pop\n  dataSize(sub_0)\n  dup1\n  dataOffset(sub_0)\n  0x00\n  codecopy\n  0x00\n  return\nstop\n\nsub_0: assembly {\n        /* \"contracts/login.sol\":61:853  contract LoginSystem {... */\n      mstore(0x40, 0x80)\n      callvalue\n      dup1\n      iszero\n      tag_1\n      jumpi\n      0x00\n      dup1\n      revert\n    tag_1:\n      pop\n      jumpi(tag_2, lt(calldatasize, 0x04))\n      shr(0xe0, calldataload(0x00))\n      dup1\n      0x3a7d280c\n      eq\n      tag_3\n      jumpi\n      dup1\n      0x873138f3\n      eq\n      tag_4\n      jumpi\n      dup1\n      0xf2c298be\n      eq\n      tag_5\n      jumpi\n    tag_2:\n      0x00\n      dup1\n      revert\n        /* \"contracts/login.sol\":506:721  function login(string memory password) public view returns (bool) {... */\n    tag_3:\n      tag_6\n      0x04\n      dup1\n      calldatasize\n      sub\n      dup2\n      add\n      swap1\n      tag_7\n      swap2\n      swap1\n      tag_8\n      jump\t// in\n    tag_7:\n      tag_9\n      jump\t// in\n    tag_6:\n      mload(0x40)\n      tag_10\n      swap2\n      swap1\n      tag_11\n      jump\t// in\n    tag_10:\n      mload(0x40)\n      dup1\n      swap2\n      sub\n      swap1\n      return\n        /* \"contracts/login.sol\":729:850  function isUserRegistered() public view returns (bool) {... */\n    tag_4:\n      tag_12\n      tag_13\n      jump\t// in\n    tag_12:\n      mload(0x40)\n      tag_14\n      swap2\n      swap1\n      tag_11\n      jump\t// in\n    tag_14:\n      mload(0x40)\n      dup1\n      swap2\n      sub\n      swap1\n      return\n        /* \"contracts/login.sol\":189:498  function register(string memory password) public {... */\n    tag_5:\n      tag_15\n      0x04\n      dup1\n      calldatasize\n      sub\n      dup2\n      add\n      swap1\n      tag_16\n      swap2\n      swap1\n      tag_8\n      jump\t// in\n    tag_16:\n      tag_17\n      jump\t// in\n    tag_15:\n      stop\n        /* \"contracts/login.sol\":506:721  function login(string memory password) public view returns (bool) {... */\n    tag_9:\n        /* \"contracts/login.sol\":566:570  bool */\n      0x00\n        /* \"contracts/login.sol\":583:603  bytes32 passwordHash */\n      dup1\n        /* \"contracts/login.sol\":633:641  password */\n      dup3\n        /* \"contracts/login.sol\":616:642  abi.encodePacked(password) */\n      add(0x20, mload(0x40))\n      tag_19\n      swap2\n      swap1\n      tag_20\n      jump\t// in\n    tag_19:\n      mload(0x40)\n      0x20\n      dup2\n      dup4\n      sub\n      sub\n      dup2\n      mstore\n      swap1\n      0x40\n      mstore\n        /* \"contracts/login.sol\":606:643  keccak256(abi.encodePacked(password)) */\n      dup1\n      mload\n      swap1\n      0x20\n      add\n      keccak256\n        /* \"contracts/login.sol\":583:643  bytes32 passwordHash = keccak256(abi.encodePacked(password)) */\n      swap1\n      pop\n        /* \"contracts/login.sol\":701:713  passwordHash */\n      dup1\n        /* \"contracts/login.sol\":671:685  passwordHashes */\n      0x00\n        /* \"contracts/login.sol\":671:697  passwordHashes[msg.sender] */\n      dup1\n        /* \"contracts/login.sol\":686:696  msg.sender */\n      caller\n        /* \"contracts/login.sol\":671:697  passwordHashes[msg.sender] */\n      0xffffffffffffffffffffffffffffffffffffffff\n      and\n      0xffffffffffffffffffffffffffffffffffffffff\n      and\n      dup2\n      mstore\n      0x20\n      add\n      swap1\n      dup2\n      mstore\n      0x20\n      add\n      0x00\n      keccak256\n      sload\n        /* \"contracts/login.sol\":671:713  passwordHashes[msg.sender] == passwordHash */\n      eq\n        /* \"contracts/login.sol\":664:713  return passwordHashes[msg.sender] == passwordHash */\n      swap2\n      pop\n      pop\n        /* \"contracts/login.sol\":506:721  function login(string memory password) public view returns (bool) {... */\n      swap2\n      swap1\n      pop\n      jump\t// out\n        /* \"contracts/login.sol\":729:850  function isUserRegistered() public view returns (bool) {... */\n    tag_13:\n        /* \"contracts/login.sol\":778:782  bool */\n      0x00\n        /* \"contracts/login.sol\":840:841  0 */\n      dup1\n        /* \"contracts/login.sol\":832:842  bytes32(0) */\n      0x00\n      shl\n        /* \"contracts/login.sol\":802:816  passwordHashes */\n      0x00\n        /* \"contracts/login.sol\":802:828  passwordHashes[msg.sender] */\n      dup1\n        /* \"contracts/login.sol\":817:827  msg.sender */\n      caller\n        /* \"contracts/login.sol\":802:828  passwordHashes[msg.sender] */\n      0xffffffffffffffffffffffffffffffffffffffff\n      and\n      0xffffffffffffffffffffffffffffffffffffffff\n      and\n      dup2\n      mstore\n      0x20\n      add\n      swap1\n      dup2\n      mstore\n      0x20\n      add\n      0x00\n      keccak256\n      sload\n        /* \"contracts/login.sol\":802:842  passwordHashes[msg.sender] != bytes32(0) */\n      eq\n      iszero\n        /* \"contracts/login.sol\":795:842  return passwordHashes[msg.sender] != bytes32(0) */\n      swap1\n      pop\n        /* \"contracts/login.sol\":729:850  function isUserRegistered() public view returns (bool) {... */\n      swap1\n      jump\t// out\n        /* \"contracts/login.sol\":189:498  function register(string memory password) public {... */\n    tag_17:\n        /* \"contracts/login.sol\":295:296  0 */\n      0x00\n        /* \"contracts/login.sol\":287:297  bytes32(0) */\n      dup1\n      shl\n        /* \"contracts/login.sol\":257:271  passwordHashes */\n      0x00\n        /* \"contracts/login.sol\":257:283  passwordHashes[msg.sender] */\n      dup1\n        /* \"contracts/login.sol\":272:282  msg.sender */\n      caller\n        /* \"contracts/login.sol\":257:283  passwordHashes[msg.sender] */\n      0xffffffffffffffffffffffffffffffffffffffff\n      and\n      0xffffffffffffffffffffffffffffffffffffffff\n      and\n      dup2\n      mstore\n      0x20\n      add\n      swap1\n      dup2\n      mstore\n      0x20\n      add\n      0x00\n      keccak256\n      sload\n        /* \"contracts/login.sol\":257:297  passwordHashes[msg.sender] == bytes32(0) */\n      eq\n        /* \"contracts/login.sol\":249:325  require(passwordHashes[msg.sender] == bytes32(0), \"User already registered\") */\n      tag_23\n      jumpi\n      mload(0x40)\n      0x08c379a000000000000000000000000000000000000000000000000000000000\n      dup2\n      mstore\n      0x04\n      add\n      tag_24\n      swap1\n      tag_25\n      jump\t// in\n    tag_24:\n      mload(0x40)\n      dup1\n      swap2\n      sub\n      swap1\n      revert\n    tag_23:\n        /* \"contracts/login.sol\":336:356  bytes32 passwordHash */\n      0x00\n        /* \"contracts/login.sol\":386:394  password */\n      dup2\n        /* \"contracts/login.sol\":369:395  abi.encodePacked(password) */\n      add(0x20, mload(0x40))\n      tag_26\n      swap2\n      swap1\n      tag_20\n      jump\t// in\n    tag_26:\n      mload(0x40)\n      0x20\n      dup2\n      dup4\n      sub\n      sub\n      dup2\n      mstore\n      swap1\n      0x40\n      mstore\n        /* \"contracts/login.sol\":359:396  keccak256(abi.encodePacked(password)) */\n      dup1\n      mload\n      swap1\n      0x20\n      add\n      keccak256\n        /* \"contracts/login.sol\":336:396  bytes32 passwordHash = keccak256(abi.encodePacked(password)) */\n      swap1\n      pop\n        /* \"contracts/login.sol\":436:448  passwordHash */\n      dup1\n        /* \"contracts/login.sol\":407:421  passwordHashes */\n      0x00\n        /* \"contracts/login.sol\":407:433  passwordHashes[msg.sender] */\n      dup1\n        /* \"contracts/login.sol\":422:432  msg.sender */\n      caller\n        /* \"contracts/login.sol\":407:433  passwordHashes[msg.sender] */\n      0xffffffffffffffffffffffffffffffffffffffff\n      and\n      0xffffffffffffffffffffffffffffffffffffffff\n      and\n      dup2\n      mstore\n      0x20\n      add\n      swap1\n      dup2\n      mstore\n      0x20\n      add\n      0x00\n      keccak256\n        /* \"contracts/login.sol\":407:448  passwordHashes[msg.sender] = passwordHash */\n      dup2\n      swap1\n      sstore\n      pop\n        /* \"contracts/login.sol\":464:490  UserRegistered(msg.sender) */\n      0x54db7a5cb4735e1aac1f53db512d3390390bb6637bd30ad4bf9fc98667d9b9b9\n        /* \"contracts/login.sol\":479:489  msg.sender */\n      caller\n        /* \"contracts/login.sol\":464:490  UserRegistered(msg.sender) */\n      mload(0x40)\n      tag_27\n      swap2\n      swap1\n      tag_28\n      jump\t// in\n    tag_27:\n      mload(0x40)\n      dup1\n      swap2\n      sub\n      swap1\n      log1\n        /* \"contracts/login.sol\":238:498  {... */\n      pop\n        /* \"contracts/login.sol\":189:498  function register(string memory password) public {... */\n      pop\n      jump\t// out\n        /* \"#utility.yul\":7:82   */\n    tag_29:\n        /* \"#utility.yul\":40:46   */\n      0x00\n        /* \"#utility.yul\":73:75   */\n      0x40\n        /* \"#utility.yul\":67:76   */\n      mload\n        /* \"#utility.yul\":57:76   */\n      swap1\n      pop\n        /* \"#utility.yul\":7:82   */\n      swap1\n      jump\t// out\n        /* \"#utility.yul\":88:205   */\n    tag_30:\n        /* \"#utility.yul\":197:198   */\n      0x00\n        /* \"#utility.yul\":194:195   */\n      dup1\n        /* \"#utility.yul\":187:199   */\n      revert\n        /* \"#utility.yul\":211:328   */\n    tag_31:\n        /* \"#utility.yul\":320:321   */\n      0x00\n        /* \"#utility.yul\":317:318   */\n      dup1\n        /* \"#utility.yul\":310:322   */\n      revert\n        /* \"#utility.yul\":334:451   */\n    tag_32:\n        /* \"#utility.yul\":443:444   */\n      0x00\n        /* \"#utility.yul\":440:441   */\n      dup1\n        /* \"#utility.yul\":433:445   */\n      revert\n        /* \"#utility.yul\":457:574   */\n    tag_33:\n        /* \"#utility.yul\":566:567   */\n      0x00\n        /* \"#utility.yul\":563:564   */\n      dup1\n        /* \"#utility.yul\":556:568   */\n      revert\n        /* \"#utility.yul\":580:682   */\n    tag_34:\n        /* \"#utility.yul\":621:627   */\n      0x00\n        /* \"#utility.yul\":672:674   */\n      0x1f\n        /* \"#utility.yul\":668:675   */\n      not\n        /* \"#utility.yul\":663:665   */\n      0x1f\n        /* \"#utility.yul\":656:661   */\n      dup4\n        /* \"#utility.yul\":652:666   */\n      add\n        /* \"#utility.yul\":648:676   */\n      and\n        /* \"#utility.yul\":638:676   */\n      swap1\n      pop\n        /* \"#utility.yul\":580:682   */\n      swap2\n      swap1\n      pop\n      jump\t// out\n        /* \"#utility.yul\":688:868   */\n    tag_35:\n        /* \"#utility.yul\":736:813   */\n      0x4e487b7100000000000000000000000000000000000000000000000000000000\n        /* \"#utility.yul\":733:734   */\n      0x00\n        /* \"#utility.yul\":726:814   */\n      mstore\n        /* \"#utility.yul\":833:837   */\n      0x41\n        /* \"#utility.yul\":830:831   */\n      0x04\n        /* \"#utility.yul\":823:838   */\n      mstore\n        /* \"#utility.yul\":857:861   */\n      0x24\n        /* \"#utility.yul\":854:855   */\n      0x00\n        /* \"#utility.yul\":847:862   */\n      revert\n        /* \"#utility.yul\":874:1155   */\n    tag_36:\n        /* \"#utility.yul\":957:984   */\n      tag_63\n        /* \"#utility.yul\":979:983   */\n      dup3\n        /* \"#utility.yul\":957:984   */\n      tag_34\n      jump\t// in\n    tag_63:\n        /* \"#utility.yul\":949:955   */\n      dup2\n        /* \"#utility.yul\":945:985   */\n      add\n        /* \"#utility.yul\":1087:1093   */\n      dup2\n        /* \"#utility.yul\":1075:1085   */\n      dup2\n        /* \"#utility.yul\":1072:1094   */\n      lt\n        /* \"#utility.yul\":1051:1069   */\n      0xffffffffffffffff\n        /* \"#utility.yul\":1039:1049   */\n      dup3\n        /* \"#utility.yul\":1036:1070   */\n      gt\n        /* \"#utility.yul\":1033:1095   */\n      or\n        /* \"#utility.yul\":1030:1118   */\n      iszero\n      tag_64\n      jumpi\n        /* \"#utility.yul\":1098:1116   */\n      tag_65\n      tag_35\n      jump\t// in\n    tag_65:\n        /* \"#utility.yul\":1030:1118   */\n    tag_64:\n        /* \"#utility.yul\":1138:1148   */\n      dup1\n        /* \"#utility.yul\":1134:1136   */\n      0x40\n        /* \"#utility.yul\":1127:1149   */\n      mstore\n        /* \"#utility.yul\":917:1155   */\n      pop\n        /* \"#utility.yul\":874:1155   */\n      pop\n      pop\n      jump\t// out\n        /* \"#utility.yul\":1161:1290   */\n    tag_37:\n        /* \"#utility.yul\":1195:1201   */\n      0x00\n        /* \"#utility.yul\":1222:1242   */\n      tag_67\n      tag_29\n      jump\t// in\n    tag_67:\n        /* \"#utility.yul\":1212:1242   */\n      swap1\n      pop\n        /* \"#utility.yul\":1251:1284   */\n      tag_68\n        /* \"#utility.yul\":1279:1283   */\n      dup3\n        /* \"#utility.yul\":1271:1277   */\n      dup3\n        /* \"#utility.yul\":1251:1284   */\n      tag_36\n      jump\t// in\n    tag_68:\n        /* \"#utility.yul\":1161:1290   */\n      swap2\n      swap1\n      pop\n      jump\t// out\n        /* \"#utility.yul\":1296:1604   */\n    tag_38:\n        /* \"#utility.yul\":1358:1362   */\n      0x00\n        /* \"#utility.yul\":1448:1466   */\n      0xffffffffffffffff\n        /* \"#utility.yul\":1440:1446   */\n      dup3\n        /* \"#utility.yul\":1437:1467   */\n      gt\n        /* \"#utility.yul\":1434:1490   */\n      iszero\n      tag_70\n      jumpi\n        /* \"#utility.yul\":1470:1488   */\n      tag_71\n      tag_35\n      jump\t// in\n    tag_71:\n        /* \"#utility.yul\":1434:1490   */\n    tag_70:\n        /* \"#utility.yul\":1508:1537   */\n      tag_72\n        /* \"#utility.yul\":1530:1536   */\n      dup3\n        /* \"#utility.yul\":1508:1537   */\n      tag_34\n      jump\t// in\n    tag_72:\n        /* \"#utility.yul\":1500:1537   */\n      swap1\n      pop\n        /* \"#utility.yul\":1592:1596   */\n      0x20\n        /* \"#utility.yul\":1586:1590   */\n      dup2\n        /* \"#utility.yul\":1582:1597   */\n      add\n        /* \"#utility.yul\":1574:1597   */\n      swap1\n      pop\n        /* \"#utility.yul\":1296:1604   */\n      swap2\n      swap1\n      pop\n      jump\t// out\n        /* \"#utility.yul\":1610:1758   */\n    tag_39:\n        /* \"#utility.yul\":1708:1714   */\n      dup3\n        /* \"#utility.yul\":1703:1706   */\n      dup2\n        /* \"#utility.yul\":1698:1701   */\n      dup4\n        /* \"#utility.yul\":1685:1715   */\n      calldatacopy\n        /* \"#utility.yul\":1749:1750   */\n      0x00\n        /* \"#utility.yul\":1740:1746   */\n      dup4\n        /* \"#utility.yul\":1735:1738   */\n      dup4\n        /* \"#utility.yul\":1731:1747   */\n      add\n        /* \"#utility.yul\":1724:1751   */\n      mstore\n        /* \"#utility.yul\":1610:1758   */\n      pop\n      pop\n      pop\n      jump\t// out\n        /* \"#utility.yul\":1764:2189   */\n    tag_40:\n        /* \"#utility.yul\":1842:1847   */\n      0x00\n        /* \"#utility.yul\":1867:1933   */\n      tag_75\n        /* \"#utility.yul\":1883:1932   */\n      tag_76\n        /* \"#utility.yul\":1925:1931   */\n      dup5\n        /* \"#utility.yul\":1883:1932   */\n      tag_38\n      jump\t// in\n    tag_76:\n        /* \"#utility.yul\":1867:1933   */\n      tag_37\n      jump\t// in\n    tag_75:\n        /* \"#utility.yul\":1858:1933   */\n      swap1\n      pop\n        /* \"#utility.yul\":1956:1962   */\n      dup3\n        /* \"#utility.yul\":1949:1954   */\n      dup2\n        /* \"#utility.yul\":1942:1963   */\n      mstore\n        /* \"#utility.yul\":1994:1998   */\n      0x20\n        /* \"#utility.yul\":1987:1992   */\n      dup2\n        /* \"#utility.yul\":1983:1999   */\n      add\n        /* \"#utility.yul\":2032:2035   */\n      dup5\n        /* \"#utility.yul\":2023:2029   */\n      dup5\n        /* \"#utility.yul\":2018:2021   */\n      dup5\n        /* \"#utility.yul\":2014:2030   */\n      add\n        /* \"#utility.yul\":2011:2036   */\n      gt\n        /* \"#utility.yul\":2008:2120   */\n      iszero\n      tag_77\n      jumpi\n        /* \"#utility.yul\":2039:2118   */\n      tag_78\n      tag_33\n      jump\t// in\n    tag_78:\n        /* \"#utility.yul\":2008:2120   */\n    tag_77:\n        /* \"#utility.yul\":2129:2183   */\n      tag_79\n        /* \"#utility.yul\":2176:2182   */\n      dup5\n        /* \"#utility.yul\":2171:2174   */\n      dup3\n        /* \"#utility.yul\":2166:2169   */\n      dup6\n        /* \"#utility.yul\":2129:2183   */\n      tag_39\n      jump\t// in\n    tag_79:\n        /* \"#utility.yul\":1848:2189   */\n      pop\n        /* \"#utility.yul\":1764:2189   */\n      swap4\n      swap3\n      pop\n      pop\n      pop\n      jump\t// out\n        /* \"#utility.yul\":2209:2549   */\n    tag_41:\n        /* \"#utility.yul\":2265:2270   */\n      0x00\n        /* \"#utility.yul\":2314:2317   */\n      dup3\n        /* \"#utility.yul\":2307:2311   */\n      0x1f\n        /* \"#utility.yul\":2299:2305   */\n      dup4\n        /* \"#utility.yul\":2295:2312   */\n      add\n        /* \"#utility.yul\":2291:2318   */\n      slt\n        /* \"#utility.yul\":2281:2403   */\n      tag_81\n      jumpi\n        /* \"#utility.yul\":2322:2401   */\n      tag_82\n      tag_32\n      jump\t// in\n    tag_82:\n        /* \"#utility.yul\":2281:2403   */\n    tag_81:\n        /* \"#utility.yul\":2439:2445   */\n      dup2\n        /* \"#utility.yul\":2426:2446   */\n      calldataload\n        /* \"#utility.yul\":2464:2543   */\n      tag_83\n        /* \"#utility.yul\":2539:2542   */\n      dup5\n        /* \"#utility.yul\":2531:2537   */\n      dup3\n        /* \"#utility.yul\":2524:2528   */\n      0x20\n        /* \"#utility.yul\":2516:2522   */\n      dup7\n        /* \"#utility.yul\":2512:2529   */\n      add\n        /* \"#utility.yul\":2464:2543   */\n      tag_40\n      jump\t// in\n    tag_83:\n        /* \"#utility.yul\":2455:2543   */\n      swap2\n      pop\n        /* \"#utility.yul\":2271:2549   */\n      pop\n        /* \"#utility.yul\":2209:2549   */\n      swap3\n      swap2\n      pop\n      pop\n      jump\t// out\n        /* \"#utility.yul\":2555:3064   */\n    tag_8:\n        /* \"#utility.yul\":2624:2630   */\n      0x00\n        /* \"#utility.yul\":2673:2675   */\n      0x20\n        /* \"#utility.yul\":2661:2670   */\n      dup3\n        /* \"#utility.yul\":2652:2659   */\n      dup5\n        /* \"#utility.yul\":2648:2671   */\n      sub\n        /* \"#utility.yul\":2644:2676   */\n      slt\n        /* \"#utility.yul\":2641:2760   */\n      iszero\n      tag_85\n      jumpi\n        /* \"#utility.yul\":2679:2758   */\n      tag_86\n      tag_30\n      jump\t// in\n    tag_86:\n        /* \"#utility.yul\":2641:2760   */\n    tag_85:\n        /* \"#utility.yul\":2827:2828   */\n      0x00\n        /* \"#utility.yul\":2816:2825   */\n      dup3\n        /* \"#utility.yul\":2812:2829   */\n      add\n        /* \"#utility.yul\":2799:2830   */\n      calldataload\n        /* \"#utility.yul\":2857:2875   */\n      0xffffffffffffffff\n        /* \"#utility.yul\":2849:2855   */\n      dup2\n        /* \"#utility.yul\":2846:2876   */\n      gt\n        /* \"#utility.yul\":2843:2960   */\n      iszero\n      tag_87\n      jumpi\n        /* \"#utility.yul\":2879:2958   */\n      tag_88\n      tag_31\n      jump\t// in\n    tag_88:\n        /* \"#utility.yul\":2843:2960   */\n    tag_87:\n        /* \"#utility.yul\":2984:3047   */\n      tag_89\n        /* \"#utility.yul\":3039:3046   */\n      dup5\n        /* \"#utility.yul\":3030:3036   */\n      dup3\n        /* \"#utility.yul\":3019:3028   */\n      dup6\n        /* \"#utility.yul\":3015:3037   */\n      add\n        /* \"#utility.yul\":2984:3047   */\n      tag_41\n      jump\t// in\n    tag_89:\n        /* \"#utility.yul\":2974:3047   */\n      swap2\n      pop\n        /* \"#utility.yul\":2770:3057   */\n      pop\n        /* \"#utility.yul\":2555:3064   */\n      swap3\n      swap2\n      pop\n      pop\n      jump\t// out\n        /* \"#utility.yul\":3070:3160   */\n    tag_42:\n        /* \"#utility.yul\":3104:3111   */\n      0x00\n        /* \"#utility.yul\":3147:3152   */\n      dup2\n        /* \"#utility.yul\":3140:3153   */\n      iszero\n        /* \"#utility.yul\":3133:3154   */\n      iszero\n        /* \"#utility.yul\":3122:3154   */\n      swap1\n      pop\n        /* \"#utility.yul\":3070:3160   */\n      swap2\n      swap1\n      pop\n      jump\t// out\n        /* \"#utility.yul\":3166:3275   */\n    tag_43:\n        /* \"#utility.yul\":3247:3268   */\n      tag_92\n        /* \"#utility.yul\":3262:3267   */\n      dup2\n        /* \"#utility.yul\":3247:3268   */\n      tag_42\n      jump\t// in\n    tag_92:\n        /* \"#utility.yul\":3242:3245   */\n      dup3\n        /* \"#utility.yul\":3235:3269   */\n      mstore\n        /* \"#utility.yul\":3166:3275   */\n      pop\n      pop\n      jump\t// out\n        /* \"#utility.yul\":3281:3491   */\n    tag_11:\n        /* \"#utility.yul\":3368:3372   */\n      0x00\n        /* \"#utility.yul\":3406:3408   */\n      0x20\n        /* \"#utility.yul\":3395:3404   */\n      dup3\n        /* \"#utility.yul\":3391:3409   */\n      add\n        /* \"#utility.yul\":3383:3409   */\n      swap1\n      pop\n        /* \"#utility.yul\":3419:3484   */\n      tag_94\n        /* \"#utility.yul\":3481:3482   */\n      0x00\n        /* \"#utility.yul\":3470:3479   */\n      dup4\n        /* \"#utility.yul\":3466:3483   */\n      add\n        /* \"#utility.yul\":3457:3463   */\n      dup5\n        /* \"#utility.yul\":3419:3484   */\n      tag_43\n      jump\t// in\n    tag_94:\n        /* \"#utility.yul\":3281:3491   */\n      swap3\n      swap2\n      pop\n      pop\n      jump\t// out\n        /* \"#utility.yul\":3497:3596   */\n    tag_44:\n        /* \"#utility.yul\":3549:3555   */\n      0x00\n        /* \"#utility.yul\":3583:3588   */\n      dup2\n        /* \"#utility.yul\":3577:3589   */\n      mload\n        /* \"#utility.yul\":3567:3589   */\n      swap1\n      pop\n        /* \"#utility.yul\":3497:3596   */\n      swap2\n      swap1\n      pop\n      jump\t// out\n        /* \"#utility.yul\":3602:3750   */\n    tag_45:\n        /* \"#utility.yul\":3704:3715   */\n      0x00\n        /* \"#utility.yul\":3741:3744   */\n      dup2\n        /* \"#utility.yul\":3726:3744   */\n      swap1\n      pop\n        /* \"#utility.yul\":3602:3750   */\n      swap3\n      swap2\n      pop\n      pop\n      jump\t// out\n        /* \"#utility.yul\":3756:3895   */\n    tag_46:\n        /* \"#utility.yul\":3845:3851   */\n      dup3\n        /* \"#utility.yul\":3840:3843   */\n      dup2\n        /* \"#utility.yul\":3835:3838   */\n      dup4\n        /* \"#utility.yul\":3829:3852   */\n      mcopy\n        /* \"#utility.yul\":3886:3887   */\n      0x00\n        /* \"#utility.yul\":3877:3883   */\n      dup4\n        /* \"#utility.yul\":3872:3875   */\n      dup4\n        /* \"#utility.yul\":3868:3884   */\n      add\n        /* \"#utility.yul\":3861:3888   */\n      mstore\n        /* \"#utility.yul\":3756:3895   */\n      pop\n      pop\n      pop\n      jump\t// out\n        /* \"#utility.yul\":3901:4291   */\n    tag_47:\n        /* \"#utility.yul\":4007:4010   */\n      0x00\n        /* \"#utility.yul\":4035:4074   */\n      tag_99\n        /* \"#utility.yul\":4068:4073   */\n      dup3\n        /* \"#utility.yul\":4035:4074   */\n      tag_44\n      jump\t// in\n    tag_99:\n        /* \"#utility.yul\":4090:4179   */\n      tag_100\n        /* \"#utility.yul\":4172:4178   */\n      dup2\n        /* \"#utility.yul\":4167:4170   */\n      dup6\n        /* \"#utility.yul\":4090:4179   */\n      tag_45\n      jump\t// in\n    tag_100:\n        /* \"#utility.yul\":4083:4179   */\n      swap4\n      pop\n        /* \"#utility.yul\":4188:4253   */\n      tag_101\n        /* \"#utility.yul\":4246:4252   */\n      dup2\n        /* \"#utility.yul\":4241:4244   */\n      dup6\n        /* \"#utility.yul\":4234:4238   */\n      0x20\n        /* \"#utility.yul\":4227:4232   */\n      dup7\n        /* \"#utility.yul\":4223:4239   */\n      add\n        /* \"#utility.yul\":4188:4253   */\n      tag_46\n      jump\t// in\n    tag_101:\n        /* \"#utility.yul\":4278:4284   */\n      dup1\n        /* \"#utility.yul\":4273:4276   */\n      dup5\n        /* \"#utility.yul\":4269:4285   */\n      add\n        /* \"#utility.yul\":4262:4285   */\n      swap2\n      pop\n        /* \"#utility.yul\":4011:4291   */\n      pop\n        /* \"#utility.yul\":3901:4291   */\n      swap3\n      swap2\n      pop\n      pop\n      jump\t// out\n        /* \"#utility.yul\":4297:4572   */\n    tag_20:\n        /* \"#utility.yul\":4429:4432   */\n      0x00\n        /* \"#utility.yul\":4451:4546   */\n      tag_103\n        /* \"#utility.yul\":4542:4545   */\n      dup3\n        /* \"#utility.yul\":4533:4539   */\n      dup5\n        /* \"#utility.yul\":4451:4546   */\n      tag_47\n      jump\t// in\n    tag_103:\n        /* \"#utility.yul\":4444:4546   */\n      swap2\n      pop\n        /* \"#utility.yul\":4563:4566   */\n      dup2\n        /* \"#utility.yul\":4556:4566   */\n      swap1\n      pop\n        /* \"#utility.yul\":4297:4572   */\n      swap3\n      swap2\n      pop\n      pop\n      jump\t// out\n        /* \"#utility.yul\":4578:4747   */\n    tag_48:\n        /* \"#utility.yul\":4662:4673   */\n      0x00\n        /* \"#utility.yul\":4696:4702   */\n      dup3\n        /* \"#utility.yul\":4691:4694   */\n      dup3\n        /* \"#utility.yul\":4684:4703   */\n      mstore\n        /* \"#utility.yul\":4736:4740   */\n      0x20\n        /* \"#utility.yul\":4731:4734   */\n      dup3\n        /* \"#utility.yul\":4727:4741   */\n      add\n        /* \"#utility.yul\":4712:4741   */\n      swap1\n      pop\n        /* \"#utility.yul\":4578:4747   */\n      swap3\n      swap2\n      pop\n      pop\n      jump\t// out\n        /* \"#utility.yul\":4753:4926   */\n    tag_49:\n        /* \"#utility.yul\":4893:4918   */\n      0x5573657220616c72656164792072656769737465726564000000000000000000\n        /* \"#utility.yul\":4889:4890   */\n      0x00\n        /* \"#utility.yul\":4881:4887   */\n      dup3\n        /* \"#utility.yul\":4877:4891   */\n      add\n        /* \"#utility.yul\":4870:4919   */\n      mstore\n        /* \"#utility.yul\":4753:4926   */\n      pop\n      jump\t// out\n        /* \"#utility.yul\":4932:5298   */\n    tag_50:\n        /* \"#utility.yul\":5074:5077   */\n      0x00\n        /* \"#utility.yul\":5095:5162   */\n      tag_107\n        /* \"#utility.yul\":5159:5161   */\n      0x17\n        /* \"#utility.yul\":5154:5157   */\n      dup4\n        /* \"#utility.yul\":5095:5162   */\n      tag_48\n      jump\t// in\n    tag_107:\n        /* \"#utility.yul\":5088:5162   */\n      swap2\n      pop\n        /* \"#utility.yul\":5171:5264   */\n      tag_108\n        /* \"#utility.yul\":5260:5263   */\n      dup3\n        /* \"#utility.yul\":5171:5264   */\n      tag_49\n      jump\t// in\n    tag_108:\n        /* \"#utility.yul\":5289:5291   */\n      0x20\n        /* \"#utility.yul\":5284:5287   */\n      dup3\n        /* \"#utility.yul\":5280:5292   */\n      add\n        /* \"#utility.yul\":5273:5292   */\n      swap1\n      pop\n        /* \"#utility.yul\":4932:5298   */\n      swap2\n      swap1\n      pop\n      jump\t// out\n        /* \"#utility.yul\":5304:5723   */\n    tag_25:\n        /* \"#utility.yul\":5470:5474   */\n      0x00\n        /* \"#utility.yul\":5508:5510   */\n      0x20\n        /* \"#utility.yul\":5497:5506   */\n      dup3\n        /* \"#utility.yul\":5493:5511   */\n      add\n        /* \"#utility.yul\":5485:5511   */\n      swap1\n      pop\n        /* \"#utility.yul\":5557:5566   */\n      dup2\n        /* \"#utility.yul\":5551:5555   */\n      dup2\n        /* \"#utility.yul\":5547:5567   */\n      sub\n        /* \"#utility.yul\":5543:5544   */\n      0x00\n        /* \"#utility.yul\":5532:5541   */\n      dup4\n        /* \"#utility.yul\":5528:5545   */\n      add\n        /* \"#utility.yul\":5521:5568   */\n      mstore\n        /* \"#utility.yul\":5585:5716   */\n      tag_110\n        /* \"#utility.yul\":5711:5715   */\n      dup2\n        /* \"#utility.yul\":5585:5716   */\n      tag_50\n      jump\t// in\n    tag_110:\n        /* \"#utility.yul\":5577:5716   */\n      swap1\n      pop\n        /* \"#utility.yul\":5304:5723   */\n      swap2\n      swap1\n      pop\n      jump\t// out\n        /* \"#utility.yul\":5729:5855   */\n    tag_51:\n        /* \"#utility.yul\":5766:5773   */\n      0x00\n        /* \"#utility.yul\":5806:5848   */\n      0xffffffffffffffffffffffffffffffffffffffff\n        /* \"#utility.yul\":5799:5804   */\n      dup3\n        /* \"#utility.yul\":5795:5849   */\n      and\n        /* \"#utility.yul\":5784:5849   */\n      swap1\n      pop\n        /* \"#utility.yul\":5729:5855   */\n      swap2\n      swap1\n      pop\n      jump\t// out\n        /* \"#utility.yul\":5861:5957   */\n    tag_52:\n        /* \"#utility.yul\":5898:5905   */\n      0x00\n        /* \"#utility.yul\":5927:5951   */\n      tag_113\n        /* \"#utility.yul\":5945:5950   */\n      dup3\n        /* \"#utility.yul\":5927:5951   */\n      tag_51\n      jump\t// in\n    tag_113:\n        /* \"#utility.yul\":5916:5951   */\n      swap1\n      pop\n        /* \"#utility.yul\":5861:5957   */\n      swap2\n      swap1\n      pop\n      jump\t// out\n        /* \"#utility.yul\":5963:6081   */\n    tag_53:\n        /* \"#utility.yul\":6050:6074   */\n      tag_115\n        /* \"#utility.yul\":6068:6073   */\n      dup2\n        /* \"#utility.yul\":6050:6074   */\n      tag_52\n      jump\t// in\n    tag_115:\n        /* \"#utility.yul\":6045:6048   */\n      dup3\n        /* \"#utility.yul\":6038:6075   */\n      mstore\n        /* \"#utility.yul\":5963:6081   */\n      pop\n      pop\n      jump\t// out\n        /* \"#utility.yul\":6087:6309   */\n    tag_28:\n        /* \"#utility.yul\":6180:6184   */\n      0x00\n        /* \"#utility.yul\":6218:6220   */\n      0x20\n        /* \"#utility.yul\":6207:6216   */\n      dup3\n        /* \"#utility.yul\":6203:6221   */\n      add\n        /* \"#utility.yul\":6195:6221   */\n      swap1\n      pop\n        /* \"#utility.yul\":6231:6302   */\n      tag_117\n        /* \"#utility.yul\":6299:6300   */\n      0x00\n        /* \"#utility.yul\":6288:6297   */\n      dup4\n        /* \"#utility.yul\":6284:6301   */\n      add\n        /* \"#utility.yul\":6275:6281   */\n      dup5\n        /* \"#utility.yul\":6231:6302   */\n      tag_53\n      jump\t// in\n    tag_117:\n        /* \"#utility.yul\":6087:6309   */\n      swap3\n      swap2\n      pop\n      pop\n      jump\t// out\n\n    auxdata: 0xa26469706673582212209f1a931584592e42de447e4bcf487e1501aacaa638b35c960c35f77c3495655164736f6c634300081a0033\n}\n",
				"bytecode": {
					"linkReferences": {},
					"object": "6080604052348015600e575f80fd5b506105c28061001c5f395ff3fe608060405234801561000f575f80fd5b506004361061003f575f3560e01c80633a7d280c14610043578063873138f314610073578063f2c298be14610091575b5f80fd5b61005d600480360381019061005891906103da565b6100ad565b60405161006a919061043b565b60405180910390f35b61007b61011f565b604051610088919061043b565b60405180910390f35b6100ab60048036038101906100a691906103da565b610167565b005b5f80826040516020016100c091906104a6565b604051602081830303815290604052805190602001209050805f803373ffffffffffffffffffffffffffffffffffffffff1673ffffffffffffffffffffffffffffffffffffffff1681526020019081526020015f205414915050919050565b5f805f1b5f803373ffffffffffffffffffffffffffffffffffffffff1673ffffffffffffffffffffffffffffffffffffffff1681526020019081526020015f20541415905090565b5f801b5f803373ffffffffffffffffffffffffffffffffffffffff1673ffffffffffffffffffffffffffffffffffffffff1681526020019081526020015f2054146101e7576040517f08c379a00000000000000000000000000000000000000000000000000000000081526004016101de90610516565b60405180910390fd5b5f816040516020016101f991906104a6565b604051602081830303815290604052805190602001209050805f803373ffffffffffffffffffffffffffffffffffffffff1673ffffffffffffffffffffffffffffffffffffffff1681526020019081526020015f20819055507f54db7a5cb4735e1aac1f53db512d3390390bb6637bd30ad4bf9fc98667d9b9b9336040516102819190610573565b60405180910390a15050565b5f604051905090565b5f80fd5b5f80fd5b5f80fd5b5f80fd5b5f601f19601f8301169050919050565b7f4e487b71000000000000000000000000000000000000000000000000000000005f52604160045260245ffd5b6102ec826102a6565b810181811067ffffffffffffffff8211171561030b5761030a6102b6565b5b80604052505050565b5f61031d61028d565b905061032982826102e3565b919050565b5f67ffffffffffffffff821115610348576103476102b6565b5b610351826102a6565b9050602081019050919050565b828183375f83830152505050565b5f61037e6103798461032e565b610314565b90508281526020810184848401111561039a576103996102a2565b5b6103a584828561035e565b509392505050565b5f82601f8301126103c1576103c061029e565b5b81356103d184826020860161036c565b91505092915050565b5f602082840312156103ef576103ee610296565b5b5f82013567ffffffffffffffff81111561040c5761040b61029a565b5b610418848285016103ad565b91505092915050565b5f8115159050919050565b61043581610421565b82525050565b5f60208201905061044e5f83018461042c565b92915050565b5f81519050919050565b5f81905092915050565b8281835e5f83830152505050565b5f61048082610454565b61048a818561045e565b935061049a818560208601610468565b80840191505092915050565b5f6104b18284610476565b915081905092915050565b5f82825260208201905092915050565b7f5573657220616c726561647920726567697374657265640000000000000000005f82015250565b5f6105006017836104bc565b915061050b826104cc565b602082019050919050565b5f6020820190508181035f83015261052d816104f4565b9050919050565b5f73ffffffffffffffffffffffffffffffffffffffff82169050919050565b5f61055d82610534565b9050919050565b61056d81610553565b82525050565b5f6020820190506105865f830184610564565b9291505056fea26469706673582212209f1a931584592e42de447e4bcf487e1501aacaa638b35c960c35f77c3495655164736f6c634300081a0033",
					"opcodes": "PUSH1 0x80 PUSH1 0x40 MSTORE CALLVALUE DUP1 ISZERO PUSH1 0xE JUMPI PUSH0 DUP1 REVERT JUMPDEST POP PUSH2 0x5C2 DUP1 PUSH2 0x1C PUSH0 CODECOPY PUSH0 RETURN INVALID PUSH1 0x80 PUSH1 0x40 MSTORE CALLVALUE DUP1 ISZERO PUSH2 0xF JUMPI PUSH0 DUP1 REVERT JUMPDEST POP PUSH1 0x4 CALLDATASIZE LT PUSH2 0x3F JUMPI PUSH0 CALLDATALOAD PUSH1 0xE0 SHR DUP1 PUSH4 0x3A7D280C EQ PUSH2 0x43 JUMPI DUP1 PUSH4 0x873138F3 EQ PUSH2 0x73 JUMPI DUP1 PUSH4 0xF2C298BE EQ PUSH2 0x91 JUMPI JUMPDEST PUSH0 DUP1 REVERT JUMPDEST PUSH2 0x5D PUSH1 0x4 DUP1 CALLDATASIZE SUB DUP2 ADD SWAP1 PUSH2 0x58 SWAP2 SWAP1 PUSH2 0x3DA JUMP JUMPDEST PUSH2 0xAD JUMP JUMPDEST PUSH1 0x40 MLOAD PUSH2 0x6A SWAP2 SWAP1 PUSH2 0x43B JUMP JUMPDEST PUSH1 0x40 MLOAD DUP1 SWAP2 SUB SWAP1 RETURN JUMPDEST PUSH2 0x7B PUSH2 0x11F JUMP JUMPDEST PUSH1 0x40 MLOAD PUSH2 0x88 SWAP2 SWAP1 PUSH2 0x43B JUMP JUMPDEST PUSH1 0x40 MLOAD DUP1 SWAP2 SUB SWAP1 RETURN JUMPDEST PUSH2 0xAB PUSH1 0x4 DUP1 CALLDATASIZE SUB DUP2 ADD SWAP1 PUSH2 0xA6 SWAP2 SWAP1 PUSH2 0x3DA JUMP JUMPDEST PUSH2 0x167 JUMP JUMPDEST STOP JUMPDEST PUSH0 DUP1 DUP3 PUSH1 0x40 MLOAD PUSH1 0x20 ADD PUSH2 0xC0 SWAP2 SWAP1 PUSH2 0x4A6 JUMP JUMPDEST PUSH1 0x40 MLOAD PUSH1 0x20 DUP2 DUP4 SUB SUB DUP2 MSTORE SWAP1 PUSH1 0x40 MSTORE DUP1 MLOAD SWAP1 PUSH1 0x20 ADD KECCAK256 SWAP1 POP DUP1 PUSH0 DUP1 CALLER PUSH20 0xFFFFFFFFFFFFFFFFFFFFFFFFFFFFFFFFFFFFFFFF AND PUSH20 0xFFFFFFFFFFFFFFFFFFFFFFFFFFFFFFFFFFFFFFFF AND DUP2 MSTORE PUSH1 0x20 ADD SWAP1 DUP2 MSTORE PUSH1 0x20 ADD PUSH0 KECCAK256 SLOAD EQ SWAP2 POP POP SWAP2 SWAP1 POP JUMP JUMPDEST PUSH0 DUP1 PUSH0 SHL PUSH0 DUP1 CALLER PUSH20 0xFFFFFFFFFFFFFFFFFFFFFFFFFFFFFFFFFFFFFFFF AND PUSH20 0xFFFFFFFFFFFFFFFFFFFFFFFFFFFFFFFFFFFFFFFF AND DUP2 MSTORE PUSH1 0x20 ADD SWAP1 DUP2 MSTORE PUSH1 0x20 ADD PUSH0 KECCAK256 SLOAD EQ ISZERO SWAP1 POP SWAP1 JUMP JUMPDEST PUSH0 DUP1 SHL PUSH0 DUP1 CALLER PUSH20 0xFFFFFFFFFFFFFFFFFFFFFFFFFFFFFFFFFFFFFFFF AND PUSH20 0xFFFFFFFFFFFFFFFFFFFFFFFFFFFFFFFFFFFFFFFF AND DUP2 MSTORE PUSH1 0x20 ADD SWAP1 DUP2 MSTORE PUSH1 0x20 ADD PUSH0 KECCAK256 SLOAD EQ PUSH2 0x1E7 JUMPI PUSH1 0x40 MLOAD PUSH32 0x8C379A000000000000000000000000000000000000000000000000000000000 DUP2 MSTORE PUSH1 0x4 ADD PUSH2 0x1DE SWAP1 PUSH2 0x516 JUMP JUMPDEST PUSH1 0x40 MLOAD DUP1 SWAP2 SUB SWAP1 REVERT JUMPDEST PUSH0 DUP2 PUSH1 0x40 MLOAD PUSH1 0x20 ADD PUSH2 0x1F9 SWAP2 SWAP1 PUSH2 0x4A6 JUMP JUMPDEST PUSH1 0x40 MLOAD PUSH1 0x20 DUP2 DUP4 SUB SUB DUP2 MSTORE SWAP1 PUSH1 0x40 MSTORE DUP1 MLOAD SWAP1 PUSH1 0x20 ADD KECCAK256 SWAP1 POP DUP1 PUSH0 DUP1 CALLER PUSH20 0xFFFFFFFFFFFFFFFFFFFFFFFFFFFFFFFFFFFFFFFF AND PUSH20 0xFFFFFFFFFFFFFFFFFFFFFFFFFFFFFFFFFFFFFFFF AND DUP2 MSTORE PUSH1 0x20 ADD SWAP1 DUP2 MSTORE PUSH1 0x20 ADD PUSH0 KECCAK256 DUP2 SWAP1 SSTORE POP PUSH32 0x54DB7A5CB4735E1AAC1F53DB512D3390390BB6637BD30AD4BF9FC98667D9B9B9 CALLER PUSH1 0x40 MLOAD PUSH2 0x281 SWAP2 SWAP1 PUSH2 0x573 JUMP JUMPDEST PUSH1 0x40 MLOAD DUP1 SWAP2 SUB SWAP1 LOG1 POP POP JUMP JUMPDEST PUSH0 PUSH1 0x40 MLOAD SWAP1 POP SWAP1 JUMP JUMPDEST PUSH0 DUP1 REVERT JUMPDEST PUSH0 DUP1 REVERT JUMPDEST PUSH0 DUP1 REVERT JUMPDEST PUSH0 DUP1 REVERT JUMPDEST PUSH0 PUSH1 0x1F NOT PUSH1 0x1F DUP4 ADD AND SWAP1 POP SWAP2 SWAP1 POP JUMP JUMPDEST PUSH32 0x4E487B7100000000000000000000000000000000000000000000000000000000 PUSH0 MSTORE PUSH1 0x41 PUSH1 0x4 MSTORE PUSH1 0x24 PUSH0 REVERT JUMPDEST PUSH2 0x2EC DUP3 PUSH2 0x2A6 JUMP JUMPDEST DUP2 ADD DUP2 DUP2 LT PUSH8 0xFFFFFFFFFFFFFFFF DUP3 GT OR ISZERO PUSH2 0x30B JUMPI PUSH2 0x30A PUSH2 0x2B6 JUMP JUMPDEST JUMPDEST DUP1 PUSH1 0x40 MSTORE POP POP POP JUMP JUMPDEST PUSH0 PUSH2 0x31D PUSH2 0x28D JUMP JUMPDEST SWAP1 POP PUSH2 0x329 DUP3 DUP3 PUSH2 0x2E3 JUMP JUMPDEST SWAP2 SWAP1 POP JUMP JUMPDEST PUSH0 PUSH8 0xFFFFFFFFFFFFFFFF DUP3 GT ISZERO PUSH2 0x348 JUMPI PUSH2 0x347 PUSH2 0x2B6 JUMP JUMPDEST JUMPDEST PUSH2 0x351 DUP3 PUSH2 0x2A6 JUMP JUMPDEST SWAP1 POP PUSH1 0x20 DUP2 ADD SWAP1 POP SWAP2 SWAP1 POP JUMP JUMPDEST DUP3 DUP2 DUP4 CALLDATACOPY PUSH0 DUP4 DUP4 ADD MSTORE POP POP POP JUMP JUMPDEST PUSH0 PUSH2 0x37E PUSH2 0x379 DUP5 PUSH2 0x32E JUMP JUMPDEST PUSH2 0x314 JUMP JUMPDEST SWAP1 POP DUP3 DUP2 MSTORE PUSH1 0x20 DUP2 ADD DUP5 DUP5 DUP5 ADD GT ISZERO PUSH2 0x39A JUMPI PUSH2 0x399 PUSH2 0x2A2 JUMP JUMPDEST JUMPDEST PUSH2 0x3A5 DUP5 DUP3 DUP6 PUSH2 0x35E JUMP JUMPDEST POP SWAP4 SWAP3 POP POP POP JUMP JUMPDEST PUSH0 DUP3 PUSH1 0x1F DUP4 ADD SLT PUSH2 0x3C1 JUMPI PUSH2 0x3C0 PUSH2 0x29E JUMP JUMPDEST JUMPDEST DUP2 CALLDATALOAD PUSH2 0x3D1 DUP5 DUP3 PUSH1 0x20 DUP7 ADD PUSH2 0x36C JUMP JUMPDEST SWAP2 POP POP SWAP3 SWAP2 POP POP JUMP JUMPDEST PUSH0 PUSH1 0x20 DUP3 DUP5 SUB SLT ISZERO PUSH2 0x3EF JUMPI PUSH2 0x3EE PUSH2 0x296 JUMP JUMPDEST JUMPDEST PUSH0 DUP3 ADD CALLDATALOAD PUSH8 0xFFFFFFFFFFFFFFFF DUP2 GT ISZERO PUSH2 0x40C JUMPI PUSH2 0x40B PUSH2 0x29A JUMP JUMPDEST JUMPDEST PUSH2 0x418 DUP5 DUP3 DUP6 ADD PUSH2 0x3AD JUMP JUMPDEST SWAP2 POP POP SWAP3 SWAP2 POP POP JUMP JUMPDEST PUSH0 DUP2 ISZERO ISZERO SWAP1 POP SWAP2 SWAP1 POP JUMP JUMPDEST PUSH2 0x435 DUP2 PUSH2 0x421 JUMP JUMPDEST DUP3 MSTORE POP POP JUMP JUMPDEST PUSH0 PUSH1 0x20 DUP3 ADD SWAP1 POP PUSH2 0x44E PUSH0 DUP4 ADD DUP5 PUSH2 0x42C JUMP JUMPDEST SWAP3 SWAP2 POP POP JUMP JUMPDEST PUSH0 DUP2 MLOAD SWAP1 POP SWAP2 SWAP1 POP JUMP JUMPDEST PUSH0 DUP2 SWAP1 POP SWAP3 SWAP2 POP POP JUMP JUMPDEST DUP3 DUP2 DUP4 MCOPY PUSH0 DUP4 DUP4 ADD MSTORE POP POP POP JUMP JUMPDEST PUSH0 PUSH2 0x480 DUP3 PUSH2 0x454 JUMP JUMPDEST PUSH2 0x48A DUP2 DUP6 PUSH2 0x45E JUMP JUMPDEST SWAP4 POP PUSH2 0x49A DUP2 DUP6 PUSH1 0x20 DUP7 ADD PUSH2 0x468 JUMP JUMPDEST DUP1 DUP5 ADD SWAP2 POP POP SWAP3 SWAP2 POP POP JUMP JUMPDEST PUSH0 PUSH2 0x4B1 DUP3 DUP5 PUSH2 0x476 JUMP JUMPDEST SWAP2 POP DUP2 SWAP1 POP SWAP3 SWAP2 POP POP JUMP JUMPDEST PUSH0 DUP3 DUP3 MSTORE PUSH1 0x20 DUP3 ADD SWAP1 POP SWAP3 SWAP2 POP POP JUMP JUMPDEST PUSH32 0x5573657220616C72656164792072656769737465726564000000000000000000 PUSH0 DUP3 ADD MSTORE POP JUMP JUMPDEST PUSH0 PUSH2 0x500 PUSH1 0x17 DUP4 PUSH2 0x4BC JUMP JUMPDEST SWAP2 POP PUSH2 0x50B DUP3 PUSH2 0x4CC JUMP JUMPDEST PUSH1 0x20 DUP3 ADD SWAP1 POP SWAP2 SWAP1 POP JUMP JUMPDEST PUSH0 PUSH1 0x20 DUP3 ADD SWAP1 POP DUP2 DUP2 SUB PUSH0 DUP4 ADD MSTORE PUSH2 0x52D DUP2 PUSH2 0x4F4 JUMP JUMPDEST SWAP1 POP SWAP2 SWAP1 POP JUMP JUMPDEST PUSH0 PUSH20 0xFFFFFFFFFFFFFFFFFFFFFFFFFFFFFFFFFFFFFFFF DUP3 AND SWAP1 POP SWAP2 SWAP1 POP JUMP JUMPDEST PUSH0 PUSH2 0x55D DUP3 PUSH2 0x534 JUMP JUMPDEST SWAP1 POP SWAP2 SWAP1 POP JUMP JUMPDEST PUSH2 0x56D DUP2 PUSH2 0x553 JUMP JUMPDEST DUP3 MSTORE POP POP JUMP JUMPDEST PUSH0 PUSH1 0x20 DUP3 ADD SWAP1 POP PUSH2 0x586 PUSH0 DUP4 ADD DUP5 PUSH2 0x564 JUMP JUMPDEST SWAP3 SWAP2 POP POP JUMP INVALID LOG2 PUSH5 0x6970667358 0x22 SLT KECCAK256 SWAP16 BYTE SWAP4 ISZERO DUP5 MSIZE 0x2E TIMESTAMP 0xDE PREVRANDAO PUSH31 0x4BCF487E1501AACAA638B35C960C35F77C3495655164736F6C634300081A00 CALLER "
				},
				"gasEstimates": {
					"creation": {
						"codeDepositCost": "294800",
						"executionCost": "335",
						"totalCost": "295135"
					},
					"external": {
						"isUserRegistered()": "2539",
						"login(string)": "infinite",
						"register(string)": "infinite"
					}
				},
				"methodIdentifiers": {
					"isUserRegistered()": "873138f3",
					"login(string)": "3a7d280c",
					"register(string)": "f2c298be"
				}
			},
			"storageLayout": {
				"storage": [
					{
						"astId": 5,
						"contract": "contracts/login.sol:LoginSystem",
						"label": "passwordHashes",
						"offset": 0,
						"slot": "0",
						"type": "t_mapping(t_address,t_bytes32)"
					}
				],
				"types": {
					"t_address": {
						"encoding": "inplace",
						"label": "address",
						"numberOfBytes": "20"
					},
					"t_bytes32": {
						"encoding": "inplace",
						"label": "bytes32",
						"numberOfBytes": "32"
					},
					"t_mapping(t_address,t_bytes32)": {
						"encoding": "mapping",
						"key": "t_address",
						"label": "mapping(address => bytes32)",
						"numberOfBytes": "32",
						"value": "t_bytes32"
					}
				}
			},
			"userdoc": {
				"kind": "user",
				"methods": {},
				"version": 1
			}
		}
	}
}