{
	"contracts/main.sol": {
		"main": {
			"abi": [
				{
					"inputs": [
						{
							"internalType": "string",
							"name": "_donorPass",
							"type": "string"
						},
						{
							"internalType": "string",
							"name": "_recipientPass",
							"type": "string"
						},
						{
							"internalType": "string",
							"name": "_matchedPass",
							"type": "string"
						}
					],
					"stateMutability": "nonpayable",
					"type": "constructor"
				},
				{
					"anonymous": false,
					"inputs": [
						{
							"indexed": false,
							"internalType": "string",
							"name": "donorOwner",
							"type": "string"
						},
						{
							"indexed": false,
							"internalType": "uint256",
							"name": "donorBloodType",
							"type": "uint256"
						},
						{
							"indexed": false,
							"internalType": "string",
							"name": "donorOrgan",
							"type": "string"
						},
						{
							"indexed": false,
							"internalType": "uint256",
							"name": "donorQuantity",
							"type": "uint256"
						}
					],
					"name": "DonMatchFound",
					"type": "event"
				},
				{
					"anonymous": false,
					"inputs": [
						{
							"indexed": false,
							"internalType": "string",
							"name": "recipientOwner",
							"type": "string"
						},
						{
							"indexed": false,
							"internalType": "uint256",
							"name": "recipientBloodType",
							"type": "uint256"
						},
						{
							"indexed": false,
							"internalType": "string",
							"name": "recipientOrgan",
							"type": "string"
						},
						{
							"indexed": false,
							"internalType": "uint256",
							"name": "recipientQuantity",
							"type": "uint256"
						}
					],
					"name": "RecMatchFound",
					"type": "event"
				},
				{
					"inputs": [
						{
							"internalType": "string",
							"name": "_owner",
							"type": "string"
						},
						{
							"internalType": "uint256",
							"name": "_bloodtype",
							"type": "uint256"
						},
						{
							"internalType": "string",
							"name": "_organ",
							"type": "string"
						},
						{
							"internalType": "uint256",
							"name": "_quantity",
							"type": "uint256"
						}
					],
					"name": "findMatchORaddDonor",
					"outputs": [],
					"stateMutability": "nonpayable",
					"type": "function"
				},
				{
					"inputs": [
						{
							"internalType": "string",
							"name": "_owner",
							"type": "string"
						},
						{
							"internalType": "string",
							"name": "_organ",
							"type": "string"
						},
						{
							"internalType": "uint256",
							"name": "_bloodtype",
							"type": "uint256"
						},
						{
							"internalType": "uint256",
							"name": "_quantity",
							"type": "uint256"
						}
					],
					"name": "findMatchORaddRecipient",
					"outputs": [],
					"stateMutability": "nonpayable",
					"type": "function"
				},
				{
					"inputs": [
						{
							"internalType": "string",
							"name": "_pass",
							"type": "string"
						}
					],
					"name": "showDonors",
					"outputs": [
						{
							"components": [
								{
									"internalType": "string",
									"name": "owner",
									"type": "string"
								},
								{
									"internalType": "uint256",
									"name": "bloodtype",
									"type": "uint256"
								},
								{
									"internalType": "string",
									"name": "organ",
									"type": "string"
								},
								{
									"internalType": "uint256",
									"name": "quantity",
									"type": "uint256"
								}
							],
							"internalType": "struct main.orgdet[]",
							"name": "",
							"type": "tuple[]"
						}
					],
					"stateMutability": "view",
					"type": "function"
				},
				{
					"inputs": [
						{
							"internalType": "string",
							"name": "_pass",
							"type": "string"
						}
					],
					"name": "showMatches",
					"outputs": [
						{
							"components": [
								{
									"internalType": "string",
									"name": "donor",
									"type": "string"
								},
								{
									"internalType": "string",
									"name": "recipient",
									"type": "string"
								},
								{
									"internalType": "uint256",
									"name": "donorbloodtype",
									"type": "uint256"
								},
								{
									"internalType": "uint256",
									"name": "recipientbloodtype",
									"type": "uint256"
								},
								{
									"internalType": "string",
									"name": "organ",
									"type": "string"
								},
								{
									"internalType": "uint256",
									"name": "donorquantity",
									"type": "uint256"
								},
								{
									"internalType": "uint256",
									"name": "recipientquantity",
									"type": "uint256"
								}
							],
							"internalType": "struct main.matched_orgdet[]",
							"name": "",
							"type": "tuple[]"
						}
					],
					"stateMutability": "view",
					"type": "function"
				},
				{
					"inputs": [
						{
							"internalType": "string",
							"name": "_pass",
							"type": "string"
						}
					],
					"name": "showRecipient",
					"outputs": [
						{
							"components": [
								{
									"internalType": "string",
									"name": "owner",
									"type": "string"
								},
								{
									"internalType": "uint256",
									"name": "bloodtype",
									"type": "uint256"
								},
								{
									"internalType": "string",
									"name": "organ",
									"type": "string"
								},
								{
									"internalType": "uint256",
									"name": "quantity",
									"type": "uint256"
								}
							],
							"internalType": "struct main.orgdet[]",
							"name": "",
							"type": "tuple[]"
						}
					],
					"stateMutability": "view",
					"type": "function"
				}
			],
			"devdoc": {
				"kind": "dev",
				"methods": {},
				"version": 1
			},
			"evm": {
				"assembly": "    /* \"contracts/main.sol\":58:5457  contract main {... */\n  mstore(0x40, 0x80)\n    /* \"contracts/main.sol\":1892:2350  uint256[10][10] private compatMatrix = [[1, 1, 0, 0, 0, 0, 1, 1, 0, 0],... */\n  mload(0x40)\n  dup1\n  0x0140\n  add\n  0x40\n  mstore\n  dup1\n  mload(0x40)\n  dup1\n  0x0140\n  add\n  0x40\n  mstore\n  dup1\n    /* \"contracts/main.sol\":1933:1934  1 */\n  0x01\n    /* \"contracts/main.sol\":1892:2350  uint256[10][10] private compatMatrix = [[1, 1, 0, 0, 0, 0, 1, 1, 0, 0],... */\n  0xff\n  and\n  dup2\n  mstore\n  0x20\n  add\n    /* \"contracts/main.sol\":1936:1937  1 */\n  0x01\n    /* \"contracts/main.sol\":1892:2350  uint256[10][10] private compatMatrix = [[1, 1, 0, 0, 0, 0, 1, 1, 0, 0],... */\n  0xff\n  and\n  dup2\n  mstore\n  0x20\n  add\n    /* \"contracts/main.sol\":1939:1940  0 */\n  0x00\n    /* \"contracts/main.sol\":1892:2350  uint256[10][10] private compatMatrix = [[1, 1, 0, 0, 0, 0, 1, 1, 0, 0],... */\n  0xff\n  and\n  dup2\n  mstore\n  0x20\n  add\n    /* \"contracts/main.sol\":1942:1943  0 */\n  0x00\n    /* \"contracts/main.sol\":1892:2350  uint256[10][10] private compatMatrix = [[1, 1, 0, 0, 0, 0, 1, 1, 0, 0],... */\n  0xff\n  and\n  dup2\n  mstore\n  0x20\n  add\n    /* \"contracts/main.sol\":1945:1946  0 */\n  0x00\n    /* \"contracts/main.sol\":1892:2350  uint256[10][10] private compatMatrix = [[1, 1, 0, 0, 0, 0, 1, 1, 0, 0],... */\n  0xff\n  and\n  dup2\n  mstore\n  0x20\n  add\n    /* \"contracts/main.sol\":1948:1949  0 */\n  0x00\n    /* \"contracts/main.sol\":1892:2350  uint256[10][10] private compatMatrix = [[1, 1, 0, 0, 0, 0, 1, 1, 0, 0],... */\n  0xff\n  and\n  dup2\n  mstore\n  0x20\n  add\n    /* \"contracts/main.sol\":1951:1952  1 */\n  0x01\n    /* \"contracts/main.sol\":1892:2350  uint256[10][10] private compatMatrix = [[1, 1, 0, 0, 0, 0, 1, 1, 0, 0],... */\n  0xff\n  and\n  dup2\n  mstore\n  0x20\n  add\n    /* \"contracts/main.sol\":1954:1955  1 */\n  0x01\n    /* \"contracts/main.sol\":1892:2350  uint256[10][10] private compatMatrix = [[1, 1, 0, 0, 0, 0, 1, 1, 0, 0],... */\n  0xff\n  and\n  dup2\n  mstore\n  0x20\n  add\n    /* \"contracts/main.sol\":1957:1958  0 */\n  0x00\n    /* \"contracts/main.sol\":1892:2350  uint256[10][10] private compatMatrix = [[1, 1, 0, 0, 0, 0, 1, 1, 0, 0],... */\n  0xff\n  and\n  dup2\n  mstore\n  0x20\n  add\n    /* \"contracts/main.sol\":1960:1961  0 */\n  0x00\n    /* \"contracts/main.sol\":1892:2350  uint256[10][10] private compatMatrix = [[1, 1, 0, 0, 0, 0, 1, 1, 0, 0],... */\n  0xff\n  and\n  dup2\n  mstore\n  pop\n  dup2\n  mstore\n  0x20\n  add\n  mload(0x40)\n  dup1\n  0x0140\n  add\n  0x40\n  mstore\n  dup1\n    /* \"contracts/main.sol\":1976:1977  0 */\n  0x00\n    /* \"contracts/main.sol\":1892:2350  uint256[10][10] private compatMatrix = [[1, 1, 0, 0, 0, 0, 1, 1, 0, 0],... */\n  0xff\n  and\n  dup2\n  mstore\n  0x20\n  add\n    /* \"contracts/main.sol\":1979:1980  1 */\n  0x01\n    /* \"contracts/main.sol\":1892:2350  uint256[10][10] private compatMatrix = [[1, 1, 0, 0, 0, 0, 1, 1, 0, 0],... */\n  0xff\n  and\n  dup2\n  mstore\n  0x20\n  add\n    /* \"contracts/main.sol\":1982:1983  0 */\n  0x00\n    /* \"contracts/main.sol\":1892:2350  uint256[10][10] private compatMatrix = [[1, 1, 0, 0, 0, 0, 1, 1, 0, 0],... */\n  0xff\n  and\n  dup2\n  mstore\n  0x20\n  add\n    /* \"contracts/main.sol\":1985:1986  0 */\n  0x00\n    /* \"contracts/main.sol\":1892:2350  uint256[10][10] private compatMatrix = [[1, 1, 0, 0, 0, 0, 1, 1, 0, 0],... */\n  0xff\n  and\n  dup2\n  mstore\n  0x20\n  add\n    /* \"contracts/main.sol\":1988:1989  0 */\n  0x00\n    /* \"contracts/main.sol\":1892:2350  uint256[10][10] private compatMatrix = [[1, 1, 0, 0, 0, 0, 1, 1, 0, 0],... */\n  0xff\n  and\n  dup2\n  mstore\n  0x20\n  add\n    /* \"contracts/main.sol\":1991:1992  0 */\n  0x00\n    /* \"contracts/main.sol\":1892:2350  uint256[10][10] private compatMatrix = [[1, 1, 0, 0, 0, 0, 1, 1, 0, 0],... */\n  0xff\n  and\n  dup2\n  mstore\n  0x20\n  add\n    /* \"contracts/main.sol\":1994:1995  0 */\n  0x00\n    /* \"contracts/main.sol\":1892:2350  uint256[10][10] private compatMatrix = [[1, 1, 0, 0, 0, 0, 1, 1, 0, 0],... */\n  0xff\n  and\n  dup2\n  mstore\n  0x20\n  add\n    /* \"contracts/main.sol\":1997:1998  1 */\n  0x01\n    /* \"contracts/main.sol\":1892:2350  uint256[10][10] private compatMatrix = [[1, 1, 0, 0, 0, 0, 1, 1, 0, 0],... */\n  0xff\n  and\n  dup2\n  mstore\n  0x20\n  add\n    /* \"contracts/main.sol\":2000:2001  0 */\n  0x00\n    /* \"contracts/main.sol\":1892:2350  uint256[10][10] private compatMatrix = [[1, 1, 0, 0, 0, 0, 1, 1, 0, 0],... */\n  0xff\n  and\n  dup2\n  mstore\n  0x20\n  add\n    /* \"contracts/main.sol\":2003:2004  0 */\n  0x00\n    /* \"contracts/main.sol\":1892:2350  uint256[10][10] private compatMatrix = [[1, 1, 0, 0, 0, 0, 1, 1, 0, 0],... */\n  0xff\n  and\n  dup2\n  mstore\n  pop\n  dup2\n  mstore\n  0x20\n  add\n  mload(0x40)\n  dup1\n  0x0140\n  add\n  0x40\n  mstore\n  dup1\n    /* \"contracts/main.sol\":2019:2020  0 */\n  0x00\n    /* \"contracts/main.sol\":1892:2350  uint256[10][10] private compatMatrix = [[1, 1, 0, 0, 0, 0, 1, 1, 0, 0],... */\n  0xff\n  and\n  dup2\n  mstore\n  0x20\n  add\n    /* \"contracts/main.sol\":2022:2023  0 */\n  0x00\n    /* \"contracts/main.sol\":1892:2350  uint256[10][10] private compatMatrix = [[1, 1, 0, 0, 0, 0, 1, 1, 0, 0],... */\n  0xff\n  and\n  dup2\n  mstore\n  0x20\n  add\n    /* \"contracts/main.sol\":2025:2026  1 */\n  0x01\n    /* \"contracts/main.sol\":1892:2350  uint256[10][10] private compatMatrix = [[1, 1, 0, 0, 0, 0, 1, 1, 0, 0],... */\n  0xff\n  and\n  dup2\n  mstore\n  0x20\n  add\n    /* \"contracts/main.sol\":2028:2029  1 */\n  0x01\n    /* \"contracts/main.sol\":1892:2350  uint256[10][10] private compatMatrix = [[1, 1, 0, 0, 0, 0, 1, 1, 0, 0],... */\n  0xff\n  and\n  dup2\n  mstore\n  0x20\n  add\n    /* \"contracts/main.sol\":2031:2032  0 */\n  0x00\n    /* \"contracts/main.sol\":1892:2350  uint256[10][10] private compatMatrix = [[1, 1, 0, 0, 0, 0, 1, 1, 0, 0],... */\n  0xff\n  and\n  dup2\n  mstore\n  0x20\n  add\n    /* \"contracts/main.sol\":2034:2035  0 */\n  0x00\n    /* \"contracts/main.sol\":1892:2350  uint256[10][10] private compatMatrix = [[1, 1, 0, 0, 0, 0, 1, 1, 0, 0],... */\n  0xff\n  and\n  dup2\n  mstore\n  0x20\n  add\n    /* \"contracts/main.sol\":2037:2038  1 */\n  0x01\n    /* \"contracts/main.sol\":1892:2350  uint256[10][10] private compatMatrix = [[1, 1, 0, 0, 0, 0, 1, 1, 0, 0],... */\n  0xff\n  and\n  dup2\n  mstore\n  0x20\n  add\n    /* \"contracts/main.sol\":2040:2041  1 */\n  0x01\n    /* \"contracts/main.sol\":1892:2350  uint256[10][10] private compatMatrix = [[1, 1, 0, 0, 0, 0, 1, 1, 0, 0],... */\n  0xff\n  and\n  dup2\n  mstore\n  0x20\n  add\n    /* \"contracts/main.sol\":2043:2044  0 */\n  0x00\n    /* \"contracts/main.sol\":1892:2350  uint256[10][10] private compatMatrix = [[1, 1, 0, 0, 0, 0, 1, 1, 0, 0],... */\n  0xff\n  and\n  dup2\n  mstore\n  0x20\n  add\n    /* \"contracts/main.sol\":2046:2047  0 */\n  0x00\n    /* \"contracts/main.sol\":1892:2350  uint256[10][10] private compatMatrix = [[1, 1, 0, 0, 0, 0, 1, 1, 0, 0],... */\n  0xff\n  and\n  dup2\n  mstore\n  pop\n  dup2\n  mstore\n  0x20\n  add\n  mload(0x40)\n  dup1\n  0x0140\n  add\n  0x40\n  mstore\n  dup1\n    /* \"contracts/main.sol\":2062:2063  0 */\n  0x00\n    /* \"contracts/main.sol\":1892:2350  uint256[10][10] private compatMatrix = [[1, 1, 0, 0, 0, 0, 1, 1, 0, 0],... */\n  0xff\n  and\n  dup2\n  mstore\n  0x20\n  add\n    /* \"contracts/main.sol\":2065:2066  0 */\n  0x00\n    /* \"contracts/main.sol\":1892:2350  uint256[10][10] private compatMatrix = [[1, 1, 0, 0, 0, 0, 1, 1, 0, 0],... */\n  0xff\n  and\n  dup2\n  mstore\n  0x20\n  add\n    /* \"contracts/main.sol\":2068:2069  0 */\n  0x00\n    /* \"contracts/main.sol\":1892:2350  uint256[10][10] private compatMatrix = [[1, 1, 0, 0, 0, 0, 1, 1, 0, 0],... */\n  0xff\n  and\n  dup2\n  mstore\n  0x20\n  add\n    /* \"contracts/main.sol\":2071:2072  1 */\n  0x01\n    /* \"contracts/main.sol\":1892:2350  uint256[10][10] private compatMatrix = [[1, 1, 0, 0, 0, 0, 1, 1, 0, 0],... */\n  0xff\n  and\n  dup2\n  mstore\n  0x20\n  add\n    /* \"contracts/main.sol\":2074:2075  0 */\n  0x00\n    /* \"contracts/main.sol\":1892:2350  uint256[10][10] private compatMatrix = [[1, 1, 0, 0, 0, 0, 1, 1, 0, 0],... */\n  0xff\n  and\n  dup2\n  mstore\n  0x20\n  add\n    /* \"contracts/main.sol\":2077:2078  0 */\n  0x00\n    /* \"contracts/main.sol\":1892:2350  uint256[10][10] private compatMatrix = [[1, 1, 0, 0, 0, 0, 1, 1, 0, 0],... */\n  0xff\n  and\n  dup2\n  mstore\n  0x20\n  add\n    /* \"contracts/main.sol\":2080:2081  0 */\n  0x00\n    /* \"contracts/main.sol\":1892:2350  uint256[10][10] private compatMatrix = [[1, 1, 0, 0, 0, 0, 1, 1, 0, 0],... */\n  0xff\n  and\n  dup2\n  mstore\n  0x20\n  add\n    /* \"contracts/main.sol\":2083:2084  1 */\n  0x01\n    /* \"contracts/main.sol\":1892:2350  uint256[10][10] private compatMatrix = [[1, 1, 0, 0, 0, 0, 1, 1, 0, 0],... */\n  0xff\n  and\n  dup2\n  mstore\n  0x20\n  add\n    /* \"contracts/main.sol\":2086:2087  0 */\n  0x00\n    /* \"contracts/main.sol\":1892:2350  uint256[10][10] private compatMatrix = [[1, 1, 0, 0, 0, 0, 1, 1, 0, 0],... */\n  0xff\n  and\n  dup2\n  mstore\n  0x20\n  add\n    /* \"contracts/main.sol\":2089:2090  0 */\n  0x00\n    /* \"contracts/main.sol\":1892:2350  uint256[10][10] private compatMatrix = [[1, 1, 0, 0, 0, 0, 1, 1, 0, 0],... */\n  0xff\n  and\n  dup2\n  mstore\n  pop\n  dup2\n  mstore\n  0x20\n  add\n  mload(0x40)\n  dup1\n  0x0140\n  add\n  0x40\n  mstore\n  dup1\n    /* \"contracts/main.sol\":2105:2106  1 */\n  0x01\n    /* \"contracts/main.sol\":1892:2350  uint256[10][10] private compatMatrix = [[1, 1, 0, 0, 0, 0, 1, 1, 0, 0],... */\n  0xff\n  and\n  dup2\n  mstore\n  0x20\n  add\n    /* \"contracts/main.sol\":2108:2109  1 */\n  0x01\n    /* \"contracts/main.sol\":1892:2350  uint256[10][10] private compatMatrix = [[1, 1, 0, 0, 0, 0, 1, 1, 0, 0],... */\n  0xff\n  and\n  dup2\n  mstore\n  0x20\n  add\n    /* \"contracts/main.sol\":2111:2112  1 */\n  0x01\n    /* \"contracts/main.sol\":1892:2350  uint256[10][10] private compatMatrix = [[1, 1, 0, 0, 0, 0, 1, 1, 0, 0],... */\n  0xff\n  and\n  dup2\n  mstore\n  0x20\n  add\n    /* \"contracts/main.sol\":2114:2115  1 */\n  0x01\n    /* \"contracts/main.sol\":1892:2350  uint256[10][10] private compatMatrix = [[1, 1, 0, 0, 0, 0, 1, 1, 0, 0],... */\n  0xff\n  and\n  dup2\n  mstore\n  0x20\n  add\n    /* \"contracts/main.sol\":2117:2118  1 */\n  0x01\n    /* \"contracts/main.sol\":1892:2350  uint256[10][10] private compatMatrix = [[1, 1, 0, 0, 0, 0, 1, 1, 0, 0],... */\n  0xff\n  and\n  dup2\n  mstore\n  0x20\n  add\n    /* \"contracts/main.sol\":2120:2121  1 */\n  0x01\n    /* \"contracts/main.sol\":1892:2350  uint256[10][10] private compatMatrix = [[1, 1, 0, 0, 0, 0, 1, 1, 0, 0],... */\n  0xff\n  and\n  dup2\n  mstore\n  0x20\n  add\n    /* \"contracts/main.sol\":2123:2124  1 */\n  0x01\n    /* \"contracts/main.sol\":1892:2350  uint256[10][10] private compatMatrix = [[1, 1, 0, 0, 0, 0, 1, 1, 0, 0],... */\n  0xff\n  and\n  dup2\n  mstore\n  0x20\n  add\n    /* \"contracts/main.sol\":2126:2127  1 */\n  0x01\n    /* \"contracts/main.sol\":1892:2350  uint256[10][10] private compatMatrix = [[1, 1, 0, 0, 0, 0, 1, 1, 0, 0],... */\n  0xff\n  and\n  dup2\n  mstore\n  0x20\n  add\n    /* \"contracts/main.sol\":2129:2130  0 */\n  0x00\n    /* \"contracts/main.sol\":1892:2350  uint256[10][10] private compatMatrix = [[1, 1, 0, 0, 0, 0, 1, 1, 0, 0],... */\n  0xff\n  and\n  dup2\n  mstore\n  0x20\n  add\n    /* \"contracts/main.sol\":2132:2133  0 */\n  0x00\n    /* \"contracts/main.sol\":1892:2350  uint256[10][10] private compatMatrix = [[1, 1, 0, 0, 0, 0, 1, 1, 0, 0],... */\n  0xff\n  and\n  dup2\n  mstore\n  pop\n  dup2\n  mstore\n  0x20\n  add\n  mload(0x40)\n  dup1\n  0x0140\n  add\n  0x40\n  mstore\n  dup1\n    /* \"contracts/main.sol\":2148:2149  0 */\n  0x00\n    /* \"contracts/main.sol\":1892:2350  uint256[10][10] private compatMatrix = [[1, 1, 0, 0, 0, 0, 1, 1, 0, 0],... */\n  0xff\n  and\n  dup2\n  mstore\n  0x20\n  add\n    /* \"contracts/main.sol\":2151:2152  1 */\n  0x01\n    /* \"contracts/main.sol\":1892:2350  uint256[10][10] private compatMatrix = [[1, 1, 0, 0, 0, 0, 1, 1, 0, 0],... */\n  0xff\n  and\n  dup2\n  mstore\n  0x20\n  add\n    /* \"contracts/main.sol\":2154:2155  0 */\n  0x00\n    /* \"contracts/main.sol\":1892:2350  uint256[10][10] private compatMatrix = [[1, 1, 0, 0, 0, 0, 1, 1, 0, 0],... */\n  0xff\n  and\n  dup2\n  mstore\n  0x20\n  add\n    /* \"contracts/main.sol\":2157:2158  1 */\n  0x01\n    /* \"contracts/main.sol\":1892:2350  uint256[10][10] private compatMatrix = [[1, 1, 0, 0, 0, 0, 1, 1, 0, 0],... */\n  0xff\n  and\n  dup2\n  mstore\n  0x20\n  add\n    /* \"contracts/main.sol\":2160:2161  0 */\n  0x00\n    /* \"contracts/main.sol\":1892:2350  uint256[10][10] private compatMatrix = [[1, 1, 0, 0, 0, 0, 1, 1, 0, 0],... */\n  0xff\n  and\n  dup2\n  mstore\n  0x20\n  add\n    /* \"contracts/main.sol\":2163:2164  1 */\n  0x01\n    /* \"contracts/main.sol\":1892:2350  uint256[10][10] private compatMatrix = [[1, 1, 0, 0, 0, 0, 1, 1, 0, 0],... */\n  0xff\n  and\n  dup2\n  mstore\n  0x20\n  add\n    /* \"contracts/main.sol\":2166:2167  0 */\n  0x00\n    /* \"contracts/main.sol\":1892:2350  uint256[10][10] private compatMatrix = [[1, 1, 0, 0, 0, 0, 1, 1, 0, 0],... */\n  0xff\n  and\n  dup2\n  mstore\n  0x20\n  add\n    /* \"contracts/main.sol\":2169:2170  1 */\n  0x01\n    /* \"contracts/main.sol\":1892:2350  uint256[10][10] private compatMatrix = [[1, 1, 0, 0, 0, 0, 1, 1, 0, 0],... */\n  0xff\n  and\n  dup2\n  mstore\n  0x20\n  add\n    /* \"contracts/main.sol\":2172:2173  0 */\n  0x00\n    /* \"contracts/main.sol\":1892:2350  uint256[10][10] private compatMatrix = [[1, 1, 0, 0, 0, 0, 1, 1, 0, 0],... */\n  0xff\n  and\n  dup2\n  mstore\n  0x20\n  add\n    /* \"contracts/main.sol\":2175:2176  0 */\n  0x00\n    /* \"contracts/main.sol\":1892:2350  uint256[10][10] private compatMatrix = [[1, 1, 0, 0, 0, 0, 1, 1, 0, 0],... */\n  0xff\n  and\n  dup2\n  mstore\n  pop\n  dup2\n  mstore\n  0x20\n  add\n  mload(0x40)\n  dup1\n  0x0140\n  add\n  0x40\n  mstore\n  dup1\n    /* \"contracts/main.sol\":2191:2192  0 */\n  0x00\n    /* \"contracts/main.sol\":1892:2350  uint256[10][10] private compatMatrix = [[1, 1, 0, 0, 0, 0, 1, 1, 0, 0],... */\n  0xff\n  and\n  dup2\n  mstore\n  0x20\n  add\n    /* \"contracts/main.sol\":2194:2195  0 */\n  0x00\n    /* \"contracts/main.sol\":1892:2350  uint256[10][10] private compatMatrix = [[1, 1, 0, 0, 0, 0, 1, 1, 0, 0],... */\n  0xff\n  and\n  dup2\n  mstore\n  0x20\n  add\n    /* \"contracts/main.sol\":2197:2198  0 */\n  0x00\n    /* \"contracts/main.sol\":1892:2350  uint256[10][10] private compatMatrix = [[1, 1, 0, 0, 0, 0, 1, 1, 0, 0],... */\n  0xff\n  and\n  dup2\n  mstore\n  0x20\n  add\n    /* \"contracts/main.sol\":2200:2201  0 */\n  0x00\n    /* \"contracts/main.sol\":1892:2350  uint256[10][10] private compatMatrix = [[1, 1, 0, 0, 0, 0, 1, 1, 0, 0],... */\n  0xff\n  and\n  dup2\n  mstore\n  0x20\n  add\n    /* \"contracts/main.sol\":2203:2204  0 */\n  0x00\n    /* \"contracts/main.sol\":1892:2350  uint256[10][10] private compatMatrix = [[1, 1, 0, 0, 0, 0, 1, 1, 0, 0],... */\n  0xff\n  and\n  dup2\n  mstore\n  0x20\n  add\n    /* \"contracts/main.sol\":2206:2207  0 */\n  0x00\n    /* \"contracts/main.sol\":1892:2350  uint256[10][10] private compatMatrix = [[1, 1, 0, 0, 0, 0, 1, 1, 0, 0],... */\n  0xff\n  and\n  dup2\n  mstore\n  0x20\n  add\n    /* \"contracts/main.sol\":2209:2210  1 */\n  0x01\n    /* \"contracts/main.sol\":1892:2350  uint256[10][10] private compatMatrix = [[1, 1, 0, 0, 0, 0, 1, 1, 0, 0],... */\n  0xff\n  and\n  dup2\n  mstore\n  0x20\n  add\n    /* \"contracts/main.sol\":2212:2213  1 */\n  0x01\n    /* \"contracts/main.sol\":1892:2350  uint256[10][10] private compatMatrix = [[1, 1, 0, 0, 0, 0, 1, 1, 0, 0],... */\n  0xff\n  and\n  dup2\n  mstore\n  0x20\n  add\n    /* \"contracts/main.sol\":2215:2216  0 */\n  0x00\n    /* \"contracts/main.sol\":1892:2350  uint256[10][10] private compatMatrix = [[1, 1, 0, 0, 0, 0, 1, 1, 0, 0],... */\n  0xff\n  and\n  dup2\n  mstore\n  0x20\n  add\n    /* \"contracts/main.sol\":2218:2219  0 */\n  0x00\n    /* \"contracts/main.sol\":1892:2350  uint256[10][10] private compatMatrix = [[1, 1, 0, 0, 0, 0, 1, 1, 0, 0],... */\n  0xff\n  and\n  dup2\n  mstore\n  pop\n  dup2\n  mstore\n  0x20\n  add\n  mload(0x40)\n  dup1\n  0x0140\n  add\n  0x40\n  mstore\n  dup1\n    /* \"contracts/main.sol\":2234:2235  0 */\n  0x00\n    /* \"contracts/main.sol\":1892:2350  uint256[10][10] private compatMatrix = [[1, 1, 0, 0, 0, 0, 1, 1, 0, 0],... */\n  0xff\n  and\n  dup2\n  mstore\n  0x20\n  add\n    /* \"contracts/main.sol\":2237:2238  0 */\n  0x00\n    /* \"contracts/main.sol\":1892:2350  uint256[10][10] private compatMatrix = [[1, 1, 0, 0, 0, 0, 1, 1, 0, 0],... */\n  0xff\n  and\n  dup2\n  mstore\n  0x20\n  add\n    /* \"contracts/main.sol\":2240:2241  0 */\n  0x00\n    /* \"contracts/main.sol\":1892:2350  uint256[10][10] private compatMatrix = [[1, 1, 0, 0, 0, 0, 1, 1, 0, 0],... */\n  0xff\n  and\n  dup2\n  mstore\n  0x20\n  add\n    /* \"contracts/main.sol\":2243:2244  0 */\n  0x00\n    /* \"contracts/main.sol\":1892:2350  uint256[10][10] private compatMatrix = [[1, 1, 0, 0, 0, 0, 1, 1, 0, 0],... */\n  0xff\n  and\n  dup2\n  mstore\n  0x20\n  add\n    /* \"contracts/main.sol\":2246:2247  0 */\n  0x00\n    /* \"contracts/main.sol\":1892:2350  uint256[10][10] private compatMatrix = [[1, 1, 0, 0, 0, 0, 1, 1, 0, 0],... */\n  0xff\n  and\n  dup2\n  mstore\n  0x20\n  add\n    /* \"contracts/main.sol\":2249:2250  0 */\n  0x00\n    /* \"contracts/main.sol\":1892:2350  uint256[10][10] private compatMatrix = [[1, 1, 0, 0, 0, 0, 1, 1, 0, 0],... */\n  0xff\n  and\n  dup2\n  mstore\n  0x20\n  add\n    /* \"contracts/main.sol\":2252:2253  0 */\n  0x00\n    /* \"contracts/main.sol\":1892:2350  uint256[10][10] private compatMatrix = [[1, 1, 0, 0, 0, 0, 1, 1, 0, 0],... */\n  0xff\n  and\n  dup2\n  mstore\n  0x20\n  add\n    /* \"contracts/main.sol\":2255:2256  1 */\n  0x01\n    /* \"contracts/main.sol\":1892:2350  uint256[10][10] private compatMatrix = [[1, 1, 0, 0, 0, 0, 1, 1, 0, 0],... */\n  0xff\n  and\n  dup2\n  mstore\n  0x20\n  add\n    /* \"contracts/main.sol\":2258:2259  0 */\n  0x00\n    /* \"contracts/main.sol\":1892:2350  uint256[10][10] private compatMatrix = [[1, 1, 0, 0, 0, 0, 1, 1, 0, 0],... */\n  0xff\n  and\n  dup2\n  mstore\n  0x20\n  add\n    /* \"contracts/main.sol\":2261:2262  0 */\n  0x00\n    /* \"contracts/main.sol\":1892:2350  uint256[10][10] private compatMatrix = [[1, 1, 0, 0, 0, 0, 1, 1, 0, 0],... */\n  0xff\n  and\n  dup2\n  mstore\n  pop\n  dup2\n  mstore\n  0x20\n  add\n  mload(0x40)\n  dup1\n  0x0140\n  add\n  0x40\n  mstore\n  dup1\n    /* \"contracts/main.sol\":2277:2278  0 */\n  0x00\n    /* \"contracts/main.sol\":1892:2350  uint256[10][10] private compatMatrix = [[1, 1, 0, 0, 0, 0, 1, 1, 0, 0],... */\n  0xff\n  and\n  dup2\n  mstore\n  0x20\n  add\n    /* \"contracts/main.sol\":2280:2281  0 */\n  0x00\n    /* \"contracts/main.sol\":1892:2350  uint256[10][10] private compatMatrix = [[1, 1, 0, 0, 0, 0, 1, 1, 0, 0],... */\n  0xff\n  and\n  dup2\n  mstore\n  0x20\n  add\n    /* \"contracts/main.sol\":2283:2284  0 */\n  0x00\n    /* \"contracts/main.sol\":1892:2350  uint256[10][10] private compatMatrix = [[1, 1, 0, 0, 0, 0, 1, 1, 0, 0],... */\n  0xff\n  and\n  dup2\n  mstore\n  0x20\n  add\n    /* \"contracts/main.sol\":2286:2287  0 */\n  0x00\n    /* \"contracts/main.sol\":1892:2350  uint256[10][10] private compatMatrix = [[1, 1, 0, 0, 0, 0, 1, 1, 0, 0],... */\n  0xff\n  and\n  dup2\n  mstore\n  0x20\n  add\n    /* \"contracts/main.sol\":2289:2290  0 */\n  0x00\n    /* \"contracts/main.sol\":1892:2350  uint256[10][10] private compatMatrix = [[1, 1, 0, 0, 0, 0, 1, 1, 0, 0],... */\n  0xff\n  and\n  dup2\n  mstore\n  0x20\n  add\n    /* \"contracts/main.sol\":2292:2293  0 */\n  0x00\n    /* \"contracts/main.sol\":1892:2350  uint256[10][10] private compatMatrix = [[1, 1, 0, 0, 0, 0, 1, 1, 0, 0],... */\n  0xff\n  and\n  dup2\n  mstore\n  0x20\n  add\n    /* \"contracts/main.sol\":2295:2296  0 */\n  0x00\n    /* \"contracts/main.sol\":1892:2350  uint256[10][10] private compatMatrix = [[1, 1, 0, 0, 0, 0, 1, 1, 0, 0],... */\n  0xff\n  and\n  dup2\n  mstore\n  0x20\n  add\n    /* \"contracts/main.sol\":2298:2299  0 */\n  0x00\n    /* \"contracts/main.sol\":1892:2350  uint256[10][10] private compatMatrix = [[1, 1, 0, 0, 0, 0, 1, 1, 0, 0],... */\n  0xff\n  and\n  dup2\n  mstore\n  0x20\n  add\n    /* \"contracts/main.sol\":2301:2302  1 */\n  0x01\n    /* \"contracts/main.sol\":1892:2350  uint256[10][10] private compatMatrix = [[1, 1, 0, 0, 0, 0, 1, 1, 0, 0],... */\n  0xff\n  and\n  dup2\n  mstore\n  0x20\n  add\n    /* \"contracts/main.sol\":2304:2305  0 */\n  0x00\n    /* \"contracts/main.sol\":1892:2350  uint256[10][10] private compatMatrix = [[1, 1, 0, 0, 0, 0, 1, 1, 0, 0],... */\n  0xff\n  and\n  dup2\n  mstore\n  pop\n  dup2\n  mstore\n  0x20\n  add\n  mload(0x40)\n  dup1\n  0x0140\n  add\n  0x40\n  mstore\n  dup1\n    /* \"contracts/main.sol\":2320:2321  0 */\n  0x00\n    /* \"contracts/main.sol\":1892:2350  uint256[10][10] private compatMatrix = [[1, 1, 0, 0, 0, 0, 1, 1, 0, 0],... */\n  0xff\n  and\n  dup2\n  mstore\n  0x20\n  add\n    /* \"contracts/main.sol\":2323:2324  0 */\n  0x00\n    /* \"contracts/main.sol\":1892:2350  uint256[10][10] private compatMatrix = [[1, 1, 0, 0, 0, 0, 1, 1, 0, 0],... */\n  0xff\n  and\n  dup2\n  mstore\n  0x20\n  add\n    /* \"contracts/main.sol\":2326:2327  0 */\n  0x00\n    /* \"contracts/main.sol\":1892:2350  uint256[10][10] private compatMatrix = [[1, 1, 0, 0, 0, 0, 1, 1, 0, 0],... */\n  0xff\n  and\n  dup2\n  mstore\n  0x20\n  add\n    /* \"contracts/main.sol\":2329:2330  0 */\n  0x00\n    /* \"contracts/main.sol\":1892:2350  uint256[10][10] private compatMatrix = [[1, 1, 0, 0, 0, 0, 1, 1, 0, 0],... */\n  0xff\n  and\n  dup2\n  mstore\n  0x20\n  add\n    /* \"contracts/main.sol\":2332:2333  0 */\n  0x00\n    /* \"contracts/main.sol\":1892:2350  uint256[10][10] private compatMatrix = [[1, 1, 0, 0, 0, 0, 1, 1, 0, 0],... */\n  0xff\n  and\n  dup2\n  mstore\n  0x20\n  add\n    /* \"contracts/main.sol\":2335:2336  0 */\n  0x00\n    /* \"contracts/main.sol\":1892:2350  uint256[10][10] private compatMatrix = [[1, 1, 0, 0, 0, 0, 1, 1, 0, 0],... */\n  0xff\n  and\n  dup2\n  mstore\n  0x20\n  add\n    /* \"contracts/main.sol\":2338:2339  0 */\n  0x00\n    /* \"contracts/main.sol\":1892:2350  uint256[10][10] private compatMatrix = [[1, 1, 0, 0, 0, 0, 1, 1, 0, 0],... */\n  0xff\n  and\n  dup2\n  mstore\n  0x20\n  add\n    /* \"contracts/main.sol\":2341:2342  0 */\n  0x00\n    /* \"contracts/main.sol\":1892:2350  uint256[10][10] private compatMatrix = [[1, 1, 0, 0, 0, 0, 1, 1, 0, 0],... */\n  0xff\n  and\n  dup2\n  mstore\n  0x20\n  add\n    /* \"contracts/main.sol\":2344:2345  0 */\n  0x00\n    /* \"contracts/main.sol\":1892:2350  uint256[10][10] private compatMatrix = [[1, 1, 0, 0, 0, 0, 1, 1, 0, 0],... */\n  0xff\n  and\n  dup2\n  mstore\n  0x20\n  add\n    /* \"contracts/main.sol\":2347:2348  1 */\n  0x01\n    /* \"contracts/main.sol\":1892:2350  uint256[10][10] private compatMatrix = [[1, 1, 0, 0, 0, 0, 1, 1, 0, 0],... */\n  0xff\n  and\n  dup2\n  mstore\n  pop\n  dup2\n  mstore\n  pop\n  0x06\n  swap1\n  0x0a\n  tag_1\n  swap3\n  swap2\n  swap1\n  tag_2\n  jump\t// in\ntag_1:\n  pop\n    /* \"contracts/main.sol\":166:618  constructor (string memory _donorPass, string memory _recipientPass, string memory _matchedPass) {... */\n  callvalue\n  dup1\n  iszero\n  tag_3\n  jumpi\n  0x00\n  dup1\n  revert\ntag_3:\n  pop\n  mload(0x40)\n  sub(codesize, bytecodeSize)\n  dup1\n  bytecodeSize\n  dup4\n  codecopy\n  dup2\n  dup2\n  add\n  0x40\n  mstore\n  dup2\n  add\n  swap1\n  tag_4\n  swap2\n  swap1\n  tag_5\n  jump\t// in\ntag_4:\n    /* \"contracts/main.sol\":306:316  _donorPass */\n  dup3\n    /* \"contracts/main.sol\":289:317  abi.encodePacked(_donorPass) */\n  add(0x20, mload(0x40))\n  tag_8\n  swap2\n  swap1\n  tag_9\n  jump\t// in\ntag_8:\n  mload(0x40)\n  0x20\n  dup2\n  dup4\n  sub\n  sub\n  dup2\n  mstore\n  swap1\n  0x40\n  mstore\n    /* \"contracts/main.sol\":279:318  keccak256(abi.encodePacked(_donorPass)) */\n  dup1\n  mload\n  swap1\n  0x20\n  add\n  keccak256\n    /* \"contracts/main.sol\":267:276  donorPass */\n  0x00\n    /* \"contracts/main.sol\":267:318  donorPass = keccak256(abi.encodePacked(_donorPass)) */\n  dup2\n  swap1\n  sstore\n  pop\n    /* \"contracts/main.sol\":361:370  donorPass */\n  sload(0x00)\n    /* \"contracts/main.sol\":344:371  abi.encodePacked(donorPass) */\n  add(0x20, mload(0x40))\n  tag_10\n  swap2\n  swap1\n  tag_11\n  jump\t// in\ntag_10:\n  mload(0x40)\n  0x20\n  dup2\n  dup4\n  sub\n  sub\n  dup2\n  mstore\n  swap1\n  0x40\n  mstore\n    /* \"contracts/main.sol\":334:372  keccak256(abi.encodePacked(donorPass)) */\n  dup1\n  mload\n  swap1\n  0x20\n  add\n  keccak256\n    /* \"contracts/main.sol\":322:331  donorPass */\n  0x00\n    /* \"contracts/main.sol\":322:372  donorPass = keccak256(abi.encodePacked(donorPass)) */\n  dup2\n  swap1\n  sstore\n  pop\n    /* \"contracts/main.sol\":419:433  _recipientPass */\n  dup2\n    /* \"contracts/main.sol\":402:434  abi.encodePacked(_recipientPass) */\n  add(0x20, mload(0x40))\n  tag_12\n  swap2\n  swap1\n  tag_9\n  jump\t// in\ntag_12:\n  mload(0x40)\n  0x20\n  dup2\n  dup4\n  sub\n  sub\n  dup2\n  mstore\n  swap1\n  0x40\n  mstore\n    /* \"contracts/main.sol\":392:435  keccak256(abi.encodePacked(_recipientPass)) */\n  dup1\n  mload\n  swap1\n  0x20\n  add\n  keccak256\n    /* \"contracts/main.sol\":376:389  recipientPass */\n  0x01\n    /* \"contracts/main.sol\":376:435  recipientPass = keccak256(abi.encodePacked(_recipientPass)) */\n  dup2\n  swap1\n  sstore\n  pop\n    /* \"contracts/main.sol\":482:495  recipientPass */\n  sload(0x01)\n    /* \"contracts/main.sol\":465:496  abi.encodePacked(recipientPass) */\n  add(0x20, mload(0x40))\n  tag_13\n  swap2\n  swap1\n  tag_11\n  jump\t// in\ntag_13:\n  mload(0x40)\n  0x20\n  dup2\n  dup4\n  sub\n  sub\n  dup2\n  mstore\n  swap1\n  0x40\n  mstore\n    /* \"contracts/main.sol\":455:497  keccak256(abi.encodePacked(recipientPass)) */\n  dup1\n  mload\n  swap1\n  0x20\n  add\n  keccak256\n    /* \"contracts/main.sol\":439:452  recipientPass */\n  0x01\n    /* \"contracts/main.sol\":439:497  recipientPass = keccak256(abi.encodePacked(recipientPass)) */\n  dup2\n  swap1\n  sstore\n  pop\n    /* \"contracts/main.sol\":542:554  _matchedPass */\n  dup1\n    /* \"contracts/main.sol\":525:555  abi.encodePacked(_matchedPass) */\n  add(0x20, mload(0x40))\n  tag_14\n  swap2\n  swap1\n  tag_9\n  jump\t// in\ntag_14:\n  mload(0x40)\n  0x20\n  dup2\n  dup4\n  sub\n  sub\n  dup2\n  mstore\n  swap1\n  0x40\n  mstore\n    /* \"contracts/main.sol\":515:556  keccak256(abi.encodePacked(_matchedPass)) */\n  dup1\n  mload\n  swap1\n  0x20\n  add\n  keccak256\n    /* \"contracts/main.sol\":501:512  matchedPass */\n  0x02\n    /* \"contracts/main.sol\":501:556  matchedPass = keccak256(abi.encodePacked(_matchedPass)) */\n  dup2\n  swap1\n  sstore\n  pop\n    /* \"contracts/main.sol\":601:612  matchedPass */\n  sload(0x02)\n    /* \"contracts/main.sol\":584:613  abi.encodePacked(matchedPass) */\n  add(0x20, mload(0x40))\n  tag_15\n  swap2\n  swap1\n  tag_11\n  jump\t// in\ntag_15:\n  mload(0x40)\n  0x20\n  dup2\n  dup4\n  sub\n  sub\n  dup2\n  mstore\n  swap1\n  0x40\n  mstore\n    /* \"contracts/main.sol\":574:614  keccak256(abi.encodePacked(matchedPass)) */\n  dup1\n  mload\n  swap1\n  0x20\n  add\n  keccak256\n    /* \"contracts/main.sol\":560:571  matchedPass */\n  0x02\n    /* \"contracts/main.sol\":560:614  matchedPass = keccak256(abi.encodePacked(matchedPass)) */\n  dup2\n  swap1\n  sstore\n  pop\n    /* \"contracts/main.sol\":166:618  constructor (string memory _donorPass, string memory _recipientPass, string memory _matchedPass) {... */\n  pop\n  pop\n  pop\n    /* \"contracts/main.sol\":58:5457  contract main {... */\n  jump(tag_16)\ntag_2:\n  dup3\n  0x0a\n  dup1\n  mul\n  dup2\n  add\n  swap3\n  dup3\n  iszero\n  tag_17\n  jumpi\n  swap2\n  0x20\n  mul\n  dup3\n  add\ntag_18:\n  dup3\n  dup2\n  gt\n  iszero\n  tag_19\n  jumpi\n  dup3\n  mload\n  dup3\n  swap1\n  0x0a\n  tag_20\n  swap3\n  swap2\n  swap1\n  tag_21\n  jump\t// in\ntag_20:\n  pop\n  swap2\n  0x20\n  add\n  swap2\n  swap1\n  0x0a\n  add\n  swap1\n  jump(tag_18)\ntag_19:\ntag_17:\n  pop\n  swap1\n  pop\n  tag_22\n  swap2\n  swap1\n  tag_23\n  jump\t// in\ntag_22:\n  pop\n  swap1\n  jump\t// out\ntag_21:\n  dup3\n  0x0a\n  dup2\n  add\n  swap3\n  dup3\n  iszero\n  tag_24\n  jumpi\n  swap2\n  0x20\n  mul\n  dup3\n  add\ntag_25:\n  dup3\n  dup2\n  gt\n  iszero\n  tag_26\n  jumpi\n  dup3\n  mload\n  dup3\n  swap1\n  0xff\n  and\n  swap1\n  sstore\n  swap2\n  0x20\n  add\n  swap2\n  swap1\n  0x01\n  add\n  swap1\n  jump(tag_25)\ntag_26:\ntag_24:\n  pop\n  swap1\n  pop\n  tag_27\n  swap2\n  swap1\n  tag_28\n  jump\t// in\ntag_27:\n  pop\n  swap1\n  jump\t// out\ntag_23:\ntag_29:\n  dup1\n  dup3\n  gt\n  iszero\n  tag_30\n  jumpi\n  0x00\n  dup2\n  dup2\n  tag_31\n  swap2\n  swap1\n  tag_32\n  jump\t// in\ntag_31:\n  pop\n  0x0a\n  add\n  jump(tag_29)\ntag_30:\n  pop\n  swap1\n  jump\t// out\ntag_28:\ntag_33:\n  dup1\n  dup3\n  gt\n  iszero\n  tag_34\n  jumpi\n  0x00\n  dup2\n  0x00\n  swap1\n  sstore\n  pop\n  0x01\n  add\n  jump(tag_33)\ntag_34:\n  pop\n  swap1\n  jump\t// out\ntag_32:\n  pop\n  dup1\n  0x0a\n  add\n  swap1\n  tag_35\n  swap2\n  swap1\n  tag_28\n  jump\t// in\ntag_35:\n  pop\n  jump\t// out\n    /* \"#utility.yul\":7:82   */\ntag_36:\n    /* \"#utility.yul\":40:46   */\n  0x00\n    /* \"#utility.yul\":73:75   */\n  0x40\n    /* \"#utility.yul\":67:76   */\n  mload\n    /* \"#utility.yul\":57:76   */\n  swap1\n  pop\n    /* \"#utility.yul\":7:82   */\n  swap1\n  jump\t// out\n    /* \"#utility.yul\":88:205   */\ntag_37:\n    /* \"#utility.yul\":197:198   */\n  0x00\n    /* \"#utility.yul\":194:195   */\n  dup1\n    /* \"#utility.yul\":187:199   */\n  revert\n    /* \"#utility.yul\":211:328   */\ntag_38:\n    /* \"#utility.yul\":320:321   */\n  0x00\n    /* \"#utility.yul\":317:318   */\n  dup1\n    /* \"#utility.yul\":310:322   */\n  revert\n    /* \"#utility.yul\":334:451   */\ntag_39:\n    /* \"#utility.yul\":443:444   */\n  0x00\n    /* \"#utility.yul\":440:441   */\n  dup1\n    /* \"#utility.yul\":433:445   */\n  revert\n    /* \"#utility.yul\":457:574   */\ntag_40:\n    /* \"#utility.yul\":566:567   */\n  0x00\n    /* \"#utility.yul\":563:564   */\n  dup1\n    /* \"#utility.yul\":556:568   */\n  revert\n    /* \"#utility.yul\":580:682   */\ntag_41:\n    /* \"#utility.yul\":621:627   */\n  0x00\n    /* \"#utility.yul\":672:674   */\n  0x1f\n    /* \"#utility.yul\":668:675   */\n  not\n    /* \"#utility.yul\":663:665   */\n  0x1f\n    /* \"#utility.yul\":656:661   */\n  dup4\n    /* \"#utility.yul\":652:666   */\n  add\n    /* \"#utility.yul\":648:676   */\n  and\n    /* \"#utility.yul\":638:676   */\n  swap1\n  pop\n    /* \"#utility.yul\":580:682   */\n  swap2\n  swap1\n  pop\n  jump\t// out\n    /* \"#utility.yul\":688:868   */\ntag_42:\n    /* \"#utility.yul\":736:813   */\n  0x4e487b7100000000000000000000000000000000000000000000000000000000\n    /* \"#utility.yul\":733:734   */\n  0x00\n    /* \"#utility.yul\":726:814   */\n  mstore\n    /* \"#utility.yul\":833:837   */\n  0x41\n    /* \"#utility.yul\":830:831   */\n  0x04\n    /* \"#utility.yul\":823:838   */\n  mstore\n    /* \"#utility.yul\":857:861   */\n  0x24\n    /* \"#utility.yul\":854:855   */\n  0x00\n    /* \"#utility.yul\":847:862   */\n  revert\n    /* \"#utility.yul\":874:1155   */\ntag_43:\n    /* \"#utility.yul\":957:984   */\n  tag_64\n    /* \"#utility.yul\":979:983   */\n  dup3\n    /* \"#utility.yul\":957:984   */\n  tag_41\n  jump\t// in\ntag_64:\n    /* \"#utility.yul\":949:955   */\n  dup2\n    /* \"#utility.yul\":945:985   */\n  add\n    /* \"#utility.yul\":1087:1093   */\n  dup2\n    /* \"#utility.yul\":1075:1085   */\n  dup2\n    /* \"#utility.yul\":1072:1094   */\n  lt\n    /* \"#utility.yul\":1051:1069   */\n  0xffffffffffffffff\n    /* \"#utility.yul\":1039:1049   */\n  dup3\n    /* \"#utility.yul\":1036:1070   */\n  gt\n    /* \"#utility.yul\":1033:1095   */\n  or\n    /* \"#utility.yul\":1030:1118   */\n  iszero\n  tag_65\n  jumpi\n    /* \"#utility.yul\":1098:1116   */\n  tag_66\n  tag_42\n  jump\t// in\ntag_66:\n    /* \"#utility.yul\":1030:1118   */\ntag_65:\n    /* \"#utility.yul\":1138:1148   */\n  dup1\n    /* \"#utility.yul\":1134:1136   */\n  0x40\n    /* \"#utility.yul\":1127:1149   */\n  mstore\n    /* \"#utility.yul\":917:1155   */\n  pop\n    /* \"#utility.yul\":874:1155   */\n  pop\n  pop\n  jump\t// out\n    /* \"#utility.yul\":1161:1290   */\ntag_44:\n    /* \"#utility.yul\":1195:1201   */\n  0x00\n    /* \"#utility.yul\":1222:1242   */\n  tag_68\n  tag_36\n  jump\t// in\ntag_68:\n    /* \"#utility.yul\":1212:1242   */\n  swap1\n  pop\n    /* \"#utility.yul\":1251:1284   */\n  tag_69\n    /* \"#utility.yul\":1279:1283   */\n  dup3\n    /* \"#utility.yul\":1271:1277   */\n  dup3\n    /* \"#utility.yul\":1251:1284   */\n  tag_43\n  jump\t// in\ntag_69:\n    /* \"#utility.yul\":1161:1290   */\n  swap2\n  swap1\n  pop\n  jump\t// out\n    /* \"#utility.yul\":1296:1604   */\ntag_45:\n    /* \"#utility.yul\":1358:1362   */\n  0x00\n    /* \"#utility.yul\":1448:1466   */\n  0xffffffffffffffff\n    /* \"#utility.yul\":1440:1446   */\n  dup3\n    /* \"#utility.yul\":1437:1467   */\n  gt\n    /* \"#utility.yul\":1434:1490   */\n  iszero\n  tag_71\n  jumpi\n    /* \"#utility.yul\":1470:1488   */\n  tag_72\n  tag_42\n  jump\t// in\ntag_72:\n    /* \"#utility.yul\":1434:1490   */\ntag_71:\n    /* \"#utility.yul\":1508:1537   */\n  tag_73\n    /* \"#utility.yul\":1530:1536   */\n  dup3\n    /* \"#utility.yul\":1508:1537   */\n  tag_41\n  jump\t// in\ntag_73:\n    /* \"#utility.yul\":1500:1537   */\n  swap1\n  pop\n    /* \"#utility.yul\":1592:1596   */\n  0x20\n    /* \"#utility.yul\":1586:1590   */\n  dup2\n    /* \"#utility.yul\":1582:1597   */\n  add\n    /* \"#utility.yul\":1574:1597   */\n  swap1\n  pop\n    /* \"#utility.yul\":1296:1604   */\n  swap2\n  swap1\n  pop\n  jump\t// out\n    /* \"#utility.yul\":1610:1749   */\ntag_46:\n    /* \"#utility.yul\":1699:1705   */\n  dup3\n    /* \"#utility.yul\":1694:1697   */\n  dup2\n    /* \"#utility.yul\":1689:1692   */\n  dup4\n    /* \"#utility.yul\":1683:1706   */\n  mcopy\n    /* \"#utility.yul\":1740:1741   */\n  0x00\n    /* \"#utility.yul\":1731:1737   */\n  dup4\n    /* \"#utility.yul\":1726:1729   */\n  dup4\n    /* \"#utility.yul\":1722:1738   */\n  add\n    /* \"#utility.yul\":1715:1742   */\n  mstore\n    /* \"#utility.yul\":1610:1749   */\n  pop\n  pop\n  pop\n  jump\t// out\n    /* \"#utility.yul\":1755:2189   */\ntag_47:\n    /* \"#utility.yul\":1844:1849   */\n  0x00\n    /* \"#utility.yul\":1869:1935   */\n  tag_76\n    /* \"#utility.yul\":1885:1934   */\n  tag_77\n    /* \"#utility.yul\":1927:1933   */\n  dup5\n    /* \"#utility.yul\":1885:1934   */\n  tag_45\n  jump\t// in\ntag_77:\n    /* \"#utility.yul\":1869:1935   */\n  tag_44\n  jump\t// in\ntag_76:\n    /* \"#utility.yul\":1860:1935   */\n  swap1\n  pop\n    /* \"#utility.yul\":1958:1964   */\n  dup3\n    /* \"#utility.yul\":1951:1956   */\n  dup2\n    /* \"#utility.yul\":1944:1965   */\n  mstore\n    /* \"#utility.yul\":1996:2000   */\n  0x20\n    /* \"#utility.yul\":1989:1994   */\n  dup2\n    /* \"#utility.yul\":1985:2001   */\n  add\n    /* \"#utility.yul\":2034:2037   */\n  dup5\n    /* \"#utility.yul\":2025:2031   */\n  dup5\n    /* \"#utility.yul\":2020:2023   */\n  dup5\n    /* \"#utility.yul\":2016:2032   */\n  add\n    /* \"#utility.yul\":2013:2038   */\n  gt\n    /* \"#utility.yul\":2010:2122   */\n  iszero\n  tag_78\n  jumpi\n    /* \"#utility.yul\":2041:2120   */\n  tag_79\n  tag_40\n  jump\t// in\ntag_79:\n    /* \"#utility.yul\":2010:2122   */\ntag_78:\n    /* \"#utility.yul\":2131:2183   */\n  tag_80\n    /* \"#utility.yul\":2176:2182   */\n  dup5\n    /* \"#utility.yul\":2171:2174   */\n  dup3\n    /* \"#utility.yul\":2166:2169   */\n  dup6\n    /* \"#utility.yul\":2131:2183   */\n  tag_46\n  jump\t// in\ntag_80:\n    /* \"#utility.yul\":1850:2189   */\n  pop\n    /* \"#utility.yul\":1755:2189   */\n  swap4\n  swap3\n  pop\n  pop\n  pop\n  jump\t// out\n    /* \"#utility.yul\":2209:2564   */\ntag_48:\n    /* \"#utility.yul\":2276:2281   */\n  0x00\n    /* \"#utility.yul\":2325:2328   */\n  dup3\n    /* \"#utility.yul\":2318:2322   */\n  0x1f\n    /* \"#utility.yul\":2310:2316   */\n  dup4\n    /* \"#utility.yul\":2306:2323   */\n  add\n    /* \"#utility.yul\":2302:2329   */\n  slt\n    /* \"#utility.yul\":2292:2414   */\n  tag_82\n  jumpi\n    /* \"#utility.yul\":2333:2412   */\n  tag_83\n  tag_39\n  jump\t// in\ntag_83:\n    /* \"#utility.yul\":2292:2414   */\ntag_82:\n    /* \"#utility.yul\":2443:2449   */\n  dup2\n    /* \"#utility.yul\":2437:2450   */\n  mload\n    /* \"#utility.yul\":2468:2558   */\n  tag_84\n    /* \"#utility.yul\":2554:2557   */\n  dup5\n    /* \"#utility.yul\":2546:2552   */\n  dup3\n    /* \"#utility.yul\":2539:2543   */\n  0x20\n    /* \"#utility.yul\":2531:2537   */\n  dup7\n    /* \"#utility.yul\":2527:2544   */\n  add\n    /* \"#utility.yul\":2468:2558   */\n  tag_47\n  jump\t// in\ntag_84:\n    /* \"#utility.yul\":2459:2558   */\n  swap2\n  pop\n    /* \"#utility.yul\":2282:2564   */\n  pop\n    /* \"#utility.yul\":2209:2564   */\n  swap3\n  swap2\n  pop\n  pop\n  jump\t// out\n    /* \"#utility.yul\":2570:3752   */\ntag_5:\n    /* \"#utility.yul\":2688:2694   */\n  0x00\n    /* \"#utility.yul\":2696:2702   */\n  dup1\n    /* \"#utility.yul\":2704:2710   */\n  0x00\n    /* \"#utility.yul\":2753:2755   */\n  0x60\n    /* \"#utility.yul\":2741:2750   */\n  dup5\n    /* \"#utility.yul\":2732:2739   */\n  dup7\n    /* \"#utility.yul\":2728:2751   */\n  sub\n    /* \"#utility.yul\":2724:2756   */\n  slt\n    /* \"#utility.yul\":2721:2840   */\n  iszero\n  tag_86\n  jumpi\n    /* \"#utility.yul\":2759:2838   */\n  tag_87\n  tag_37\n  jump\t// in\ntag_87:\n    /* \"#utility.yul\":2721:2840   */\ntag_86:\n    /* \"#utility.yul\":2900:2901   */\n  0x00\n    /* \"#utility.yul\":2889:2898   */\n  dup5\n    /* \"#utility.yul\":2885:2902   */\n  add\n    /* \"#utility.yul\":2879:2903   */\n  mload\n    /* \"#utility.yul\":2930:2948   */\n  0xffffffffffffffff\n    /* \"#utility.yul\":2922:2928   */\n  dup2\n    /* \"#utility.yul\":2919:2949   */\n  gt\n    /* \"#utility.yul\":2916:3033   */\n  iszero\n  tag_88\n  jumpi\n    /* \"#utility.yul\":2952:3031   */\n  tag_89\n  tag_38\n  jump\t// in\ntag_89:\n    /* \"#utility.yul\":2916:3033   */\ntag_88:\n    /* \"#utility.yul\":3057:3131   */\n  tag_90\n    /* \"#utility.yul\":3123:3130   */\n  dup7\n    /* \"#utility.yul\":3114:3120   */\n  dup3\n    /* \"#utility.yul\":3103:3112   */\n  dup8\n    /* \"#utility.yul\":3099:3121   */\n  add\n    /* \"#utility.yul\":3057:3131   */\n  tag_48\n  jump\t// in\ntag_90:\n    /* \"#utility.yul\":3047:3131   */\n  swap4\n  pop\n    /* \"#utility.yul\":2850:3141   */\n  pop\n    /* \"#utility.yul\":3201:3203   */\n  0x20\n    /* \"#utility.yul\":3190:3199   */\n  dup5\n    /* \"#utility.yul\":3186:3204   */\n  add\n    /* \"#utility.yul\":3180:3205   */\n  mload\n    /* \"#utility.yul\":3232:3250   */\n  0xffffffffffffffff\n    /* \"#utility.yul\":3224:3230   */\n  dup2\n    /* \"#utility.yul\":3221:3251   */\n  gt\n    /* \"#utility.yul\":3218:3335   */\n  iszero\n  tag_91\n  jumpi\n    /* \"#utility.yul\":3254:3333   */\n  tag_92\n  tag_38\n  jump\t// in\ntag_92:\n    /* \"#utility.yul\":3218:3335   */\ntag_91:\n    /* \"#utility.yul\":3359:3433   */\n  tag_93\n    /* \"#utility.yul\":3425:3432   */\n  dup7\n    /* \"#utility.yul\":3416:3422   */\n  dup3\n    /* \"#utility.yul\":3405:3414   */\n  dup8\n    /* \"#utility.yul\":3401:3423   */\n  add\n    /* \"#utility.yul\":3359:3433   */\n  tag_48\n  jump\t// in\ntag_93:\n    /* \"#utility.yul\":3349:3433   */\n  swap3\n  pop\n    /* \"#utility.yul\":3151:3443   */\n  pop\n    /* \"#utility.yul\":3503:3505   */\n  0x40\n    /* \"#utility.yul\":3492:3501   */\n  dup5\n    /* \"#utility.yul\":3488:3506   */\n  add\n    /* \"#utility.yul\":3482:3507   */\n  mload\n    /* \"#utility.yul\":3534:3552   */\n  0xffffffffffffffff\n    /* \"#utility.yul\":3526:3532   */\n  dup2\n    /* \"#utility.yul\":3523:3553   */\n  gt\n    /* \"#utility.yul\":3520:3637   */\n  iszero\n  tag_94\n  jumpi\n    /* \"#utility.yul\":3556:3635   */\n  tag_95\n  tag_38\n  jump\t// in\ntag_95:\n    /* \"#utility.yul\":3520:3637   */\ntag_94:\n    /* \"#utility.yul\":3661:3735   */\n  tag_96\n    /* \"#utility.yul\":3727:3734   */\n  dup7\n    /* \"#utility.yul\":3718:3724   */\n  dup3\n    /* \"#utility.yul\":3707:3716   */\n  dup8\n    /* \"#utility.yul\":3703:3725   */\n  add\n    /* \"#utility.yul\":3661:3735   */\n  tag_48\n  jump\t// in\ntag_96:\n    /* \"#utility.yul\":3651:3735   */\n  swap2\n  pop\n    /* \"#utility.yul\":3453:3745   */\n  pop\n    /* \"#utility.yul\":2570:3752   */\n  swap3\n  pop\n  swap3\n  pop\n  swap3\n  jump\t// out\n    /* \"#utility.yul\":3758:3857   */\ntag_49:\n    /* \"#utility.yul\":3810:3816   */\n  0x00\n    /* \"#utility.yul\":3844:3849   */\n  dup2\n    /* \"#utility.yul\":3838:3850   */\n  mload\n    /* \"#utility.yul\":3828:3850   */\n  swap1\n  pop\n    /* \"#utility.yul\":3758:3857   */\n  swap2\n  swap1\n  pop\n  jump\t// out\n    /* \"#utility.yul\":3863:4011   */\ntag_50:\n    /* \"#utility.yul\":3965:3976   */\n  0x00\n    /* \"#utility.yul\":4002:4005   */\n  dup2\n    /* \"#utility.yul\":3987:4005   */\n  swap1\n  pop\n    /* \"#utility.yul\":3863:4011   */\n  swap3\n  swap2\n  pop\n  pop\n  jump\t// out\n    /* \"#utility.yul\":4017:4407   */\ntag_51:\n    /* \"#utility.yul\":4123:4126   */\n  0x00\n    /* \"#utility.yul\":4151:4190   */\n  tag_100\n    /* \"#utility.yul\":4184:4189   */\n  dup3\n    /* \"#utility.yul\":4151:4190   */\n  tag_49\n  jump\t// in\ntag_100:\n    /* \"#utility.yul\":4206:4295   */\n  tag_101\n    /* \"#utility.yul\":4288:4294   */\n  dup2\n    /* \"#utility.yul\":4283:4286   */\n  dup6\n    /* \"#utility.yul\":4206:4295   */\n  tag_50\n  jump\t// in\ntag_101:\n    /* \"#utility.yul\":4199:4295   */\n  swap4\n  pop\n    /* \"#utility.yul\":4304:4369   */\n  tag_102\n    /* \"#utility.yul\":4362:4368   */\n  dup2\n    /* \"#utility.yul\":4357:4360   */\n  dup6\n    /* \"#utility.yul\":4350:4354   */\n  0x20\n    /* \"#utility.yul\":4343:4348   */\n  dup7\n    /* \"#utility.yul\":4339:4355   */\n  add\n    /* \"#utility.yul\":4304:4369   */\n  tag_46\n  jump\t// in\ntag_102:\n    /* \"#utility.yul\":4394:4400   */\n  dup1\n    /* \"#utility.yul\":4389:4392   */\n  dup5\n    /* \"#utility.yul\":4385:4401   */\n  add\n    /* \"#utility.yul\":4378:4401   */\n  swap2\n  pop\n    /* \"#utility.yul\":4127:4407   */\n  pop\n    /* \"#utility.yul\":4017:4407   */\n  swap3\n  swap2\n  pop\n  pop\n  jump\t// out\n    /* \"#utility.yul\":4413:4688   */\ntag_9:\n    /* \"#utility.yul\":4545:4548   */\n  0x00\n    /* \"#utility.yul\":4567:4662   */\n  tag_104\n    /* \"#utility.yul\":4658:4661   */\n  dup3\n    /* \"#utility.yul\":4649:4655   */\n  dup5\n    /* \"#utility.yul\":4567:4662   */\n  tag_51\n  jump\t// in\ntag_104:\n    /* \"#utility.yul\":4560:4662   */\n  swap2\n  pop\n    /* \"#utility.yul\":4679:4682   */\n  dup2\n    /* \"#utility.yul\":4672:4682   */\n  swap1\n  pop\n    /* \"#utility.yul\":4413:4688   */\n  swap3\n  swap2\n  pop\n  pop\n  jump\t// out\n    /* \"#utility.yul\":4694:4771   */\ntag_52:\n    /* \"#utility.yul\":4731:4738   */\n  0x00\n    /* \"#utility.yul\":4760:4765   */\n  dup2\n    /* \"#utility.yul\":4749:4765   */\n  swap1\n  pop\n    /* \"#utility.yul\":4694:4771   */\n  swap2\n  swap1\n  pop\n  jump\t// out\n    /* \"#utility.yul\":4777:4856   */\ntag_53:\n    /* \"#utility.yul\":4816:4823   */\n  0x00\n    /* \"#utility.yul\":4845:4850   */\n  dup2\n    /* \"#utility.yul\":4834:4850   */\n  swap1\n  pop\n    /* \"#utility.yul\":4777:4856   */\n  swap2\n  swap1\n  pop\n  jump\t// out\n    /* \"#utility.yul\":4862:5019   */\ntag_54:\n    /* \"#utility.yul\":4967:5012   */\n  tag_108\n    /* \"#utility.yul\":4987:5011   */\n  tag_109\n    /* \"#utility.yul\":5005:5010   */\n  dup3\n    /* \"#utility.yul\":4987:5011   */\n  tag_52\n  jump\t// in\ntag_109:\n    /* \"#utility.yul\":4967:5012   */\n  tag_53\n  jump\t// in\ntag_108:\n    /* \"#utility.yul\":4962:4965   */\n  dup3\n    /* \"#utility.yul\":4955:5013   */\n  mstore\n    /* \"#utility.yul\":4862:5019   */\n  pop\n  pop\n  jump\t// out\n    /* \"#utility.yul\":5025:5281   */\ntag_11:\n    /* \"#utility.yul\":5137:5140   */\n  0x00\n    /* \"#utility.yul\":5152:5227   */\n  tag_111\n    /* \"#utility.yul\":5223:5226   */\n  dup3\n    /* \"#utility.yul\":5214:5220   */\n  dup5\n    /* \"#utility.yul\":5152:5227   */\n  tag_54\n  jump\t// in\ntag_111:\n    /* \"#utility.yul\":5252:5254   */\n  0x20\n    /* \"#utility.yul\":5247:5250   */\n  dup3\n    /* \"#utility.yul\":5243:5255   */\n  add\n    /* \"#utility.yul\":5236:5255   */\n  swap2\n  pop\n    /* \"#utility.yul\":5272:5275   */\n  dup2\n    /* \"#utility.yul\":5265:5275   */\n  swap1\n  pop\n    /* \"#utility.yul\":5025:5281   */\n  swap3\n  swap2\n  pop\n  pop\n  jump\t// out\n    /* \"contracts/main.sol\":58:5457  contract main {... */\ntag_16:\n  dataSize(sub_0)\n  dup1\n  dataOffset(sub_0)\n  0x00\n  codecopy\n  0x00\n  return\nstop\n\nsub_0: assembly {\n        /* \"contracts/main.sol\":58:5457  contract main {... */\n      mstore(0x40, 0x80)\n      callvalue\n      dup1\n      iszero\n      tag_1\n      jumpi\n      0x00\n      dup1\n      revert\n    tag_1:\n      pop\n      jumpi(tag_2, lt(calldatasize, 0x04))\n      shr(0xe0, calldataload(0x00))\n      dup1\n      0x37bee772\n      eq\n      tag_3\n      jumpi\n      dup1\n      0x963e9f1f\n      eq\n      tag_4\n      jumpi\n      dup1\n      0x9a900a4d\n      eq\n      tag_5\n      jumpi\n      dup1\n      0xae9ec457\n      eq\n      tag_6\n      jumpi\n      dup1\n      0xc005a930\n      eq\n      tag_7\n      jumpi\n    tag_2:\n      0x00\n      dup1\n      revert\n        /* \"contracts/main.sol\":2413:3748  function findMatchORaddDonor(string memory _owner, uint256 _bloodtype, string memory _organ, uint256 _quantity) public {... */\n    tag_3:\n      tag_8\n      0x04\n      dup1\n      calldatasize\n      sub\n      dup2\n      add\n      swap1\n      tag_9\n      swap2\n      swap1\n      tag_10\n      jump\t// in\n    tag_9:\n      tag_11\n      jump\t// in\n    tag_8:\n      stop\n        /* \"contracts/main.sol\":5190:5319  function showRecipient(string memory _pass) public view rlPassCheck(_pass) returns (orgdet[] memory) {... */\n    tag_4:\n      tag_12\n      0x04\n      dup1\n      calldatasize\n      sub\n      dup2\n      add\n      swap1\n      tag_13\n      swap2\n      swap1\n      tag_14\n      jump\t// in\n    tag_13:\n      tag_15\n      jump\t// in\n    tag_12:\n      mload(0x40)\n      tag_16\n      swap2\n      swap1\n      tag_17\n      jump\t// in\n    tag_16:\n      mload(0x40)\n      dup1\n      swap2\n      sub\n      swap1\n      return\n        /* \"contracts/main.sol\":3751:5062  function findMatchORaddRecipient(string memory _owner, string memory _organ, uint256 _bloodtype, uint256 _quantity) public {... */\n    tag_5:\n      tag_18\n      0x04\n      dup1\n      calldatasize\n      sub\n      dup2\n      add\n      swap1\n      tag_19\n      swap2\n      swap1\n      tag_20\n      jump\t// in\n    tag_19:\n      tag_21\n      jump\t// in\n    tag_18:\n      stop\n        /* \"contracts/main.sol\":5065:5187  function showDonors(string memory _pass) public view dlPassCheck(_pass) returns (orgdet[] memory) {... */\n    tag_6:\n      tag_22\n      0x04\n      dup1\n      calldatasize\n      sub\n      dup2\n      add\n      swap1\n      tag_23\n      swap2\n      swap1\n      tag_14\n      jump\t// in\n    tag_23:\n      tag_24\n      jump\t// in\n    tag_22:\n      mload(0x40)\n      tag_25\n      swap2\n      swap1\n      tag_17\n      jump\t// in\n    tag_25:\n      mload(0x40)\n      dup1\n      swap2\n      sub\n      swap1\n      return\n        /* \"contracts/main.sol\":5322:5455  function showMatches(string memory _pass) public view mlPassCheck(_pass) returns (matched_orgdet[] memory) {... */\n    tag_7:\n      tag_26\n      0x04\n      dup1\n      calldatasize\n      sub\n      dup2\n      add\n      swap1\n      tag_27\n      swap2\n      swap1\n      tag_14\n      jump\t// in\n    tag_27:\n      tag_28\n      jump\t// in\n    tag_26:\n      mload(0x40)\n      tag_29\n      swap2\n      swap1\n      tag_30\n      jump\t// in\n    tag_29:\n      mload(0x40)\n      dup1\n      swap2\n      sub\n      swap1\n      return\n        /* \"contracts/main.sol\":2413:3748  function findMatchORaddDonor(string memory _owner, uint256 _bloodtype, string memory _organ, uint256 _quantity) public {... */\n    tag_11:\n        /* \"contracts/main.sol\":2555:2556  8 */\n      0x08\n        /* \"contracts/main.sol\":2541:2551  _bloodtype */\n      dup4\n        /* \"contracts/main.sol\":2541:2556  _bloodtype == 8 */\n      eq\n        /* \"contracts/main.sol\":2541:2575  _bloodtype == 8 || _bloodtype == 9 */\n      dup1\n      tag_32\n      jumpi\n      pop\n        /* \"contracts/main.sol\":2574:2575  9 */\n      0x09\n        /* \"contracts/main.sol\":2560:2570  _bloodtype */\n      dup4\n        /* \"contracts/main.sol\":2560:2575  _bloodtype == 9 */\n      eq\n        /* \"contracts/main.sol\":2541:2575  _bloodtype == 8 || _bloodtype == 9 */\n    tag_32:\n        /* \"contracts/main.sol\":2537:2736  if (_bloodtype == 8 || _bloodtype == 9) {... */\n      iszero\n      tag_33\n      jumpi\n        /* \"contracts/main.sol\":2582:2605  posRecBT = [_bloodtype] */\n      mload(0x40)\n      dup1\n      0x20\n      add\n      0x40\n      mstore\n      dup1\n        /* \"contracts/main.sol\":2594:2604  _bloodtype */\n      dup5\n        /* \"contracts/main.sol\":2582:2605  posRecBT = [_bloodtype] */\n      dup2\n      mstore\n      pop\n        /* \"contracts/main.sol\":2582:2590  posRecBT */\n      0x6a\n        /* \"contracts/main.sol\":2582:2605  posRecBT = [_bloodtype] */\n      swap1\n      0x01\n      tag_34\n      swap3\n      swap2\n      swap1\n      tag_35\n      jump\t// in\n    tag_34:\n      pop\n        /* \"contracts/main.sol\":2537:2736  if (_bloodtype == 8 || _bloodtype == 9) {... */\n      jump(tag_36)\n    tag_33:\n        /* \"contracts/main.sol\":2626:2635  uint256 i */\n      0x00\n        /* \"contracts/main.sol\":2621:2732  for (uint256 i = 0; i < 8; i++) {... */\n    tag_37:\n        /* \"contracts/main.sol\":2645:2646  8 */\n      0x08\n        /* \"contracts/main.sol\":2641:2642  i */\n      dup2\n        /* \"contracts/main.sol\":2641:2646  i < 8 */\n      lt\n        /* \"contracts/main.sol\":2621:2732  for (uint256 i = 0; i < 8; i++) {... */\n      iszero\n      tag_38\n      jumpi\n        /* \"contracts/main.sol\":2694:2695  1 */\n      0x01\n        /* \"contracts/main.sol\":2663:2675  compatMatrix */\n      0x06\n        /* \"contracts/main.sol\":2676:2677  i */\n      dup3\n        /* \"contracts/main.sol\":2663:2678  compatMatrix[i] */\n      0x0a\n      dup2\n      lt\n      tag_40\n      jumpi\n      tag_41\n      tag_42\n      jump\t// in\n    tag_41:\n    tag_40:\n      0x0a\n      mul\n      add\n        /* \"contracts/main.sol\":2679:2689  _bloodtype */\n      dup6\n        /* \"contracts/main.sol\":2663:2690  compatMatrix[i][_bloodtype] */\n      0x0a\n      dup2\n      lt\n      tag_44\n      jumpi\n      tag_45\n      tag_42\n      jump\t// in\n    tag_45:\n    tag_44:\n      add\n      sload\n        /* \"contracts/main.sol\":2663:2695  compatMatrix[i][_bloodtype] == 1 */\n      sub\n        /* \"contracts/main.sol\":2659:2727  if (compatMatrix[i][_bloodtype] == 1) {... */\n      tag_47\n      jumpi\n        /* \"contracts/main.sol\":2704:2712  posRecBT */\n      0x6a\n        /* \"contracts/main.sol\":2718:2719  i */\n      dup2\n        /* \"contracts/main.sol\":2704:2720  posRecBT.push(i) */\n      swap1\n      dup1\n      0x01\n      dup2\n      sload\n      add\n      dup1\n      dup3\n      sstore\n      dup1\n      swap2\n      pop\n      pop\n      0x01\n      swap1\n      sub\n      swap1\n      0x00\n      mstore\n      keccak256(0x00, 0x20)\n      add\n      0x00\n      swap1\n      swap2\n      swap1\n      swap2\n      swap1\n      swap2\n      pop\n      sstore\n        /* \"contracts/main.sol\":2659:2727  if (compatMatrix[i][_bloodtype] == 1) {... */\n    tag_47:\n        /* \"contracts/main.sol\":2648:2651  i++ */\n      dup1\n      dup1\n      0x01\n      add\n      swap2\n      pop\n      pop\n        /* \"contracts/main.sol\":2621:2732  for (uint256 i = 0; i < 8; i++) {... */\n      jump(tag_37)\n    tag_38:\n      pop\n        /* \"contracts/main.sol\":2537:2736  if (_bloodtype == 8 || _bloodtype == 9) {... */\n    tag_36:\n        /* \"contracts/main.sol\":2740:2755  bool matchFound */\n      0x00\n        /* \"contracts/main.sol\":2773:2782  uint256 i */\n      dup1\n        /* \"contracts/main.sol\":2768:3557  for (uint256 i = 0; i < recipientList.length; i++) {... */\n    tag_49:\n        /* \"contracts/main.sol\":2792:2805  recipientList */\n      0x04\n        /* \"contracts/main.sol\":2792:2812  recipientList.length */\n      dup1\n      sload\n      swap1\n      pop\n        /* \"contracts/main.sol\":2788:2789  i */\n      dup2\n        /* \"contracts/main.sol\":2788:2812  i < recipientList.length */\n      lt\n        /* \"contracts/main.sol\":2768:3557  for (uint256 i = 0; i < recipientList.length; i++) {... */\n      iszero\n      tag_50\n      jumpi\n        /* \"contracts/main.sol\":2888:2894  _organ */\n      dup4\n        /* \"contracts/main.sol\":2872:2896  keccak256(bytes(_organ)) */\n      dup1\n      mload\n      swap1\n      0x20\n      add\n      keccak256\n        /* \"contracts/main.sol\":2844:2857  recipientList */\n      0x04\n        /* \"contracts/main.sol\":2858:2859  i */\n      dup3\n        /* \"contracts/main.sol\":2844:2860  recipientList[i] */\n      dup2\n      sload\n      dup2\n      lt\n      tag_52\n      jumpi\n      tag_53\n      tag_42\n      jump\t// in\n    tag_53:\n    tag_52:\n      swap1\n      0x00\n      mstore\n      keccak256(0x00, 0x20)\n      swap1\n      0x04\n      mul\n      add\n        /* \"contracts/main.sol\":2844:2866  recipientList[i].organ */\n      0x02\n      add\n        /* \"contracts/main.sol\":2828:2868  keccak256(bytes(recipientList[i].organ)) */\n      mload(0x40)\n      tag_55\n      swap2\n      swap1\n      tag_56\n      jump\t// in\n    tag_55:\n      mload(0x40)\n      dup1\n      swap2\n      sub\n      swap1\n      keccak256\n        /* \"contracts/main.sol\":2828:2896  keccak256(bytes(recipientList[i].organ)) == keccak256(bytes(_organ)) */\n      sub\n        /* \"contracts/main.sol\":2824:3553  if (keccak256(bytes(recipientList[i].organ)) == keccak256(bytes(_organ))) {... */\n      tag_57\n      jumpi\n        /* \"contracts/main.sol\":2909:2918  uint256 j */\n      0x00\n        /* \"contracts/main.sol\":2904:3548  for (uint256 j = 0; j < posRecBT.length; j++) {... */\n    tag_58:\n        /* \"contracts/main.sol\":2928:2936  posRecBT */\n      0x6a\n        /* \"contracts/main.sol\":2928:2943  posRecBT.length */\n      dup1\n      sload\n      swap1\n      pop\n        /* \"contracts/main.sol\":2924:2925  j */\n      dup2\n        /* \"contracts/main.sol\":2924:2943  j < posRecBT.length */\n      lt\n        /* \"contracts/main.sol\":2904:3548  for (uint256 j = 0; j < posRecBT.length; j++) {... */\n      iszero\n      tag_59\n      jumpi\n        /* \"contracts/main.sol\":2991:2999  posRecBT */\n      0x6a\n        /* \"contracts/main.sol\":3000:3001  j */\n      dup2\n        /* \"contracts/main.sol\":2991:3002  posRecBT[j] */\n      dup2\n      sload\n      dup2\n      lt\n      tag_61\n      jumpi\n      tag_62\n      tag_42\n      jump\t// in\n    tag_62:\n    tag_61:\n      swap1\n      0x00\n      mstore\n      keccak256(0x00, 0x20)\n      add\n      sload\n        /* \"contracts/main.sol\":2961:2974  recipientList */\n      0x04\n        /* \"contracts/main.sol\":2975:2976  i */\n      dup4\n        /* \"contracts/main.sol\":2961:2977  recipientList[i] */\n      dup2\n      sload\n      dup2\n      lt\n      tag_64\n      jumpi\n      tag_65\n      tag_42\n      jump\t// in\n    tag_65:\n    tag_64:\n      swap1\n      0x00\n      mstore\n      keccak256(0x00, 0x20)\n      swap1\n      0x04\n      mul\n      add\n        /* \"contracts/main.sol\":2961:2987  recipientList[i].bloodtype */\n      0x01\n      add\n      sload\n        /* \"contracts/main.sol\":2961:3002  recipientList[i].bloodtype == posRecBT[j] */\n      sub\n        /* \"contracts/main.sol\":2957:3542  if (recipientList[i].bloodtype == posRecBT[j]) {... */\n      tag_67\n      jumpi\n        /* \"contracts/main.sol\":3025:3029  true */\n      0x01\n        /* \"contracts/main.sol\":3012:3029  matchFound = true */\n      swap3\n      pop\n        /* \"contracts/main.sol\":3042:3158  RecMatchFound(recipientList[i].owner, recipientList[i].bloodtype, recipientList[i].organ, recipientList[i].quantity) */\n      0xcc97805e28e324dc39be995161797f1fdf935c9b4ebab652ef2cc60de7f0f394\n        /* \"contracts/main.sol\":3056:3069  recipientList */\n      0x04\n        /* \"contracts/main.sol\":3070:3071  i */\n      dup4\n        /* \"contracts/main.sol\":3056:3072  recipientList[i] */\n      dup2\n      sload\n      dup2\n      lt\n      tag_68\n      jumpi\n      tag_69\n      tag_42\n      jump\t// in\n    tag_69:\n    tag_68:\n      swap1\n      0x00\n      mstore\n      keccak256(0x00, 0x20)\n      swap1\n      0x04\n      mul\n      add\n        /* \"contracts/main.sol\":3056:3078  recipientList[i].owner */\n      0x00\n      add\n        /* \"contracts/main.sol\":3080:3093  recipientList */\n      0x04\n        /* \"contracts/main.sol\":3094:3095  i */\n      dup5\n        /* \"contracts/main.sol\":3080:3096  recipientList[i] */\n      dup2\n      sload\n      dup2\n      lt\n      tag_71\n      jumpi\n      tag_72\n      tag_42\n      jump\t// in\n    tag_72:\n    tag_71:\n      swap1\n      0x00\n      mstore\n      keccak256(0x00, 0x20)\n      swap1\n      0x04\n      mul\n      add\n        /* \"contracts/main.sol\":3080:3106  recipientList[i].bloodtype */\n      0x01\n      add\n      sload\n        /* \"contracts/main.sol\":3108:3121  recipientList */\n      0x04\n        /* \"contracts/main.sol\":3122:3123  i */\n      dup6\n        /* \"contracts/main.sol\":3108:3124  recipientList[i] */\n      dup2\n      sload\n      dup2\n      lt\n      tag_74\n      jumpi\n      tag_75\n      tag_42\n      jump\t// in\n    tag_75:\n    tag_74:\n      swap1\n      0x00\n      mstore\n      keccak256(0x00, 0x20)\n      swap1\n      0x04\n      mul\n      add\n        /* \"contracts/main.sol\":3108:3130  recipientList[i].organ */\n      0x02\n      add\n        /* \"contracts/main.sol\":3132:3145  recipientList */\n      0x04\n        /* \"contracts/main.sol\":3146:3147  i */\n      dup7\n        /* \"contracts/main.sol\":3132:3148  recipientList[i] */\n      dup2\n      sload\n      dup2\n      lt\n      tag_77\n      jumpi\n      tag_78\n      tag_42\n      jump\t// in\n    tag_78:\n    tag_77:\n      swap1\n      0x00\n      mstore\n      keccak256(0x00, 0x20)\n      swap1\n      0x04\n      mul\n      add\n        /* \"contracts/main.sol\":3132:3157  recipientList[i].quantity */\n      0x03\n      add\n      sload\n        /* \"contracts/main.sol\":3042:3158  RecMatchFound(recipientList[i].owner, recipientList[i].bloodtype, recipientList[i].organ, recipientList[i].quantity) */\n      mload(0x40)\n      tag_80\n      swap5\n      swap4\n      swap3\n      swap2\n      swap1\n      tag_81\n      jump\t// in\n    tag_80:\n      mload(0x40)\n      dup1\n      swap2\n      sub\n      swap1\n      log1\n        /* \"contracts/main.sol\":3166:3197  matched_orgdet memory match_det */\n      0x00\n        /* \"contracts/main.sol\":3200:3486  matched_orgdet({... */\n      mload(0x40)\n      dup1\n      0xe0\n      add\n      0x40\n      mstore\n      dup1\n        /* \"contracts/main.sol\":3231:3237  _owner */\n      dup10\n        /* \"contracts/main.sol\":3200:3486  matched_orgdet({... */\n      dup2\n      mstore\n      0x20\n      add\n        /* \"contracts/main.sol\":3257:3270  recipientList */\n      0x04\n        /* \"contracts/main.sol\":3271:3272  i */\n      dup6\n        /* \"contracts/main.sol\":3257:3273  recipientList[i] */\n      dup2\n      sload\n      dup2\n      lt\n      tag_82\n      jumpi\n      tag_83\n      tag_42\n      jump\t// in\n    tag_83:\n    tag_82:\n      swap1\n      0x00\n      mstore\n      keccak256(0x00, 0x20)\n      swap1\n      0x04\n      mul\n      add\n        /* \"contracts/main.sol\":3257:3279  recipientList[i].owner */\n      0x00\n      add\n        /* \"contracts/main.sol\":3200:3486  matched_orgdet({... */\n      dup1\n      sload\n      tag_85\n      swap1\n      tag_86\n      jump\t// in\n    tag_85:\n      dup1\n      0x1f\n      add\n      0x20\n      dup1\n      swap2\n      div\n      mul\n      0x20\n      add\n      mload(0x40)\n      swap1\n      dup2\n      add\n      0x40\n      mstore\n      dup1\n      swap3\n      swap2\n      swap1\n      dup2\n      dup2\n      mstore\n      0x20\n      add\n      dup3\n      dup1\n      sload\n      tag_87\n      swap1\n      tag_86\n      jump\t// in\n    tag_87:\n      dup1\n      iszero\n      tag_88\n      jumpi\n      dup1\n      0x1f\n      lt\n      tag_89\n      jumpi\n      0x0100\n      dup1\n      dup4\n      sload\n      div\n      mul\n      dup4\n      mstore\n      swap2\n      0x20\n      add\n      swap2\n      jump(tag_88)\n    tag_89:\n      dup3\n      add\n      swap2\n      swap1\n      0x00\n      mstore\n      keccak256(0x00, 0x20)\n      swap1\n    tag_90:\n      dup2\n      sload\n      dup2\n      mstore\n      swap1\n      0x01\n      add\n      swap1\n      0x20\n      add\n      dup1\n      dup4\n      gt\n      tag_90\n      jumpi\n      dup3\n      swap1\n      sub\n      0x1f\n      and\n      dup3\n      add\n      swap2\n    tag_88:\n      pop\n      pop\n      pop\n      pop\n      pop\n      dup2\n      mstore\n      0x20\n      add\n        /* \"contracts/main.sol\":3304:3314  _bloodtype */\n      dup9\n        /* \"contracts/main.sol\":3200:3486  matched_orgdet({... */\n      dup2\n      mstore\n      0x20\n      add\n        /* \"contracts/main.sol\":3343:3356  recipientList */\n      0x04\n        /* \"contracts/main.sol\":3357:3358  i */\n      dup6\n        /* \"contracts/main.sol\":3343:3359  recipientList[i] */\n      dup2\n      sload\n      dup2\n      lt\n      tag_91\n      jumpi\n      tag_92\n      tag_42\n      jump\t// in\n    tag_92:\n    tag_91:\n      swap1\n      0x00\n      mstore\n      keccak256(0x00, 0x20)\n      swap1\n      0x04\n      mul\n      add\n        /* \"contracts/main.sol\":3343:3369  recipientList[i].bloodtype */\n      0x01\n      add\n      sload\n        /* \"contracts/main.sol\":3200:3486  matched_orgdet({... */\n      dup2\n      mstore\n      0x20\n      add\n        /* \"contracts/main.sol\":3385:3391  _organ */\n      dup8\n        /* \"contracts/main.sol\":3200:3486  matched_orgdet({... */\n      dup2\n      mstore\n      0x20\n      add\n        /* \"contracts/main.sol\":3415:3424  _quantity */\n      dup7\n        /* \"contracts/main.sol\":3200:3486  matched_orgdet({... */\n      dup2\n      mstore\n      0x20\n      add\n        /* \"contracts/main.sol\":3452:3465  recipientList */\n      0x04\n        /* \"contracts/main.sol\":3466:3467  i */\n      dup6\n        /* \"contracts/main.sol\":3452:3468  recipientList[i] */\n      dup2\n      sload\n      dup2\n      lt\n      tag_94\n      jumpi\n      tag_95\n      tag_42\n      jump\t// in\n    tag_95:\n    tag_94:\n      swap1\n      0x00\n      mstore\n      keccak256(0x00, 0x20)\n      swap1\n      0x04\n      mul\n      add\n        /* \"contracts/main.sol\":3452:3477  recipientList[i].quantity */\n      0x03\n      add\n      sload\n        /* \"contracts/main.sol\":3200:3486  matched_orgdet({... */\n      dup2\n      mstore\n      pop\n        /* \"contracts/main.sol\":3166:3486  matched_orgdet memory match_det = matched_orgdet({... */\n      swap1\n      pop\n        /* \"contracts/main.sol\":3494:3505  matchedList */\n      0x05\n        /* \"contracts/main.sol\":3511:3520  match_det */\n      dup2\n        /* \"contracts/main.sol\":3494:3521  matchedList.push(match_det) */\n      swap1\n      dup1\n      0x01\n      dup2\n      sload\n      add\n      dup1\n      dup3\n      sstore\n      dup1\n      swap2\n      pop\n      pop\n      0x01\n      swap1\n      sub\n      swap1\n      0x00\n      mstore\n      keccak256(0x00, 0x20)\n      swap1\n      0x07\n      mul\n      add\n      0x00\n      swap1\n      swap2\n      swap1\n      swap2\n      swap1\n      swap2\n      pop\n      0x00\n      dup3\n      add\n      mload\n      dup2\n      0x00\n      add\n      swap1\n      dup2\n      tag_98\n      swap2\n      swap1\n      tag_99\n      jump\t// in\n    tag_98:\n      pop\n      0x20\n      dup3\n      add\n      mload\n      dup2\n      0x01\n      add\n      swap1\n      dup2\n      tag_100\n      swap2\n      swap1\n      tag_99\n      jump\t// in\n    tag_100:\n      pop\n      0x40\n      dup3\n      add\n      mload\n      dup2\n      0x02\n      add\n      sstore\n      0x60\n      dup3\n      add\n      mload\n      dup2\n      0x03\n      add\n      sstore\n      0x80\n      dup3\n      add\n      mload\n      dup2\n      0x04\n      add\n      swap1\n      dup2\n      tag_101\n      swap2\n      swap1\n      tag_99\n      jump\t// in\n    tag_101:\n      pop\n      0xa0\n      dup3\n      add\n      mload\n      dup2\n      0x05\n      add\n      sstore\n      0xc0\n      dup3\n      add\n      mload\n      dup2\n      0x06\n      add\n      sstore\n      pop\n      pop\n        /* \"contracts/main.sol\":3529:3534  break */\n      pop\n      jump(tag_59)\n        /* \"contracts/main.sol\":2957:3542  if (recipientList[i].bloodtype == posRecBT[j]) {... */\n    tag_67:\n        /* \"contracts/main.sol\":2945:2948  j++ */\n      dup1\n      dup1\n      0x01\n      add\n      swap2\n      pop\n      pop\n        /* \"contracts/main.sol\":2904:3548  for (uint256 j = 0; j < posRecBT.length; j++) {... */\n      jump(tag_58)\n    tag_59:\n      pop\n        /* \"contracts/main.sol\":2824:3553  if (keccak256(bytes(recipientList[i].organ)) == keccak256(bytes(_organ))) {... */\n    tag_57:\n        /* \"contracts/main.sol\":2814:2817  i++ */\n      dup1\n      dup1\n      0x01\n      add\n      swap2\n      pop\n      pop\n        /* \"contracts/main.sol\":2768:3557  for (uint256 i = 0; i < recipientList.length; i++) {... */\n      jump(tag_49)\n    tag_50:\n      pop\n        /* \"contracts/main.sol\":3566:3576  matchFound */\n      dup1\n        /* \"contracts/main.sol\":3561:3745  if (!matchFound) {... */\n      tag_102\n      jumpi\n        /* \"contracts/main.sol\":3583:3605  orgdet memory newDonor */\n      0x00\n        /* \"contracts/main.sol\":3608:3711  orgdet({... */\n      mload(0x40)\n      dup1\n      0x80\n      add\n      0x40\n      mstore\n      dup1\n        /* \"contracts/main.sol\":3628:3634  _owner */\n      dup8\n        /* \"contracts/main.sol\":3608:3711  orgdet({... */\n      dup2\n      mstore\n      0x20\n      add\n        /* \"contracts/main.sol\":3651:3661  _bloodtype */\n      dup7\n        /* \"contracts/main.sol\":3608:3711  orgdet({... */\n      dup2\n      mstore\n      0x20\n      add\n        /* \"contracts/main.sol\":3674:3680  _organ */\n      dup6\n        /* \"contracts/main.sol\":3608:3711  orgdet({... */\n      dup2\n      mstore\n      0x20\n      add\n        /* \"contracts/main.sol\":3696:3705  _quantity */\n      dup5\n        /* \"contracts/main.sol\":3608:3711  orgdet({... */\n      dup2\n      mstore\n      pop\n        /* \"contracts/main.sol\":3583:3711  orgdet memory newDonor = orgdet({... */\n      swap1\n      pop\n        /* \"contracts/main.sol\":3716:3725  donorList */\n      0x03\n        /* \"contracts/main.sol\":3731:3739  newDonor */\n      dup2\n        /* \"contracts/main.sol\":3716:3740  donorList.push(newDonor) */\n      swap1\n      dup1\n      0x01\n      dup2\n      sload\n      add\n      dup1\n      dup3\n      sstore\n      dup1\n      swap2\n      pop\n      pop\n      0x01\n      swap1\n      sub\n      swap1\n      0x00\n      mstore\n      keccak256(0x00, 0x20)\n      swap1\n      0x04\n      mul\n      add\n      0x00\n      swap1\n      swap2\n      swap1\n      swap2\n      swap1\n      swap2\n      pop\n      0x00\n      dup3\n      add\n      mload\n      dup2\n      0x00\n      add\n      swap1\n      dup2\n      tag_104\n      swap2\n      swap1\n      tag_99\n      jump\t// in\n    tag_104:\n      pop\n      0x20\n      dup3\n      add\n      mload\n      dup2\n      0x01\n      add\n      sstore\n      0x40\n      dup3\n      add\n      mload\n      dup2\n      0x02\n      add\n      swap1\n      dup2\n      tag_105\n      swap2\n      swap1\n      tag_99\n      jump\t// in\n    tag_105:\n      pop\n      0x60\n      dup3\n      add\n      mload\n      dup2\n      0x03\n      add\n      sstore\n      pop\n      pop\n        /* \"contracts/main.sol\":3578:3745  {... */\n      pop\n        /* \"contracts/main.sol\":3561:3745  if (!matchFound) {... */\n    tag_102:\n        /* \"contracts/main.sol\":2532:3748  {... */\n      pop\n        /* \"contracts/main.sol\":2413:3748  function findMatchORaddDonor(string memory _owner, uint256 _bloodtype, string memory _organ, uint256 _quantity) public {... */\n      pop\n      pop\n      pop\n      pop\n      jump\t// out\n        /* \"contracts/main.sol\":5190:5319  function showRecipient(string memory _pass) public view rlPassCheck(_pass) returns (orgdet[] memory) {... */\n    tag_15:\n        /* \"contracts/main.sol\":5274:5289  orgdet[] memory */\n      0x60\n        /* \"contracts/main.sol\":5258:5263  _pass */\n      dup2\n        /* \"contracts/main.sol\":908:921  recipientPass */\n      sload(0x01)\n        /* \"contracts/main.sol\":895:900  _pass */\n      dup2\n        /* \"contracts/main.sol\":878:901  abi.encodePacked(_pass) */\n      add(0x20, mload(0x40))\n      tag_107\n      swap2\n      swap1\n      tag_108\n      jump\t// in\n    tag_107:\n      mload(0x40)\n      0x20\n      dup2\n      dup4\n      sub\n      sub\n      dup2\n      mstore\n      swap1\n      0x40\n      mstore\n        /* \"contracts/main.sol\":868:902  keccak256(abi.encodePacked(_pass)) */\n      dup1\n      mload\n      swap1\n      0x20\n      add\n      keccak256\n        /* \"contracts/main.sol\":851:903  abi.encodePacked(keccak256(abi.encodePacked(_pass))) */\n      add(0x20, mload(0x40))\n      tag_109\n      swap2\n      swap1\n      tag_110\n      jump\t// in\n    tag_109:\n      mload(0x40)\n      0x20\n      dup2\n      dup4\n      sub\n      sub\n      dup2\n      mstore\n      swap1\n      0x40\n      mstore\n        /* \"contracts/main.sol\":841:904  keccak256(abi.encodePacked(keccak256(abi.encodePacked(_pass)))) */\n      dup1\n      mload\n      swap1\n      0x20\n      add\n      keccak256\n        /* \"contracts/main.sol\":841:921  keccak256(abi.encodePacked(keccak256(abi.encodePacked(_pass)))) == recipientPass */\n      eq\n        /* \"contracts/main.sol\":833:945  require(keccak256(abi.encodePacked(keccak256(abi.encodePacked(_pass)))) == recipientPass, \"Incorrect password!\") */\n      tag_111\n      jumpi\n      mload(0x40)\n      0x08c379a000000000000000000000000000000000000000000000000000000000\n      dup2\n      mstore\n      0x04\n      add\n      tag_112\n      swap1\n      tag_113\n      jump\t// in\n    tag_112:\n      mload(0x40)\n      dup1\n      swap2\n      sub\n      swap1\n      revert\n    tag_111:\n        /* \"contracts/main.sol\":5302:5315  recipientList */\n      0x04\n        /* \"contracts/main.sol\":5295:5315  return recipientList */\n      dup1\n      sload\n      dup1\n      0x20\n      mul\n      0x20\n      add\n      mload(0x40)\n      swap1\n      dup2\n      add\n      0x40\n      mstore\n      dup1\n      swap3\n      swap2\n      swap1\n      dup2\n      dup2\n      mstore\n      0x20\n      add\n      0x00\n      swap1\n    tag_115:\n      dup3\n      dup3\n      lt\n      iszero\n      tag_116\n      jumpi\n      dup4\n      dup3\n      swap1\n      0x00\n      mstore\n      keccak256(0x00, 0x20)\n      swap1\n      0x04\n      mul\n      add\n      mload(0x40)\n      dup1\n      0x80\n      add\n      0x40\n      mstore\n      swap1\n      dup2\n      0x00\n      dup3\n      add\n      dup1\n      sload\n      tag_118\n      swap1\n      tag_86\n      jump\t// in\n    tag_118:\n      dup1\n      0x1f\n      add\n      0x20\n      dup1\n      swap2\n      div\n      mul\n      0x20\n      add\n      mload(0x40)\n      swap1\n      dup2\n      add\n      0x40\n      mstore\n      dup1\n      swap3\n      swap2\n      swap1\n      dup2\n      dup2\n      mstore\n      0x20\n      add\n      dup3\n      dup1\n      sload\n      tag_119\n      swap1\n      tag_86\n      jump\t// in\n    tag_119:\n      dup1\n      iszero\n      tag_120\n      jumpi\n      dup1\n      0x1f\n      lt\n      tag_121\n      jumpi\n      0x0100\n      dup1\n      dup4\n      sload\n      div\n      mul\n      dup4\n      mstore\n      swap2\n      0x20\n      add\n      swap2\n      jump(tag_120)\n    tag_121:\n      dup3\n      add\n      swap2\n      swap1\n      0x00\n      mstore\n      keccak256(0x00, 0x20)\n      swap1\n    tag_122:\n      dup2\n      sload\n      dup2\n      mstore\n      swap1\n      0x01\n      add\n      swap1\n      0x20\n      add\n      dup1\n      dup4\n      gt\n      tag_122\n      jumpi\n      dup3\n      swap1\n      sub\n      0x1f\n      and\n      dup3\n      add\n      swap2\n    tag_120:\n      pop\n      pop\n      pop\n      pop\n      pop\n      dup2\n      mstore\n      0x20\n      add\n      0x01\n      dup3\n      add\n      sload\n      dup2\n      mstore\n      0x20\n      add\n      0x02\n      dup3\n      add\n      dup1\n      sload\n      tag_123\n      swap1\n      tag_86\n      jump\t// in\n    tag_123:\n      dup1\n      0x1f\n      add\n      0x20\n      dup1\n      swap2\n      div\n      mul\n      0x20\n      add\n      mload(0x40)\n      swap1\n      dup2\n      add\n      0x40\n      mstore\n      dup1\n      swap3\n      swap2\n      swap1\n      dup2\n      dup2\n      mstore\n      0x20\n      add\n      dup3\n      dup1\n      sload\n      tag_124\n      swap1\n      tag_86\n      jump\t// in\n    tag_124:\n      dup1\n      iszero\n      tag_125\n      jumpi\n      dup1\n      0x1f\n      lt\n      tag_126\n      jumpi\n      0x0100\n      dup1\n      dup4\n      sload\n      div\n      mul\n      dup4\n      mstore\n      swap2\n      0x20\n      add\n      swap2\n      jump(tag_125)\n    tag_126:\n      dup3\n      add\n      swap2\n      swap1\n      0x00\n      mstore\n      keccak256(0x00, 0x20)\n      swap1\n    tag_127:\n      dup2\n      sload\n      dup2\n      mstore\n      swap1\n      0x01\n      add\n      swap1\n      0x20\n      add\n      dup1\n      dup4\n      gt\n      tag_127\n      jumpi\n      dup3\n      swap1\n      sub\n      0x1f\n      and\n      dup3\n      add\n      swap2\n    tag_125:\n      pop\n      pop\n      pop\n      pop\n      pop\n      dup2\n      mstore\n      0x20\n      add\n      0x03\n      dup3\n      add\n      sload\n      dup2\n      mstore\n      pop\n      pop\n      dup2\n      mstore\n      0x20\n      add\n      swap1\n      0x01\n      add\n      swap1\n      jump(tag_115)\n    tag_116:\n      pop\n      pop\n      pop\n      pop\n      swap2\n      pop\n        /* \"contracts/main.sol\":5190:5319  function showRecipient(string memory _pass) public view rlPassCheck(_pass) returns (orgdet[] memory) {... */\n      pop\n      swap2\n      swap1\n      pop\n      jump\t// out\n        /* \"contracts/main.sol\":3751:5062  function findMatchORaddRecipient(string memory _owner, string memory _organ, uint256 _bloodtype, uint256 _quantity) public {... */\n    tag_21:\n        /* \"contracts/main.sol\":3897:3898  8 */\n      0x08\n        /* \"contracts/main.sol\":3883:3893  _bloodtype */\n      dup3\n        /* \"contracts/main.sol\":3883:3898  _bloodtype == 8 */\n      eq\n        /* \"contracts/main.sol\":3883:3917  _bloodtype == 8 || _bloodtype == 9 */\n      dup1\n      tag_129\n      jumpi\n      pop\n        /* \"contracts/main.sol\":3916:3917  9 */\n      0x09\n        /* \"contracts/main.sol\":3902:3912  _bloodtype */\n      dup3\n        /* \"contracts/main.sol\":3902:3917  _bloodtype == 9 */\n      eq\n        /* \"contracts/main.sol\":3883:3917  _bloodtype == 8 || _bloodtype == 9 */\n    tag_129:\n        /* \"contracts/main.sol\":3879:4078  if (_bloodtype == 8 || _bloodtype == 9) {... */\n      iszero\n      tag_130\n      jumpi\n        /* \"contracts/main.sol\":3924:3947  posDonBT = [_bloodtype] */\n      mload(0x40)\n      dup1\n      0x20\n      add\n      0x40\n      mstore\n      dup1\n        /* \"contracts/main.sol\":3936:3946  _bloodtype */\n      dup4\n        /* \"contracts/main.sol\":3924:3947  posDonBT = [_bloodtype] */\n      dup2\n      mstore\n      pop\n        /* \"contracts/main.sol\":3924:3932  posDonBT */\n      0x6b\n        /* \"contracts/main.sol\":3924:3947  posDonBT = [_bloodtype] */\n      swap1\n      0x01\n      tag_131\n      swap3\n      swap2\n      swap1\n      tag_35\n      jump\t// in\n    tag_131:\n      pop\n        /* \"contracts/main.sol\":3879:4078  if (_bloodtype == 8 || _bloodtype == 9) {... */\n      jump(tag_132)\n    tag_130:\n        /* \"contracts/main.sol\":3968:3977  uint256 i */\n      0x00\n        /* \"contracts/main.sol\":3963:4074  for (uint256 i = 0; i < 8; i++) {... */\n    tag_133:\n        /* \"contracts/main.sol\":3987:3988  8 */\n      0x08\n        /* \"contracts/main.sol\":3983:3984  i */\n      dup2\n        /* \"contracts/main.sol\":3983:3988  i < 8 */\n      lt\n        /* \"contracts/main.sol\":3963:4074  for (uint256 i = 0; i < 8; i++) {... */\n      iszero\n      tag_134\n      jumpi\n        /* \"contracts/main.sol\":4036:4037  1 */\n      0x01\n        /* \"contracts/main.sol\":4005:4017  compatMatrix */\n      0x06\n        /* \"contracts/main.sol\":4018:4028  _bloodtype */\n      dup5\n        /* \"contracts/main.sol\":4005:4029  compatMatrix[_bloodtype] */\n      0x0a\n      dup2\n      lt\n      tag_136\n      jumpi\n      tag_137\n      tag_42\n      jump\t// in\n    tag_137:\n    tag_136:\n      0x0a\n      mul\n      add\n        /* \"contracts/main.sol\":4030:4031  i */\n      dup3\n        /* \"contracts/main.sol\":4005:4032  compatMatrix[_bloodtype][i] */\n      0x0a\n      dup2\n      lt\n      tag_139\n      jumpi\n      tag_140\n      tag_42\n      jump\t// in\n    tag_140:\n    tag_139:\n      add\n      sload\n        /* \"contracts/main.sol\":4005:4037  compatMatrix[_bloodtype][i] == 1 */\n      sub\n        /* \"contracts/main.sol\":4001:4069  if (compatMatrix[_bloodtype][i] == 1) {... */\n      tag_142\n      jumpi\n        /* \"contracts/main.sol\":4046:4054  posDonBT */\n      0x6b\n        /* \"contracts/main.sol\":4060:4061  i */\n      dup2\n        /* \"contracts/main.sol\":4046:4062  posDonBT.push(i) */\n      swap1\n      dup1\n      0x01\n      dup2\n      sload\n      add\n      dup1\n      dup3\n      sstore\n      dup1\n      swap2\n      pop\n      pop\n      0x01\n      swap1\n      sub\n      swap1\n      0x00\n      mstore\n      keccak256(0x00, 0x20)\n      add\n      0x00\n      swap1\n      swap2\n      swap1\n      swap2\n      swap1\n      swap2\n      pop\n      sstore\n        /* \"contracts/main.sol\":4001:4069  if (compatMatrix[_bloodtype][i] == 1) {... */\n    tag_142:\n        /* \"contracts/main.sol\":3990:3993  i++ */\n      dup1\n      dup1\n      0x01\n      add\n      swap2\n      pop\n      pop\n        /* \"contracts/main.sol\":3963:4074  for (uint256 i = 0; i < 8; i++) {... */\n      jump(tag_133)\n    tag_134:\n      pop\n        /* \"contracts/main.sol\":3879:4078  if (_bloodtype == 8 || _bloodtype == 9) {... */\n    tag_132:\n        /* \"contracts/main.sol\":4082:4097  bool matchFound */\n      0x00\n        /* \"contracts/main.sol\":4115:4124  uint256 i */\n      dup1\n        /* \"contracts/main.sol\":4110:4859  for (uint256 i = 0; i < donorList.length; i++) {... */\n    tag_144:\n        /* \"contracts/main.sol\":4134:4143  donorList */\n      0x03\n        /* \"contracts/main.sol\":4134:4150  donorList.length */\n      dup1\n      sload\n      swap1\n      pop\n        /* \"contracts/main.sol\":4130:4131  i */\n      dup2\n        /* \"contracts/main.sol\":4130:4150  i < donorList.length */\n      lt\n        /* \"contracts/main.sol\":4110:4859  for (uint256 i = 0; i < donorList.length; i++) {... */\n      iszero\n      tag_145\n      jumpi\n        /* \"contracts/main.sol\":4222:4228  _organ */\n      dup5\n        /* \"contracts/main.sol\":4206:4230  keccak256(bytes(_organ)) */\n      dup1\n      mload\n      swap1\n      0x20\n      add\n      keccak256\n        /* \"contracts/main.sol\":4182:4191  donorList */\n      0x03\n        /* \"contracts/main.sol\":4192:4193  i */\n      dup3\n        /* \"contracts/main.sol\":4182:4194  donorList[i] */\n      dup2\n      sload\n      dup2\n      lt\n      tag_147\n      jumpi\n      tag_148\n      tag_42\n      jump\t// in\n    tag_148:\n    tag_147:\n      swap1\n      0x00\n      mstore\n      keccak256(0x00, 0x20)\n      swap1\n      0x04\n      mul\n      add\n        /* \"contracts/main.sol\":4182:4200  donorList[i].organ */\n      0x02\n      add\n        /* \"contracts/main.sol\":4166:4202  keccak256(bytes(donorList[i].organ)) */\n      mload(0x40)\n      tag_150\n      swap2\n      swap1\n      tag_56\n      jump\t// in\n    tag_150:\n      mload(0x40)\n      dup1\n      swap2\n      sub\n      swap1\n      keccak256\n        /* \"contracts/main.sol\":4166:4230  keccak256(bytes(donorList[i].organ)) == keccak256(bytes(_organ)) */\n      sub\n        /* \"contracts/main.sol\":4162:4855  if (keccak256(bytes(donorList[i].organ)) == keccak256(bytes(_organ))) {... */\n      tag_151\n      jumpi\n        /* \"contracts/main.sol\":4243:4252  uint256 j */\n      0x00\n        /* \"contracts/main.sol\":4238:4850  for (uint256 j = 0; j < posDonBT.length; j++) {... */\n    tag_152:\n        /* \"contracts/main.sol\":4262:4270  posDonBT */\n      0x6b\n        /* \"contracts/main.sol\":4262:4277  posDonBT.length */\n      dup1\n      sload\n      swap1\n      pop\n        /* \"contracts/main.sol\":4258:4259  j */\n      dup2\n        /* \"contracts/main.sol\":4258:4277  j < posDonBT.length */\n      lt\n        /* \"contracts/main.sol\":4238:4850  for (uint256 j = 0; j < posDonBT.length; j++) {... */\n      iszero\n      tag_153\n      jumpi\n        /* \"contracts/main.sol\":4321:4329  posDonBT */\n      0x6b\n        /* \"contracts/main.sol\":4330:4331  j */\n      dup2\n        /* \"contracts/main.sol\":4321:4332  posDonBT[j] */\n      dup2\n      sload\n      dup2\n      lt\n      tag_155\n      jumpi\n      tag_156\n      tag_42\n      jump\t// in\n    tag_156:\n    tag_155:\n      swap1\n      0x00\n      mstore\n      keccak256(0x00, 0x20)\n      add\n      sload\n        /* \"contracts/main.sol\":4295:4304  donorList */\n      0x03\n        /* \"contracts/main.sol\":4305:4306  i */\n      dup4\n        /* \"contracts/main.sol\":4295:4307  donorList[i] */\n      dup2\n      sload\n      dup2\n      lt\n      tag_158\n      jumpi\n      tag_159\n      tag_42\n      jump\t// in\n    tag_159:\n    tag_158:\n      swap1\n      0x00\n      mstore\n      keccak256(0x00, 0x20)\n      swap1\n      0x04\n      mul\n      add\n        /* \"contracts/main.sol\":4295:4317  donorList[i].bloodtype */\n      0x01\n      add\n      sload\n        /* \"contracts/main.sol\":4295:4332  donorList[i].bloodtype == posDonBT[j] */\n      sub\n        /* \"contracts/main.sol\":4291:4844  if (donorList[i].bloodtype == posDonBT[j]) {... */\n      tag_161\n      jumpi\n        /* \"contracts/main.sol\":4355:4359  true */\n      0x01\n        /* \"contracts/main.sol\":4342:4359  matchFound = true */\n      swap3\n      pop\n        /* \"contracts/main.sol\":4372:4472  DonMatchFound(donorList[i].owner, donorList[i].bloodtype, donorList[i].organ, donorList[i].quantity) */\n      0x2a721c885fffcf96f50f455dd2ca696caf61d72d984ea9334daea189844a932b\n        /* \"contracts/main.sol\":4386:4395  donorList */\n      0x03\n        /* \"contracts/main.sol\":4396:4397  i */\n      dup4\n        /* \"contracts/main.sol\":4386:4398  donorList[i] */\n      dup2\n      sload\n      dup2\n      lt\n      tag_162\n      jumpi\n      tag_163\n      tag_42\n      jump\t// in\n    tag_163:\n    tag_162:\n      swap1\n      0x00\n      mstore\n      keccak256(0x00, 0x20)\n      swap1\n      0x04\n      mul\n      add\n        /* \"contracts/main.sol\":4386:4404  donorList[i].owner */\n      0x00\n      add\n        /* \"contracts/main.sol\":4406:4415  donorList */\n      0x03\n        /* \"contracts/main.sol\":4416:4417  i */\n      dup5\n        /* \"contracts/main.sol\":4406:4418  donorList[i] */\n      dup2\n      sload\n      dup2\n      lt\n      tag_165\n      jumpi\n      tag_166\n      tag_42\n      jump\t// in\n    tag_166:\n    tag_165:\n      swap1\n      0x00\n      mstore\n      keccak256(0x00, 0x20)\n      swap1\n      0x04\n      mul\n      add\n        /* \"contracts/main.sol\":4406:4428  donorList[i].bloodtype */\n      0x01\n      add\n      sload\n        /* \"contracts/main.sol\":4430:4439  donorList */\n      0x03\n        /* \"contracts/main.sol\":4440:4441  i */\n      dup6\n        /* \"contracts/main.sol\":4430:4442  donorList[i] */\n      dup2\n      sload\n      dup2\n      lt\n      tag_168\n      jumpi\n      tag_169\n      tag_42\n      jump\t// in\n    tag_169:\n    tag_168:\n      swap1\n      0x00\n      mstore\n      keccak256(0x00, 0x20)\n      swap1\n      0x04\n      mul\n      add\n        /* \"contracts/main.sol\":4430:4448  donorList[i].organ */\n      0x02\n      add\n        /* \"contracts/main.sol\":4450:4459  donorList */\n      0x03\n        /* \"contracts/main.sol\":4460:4461  i */\n      dup7\n        /* \"contracts/main.sol\":4450:4462  donorList[i] */\n      dup2\n      sload\n      dup2\n      lt\n      tag_171\n      jumpi\n      tag_172\n      tag_42\n      jump\t// in\n    tag_172:\n    tag_171:\n      swap1\n      0x00\n      mstore\n      keccak256(0x00, 0x20)\n      swap1\n      0x04\n      mul\n      add\n        /* \"contracts/main.sol\":4450:4471  donorList[i].quantity */\n      0x03\n      add\n      sload\n        /* \"contracts/main.sol\":4372:4472  DonMatchFound(donorList[i].owner, donorList[i].bloodtype, donorList[i].organ, donorList[i].quantity) */\n      mload(0x40)\n      tag_174\n      swap5\n      swap4\n      swap3\n      swap2\n      swap1\n      tag_81\n      jump\t// in\n    tag_174:\n      mload(0x40)\n      dup1\n      swap2\n      sub\n      swap1\n      log1\n        /* \"contracts/main.sol\":4480:4511  matched_orgdet memory match_det */\n      0x00\n        /* \"contracts/main.sol\":4514:4788  matched_orgdet({... */\n      mload(0x40)\n      dup1\n      0xe0\n      add\n      0x40\n      mstore\n      dup1\n        /* \"contracts/main.sol\":4545:4554  donorList */\n      0x03\n        /* \"contracts/main.sol\":4555:4556  i */\n      dup6\n        /* \"contracts/main.sol\":4545:4557  donorList[i] */\n      dup2\n      sload\n      dup2\n      lt\n      tag_175\n      jumpi\n      tag_176\n      tag_42\n      jump\t// in\n    tag_176:\n    tag_175:\n      swap1\n      0x00\n      mstore\n      keccak256(0x00, 0x20)\n      swap1\n      0x04\n      mul\n      add\n        /* \"contracts/main.sol\":4545:4563  donorList[i].owner */\n      0x00\n      add\n        /* \"contracts/main.sol\":4514:4788  matched_orgdet({... */\n      dup1\n      sload\n      tag_178\n      swap1\n      tag_86\n      jump\t// in\n    tag_178:\n      dup1\n      0x1f\n      add\n      0x20\n      dup1\n      swap2\n      div\n      mul\n      0x20\n      add\n      mload(0x40)\n      swap1\n      dup2\n      add\n      0x40\n      mstore\n      dup1\n      swap3\n      swap2\n      swap1\n      dup2\n      dup2\n      mstore\n      0x20\n      add\n      dup3\n      dup1\n      sload\n      tag_179\n      swap1\n      tag_86\n      jump\t// in\n    tag_179:\n      dup1\n      iszero\n      tag_180\n      jumpi\n      dup1\n      0x1f\n      lt\n      tag_181\n      jumpi\n      0x0100\n      dup1\n      dup4\n      sload\n      div\n      mul\n      dup4\n      mstore\n      swap2\n      0x20\n      add\n      swap2\n      jump(tag_180)\n    tag_181:\n      dup3\n      add\n      swap2\n      swap1\n      0x00\n      mstore\n      keccak256(0x00, 0x20)\n      swap1\n    tag_182:\n      dup2\n      sload\n      dup2\n      mstore\n      swap1\n      0x01\n      add\n      swap1\n      0x20\n      add\n      dup1\n      dup4\n      gt\n      tag_182\n      jumpi\n      dup3\n      swap1\n      sub\n      0x1f\n      and\n      dup3\n      add\n      swap2\n    tag_180:\n      pop\n      pop\n      pop\n      pop\n      pop\n      dup2\n      mstore\n      0x20\n      add\n        /* \"contracts/main.sol\":4583:4589  _owner */\n      dup10\n        /* \"contracts/main.sol\":4514:4788  matched_orgdet({... */\n      dup2\n      mstore\n      0x20\n      add\n        /* \"contracts/main.sol\":4614:4623  donorList */\n      0x03\n        /* \"contracts/main.sol\":4624:4625  i */\n      dup6\n        /* \"contracts/main.sol\":4614:4626  donorList[i] */\n      dup2\n      sload\n      dup2\n      lt\n      tag_183\n      jumpi\n      tag_184\n      tag_42\n      jump\t// in\n    tag_184:\n    tag_183:\n      swap1\n      0x00\n      mstore\n      keccak256(0x00, 0x20)\n      swap1\n      0x04\n      mul\n      add\n        /* \"contracts/main.sol\":4614:4636  donorList[i].bloodtype */\n      0x01\n      add\n      sload\n        /* \"contracts/main.sol\":4514:4788  matched_orgdet({... */\n      dup2\n      mstore\n      0x20\n      add\n        /* \"contracts/main.sol\":4665:4675  _bloodtype */\n      dup8\n        /* \"contracts/main.sol\":4514:4788  matched_orgdet({... */\n      dup2\n      mstore\n      0x20\n      add\n        /* \"contracts/main.sol\":4691:4697  _organ */\n      dup9\n        /* \"contracts/main.sol\":4514:4788  matched_orgdet({... */\n      dup2\n      mstore\n      0x20\n      add\n        /* \"contracts/main.sol\":4721:4730  donorList */\n      0x03\n        /* \"contracts/main.sol\":4731:4732  i */\n      dup6\n        /* \"contracts/main.sol\":4721:4733  donorList[i] */\n      dup2\n      sload\n      dup2\n      lt\n      tag_186\n      jumpi\n      tag_187\n      tag_42\n      jump\t// in\n    tag_187:\n    tag_186:\n      swap1\n      0x00\n      mstore\n      keccak256(0x00, 0x20)\n      swap1\n      0x04\n      mul\n      add\n        /* \"contracts/main.sol\":4721:4742  donorList[i].quantity */\n      0x03\n      add\n      sload\n        /* \"contracts/main.sol\":4514:4788  matched_orgdet({... */\n      dup2\n      mstore\n      0x20\n      add\n        /* \"contracts/main.sol\":4770:4779  _quantity */\n      dup7\n        /* \"contracts/main.sol\":4514:4788  matched_orgdet({... */\n      dup2\n      mstore\n      pop\n        /* \"contracts/main.sol\":4480:4788  matched_orgdet memory match_det = matched_orgdet({... */\n      swap1\n      pop\n        /* \"contracts/main.sol\":4796:4807  matchedList */\n      0x05\n        /* \"contracts/main.sol\":4813:4822  match_det */\n      dup2\n        /* \"contracts/main.sol\":4796:4823  matchedList.push(match_det) */\n      swap1\n      dup1\n      0x01\n      dup2\n      sload\n      add\n      dup1\n      dup3\n      sstore\n      dup1\n      swap2\n      pop\n      pop\n      0x01\n      swap1\n      sub\n      swap1\n      0x00\n      mstore\n      keccak256(0x00, 0x20)\n      swap1\n      0x07\n      mul\n      add\n      0x00\n      swap1\n      swap2\n      swap1\n      swap2\n      swap1\n      swap2\n      pop\n      0x00\n      dup3\n      add\n      mload\n      dup2\n      0x00\n      add\n      swap1\n      dup2\n      tag_190\n      swap2\n      swap1\n      tag_99\n      jump\t// in\n    tag_190:\n      pop\n      0x20\n      dup3\n      add\n      mload\n      dup2\n      0x01\n      add\n      swap1\n      dup2\n      tag_191\n      swap2\n      swap1\n      tag_99\n      jump\t// in\n    tag_191:\n      pop\n      0x40\n      dup3\n      add\n      mload\n      dup2\n      0x02\n      add\n      sstore\n      0x60\n      dup3\n      add\n      mload\n      dup2\n      0x03\n      add\n      sstore\n      0x80\n      dup3\n      add\n      mload\n      dup2\n      0x04\n      add\n      swap1\n      dup2\n      tag_192\n      swap2\n      swap1\n      tag_99\n      jump\t// in\n    tag_192:\n      pop\n      0xa0\n      dup3\n      add\n      mload\n      dup2\n      0x05\n      add\n      sstore\n      0xc0\n      dup3\n      add\n      mload\n      dup2\n      0x06\n      add\n      sstore\n      pop\n      pop\n        /* \"contracts/main.sol\":4831:4836  break */\n      pop\n      jump(tag_153)\n        /* \"contracts/main.sol\":4291:4844  if (donorList[i].bloodtype == posDonBT[j]) {... */\n    tag_161:\n        /* \"contracts/main.sol\":4279:4282  j++ */\n      dup1\n      dup1\n      0x01\n      add\n      swap2\n      pop\n      pop\n        /* \"contracts/main.sol\":4238:4850  for (uint256 j = 0; j < posDonBT.length; j++) {... */\n      jump(tag_152)\n    tag_153:\n      pop\n        /* \"contracts/main.sol\":4162:4855  if (keccak256(bytes(donorList[i].organ)) == keccak256(bytes(_organ))) {... */\n    tag_151:\n        /* \"contracts/main.sol\":4152:4155  i++ */\n      dup1\n      dup1\n      0x01\n      add\n      swap2\n      pop\n      pop\n        /* \"contracts/main.sol\":4110:4859  for (uint256 i = 0; i < donorList.length; i++) {... */\n      jump(tag_144)\n    tag_145:\n      pop\n        /* \"contracts/main.sol\":4868:4878  matchFound */\n      dup1\n        /* \"contracts/main.sol\":4863:5059  if (!matchFound) {... */\n      tag_193\n      jumpi\n        /* \"contracts/main.sol\":4885:4911  orgdet memory newRecipient */\n      0x00\n        /* \"contracts/main.sol\":4914:5017  orgdet({... */\n      mload(0x40)\n      dup1\n      0x80\n      add\n      0x40\n      mstore\n      dup1\n        /* \"contracts/main.sol\":4934:4940  _owner */\n      dup8\n        /* \"contracts/main.sol\":4914:5017  orgdet({... */\n      dup2\n      mstore\n      0x20\n      add\n        /* \"contracts/main.sol\":4957:4967  _bloodtype */\n      dup6\n        /* \"contracts/main.sol\":4914:5017  orgdet({... */\n      dup2\n      mstore\n      0x20\n      add\n        /* \"contracts/main.sol\":4980:4986  _organ */\n      dup7\n        /* \"contracts/main.sol\":4914:5017  orgdet({... */\n      dup2\n      mstore\n      0x20\n      add\n        /* \"contracts/main.sol\":5002:5011  _quantity */\n      dup5\n        /* \"contracts/main.sol\":4914:5017  orgdet({... */\n      dup2\n      mstore\n      pop\n        /* \"contracts/main.sol\":4885:5017  orgdet memory newRecipient = orgdet({... */\n      swap1\n      pop\n        /* \"contracts/main.sol\":5022:5035  recipientList */\n      0x04\n        /* \"contracts/main.sol\":5041:5053  newRecipient */\n      dup2\n        /* \"contracts/main.sol\":5022:5054  recipientList.push(newRecipient) */\n      swap1\n      dup1\n      0x01\n      dup2\n      sload\n      add\n      dup1\n      dup3\n      sstore\n      dup1\n      swap2\n      pop\n      pop\n      0x01\n      swap1\n      sub\n      swap1\n      0x00\n      mstore\n      keccak256(0x00, 0x20)\n      swap1\n      0x04\n      mul\n      add\n      0x00\n      swap1\n      swap2\n      swap1\n      swap2\n      swap1\n      swap2\n      pop\n      0x00\n      dup3\n      add\n      mload\n      dup2\n      0x00\n      add\n      swap1\n      dup2\n      tag_195\n      swap2\n      swap1\n      tag_99\n      jump\t// in\n    tag_195:\n      pop\n      0x20\n      dup3\n      add\n      mload\n      dup2\n      0x01\n      add\n      sstore\n      0x40\n      dup3\n      add\n      mload\n      dup2\n      0x02\n      add\n      swap1\n      dup2\n      tag_196\n      swap2\n      swap1\n      tag_99\n      jump\t// in\n    tag_196:\n      pop\n      0x60\n      dup3\n      add\n      mload\n      dup2\n      0x03\n      add\n      sstore\n      pop\n      pop\n        /* \"contracts/main.sol\":4880:5059  {... */\n      pop\n        /* \"contracts/main.sol\":4863:5059  if (!matchFound) {... */\n    tag_193:\n        /* \"contracts/main.sol\":3874:5062  {... */\n      pop\n        /* \"contracts/main.sol\":3751:5062  function findMatchORaddRecipient(string memory _owner, string memory _organ, uint256 _bloodtype, uint256 _quantity) public {... */\n      pop\n      pop\n      pop\n      pop\n      jump\t// out\n        /* \"contracts/main.sol\":5065:5187  function showDonors(string memory _pass) public view dlPassCheck(_pass) returns (orgdet[] memory) {... */\n    tag_24:\n        /* \"contracts/main.sol\":5146:5161  orgdet[] memory */\n      0x60\n        /* \"contracts/main.sol\":5130:5135  _pass */\n      dup2\n        /* \"contracts/main.sol\":742:751  donorPass */\n      sload(0x00)\n        /* \"contracts/main.sol\":729:734  _pass */\n      dup2\n        /* \"contracts/main.sol\":712:735  abi.encodePacked(_pass) */\n      add(0x20, mload(0x40))\n      tag_198\n      swap2\n      swap1\n      tag_108\n      jump\t// in\n    tag_198:\n      mload(0x40)\n      0x20\n      dup2\n      dup4\n      sub\n      sub\n      dup2\n      mstore\n      swap1\n      0x40\n      mstore\n        /* \"contracts/main.sol\":702:736  keccak256(abi.encodePacked(_pass)) */\n      dup1\n      mload\n      swap1\n      0x20\n      add\n      keccak256\n        /* \"contracts/main.sol\":685:737  abi.encodePacked(keccak256(abi.encodePacked(_pass))) */\n      add(0x20, mload(0x40))\n      tag_199\n      swap2\n      swap1\n      tag_110\n      jump\t// in\n    tag_199:\n      mload(0x40)\n      0x20\n      dup2\n      dup4\n      sub\n      sub\n      dup2\n      mstore\n      swap1\n      0x40\n      mstore\n        /* \"contracts/main.sol\":675:738  keccak256(abi.encodePacked(keccak256(abi.encodePacked(_pass)))) */\n      dup1\n      mload\n      swap1\n      0x20\n      add\n      keccak256\n        /* \"contracts/main.sol\":675:751  keccak256(abi.encodePacked(keccak256(abi.encodePacked(_pass)))) == donorPass */\n      eq\n        /* \"contracts/main.sol\":667:775  require(keccak256(abi.encodePacked(keccak256(abi.encodePacked(_pass)))) == donorPass, \"Incorrect password!\") */\n      tag_200\n      jumpi\n      mload(0x40)\n      0x08c379a000000000000000000000000000000000000000000000000000000000\n      dup2\n      mstore\n      0x04\n      add\n      tag_201\n      swap1\n      tag_113\n      jump\t// in\n    tag_201:\n      mload(0x40)\n      dup1\n      swap2\n      sub\n      swap1\n      revert\n    tag_200:\n        /* \"contracts/main.sol\":5174:5183  donorList */\n      0x03\n        /* \"contracts/main.sol\":5167:5183  return donorList */\n      dup1\n      sload\n      dup1\n      0x20\n      mul\n      0x20\n      add\n      mload(0x40)\n      swap1\n      dup2\n      add\n      0x40\n      mstore\n      dup1\n      swap3\n      swap2\n      swap1\n      dup2\n      dup2\n      mstore\n      0x20\n      add\n      0x00\n      swap1\n    tag_203:\n      dup3\n      dup3\n      lt\n      iszero\n      tag_204\n      jumpi\n      dup4\n      dup3\n      swap1\n      0x00\n      mstore\n      keccak256(0x00, 0x20)\n      swap1\n      0x04\n      mul\n      add\n      mload(0x40)\n      dup1\n      0x80\n      add\n      0x40\n      mstore\n      swap1\n      dup2\n      0x00\n      dup3\n      add\n      dup1\n      sload\n      tag_206\n      swap1\n      tag_86\n      jump\t// in\n    tag_206:\n      dup1\n      0x1f\n      add\n      0x20\n      dup1\n      swap2\n      div\n      mul\n      0x20\n      add\n      mload(0x40)\n      swap1\n      dup2\n      add\n      0x40\n      mstore\n      dup1\n      swap3\n      swap2\n      swap1\n      dup2\n      dup2\n      mstore\n      0x20\n      add\n      dup3\n      dup1\n      sload\n      tag_207\n      swap1\n      tag_86\n      jump\t// in\n    tag_207:\n      dup1\n      iszero\n      tag_208\n      jumpi\n      dup1\n      0x1f\n      lt\n      tag_209\n      jumpi\n      0x0100\n      dup1\n      dup4\n      sload\n      div\n      mul\n      dup4\n      mstore\n      swap2\n      0x20\n      add\n      swap2\n      jump(tag_208)\n    tag_209:\n      dup3\n      add\n      swap2\n      swap1\n      0x00\n      mstore\n      keccak256(0x00, 0x20)\n      swap1\n    tag_210:\n      dup2\n      sload\n      dup2\n      mstore\n      swap1\n      0x01\n      add\n      swap1\n      0x20\n      add\n      dup1\n      dup4\n      gt\n      tag_210\n      jumpi\n      dup3\n      swap1\n      sub\n      0x1f\n      and\n      dup3\n      add\n      swap2\n    tag_208:\n      pop\n      pop\n      pop\n      pop\n      pop\n      dup2\n      mstore\n      0x20\n      add\n      0x01\n      dup3\n      add\n      sload\n      dup2\n      mstore\n      0x20\n      add\n      0x02\n      dup3\n      add\n      dup1\n      sload\n      tag_211\n      swap1\n      tag_86\n      jump\t// in\n    tag_211:\n      dup1\n      0x1f\n      add\n      0x20\n      dup1\n      swap2\n      div\n      mul\n      0x20\n      add\n      mload(0x40)\n      swap1\n      dup2\n      add\n      0x40\n      mstore\n      dup1\n      swap3\n      swap2\n      swap1\n      dup2\n      dup2\n      mstore\n      0x20\n      add\n      dup3\n      dup1\n      sload\n      tag_212\n      swap1\n      tag_86\n      jump\t// in\n    tag_212:\n      dup1\n      iszero\n      tag_213\n      jumpi\n      dup1\n      0x1f\n      lt\n      tag_214\n      jumpi\n      0x0100\n      dup1\n      dup4\n      sload\n      div\n      mul\n      dup4\n      mstore\n      swap2\n      0x20\n      add\n      swap2\n      jump(tag_213)\n    tag_214:\n      dup3\n      add\n      swap2\n      swap1\n      0x00\n      mstore\n      keccak256(0x00, 0x20)\n      swap1\n    tag_215:\n      dup2\n      sload\n      dup2\n      mstore\n      swap1\n      0x01\n      add\n      swap1\n      0x20\n      add\n      dup1\n      dup4\n      gt\n      tag_215\n      jumpi\n      dup3\n      swap1\n      sub\n      0x1f\n      and\n      dup3\n      add\n      swap2\n    tag_213:\n      pop\n      pop\n      pop\n      pop\n      pop\n      dup2\n      mstore\n      0x20\n      add\n      0x03\n      dup3\n      add\n      sload\n      dup2\n      mstore\n      pop\n      pop\n      dup2\n      mstore\n      0x20\n      add\n      swap1\n      0x01\n      add\n      swap1\n      jump(tag_203)\n    tag_204:\n      pop\n      pop\n      pop\n      pop\n      swap2\n      pop\n        /* \"contracts/main.sol\":5065:5187  function showDonors(string memory _pass) public view dlPassCheck(_pass) returns (orgdet[] memory) {... */\n      pop\n      swap2\n      swap1\n      pop\n      jump\t// out\n        /* \"contracts/main.sol\":5322:5455  function showMatches(string memory _pass) public view mlPassCheck(_pass) returns (matched_orgdet[] memory) {... */\n    tag_28:\n        /* \"contracts/main.sol\":5404:5427  matched_orgdet[] memory */\n      0x60\n        /* \"contracts/main.sol\":5388:5393  _pass */\n      dup2\n        /* \"contracts/main.sol\":1078:1089  matchedPass */\n      sload(0x02)\n        /* \"contracts/main.sol\":1065:1070  _pass */\n      dup2\n        /* \"contracts/main.sol\":1048:1071  abi.encodePacked(_pass) */\n      add(0x20, mload(0x40))\n      tag_217\n      swap2\n      swap1\n      tag_108\n      jump\t// in\n    tag_217:\n      mload(0x40)\n      0x20\n      dup2\n      dup4\n      sub\n      sub\n      dup2\n      mstore\n      swap1\n      0x40\n      mstore\n        /* \"contracts/main.sol\":1038:1072  keccak256(abi.encodePacked(_pass)) */\n      dup1\n      mload\n      swap1\n      0x20\n      add\n      keccak256\n        /* \"contracts/main.sol\":1021:1073  abi.encodePacked(keccak256(abi.encodePacked(_pass))) */\n      add(0x20, mload(0x40))\n      tag_218\n      swap2\n      swap1\n      tag_110\n      jump\t// in\n    tag_218:\n      mload(0x40)\n      0x20\n      dup2\n      dup4\n      sub\n      sub\n      dup2\n      mstore\n      swap1\n      0x40\n      mstore\n        /* \"contracts/main.sol\":1011:1074  keccak256(abi.encodePacked(keccak256(abi.encodePacked(_pass)))) */\n      dup1\n      mload\n      swap1\n      0x20\n      add\n      keccak256\n        /* \"contracts/main.sol\":1011:1089  keccak256(abi.encodePacked(keccak256(abi.encodePacked(_pass)))) == matchedPass */\n      eq\n        /* \"contracts/main.sol\":1003:1113  require(keccak256(abi.encodePacked(keccak256(abi.encodePacked(_pass)))) == matchedPass, \"Incorrect password!\") */\n      tag_219\n      jumpi\n      mload(0x40)\n      0x08c379a000000000000000000000000000000000000000000000000000000000\n      dup2\n      mstore\n      0x04\n      add\n      tag_220\n      swap1\n      tag_113\n      jump\t// in\n    tag_220:\n      mload(0x40)\n      dup1\n      swap2\n      sub\n      swap1\n      revert\n    tag_219:\n        /* \"contracts/main.sol\":5440:5451  matchedList */\n      0x05\n        /* \"contracts/main.sol\":5433:5451  return matchedList */\n      dup1\n      sload\n      dup1\n      0x20\n      mul\n      0x20\n      add\n      mload(0x40)\n      swap1\n      dup2\n      add\n      0x40\n      mstore\n      dup1\n      swap3\n      swap2\n      swap1\n      dup2\n      dup2\n      mstore\n      0x20\n      add\n      0x00\n      swap1\n    tag_222:\n      dup3\n      dup3\n      lt\n      iszero\n      tag_223\n      jumpi\n      dup4\n      dup3\n      swap1\n      0x00\n      mstore\n      keccak256(0x00, 0x20)\n      swap1\n      0x07\n      mul\n      add\n      mload(0x40)\n      dup1\n      0xe0\n      add\n      0x40\n      mstore\n      swap1\n      dup2\n      0x00\n      dup3\n      add\n      dup1\n      sload\n      tag_225\n      swap1\n      tag_86\n      jump\t// in\n    tag_225:\n      dup1\n      0x1f\n      add\n      0x20\n      dup1\n      swap2\n      div\n      mul\n      0x20\n      add\n      mload(0x40)\n      swap1\n      dup2\n      add\n      0x40\n      mstore\n      dup1\n      swap3\n      swap2\n      swap1\n      dup2\n      dup2\n      mstore\n      0x20\n      add\n      dup3\n      dup1\n      sload\n      tag_226\n      swap1\n      tag_86\n      jump\t// in\n    tag_226:\n      dup1\n      iszero\n      tag_227\n      jumpi\n      dup1\n      0x1f\n      lt\n      tag_228\n      jumpi\n      0x0100\n      dup1\n      dup4\n      sload\n      div\n      mul\n      dup4\n      mstore\n      swap2\n      0x20\n      add\n      swap2\n      jump(tag_227)\n    tag_228:\n      dup3\n      add\n      swap2\n      swap1\n      0x00\n      mstore\n      keccak256(0x00, 0x20)\n      swap1\n    tag_229:\n      dup2\n      sload\n      dup2\n      mstore\n      swap1\n      0x01\n      add\n      swap1\n      0x20\n      add\n      dup1\n      dup4\n      gt\n      tag_229\n      jumpi\n      dup3\n      swap1\n      sub\n      0x1f\n      and\n      dup3\n      add\n      swap2\n    tag_227:\n      pop\n      pop\n      pop\n      pop\n      pop\n      dup2\n      mstore\n      0x20\n      add\n      0x01\n      dup3\n      add\n      dup1\n      sload\n      tag_230\n      swap1\n      tag_86\n      jump\t// in\n    tag_230:\n      dup1\n      0x1f\n      add\n      0x20\n      dup1\n      swap2\n      div\n      mul\n      0x20\n      add\n      mload(0x40)\n      swap1\n      dup2\n      add\n      0x40\n      mstore\n      dup1\n      swap3\n      swap2\n      swap1\n      dup2\n      dup2\n      mstore\n      0x20\n      add\n      dup3\n      dup1\n      sload\n      tag_231\n      swap1\n      tag_86\n      jump\t// in\n    tag_231:\n      dup1\n      iszero\n      tag_232\n      jumpi\n      dup1\n      0x1f\n      lt\n      tag_233\n      jumpi\n      0x0100\n      dup1\n      dup4\n      sload\n      div\n      mul\n      dup4\n      mstore\n      swap2\n      0x20\n      add\n      swap2\n      jump(tag_232)\n    tag_233:\n      dup3\n      add\n      swap2\n      swap1\n      0x00\n      mstore\n      keccak256(0x00, 0x20)\n      swap1\n    tag_234:\n      dup2\n      sload\n      dup2\n      mstore\n      swap1\n      0x01\n      add\n      swap1\n      0x20\n      add\n      dup1\n      dup4\n      gt\n      tag_234\n      jumpi\n      dup3\n      swap1\n      sub\n      0x1f\n      and\n      dup3\n      add\n      swap2\n    tag_232:\n      pop\n      pop\n      pop\n      pop\n      pop\n      dup2\n      mstore\n      0x20\n      add\n      0x02\n      dup3\n      add\n      sload\n      dup2\n      mstore\n      0x20\n      add\n      0x03\n      dup3\n      add\n      sload\n      dup2\n      mstore\n      0x20\n      add\n      0x04\n      dup3\n      add\n      dup1\n      sload\n      tag_235\n      swap1\n      tag_86\n      jump\t// in\n    tag_235:\n      dup1\n      0x1f\n      add\n      0x20\n      dup1\n      swap2\n      div\n      mul\n      0x20\n      add\n      mload(0x40)\n      swap1\n      dup2\n      add\n      0x40\n      mstore\n      dup1\n      swap3\n      swap2\n      swap1\n      dup2\n      dup2\n      mstore\n      0x20\n      add\n      dup3\n      dup1\n      sload\n      tag_236\n      swap1\n      tag_86\n      jump\t// in\n    tag_236:\n      dup1\n      iszero\n      tag_237\n      jumpi\n      dup1\n      0x1f\n      lt\n      tag_238\n      jumpi\n      0x0100\n      dup1\n      dup4\n      sload\n      div\n      mul\n      dup4\n      mstore\n      swap2\n      0x20\n      add\n      swap2\n      jump(tag_237)\n    tag_238:\n      dup3\n      add\n      swap2\n      swap1\n      0x00\n      mstore\n      keccak256(0x00, 0x20)\n      swap1\n    tag_239:\n      dup2\n      sload\n      dup2\n      mstore\n      swap1\n      0x01\n      add\n      swap1\n      0x20\n      add\n      dup1\n      dup4\n      gt\n      tag_239\n      jumpi\n      dup3\n      swap1\n      sub\n      0x1f\n      and\n      dup3\n      add\n      swap2\n    tag_237:\n      pop\n      pop\n      pop\n      pop\n      pop\n      dup2\n      mstore\n      0x20\n      add\n      0x05\n      dup3\n      add\n      sload\n      dup2\n      mstore\n      0x20\n      add\n      0x06\n      dup3\n      add\n      sload\n      dup2\n      mstore\n      pop\n      pop\n      dup2\n      mstore\n      0x20\n      add\n      swap1\n      0x01\n      add\n      swap1\n      jump(tag_222)\n    tag_223:\n      pop\n      pop\n      pop\n      pop\n      swap2\n      pop\n        /* \"contracts/main.sol\":5322:5455  function showMatches(string memory _pass) public view mlPassCheck(_pass) returns (matched_orgdet[] memory) {... */\n      pop\n      swap2\n      swap1\n      pop\n      jump\t// out\n    tag_35:\n      dup3\n      dup1\n      sload\n      dup3\n      dup3\n      sstore\n      swap1\n      0x00\n      mstore\n      keccak256(0x00, 0x20)\n      swap1\n      dup2\n      add\n      swap3\n      dup3\n      iszero\n      tag_240\n      jumpi\n      swap2\n      0x20\n      mul\n      dup3\n      add\n    tag_241:\n      dup3\n      dup2\n      gt\n      iszero\n      tag_242\n      jumpi\n      dup3\n      mload\n      dup3\n      sstore\n      swap2\n      0x20\n      add\n      swap2\n      swap1\n      0x01\n      add\n      swap1\n      jump(tag_241)\n    tag_242:\n    tag_240:\n      pop\n      swap1\n      pop\n      tag_243\n      swap2\n      swap1\n      tag_244\n      jump\t// in\n    tag_243:\n      pop\n      swap1\n      jump\t// out\n    tag_244:\n    tag_245:\n      dup1\n      dup3\n      gt\n      iszero\n      tag_246\n      jumpi\n      0x00\n      dup2\n      0x00\n      swap1\n      sstore\n      pop\n      0x01\n      add\n      jump(tag_245)\n    tag_246:\n      pop\n      swap1\n      jump\t// out\n        /* \"#utility.yul\":7:82   */\n    tag_247:\n        /* \"#utility.yul\":40:46   */\n      0x00\n        /* \"#utility.yul\":73:75   */\n      0x40\n        /* \"#utility.yul\":67:76   */\n      mload\n        /* \"#utility.yul\":57:76   */\n      swap1\n      pop\n        /* \"#utility.yul\":7:82   */\n      swap1\n      jump\t// out\n        /* \"#utility.yul\":88:205   */\n    tag_248:\n        /* \"#utility.yul\":197:198   */\n      0x00\n        /* \"#utility.yul\":194:195   */\n      dup1\n        /* \"#utility.yul\":187:199   */\n      revert\n        /* \"#utility.yul\":211:328   */\n    tag_249:\n        /* \"#utility.yul\":320:321   */\n      0x00\n        /* \"#utility.yul\":317:318   */\n      dup1\n        /* \"#utility.yul\":310:322   */\n      revert\n        /* \"#utility.yul\":334:451   */\n    tag_250:\n        /* \"#utility.yul\":443:444   */\n      0x00\n        /* \"#utility.yul\":440:441   */\n      dup1\n        /* \"#utility.yul\":433:445   */\n      revert\n        /* \"#utility.yul\":457:574   */\n    tag_251:\n        /* \"#utility.yul\":566:567   */\n      0x00\n        /* \"#utility.yul\":563:564   */\n      dup1\n        /* \"#utility.yul\":556:568   */\n      revert\n        /* \"#utility.yul\":580:682   */\n    tag_252:\n        /* \"#utility.yul\":621:627   */\n      0x00\n        /* \"#utility.yul\":672:674   */\n      0x1f\n        /* \"#utility.yul\":668:675   */\n      not\n        /* \"#utility.yul\":663:665   */\n      0x1f\n        /* \"#utility.yul\":656:661   */\n      dup4\n        /* \"#utility.yul\":652:666   */\n      add\n        /* \"#utility.yul\":648:676   */\n      and\n        /* \"#utility.yul\":638:676   */\n      swap1\n      pop\n        /* \"#utility.yul\":580:682   */\n      swap2\n      swap1\n      pop\n      jump\t// out\n        /* \"#utility.yul\":688:868   */\n    tag_253:\n        /* \"#utility.yul\":736:813   */\n      0x4e487b7100000000000000000000000000000000000000000000000000000000\n        /* \"#utility.yul\":733:734   */\n      0x00\n        /* \"#utility.yul\":726:814   */\n      mstore\n        /* \"#utility.yul\":833:837   */\n      0x41\n        /* \"#utility.yul\":830:831   */\n      0x04\n        /* \"#utility.yul\":823:838   */\n      mstore\n        /* \"#utility.yul\":857:861   */\n      0x24\n        /* \"#utility.yul\":854:855   */\n      0x00\n        /* \"#utility.yul\":847:862   */\n      revert\n        /* \"#utility.yul\":874:1155   */\n    tag_254:\n        /* \"#utility.yul\":957:984   */\n      tag_320\n        /* \"#utility.yul\":979:983   */\n      dup3\n        /* \"#utility.yul\":957:984   */\n      tag_252\n      jump\t// in\n    tag_320:\n        /* \"#utility.yul\":949:955   */\n      dup2\n        /* \"#utility.yul\":945:985   */\n      add\n        /* \"#utility.yul\":1087:1093   */\n      dup2\n        /* \"#utility.yul\":1075:1085   */\n      dup2\n        /* \"#utility.yul\":1072:1094   */\n      lt\n        /* \"#utility.yul\":1051:1069   */\n      0xffffffffffffffff\n        /* \"#utility.yul\":1039:1049   */\n      dup3\n        /* \"#utility.yul\":1036:1070   */\n      gt\n        /* \"#utility.yul\":1033:1095   */\n      or\n        /* \"#utility.yul\":1030:1118   */\n      iszero\n      tag_321\n      jumpi\n        /* \"#utility.yul\":1098:1116   */\n      tag_322\n      tag_253\n      jump\t// in\n    tag_322:\n        /* \"#utility.yul\":1030:1118   */\n    tag_321:\n        /* \"#utility.yul\":1138:1148   */\n      dup1\n        /* \"#utility.yul\":1134:1136   */\n      0x40\n        /* \"#utility.yul\":1127:1149   */\n      mstore\n        /* \"#utility.yul\":917:1155   */\n      pop\n        /* \"#utility.yul\":874:1155   */\n      pop\n      pop\n      jump\t// out\n        /* \"#utility.yul\":1161:1290   */\n    tag_255:\n        /* \"#utility.yul\":1195:1201   */\n      0x00\n        /* \"#utility.yul\":1222:1242   */\n      tag_324\n      tag_247\n      jump\t// in\n    tag_324:\n        /* \"#utility.yul\":1212:1242   */\n      swap1\n      pop\n        /* \"#utility.yul\":1251:1284   */\n      tag_325\n        /* \"#utility.yul\":1279:1283   */\n      dup3\n        /* \"#utility.yul\":1271:1277   */\n      dup3\n        /* \"#utility.yul\":1251:1284   */\n      tag_254\n      jump\t// in\n    tag_325:\n        /* \"#utility.yul\":1161:1290   */\n      swap2\n      swap1\n      pop\n      jump\t// out\n        /* \"#utility.yul\":1296:1604   */\n    tag_256:\n        /* \"#utility.yul\":1358:1362   */\n      0x00\n        /* \"#utility.yul\":1448:1466   */\n      0xffffffffffffffff\n        /* \"#utility.yul\":1440:1446   */\n      dup3\n        /* \"#utility.yul\":1437:1467   */\n      gt\n        /* \"#utility.yul\":1434:1490   */\n      iszero\n      tag_327\n      jumpi\n        /* \"#utility.yul\":1470:1488   */\n      tag_328\n      tag_253\n      jump\t// in\n    tag_328:\n        /* \"#utility.yul\":1434:1490   */\n    tag_327:\n        /* \"#utility.yul\":1508:1537   */\n      tag_329\n        /* \"#utility.yul\":1530:1536   */\n      dup3\n        /* \"#utility.yul\":1508:1537   */\n      tag_252\n      jump\t// in\n    tag_329:\n        /* \"#utility.yul\":1500:1537   */\n      swap1\n      pop\n        /* \"#utility.yul\":1592:1596   */\n      0x20\n        /* \"#utility.yul\":1586:1590   */\n      dup2\n        /* \"#utility.yul\":1582:1597   */\n      add\n        /* \"#utility.yul\":1574:1597   */\n      swap1\n      pop\n        /* \"#utility.yul\":1296:1604   */\n      swap2\n      swap1\n      pop\n      jump\t// out\n        /* \"#utility.yul\":1610:1758   */\n    tag_257:\n        /* \"#utility.yul\":1708:1714   */\n      dup3\n        /* \"#utility.yul\":1703:1706   */\n      dup2\n        /* \"#utility.yul\":1698:1701   */\n      dup4\n        /* \"#utility.yul\":1685:1715   */\n      calldatacopy\n        /* \"#utility.yul\":1749:1750   */\n      0x00\n        /* \"#utility.yul\":1740:1746   */\n      dup4\n        /* \"#utility.yul\":1735:1738   */\n      dup4\n        /* \"#utility.yul\":1731:1747   */\n      add\n        /* \"#utility.yul\":1724:1751   */\n      mstore\n        /* \"#utility.yul\":1610:1758   */\n      pop\n      pop\n      pop\n      jump\t// out\n        /* \"#utility.yul\":1764:2189   */\n    tag_258:\n        /* \"#utility.yul\":1842:1847   */\n      0x00\n        /* \"#utility.yul\":1867:1933   */\n      tag_332\n        /* \"#utility.yul\":1883:1932   */\n      tag_333\n        /* \"#utility.yul\":1925:1931   */\n      dup5\n        /* \"#utility.yul\":1883:1932   */\n      tag_256\n      jump\t// in\n    tag_333:\n        /* \"#utility.yul\":1867:1933   */\n      tag_255\n      jump\t// in\n    tag_332:\n        /* \"#utility.yul\":1858:1933   */\n      swap1\n      pop\n        /* \"#utility.yul\":1956:1962   */\n      dup3\n        /* \"#utility.yul\":1949:1954   */\n      dup2\n        /* \"#utility.yul\":1942:1963   */\n      mstore\n        /* \"#utility.yul\":1994:1998   */\n      0x20\n        /* \"#utility.yul\":1987:1992   */\n      dup2\n        /* \"#utility.yul\":1983:1999   */\n      add\n        /* \"#utility.yul\":2032:2035   */\n      dup5\n        /* \"#utility.yul\":2023:2029   */\n      dup5\n        /* \"#utility.yul\":2018:2021   */\n      dup5\n        /* \"#utility.yul\":2014:2030   */\n      add\n        /* \"#utility.yul\":2011:2036   */\n      gt\n        /* \"#utility.yul\":2008:2120   */\n      iszero\n      tag_334\n      jumpi\n        /* \"#utility.yul\":2039:2118   */\n      tag_335\n      tag_251\n      jump\t// in\n    tag_335:\n        /* \"#utility.yul\":2008:2120   */\n    tag_334:\n        /* \"#utility.yul\":2129:2183   */\n      tag_336\n        /* \"#utility.yul\":2176:2182   */\n      dup5\n        /* \"#utility.yul\":2171:2174   */\n      dup3\n        /* \"#utility.yul\":2166:2169   */\n      dup6\n        /* \"#utility.yul\":2129:2183   */\n      tag_257\n      jump\t// in\n    tag_336:\n        /* \"#utility.yul\":1848:2189   */\n      pop\n        /* \"#utility.yul\":1764:2189   */\n      swap4\n      swap3\n      pop\n      pop\n      pop\n      jump\t// out\n        /* \"#utility.yul\":2209:2549   */\n    tag_259:\n        /* \"#utility.yul\":2265:2270   */\n      0x00\n        /* \"#utility.yul\":2314:2317   */\n      dup3\n        /* \"#utility.yul\":2307:2311   */\n      0x1f\n        /* \"#utility.yul\":2299:2305   */\n      dup4\n        /* \"#utility.yul\":2295:2312   */\n      add\n        /* \"#utility.yul\":2291:2318   */\n      slt\n        /* \"#utility.yul\":2281:2403   */\n      tag_338\n      jumpi\n        /* \"#utility.yul\":2322:2401   */\n      tag_339\n      tag_250\n      jump\t// in\n    tag_339:\n        /* \"#utility.yul\":2281:2403   */\n    tag_338:\n        /* \"#utility.yul\":2439:2445   */\n      dup2\n        /* \"#utility.yul\":2426:2446   */\n      calldataload\n        /* \"#utility.yul\":2464:2543   */\n      tag_340\n        /* \"#utility.yul\":2539:2542   */\n      dup5\n        /* \"#utility.yul\":2531:2537   */\n      dup3\n        /* \"#utility.yul\":2524:2528   */\n      0x20\n        /* \"#utility.yul\":2516:2522   */\n      dup7\n        /* \"#utility.yul\":2512:2529   */\n      add\n        /* \"#utility.yul\":2464:2543   */\n      tag_258\n      jump\t// in\n    tag_340:\n        /* \"#utility.yul\":2455:2543   */\n      swap2\n      pop\n        /* \"#utility.yul\":2271:2549   */\n      pop\n        /* \"#utility.yul\":2209:2549   */\n      swap3\n      swap2\n      pop\n      pop\n      jump\t// out\n        /* \"#utility.yul\":2555:2632   */\n    tag_260:\n        /* \"#utility.yul\":2592:2599   */\n      0x00\n        /* \"#utility.yul\":2621:2626   */\n      dup2\n        /* \"#utility.yul\":2610:2626   */\n      swap1\n      pop\n        /* \"#utility.yul\":2555:2632   */\n      swap2\n      swap1\n      pop\n      jump\t// out\n        /* \"#utility.yul\":2638:2760   */\n    tag_261:\n        /* \"#utility.yul\":2711:2735   */\n      tag_343\n        /* \"#utility.yul\":2729:2734   */\n      dup2\n        /* \"#utility.yul\":2711:2735   */\n      tag_260\n      jump\t// in\n    tag_343:\n        /* \"#utility.yul\":2704:2709   */\n      dup2\n        /* \"#utility.yul\":2701:2736   */\n      eq\n        /* \"#utility.yul\":2691:2754   */\n      tag_344\n      jumpi\n        /* \"#utility.yul\":2750:2751   */\n      0x00\n        /* \"#utility.yul\":2747:2748   */\n      dup1\n        /* \"#utility.yul\":2740:2752   */\n      revert\n        /* \"#utility.yul\":2691:2754   */\n    tag_344:\n        /* \"#utility.yul\":2638:2760   */\n      pop\n      jump\t// out\n        /* \"#utility.yul\":2766:2905   */\n    tag_262:\n        /* \"#utility.yul\":2812:2817   */\n      0x00\n        /* \"#utility.yul\":2850:2856   */\n      dup2\n        /* \"#utility.yul\":2837:2857   */\n      calldataload\n        /* \"#utility.yul\":2828:2857   */\n      swap1\n      pop\n        /* \"#utility.yul\":2866:2899   */\n      tag_346\n        /* \"#utility.yul\":2893:2898   */\n      dup2\n        /* \"#utility.yul\":2866:2899   */\n      tag_261\n      jump\t// in\n    tag_346:\n        /* \"#utility.yul\":2766:2905   */\n      swap3\n      swap2\n      pop\n      pop\n      jump\t// out\n        /* \"#utility.yul\":2911:4036   */\n    tag_10:\n        /* \"#utility.yul\":3017:3023   */\n      0x00\n        /* \"#utility.yul\":3025:3031   */\n      dup1\n        /* \"#utility.yul\":3033:3039   */\n      0x00\n        /* \"#utility.yul\":3041:3047   */\n      dup1\n        /* \"#utility.yul\":3090:3093   */\n      0x80\n        /* \"#utility.yul\":3078:3087   */\n      dup6\n        /* \"#utility.yul\":3069:3076   */\n      dup8\n        /* \"#utility.yul\":3065:3088   */\n      sub\n        /* \"#utility.yul\":3061:3094   */\n      slt\n        /* \"#utility.yul\":3058:3178   */\n      iszero\n      tag_348\n      jumpi\n        /* \"#utility.yul\":3097:3176   */\n      tag_349\n      tag_248\n      jump\t// in\n    tag_349:\n        /* \"#utility.yul\":3058:3178   */\n    tag_348:\n        /* \"#utility.yul\":3245:3246   */\n      0x00\n        /* \"#utility.yul\":3234:3243   */\n      dup6\n        /* \"#utility.yul\":3230:3247   */\n      add\n        /* \"#utility.yul\":3217:3248   */\n      calldataload\n        /* \"#utility.yul\":3275:3293   */\n      0xffffffffffffffff\n        /* \"#utility.yul\":3267:3273   */\n      dup2\n        /* \"#utility.yul\":3264:3294   */\n      gt\n        /* \"#utility.yul\":3261:3378   */\n      iszero\n      tag_350\n      jumpi\n        /* \"#utility.yul\":3297:3376   */\n      tag_351\n      tag_249\n      jump\t// in\n    tag_351:\n        /* \"#utility.yul\":3261:3378   */\n    tag_350:\n        /* \"#utility.yul\":3402:3465   */\n      tag_352\n        /* \"#utility.yul\":3457:3464   */\n      dup8\n        /* \"#utility.yul\":3448:3454   */\n      dup3\n        /* \"#utility.yul\":3437:3446   */\n      dup9\n        /* \"#utility.yul\":3433:3455   */\n      add\n        /* \"#utility.yul\":3402:3465   */\n      tag_259\n      jump\t// in\n    tag_352:\n        /* \"#utility.yul\":3392:3465   */\n      swap5\n      pop\n        /* \"#utility.yul\":3188:3475   */\n      pop\n        /* \"#utility.yul\":3514:3516   */\n      0x20\n        /* \"#utility.yul\":3540:3593   */\n      tag_353\n        /* \"#utility.yul\":3585:3592   */\n      dup8\n        /* \"#utility.yul\":3576:3582   */\n      dup3\n        /* \"#utility.yul\":3565:3574   */\n      dup9\n        /* \"#utility.yul\":3561:3583   */\n      add\n        /* \"#utility.yul\":3540:3593   */\n      tag_262\n      jump\t// in\n    tag_353:\n        /* \"#utility.yul\":3530:3593   */\n      swap4\n      pop\n        /* \"#utility.yul\":3485:3603   */\n      pop\n        /* \"#utility.yul\":3670:3672   */\n      0x40\n        /* \"#utility.yul\":3659:3668   */\n      dup6\n        /* \"#utility.yul\":3655:3673   */\n      add\n        /* \"#utility.yul\":3642:3674   */\n      calldataload\n        /* \"#utility.yul\":3701:3719   */\n      0xffffffffffffffff\n        /* \"#utility.yul\":3693:3699   */\n      dup2\n        /* \"#utility.yul\":3690:3720   */\n      gt\n        /* \"#utility.yul\":3687:3804   */\n      iszero\n      tag_354\n      jumpi\n        /* \"#utility.yul\":3723:3802   */\n      tag_355\n      tag_249\n      jump\t// in\n    tag_355:\n        /* \"#utility.yul\":3687:3804   */\n    tag_354:\n        /* \"#utility.yul\":3828:3891   */\n      tag_356\n        /* \"#utility.yul\":3883:3890   */\n      dup8\n        /* \"#utility.yul\":3874:3880   */\n      dup3\n        /* \"#utility.yul\":3863:3872   */\n      dup9\n        /* \"#utility.yul\":3859:3881   */\n      add\n        /* \"#utility.yul\":3828:3891   */\n      tag_259\n      jump\t// in\n    tag_356:\n        /* \"#utility.yul\":3818:3891   */\n      swap3\n      pop\n        /* \"#utility.yul\":3613:3901   */\n      pop\n        /* \"#utility.yul\":3940:3942   */\n      0x60\n        /* \"#utility.yul\":3966:4019   */\n      tag_357\n        /* \"#utility.yul\":4011:4018   */\n      dup8\n        /* \"#utility.yul\":4002:4008   */\n      dup3\n        /* \"#utility.yul\":3991:4000   */\n      dup9\n        /* \"#utility.yul\":3987:4009   */\n      add\n        /* \"#utility.yul\":3966:4019   */\n      tag_262\n      jump\t// in\n    tag_357:\n        /* \"#utility.yul\":3956:4019   */\n      swap2\n      pop\n        /* \"#utility.yul\":3911:4029   */\n      pop\n        /* \"#utility.yul\":2911:4036   */\n      swap3\n      swap6\n      swap2\n      swap5\n      pop\n      swap3\n      pop\n      jump\t// out\n        /* \"#utility.yul\":4042:4551   */\n    tag_14:\n        /* \"#utility.yul\":4111:4117   */\n      0x00\n        /* \"#utility.yul\":4160:4162   */\n      0x20\n        /* \"#utility.yul\":4148:4157   */\n      dup3\n        /* \"#utility.yul\":4139:4146   */\n      dup5\n        /* \"#utility.yul\":4135:4158   */\n      sub\n        /* \"#utility.yul\":4131:4163   */\n      slt\n        /* \"#utility.yul\":4128:4247   */\n      iszero\n      tag_359\n      jumpi\n        /* \"#utility.yul\":4166:4245   */\n      tag_360\n      tag_248\n      jump\t// in\n    tag_360:\n        /* \"#utility.yul\":4128:4247   */\n    tag_359:\n        /* \"#utility.yul\":4314:4315   */\n      0x00\n        /* \"#utility.yul\":4303:4312   */\n      dup3\n        /* \"#utility.yul\":4299:4316   */\n      add\n        /* \"#utility.yul\":4286:4317   */\n      calldataload\n        /* \"#utility.yul\":4344:4362   */\n      0xffffffffffffffff\n        /* \"#utility.yul\":4336:4342   */\n      dup2\n        /* \"#utility.yul\":4333:4363   */\n      gt\n        /* \"#utility.yul\":4330:4447   */\n      iszero\n      tag_361\n      jumpi\n        /* \"#utility.yul\":4366:4445   */\n      tag_362\n      tag_249\n      jump\t// in\n    tag_362:\n        /* \"#utility.yul\":4330:4447   */\n    tag_361:\n        /* \"#utility.yul\":4471:4534   */\n      tag_363\n        /* \"#utility.yul\":4526:4533   */\n      dup5\n        /* \"#utility.yul\":4517:4523   */\n      dup3\n        /* \"#utility.yul\":4506:4515   */\n      dup6\n        /* \"#utility.yul\":4502:4524   */\n      add\n        /* \"#utility.yul\":4471:4534   */\n      tag_259\n      jump\t// in\n    tag_363:\n        /* \"#utility.yul\":4461:4534   */\n      swap2\n      pop\n        /* \"#utility.yul\":4257:4544   */\n      pop\n        /* \"#utility.yul\":4042:4551   */\n      swap3\n      swap2\n      pop\n      pop\n      jump\t// out\n        /* \"#utility.yul\":4557:4694   */\n    tag_263:\n        /* \"#utility.yul\":4647:4653   */\n      0x00\n        /* \"#utility.yul\":4681:4686   */\n      dup2\n        /* \"#utility.yul\":4675:4687   */\n      mload\n        /* \"#utility.yul\":4665:4687   */\n      swap1\n      pop\n        /* \"#utility.yul\":4557:4694   */\n      swap2\n      swap1\n      pop\n      jump\t// out\n        /* \"#utility.yul\":4700:4907   */\n    tag_264:\n        /* \"#utility.yul\":4822:4833   */\n      0x00\n        /* \"#utility.yul\":4856:4862   */\n      dup3\n        /* \"#utility.yul\":4851:4854   */\n      dup3\n        /* \"#utility.yul\":4844:4863   */\n      mstore\n        /* \"#utility.yul\":4896:4900   */\n      0x20\n        /* \"#utility.yul\":4891:4894   */\n      dup3\n        /* \"#utility.yul\":4887:4901   */\n      add\n        /* \"#utility.yul\":4872:4901   */\n      swap1\n      pop\n        /* \"#utility.yul\":4700:4907   */\n      swap3\n      swap2\n      pop\n      pop\n      jump\t// out\n        /* \"#utility.yul\":4913:5068   */\n    tag_265:\n        /* \"#utility.yul\":5003:5007   */\n      0x00\n        /* \"#utility.yul\":5026:5029   */\n      dup2\n        /* \"#utility.yul\":5018:5029   */\n      swap1\n      pop\n        /* \"#utility.yul\":5056:5060   */\n      0x20\n        /* \"#utility.yul\":5051:5054   */\n      dup3\n        /* \"#utility.yul\":5047:5061   */\n      add\n        /* \"#utility.yul\":5039:5061   */\n      swap1\n      pop\n        /* \"#utility.yul\":4913:5068   */\n      swap2\n      swap1\n      pop\n      jump\t// out\n        /* \"#utility.yul\":5074:5173   */\n    tag_266:\n        /* \"#utility.yul\":5126:5132   */\n      0x00\n        /* \"#utility.yul\":5160:5165   */\n      dup2\n        /* \"#utility.yul\":5154:5166   */\n      mload\n        /* \"#utility.yul\":5144:5166   */\n      swap1\n      pop\n        /* \"#utility.yul\":5074:5173   */\n      swap2\n      swap1\n      pop\n      jump\t// out\n        /* \"#utility.yul\":5179:5338   */\n    tag_267:\n        /* \"#utility.yul\":5253:5264   */\n      0x00\n        /* \"#utility.yul\":5287:5293   */\n      dup3\n        /* \"#utility.yul\":5282:5285   */\n      dup3\n        /* \"#utility.yul\":5275:5294   */\n      mstore\n        /* \"#utility.yul\":5327:5331   */\n      0x20\n        /* \"#utility.yul\":5322:5325   */\n      dup3\n        /* \"#utility.yul\":5318:5332   */\n      add\n        /* \"#utility.yul\":5303:5332   */\n      swap1\n      pop\n        /* \"#utility.yul\":5179:5338   */\n      swap3\n      swap2\n      pop\n      pop\n      jump\t// out\n        /* \"#utility.yul\":5344:5483   */\n    tag_268:\n        /* \"#utility.yul\":5433:5439   */\n      dup3\n        /* \"#utility.yul\":5428:5431   */\n      dup2\n        /* \"#utility.yul\":5423:5426   */\n      dup4\n        /* \"#utility.yul\":5417:5440   */\n      mcopy\n        /* \"#utility.yul\":5474:5475   */\n      0x00\n        /* \"#utility.yul\":5465:5471   */\n      dup4\n        /* \"#utility.yul\":5460:5463   */\n      dup4\n        /* \"#utility.yul\":5456:5472   */\n      add\n        /* \"#utility.yul\":5449:5476   */\n      mstore\n        /* \"#utility.yul\":5344:5483   */\n      pop\n      pop\n      pop\n      jump\t// out\n        /* \"#utility.yul\":5489:5846   */\n    tag_269:\n        /* \"#utility.yul\":5567:5570   */\n      0x00\n        /* \"#utility.yul\":5595:5634   */\n      tag_371\n        /* \"#utility.yul\":5628:5633   */\n      dup3\n        /* \"#utility.yul\":5595:5634   */\n      tag_266\n      jump\t// in\n    tag_371:\n        /* \"#utility.yul\":5650:5711   */\n      tag_372\n        /* \"#utility.yul\":5704:5710   */\n      dup2\n        /* \"#utility.yul\":5699:5702   */\n      dup6\n        /* \"#utility.yul\":5650:5711   */\n      tag_267\n      jump\t// in\n    tag_372:\n        /* \"#utility.yul\":5643:5711   */\n      swap4\n      pop\n        /* \"#utility.yul\":5720:5785   */\n      tag_373\n        /* \"#utility.yul\":5778:5784   */\n      dup2\n        /* \"#utility.yul\":5773:5776   */\n      dup6\n        /* \"#utility.yul\":5766:5770   */\n      0x20\n        /* \"#utility.yul\":5759:5764   */\n      dup7\n        /* \"#utility.yul\":5755:5771   */\n      add\n        /* \"#utility.yul\":5720:5785   */\n      tag_268\n      jump\t// in\n    tag_373:\n        /* \"#utility.yul\":5810:5839   */\n      tag_374\n        /* \"#utility.yul\":5832:5838   */\n      dup2\n        /* \"#utility.yul\":5810:5839   */\n      tag_252\n      jump\t// in\n    tag_374:\n        /* \"#utility.yul\":5805:5808   */\n      dup5\n        /* \"#utility.yul\":5801:5840   */\n      add\n        /* \"#utility.yul\":5794:5840   */\n      swap2\n      pop\n        /* \"#utility.yul\":5571:5846   */\n      pop\n        /* \"#utility.yul\":5489:5846   */\n      swap3\n      swap2\n      pop\n      pop\n      jump\t// out\n        /* \"#utility.yul\":5852:5960   */\n    tag_270:\n        /* \"#utility.yul\":5929:5953   */\n      tag_376\n        /* \"#utility.yul\":5947:5952   */\n      dup2\n        /* \"#utility.yul\":5929:5953   */\n      tag_260\n      jump\t// in\n    tag_376:\n        /* \"#utility.yul\":5924:5927   */\n      dup3\n        /* \"#utility.yul\":5917:5954   */\n      mstore\n        /* \"#utility.yul\":5852:5960   */\n      pop\n      pop\n      jump\t// out\n        /* \"#utility.yul\":6014:7036   */\n    tag_271:\n        /* \"#utility.yul\":6119:6122   */\n      0x00\n        /* \"#utility.yul\":6155:6159   */\n      0x80\n        /* \"#utility.yul\":6150:6153   */\n      dup4\n        /* \"#utility.yul\":6146:6160   */\n      add\n        /* \"#utility.yul\":6243:6247   */\n      0x00\n        /* \"#utility.yul\":6236:6241   */\n      dup4\n        /* \"#utility.yul\":6232:6248   */\n      add\n        /* \"#utility.yul\":6226:6249   */\n      mload\n        /* \"#utility.yul\":6296:6299   */\n      dup5\n        /* \"#utility.yul\":6290:6294   */\n      dup3\n        /* \"#utility.yul\":6286:6300   */\n      sub\n        /* \"#utility.yul\":6279:6283   */\n      0x00\n        /* \"#utility.yul\":6274:6277   */\n      dup7\n        /* \"#utility.yul\":6270:6284   */\n      add\n        /* \"#utility.yul\":6263:6301   */\n      mstore\n        /* \"#utility.yul\":6322:6395   */\n      tag_378\n        /* \"#utility.yul\":6390:6394   */\n      dup3\n        /* \"#utility.yul\":6376:6388   */\n      dup3\n        /* \"#utility.yul\":6322:6395   */\n      tag_269\n      jump\t// in\n    tag_378:\n        /* \"#utility.yul\":6314:6395   */\n      swap2\n      pop\n        /* \"#utility.yul\":6170:6406   */\n      pop\n        /* \"#utility.yul\":6493:6497   */\n      0x20\n        /* \"#utility.yul\":6486:6491   */\n      dup4\n        /* \"#utility.yul\":6482:6498   */\n      add\n        /* \"#utility.yul\":6476:6499   */\n      mload\n        /* \"#utility.yul\":6512:6575   */\n      tag_379\n        /* \"#utility.yul\":6569:6573   */\n      0x20\n        /* \"#utility.yul\":6564:6567   */\n      dup7\n        /* \"#utility.yul\":6560:6574   */\n      add\n        /* \"#utility.yul\":6546:6558   */\n      dup3\n        /* \"#utility.yul\":6512:6575   */\n      tag_270\n      jump\t// in\n    tag_379:\n        /* \"#utility.yul\":6416:6585   */\n      pop\n        /* \"#utility.yul\":6668:6672   */\n      0x40\n        /* \"#utility.yul\":6661:6666   */\n      dup4\n        /* \"#utility.yul\":6657:6673   */\n      add\n        /* \"#utility.yul\":6651:6674   */\n      mload\n        /* \"#utility.yul\":6721:6724   */\n      dup5\n        /* \"#utility.yul\":6715:6719   */\n      dup3\n        /* \"#utility.yul\":6711:6725   */\n      sub\n        /* \"#utility.yul\":6704:6708   */\n      0x40\n        /* \"#utility.yul\":6699:6702   */\n      dup7\n        /* \"#utility.yul\":6695:6709   */\n      add\n        /* \"#utility.yul\":6688:6726   */\n      mstore\n        /* \"#utility.yul\":6747:6820   */\n      tag_380\n        /* \"#utility.yul\":6815:6819   */\n      dup3\n        /* \"#utility.yul\":6801:6813   */\n      dup3\n        /* \"#utility.yul\":6747:6820   */\n      tag_269\n      jump\t// in\n    tag_380:\n        /* \"#utility.yul\":6739:6820   */\n      swap2\n      pop\n        /* \"#utility.yul\":6595:6831   */\n      pop\n        /* \"#utility.yul\":6917:6921   */\n      0x60\n        /* \"#utility.yul\":6910:6915   */\n      dup4\n        /* \"#utility.yul\":6906:6922   */\n      add\n        /* \"#utility.yul\":6900:6923   */\n      mload\n        /* \"#utility.yul\":6936:6999   */\n      tag_381\n        /* \"#utility.yul\":6993:6997   */\n      0x60\n        /* \"#utility.yul\":6988:6991   */\n      dup7\n        /* \"#utility.yul\":6984:6998   */\n      add\n        /* \"#utility.yul\":6970:6982   */\n      dup3\n        /* \"#utility.yul\":6936:6999   */\n      tag_270\n      jump\t// in\n    tag_381:\n        /* \"#utility.yul\":6841:7009   */\n      pop\n        /* \"#utility.yul\":7026:7030   */\n      dup1\n        /* \"#utility.yul\":7019:7030   */\n      swap2\n      pop\n        /* \"#utility.yul\":6124:7036   */\n      pop\n        /* \"#utility.yul\":6014:7036   */\n      swap3\n      swap2\n      pop\n      pop\n      jump\t// out\n        /* \"#utility.yul\":7042:7290   */\n    tag_272:\n        /* \"#utility.yul\":7157:7167   */\n      0x00\n        /* \"#utility.yul\":7192:7284   */\n      tag_383\n        /* \"#utility.yul\":7280:7283   */\n      dup4\n        /* \"#utility.yul\":7272:7278   */\n      dup4\n        /* \"#utility.yul\":7192:7284   */\n      tag_271\n      jump\t// in\n    tag_383:\n        /* \"#utility.yul\":7178:7284   */\n      swap1\n      pop\n        /* \"#utility.yul\":7042:7290   */\n      swap3\n      swap2\n      pop\n      pop\n      jump\t// out\n        /* \"#utility.yul\":7296:7432   */\n    tag_273:\n        /* \"#utility.yul\":7389:7393   */\n      0x00\n        /* \"#utility.yul\":7421:7425   */\n      0x20\n        /* \"#utility.yul\":7416:7419   */\n      dup3\n        /* \"#utility.yul\":7412:7426   */\n      add\n        /* \"#utility.yul\":7404:7426   */\n      swap1\n      pop\n        /* \"#utility.yul\":7296:7432   */\n      swap2\n      swap1\n      pop\n      jump\t// out\n        /* \"#utility.yul\":7490:8585   */\n    tag_274:\n        /* \"#utility.yul\":7655:7658   */\n      0x00\n        /* \"#utility.yul\":7684:7761   */\n      tag_386\n        /* \"#utility.yul\":7755:7760   */\n      dup3\n        /* \"#utility.yul\":7684:7761   */\n      tag_263\n      jump\t// in\n    tag_386:\n        /* \"#utility.yul\":7777:7886   */\n      tag_387\n        /* \"#utility.yul\":7879:7885   */\n      dup2\n        /* \"#utility.yul\":7874:7877   */\n      dup6\n        /* \"#utility.yul\":7777:7886   */\n      tag_264\n      jump\t// in\n    tag_387:\n        /* \"#utility.yul\":7770:7886   */\n      swap4\n      pop\n        /* \"#utility.yul\":7912:7915   */\n      dup4\n        /* \"#utility.yul\":7957:7961   */\n      0x20\n        /* \"#utility.yul\":7949:7955   */\n      dup3\n        /* \"#utility.yul\":7945:7962   */\n      mul\n        /* \"#utility.yul\":7940:7943   */\n      dup6\n        /* \"#utility.yul\":7936:7963   */\n      add\n        /* \"#utility.yul\":7987:8066   */\n      tag_388\n        /* \"#utility.yul\":8060:8065   */\n      dup6\n        /* \"#utility.yul\":7987:8066   */\n      tag_265\n      jump\t// in\n    tag_388:\n        /* \"#utility.yul\":8089:8096   */\n      dup1\n        /* \"#utility.yul\":8120:8121   */\n      0x00\n        /* \"#utility.yul\":8105:8540   */\n    tag_389:\n        /* \"#utility.yul\":8130:8136   */\n      dup6\n        /* \"#utility.yul\":8127:8128   */\n      dup2\n        /* \"#utility.yul\":8124:8137   */\n      lt\n        /* \"#utility.yul\":8105:8540   */\n      iszero\n      tag_391\n      jumpi\n        /* \"#utility.yul\":8201:8210   */\n      dup5\n        /* \"#utility.yul\":8195:8199   */\n      dup5\n        /* \"#utility.yul\":8191:8211   */\n      sub\n        /* \"#utility.yul\":8186:8189   */\n      dup10\n        /* \"#utility.yul\":8179:8212   */\n      mstore\n        /* \"#utility.yul\":8252:8258   */\n      dup2\n        /* \"#utility.yul\":8246:8259   */\n      mload\n        /* \"#utility.yul\":8280:8390   */\n      tag_392\n        /* \"#utility.yul\":8385:8389   */\n      dup6\n        /* \"#utility.yul\":8370:8383   */\n      dup3\n        /* \"#utility.yul\":8280:8390   */\n      tag_272\n      jump\t// in\n    tag_392:\n        /* \"#utility.yul\":8272:8390   */\n      swap5\n      pop\n        /* \"#utility.yul\":8413:8496   */\n      tag_393\n        /* \"#utility.yul\":8489:8495   */\n      dup4\n        /* \"#utility.yul\":8413:8496   */\n      tag_273\n      jump\t// in\n    tag_393:\n        /* \"#utility.yul\":8403:8496   */\n      swap3\n      pop\n        /* \"#utility.yul\":8525:8529   */\n      0x20\n        /* \"#utility.yul\":8520:8523   */\n      dup11\n        /* \"#utility.yul\":8516:8530   */\n      add\n        /* \"#utility.yul\":8509:8530   */\n      swap10\n      pop\n        /* \"#utility.yul\":8165:8540   */\n      pop\n        /* \"#utility.yul\":8152:8153   */\n      0x01\n        /* \"#utility.yul\":8149:8150   */\n      dup2\n        /* \"#utility.yul\":8145:8154   */\n      add\n        /* \"#utility.yul\":8140:8154   */\n      swap1\n      pop\n        /* \"#utility.yul\":8105:8540   */\n      jump(tag_389)\n    tag_391:\n        /* \"#utility.yul\":8109:8123   */\n      pop\n        /* \"#utility.yul\":8556:8560   */\n      dup3\n        /* \"#utility.yul\":8549:8560   */\n      swap8\n      pop\n        /* \"#utility.yul\":8576:8579   */\n      dup8\n        /* \"#utility.yul\":8569:8579   */\n      swap6\n      pop\n        /* \"#utility.yul\":7660:8585   */\n      pop\n      pop\n      pop\n      pop\n      pop\n        /* \"#utility.yul\":7490:8585   */\n      swap3\n      swap2\n      pop\n      pop\n      jump\t// out\n        /* \"#utility.yul\":8591:9056   */\n    tag_17:\n        /* \"#utility.yul\":8780:8784   */\n      0x00\n        /* \"#utility.yul\":8818:8820   */\n      0x20\n        /* \"#utility.yul\":8807:8816   */\n      dup3\n        /* \"#utility.yul\":8803:8821   */\n      add\n        /* \"#utility.yul\":8795:8821   */\n      swap1\n      pop\n        /* \"#utility.yul\":8867:8876   */\n      dup2\n        /* \"#utility.yul\":8861:8865   */\n      dup2\n        /* \"#utility.yul\":8857:8877   */\n      sub\n        /* \"#utility.yul\":8853:8854   */\n      0x00\n        /* \"#utility.yul\":8842:8851   */\n      dup4\n        /* \"#utility.yul\":8838:8855   */\n      add\n        /* \"#utility.yul\":8831:8878   */\n      mstore\n        /* \"#utility.yul\":8895:9049   */\n      tag_395\n        /* \"#utility.yul\":9044:9048   */\n      dup2\n        /* \"#utility.yul\":9035:9041   */\n      dup5\n        /* \"#utility.yul\":8895:9049   */\n      tag_274\n      jump\t// in\n    tag_395:\n        /* \"#utility.yul\":8887:9049   */\n      swap1\n      pop\n        /* \"#utility.yul\":8591:9056   */\n      swap3\n      swap2\n      pop\n      pop\n      jump\t// out\n        /* \"#utility.yul\":9062:10187   */\n    tag_20:\n        /* \"#utility.yul\":9168:9174   */\n      0x00\n        /* \"#utility.yul\":9176:9182   */\n      dup1\n        /* \"#utility.yul\":9184:9190   */\n      0x00\n        /* \"#utility.yul\":9192:9198   */\n      dup1\n        /* \"#utility.yul\":9241:9244   */\n      0x80\n        /* \"#utility.yul\":9229:9238   */\n      dup6\n        /* \"#utility.yul\":9220:9227   */\n      dup8\n        /* \"#utility.yul\":9216:9239   */\n      sub\n        /* \"#utility.yul\":9212:9245   */\n      slt\n        /* \"#utility.yul\":9209:9329   */\n      iszero\n      tag_397\n      jumpi\n        /* \"#utility.yul\":9248:9327   */\n      tag_398\n      tag_248\n      jump\t// in\n    tag_398:\n        /* \"#utility.yul\":9209:9329   */\n    tag_397:\n        /* \"#utility.yul\":9396:9397   */\n      0x00\n        /* \"#utility.yul\":9385:9394   */\n      dup6\n        /* \"#utility.yul\":9381:9398   */\n      add\n        /* \"#utility.yul\":9368:9399   */\n      calldataload\n        /* \"#utility.yul\":9426:9444   */\n      0xffffffffffffffff\n        /* \"#utility.yul\":9418:9424   */\n      dup2\n        /* \"#utility.yul\":9415:9445   */\n      gt\n        /* \"#utility.yul\":9412:9529   */\n      iszero\n      tag_399\n      jumpi\n        /* \"#utility.yul\":9448:9527   */\n      tag_400\n      tag_249\n      jump\t// in\n    tag_400:\n        /* \"#utility.yul\":9412:9529   */\n    tag_399:\n        /* \"#utility.yul\":9553:9616   */\n      tag_401\n        /* \"#utility.yul\":9608:9615   */\n      dup8\n        /* \"#utility.yul\":9599:9605   */\n      dup3\n        /* \"#utility.yul\":9588:9597   */\n      dup9\n        /* \"#utility.yul\":9584:9606   */\n      add\n        /* \"#utility.yul\":9553:9616   */\n      tag_259\n      jump\t// in\n    tag_401:\n        /* \"#utility.yul\":9543:9616   */\n      swap5\n      pop\n        /* \"#utility.yul\":9339:9626   */\n      pop\n        /* \"#utility.yul\":9693:9695   */\n      0x20\n        /* \"#utility.yul\":9682:9691   */\n      dup6\n        /* \"#utility.yul\":9678:9696   */\n      add\n        /* \"#utility.yul\":9665:9697   */\n      calldataload\n        /* \"#utility.yul\":9724:9742   */\n      0xffffffffffffffff\n        /* \"#utility.yul\":9716:9722   */\n      dup2\n        /* \"#utility.yul\":9713:9743   */\n      gt\n        /* \"#utility.yul\":9710:9827   */\n      iszero\n      tag_402\n      jumpi\n        /* \"#utility.yul\":9746:9825   */\n      tag_403\n      tag_249\n      jump\t// in\n    tag_403:\n        /* \"#utility.yul\":9710:9827   */\n    tag_402:\n        /* \"#utility.yul\":9851:9914   */\n      tag_404\n        /* \"#utility.yul\":9906:9913   */\n      dup8\n        /* \"#utility.yul\":9897:9903   */\n      dup3\n        /* \"#utility.yul\":9886:9895   */\n      dup9\n        /* \"#utility.yul\":9882:9904   */\n      add\n        /* \"#utility.yul\":9851:9914   */\n      tag_259\n      jump\t// in\n    tag_404:\n        /* \"#utility.yul\":9841:9914   */\n      swap4\n      pop\n        /* \"#utility.yul\":9636:9924   */\n      pop\n        /* \"#utility.yul\":9963:9965   */\n      0x40\n        /* \"#utility.yul\":9989:10042   */\n      tag_405\n        /* \"#utility.yul\":10034:10041   */\n      dup8\n        /* \"#utility.yul\":10025:10031   */\n      dup3\n        /* \"#utility.yul\":10014:10023   */\n      dup9\n        /* \"#utility.yul\":10010:10032   */\n      add\n        /* \"#utility.yul\":9989:10042   */\n      tag_262\n      jump\t// in\n    tag_405:\n        /* \"#utility.yul\":9979:10042   */\n      swap3\n      pop\n        /* \"#utility.yul\":9934:10052   */\n      pop\n        /* \"#utility.yul\":10091:10093   */\n      0x60\n        /* \"#utility.yul\":10117:10170   */\n      tag_406\n        /* \"#utility.yul\":10162:10169   */\n      dup8\n        /* \"#utility.yul\":10153:10159   */\n      dup3\n        /* \"#utility.yul\":10142:10151   */\n      dup9\n        /* \"#utility.yul\":10138:10160   */\n      add\n        /* \"#utility.yul\":10117:10170   */\n      tag_262\n      jump\t// in\n    tag_406:\n        /* \"#utility.yul\":10107:10170   */\n      swap2\n      pop\n        /* \"#utility.yul\":10062:10180   */\n      pop\n        /* \"#utility.yul\":9062:10187   */\n      swap3\n      swap6\n      swap2\n      swap5\n      pop\n      swap3\n      pop\n      jump\t// out\n        /* \"#utility.yul\":10193:10338   */\n    tag_275:\n        /* \"#utility.yul\":10291:10297   */\n      0x00\n        /* \"#utility.yul\":10325:10330   */\n      dup2\n        /* \"#utility.yul\":10319:10331   */\n      mload\n        /* \"#utility.yul\":10309:10331   */\n      swap1\n      pop\n        /* \"#utility.yul\":10193:10338   */\n      swap2\n      swap1\n      pop\n      jump\t// out\n        /* \"#utility.yul\":10344:10559   */\n    tag_276:\n        /* \"#utility.yul\":10474:10485   */\n      0x00\n        /* \"#utility.yul\":10508:10514   */\n      dup3\n        /* \"#utility.yul\":10503:10506   */\n      dup3\n        /* \"#utility.yul\":10496:10515   */\n      mstore\n        /* \"#utility.yul\":10548:10552   */\n      0x20\n        /* \"#utility.yul\":10543:10546   */\n      dup3\n        /* \"#utility.yul\":10539:10553   */\n      add\n        /* \"#utility.yul\":10524:10553   */\n      swap1\n      pop\n        /* \"#utility.yul\":10344:10559   */\n      swap3\n      swap2\n      pop\n      pop\n      jump\t// out\n        /* \"#utility.yul\":10565:10728   */\n    tag_277:\n        /* \"#utility.yul\":10663:10667   */\n      0x00\n        /* \"#utility.yul\":10686:10689   */\n      dup2\n        /* \"#utility.yul\":10678:10689   */\n      swap1\n      pop\n        /* \"#utility.yul\":10716:10720   */\n      0x20\n        /* \"#utility.yul\":10711:10714   */\n      dup3\n        /* \"#utility.yul\":10707:10721   */\n      add\n        /* \"#utility.yul\":10699:10721   */\n      swap1\n      pop\n        /* \"#utility.yul\":10565:10728   */\n      swap2\n      swap1\n      pop\n      jump\t// out\n        /* \"#utility.yul\":10798:12471   */\n    tag_278:\n        /* \"#utility.yul\":10919:10922   */\n      0x00\n        /* \"#utility.yul\":10955:10959   */\n      0xe0\n        /* \"#utility.yul\":10950:10953   */\n      dup4\n        /* \"#utility.yul\":10946:10960   */\n      add\n        /* \"#utility.yul\":11043:11047   */\n      0x00\n        /* \"#utility.yul\":11036:11041   */\n      dup4\n        /* \"#utility.yul\":11032:11048   */\n      add\n        /* \"#utility.yul\":11026:11049   */\n      mload\n        /* \"#utility.yul\":11096:11099   */\n      dup5\n        /* \"#utility.yul\":11090:11094   */\n      dup3\n        /* \"#utility.yul\":11086:11100   */\n      sub\n        /* \"#utility.yul\":11079:11083   */\n      0x00\n        /* \"#utility.yul\":11074:11077   */\n      dup7\n        /* \"#utility.yul\":11070:11084   */\n      add\n        /* \"#utility.yul\":11063:11101   */\n      mstore\n        /* \"#utility.yul\":11122:11195   */\n      tag_411\n        /* \"#utility.yul\":11190:11194   */\n      dup3\n        /* \"#utility.yul\":11176:11188   */\n      dup3\n        /* \"#utility.yul\":11122:11195   */\n      tag_269\n      jump\t// in\n    tag_411:\n        /* \"#utility.yul\":11114:11195   */\n      swap2\n      pop\n        /* \"#utility.yul\":10970:11206   */\n      pop\n        /* \"#utility.yul\":11293:11297   */\n      0x20\n        /* \"#utility.yul\":11286:11291   */\n      dup4\n        /* \"#utility.yul\":11282:11298   */\n      add\n        /* \"#utility.yul\":11276:11299   */\n      mload\n        /* \"#utility.yul\":11346:11349   */\n      dup5\n        /* \"#utility.yul\":11340:11344   */\n      dup3\n        /* \"#utility.yul\":11336:11350   */\n      sub\n        /* \"#utility.yul\":11329:11333   */\n      0x20\n        /* \"#utility.yul\":11324:11327   */\n      dup7\n        /* \"#utility.yul\":11320:11334   */\n      add\n        /* \"#utility.yul\":11313:11351   */\n      mstore\n        /* \"#utility.yul\":11372:11445   */\n      tag_412\n        /* \"#utility.yul\":11440:11444   */\n      dup3\n        /* \"#utility.yul\":11426:11438   */\n      dup3\n        /* \"#utility.yul\":11372:11445   */\n      tag_269\n      jump\t// in\n    tag_412:\n        /* \"#utility.yul\":11364:11445   */\n      swap2\n      pop\n        /* \"#utility.yul\":11216:11456   */\n      pop\n        /* \"#utility.yul\":11548:11552   */\n      0x40\n        /* \"#utility.yul\":11541:11546   */\n      dup4\n        /* \"#utility.yul\":11537:11553   */\n      add\n        /* \"#utility.yul\":11531:11554   */\n      mload\n        /* \"#utility.yul\":11567:11630   */\n      tag_413\n        /* \"#utility.yul\":11624:11628   */\n      0x40\n        /* \"#utility.yul\":11619:11622   */\n      dup7\n        /* \"#utility.yul\":11615:11629   */\n      add\n        /* \"#utility.yul\":11601:11613   */\n      dup3\n        /* \"#utility.yul\":11567:11630   */\n      tag_270\n      jump\t// in\n    tag_413:\n        /* \"#utility.yul\":11466:11640   */\n      pop\n        /* \"#utility.yul\":11736:11740   */\n      0x60\n        /* \"#utility.yul\":11729:11734   */\n      dup4\n        /* \"#utility.yul\":11725:11741   */\n      add\n        /* \"#utility.yul\":11719:11742   */\n      mload\n        /* \"#utility.yul\":11755:11818   */\n      tag_414\n        /* \"#utility.yul\":11812:11816   */\n      0x60\n        /* \"#utility.yul\":11807:11810   */\n      dup7\n        /* \"#utility.yul\":11803:11817   */\n      add\n        /* \"#utility.yul\":11789:11801   */\n      dup3\n        /* \"#utility.yul\":11755:11818   */\n      tag_270\n      jump\t// in\n    tag_414:\n        /* \"#utility.yul\":11650:11828   */\n      pop\n        /* \"#utility.yul\":11911:11915   */\n      0x80\n        /* \"#utility.yul\":11904:11909   */\n      dup4\n        /* \"#utility.yul\":11900:11916   */\n      add\n        /* \"#utility.yul\":11894:11917   */\n      mload\n        /* \"#utility.yul\":11964:11967   */\n      dup5\n        /* \"#utility.yul\":11958:11962   */\n      dup3\n        /* \"#utility.yul\":11954:11968   */\n      sub\n        /* \"#utility.yul\":11947:11951   */\n      0x80\n        /* \"#utility.yul\":11942:11945   */\n      dup7\n        /* \"#utility.yul\":11938:11952   */\n      add\n        /* \"#utility.yul\":11931:11969   */\n      mstore\n        /* \"#utility.yul\":11990:12063   */\n      tag_415\n        /* \"#utility.yul\":12058:12062   */\n      dup3\n        /* \"#utility.yul\":12044:12056   */\n      dup3\n        /* \"#utility.yul\":11990:12063   */\n      tag_269\n      jump\t// in\n    tag_415:\n        /* \"#utility.yul\":11982:12063   */\n      swap2\n      pop\n        /* \"#utility.yul\":11838:12074   */\n      pop\n        /* \"#utility.yul\":12165:12169   */\n      0xa0\n        /* \"#utility.yul\":12158:12163   */\n      dup4\n        /* \"#utility.yul\":12154:12170   */\n      add\n        /* \"#utility.yul\":12148:12171   */\n      mload\n        /* \"#utility.yul\":12184:12247   */\n      tag_416\n        /* \"#utility.yul\":12241:12245   */\n      0xa0\n        /* \"#utility.yul\":12236:12239   */\n      dup7\n        /* \"#utility.yul\":12232:12246   */\n      add\n        /* \"#utility.yul\":12218:12230   */\n      dup3\n        /* \"#utility.yul\":12184:12247   */\n      tag_270\n      jump\t// in\n    tag_416:\n        /* \"#utility.yul\":12084:12257   */\n      pop\n        /* \"#utility.yul\":12352:12356   */\n      0xc0\n        /* \"#utility.yul\":12345:12350   */\n      dup4\n        /* \"#utility.yul\":12341:12357   */\n      add\n        /* \"#utility.yul\":12335:12358   */\n      mload\n        /* \"#utility.yul\":12371:12434   */\n      tag_417\n        /* \"#utility.yul\":12428:12432   */\n      0xc0\n        /* \"#utility.yul\":12423:12426   */\n      dup7\n        /* \"#utility.yul\":12419:12433   */\n      add\n        /* \"#utility.yul\":12405:12417   */\n      dup3\n        /* \"#utility.yul\":12371:12434   */\n      tag_270\n      jump\t// in\n    tag_417:\n        /* \"#utility.yul\":12267:12444   */\n      pop\n        /* \"#utility.yul\":12461:12465   */\n      dup1\n        /* \"#utility.yul\":12454:12465   */\n      swap2\n      pop\n        /* \"#utility.yul\":10924:12471   */\n      pop\n        /* \"#utility.yul\":10798:12471   */\n      swap3\n      swap2\n      pop\n      pop\n      jump\t// out\n        /* \"#utility.yul\":12477:12757   */\n    tag_279:\n        /* \"#utility.yul\":12608:12618   */\n      0x00\n        /* \"#utility.yul\":12643:12751   */\n      tag_419\n        /* \"#utility.yul\":12747:12750   */\n      dup4\n        /* \"#utility.yul\":12739:12745   */\n      dup4\n        /* \"#utility.yul\":12643:12751   */\n      tag_278\n      jump\t// in\n    tag_419:\n        /* \"#utility.yul\":12629:12751   */\n      swap1\n      pop\n        /* \"#utility.yul\":12477:12757   */\n      swap3\n      swap2\n      pop\n      pop\n      jump\t// out\n        /* \"#utility.yul\":12763:12907   */\n    tag_280:\n        /* \"#utility.yul\":12864:12868   */\n      0x00\n        /* \"#utility.yul\":12896:12900   */\n      0x20\n        /* \"#utility.yul\":12891:12894   */\n      dup3\n        /* \"#utility.yul\":12887:12901   */\n      add\n        /* \"#utility.yul\":12879:12901   */\n      swap1\n      pop\n        /* \"#utility.yul\":12763:12907   */\n      swap2\n      swap1\n      pop\n      jump\t// out\n        /* \"#utility.yul\":12981:14140   */\n    tag_281:\n        /* \"#utility.yul\":13162:13165   */\n      0x00\n        /* \"#utility.yul\":13191:13276   */\n      tag_422\n        /* \"#utility.yul\":13270:13275   */\n      dup3\n        /* \"#utility.yul\":13191:13276   */\n      tag_275\n      jump\t// in\n    tag_422:\n        /* \"#utility.yul\":13292:13409   */\n      tag_423\n        /* \"#utility.yul\":13402:13408   */\n      dup2\n        /* \"#utility.yul\":13397:13400   */\n      dup6\n        /* \"#utility.yul\":13292:13409   */\n      tag_276\n      jump\t// in\n    tag_423:\n        /* \"#utility.yul\":13285:13409   */\n      swap4\n      pop\n        /* \"#utility.yul\":13435:13438   */\n      dup4\n        /* \"#utility.yul\":13480:13484   */\n      0x20\n        /* \"#utility.yul\":13472:13478   */\n      dup3\n        /* \"#utility.yul\":13468:13485   */\n      mul\n        /* \"#utility.yul\":13463:13466   */\n      dup6\n        /* \"#utility.yul\":13459:13486   */\n      add\n        /* \"#utility.yul\":13510:13597   */\n      tag_424\n        /* \"#utility.yul\":13591:13596   */\n      dup6\n        /* \"#utility.yul\":13510:13597   */\n      tag_277\n      jump\t// in\n    tag_424:\n        /* \"#utility.yul\":13620:13627   */\n      dup1\n        /* \"#utility.yul\":13651:13652   */\n      0x00\n        /* \"#utility.yul\":13636:14095   */\n    tag_425:\n        /* \"#utility.yul\":13661:13667   */\n      dup6\n        /* \"#utility.yul\":13658:13659   */\n      dup2\n        /* \"#utility.yul\":13655:13668   */\n      lt\n        /* \"#utility.yul\":13636:14095   */\n      iszero\n      tag_427\n      jumpi\n        /* \"#utility.yul\":13732:13741   */\n      dup5\n        /* \"#utility.yul\":13726:13730   */\n      dup5\n        /* \"#utility.yul\":13722:13742   */\n      sub\n        /* \"#utility.yul\":13717:13720   */\n      dup10\n        /* \"#utility.yul\":13710:13743   */\n      mstore\n        /* \"#utility.yul\":13783:13789   */\n      dup2\n        /* \"#utility.yul\":13777:13790   */\n      mload\n        /* \"#utility.yul\":13811:13937   */\n      tag_428\n        /* \"#utility.yul\":13932:13936   */\n      dup6\n        /* \"#utility.yul\":13917:13930   */\n      dup3\n        /* \"#utility.yul\":13811:13937   */\n      tag_279\n      jump\t// in\n    tag_428:\n        /* \"#utility.yul\":13803:13937   */\n      swap5\n      pop\n        /* \"#utility.yul\":13960:14051   */\n      tag_429\n        /* \"#utility.yul\":14044:14050   */\n      dup4\n        /* \"#utility.yul\":13960:14051   */\n      tag_280\n      jump\t// in\n    tag_429:\n        /* \"#utility.yul\":13950:14051   */\n      swap3\n      pop\n        /* \"#utility.yul\":14080:14084   */\n      0x20\n        /* \"#utility.yul\":14075:14078   */\n      dup11\n        /* \"#utility.yul\":14071:14085   */\n      add\n        /* \"#utility.yul\":14064:14085   */\n      swap10\n      pop\n        /* \"#utility.yul\":13696:14095   */\n      pop\n        /* \"#utility.yul\":13683:13684   */\n      0x01\n        /* \"#utility.yul\":13680:13681   */\n      dup2\n        /* \"#utility.yul\":13676:13685   */\n      add\n        /* \"#utility.yul\":13671:13685   */\n      swap1\n      pop\n        /* \"#utility.yul\":13636:14095   */\n      jump(tag_425)\n    tag_427:\n        /* \"#utility.yul\":13640:13654   */\n      pop\n        /* \"#utility.yul\":14111:14115   */\n      dup3\n        /* \"#utility.yul\":14104:14115   */\n      swap8\n      pop\n        /* \"#utility.yul\":14131:14134   */\n      dup8\n        /* \"#utility.yul\":14124:14134   */\n      swap6\n      pop\n        /* \"#utility.yul\":13167:14140   */\n      pop\n      pop\n      pop\n      pop\n      pop\n        /* \"#utility.yul\":12981:14140   */\n      swap3\n      swap2\n      pop\n      pop\n      jump\t// out\n        /* \"#utility.yul\":14146:14643   */\n    tag_30:\n        /* \"#utility.yul\":14351:14355   */\n      0x00\n        /* \"#utility.yul\":14389:14391   */\n      0x20\n        /* \"#utility.yul\":14378:14387   */\n      dup3\n        /* \"#utility.yul\":14374:14392   */\n      add\n        /* \"#utility.yul\":14366:14392   */\n      swap1\n      pop\n        /* \"#utility.yul\":14438:14447   */\n      dup2\n        /* \"#utility.yul\":14432:14436   */\n      dup2\n        /* \"#utility.yul\":14428:14448   */\n      sub\n        /* \"#utility.yul\":14424:14425   */\n      0x00\n        /* \"#utility.yul\":14413:14422   */\n      dup4\n        /* \"#utility.yul\":14409:14426   */\n      add\n        /* \"#utility.yul\":14402:14449   */\n      mstore\n        /* \"#utility.yul\":14466:14636   */\n      tag_431\n        /* \"#utility.yul\":14631:14635   */\n      dup2\n        /* \"#utility.yul\":14622:14628   */\n      dup5\n        /* \"#utility.yul\":14466:14636   */\n      tag_281\n      jump\t// in\n    tag_431:\n        /* \"#utility.yul\":14458:14636   */\n      swap1\n      pop\n        /* \"#utility.yul\":14146:14643   */\n      swap3\n      swap2\n      pop\n      pop\n      jump\t// out\n        /* \"#utility.yul\":14649:14829   */\n    tag_42:\n        /* \"#utility.yul\":14697:14774   */\n      0x4e487b7100000000000000000000000000000000000000000000000000000000\n        /* \"#utility.yul\":14694:14695   */\n      0x00\n        /* \"#utility.yul\":14687:14775   */\n      mstore\n        /* \"#utility.yul\":14794:14798   */\n      0x32\n        /* \"#utility.yul\":14791:14792   */\n      0x04\n        /* \"#utility.yul\":14784:14799   */\n      mstore\n        /* \"#utility.yul\":14818:14822   */\n      0x24\n        /* \"#utility.yul\":14815:14816   */\n      0x00\n        /* \"#utility.yul\":14808:14823   */\n      revert\n        /* \"#utility.yul\":14835:15015   */\n    tag_282:\n        /* \"#utility.yul\":14883:14960   */\n      0x4e487b7100000000000000000000000000000000000000000000000000000000\n        /* \"#utility.yul\":14880:14881   */\n      0x00\n        /* \"#utility.yul\":14873:14961   */\n      mstore\n        /* \"#utility.yul\":14980:14984   */\n      0x22\n        /* \"#utility.yul\":14977:14978   */\n      0x04\n        /* \"#utility.yul\":14970:14985   */\n      mstore\n        /* \"#utility.yul\":15004:15008   */\n      0x24\n        /* \"#utility.yul\":15001:15002   */\n      0x00\n        /* \"#utility.yul\":14994:15009   */\n      revert\n        /* \"#utility.yul\":15021:15341   */\n    tag_86:\n        /* \"#utility.yul\":15065:15071   */\n      0x00\n        /* \"#utility.yul\":15102:15103   */\n      0x02\n        /* \"#utility.yul\":15096:15100   */\n      dup3\n        /* \"#utility.yul\":15092:15104   */\n      div\n        /* \"#utility.yul\":15082:15104   */\n      swap1\n      pop\n        /* \"#utility.yul\":15149:15150   */\n      0x01\n        /* \"#utility.yul\":15143:15147   */\n      dup3\n        /* \"#utility.yul\":15139:15151   */\n      and\n        /* \"#utility.yul\":15170:15188   */\n      dup1\n        /* \"#utility.yul\":15160:15241   */\n      tag_435\n      jumpi\n        /* \"#utility.yul\":15226:15230   */\n      0x7f\n        /* \"#utility.yul\":15218:15224   */\n      dup3\n        /* \"#utility.yul\":15214:15231   */\n      and\n        /* \"#utility.yul\":15204:15231   */\n      swap2\n      pop\n        /* \"#utility.yul\":15160:15241   */\n    tag_435:\n        /* \"#utility.yul\":15288:15290   */\n      0x20\n        /* \"#utility.yul\":15280:15286   */\n      dup3\n        /* \"#utility.yul\":15277:15291   */\n      lt\n        /* \"#utility.yul\":15257:15275   */\n      dup2\n        /* \"#utility.yul\":15254:15292   */\n      sub\n        /* \"#utility.yul\":15251:15335   */\n      tag_436\n      jumpi\n        /* \"#utility.yul\":15307:15325   */\n      tag_437\n      tag_282\n      jump\t// in\n    tag_437:\n        /* \"#utility.yul\":15251:15335   */\n    tag_436:\n        /* \"#utility.yul\":15072:15341   */\n      pop\n        /* \"#utility.yul\":15021:15341   */\n      swap2\n      swap1\n      pop\n      jump\t// out\n        /* \"#utility.yul\":15347:15494   */\n    tag_283:\n        /* \"#utility.yul\":15448:15459   */\n      0x00\n        /* \"#utility.yul\":15485:15488   */\n      dup2\n        /* \"#utility.yul\":15470:15488   */\n      swap1\n      pop\n        /* \"#utility.yul\":15347:15494   */\n      swap3\n      swap2\n      pop\n      pop\n      jump\t// out\n        /* \"#utility.yul\":15500:15644   */\n    tag_284:\n        /* \"#utility.yul\":15552:15556   */\n      0x00\n        /* \"#utility.yul\":15575:15578   */\n      dup2\n        /* \"#utility.yul\":15567:15578   */\n      swap1\n      pop\n        /* \"#utility.yul\":15598:15601   */\n      dup2\n        /* \"#utility.yul\":15595:15596   */\n      0x00\n        /* \"#utility.yul\":15588:15602   */\n      mstore\n        /* \"#utility.yul\":15632:15636   */\n      0x20\n        /* \"#utility.yul\":15629:15630   */\n      0x00\n        /* \"#utility.yul\":15619:15637   */\n      keccak256\n        /* \"#utility.yul\":15611:15637   */\n      swap1\n      pop\n        /* \"#utility.yul\":15500:15644   */\n      swap2\n      swap1\n      pop\n      jump\t// out\n        /* \"#utility.yul\":15672:16550   */\n    tag_285:\n        /* \"#utility.yul\":15777:15780   */\n      0x00\n        /* \"#utility.yul\":15814:15819   */\n      dup2\n        /* \"#utility.yul\":15808:15820   */\n      sload\n        /* \"#utility.yul\":15843:15879   */\n      tag_441\n        /* \"#utility.yul\":15869:15878   */\n      dup2\n        /* \"#utility.yul\":15843:15879   */\n      tag_86\n      jump\t// in\n    tag_441:\n        /* \"#utility.yul\":15895:15983   */\n      tag_442\n        /* \"#utility.yul\":15976:15982   */\n      dup2\n        /* \"#utility.yul\":15971:15974   */\n      dup7\n        /* \"#utility.yul\":15895:15983   */\n      tag_283\n      jump\t// in\n    tag_442:\n        /* \"#utility.yul\":15888:15983   */\n      swap5\n      pop\n        /* \"#utility.yul\":16014:16015   */\n      0x01\n        /* \"#utility.yul\":16003:16012   */\n      dup3\n        /* \"#utility.yul\":15999:16016   */\n      and\n        /* \"#utility.yul\":16030:16031   */\n      0x00\n        /* \"#utility.yul\":16025:16191   */\n      dup2\n      eq\n      tag_444\n      jumpi\n        /* \"#utility.yul\":16205:16206   */\n      0x01\n        /* \"#utility.yul\":16200:16544   */\n      dup2\n      eq\n      tag_445\n      jumpi\n        /* \"#utility.yul\":15992:16544   */\n      jump(tag_443)\n        /* \"#utility.yul\":16025:16191   */\n    tag_444:\n        /* \"#utility.yul\":16109:16113   */\n      0xff\n        /* \"#utility.yul\":16105:16114   */\n      not\n        /* \"#utility.yul\":16094:16103   */\n      dup4\n        /* \"#utility.yul\":16090:16115   */\n      and\n        /* \"#utility.yul\":16085:16088   */\n      dup7\n        /* \"#utility.yul\":16078:16116   */\n      mstore\n        /* \"#utility.yul\":16171:16177   */\n      dup2\n        /* \"#utility.yul\":16164:16178   */\n      iszero\n        /* \"#utility.yul\":16157:16179   */\n      iszero\n        /* \"#utility.yul\":16149:16155   */\n      dup3\n        /* \"#utility.yul\":16145:16180   */\n      mul\n        /* \"#utility.yul\":16140:16143   */\n      dup7\n        /* \"#utility.yul\":16136:16181   */\n      add\n        /* \"#utility.yul\":16129:16181   */\n      swap4\n      pop\n        /* \"#utility.yul\":16025:16191   */\n      jump(tag_443)\n        /* \"#utility.yul\":16200:16544   */\n    tag_445:\n        /* \"#utility.yul\":16267:16308   */\n      tag_446\n        /* \"#utility.yul\":16302:16307   */\n      dup6\n        /* \"#utility.yul\":16267:16308   */\n      tag_284\n      jump\t// in\n    tag_446:\n        /* \"#utility.yul\":16330:16331   */\n      0x00\n        /* \"#utility.yul\":16344:16498   */\n    tag_447:\n        /* \"#utility.yul\":16358:16364   */\n      dup4\n        /* \"#utility.yul\":16355:16356   */\n      dup2\n        /* \"#utility.yul\":16352:16365   */\n      lt\n        /* \"#utility.yul\":16344:16498   */\n      iszero\n      tag_449\n      jumpi\n        /* \"#utility.yul\":16432:16439   */\n      dup2\n        /* \"#utility.yul\":16426:16440   */\n      sload\n        /* \"#utility.yul\":16422:16423   */\n      dup2\n        /* \"#utility.yul\":16417:16420   */\n      dup10\n        /* \"#utility.yul\":16413:16424   */\n      add\n        /* \"#utility.yul\":16406:16441   */\n      mstore\n        /* \"#utility.yul\":16482:16483   */\n      0x01\n        /* \"#utility.yul\":16473:16480   */\n      dup3\n        /* \"#utility.yul\":16469:16484   */\n      add\n        /* \"#utility.yul\":16458:16484   */\n      swap2\n      pop\n        /* \"#utility.yul\":16380:16384   */\n      0x20\n        /* \"#utility.yul\":16377:16378   */\n      dup2\n        /* \"#utility.yul\":16373:16385   */\n      add\n        /* \"#utility.yul\":16368:16385   */\n      swap1\n      pop\n        /* \"#utility.yul\":16344:16498   */\n      jump(tag_447)\n    tag_449:\n        /* \"#utility.yul\":16527:16533   */\n      dup4\n        /* \"#utility.yul\":16522:16525   */\n      dup9\n        /* \"#utility.yul\":16518:16534   */\n      add\n        /* \"#utility.yul\":16511:16534   */\n      swap6\n      pop\n        /* \"#utility.yul\":16207:16544   */\n      pop\n      pop\n        /* \"#utility.yul\":15992:16544   */\n    tag_443:\n      pop\n        /* \"#utility.yul\":15781:16550   */\n      pop\n      pop\n        /* \"#utility.yul\":15672:16550   */\n      swap3\n      swap2\n      pop\n      pop\n      jump\t// out\n        /* \"#utility.yul\":16556:16829   */\n    tag_56:\n        /* \"#utility.yul\":16687:16690   */\n      0x00\n        /* \"#utility.yul\":16709:16803   */\n      tag_451\n        /* \"#utility.yul\":16799:16802   */\n      dup3\n        /* \"#utility.yul\":16790:16796   */\n      dup5\n        /* \"#utility.yul\":16709:16803   */\n      tag_285\n      jump\t// in\n    tag_451:\n        /* \"#utility.yul\":16702:16803   */\n      swap2\n      pop\n        /* \"#utility.yul\":16820:16823   */\n      dup2\n        /* \"#utility.yul\":16813:16823   */\n      swap1\n      pop\n        /* \"#utility.yul\":16556:16829   */\n      swap3\n      swap2\n      pop\n      pop\n      jump\t// out\n        /* \"#utility.yul\":16835:17004   */\n    tag_286:\n        /* \"#utility.yul\":16919:16930   */\n      0x00\n        /* \"#utility.yul\":16953:16959   */\n      dup3\n        /* \"#utility.yul\":16948:16951   */\n      dup3\n        /* \"#utility.yul\":16941:16960   */\n      mstore\n        /* \"#utility.yul\":16993:16997   */\n      0x20\n        /* \"#utility.yul\":16988:16991   */\n      dup3\n        /* \"#utility.yul\":16984:16998   */\n      add\n        /* \"#utility.yul\":16969:16998   */\n      swap1\n      pop\n        /* \"#utility.yul\":16835:17004   */\n      swap3\n      swap2\n      pop\n      pop\n      jump\t// out\n        /* \"#utility.yul\":17010:17151   */\n    tag_287:\n        /* \"#utility.yul\":17059:17063   */\n      0x00\n        /* \"#utility.yul\":17082:17085   */\n      dup2\n        /* \"#utility.yul\":17074:17085   */\n      swap1\n      pop\n        /* \"#utility.yul\":17105:17108   */\n      dup2\n        /* \"#utility.yul\":17102:17103   */\n      0x00\n        /* \"#utility.yul\":17095:17109   */\n      mstore\n        /* \"#utility.yul\":17139:17143   */\n      0x20\n        /* \"#utility.yul\":17136:17137   */\n      0x00\n        /* \"#utility.yul\":17126:17144   */\n      keccak256\n        /* \"#utility.yul\":17118:17144   */\n      swap1\n      pop\n        /* \"#utility.yul\":17010:17151   */\n      swap2\n      swap1\n      pop\n      jump\t// out\n        /* \"#utility.yul\":17181:18012   */\n    tag_288:\n        /* \"#utility.yul\":17266:17269   */\n      0x00\n        /* \"#utility.yul\":17303:17308   */\n      dup2\n        /* \"#utility.yul\":17297:17309   */\n      sload\n        /* \"#utility.yul\":17332:17368   */\n      tag_455\n        /* \"#utility.yul\":17358:17367   */\n      dup2\n        /* \"#utility.yul\":17332:17368   */\n      tag_86\n      jump\t// in\n    tag_455:\n        /* \"#utility.yul\":17384:17455   */\n      tag_456\n        /* \"#utility.yul\":17448:17454   */\n      dup2\n        /* \"#utility.yul\":17443:17446   */\n      dup7\n        /* \"#utility.yul\":17384:17455   */\n      tag_286\n      jump\t// in\n    tag_456:\n        /* \"#utility.yul\":17377:17455   */\n      swap5\n      pop\n        /* \"#utility.yul\":17486:17487   */\n      0x01\n        /* \"#utility.yul\":17475:17484   */\n      dup3\n        /* \"#utility.yul\":17471:17488   */\n      and\n        /* \"#utility.yul\":17502:17503   */\n      0x00\n        /* \"#utility.yul\":17497:17661   */\n      dup2\n      eq\n      tag_458\n      jumpi\n        /* \"#utility.yul\":17675:17676   */\n      0x01\n        /* \"#utility.yul\":17670:18006   */\n      dup2\n      eq\n      tag_459\n      jumpi\n        /* \"#utility.yul\":17464:18006   */\n      jump(tag_457)\n        /* \"#utility.yul\":17497:17661   */\n    tag_458:\n        /* \"#utility.yul\":17581:17585   */\n      0xff\n        /* \"#utility.yul\":17577:17586   */\n      not\n        /* \"#utility.yul\":17566:17575   */\n      dup4\n        /* \"#utility.yul\":17562:17587   */\n      and\n        /* \"#utility.yul\":17557:17560   */\n      dup7\n        /* \"#utility.yul\":17550:17588   */\n      mstore\n        /* \"#utility.yul\":17641:17647   */\n      dup2\n        /* \"#utility.yul\":17634:17648   */\n      iszero\n        /* \"#utility.yul\":17627:17649   */\n      iszero\n        /* \"#utility.yul\":17621:17625   */\n      0x20\n        /* \"#utility.yul\":17617:17650   */\n      mul\n        /* \"#utility.yul\":17612:17615   */\n      dup7\n        /* \"#utility.yul\":17608:17651   */\n      add\n        /* \"#utility.yul\":17601:17651   */\n      swap4\n      pop\n        /* \"#utility.yul\":17497:17661   */\n      jump(tag_457)\n        /* \"#utility.yul\":17670:18006   */\n    tag_459:\n        /* \"#utility.yul\":17737:17775   */\n      tag_460\n        /* \"#utility.yul\":17769:17774   */\n      dup6\n        /* \"#utility.yul\":17737:17775   */\n      tag_287\n      jump\t// in\n    tag_460:\n        /* \"#utility.yul\":17797:17798   */\n      0x00\n        /* \"#utility.yul\":17811:17965   */\n    tag_461:\n        /* \"#utility.yul\":17825:17831   */\n      dup4\n        /* \"#utility.yul\":17822:17823   */\n      dup2\n        /* \"#utility.yul\":17819:17832   */\n      lt\n        /* \"#utility.yul\":17811:17965   */\n      iszero\n      tag_463\n      jumpi\n        /* \"#utility.yul\":17899:17906   */\n      dup2\n        /* \"#utility.yul\":17893:17907   */\n      sload\n        /* \"#utility.yul\":17889:17890   */\n      dup2\n        /* \"#utility.yul\":17884:17887   */\n      dup10\n        /* \"#utility.yul\":17880:17891   */\n      add\n        /* \"#utility.yul\":17873:17908   */\n      mstore\n        /* \"#utility.yul\":17949:17950   */\n      0x01\n        /* \"#utility.yul\":17940:17947   */\n      dup3\n        /* \"#utility.yul\":17936:17951   */\n      add\n        /* \"#utility.yul\":17925:17951   */\n      swap2\n      pop\n        /* \"#utility.yul\":17847:17851   */\n      0x20\n        /* \"#utility.yul\":17844:17845   */\n      dup2\n        /* \"#utility.yul\":17840:17852   */\n      add\n        /* \"#utility.yul\":17835:17852   */\n      swap1\n      pop\n        /* \"#utility.yul\":17811:17965   */\n      jump(tag_461)\n    tag_463:\n        /* \"#utility.yul\":17994:17995   */\n      dup1\n        /* \"#utility.yul\":17989:17992   */\n      dup9\n        /* \"#utility.yul\":17985:17996   */\n      add\n        /* \"#utility.yul\":17978:17996   */\n      swap6\n      pop\n        /* \"#utility.yul\":17677:18006   */\n      pop\n      pop\n        /* \"#utility.yul\":17464:18006   */\n    tag_457:\n      pop\n        /* \"#utility.yul\":17270:18012   */\n      pop\n      pop\n        /* \"#utility.yul\":17181:18012   */\n      swap3\n      swap2\n      pop\n      pop\n      jump\t// out\n        /* \"#utility.yul\":18018:18136   */\n    tag_289:\n        /* \"#utility.yul\":18105:18129   */\n      tag_465\n        /* \"#utility.yul\":18123:18128   */\n      dup2\n        /* \"#utility.yul\":18105:18129   */\n      tag_260\n      jump\t// in\n    tag_465:\n        /* \"#utility.yul\":18100:18103   */\n      dup3\n        /* \"#utility.yul\":18093:18130   */\n      mstore\n        /* \"#utility.yul\":18018:18136   */\n      pop\n      pop\n      jump\t// out\n        /* \"#utility.yul\":18142:18865   */\n    tag_81:\n        /* \"#utility.yul\":18353:18357   */\n      0x00\n        /* \"#utility.yul\":18391:18394   */\n      0x80\n        /* \"#utility.yul\":18380:18389   */\n      dup3\n        /* \"#utility.yul\":18376:18395   */\n      add\n        /* \"#utility.yul\":18368:18395   */\n      swap1\n      pop\n        /* \"#utility.yul\":18441:18450   */\n      dup2\n        /* \"#utility.yul\":18435:18439   */\n      dup2\n        /* \"#utility.yul\":18431:18451   */\n      sub\n        /* \"#utility.yul\":18427:18428   */\n      0x00\n        /* \"#utility.yul\":18416:18425   */\n      dup4\n        /* \"#utility.yul\":18412:18429   */\n      add\n        /* \"#utility.yul\":18405:18452   */\n      mstore\n        /* \"#utility.yul\":18469:18544   */\n      tag_467\n        /* \"#utility.yul\":18539:18543   */\n      dup2\n        /* \"#utility.yul\":18530:18536   */\n      dup8\n        /* \"#utility.yul\":18469:18544   */\n      tag_288\n      jump\t// in\n    tag_467:\n        /* \"#utility.yul\":18461:18544   */\n      swap1\n      pop\n        /* \"#utility.yul\":18554:18626   */\n      tag_468\n        /* \"#utility.yul\":18622:18624   */\n      0x20\n        /* \"#utility.yul\":18611:18620   */\n      dup4\n        /* \"#utility.yul\":18607:18625   */\n      add\n        /* \"#utility.yul\":18598:18604   */\n      dup7\n        /* \"#utility.yul\":18554:18626   */\n      tag_289\n      jump\t// in\n    tag_468:\n        /* \"#utility.yul\":18673:18682   */\n      dup2\n        /* \"#utility.yul\":18667:18671   */\n      dup2\n        /* \"#utility.yul\":18663:18683   */\n      sub\n        /* \"#utility.yul\":18658:18660   */\n      0x40\n        /* \"#utility.yul\":18647:18656   */\n      dup4\n        /* \"#utility.yul\":18643:18661   */\n      add\n        /* \"#utility.yul\":18636:18684   */\n      mstore\n        /* \"#utility.yul\":18701:18776   */\n      tag_469\n        /* \"#utility.yul\":18771:18775   */\n      dup2\n        /* \"#utility.yul\":18762:18768   */\n      dup6\n        /* \"#utility.yul\":18701:18776   */\n      tag_288\n      jump\t// in\n    tag_469:\n        /* \"#utility.yul\":18693:18776   */\n      swap1\n      pop\n        /* \"#utility.yul\":18786:18858   */\n      tag_470\n        /* \"#utility.yul\":18854:18856   */\n      0x60\n        /* \"#utility.yul\":18843:18852   */\n      dup4\n        /* \"#utility.yul\":18839:18857   */\n      add\n        /* \"#utility.yul\":18830:18836   */\n      dup5\n        /* \"#utility.yul\":18786:18858   */\n      tag_289\n      jump\t// in\n    tag_470:\n        /* \"#utility.yul\":18142:18865   */\n      swap6\n      swap5\n      pop\n      pop\n      pop\n      pop\n      pop\n      jump\t// out\n        /* \"#utility.yul\":18871:18964   */\n    tag_290:\n        /* \"#utility.yul\":18908:18914   */\n      0x00\n        /* \"#utility.yul\":18955:18957   */\n      0x20\n        /* \"#utility.yul\":18950:18952   */\n      0x1f\n        /* \"#utility.yul\":18943:18948   */\n      dup4\n        /* \"#utility.yul\":18939:18953   */\n      add\n        /* \"#utility.yul\":18935:18958   */\n      div\n        /* \"#utility.yul\":18925:18958   */\n      swap1\n      pop\n        /* \"#utility.yul\":18871:18964   */\n      swap2\n      swap1\n      pop\n      jump\t// out\n        /* \"#utility.yul\":18970:19077   */\n    tag_291:\n        /* \"#utility.yul\":19014:19022   */\n      0x00\n        /* \"#utility.yul\":19064:19069   */\n      dup3\n        /* \"#utility.yul\":19058:19062   */\n      dup3\n        /* \"#utility.yul\":19054:19070   */\n      shl\n        /* \"#utility.yul\":19033:19070   */\n      swap1\n      pop\n        /* \"#utility.yul\":18970:19077   */\n      swap3\n      swap2\n      pop\n      pop\n      jump\t// out\n        /* \"#utility.yul\":19083:19476   */\n    tag_292:\n        /* \"#utility.yul\":19152:19158   */\n      0x00\n        /* \"#utility.yul\":19202:19203   */\n      0x08\n        /* \"#utility.yul\":19190:19200   */\n      dup4\n        /* \"#utility.yul\":19186:19204   */\n      mul\n        /* \"#utility.yul\":19225:19322   */\n      tag_474\n        /* \"#utility.yul\":19255:19321   */\n      0xffffffffffffffffffffffffffffffffffffffffffffffffffffffffffffffff\n        /* \"#utility.yul\":19244:19253   */\n      dup3\n        /* \"#utility.yul\":19225:19322   */\n      tag_291\n      jump\t// in\n    tag_474:\n        /* \"#utility.yul\":19343:19382   */\n      tag_475\n        /* \"#utility.yul\":19373:19381   */\n      dup7\n        /* \"#utility.yul\":19362:19371   */\n      dup4\n        /* \"#utility.yul\":19343:19382   */\n      tag_291\n      jump\t// in\n    tag_475:\n        /* \"#utility.yul\":19331:19382   */\n      swap6\n      pop\n        /* \"#utility.yul\":19415:19419   */\n      dup1\n        /* \"#utility.yul\":19411:19420   */\n      not\n        /* \"#utility.yul\":19404:19409   */\n      dup5\n        /* \"#utility.yul\":19400:19421   */\n      and\n        /* \"#utility.yul\":19391:19421   */\n      swap4\n      pop\n        /* \"#utility.yul\":19464:19468   */\n      dup1\n        /* \"#utility.yul\":19454:19462   */\n      dup7\n        /* \"#utility.yul\":19450:19469   */\n      and\n        /* \"#utility.yul\":19443:19448   */\n      dup5\n        /* \"#utility.yul\":19440:19470   */\n      or\n        /* \"#utility.yul\":19430:19470   */\n      swap3\n      pop\n        /* \"#utility.yul\":19159:19476   */\n      pop\n      pop\n        /* \"#utility.yul\":19083:19476   */\n      swap4\n      swap3\n      pop\n      pop\n      pop\n      jump\t// out\n        /* \"#utility.yul\":19482:19542   */\n    tag_293:\n        /* \"#utility.yul\":19510:19513   */\n      0x00\n        /* \"#utility.yul\":19531:19536   */\n      dup2\n        /* \"#utility.yul\":19524:19536   */\n      swap1\n      pop\n        /* \"#utility.yul\":19482:19542   */\n      swap2\n      swap1\n      pop\n      jump\t// out\n        /* \"#utility.yul\":19548:19690   */\n    tag_294:\n        /* \"#utility.yul\":19598:19607   */\n      0x00\n        /* \"#utility.yul\":19631:19684   */\n      tag_478\n        /* \"#utility.yul\":19649:19683   */\n      tag_479\n        /* \"#utility.yul\":19658:19682   */\n      tag_480\n        /* \"#utility.yul\":19676:19681   */\n      dup5\n        /* \"#utility.yul\":19658:19682   */\n      tag_260\n      jump\t// in\n    tag_480:\n        /* \"#utility.yul\":19649:19683   */\n      tag_293\n      jump\t// in\n    tag_479:\n        /* \"#utility.yul\":19631:19684   */\n      tag_260\n      jump\t// in\n    tag_478:\n        /* \"#utility.yul\":19618:19684   */\n      swap1\n      pop\n        /* \"#utility.yul\":19548:19690   */\n      swap2\n      swap1\n      pop\n      jump\t// out\n        /* \"#utility.yul\":19696:19771   */\n    tag_295:\n        /* \"#utility.yul\":19739:19742   */\n      0x00\n        /* \"#utility.yul\":19760:19765   */\n      dup2\n        /* \"#utility.yul\":19753:19765   */\n      swap1\n      pop\n        /* \"#utility.yul\":19696:19771   */\n      swap2\n      swap1\n      pop\n      jump\t// out\n        /* \"#utility.yul\":19777:20046   */\n    tag_296:\n        /* \"#utility.yul\":19887:19926   */\n      tag_483\n        /* \"#utility.yul\":19918:19925   */\n      dup4\n        /* \"#utility.yul\":19887:19926   */\n      tag_294\n      jump\t// in\n    tag_483:\n        /* \"#utility.yul\":19948:20039   */\n      tag_484\n        /* \"#utility.yul\":19997:20038   */\n      tag_485\n        /* \"#utility.yul\":20021:20037   */\n      dup3\n        /* \"#utility.yul\":19997:20038   */\n      tag_295\n      jump\t// in\n    tag_485:\n        /* \"#utility.yul\":19989:19995   */\n      dup5\n        /* \"#utility.yul\":19982:19986   */\n      dup5\n        /* \"#utility.yul\":19976:19987   */\n      sload\n        /* \"#utility.yul\":19948:20039   */\n      tag_292\n      jump\t// in\n    tag_484:\n        /* \"#utility.yul\":19942:19946   */\n      dup3\n        /* \"#utility.yul\":19935:20040   */\n      sstore\n        /* \"#utility.yul\":19853:20046   */\n      pop\n        /* \"#utility.yul\":19777:20046   */\n      pop\n      pop\n      pop\n      jump\t// out\n        /* \"#utility.yul\":20052:20125   */\n    tag_297:\n        /* \"#utility.yul\":20097:20100   */\n      0x00\n        /* \"#utility.yul\":20052:20125   */\n      swap1\n      jump\t// out\n        /* \"#utility.yul\":20131:20320   */\n    tag_298:\n        /* \"#utility.yul\":20208:20240   */\n      tag_488\n      tag_297\n      jump\t// in\n    tag_488:\n        /* \"#utility.yul\":20249:20314   */\n      tag_489\n        /* \"#utility.yul\":20307:20313   */\n      dup2\n        /* \"#utility.yul\":20299:20305   */\n      dup5\n        /* \"#utility.yul\":20293:20297   */\n      dup5\n        /* \"#utility.yul\":20249:20314   */\n      tag_296\n      jump\t// in\n    tag_489:\n        /* \"#utility.yul\":20184:20320   */\n      pop\n        /* \"#utility.yul\":20131:20320   */\n      pop\n      pop\n      jump\t// out\n        /* \"#utility.yul\":20326:20512   */\n    tag_299:\n        /* \"#utility.yul\":20386:20506   */\n    tag_491:\n        /* \"#utility.yul\":20403:20406   */\n      dup2\n        /* \"#utility.yul\":20396:20401   */\n      dup2\n        /* \"#utility.yul\":20393:20407   */\n      lt\n        /* \"#utility.yul\":20386:20506   */\n      iszero\n      tag_493\n      jumpi\n        /* \"#utility.yul\":20457:20496   */\n      tag_494\n        /* \"#utility.yul\":20494:20495   */\n      0x00\n        /* \"#utility.yul\":20487:20492   */\n      dup3\n        /* \"#utility.yul\":20457:20496   */\n      tag_298\n      jump\t// in\n    tag_494:\n        /* \"#utility.yul\":20430:20431   */\n      0x01\n        /* \"#utility.yul\":20423:20428   */\n      dup2\n        /* \"#utility.yul\":20419:20432   */\n      add\n        /* \"#utility.yul\":20410:20432   */\n      swap1\n      pop\n        /* \"#utility.yul\":20386:20506   */\n      jump(tag_491)\n    tag_493:\n        /* \"#utility.yul\":20326:20512   */\n      pop\n      pop\n      jump\t// out\n        /* \"#utility.yul\":20518:21061   */\n    tag_300:\n        /* \"#utility.yul\":20619:20621   */\n      0x1f\n        /* \"#utility.yul\":20614:20617   */\n      dup3\n        /* \"#utility.yul\":20611:20622   */\n      gt\n        /* \"#utility.yul\":20608:21054   */\n      iszero\n      tag_496\n      jumpi\n        /* \"#utility.yul\":20653:20691   */\n      tag_497\n        /* \"#utility.yul\":20685:20690   */\n      dup2\n        /* \"#utility.yul\":20653:20691   */\n      tag_287\n      jump\t// in\n    tag_497:\n        /* \"#utility.yul\":20737:20766   */\n      tag_498\n        /* \"#utility.yul\":20755:20765   */\n      dup5\n        /* \"#utility.yul\":20737:20766   */\n      tag_290\n      jump\t// in\n    tag_498:\n        /* \"#utility.yul\":20727:20735   */\n      dup2\n        /* \"#utility.yul\":20723:20767   */\n      add\n        /* \"#utility.yul\":20920:20922   */\n      0x20\n        /* \"#utility.yul\":20908:20918   */\n      dup6\n        /* \"#utility.yul\":20905:20923   */\n      lt\n        /* \"#utility.yul\":20902:20951   */\n      iszero\n      tag_499\n      jumpi\n        /* \"#utility.yul\":20941:20949   */\n      dup2\n        /* \"#utility.yul\":20926:20949   */\n      swap1\n      pop\n        /* \"#utility.yul\":20902:20951   */\n    tag_499:\n        /* \"#utility.yul\":20964:21044   */\n      tag_500\n        /* \"#utility.yul\":21020:21042   */\n      tag_501\n        /* \"#utility.yul\":21038:21041   */\n      dup6\n        /* \"#utility.yul\":21020:21042   */\n      tag_290\n      jump\t// in\n    tag_501:\n        /* \"#utility.yul\":21010:21018   */\n      dup4\n        /* \"#utility.yul\":21006:21043   */\n      add\n        /* \"#utility.yul\":20993:21004   */\n      dup3\n        /* \"#utility.yul\":20964:21044   */\n      tag_299\n      jump\t// in\n    tag_500:\n        /* \"#utility.yul\":20623:21054   */\n      pop\n      pop\n        /* \"#utility.yul\":20608:21054   */\n    tag_496:\n        /* \"#utility.yul\":20518:21061   */\n      pop\n      pop\n      pop\n      jump\t// out\n        /* \"#utility.yul\":21067:21184   */\n    tag_301:\n        /* \"#utility.yul\":21121:21129   */\n      0x00\n        /* \"#utility.yul\":21171:21176   */\n      dup3\n        /* \"#utility.yul\":21165:21169   */\n      dup3\n        /* \"#utility.yul\":21161:21177   */\n      shr\n        /* \"#utility.yul\":21140:21177   */\n      swap1\n      pop\n        /* \"#utility.yul\":21067:21184   */\n      swap3\n      swap2\n      pop\n      pop\n      jump\t// out\n        /* \"#utility.yul\":21190:21359   */\n    tag_302:\n        /* \"#utility.yul\":21234:21240   */\n      0x00\n        /* \"#utility.yul\":21267:21318   */\n      tag_504\n        /* \"#utility.yul\":21315:21316   */\n      0x00\n        /* \"#utility.yul\":21311:21317   */\n      not\n        /* \"#utility.yul\":21303:21308   */\n      dup5\n        /* \"#utility.yul\":21300:21301   */\n      0x08\n        /* \"#utility.yul\":21296:21309   */\n      mul\n        /* \"#utility.yul\":21267:21318   */\n      tag_301\n      jump\t// in\n    tag_504:\n        /* \"#utility.yul\":21263:21319   */\n      not\n        /* \"#utility.yul\":21348:21352   */\n      dup1\n        /* \"#utility.yul\":21342:21346   */\n      dup4\n        /* \"#utility.yul\":21338:21353   */\n      and\n        /* \"#utility.yul\":21328:21353   */\n      swap2\n      pop\n        /* \"#utility.yul\":21241:21359   */\n      pop\n        /* \"#utility.yul\":21190:21359   */\n      swap3\n      swap2\n      pop\n      pop\n      jump\t// out\n        /* \"#utility.yul\":21364:21659   */\n    tag_303:\n        /* \"#utility.yul\":21440:21444   */\n      0x00\n        /* \"#utility.yul\":21586:21615   */\n      tag_506\n        /* \"#utility.yul\":21611:21614   */\n      dup4\n        /* \"#utility.yul\":21605:21609   */\n      dup4\n        /* \"#utility.yul\":21586:21615   */\n      tag_302\n      jump\t// in\n    tag_506:\n        /* \"#utility.yul\":21578:21615   */\n      swap2\n      pop\n        /* \"#utility.yul\":21648:21651   */\n      dup3\n        /* \"#utility.yul\":21645:21646   */\n      0x02\n        /* \"#utility.yul\":21641:21652   */\n      mul\n        /* \"#utility.yul\":21635:21639   */\n      dup3\n        /* \"#utility.yul\":21632:21653   */\n      or\n        /* \"#utility.yul\":21624:21653   */\n      swap1\n      pop\n        /* \"#utility.yul\":21364:21659   */\n      swap3\n      swap2\n      pop\n      pop\n      jump\t// out\n        /* \"#utility.yul\":21664:23059   */\n    tag_99:\n        /* \"#utility.yul\":21781:21818   */\n      tag_508\n        /* \"#utility.yul\":21814:21817   */\n      dup3\n        /* \"#utility.yul\":21781:21818   */\n      tag_266\n      jump\t// in\n    tag_508:\n        /* \"#utility.yul\":21883:21901   */\n      0xffffffffffffffff\n        /* \"#utility.yul\":21875:21881   */\n      dup2\n        /* \"#utility.yul\":21872:21902   */\n      gt\n        /* \"#utility.yul\":21869:21925   */\n      iszero\n      tag_509\n      jumpi\n        /* \"#utility.yul\":21905:21923   */\n      tag_510\n      tag_253\n      jump\t// in\n    tag_510:\n        /* \"#utility.yul\":21869:21925   */\n    tag_509:\n        /* \"#utility.yul\":21949:21987   */\n      tag_511\n        /* \"#utility.yul\":21981:21985   */\n      dup3\n        /* \"#utility.yul\":21975:21986   */\n      sload\n        /* \"#utility.yul\":21949:21987   */\n      tag_86\n      jump\t// in\n    tag_511:\n        /* \"#utility.yul\":22034:22101   */\n      tag_512\n        /* \"#utility.yul\":22094:22100   */\n      dup3\n        /* \"#utility.yul\":22086:22092   */\n      dup3\n        /* \"#utility.yul\":22080:22084   */\n      dup6\n        /* \"#utility.yul\":22034:22101   */\n      tag_300\n      jump\t// in\n    tag_512:\n        /* \"#utility.yul\":22128:22129   */\n      0x00\n        /* \"#utility.yul\":22152:22156   */\n      0x20\n        /* \"#utility.yul\":22139:22156   */\n      swap1\n      pop\n        /* \"#utility.yul\":22184:22186   */\n      0x1f\n        /* \"#utility.yul\":22176:22182   */\n      dup4\n        /* \"#utility.yul\":22173:22187   */\n      gt\n        /* \"#utility.yul\":22201:22202   */\n      0x01\n        /* \"#utility.yul\":22196:22814   */\n      dup2\n      eq\n      tag_514\n      jumpi\n        /* \"#utility.yul\":22858:22859   */\n      0x00\n        /* \"#utility.yul\":22875:22881   */\n      dup5\n        /* \"#utility.yul\":22872:22949   */\n      iszero\n      tag_515\n      jumpi\n        /* \"#utility.yul\":22924:22933   */\n      dup3\n        /* \"#utility.yul\":22919:22922   */\n      dup8\n        /* \"#utility.yul\":22915:22934   */\n      add\n        /* \"#utility.yul\":22909:22935   */\n      mload\n        /* \"#utility.yul\":22900:22935   */\n      swap1\n      pop\n        /* \"#utility.yul\":22872:22949   */\n    tag_515:\n        /* \"#utility.yul\":22975:23042   */\n      tag_516\n        /* \"#utility.yul\":23035:23041   */\n      dup6\n        /* \"#utility.yul\":23028:23033   */\n      dup3\n        /* \"#utility.yul\":22975:23042   */\n      tag_303\n      jump\t// in\n    tag_516:\n        /* \"#utility.yul\":22969:22973   */\n      dup7\n        /* \"#utility.yul\":22962:23043   */\n      sstore\n        /* \"#utility.yul\":22831:23053   */\n      pop\n        /* \"#utility.yul\":22166:23053   */\n      jump(tag_513)\n        /* \"#utility.yul\":22196:22814   */\n    tag_514:\n        /* \"#utility.yul\":22248:22252   */\n      0x1f\n        /* \"#utility.yul\":22244:22253   */\n      not\n        /* \"#utility.yul\":22236:22242   */\n      dup5\n        /* \"#utility.yul\":22232:22254   */\n      and\n        /* \"#utility.yul\":22282:22319   */\n      tag_517\n        /* \"#utility.yul\":22314:22318   */\n      dup7\n        /* \"#utility.yul\":22282:22319   */\n      tag_287\n      jump\t// in\n    tag_517:\n        /* \"#utility.yul\":22341:22342   */\n      0x00\n        /* \"#utility.yul\":22355:22563   */\n    tag_518:\n        /* \"#utility.yul\":22369:22376   */\n      dup3\n        /* \"#utility.yul\":22366:22367   */\n      dup2\n        /* \"#utility.yul\":22363:22377   */\n      lt\n        /* \"#utility.yul\":22355:22563   */\n      iszero\n      tag_520\n      jumpi\n        /* \"#utility.yul\":22448:22457   */\n      dup5\n        /* \"#utility.yul\":22443:22446   */\n      dup10\n        /* \"#utility.yul\":22439:22458   */\n      add\n        /* \"#utility.yul\":22433:22459   */\n      mload\n        /* \"#utility.yul\":22425:22431   */\n      dup3\n        /* \"#utility.yul\":22418:22460   */\n      sstore\n        /* \"#utility.yul\":22499:22500   */\n      0x01\n        /* \"#utility.yul\":22491:22497   */\n      dup3\n        /* \"#utility.yul\":22487:22501   */\n      add\n        /* \"#utility.yul\":22477:22501   */\n      swap2\n      pop\n        /* \"#utility.yul\":22546:22548   */\n      0x20\n        /* \"#utility.yul\":22535:22544   */\n      dup6\n        /* \"#utility.yul\":22531:22549   */\n      add\n        /* \"#utility.yul\":22518:22549   */\n      swap5\n      pop\n        /* \"#utility.yul\":22392:22396   */\n      0x20\n        /* \"#utility.yul\":22389:22390   */\n      dup2\n        /* \"#utility.yul\":22385:22397   */\n      add\n        /* \"#utility.yul\":22380:22397   */\n      swap1\n      pop\n        /* \"#utility.yul\":22355:22563   */\n      jump(tag_518)\n    tag_520:\n        /* \"#utility.yul\":22591:22597   */\n      dup7\n        /* \"#utility.yul\":22582:22589   */\n      dup4\n        /* \"#utility.yul\":22579:22598   */\n      lt\n        /* \"#utility.yul\":22576:22755   */\n      iszero\n      tag_521\n      jumpi\n        /* \"#utility.yul\":22649:22658   */\n      dup5\n        /* \"#utility.yul\":22644:22647   */\n      dup10\n        /* \"#utility.yul\":22640:22659   */\n      add\n        /* \"#utility.yul\":22634:22660   */\n      mload\n        /* \"#utility.yul\":22692:22740   */\n      tag_522\n        /* \"#utility.yul\":22734:22738   */\n      0x1f\n        /* \"#utility.yul\":22726:22732   */\n      dup10\n        /* \"#utility.yul\":22722:22739   */\n      and\n        /* \"#utility.yul\":22711:22720   */\n      dup3\n        /* \"#utility.yul\":22692:22740   */\n      tag_302\n      jump\t// in\n    tag_522:\n        /* \"#utility.yul\":22684:22690   */\n      dup4\n        /* \"#utility.yul\":22677:22741   */\n      sstore\n        /* \"#utility.yul\":22599:22755   */\n      pop\n        /* \"#utility.yul\":22576:22755   */\n    tag_521:\n        /* \"#utility.yul\":22801:22802   */\n      0x01\n        /* \"#utility.yul\":22797:22798   */\n      0x02\n        /* \"#utility.yul\":22789:22795   */\n      dup9\n        /* \"#utility.yul\":22785:22799   */\n      mul\n        /* \"#utility.yul\":22781:22803   */\n      add\n        /* \"#utility.yul\":22775:22779   */\n      dup9\n        /* \"#utility.yul\":22768:22804   */\n      sstore\n        /* \"#utility.yul\":22203:22814   */\n      pop\n      pop\n      pop\n        /* \"#utility.yul\":22166:23053   */\n    tag_513:\n      pop\n        /* \"#utility.yul\":21756:23059   */\n      pop\n      pop\n      pop\n        /* \"#utility.yul\":21664:23059   */\n      pop\n      pop\n      jump\t// out\n        /* \"#utility.yul\":23065:23213   */\n    tag_304:\n        /* \"#utility.yul\":23167:23178   */\n      0x00\n        /* \"#utility.yul\":23204:23207   */\n      dup2\n        /* \"#utility.yul\":23189:23207   */\n      swap1\n      pop\n        /* \"#utility.yul\":23065:23213   */\n      swap3\n      swap2\n      pop\n      pop\n      jump\t// out\n        /* \"#utility.yul\":23219:23609   */\n    tag_305:\n        /* \"#utility.yul\":23325:23328   */\n      0x00\n        /* \"#utility.yul\":23353:23392   */\n      tag_525\n        /* \"#utility.yul\":23386:23391   */\n      dup3\n        /* \"#utility.yul\":23353:23392   */\n      tag_266\n      jump\t// in\n    tag_525:\n        /* \"#utility.yul\":23408:23497   */\n      tag_526\n        /* \"#utility.yul\":23490:23496   */\n      dup2\n        /* \"#utility.yul\":23485:23488   */\n      dup6\n        /* \"#utility.yul\":23408:23497   */\n      tag_304\n      jump\t// in\n    tag_526:\n        /* \"#utility.yul\":23401:23497   */\n      swap4\n      pop\n        /* \"#utility.yul\":23506:23571   */\n      tag_527\n        /* \"#utility.yul\":23564:23570   */\n      dup2\n        /* \"#utility.yul\":23559:23562   */\n      dup6\n        /* \"#utility.yul\":23552:23556   */\n      0x20\n        /* \"#utility.yul\":23545:23550   */\n      dup7\n        /* \"#utility.yul\":23541:23557   */\n      add\n        /* \"#utility.yul\":23506:23571   */\n      tag_268\n      jump\t// in\n    tag_527:\n        /* \"#utility.yul\":23596:23602   */\n      dup1\n        /* \"#utility.yul\":23591:23594   */\n      dup5\n        /* \"#utility.yul\":23587:23603   */\n      add\n        /* \"#utility.yul\":23580:23603   */\n      swap2\n      pop\n        /* \"#utility.yul\":23329:23609   */\n      pop\n        /* \"#utility.yul\":23219:23609   */\n      swap3\n      swap2\n      pop\n      pop\n      jump\t// out\n        /* \"#utility.yul\":23615:23890   */\n    tag_108:\n        /* \"#utility.yul\":23747:23750   */\n      0x00\n        /* \"#utility.yul\":23769:23864   */\n      tag_529\n        /* \"#utility.yul\":23860:23863   */\n      dup3\n        /* \"#utility.yul\":23851:23857   */\n      dup5\n        /* \"#utility.yul\":23769:23864   */\n      tag_305\n      jump\t// in\n    tag_529:\n        /* \"#utility.yul\":23762:23864   */\n      swap2\n      pop\n        /* \"#utility.yul\":23881:23884   */\n      dup2\n        /* \"#utility.yul\":23874:23884   */\n      swap1\n      pop\n        /* \"#utility.yul\":23615:23890   */\n      swap3\n      swap2\n      pop\n      pop\n      jump\t// out\n        /* \"#utility.yul\":23896:23973   */\n    tag_306:\n        /* \"#utility.yul\":23933:23940   */\n      0x00\n        /* \"#utility.yul\":23962:23967   */\n      dup2\n        /* \"#utility.yul\":23951:23967   */\n      swap1\n      pop\n        /* \"#utility.yul\":23896:23973   */\n      swap2\n      swap1\n      pop\n      jump\t// out\n        /* \"#utility.yul\":23979:24058   */\n    tag_307:\n        /* \"#utility.yul\":24018:24025   */\n      0x00\n        /* \"#utility.yul\":24047:24052   */\n      dup2\n        /* \"#utility.yul\":24036:24052   */\n      swap1\n      pop\n        /* \"#utility.yul\":23979:24058   */\n      swap2\n      swap1\n      pop\n      jump\t// out\n        /* \"#utility.yul\":24064:24221   */\n    tag_308:\n        /* \"#utility.yul\":24169:24214   */\n      tag_533\n        /* \"#utility.yul\":24189:24213   */\n      tag_534\n        /* \"#utility.yul\":24207:24212   */\n      dup3\n        /* \"#utility.yul\":24189:24213   */\n      tag_306\n      jump\t// in\n    tag_534:\n        /* \"#utility.yul\":24169:24214   */\n      tag_307\n      jump\t// in\n    tag_533:\n        /* \"#utility.yul\":24164:24167   */\n      dup3\n        /* \"#utility.yul\":24157:24215   */\n      mstore\n        /* \"#utility.yul\":24064:24221   */\n      pop\n      pop\n      jump\t// out\n        /* \"#utility.yul\":24227:24483   */\n    tag_110:\n        /* \"#utility.yul\":24339:24342   */\n      0x00\n        /* \"#utility.yul\":24354:24429   */\n      tag_536\n        /* \"#utility.yul\":24425:24428   */\n      dup3\n        /* \"#utility.yul\":24416:24422   */\n      dup5\n        /* \"#utility.yul\":24354:24429   */\n      tag_308\n      jump\t// in\n    tag_536:\n        /* \"#utility.yul\":24454:24456   */\n      0x20\n        /* \"#utility.yul\":24449:24452   */\n      dup3\n        /* \"#utility.yul\":24445:24457   */\n      add\n        /* \"#utility.yul\":24438:24457   */\n      swap2\n      pop\n        /* \"#utility.yul\":24474:24477   */\n      dup2\n        /* \"#utility.yul\":24467:24477   */\n      swap1\n      pop\n        /* \"#utility.yul\":24227:24483   */\n      swap3\n      swap2\n      pop\n      pop\n      jump\t// out\n        /* \"#utility.yul\":24489:24658   */\n    tag_309:\n        /* \"#utility.yul\":24629:24650   */\n      0x496e636f72726563742070617373776f72642100000000000000000000000000\n        /* \"#utility.yul\":24625:24626   */\n      0x00\n        /* \"#utility.yul\":24617:24623   */\n      dup3\n        /* \"#utility.yul\":24613:24627   */\n      add\n        /* \"#utility.yul\":24606:24651   */\n      mstore\n        /* \"#utility.yul\":24489:24658   */\n      pop\n      jump\t// out\n        /* \"#utility.yul\":24664:25030   */\n    tag_310:\n        /* \"#utility.yul\":24806:24809   */\n      0x00\n        /* \"#utility.yul\":24827:24894   */\n      tag_539\n        /* \"#utility.yul\":24891:24893   */\n      0x13\n        /* \"#utility.yul\":24886:24889   */\n      dup4\n        /* \"#utility.yul\":24827:24894   */\n      tag_286\n      jump\t// in\n    tag_539:\n        /* \"#utility.yul\":24820:24894   */\n      swap2\n      pop\n        /* \"#utility.yul\":24903:24996   */\n      tag_540\n        /* \"#utility.yul\":24992:24995   */\n      dup3\n        /* \"#utility.yul\":24903:24996   */\n      tag_309\n      jump\t// in\n    tag_540:\n        /* \"#utility.yul\":25021:25023   */\n      0x20\n        /* \"#utility.yul\":25016:25019   */\n      dup3\n        /* \"#utility.yul\":25012:25024   */\n      add\n        /* \"#utility.yul\":25005:25024   */\n      swap1\n      pop\n        /* \"#utility.yul\":24664:25030   */\n      swap2\n      swap1\n      pop\n      jump\t// out\n        /* \"#utility.yul\":25036:25455   */\n    tag_113:\n        /* \"#utility.yul\":25202:25206   */\n      0x00\n        /* \"#utility.yul\":25240:25242   */\n      0x20\n        /* \"#utility.yul\":25229:25238   */\n      dup3\n        /* \"#utility.yul\":25225:25243   */\n      add\n        /* \"#utility.yul\":25217:25243   */\n      swap1\n      pop\n        /* \"#utility.yul\":25289:25298   */\n      dup2\n        /* \"#utility.yul\":25283:25287   */\n      dup2\n        /* \"#utility.yul\":25279:25299   */\n      sub\n        /* \"#utility.yul\":25275:25276   */\n      0x00\n        /* \"#utility.yul\":25264:25273   */\n      dup4\n        /* \"#utility.yul\":25260:25277   */\n      add\n        /* \"#utility.yul\":25253:25300   */\n      mstore\n        /* \"#utility.yul\":25317:25448   */\n      tag_542\n        /* \"#utility.yul\":25443:25447   */\n      dup2\n        /* \"#utility.yul\":25317:25448   */\n      tag_310\n      jump\t// in\n    tag_542:\n        /* \"#utility.yul\":25309:25448   */\n      swap1\n      pop\n        /* \"#utility.yul\":25036:25455   */\n      swap2\n      swap1\n      pop\n      jump\t// out\n\n    auxdata: 0xa26469706673582212205e19d86bf3ddd125608c002729b327064e8ba4f25b70f1bce2f1a55e13185f8964736f6c634300081a0033\n}\n",
				"bytecode": {
					"linkReferences": {},
					"object": "6080604052604051806101400160405280604051806101400160405280600160ff168152602001600160ff1681526020015f60ff1681526020015f60ff1681526020015f60ff1681526020015f60ff168152602001600160ff168152602001600160ff1681526020015f60ff1681526020015f60ff1681525081526020016040518061014001604052805f60ff168152602001600160ff1681526020015f60ff1681526020015f60ff1681526020015f60ff1681526020015f60ff1681526020015f60ff168152602001600160ff1681526020015f60ff1681526020015f60ff1681525081526020016040518061014001604052805f60ff1681526020015f60ff168152602001600160ff168152602001600160ff1681526020015f60ff1681526020015f60ff168152602001600160ff168152602001600160ff1681526020015f60ff1681526020015f60ff1681525081526020016040518061014001604052805f60ff1681526020015f60ff1681526020015f60ff168152602001600160ff1681526020015f60ff1681526020015f60ff1681526020015f60ff168152602001600160ff1681526020015f60ff1681526020015f60ff168152508152602001604051806101400160405280600160ff168152602001600160ff168152602001600160ff168152602001600160ff168152602001600160ff168152602001600160ff168152602001600160ff168152602001600160ff1681526020015f60ff1681526020015f60ff1681525081526020016040518061014001604052805f60ff168152602001600160ff1681526020015f60ff168152602001600160ff1681526020015f60ff168152602001600160ff1681526020015f60ff168152602001600160ff1681526020015f60ff1681526020015f60ff1681525081526020016040518061014001604052805f60ff1681526020015f60ff1681526020015f60ff1681526020015f60ff1681526020015f60ff1681526020015f60ff168152602001600160ff168152602001600160ff1681526020015f60ff1681526020015f60ff1681525081526020016040518061014001604052805f60ff1681526020015f60ff1681526020015f60ff1681526020015f60ff1681526020015f60ff1681526020015f60ff1681526020015f60ff168152602001600160ff1681526020015f60ff1681526020015f60ff1681525081526020016040518061014001604052805f60ff1681526020015f60ff1681526020015f60ff1681526020015f60ff1681526020015f60ff1681526020015f60ff1681526020015f60ff1681526020015f60ff168152602001600160ff1681526020015f60ff1681525081526020016040518061014001604052805f60ff1681526020015f60ff1681526020015f60ff1681526020015f60ff1681526020015f60ff1681526020015f60ff1681526020015f60ff1681526020015f60ff1681526020015f60ff168152602001600160ff16815250815250600690600a61045592919061059c565b50348015610461575f80fd5b506040516126d83803806126d8833981810160405281019061048391906107cf565b8260405160200161049491906108b7565b604051602081830303815290604052805190602001205f819055505f546040516020016104c191906108f6565b604051602081830303815290604052805190602001205f81905550816040516020016104ed91906108b7565b6040516020818303038152906040528051906020012060018190555060015460405160200161051c91906108f6565b604051602081830303815290604052805190602001206001819055508060405160200161054991906108b7565b6040516020818303038152906040528051906020012060028190555060025460405160200161057891906108f6565b60405160208183030381529060405280519060200120600281905550505050610910565b82600a800281019282156105db579160200282015b828111156105da5782518290600a6105ca9291906105ec565b50916020019190600a01906105b1565b5b5090506105e89190610631565b5090565b82600a8101928215610620579160200282015b8281111561061f578251829060ff169055916020019190600101906105ff565b5b50905061062d9190610654565b5090565b5b80821115610650575f8181610647919061066f565b50600a01610632565b5090565b5b8082111561066b575f815f905550600101610655565b5090565b5080600a019061067f9190610654565b50565b5f604051905090565b5f80fd5b5f80fd5b5f80fd5b5f80fd5b5f601f19601f8301169050919050565b7f4e487b71000000000000000000000000000000000000000000000000000000005f52604160045260245ffd5b6106e18261069b565b810181811067ffffffffffffffff82111715610700576106ff6106ab565b5b80604052505050565b5f610712610682565b905061071e82826106d8565b919050565b5f67ffffffffffffffff82111561073d5761073c6106ab565b5b6107468261069b565b9050602081019050919050565b8281835e5f83830152505050565b5f61077361076e84610723565b610709565b90508281526020810184848401111561078f5761078e610697565b5b61079a848285610753565b509392505050565b5f82601f8301126107b6576107b5610693565b5b81516107c6848260208601610761565b91505092915050565b5f805f606084860312156107e6576107e561068b565b5b5f84015167ffffffffffffffff8111156108035761080261068f565b5b61080f868287016107a2565b935050602084015167ffffffffffffffff8111156108305761082f61068f565b5b61083c868287016107a2565b925050604084015167ffffffffffffffff81111561085d5761085c61068f565b5b610869868287016107a2565b9150509250925092565b5f81519050919050565b5f81905092915050565b5f61089182610873565b61089b818561087d565b93506108ab818560208601610753565b80840191505092915050565b5f6108c28284610887565b915081905092915050565b5f819050919050565b5f819050919050565b6108f06108eb826108cd565b6108d6565b82525050565b5f61090182846108df565b60208201915081905092915050565b611dbb8061091d5f395ff3fe608060405234801561000f575f80fd5b5060043610610055575f3560e01c806337bee77214610059578063963e9f1f146100755780639a900a4d146100a5578063ae9ec457146100c1578063c005a930146100f1575b5f80fd5b610073600480360381019061006e919061133f565b610121565b005b61008f600480360381019061008a91906113db565b6105b7565b60405161009c91906115b3565b60405180910390f35b6100bf60048036038101906100ba91906115d3565b6107da565b005b6100db60048036038101906100d691906113db565b610c70565b6040516100e891906115b3565b60405180910390f35b61010b600480360381019061010691906113db565b610e92565b60405161011891906117d1565b60405180910390f35b60088314806101305750600983145b1561015a57604051806020016040528084815250606a906001610154929190611159565b506101ce565b5f5b60088110156101cc576001600682600a811061017b5761017a6117f1565b5b600a020185600a8110610191576101906117f1565b5b0154036101bf57606a81908060018154018082558091505060019003905f5260205f20015f90919091909150555b808060010191505061015c565b505b5f805b60048054905081101561051b578380519060200120600482815481106101fa576101f96117f1565b5b905f5260205f2090600402016002016040516102169190611917565b60405180910390200361050e575f5b606a8054905081101561050c57606a8181548110610246576102456117f1565b5b905f5260205f20015460048381548110610263576102626117f1565b5b905f5260205f20906004020160010154036104ff57600192507fcc97805e28e324dc39be995161797f1fdf935c9b4ebab652ef2cc60de7f0f394600483815481106102b1576102b06117f1565b5b905f5260205f2090600402015f01600484815481106102d3576102d26117f1565b5b905f5260205f20906004020160010154600485815481106102f7576102f66117f1565b5b905f5260205f2090600402016002016004868154811061031a576103196117f1565b5b905f5260205f2090600402016003015460405161033a94939291906119df565b60405180910390a15f6040518060e0016040528089815260200160048581548110610368576103676117f1565b5b905f5260205f2090600402015f0180546103819061184b565b80601f01602080910402602001604051908101604052809291908181526020018280546103ad9061184b565b80156103f85780601f106103cf576101008083540402835291602001916103f8565b820191905f5260205f20905b8154815290600101906020018083116103db57829003601f168201915b505050505081526020018881526020016004858154811061041c5761041b6117f1565b5b905f5260205f20906004020160010154815260200187815260200186815260200160048581548110610451576104506117f1565b5b905f5260205f209060040201600301548152509050600581908060018154018082558091505060019003905f5260205f2090600702015f909190919091505f820151815f0190816104a29190611bbb565b5060208201518160010190816104b89190611bbb565b50604082015181600201556060820151816003015560808201518160040190816104e29190611bbb565b5060a0820151816005015560c0820151816006015550505061050c565b8080600101915050610225565b505b80806001019150506101d1565b50806105b0575f6040518060800160405280878152602001868152602001858152602001848152509050600381908060018154018082558091505060019003905f5260205f2090600402015f909190919091505f820151815f0190816105819190611bbb565b506020820151816001015560408201518160020190816105a19190611bbb565b50606082015181600301555050505b5050505050565b606081600154816040516020016105ce9190611cc4565b604051602081830303815290604052805190602001206040516020016105f49190611d03565b604051602081830303815290604052805190602001201461064a576040517f08c379a000000000000000000000000000000000000000000000000000000000815260040161064190611d67565b60405180910390fd5b6004805480602002602001604051908101604052809291908181526020015f905b828210156107ce578382905f5260205f2090600402016040518060800160405290815f8201805461069b9061184b565b80601f01602080910402602001604051908101604052809291908181526020018280546106c79061184b565b80156107125780601f106106e957610100808354040283529160200191610712565b820191905f5260205f20905b8154815290600101906020018083116106f557829003601f168201915b50505050508152602001600182015481526020016002820180546107359061184b565b80601f01602080910402602001604051908101604052809291908181526020018280546107619061184b565b80156107ac5780601f10610783576101008083540402835291602001916107ac565b820191905f5260205f20905b81548152906001019060200180831161078f57829003601f168201915b505050505081526020016003820154815250508152602001906001019061066b565b50505050915050919050565b60088214806107e95750600982145b1561081357604051806020016040528083815250606b90600161080d929190611159565b50610887565b5f5b6008811015610885576001600684600a8110610834576108336117f1565b5b600a020182600a811061084a576108496117f1565b5b01540361087857606b81908060018154018082558091505060019003905f5260205f20015f90919091909150555b8080600101915050610815565b505b5f805b600380549050811015610bd4578480519060200120600382815481106108b3576108b26117f1565b5b905f5260205f2090600402016002016040516108cf9190611917565b604051809103902003610bc7575f5b606b80549050811015610bc557606b81815481106108ff576108fe6117f1565b5b905f5260205f2001546003838154811061091c5761091b6117f1565b5b905f5260205f2090600402016001015403610bb857600192507f2a721c885fffcf96f50f455dd2ca696caf61d72d984ea9334daea189844a932b6003838154811061096a576109696117f1565b5b905f5260205f2090600402015f016003848154811061098c5761098b6117f1565b5b905f5260205f20906004020160010154600385815481106109b0576109af6117f1565b5b905f5260205f209060040201600201600386815481106109d3576109d26117f1565b5b905f5260205f209060040201600301546040516109f394939291906119df565b60405180910390a15f6040518060e0016040528060038581548110610a1b57610a1a6117f1565b5b905f5260205f2090600402015f018054610a349061184b565b80601f0160208091040260200160405190810160405280929190818152602001828054610a609061184b565b8015610aab5780601f10610a8257610100808354040283529160200191610aab565b820191905f5260205f20905b815481529060010190602001808311610a8e57829003601f168201915b5050505050815260200189815260200160038581548110610acf57610ace6117f1565b5b905f5260205f20906004020160010154815260200187815260200188815260200160038581548110610b0457610b036117f1565b5b905f5260205f209060040201600301548152602001868152509050600581908060018154018082558091505060019003905f5260205f2090600702015f909190919091505f820151815f019081610b5b9190611bbb565b506020820151816001019081610b719190611bbb565b5060408201518160020155606082015181600301556080820151816004019081610b9b9190611bbb565b5060a0820151816005015560c08201518160060155505050610bc5565b80806001019150506108de565b505b808060010191505061088a565b5080610c69575f6040518060800160405280878152602001858152602001868152602001848152509050600481908060018154018082558091505060019003905f5260205f2090600402015f909190919091505f820151815f019081610c3a9190611bbb565b50602082015181600101556040820151816002019081610c5a9190611bbb565b50606082015181600301555050505b5050505050565b6060815f5481604051602001610c869190611cc4565b60405160208183030381529060405280519060200120604051602001610cac9190611d03565b6040516020818303038152906040528051906020012014610d02576040517f08c379a0000000000000000000000000000000000000000000000000000000008152600401610cf990611d67565b60405180910390fd5b6003805480602002602001604051908101604052809291908181526020015f905b82821015610e86578382905f5260205f2090600402016040518060800160405290815f82018054610d539061184b565b80601f0160208091040260200160405190810160405280929190818152602001828054610d7f9061184b565b8015610dca5780601f10610da157610100808354040283529160200191610dca565b820191905f5260205f20905b815481529060010190602001808311610dad57829003601f168201915b5050505050815260200160018201548152602001600282018054610ded9061184b565b80601f0160208091040260200160405190810160405280929190818152602001828054610e199061184b565b8015610e645780601f10610e3b57610100808354040283529160200191610e64565b820191905f5260205f20905b815481529060010190602001808311610e4757829003601f168201915b5050505050815260200160038201548152505081526020019060010190610d23565b50505050915050919050565b60608160025481604051602001610ea99190611cc4565b60405160208183030381529060405280519060200120604051602001610ecf9190611d03565b6040516020818303038152906040528051906020012014610f25576040517f08c379a0000000000000000000000000000000000000000000000000000000008152600401610f1c90611d67565b60405180910390fd5b6005805480602002602001604051908101604052809291908181526020015f905b8282101561114d578382905f5260205f2090600702016040518060e00160405290815f82018054610f769061184b565b80601f0160208091040260200160405190810160405280929190818152602001828054610fa29061184b565b8015610fed5780601f10610fc457610100808354040283529160200191610fed565b820191905f5260205f20905b815481529060010190602001808311610fd057829003601f168201915b505050505081526020016001820180546110069061184b565b80601f01602080910402602001604051908101604052809291908181526020018280546110329061184b565b801561107d5780601f106110545761010080835404028352916020019161107d565b820191905f5260205f20905b81548152906001019060200180831161106057829003601f168201915b5050505050815260200160028201548152602001600382015481526020016004820180546110aa9061184b565b80601f01602080910402602001604051908101604052809291908181526020018280546110d69061184b565b80156111215780601f106110f857610100808354040283529160200191611121565b820191905f5260205f20905b81548152906001019060200180831161110457829003601f168201915b505050505081526020016005820154815260200160068201548152505081526020019060010190610f46565b50505050915050919050565b828054828255905f5260205f20908101928215611193579160200282015b82811115611192578251825591602001919060010190611177565b5b5090506111a091906111a4565b5090565b5b808211156111bb575f815f9055506001016111a5565b5090565b5f604051905090565b5f80fd5b5f80fd5b5f80fd5b5f80fd5b5f601f19601f8301169050919050565b7f4e487b71000000000000000000000000000000000000000000000000000000005f52604160045260245ffd5b61121e826111d8565b810181811067ffffffffffffffff8211171561123d5761123c6111e8565b5b80604052505050565b5f61124f6111bf565b905061125b8282611215565b919050565b5f67ffffffffffffffff82111561127a576112796111e8565b5b611283826111d8565b9050602081019050919050565b828183375f83830152505050565b5f6112b06112ab84611260565b611246565b9050828152602081018484840111156112cc576112cb6111d4565b5b6112d7848285611290565b509392505050565b5f82601f8301126112f3576112f26111d0565b5b813561130384826020860161129e565b91505092915050565b5f819050919050565b61131e8161130c565b8114611328575f80fd5b50565b5f8135905061133981611315565b92915050565b5f805f8060808587031215611357576113566111c8565b5b5f85013567ffffffffffffffff811115611374576113736111cc565b5b611380878288016112df565b94505060206113918782880161132b565b935050604085013567ffffffffffffffff8111156113b2576113b16111cc565b5b6113be878288016112df565b92505060606113cf8782880161132b565b91505092959194509250565b5f602082840312156113f0576113ef6111c8565b5b5f82013567ffffffffffffffff81111561140d5761140c6111cc565b5b611419848285016112df565b91505092915050565b5f81519050919050565b5f82825260208201905092915050565b5f819050602082019050919050565b5f81519050919050565b5f82825260208201905092915050565b8281835e5f83830152505050565b5f61147d8261144b565b6114878185611455565b9350611497818560208601611465565b6114a0816111d8565b840191505092915050565b6114b48161130c565b82525050565b5f608083015f8301518482035f8601526114d48282611473565b91505060208301516114e960208601826114ab565b50604083015184820360408601526115018282611473565b915050606083015161151660608601826114ab565b508091505092915050565b5f61152c83836114ba565b905092915050565b5f602082019050919050565b5f61154a82611422565b611554818561142c565b9350836020820285016115668561143c565b805f5b858110156115a157848403895281516115828582611521565b945061158d83611534565b925060208a01995050600181019050611569565b50829750879550505050505092915050565b5f6020820190508181035f8301526115cb8184611540565b905092915050565b5f805f80608085870312156115eb576115ea6111c8565b5b5f85013567ffffffffffffffff811115611608576116076111cc565b5b611614878288016112df565b945050602085013567ffffffffffffffff811115611635576116346111cc565b5b611641878288016112df565b93505060406116528782880161132b565b92505060606116638782880161132b565b91505092959194509250565b5f81519050919050565b5f82825260208201905092915050565b5f819050602082019050919050565b5f60e083015f8301518482035f8601526116b28282611473565b915050602083015184820360208601526116cc8282611473565b91505060408301516116e160408601826114ab565b5060608301516116f460608601826114ab565b506080830151848203608086015261170c8282611473565b91505060a083015161172160a08601826114ab565b5060c083015161173460c08601826114ab565b508091505092915050565b5f61174a8383611698565b905092915050565b5f602082019050919050565b5f6117688261166f565b6117728185611679565b93508360208202850161178485611689565b805f5b858110156117bf57848403895281516117a0858261173f565b94506117ab83611752565b925060208a01995050600181019050611787565b50829750879550505050505092915050565b5f6020820190508181035f8301526117e9818461175e565b905092915050565b7f4e487b71000000000000000000000000000000000000000000000000000000005f52603260045260245ffd5b7f4e487b71000000000000000000000000000000000000000000000000000000005f52602260045260245ffd5b5f600282049050600182168061186257607f821691505b6020821081036118755761187461181e565b5b50919050565b5f81905092915050565b5f819050815f5260205f209050919050565b5f81546118a38161184b565b6118ad818661187b565b9450600182165f81146118c757600181146118dc5761190e565b60ff198316865281151582028601935061190e565b6118e585611885565b5f5b83811015611906578154818901526001820191506020810190506118e7565b838801955050505b50505092915050565b5f6119228284611897565b915081905092915050565b5f82825260208201905092915050565b5f819050815f5260205f209050919050565b5f815461195b8161184b565b611965818661192d565b9450600182165f811461197f5760018114611995576119c7565b60ff1983168652811515602002860193506119c7565b61199e8561193d565b5f5b838110156119bf578154818901526001820191506020810190506119a0565b808801955050505b50505092915050565b6119d98161130c565b82525050565b5f6080820190508181035f8301526119f7818761194f565b9050611a0660208301866119d0565b8181036040830152611a18818561194f565b9050611a2760608301846119d0565b95945050505050565b5f6020601f8301049050919050565b5f82821b905092915050565b5f60088302611a7a7fffffffffffffffffffffffffffffffffffffffffffffffffffffffffffffffff82611a3f565b611a848683611a3f565b95508019841693508086168417925050509392505050565b5f819050919050565b5f611abf611aba611ab58461130c565b611a9c565b61130c565b9050919050565b5f819050919050565b611ad883611aa5565b611aec611ae482611ac6565b848454611a4b565b825550505050565b5f90565b611b00611af4565b611b0b818484611acf565b505050565b5b81811015611b2e57611b235f82611af8565b600181019050611b11565b5050565b601f821115611b7357611b448161193d565b611b4d84611a30565b81016020851015611b5c578190505b611b70611b6885611a30565b830182611b10565b50505b505050565b5f82821c905092915050565b5f611b935f1984600802611b78565b1980831691505092915050565b5f611bab8383611b84565b9150826002028217905092915050565b611bc48261144b565b67ffffffffffffffff811115611bdd57611bdc6111e8565b5b611be7825461184b565b611bf2828285611b32565b5f60209050601f831160018114611c23575f8415611c11578287015190505b611c1b8582611ba0565b865550611c82565b601f198416611c318661193d565b5f5b82811015611c5857848901518255600182019150602085019450602081019050611c33565b86831015611c755784890151611c71601f891682611b84565b8355505b6001600288020188555050505b505050505050565b5f81905092915050565b5f611c9e8261144b565b611ca88185611c8a565b9350611cb8818560208601611465565b80840191505092915050565b5f611ccf8284611c94565b915081905092915050565b5f819050919050565b5f819050919050565b611cfd611cf882611cda565b611ce3565b82525050565b5f611d0e8284611cec565b60208201915081905092915050565b7f496e636f72726563742070617373776f726421000000000000000000000000005f82015250565b5f611d5160138361192d565b9150611d5c82611d1d565b602082019050919050565b5f6020820190508181035f830152611d7e81611d45565b905091905056fea26469706673582212205e19d86bf3ddd125608c002729b327064e8ba4f25b70f1bce2f1a55e13185f8964736f6c634300081a0033",
					"opcodes": "PUSH1 0x80 PUSH1 0x40 MSTORE PUSH1 0x40 MLOAD DUP1 PUSH2 0x140 ADD PUSH1 0x40 MSTORE DUP1 PUSH1 0x40 MLOAD DUP1 PUSH2 0x140 ADD PUSH1 0x40 MSTORE DUP1 PUSH1 0x1 PUSH1 0xFF AND DUP2 MSTORE PUSH1 0x20 ADD PUSH1 0x1 PUSH1 0xFF AND DUP2 MSTORE PUSH1 0x20 ADD PUSH0 PUSH1 0xFF AND DUP2 MSTORE PUSH1 0x20 ADD PUSH0 PUSH1 0xFF AND DUP2 MSTORE PUSH1 0x20 ADD PUSH0 PUSH1 0xFF AND DUP2 MSTORE PUSH1 0x20 ADD PUSH0 PUSH1 0xFF AND DUP2 MSTORE PUSH1 0x20 ADD PUSH1 0x1 PUSH1 0xFF AND DUP2 MSTORE PUSH1 0x20 ADD PUSH1 0x1 PUSH1 0xFF AND DUP2 MSTORE PUSH1 0x20 ADD PUSH0 PUSH1 0xFF AND DUP2 MSTORE PUSH1 0x20 ADD PUSH0 PUSH1 0xFF AND DUP2 MSTORE POP DUP2 MSTORE PUSH1 0x20 ADD PUSH1 0x40 MLOAD DUP1 PUSH2 0x140 ADD PUSH1 0x40 MSTORE DUP1 PUSH0 PUSH1 0xFF AND DUP2 MSTORE PUSH1 0x20 ADD PUSH1 0x1 PUSH1 0xFF AND DUP2 MSTORE PUSH1 0x20 ADD PUSH0 PUSH1 0xFF AND DUP2 MSTORE PUSH1 0x20 ADD PUSH0 PUSH1 0xFF AND DUP2 MSTORE PUSH1 0x20 ADD PUSH0 PUSH1 0xFF AND DUP2 MSTORE PUSH1 0x20 ADD PUSH0 PUSH1 0xFF AND DUP2 MSTORE PUSH1 0x20 ADD PUSH0 PUSH1 0xFF AND DUP2 MSTORE PUSH1 0x20 ADD PUSH1 0x1 PUSH1 0xFF AND DUP2 MSTORE PUSH1 0x20 ADD PUSH0 PUSH1 0xFF AND DUP2 MSTORE PUSH1 0x20 ADD PUSH0 PUSH1 0xFF AND DUP2 MSTORE POP DUP2 MSTORE PUSH1 0x20 ADD PUSH1 0x40 MLOAD DUP1 PUSH2 0x140 ADD PUSH1 0x40 MSTORE DUP1 PUSH0 PUSH1 0xFF AND DUP2 MSTORE PUSH1 0x20 ADD PUSH0 PUSH1 0xFF AND DUP2 MSTORE PUSH1 0x20 ADD PUSH1 0x1 PUSH1 0xFF AND DUP2 MSTORE PUSH1 0x20 ADD PUSH1 0x1 PUSH1 0xFF AND DUP2 MSTORE PUSH1 0x20 ADD PUSH0 PUSH1 0xFF AND DUP2 MSTORE PUSH1 0x20 ADD PUSH0 PUSH1 0xFF AND DUP2 MSTORE PUSH1 0x20 ADD PUSH1 0x1 PUSH1 0xFF AND DUP2 MSTORE PUSH1 0x20 ADD PUSH1 0x1 PUSH1 0xFF AND DUP2 MSTORE PUSH1 0x20 ADD PUSH0 PUSH1 0xFF AND DUP2 MSTORE PUSH1 0x20 ADD PUSH0 PUSH1 0xFF AND DUP2 MSTORE POP DUP2 MSTORE PUSH1 0x20 ADD PUSH1 0x40 MLOAD DUP1 PUSH2 0x140 ADD PUSH1 0x40 MSTORE DUP1 PUSH0 PUSH1 0xFF AND DUP2 MSTORE PUSH1 0x20 ADD PUSH0 PUSH1 0xFF AND DUP2 MSTORE PUSH1 0x20 ADD PUSH0 PUSH1 0xFF AND DUP2 MSTORE PUSH1 0x20 ADD PUSH1 0x1 PUSH1 0xFF AND DUP2 MSTORE PUSH1 0x20 ADD PUSH0 PUSH1 0xFF AND DUP2 MSTORE PUSH1 0x20 ADD PUSH0 PUSH1 0xFF AND DUP2 MSTORE PUSH1 0x20 ADD PUSH0 PUSH1 0xFF AND DUP2 MSTORE PUSH1 0x20 ADD PUSH1 0x1 PUSH1 0xFF AND DUP2 MSTORE PUSH1 0x20 ADD PUSH0 PUSH1 0xFF AND DUP2 MSTORE PUSH1 0x20 ADD PUSH0 PUSH1 0xFF AND DUP2 MSTORE POP DUP2 MSTORE PUSH1 0x20 ADD PUSH1 0x40 MLOAD DUP1 PUSH2 0x140 ADD PUSH1 0x40 MSTORE DUP1 PUSH1 0x1 PUSH1 0xFF AND DUP2 MSTORE PUSH1 0x20 ADD PUSH1 0x1 PUSH1 0xFF AND DUP2 MSTORE PUSH1 0x20 ADD PUSH1 0x1 PUSH1 0xFF AND DUP2 MSTORE PUSH1 0x20 ADD PUSH1 0x1 PUSH1 0xFF AND DUP2 MSTORE PUSH1 0x20 ADD PUSH1 0x1 PUSH1 0xFF AND DUP2 MSTORE PUSH1 0x20 ADD PUSH1 0x1 PUSH1 0xFF AND DUP2 MSTORE PUSH1 0x20 ADD PUSH1 0x1 PUSH1 0xFF AND DUP2 MSTORE PUSH1 0x20 ADD PUSH1 0x1 PUSH1 0xFF AND DUP2 MSTORE PUSH1 0x20 ADD PUSH0 PUSH1 0xFF AND DUP2 MSTORE PUSH1 0x20 ADD PUSH0 PUSH1 0xFF AND DUP2 MSTORE POP DUP2 MSTORE PUSH1 0x20 ADD PUSH1 0x40 MLOAD DUP1 PUSH2 0x140 ADD PUSH1 0x40 MSTORE DUP1 PUSH0 PUSH1 0xFF AND DUP2 MSTORE PUSH1 0x20 ADD PUSH1 0x1 PUSH1 0xFF AND DUP2 MSTORE PUSH1 0x20 ADD PUSH0 PUSH1 0xFF AND DUP2 MSTORE PUSH1 0x20 ADD PUSH1 0x1 PUSH1 0xFF AND DUP2 MSTORE PUSH1 0x20 ADD PUSH0 PUSH1 0xFF AND DUP2 MSTORE PUSH1 0x20 ADD PUSH1 0x1 PUSH1 0xFF AND DUP2 MSTORE PUSH1 0x20 ADD PUSH0 PUSH1 0xFF AND DUP2 MSTORE PUSH1 0x20 ADD PUSH1 0x1 PUSH1 0xFF AND DUP2 MSTORE PUSH1 0x20 ADD PUSH0 PUSH1 0xFF AND DUP2 MSTORE PUSH1 0x20 ADD PUSH0 PUSH1 0xFF AND DUP2 MSTORE POP DUP2 MSTORE PUSH1 0x20 ADD PUSH1 0x40 MLOAD DUP1 PUSH2 0x140 ADD PUSH1 0x40 MSTORE DUP1 PUSH0 PUSH1 0xFF AND DUP2 MSTORE PUSH1 0x20 ADD PUSH0 PUSH1 0xFF AND DUP2 MSTORE PUSH1 0x20 ADD PUSH0 PUSH1 0xFF AND DUP2 MSTORE PUSH1 0x20 ADD PUSH0 PUSH1 0xFF AND DUP2 MSTORE PUSH1 0x20 ADD PUSH0 PUSH1 0xFF AND DUP2 MSTORE PUSH1 0x20 ADD PUSH0 PUSH1 0xFF AND DUP2 MSTORE PUSH1 0x20 ADD PUSH1 0x1 PUSH1 0xFF AND DUP2 MSTORE PUSH1 0x20 ADD PUSH1 0x1 PUSH1 0xFF AND DUP2 MSTORE PUSH1 0x20 ADD PUSH0 PUSH1 0xFF AND DUP2 MSTORE PUSH1 0x20 ADD PUSH0 PUSH1 0xFF AND DUP2 MSTORE POP DUP2 MSTORE PUSH1 0x20 ADD PUSH1 0x40 MLOAD DUP1 PUSH2 0x140 ADD PUSH1 0x40 MSTORE DUP1 PUSH0 PUSH1 0xFF AND DUP2 MSTORE PUSH1 0x20 ADD PUSH0 PUSH1 0xFF AND DUP2 MSTORE PUSH1 0x20 ADD PUSH0 PUSH1 0xFF AND DUP2 MSTORE PUSH1 0x20 ADD PUSH0 PUSH1 0xFF AND DUP2 MSTORE PUSH1 0x20 ADD PUSH0 PUSH1 0xFF AND DUP2 MSTORE PUSH1 0x20 ADD PUSH0 PUSH1 0xFF AND DUP2 MSTORE PUSH1 0x20 ADD PUSH0 PUSH1 0xFF AND DUP2 MSTORE PUSH1 0x20 ADD PUSH1 0x1 PUSH1 0xFF AND DUP2 MSTORE PUSH1 0x20 ADD PUSH0 PUSH1 0xFF AND DUP2 MSTORE PUSH1 0x20 ADD PUSH0 PUSH1 0xFF AND DUP2 MSTORE POP DUP2 MSTORE PUSH1 0x20 ADD PUSH1 0x40 MLOAD DUP1 PUSH2 0x140 ADD PUSH1 0x40 MSTORE DUP1 PUSH0 PUSH1 0xFF AND DUP2 MSTORE PUSH1 0x20 ADD PUSH0 PUSH1 0xFF AND DUP2 MSTORE PUSH1 0x20 ADD PUSH0 PUSH1 0xFF AND DUP2 MSTORE PUSH1 0x20 ADD PUSH0 PUSH1 0xFF AND DUP2 MSTORE PUSH1 0x20 ADD PUSH0 PUSH1 0xFF AND DUP2 MSTORE PUSH1 0x20 ADD PUSH0 PUSH1 0xFF AND DUP2 MSTORE PUSH1 0x20 ADD PUSH0 PUSH1 0xFF AND DUP2 MSTORE PUSH1 0x20 ADD PUSH0 PUSH1 0xFF AND DUP2 MSTORE PUSH1 0x20 ADD PUSH1 0x1 PUSH1 0xFF AND DUP2 MSTORE PUSH1 0x20 ADD PUSH0 PUSH1 0xFF AND DUP2 MSTORE POP DUP2 MSTORE PUSH1 0x20 ADD PUSH1 0x40 MLOAD DUP1 PUSH2 0x140 ADD PUSH1 0x40 MSTORE DUP1 PUSH0 PUSH1 0xFF AND DUP2 MSTORE PUSH1 0x20 ADD PUSH0 PUSH1 0xFF AND DUP2 MSTORE PUSH1 0x20 ADD PUSH0 PUSH1 0xFF AND DUP2 MSTORE PUSH1 0x20 ADD PUSH0 PUSH1 0xFF AND DUP2 MSTORE PUSH1 0x20 ADD PUSH0 PUSH1 0xFF AND DUP2 MSTORE PUSH1 0x20 ADD PUSH0 PUSH1 0xFF AND DUP2 MSTORE PUSH1 0x20 ADD PUSH0 PUSH1 0xFF AND DUP2 MSTORE PUSH1 0x20 ADD PUSH0 PUSH1 0xFF AND DUP2 MSTORE PUSH1 0x20 ADD PUSH0 PUSH1 0xFF AND DUP2 MSTORE PUSH1 0x20 ADD PUSH1 0x1 PUSH1 0xFF AND DUP2 MSTORE POP DUP2 MSTORE POP PUSH1 0x6 SWAP1 PUSH1 0xA PUSH2 0x455 SWAP3 SWAP2 SWAP1 PUSH2 0x59C JUMP JUMPDEST POP CALLVALUE DUP1 ISZERO PUSH2 0x461 JUMPI PUSH0 DUP1 REVERT JUMPDEST POP PUSH1 0x40 MLOAD PUSH2 0x26D8 CODESIZE SUB DUP1 PUSH2 0x26D8 DUP4 CODECOPY DUP2 DUP2 ADD PUSH1 0x40 MSTORE DUP2 ADD SWAP1 PUSH2 0x483 SWAP2 SWAP1 PUSH2 0x7CF JUMP JUMPDEST DUP3 PUSH1 0x40 MLOAD PUSH1 0x20 ADD PUSH2 0x494 SWAP2 SWAP1 PUSH2 0x8B7 JUMP JUMPDEST PUSH1 0x40 MLOAD PUSH1 0x20 DUP2 DUP4 SUB SUB DUP2 MSTORE SWAP1 PUSH1 0x40 MSTORE DUP1 MLOAD SWAP1 PUSH1 0x20 ADD KECCAK256 PUSH0 DUP2 SWAP1 SSTORE POP PUSH0 SLOAD PUSH1 0x40 MLOAD PUSH1 0x20 ADD PUSH2 0x4C1 SWAP2 SWAP1 PUSH2 0x8F6 JUMP JUMPDEST PUSH1 0x40 MLOAD PUSH1 0x20 DUP2 DUP4 SUB SUB DUP2 MSTORE SWAP1 PUSH1 0x40 MSTORE DUP1 MLOAD SWAP1 PUSH1 0x20 ADD KECCAK256 PUSH0 DUP2 SWAP1 SSTORE POP DUP2 PUSH1 0x40 MLOAD PUSH1 0x20 ADD PUSH2 0x4ED SWAP2 SWAP1 PUSH2 0x8B7 JUMP JUMPDEST PUSH1 0x40 MLOAD PUSH1 0x20 DUP2 DUP4 SUB SUB DUP2 MSTORE SWAP1 PUSH1 0x40 MSTORE DUP1 MLOAD SWAP1 PUSH1 0x20 ADD KECCAK256 PUSH1 0x1 DUP2 SWAP1 SSTORE POP PUSH1 0x1 SLOAD PUSH1 0x40 MLOAD PUSH1 0x20 ADD PUSH2 0x51C SWAP2 SWAP1 PUSH2 0x8F6 JUMP JUMPDEST PUSH1 0x40 MLOAD PUSH1 0x20 DUP2 DUP4 SUB SUB DUP2 MSTORE SWAP1 PUSH1 0x40 MSTORE DUP1 MLOAD SWAP1 PUSH1 0x20 ADD KECCAK256 PUSH1 0x1 DUP2 SWAP1 SSTORE POP DUP1 PUSH1 0x40 MLOAD PUSH1 0x20 ADD PUSH2 0x549 SWAP2 SWAP1 PUSH2 0x8B7 JUMP JUMPDEST PUSH1 0x40 MLOAD PUSH1 0x20 DUP2 DUP4 SUB SUB DUP2 MSTORE SWAP1 PUSH1 0x40 MSTORE DUP1 MLOAD SWAP1 PUSH1 0x20 ADD KECCAK256 PUSH1 0x2 DUP2 SWAP1 SSTORE POP PUSH1 0x2 SLOAD PUSH1 0x40 MLOAD PUSH1 0x20 ADD PUSH2 0x578 SWAP2 SWAP1 PUSH2 0x8F6 JUMP JUMPDEST PUSH1 0x40 MLOAD PUSH1 0x20 DUP2 DUP4 SUB SUB DUP2 MSTORE SWAP1 PUSH1 0x40 MSTORE DUP1 MLOAD SWAP1 PUSH1 0x20 ADD KECCAK256 PUSH1 0x2 DUP2 SWAP1 SSTORE POP POP POP POP PUSH2 0x910 JUMP JUMPDEST DUP3 PUSH1 0xA DUP1 MUL DUP2 ADD SWAP3 DUP3 ISZERO PUSH2 0x5DB JUMPI SWAP2 PUSH1 0x20 MUL DUP3 ADD JUMPDEST DUP3 DUP2 GT ISZERO PUSH2 0x5DA JUMPI DUP3 MLOAD DUP3 SWAP1 PUSH1 0xA PUSH2 0x5CA SWAP3 SWAP2 SWAP1 PUSH2 0x5EC JUMP JUMPDEST POP SWAP2 PUSH1 0x20 ADD SWAP2 SWAP1 PUSH1 0xA ADD SWAP1 PUSH2 0x5B1 JUMP JUMPDEST JUMPDEST POP SWAP1 POP PUSH2 0x5E8 SWAP2 SWAP1 PUSH2 0x631 JUMP JUMPDEST POP SWAP1 JUMP JUMPDEST DUP3 PUSH1 0xA DUP2 ADD SWAP3 DUP3 ISZERO PUSH2 0x620 JUMPI SWAP2 PUSH1 0x20 MUL DUP3 ADD JUMPDEST DUP3 DUP2 GT ISZERO PUSH2 0x61F JUMPI DUP3 MLOAD DUP3 SWAP1 PUSH1 0xFF AND SWAP1 SSTORE SWAP2 PUSH1 0x20 ADD SWAP2 SWAP1 PUSH1 0x1 ADD SWAP1 PUSH2 0x5FF JUMP JUMPDEST JUMPDEST POP SWAP1 POP PUSH2 0x62D SWAP2 SWAP1 PUSH2 0x654 JUMP JUMPDEST POP SWAP1 JUMP JUMPDEST JUMPDEST DUP1 DUP3 GT ISZERO PUSH2 0x650 JUMPI PUSH0 DUP2 DUP2 PUSH2 0x647 SWAP2 SWAP1 PUSH2 0x66F JUMP JUMPDEST POP PUSH1 0xA ADD PUSH2 0x632 JUMP JUMPDEST POP SWAP1 JUMP JUMPDEST JUMPDEST DUP1 DUP3 GT ISZERO PUSH2 0x66B JUMPI PUSH0 DUP2 PUSH0 SWAP1 SSTORE POP PUSH1 0x1 ADD PUSH2 0x655 JUMP JUMPDEST POP SWAP1 JUMP JUMPDEST POP DUP1 PUSH1 0xA ADD SWAP1 PUSH2 0x67F SWAP2 SWAP1 PUSH2 0x654 JUMP JUMPDEST POP JUMP JUMPDEST PUSH0 PUSH1 0x40 MLOAD SWAP1 POP SWAP1 JUMP JUMPDEST PUSH0 DUP1 REVERT JUMPDEST PUSH0 DUP1 REVERT JUMPDEST PUSH0 DUP1 REVERT JUMPDEST PUSH0 DUP1 REVERT JUMPDEST PUSH0 PUSH1 0x1F NOT PUSH1 0x1F DUP4 ADD AND SWAP1 POP SWAP2 SWAP1 POP JUMP JUMPDEST PUSH32 0x4E487B7100000000000000000000000000000000000000000000000000000000 PUSH0 MSTORE PUSH1 0x41 PUSH1 0x4 MSTORE PUSH1 0x24 PUSH0 REVERT JUMPDEST PUSH2 0x6E1 DUP3 PUSH2 0x69B JUMP JUMPDEST DUP2 ADD DUP2 DUP2 LT PUSH8 0xFFFFFFFFFFFFFFFF DUP3 GT OR ISZERO PUSH2 0x700 JUMPI PUSH2 0x6FF PUSH2 0x6AB JUMP JUMPDEST JUMPDEST DUP1 PUSH1 0x40 MSTORE POP POP POP JUMP JUMPDEST PUSH0 PUSH2 0x712 PUSH2 0x682 JUMP JUMPDEST SWAP1 POP PUSH2 0x71E DUP3 DUP3 PUSH2 0x6D8 JUMP JUMPDEST SWAP2 SWAP1 POP JUMP JUMPDEST PUSH0 PUSH8 0xFFFFFFFFFFFFFFFF DUP3 GT ISZERO PUSH2 0x73D JUMPI PUSH2 0x73C PUSH2 0x6AB JUMP JUMPDEST JUMPDEST PUSH2 0x746 DUP3 PUSH2 0x69B JUMP JUMPDEST SWAP1 POP PUSH1 0x20 DUP2 ADD SWAP1 POP SWAP2 SWAP1 POP JUMP JUMPDEST DUP3 DUP2 DUP4 MCOPY PUSH0 DUP4 DUP4 ADD MSTORE POP POP POP JUMP JUMPDEST PUSH0 PUSH2 0x773 PUSH2 0x76E DUP5 PUSH2 0x723 JUMP JUMPDEST PUSH2 0x709 JUMP JUMPDEST SWAP1 POP DUP3 DUP2 MSTORE PUSH1 0x20 DUP2 ADD DUP5 DUP5 DUP5 ADD GT ISZERO PUSH2 0x78F JUMPI PUSH2 0x78E PUSH2 0x697 JUMP JUMPDEST JUMPDEST PUSH2 0x79A DUP5 DUP3 DUP6 PUSH2 0x753 JUMP JUMPDEST POP SWAP4 SWAP3 POP POP POP JUMP JUMPDEST PUSH0 DUP3 PUSH1 0x1F DUP4 ADD SLT PUSH2 0x7B6 JUMPI PUSH2 0x7B5 PUSH2 0x693 JUMP JUMPDEST JUMPDEST DUP2 MLOAD PUSH2 0x7C6 DUP5 DUP3 PUSH1 0x20 DUP7 ADD PUSH2 0x761 JUMP JUMPDEST SWAP2 POP POP SWAP3 SWAP2 POP POP JUMP JUMPDEST PUSH0 DUP1 PUSH0 PUSH1 0x60 DUP5 DUP7 SUB SLT ISZERO PUSH2 0x7E6 JUMPI PUSH2 0x7E5 PUSH2 0x68B JUMP JUMPDEST JUMPDEST PUSH0 DUP5 ADD MLOAD PUSH8 0xFFFFFFFFFFFFFFFF DUP2 GT ISZERO PUSH2 0x803 JUMPI PUSH2 0x802 PUSH2 0x68F JUMP JUMPDEST JUMPDEST PUSH2 0x80F DUP7 DUP3 DUP8 ADD PUSH2 0x7A2 JUMP JUMPDEST SWAP4 POP POP PUSH1 0x20 DUP5 ADD MLOAD PUSH8 0xFFFFFFFFFFFFFFFF DUP2 GT ISZERO PUSH2 0x830 JUMPI PUSH2 0x82F PUSH2 0x68F JUMP JUMPDEST JUMPDEST PUSH2 0x83C DUP7 DUP3 DUP8 ADD PUSH2 0x7A2 JUMP JUMPDEST SWAP3 POP POP PUSH1 0x40 DUP5 ADD MLOAD PUSH8 0xFFFFFFFFFFFFFFFF DUP2 GT ISZERO PUSH2 0x85D JUMPI PUSH2 0x85C PUSH2 0x68F JUMP JUMPDEST JUMPDEST PUSH2 0x869 DUP7 DUP3 DUP8 ADD PUSH2 0x7A2 JUMP JUMPDEST SWAP2 POP POP SWAP3 POP SWAP3 POP SWAP3 JUMP JUMPDEST PUSH0 DUP2 MLOAD SWAP1 POP SWAP2 SWAP1 POP JUMP JUMPDEST PUSH0 DUP2 SWAP1 POP SWAP3 SWAP2 POP POP JUMP JUMPDEST PUSH0 PUSH2 0x891 DUP3 PUSH2 0x873 JUMP JUMPDEST PUSH2 0x89B DUP2 DUP6 PUSH2 0x87D JUMP JUMPDEST SWAP4 POP PUSH2 0x8AB DUP2 DUP6 PUSH1 0x20 DUP7 ADD PUSH2 0x753 JUMP JUMPDEST DUP1 DUP5 ADD SWAP2 POP POP SWAP3 SWAP2 POP POP JUMP JUMPDEST PUSH0 PUSH2 0x8C2 DUP3 DUP5 PUSH2 0x887 JUMP JUMPDEST SWAP2 POP DUP2 SWAP1 POP SWAP3 SWAP2 POP POP JUMP JUMPDEST PUSH0 DUP2 SWAP1 POP SWAP2 SWAP1 POP JUMP JUMPDEST PUSH0 DUP2 SWAP1 POP SWAP2 SWAP1 POP JUMP JUMPDEST PUSH2 0x8F0 PUSH2 0x8EB DUP3 PUSH2 0x8CD JUMP JUMPDEST PUSH2 0x8D6 JUMP JUMPDEST DUP3 MSTORE POP POP JUMP JUMPDEST PUSH0 PUSH2 0x901 DUP3 DUP5 PUSH2 0x8DF JUMP JUMPDEST PUSH1 0x20 DUP3 ADD SWAP2 POP DUP2 SWAP1 POP SWAP3 SWAP2 POP POP JUMP JUMPDEST PUSH2 0x1DBB DUP1 PUSH2 0x91D PUSH0 CODECOPY PUSH0 RETURN INVALID PUSH1 0x80 PUSH1 0x40 MSTORE CALLVALUE DUP1 ISZERO PUSH2 0xF JUMPI PUSH0 DUP1 REVERT JUMPDEST POP PUSH1 0x4 CALLDATASIZE LT PUSH2 0x55 JUMPI PUSH0 CALLDATALOAD PUSH1 0xE0 SHR DUP1 PUSH4 0x37BEE772 EQ PUSH2 0x59 JUMPI DUP1 PUSH4 0x963E9F1F EQ PUSH2 0x75 JUMPI DUP1 PUSH4 0x9A900A4D EQ PUSH2 0xA5 JUMPI DUP1 PUSH4 0xAE9EC457 EQ PUSH2 0xC1 JUMPI DUP1 PUSH4 0xC005A930 EQ PUSH2 0xF1 JUMPI JUMPDEST PUSH0 DUP1 REVERT JUMPDEST PUSH2 0x73 PUSH1 0x4 DUP1 CALLDATASIZE SUB DUP2 ADD SWAP1 PUSH2 0x6E SWAP2 SWAP1 PUSH2 0x133F JUMP JUMPDEST PUSH2 0x121 JUMP JUMPDEST STOP JUMPDEST PUSH2 0x8F PUSH1 0x4 DUP1 CALLDATASIZE SUB DUP2 ADD SWAP1 PUSH2 0x8A SWAP2 SWAP1 PUSH2 0x13DB JUMP JUMPDEST PUSH2 0x5B7 JUMP JUMPDEST PUSH1 0x40 MLOAD PUSH2 0x9C SWAP2 SWAP1 PUSH2 0x15B3 JUMP JUMPDEST PUSH1 0x40 MLOAD DUP1 SWAP2 SUB SWAP1 RETURN JUMPDEST PUSH2 0xBF PUSH1 0x4 DUP1 CALLDATASIZE SUB DUP2 ADD SWAP1 PUSH2 0xBA SWAP2 SWAP1 PUSH2 0x15D3 JUMP JUMPDEST PUSH2 0x7DA JUMP JUMPDEST STOP JUMPDEST PUSH2 0xDB PUSH1 0x4 DUP1 CALLDATASIZE SUB DUP2 ADD SWAP1 PUSH2 0xD6 SWAP2 SWAP1 PUSH2 0x13DB JUMP JUMPDEST PUSH2 0xC70 JUMP JUMPDEST PUSH1 0x40 MLOAD PUSH2 0xE8 SWAP2 SWAP1 PUSH2 0x15B3 JUMP JUMPDEST PUSH1 0x40 MLOAD DUP1 SWAP2 SUB SWAP1 RETURN JUMPDEST PUSH2 0x10B PUSH1 0x4 DUP1 CALLDATASIZE SUB DUP2 ADD SWAP1 PUSH2 0x106 SWAP2 SWAP1 PUSH2 0x13DB JUMP JUMPDEST PUSH2 0xE92 JUMP JUMPDEST PUSH1 0x40 MLOAD PUSH2 0x118 SWAP2 SWAP1 PUSH2 0x17D1 JUMP JUMPDEST PUSH1 0x40 MLOAD DUP1 SWAP2 SUB SWAP1 RETURN JUMPDEST PUSH1 0x8 DUP4 EQ DUP1 PUSH2 0x130 JUMPI POP PUSH1 0x9 DUP4 EQ JUMPDEST ISZERO PUSH2 0x15A JUMPI PUSH1 0x40 MLOAD DUP1 PUSH1 0x20 ADD PUSH1 0x40 MSTORE DUP1 DUP5 DUP2 MSTORE POP PUSH1 0x6A SWAP1 PUSH1 0x1 PUSH2 0x154 SWAP3 SWAP2 SWAP1 PUSH2 0x1159 JUMP JUMPDEST POP PUSH2 0x1CE JUMP JUMPDEST PUSH0 JUMPDEST PUSH1 0x8 DUP2 LT ISZERO PUSH2 0x1CC JUMPI PUSH1 0x1 PUSH1 0x6 DUP3 PUSH1 0xA DUP2 LT PUSH2 0x17B JUMPI PUSH2 0x17A PUSH2 0x17F1 JUMP JUMPDEST JUMPDEST PUSH1 0xA MUL ADD DUP6 PUSH1 0xA DUP2 LT PUSH2 0x191 JUMPI PUSH2 0x190 PUSH2 0x17F1 JUMP JUMPDEST JUMPDEST ADD SLOAD SUB PUSH2 0x1BF JUMPI PUSH1 0x6A DUP2 SWAP1 DUP1 PUSH1 0x1 DUP2 SLOAD ADD DUP1 DUP3 SSTORE DUP1 SWAP2 POP POP PUSH1 0x1 SWAP1 SUB SWAP1 PUSH0 MSTORE PUSH1 0x20 PUSH0 KECCAK256 ADD PUSH0 SWAP1 SWAP2 SWAP1 SWAP2 SWAP1 SWAP2 POP SSTORE JUMPDEST DUP1 DUP1 PUSH1 0x1 ADD SWAP2 POP POP PUSH2 0x15C JUMP JUMPDEST POP JUMPDEST PUSH0 DUP1 JUMPDEST PUSH1 0x4 DUP1 SLOAD SWAP1 POP DUP2 LT ISZERO PUSH2 0x51B JUMPI DUP4 DUP1 MLOAD SWAP1 PUSH1 0x20 ADD KECCAK256 PUSH1 0x4 DUP3 DUP2 SLOAD DUP2 LT PUSH2 0x1FA JUMPI PUSH2 0x1F9 PUSH2 0x17F1 JUMP JUMPDEST JUMPDEST SWAP1 PUSH0 MSTORE PUSH1 0x20 PUSH0 KECCAK256 SWAP1 PUSH1 0x4 MUL ADD PUSH1 0x2 ADD PUSH1 0x40 MLOAD PUSH2 0x216 SWAP2 SWAP1 PUSH2 0x1917 JUMP JUMPDEST PUSH1 0x40 MLOAD DUP1 SWAP2 SUB SWAP1 KECCAK256 SUB PUSH2 0x50E JUMPI PUSH0 JUMPDEST PUSH1 0x6A DUP1 SLOAD SWAP1 POP DUP2 LT ISZERO PUSH2 0x50C JUMPI PUSH1 0x6A DUP2 DUP2 SLOAD DUP2 LT PUSH2 0x246 JUMPI PUSH2 0x245 PUSH2 0x17F1 JUMP JUMPDEST JUMPDEST SWAP1 PUSH0 MSTORE PUSH1 0x20 PUSH0 KECCAK256 ADD SLOAD PUSH1 0x4 DUP4 DUP2 SLOAD DUP2 LT PUSH2 0x263 JUMPI PUSH2 0x262 PUSH2 0x17F1 JUMP JUMPDEST JUMPDEST SWAP1 PUSH0 MSTORE PUSH1 0x20 PUSH0 KECCAK256 SWAP1 PUSH1 0x4 MUL ADD PUSH1 0x1 ADD SLOAD SUB PUSH2 0x4FF JUMPI PUSH1 0x1 SWAP3 POP PUSH32 0xCC97805E28E324DC39BE995161797F1FDF935C9B4EBAB652EF2CC60DE7F0F394 PUSH1 0x4 DUP4 DUP2 SLOAD DUP2 LT PUSH2 0x2B1 JUMPI PUSH2 0x2B0 PUSH2 0x17F1 JUMP JUMPDEST JUMPDEST SWAP1 PUSH0 MSTORE PUSH1 0x20 PUSH0 KECCAK256 SWAP1 PUSH1 0x4 MUL ADD PUSH0 ADD PUSH1 0x4 DUP5 DUP2 SLOAD DUP2 LT PUSH2 0x2D3 JUMPI PUSH2 0x2D2 PUSH2 0x17F1 JUMP JUMPDEST JUMPDEST SWAP1 PUSH0 MSTORE PUSH1 0x20 PUSH0 KECCAK256 SWAP1 PUSH1 0x4 MUL ADD PUSH1 0x1 ADD SLOAD PUSH1 0x4 DUP6 DUP2 SLOAD DUP2 LT PUSH2 0x2F7 JUMPI PUSH2 0x2F6 PUSH2 0x17F1 JUMP JUMPDEST JUMPDEST SWAP1 PUSH0 MSTORE PUSH1 0x20 PUSH0 KECCAK256 SWAP1 PUSH1 0x4 MUL ADD PUSH1 0x2 ADD PUSH1 0x4 DUP7 DUP2 SLOAD DUP2 LT PUSH2 0x31A JUMPI PUSH2 0x319 PUSH2 0x17F1 JUMP JUMPDEST JUMPDEST SWAP1 PUSH0 MSTORE PUSH1 0x20 PUSH0 KECCAK256 SWAP1 PUSH1 0x4 MUL ADD PUSH1 0x3 ADD SLOAD PUSH1 0x40 MLOAD PUSH2 0x33A SWAP5 SWAP4 SWAP3 SWAP2 SWAP1 PUSH2 0x19DF JUMP JUMPDEST PUSH1 0x40 MLOAD DUP1 SWAP2 SUB SWAP1 LOG1 PUSH0 PUSH1 0x40 MLOAD DUP1 PUSH1 0xE0 ADD PUSH1 0x40 MSTORE DUP1 DUP10 DUP2 MSTORE PUSH1 0x20 ADD PUSH1 0x4 DUP6 DUP2 SLOAD DUP2 LT PUSH2 0x368 JUMPI PUSH2 0x367 PUSH2 0x17F1 JUMP JUMPDEST JUMPDEST SWAP1 PUSH0 MSTORE PUSH1 0x20 PUSH0 KECCAK256 SWAP1 PUSH1 0x4 MUL ADD PUSH0 ADD DUP1 SLOAD PUSH2 0x381 SWAP1 PUSH2 0x184B JUMP JUMPDEST DUP1 PUSH1 0x1F ADD PUSH1 0x20 DUP1 SWAP2 DIV MUL PUSH1 0x20 ADD PUSH1 0x40 MLOAD SWAP1 DUP2 ADD PUSH1 0x40 MSTORE DUP1 SWAP3 SWAP2 SWAP1 DUP2 DUP2 MSTORE PUSH1 0x20 ADD DUP3 DUP1 SLOAD PUSH2 0x3AD SWAP1 PUSH2 0x184B JUMP JUMPDEST DUP1 ISZERO PUSH2 0x3F8 JUMPI DUP1 PUSH1 0x1F LT PUSH2 0x3CF JUMPI PUSH2 0x100 DUP1 DUP4 SLOAD DIV MUL DUP4 MSTORE SWAP2 PUSH1 0x20 ADD SWAP2 PUSH2 0x3F8 JUMP JUMPDEST DUP3 ADD SWAP2 SWAP1 PUSH0 MSTORE PUSH1 0x20 PUSH0 KECCAK256 SWAP1 JUMPDEST DUP2 SLOAD DUP2 MSTORE SWAP1 PUSH1 0x1 ADD SWAP1 PUSH1 0x20 ADD DUP1 DUP4 GT PUSH2 0x3DB JUMPI DUP3 SWAP1 SUB PUSH1 0x1F AND DUP3 ADD SWAP2 JUMPDEST POP POP POP POP POP DUP2 MSTORE PUSH1 0x20 ADD DUP9 DUP2 MSTORE PUSH1 0x20 ADD PUSH1 0x4 DUP6 DUP2 SLOAD DUP2 LT PUSH2 0x41C JUMPI PUSH2 0x41B PUSH2 0x17F1 JUMP JUMPDEST JUMPDEST SWAP1 PUSH0 MSTORE PUSH1 0x20 PUSH0 KECCAK256 SWAP1 PUSH1 0x4 MUL ADD PUSH1 0x1 ADD SLOAD DUP2 MSTORE PUSH1 0x20 ADD DUP8 DUP2 MSTORE PUSH1 0x20 ADD DUP7 DUP2 MSTORE PUSH1 0x20 ADD PUSH1 0x4 DUP6 DUP2 SLOAD DUP2 LT PUSH2 0x451 JUMPI PUSH2 0x450 PUSH2 0x17F1 JUMP JUMPDEST JUMPDEST SWAP1 PUSH0 MSTORE PUSH1 0x20 PUSH0 KECCAK256 SWAP1 PUSH1 0x4 MUL ADD PUSH1 0x3 ADD SLOAD DUP2 MSTORE POP SWAP1 POP PUSH1 0x5 DUP2 SWAP1 DUP1 PUSH1 0x1 DUP2 SLOAD ADD DUP1 DUP3 SSTORE DUP1 SWAP2 POP POP PUSH1 0x1 SWAP1 SUB SWAP1 PUSH0 MSTORE PUSH1 0x20 PUSH0 KECCAK256 SWAP1 PUSH1 0x7 MUL ADD PUSH0 SWAP1 SWAP2 SWAP1 SWAP2 SWAP1 SWAP2 POP PUSH0 DUP3 ADD MLOAD DUP2 PUSH0 ADD SWAP1 DUP2 PUSH2 0x4A2 SWAP2 SWAP1 PUSH2 0x1BBB JUMP JUMPDEST POP PUSH1 0x20 DUP3 ADD MLOAD DUP2 PUSH1 0x1 ADD SWAP1 DUP2 PUSH2 0x4B8 SWAP2 SWAP1 PUSH2 0x1BBB JUMP JUMPDEST POP PUSH1 0x40 DUP3 ADD MLOAD DUP2 PUSH1 0x2 ADD SSTORE PUSH1 0x60 DUP3 ADD MLOAD DUP2 PUSH1 0x3 ADD SSTORE PUSH1 0x80 DUP3 ADD MLOAD DUP2 PUSH1 0x4 ADD SWAP1 DUP2 PUSH2 0x4E2 SWAP2 SWAP1 PUSH2 0x1BBB JUMP JUMPDEST POP PUSH1 0xA0 DUP3 ADD MLOAD DUP2 PUSH1 0x5 ADD SSTORE PUSH1 0xC0 DUP3 ADD MLOAD DUP2 PUSH1 0x6 ADD SSTORE POP POP POP PUSH2 0x50C JUMP JUMPDEST DUP1 DUP1 PUSH1 0x1 ADD SWAP2 POP POP PUSH2 0x225 JUMP JUMPDEST POP JUMPDEST DUP1 DUP1 PUSH1 0x1 ADD SWAP2 POP POP PUSH2 0x1D1 JUMP JUMPDEST POP DUP1 PUSH2 0x5B0 JUMPI PUSH0 PUSH1 0x40 MLOAD DUP1 PUSH1 0x80 ADD PUSH1 0x40 MSTORE DUP1 DUP8 DUP2 MSTORE PUSH1 0x20 ADD DUP7 DUP2 MSTORE PUSH1 0x20 ADD DUP6 DUP2 MSTORE PUSH1 0x20 ADD DUP5 DUP2 MSTORE POP SWAP1 POP PUSH1 0x3 DUP2 SWAP1 DUP1 PUSH1 0x1 DUP2 SLOAD ADD DUP1 DUP3 SSTORE DUP1 SWAP2 POP POP PUSH1 0x1 SWAP1 SUB SWAP1 PUSH0 MSTORE PUSH1 0x20 PUSH0 KECCAK256 SWAP1 PUSH1 0x4 MUL ADD PUSH0 SWAP1 SWAP2 SWAP1 SWAP2 SWAP1 SWAP2 POP PUSH0 DUP3 ADD MLOAD DUP2 PUSH0 ADD SWAP1 DUP2 PUSH2 0x581 SWAP2 SWAP1 PUSH2 0x1BBB JUMP JUMPDEST POP PUSH1 0x20 DUP3 ADD MLOAD DUP2 PUSH1 0x1 ADD SSTORE PUSH1 0x40 DUP3 ADD MLOAD DUP2 PUSH1 0x2 ADD SWAP1 DUP2 PUSH2 0x5A1 SWAP2 SWAP1 PUSH2 0x1BBB JUMP JUMPDEST POP PUSH1 0x60 DUP3 ADD MLOAD DUP2 PUSH1 0x3 ADD SSTORE POP POP POP JUMPDEST POP POP POP POP POP JUMP JUMPDEST PUSH1 0x60 DUP2 PUSH1 0x1 SLOAD DUP2 PUSH1 0x40 MLOAD PUSH1 0x20 ADD PUSH2 0x5CE SWAP2 SWAP1 PUSH2 0x1CC4 JUMP JUMPDEST PUSH1 0x40 MLOAD PUSH1 0x20 DUP2 DUP4 SUB SUB DUP2 MSTORE SWAP1 PUSH1 0x40 MSTORE DUP1 MLOAD SWAP1 PUSH1 0x20 ADD KECCAK256 PUSH1 0x40 MLOAD PUSH1 0x20 ADD PUSH2 0x5F4 SWAP2 SWAP1 PUSH2 0x1D03 JUMP JUMPDEST PUSH1 0x40 MLOAD PUSH1 0x20 DUP2 DUP4 SUB SUB DUP2 MSTORE SWAP1 PUSH1 0x40 MSTORE DUP1 MLOAD SWAP1 PUSH1 0x20 ADD KECCAK256 EQ PUSH2 0x64A JUMPI PUSH1 0x40 MLOAD PUSH32 0x8C379A000000000000000000000000000000000000000000000000000000000 DUP2 MSTORE PUSH1 0x4 ADD PUSH2 0x641 SWAP1 PUSH2 0x1D67 JUMP JUMPDEST PUSH1 0x40 MLOAD DUP1 SWAP2 SUB SWAP1 REVERT JUMPDEST PUSH1 0x4 DUP1 SLOAD DUP1 PUSH1 0x20 MUL PUSH1 0x20 ADD PUSH1 0x40 MLOAD SWAP1 DUP2 ADD PUSH1 0x40 MSTORE DUP1 SWAP3 SWAP2 SWAP1 DUP2 DUP2 MSTORE PUSH1 0x20 ADD PUSH0 SWAP1 JUMPDEST DUP3 DUP3 LT ISZERO PUSH2 0x7CE JUMPI DUP4 DUP3 SWAP1 PUSH0 MSTORE PUSH1 0x20 PUSH0 KECCAK256 SWAP1 PUSH1 0x4 MUL ADD PUSH1 0x40 MLOAD DUP1 PUSH1 0x80 ADD PUSH1 0x40 MSTORE SWAP1 DUP2 PUSH0 DUP3 ADD DUP1 SLOAD PUSH2 0x69B SWAP1 PUSH2 0x184B JUMP JUMPDEST DUP1 PUSH1 0x1F ADD PUSH1 0x20 DUP1 SWAP2 DIV MUL PUSH1 0x20 ADD PUSH1 0x40 MLOAD SWAP1 DUP2 ADD PUSH1 0x40 MSTORE DUP1 SWAP3 SWAP2 SWAP1 DUP2 DUP2 MSTORE PUSH1 0x20 ADD DUP3 DUP1 SLOAD PUSH2 0x6C7 SWAP1 PUSH2 0x184B JUMP JUMPDEST DUP1 ISZERO PUSH2 0x712 JUMPI DUP1 PUSH1 0x1F LT PUSH2 0x6E9 JUMPI PUSH2 0x100 DUP1 DUP4 SLOAD DIV MUL DUP4 MSTORE SWAP2 PUSH1 0x20 ADD SWAP2 PUSH2 0x712 JUMP JUMPDEST DUP3 ADD SWAP2 SWAP1 PUSH0 MSTORE PUSH1 0x20 PUSH0 KECCAK256 SWAP1 JUMPDEST DUP2 SLOAD DUP2 MSTORE SWAP1 PUSH1 0x1 ADD SWAP1 PUSH1 0x20 ADD DUP1 DUP4 GT PUSH2 0x6F5 JUMPI DUP3 SWAP1 SUB PUSH1 0x1F AND DUP3 ADD SWAP2 JUMPDEST POP POP POP POP POP DUP2 MSTORE PUSH1 0x20 ADD PUSH1 0x1 DUP3 ADD SLOAD DUP2 MSTORE PUSH1 0x20 ADD PUSH1 0x2 DUP3 ADD DUP1 SLOAD PUSH2 0x735 SWAP1 PUSH2 0x184B JUMP JUMPDEST DUP1 PUSH1 0x1F ADD PUSH1 0x20 DUP1 SWAP2 DIV MUL PUSH1 0x20 ADD PUSH1 0x40 MLOAD SWAP1 DUP2 ADD PUSH1 0x40 MSTORE DUP1 SWAP3 SWAP2 SWAP1 DUP2 DUP2 MSTORE PUSH1 0x20 ADD DUP3 DUP1 SLOAD PUSH2 0x761 SWAP1 PUSH2 0x184B JUMP JUMPDEST DUP1 ISZERO PUSH2 0x7AC JUMPI DUP1 PUSH1 0x1F LT PUSH2 0x783 JUMPI PUSH2 0x100 DUP1 DUP4 SLOAD DIV MUL DUP4 MSTORE SWAP2 PUSH1 0x20 ADD SWAP2 PUSH2 0x7AC JUMP JUMPDEST DUP3 ADD SWAP2 SWAP1 PUSH0 MSTORE PUSH1 0x20 PUSH0 KECCAK256 SWAP1 JUMPDEST DUP2 SLOAD DUP2 MSTORE SWAP1 PUSH1 0x1 ADD SWAP1 PUSH1 0x20 ADD DUP1 DUP4 GT PUSH2 0x78F JUMPI DUP3 SWAP1 SUB PUSH1 0x1F AND DUP3 ADD SWAP2 JUMPDEST POP POP POP POP POP DUP2 MSTORE PUSH1 0x20 ADD PUSH1 0x3 DUP3 ADD SLOAD DUP2 MSTORE POP POP DUP2 MSTORE PUSH1 0x20 ADD SWAP1 PUSH1 0x1 ADD SWAP1 PUSH2 0x66B JUMP JUMPDEST POP POP POP POP SWAP2 POP POP SWAP2 SWAP1 POP JUMP JUMPDEST PUSH1 0x8 DUP3 EQ DUP1 PUSH2 0x7E9 JUMPI POP PUSH1 0x9 DUP3 EQ JUMPDEST ISZERO PUSH2 0x813 JUMPI PUSH1 0x40 MLOAD DUP1 PUSH1 0x20 ADD PUSH1 0x40 MSTORE DUP1 DUP4 DUP2 MSTORE POP PUSH1 0x6B SWAP1 PUSH1 0x1 PUSH2 0x80D SWAP3 SWAP2 SWAP1 PUSH2 0x1159 JUMP JUMPDEST POP PUSH2 0x887 JUMP JUMPDEST PUSH0 JUMPDEST PUSH1 0x8 DUP2 LT ISZERO PUSH2 0x885 JUMPI PUSH1 0x1 PUSH1 0x6 DUP5 PUSH1 0xA DUP2 LT PUSH2 0x834 JUMPI PUSH2 0x833 PUSH2 0x17F1 JUMP JUMPDEST JUMPDEST PUSH1 0xA MUL ADD DUP3 PUSH1 0xA DUP2 LT PUSH2 0x84A JUMPI PUSH2 0x849 PUSH2 0x17F1 JUMP JUMPDEST JUMPDEST ADD SLOAD SUB PUSH2 0x878 JUMPI PUSH1 0x6B DUP2 SWAP1 DUP1 PUSH1 0x1 DUP2 SLOAD ADD DUP1 DUP3 SSTORE DUP1 SWAP2 POP POP PUSH1 0x1 SWAP1 SUB SWAP1 PUSH0 MSTORE PUSH1 0x20 PUSH0 KECCAK256 ADD PUSH0 SWAP1 SWAP2 SWAP1 SWAP2 SWAP1 SWAP2 POP SSTORE JUMPDEST DUP1 DUP1 PUSH1 0x1 ADD SWAP2 POP POP PUSH2 0x815 JUMP JUMPDEST POP JUMPDEST PUSH0 DUP1 JUMPDEST PUSH1 0x3 DUP1 SLOAD SWAP1 POP DUP2 LT ISZERO PUSH2 0xBD4 JUMPI DUP5 DUP1 MLOAD SWAP1 PUSH1 0x20 ADD KECCAK256 PUSH1 0x3 DUP3 DUP2 SLOAD DUP2 LT PUSH2 0x8B3 JUMPI PUSH2 0x8B2 PUSH2 0x17F1 JUMP JUMPDEST JUMPDEST SWAP1 PUSH0 MSTORE PUSH1 0x20 PUSH0 KECCAK256 SWAP1 PUSH1 0x4 MUL ADD PUSH1 0x2 ADD PUSH1 0x40 MLOAD PUSH2 0x8CF SWAP2 SWAP1 PUSH2 0x1917 JUMP JUMPDEST PUSH1 0x40 MLOAD DUP1 SWAP2 SUB SWAP1 KECCAK256 SUB PUSH2 0xBC7 JUMPI PUSH0 JUMPDEST PUSH1 0x6B DUP1 SLOAD SWAP1 POP DUP2 LT ISZERO PUSH2 0xBC5 JUMPI PUSH1 0x6B DUP2 DUP2 SLOAD DUP2 LT PUSH2 0x8FF JUMPI PUSH2 0x8FE PUSH2 0x17F1 JUMP JUMPDEST JUMPDEST SWAP1 PUSH0 MSTORE PUSH1 0x20 PUSH0 KECCAK256 ADD SLOAD PUSH1 0x3 DUP4 DUP2 SLOAD DUP2 LT PUSH2 0x91C JUMPI PUSH2 0x91B PUSH2 0x17F1 JUMP JUMPDEST JUMPDEST SWAP1 PUSH0 MSTORE PUSH1 0x20 PUSH0 KECCAK256 SWAP1 PUSH1 0x4 MUL ADD PUSH1 0x1 ADD SLOAD SUB PUSH2 0xBB8 JUMPI PUSH1 0x1 SWAP3 POP PUSH32 0x2A721C885FFFCF96F50F455DD2CA696CAF61D72D984EA9334DAEA189844A932B PUSH1 0x3 DUP4 DUP2 SLOAD DUP2 LT PUSH2 0x96A JUMPI PUSH2 0x969 PUSH2 0x17F1 JUMP JUMPDEST JUMPDEST SWAP1 PUSH0 MSTORE PUSH1 0x20 PUSH0 KECCAK256 SWAP1 PUSH1 0x4 MUL ADD PUSH0 ADD PUSH1 0x3 DUP5 DUP2 SLOAD DUP2 LT PUSH2 0x98C JUMPI PUSH2 0x98B PUSH2 0x17F1 JUMP JUMPDEST JUMPDEST SWAP1 PUSH0 MSTORE PUSH1 0x20 PUSH0 KECCAK256 SWAP1 PUSH1 0x4 MUL ADD PUSH1 0x1 ADD SLOAD PUSH1 0x3 DUP6 DUP2 SLOAD DUP2 LT PUSH2 0x9B0 JUMPI PUSH2 0x9AF PUSH2 0x17F1 JUMP JUMPDEST JUMPDEST SWAP1 PUSH0 MSTORE PUSH1 0x20 PUSH0 KECCAK256 SWAP1 PUSH1 0x4 MUL ADD PUSH1 0x2 ADD PUSH1 0x3 DUP7 DUP2 SLOAD DUP2 LT PUSH2 0x9D3 JUMPI PUSH2 0x9D2 PUSH2 0x17F1 JUMP JUMPDEST JUMPDEST SWAP1 PUSH0 MSTORE PUSH1 0x20 PUSH0 KECCAK256 SWAP1 PUSH1 0x4 MUL ADD PUSH1 0x3 ADD SLOAD PUSH1 0x40 MLOAD PUSH2 0x9F3 SWAP5 SWAP4 SWAP3 SWAP2 SWAP1 PUSH2 0x19DF JUMP JUMPDEST PUSH1 0x40 MLOAD DUP1 SWAP2 SUB SWAP1 LOG1 PUSH0 PUSH1 0x40 MLOAD DUP1 PUSH1 0xE0 ADD PUSH1 0x40 MSTORE DUP1 PUSH1 0x3 DUP6 DUP2 SLOAD DUP2 LT PUSH2 0xA1B JUMPI PUSH2 0xA1A PUSH2 0x17F1 JUMP JUMPDEST JUMPDEST SWAP1 PUSH0 MSTORE PUSH1 0x20 PUSH0 KECCAK256 SWAP1 PUSH1 0x4 MUL ADD PUSH0 ADD DUP1 SLOAD PUSH2 0xA34 SWAP1 PUSH2 0x184B JUMP JUMPDEST DUP1 PUSH1 0x1F ADD PUSH1 0x20 DUP1 SWAP2 DIV MUL PUSH1 0x20 ADD PUSH1 0x40 MLOAD SWAP1 DUP2 ADD PUSH1 0x40 MSTORE DUP1 SWAP3 SWAP2 SWAP1 DUP2 DUP2 MSTORE PUSH1 0x20 ADD DUP3 DUP1 SLOAD PUSH2 0xA60 SWAP1 PUSH2 0x184B JUMP JUMPDEST DUP1 ISZERO PUSH2 0xAAB JUMPI DUP1 PUSH1 0x1F LT PUSH2 0xA82 JUMPI PUSH2 0x100 DUP1 DUP4 SLOAD DIV MUL DUP4 MSTORE SWAP2 PUSH1 0x20 ADD SWAP2 PUSH2 0xAAB JUMP JUMPDEST DUP3 ADD SWAP2 SWAP1 PUSH0 MSTORE PUSH1 0x20 PUSH0 KECCAK256 SWAP1 JUMPDEST DUP2 SLOAD DUP2 MSTORE SWAP1 PUSH1 0x1 ADD SWAP1 PUSH1 0x20 ADD DUP1 DUP4 GT PUSH2 0xA8E JUMPI DUP3 SWAP1 SUB PUSH1 0x1F AND DUP3 ADD SWAP2 JUMPDEST POP POP POP POP POP DUP2 MSTORE PUSH1 0x20 ADD DUP10 DUP2 MSTORE PUSH1 0x20 ADD PUSH1 0x3 DUP6 DUP2 SLOAD DUP2 LT PUSH2 0xACF JUMPI PUSH2 0xACE PUSH2 0x17F1 JUMP JUMPDEST JUMPDEST SWAP1 PUSH0 MSTORE PUSH1 0x20 PUSH0 KECCAK256 SWAP1 PUSH1 0x4 MUL ADD PUSH1 0x1 ADD SLOAD DUP2 MSTORE PUSH1 0x20 ADD DUP8 DUP2 MSTORE PUSH1 0x20 ADD DUP9 DUP2 MSTORE PUSH1 0x20 ADD PUSH1 0x3 DUP6 DUP2 SLOAD DUP2 LT PUSH2 0xB04 JUMPI PUSH2 0xB03 PUSH2 0x17F1 JUMP JUMPDEST JUMPDEST SWAP1 PUSH0 MSTORE PUSH1 0x20 PUSH0 KECCAK256 SWAP1 PUSH1 0x4 MUL ADD PUSH1 0x3 ADD SLOAD DUP2 MSTORE PUSH1 0x20 ADD DUP7 DUP2 MSTORE POP SWAP1 POP PUSH1 0x5 DUP2 SWAP1 DUP1 PUSH1 0x1 DUP2 SLOAD ADD DUP1 DUP3 SSTORE DUP1 SWAP2 POP POP PUSH1 0x1 SWAP1 SUB SWAP1 PUSH0 MSTORE PUSH1 0x20 PUSH0 KECCAK256 SWAP1 PUSH1 0x7 MUL ADD PUSH0 SWAP1 SWAP2 SWAP1 SWAP2 SWAP1 SWAP2 POP PUSH0 DUP3 ADD MLOAD DUP2 PUSH0 ADD SWAP1 DUP2 PUSH2 0xB5B SWAP2 SWAP1 PUSH2 0x1BBB JUMP JUMPDEST POP PUSH1 0x20 DUP3 ADD MLOAD DUP2 PUSH1 0x1 ADD SWAP1 DUP2 PUSH2 0xB71 SWAP2 SWAP1 PUSH2 0x1BBB JUMP JUMPDEST POP PUSH1 0x40 DUP3 ADD MLOAD DUP2 PUSH1 0x2 ADD SSTORE PUSH1 0x60 DUP3 ADD MLOAD DUP2 PUSH1 0x3 ADD SSTORE PUSH1 0x80 DUP3 ADD MLOAD DUP2 PUSH1 0x4 ADD SWAP1 DUP2 PUSH2 0xB9B SWAP2 SWAP1 PUSH2 0x1BBB JUMP JUMPDEST POP PUSH1 0xA0 DUP3 ADD MLOAD DUP2 PUSH1 0x5 ADD SSTORE PUSH1 0xC0 DUP3 ADD MLOAD DUP2 PUSH1 0x6 ADD SSTORE POP POP POP PUSH2 0xBC5 JUMP JUMPDEST DUP1 DUP1 PUSH1 0x1 ADD SWAP2 POP POP PUSH2 0x8DE JUMP JUMPDEST POP JUMPDEST DUP1 DUP1 PUSH1 0x1 ADD SWAP2 POP POP PUSH2 0x88A JUMP JUMPDEST POP DUP1 PUSH2 0xC69 JUMPI PUSH0 PUSH1 0x40 MLOAD DUP1 PUSH1 0x80 ADD PUSH1 0x40 MSTORE DUP1 DUP8 DUP2 MSTORE PUSH1 0x20 ADD DUP6 DUP2 MSTORE PUSH1 0x20 ADD DUP7 DUP2 MSTORE PUSH1 0x20 ADD DUP5 DUP2 MSTORE POP SWAP1 POP PUSH1 0x4 DUP2 SWAP1 DUP1 PUSH1 0x1 DUP2 SLOAD ADD DUP1 DUP3 SSTORE DUP1 SWAP2 POP POP PUSH1 0x1 SWAP1 SUB SWAP1 PUSH0 MSTORE PUSH1 0x20 PUSH0 KECCAK256 SWAP1 PUSH1 0x4 MUL ADD PUSH0 SWAP1 SWAP2 SWAP1 SWAP2 SWAP1 SWAP2 POP PUSH0 DUP3 ADD MLOAD DUP2 PUSH0 ADD SWAP1 DUP2 PUSH2 0xC3A SWAP2 SWAP1 PUSH2 0x1BBB JUMP JUMPDEST POP PUSH1 0x20 DUP3 ADD MLOAD DUP2 PUSH1 0x1 ADD SSTORE PUSH1 0x40 DUP3 ADD MLOAD DUP2 PUSH1 0x2 ADD SWAP1 DUP2 PUSH2 0xC5A SWAP2 SWAP1 PUSH2 0x1BBB JUMP JUMPDEST POP PUSH1 0x60 DUP3 ADD MLOAD DUP2 PUSH1 0x3 ADD SSTORE POP POP POP JUMPDEST POP POP POP POP POP JUMP JUMPDEST PUSH1 0x60 DUP2 PUSH0 SLOAD DUP2 PUSH1 0x40 MLOAD PUSH1 0x20 ADD PUSH2 0xC86 SWAP2 SWAP1 PUSH2 0x1CC4 JUMP JUMPDEST PUSH1 0x40 MLOAD PUSH1 0x20 DUP2 DUP4 SUB SUB DUP2 MSTORE SWAP1 PUSH1 0x40 MSTORE DUP1 MLOAD SWAP1 PUSH1 0x20 ADD KECCAK256 PUSH1 0x40 MLOAD PUSH1 0x20 ADD PUSH2 0xCAC SWAP2 SWAP1 PUSH2 0x1D03 JUMP JUMPDEST PUSH1 0x40 MLOAD PUSH1 0x20 DUP2 DUP4 SUB SUB DUP2 MSTORE SWAP1 PUSH1 0x40 MSTORE DUP1 MLOAD SWAP1 PUSH1 0x20 ADD KECCAK256 EQ PUSH2 0xD02 JUMPI PUSH1 0x40 MLOAD PUSH32 0x8C379A000000000000000000000000000000000000000000000000000000000 DUP2 MSTORE PUSH1 0x4 ADD PUSH2 0xCF9 SWAP1 PUSH2 0x1D67 JUMP JUMPDEST PUSH1 0x40 MLOAD DUP1 SWAP2 SUB SWAP1 REVERT JUMPDEST PUSH1 0x3 DUP1 SLOAD DUP1 PUSH1 0x20 MUL PUSH1 0x20 ADD PUSH1 0x40 MLOAD SWAP1 DUP2 ADD PUSH1 0x40 MSTORE DUP1 SWAP3 SWAP2 SWAP1 DUP2 DUP2 MSTORE PUSH1 0x20 ADD PUSH0 SWAP1 JUMPDEST DUP3 DUP3 LT ISZERO PUSH2 0xE86 JUMPI DUP4 DUP3 SWAP1 PUSH0 MSTORE PUSH1 0x20 PUSH0 KECCAK256 SWAP1 PUSH1 0x4 MUL ADD PUSH1 0x40 MLOAD DUP1 PUSH1 0x80 ADD PUSH1 0x40 MSTORE SWAP1 DUP2 PUSH0 DUP3 ADD DUP1 SLOAD PUSH2 0xD53 SWAP1 PUSH2 0x184B JUMP JUMPDEST DUP1 PUSH1 0x1F ADD PUSH1 0x20 DUP1 SWAP2 DIV MUL PUSH1 0x20 ADD PUSH1 0x40 MLOAD SWAP1 DUP2 ADD PUSH1 0x40 MSTORE DUP1 SWAP3 SWAP2 SWAP1 DUP2 DUP2 MSTORE PUSH1 0x20 ADD DUP3 DUP1 SLOAD PUSH2 0xD7F SWAP1 PUSH2 0x184B JUMP JUMPDEST DUP1 ISZERO PUSH2 0xDCA JUMPI DUP1 PUSH1 0x1F LT PUSH2 0xDA1 JUMPI PUSH2 0x100 DUP1 DUP4 SLOAD DIV MUL DUP4 MSTORE SWAP2 PUSH1 0x20 ADD SWAP2 PUSH2 0xDCA JUMP JUMPDEST DUP3 ADD SWAP2 SWAP1 PUSH0 MSTORE PUSH1 0x20 PUSH0 KECCAK256 SWAP1 JUMPDEST DUP2 SLOAD DUP2 MSTORE SWAP1 PUSH1 0x1 ADD SWAP1 PUSH1 0x20 ADD DUP1 DUP4 GT PUSH2 0xDAD JUMPI DUP3 SWAP1 SUB PUSH1 0x1F AND DUP3 ADD SWAP2 JUMPDEST POP POP POP POP POP DUP2 MSTORE PUSH1 0x20 ADD PUSH1 0x1 DUP3 ADD SLOAD DUP2 MSTORE PUSH1 0x20 ADD PUSH1 0x2 DUP3 ADD DUP1 SLOAD PUSH2 0xDED SWAP1 PUSH2 0x184B JUMP JUMPDEST DUP1 PUSH1 0x1F ADD PUSH1 0x20 DUP1 SWAP2 DIV MUL PUSH1 0x20 ADD PUSH1 0x40 MLOAD SWAP1 DUP2 ADD PUSH1 0x40 MSTORE DUP1 SWAP3 SWAP2 SWAP1 DUP2 DUP2 MSTORE PUSH1 0x20 ADD DUP3 DUP1 SLOAD PUSH2 0xE19 SWAP1 PUSH2 0x184B JUMP JUMPDEST DUP1 ISZERO PUSH2 0xE64 JUMPI DUP1 PUSH1 0x1F LT PUSH2 0xE3B JUMPI PUSH2 0x100 DUP1 DUP4 SLOAD DIV MUL DUP4 MSTORE SWAP2 PUSH1 0x20 ADD SWAP2 PUSH2 0xE64 JUMP JUMPDEST DUP3 ADD SWAP2 SWAP1 PUSH0 MSTORE PUSH1 0x20 PUSH0 KECCAK256 SWAP1 JUMPDEST DUP2 SLOAD DUP2 MSTORE SWAP1 PUSH1 0x1 ADD SWAP1 PUSH1 0x20 ADD DUP1 DUP4 GT PUSH2 0xE47 JUMPI DUP3 SWAP1 SUB PUSH1 0x1F AND DUP3 ADD SWAP2 JUMPDEST POP POP POP POP POP DUP2 MSTORE PUSH1 0x20 ADD PUSH1 0x3 DUP3 ADD SLOAD DUP2 MSTORE POP POP DUP2 MSTORE PUSH1 0x20 ADD SWAP1 PUSH1 0x1 ADD SWAP1 PUSH2 0xD23 JUMP JUMPDEST POP POP POP POP SWAP2 POP POP SWAP2 SWAP1 POP JUMP JUMPDEST PUSH1 0x60 DUP2 PUSH1 0x2 SLOAD DUP2 PUSH1 0x40 MLOAD PUSH1 0x20 ADD PUSH2 0xEA9 SWAP2 SWAP1 PUSH2 0x1CC4 JUMP JUMPDEST PUSH1 0x40 MLOAD PUSH1 0x20 DUP2 DUP4 SUB SUB DUP2 MSTORE SWAP1 PUSH1 0x40 MSTORE DUP1 MLOAD SWAP1 PUSH1 0x20 ADD KECCAK256 PUSH1 0x40 MLOAD PUSH1 0x20 ADD PUSH2 0xECF SWAP2 SWAP1 PUSH2 0x1D03 JUMP JUMPDEST PUSH1 0x40 MLOAD PUSH1 0x20 DUP2 DUP4 SUB SUB DUP2 MSTORE SWAP1 PUSH1 0x40 MSTORE DUP1 MLOAD SWAP1 PUSH1 0x20 ADD KECCAK256 EQ PUSH2 0xF25 JUMPI PUSH1 0x40 MLOAD PUSH32 0x8C379A000000000000000000000000000000000000000000000000000000000 DUP2 MSTORE PUSH1 0x4 ADD PUSH2 0xF1C SWAP1 PUSH2 0x1D67 JUMP JUMPDEST PUSH1 0x40 MLOAD DUP1 SWAP2 SUB SWAP1 REVERT JUMPDEST PUSH1 0x5 DUP1 SLOAD DUP1 PUSH1 0x20 MUL PUSH1 0x20 ADD PUSH1 0x40 MLOAD SWAP1 DUP2 ADD PUSH1 0x40 MSTORE DUP1 SWAP3 SWAP2 SWAP1 DUP2 DUP2 MSTORE PUSH1 0x20 ADD PUSH0 SWAP1 JUMPDEST DUP3 DUP3 LT ISZERO PUSH2 0x114D JUMPI DUP4 DUP3 SWAP1 PUSH0 MSTORE PUSH1 0x20 PUSH0 KECCAK256 SWAP1 PUSH1 0x7 MUL ADD PUSH1 0x40 MLOAD DUP1 PUSH1 0xE0 ADD PUSH1 0x40 MSTORE SWAP1 DUP2 PUSH0 DUP3 ADD DUP1 SLOAD PUSH2 0xF76 SWAP1 PUSH2 0x184B JUMP JUMPDEST DUP1 PUSH1 0x1F ADD PUSH1 0x20 DUP1 SWAP2 DIV MUL PUSH1 0x20 ADD PUSH1 0x40 MLOAD SWAP1 DUP2 ADD PUSH1 0x40 MSTORE DUP1 SWAP3 SWAP2 SWAP1 DUP2 DUP2 MSTORE PUSH1 0x20 ADD DUP3 DUP1 SLOAD PUSH2 0xFA2 SWAP1 PUSH2 0x184B JUMP JUMPDEST DUP1 ISZERO PUSH2 0xFED JUMPI DUP1 PUSH1 0x1F LT PUSH2 0xFC4 JUMPI PUSH2 0x100 DUP1 DUP4 SLOAD DIV MUL DUP4 MSTORE SWAP2 PUSH1 0x20 ADD SWAP2 PUSH2 0xFED JUMP JUMPDEST DUP3 ADD SWAP2 SWAP1 PUSH0 MSTORE PUSH1 0x20 PUSH0 KECCAK256 SWAP1 JUMPDEST DUP2 SLOAD DUP2 MSTORE SWAP1 PUSH1 0x1 ADD SWAP1 PUSH1 0x20 ADD DUP1 DUP4 GT PUSH2 0xFD0 JUMPI DUP3 SWAP1 SUB PUSH1 0x1F AND DUP3 ADD SWAP2 JUMPDEST POP POP POP POP POP DUP2 MSTORE PUSH1 0x20 ADD PUSH1 0x1 DUP3 ADD DUP1 SLOAD PUSH2 0x1006 SWAP1 PUSH2 0x184B JUMP JUMPDEST DUP1 PUSH1 0x1F ADD PUSH1 0x20 DUP1 SWAP2 DIV MUL PUSH1 0x20 ADD PUSH1 0x40 MLOAD SWAP1 DUP2 ADD PUSH1 0x40 MSTORE DUP1 SWAP3 SWAP2 SWAP1 DUP2 DUP2 MSTORE PUSH1 0x20 ADD DUP3 DUP1 SLOAD PUSH2 0x1032 SWAP1 PUSH2 0x184B JUMP JUMPDEST DUP1 ISZERO PUSH2 0x107D JUMPI DUP1 PUSH1 0x1F LT PUSH2 0x1054 JUMPI PUSH2 0x100 DUP1 DUP4 SLOAD DIV MUL DUP4 MSTORE SWAP2 PUSH1 0x20 ADD SWAP2 PUSH2 0x107D JUMP JUMPDEST DUP3 ADD SWAP2 SWAP1 PUSH0 MSTORE PUSH1 0x20 PUSH0 KECCAK256 SWAP1 JUMPDEST DUP2 SLOAD DUP2 MSTORE SWAP1 PUSH1 0x1 ADD SWAP1 PUSH1 0x20 ADD DUP1 DUP4 GT PUSH2 0x1060 JUMPI DUP3 SWAP1 SUB PUSH1 0x1F AND DUP3 ADD SWAP2 JUMPDEST POP POP POP POP POP DUP2 MSTORE PUSH1 0x20 ADD PUSH1 0x2 DUP3 ADD SLOAD DUP2 MSTORE PUSH1 0x20 ADD PUSH1 0x3 DUP3 ADD SLOAD DUP2 MSTORE PUSH1 0x20 ADD PUSH1 0x4 DUP3 ADD DUP1 SLOAD PUSH2 0x10AA SWAP1 PUSH2 0x184B JUMP JUMPDEST DUP1 PUSH1 0x1F ADD PUSH1 0x20 DUP1 SWAP2 DIV MUL PUSH1 0x20 ADD PUSH1 0x40 MLOAD SWAP1 DUP2 ADD PUSH1 0x40 MSTORE DUP1 SWAP3 SWAP2 SWAP1 DUP2 DUP2 MSTORE PUSH1 0x20 ADD DUP3 DUP1 SLOAD PUSH2 0x10D6 SWAP1 PUSH2 0x184B JUMP JUMPDEST DUP1 ISZERO PUSH2 0x1121 JUMPI DUP1 PUSH1 0x1F LT PUSH2 0x10F8 JUMPI PUSH2 0x100 DUP1 DUP4 SLOAD DIV MUL DUP4 MSTORE SWAP2 PUSH1 0x20 ADD SWAP2 PUSH2 0x1121 JUMP JUMPDEST DUP3 ADD SWAP2 SWAP1 PUSH0 MSTORE PUSH1 0x20 PUSH0 KECCAK256 SWAP1 JUMPDEST DUP2 SLOAD DUP2 MSTORE SWAP1 PUSH1 0x1 ADD SWAP1 PUSH1 0x20 ADD DUP1 DUP4 GT PUSH2 0x1104 JUMPI DUP3 SWAP1 SUB PUSH1 0x1F AND DUP3 ADD SWAP2 JUMPDEST POP POP POP POP POP DUP2 MSTORE PUSH1 0x20 ADD PUSH1 0x5 DUP3 ADD SLOAD DUP2 MSTORE PUSH1 0x20 ADD PUSH1 0x6 DUP3 ADD SLOAD DUP2 MSTORE POP POP DUP2 MSTORE PUSH1 0x20 ADD SWAP1 PUSH1 0x1 ADD SWAP1 PUSH2 0xF46 JUMP JUMPDEST POP POP POP POP SWAP2 POP POP SWAP2 SWAP1 POP JUMP JUMPDEST DUP3 DUP1 SLOAD DUP3 DUP3 SSTORE SWAP1 PUSH0 MSTORE PUSH1 0x20 PUSH0 KECCAK256 SWAP1 DUP2 ADD SWAP3 DUP3 ISZERO PUSH2 0x1193 JUMPI SWAP2 PUSH1 0x20 MUL DUP3 ADD JUMPDEST DUP3 DUP2 GT ISZERO PUSH2 0x1192 JUMPI DUP3 MLOAD DUP3 SSTORE SWAP2 PUSH1 0x20 ADD SWAP2 SWAP1 PUSH1 0x1 ADD SWAP1 PUSH2 0x1177 JUMP JUMPDEST JUMPDEST POP SWAP1 POP PUSH2 0x11A0 SWAP2 SWAP1 PUSH2 0x11A4 JUMP JUMPDEST POP SWAP1 JUMP JUMPDEST JUMPDEST DUP1 DUP3 GT ISZERO PUSH2 0x11BB JUMPI PUSH0 DUP2 PUSH0 SWAP1 SSTORE POP PUSH1 0x1 ADD PUSH2 0x11A5 JUMP JUMPDEST POP SWAP1 JUMP JUMPDEST PUSH0 PUSH1 0x40 MLOAD SWAP1 POP SWAP1 JUMP JUMPDEST PUSH0 DUP1 REVERT JUMPDEST PUSH0 DUP1 REVERT JUMPDEST PUSH0 DUP1 REVERT JUMPDEST PUSH0 DUP1 REVERT JUMPDEST PUSH0 PUSH1 0x1F NOT PUSH1 0x1F DUP4 ADD AND SWAP1 POP SWAP2 SWAP1 POP JUMP JUMPDEST PUSH32 0x4E487B7100000000000000000000000000000000000000000000000000000000 PUSH0 MSTORE PUSH1 0x41 PUSH1 0x4 MSTORE PUSH1 0x24 PUSH0 REVERT JUMPDEST PUSH2 0x121E DUP3 PUSH2 0x11D8 JUMP JUMPDEST DUP2 ADD DUP2 DUP2 LT PUSH8 0xFFFFFFFFFFFFFFFF DUP3 GT OR ISZERO PUSH2 0x123D JUMPI PUSH2 0x123C PUSH2 0x11E8 JUMP JUMPDEST JUMPDEST DUP1 PUSH1 0x40 MSTORE POP POP POP JUMP JUMPDEST PUSH0 PUSH2 0x124F PUSH2 0x11BF JUMP JUMPDEST SWAP1 POP PUSH2 0x125B DUP3 DUP3 PUSH2 0x1215 JUMP JUMPDEST SWAP2 SWAP1 POP JUMP JUMPDEST PUSH0 PUSH8 0xFFFFFFFFFFFFFFFF DUP3 GT ISZERO PUSH2 0x127A JUMPI PUSH2 0x1279 PUSH2 0x11E8 JUMP JUMPDEST JUMPDEST PUSH2 0x1283 DUP3 PUSH2 0x11D8 JUMP JUMPDEST SWAP1 POP PUSH1 0x20 DUP2 ADD SWAP1 POP SWAP2 SWAP1 POP JUMP JUMPDEST DUP3 DUP2 DUP4 CALLDATACOPY PUSH0 DUP4 DUP4 ADD MSTORE POP POP POP JUMP JUMPDEST PUSH0 PUSH2 0x12B0 PUSH2 0x12AB DUP5 PUSH2 0x1260 JUMP JUMPDEST PUSH2 0x1246 JUMP JUMPDEST SWAP1 POP DUP3 DUP2 MSTORE PUSH1 0x20 DUP2 ADD DUP5 DUP5 DUP5 ADD GT ISZERO PUSH2 0x12CC JUMPI PUSH2 0x12CB PUSH2 0x11D4 JUMP JUMPDEST JUMPDEST PUSH2 0x12D7 DUP5 DUP3 DUP6 PUSH2 0x1290 JUMP JUMPDEST POP SWAP4 SWAP3 POP POP POP JUMP JUMPDEST PUSH0 DUP3 PUSH1 0x1F DUP4 ADD SLT PUSH2 0x12F3 JUMPI PUSH2 0x12F2 PUSH2 0x11D0 JUMP JUMPDEST JUMPDEST DUP2 CALLDATALOAD PUSH2 0x1303 DUP5 DUP3 PUSH1 0x20 DUP7 ADD PUSH2 0x129E JUMP JUMPDEST SWAP2 POP POP SWAP3 SWAP2 POP POP JUMP JUMPDEST PUSH0 DUP2 SWAP1 POP SWAP2 SWAP1 POP JUMP JUMPDEST PUSH2 0x131E DUP2 PUSH2 0x130C JUMP JUMPDEST DUP2 EQ PUSH2 0x1328 JUMPI PUSH0 DUP1 REVERT JUMPDEST POP JUMP JUMPDEST PUSH0 DUP2 CALLDATALOAD SWAP1 POP PUSH2 0x1339 DUP2 PUSH2 0x1315 JUMP JUMPDEST SWAP3 SWAP2 POP POP JUMP JUMPDEST PUSH0 DUP1 PUSH0 DUP1 PUSH1 0x80 DUP6 DUP8 SUB SLT ISZERO PUSH2 0x1357 JUMPI PUSH2 0x1356 PUSH2 0x11C8 JUMP JUMPDEST JUMPDEST PUSH0 DUP6 ADD CALLDATALOAD PUSH8 0xFFFFFFFFFFFFFFFF DUP2 GT ISZERO PUSH2 0x1374 JUMPI PUSH2 0x1373 PUSH2 0x11CC JUMP JUMPDEST JUMPDEST PUSH2 0x1380 DUP8 DUP3 DUP9 ADD PUSH2 0x12DF JUMP JUMPDEST SWAP5 POP POP PUSH1 0x20 PUSH2 0x1391 DUP8 DUP3 DUP9 ADD PUSH2 0x132B JUMP JUMPDEST SWAP4 POP POP PUSH1 0x40 DUP6 ADD CALLDATALOAD PUSH8 0xFFFFFFFFFFFFFFFF DUP2 GT ISZERO PUSH2 0x13B2 JUMPI PUSH2 0x13B1 PUSH2 0x11CC JUMP JUMPDEST JUMPDEST PUSH2 0x13BE DUP8 DUP3 DUP9 ADD PUSH2 0x12DF JUMP JUMPDEST SWAP3 POP POP PUSH1 0x60 PUSH2 0x13CF DUP8 DUP3 DUP9 ADD PUSH2 0x132B JUMP JUMPDEST SWAP2 POP POP SWAP3 SWAP6 SWAP2 SWAP5 POP SWAP3 POP JUMP JUMPDEST PUSH0 PUSH1 0x20 DUP3 DUP5 SUB SLT ISZERO PUSH2 0x13F0 JUMPI PUSH2 0x13EF PUSH2 0x11C8 JUMP JUMPDEST JUMPDEST PUSH0 DUP3 ADD CALLDATALOAD PUSH8 0xFFFFFFFFFFFFFFFF DUP2 GT ISZERO PUSH2 0x140D JUMPI PUSH2 0x140C PUSH2 0x11CC JUMP JUMPDEST JUMPDEST PUSH2 0x1419 DUP5 DUP3 DUP6 ADD PUSH2 0x12DF JUMP JUMPDEST SWAP2 POP POP SWAP3 SWAP2 POP POP JUMP JUMPDEST PUSH0 DUP2 MLOAD SWAP1 POP SWAP2 SWAP1 POP JUMP JUMPDEST PUSH0 DUP3 DUP3 MSTORE PUSH1 0x20 DUP3 ADD SWAP1 POP SWAP3 SWAP2 POP POP JUMP JUMPDEST PUSH0 DUP2 SWAP1 POP PUSH1 0x20 DUP3 ADD SWAP1 POP SWAP2 SWAP1 POP JUMP JUMPDEST PUSH0 DUP2 MLOAD SWAP1 POP SWAP2 SWAP1 POP JUMP JUMPDEST PUSH0 DUP3 DUP3 MSTORE PUSH1 0x20 DUP3 ADD SWAP1 POP SWAP3 SWAP2 POP POP JUMP JUMPDEST DUP3 DUP2 DUP4 MCOPY PUSH0 DUP4 DUP4 ADD MSTORE POP POP POP JUMP JUMPDEST PUSH0 PUSH2 0x147D DUP3 PUSH2 0x144B JUMP JUMPDEST PUSH2 0x1487 DUP2 DUP6 PUSH2 0x1455 JUMP JUMPDEST SWAP4 POP PUSH2 0x1497 DUP2 DUP6 PUSH1 0x20 DUP7 ADD PUSH2 0x1465 JUMP JUMPDEST PUSH2 0x14A0 DUP2 PUSH2 0x11D8 JUMP JUMPDEST DUP5 ADD SWAP2 POP POP SWAP3 SWAP2 POP POP JUMP JUMPDEST PUSH2 0x14B4 DUP2 PUSH2 0x130C JUMP JUMPDEST DUP3 MSTORE POP POP JUMP JUMPDEST PUSH0 PUSH1 0x80 DUP4 ADD PUSH0 DUP4 ADD MLOAD DUP5 DUP3 SUB PUSH0 DUP7 ADD MSTORE PUSH2 0x14D4 DUP3 DUP3 PUSH2 0x1473 JUMP JUMPDEST SWAP2 POP POP PUSH1 0x20 DUP4 ADD MLOAD PUSH2 0x14E9 PUSH1 0x20 DUP7 ADD DUP3 PUSH2 0x14AB JUMP JUMPDEST POP PUSH1 0x40 DUP4 ADD MLOAD DUP5 DUP3 SUB PUSH1 0x40 DUP7 ADD MSTORE PUSH2 0x1501 DUP3 DUP3 PUSH2 0x1473 JUMP JUMPDEST SWAP2 POP POP PUSH1 0x60 DUP4 ADD MLOAD PUSH2 0x1516 PUSH1 0x60 DUP7 ADD DUP3 PUSH2 0x14AB JUMP JUMPDEST POP DUP1 SWAP2 POP POP SWAP3 SWAP2 POP POP JUMP JUMPDEST PUSH0 PUSH2 0x152C DUP4 DUP4 PUSH2 0x14BA JUMP JUMPDEST SWAP1 POP SWAP3 SWAP2 POP POP JUMP JUMPDEST PUSH0 PUSH1 0x20 DUP3 ADD SWAP1 POP SWAP2 SWAP1 POP JUMP JUMPDEST PUSH0 PUSH2 0x154A DUP3 PUSH2 0x1422 JUMP JUMPDEST PUSH2 0x1554 DUP2 DUP6 PUSH2 0x142C JUMP JUMPDEST SWAP4 POP DUP4 PUSH1 0x20 DUP3 MUL DUP6 ADD PUSH2 0x1566 DUP6 PUSH2 0x143C JUMP JUMPDEST DUP1 PUSH0 JUMPDEST DUP6 DUP2 LT ISZERO PUSH2 0x15A1 JUMPI DUP5 DUP5 SUB DUP10 MSTORE DUP2 MLOAD PUSH2 0x1582 DUP6 DUP3 PUSH2 0x1521 JUMP JUMPDEST SWAP5 POP PUSH2 0x158D DUP4 PUSH2 0x1534 JUMP JUMPDEST SWAP3 POP PUSH1 0x20 DUP11 ADD SWAP10 POP POP PUSH1 0x1 DUP2 ADD SWAP1 POP PUSH2 0x1569 JUMP JUMPDEST POP DUP3 SWAP8 POP DUP8 SWAP6 POP POP POP POP POP POP SWAP3 SWAP2 POP POP JUMP JUMPDEST PUSH0 PUSH1 0x20 DUP3 ADD SWAP1 POP DUP2 DUP2 SUB PUSH0 DUP4 ADD MSTORE PUSH2 0x15CB DUP2 DUP5 PUSH2 0x1540 JUMP JUMPDEST SWAP1 POP SWAP3 SWAP2 POP POP JUMP JUMPDEST PUSH0 DUP1 PUSH0 DUP1 PUSH1 0x80 DUP6 DUP8 SUB SLT ISZERO PUSH2 0x15EB JUMPI PUSH2 0x15EA PUSH2 0x11C8 JUMP JUMPDEST JUMPDEST PUSH0 DUP6 ADD CALLDATALOAD PUSH8 0xFFFFFFFFFFFFFFFF DUP2 GT ISZERO PUSH2 0x1608 JUMPI PUSH2 0x1607 PUSH2 0x11CC JUMP JUMPDEST JUMPDEST PUSH2 0x1614 DUP8 DUP3 DUP9 ADD PUSH2 0x12DF JUMP JUMPDEST SWAP5 POP POP PUSH1 0x20 DUP6 ADD CALLDATALOAD PUSH8 0xFFFFFFFFFFFFFFFF DUP2 GT ISZERO PUSH2 0x1635 JUMPI PUSH2 0x1634 PUSH2 0x11CC JUMP JUMPDEST JUMPDEST PUSH2 0x1641 DUP8 DUP3 DUP9 ADD PUSH2 0x12DF JUMP JUMPDEST SWAP4 POP POP PUSH1 0x40 PUSH2 0x1652 DUP8 DUP3 DUP9 ADD PUSH2 0x132B JUMP JUMPDEST SWAP3 POP POP PUSH1 0x60 PUSH2 0x1663 DUP8 DUP3 DUP9 ADD PUSH2 0x132B JUMP JUMPDEST SWAP2 POP POP SWAP3 SWAP6 SWAP2 SWAP5 POP SWAP3 POP JUMP JUMPDEST PUSH0 DUP2 MLOAD SWAP1 POP SWAP2 SWAP1 POP JUMP JUMPDEST PUSH0 DUP3 DUP3 MSTORE PUSH1 0x20 DUP3 ADD SWAP1 POP SWAP3 SWAP2 POP POP JUMP JUMPDEST PUSH0 DUP2 SWAP1 POP PUSH1 0x20 DUP3 ADD SWAP1 POP SWAP2 SWAP1 POP JUMP JUMPDEST PUSH0 PUSH1 0xE0 DUP4 ADD PUSH0 DUP4 ADD MLOAD DUP5 DUP3 SUB PUSH0 DUP7 ADD MSTORE PUSH2 0x16B2 DUP3 DUP3 PUSH2 0x1473 JUMP JUMPDEST SWAP2 POP POP PUSH1 0x20 DUP4 ADD MLOAD DUP5 DUP3 SUB PUSH1 0x20 DUP7 ADD MSTORE PUSH2 0x16CC DUP3 DUP3 PUSH2 0x1473 JUMP JUMPDEST SWAP2 POP POP PUSH1 0x40 DUP4 ADD MLOAD PUSH2 0x16E1 PUSH1 0x40 DUP7 ADD DUP3 PUSH2 0x14AB JUMP JUMPDEST POP PUSH1 0x60 DUP4 ADD MLOAD PUSH2 0x16F4 PUSH1 0x60 DUP7 ADD DUP3 PUSH2 0x14AB JUMP JUMPDEST POP PUSH1 0x80 DUP4 ADD MLOAD DUP5 DUP3 SUB PUSH1 0x80 DUP7 ADD MSTORE PUSH2 0x170C DUP3 DUP3 PUSH2 0x1473 JUMP JUMPDEST SWAP2 POP POP PUSH1 0xA0 DUP4 ADD MLOAD PUSH2 0x1721 PUSH1 0xA0 DUP7 ADD DUP3 PUSH2 0x14AB JUMP JUMPDEST POP PUSH1 0xC0 DUP4 ADD MLOAD PUSH2 0x1734 PUSH1 0xC0 DUP7 ADD DUP3 PUSH2 0x14AB JUMP JUMPDEST POP DUP1 SWAP2 POP POP SWAP3 SWAP2 POP POP JUMP JUMPDEST PUSH0 PUSH2 0x174A DUP4 DUP4 PUSH2 0x1698 JUMP JUMPDEST SWAP1 POP SWAP3 SWAP2 POP POP JUMP JUMPDEST PUSH0 PUSH1 0x20 DUP3 ADD SWAP1 POP SWAP2 SWAP1 POP JUMP JUMPDEST PUSH0 PUSH2 0x1768 DUP3 PUSH2 0x166F JUMP JUMPDEST PUSH2 0x1772 DUP2 DUP6 PUSH2 0x1679 JUMP JUMPDEST SWAP4 POP DUP4 PUSH1 0x20 DUP3 MUL DUP6 ADD PUSH2 0x1784 DUP6 PUSH2 0x1689 JUMP JUMPDEST DUP1 PUSH0 JUMPDEST DUP6 DUP2 LT ISZERO PUSH2 0x17BF JUMPI DUP5 DUP5 SUB DUP10 MSTORE DUP2 MLOAD PUSH2 0x17A0 DUP6 DUP3 PUSH2 0x173F JUMP JUMPDEST SWAP5 POP PUSH2 0x17AB DUP4 PUSH2 0x1752 JUMP JUMPDEST SWAP3 POP PUSH1 0x20 DUP11 ADD SWAP10 POP POP PUSH1 0x1 DUP2 ADD SWAP1 POP PUSH2 0x1787 JUMP JUMPDEST POP DUP3 SWAP8 POP DUP8 SWAP6 POP POP POP POP POP POP SWAP3 SWAP2 POP POP JUMP JUMPDEST PUSH0 PUSH1 0x20 DUP3 ADD SWAP1 POP DUP2 DUP2 SUB PUSH0 DUP4 ADD MSTORE PUSH2 0x17E9 DUP2 DUP5 PUSH2 0x175E JUMP JUMPDEST SWAP1 POP SWAP3 SWAP2 POP POP JUMP JUMPDEST PUSH32 0x4E487B7100000000000000000000000000000000000000000000000000000000 PUSH0 MSTORE PUSH1 0x32 PUSH1 0x4 MSTORE PUSH1 0x24 PUSH0 REVERT JUMPDEST PUSH32 0x4E487B7100000000000000000000000000000000000000000000000000000000 PUSH0 MSTORE PUSH1 0x22 PUSH1 0x4 MSTORE PUSH1 0x24 PUSH0 REVERT JUMPDEST PUSH0 PUSH1 0x2 DUP3 DIV SWAP1 POP PUSH1 0x1 DUP3 AND DUP1 PUSH2 0x1862 JUMPI PUSH1 0x7F DUP3 AND SWAP2 POP JUMPDEST PUSH1 0x20 DUP3 LT DUP2 SUB PUSH2 0x1875 JUMPI PUSH2 0x1874 PUSH2 0x181E JUMP JUMPDEST JUMPDEST POP SWAP2 SWAP1 POP JUMP JUMPDEST PUSH0 DUP2 SWAP1 POP SWAP3 SWAP2 POP POP JUMP JUMPDEST PUSH0 DUP2 SWAP1 POP DUP2 PUSH0 MSTORE PUSH1 0x20 PUSH0 KECCAK256 SWAP1 POP SWAP2 SWAP1 POP JUMP JUMPDEST PUSH0 DUP2 SLOAD PUSH2 0x18A3 DUP2 PUSH2 0x184B JUMP JUMPDEST PUSH2 0x18AD DUP2 DUP7 PUSH2 0x187B JUMP JUMPDEST SWAP5 POP PUSH1 0x1 DUP3 AND PUSH0 DUP2 EQ PUSH2 0x18C7 JUMPI PUSH1 0x1 DUP2 EQ PUSH2 0x18DC JUMPI PUSH2 0x190E JUMP JUMPDEST PUSH1 0xFF NOT DUP4 AND DUP7 MSTORE DUP2 ISZERO ISZERO DUP3 MUL DUP7 ADD SWAP4 POP PUSH2 0x190E JUMP JUMPDEST PUSH2 0x18E5 DUP6 PUSH2 0x1885 JUMP JUMPDEST PUSH0 JUMPDEST DUP4 DUP2 LT ISZERO PUSH2 0x1906 JUMPI DUP2 SLOAD DUP2 DUP10 ADD MSTORE PUSH1 0x1 DUP3 ADD SWAP2 POP PUSH1 0x20 DUP2 ADD SWAP1 POP PUSH2 0x18E7 JUMP JUMPDEST DUP4 DUP9 ADD SWAP6 POP POP POP JUMPDEST POP POP POP SWAP3 SWAP2 POP POP JUMP JUMPDEST PUSH0 PUSH2 0x1922 DUP3 DUP5 PUSH2 0x1897 JUMP JUMPDEST SWAP2 POP DUP2 SWAP1 POP SWAP3 SWAP2 POP POP JUMP JUMPDEST PUSH0 DUP3 DUP3 MSTORE PUSH1 0x20 DUP3 ADD SWAP1 POP SWAP3 SWAP2 POP POP JUMP JUMPDEST PUSH0 DUP2 SWAP1 POP DUP2 PUSH0 MSTORE PUSH1 0x20 PUSH0 KECCAK256 SWAP1 POP SWAP2 SWAP1 POP JUMP JUMPDEST PUSH0 DUP2 SLOAD PUSH2 0x195B DUP2 PUSH2 0x184B JUMP JUMPDEST PUSH2 0x1965 DUP2 DUP7 PUSH2 0x192D JUMP JUMPDEST SWAP5 POP PUSH1 0x1 DUP3 AND PUSH0 DUP2 EQ PUSH2 0x197F JUMPI PUSH1 0x1 DUP2 EQ PUSH2 0x1995 JUMPI PUSH2 0x19C7 JUMP JUMPDEST PUSH1 0xFF NOT DUP4 AND DUP7 MSTORE DUP2 ISZERO ISZERO PUSH1 0x20 MUL DUP7 ADD SWAP4 POP PUSH2 0x19C7 JUMP JUMPDEST PUSH2 0x199E DUP6 PUSH2 0x193D JUMP JUMPDEST PUSH0 JUMPDEST DUP4 DUP2 LT ISZERO PUSH2 0x19BF JUMPI DUP2 SLOAD DUP2 DUP10 ADD MSTORE PUSH1 0x1 DUP3 ADD SWAP2 POP PUSH1 0x20 DUP2 ADD SWAP1 POP PUSH2 0x19A0 JUMP JUMPDEST DUP1 DUP9 ADD SWAP6 POP POP POP JUMPDEST POP POP POP SWAP3 SWAP2 POP POP JUMP JUMPDEST PUSH2 0x19D9 DUP2 PUSH2 0x130C JUMP JUMPDEST DUP3 MSTORE POP POP JUMP JUMPDEST PUSH0 PUSH1 0x80 DUP3 ADD SWAP1 POP DUP2 DUP2 SUB PUSH0 DUP4 ADD MSTORE PUSH2 0x19F7 DUP2 DUP8 PUSH2 0x194F JUMP JUMPDEST SWAP1 POP PUSH2 0x1A06 PUSH1 0x20 DUP4 ADD DUP7 PUSH2 0x19D0 JUMP JUMPDEST DUP2 DUP2 SUB PUSH1 0x40 DUP4 ADD MSTORE PUSH2 0x1A18 DUP2 DUP6 PUSH2 0x194F JUMP JUMPDEST SWAP1 POP PUSH2 0x1A27 PUSH1 0x60 DUP4 ADD DUP5 PUSH2 0x19D0 JUMP JUMPDEST SWAP6 SWAP5 POP POP POP POP POP JUMP JUMPDEST PUSH0 PUSH1 0x20 PUSH1 0x1F DUP4 ADD DIV SWAP1 POP SWAP2 SWAP1 POP JUMP JUMPDEST PUSH0 DUP3 DUP3 SHL SWAP1 POP SWAP3 SWAP2 POP POP JUMP JUMPDEST PUSH0 PUSH1 0x8 DUP4 MUL PUSH2 0x1A7A PUSH32 0xFFFFFFFFFFFFFFFFFFFFFFFFFFFFFFFFFFFFFFFFFFFFFFFFFFFFFFFFFFFFFFFF DUP3 PUSH2 0x1A3F JUMP JUMPDEST PUSH2 0x1A84 DUP7 DUP4 PUSH2 0x1A3F JUMP JUMPDEST SWAP6 POP DUP1 NOT DUP5 AND SWAP4 POP DUP1 DUP7 AND DUP5 OR SWAP3 POP POP POP SWAP4 SWAP3 POP POP POP JUMP JUMPDEST PUSH0 DUP2 SWAP1 POP SWAP2 SWAP1 POP JUMP JUMPDEST PUSH0 PUSH2 0x1ABF PUSH2 0x1ABA PUSH2 0x1AB5 DUP5 PUSH2 0x130C JUMP JUMPDEST PUSH2 0x1A9C JUMP JUMPDEST PUSH2 0x130C JUMP JUMPDEST SWAP1 POP SWAP2 SWAP1 POP JUMP JUMPDEST PUSH0 DUP2 SWAP1 POP SWAP2 SWAP1 POP JUMP JUMPDEST PUSH2 0x1AD8 DUP4 PUSH2 0x1AA5 JUMP JUMPDEST PUSH2 0x1AEC PUSH2 0x1AE4 DUP3 PUSH2 0x1AC6 JUMP JUMPDEST DUP5 DUP5 SLOAD PUSH2 0x1A4B JUMP JUMPDEST DUP3 SSTORE POP POP POP POP JUMP JUMPDEST PUSH0 SWAP1 JUMP JUMPDEST PUSH2 0x1B00 PUSH2 0x1AF4 JUMP JUMPDEST PUSH2 0x1B0B DUP2 DUP5 DUP5 PUSH2 0x1ACF JUMP JUMPDEST POP POP POP JUMP JUMPDEST JUMPDEST DUP2 DUP2 LT ISZERO PUSH2 0x1B2E JUMPI PUSH2 0x1B23 PUSH0 DUP3 PUSH2 0x1AF8 JUMP JUMPDEST PUSH1 0x1 DUP2 ADD SWAP1 POP PUSH2 0x1B11 JUMP JUMPDEST POP POP JUMP JUMPDEST PUSH1 0x1F DUP3 GT ISZERO PUSH2 0x1B73 JUMPI PUSH2 0x1B44 DUP2 PUSH2 0x193D JUMP JUMPDEST PUSH2 0x1B4D DUP5 PUSH2 0x1A30 JUMP JUMPDEST DUP2 ADD PUSH1 0x20 DUP6 LT ISZERO PUSH2 0x1B5C JUMPI DUP2 SWAP1 POP JUMPDEST PUSH2 0x1B70 PUSH2 0x1B68 DUP6 PUSH2 0x1A30 JUMP JUMPDEST DUP4 ADD DUP3 PUSH2 0x1B10 JUMP JUMPDEST POP POP JUMPDEST POP POP POP JUMP JUMPDEST PUSH0 DUP3 DUP3 SHR SWAP1 POP SWAP3 SWAP2 POP POP JUMP JUMPDEST PUSH0 PUSH2 0x1B93 PUSH0 NOT DUP5 PUSH1 0x8 MUL PUSH2 0x1B78 JUMP JUMPDEST NOT DUP1 DUP4 AND SWAP2 POP POP SWAP3 SWAP2 POP POP JUMP JUMPDEST PUSH0 PUSH2 0x1BAB DUP4 DUP4 PUSH2 0x1B84 JUMP JUMPDEST SWAP2 POP DUP3 PUSH1 0x2 MUL DUP3 OR SWAP1 POP SWAP3 SWAP2 POP POP JUMP JUMPDEST PUSH2 0x1BC4 DUP3 PUSH2 0x144B JUMP JUMPDEST PUSH8 0xFFFFFFFFFFFFFFFF DUP2 GT ISZERO PUSH2 0x1BDD JUMPI PUSH2 0x1BDC PUSH2 0x11E8 JUMP JUMPDEST JUMPDEST PUSH2 0x1BE7 DUP3 SLOAD PUSH2 0x184B JUMP JUMPDEST PUSH2 0x1BF2 DUP3 DUP3 DUP6 PUSH2 0x1B32 JUMP JUMPDEST PUSH0 PUSH1 0x20 SWAP1 POP PUSH1 0x1F DUP4 GT PUSH1 0x1 DUP2 EQ PUSH2 0x1C23 JUMPI PUSH0 DUP5 ISZERO PUSH2 0x1C11 JUMPI DUP3 DUP8 ADD MLOAD SWAP1 POP JUMPDEST PUSH2 0x1C1B DUP6 DUP3 PUSH2 0x1BA0 JUMP JUMPDEST DUP7 SSTORE POP PUSH2 0x1C82 JUMP JUMPDEST PUSH1 0x1F NOT DUP5 AND PUSH2 0x1C31 DUP7 PUSH2 0x193D JUMP JUMPDEST PUSH0 JUMPDEST DUP3 DUP2 LT ISZERO PUSH2 0x1C58 JUMPI DUP5 DUP10 ADD MLOAD DUP3 SSTORE PUSH1 0x1 DUP3 ADD SWAP2 POP PUSH1 0x20 DUP6 ADD SWAP5 POP PUSH1 0x20 DUP2 ADD SWAP1 POP PUSH2 0x1C33 JUMP JUMPDEST DUP7 DUP4 LT ISZERO PUSH2 0x1C75 JUMPI DUP5 DUP10 ADD MLOAD PUSH2 0x1C71 PUSH1 0x1F DUP10 AND DUP3 PUSH2 0x1B84 JUMP JUMPDEST DUP4 SSTORE POP JUMPDEST PUSH1 0x1 PUSH1 0x2 DUP9 MUL ADD DUP9 SSTORE POP POP POP JUMPDEST POP POP POP POP POP POP JUMP JUMPDEST PUSH0 DUP2 SWAP1 POP SWAP3 SWAP2 POP POP JUMP JUMPDEST PUSH0 PUSH2 0x1C9E DUP3 PUSH2 0x144B JUMP JUMPDEST PUSH2 0x1CA8 DUP2 DUP6 PUSH2 0x1C8A JUMP JUMPDEST SWAP4 POP PUSH2 0x1CB8 DUP2 DUP6 PUSH1 0x20 DUP7 ADD PUSH2 0x1465 JUMP JUMPDEST DUP1 DUP5 ADD SWAP2 POP POP SWAP3 SWAP2 POP POP JUMP JUMPDEST PUSH0 PUSH2 0x1CCF DUP3 DUP5 PUSH2 0x1C94 JUMP JUMPDEST SWAP2 POP DUP2 SWAP1 POP SWAP3 SWAP2 POP POP JUMP JUMPDEST PUSH0 DUP2 SWAP1 POP SWAP2 SWAP1 POP JUMP JUMPDEST PUSH0 DUP2 SWAP1 POP SWAP2 SWAP1 POP JUMP JUMPDEST PUSH2 0x1CFD PUSH2 0x1CF8 DUP3 PUSH2 0x1CDA JUMP JUMPDEST PUSH2 0x1CE3 JUMP JUMPDEST DUP3 MSTORE POP POP JUMP JUMPDEST PUSH0 PUSH2 0x1D0E DUP3 DUP5 PUSH2 0x1CEC JUMP JUMPDEST PUSH1 0x20 DUP3 ADD SWAP2 POP DUP2 SWAP1 POP SWAP3 SWAP2 POP POP JUMP JUMPDEST PUSH32 0x496E636F72726563742070617373776F72642100000000000000000000000000 PUSH0 DUP3 ADD MSTORE POP JUMP JUMPDEST PUSH0 PUSH2 0x1D51 PUSH1 0x13 DUP4 PUSH2 0x192D JUMP JUMPDEST SWAP2 POP PUSH2 0x1D5C DUP3 PUSH2 0x1D1D JUMP JUMPDEST PUSH1 0x20 DUP3 ADD SWAP1 POP SWAP2 SWAP1 POP JUMP JUMPDEST PUSH0 PUSH1 0x20 DUP3 ADD SWAP1 POP DUP2 DUP2 SUB PUSH0 DUP4 ADD MSTORE PUSH2 0x1D7E DUP2 PUSH2 0x1D45 JUMP JUMPDEST SWAP1 POP SWAP2 SWAP1 POP JUMP INVALID LOG2 PUSH5 0x6970667358 0x22 SLT KECCAK256 MCOPY NOT 0xD8 PUSH12 0xF3DDD125608C002729B32706 0x4E DUP12 LOG4 CALLCODE JUMPDEST PUSH17 0xF1BCE2F1A55E13185F8964736F6C634300 ADDMOD BYTE STOP CALLER "
				},
				"gasEstimates": {
					"creation": {
						"codeDepositCost": "1522200",
						"executionCost": "infinite",
						"totalCost": "infinite"
					},
					"external": {
						"findMatchORaddDonor(string,uint256,string,uint256)": "infinite",
						"findMatchORaddRecipient(string,string,uint256,uint256)": "infinite",
						"showDonors(string)": "infinite",
						"showMatches(string)": "infinite",
						"showRecipient(string)": "infinite"
					}
				},
				"methodIdentifiers": {
					"findMatchORaddDonor(string,uint256,string,uint256)": "37bee772",
					"findMatchORaddRecipient(string,string,uint256,uint256)": "9a900a4d",
					"showDonors(string)": "ae9ec457",
					"showMatches(string)": "c005a930",
					"showRecipient(string)": "963e9f1f"
				}
			},
			"storageLayout": {
				"storage": [
					{
						"astId": 3,
						"contract": "contracts/main.sol:main",
						"label": "donorPass",
						"offset": 0,
						"slot": "0",
						"type": "t_bytes32"
					},
					{
						"astId": 5,
						"contract": "contracts/main.sol:main",
						"label": "recipientPass",
						"offset": 0,
						"slot": "1",
						"type": "t_bytes32"
					},
					{
						"astId": 7,
						"contract": "contracts/main.sol:main",
						"label": "matchedPass",
						"offset": 0,
						"slot": "2",
						"type": "t_bytes32"
					},
					{
						"astId": 188,
						"contract": "contracts/main.sol:main",
						"label": "donorList",
						"offset": 0,
						"slot": "3",
						"type": "t_array(t_struct(orgdet)149_storage)dyn_storage"
					},
					{
						"astId": 192,
						"contract": "contracts/main.sol:main",
						"label": "recipientList",
						"offset": 0,
						"slot": "4",
						"type": "t_array(t_struct(orgdet)149_storage)dyn_storage"
					},
					{
						"astId": 196,
						"contract": "contracts/main.sol:main",
						"label": "matchedList",
						"offset": 0,
						"slot": "5",
						"type": "t_array(t_struct(matched_orgdet)164_storage)dyn_storage"
					},
					{
						"astId": 313,
						"contract": "contracts/main.sol:main",
						"label": "compatMatrix",
						"offset": 0,
						"slot": "6",
						"type": "t_array(t_array(t_uint256)10_storage)10_storage"
					},
					{
						"astId": 316,
						"contract": "contracts/main.sol:main",
						"label": "posRecBT",
						"offset": 0,
						"slot": "106",
						"type": "t_array(t_uint256)dyn_storage"
					},
					{
						"astId": 319,
						"contract": "contracts/main.sol:main",
						"label": "posDonBT",
						"offset": 0,
						"slot": "107",
						"type": "t_array(t_uint256)dyn_storage"
					}
				],
				"types": {
					"t_array(t_array(t_uint256)10_storage)10_storage": {
						"base": "t_array(t_uint256)10_storage",
						"encoding": "inplace",
						"label": "uint256[10][10]",
						"numberOfBytes": "3200"
					},
					"t_array(t_struct(matched_orgdet)164_storage)dyn_storage": {
						"base": "t_struct(matched_orgdet)164_storage",
						"encoding": "dynamic_array",
						"label": "struct main.matched_orgdet[]",
						"numberOfBytes": "32"
					},
					"t_array(t_struct(orgdet)149_storage)dyn_storage": {
						"base": "t_struct(orgdet)149_storage",
						"encoding": "dynamic_array",
						"label": "struct main.orgdet[]",
						"numberOfBytes": "32"
					},
					"t_array(t_uint256)10_storage": {
						"base": "t_uint256",
						"encoding": "inplace",
						"label": "uint256[10]",
						"numberOfBytes": "320"
					},
					"t_array(t_uint256)dyn_storage": {
						"base": "t_uint256",
						"encoding": "dynamic_array",
						"label": "uint256[]",
						"numberOfBytes": "32"
					},
					"t_bytes32": {
						"encoding": "inplace",
						"label": "bytes32",
						"numberOfBytes": "32"
					},
					"t_string_storage": {
						"encoding": "bytes",
						"label": "string",
						"numberOfBytes": "32"
					},
					"t_struct(matched_orgdet)164_storage": {
						"encoding": "inplace",
						"label": "struct main.matched_orgdet",
						"members": [
							{
								"astId": 151,
								"contract": "contracts/main.sol:main",
								"label": "donor",
								"offset": 0,
								"slot": "0",
								"type": "t_string_storage"
							},
							{
								"astId": 153,
								"contract": "contracts/main.sol:main",
								"label": "recipient",
								"offset": 0,
								"slot": "1",
								"type": "t_string_storage"
							},
							{
								"astId": 155,
								"contract": "contracts/main.sol:main",
								"label": "donorbloodtype",
								"offset": 0,
								"slot": "2",
								"type": "t_uint256"
							},
							{
								"astId": 157,
								"contract": "contracts/main.sol:main",
								"label": "recipientbloodtype",
								"offset": 0,
								"slot": "3",
								"type": "t_uint256"
							},
							{
								"astId": 159,
								"contract": "contracts/main.sol:main",
								"label": "organ",
								"offset": 0,
								"slot": "4",
								"type": "t_string_storage"
							},
							{
								"astId": 161,
								"contract": "contracts/main.sol:main",
								"label": "donorquantity",
								"offset": 0,
								"slot": "5",
								"type": "t_uint256"
							},
							{
								"astId": 163,
								"contract": "contracts/main.sol:main",
								"label": "recipientquantity",
								"offset": 0,
								"slot": "6",
								"type": "t_uint256"
							}
						],
						"numberOfBytes": "224"
					},
					"t_struct(orgdet)149_storage": {
						"encoding": "inplace",
						"label": "struct main.orgdet",
						"members": [
							{
								"astId": 142,
								"contract": "contracts/main.sol:main",
								"label": "owner",
								"offset": 0,
								"slot": "0",
								"type": "t_string_storage"
							},
							{
								"astId": 144,
								"contract": "contracts/main.sol:main",
								"label": "bloodtype",
								"offset": 0,
								"slot": "1",
								"type": "t_uint256"
							},
							{
								"astId": 146,
								"contract": "contracts/main.sol:main",
								"label": "organ",
								"offset": 0,
								"slot": "2",
								"type": "t_string_storage"
							},
							{
								"astId": 148,
								"contract": "contracts/main.sol:main",
								"label": "quantity",
								"offset": 0,
								"slot": "3",
								"type": "t_uint256"
							}
						],
						"numberOfBytes": "128"
					},
					"t_uint256": {
						"encoding": "inplace",
						"label": "uint256",
						"numberOfBytes": "32"
					}
				}
			},
			"userdoc": {
				"kind": "user",
				"methods": {},
				"version": 1
			}
		}
	}
}