{
	"contracts/metamask-login.sol": {
		"LoginSystem": {
			"abi": [
				{
					"anonymous": false,
					"inputs": [
						{
							"indexed": false,
							"internalType": "address",
							"name": "user",
							"type": "address"
						}
					],
					"name": "UserRegistered",
					"type": "event"
				},
				{
					"inputs": [
						{
							"internalType": "address",
							"name": "user",
							"type": "address"
						},
						{
							"internalType": "uint256",
							"name": "nonce",
							"type": "uint256"
						}
					],
					"name": "getMessageHash",
					"outputs": [
						{
							"internalType": "bytes32",
							"name": "",
							"type": "bytes32"
						}
					],
					"stateMutability": "pure",
					"type": "function"
				},
				{
					"inputs": [
						{
							"internalType": "bytes32",
							"name": "messageHash",
							"type": "bytes32"
						},
						{
							"internalType": "bytes",
							"name": "signature",
							"type": "bytes"
						}
					],
					"name": "recoverSigner",
					"outputs": [
						{
							"internalType": "address",
							"name": "",
							"type": "address"
						}
					],
					"stateMutability": "pure",
					"type": "function"
				},
				{
					"inputs": [
						{
							"internalType": "address",
							"name": "userAddress",
							"type": "address"
						}
					],
					"name": "register",
					"outputs": [],
					"stateMutability": "nonpayable",
					"type": "function"
				},
				{
					"inputs": [
						{
							"internalType": "address",
							"name": "",
							"type": "address"
						}
					],
					"name": "registeredUsers",
					"outputs": [
						{
							"internalType": "bool",
							"name": "",
							"type": "bool"
						}
					],
					"stateMutability": "view",
					"type": "function"
				},
				{
					"inputs": [
						{
							"internalType": "bytes",
							"name": "sig",
							"type": "bytes"
						}
					],
					"name": "splitSignature",
					"outputs": [
						{
							"internalType": "uint8",
							"name": "v",
							"type": "uint8"
						},
						{
							"internalType": "bytes32",
							"name": "r",
							"type": "bytes32"
						},
						{
							"internalType": "bytes32",
							"name": "s",
							"type": "bytes32"
						}
					],
					"stateMutability": "pure",
					"type": "function"
				},
				{
					"inputs": [
						{
							"internalType": "address",
							"name": "user",
							"type": "address"
						},
						{
							"internalType": "uint256",
							"name": "nonce",
							"type": "uint256"
						},
						{
							"internalType": "bytes",
							"name": "signature",
							"type": "bytes"
						}
					],
					"name": "verifyLogin",
					"outputs": [
						{
							"internalType": "bool",
							"name": "",
							"type": "bool"
						}
					],
					"stateMutability": "pure",
					"type": "function"
				}
			],
			"devdoc": {
				"kind": "dev",
				"methods": {},
				"version": 1
			},
			"evm": {
				"assembly": "    /* \"contracts/metamask-login.sol\":61:1429  contract LoginSystem {... */\n  mstore(0x40, 0x80)\n  callvalue\n  dup1\n  iszero\n  tag_1\n  jumpi\n  0x00\n  dup1\n  revert\ntag_1:\n  pop\n  dataSize(sub_0)\n  dup1\n  dataOffset(sub_0)\n  0x00\n  codecopy\n  0x00\n  return\nstop\n\nsub_0: assembly {\n        /* \"contracts/metamask-login.sol\":61:1429  contract LoginSystem {... */\n      mstore(0x40, 0x80)\n      callvalue\n      dup1\n      iszero\n      tag_1\n      jumpi\n      0x00\n      dup1\n      revert\n    tag_1:\n      pop\n      jumpi(tag_2, lt(calldatasize, 0x04))\n      shr(0xe0, calldataload(0x00))\n      dup1\n      0x0e50cee5\n      eq\n      tag_3\n      jumpi\n      dup1\n      0x4420e486\n      eq\n      tag_4\n      jumpi\n      dup1\n      0x512c91df\n      eq\n      tag_5\n      jumpi\n      dup1\n      0x97aba7f9\n      eq\n      tag_6\n      jumpi\n      dup1\n      0xa7bb5803\n      eq\n      tag_7\n      jumpi\n      dup1\n      0xc28eae62\n      eq\n      tag_8\n      jumpi\n    tag_2:\n      0x00\n      dup1\n      revert\n        /* \"contracts/metamask-login.sol\":89:136  mapping(address => bool) public registeredUsers */\n    tag_3:\n      tag_9\n      0x04\n      dup1\n      calldatasize\n      sub\n      dup2\n      add\n      swap1\n      tag_10\n      swap2\n      swap1\n      tag_11\n      jump\t// in\n    tag_10:\n      tag_12\n      jump\t// in\n    tag_9:\n      mload(0x40)\n      tag_13\n      swap2\n      swap1\n      tag_14\n      jump\t// in\n    tag_13:\n      mload(0x40)\n      dup1\n      swap2\n      sub\n      swap1\n      return\n        /* \"contracts/metamask-login.sol\":188:408  function register(address userAddress) public {... */\n    tag_4:\n      tag_15\n      0x04\n      dup1\n      calldatasize\n      sub\n      dup2\n      add\n      swap1\n      tag_16\n      swap2\n      swap1\n      tag_11\n      jump\t// in\n    tag_16:\n      tag_17\n      jump\t// in\n    tag_15:\n      stop\n        /* \"contracts/metamask-login.sol\":710:859  function getMessageHash(address user, uint256 nonce) public pure returns (bytes32) {... */\n    tag_5:\n      tag_18\n      0x04\n      dup1\n      calldatasize\n      sub\n      dup2\n      add\n      swap1\n      tag_19\n      swap2\n      swap1\n      tag_20\n      jump\t// in\n    tag_19:\n      tag_21\n      jump\t// in\n    tag_18:\n      mload(0x40)\n      tag_22\n      swap2\n      swap1\n      tag_23\n      jump\t// in\n    tag_22:\n      mload(0x40)\n      dup1\n      swap2\n      sub\n      swap1\n      return\n        /* \"contracts/metamask-login.sol\":867:1092  function recoverSigner(bytes32 messageHash, bytes memory signature) public pure returns (address) {... */\n    tag_6:\n      tag_24\n      0x04\n      dup1\n      calldatasize\n      sub\n      dup2\n      add\n      swap1\n      tag_25\n      swap2\n      swap1\n      tag_26\n      jump\t// in\n    tag_25:\n      tag_27\n      jump\t// in\n    tag_24:\n      mload(0x40)\n      tag_28\n      swap2\n      swap1\n      tag_29\n      jump\t// in\n    tag_28:\n      mload(0x40)\n      dup1\n      swap2\n      sub\n      swap1\n      return\n        /* \"contracts/metamask-login.sol\":1100:1426  function splitSignature(bytes memory sig) public pure returns (uint8 v, bytes32 r, bytes32 s) {... */\n    tag_7:\n      tag_30\n      0x04\n      dup1\n      calldatasize\n      sub\n      dup2\n      add\n      swap1\n      tag_31\n      swap2\n      swap1\n      tag_32\n      jump\t// in\n    tag_31:\n      tag_33\n      jump\t// in\n    tag_30:\n      mload(0x40)\n      tag_34\n      swap4\n      swap3\n      swap2\n      swap1\n      tag_35\n      jump\t// in\n    tag_34:\n      mload(0x40)\n      dup1\n      swap2\n      sub\n      swap1\n      return\n        /* \"contracts/metamask-login.sol\":416:702  function verifyLogin(address user, uint256 nonce, bytes memory signature) public pure returns (bool) {... */\n    tag_8:\n      tag_36\n      0x04\n      dup1\n      calldatasize\n      sub\n      dup2\n      add\n      swap1\n      tag_37\n      swap2\n      swap1\n      tag_38\n      jump\t// in\n    tag_37:\n      tag_39\n      jump\t// in\n    tag_36:\n      mload(0x40)\n      tag_40\n      swap2\n      swap1\n      tag_14\n      jump\t// in\n    tag_40:\n      mload(0x40)\n      dup1\n      swap2\n      sub\n      swap1\n      return\n        /* \"contracts/metamask-login.sol\":89:136  mapping(address => bool) public registeredUsers */\n    tag_12:\n      mstore(0x20, 0x00)\n      dup1\n      0x00\n      mstore\n      keccak256(0x00, 0x40)\n      0x00\n      swap2\n      pop\n      sload\n      swap1\n      0x0100\n      exp\n      swap1\n      div\n      0xff\n      and\n      dup2\n      jump\t// out\n        /* \"contracts/metamask-login.sol\":188:408  function register(address userAddress) public {... */\n    tag_17:\n        /* \"contracts/metamask-login.sol\":254:269  registeredUsers */\n      0x00\n        /* \"contracts/metamask-login.sol\":254:282  registeredUsers[userAddress] */\n      dup1\n        /* \"contracts/metamask-login.sol\":270:281  userAddress */\n      dup3\n        /* \"contracts/metamask-login.sol\":254:282  registeredUsers[userAddress] */\n      0xffffffffffffffffffffffffffffffffffffffff\n      and\n      0xffffffffffffffffffffffffffffffffffffffff\n      and\n      dup2\n      mstore\n      0x20\n      add\n      swap1\n      dup2\n      mstore\n      0x20\n      add\n      0x00\n      keccak256\n      0x00\n      swap1\n      sload\n      swap1\n      0x0100\n      exp\n      swap1\n      div\n      0xff\n      and\n        /* \"contracts/metamask-login.sol\":253:282  !registeredUsers[userAddress] */\n      iszero\n        /* \"contracts/metamask-login.sol\":245:311  require(!registeredUsers[userAddress], \"User already registered.\") */\n      tag_42\n      jumpi\n      mload(0x40)\n      0x08c379a000000000000000000000000000000000000000000000000000000000\n      dup2\n      mstore\n      0x04\n      add\n      tag_43\n      swap1\n      tag_44\n      jump\t// in\n    tag_43:\n      mload(0x40)\n      dup1\n      swap2\n      sub\n      swap1\n      revert\n    tag_42:\n        /* \"contracts/metamask-login.sol\":353:357  true */\n      0x01\n        /* \"contracts/metamask-login.sol\":322:337  registeredUsers */\n      0x00\n        /* \"contracts/metamask-login.sol\":322:350  registeredUsers[userAddress] */\n      dup1\n        /* \"contracts/metamask-login.sol\":338:349  userAddress */\n      dup4\n        /* \"contracts/metamask-login.sol\":322:350  registeredUsers[userAddress] */\n      0xffffffffffffffffffffffffffffffffffffffff\n      and\n      0xffffffffffffffffffffffffffffffffffffffff\n      and\n      dup2\n      mstore\n      0x20\n      add\n      swap1\n      dup2\n      mstore\n      0x20\n      add\n      0x00\n      keccak256\n      0x00\n        /* \"contracts/metamask-login.sol\":322:357  registeredUsers[userAddress] = true */\n      0x0100\n      exp\n      dup2\n      sload\n      dup2\n      0xff\n      mul\n      not\n      and\n      swap1\n      dup4\n      iszero\n      iszero\n      mul\n      or\n      swap1\n      sstore\n      pop\n        /* \"contracts/metamask-login.sol\":373:400  UserRegistered(userAddress) */\n      0x54db7a5cb4735e1aac1f53db512d3390390bb6637bd30ad4bf9fc98667d9b9b9\n        /* \"contracts/metamask-login.sol\":388:399  userAddress */\n      dup2\n        /* \"contracts/metamask-login.sol\":373:400  UserRegistered(userAddress) */\n      mload(0x40)\n      tag_45\n      swap2\n      swap1\n      tag_29\n      jump\t// in\n    tag_45:\n      mload(0x40)\n      dup1\n      swap2\n      sub\n      swap1\n      log1\n        /* \"contracts/metamask-login.sol\":188:408  function register(address userAddress) public {... */\n      pop\n      jump\t// out\n        /* \"contracts/metamask-login.sol\":710:859  function getMessageHash(address user, uint256 nonce) public pure returns (bytes32) {... */\n    tag_21:\n        /* \"contracts/metamask-login.sol\":784:791  bytes32 */\n      0x00\n        /* \"contracts/metamask-login.sol\":838:842  user */\n      dup3\n        /* \"contracts/metamask-login.sol\":844:849  nonce */\n      dup3\n        /* \"contracts/metamask-login.sol\":821:850  abi.encodePacked(user, nonce) */\n      add(0x20, mload(0x40))\n      tag_47\n      swap3\n      swap2\n      swap1\n      tag_48\n      jump\t// in\n    tag_47:\n      mload(0x40)\n      0x20\n      dup2\n      dup4\n      sub\n      sub\n      dup2\n      mstore\n      swap1\n      0x40\n      mstore\n        /* \"contracts/metamask-login.sol\":811:851  keccak256(abi.encodePacked(user, nonce)) */\n      dup1\n      mload\n      swap1\n      0x20\n      add\n      keccak256\n        /* \"contracts/metamask-login.sol\":804:851  return keccak256(abi.encodePacked(user, nonce)) */\n      swap1\n      pop\n        /* \"contracts/metamask-login.sol\":710:859  function getMessageHash(address user, uint256 nonce) public pure returns (bytes32) {... */\n      swap3\n      swap2\n      pop\n      pop\n      jump\t// out\n        /* \"contracts/metamask-login.sol\":867:1092  function recoverSigner(bytes32 messageHash, bytes memory signature) public pure returns (address) {... */\n    tag_27:\n        /* \"contracts/metamask-login.sol\":956:963  address */\n      0x00\n        /* \"contracts/metamask-login.sol\":977:984  uint8 v */\n      dup1\n        /* \"contracts/metamask-login.sol\":986:995  bytes32 r */\n      0x00\n        /* \"contracts/metamask-login.sol\":997:1006  bytes32 s */\n      dup1\n        /* \"contracts/metamask-login.sol\":1010:1035  splitSignature(signature) */\n      tag_50\n        /* \"contracts/metamask-login.sol\":1025:1034  signature */\n      dup6\n        /* \"contracts/metamask-login.sol\":1010:1024  splitSignature */\n      tag_33\n        /* \"contracts/metamask-login.sol\":1010:1035  splitSignature(signature) */\n      jump\t// in\n    tag_50:\n        /* \"contracts/metamask-login.sol\":976:1035  (uint8 v, bytes32 r, bytes32 s) = splitSignature(signature) */\n      swap3\n      pop\n      swap3\n      pop\n      swap3\n      pop\n        /* \"contracts/metamask-login.sol\":1053:1084  ecrecover(messageHash, v, r, s) */\n      0x01\n        /* \"contracts/metamask-login.sol\":1063:1074  messageHash */\n      dup7\n        /* \"contracts/metamask-login.sol\":1076:1077  v */\n      dup5\n        /* \"contracts/metamask-login.sol\":1079:1080  r */\n      dup5\n        /* \"contracts/metamask-login.sol\":1082:1083  s */\n      dup5\n        /* \"contracts/metamask-login.sol\":1053:1084  ecrecover(messageHash, v, r, s) */\n      mload(0x40)\n      0x00\n      dup2\n      mstore\n      0x20\n      add\n      0x40\n      mstore\n      mload(0x40)\n      tag_51\n      swap5\n      swap4\n      swap3\n      swap2\n      swap1\n      tag_52\n      jump\t// in\n    tag_51:\n      0x20\n      mload(0x40)\n      0x20\n      dup2\n      sub\n      swap1\n      dup1\n      dup5\n      sub\n      swap1\n      dup6\n      gas\n      staticcall\n      iszero\n      dup1\n      iszero\n      tag_54\n      jumpi\n      returndatasize\n      0x00\n      dup1\n      returndatacopy\n      revert(0x00, returndatasize)\n    tag_54:\n      pop\n      pop\n      pop\n      mload(sub(mload(0x40), 0x20))\n        /* \"contracts/metamask-login.sol\":1046:1084  return ecrecover(messageHash, v, r, s) */\n      swap4\n      pop\n      pop\n      pop\n      pop\n        /* \"contracts/metamask-login.sol\":867:1092  function recoverSigner(bytes32 messageHash, bytes memory signature) public pure returns (address) {... */\n      swap3\n      swap2\n      pop\n      pop\n      jump\t// out\n        /* \"contracts/metamask-login.sol\":1100:1426  function splitSignature(bytes memory sig) public pure returns (uint8 v, bytes32 r, bytes32 s) {... */\n    tag_33:\n        /* \"contracts/metamask-login.sol\":1163:1170  uint8 v */\n      0x00\n        /* \"contracts/metamask-login.sol\":1172:1181  bytes32 r */\n      dup1\n        /* \"contracts/metamask-login.sol\":1183:1192  bytes32 s */\n      0x00\n        /* \"contracts/metamask-login.sol\":1227:1229  65 */\n      0x41\n        /* \"contracts/metamask-login.sol\":1213:1216  sig */\n      dup5\n        /* \"contracts/metamask-login.sol\":1213:1223  sig.length */\n      mload\n        /* \"contracts/metamask-login.sol\":1213:1229  sig.length == 65 */\n      eq\n        /* \"contracts/metamask-login.sol\":1205:1258  require(sig.length == 65, \"Invalid signature length\") */\n      tag_56\n      jumpi\n      mload(0x40)\n      0x08c379a000000000000000000000000000000000000000000000000000000000\n      dup2\n      mstore\n      0x04\n      add\n      tag_57\n      swap1\n      tag_58\n      jump\t// in\n    tag_57:\n      mload(0x40)\n      dup1\n      swap2\n      sub\n      swap1\n      revert\n    tag_56:\n        /* \"contracts/metamask-login.sol\":1313:1317  0x20 */\n      0x20\n        /* \"contracts/metamask-login.sol\":1308:1311  sig */\n      dup5\n        /* \"contracts/metamask-login.sol\":1304:1318  add(sig, 0x20) */\n      add\n        /* \"contracts/metamask-login.sol\":1298:1319  mload(add(sig, 0x20)) */\n      mload\n        /* \"contracts/metamask-login.sol\":1293:1319  r := mload(add(sig, 0x20)) */\n      swap2\n      pop\n        /* \"contracts/metamask-login.sol\":1353:1357  0x40 */\n      0x40\n        /* \"contracts/metamask-login.sol\":1348:1351  sig */\n      dup5\n        /* \"contracts/metamask-login.sol\":1344:1358  add(sig, 0x40) */\n      add\n        /* \"contracts/metamask-login.sol\":1338:1359  mload(add(sig, 0x40)) */\n      mload\n        /* \"contracts/metamask-login.sol\":1333:1359  s := mload(add(sig, 0x40)) */\n      swap1\n      pop\n        /* \"contracts/metamask-login.sol\":1401:1405  0x60 */\n      0x60\n        /* \"contracts/metamask-login.sol\":1396:1399  sig */\n      dup5\n        /* \"contracts/metamask-login.sol\":1392:1406  add(sig, 0x60) */\n      add\n        /* \"contracts/metamask-login.sol\":1386:1407  mload(add(sig, 0x60)) */\n      mload\n        /* \"contracts/metamask-login.sol\":1383:1384  0 */\n      0x00\n        /* \"contracts/metamask-login.sol\":1378:1408  byte(0, mload(add(sig, 0x60))) */\n      byte\n        /* \"contracts/metamask-login.sol\":1373:1408  v := byte(0, mload(add(sig, 0x60))) */\n      swap3\n      pop\n        /* \"contracts/metamask-login.sol\":1100:1426  function splitSignature(bytes memory sig) public pure returns (uint8 v, bytes32 r, bytes32 s) {... */\n      swap2\n      swap4\n      swap1\n      swap3\n      pop\n      jump\t// out\n        /* \"contracts/metamask-login.sol\":416:702  function verifyLogin(address user, uint256 nonce, bytes memory signature) public pure returns (bool) {... */\n    tag_39:\n        /* \"contracts/metamask-login.sol\":511:515  bool */\n      0x00\n        /* \"contracts/metamask-login.sol\":528:547  bytes32 messageHash */\n      dup1\n        /* \"contracts/metamask-login.sol\":550:577  getMessageHash(user, nonce) */\n      tag_60\n        /* \"contracts/metamask-login.sol\":565:569  user */\n      dup6\n        /* \"contracts/metamask-login.sol\":571:576  nonce */\n      dup6\n        /* \"contracts/metamask-login.sol\":550:564  getMessageHash */\n      tag_21\n        /* \"contracts/metamask-login.sol\":550:577  getMessageHash(user, nonce) */\n      jump\t// in\n    tag_60:\n        /* \"contracts/metamask-login.sol\":528:577  bytes32 messageHash = getMessageHash(user, nonce) */\n      swap1\n      pop\n        /* \"contracts/metamask-login.sol\":588:612  address recoveredAddress */\n      0x00\n        /* \"contracts/metamask-login.sol\":615:652  recoverSigner(messageHash, signature) */\n      tag_61\n        /* \"contracts/metamask-login.sol\":629:640  messageHash */\n      dup3\n        /* \"contracts/metamask-login.sol\":642:651  signature */\n      dup6\n        /* \"contracts/metamask-login.sol\":615:628  recoverSigner */\n      tag_27\n        /* \"contracts/metamask-login.sol\":615:652  recoverSigner(messageHash, signature) */\n      jump\t// in\n    tag_61:\n        /* \"contracts/metamask-login.sol\":588:652  address recoveredAddress = recoverSigner(messageHash, signature) */\n      swap1\n      pop\n        /* \"contracts/metamask-login.sol\":690:694  user */\n      dup6\n        /* \"contracts/metamask-login.sol\":670:694  recoveredAddress == user */\n      0xffffffffffffffffffffffffffffffffffffffff\n      and\n        /* \"contracts/metamask-login.sol\":670:686  recoveredAddress */\n      dup2\n        /* \"contracts/metamask-login.sol\":670:694  recoveredAddress == user */\n      0xffffffffffffffffffffffffffffffffffffffff\n      and\n      eq\n        /* \"contracts/metamask-login.sol\":663:694  return recoveredAddress == user */\n      swap3\n      pop\n      pop\n      pop\n        /* \"contracts/metamask-login.sol\":416:702  function verifyLogin(address user, uint256 nonce, bytes memory signature) public pure returns (bool) {... */\n      swap4\n      swap3\n      pop\n      pop\n      pop\n      jump\t// out\n        /* \"#utility.yul\":7:82   */\n    tag_62:\n        /* \"#utility.yul\":40:46   */\n      0x00\n        /* \"#utility.yul\":73:75   */\n      0x40\n        /* \"#utility.yul\":67:76   */\n      mload\n        /* \"#utility.yul\":57:76   */\n      swap1\n      pop\n        /* \"#utility.yul\":7:82   */\n      swap1\n      jump\t// out\n        /* \"#utility.yul\":88:205   */\n    tag_63:\n        /* \"#utility.yul\":197:198   */\n      0x00\n        /* \"#utility.yul\":194:195   */\n      dup1\n        /* \"#utility.yul\":187:199   */\n      revert\n        /* \"#utility.yul\":211:328   */\n    tag_64:\n        /* \"#utility.yul\":320:321   */\n      0x00\n        /* \"#utility.yul\":317:318   */\n      dup1\n        /* \"#utility.yul\":310:322   */\n      revert\n        /* \"#utility.yul\":334:460   */\n    tag_65:\n        /* \"#utility.yul\":371:378   */\n      0x00\n        /* \"#utility.yul\":411:453   */\n      0xffffffffffffffffffffffffffffffffffffffff\n        /* \"#utility.yul\":404:409   */\n      dup3\n        /* \"#utility.yul\":400:454   */\n      and\n        /* \"#utility.yul\":389:454   */\n      swap1\n      pop\n        /* \"#utility.yul\":334:460   */\n      swap2\n      swap1\n      pop\n      jump\t// out\n        /* \"#utility.yul\":466:562   */\n    tag_66:\n        /* \"#utility.yul\":503:510   */\n      0x00\n        /* \"#utility.yul\":532:556   */\n      tag_108\n        /* \"#utility.yul\":550:555   */\n      dup3\n        /* \"#utility.yul\":532:556   */\n      tag_65\n      jump\t// in\n    tag_108:\n        /* \"#utility.yul\":521:556   */\n      swap1\n      pop\n        /* \"#utility.yul\":466:562   */\n      swap2\n      swap1\n      pop\n      jump\t// out\n        /* \"#utility.yul\":568:690   */\n    tag_67:\n        /* \"#utility.yul\":641:665   */\n      tag_110\n        /* \"#utility.yul\":659:664   */\n      dup2\n        /* \"#utility.yul\":641:665   */\n      tag_66\n      jump\t// in\n    tag_110:\n        /* \"#utility.yul\":634:639   */\n      dup2\n        /* \"#utility.yul\":631:666   */\n      eq\n        /* \"#utility.yul\":621:684   */\n      tag_111\n      jumpi\n        /* \"#utility.yul\":680:681   */\n      0x00\n        /* \"#utility.yul\":677:678   */\n      dup1\n        /* \"#utility.yul\":670:682   */\n      revert\n        /* \"#utility.yul\":621:684   */\n    tag_111:\n        /* \"#utility.yul\":568:690   */\n      pop\n      jump\t// out\n        /* \"#utility.yul\":696:835   */\n    tag_68:\n        /* \"#utility.yul\":742:747   */\n      0x00\n        /* \"#utility.yul\":780:786   */\n      dup2\n        /* \"#utility.yul\":767:787   */\n      calldataload\n        /* \"#utility.yul\":758:787   */\n      swap1\n      pop\n        /* \"#utility.yul\":796:829   */\n      tag_113\n        /* \"#utility.yul\":823:828   */\n      dup2\n        /* \"#utility.yul\":796:829   */\n      tag_67\n      jump\t// in\n    tag_113:\n        /* \"#utility.yul\":696:835   */\n      swap3\n      swap2\n      pop\n      pop\n      jump\t// out\n        /* \"#utility.yul\":841:1170   */\n    tag_11:\n        /* \"#utility.yul\":900:906   */\n      0x00\n        /* \"#utility.yul\":949:951   */\n      0x20\n        /* \"#utility.yul\":937:946   */\n      dup3\n        /* \"#utility.yul\":928:935   */\n      dup5\n        /* \"#utility.yul\":924:947   */\n      sub\n        /* \"#utility.yul\":920:952   */\n      slt\n        /* \"#utility.yul\":917:1036   */\n      iszero\n      tag_115\n      jumpi\n        /* \"#utility.yul\":955:1034   */\n      tag_116\n      tag_63\n      jump\t// in\n    tag_116:\n        /* \"#utility.yul\":917:1036   */\n    tag_115:\n        /* \"#utility.yul\":1075:1076   */\n      0x00\n        /* \"#utility.yul\":1100:1153   */\n      tag_117\n        /* \"#utility.yul\":1145:1152   */\n      dup5\n        /* \"#utility.yul\":1136:1142   */\n      dup3\n        /* \"#utility.yul\":1125:1134   */\n      dup6\n        /* \"#utility.yul\":1121:1143   */\n      add\n        /* \"#utility.yul\":1100:1153   */\n      tag_68\n      jump\t// in\n    tag_117:\n        /* \"#utility.yul\":1090:1153   */\n      swap2\n      pop\n        /* \"#utility.yul\":1046:1163   */\n      pop\n        /* \"#utility.yul\":841:1170   */\n      swap3\n      swap2\n      pop\n      pop\n      jump\t// out\n        /* \"#utility.yul\":1176:1266   */\n    tag_69:\n        /* \"#utility.yul\":1210:1217   */\n      0x00\n        /* \"#utility.yul\":1253:1258   */\n      dup2\n        /* \"#utility.yul\":1246:1259   */\n      iszero\n        /* \"#utility.yul\":1239:1260   */\n      iszero\n        /* \"#utility.yul\":1228:1260   */\n      swap1\n      pop\n        /* \"#utility.yul\":1176:1266   */\n      swap2\n      swap1\n      pop\n      jump\t// out\n        /* \"#utility.yul\":1272:1381   */\n    tag_70:\n        /* \"#utility.yul\":1353:1374   */\n      tag_120\n        /* \"#utility.yul\":1368:1373   */\n      dup2\n        /* \"#utility.yul\":1353:1374   */\n      tag_69\n      jump\t// in\n    tag_120:\n        /* \"#utility.yul\":1348:1351   */\n      dup3\n        /* \"#utility.yul\":1341:1375   */\n      mstore\n        /* \"#utility.yul\":1272:1381   */\n      pop\n      pop\n      jump\t// out\n        /* \"#utility.yul\":1387:1597   */\n    tag_14:\n        /* \"#utility.yul\":1474:1478   */\n      0x00\n        /* \"#utility.yul\":1512:1514   */\n      0x20\n        /* \"#utility.yul\":1501:1510   */\n      dup3\n        /* \"#utility.yul\":1497:1515   */\n      add\n        /* \"#utility.yul\":1489:1515   */\n      swap1\n      pop\n        /* \"#utility.yul\":1525:1590   */\n      tag_122\n        /* \"#utility.yul\":1587:1588   */\n      0x00\n        /* \"#utility.yul\":1576:1585   */\n      dup4\n        /* \"#utility.yul\":1572:1589   */\n      add\n        /* \"#utility.yul\":1563:1569   */\n      dup5\n        /* \"#utility.yul\":1525:1590   */\n      tag_70\n      jump\t// in\n    tag_122:\n        /* \"#utility.yul\":1387:1597   */\n      swap3\n      swap2\n      pop\n      pop\n      jump\t// out\n        /* \"#utility.yul\":1603:1680   */\n    tag_71:\n        /* \"#utility.yul\":1640:1647   */\n      0x00\n        /* \"#utility.yul\":1669:1674   */\n      dup2\n        /* \"#utility.yul\":1658:1674   */\n      swap1\n      pop\n        /* \"#utility.yul\":1603:1680   */\n      swap2\n      swap1\n      pop\n      jump\t// out\n        /* \"#utility.yul\":1686:1808   */\n    tag_72:\n        /* \"#utility.yul\":1759:1783   */\n      tag_125\n        /* \"#utility.yul\":1777:1782   */\n      dup2\n        /* \"#utility.yul\":1759:1783   */\n      tag_71\n      jump\t// in\n    tag_125:\n        /* \"#utility.yul\":1752:1757   */\n      dup2\n        /* \"#utility.yul\":1749:1784   */\n      eq\n        /* \"#utility.yul\":1739:1802   */\n      tag_126\n      jumpi\n        /* \"#utility.yul\":1798:1799   */\n      0x00\n        /* \"#utility.yul\":1795:1796   */\n      dup1\n        /* \"#utility.yul\":1788:1800   */\n      revert\n        /* \"#utility.yul\":1739:1802   */\n    tag_126:\n        /* \"#utility.yul\":1686:1808   */\n      pop\n      jump\t// out\n        /* \"#utility.yul\":1814:1953   */\n    tag_73:\n        /* \"#utility.yul\":1860:1865   */\n      0x00\n        /* \"#utility.yul\":1898:1904   */\n      dup2\n        /* \"#utility.yul\":1885:1905   */\n      calldataload\n        /* \"#utility.yul\":1876:1905   */\n      swap1\n      pop\n        /* \"#utility.yul\":1914:1947   */\n      tag_128\n        /* \"#utility.yul\":1941:1946   */\n      dup2\n        /* \"#utility.yul\":1914:1947   */\n      tag_72\n      jump\t// in\n    tag_128:\n        /* \"#utility.yul\":1814:1953   */\n      swap3\n      swap2\n      pop\n      pop\n      jump\t// out\n        /* \"#utility.yul\":1959:2433   */\n    tag_20:\n        /* \"#utility.yul\":2027:2033   */\n      0x00\n        /* \"#utility.yul\":2035:2041   */\n      dup1\n        /* \"#utility.yul\":2084:2086   */\n      0x40\n        /* \"#utility.yul\":2072:2081   */\n      dup4\n        /* \"#utility.yul\":2063:2070   */\n      dup6\n        /* \"#utility.yul\":2059:2082   */\n      sub\n        /* \"#utility.yul\":2055:2087   */\n      slt\n        /* \"#utility.yul\":2052:2171   */\n      iszero\n      tag_130\n      jumpi\n        /* \"#utility.yul\":2090:2169   */\n      tag_131\n      tag_63\n      jump\t// in\n    tag_131:\n        /* \"#utility.yul\":2052:2171   */\n    tag_130:\n        /* \"#utility.yul\":2210:2211   */\n      0x00\n        /* \"#utility.yul\":2235:2288   */\n      tag_132\n        /* \"#utility.yul\":2280:2287   */\n      dup6\n        /* \"#utility.yul\":2271:2277   */\n      dup3\n        /* \"#utility.yul\":2260:2269   */\n      dup7\n        /* \"#utility.yul\":2256:2278   */\n      add\n        /* \"#utility.yul\":2235:2288   */\n      tag_68\n      jump\t// in\n    tag_132:\n        /* \"#utility.yul\":2225:2288   */\n      swap3\n      pop\n        /* \"#utility.yul\":2181:2298   */\n      pop\n        /* \"#utility.yul\":2337:2339   */\n      0x20\n        /* \"#utility.yul\":2363:2416   */\n      tag_133\n        /* \"#utility.yul\":2408:2415   */\n      dup6\n        /* \"#utility.yul\":2399:2405   */\n      dup3\n        /* \"#utility.yul\":2388:2397   */\n      dup7\n        /* \"#utility.yul\":2384:2406   */\n      add\n        /* \"#utility.yul\":2363:2416   */\n      tag_73\n      jump\t// in\n    tag_133:\n        /* \"#utility.yul\":2353:2416   */\n      swap2\n      pop\n        /* \"#utility.yul\":2308:2426   */\n      pop\n        /* \"#utility.yul\":1959:2433   */\n      swap3\n      pop\n      swap3\n      swap1\n      pop\n      jump\t// out\n        /* \"#utility.yul\":2439:2516   */\n    tag_74:\n        /* \"#utility.yul\":2476:2483   */\n      0x00\n        /* \"#utility.yul\":2505:2510   */\n      dup2\n        /* \"#utility.yul\":2494:2510   */\n      swap1\n      pop\n        /* \"#utility.yul\":2439:2516   */\n      swap2\n      swap1\n      pop\n      jump\t// out\n        /* \"#utility.yul\":2522:2640   */\n    tag_75:\n        /* \"#utility.yul\":2609:2633   */\n      tag_136\n        /* \"#utility.yul\":2627:2632   */\n      dup2\n        /* \"#utility.yul\":2609:2633   */\n      tag_74\n      jump\t// in\n    tag_136:\n        /* \"#utility.yul\":2604:2607   */\n      dup3\n        /* \"#utility.yul\":2597:2634   */\n      mstore\n        /* \"#utility.yul\":2522:2640   */\n      pop\n      pop\n      jump\t// out\n        /* \"#utility.yul\":2646:2868   */\n    tag_23:\n        /* \"#utility.yul\":2739:2743   */\n      0x00\n        /* \"#utility.yul\":2777:2779   */\n      0x20\n        /* \"#utility.yul\":2766:2775   */\n      dup3\n        /* \"#utility.yul\":2762:2780   */\n      add\n        /* \"#utility.yul\":2754:2780   */\n      swap1\n      pop\n        /* \"#utility.yul\":2790:2861   */\n      tag_138\n        /* \"#utility.yul\":2858:2859   */\n      0x00\n        /* \"#utility.yul\":2847:2856   */\n      dup4\n        /* \"#utility.yul\":2843:2860   */\n      add\n        /* \"#utility.yul\":2834:2840   */\n      dup5\n        /* \"#utility.yul\":2790:2861   */\n      tag_75\n      jump\t// in\n    tag_138:\n        /* \"#utility.yul\":2646:2868   */\n      swap3\n      swap2\n      pop\n      pop\n      jump\t// out\n        /* \"#utility.yul\":2874:2996   */\n    tag_76:\n        /* \"#utility.yul\":2947:2971   */\n      tag_140\n        /* \"#utility.yul\":2965:2970   */\n      dup2\n        /* \"#utility.yul\":2947:2971   */\n      tag_74\n      jump\t// in\n    tag_140:\n        /* \"#utility.yul\":2940:2945   */\n      dup2\n        /* \"#utility.yul\":2937:2972   */\n      eq\n        /* \"#utility.yul\":2927:2990   */\n      tag_141\n      jumpi\n        /* \"#utility.yul\":2986:2987   */\n      0x00\n        /* \"#utility.yul\":2983:2984   */\n      dup1\n        /* \"#utility.yul\":2976:2988   */\n      revert\n        /* \"#utility.yul\":2927:2990   */\n    tag_141:\n        /* \"#utility.yul\":2874:2996   */\n      pop\n      jump\t// out\n        /* \"#utility.yul\":3002:3141   */\n    tag_77:\n        /* \"#utility.yul\":3048:3053   */\n      0x00\n        /* \"#utility.yul\":3086:3092   */\n      dup2\n        /* \"#utility.yul\":3073:3093   */\n      calldataload\n        /* \"#utility.yul\":3064:3093   */\n      swap1\n      pop\n        /* \"#utility.yul\":3102:3135   */\n      tag_143\n        /* \"#utility.yul\":3129:3134   */\n      dup2\n        /* \"#utility.yul\":3102:3135   */\n      tag_76\n      jump\t// in\n    tag_143:\n        /* \"#utility.yul\":3002:3141   */\n      swap3\n      swap2\n      pop\n      pop\n      jump\t// out\n        /* \"#utility.yul\":3147:3264   */\n    tag_78:\n        /* \"#utility.yul\":3256:3257   */\n      0x00\n        /* \"#utility.yul\":3253:3254   */\n      dup1\n        /* \"#utility.yul\":3246:3258   */\n      revert\n        /* \"#utility.yul\":3270:3387   */\n    tag_79:\n        /* \"#utility.yul\":3379:3380   */\n      0x00\n        /* \"#utility.yul\":3376:3377   */\n      dup1\n        /* \"#utility.yul\":3369:3381   */\n      revert\n        /* \"#utility.yul\":3393:3495   */\n    tag_80:\n        /* \"#utility.yul\":3434:3440   */\n      0x00\n        /* \"#utility.yul\":3485:3487   */\n      0x1f\n        /* \"#utility.yul\":3481:3488   */\n      not\n        /* \"#utility.yul\":3476:3478   */\n      0x1f\n        /* \"#utility.yul\":3469:3474   */\n      dup4\n        /* \"#utility.yul\":3465:3479   */\n      add\n        /* \"#utility.yul\":3461:3489   */\n      and\n        /* \"#utility.yul\":3451:3489   */\n      swap1\n      pop\n        /* \"#utility.yul\":3393:3495   */\n      swap2\n      swap1\n      pop\n      jump\t// out\n        /* \"#utility.yul\":3501:3681   */\n    tag_81:\n        /* \"#utility.yul\":3549:3626   */\n      0x4e487b7100000000000000000000000000000000000000000000000000000000\n        /* \"#utility.yul\":3546:3547   */\n      0x00\n        /* \"#utility.yul\":3539:3627   */\n      mstore\n        /* \"#utility.yul\":3646:3650   */\n      0x41\n        /* \"#utility.yul\":3643:3644   */\n      0x04\n        /* \"#utility.yul\":3636:3651   */\n      mstore\n        /* \"#utility.yul\":3670:3674   */\n      0x24\n        /* \"#utility.yul\":3667:3668   */\n      0x00\n        /* \"#utility.yul\":3660:3675   */\n      revert\n        /* \"#utility.yul\":3687:3968   */\n    tag_82:\n        /* \"#utility.yul\":3770:3797   */\n      tag_149\n        /* \"#utility.yul\":3792:3796   */\n      dup3\n        /* \"#utility.yul\":3770:3797   */\n      tag_80\n      jump\t// in\n    tag_149:\n        /* \"#utility.yul\":3762:3768   */\n      dup2\n        /* \"#utility.yul\":3758:3798   */\n      add\n        /* \"#utility.yul\":3900:3906   */\n      dup2\n        /* \"#utility.yul\":3888:3898   */\n      dup2\n        /* \"#utility.yul\":3885:3907   */\n      lt\n        /* \"#utility.yul\":3864:3882   */\n      0xffffffffffffffff\n        /* \"#utility.yul\":3852:3862   */\n      dup3\n        /* \"#utility.yul\":3849:3883   */\n      gt\n        /* \"#utility.yul\":3846:3908   */\n      or\n        /* \"#utility.yul\":3843:3931   */\n      iszero\n      tag_150\n      jumpi\n        /* \"#utility.yul\":3911:3929   */\n      tag_151\n      tag_81\n      jump\t// in\n    tag_151:\n        /* \"#utility.yul\":3843:3931   */\n    tag_150:\n        /* \"#utility.yul\":3951:3961   */\n      dup1\n        /* \"#utility.yul\":3947:3949   */\n      0x40\n        /* \"#utility.yul\":3940:3962   */\n      mstore\n        /* \"#utility.yul\":3730:3968   */\n      pop\n        /* \"#utility.yul\":3687:3968   */\n      pop\n      pop\n      jump\t// out\n        /* \"#utility.yul\":3974:4103   */\n    tag_83:\n        /* \"#utility.yul\":4008:4014   */\n      0x00\n        /* \"#utility.yul\":4035:4055   */\n      tag_153\n      tag_62\n      jump\t// in\n    tag_153:\n        /* \"#utility.yul\":4025:4055   */\n      swap1\n      pop\n        /* \"#utility.yul\":4064:4097   */\n      tag_154\n        /* \"#utility.yul\":4092:4096   */\n      dup3\n        /* \"#utility.yul\":4084:4090   */\n      dup3\n        /* \"#utility.yul\":4064:4097   */\n      tag_82\n      jump\t// in\n    tag_154:\n        /* \"#utility.yul\":3974:4103   */\n      swap2\n      swap1\n      pop\n      jump\t// out\n        /* \"#utility.yul\":4109:4416   */\n    tag_84:\n        /* \"#utility.yul\":4170:4174   */\n      0x00\n        /* \"#utility.yul\":4260:4278   */\n      0xffffffffffffffff\n        /* \"#utility.yul\":4252:4258   */\n      dup3\n        /* \"#utility.yul\":4249:4279   */\n      gt\n        /* \"#utility.yul\":4246:4302   */\n      iszero\n      tag_156\n      jumpi\n        /* \"#utility.yul\":4282:4300   */\n      tag_157\n      tag_81\n      jump\t// in\n    tag_157:\n        /* \"#utility.yul\":4246:4302   */\n    tag_156:\n        /* \"#utility.yul\":4320:4349   */\n      tag_158\n        /* \"#utility.yul\":4342:4348   */\n      dup3\n        /* \"#utility.yul\":4320:4349   */\n      tag_80\n      jump\t// in\n    tag_158:\n        /* \"#utility.yul\":4312:4349   */\n      swap1\n      pop\n        /* \"#utility.yul\":4404:4408   */\n      0x20\n        /* \"#utility.yul\":4398:4402   */\n      dup2\n        /* \"#utility.yul\":4394:4409   */\n      add\n        /* \"#utility.yul\":4386:4409   */\n      swap1\n      pop\n        /* \"#utility.yul\":4109:4416   */\n      swap2\n      swap1\n      pop\n      jump\t// out\n        /* \"#utility.yul\":4422:4570   */\n    tag_85:\n        /* \"#utility.yul\":4520:4526   */\n      dup3\n        /* \"#utility.yul\":4515:4518   */\n      dup2\n        /* \"#utility.yul\":4510:4513   */\n      dup4\n        /* \"#utility.yul\":4497:4527   */\n      calldatacopy\n        /* \"#utility.yul\":4561:4562   */\n      0x00\n        /* \"#utility.yul\":4552:4558   */\n      dup4\n        /* \"#utility.yul\":4547:4550   */\n      dup4\n        /* \"#utility.yul\":4543:4559   */\n      add\n        /* \"#utility.yul\":4536:4563   */\n      mstore\n        /* \"#utility.yul\":4422:4570   */\n      pop\n      pop\n      pop\n      jump\t// out\n        /* \"#utility.yul\":4576:4999   */\n    tag_86:\n        /* \"#utility.yul\":4653:4658   */\n      0x00\n        /* \"#utility.yul\":4678:4743   */\n      tag_161\n        /* \"#utility.yul\":4694:4742   */\n      tag_162\n        /* \"#utility.yul\":4735:4741   */\n      dup5\n        /* \"#utility.yul\":4694:4742   */\n      tag_84\n      jump\t// in\n    tag_162:\n        /* \"#utility.yul\":4678:4743   */\n      tag_83\n      jump\t// in\n    tag_161:\n        /* \"#utility.yul\":4669:4743   */\n      swap1\n      pop\n        /* \"#utility.yul\":4766:4772   */\n      dup3\n        /* \"#utility.yul\":4759:4764   */\n      dup2\n        /* \"#utility.yul\":4752:4773   */\n      mstore\n        /* \"#utility.yul\":4804:4808   */\n      0x20\n        /* \"#utility.yul\":4797:4802   */\n      dup2\n        /* \"#utility.yul\":4793:4809   */\n      add\n        /* \"#utility.yul\":4842:4845   */\n      dup5\n        /* \"#utility.yul\":4833:4839   */\n      dup5\n        /* \"#utility.yul\":4828:4831   */\n      dup5\n        /* \"#utility.yul\":4824:4840   */\n      add\n        /* \"#utility.yul\":4821:4846   */\n      gt\n        /* \"#utility.yul\":4818:4930   */\n      iszero\n      tag_163\n      jumpi\n        /* \"#utility.yul\":4849:4928   */\n      tag_164\n      tag_79\n      jump\t// in\n    tag_164:\n        /* \"#utility.yul\":4818:4930   */\n    tag_163:\n        /* \"#utility.yul\":4939:4993   */\n      tag_165\n        /* \"#utility.yul\":4986:4992   */\n      dup5\n        /* \"#utility.yul\":4981:4984   */\n      dup3\n        /* \"#utility.yul\":4976:4979   */\n      dup6\n        /* \"#utility.yul\":4939:4993   */\n      tag_85\n      jump\t// in\n    tag_165:\n        /* \"#utility.yul\":4659:4999   */\n      pop\n        /* \"#utility.yul\":4576:4999   */\n      swap4\n      swap3\n      pop\n      pop\n      pop\n      jump\t// out\n        /* \"#utility.yul\":5018:5356   */\n    tag_87:\n        /* \"#utility.yul\":5073:5078   */\n      0x00\n        /* \"#utility.yul\":5122:5125   */\n      dup3\n        /* \"#utility.yul\":5115:5119   */\n      0x1f\n        /* \"#utility.yul\":5107:5113   */\n      dup4\n        /* \"#utility.yul\":5103:5120   */\n      add\n        /* \"#utility.yul\":5099:5126   */\n      slt\n        /* \"#utility.yul\":5089:5211   */\n      tag_167\n      jumpi\n        /* \"#utility.yul\":5130:5209   */\n      tag_168\n      tag_78\n      jump\t// in\n    tag_168:\n        /* \"#utility.yul\":5089:5211   */\n    tag_167:\n        /* \"#utility.yul\":5247:5253   */\n      dup2\n        /* \"#utility.yul\":5234:5254   */\n      calldataload\n        /* \"#utility.yul\":5272:5350   */\n      tag_169\n        /* \"#utility.yul\":5346:5349   */\n      dup5\n        /* \"#utility.yul\":5338:5344   */\n      dup3\n        /* \"#utility.yul\":5331:5335   */\n      0x20\n        /* \"#utility.yul\":5323:5329   */\n      dup7\n        /* \"#utility.yul\":5319:5336   */\n      add\n        /* \"#utility.yul\":5272:5350   */\n      tag_86\n      jump\t// in\n    tag_169:\n        /* \"#utility.yul\":5263:5350   */\n      swap2\n      pop\n        /* \"#utility.yul\":5079:5356   */\n      pop\n        /* \"#utility.yul\":5018:5356   */\n      swap3\n      swap2\n      pop\n      pop\n      jump\t// out\n        /* \"#utility.yul\":5362:6014   */\n    tag_26:\n        /* \"#utility.yul\":5439:5445   */\n      0x00\n        /* \"#utility.yul\":5447:5453   */\n      dup1\n        /* \"#utility.yul\":5496:5498   */\n      0x40\n        /* \"#utility.yul\":5484:5493   */\n      dup4\n        /* \"#utility.yul\":5475:5482   */\n      dup6\n        /* \"#utility.yul\":5471:5494   */\n      sub\n        /* \"#utility.yul\":5467:5499   */\n      slt\n        /* \"#utility.yul\":5464:5583   */\n      iszero\n      tag_171\n      jumpi\n        /* \"#utility.yul\":5502:5581   */\n      tag_172\n      tag_63\n      jump\t// in\n    tag_172:\n        /* \"#utility.yul\":5464:5583   */\n    tag_171:\n        /* \"#utility.yul\":5622:5623   */\n      0x00\n        /* \"#utility.yul\":5647:5700   */\n      tag_173\n        /* \"#utility.yul\":5692:5699   */\n      dup6\n        /* \"#utility.yul\":5683:5689   */\n      dup3\n        /* \"#utility.yul\":5672:5681   */\n      dup7\n        /* \"#utility.yul\":5668:5690   */\n      add\n        /* \"#utility.yul\":5647:5700   */\n      tag_77\n      jump\t// in\n    tag_173:\n        /* \"#utility.yul\":5637:5700   */\n      swap3\n      pop\n        /* \"#utility.yul\":5593:5710   */\n      pop\n        /* \"#utility.yul\":5777:5779   */\n      0x20\n        /* \"#utility.yul\":5766:5775   */\n      dup4\n        /* \"#utility.yul\":5762:5780   */\n      add\n        /* \"#utility.yul\":5749:5781   */\n      calldataload\n        /* \"#utility.yul\":5808:5826   */\n      0xffffffffffffffff\n        /* \"#utility.yul\":5800:5806   */\n      dup2\n        /* \"#utility.yul\":5797:5827   */\n      gt\n        /* \"#utility.yul\":5794:5911   */\n      iszero\n      tag_174\n      jumpi\n        /* \"#utility.yul\":5830:5909   */\n      tag_175\n      tag_64\n      jump\t// in\n    tag_175:\n        /* \"#utility.yul\":5794:5911   */\n    tag_174:\n        /* \"#utility.yul\":5935:5997   */\n      tag_176\n        /* \"#utility.yul\":5989:5996   */\n      dup6\n        /* \"#utility.yul\":5980:5986   */\n      dup3\n        /* \"#utility.yul\":5969:5978   */\n      dup7\n        /* \"#utility.yul\":5965:5987   */\n      add\n        /* \"#utility.yul\":5935:5997   */\n      tag_87\n      jump\t// in\n    tag_176:\n        /* \"#utility.yul\":5925:5997   */\n      swap2\n      pop\n        /* \"#utility.yul\":5720:6007   */\n      pop\n        /* \"#utility.yul\":5362:6014   */\n      swap3\n      pop\n      swap3\n      swap1\n      pop\n      jump\t// out\n        /* \"#utility.yul\":6020:6138   */\n    tag_88:\n        /* \"#utility.yul\":6107:6131   */\n      tag_178\n        /* \"#utility.yul\":6125:6130   */\n      dup2\n        /* \"#utility.yul\":6107:6131   */\n      tag_66\n      jump\t// in\n    tag_178:\n        /* \"#utility.yul\":6102:6105   */\n      dup3\n        /* \"#utility.yul\":6095:6132   */\n      mstore\n        /* \"#utility.yul\":6020:6138   */\n      pop\n      pop\n      jump\t// out\n        /* \"#utility.yul\":6144:6366   */\n    tag_29:\n        /* \"#utility.yul\":6237:6241   */\n      0x00\n        /* \"#utility.yul\":6275:6277   */\n      0x20\n        /* \"#utility.yul\":6264:6273   */\n      dup3\n        /* \"#utility.yul\":6260:6278   */\n      add\n        /* \"#utility.yul\":6252:6278   */\n      swap1\n      pop\n        /* \"#utility.yul\":6288:6359   */\n      tag_180\n        /* \"#utility.yul\":6356:6357   */\n      0x00\n        /* \"#utility.yul\":6345:6354   */\n      dup4\n        /* \"#utility.yul\":6341:6358   */\n      add\n        /* \"#utility.yul\":6332:6338   */\n      dup5\n        /* \"#utility.yul\":6288:6359   */\n      tag_88\n      jump\t// in\n    tag_180:\n        /* \"#utility.yul\":6144:6366   */\n      swap3\n      swap2\n      pop\n      pop\n      jump\t// out\n        /* \"#utility.yul\":6372:6879   */\n    tag_32:\n        /* \"#utility.yul\":6440:6446   */\n      0x00\n        /* \"#utility.yul\":6489:6491   */\n      0x20\n        /* \"#utility.yul\":6477:6486   */\n      dup3\n        /* \"#utility.yul\":6468:6475   */\n      dup5\n        /* \"#utility.yul\":6464:6487   */\n      sub\n        /* \"#utility.yul\":6460:6492   */\n      slt\n        /* \"#utility.yul\":6457:6576   */\n      iszero\n      tag_182\n      jumpi\n        /* \"#utility.yul\":6495:6574   */\n      tag_183\n      tag_63\n      jump\t// in\n    tag_183:\n        /* \"#utility.yul\":6457:6576   */\n    tag_182:\n        /* \"#utility.yul\":6643:6644   */\n      0x00\n        /* \"#utility.yul\":6632:6641   */\n      dup3\n        /* \"#utility.yul\":6628:6645   */\n      add\n        /* \"#utility.yul\":6615:6646   */\n      calldataload\n        /* \"#utility.yul\":6673:6691   */\n      0xffffffffffffffff\n        /* \"#utility.yul\":6665:6671   */\n      dup2\n        /* \"#utility.yul\":6662:6692   */\n      gt\n        /* \"#utility.yul\":6659:6776   */\n      iszero\n      tag_184\n      jumpi\n        /* \"#utility.yul\":6695:6774   */\n      tag_185\n      tag_64\n      jump\t// in\n    tag_185:\n        /* \"#utility.yul\":6659:6776   */\n    tag_184:\n        /* \"#utility.yul\":6800:6862   */\n      tag_186\n        /* \"#utility.yul\":6854:6861   */\n      dup5\n        /* \"#utility.yul\":6845:6851   */\n      dup3\n        /* \"#utility.yul\":6834:6843   */\n      dup6\n        /* \"#utility.yul\":6830:6852   */\n      add\n        /* \"#utility.yul\":6800:6862   */\n      tag_87\n      jump\t// in\n    tag_186:\n        /* \"#utility.yul\":6790:6862   */\n      swap2\n      pop\n        /* \"#utility.yul\":6586:6872   */\n      pop\n        /* \"#utility.yul\":6372:6879   */\n      swap3\n      swap2\n      pop\n      pop\n      jump\t// out\n        /* \"#utility.yul\":6885:6971   */\n    tag_89:\n        /* \"#utility.yul\":6920:6927   */\n      0x00\n        /* \"#utility.yul\":6960:6964   */\n      0xff\n        /* \"#utility.yul\":6953:6958   */\n      dup3\n        /* \"#utility.yul\":6949:6965   */\n      and\n        /* \"#utility.yul\":6938:6965   */\n      swap1\n      pop\n        /* \"#utility.yul\":6885:6971   */\n      swap2\n      swap1\n      pop\n      jump\t// out\n        /* \"#utility.yul\":6977:7089   */\n    tag_90:\n        /* \"#utility.yul\":7060:7082   */\n      tag_189\n        /* \"#utility.yul\":7076:7081   */\n      dup2\n        /* \"#utility.yul\":7060:7082   */\n      tag_89\n      jump\t// in\n    tag_189:\n        /* \"#utility.yul\":7055:7058   */\n      dup3\n        /* \"#utility.yul\":7048:7083   */\n      mstore\n        /* \"#utility.yul\":6977:7089   */\n      pop\n      pop\n      jump\t// out\n        /* \"#utility.yul\":7095:7529   */\n    tag_35:\n        /* \"#utility.yul\":7240:7244   */\n      0x00\n        /* \"#utility.yul\":7278:7280   */\n      0x60\n        /* \"#utility.yul\":7267:7276   */\n      dup3\n        /* \"#utility.yul\":7263:7281   */\n      add\n        /* \"#utility.yul\":7255:7281   */\n      swap1\n      pop\n        /* \"#utility.yul\":7291:7358   */\n      tag_191\n        /* \"#utility.yul\":7355:7356   */\n      0x00\n        /* \"#utility.yul\":7344:7353   */\n      dup4\n        /* \"#utility.yul\":7340:7357   */\n      add\n        /* \"#utility.yul\":7331:7337   */\n      dup7\n        /* \"#utility.yul\":7291:7358   */\n      tag_90\n      jump\t// in\n    tag_191:\n        /* \"#utility.yul\":7368:7440   */\n      tag_192\n        /* \"#utility.yul\":7436:7438   */\n      0x20\n        /* \"#utility.yul\":7425:7434   */\n      dup4\n        /* \"#utility.yul\":7421:7439   */\n      add\n        /* \"#utility.yul\":7412:7418   */\n      dup6\n        /* \"#utility.yul\":7368:7440   */\n      tag_75\n      jump\t// in\n    tag_192:\n        /* \"#utility.yul\":7450:7522   */\n      tag_193\n        /* \"#utility.yul\":7518:7520   */\n      0x40\n        /* \"#utility.yul\":7507:7516   */\n      dup4\n        /* \"#utility.yul\":7503:7521   */\n      add\n        /* \"#utility.yul\":7494:7500   */\n      dup5\n        /* \"#utility.yul\":7450:7522   */\n      tag_75\n      jump\t// in\n    tag_193:\n        /* \"#utility.yul\":7095:7529   */\n      swap5\n      swap4\n      pop\n      pop\n      pop\n      pop\n      jump\t// out\n        /* \"#utility.yul\":7535:8332   */\n    tag_38:\n        /* \"#utility.yul\":7621:7627   */\n      0x00\n        /* \"#utility.yul\":7629:7635   */\n      dup1\n        /* \"#utility.yul\":7637:7643   */\n      0x00\n        /* \"#utility.yul\":7686:7688   */\n      0x60\n        /* \"#utility.yul\":7674:7683   */\n      dup5\n        /* \"#utility.yul\":7665:7672   */\n      dup7\n        /* \"#utility.yul\":7661:7684   */\n      sub\n        /* \"#utility.yul\":7657:7689   */\n      slt\n        /* \"#utility.yul\":7654:7773   */\n      iszero\n      tag_195\n      jumpi\n        /* \"#utility.yul\":7692:7771   */\n      tag_196\n      tag_63\n      jump\t// in\n    tag_196:\n        /* \"#utility.yul\":7654:7773   */\n    tag_195:\n        /* \"#utility.yul\":7812:7813   */\n      0x00\n        /* \"#utility.yul\":7837:7890   */\n      tag_197\n        /* \"#utility.yul\":7882:7889   */\n      dup7\n        /* \"#utility.yul\":7873:7879   */\n      dup3\n        /* \"#utility.yul\":7862:7871   */\n      dup8\n        /* \"#utility.yul\":7858:7880   */\n      add\n        /* \"#utility.yul\":7837:7890   */\n      tag_68\n      jump\t// in\n    tag_197:\n        /* \"#utility.yul\":7827:7890   */\n      swap4\n      pop\n        /* \"#utility.yul\":7783:7900   */\n      pop\n        /* \"#utility.yul\":7939:7941   */\n      0x20\n        /* \"#utility.yul\":7965:8018   */\n      tag_198\n        /* \"#utility.yul\":8010:8017   */\n      dup7\n        /* \"#utility.yul\":8001:8007   */\n      dup3\n        /* \"#utility.yul\":7990:7999   */\n      dup8\n        /* \"#utility.yul\":7986:8008   */\n      add\n        /* \"#utility.yul\":7965:8018   */\n      tag_73\n      jump\t// in\n    tag_198:\n        /* \"#utility.yul\":7955:8018   */\n      swap3\n      pop\n        /* \"#utility.yul\":7910:8028   */\n      pop\n        /* \"#utility.yul\":8095:8097   */\n      0x40\n        /* \"#utility.yul\":8084:8093   */\n      dup5\n        /* \"#utility.yul\":8080:8098   */\n      add\n        /* \"#utility.yul\":8067:8099   */\n      calldataload\n        /* \"#utility.yul\":8126:8144   */\n      0xffffffffffffffff\n        /* \"#utility.yul\":8118:8124   */\n      dup2\n        /* \"#utility.yul\":8115:8145   */\n      gt\n        /* \"#utility.yul\":8112:8229   */\n      iszero\n      tag_199\n      jumpi\n        /* \"#utility.yul\":8148:8227   */\n      tag_200\n      tag_64\n      jump\t// in\n    tag_200:\n        /* \"#utility.yul\":8112:8229   */\n    tag_199:\n        /* \"#utility.yul\":8253:8315   */\n      tag_201\n        /* \"#utility.yul\":8307:8314   */\n      dup7\n        /* \"#utility.yul\":8298:8304   */\n      dup3\n        /* \"#utility.yul\":8287:8296   */\n      dup8\n        /* \"#utility.yul\":8283:8305   */\n      add\n        /* \"#utility.yul\":8253:8315   */\n      tag_87\n      jump\t// in\n    tag_201:\n        /* \"#utility.yul\":8243:8315   */\n      swap2\n      pop\n        /* \"#utility.yul\":8038:8325   */\n      pop\n        /* \"#utility.yul\":7535:8332   */\n      swap3\n      pop\n      swap3\n      pop\n      swap3\n      jump\t// out\n        /* \"#utility.yul\":8338:8507   */\n    tag_91:\n        /* \"#utility.yul\":8422:8433   */\n      0x00\n        /* \"#utility.yul\":8456:8462   */\n      dup3\n        /* \"#utility.yul\":8451:8454   */\n      dup3\n        /* \"#utility.yul\":8444:8463   */\n      mstore\n        /* \"#utility.yul\":8496:8500   */\n      0x20\n        /* \"#utility.yul\":8491:8494   */\n      dup3\n        /* \"#utility.yul\":8487:8501   */\n      add\n        /* \"#utility.yul\":8472:8501   */\n      swap1\n      pop\n        /* \"#utility.yul\":8338:8507   */\n      swap3\n      swap2\n      pop\n      pop\n      jump\t// out\n        /* \"#utility.yul\":8513:8687   */\n    tag_92:\n        /* \"#utility.yul\":8653:8679   */\n      0x5573657220616c726561647920726567697374657265642e0000000000000000\n        /* \"#utility.yul\":8649:8650   */\n      0x00\n        /* \"#utility.yul\":8641:8647   */\n      dup3\n        /* \"#utility.yul\":8637:8651   */\n      add\n        /* \"#utility.yul\":8630:8680   */\n      mstore\n        /* \"#utility.yul\":8513:8687   */\n      pop\n      jump\t// out\n        /* \"#utility.yul\":8693:9059   */\n    tag_93:\n        /* \"#utility.yul\":8835:8838   */\n      0x00\n        /* \"#utility.yul\":8856:8923   */\n      tag_205\n        /* \"#utility.yul\":8920:8922   */\n      0x18\n        /* \"#utility.yul\":8915:8918   */\n      dup4\n        /* \"#utility.yul\":8856:8923   */\n      tag_91\n      jump\t// in\n    tag_205:\n        /* \"#utility.yul\":8849:8923   */\n      swap2\n      pop\n        /* \"#utility.yul\":8932:9025   */\n      tag_206\n        /* \"#utility.yul\":9021:9024   */\n      dup3\n        /* \"#utility.yul\":8932:9025   */\n      tag_92\n      jump\t// in\n    tag_206:\n        /* \"#utility.yul\":9050:9052   */\n      0x20\n        /* \"#utility.yul\":9045:9048   */\n      dup3\n        /* \"#utility.yul\":9041:9053   */\n      add\n        /* \"#utility.yul\":9034:9053   */\n      swap1\n      pop\n        /* \"#utility.yul\":8693:9059   */\n      swap2\n      swap1\n      pop\n      jump\t// out\n        /* \"#utility.yul\":9065:9484   */\n    tag_44:\n        /* \"#utility.yul\":9231:9235   */\n      0x00\n        /* \"#utility.yul\":9269:9271   */\n      0x20\n        /* \"#utility.yul\":9258:9267   */\n      dup3\n        /* \"#utility.yul\":9254:9272   */\n      add\n        /* \"#utility.yul\":9246:9272   */\n      swap1\n      pop\n        /* \"#utility.yul\":9318:9327   */\n      dup2\n        /* \"#utility.yul\":9312:9316   */\n      dup2\n        /* \"#utility.yul\":9308:9328   */\n      sub\n        /* \"#utility.yul\":9304:9305   */\n      0x00\n        /* \"#utility.yul\":9293:9302   */\n      dup4\n        /* \"#utility.yul\":9289:9306   */\n      add\n        /* \"#utility.yul\":9282:9329   */\n      mstore\n        /* \"#utility.yul\":9346:9477   */\n      tag_208\n        /* \"#utility.yul\":9472:9476   */\n      dup2\n        /* \"#utility.yul\":9346:9477   */\n      tag_93\n      jump\t// in\n    tag_208:\n        /* \"#utility.yul\":9338:9477   */\n      swap1\n      pop\n        /* \"#utility.yul\":9065:9484   */\n      swap2\n      swap1\n      pop\n      jump\t// out\n        /* \"#utility.yul\":9490:9584   */\n    tag_94:\n        /* \"#utility.yul\":9523:9531   */\n      0x00\n        /* \"#utility.yul\":9571:9576   */\n      dup2\n        /* \"#utility.yul\":9567:9569   */\n      0x60\n        /* \"#utility.yul\":9563:9577   */\n      shl\n        /* \"#utility.yul\":9542:9577   */\n      swap1\n      pop\n        /* \"#utility.yul\":9490:9584   */\n      swap2\n      swap1\n      pop\n      jump\t// out\n        /* \"#utility.yul\":9590:9684   */\n    tag_95:\n        /* \"#utility.yul\":9629:9636   */\n      0x00\n        /* \"#utility.yul\":9658:9678   */\n      tag_211\n        /* \"#utility.yul\":9672:9677   */\n      dup3\n        /* \"#utility.yul\":9658:9678   */\n      tag_94\n      jump\t// in\n    tag_211:\n        /* \"#utility.yul\":9647:9678   */\n      swap1\n      pop\n        /* \"#utility.yul\":9590:9684   */\n      swap2\n      swap1\n      pop\n      jump\t// out\n        /* \"#utility.yul\":9690:9790   */\n    tag_96:\n        /* \"#utility.yul\":9729:9736   */\n      0x00\n        /* \"#utility.yul\":9758:9784   */\n      tag_213\n        /* \"#utility.yul\":9778:9783   */\n      dup3\n        /* \"#utility.yul\":9758:9784   */\n      tag_95\n      jump\t// in\n    tag_213:\n        /* \"#utility.yul\":9747:9784   */\n      swap1\n      pop\n        /* \"#utility.yul\":9690:9790   */\n      swap2\n      swap1\n      pop\n      jump\t// out\n        /* \"#utility.yul\":9796:9953   */\n    tag_97:\n        /* \"#utility.yul\":9901:9946   */\n      tag_215\n        /* \"#utility.yul\":9921:9945   */\n      tag_216\n        /* \"#utility.yul\":9939:9944   */\n      dup3\n        /* \"#utility.yul\":9921:9945   */\n      tag_66\n      jump\t// in\n    tag_216:\n        /* \"#utility.yul\":9901:9946   */\n      tag_96\n      jump\t// in\n    tag_215:\n        /* \"#utility.yul\":9896:9899   */\n      dup3\n        /* \"#utility.yul\":9889:9947   */\n      mstore\n        /* \"#utility.yul\":9796:9953   */\n      pop\n      pop\n      jump\t// out\n        /* \"#utility.yul\":9959:10038   */\n    tag_98:\n        /* \"#utility.yul\":9998:10005   */\n      0x00\n        /* \"#utility.yul\":10027:10032   */\n      dup2\n        /* \"#utility.yul\":10016:10032   */\n      swap1\n      pop\n        /* \"#utility.yul\":9959:10038   */\n      swap2\n      swap1\n      pop\n      jump\t// out\n        /* \"#utility.yul\":10044:10201   */\n    tag_99:\n        /* \"#utility.yul\":10149:10194   */\n      tag_219\n        /* \"#utility.yul\":10169:10193   */\n      tag_220\n        /* \"#utility.yul\":10187:10192   */\n      dup3\n        /* \"#utility.yul\":10169:10193   */\n      tag_71\n      jump\t// in\n    tag_220:\n        /* \"#utility.yul\":10149:10194   */\n      tag_98\n      jump\t// in\n    tag_219:\n        /* \"#utility.yul\":10144:10147   */\n      dup3\n        /* \"#utility.yul\":10137:10195   */\n      mstore\n        /* \"#utility.yul\":10044:10201   */\n      pop\n      pop\n      jump\t// out\n        /* \"#utility.yul\":10207:10604   */\n    tag_48:\n        /* \"#utility.yul\":10347:10350   */\n      0x00\n        /* \"#utility.yul\":10362:10437   */\n      tag_222\n        /* \"#utility.yul\":10433:10436   */\n      dup3\n        /* \"#utility.yul\":10424:10430   */\n      dup6\n        /* \"#utility.yul\":10362:10437   */\n      tag_97\n      jump\t// in\n    tag_222:\n        /* \"#utility.yul\":10462:10464   */\n      0x14\n        /* \"#utility.yul\":10457:10460   */\n      dup3\n        /* \"#utility.yul\":10453:10465   */\n      add\n        /* \"#utility.yul\":10446:10465   */\n      swap2\n      pop\n        /* \"#utility.yul\":10475:10550   */\n      tag_223\n        /* \"#utility.yul\":10546:10549   */\n      dup3\n        /* \"#utility.yul\":10537:10543   */\n      dup5\n        /* \"#utility.yul\":10475:10550   */\n      tag_99\n      jump\t// in\n    tag_223:\n        /* \"#utility.yul\":10575:10577   */\n      0x20\n        /* \"#utility.yul\":10570:10573   */\n      dup3\n        /* \"#utility.yul\":10566:10578   */\n      add\n        /* \"#utility.yul\":10559:10578   */\n      swap2\n      pop\n        /* \"#utility.yul\":10595:10598   */\n      dup2\n        /* \"#utility.yul\":10588:10598   */\n      swap1\n      pop\n        /* \"#utility.yul\":10207:10604   */\n      swap4\n      swap3\n      pop\n      pop\n      pop\n      jump\t// out\n        /* \"#utility.yul\":10610:11155   */\n    tag_52:\n        /* \"#utility.yul\":10783:10787   */\n      0x00\n        /* \"#utility.yul\":10821:10824   */\n      0x80\n        /* \"#utility.yul\":10810:10819   */\n      dup3\n        /* \"#utility.yul\":10806:10825   */\n      add\n        /* \"#utility.yul\":10798:10825   */\n      swap1\n      pop\n        /* \"#utility.yul\":10835:10906   */\n      tag_225\n        /* \"#utility.yul\":10903:10904   */\n      0x00\n        /* \"#utility.yul\":10892:10901   */\n      dup4\n        /* \"#utility.yul\":10888:10905   */\n      add\n        /* \"#utility.yul\":10879:10885   */\n      dup8\n        /* \"#utility.yul\":10835:10906   */\n      tag_75\n      jump\t// in\n    tag_225:\n        /* \"#utility.yul\":10916:10984   */\n      tag_226\n        /* \"#utility.yul\":10980:10982   */\n      0x20\n        /* \"#utility.yul\":10969:10978   */\n      dup4\n        /* \"#utility.yul\":10965:10983   */\n      add\n        /* \"#utility.yul\":10956:10962   */\n      dup7\n        /* \"#utility.yul\":10916:10984   */\n      tag_90\n      jump\t// in\n    tag_226:\n        /* \"#utility.yul\":10994:11066   */\n      tag_227\n        /* \"#utility.yul\":11062:11064   */\n      0x40\n        /* \"#utility.yul\":11051:11060   */\n      dup4\n        /* \"#utility.yul\":11047:11065   */\n      add\n        /* \"#utility.yul\":11038:11044   */\n      dup6\n        /* \"#utility.yul\":10994:11066   */\n      tag_75\n      jump\t// in\n    tag_227:\n        /* \"#utility.yul\":11076:11148   */\n      tag_228\n        /* \"#utility.yul\":11144:11146   */\n      0x60\n        /* \"#utility.yul\":11133:11142   */\n      dup4\n        /* \"#utility.yul\":11129:11147   */\n      add\n        /* \"#utility.yul\":11120:11126   */\n      dup5\n        /* \"#utility.yul\":11076:11148   */\n      tag_75\n      jump\t// in\n    tag_228:\n        /* \"#utility.yul\":10610:11155   */\n      swap6\n      swap5\n      pop\n      pop\n      pop\n      pop\n      pop\n      jump\t// out\n        /* \"#utility.yul\":11161:11335   */\n    tag_100:\n        /* \"#utility.yul\":11301:11327   */\n      0x496e76616c6964207369676e6174757265206c656e6774680000000000000000\n        /* \"#utility.yul\":11297:11298   */\n      0x00\n        /* \"#utility.yul\":11289:11295   */\n      dup3\n        /* \"#utility.yul\":11285:11299   */\n      add\n        /* \"#utility.yul\":11278:11328   */\n      mstore\n        /* \"#utility.yul\":11161:11335   */\n      pop\n      jump\t// out\n        /* \"#utility.yul\":11341:11707   */\n    tag_101:\n        /* \"#utility.yul\":11483:11486   */\n      0x00\n        /* \"#utility.yul\":11504:11571   */\n      tag_231\n        /* \"#utility.yul\":11568:11570   */\n      0x18\n        /* \"#utility.yul\":11563:11566   */\n      dup4\n        /* \"#utility.yul\":11504:11571   */\n      tag_91\n      jump\t// in\n    tag_231:\n        /* \"#utility.yul\":11497:11571   */\n      swap2\n      pop\n        /* \"#utility.yul\":11580:11673   */\n      tag_232\n        /* \"#utility.yul\":11669:11672   */\n      dup3\n        /* \"#utility.yul\":11580:11673   */\n      tag_100\n      jump\t// in\n    tag_232:\n        /* \"#utility.yul\":11698:11700   */\n      0x20\n        /* \"#utility.yul\":11693:11696   */\n      dup3\n        /* \"#utility.yul\":11689:11701   */\n      add\n        /* \"#utility.yul\":11682:11701   */\n      swap1\n      pop\n        /* \"#utility.yul\":11341:11707   */\n      swap2\n      swap1\n      pop\n      jump\t// out\n        /* \"#utility.yul\":11713:12132   */\n    tag_58:\n        /* \"#utility.yul\":11879:11883   */\n      0x00\n        /* \"#utility.yul\":11917:11919   */\n      0x20\n        /* \"#utility.yul\":11906:11915   */\n      dup3\n        /* \"#utility.yul\":11902:11920   */\n      add\n        /* \"#utility.yul\":11894:11920   */\n      swap1\n      pop\n        /* \"#utility.yul\":11966:11975   */\n      dup2\n        /* \"#utility.yul\":11960:11964   */\n      dup2\n        /* \"#utility.yul\":11956:11976   */\n      sub\n        /* \"#utility.yul\":11952:11953   */\n      0x00\n        /* \"#utility.yul\":11941:11950   */\n      dup4\n        /* \"#utility.yul\":11937:11954   */\n      add\n        /* \"#utility.yul\":11930:11977   */\n      mstore\n        /* \"#utility.yul\":11994:12125   */\n      tag_234\n        /* \"#utility.yul\":12120:12124   */\n      dup2\n        /* \"#utility.yul\":11994:12125   */\n      tag_101\n      jump\t// in\n    tag_234:\n        /* \"#utility.yul\":11986:12125   */\n      swap1\n      pop\n        /* \"#utility.yul\":11713:12132   */\n      swap2\n      swap1\n      pop\n      jump\t// out\n\n    auxdata: 0xa2646970667358221220d1085a520c99798562b177af7ab3651d9ee3bfd685e092fa38b933397f78a17564736f6c634300081a0033\n}\n",
				"bytecode": {
					"linkReferences": {},
					"object": "6080604052348015600e575f80fd5b50610a3a8061001c5f395ff3fe608060405234801561000f575f80fd5b5060043610610060575f3560e01c80630e50cee5146100645780634420e48614610094578063512c91df146100b057806397aba7f9146100e0578063a7bb580314610110578063c28eae6214610142575b5f80fd5b61007e60048036038101906100799190610466565b610172565b60405161008b91906104ab565b60405180910390f35b6100ae60048036038101906100a99190610466565b61018e565b005b6100ca60048036038101906100c591906104f7565b6102a5565b6040516100d7919061054d565b60405180910390f35b6100fa60048036038101906100f591906106cc565b6102d7565b6040516101079190610735565b60405180910390f35b61012a6004803603810190610125919061074e565b610341565b604051610139939291906107b0565b60405180910390f35b61015c600480360381019061015791906107e5565b6103a6565b60405161016991906104ab565b60405180910390f35b5f602052805f5260405f205f915054906101000a900460ff1681565b5f808273ffffffffffffffffffffffffffffffffffffffff1673ffffffffffffffffffffffffffffffffffffffff1681526020019081526020015f205f9054906101000a900460ff1615610217576040517f08c379a000000000000000000000000000000000000000000000000000000000815260040161020e906108ab565b60405180910390fd5b60015f808373ffffffffffffffffffffffffffffffffffffffff1673ffffffffffffffffffffffffffffffffffffffff1681526020019081526020015f205f6101000a81548160ff0219169083151502179055507f54db7a5cb4735e1aac1f53db512d3390390bb6637bd30ad4bf9fc98667d9b9b98160405161029a9190610735565b60405180910390a150565b5f82826040516020016102b992919061092e565b60405160208183030381529060405280519060200120905092915050565b5f805f806102e485610341565b9250925092506001868484846040515f815260200160405260405161030c9493929190610959565b6020604051602081039080840390855afa15801561032c573d5f803e3d5ffd5b50505060206040510351935050505092915050565b5f805f6041845114610388576040517f08c379a000000000000000000000000000000000000000000000000000000000815260040161037f906109e6565b60405180910390fd5b602084015191506040840151905060608401515f1a92509193909250565b5f806103b285856102a5565b90505f6103bf82856102d7565b90508573ffffffffffffffffffffffffffffffffffffffff168173ffffffffffffffffffffffffffffffffffffffff1614925050509392505050565b5f604051905090565b5f80fd5b5f80fd5b5f73ffffffffffffffffffffffffffffffffffffffff82169050919050565b5f6104358261040c565b9050919050565b6104458161042b565b811461044f575f80fd5b50565b5f813590506104608161043c565b92915050565b5f6020828403121561047b5761047a610404565b5b5f61048884828501610452565b91505092915050565b5f8115159050919050565b6104a581610491565b82525050565b5f6020820190506104be5f83018461049c565b92915050565b5f819050919050565b6104d6816104c4565b81146104e0575f80fd5b50565b5f813590506104f1816104cd565b92915050565b5f806040838503121561050d5761050c610404565b5b5f61051a85828601610452565b925050602061052b858286016104e3565b9150509250929050565b5f819050919050565b61054781610535565b82525050565b5f6020820190506105605f83018461053e565b92915050565b61056f81610535565b8114610579575f80fd5b50565b5f8135905061058a81610566565b92915050565b5f80fd5b5f80fd5b5f601f19601f8301169050919050565b7f4e487b71000000000000000000000000000000000000000000000000000000005f52604160045260245ffd5b6105de82610598565b810181811067ffffffffffffffff821117156105fd576105fc6105a8565b5b80604052505050565b5f61060f6103fb565b905061061b82826105d5565b919050565b5f67ffffffffffffffff82111561063a576106396105a8565b5b61064382610598565b9050602081019050919050565b828183375f83830152505050565b5f61067061066b84610620565b610606565b90508281526020810184848401111561068c5761068b610594565b5b610697848285610650565b509392505050565b5f82601f8301126106b3576106b2610590565b5b81356106c384826020860161065e565b91505092915050565b5f80604083850312156106e2576106e1610404565b5b5f6106ef8582860161057c565b925050602083013567ffffffffffffffff8111156107105761070f610408565b5b61071c8582860161069f565b9150509250929050565b61072f8161042b565b82525050565b5f6020820190506107485f830184610726565b92915050565b5f6020828403121561076357610762610404565b5b5f82013567ffffffffffffffff8111156107805761077f610408565b5b61078c8482850161069f565b91505092915050565b5f60ff82169050919050565b6107aa81610795565b82525050565b5f6060820190506107c35f8301866107a1565b6107d0602083018561053e565b6107dd604083018461053e565b949350505050565b5f805f606084860312156107fc576107fb610404565b5b5f61080986828701610452565b935050602061081a868287016104e3565b925050604084013567ffffffffffffffff81111561083b5761083a610408565b5b6108478682870161069f565b9150509250925092565b5f82825260208201905092915050565b7f5573657220616c726561647920726567697374657265642e00000000000000005f82015250565b5f610895601883610851565b91506108a082610861565b602082019050919050565b5f6020820190508181035f8301526108c281610889565b9050919050565b5f8160601b9050919050565b5f6108df826108c9565b9050919050565b5f6108f0826108d5565b9050919050565b6109086109038261042b565b6108e6565b82525050565b5f819050919050565b610928610923826104c4565b61090e565b82525050565b5f61093982856108f7565b6014820191506109498284610917565b6020820191508190509392505050565b5f60808201905061096c5f83018761053e565b61097960208301866107a1565b610986604083018561053e565b610993606083018461053e565b95945050505050565b7f496e76616c6964207369676e6174757265206c656e67746800000000000000005f82015250565b5f6109d0601883610851565b91506109db8261099c565b602082019050919050565b5f6020820190508181035f8301526109fd816109c4565b905091905056fea2646970667358221220d1085a520c99798562b177af7ab3651d9ee3bfd685e092fa38b933397f78a17564736f6c634300081a0033",
					"opcodes": "PUSH1 0x80 PUSH1 0x40 MSTORE CALLVALUE DUP1 ISZERO PUSH1 0xE JUMPI PUSH0 DUP1 REVERT JUMPDEST POP PUSH2 0xA3A DUP1 PUSH2 0x1C PUSH0 CODECOPY PUSH0 RETURN INVALID PUSH1 0x80 PUSH1 0x40 MSTORE CALLVALUE DUP1 ISZERO PUSH2 0xF JUMPI PUSH0 DUP1 REVERT JUMPDEST POP PUSH1 0x4 CALLDATASIZE LT PUSH2 0x60 JUMPI PUSH0 CALLDATALOAD PUSH1 0xE0 SHR DUP1 PUSH4 0xE50CEE5 EQ PUSH2 0x64 JUMPI DUP1 PUSH4 0x4420E486 EQ PUSH2 0x94 JUMPI DUP1 PUSH4 0x512C91DF EQ PUSH2 0xB0 JUMPI DUP1 PUSH4 0x97ABA7F9 EQ PUSH2 0xE0 JUMPI DUP1 PUSH4 0xA7BB5803 EQ PUSH2 0x110 JUMPI DUP1 PUSH4 0xC28EAE62 EQ PUSH2 0x142 JUMPI JUMPDEST PUSH0 DUP1 REVERT JUMPDEST PUSH2 0x7E PUSH1 0x4 DUP1 CALLDATASIZE SUB DUP2 ADD SWAP1 PUSH2 0x79 SWAP2 SWAP1 PUSH2 0x466 JUMP JUMPDEST PUSH2 0x172 JUMP JUMPDEST PUSH1 0x40 MLOAD PUSH2 0x8B SWAP2 SWAP1 PUSH2 0x4AB JUMP JUMPDEST PUSH1 0x40 MLOAD DUP1 SWAP2 SUB SWAP1 RETURN JUMPDEST PUSH2 0xAE PUSH1 0x4 DUP1 CALLDATASIZE SUB DUP2 ADD SWAP1 PUSH2 0xA9 SWAP2 SWAP1 PUSH2 0x466 JUMP JUMPDEST PUSH2 0x18E JUMP JUMPDEST STOP JUMPDEST PUSH2 0xCA PUSH1 0x4 DUP1 CALLDATASIZE SUB DUP2 ADD SWAP1 PUSH2 0xC5 SWAP2 SWAP1 PUSH2 0x4F7 JUMP JUMPDEST PUSH2 0x2A5 JUMP JUMPDEST PUSH1 0x40 MLOAD PUSH2 0xD7 SWAP2 SWAP1 PUSH2 0x54D JUMP JUMPDEST PUSH1 0x40 MLOAD DUP1 SWAP2 SUB SWAP1 RETURN JUMPDEST PUSH2 0xFA PUSH1 0x4 DUP1 CALLDATASIZE SUB DUP2 ADD SWAP1 PUSH2 0xF5 SWAP2 SWAP1 PUSH2 0x6CC JUMP JUMPDEST PUSH2 0x2D7 JUMP JUMPDEST PUSH1 0x40 MLOAD PUSH2 0x107 SWAP2 SWAP1 PUSH2 0x735 JUMP JUMPDEST PUSH1 0x40 MLOAD DUP1 SWAP2 SUB SWAP1 RETURN JUMPDEST PUSH2 0x12A PUSH1 0x4 DUP1 CALLDATASIZE SUB DUP2 ADD SWAP1 PUSH2 0x125 SWAP2 SWAP1 PUSH2 0x74E JUMP JUMPDEST PUSH2 0x341 JUMP JUMPDEST PUSH1 0x40 MLOAD PUSH2 0x139 SWAP4 SWAP3 SWAP2 SWAP1 PUSH2 0x7B0 JUMP JUMPDEST PUSH1 0x40 MLOAD DUP1 SWAP2 SUB SWAP1 RETURN JUMPDEST PUSH2 0x15C PUSH1 0x4 DUP1 CALLDATASIZE SUB DUP2 ADD SWAP1 PUSH2 0x157 SWAP2 SWAP1 PUSH2 0x7E5 JUMP JUMPDEST PUSH2 0x3A6 JUMP JUMPDEST PUSH1 0x40 MLOAD PUSH2 0x169 SWAP2 SWAP1 PUSH2 0x4AB JUMP JUMPDEST PUSH1 0x40 MLOAD DUP1 SWAP2 SUB SWAP1 RETURN JUMPDEST PUSH0 PUSH1 0x20 MSTORE DUP1 PUSH0 MSTORE PUSH1 0x40 PUSH0 KECCAK256 PUSH0 SWAP2 POP SLOAD SWAP1 PUSH2 0x100 EXP SWAP1 DIV PUSH1 0xFF AND DUP2 JUMP JUMPDEST PUSH0 DUP1 DUP3 PUSH20 0xFFFFFFFFFFFFFFFFFFFFFFFFFFFFFFFFFFFFFFFF AND PUSH20 0xFFFFFFFFFFFFFFFFFFFFFFFFFFFFFFFFFFFFFFFF AND DUP2 MSTORE PUSH1 0x20 ADD SWAP1 DUP2 MSTORE PUSH1 0x20 ADD PUSH0 KECCAK256 PUSH0 SWAP1 SLOAD SWAP1 PUSH2 0x100 EXP SWAP1 DIV PUSH1 0xFF AND ISZERO PUSH2 0x217 JUMPI PUSH1 0x40 MLOAD PUSH32 0x8C379A000000000000000000000000000000000000000000000000000000000 DUP2 MSTORE PUSH1 0x4 ADD PUSH2 0x20E SWAP1 PUSH2 0x8AB JUMP JUMPDEST PUSH1 0x40 MLOAD DUP1 SWAP2 SUB SWAP1 REVERT JUMPDEST PUSH1 0x1 PUSH0 DUP1 DUP4 PUSH20 0xFFFFFFFFFFFFFFFFFFFFFFFFFFFFFFFFFFFFFFFF AND PUSH20 0xFFFFFFFFFFFFFFFFFFFFFFFFFFFFFFFFFFFFFFFF AND DUP2 MSTORE PUSH1 0x20 ADD SWAP1 DUP2 MSTORE PUSH1 0x20 ADD PUSH0 KECCAK256 PUSH0 PUSH2 0x100 EXP DUP2 SLOAD DUP2 PUSH1 0xFF MUL NOT AND SWAP1 DUP4 ISZERO ISZERO MUL OR SWAP1 SSTORE POP PUSH32 0x54DB7A5CB4735E1AAC1F53DB512D3390390BB6637BD30AD4BF9FC98667D9B9B9 DUP2 PUSH1 0x40 MLOAD PUSH2 0x29A SWAP2 SWAP1 PUSH2 0x735 JUMP JUMPDEST PUSH1 0x40 MLOAD DUP1 SWAP2 SUB SWAP1 LOG1 POP JUMP JUMPDEST PUSH0 DUP3 DUP3 PUSH1 0x40 MLOAD PUSH1 0x20 ADD PUSH2 0x2B9 SWAP3 SWAP2 SWAP1 PUSH2 0x92E JUMP JUMPDEST PUSH1 0x40 MLOAD PUSH1 0x20 DUP2 DUP4 SUB SUB DUP2 MSTORE SWAP1 PUSH1 0x40 MSTORE DUP1 MLOAD SWAP1 PUSH1 0x20 ADD KECCAK256 SWAP1 POP SWAP3 SWAP2 POP POP JUMP JUMPDEST PUSH0 DUP1 PUSH0 DUP1 PUSH2 0x2E4 DUP6 PUSH2 0x341 JUMP JUMPDEST SWAP3 POP SWAP3 POP SWAP3 POP PUSH1 0x1 DUP7 DUP5 DUP5 DUP5 PUSH1 0x40 MLOAD PUSH0 DUP2 MSTORE PUSH1 0x20 ADD PUSH1 0x40 MSTORE PUSH1 0x40 MLOAD PUSH2 0x30C SWAP5 SWAP4 SWAP3 SWAP2 SWAP1 PUSH2 0x959 JUMP JUMPDEST PUSH1 0x20 PUSH1 0x40 MLOAD PUSH1 0x20 DUP2 SUB SWAP1 DUP1 DUP5 SUB SWAP1 DUP6 GAS STATICCALL ISZERO DUP1 ISZERO PUSH2 0x32C JUMPI RETURNDATASIZE PUSH0 DUP1 RETURNDATACOPY RETURNDATASIZE PUSH0 REVERT JUMPDEST POP POP POP PUSH1 0x20 PUSH1 0x40 MLOAD SUB MLOAD SWAP4 POP POP POP POP SWAP3 SWAP2 POP POP JUMP JUMPDEST PUSH0 DUP1 PUSH0 PUSH1 0x41 DUP5 MLOAD EQ PUSH2 0x388 JUMPI PUSH1 0x40 MLOAD PUSH32 0x8C379A000000000000000000000000000000000000000000000000000000000 DUP2 MSTORE PUSH1 0x4 ADD PUSH2 0x37F SWAP1 PUSH2 0x9E6 JUMP JUMPDEST PUSH1 0x40 MLOAD DUP1 SWAP2 SUB SWAP1 REVERT JUMPDEST PUSH1 0x20 DUP5 ADD MLOAD SWAP2 POP PUSH1 0x40 DUP5 ADD MLOAD SWAP1 POP PUSH1 0x60 DUP5 ADD MLOAD PUSH0 BYTE SWAP3 POP SWAP2 SWAP4 SWAP1 SWAP3 POP JUMP JUMPDEST PUSH0 DUP1 PUSH2 0x3B2 DUP6 DUP6 PUSH2 0x2A5 JUMP JUMPDEST SWAP1 POP PUSH0 PUSH2 0x3BF DUP3 DUP6 PUSH2 0x2D7 JUMP JUMPDEST SWAP1 POP DUP6 PUSH20 0xFFFFFFFFFFFFFFFFFFFFFFFFFFFFFFFFFFFFFFFF AND DUP2 PUSH20 0xFFFFFFFFFFFFFFFFFFFFFFFFFFFFFFFFFFFFFFFF AND EQ SWAP3 POP POP POP SWAP4 SWAP3 POP POP POP JUMP JUMPDEST PUSH0 PUSH1 0x40 MLOAD SWAP1 POP SWAP1 JUMP JUMPDEST PUSH0 DUP1 REVERT JUMPDEST PUSH0 DUP1 REVERT JUMPDEST PUSH0 PUSH20 0xFFFFFFFFFFFFFFFFFFFFFFFFFFFFFFFFFFFFFFFF DUP3 AND SWAP1 POP SWAP2 SWAP1 POP JUMP JUMPDEST PUSH0 PUSH2 0x435 DUP3 PUSH2 0x40C JUMP JUMPDEST SWAP1 POP SWAP2 SWAP1 POP JUMP JUMPDEST PUSH2 0x445 DUP2 PUSH2 0x42B JUMP JUMPDEST DUP2 EQ PUSH2 0x44F JUMPI PUSH0 DUP1 REVERT JUMPDEST POP JUMP JUMPDEST PUSH0 DUP2 CALLDATALOAD SWAP1 POP PUSH2 0x460 DUP2 PUSH2 0x43C JUMP JUMPDEST SWAP3 SWAP2 POP POP JUMP JUMPDEST PUSH0 PUSH1 0x20 DUP3 DUP5 SUB SLT ISZERO PUSH2 0x47B JUMPI PUSH2 0x47A PUSH2 0x404 JUMP JUMPDEST JUMPDEST PUSH0 PUSH2 0x488 DUP5 DUP3 DUP6 ADD PUSH2 0x452 JUMP JUMPDEST SWAP2 POP POP SWAP3 SWAP2 POP POP JUMP JUMPDEST PUSH0 DUP2 ISZERO ISZERO SWAP1 POP SWAP2 SWAP1 POP JUMP JUMPDEST PUSH2 0x4A5 DUP2 PUSH2 0x491 JUMP JUMPDEST DUP3 MSTORE POP POP JUMP JUMPDEST PUSH0 PUSH1 0x20 DUP3 ADD SWAP1 POP PUSH2 0x4BE PUSH0 DUP4 ADD DUP5 PUSH2 0x49C JUMP JUMPDEST SWAP3 SWAP2 POP POP JUMP JUMPDEST PUSH0 DUP2 SWAP1 POP SWAP2 SWAP1 POP JUMP JUMPDEST PUSH2 0x4D6 DUP2 PUSH2 0x4C4 JUMP JUMPDEST DUP2 EQ PUSH2 0x4E0 JUMPI PUSH0 DUP1 REVERT JUMPDEST POP JUMP JUMPDEST PUSH0 DUP2 CALLDATALOAD SWAP1 POP PUSH2 0x4F1 DUP2 PUSH2 0x4CD JUMP JUMPDEST SWAP3 SWAP2 POP POP JUMP JUMPDEST PUSH0 DUP1 PUSH1 0x40 DUP4 DUP6 SUB SLT ISZERO PUSH2 0x50D JUMPI PUSH2 0x50C PUSH2 0x404 JUMP JUMPDEST JUMPDEST PUSH0 PUSH2 0x51A DUP6 DUP3 DUP7 ADD PUSH2 0x452 JUMP JUMPDEST SWAP3 POP POP PUSH1 0x20 PUSH2 0x52B DUP6 DUP3 DUP7 ADD PUSH2 0x4E3 JUMP JUMPDEST SWAP2 POP POP SWAP3 POP SWAP3 SWAP1 POP JUMP JUMPDEST PUSH0 DUP2 SWAP1 POP SWAP2 SWAP1 POP JUMP JUMPDEST PUSH2 0x547 DUP2 PUSH2 0x535 JUMP JUMPDEST DUP3 MSTORE POP POP JUMP JUMPDEST PUSH0 PUSH1 0x20 DUP3 ADD SWAP1 POP PUSH2 0x560 PUSH0 DUP4 ADD DUP5 PUSH2 0x53E JUMP JUMPDEST SWAP3 SWAP2 POP POP JUMP JUMPDEST PUSH2 0x56F DUP2 PUSH2 0x535 JUMP JUMPDEST DUP2 EQ PUSH2 0x579 JUMPI PUSH0 DUP1 REVERT JUMPDEST POP JUMP JUMPDEST PUSH0 DUP2 CALLDATALOAD SWAP1 POP PUSH2 0x58A DUP2 PUSH2 0x566 JUMP JUMPDEST SWAP3 SWAP2 POP POP JUMP JUMPDEST PUSH0 DUP1 REVERT JUMPDEST PUSH0 DUP1 REVERT JUMPDEST PUSH0 PUSH1 0x1F NOT PUSH1 0x1F DUP4 ADD AND SWAP1 POP SWAP2 SWAP1 POP JUMP JUMPDEST PUSH32 0x4E487B7100000000000000000000000000000000000000000000000000000000 PUSH0 MSTORE PUSH1 0x41 PUSH1 0x4 MSTORE PUSH1 0x24 PUSH0 REVERT JUMPDEST PUSH2 0x5DE DUP3 PUSH2 0x598 JUMP JUMPDEST DUP2 ADD DUP2 DUP2 LT PUSH8 0xFFFFFFFFFFFFFFFF DUP3 GT OR ISZERO PUSH2 0x5FD JUMPI PUSH2 0x5FC PUSH2 0x5A8 JUMP JUMPDEST JUMPDEST DUP1 PUSH1 0x40 MSTORE POP POP POP JUMP JUMPDEST PUSH0 PUSH2 0x60F PUSH2 0x3FB JUMP JUMPDEST SWAP1 POP PUSH2 0x61B DUP3 DUP3 PUSH2 0x5D5 JUMP JUMPDEST SWAP2 SWAP1 POP JUMP JUMPDEST PUSH0 PUSH8 0xFFFFFFFFFFFFFFFF DUP3 GT ISZERO PUSH2 0x63A JUMPI PUSH2 0x639 PUSH2 0x5A8 JUMP JUMPDEST JUMPDEST PUSH2 0x643 DUP3 PUSH2 0x598 JUMP JUMPDEST SWAP1 POP PUSH1 0x20 DUP2 ADD SWAP1 POP SWAP2 SWAP1 POP JUMP JUMPDEST DUP3 DUP2 DUP4 CALLDATACOPY PUSH0 DUP4 DUP4 ADD MSTORE POP POP POP JUMP JUMPDEST PUSH0 PUSH2 0x670 PUSH2 0x66B DUP5 PUSH2 0x620 JUMP JUMPDEST PUSH2 0x606 JUMP JUMPDEST SWAP1 POP DUP3 DUP2 MSTORE PUSH1 0x20 DUP2 ADD DUP5 DUP5 DUP5 ADD GT ISZERO PUSH2 0x68C JUMPI PUSH2 0x68B PUSH2 0x594 JUMP JUMPDEST JUMPDEST PUSH2 0x697 DUP5 DUP3 DUP6 PUSH2 0x650 JUMP JUMPDEST POP SWAP4 SWAP3 POP POP POP JUMP JUMPDEST PUSH0 DUP3 PUSH1 0x1F DUP4 ADD SLT PUSH2 0x6B3 JUMPI PUSH2 0x6B2 PUSH2 0x590 JUMP JUMPDEST JUMPDEST DUP2 CALLDATALOAD PUSH2 0x6C3 DUP5 DUP3 PUSH1 0x20 DUP7 ADD PUSH2 0x65E JUMP JUMPDEST SWAP2 POP POP SWAP3 SWAP2 POP POP JUMP JUMPDEST PUSH0 DUP1 PUSH1 0x40 DUP4 DUP6 SUB SLT ISZERO PUSH2 0x6E2 JUMPI PUSH2 0x6E1 PUSH2 0x404 JUMP JUMPDEST JUMPDEST PUSH0 PUSH2 0x6EF DUP6 DUP3 DUP7 ADD PUSH2 0x57C JUMP JUMPDEST SWAP3 POP POP PUSH1 0x20 DUP4 ADD CALLDATALOAD PUSH8 0xFFFFFFFFFFFFFFFF DUP2 GT ISZERO PUSH2 0x710 JUMPI PUSH2 0x70F PUSH2 0x408 JUMP JUMPDEST JUMPDEST PUSH2 0x71C DUP6 DUP3 DUP7 ADD PUSH2 0x69F JUMP JUMPDEST SWAP2 POP POP SWAP3 POP SWAP3 SWAP1 POP JUMP JUMPDEST PUSH2 0x72F DUP2 PUSH2 0x42B JUMP JUMPDEST DUP3 MSTORE POP POP JUMP JUMPDEST PUSH0 PUSH1 0x20 DUP3 ADD SWAP1 POP PUSH2 0x748 PUSH0 DUP4 ADD DUP5 PUSH2 0x726 JUMP JUMPDEST SWAP3 SWAP2 POP POP JUMP JUMPDEST PUSH0 PUSH1 0x20 DUP3 DUP5 SUB SLT ISZERO PUSH2 0x763 JUMPI PUSH2 0x762 PUSH2 0x404 JUMP JUMPDEST JUMPDEST PUSH0 DUP3 ADD CALLDATALOAD PUSH8 0xFFFFFFFFFFFFFFFF DUP2 GT ISZERO PUSH2 0x780 JUMPI PUSH2 0x77F PUSH2 0x408 JUMP JUMPDEST JUMPDEST PUSH2 0x78C DUP5 DUP3 DUP6 ADD PUSH2 0x69F JUMP JUMPDEST SWAP2 POP POP SWAP3 SWAP2 POP POP JUMP JUMPDEST PUSH0 PUSH1 0xFF DUP3 AND SWAP1 POP SWAP2 SWAP1 POP JUMP JUMPDEST PUSH2 0x7AA DUP2 PUSH2 0x795 JUMP JUMPDEST DUP3 MSTORE POP POP JUMP JUMPDEST PUSH0 PUSH1 0x60 DUP3 ADD SWAP1 POP PUSH2 0x7C3 PUSH0 DUP4 ADD DUP7 PUSH2 0x7A1 JUMP JUMPDEST PUSH2 0x7D0 PUSH1 0x20 DUP4 ADD DUP6 PUSH2 0x53E JUMP JUMPDEST PUSH2 0x7DD PUSH1 0x40 DUP4 ADD DUP5 PUSH2 0x53E JUMP JUMPDEST SWAP5 SWAP4 POP POP POP POP JUMP JUMPDEST PUSH0 DUP1 PUSH0 PUSH1 0x60 DUP5 DUP7 SUB SLT ISZERO PUSH2 0x7FC JUMPI PUSH2 0x7FB PUSH2 0x404 JUMP JUMPDEST JUMPDEST PUSH0 PUSH2 0x809 DUP7 DUP3 DUP8 ADD PUSH2 0x452 JUMP JUMPDEST SWAP4 POP POP PUSH1 0x20 PUSH2 0x81A DUP7 DUP3 DUP8 ADD PUSH2 0x4E3 JUMP JUMPDEST SWAP3 POP POP PUSH1 0x40 DUP5 ADD CALLDATALOAD PUSH8 0xFFFFFFFFFFFFFFFF DUP2 GT ISZERO PUSH2 0x83B JUMPI PUSH2 0x83A PUSH2 0x408 JUMP JUMPDEST JUMPDEST PUSH2 0x847 DUP7 DUP3 DUP8 ADD PUSH2 0x69F JUMP JUMPDEST SWAP2 POP POP SWAP3 POP SWAP3 POP SWAP3 JUMP JUMPDEST PUSH0 DUP3 DUP3 MSTORE PUSH1 0x20 DUP3 ADD SWAP1 POP SWAP3 SWAP2 POP POP JUMP JUMPDEST PUSH32 0x5573657220616C726561647920726567697374657265642E0000000000000000 PUSH0 DUP3 ADD MSTORE POP JUMP JUMPDEST PUSH0 PUSH2 0x895 PUSH1 0x18 DUP4 PUSH2 0x851 JUMP JUMPDEST SWAP2 POP PUSH2 0x8A0 DUP3 PUSH2 0x861 JUMP JUMPDEST PUSH1 0x20 DUP3 ADD SWAP1 POP SWAP2 SWAP1 POP JUMP JUMPDEST PUSH0 PUSH1 0x20 DUP3 ADD SWAP1 POP DUP2 DUP2 SUB PUSH0 DUP4 ADD MSTORE PUSH2 0x8C2 DUP2 PUSH2 0x889 JUMP JUMPDEST SWAP1 POP SWAP2 SWAP1 POP JUMP JUMPDEST PUSH0 DUP2 PUSH1 0x60 SHL SWAP1 POP SWAP2 SWAP1 POP JUMP JUMPDEST PUSH0 PUSH2 0x8DF DUP3 PUSH2 0x8C9 JUMP JUMPDEST SWAP1 POP SWAP2 SWAP1 POP JUMP JUMPDEST PUSH0 PUSH2 0x8F0 DUP3 PUSH2 0x8D5 JUMP JUMPDEST SWAP1 POP SWAP2 SWAP1 POP JUMP JUMPDEST PUSH2 0x908 PUSH2 0x903 DUP3 PUSH2 0x42B JUMP JUMPDEST PUSH2 0x8E6 JUMP JUMPDEST DUP3 MSTORE POP POP JUMP JUMPDEST PUSH0 DUP2 SWAP1 POP SWAP2 SWAP1 POP JUMP JUMPDEST PUSH2 0x928 PUSH2 0x923 DUP3 PUSH2 0x4C4 JUMP JUMPDEST PUSH2 0x90E JUMP JUMPDEST DUP3 MSTORE POP POP JUMP JUMPDEST PUSH0 PUSH2 0x939 DUP3 DUP6 PUSH2 0x8F7 JUMP JUMPDEST PUSH1 0x14 DUP3 ADD SWAP2 POP PUSH2 0x949 DUP3 DUP5 PUSH2 0x917 JUMP JUMPDEST PUSH1 0x20 DUP3 ADD SWAP2 POP DUP2 SWAP1 POP SWAP4 SWAP3 POP POP POP JUMP JUMPDEST PUSH0 PUSH1 0x80 DUP3 ADD SWAP1 POP PUSH2 0x96C PUSH0 DUP4 ADD DUP8 PUSH2 0x53E JUMP JUMPDEST PUSH2 0x979 PUSH1 0x20 DUP4 ADD DUP7 PUSH2 0x7A1 JUMP JUMPDEST PUSH2 0x986 PUSH1 0x40 DUP4 ADD DUP6 PUSH2 0x53E JUMP JUMPDEST PUSH2 0x993 PUSH1 0x60 DUP4 ADD DUP5 PUSH2 0x53E JUMP JUMPDEST SWAP6 SWAP5 POP POP POP POP POP JUMP JUMPDEST PUSH32 0x496E76616C6964207369676E6174757265206C656E6774680000000000000000 PUSH0 DUP3 ADD MSTORE POP JUMP JUMPDEST PUSH0 PUSH2 0x9D0 PUSH1 0x18 DUP4 PUSH2 0x851 JUMP JUMPDEST SWAP2 POP PUSH2 0x9DB DUP3 PUSH2 0x99C JUMP JUMPDEST PUSH1 0x20 DUP3 ADD SWAP1 POP SWAP2 SWAP1 POP JUMP JUMPDEST PUSH0 PUSH1 0x20 DUP3 ADD SWAP1 POP DUP2 DUP2 SUB PUSH0 DUP4 ADD MSTORE PUSH2 0x9FD DUP2 PUSH2 0x9C4 JUMP JUMPDEST SWAP1 POP SWAP2 SWAP1 POP JUMP INVALID LOG2 PUSH5 0x6970667358 0x22 SLT KECCAK256 0xD1 ADDMOD GAS MSTORE 0xC SWAP10 PUSH26 0x8562B177AF7AB3651D9EE3BFD685E092FA38B933397F78A17564 PUSH20 0x6F6C634300081A00330000000000000000000000 "
				},
				"gasEstimates": {
					"creation": {
						"codeDepositCost": "523600",
						"executionCost": "554",
						"totalCost": "524154"
					},
					"external": {
						"getMessageHash(address,uint256)": "infinite",
						"recoverSigner(bytes32,bytes)": "infinite",
						"register(address)": "infinite",
						"registeredUsers(address)": "2810",
						"splitSignature(bytes)": "infinite",
						"verifyLogin(address,uint256,bytes)": "infinite"
					}
				},
				"methodIdentifiers": {
					"getMessageHash(address,uint256)": "512c91df",
					"recoverSigner(bytes32,bytes)": "97aba7f9",
					"register(address)": "4420e486",
					"registeredUsers(address)": "0e50cee5",
					"splitSignature(bytes)": "a7bb5803",
					"verifyLogin(address,uint256,bytes)": "c28eae62"
				}
			},
			"storageLayout": {
				"storage": [
					{
						"astId": 5,
						"contract": "contracts/metamask-login.sol:LoginSystem",
						"label": "registeredUsers",
						"offset": 0,
						"slot": "0",
						"type": "t_mapping(t_address,t_bool)"
					}
				],
				"types": {
					"t_address": {
						"encoding": "inplace",
						"label": "address",
						"numberOfBytes": "20"
					},
					"t_bool": {
						"encoding": "inplace",
						"label": "bool",
						"numberOfBytes": "1"
					},
					"t_mapping(t_address,t_bool)": {
						"encoding": "mapping",
						"key": "t_address",
						"label": "mapping(address => bool)",
						"numberOfBytes": "32",
						"value": "t_bool"
					}
				}
			},
			"userdoc": {
				"kind": "user",
				"methods": {},
				"version": 1
			}
		}
	}
}