{
	"contracts/main.sol": {
		"main": {
			"abi": [
				{
					"inputs": [
						{
							"internalType": "string",
							"name": "_donorPass",
							"type": "string"
						},
						{
							"internalType": "string",
							"name": "_recipientPass",
							"type": "string"
						},
						{
							"internalType": "string",
							"name": "_matchedPass",
							"type": "string"
						}
					],
					"stateMutability": "nonpayable",
					"type": "constructor"
				},
				{
					"anonymous": false,
					"inputs": [
						{
							"indexed": false,
							"internalType": "string",
							"name": "donorOwner",
							"type": "string"
						},
						{
							"indexed": false,
							"internalType": "uint256",
							"name": "donorBloodType",
							"type": "uint256"
						},
						{
							"indexed": false,
							"internalType": "string",
							"name": "donorOrgan",
							"type": "string"
						},
						{
							"indexed": false,
							"internalType": "uint256",
							"name": "donorQuantity",
							"type": "uint256"
						},
						{
							"indexed": false,
							"internalType": "string",
							"name": "donorHospital",
							"type": "string"
						}
					],
					"name": "DonMatchFound",
					"type": "event"
				},
				{
					"anonymous": false,
					"inputs": [
						{
							"indexed": false,
							"internalType": "string",
							"name": "recipientOwner",
							"type": "string"
						},
						{
							"indexed": false,
							"internalType": "uint256",
							"name": "recipientBloodType",
							"type": "uint256"
						},
						{
							"indexed": false,
							"internalType": "string",
							"name": "recipientOrgan",
							"type": "string"
						},
						{
							"indexed": false,
							"internalType": "uint256",
							"name": "recipientQuantity",
							"type": "uint256"
						},
						{
							"indexed": false,
							"internalType": "string",
							"name": "recipientHospital",
							"type": "string"
						}
					],
					"name": "RecMatchFound",
					"type": "event"
				},
				{
					"inputs": [
						{
							"internalType": "string",
							"name": "_owner",
							"type": "string"
						},
						{
							"internalType": "uint256",
							"name": "_bloodtype",
							"type": "uint256"
						},
						{
							"internalType": "string",
							"name": "_organ",
							"type": "string"
						},
						{
							"internalType": "uint256",
							"name": "_quantity",
							"type": "uint256"
						},
						{
							"internalType": "string",
							"name": "_hospital",
							"type": "string"
						}
					],
					"name": "regDonor",
					"outputs": [],
					"stateMutability": "nonpayable",
					"type": "function"
				},
				{
					"inputs": [
						{
							"internalType": "string",
							"name": "_owner",
							"type": "string"
						},
						{
							"internalType": "string",
							"name": "_organ",
							"type": "string"
						},
						{
							"internalType": "uint256",
							"name": "_bloodtype",
							"type": "uint256"
						},
						{
							"internalType": "uint256",
							"name": "_quantity",
							"type": "uint256"
						},
						{
							"internalType": "string",
							"name": "_hospital",
							"type": "string"
						}
					],
					"name": "regRecipient",
					"outputs": [],
					"stateMutability": "nonpayable",
					"type": "function"
				},
				{
					"inputs": [
						{
							"internalType": "string",
							"name": "_pass",
							"type": "string"
						}
					],
					"name": "showDonors",
					"outputs": [
						{
							"components": [
								{
									"internalType": "string",
									"name": "owner",
									"type": "string"
								},
								{
									"internalType": "uint256",
									"name": "bloodtype",
									"type": "uint256"
								},
								{
									"internalType": "string",
									"name": "organ",
									"type": "string"
								},
								{
									"internalType": "uint256",
									"name": "quantity",
									"type": "uint256"
								},
								{
									"internalType": "string",
									"name": "hospital",
									"type": "string"
								}
							],
							"internalType": "struct main.orgdet[]",
							"name": "",
							"type": "tuple[]"
						}
					],
					"stateMutability": "view",
					"type": "function"
				},
				{
					"inputs": [
						{
							"internalType": "string",
							"name": "_pass",
							"type": "string"
						}
					],
					"name": "showMatches",
					"outputs": [
						{
							"components": [
								{
									"internalType": "string",
									"name": "donor",
									"type": "string"
								},
								{
									"internalType": "string",
									"name": "recipient",
									"type": "string"
								},
								{
									"internalType": "uint256",
									"name": "donorbloodtype",
									"type": "uint256"
								},
								{
									"internalType": "uint256",
									"name": "recipientbloodtype",
									"type": "uint256"
								},
								{
									"internalType": "string",
									"name": "organ",
									"type": "string"
								},
								{
									"internalType": "uint256",
									"name": "donorquantity",
									"type": "uint256"
								},
								{
									"internalType": "uint256",
									"name": "recipientquantity",
									"type": "uint256"
								},
								{
									"internalType": "uint256",
									"name": "matchedquantity",
									"type": "uint256"
								},
								{
									"internalType": "string",
									"name": "donorhosp",
									"type": "string"
								},
								{
									"internalType": "string",
									"name": "recipienthosp",
									"type": "string"
								}
							],
							"internalType": "struct main.matched_orgdet[]",
							"name": "",
							"type": "tuple[]"
						}
					],
					"stateMutability": "view",
					"type": "function"
				},
				{
					"inputs": [
						{
							"internalType": "string",
							"name": "_pass",
							"type": "string"
						}
					],
					"name": "showRecipient",
					"outputs": [
						{
							"components": [
								{
									"internalType": "string",
									"name": "owner",
									"type": "string"
								},
								{
									"internalType": "uint256",
									"name": "bloodtype",
									"type": "uint256"
								},
								{
									"internalType": "string",
									"name": "organ",
									"type": "string"
								},
								{
									"internalType": "uint256",
									"name": "quantity",
									"type": "uint256"
								},
								{
									"internalType": "string",
									"name": "hospital",
									"type": "string"
								}
							],
							"internalType": "struct main.orgdet[]",
							"name": "",
							"type": "tuple[]"
						}
					],
					"stateMutability": "view",
					"type": "function"
				}
			],
			"devdoc": {
				"kind": "dev",
				"methods": {},
				"version": 1
			},
			"evm": {
				"assembly": "    /* \"contracts/main.sol\":58:7789  contract main {... */\n  mstore(0x40, 0x80)\n    /* \"contracts/main.sol\":2034:2492  uint256[10][10] private compatMatrix = [[1, 1, 0, 0, 0, 0, 1, 1, 0, 0],... */\n  mload(0x40)\n  dup1\n  0x0140\n  add\n  0x40\n  mstore\n  dup1\n  mload(0x40)\n  dup1\n  0x0140\n  add\n  0x40\n  mstore\n  dup1\n    /* \"contracts/main.sol\":2075:2076  1 */\n  0x01\n    /* \"contracts/main.sol\":2034:2492  uint256[10][10] private compatMatrix = [[1, 1, 0, 0, 0, 0, 1, 1, 0, 0],... */\n  0xff\n  and\n  dup2\n  mstore\n  0x20\n  add\n    /* \"contracts/main.sol\":2078:2079  1 */\n  0x01\n    /* \"contracts/main.sol\":2034:2492  uint256[10][10] private compatMatrix = [[1, 1, 0, 0, 0, 0, 1, 1, 0, 0],... */\n  0xff\n  and\n  dup2\n  mstore\n  0x20\n  add\n    /* \"contracts/main.sol\":2081:2082  0 */\n  0x00\n    /* \"contracts/main.sol\":2034:2492  uint256[10][10] private compatMatrix = [[1, 1, 0, 0, 0, 0, 1, 1, 0, 0],... */\n  0xff\n  and\n  dup2\n  mstore\n  0x20\n  add\n    /* \"contracts/main.sol\":2084:2085  0 */\n  0x00\n    /* \"contracts/main.sol\":2034:2492  uint256[10][10] private compatMatrix = [[1, 1, 0, 0, 0, 0, 1, 1, 0, 0],... */\n  0xff\n  and\n  dup2\n  mstore\n  0x20\n  add\n    /* \"contracts/main.sol\":2087:2088  0 */\n  0x00\n    /* \"contracts/main.sol\":2034:2492  uint256[10][10] private compatMatrix = [[1, 1, 0, 0, 0, 0, 1, 1, 0, 0],... */\n  0xff\n  and\n  dup2\n  mstore\n  0x20\n  add\n    /* \"contracts/main.sol\":2090:2091  0 */\n  0x00\n    /* \"contracts/main.sol\":2034:2492  uint256[10][10] private compatMatrix = [[1, 1, 0, 0, 0, 0, 1, 1, 0, 0],... */\n  0xff\n  and\n  dup2\n  mstore\n  0x20\n  add\n    /* \"contracts/main.sol\":2093:2094  1 */\n  0x01\n    /* \"contracts/main.sol\":2034:2492  uint256[10][10] private compatMatrix = [[1, 1, 0, 0, 0, 0, 1, 1, 0, 0],... */\n  0xff\n  and\n  dup2\n  mstore\n  0x20\n  add\n    /* \"contracts/main.sol\":2096:2097  1 */\n  0x01\n    /* \"contracts/main.sol\":2034:2492  uint256[10][10] private compatMatrix = [[1, 1, 0, 0, 0, 0, 1, 1, 0, 0],... */\n  0xff\n  and\n  dup2\n  mstore\n  0x20\n  add\n    /* \"contracts/main.sol\":2099:2100  0 */\n  0x00\n    /* \"contracts/main.sol\":2034:2492  uint256[10][10] private compatMatrix = [[1, 1, 0, 0, 0, 0, 1, 1, 0, 0],... */\n  0xff\n  and\n  dup2\n  mstore\n  0x20\n  add\n    /* \"contracts/main.sol\":2102:2103  0 */\n  0x00\n    /* \"contracts/main.sol\":2034:2492  uint256[10][10] private compatMatrix = [[1, 1, 0, 0, 0, 0, 1, 1, 0, 0],... */\n  0xff\n  and\n  dup2\n  mstore\n  pop\n  dup2\n  mstore\n  0x20\n  add\n  mload(0x40)\n  dup1\n  0x0140\n  add\n  0x40\n  mstore\n  dup1\n    /* \"contracts/main.sol\":2118:2119  0 */\n  0x00\n    /* \"contracts/main.sol\":2034:2492  uint256[10][10] private compatMatrix = [[1, 1, 0, 0, 0, 0, 1, 1, 0, 0],... */\n  0xff\n  and\n  dup2\n  mstore\n  0x20\n  add\n    /* \"contracts/main.sol\":2121:2122  1 */\n  0x01\n    /* \"contracts/main.sol\":2034:2492  uint256[10][10] private compatMatrix = [[1, 1, 0, 0, 0, 0, 1, 1, 0, 0],... */\n  0xff\n  and\n  dup2\n  mstore\n  0x20\n  add\n    /* \"contracts/main.sol\":2124:2125  0 */\n  0x00\n    /* \"contracts/main.sol\":2034:2492  uint256[10][10] private compatMatrix = [[1, 1, 0, 0, 0, 0, 1, 1, 0, 0],... */\n  0xff\n  and\n  dup2\n  mstore\n  0x20\n  add\n    /* \"contracts/main.sol\":2127:2128  0 */\n  0x00\n    /* \"contracts/main.sol\":2034:2492  uint256[10][10] private compatMatrix = [[1, 1, 0, 0, 0, 0, 1, 1, 0, 0],... */\n  0xff\n  and\n  dup2\n  mstore\n  0x20\n  add\n    /* \"contracts/main.sol\":2130:2131  0 */\n  0x00\n    /* \"contracts/main.sol\":2034:2492  uint256[10][10] private compatMatrix = [[1, 1, 0, 0, 0, 0, 1, 1, 0, 0],... */\n  0xff\n  and\n  dup2\n  mstore\n  0x20\n  add\n    /* \"contracts/main.sol\":2133:2134  0 */\n  0x00\n    /* \"contracts/main.sol\":2034:2492  uint256[10][10] private compatMatrix = [[1, 1, 0, 0, 0, 0, 1, 1, 0, 0],... */\n  0xff\n  and\n  dup2\n  mstore\n  0x20\n  add\n    /* \"contracts/main.sol\":2136:2137  0 */\n  0x00\n    /* \"contracts/main.sol\":2034:2492  uint256[10][10] private compatMatrix = [[1, 1, 0, 0, 0, 0, 1, 1, 0, 0],... */\n  0xff\n  and\n  dup2\n  mstore\n  0x20\n  add\n    /* \"contracts/main.sol\":2139:2140  1 */\n  0x01\n    /* \"contracts/main.sol\":2034:2492  uint256[10][10] private compatMatrix = [[1, 1, 0, 0, 0, 0, 1, 1, 0, 0],... */\n  0xff\n  and\n  dup2\n  mstore\n  0x20\n  add\n    /* \"contracts/main.sol\":2142:2143  0 */\n  0x00\n    /* \"contracts/main.sol\":2034:2492  uint256[10][10] private compatMatrix = [[1, 1, 0, 0, 0, 0, 1, 1, 0, 0],... */\n  0xff\n  and\n  dup2\n  mstore\n  0x20\n  add\n    /* \"contracts/main.sol\":2145:2146  0 */\n  0x00\n    /* \"contracts/main.sol\":2034:2492  uint256[10][10] private compatMatrix = [[1, 1, 0, 0, 0, 0, 1, 1, 0, 0],... */\n  0xff\n  and\n  dup2\n  mstore\n  pop\n  dup2\n  mstore\n  0x20\n  add\n  mload(0x40)\n  dup1\n  0x0140\n  add\n  0x40\n  mstore\n  dup1\n    /* \"contracts/main.sol\":2161:2162  0 */\n  0x00\n    /* \"contracts/main.sol\":2034:2492  uint256[10][10] private compatMatrix = [[1, 1, 0, 0, 0, 0, 1, 1, 0, 0],... */\n  0xff\n  and\n  dup2\n  mstore\n  0x20\n  add\n    /* \"contracts/main.sol\":2164:2165  0 */\n  0x00\n    /* \"contracts/main.sol\":2034:2492  uint256[10][10] private compatMatrix = [[1, 1, 0, 0, 0, 0, 1, 1, 0, 0],... */\n  0xff\n  and\n  dup2\n  mstore\n  0x20\n  add\n    /* \"contracts/main.sol\":2167:2168  1 */\n  0x01\n    /* \"contracts/main.sol\":2034:2492  uint256[10][10] private compatMatrix = [[1, 1, 0, 0, 0, 0, 1, 1, 0, 0],... */\n  0xff\n  and\n  dup2\n  mstore\n  0x20\n  add\n    /* \"contracts/main.sol\":2170:2171  1 */\n  0x01\n    /* \"contracts/main.sol\":2034:2492  uint256[10][10] private compatMatrix = [[1, 1, 0, 0, 0, 0, 1, 1, 0, 0],... */\n  0xff\n  and\n  dup2\n  mstore\n  0x20\n  add\n    /* \"contracts/main.sol\":2173:2174  0 */\n  0x00\n    /* \"contracts/main.sol\":2034:2492  uint256[10][10] private compatMatrix = [[1, 1, 0, 0, 0, 0, 1, 1, 0, 0],... */\n  0xff\n  and\n  dup2\n  mstore\n  0x20\n  add\n    /* \"contracts/main.sol\":2176:2177  0 */\n  0x00\n    /* \"contracts/main.sol\":2034:2492  uint256[10][10] private compatMatrix = [[1, 1, 0, 0, 0, 0, 1, 1, 0, 0],... */\n  0xff\n  and\n  dup2\n  mstore\n  0x20\n  add\n    /* \"contracts/main.sol\":2179:2180  1 */\n  0x01\n    /* \"contracts/main.sol\":2034:2492  uint256[10][10] private compatMatrix = [[1, 1, 0, 0, 0, 0, 1, 1, 0, 0],... */\n  0xff\n  and\n  dup2\n  mstore\n  0x20\n  add\n    /* \"contracts/main.sol\":2182:2183  1 */\n  0x01\n    /* \"contracts/main.sol\":2034:2492  uint256[10][10] private compatMatrix = [[1, 1, 0, 0, 0, 0, 1, 1, 0, 0],... */\n  0xff\n  and\n  dup2\n  mstore\n  0x20\n  add\n    /* \"contracts/main.sol\":2185:2186  0 */\n  0x00\n    /* \"contracts/main.sol\":2034:2492  uint256[10][10] private compatMatrix = [[1, 1, 0, 0, 0, 0, 1, 1, 0, 0],... */\n  0xff\n  and\n  dup2\n  mstore\n  0x20\n  add\n    /* \"contracts/main.sol\":2188:2189  0 */\n  0x00\n    /* \"contracts/main.sol\":2034:2492  uint256[10][10] private compatMatrix = [[1, 1, 0, 0, 0, 0, 1, 1, 0, 0],... */\n  0xff\n  and\n  dup2\n  mstore\n  pop\n  dup2\n  mstore\n  0x20\n  add\n  mload(0x40)\n  dup1\n  0x0140\n  add\n  0x40\n  mstore\n  dup1\n    /* \"contracts/main.sol\":2204:2205  0 */\n  0x00\n    /* \"contracts/main.sol\":2034:2492  uint256[10][10] private compatMatrix = [[1, 1, 0, 0, 0, 0, 1, 1, 0, 0],... */\n  0xff\n  and\n  dup2\n  mstore\n  0x20\n  add\n    /* \"contracts/main.sol\":2207:2208  0 */\n  0x00\n    /* \"contracts/main.sol\":2034:2492  uint256[10][10] private compatMatrix = [[1, 1, 0, 0, 0, 0, 1, 1, 0, 0],... */\n  0xff\n  and\n  dup2\n  mstore\n  0x20\n  add\n    /* \"contracts/main.sol\":2210:2211  0 */\n  0x00\n    /* \"contracts/main.sol\":2034:2492  uint256[10][10] private compatMatrix = [[1, 1, 0, 0, 0, 0, 1, 1, 0, 0],... */\n  0xff\n  and\n  dup2\n  mstore\n  0x20\n  add\n    /* \"contracts/main.sol\":2213:2214  1 */\n  0x01\n    /* \"contracts/main.sol\":2034:2492  uint256[10][10] private compatMatrix = [[1, 1, 0, 0, 0, 0, 1, 1, 0, 0],... */\n  0xff\n  and\n  dup2\n  mstore\n  0x20\n  add\n    /* \"contracts/main.sol\":2216:2217  0 */\n  0x00\n    /* \"contracts/main.sol\":2034:2492  uint256[10][10] private compatMatrix = [[1, 1, 0, 0, 0, 0, 1, 1, 0, 0],... */\n  0xff\n  and\n  dup2\n  mstore\n  0x20\n  add\n    /* \"contracts/main.sol\":2219:2220  0 */\n  0x00\n    /* \"contracts/main.sol\":2034:2492  uint256[10][10] private compatMatrix = [[1, 1, 0, 0, 0, 0, 1, 1, 0, 0],... */\n  0xff\n  and\n  dup2\n  mstore\n  0x20\n  add\n    /* \"contracts/main.sol\":2222:2223  0 */\n  0x00\n    /* \"contracts/main.sol\":2034:2492  uint256[10][10] private compatMatrix = [[1, 1, 0, 0, 0, 0, 1, 1, 0, 0],... */\n  0xff\n  and\n  dup2\n  mstore\n  0x20\n  add\n    /* \"contracts/main.sol\":2225:2226  1 */\n  0x01\n    /* \"contracts/main.sol\":2034:2492  uint256[10][10] private compatMatrix = [[1, 1, 0, 0, 0, 0, 1, 1, 0, 0],... */\n  0xff\n  and\n  dup2\n  mstore\n  0x20\n  add\n    /* \"contracts/main.sol\":2228:2229  0 */\n  0x00\n    /* \"contracts/main.sol\":2034:2492  uint256[10][10] private compatMatrix = [[1, 1, 0, 0, 0, 0, 1, 1, 0, 0],... */\n  0xff\n  and\n  dup2\n  mstore\n  0x20\n  add\n    /* \"contracts/main.sol\":2231:2232  0 */\n  0x00\n    /* \"contracts/main.sol\":2034:2492  uint256[10][10] private compatMatrix = [[1, 1, 0, 0, 0, 0, 1, 1, 0, 0],... */\n  0xff\n  and\n  dup2\n  mstore\n  pop\n  dup2\n  mstore\n  0x20\n  add\n  mload(0x40)\n  dup1\n  0x0140\n  add\n  0x40\n  mstore\n  dup1\n    /* \"contracts/main.sol\":2247:2248  1 */\n  0x01\n    /* \"contracts/main.sol\":2034:2492  uint256[10][10] private compatMatrix = [[1, 1, 0, 0, 0, 0, 1, 1, 0, 0],... */\n  0xff\n  and\n  dup2\n  mstore\n  0x20\n  add\n    /* \"contracts/main.sol\":2250:2251  1 */\n  0x01\n    /* \"contracts/main.sol\":2034:2492  uint256[10][10] private compatMatrix = [[1, 1, 0, 0, 0, 0, 1, 1, 0, 0],... */\n  0xff\n  and\n  dup2\n  mstore\n  0x20\n  add\n    /* \"contracts/main.sol\":2253:2254  1 */\n  0x01\n    /* \"contracts/main.sol\":2034:2492  uint256[10][10] private compatMatrix = [[1, 1, 0, 0, 0, 0, 1, 1, 0, 0],... */\n  0xff\n  and\n  dup2\n  mstore\n  0x20\n  add\n    /* \"contracts/main.sol\":2256:2257  1 */\n  0x01\n    /* \"contracts/main.sol\":2034:2492  uint256[10][10] private compatMatrix = [[1, 1, 0, 0, 0, 0, 1, 1, 0, 0],... */\n  0xff\n  and\n  dup2\n  mstore\n  0x20\n  add\n    /* \"contracts/main.sol\":2259:2260  1 */\n  0x01\n    /* \"contracts/main.sol\":2034:2492  uint256[10][10] private compatMatrix = [[1, 1, 0, 0, 0, 0, 1, 1, 0, 0],... */\n  0xff\n  and\n  dup2\n  mstore\n  0x20\n  add\n    /* \"contracts/main.sol\":2262:2263  1 */\n  0x01\n    /* \"contracts/main.sol\":2034:2492  uint256[10][10] private compatMatrix = [[1, 1, 0, 0, 0, 0, 1, 1, 0, 0],... */\n  0xff\n  and\n  dup2\n  mstore\n  0x20\n  add\n    /* \"contracts/main.sol\":2265:2266  1 */\n  0x01\n    /* \"contracts/main.sol\":2034:2492  uint256[10][10] private compatMatrix = [[1, 1, 0, 0, 0, 0, 1, 1, 0, 0],... */\n  0xff\n  and\n  dup2\n  mstore\n  0x20\n  add\n    /* \"contracts/main.sol\":2268:2269  1 */\n  0x01\n    /* \"contracts/main.sol\":2034:2492  uint256[10][10] private compatMatrix = [[1, 1, 0, 0, 0, 0, 1, 1, 0, 0],... */\n  0xff\n  and\n  dup2\n  mstore\n  0x20\n  add\n    /* \"contracts/main.sol\":2271:2272  0 */\n  0x00\n    /* \"contracts/main.sol\":2034:2492  uint256[10][10] private compatMatrix = [[1, 1, 0, 0, 0, 0, 1, 1, 0, 0],... */\n  0xff\n  and\n  dup2\n  mstore\n  0x20\n  add\n    /* \"contracts/main.sol\":2274:2275  0 */\n  0x00\n    /* \"contracts/main.sol\":2034:2492  uint256[10][10] private compatMatrix = [[1, 1, 0, 0, 0, 0, 1, 1, 0, 0],... */\n  0xff\n  and\n  dup2\n  mstore\n  pop\n  dup2\n  mstore\n  0x20\n  add\n  mload(0x40)\n  dup1\n  0x0140\n  add\n  0x40\n  mstore\n  dup1\n    /* \"contracts/main.sol\":2290:2291  0 */\n  0x00\n    /* \"contracts/main.sol\":2034:2492  uint256[10][10] private compatMatrix = [[1, 1, 0, 0, 0, 0, 1, 1, 0, 0],... */\n  0xff\n  and\n  dup2\n  mstore\n  0x20\n  add\n    /* \"contracts/main.sol\":2293:2294  1 */\n  0x01\n    /* \"contracts/main.sol\":2034:2492  uint256[10][10] private compatMatrix = [[1, 1, 0, 0, 0, 0, 1, 1, 0, 0],... */\n  0xff\n  and\n  dup2\n  mstore\n  0x20\n  add\n    /* \"contracts/main.sol\":2296:2297  0 */\n  0x00\n    /* \"contracts/main.sol\":2034:2492  uint256[10][10] private compatMatrix = [[1, 1, 0, 0, 0, 0, 1, 1, 0, 0],... */\n  0xff\n  and\n  dup2\n  mstore\n  0x20\n  add\n    /* \"contracts/main.sol\":2299:2300  1 */\n  0x01\n    /* \"contracts/main.sol\":2034:2492  uint256[10][10] private compatMatrix = [[1, 1, 0, 0, 0, 0, 1, 1, 0, 0],... */\n  0xff\n  and\n  dup2\n  mstore\n  0x20\n  add\n    /* \"contracts/main.sol\":2302:2303  0 */\n  0x00\n    /* \"contracts/main.sol\":2034:2492  uint256[10][10] private compatMatrix = [[1, 1, 0, 0, 0, 0, 1, 1, 0, 0],... */\n  0xff\n  and\n  dup2\n  mstore\n  0x20\n  add\n    /* \"contracts/main.sol\":2305:2306  1 */\n  0x01\n    /* \"contracts/main.sol\":2034:2492  uint256[10][10] private compatMatrix = [[1, 1, 0, 0, 0, 0, 1, 1, 0, 0],... */\n  0xff\n  and\n  dup2\n  mstore\n  0x20\n  add\n    /* \"contracts/main.sol\":2308:2309  0 */\n  0x00\n    /* \"contracts/main.sol\":2034:2492  uint256[10][10] private compatMatrix = [[1, 1, 0, 0, 0, 0, 1, 1, 0, 0],... */\n  0xff\n  and\n  dup2\n  mstore\n  0x20\n  add\n    /* \"contracts/main.sol\":2311:2312  1 */\n  0x01\n    /* \"contracts/main.sol\":2034:2492  uint256[10][10] private compatMatrix = [[1, 1, 0, 0, 0, 0, 1, 1, 0, 0],... */\n  0xff\n  and\n  dup2\n  mstore\n  0x20\n  add\n    /* \"contracts/main.sol\":2314:2315  0 */\n  0x00\n    /* \"contracts/main.sol\":2034:2492  uint256[10][10] private compatMatrix = [[1, 1, 0, 0, 0, 0, 1, 1, 0, 0],... */\n  0xff\n  and\n  dup2\n  mstore\n  0x20\n  add\n    /* \"contracts/main.sol\":2317:2318  0 */\n  0x00\n    /* \"contracts/main.sol\":2034:2492  uint256[10][10] private compatMatrix = [[1, 1, 0, 0, 0, 0, 1, 1, 0, 0],... */\n  0xff\n  and\n  dup2\n  mstore\n  pop\n  dup2\n  mstore\n  0x20\n  add\n  mload(0x40)\n  dup1\n  0x0140\n  add\n  0x40\n  mstore\n  dup1\n    /* \"contracts/main.sol\":2333:2334  0 */\n  0x00\n    /* \"contracts/main.sol\":2034:2492  uint256[10][10] private compatMatrix = [[1, 1, 0, 0, 0, 0, 1, 1, 0, 0],... */\n  0xff\n  and\n  dup2\n  mstore\n  0x20\n  add\n    /* \"contracts/main.sol\":2336:2337  0 */\n  0x00\n    /* \"contracts/main.sol\":2034:2492  uint256[10][10] private compatMatrix = [[1, 1, 0, 0, 0, 0, 1, 1, 0, 0],... */\n  0xff\n  and\n  dup2\n  mstore\n  0x20\n  add\n    /* \"contracts/main.sol\":2339:2340  0 */\n  0x00\n    /* \"contracts/main.sol\":2034:2492  uint256[10][10] private compatMatrix = [[1, 1, 0, 0, 0, 0, 1, 1, 0, 0],... */\n  0xff\n  and\n  dup2\n  mstore\n  0x20\n  add\n    /* \"contracts/main.sol\":2342:2343  0 */\n  0x00\n    /* \"contracts/main.sol\":2034:2492  uint256[10][10] private compatMatrix = [[1, 1, 0, 0, 0, 0, 1, 1, 0, 0],... */\n  0xff\n  and\n  dup2\n  mstore\n  0x20\n  add\n    /* \"contracts/main.sol\":2345:2346  0 */\n  0x00\n    /* \"contracts/main.sol\":2034:2492  uint256[10][10] private compatMatrix = [[1, 1, 0, 0, 0, 0, 1, 1, 0, 0],... */\n  0xff\n  and\n  dup2\n  mstore\n  0x20\n  add\n    /* \"contracts/main.sol\":2348:2349  0 */\n  0x00\n    /* \"contracts/main.sol\":2034:2492  uint256[10][10] private compatMatrix = [[1, 1, 0, 0, 0, 0, 1, 1, 0, 0],... */\n  0xff\n  and\n  dup2\n  mstore\n  0x20\n  add\n    /* \"contracts/main.sol\":2351:2352  1 */\n  0x01\n    /* \"contracts/main.sol\":2034:2492  uint256[10][10] private compatMatrix = [[1, 1, 0, 0, 0, 0, 1, 1, 0, 0],... */\n  0xff\n  and\n  dup2\n  mstore\n  0x20\n  add\n    /* \"contracts/main.sol\":2354:2355  1 */\n  0x01\n    /* \"contracts/main.sol\":2034:2492  uint256[10][10] private compatMatrix = [[1, 1, 0, 0, 0, 0, 1, 1, 0, 0],... */\n  0xff\n  and\n  dup2\n  mstore\n  0x20\n  add\n    /* \"contracts/main.sol\":2357:2358  0 */\n  0x00\n    /* \"contracts/main.sol\":2034:2492  uint256[10][10] private compatMatrix = [[1, 1, 0, 0, 0, 0, 1, 1, 0, 0],... */\n  0xff\n  and\n  dup2\n  mstore\n  0x20\n  add\n    /* \"contracts/main.sol\":2360:2361  0 */\n  0x00\n    /* \"contracts/main.sol\":2034:2492  uint256[10][10] private compatMatrix = [[1, 1, 0, 0, 0, 0, 1, 1, 0, 0],... */\n  0xff\n  and\n  dup2\n  mstore\n  pop\n  dup2\n  mstore\n  0x20\n  add\n  mload(0x40)\n  dup1\n  0x0140\n  add\n  0x40\n  mstore\n  dup1\n    /* \"contracts/main.sol\":2376:2377  0 */\n  0x00\n    /* \"contracts/main.sol\":2034:2492  uint256[10][10] private compatMatrix = [[1, 1, 0, 0, 0, 0, 1, 1, 0, 0],... */\n  0xff\n  and\n  dup2\n  mstore\n  0x20\n  add\n    /* \"contracts/main.sol\":2379:2380  0 */\n  0x00\n    /* \"contracts/main.sol\":2034:2492  uint256[10][10] private compatMatrix = [[1, 1, 0, 0, 0, 0, 1, 1, 0, 0],... */\n  0xff\n  and\n  dup2\n  mstore\n  0x20\n  add\n    /* \"contracts/main.sol\":2382:2383  0 */\n  0x00\n    /* \"contracts/main.sol\":2034:2492  uint256[10][10] private compatMatrix = [[1, 1, 0, 0, 0, 0, 1, 1, 0, 0],... */\n  0xff\n  and\n  dup2\n  mstore\n  0x20\n  add\n    /* \"contracts/main.sol\":2385:2386  0 */\n  0x00\n    /* \"contracts/main.sol\":2034:2492  uint256[10][10] private compatMatrix = [[1, 1, 0, 0, 0, 0, 1, 1, 0, 0],... */\n  0xff\n  and\n  dup2\n  mstore\n  0x20\n  add\n    /* \"contracts/main.sol\":2388:2389  0 */\n  0x00\n    /* \"contracts/main.sol\":2034:2492  uint256[10][10] private compatMatrix = [[1, 1, 0, 0, 0, 0, 1, 1, 0, 0],... */\n  0xff\n  and\n  dup2\n  mstore\n  0x20\n  add\n    /* \"contracts/main.sol\":2391:2392  0 */\n  0x00\n    /* \"contracts/main.sol\":2034:2492  uint256[10][10] private compatMatrix = [[1, 1, 0, 0, 0, 0, 1, 1, 0, 0],... */\n  0xff\n  and\n  dup2\n  mstore\n  0x20\n  add\n    /* \"contracts/main.sol\":2394:2395  0 */\n  0x00\n    /* \"contracts/main.sol\":2034:2492  uint256[10][10] private compatMatrix = [[1, 1, 0, 0, 0, 0, 1, 1, 0, 0],... */\n  0xff\n  and\n  dup2\n  mstore\n  0x20\n  add\n    /* \"contracts/main.sol\":2397:2398  1 */\n  0x01\n    /* \"contracts/main.sol\":2034:2492  uint256[10][10] private compatMatrix = [[1, 1, 0, 0, 0, 0, 1, 1, 0, 0],... */\n  0xff\n  and\n  dup2\n  mstore\n  0x20\n  add\n    /* \"contracts/main.sol\":2400:2401  0 */\n  0x00\n    /* \"contracts/main.sol\":2034:2492  uint256[10][10] private compatMatrix = [[1, 1, 0, 0, 0, 0, 1, 1, 0, 0],... */\n  0xff\n  and\n  dup2\n  mstore\n  0x20\n  add\n    /* \"contracts/main.sol\":2403:2404  0 */\n  0x00\n    /* \"contracts/main.sol\":2034:2492  uint256[10][10] private compatMatrix = [[1, 1, 0, 0, 0, 0, 1, 1, 0, 0],... */\n  0xff\n  and\n  dup2\n  mstore\n  pop\n  dup2\n  mstore\n  0x20\n  add\n  mload(0x40)\n  dup1\n  0x0140\n  add\n  0x40\n  mstore\n  dup1\n    /* \"contracts/main.sol\":2419:2420  0 */\n  0x00\n    /* \"contracts/main.sol\":2034:2492  uint256[10][10] private compatMatrix = [[1, 1, 0, 0, 0, 0, 1, 1, 0, 0],... */\n  0xff\n  and\n  dup2\n  mstore\n  0x20\n  add\n    /* \"contracts/main.sol\":2422:2423  0 */\n  0x00\n    /* \"contracts/main.sol\":2034:2492  uint256[10][10] private compatMatrix = [[1, 1, 0, 0, 0, 0, 1, 1, 0, 0],... */\n  0xff\n  and\n  dup2\n  mstore\n  0x20\n  add\n    /* \"contracts/main.sol\":2425:2426  0 */\n  0x00\n    /* \"contracts/main.sol\":2034:2492  uint256[10][10] private compatMatrix = [[1, 1, 0, 0, 0, 0, 1, 1, 0, 0],... */\n  0xff\n  and\n  dup2\n  mstore\n  0x20\n  add\n    /* \"contracts/main.sol\":2428:2429  0 */\n  0x00\n    /* \"contracts/main.sol\":2034:2492  uint256[10][10] private compatMatrix = [[1, 1, 0, 0, 0, 0, 1, 1, 0, 0],... */\n  0xff\n  and\n  dup2\n  mstore\n  0x20\n  add\n    /* \"contracts/main.sol\":2431:2432  0 */\n  0x00\n    /* \"contracts/main.sol\":2034:2492  uint256[10][10] private compatMatrix = [[1, 1, 0, 0, 0, 0, 1, 1, 0, 0],... */\n  0xff\n  and\n  dup2\n  mstore\n  0x20\n  add\n    /* \"contracts/main.sol\":2434:2435  0 */\n  0x00\n    /* \"contracts/main.sol\":2034:2492  uint256[10][10] private compatMatrix = [[1, 1, 0, 0, 0, 0, 1, 1, 0, 0],... */\n  0xff\n  and\n  dup2\n  mstore\n  0x20\n  add\n    /* \"contracts/main.sol\":2437:2438  0 */\n  0x00\n    /* \"contracts/main.sol\":2034:2492  uint256[10][10] private compatMatrix = [[1, 1, 0, 0, 0, 0, 1, 1, 0, 0],... */\n  0xff\n  and\n  dup2\n  mstore\n  0x20\n  add\n    /* \"contracts/main.sol\":2440:2441  0 */\n  0x00\n    /* \"contracts/main.sol\":2034:2492  uint256[10][10] private compatMatrix = [[1, 1, 0, 0, 0, 0, 1, 1, 0, 0],... */\n  0xff\n  and\n  dup2\n  mstore\n  0x20\n  add\n    /* \"contracts/main.sol\":2443:2444  1 */\n  0x01\n    /* \"contracts/main.sol\":2034:2492  uint256[10][10] private compatMatrix = [[1, 1, 0, 0, 0, 0, 1, 1, 0, 0],... */\n  0xff\n  and\n  dup2\n  mstore\n  0x20\n  add\n    /* \"contracts/main.sol\":2446:2447  0 */\n  0x00\n    /* \"contracts/main.sol\":2034:2492  uint256[10][10] private compatMatrix = [[1, 1, 0, 0, 0, 0, 1, 1, 0, 0],... */\n  0xff\n  and\n  dup2\n  mstore\n  pop\n  dup2\n  mstore\n  0x20\n  add\n  mload(0x40)\n  dup1\n  0x0140\n  add\n  0x40\n  mstore\n  dup1\n    /* \"contracts/main.sol\":2462:2463  0 */\n  0x00\n    /* \"contracts/main.sol\":2034:2492  uint256[10][10] private compatMatrix = [[1, 1, 0, 0, 0, 0, 1, 1, 0, 0],... */\n  0xff\n  and\n  dup2\n  mstore\n  0x20\n  add\n    /* \"contracts/main.sol\":2465:2466  0 */\n  0x00\n    /* \"contracts/main.sol\":2034:2492  uint256[10][10] private compatMatrix = [[1, 1, 0, 0, 0, 0, 1, 1, 0, 0],... */\n  0xff\n  and\n  dup2\n  mstore\n  0x20\n  add\n    /* \"contracts/main.sol\":2468:2469  0 */\n  0x00\n    /* \"contracts/main.sol\":2034:2492  uint256[10][10] private compatMatrix = [[1, 1, 0, 0, 0, 0, 1, 1, 0, 0],... */\n  0xff\n  and\n  dup2\n  mstore\n  0x20\n  add\n    /* \"contracts/main.sol\":2471:2472  0 */\n  0x00\n    /* \"contracts/main.sol\":2034:2492  uint256[10][10] private compatMatrix = [[1, 1, 0, 0, 0, 0, 1, 1, 0, 0],... */\n  0xff\n  and\n  dup2\n  mstore\n  0x20\n  add\n    /* \"contracts/main.sol\":2474:2475  0 */\n  0x00\n    /* \"contracts/main.sol\":2034:2492  uint256[10][10] private compatMatrix = [[1, 1, 0, 0, 0, 0, 1, 1, 0, 0],... */\n  0xff\n  and\n  dup2\n  mstore\n  0x20\n  add\n    /* \"contracts/main.sol\":2477:2478  0 */\n  0x00\n    /* \"contracts/main.sol\":2034:2492  uint256[10][10] private compatMatrix = [[1, 1, 0, 0, 0, 0, 1, 1, 0, 0],... */\n  0xff\n  and\n  dup2\n  mstore\n  0x20\n  add\n    /* \"contracts/main.sol\":2480:2481  0 */\n  0x00\n    /* \"contracts/main.sol\":2034:2492  uint256[10][10] private compatMatrix = [[1, 1, 0, 0, 0, 0, 1, 1, 0, 0],... */\n  0xff\n  and\n  dup2\n  mstore\n  0x20\n  add\n    /* \"contracts/main.sol\":2483:2484  0 */\n  0x00\n    /* \"contracts/main.sol\":2034:2492  uint256[10][10] private compatMatrix = [[1, 1, 0, 0, 0, 0, 1, 1, 0, 0],... */\n  0xff\n  and\n  dup2\n  mstore\n  0x20\n  add\n    /* \"contracts/main.sol\":2486:2487  0 */\n  0x00\n    /* \"contracts/main.sol\":2034:2492  uint256[10][10] private compatMatrix = [[1, 1, 0, 0, 0, 0, 1, 1, 0, 0],... */\n  0xff\n  and\n  dup2\n  mstore\n  0x20\n  add\n    /* \"contracts/main.sol\":2489:2490  1 */\n  0x01\n    /* \"contracts/main.sol\":2034:2492  uint256[10][10] private compatMatrix = [[1, 1, 0, 0, 0, 0, 1, 1, 0, 0],... */\n  0xff\n  and\n  dup2\n  mstore\n  pop\n  dup2\n  mstore\n  pop\n  0x06\n  swap1\n  0x0a\n  tag_1\n  swap3\n  swap2\n  swap1\n  tag_2\n  jump\t// in\ntag_1:\n  pop\n    /* \"contracts/main.sol\":166:618  constructor (string memory _donorPass, string memory _recipientPass, string memory _matchedPass) {... */\n  callvalue\n  dup1\n  iszero\n  tag_3\n  jumpi\n  0x00\n  dup1\n  revert\ntag_3:\n  pop\n  mload(0x40)\n  sub(codesize, bytecodeSize)\n  dup1\n  bytecodeSize\n  dup4\n  codecopy\n  dup2\n  dup2\n  add\n  0x40\n  mstore\n  dup2\n  add\n  swap1\n  tag_4\n  swap2\n  swap1\n  tag_5\n  jump\t// in\ntag_4:\n    /* \"contracts/main.sol\":306:316  _donorPass */\n  dup3\n    /* \"contracts/main.sol\":289:317  abi.encodePacked(_donorPass) */\n  add(0x20, mload(0x40))\n  tag_8\n  swap2\n  swap1\n  tag_9\n  jump\t// in\ntag_8:\n  mload(0x40)\n  0x20\n  dup2\n  dup4\n  sub\n  sub\n  dup2\n  mstore\n  swap1\n  0x40\n  mstore\n    /* \"contracts/main.sol\":279:318  keccak256(abi.encodePacked(_donorPass)) */\n  dup1\n  mload\n  swap1\n  0x20\n  add\n  keccak256\n    /* \"contracts/main.sol\":267:276  donorPass */\n  0x00\n    /* \"contracts/main.sol\":267:318  donorPass = keccak256(abi.encodePacked(_donorPass)) */\n  dup2\n  swap1\n  sstore\n  pop\n    /* \"contracts/main.sol\":361:370  donorPass */\n  sload(0x00)\n    /* \"contracts/main.sol\":344:371  abi.encodePacked(donorPass) */\n  add(0x20, mload(0x40))\n  tag_10\n  swap2\n  swap1\n  tag_11\n  jump\t// in\ntag_10:\n  mload(0x40)\n  0x20\n  dup2\n  dup4\n  sub\n  sub\n  dup2\n  mstore\n  swap1\n  0x40\n  mstore\n    /* \"contracts/main.sol\":334:372  keccak256(abi.encodePacked(donorPass)) */\n  dup1\n  mload\n  swap1\n  0x20\n  add\n  keccak256\n    /* \"contracts/main.sol\":322:331  donorPass */\n  0x00\n    /* \"contracts/main.sol\":322:372  donorPass = keccak256(abi.encodePacked(donorPass)) */\n  dup2\n  swap1\n  sstore\n  pop\n    /* \"contracts/main.sol\":419:433  _recipientPass */\n  dup2\n    /* \"contracts/main.sol\":402:434  abi.encodePacked(_recipientPass) */\n  add(0x20, mload(0x40))\n  tag_12\n  swap2\n  swap1\n  tag_9\n  jump\t// in\ntag_12:\n  mload(0x40)\n  0x20\n  dup2\n  dup4\n  sub\n  sub\n  dup2\n  mstore\n  swap1\n  0x40\n  mstore\n    /* \"contracts/main.sol\":392:435  keccak256(abi.encodePacked(_recipientPass)) */\n  dup1\n  mload\n  swap1\n  0x20\n  add\n  keccak256\n    /* \"contracts/main.sol\":376:389  recipientPass */\n  0x01\n    /* \"contracts/main.sol\":376:435  recipientPass = keccak256(abi.encodePacked(_recipientPass)) */\n  dup2\n  swap1\n  sstore\n  pop\n    /* \"contracts/main.sol\":482:495  recipientPass */\n  sload(0x01)\n    /* \"contracts/main.sol\":465:496  abi.encodePacked(recipientPass) */\n  add(0x20, mload(0x40))\n  tag_13\n  swap2\n  swap1\n  tag_11\n  jump\t// in\ntag_13:\n  mload(0x40)\n  0x20\n  dup2\n  dup4\n  sub\n  sub\n  dup2\n  mstore\n  swap1\n  0x40\n  mstore\n    /* \"contracts/main.sol\":455:497  keccak256(abi.encodePacked(recipientPass)) */\n  dup1\n  mload\n  swap1\n  0x20\n  add\n  keccak256\n    /* \"contracts/main.sol\":439:452  recipientPass */\n  0x01\n    /* \"contracts/main.sol\":439:497  recipientPass = keccak256(abi.encodePacked(recipientPass)) */\n  dup2\n  swap1\n  sstore\n  pop\n    /* \"contracts/main.sol\":542:554  _matchedPass */\n  dup1\n    /* \"contracts/main.sol\":525:555  abi.encodePacked(_matchedPass) */\n  add(0x20, mload(0x40))\n  tag_14\n  swap2\n  swap1\n  tag_9\n  jump\t// in\ntag_14:\n  mload(0x40)\n  0x20\n  dup2\n  dup4\n  sub\n  sub\n  dup2\n  mstore\n  swap1\n  0x40\n  mstore\n    /* \"contracts/main.sol\":515:556  keccak256(abi.encodePacked(_matchedPass)) */\n  dup1\n  mload\n  swap1\n  0x20\n  add\n  keccak256\n    /* \"contracts/main.sol\":501:512  matchedPass */\n  0x02\n    /* \"contracts/main.sol\":501:556  matchedPass = keccak256(abi.encodePacked(_matchedPass)) */\n  dup2\n  swap1\n  sstore\n  pop\n    /* \"contracts/main.sol\":601:612  matchedPass */\n  sload(0x02)\n    /* \"contracts/main.sol\":584:613  abi.encodePacked(matchedPass) */\n  add(0x20, mload(0x40))\n  tag_15\n  swap2\n  swap1\n  tag_11\n  jump\t// in\ntag_15:\n  mload(0x40)\n  0x20\n  dup2\n  dup4\n  sub\n  sub\n  dup2\n  mstore\n  swap1\n  0x40\n  mstore\n    /* \"contracts/main.sol\":574:614  keccak256(abi.encodePacked(matchedPass)) */\n  dup1\n  mload\n  swap1\n  0x20\n  add\n  keccak256\n    /* \"contracts/main.sol\":560:571  matchedPass */\n  0x02\n    /* \"contracts/main.sol\":560:614  matchedPass = keccak256(abi.encodePacked(matchedPass)) */\n  dup2\n  swap1\n  sstore\n  pop\n    /* \"contracts/main.sol\":166:618  constructor (string memory _donorPass, string memory _recipientPass, string memory _matchedPass) {... */\n  pop\n  pop\n  pop\n    /* \"contracts/main.sol\":58:7789  contract main {... */\n  jump(tag_16)\ntag_2:\n  dup3\n  0x0a\n  dup1\n  mul\n  dup2\n  add\n  swap3\n  dup3\n  iszero\n  tag_17\n  jumpi\n  swap2\n  0x20\n  mul\n  dup3\n  add\ntag_18:\n  dup3\n  dup2\n  gt\n  iszero\n  tag_19\n  jumpi\n  dup3\n  mload\n  dup3\n  swap1\n  0x0a\n  tag_20\n  swap3\n  swap2\n  swap1\n  tag_21\n  jump\t// in\ntag_20:\n  pop\n  swap2\n  0x20\n  add\n  swap2\n  swap1\n  0x0a\n  add\n  swap1\n  jump(tag_18)\ntag_19:\ntag_17:\n  pop\n  swap1\n  pop\n  tag_22\n  swap2\n  swap1\n  tag_23\n  jump\t// in\ntag_22:\n  pop\n  swap1\n  jump\t// out\ntag_21:\n  dup3\n  0x0a\n  dup2\n  add\n  swap3\n  dup3\n  iszero\n  tag_24\n  jumpi\n  swap2\n  0x20\n  mul\n  dup3\n  add\ntag_25:\n  dup3\n  dup2\n  gt\n  iszero\n  tag_26\n  jumpi\n  dup3\n  mload\n  dup3\n  swap1\n  0xff\n  and\n  swap1\n  sstore\n  swap2\n  0x20\n  add\n  swap2\n  swap1\n  0x01\n  add\n  swap1\n  jump(tag_25)\ntag_26:\ntag_24:\n  pop\n  swap1\n  pop\n  tag_27\n  swap2\n  swap1\n  tag_28\n  jump\t// in\ntag_27:\n  pop\n  swap1\n  jump\t// out\ntag_23:\ntag_29:\n  dup1\n  dup3\n  gt\n  iszero\n  tag_30\n  jumpi\n  0x00\n  dup2\n  dup2\n  tag_31\n  swap2\n  swap1\n  tag_32\n  jump\t// in\ntag_31:\n  pop\n  0x0a\n  add\n  jump(tag_29)\ntag_30:\n  pop\n  swap1\n  jump\t// out\ntag_28:\ntag_33:\n  dup1\n  dup3\n  gt\n  iszero\n  tag_34\n  jumpi\n  0x00\n  dup2\n  0x00\n  swap1\n  sstore\n  pop\n  0x01\n  add\n  jump(tag_33)\ntag_34:\n  pop\n  swap1\n  jump\t// out\ntag_32:\n  pop\n  dup1\n  0x0a\n  add\n  swap1\n  tag_35\n  swap2\n  swap1\n  tag_28\n  jump\t// in\ntag_35:\n  pop\n  jump\t// out\n    /* \"#utility.yul\":7:82   */\ntag_36:\n    /* \"#utility.yul\":40:46   */\n  0x00\n    /* \"#utility.yul\":73:75   */\n  0x40\n    /* \"#utility.yul\":67:76   */\n  mload\n    /* \"#utility.yul\":57:76   */\n  swap1\n  pop\n    /* \"#utility.yul\":7:82   */\n  swap1\n  jump\t// out\n    /* \"#utility.yul\":88:205   */\ntag_37:\n    /* \"#utility.yul\":197:198   */\n  0x00\n    /* \"#utility.yul\":194:195   */\n  dup1\n    /* \"#utility.yul\":187:199   */\n  revert\n    /* \"#utility.yul\":211:328   */\ntag_38:\n    /* \"#utility.yul\":320:321   */\n  0x00\n    /* \"#utility.yul\":317:318   */\n  dup1\n    /* \"#utility.yul\":310:322   */\n  revert\n    /* \"#utility.yul\":334:451   */\ntag_39:\n    /* \"#utility.yul\":443:444   */\n  0x00\n    /* \"#utility.yul\":440:441   */\n  dup1\n    /* \"#utility.yul\":433:445   */\n  revert\n    /* \"#utility.yul\":457:574   */\ntag_40:\n    /* \"#utility.yul\":566:567   */\n  0x00\n    /* \"#utility.yul\":563:564   */\n  dup1\n    /* \"#utility.yul\":556:568   */\n  revert\n    /* \"#utility.yul\":580:682   */\ntag_41:\n    /* \"#utility.yul\":621:627   */\n  0x00\n    /* \"#utility.yul\":672:674   */\n  0x1f\n    /* \"#utility.yul\":668:675   */\n  not\n    /* \"#utility.yul\":663:665   */\n  0x1f\n    /* \"#utility.yul\":656:661   */\n  dup4\n    /* \"#utility.yul\":652:666   */\n  add\n    /* \"#utility.yul\":648:676   */\n  and\n    /* \"#utility.yul\":638:676   */\n  swap1\n  pop\n    /* \"#utility.yul\":580:682   */\n  swap2\n  swap1\n  pop\n  jump\t// out\n    /* \"#utility.yul\":688:868   */\ntag_42:\n    /* \"#utility.yul\":736:813   */\n  0x4e487b7100000000000000000000000000000000000000000000000000000000\n    /* \"#utility.yul\":733:734   */\n  0x00\n    /* \"#utility.yul\":726:814   */\n  mstore\n    /* \"#utility.yul\":833:837   */\n  0x41\n    /* \"#utility.yul\":830:831   */\n  0x04\n    /* \"#utility.yul\":823:838   */\n  mstore\n    /* \"#utility.yul\":857:861   */\n  0x24\n    /* \"#utility.yul\":854:855   */\n  0x00\n    /* \"#utility.yul\":847:862   */\n  revert\n    /* \"#utility.yul\":874:1155   */\ntag_43:\n    /* \"#utility.yul\":957:984   */\n  tag_64\n    /* \"#utility.yul\":979:983   */\n  dup3\n    /* \"#utility.yul\":957:984   */\n  tag_41\n  jump\t// in\ntag_64:\n    /* \"#utility.yul\":949:955   */\n  dup2\n    /* \"#utility.yul\":945:985   */\n  add\n    /* \"#utility.yul\":1087:1093   */\n  dup2\n    /* \"#utility.yul\":1075:1085   */\n  dup2\n    /* \"#utility.yul\":1072:1094   */\n  lt\n    /* \"#utility.yul\":1051:1069   */\n  0xffffffffffffffff\n    /* \"#utility.yul\":1039:1049   */\n  dup3\n    /* \"#utility.yul\":1036:1070   */\n  gt\n    /* \"#utility.yul\":1033:1095   */\n  or\n    /* \"#utility.yul\":1030:1118   */\n  iszero\n  tag_65\n  jumpi\n    /* \"#utility.yul\":1098:1116   */\n  tag_66\n  tag_42\n  jump\t// in\ntag_66:\n    /* \"#utility.yul\":1030:1118   */\ntag_65:\n    /* \"#utility.yul\":1138:1148   */\n  dup1\n    /* \"#utility.yul\":1134:1136   */\n  0x40\n    /* \"#utility.yul\":1127:1149   */\n  mstore\n    /* \"#utility.yul\":917:1155   */\n  pop\n    /* \"#utility.yul\":874:1155   */\n  pop\n  pop\n  jump\t// out\n    /* \"#utility.yul\":1161:1290   */\ntag_44:\n    /* \"#utility.yul\":1195:1201   */\n  0x00\n    /* \"#utility.yul\":1222:1242   */\n  tag_68\n  tag_36\n  jump\t// in\ntag_68:\n    /* \"#utility.yul\":1212:1242   */\n  swap1\n  pop\n    /* \"#utility.yul\":1251:1284   */\n  tag_69\n    /* \"#utility.yul\":1279:1283   */\n  dup3\n    /* \"#utility.yul\":1271:1277   */\n  dup3\n    /* \"#utility.yul\":1251:1284   */\n  tag_43\n  jump\t// in\ntag_69:\n    /* \"#utility.yul\":1161:1290   */\n  swap2\n  swap1\n  pop\n  jump\t// out\n    /* \"#utility.yul\":1296:1604   */\ntag_45:\n    /* \"#utility.yul\":1358:1362   */\n  0x00\n    /* \"#utility.yul\":1448:1466   */\n  0xffffffffffffffff\n    /* \"#utility.yul\":1440:1446   */\n  dup3\n    /* \"#utility.yul\":1437:1467   */\n  gt\n    /* \"#utility.yul\":1434:1490   */\n  iszero\n  tag_71\n  jumpi\n    /* \"#utility.yul\":1470:1488   */\n  tag_72\n  tag_42\n  jump\t// in\ntag_72:\n    /* \"#utility.yul\":1434:1490   */\ntag_71:\n    /* \"#utility.yul\":1508:1537   */\n  tag_73\n    /* \"#utility.yul\":1530:1536   */\n  dup3\n    /* \"#utility.yul\":1508:1537   */\n  tag_41\n  jump\t// in\ntag_73:\n    /* \"#utility.yul\":1500:1537   */\n  swap1\n  pop\n    /* \"#utility.yul\":1592:1596   */\n  0x20\n    /* \"#utility.yul\":1586:1590   */\n  dup2\n    /* \"#utility.yul\":1582:1597   */\n  add\n    /* \"#utility.yul\":1574:1597   */\n  swap1\n  pop\n    /* \"#utility.yul\":1296:1604   */\n  swap2\n  swap1\n  pop\n  jump\t// out\n    /* \"#utility.yul\":1610:1749   */\ntag_46:\n    /* \"#utility.yul\":1699:1705   */\n  dup3\n    /* \"#utility.yul\":1694:1697   */\n  dup2\n    /* \"#utility.yul\":1689:1692   */\n  dup4\n    /* \"#utility.yul\":1683:1706   */\n  mcopy\n    /* \"#utility.yul\":1740:1741   */\n  0x00\n    /* \"#utility.yul\":1731:1737   */\n  dup4\n    /* \"#utility.yul\":1726:1729   */\n  dup4\n    /* \"#utility.yul\":1722:1738   */\n  add\n    /* \"#utility.yul\":1715:1742   */\n  mstore\n    /* \"#utility.yul\":1610:1749   */\n  pop\n  pop\n  pop\n  jump\t// out\n    /* \"#utility.yul\":1755:2189   */\ntag_47:\n    /* \"#utility.yul\":1844:1849   */\n  0x00\n    /* \"#utility.yul\":1869:1935   */\n  tag_76\n    /* \"#utility.yul\":1885:1934   */\n  tag_77\n    /* \"#utility.yul\":1927:1933   */\n  dup5\n    /* \"#utility.yul\":1885:1934   */\n  tag_45\n  jump\t// in\ntag_77:\n    /* \"#utility.yul\":1869:1935   */\n  tag_44\n  jump\t// in\ntag_76:\n    /* \"#utility.yul\":1860:1935   */\n  swap1\n  pop\n    /* \"#utility.yul\":1958:1964   */\n  dup3\n    /* \"#utility.yul\":1951:1956   */\n  dup2\n    /* \"#utility.yul\":1944:1965   */\n  mstore\n    /* \"#utility.yul\":1996:2000   */\n  0x20\n    /* \"#utility.yul\":1989:1994   */\n  dup2\n    /* \"#utility.yul\":1985:2001   */\n  add\n    /* \"#utility.yul\":2034:2037   */\n  dup5\n    /* \"#utility.yul\":2025:2031   */\n  dup5\n    /* \"#utility.yul\":2020:2023   */\n  dup5\n    /* \"#utility.yul\":2016:2032   */\n  add\n    /* \"#utility.yul\":2013:2038   */\n  gt\n    /* \"#utility.yul\":2010:2122   */\n  iszero\n  tag_78\n  jumpi\n    /* \"#utility.yul\":2041:2120   */\n  tag_79\n  tag_40\n  jump\t// in\ntag_79:\n    /* \"#utility.yul\":2010:2122   */\ntag_78:\n    /* \"#utility.yul\":2131:2183   */\n  tag_80\n    /* \"#utility.yul\":2176:2182   */\n  dup5\n    /* \"#utility.yul\":2171:2174   */\n  dup3\n    /* \"#utility.yul\":2166:2169   */\n  dup6\n    /* \"#utility.yul\":2131:2183   */\n  tag_46\n  jump\t// in\ntag_80:\n    /* \"#utility.yul\":1850:2189   */\n  pop\n    /* \"#utility.yul\":1755:2189   */\n  swap4\n  swap3\n  pop\n  pop\n  pop\n  jump\t// out\n    /* \"#utility.yul\":2209:2564   */\ntag_48:\n    /* \"#utility.yul\":2276:2281   */\n  0x00\n    /* \"#utility.yul\":2325:2328   */\n  dup3\n    /* \"#utility.yul\":2318:2322   */\n  0x1f\n    /* \"#utility.yul\":2310:2316   */\n  dup4\n    /* \"#utility.yul\":2306:2323   */\n  add\n    /* \"#utility.yul\":2302:2329   */\n  slt\n    /* \"#utility.yul\":2292:2414   */\n  tag_82\n  jumpi\n    /* \"#utility.yul\":2333:2412   */\n  tag_83\n  tag_39\n  jump\t// in\ntag_83:\n    /* \"#utility.yul\":2292:2414   */\ntag_82:\n    /* \"#utility.yul\":2443:2449   */\n  dup2\n    /* \"#utility.yul\":2437:2450   */\n  mload\n    /* \"#utility.yul\":2468:2558   */\n  tag_84\n    /* \"#utility.yul\":2554:2557   */\n  dup5\n    /* \"#utility.yul\":2546:2552   */\n  dup3\n    /* \"#utility.yul\":2539:2543   */\n  0x20\n    /* \"#utility.yul\":2531:2537   */\n  dup7\n    /* \"#utility.yul\":2527:2544   */\n  add\n    /* \"#utility.yul\":2468:2558   */\n  tag_47\n  jump\t// in\ntag_84:\n    /* \"#utility.yul\":2459:2558   */\n  swap2\n  pop\n    /* \"#utility.yul\":2282:2564   */\n  pop\n    /* \"#utility.yul\":2209:2564   */\n  swap3\n  swap2\n  pop\n  pop\n  jump\t// out\n    /* \"#utility.yul\":2570:3752   */\ntag_5:\n    /* \"#utility.yul\":2688:2694   */\n  0x00\n    /* \"#utility.yul\":2696:2702   */\n  dup1\n    /* \"#utility.yul\":2704:2710   */\n  0x00\n    /* \"#utility.yul\":2753:2755   */\n  0x60\n    /* \"#utility.yul\":2741:2750   */\n  dup5\n    /* \"#utility.yul\":2732:2739   */\n  dup7\n    /* \"#utility.yul\":2728:2751   */\n  sub\n    /* \"#utility.yul\":2724:2756   */\n  slt\n    /* \"#utility.yul\":2721:2840   */\n  iszero\n  tag_86\n  jumpi\n    /* \"#utility.yul\":2759:2838   */\n  tag_87\n  tag_37\n  jump\t// in\ntag_87:\n    /* \"#utility.yul\":2721:2840   */\ntag_86:\n    /* \"#utility.yul\":2900:2901   */\n  0x00\n    /* \"#utility.yul\":2889:2898   */\n  dup5\n    /* \"#utility.yul\":2885:2902   */\n  add\n    /* \"#utility.yul\":2879:2903   */\n  mload\n    /* \"#utility.yul\":2930:2948   */\n  0xffffffffffffffff\n    /* \"#utility.yul\":2922:2928   */\n  dup2\n    /* \"#utility.yul\":2919:2949   */\n  gt\n    /* \"#utility.yul\":2916:3033   */\n  iszero\n  tag_88\n  jumpi\n    /* \"#utility.yul\":2952:3031   */\n  tag_89\n  tag_38\n  jump\t// in\ntag_89:\n    /* \"#utility.yul\":2916:3033   */\ntag_88:\n    /* \"#utility.yul\":3057:3131   */\n  tag_90\n    /* \"#utility.yul\":3123:3130   */\n  dup7\n    /* \"#utility.yul\":3114:3120   */\n  dup3\n    /* \"#utility.yul\":3103:3112   */\n  dup8\n    /* \"#utility.yul\":3099:3121   */\n  add\n    /* \"#utility.yul\":3057:3131   */\n  tag_48\n  jump\t// in\ntag_90:\n    /* \"#utility.yul\":3047:3131   */\n  swap4\n  pop\n    /* \"#utility.yul\":2850:3141   */\n  pop\n    /* \"#utility.yul\":3201:3203   */\n  0x20\n    /* \"#utility.yul\":3190:3199   */\n  dup5\n    /* \"#utility.yul\":3186:3204   */\n  add\n    /* \"#utility.yul\":3180:3205   */\n  mload\n    /* \"#utility.yul\":3232:3250   */\n  0xffffffffffffffff\n    /* \"#utility.yul\":3224:3230   */\n  dup2\n    /* \"#utility.yul\":3221:3251   */\n  gt\n    /* \"#utility.yul\":3218:3335   */\n  iszero\n  tag_91\n  jumpi\n    /* \"#utility.yul\":3254:3333   */\n  tag_92\n  tag_38\n  jump\t// in\ntag_92:\n    /* \"#utility.yul\":3218:3335   */\ntag_91:\n    /* \"#utility.yul\":3359:3433   */\n  tag_93\n    /* \"#utility.yul\":3425:3432   */\n  dup7\n    /* \"#utility.yul\":3416:3422   */\n  dup3\n    /* \"#utility.yul\":3405:3414   */\n  dup8\n    /* \"#utility.yul\":3401:3423   */\n  add\n    /* \"#utility.yul\":3359:3433   */\n  tag_48\n  jump\t// in\ntag_93:\n    /* \"#utility.yul\":3349:3433   */\n  swap3\n  pop\n    /* \"#utility.yul\":3151:3443   */\n  pop\n    /* \"#utility.yul\":3503:3505   */\n  0x40\n    /* \"#utility.yul\":3492:3501   */\n  dup5\n    /* \"#utility.yul\":3488:3506   */\n  add\n    /* \"#utility.yul\":3482:3507   */\n  mload\n    /* \"#utility.yul\":3534:3552   */\n  0xffffffffffffffff\n    /* \"#utility.yul\":3526:3532   */\n  dup2\n    /* \"#utility.yul\":3523:3553   */\n  gt\n    /* \"#utility.yul\":3520:3637   */\n  iszero\n  tag_94\n  jumpi\n    /* \"#utility.yul\":3556:3635   */\n  tag_95\n  tag_38\n  jump\t// in\ntag_95:\n    /* \"#utility.yul\":3520:3637   */\ntag_94:\n    /* \"#utility.yul\":3661:3735   */\n  tag_96\n    /* \"#utility.yul\":3727:3734   */\n  dup7\n    /* \"#utility.yul\":3718:3724   */\n  dup3\n    /* \"#utility.yul\":3707:3716   */\n  dup8\n    /* \"#utility.yul\":3703:3725   */\n  add\n    /* \"#utility.yul\":3661:3735   */\n  tag_48\n  jump\t// in\ntag_96:\n    /* \"#utility.yul\":3651:3735   */\n  swap2\n  pop\n    /* \"#utility.yul\":3453:3745   */\n  pop\n    /* \"#utility.yul\":2570:3752   */\n  swap3\n  pop\n  swap3\n  pop\n  swap3\n  jump\t// out\n    /* \"#utility.yul\":3758:3857   */\ntag_49:\n    /* \"#utility.yul\":3810:3816   */\n  0x00\n    /* \"#utility.yul\":3844:3849   */\n  dup2\n    /* \"#utility.yul\":3838:3850   */\n  mload\n    /* \"#utility.yul\":3828:3850   */\n  swap1\n  pop\n    /* \"#utility.yul\":3758:3857   */\n  swap2\n  swap1\n  pop\n  jump\t// out\n    /* \"#utility.yul\":3863:4011   */\ntag_50:\n    /* \"#utility.yul\":3965:3976   */\n  0x00\n    /* \"#utility.yul\":4002:4005   */\n  dup2\n    /* \"#utility.yul\":3987:4005   */\n  swap1\n  pop\n    /* \"#utility.yul\":3863:4011   */\n  swap3\n  swap2\n  pop\n  pop\n  jump\t// out\n    /* \"#utility.yul\":4017:4407   */\ntag_51:\n    /* \"#utility.yul\":4123:4126   */\n  0x00\n    /* \"#utility.yul\":4151:4190   */\n  tag_100\n    /* \"#utility.yul\":4184:4189   */\n  dup3\n    /* \"#utility.yul\":4151:4190   */\n  tag_49\n  jump\t// in\ntag_100:\n    /* \"#utility.yul\":4206:4295   */\n  tag_101\n    /* \"#utility.yul\":4288:4294   */\n  dup2\n    /* \"#utility.yul\":4283:4286   */\n  dup6\n    /* \"#utility.yul\":4206:4295   */\n  tag_50\n  jump\t// in\ntag_101:\n    /* \"#utility.yul\":4199:4295   */\n  swap4\n  pop\n    /* \"#utility.yul\":4304:4369   */\n  tag_102\n    /* \"#utility.yul\":4362:4368   */\n  dup2\n    /* \"#utility.yul\":4357:4360   */\n  dup6\n    /* \"#utility.yul\":4350:4354   */\n  0x20\n    /* \"#utility.yul\":4343:4348   */\n  dup7\n    /* \"#utility.yul\":4339:4355   */\n  add\n    /* \"#utility.yul\":4304:4369   */\n  tag_46\n  jump\t// in\ntag_102:\n    /* \"#utility.yul\":4394:4400   */\n  dup1\n    /* \"#utility.yul\":4389:4392   */\n  dup5\n    /* \"#utility.yul\":4385:4401   */\n  add\n    /* \"#utility.yul\":4378:4401   */\n  swap2\n  pop\n    /* \"#utility.yul\":4127:4407   */\n  pop\n    /* \"#utility.yul\":4017:4407   */\n  swap3\n  swap2\n  pop\n  pop\n  jump\t// out\n    /* \"#utility.yul\":4413:4688   */\ntag_9:\n    /* \"#utility.yul\":4545:4548   */\n  0x00\n    /* \"#utility.yul\":4567:4662   */\n  tag_104\n    /* \"#utility.yul\":4658:4661   */\n  dup3\n    /* \"#utility.yul\":4649:4655   */\n  dup5\n    /* \"#utility.yul\":4567:4662   */\n  tag_51\n  jump\t// in\ntag_104:\n    /* \"#utility.yul\":4560:4662   */\n  swap2\n  pop\n    /* \"#utility.yul\":4679:4682   */\n  dup2\n    /* \"#utility.yul\":4672:4682   */\n  swap1\n  pop\n    /* \"#utility.yul\":4413:4688   */\n  swap3\n  swap2\n  pop\n  pop\n  jump\t// out\n    /* \"#utility.yul\":4694:4771   */\ntag_52:\n    /* \"#utility.yul\":4731:4738   */\n  0x00\n    /* \"#utility.yul\":4760:4765   */\n  dup2\n    /* \"#utility.yul\":4749:4765   */\n  swap1\n  pop\n    /* \"#utility.yul\":4694:4771   */\n  swap2\n  swap1\n  pop\n  jump\t// out\n    /* \"#utility.yul\":4777:4856   */\ntag_53:\n    /* \"#utility.yul\":4816:4823   */\n  0x00\n    /* \"#utility.yul\":4845:4850   */\n  dup2\n    /* \"#utility.yul\":4834:4850   */\n  swap1\n  pop\n    /* \"#utility.yul\":4777:4856   */\n  swap2\n  swap1\n  pop\n  jump\t// out\n    /* \"#utility.yul\":4862:5019   */\ntag_54:\n    /* \"#utility.yul\":4967:5012   */\n  tag_108\n    /* \"#utility.yul\":4987:5011   */\n  tag_109\n    /* \"#utility.yul\":5005:5010   */\n  dup3\n    /* \"#utility.yul\":4987:5011   */\n  tag_52\n  jump\t// in\ntag_109:\n    /* \"#utility.yul\":4967:5012   */\n  tag_53\n  jump\t// in\ntag_108:\n    /* \"#utility.yul\":4962:4965   */\n  dup3\n    /* \"#utility.yul\":4955:5013   */\n  mstore\n    /* \"#utility.yul\":4862:5019   */\n  pop\n  pop\n  jump\t// out\n    /* \"#utility.yul\":5025:5281   */\ntag_11:\n    /* \"#utility.yul\":5137:5140   */\n  0x00\n    /* \"#utility.yul\":5152:5227   */\n  tag_111\n    /* \"#utility.yul\":5223:5226   */\n  dup3\n    /* \"#utility.yul\":5214:5220   */\n  dup5\n    /* \"#utility.yul\":5152:5227   */\n  tag_54\n  jump\t// in\ntag_111:\n    /* \"#utility.yul\":5252:5254   */\n  0x20\n    /* \"#utility.yul\":5247:5250   */\n  dup3\n    /* \"#utility.yul\":5243:5255   */\n  add\n    /* \"#utility.yul\":5236:5255   */\n  swap2\n  pop\n    /* \"#utility.yul\":5272:5275   */\n  dup2\n    /* \"#utility.yul\":5265:5275   */\n  swap1\n  pop\n    /* \"#utility.yul\":5025:5281   */\n  swap3\n  swap2\n  pop\n  pop\n  jump\t// out\n    /* \"contracts/main.sol\":58:7789  contract main {... */\ntag_16:\n  dataSize(sub_0)\n  dup1\n  dataOffset(sub_0)\n  0x00\n  codecopy\n  0x00\n  return\nstop\n\nsub_0: assembly {\n        /* \"contracts/main.sol\":58:7789  contract main {... */\n      mstore(0x40, 0x80)\n      callvalue\n      dup1\n      iszero\n      tag_1\n      jumpi\n      0x00\n      dup1\n      revert\n    tag_1:\n      pop\n      jumpi(tag_2, lt(calldatasize, 0x04))\n      shr(0xe0, calldataload(0x00))\n      dup1\n      0x641d79d2\n      eq\n      tag_3\n      jumpi\n      dup1\n      0x963e9f1f\n      eq\n      tag_4\n      jumpi\n      dup1\n      0xae9ec457\n      eq\n      tag_5\n      jumpi\n      dup1\n      0xb0bd7503\n      eq\n      tag_6\n      jumpi\n      dup1\n      0xc005a930\n      eq\n      tag_7\n      jumpi\n    tag_2:\n      0x00\n      dup1\n      revert\n        /* \"contracts/main.sol\":5583:7394  function regRecipient(string memory _owner, string memory _organ, uint256 _bloodtype, uint256 _quantity, string memory _hospital) public {... */\n    tag_3:\n      tag_8\n      0x04\n      dup1\n      calldatasize\n      sub\n      dup2\n      add\n      swap1\n      tag_9\n      swap2\n      swap1\n      tag_10\n      jump\t// in\n    tag_9:\n      tag_11\n      jump\t// in\n    tag_8:\n      stop\n        /* \"contracts/main.sol\":7522:7651  function showRecipient(string memory _pass) public view rlPassCheck(_pass) returns (orgdet[] memory) {... */\n    tag_4:\n      tag_12\n      0x04\n      dup1\n      calldatasize\n      sub\n      dup2\n      add\n      swap1\n      tag_13\n      swap2\n      swap1\n      tag_14\n      jump\t// in\n    tag_13:\n      tag_15\n      jump\t// in\n    tag_12:\n      mload(0x40)\n      tag_16\n      swap2\n      swap1\n      tag_17\n      jump\t// in\n    tag_16:\n      mload(0x40)\n      dup1\n      swap2\n      sub\n      swap1\n      return\n        /* \"contracts/main.sol\":7397:7519  function showDonors(string memory _pass) public view dlPassCheck(_pass) returns (orgdet[] memory) {... */\n    tag_5:\n      tag_18\n      0x04\n      dup1\n      calldatasize\n      sub\n      dup2\n      add\n      swap1\n      tag_19\n      swap2\n      swap1\n      tag_14\n      jump\t// in\n    tag_19:\n      tag_20\n      jump\t// in\n    tag_18:\n      mload(0x40)\n      tag_21\n      swap2\n      swap1\n      tag_17\n      jump\t// in\n    tag_21:\n      mload(0x40)\n      dup1\n      swap2\n      sub\n      swap1\n      return\n        /* \"contracts/main.sol\":3676:5580  function regDonor(string memory _owner, uint256 _bloodtype, string memory _organ, uint256 _quantity, string memory _hospital) public {... */\n    tag_6:\n      tag_22\n      0x04\n      dup1\n      calldatasize\n      sub\n      dup2\n      add\n      swap1\n      tag_23\n      swap2\n      swap1\n      tag_24\n      jump\t// in\n    tag_23:\n      tag_25\n      jump\t// in\n    tag_22:\n      stop\n        /* \"contracts/main.sol\":7654:7787  function showMatches(string memory _pass) public view mlPassCheck(_pass) returns (matched_orgdet[] memory) {... */\n    tag_7:\n      tag_26\n      0x04\n      dup1\n      calldatasize\n      sub\n      dup2\n      add\n      swap1\n      tag_27\n      swap2\n      swap1\n      tag_14\n      jump\t// in\n    tag_27:\n      tag_28\n      jump\t// in\n    tag_26:\n      mload(0x40)\n      tag_29\n      swap2\n      swap1\n      tag_30\n      jump\t// in\n    tag_29:\n      mload(0x40)\n      dup1\n      swap2\n      sub\n      swap1\n      return\n        /* \"contracts/main.sol\":5583:7394  function regRecipient(string memory _owner, string memory _organ, uint256 _bloodtype, uint256 _quantity, string memory _hospital) public {... */\n    tag_11:\n        /* \"contracts/main.sol\":5743:5744  8 */\n      0x08\n        /* \"contracts/main.sol\":5729:5739  _bloodtype */\n      dup4\n        /* \"contracts/main.sol\":5729:5744  _bloodtype == 8 */\n      eq\n        /* \"contracts/main.sol\":5729:5763  _bloodtype == 8 || _bloodtype == 9 */\n      dup1\n      tag_32\n      jumpi\n      pop\n        /* \"contracts/main.sol\":5762:5763  9 */\n      0x09\n        /* \"contracts/main.sol\":5748:5758  _bloodtype */\n      dup4\n        /* \"contracts/main.sol\":5748:5763  _bloodtype == 9 */\n      eq\n        /* \"contracts/main.sol\":5729:5763  _bloodtype == 8 || _bloodtype == 9 */\n    tag_32:\n        /* \"contracts/main.sol\":5725:5918  if (_bloodtype == 8 || _bloodtype == 9) {... */\n      iszero\n      tag_33\n      jumpi\n        /* \"contracts/main.sol\":5770:5790  posBT = [_bloodtype] */\n      mload(0x40)\n      dup1\n      0x20\n      add\n      0x40\n      mstore\n      dup1\n        /* \"contracts/main.sol\":5779:5789  _bloodtype */\n      dup5\n        /* \"contracts/main.sol\":5770:5790  posBT = [_bloodtype] */\n      dup2\n      mstore\n      pop\n        /* \"contracts/main.sol\":5770:5775  posBT */\n      0x6a\n        /* \"contracts/main.sol\":5770:5790  posBT = [_bloodtype] */\n      swap1\n      0x01\n      tag_34\n      swap3\n      swap2\n      swap1\n      tag_35\n      jump\t// in\n    tag_34:\n      pop\n        /* \"contracts/main.sol\":5725:5918  if (_bloodtype == 8 || _bloodtype == 9) {... */\n      jump(tag_36)\n    tag_33:\n        /* \"contracts/main.sol\":5811:5820  uint256 i */\n      0x00\n        /* \"contracts/main.sol\":5806:5914  for (uint256 i = 0; i < 8; i++) {... */\n    tag_37:\n        /* \"contracts/main.sol\":5830:5831  8 */\n      0x08\n        /* \"contracts/main.sol\":5826:5827  i */\n      dup2\n        /* \"contracts/main.sol\":5826:5831  i < 8 */\n      lt\n        /* \"contracts/main.sol\":5806:5914  for (uint256 i = 0; i < 8; i++) {... */\n      iszero\n      tag_38\n      jumpi\n        /* \"contracts/main.sol\":5879:5880  1 */\n      0x01\n        /* \"contracts/main.sol\":5848:5860  compatMatrix */\n      0x06\n        /* \"contracts/main.sol\":5861:5871  _bloodtype */\n      dup6\n        /* \"contracts/main.sol\":5848:5872  compatMatrix[_bloodtype] */\n      0x0a\n      dup2\n      lt\n      tag_40\n      jumpi\n      tag_41\n      tag_42\n      jump\t// in\n    tag_41:\n    tag_40:\n      0x0a\n      mul\n      add\n        /* \"contracts/main.sol\":5873:5874  i */\n      dup3\n        /* \"contracts/main.sol\":5848:5875  compatMatrix[_bloodtype][i] */\n      0x0a\n      dup2\n      lt\n      tag_44\n      jumpi\n      tag_45\n      tag_42\n      jump\t// in\n    tag_45:\n    tag_44:\n      add\n      sload\n        /* \"contracts/main.sol\":5848:5880  compatMatrix[_bloodtype][i] == 1 */\n      sub\n        /* \"contracts/main.sol\":5844:5909  if (compatMatrix[_bloodtype][i] == 1) {... */\n      tag_47\n      jumpi\n        /* \"contracts/main.sol\":5889:5894  posBT */\n      0x6a\n        /* \"contracts/main.sol\":5900:5901  i */\n      dup2\n        /* \"contracts/main.sol\":5889:5902  posBT.push(i) */\n      swap1\n      dup1\n      0x01\n      dup2\n      sload\n      add\n      dup1\n      dup3\n      sstore\n      dup1\n      swap2\n      pop\n      pop\n      0x01\n      swap1\n      sub\n      swap1\n      0x00\n      mstore\n      keccak256(0x00, 0x20)\n      add\n      0x00\n      swap1\n      swap2\n      swap1\n      swap2\n      swap1\n      swap2\n      pop\n      sstore\n        /* \"contracts/main.sol\":5844:5909  if (compatMatrix[_bloodtype][i] == 1) {... */\n    tag_47:\n        /* \"contracts/main.sol\":5833:5836  i++ */\n      dup1\n      dup1\n      0x01\n      add\n      swap2\n      pop\n      pop\n        /* \"contracts/main.sol\":5806:5914  for (uint256 i = 0; i < 8; i++) {... */\n      jump(tag_37)\n    tag_38:\n      pop\n        /* \"contracts/main.sol\":5725:5918  if (_bloodtype == 8 || _bloodtype == 9) {... */\n    tag_36:\n        /* \"contracts/main.sol\":5922:5937  bool matchFound */\n      0x00\n        /* \"contracts/main.sol\":5955:5964  uint256 i */\n      dup1\n        /* \"contracts/main.sol\":5950:7300  for (uint256 i = 0; i < donorList.length; i++) {... */\n    tag_49:\n        /* \"contracts/main.sol\":5974:5983  donorList */\n      0x03\n        /* \"contracts/main.sol\":5974:5990  donorList.length */\n      dup1\n      sload\n      swap1\n      pop\n        /* \"contracts/main.sol\":5970:5971  i */\n      dup2\n        /* \"contracts/main.sol\":5970:5990  i < donorList.length */\n      lt\n        /* \"contracts/main.sol\":5950:7300  for (uint256 i = 0; i < donorList.length; i++) {... */\n      iszero\n      tag_50\n      jumpi\n        /* \"contracts/main.sol\":6062:6068  _organ */\n      dup6\n        /* \"contracts/main.sol\":6046:6070  keccak256(bytes(_organ)) */\n      dup1\n      mload\n      swap1\n      0x20\n      add\n      keccak256\n        /* \"contracts/main.sol\":6022:6031  donorList */\n      0x03\n        /* \"contracts/main.sol\":6032:6033  i */\n      dup3\n        /* \"contracts/main.sol\":6022:6034  donorList[i] */\n      dup2\n      sload\n      dup2\n      lt\n      tag_52\n      jumpi\n      tag_53\n      tag_42\n      jump\t// in\n    tag_53:\n    tag_52:\n      swap1\n      0x00\n      mstore\n      keccak256(0x00, 0x20)\n      swap1\n      0x05\n      mul\n      add\n        /* \"contracts/main.sol\":6022:6040  donorList[i].organ */\n      0x02\n      add\n        /* \"contracts/main.sol\":6006:6042  keccak256(bytes(donorList[i].organ)) */\n      mload(0x40)\n      tag_55\n      swap2\n      swap1\n      tag_56\n      jump\t// in\n    tag_55:\n      mload(0x40)\n      dup1\n      swap2\n      sub\n      swap1\n      keccak256\n        /* \"contracts/main.sol\":6006:6070  keccak256(bytes(donorList[i].organ)) == keccak256(bytes(_organ)) */\n      sub\n        /* \"contracts/main.sol\":6002:7296  if (keccak256(bytes(donorList[i].organ)) == keccak256(bytes(_organ))) {... */\n      tag_57\n      jumpi\n        /* \"contracts/main.sol\":6083:6092  uint256 j */\n      0x00\n        /* \"contracts/main.sol\":6078:7291  for (uint256 j = 0; j <\tposBT.length; j++) {... */\n    tag_58:\n        /* \"contracts/main.sol\":6102:6107  posBT */\n      0x6a\n        /* \"contracts/main.sol\":6102:6114  posBT.length */\n      dup1\n      sload\n      swap1\n      pop\n        /* \"contracts/main.sol\":6098:6099  j */\n      dup2\n        /* \"contracts/main.sol\":6098:6114  j <\tposBT.length */\n      lt\n        /* \"contracts/main.sol\":6078:7291  for (uint256 j = 0; j <\tposBT.length; j++) {... */\n      iszero\n      tag_59\n      jumpi\n        /* \"contracts/main.sol\":6158:6163  posBT */\n      0x6a\n        /* \"contracts/main.sol\":6164:6165  j */\n      dup2\n        /* \"contracts/main.sol\":6158:6166  posBT[j] */\n      dup2\n      sload\n      dup2\n      lt\n      tag_61\n      jumpi\n      tag_62\n      tag_42\n      jump\t// in\n    tag_62:\n    tag_61:\n      swap1\n      0x00\n      mstore\n      keccak256(0x00, 0x20)\n      add\n      sload\n        /* \"contracts/main.sol\":6132:6141  donorList */\n      0x03\n        /* \"contracts/main.sol\":6142:6143  i */\n      dup4\n        /* \"contracts/main.sol\":6132:6144  donorList[i] */\n      dup2\n      sload\n      dup2\n      lt\n      tag_64\n      jumpi\n      tag_65\n      tag_42\n      jump\t// in\n    tag_65:\n    tag_64:\n      swap1\n      0x00\n      mstore\n      keccak256(0x00, 0x20)\n      swap1\n      0x05\n      mul\n      add\n        /* \"contracts/main.sol\":6132:6154  donorList[i].bloodtype */\n      0x01\n      add\n      sload\n        /* \"contracts/main.sol\":6132:6166  donorList[i].bloodtype == posBT[j] */\n      sub\n        /* \"contracts/main.sol\":6128:7285  if (donorList[i].bloodtype == posBT[j]) {... */\n      tag_67\n      jumpi\n        /* \"contracts/main.sol\":6189:6193  true */\n      0x01\n        /* \"contracts/main.sol\":6176:6193  matchFound = true */\n      swap3\n      pop\n        /* \"contracts/main.sol\":6206:6329  DonMatchFound(donorList[i].owner, donorList[i].bloodtype, donorList[i].organ, donorList[i].quantity, donorList[i].hospital) */\n      0x7b68a667d52b8bacd836d1815f339828fd05ba2d41ddacb7ab48c6145d88b566\n        /* \"contracts/main.sol\":6220:6229  donorList */\n      0x03\n        /* \"contracts/main.sol\":6230:6231  i */\n      dup4\n        /* \"contracts/main.sol\":6220:6232  donorList[i] */\n      dup2\n      sload\n      dup2\n      lt\n      tag_68\n      jumpi\n      tag_69\n      tag_42\n      jump\t// in\n    tag_69:\n    tag_68:\n      swap1\n      0x00\n      mstore\n      keccak256(0x00, 0x20)\n      swap1\n      0x05\n      mul\n      add\n        /* \"contracts/main.sol\":6220:6238  donorList[i].owner */\n      0x00\n      add\n        /* \"contracts/main.sol\":6240:6249  donorList */\n      0x03\n        /* \"contracts/main.sol\":6250:6251  i */\n      dup5\n        /* \"contracts/main.sol\":6240:6252  donorList[i] */\n      dup2\n      sload\n      dup2\n      lt\n      tag_71\n      jumpi\n      tag_72\n      tag_42\n      jump\t// in\n    tag_72:\n    tag_71:\n      swap1\n      0x00\n      mstore\n      keccak256(0x00, 0x20)\n      swap1\n      0x05\n      mul\n      add\n        /* \"contracts/main.sol\":6240:6262  donorList[i].bloodtype */\n      0x01\n      add\n      sload\n        /* \"contracts/main.sol\":6264:6273  donorList */\n      0x03\n        /* \"contracts/main.sol\":6274:6275  i */\n      dup6\n        /* \"contracts/main.sol\":6264:6276  donorList[i] */\n      dup2\n      sload\n      dup2\n      lt\n      tag_74\n      jumpi\n      tag_75\n      tag_42\n      jump\t// in\n    tag_75:\n    tag_74:\n      swap1\n      0x00\n      mstore\n      keccak256(0x00, 0x20)\n      swap1\n      0x05\n      mul\n      add\n        /* \"contracts/main.sol\":6264:6282  donorList[i].organ */\n      0x02\n      add\n        /* \"contracts/main.sol\":6284:6293  donorList */\n      0x03\n        /* \"contracts/main.sol\":6294:6295  i */\n      dup7\n        /* \"contracts/main.sol\":6284:6296  donorList[i] */\n      dup2\n      sload\n      dup2\n      lt\n      tag_77\n      jumpi\n      tag_78\n      tag_42\n      jump\t// in\n    tag_78:\n    tag_77:\n      swap1\n      0x00\n      mstore\n      keccak256(0x00, 0x20)\n      swap1\n      0x05\n      mul\n      add\n        /* \"contracts/main.sol\":6284:6305  donorList[i].quantity */\n      0x03\n      add\n      sload\n        /* \"contracts/main.sol\":6307:6316  donorList */\n      0x03\n        /* \"contracts/main.sol\":6317:6318  i */\n      dup8\n        /* \"contracts/main.sol\":6307:6319  donorList[i] */\n      dup2\n      sload\n      dup2\n      lt\n      tag_80\n      jumpi\n      tag_81\n      tag_42\n      jump\t// in\n    tag_81:\n    tag_80:\n      swap1\n      0x00\n      mstore\n      keccak256(0x00, 0x20)\n      swap1\n      0x05\n      mul\n      add\n        /* \"contracts/main.sol\":6307:6328  donorList[i].hospital */\n      0x04\n      add\n        /* \"contracts/main.sol\":6206:6329  DonMatchFound(donorList[i].owner, donorList[i].bloodtype, donorList[i].organ, donorList[i].quantity, donorList[i].hospital) */\n      mload(0x40)\n      tag_83\n      swap6\n      swap5\n      swap4\n      swap3\n      swap2\n      swap1\n      tag_84\n      jump\t// in\n    tag_83:\n      mload(0x40)\n      dup1\n      swap2\n      sub\n      swap1\n      log1\n        /* \"contracts/main.sol\":6337:6356  int256 remainingqty */\n      0x00\n        /* \"contracts/main.sol\":6386:6395  donorList */\n      0x03\n        /* \"contracts/main.sol\":6396:6397  i */\n      dup4\n        /* \"contracts/main.sol\":6386:6398  donorList[i] */\n      dup2\n      sload\n      dup2\n      lt\n      tag_85\n      jumpi\n      tag_86\n      tag_42\n      jump\t// in\n    tag_86:\n    tag_85:\n      swap1\n      0x00\n      mstore\n      keccak256(0x00, 0x20)\n      swap1\n      0x05\n      mul\n      add\n        /* \"contracts/main.sol\":6386:6407  donorList[i].quantity */\n      0x03\n      add\n      sload\n        /* \"contracts/main.sol\":6366:6375  _quantity */\n      dup7\n        /* \"contracts/main.sol\":6359:6408  int256(_quantity) - int256(donorList[i].quantity) */\n      tag_88\n      swap2\n      swap1\n      tag_89\n      jump\t// in\n    tag_88:\n        /* \"contracts/main.sol\":6337:6408  int256 remainingqty = int256(_quantity) - int256(donorList[i].quantity) */\n      swap1\n      pop\n        /* \"contracts/main.sol\":6435:6436  0 */\n      0x00\n        /* \"contracts/main.sol\":6420:6432  remainingqty */\n      dup2\n        /* \"contracts/main.sol\":6420:6436  remainingqty > 0 */\n      sgt\n        /* \"contracts/main.sol\":6416:7278  if (remainingqty > 0 ) {... */\n      iszero\n      tag_90\n      jumpi\n        /* \"contracts/main.sol\":6448:6620  pushMatch(donorList[i].owner, _owner, donorList[i].bloodtype, _bloodtype, _organ, donorList[i].quantity, _quantity, donorList[i].quantity, donorList[i].hospital, _hospital) */\n      tag_91\n        /* \"contracts/main.sol\":6458:6467  donorList */\n      0x03\n        /* \"contracts/main.sol\":6468:6469  i */\n      dup5\n        /* \"contracts/main.sol\":6458:6470  donorList[i] */\n      dup2\n      sload\n      dup2\n      lt\n      tag_92\n      jumpi\n      tag_93\n      tag_42\n      jump\t// in\n    tag_93:\n    tag_92:\n      swap1\n      0x00\n      mstore\n      keccak256(0x00, 0x20)\n      swap1\n      0x05\n      mul\n      add\n        /* \"contracts/main.sol\":6458:6476  donorList[i].owner */\n      0x00\n      add\n        /* \"contracts/main.sol\":6448:6620  pushMatch(donorList[i].owner, _owner, donorList[i].bloodtype, _bloodtype, _organ, donorList[i].quantity, _quantity, donorList[i].quantity, donorList[i].hospital, _hospital) */\n      dup1\n      sload\n      tag_95\n      swap1\n      tag_96\n      jump\t// in\n    tag_95:\n      dup1\n      0x1f\n      add\n      0x20\n      dup1\n      swap2\n      div\n      mul\n      0x20\n      add\n      mload(0x40)\n      swap1\n      dup2\n      add\n      0x40\n      mstore\n      dup1\n      swap3\n      swap2\n      swap1\n      dup2\n      dup2\n      mstore\n      0x20\n      add\n      dup3\n      dup1\n      sload\n      tag_97\n      swap1\n      tag_96\n      jump\t// in\n    tag_97:\n      dup1\n      iszero\n      tag_98\n      jumpi\n      dup1\n      0x1f\n      lt\n      tag_99\n      jumpi\n      0x0100\n      dup1\n      dup4\n      sload\n      div\n      mul\n      dup4\n      mstore\n      swap2\n      0x20\n      add\n      swap2\n      jump(tag_98)\n    tag_99:\n      dup3\n      add\n      swap2\n      swap1\n      0x00\n      mstore\n      keccak256(0x00, 0x20)\n      swap1\n    tag_100:\n      dup2\n      sload\n      dup2\n      mstore\n      swap1\n      0x01\n      add\n      swap1\n      0x20\n      add\n      dup1\n      dup4\n      gt\n      tag_100\n      jumpi\n      dup3\n      swap1\n      sub\n      0x1f\n      and\n      dup3\n      add\n      swap2\n    tag_98:\n      pop\n      pop\n      pop\n      pop\n      pop\n        /* \"contracts/main.sol\":6478:6484  _owner */\n      dup11\n        /* \"contracts/main.sol\":6486:6495  donorList */\n      0x03\n        /* \"contracts/main.sol\":6496:6497  i */\n      dup7\n        /* \"contracts/main.sol\":6486:6498  donorList[i] */\n      dup2\n      sload\n      dup2\n      lt\n      tag_101\n      jumpi\n      tag_102\n      tag_42\n      jump\t// in\n    tag_102:\n    tag_101:\n      swap1\n      0x00\n      mstore\n      keccak256(0x00, 0x20)\n      swap1\n      0x05\n      mul\n      add\n        /* \"contracts/main.sol\":6486:6508  donorList[i].bloodtype */\n      0x01\n      add\n      sload\n        /* \"contracts/main.sol\":6510:6520  _bloodtype */\n      dup11\n        /* \"contracts/main.sol\":6522:6528  _organ */\n      dup13\n        /* \"contracts/main.sol\":6530:6539  donorList */\n      0x03\n        /* \"contracts/main.sol\":6540:6541  i */\n      dup10\n        /* \"contracts/main.sol\":6530:6542  donorList[i] */\n      dup2\n      sload\n      dup2\n      lt\n      tag_104\n      jumpi\n      tag_105\n      tag_42\n      jump\t// in\n    tag_105:\n    tag_104:\n      swap1\n      0x00\n      mstore\n      keccak256(0x00, 0x20)\n      swap1\n      0x05\n      mul\n      add\n        /* \"contracts/main.sol\":6530:6551  donorList[i].quantity */\n      0x03\n      add\n      sload\n        /* \"contracts/main.sol\":6553:6562  _quantity */\n      dup13\n        /* \"contracts/main.sol\":6564:6573  donorList */\n      0x03\n        /* \"contracts/main.sol\":6574:6575  i */\n      dup12\n        /* \"contracts/main.sol\":6564:6576  donorList[i] */\n      dup2\n      sload\n      dup2\n      lt\n      tag_107\n      jumpi\n      tag_108\n      tag_42\n      jump\t// in\n    tag_108:\n    tag_107:\n      swap1\n      0x00\n      mstore\n      keccak256(0x00, 0x20)\n      swap1\n      0x05\n      mul\n      add\n        /* \"contracts/main.sol\":6564:6585  donorList[i].quantity */\n      0x03\n      add\n      sload\n        /* \"contracts/main.sol\":6587:6596  donorList */\n      0x03\n        /* \"contracts/main.sol\":6597:6598  i */\n      dup13\n        /* \"contracts/main.sol\":6587:6599  donorList[i] */\n      dup2\n      sload\n      dup2\n      lt\n      tag_110\n      jumpi\n      tag_111\n      tag_42\n      jump\t// in\n    tag_111:\n    tag_110:\n      swap1\n      0x00\n      mstore\n      keccak256(0x00, 0x20)\n      swap1\n      0x05\n      mul\n      add\n        /* \"contracts/main.sol\":6587:6608  donorList[i].hospital */\n      0x04\n      add\n        /* \"contracts/main.sol\":6448:6620  pushMatch(donorList[i].owner, _owner, donorList[i].bloodtype, _bloodtype, _organ, donorList[i].quantity, _quantity, donorList[i].quantity, donorList[i].hospital, _hospital) */\n      dup1\n      sload\n      tag_113\n      swap1\n      tag_96\n      jump\t// in\n    tag_113:\n      dup1\n      0x1f\n      add\n      0x20\n      dup1\n      swap2\n      div\n      mul\n      0x20\n      add\n      mload(0x40)\n      swap1\n      dup2\n      add\n      0x40\n      mstore\n      dup1\n      swap3\n      swap2\n      swap1\n      dup2\n      dup2\n      mstore\n      0x20\n      add\n      dup3\n      dup1\n      sload\n      tag_114\n      swap1\n      tag_96\n      jump\t// in\n    tag_114:\n      dup1\n      iszero\n      tag_115\n      jumpi\n      dup1\n      0x1f\n      lt\n      tag_116\n      jumpi\n      0x0100\n      dup1\n      dup4\n      sload\n      div\n      mul\n      dup4\n      mstore\n      swap2\n      0x20\n      add\n      swap2\n      jump(tag_115)\n    tag_116:\n      dup3\n      add\n      swap2\n      swap1\n      0x00\n      mstore\n      keccak256(0x00, 0x20)\n      swap1\n    tag_117:\n      dup2\n      sload\n      dup2\n      mstore\n      swap1\n      0x01\n      add\n      swap1\n      0x20\n      add\n      dup1\n      dup4\n      gt\n      tag_117\n      jumpi\n      dup3\n      swap1\n      sub\n      0x1f\n      and\n      dup3\n      add\n      swap2\n    tag_115:\n      pop\n      pop\n      pop\n      pop\n      pop\n        /* \"contracts/main.sol\":6610:6619  _hospital */\n      dup15\n        /* \"contracts/main.sol\":6448:6457  pushMatch */\n      tag_118\n        /* \"contracts/main.sol\":6448:6620  pushMatch(donorList[i].owner, _owner, donorList[i].bloodtype, _bloodtype, _organ, donorList[i].quantity, _quantity, donorList[i].quantity, donorList[i].hospital, _hospital) */\n      jump\t// in\n    tag_91:\n        /* \"contracts/main.sol\":6629:6701  pushNew(_owner, _bloodtype, _organ, uint256(remainingqty), _hospital, 1) */\n      tag_119\n        /* \"contracts/main.sol\":6637:6643  _owner */\n      dup10\n        /* \"contracts/main.sol\":6645:6655  _bloodtype */\n      dup9\n        /* \"contracts/main.sol\":6657:6663  _organ */\n      dup11\n        /* \"contracts/main.sol\":6673:6685  remainingqty */\n      dup5\n        /* \"contracts/main.sol\":6688:6697  _hospital */\n      dup10\n        /* \"contracts/main.sol\":6699:6700  1 */\n      0x01\n        /* \"contracts/main.sol\":6629:6636  pushNew */\n      tag_120\n        /* \"contracts/main.sol\":6629:6701  pushNew(_owner, _bloodtype, _organ, uint256(remainingqty), _hospital, 1) */\n      jump\t// in\n    tag_119:\n        /* \"contracts/main.sol\":6710:6727  pop(donorList, i) */\n      tag_121\n        /* \"contracts/main.sol\":6714:6723  donorList */\n      0x03\n        /* \"contracts/main.sol\":6725:6726  i */\n      dup5\n        /* \"contracts/main.sol\":6710:6713  pop */\n      tag_122\n        /* \"contracts/main.sol\":6710:6727  pop(donorList, i) */\n      jump\t// in\n    tag_121:\n        /* \"contracts/main.sol\":6736:6741  break */\n      pop\n      jump(tag_59)\n        /* \"contracts/main.sol\":6416:7278  if (remainingqty > 0 ) {... */\n    tag_90:\n        /* \"contracts/main.sol\":6776:6777  0 */\n      0x00\n        /* \"contracts/main.sol\":6760:6772  remainingqty */\n      dup2\n        /* \"contracts/main.sol\":6760:6777  remainingqty == 0 */\n      sub\n        /* \"contracts/main.sol\":6756:7278  if (remainingqty == 0) {... */\n      tag_124\n      jumpi\n        /* \"contracts/main.sol\":6788:6960  pushMatch(donorList[i].owner, _owner, donorList[i].bloodtype, _bloodtype, _organ, donorList[i].quantity, _quantity, donorList[i].quantity, donorList[i].hospital, _hospital) */\n      tag_125\n        /* \"contracts/main.sol\":6798:6807  donorList */\n      0x03\n        /* \"contracts/main.sol\":6808:6809  i */\n      dup5\n        /* \"contracts/main.sol\":6798:6810  donorList[i] */\n      dup2\n      sload\n      dup2\n      lt\n      tag_126\n      jumpi\n      tag_127\n      tag_42\n      jump\t// in\n    tag_127:\n    tag_126:\n      swap1\n      0x00\n      mstore\n      keccak256(0x00, 0x20)\n      swap1\n      0x05\n      mul\n      add\n        /* \"contracts/main.sol\":6798:6816  donorList[i].owner */\n      0x00\n      add\n        /* \"contracts/main.sol\":6788:6960  pushMatch(donorList[i].owner, _owner, donorList[i].bloodtype, _bloodtype, _organ, donorList[i].quantity, _quantity, donorList[i].quantity, donorList[i].hospital, _hospital) */\n      dup1\n      sload\n      tag_129\n      swap1\n      tag_96\n      jump\t// in\n    tag_129:\n      dup1\n      0x1f\n      add\n      0x20\n      dup1\n      swap2\n      div\n      mul\n      0x20\n      add\n      mload(0x40)\n      swap1\n      dup2\n      add\n      0x40\n      mstore\n      dup1\n      swap3\n      swap2\n      swap1\n      dup2\n      dup2\n      mstore\n      0x20\n      add\n      dup3\n      dup1\n      sload\n      tag_130\n      swap1\n      tag_96\n      jump\t// in\n    tag_130:\n      dup1\n      iszero\n      tag_131\n      jumpi\n      dup1\n      0x1f\n      lt\n      tag_132\n      jumpi\n      0x0100\n      dup1\n      dup4\n      sload\n      div\n      mul\n      dup4\n      mstore\n      swap2\n      0x20\n      add\n      swap2\n      jump(tag_131)\n    tag_132:\n      dup3\n      add\n      swap2\n      swap1\n      0x00\n      mstore\n      keccak256(0x00, 0x20)\n      swap1\n    tag_133:\n      dup2\n      sload\n      dup2\n      mstore\n      swap1\n      0x01\n      add\n      swap1\n      0x20\n      add\n      dup1\n      dup4\n      gt\n      tag_133\n      jumpi\n      dup3\n      swap1\n      sub\n      0x1f\n      and\n      dup3\n      add\n      swap2\n    tag_131:\n      pop\n      pop\n      pop\n      pop\n      pop\n        /* \"contracts/main.sol\":6818:6824  _owner */\n      dup11\n        /* \"contracts/main.sol\":6826:6835  donorList */\n      0x03\n        /* \"contracts/main.sol\":6836:6837  i */\n      dup7\n        /* \"contracts/main.sol\":6826:6838  donorList[i] */\n      dup2\n      sload\n      dup2\n      lt\n      tag_134\n      jumpi\n      tag_135\n      tag_42\n      jump\t// in\n    tag_135:\n    tag_134:\n      swap1\n      0x00\n      mstore\n      keccak256(0x00, 0x20)\n      swap1\n      0x05\n      mul\n      add\n        /* \"contracts/main.sol\":6826:6848  donorList[i].bloodtype */\n      0x01\n      add\n      sload\n        /* \"contracts/main.sol\":6850:6860  _bloodtype */\n      dup11\n        /* \"contracts/main.sol\":6862:6868  _organ */\n      dup13\n        /* \"contracts/main.sol\":6870:6879  donorList */\n      0x03\n        /* \"contracts/main.sol\":6880:6881  i */\n      dup10\n        /* \"contracts/main.sol\":6870:6882  donorList[i] */\n      dup2\n      sload\n      dup2\n      lt\n      tag_137\n      jumpi\n      tag_138\n      tag_42\n      jump\t// in\n    tag_138:\n    tag_137:\n      swap1\n      0x00\n      mstore\n      keccak256(0x00, 0x20)\n      swap1\n      0x05\n      mul\n      add\n        /* \"contracts/main.sol\":6870:6891  donorList[i].quantity */\n      0x03\n      add\n      sload\n        /* \"contracts/main.sol\":6893:6902  _quantity */\n      dup13\n        /* \"contracts/main.sol\":6904:6913  donorList */\n      0x03\n        /* \"contracts/main.sol\":6914:6915  i */\n      dup12\n        /* \"contracts/main.sol\":6904:6916  donorList[i] */\n      dup2\n      sload\n      dup2\n      lt\n      tag_140\n      jumpi\n      tag_141\n      tag_42\n      jump\t// in\n    tag_141:\n    tag_140:\n      swap1\n      0x00\n      mstore\n      keccak256(0x00, 0x20)\n      swap1\n      0x05\n      mul\n      add\n        /* \"contracts/main.sol\":6904:6925  donorList[i].quantity */\n      0x03\n      add\n      sload\n        /* \"contracts/main.sol\":6927:6936  donorList */\n      0x03\n        /* \"contracts/main.sol\":6937:6938  i */\n      dup13\n        /* \"contracts/main.sol\":6927:6939  donorList[i] */\n      dup2\n      sload\n      dup2\n      lt\n      tag_143\n      jumpi\n      tag_144\n      tag_42\n      jump\t// in\n    tag_144:\n    tag_143:\n      swap1\n      0x00\n      mstore\n      keccak256(0x00, 0x20)\n      swap1\n      0x05\n      mul\n      add\n        /* \"contracts/main.sol\":6927:6948  donorList[i].hospital */\n      0x04\n      add\n        /* \"contracts/main.sol\":6788:6960  pushMatch(donorList[i].owner, _owner, donorList[i].bloodtype, _bloodtype, _organ, donorList[i].quantity, _quantity, donorList[i].quantity, donorList[i].hospital, _hospital) */\n      dup1\n      sload\n      tag_146\n      swap1\n      tag_96\n      jump\t// in\n    tag_146:\n      dup1\n      0x1f\n      add\n      0x20\n      dup1\n      swap2\n      div\n      mul\n      0x20\n      add\n      mload(0x40)\n      swap1\n      dup2\n      add\n      0x40\n      mstore\n      dup1\n      swap3\n      swap2\n      swap1\n      dup2\n      dup2\n      mstore\n      0x20\n      add\n      dup3\n      dup1\n      sload\n      tag_147\n      swap1\n      tag_96\n      jump\t// in\n    tag_147:\n      dup1\n      iszero\n      tag_148\n      jumpi\n      dup1\n      0x1f\n      lt\n      tag_149\n      jumpi\n      0x0100\n      dup1\n      dup4\n      sload\n      div\n      mul\n      dup4\n      mstore\n      swap2\n      0x20\n      add\n      swap2\n      jump(tag_148)\n    tag_149:\n      dup3\n      add\n      swap2\n      swap1\n      0x00\n      mstore\n      keccak256(0x00, 0x20)\n      swap1\n    tag_150:\n      dup2\n      sload\n      dup2\n      mstore\n      swap1\n      0x01\n      add\n      swap1\n      0x20\n      add\n      dup1\n      dup4\n      gt\n      tag_150\n      jumpi\n      dup3\n      swap1\n      sub\n      0x1f\n      and\n      dup3\n      add\n      swap2\n    tag_148:\n      pop\n      pop\n      pop\n      pop\n      pop\n        /* \"contracts/main.sol\":6950:6959  _hospital */\n      dup15\n        /* \"contracts/main.sol\":6788:6797  pushMatch */\n      tag_118\n        /* \"contracts/main.sol\":6788:6960  pushMatch(donorList[i].owner, _owner, donorList[i].bloodtype, _bloodtype, _organ, donorList[i].quantity, _quantity, donorList[i].quantity, donorList[i].hospital, _hospital) */\n      jump\t// in\n    tag_125:\n        /* \"contracts/main.sol\":6969:6986  pop(donorList, i) */\n      tag_151\n        /* \"contracts/main.sol\":6973:6982  donorList */\n      0x03\n        /* \"contracts/main.sol\":6984:6985  i */\n      dup5\n        /* \"contracts/main.sol\":6969:6972  pop */\n      tag_122\n        /* \"contracts/main.sol\":6969:6986  pop(donorList, i) */\n      jump\t// in\n    tag_151:\n        /* \"contracts/main.sol\":6995:7000  break */\n      pop\n      jump(tag_59)\n        /* \"contracts/main.sol\":6756:7278  if (remainingqty == 0) {... */\n    tag_124:\n        /* \"contracts/main.sol\":7024:7196  pushMatch(donorList[i].owner, _owner, donorList[i].bloodtype, _bloodtype, _organ, donorList[i].quantity, _quantity, donorList[i].quantity, donorList[i].hospital, _hospital) */\n      tag_153\n        /* \"contracts/main.sol\":7034:7043  donorList */\n      0x03\n        /* \"contracts/main.sol\":7044:7045  i */\n      dup5\n        /* \"contracts/main.sol\":7034:7046  donorList[i] */\n      dup2\n      sload\n      dup2\n      lt\n      tag_154\n      jumpi\n      tag_155\n      tag_42\n      jump\t// in\n    tag_155:\n    tag_154:\n      swap1\n      0x00\n      mstore\n      keccak256(0x00, 0x20)\n      swap1\n      0x05\n      mul\n      add\n        /* \"contracts/main.sol\":7034:7052  donorList[i].owner */\n      0x00\n      add\n        /* \"contracts/main.sol\":7024:7196  pushMatch(donorList[i].owner, _owner, donorList[i].bloodtype, _bloodtype, _organ, donorList[i].quantity, _quantity, donorList[i].quantity, donorList[i].hospital, _hospital) */\n      dup1\n      sload\n      tag_157\n      swap1\n      tag_96\n      jump\t// in\n    tag_157:\n      dup1\n      0x1f\n      add\n      0x20\n      dup1\n      swap2\n      div\n      mul\n      0x20\n      add\n      mload(0x40)\n      swap1\n      dup2\n      add\n      0x40\n      mstore\n      dup1\n      swap3\n      swap2\n      swap1\n      dup2\n      dup2\n      mstore\n      0x20\n      add\n      dup3\n      dup1\n      sload\n      tag_158\n      swap1\n      tag_96\n      jump\t// in\n    tag_158:\n      dup1\n      iszero\n      tag_159\n      jumpi\n      dup1\n      0x1f\n      lt\n      tag_160\n      jumpi\n      0x0100\n      dup1\n      dup4\n      sload\n      div\n      mul\n      dup4\n      mstore\n      swap2\n      0x20\n      add\n      swap2\n      jump(tag_159)\n    tag_160:\n      dup3\n      add\n      swap2\n      swap1\n      0x00\n      mstore\n      keccak256(0x00, 0x20)\n      swap1\n    tag_161:\n      dup2\n      sload\n      dup2\n      mstore\n      swap1\n      0x01\n      add\n      swap1\n      0x20\n      add\n      dup1\n      dup4\n      gt\n      tag_161\n      jumpi\n      dup3\n      swap1\n      sub\n      0x1f\n      and\n      dup3\n      add\n      swap2\n    tag_159:\n      pop\n      pop\n      pop\n      pop\n      pop\n        /* \"contracts/main.sol\":7054:7060  _owner */\n      dup11\n        /* \"contracts/main.sol\":7062:7071  donorList */\n      0x03\n        /* \"contracts/main.sol\":7072:7073  i */\n      dup7\n        /* \"contracts/main.sol\":7062:7074  donorList[i] */\n      dup2\n      sload\n      dup2\n      lt\n      tag_162\n      jumpi\n      tag_163\n      tag_42\n      jump\t// in\n    tag_163:\n    tag_162:\n      swap1\n      0x00\n      mstore\n      keccak256(0x00, 0x20)\n      swap1\n      0x05\n      mul\n      add\n        /* \"contracts/main.sol\":7062:7084  donorList[i].bloodtype */\n      0x01\n      add\n      sload\n        /* \"contracts/main.sol\":7086:7096  _bloodtype */\n      dup11\n        /* \"contracts/main.sol\":7098:7104  _organ */\n      dup13\n        /* \"contracts/main.sol\":7106:7115  donorList */\n      0x03\n        /* \"contracts/main.sol\":7116:7117  i */\n      dup10\n        /* \"contracts/main.sol\":7106:7118  donorList[i] */\n      dup2\n      sload\n      dup2\n      lt\n      tag_165\n      jumpi\n      tag_166\n      tag_42\n      jump\t// in\n    tag_166:\n    tag_165:\n      swap1\n      0x00\n      mstore\n      keccak256(0x00, 0x20)\n      swap1\n      0x05\n      mul\n      add\n        /* \"contracts/main.sol\":7106:7127  donorList[i].quantity */\n      0x03\n      add\n      sload\n        /* \"contracts/main.sol\":7129:7138  _quantity */\n      dup13\n        /* \"contracts/main.sol\":7140:7149  donorList */\n      0x03\n        /* \"contracts/main.sol\":7150:7151  i */\n      dup12\n        /* \"contracts/main.sol\":7140:7152  donorList[i] */\n      dup2\n      sload\n      dup2\n      lt\n      tag_168\n      jumpi\n      tag_169\n      tag_42\n      jump\t// in\n    tag_169:\n    tag_168:\n      swap1\n      0x00\n      mstore\n      keccak256(0x00, 0x20)\n      swap1\n      0x05\n      mul\n      add\n        /* \"contracts/main.sol\":7140:7161  donorList[i].quantity */\n      0x03\n      add\n      sload\n        /* \"contracts/main.sol\":7163:7172  donorList */\n      0x03\n        /* \"contracts/main.sol\":7173:7174  i */\n      dup13\n        /* \"contracts/main.sol\":7163:7175  donorList[i] */\n      dup2\n      sload\n      dup2\n      lt\n      tag_171\n      jumpi\n      tag_172\n      tag_42\n      jump\t// in\n    tag_172:\n    tag_171:\n      swap1\n      0x00\n      mstore\n      keccak256(0x00, 0x20)\n      swap1\n      0x05\n      mul\n      add\n        /* \"contracts/main.sol\":7163:7184  donorList[i].hospital */\n      0x04\n      add\n        /* \"contracts/main.sol\":7024:7196  pushMatch(donorList[i].owner, _owner, donorList[i].bloodtype, _bloodtype, _organ, donorList[i].quantity, _quantity, donorList[i].quantity, donorList[i].hospital, _hospital) */\n      dup1\n      sload\n      tag_174\n      swap1\n      tag_96\n      jump\t// in\n    tag_174:\n      dup1\n      0x1f\n      add\n      0x20\n      dup1\n      swap2\n      div\n      mul\n      0x20\n      add\n      mload(0x40)\n      swap1\n      dup2\n      add\n      0x40\n      mstore\n      dup1\n      swap3\n      swap2\n      swap1\n      dup2\n      dup2\n      mstore\n      0x20\n      add\n      dup3\n      dup1\n      sload\n      tag_175\n      swap1\n      tag_96\n      jump\t// in\n    tag_175:\n      dup1\n      iszero\n      tag_176\n      jumpi\n      dup1\n      0x1f\n      lt\n      tag_177\n      jumpi\n      0x0100\n      dup1\n      dup4\n      sload\n      div\n      mul\n      dup4\n      mstore\n      swap2\n      0x20\n      add\n      swap2\n      jump(tag_176)\n    tag_177:\n      dup3\n      add\n      swap2\n      swap1\n      0x00\n      mstore\n      keccak256(0x00, 0x20)\n      swap1\n    tag_178:\n      dup2\n      sload\n      dup2\n      mstore\n      swap1\n      0x01\n      add\n      swap1\n      0x20\n      add\n      dup1\n      dup4\n      gt\n      tag_178\n      jumpi\n      dup3\n      swap1\n      sub\n      0x1f\n      and\n      dup3\n      add\n      swap2\n    tag_176:\n      pop\n      pop\n      pop\n      pop\n      pop\n        /* \"contracts/main.sol\":7186:7195  _hospital */\n      dup15\n        /* \"contracts/main.sol\":7024:7033  pushMatch */\n      tag_118\n        /* \"contracts/main.sol\":7024:7196  pushMatch(donorList[i].owner, _owner, donorList[i].bloodtype, _bloodtype, _organ, donorList[i].quantity, _quantity, donorList[i].quantity, donorList[i].hospital, _hospital) */\n      jump\t// in\n    tag_153:\n        /* \"contracts/main.sol\":7252:7254  -1 */\n      0xffffffffffffffffffffffffffffffffffffffffffffffffffffffffffffffff\n        /* \"contracts/main.sol\":7237:7249  remainingqty */\n      dup2\n        /* \"contracts/main.sol\":7237:7254  remainingqty * -1 */\n      tag_179\n      swap2\n      swap1\n      tag_180\n      jump\t// in\n    tag_179:\n        /* \"contracts/main.sol\":7205:7214  donorList */\n      0x03\n        /* \"contracts/main.sol\":7215:7216  i */\n      dup5\n        /* \"contracts/main.sol\":7205:7217  donorList[i] */\n      dup2\n      sload\n      dup2\n      lt\n      tag_181\n      jumpi\n      tag_182\n      tag_42\n      jump\t// in\n    tag_182:\n    tag_181:\n      swap1\n      0x00\n      mstore\n      keccak256(0x00, 0x20)\n      swap1\n      0x05\n      mul\n      add\n        /* \"contracts/main.sol\":7205:7226  donorList[i].quantity */\n      0x03\n      add\n        /* \"contracts/main.sol\":7205:7255  donorList[i].quantity = uint256(remainingqty * -1) */\n      dup2\n      swap1\n      sstore\n      pop\n        /* \"contracts/main.sol\":7264:7269  break */\n      pop\n      jump(tag_59)\n        /* \"contracts/main.sol\":6128:7285  if (donorList[i].bloodtype == posBT[j]) {... */\n    tag_67:\n        /* \"contracts/main.sol\":6116:6119  j++ */\n      dup1\n      dup1\n      0x01\n      add\n      swap2\n      pop\n      pop\n        /* \"contracts/main.sol\":6078:7291  for (uint256 j = 0; j <\tposBT.length; j++) {... */\n      jump(tag_58)\n    tag_59:\n      pop\n        /* \"contracts/main.sol\":6002:7296  if (keccak256(bytes(donorList[i].organ)) == keccak256(bytes(_organ))) {... */\n    tag_57:\n        /* \"contracts/main.sol\":5992:5995  i++ */\n      dup1\n      dup1\n      0x01\n      add\n      swap2\n      pop\n      pop\n        /* \"contracts/main.sol\":5950:7300  for (uint256 i = 0; i < donorList.length; i++) {... */\n      jump(tag_49)\n    tag_50:\n      pop\n        /* \"contracts/main.sol\":7309:7319  matchFound */\n      dup1\n        /* \"contracts/main.sol\":7304:7391  if (!matchFound) {... */\n      tag_184\n      jumpi\n        /* \"contracts/main.sol\":7326:7386  pushNew(_owner, _bloodtype, _organ, _quantity, _hospital, 1) */\n      tag_185\n        /* \"contracts/main.sol\":7334:7340  _owner */\n      dup7\n        /* \"contracts/main.sol\":7342:7352  _bloodtype */\n      dup6\n        /* \"contracts/main.sol\":7354:7360  _organ */\n      dup8\n        /* \"contracts/main.sol\":7362:7371  _quantity */\n      dup7\n        /* \"contracts/main.sol\":7373:7382  _hospital */\n      dup7\n        /* \"contracts/main.sol\":7384:7385  1 */\n      0x01\n        /* \"contracts/main.sol\":7326:7333  pushNew */\n      tag_120\n        /* \"contracts/main.sol\":7326:7386  pushNew(_owner, _bloodtype, _organ, _quantity, _hospital, 1) */\n      jump\t// in\n    tag_185:\n        /* \"contracts/main.sol\":7304:7391  if (!matchFound) {... */\n    tag_184:\n        /* \"contracts/main.sol\":5720:7394  {... */\n      pop\n        /* \"contracts/main.sol\":5583:7394  function regRecipient(string memory _owner, string memory _organ, uint256 _bloodtype, uint256 _quantity, string memory _hospital) public {... */\n      pop\n      pop\n      pop\n      pop\n      pop\n      jump\t// out\n        /* \"contracts/main.sol\":7522:7651  function showRecipient(string memory _pass) public view rlPassCheck(_pass) returns (orgdet[] memory) {... */\n    tag_15:\n        /* \"contracts/main.sol\":7606:7621  orgdet[] memory */\n      0x60\n        /* \"contracts/main.sol\":7590:7595  _pass */\n      dup2\n        /* \"contracts/main.sol\":908:921  recipientPass */\n      sload(0x01)\n        /* \"contracts/main.sol\":895:900  _pass */\n      dup2\n        /* \"contracts/main.sol\":878:901  abi.encodePacked(_pass) */\n      add(0x20, mload(0x40))\n      tag_187\n      swap2\n      swap1\n      tag_188\n      jump\t// in\n    tag_187:\n      mload(0x40)\n      0x20\n      dup2\n      dup4\n      sub\n      sub\n      dup2\n      mstore\n      swap1\n      0x40\n      mstore\n        /* \"contracts/main.sol\":868:902  keccak256(abi.encodePacked(_pass)) */\n      dup1\n      mload\n      swap1\n      0x20\n      add\n      keccak256\n        /* \"contracts/main.sol\":851:903  abi.encodePacked(keccak256(abi.encodePacked(_pass))) */\n      add(0x20, mload(0x40))\n      tag_189\n      swap2\n      swap1\n      tag_190\n      jump\t// in\n    tag_189:\n      mload(0x40)\n      0x20\n      dup2\n      dup4\n      sub\n      sub\n      dup2\n      mstore\n      swap1\n      0x40\n      mstore\n        /* \"contracts/main.sol\":841:904  keccak256(abi.encodePacked(keccak256(abi.encodePacked(_pass)))) */\n      dup1\n      mload\n      swap1\n      0x20\n      add\n      keccak256\n        /* \"contracts/main.sol\":841:921  keccak256(abi.encodePacked(keccak256(abi.encodePacked(_pass)))) == recipientPass */\n      eq\n        /* \"contracts/main.sol\":833:945  require(keccak256(abi.encodePacked(keccak256(abi.encodePacked(_pass)))) == recipientPass, \"Incorrect password!\") */\n      tag_191\n      jumpi\n      mload(0x40)\n      0x08c379a000000000000000000000000000000000000000000000000000000000\n      dup2\n      mstore\n      0x04\n      add\n      tag_192\n      swap1\n      tag_193\n      jump\t// in\n    tag_192:\n      mload(0x40)\n      dup1\n      swap2\n      sub\n      swap1\n      revert\n    tag_191:\n        /* \"contracts/main.sol\":7634:7647  recipientList */\n      0x04\n        /* \"contracts/main.sol\":7627:7647  return recipientList */\n      dup1\n      sload\n      dup1\n      0x20\n      mul\n      0x20\n      add\n      mload(0x40)\n      swap1\n      dup2\n      add\n      0x40\n      mstore\n      dup1\n      swap3\n      swap2\n      swap1\n      dup2\n      dup2\n      mstore\n      0x20\n      add\n      0x00\n      swap1\n    tag_195:\n      dup3\n      dup3\n      lt\n      iszero\n      tag_196\n      jumpi\n      dup4\n      dup3\n      swap1\n      0x00\n      mstore\n      keccak256(0x00, 0x20)\n      swap1\n      0x05\n      mul\n      add\n      mload(0x40)\n      dup1\n      0xa0\n      add\n      0x40\n      mstore\n      swap1\n      dup2\n      0x00\n      dup3\n      add\n      dup1\n      sload\n      tag_198\n      swap1\n      tag_96\n      jump\t// in\n    tag_198:\n      dup1\n      0x1f\n      add\n      0x20\n      dup1\n      swap2\n      div\n      mul\n      0x20\n      add\n      mload(0x40)\n      swap1\n      dup2\n      add\n      0x40\n      mstore\n      dup1\n      swap3\n      swap2\n      swap1\n      dup2\n      dup2\n      mstore\n      0x20\n      add\n      dup3\n      dup1\n      sload\n      tag_199\n      swap1\n      tag_96\n      jump\t// in\n    tag_199:\n      dup1\n      iszero\n      tag_200\n      jumpi\n      dup1\n      0x1f\n      lt\n      tag_201\n      jumpi\n      0x0100\n      dup1\n      dup4\n      sload\n      div\n      mul\n      dup4\n      mstore\n      swap2\n      0x20\n      add\n      swap2\n      jump(tag_200)\n    tag_201:\n      dup3\n      add\n      swap2\n      swap1\n      0x00\n      mstore\n      keccak256(0x00, 0x20)\n      swap1\n    tag_202:\n      dup2\n      sload\n      dup2\n      mstore\n      swap1\n      0x01\n      add\n      swap1\n      0x20\n      add\n      dup1\n      dup4\n      gt\n      tag_202\n      jumpi\n      dup3\n      swap1\n      sub\n      0x1f\n      and\n      dup3\n      add\n      swap2\n    tag_200:\n      pop\n      pop\n      pop\n      pop\n      pop\n      dup2\n      mstore\n      0x20\n      add\n      0x01\n      dup3\n      add\n      sload\n      dup2\n      mstore\n      0x20\n      add\n      0x02\n      dup3\n      add\n      dup1\n      sload\n      tag_203\n      swap1\n      tag_96\n      jump\t// in\n    tag_203:\n      dup1\n      0x1f\n      add\n      0x20\n      dup1\n      swap2\n      div\n      mul\n      0x20\n      add\n      mload(0x40)\n      swap1\n      dup2\n      add\n      0x40\n      mstore\n      dup1\n      swap3\n      swap2\n      swap1\n      dup2\n      dup2\n      mstore\n      0x20\n      add\n      dup3\n      dup1\n      sload\n      tag_204\n      swap1\n      tag_96\n      jump\t// in\n    tag_204:\n      dup1\n      iszero\n      tag_205\n      jumpi\n      dup1\n      0x1f\n      lt\n      tag_206\n      jumpi\n      0x0100\n      dup1\n      dup4\n      sload\n      div\n      mul\n      dup4\n      mstore\n      swap2\n      0x20\n      add\n      swap2\n      jump(tag_205)\n    tag_206:\n      dup3\n      add\n      swap2\n      swap1\n      0x00\n      mstore\n      keccak256(0x00, 0x20)\n      swap1\n    tag_207:\n      dup2\n      sload\n      dup2\n      mstore\n      swap1\n      0x01\n      add\n      swap1\n      0x20\n      add\n      dup1\n      dup4\n      gt\n      tag_207\n      jumpi\n      dup3\n      swap1\n      sub\n      0x1f\n      and\n      dup3\n      add\n      swap2\n    tag_205:\n      pop\n      pop\n      pop\n      pop\n      pop\n      dup2\n      mstore\n      0x20\n      add\n      0x03\n      dup3\n      add\n      sload\n      dup2\n      mstore\n      0x20\n      add\n      0x04\n      dup3\n      add\n      dup1\n      sload\n      tag_208\n      swap1\n      tag_96\n      jump\t// in\n    tag_208:\n      dup1\n      0x1f\n      add\n      0x20\n      dup1\n      swap2\n      div\n      mul\n      0x20\n      add\n      mload(0x40)\n      swap1\n      dup2\n      add\n      0x40\n      mstore\n      dup1\n      swap3\n      swap2\n      swap1\n      dup2\n      dup2\n      mstore\n      0x20\n      add\n      dup3\n      dup1\n      sload\n      tag_209\n      swap1\n      tag_96\n      jump\t// in\n    tag_209:\n      dup1\n      iszero\n      tag_210\n      jumpi\n      dup1\n      0x1f\n      lt\n      tag_211\n      jumpi\n      0x0100\n      dup1\n      dup4\n      sload\n      div\n      mul\n      dup4\n      mstore\n      swap2\n      0x20\n      add\n      swap2\n      jump(tag_210)\n    tag_211:\n      dup3\n      add\n      swap2\n      swap1\n      0x00\n      mstore\n      keccak256(0x00, 0x20)\n      swap1\n    tag_212:\n      dup2\n      sload\n      dup2\n      mstore\n      swap1\n      0x01\n      add\n      swap1\n      0x20\n      add\n      dup1\n      dup4\n      gt\n      tag_212\n      jumpi\n      dup3\n      swap1\n      sub\n      0x1f\n      and\n      dup3\n      add\n      swap2\n    tag_210:\n      pop\n      pop\n      pop\n      pop\n      pop\n      dup2\n      mstore\n      pop\n      pop\n      dup2\n      mstore\n      0x20\n      add\n      swap1\n      0x01\n      add\n      swap1\n      jump(tag_195)\n    tag_196:\n      pop\n      pop\n      pop\n      pop\n      swap2\n      pop\n        /* \"contracts/main.sol\":7522:7651  function showRecipient(string memory _pass) public view rlPassCheck(_pass) returns (orgdet[] memory) {... */\n      pop\n      swap2\n      swap1\n      pop\n      jump\t// out\n        /* \"contracts/main.sol\":7397:7519  function showDonors(string memory _pass) public view dlPassCheck(_pass) returns (orgdet[] memory) {... */\n    tag_20:\n        /* \"contracts/main.sol\":7478:7493  orgdet[] memory */\n      0x60\n        /* \"contracts/main.sol\":7462:7467  _pass */\n      dup2\n        /* \"contracts/main.sol\":742:751  donorPass */\n      sload(0x00)\n        /* \"contracts/main.sol\":729:734  _pass */\n      dup2\n        /* \"contracts/main.sol\":712:735  abi.encodePacked(_pass) */\n      add(0x20, mload(0x40))\n      tag_214\n      swap2\n      swap1\n      tag_188\n      jump\t// in\n    tag_214:\n      mload(0x40)\n      0x20\n      dup2\n      dup4\n      sub\n      sub\n      dup2\n      mstore\n      swap1\n      0x40\n      mstore\n        /* \"contracts/main.sol\":702:736  keccak256(abi.encodePacked(_pass)) */\n      dup1\n      mload\n      swap1\n      0x20\n      add\n      keccak256\n        /* \"contracts/main.sol\":685:737  abi.encodePacked(keccak256(abi.encodePacked(_pass))) */\n      add(0x20, mload(0x40))\n      tag_215\n      swap2\n      swap1\n      tag_190\n      jump\t// in\n    tag_215:\n      mload(0x40)\n      0x20\n      dup2\n      dup4\n      sub\n      sub\n      dup2\n      mstore\n      swap1\n      0x40\n      mstore\n        /* \"contracts/main.sol\":675:738  keccak256(abi.encodePacked(keccak256(abi.encodePacked(_pass)))) */\n      dup1\n      mload\n      swap1\n      0x20\n      add\n      keccak256\n        /* \"contracts/main.sol\":675:751  keccak256(abi.encodePacked(keccak256(abi.encodePacked(_pass)))) == donorPass */\n      eq\n        /* \"contracts/main.sol\":667:775  require(keccak256(abi.encodePacked(keccak256(abi.encodePacked(_pass)))) == donorPass, \"Incorrect password!\") */\n      tag_216\n      jumpi\n      mload(0x40)\n      0x08c379a000000000000000000000000000000000000000000000000000000000\n      dup2\n      mstore\n      0x04\n      add\n      tag_217\n      swap1\n      tag_193\n      jump\t// in\n    tag_217:\n      mload(0x40)\n      dup1\n      swap2\n      sub\n      swap1\n      revert\n    tag_216:\n        /* \"contracts/main.sol\":7506:7515  donorList */\n      0x03\n        /* \"contracts/main.sol\":7499:7515  return donorList */\n      dup1\n      sload\n      dup1\n      0x20\n      mul\n      0x20\n      add\n      mload(0x40)\n      swap1\n      dup2\n      add\n      0x40\n      mstore\n      dup1\n      swap3\n      swap2\n      swap1\n      dup2\n      dup2\n      mstore\n      0x20\n      add\n      0x00\n      swap1\n    tag_219:\n      dup3\n      dup3\n      lt\n      iszero\n      tag_220\n      jumpi\n      dup4\n      dup3\n      swap1\n      0x00\n      mstore\n      keccak256(0x00, 0x20)\n      swap1\n      0x05\n      mul\n      add\n      mload(0x40)\n      dup1\n      0xa0\n      add\n      0x40\n      mstore\n      swap1\n      dup2\n      0x00\n      dup3\n      add\n      dup1\n      sload\n      tag_222\n      swap1\n      tag_96\n      jump\t// in\n    tag_222:\n      dup1\n      0x1f\n      add\n      0x20\n      dup1\n      swap2\n      div\n      mul\n      0x20\n      add\n      mload(0x40)\n      swap1\n      dup2\n      add\n      0x40\n      mstore\n      dup1\n      swap3\n      swap2\n      swap1\n      dup2\n      dup2\n      mstore\n      0x20\n      add\n      dup3\n      dup1\n      sload\n      tag_223\n      swap1\n      tag_96\n      jump\t// in\n    tag_223:\n      dup1\n      iszero\n      tag_224\n      jumpi\n      dup1\n      0x1f\n      lt\n      tag_225\n      jumpi\n      0x0100\n      dup1\n      dup4\n      sload\n      div\n      mul\n      dup4\n      mstore\n      swap2\n      0x20\n      add\n      swap2\n      jump(tag_224)\n    tag_225:\n      dup3\n      add\n      swap2\n      swap1\n      0x00\n      mstore\n      keccak256(0x00, 0x20)\n      swap1\n    tag_226:\n      dup2\n      sload\n      dup2\n      mstore\n      swap1\n      0x01\n      add\n      swap1\n      0x20\n      add\n      dup1\n      dup4\n      gt\n      tag_226\n      jumpi\n      dup3\n      swap1\n      sub\n      0x1f\n      and\n      dup3\n      add\n      swap2\n    tag_224:\n      pop\n      pop\n      pop\n      pop\n      pop\n      dup2\n      mstore\n      0x20\n      add\n      0x01\n      dup3\n      add\n      sload\n      dup2\n      mstore\n      0x20\n      add\n      0x02\n      dup3\n      add\n      dup1\n      sload\n      tag_227\n      swap1\n      tag_96\n      jump\t// in\n    tag_227:\n      dup1\n      0x1f\n      add\n      0x20\n      dup1\n      swap2\n      div\n      mul\n      0x20\n      add\n      mload(0x40)\n      swap1\n      dup2\n      add\n      0x40\n      mstore\n      dup1\n      swap3\n      swap2\n      swap1\n      dup2\n      dup2\n      mstore\n      0x20\n      add\n      dup3\n      dup1\n      sload\n      tag_228\n      swap1\n      tag_96\n      jump\t// in\n    tag_228:\n      dup1\n      iszero\n      tag_229\n      jumpi\n      dup1\n      0x1f\n      lt\n      tag_230\n      jumpi\n      0x0100\n      dup1\n      dup4\n      sload\n      div\n      mul\n      dup4\n      mstore\n      swap2\n      0x20\n      add\n      swap2\n      jump(tag_229)\n    tag_230:\n      dup3\n      add\n      swap2\n      swap1\n      0x00\n      mstore\n      keccak256(0x00, 0x20)\n      swap1\n    tag_231:\n      dup2\n      sload\n      dup2\n      mstore\n      swap1\n      0x01\n      add\n      swap1\n      0x20\n      add\n      dup1\n      dup4\n      gt\n      tag_231\n      jumpi\n      dup3\n      swap1\n      sub\n      0x1f\n      and\n      dup3\n      add\n      swap2\n    tag_229:\n      pop\n      pop\n      pop\n      pop\n      pop\n      dup2\n      mstore\n      0x20\n      add\n      0x03\n      dup3\n      add\n      sload\n      dup2\n      mstore\n      0x20\n      add\n      0x04\n      dup3\n      add\n      dup1\n      sload\n      tag_232\n      swap1\n      tag_96\n      jump\t// in\n    tag_232:\n      dup1\n      0x1f\n      add\n      0x20\n      dup1\n      swap2\n      div\n      mul\n      0x20\n      add\n      mload(0x40)\n      swap1\n      dup2\n      add\n      0x40\n      mstore\n      dup1\n      swap3\n      swap2\n      swap1\n      dup2\n      dup2\n      mstore\n      0x20\n      add\n      dup3\n      dup1\n      sload\n      tag_233\n      swap1\n      tag_96\n      jump\t// in\n    tag_233:\n      dup1\n      iszero\n      tag_234\n      jumpi\n      dup1\n      0x1f\n      lt\n      tag_235\n      jumpi\n      0x0100\n      dup1\n      dup4\n      sload\n      div\n      mul\n      dup4\n      mstore\n      swap2\n      0x20\n      add\n      swap2\n      jump(tag_234)\n    tag_235:\n      dup3\n      add\n      swap2\n      swap1\n      0x00\n      mstore\n      keccak256(0x00, 0x20)\n      swap1\n    tag_236:\n      dup2\n      sload\n      dup2\n      mstore\n      swap1\n      0x01\n      add\n      swap1\n      0x20\n      add\n      dup1\n      dup4\n      gt\n      tag_236\n      jumpi\n      dup3\n      swap1\n      sub\n      0x1f\n      and\n      dup3\n      add\n      swap2\n    tag_234:\n      pop\n      pop\n      pop\n      pop\n      pop\n      dup2\n      mstore\n      pop\n      pop\n      dup2\n      mstore\n      0x20\n      add\n      swap1\n      0x01\n      add\n      swap1\n      jump(tag_219)\n    tag_220:\n      pop\n      pop\n      pop\n      pop\n      swap2\n      pop\n        /* \"contracts/main.sol\":7397:7519  function showDonors(string memory _pass) public view dlPassCheck(_pass) returns (orgdet[] memory) {... */\n      pop\n      swap2\n      swap1\n      pop\n      jump\t// out\n        /* \"contracts/main.sol\":3676:5580  function regDonor(string memory _owner, uint256 _bloodtype, string memory _organ, uint256 _quantity, string memory _hospital) public {... */\n    tag_25:\n        /* \"contracts/main.sol\":3832:3833  8 */\n      0x08\n        /* \"contracts/main.sol\":3818:3828  _bloodtype */\n      dup5\n        /* \"contracts/main.sol\":3818:3833  _bloodtype == 8 */\n      eq\n        /* \"contracts/main.sol\":3818:3852  _bloodtype == 8 || _bloodtype == 9 */\n      dup1\n      tag_238\n      jumpi\n      pop\n        /* \"contracts/main.sol\":3851:3852  9 */\n      0x09\n        /* \"contracts/main.sol\":3837:3847  _bloodtype */\n      dup5\n        /* \"contracts/main.sol\":3837:3852  _bloodtype == 9 */\n      eq\n        /* \"contracts/main.sol\":3818:3852  _bloodtype == 8 || _bloodtype == 9 */\n    tag_238:\n        /* \"contracts/main.sol\":3814:4007  if (_bloodtype == 8 || _bloodtype == 9) {... */\n      iszero\n      tag_239\n      jumpi\n        /* \"contracts/main.sol\":3859:3879  posBT = [_bloodtype] */\n      mload(0x40)\n      dup1\n      0x20\n      add\n      0x40\n      mstore\n      dup1\n        /* \"contracts/main.sol\":3868:3878  _bloodtype */\n      dup6\n        /* \"contracts/main.sol\":3859:3879  posBT = [_bloodtype] */\n      dup2\n      mstore\n      pop\n        /* \"contracts/main.sol\":3859:3864  posBT */\n      0x6a\n        /* \"contracts/main.sol\":3859:3879  posBT = [_bloodtype] */\n      swap1\n      0x01\n      tag_240\n      swap3\n      swap2\n      swap1\n      tag_35\n      jump\t// in\n    tag_240:\n      pop\n        /* \"contracts/main.sol\":3814:4007  if (_bloodtype == 8 || _bloodtype == 9) {... */\n      jump(tag_241)\n    tag_239:\n        /* \"contracts/main.sol\":3900:3909  uint256 i */\n      0x00\n        /* \"contracts/main.sol\":3895:4003  for (uint256 i = 0; i < 8; i++) {... */\n    tag_242:\n        /* \"contracts/main.sol\":3919:3920  8 */\n      0x08\n        /* \"contracts/main.sol\":3915:3916  i */\n      dup2\n        /* \"contracts/main.sol\":3915:3920  i < 8 */\n      lt\n        /* \"contracts/main.sol\":3895:4003  for (uint256 i = 0; i < 8; i++) {... */\n      iszero\n      tag_243\n      jumpi\n        /* \"contracts/main.sol\":3968:3969  1 */\n      0x01\n        /* \"contracts/main.sol\":3937:3949  compatMatrix */\n      0x06\n        /* \"contracts/main.sol\":3950:3951  i */\n      dup3\n        /* \"contracts/main.sol\":3937:3952  compatMatrix[i] */\n      0x0a\n      dup2\n      lt\n      tag_245\n      jumpi\n      tag_246\n      tag_42\n      jump\t// in\n    tag_246:\n    tag_245:\n      0x0a\n      mul\n      add\n        /* \"contracts/main.sol\":3953:3963  _bloodtype */\n      dup7\n        /* \"contracts/main.sol\":3937:3964  compatMatrix[i][_bloodtype] */\n      0x0a\n      dup2\n      lt\n      tag_248\n      jumpi\n      tag_249\n      tag_42\n      jump\t// in\n    tag_249:\n    tag_248:\n      add\n      sload\n        /* \"contracts/main.sol\":3937:3969  compatMatrix[i][_bloodtype] == 1 */\n      sub\n        /* \"contracts/main.sol\":3933:3998  if (compatMatrix[i][_bloodtype] == 1) {... */\n      tag_251\n      jumpi\n        /* \"contracts/main.sol\":3978:3983  posBT */\n      0x6a\n        /* \"contracts/main.sol\":3989:3990  i */\n      dup2\n        /* \"contracts/main.sol\":3978:3991  posBT.push(i) */\n      swap1\n      dup1\n      0x01\n      dup2\n      sload\n      add\n      dup1\n      dup3\n      sstore\n      dup1\n      swap2\n      pop\n      pop\n      0x01\n      swap1\n      sub\n      swap1\n      0x00\n      mstore\n      keccak256(0x00, 0x20)\n      add\n      0x00\n      swap1\n      swap2\n      swap1\n      swap2\n      swap1\n      swap2\n      pop\n      sstore\n        /* \"contracts/main.sol\":3933:3998  if (compatMatrix[i][_bloodtype] == 1) {... */\n    tag_251:\n        /* \"contracts/main.sol\":3922:3925  i++ */\n      dup1\n      dup1\n      0x01\n      add\n      swap2\n      pop\n      pop\n        /* \"contracts/main.sol\":3895:4003  for (uint256 i = 0; i < 8; i++) {... */\n      jump(tag_242)\n    tag_243:\n      pop\n        /* \"contracts/main.sol\":3814:4007  if (_bloodtype == 8 || _bloodtype == 9) {... */\n    tag_241:\n        /* \"contracts/main.sol\":4011:4026  bool matchFound */\n      0x00\n        /* \"contracts/main.sol\":4044:4053  uint256 i */\n      dup1\n        /* \"contracts/main.sol\":4039:5486  for (uint256 i = 0; i < recipientList.length; i++) {... */\n    tag_253:\n        /* \"contracts/main.sol\":4063:4076  recipientList */\n      0x04\n        /* \"contracts/main.sol\":4063:4083  recipientList.length */\n      dup1\n      sload\n      swap1\n      pop\n        /* \"contracts/main.sol\":4059:4060  i */\n      dup2\n        /* \"contracts/main.sol\":4059:4083  i < recipientList.length */\n      lt\n        /* \"contracts/main.sol\":4039:5486  for (uint256 i = 0; i < recipientList.length; i++) {... */\n      iszero\n      tag_254\n      jumpi\n        /* \"contracts/main.sol\":4159:4165  _organ */\n      dup5\n        /* \"contracts/main.sol\":4143:4167  keccak256(bytes(_organ)) */\n      dup1\n      mload\n      swap1\n      0x20\n      add\n      keccak256\n        /* \"contracts/main.sol\":4115:4128  recipientList */\n      0x04\n        /* \"contracts/main.sol\":4129:4130  i */\n      dup3\n        /* \"contracts/main.sol\":4115:4131  recipientList[i] */\n      dup2\n      sload\n      dup2\n      lt\n      tag_256\n      jumpi\n      tag_257\n      tag_42\n      jump\t// in\n    tag_257:\n    tag_256:\n      swap1\n      0x00\n      mstore\n      keccak256(0x00, 0x20)\n      swap1\n      0x05\n      mul\n      add\n        /* \"contracts/main.sol\":4115:4137  recipientList[i].organ */\n      0x02\n      add\n        /* \"contracts/main.sol\":4099:4139  keccak256(bytes(recipientList[i].organ)) */\n      mload(0x40)\n      tag_259\n      swap2\n      swap1\n      tag_56\n      jump\t// in\n    tag_259:\n      mload(0x40)\n      dup1\n      swap2\n      sub\n      swap1\n      keccak256\n        /* \"contracts/main.sol\":4099:4167  keccak256(bytes(recipientList[i].organ)) == keccak256(bytes(_organ)) */\n      sub\n        /* \"contracts/main.sol\":4095:5482  if (keccak256(bytes(recipientList[i].organ)) == keccak256(bytes(_organ))) {... */\n      tag_260\n      jumpi\n        /* \"contracts/main.sol\":4180:4189  uint256 j */\n      0x00\n        /* \"contracts/main.sol\":4175:5477  for (uint256 j = 0; j <\tposBT.length; j++) {... */\n    tag_261:\n        /* \"contracts/main.sol\":4199:4204  posBT */\n      0x6a\n        /* \"contracts/main.sol\":4199:4211  posBT.length */\n      dup1\n      sload\n      swap1\n      pop\n        /* \"contracts/main.sol\":4195:4196  j */\n      dup2\n        /* \"contracts/main.sol\":4195:4211  j <\tposBT.length */\n      lt\n        /* \"contracts/main.sol\":4175:5477  for (uint256 j = 0; j <\tposBT.length; j++) {... */\n      iszero\n      tag_262\n      jumpi\n        /* \"contracts/main.sol\":4259:4264  posBT */\n      0x6a\n        /* \"contracts/main.sol\":4265:4266  j */\n      dup2\n        /* \"contracts/main.sol\":4259:4267  posBT[j] */\n      dup2\n      sload\n      dup2\n      lt\n      tag_264\n      jumpi\n      tag_265\n      tag_42\n      jump\t// in\n    tag_265:\n    tag_264:\n      swap1\n      0x00\n      mstore\n      keccak256(0x00, 0x20)\n      add\n      sload\n        /* \"contracts/main.sol\":4229:4242  recipientList */\n      0x04\n        /* \"contracts/main.sol\":4243:4244  i */\n      dup4\n        /* \"contracts/main.sol\":4229:4245  recipientList[i] */\n      dup2\n      sload\n      dup2\n      lt\n      tag_267\n      jumpi\n      tag_268\n      tag_42\n      jump\t// in\n    tag_268:\n    tag_267:\n      swap1\n      0x00\n      mstore\n      keccak256(0x00, 0x20)\n      swap1\n      0x05\n      mul\n      add\n        /* \"contracts/main.sol\":4229:4255  recipientList[i].bloodtype */\n      0x01\n      add\n      sload\n        /* \"contracts/main.sol\":4229:4267  recipientList[i].bloodtype == posBT[j] */\n      sub\n        /* \"contracts/main.sol\":4225:5471  if (recipientList[i].bloodtype == posBT[j]) {... */\n      tag_270\n      jumpi\n        /* \"contracts/main.sol\":4290:4294  true */\n      0x01\n        /* \"contracts/main.sol\":4277:4294  matchFound = true */\n      swap3\n      pop\n        /* \"contracts/main.sol\":4307:4450  RecMatchFound(recipientList[i].owner, recipientList[i].bloodtype, recipientList[i].organ, recipientList[i].quantity, recipientList[i].hospital) */\n      0xd9454d5938448eec55eb0922cf9b0ef34489b5dd106dc8e5b4f85d6aa3943398\n        /* \"contracts/main.sol\":4321:4334  recipientList */\n      0x04\n        /* \"contracts/main.sol\":4335:4336  i */\n      dup4\n        /* \"contracts/main.sol\":4321:4337  recipientList[i] */\n      dup2\n      sload\n      dup2\n      lt\n      tag_271\n      jumpi\n      tag_272\n      tag_42\n      jump\t// in\n    tag_272:\n    tag_271:\n      swap1\n      0x00\n      mstore\n      keccak256(0x00, 0x20)\n      swap1\n      0x05\n      mul\n      add\n        /* \"contracts/main.sol\":4321:4343  recipientList[i].owner */\n      0x00\n      add\n        /* \"contracts/main.sol\":4345:4358  recipientList */\n      0x04\n        /* \"contracts/main.sol\":4359:4360  i */\n      dup5\n        /* \"contracts/main.sol\":4345:4361  recipientList[i] */\n      dup2\n      sload\n      dup2\n      lt\n      tag_274\n      jumpi\n      tag_275\n      tag_42\n      jump\t// in\n    tag_275:\n    tag_274:\n      swap1\n      0x00\n      mstore\n      keccak256(0x00, 0x20)\n      swap1\n      0x05\n      mul\n      add\n        /* \"contracts/main.sol\":4345:4371  recipientList[i].bloodtype */\n      0x01\n      add\n      sload\n        /* \"contracts/main.sol\":4373:4386  recipientList */\n      0x04\n        /* \"contracts/main.sol\":4387:4388  i */\n      dup6\n        /* \"contracts/main.sol\":4373:4389  recipientList[i] */\n      dup2\n      sload\n      dup2\n      lt\n      tag_277\n      jumpi\n      tag_278\n      tag_42\n      jump\t// in\n    tag_278:\n    tag_277:\n      swap1\n      0x00\n      mstore\n      keccak256(0x00, 0x20)\n      swap1\n      0x05\n      mul\n      add\n        /* \"contracts/main.sol\":4373:4395  recipientList[i].organ */\n      0x02\n      add\n        /* \"contracts/main.sol\":4397:4410  recipientList */\n      0x04\n        /* \"contracts/main.sol\":4411:4412  i */\n      dup7\n        /* \"contracts/main.sol\":4397:4413  recipientList[i] */\n      dup2\n      sload\n      dup2\n      lt\n      tag_280\n      jumpi\n      tag_281\n      tag_42\n      jump\t// in\n    tag_281:\n    tag_280:\n      swap1\n      0x00\n      mstore\n      keccak256(0x00, 0x20)\n      swap1\n      0x05\n      mul\n      add\n        /* \"contracts/main.sol\":4397:4422  recipientList[i].quantity */\n      0x03\n      add\n      sload\n        /* \"contracts/main.sol\":4424:4437  recipientList */\n      0x04\n        /* \"contracts/main.sol\":4438:4439  i */\n      dup8\n        /* \"contracts/main.sol\":4424:4440  recipientList[i] */\n      dup2\n      sload\n      dup2\n      lt\n      tag_283\n      jumpi\n      tag_284\n      tag_42\n      jump\t// in\n    tag_284:\n    tag_283:\n      swap1\n      0x00\n      mstore\n      keccak256(0x00, 0x20)\n      swap1\n      0x05\n      mul\n      add\n        /* \"contracts/main.sol\":4424:4449  recipientList[i].hospital */\n      0x04\n      add\n        /* \"contracts/main.sol\":4307:4450  RecMatchFound(recipientList[i].owner, recipientList[i].bloodtype, recipientList[i].organ, recipientList[i].quantity, recipientList[i].hospital) */\n      mload(0x40)\n      tag_286\n      swap6\n      swap5\n      swap4\n      swap3\n      swap2\n      swap1\n      tag_84\n      jump\t// in\n    tag_286:\n      mload(0x40)\n      dup1\n      swap2\n      sub\n      swap1\n      log1\n        /* \"contracts/main.sol\":4458:4475  int256 pendingqty */\n      0x00\n        /* \"contracts/main.sol\":4505:4518  recipientList */\n      0x04\n        /* \"contracts/main.sol\":4519:4520  i */\n      dup4\n        /* \"contracts/main.sol\":4505:4521  recipientList[i] */\n      dup2\n      sload\n      dup2\n      lt\n      tag_287\n      jumpi\n      tag_288\n      tag_42\n      jump\t// in\n    tag_288:\n    tag_287:\n      swap1\n      0x00\n      mstore\n      keccak256(0x00, 0x20)\n      swap1\n      0x05\n      mul\n      add\n        /* \"contracts/main.sol\":4505:4530  recipientList[i].quantity */\n      0x03\n      add\n      sload\n        /* \"contracts/main.sol\":4485:4494  _quantity */\n      dup7\n        /* \"contracts/main.sol\":4478:4531  int256(_quantity) - int256(recipientList[i].quantity) */\n      tag_290\n      swap2\n      swap1\n      tag_89\n      jump\t// in\n    tag_290:\n        /* \"contracts/main.sol\":4458:4531  int256 pendingqty = int256(_quantity) - int256(recipientList[i].quantity) */\n      swap1\n      pop\n        /* \"contracts/main.sol\":4556:4557  0 */\n      0x00\n        /* \"contracts/main.sol\":4543:4553  pendingqty */\n      dup2\n        /* \"contracts/main.sol\":4543:4557  pendingqty > 0 */\n      sgt\n        /* \"contracts/main.sol\":4539:5464  if (pendingqty > 0) {... */\n      iszero\n      tag_291\n      jumpi\n        /* \"contracts/main.sol\":4568:4760  pushMatch(_owner, recipientList[i].owner, _bloodtype, recipientList[i].bloodtype, _organ, _quantity, recipientList[i].quantity, recipientList[i].quantity, _hospital, recipientList[i].hospital) */\n      tag_292\n        /* \"contracts/main.sol\":4578:4584  _owner */\n      dup10\n        /* \"contracts/main.sol\":4586:4599  recipientList */\n      0x04\n        /* \"contracts/main.sol\":4600:4601  i */\n      dup6\n        /* \"contracts/main.sol\":4586:4602  recipientList[i] */\n      dup2\n      sload\n      dup2\n      lt\n      tag_293\n      jumpi\n      tag_294\n      tag_42\n      jump\t// in\n    tag_294:\n    tag_293:\n      swap1\n      0x00\n      mstore\n      keccak256(0x00, 0x20)\n      swap1\n      0x05\n      mul\n      add\n        /* \"contracts/main.sol\":4586:4608  recipientList[i].owner */\n      0x00\n      add\n        /* \"contracts/main.sol\":4568:4760  pushMatch(_owner, recipientList[i].owner, _bloodtype, recipientList[i].bloodtype, _organ, _quantity, recipientList[i].quantity, recipientList[i].quantity, _hospital, recipientList[i].hospital) */\n      dup1\n      sload\n      tag_296\n      swap1\n      tag_96\n      jump\t// in\n    tag_296:\n      dup1\n      0x1f\n      add\n      0x20\n      dup1\n      swap2\n      div\n      mul\n      0x20\n      add\n      mload(0x40)\n      swap1\n      dup2\n      add\n      0x40\n      mstore\n      dup1\n      swap3\n      swap2\n      swap1\n      dup2\n      dup2\n      mstore\n      0x20\n      add\n      dup3\n      dup1\n      sload\n      tag_297\n      swap1\n      tag_96\n      jump\t// in\n    tag_297:\n      dup1\n      iszero\n      tag_298\n      jumpi\n      dup1\n      0x1f\n      lt\n      tag_299\n      jumpi\n      0x0100\n      dup1\n      dup4\n      sload\n      div\n      mul\n      dup4\n      mstore\n      swap2\n      0x20\n      add\n      swap2\n      jump(tag_298)\n    tag_299:\n      dup3\n      add\n      swap2\n      swap1\n      0x00\n      mstore\n      keccak256(0x00, 0x20)\n      swap1\n    tag_300:\n      dup2\n      sload\n      dup2\n      mstore\n      swap1\n      0x01\n      add\n      swap1\n      0x20\n      add\n      dup1\n      dup4\n      gt\n      tag_300\n      jumpi\n      dup3\n      swap1\n      sub\n      0x1f\n      and\n      dup3\n      add\n      swap2\n    tag_298:\n      pop\n      pop\n      pop\n      pop\n      pop\n        /* \"contracts/main.sol\":4610:4620  _bloodtype */\n      dup11\n        /* \"contracts/main.sol\":4622:4635  recipientList */\n      0x04\n        /* \"contracts/main.sol\":4636:4637  i */\n      dup8\n        /* \"contracts/main.sol\":4622:4638  recipientList[i] */\n      dup2\n      sload\n      dup2\n      lt\n      tag_301\n      jumpi\n      tag_302\n      tag_42\n      jump\t// in\n    tag_302:\n    tag_301:\n      swap1\n      0x00\n      mstore\n      keccak256(0x00, 0x20)\n      swap1\n      0x05\n      mul\n      add\n        /* \"contracts/main.sol\":4622:4648  recipientList[i].bloodtype */\n      0x01\n      add\n      sload\n        /* \"contracts/main.sol\":4650:4656  _organ */\n      dup12\n        /* \"contracts/main.sol\":4658:4667  _quantity */\n      dup12\n        /* \"contracts/main.sol\":4669:4682  recipientList */\n      0x04\n        /* \"contracts/main.sol\":4683:4684  i */\n      dup11\n        /* \"contracts/main.sol\":4669:4685  recipientList[i] */\n      dup2\n      sload\n      dup2\n      lt\n      tag_304\n      jumpi\n      tag_305\n      tag_42\n      jump\t// in\n    tag_305:\n    tag_304:\n      swap1\n      0x00\n      mstore\n      keccak256(0x00, 0x20)\n      swap1\n      0x05\n      mul\n      add\n        /* \"contracts/main.sol\":4669:4694  recipientList[i].quantity */\n      0x03\n      add\n      sload\n        /* \"contracts/main.sol\":4696:4709  recipientList */\n      0x04\n        /* \"contracts/main.sol\":4710:4711  i */\n      dup12\n        /* \"contracts/main.sol\":4696:4712  recipientList[i] */\n      dup2\n      sload\n      dup2\n      lt\n      tag_307\n      jumpi\n      tag_308\n      tag_42\n      jump\t// in\n    tag_308:\n    tag_307:\n      swap1\n      0x00\n      mstore\n      keccak256(0x00, 0x20)\n      swap1\n      0x05\n      mul\n      add\n        /* \"contracts/main.sol\":4696:4721  recipientList[i].quantity */\n      0x03\n      add\n      sload\n        /* \"contracts/main.sol\":4723:4732  _hospital */\n      dup14\n        /* \"contracts/main.sol\":4734:4747  recipientList */\n      0x04\n        /* \"contracts/main.sol\":4748:4749  i */\n      dup14\n        /* \"contracts/main.sol\":4734:4750  recipientList[i] */\n      dup2\n      sload\n      dup2\n      lt\n      tag_310\n      jumpi\n      tag_311\n      tag_42\n      jump\t// in\n    tag_311:\n    tag_310:\n      swap1\n      0x00\n      mstore\n      keccak256(0x00, 0x20)\n      swap1\n      0x05\n      mul\n      add\n        /* \"contracts/main.sol\":4734:4759  recipientList[i].hospital */\n      0x04\n      add\n        /* \"contracts/main.sol\":4568:4760  pushMatch(_owner, recipientList[i].owner, _bloodtype, recipientList[i].bloodtype, _organ, _quantity, recipientList[i].quantity, recipientList[i].quantity, _hospital, recipientList[i].hospital) */\n      dup1\n      sload\n      tag_313\n      swap1\n      tag_96\n      jump\t// in\n    tag_313:\n      dup1\n      0x1f\n      add\n      0x20\n      dup1\n      swap2\n      div\n      mul\n      0x20\n      add\n      mload(0x40)\n      swap1\n      dup2\n      add\n      0x40\n      mstore\n      dup1\n      swap3\n      swap2\n      swap1\n      dup2\n      dup2\n      mstore\n      0x20\n      add\n      dup3\n      dup1\n      sload\n      tag_314\n      swap1\n      tag_96\n      jump\t// in\n    tag_314:\n      dup1\n      iszero\n      tag_315\n      jumpi\n      dup1\n      0x1f\n      lt\n      tag_316\n      jumpi\n      0x0100\n      dup1\n      dup4\n      sload\n      div\n      mul\n      dup4\n      mstore\n      swap2\n      0x20\n      add\n      swap2\n      jump(tag_315)\n    tag_316:\n      dup3\n      add\n      swap2\n      swap1\n      0x00\n      mstore\n      keccak256(0x00, 0x20)\n      swap1\n    tag_317:\n      dup2\n      sload\n      dup2\n      mstore\n      swap1\n      0x01\n      add\n      swap1\n      0x20\n      add\n      dup1\n      dup4\n      gt\n      tag_317\n      jumpi\n      dup3\n      swap1\n      sub\n      0x1f\n      and\n      dup3\n      add\n      swap2\n    tag_315:\n      pop\n      pop\n      pop\n      pop\n      pop\n        /* \"contracts/main.sol\":4568:4577  pushMatch */\n      tag_118\n        /* \"contracts/main.sol\":4568:4760  pushMatch(_owner, recipientList[i].owner, _bloodtype, recipientList[i].bloodtype, _organ, _quantity, recipientList[i].quantity, recipientList[i].quantity, _hospital, recipientList[i].hospital) */\n      jump\t// in\n    tag_292:\n        /* \"contracts/main.sol\":4769:4839  pushNew(_owner, _bloodtype, _organ, uint256(pendingqty), _hospital, 0) */\n      tag_318\n        /* \"contracts/main.sol\":4777:4783  _owner */\n      dup10\n        /* \"contracts/main.sol\":4785:4795  _bloodtype */\n      dup10\n        /* \"contracts/main.sol\":4797:4803  _organ */\n      dup10\n        /* \"contracts/main.sol\":4813:4823  pendingqty */\n      dup5\n        /* \"contracts/main.sol\":4826:4835  _hospital */\n      dup10\n        /* \"contracts/main.sol\":4837:4838  0 */\n      0x00\n        /* \"contracts/main.sol\":4769:4776  pushNew */\n      tag_120\n        /* \"contracts/main.sol\":4769:4839  pushNew(_owner, _bloodtype, _organ, uint256(pendingqty), _hospital, 0) */\n      jump\t// in\n    tag_318:\n        /* \"contracts/main.sol\":4848:4869  pop(recipientList, i) */\n      tag_319\n        /* \"contracts/main.sol\":4852:4865  recipientList */\n      0x04\n        /* \"contracts/main.sol\":4867:4868  i */\n      dup5\n        /* \"contracts/main.sol\":4848:4851  pop */\n      tag_122\n        /* \"contracts/main.sol\":4848:4869  pop(recipientList, i) */\n      jump\t// in\n    tag_319:\n        /* \"contracts/main.sol\":4878:4883  break */\n      pop\n      jump(tag_262)\n        /* \"contracts/main.sol\":4539:5464  if (pendingqty > 0) {... */\n    tag_291:\n        /* \"contracts/main.sol\":4916:4917  0 */\n      0x00\n        /* \"contracts/main.sol\":4902:4912  pendingqty */\n      dup2\n        /* \"contracts/main.sol\":4902:4917  pendingqty == 0 */\n      sub\n        /* \"contracts/main.sol\":4898:5464  if (pendingqty == 0) {... */\n      tag_321\n      jumpi\n        /* \"contracts/main.sol\":4928:5120  pushMatch(_owner, recipientList[i].owner, _bloodtype, recipientList[i].bloodtype, _organ, _quantity, recipientList[i].quantity, recipientList[i].quantity, _hospital, recipientList[i].hospital) */\n      tag_322\n        /* \"contracts/main.sol\":4938:4944  _owner */\n      dup10\n        /* \"contracts/main.sol\":4946:4959  recipientList */\n      0x04\n        /* \"contracts/main.sol\":4960:4961  i */\n      dup6\n        /* \"contracts/main.sol\":4946:4962  recipientList[i] */\n      dup2\n      sload\n      dup2\n      lt\n      tag_323\n      jumpi\n      tag_324\n      tag_42\n      jump\t// in\n    tag_324:\n    tag_323:\n      swap1\n      0x00\n      mstore\n      keccak256(0x00, 0x20)\n      swap1\n      0x05\n      mul\n      add\n        /* \"contracts/main.sol\":4946:4968  recipientList[i].owner */\n      0x00\n      add\n        /* \"contracts/main.sol\":4928:5120  pushMatch(_owner, recipientList[i].owner, _bloodtype, recipientList[i].bloodtype, _organ, _quantity, recipientList[i].quantity, recipientList[i].quantity, _hospital, recipientList[i].hospital) */\n      dup1\n      sload\n      tag_326\n      swap1\n      tag_96\n      jump\t// in\n    tag_326:\n      dup1\n      0x1f\n      add\n      0x20\n      dup1\n      swap2\n      div\n      mul\n      0x20\n      add\n      mload(0x40)\n      swap1\n      dup2\n      add\n      0x40\n      mstore\n      dup1\n      swap3\n      swap2\n      swap1\n      dup2\n      dup2\n      mstore\n      0x20\n      add\n      dup3\n      dup1\n      sload\n      tag_327\n      swap1\n      tag_96\n      jump\t// in\n    tag_327:\n      dup1\n      iszero\n      tag_328\n      jumpi\n      dup1\n      0x1f\n      lt\n      tag_329\n      jumpi\n      0x0100\n      dup1\n      dup4\n      sload\n      div\n      mul\n      dup4\n      mstore\n      swap2\n      0x20\n      add\n      swap2\n      jump(tag_328)\n    tag_329:\n      dup3\n      add\n      swap2\n      swap1\n      0x00\n      mstore\n      keccak256(0x00, 0x20)\n      swap1\n    tag_330:\n      dup2\n      sload\n      dup2\n      mstore\n      swap1\n      0x01\n      add\n      swap1\n      0x20\n      add\n      dup1\n      dup4\n      gt\n      tag_330\n      jumpi\n      dup3\n      swap1\n      sub\n      0x1f\n      and\n      dup3\n      add\n      swap2\n    tag_328:\n      pop\n      pop\n      pop\n      pop\n      pop\n        /* \"contracts/main.sol\":4970:4980  _bloodtype */\n      dup11\n        /* \"contracts/main.sol\":4982:4995  recipientList */\n      0x04\n        /* \"contracts/main.sol\":4996:4997  i */\n      dup8\n        /* \"contracts/main.sol\":4982:4998  recipientList[i] */\n      dup2\n      sload\n      dup2\n      lt\n      tag_331\n      jumpi\n      tag_332\n      tag_42\n      jump\t// in\n    tag_332:\n    tag_331:\n      swap1\n      0x00\n      mstore\n      keccak256(0x00, 0x20)\n      swap1\n      0x05\n      mul\n      add\n        /* \"contracts/main.sol\":4982:5008  recipientList[i].bloodtype */\n      0x01\n      add\n      sload\n        /* \"contracts/main.sol\":5010:5016  _organ */\n      dup12\n        /* \"contracts/main.sol\":5018:5027  _quantity */\n      dup12\n        /* \"contracts/main.sol\":5029:5042  recipientList */\n      0x04\n        /* \"contracts/main.sol\":5043:5044  i */\n      dup11\n        /* \"contracts/main.sol\":5029:5045  recipientList[i] */\n      dup2\n      sload\n      dup2\n      lt\n      tag_334\n      jumpi\n      tag_335\n      tag_42\n      jump\t// in\n    tag_335:\n    tag_334:\n      swap1\n      0x00\n      mstore\n      keccak256(0x00, 0x20)\n      swap1\n      0x05\n      mul\n      add\n        /* \"contracts/main.sol\":5029:5054  recipientList[i].quantity */\n      0x03\n      add\n      sload\n        /* \"contracts/main.sol\":5056:5069  recipientList */\n      0x04\n        /* \"contracts/main.sol\":5070:5071  i */\n      dup12\n        /* \"contracts/main.sol\":5056:5072  recipientList[i] */\n      dup2\n      sload\n      dup2\n      lt\n      tag_337\n      jumpi\n      tag_338\n      tag_42\n      jump\t// in\n    tag_338:\n    tag_337:\n      swap1\n      0x00\n      mstore\n      keccak256(0x00, 0x20)\n      swap1\n      0x05\n      mul\n      add\n        /* \"contracts/main.sol\":5056:5081  recipientList[i].quantity */\n      0x03\n      add\n      sload\n        /* \"contracts/main.sol\":5083:5092  _hospital */\n      dup14\n        /* \"contracts/main.sol\":5094:5107  recipientList */\n      0x04\n        /* \"contracts/main.sol\":5108:5109  i */\n      dup14\n        /* \"contracts/main.sol\":5094:5110  recipientList[i] */\n      dup2\n      sload\n      dup2\n      lt\n      tag_340\n      jumpi\n      tag_341\n      tag_42\n      jump\t// in\n    tag_341:\n    tag_340:\n      swap1\n      0x00\n      mstore\n      keccak256(0x00, 0x20)\n      swap1\n      0x05\n      mul\n      add\n        /* \"contracts/main.sol\":5094:5119  recipientList[i].hospital */\n      0x04\n      add\n        /* \"contracts/main.sol\":4928:5120  pushMatch(_owner, recipientList[i].owner, _bloodtype, recipientList[i].bloodtype, _organ, _quantity, recipientList[i].quantity, recipientList[i].quantity, _hospital, recipientList[i].hospital) */\n      dup1\n      sload\n      tag_343\n      swap1\n      tag_96\n      jump\t// in\n    tag_343:\n      dup1\n      0x1f\n      add\n      0x20\n      dup1\n      swap2\n      div\n      mul\n      0x20\n      add\n      mload(0x40)\n      swap1\n      dup2\n      add\n      0x40\n      mstore\n      dup1\n      swap3\n      swap2\n      swap1\n      dup2\n      dup2\n      mstore\n      0x20\n      add\n      dup3\n      dup1\n      sload\n      tag_344\n      swap1\n      tag_96\n      jump\t// in\n    tag_344:\n      dup1\n      iszero\n      tag_345\n      jumpi\n      dup1\n      0x1f\n      lt\n      tag_346\n      jumpi\n      0x0100\n      dup1\n      dup4\n      sload\n      div\n      mul\n      dup4\n      mstore\n      swap2\n      0x20\n      add\n      swap2\n      jump(tag_345)\n    tag_346:\n      dup3\n      add\n      swap2\n      swap1\n      0x00\n      mstore\n      keccak256(0x00, 0x20)\n      swap1\n    tag_347:\n      dup2\n      sload\n      dup2\n      mstore\n      swap1\n      0x01\n      add\n      swap1\n      0x20\n      add\n      dup1\n      dup4\n      gt\n      tag_347\n      jumpi\n      dup3\n      swap1\n      sub\n      0x1f\n      and\n      dup3\n      add\n      swap2\n    tag_345:\n      pop\n      pop\n      pop\n      pop\n      pop\n        /* \"contracts/main.sol\":4928:4937  pushMatch */\n      tag_118\n        /* \"contracts/main.sol\":4928:5120  pushMatch(_owner, recipientList[i].owner, _bloodtype, recipientList[i].bloodtype, _organ, _quantity, recipientList[i].quantity, recipientList[i].quantity, _hospital, recipientList[i].hospital) */\n      jump\t// in\n    tag_322:\n        /* \"contracts/main.sol\":5129:5150  pop(recipientList, i) */\n      tag_348\n        /* \"contracts/main.sol\":5133:5146  recipientList */\n      0x04\n        /* \"contracts/main.sol\":5148:5149  i */\n      dup5\n        /* \"contracts/main.sol\":5129:5132  pop */\n      tag_122\n        /* \"contracts/main.sol\":5129:5150  pop(recipientList, i) */\n      jump\t// in\n    tag_348:\n        /* \"contracts/main.sol\":5159:5164  break */\n      pop\n      jump(tag_262)\n        /* \"contracts/main.sol\":4898:5464  if (pendingqty == 0) {... */\n    tag_321:\n        /* \"contracts/main.sol\":5188:5380  pushMatch(_owner, recipientList[i].owner, _bloodtype, recipientList[i].bloodtype, _organ, _quantity, recipientList[i].quantity, recipientList[i].quantity, _hospital, recipientList[i].hospital) */\n      tag_350\n        /* \"contracts/main.sol\":5198:5204  _owner */\n      dup10\n        /* \"contracts/main.sol\":5206:5219  recipientList */\n      0x04\n        /* \"contracts/main.sol\":5220:5221  i */\n      dup6\n        /* \"contracts/main.sol\":5206:5222  recipientList[i] */\n      dup2\n      sload\n      dup2\n      lt\n      tag_351\n      jumpi\n      tag_352\n      tag_42\n      jump\t// in\n    tag_352:\n    tag_351:\n      swap1\n      0x00\n      mstore\n      keccak256(0x00, 0x20)\n      swap1\n      0x05\n      mul\n      add\n        /* \"contracts/main.sol\":5206:5228  recipientList[i].owner */\n      0x00\n      add\n        /* \"contracts/main.sol\":5188:5380  pushMatch(_owner, recipientList[i].owner, _bloodtype, recipientList[i].bloodtype, _organ, _quantity, recipientList[i].quantity, recipientList[i].quantity, _hospital, recipientList[i].hospital) */\n      dup1\n      sload\n      tag_354\n      swap1\n      tag_96\n      jump\t// in\n    tag_354:\n      dup1\n      0x1f\n      add\n      0x20\n      dup1\n      swap2\n      div\n      mul\n      0x20\n      add\n      mload(0x40)\n      swap1\n      dup2\n      add\n      0x40\n      mstore\n      dup1\n      swap3\n      swap2\n      swap1\n      dup2\n      dup2\n      mstore\n      0x20\n      add\n      dup3\n      dup1\n      sload\n      tag_355\n      swap1\n      tag_96\n      jump\t// in\n    tag_355:\n      dup1\n      iszero\n      tag_356\n      jumpi\n      dup1\n      0x1f\n      lt\n      tag_357\n      jumpi\n      0x0100\n      dup1\n      dup4\n      sload\n      div\n      mul\n      dup4\n      mstore\n      swap2\n      0x20\n      add\n      swap2\n      jump(tag_356)\n    tag_357:\n      dup3\n      add\n      swap2\n      swap1\n      0x00\n      mstore\n      keccak256(0x00, 0x20)\n      swap1\n    tag_358:\n      dup2\n      sload\n      dup2\n      mstore\n      swap1\n      0x01\n      add\n      swap1\n      0x20\n      add\n      dup1\n      dup4\n      gt\n      tag_358\n      jumpi\n      dup3\n      swap1\n      sub\n      0x1f\n      and\n      dup3\n      add\n      swap2\n    tag_356:\n      pop\n      pop\n      pop\n      pop\n      pop\n        /* \"contracts/main.sol\":5230:5240  _bloodtype */\n      dup11\n        /* \"contracts/main.sol\":5242:5255  recipientList */\n      0x04\n        /* \"contracts/main.sol\":5256:5257  i */\n      dup8\n        /* \"contracts/main.sol\":5242:5258  recipientList[i] */\n      dup2\n      sload\n      dup2\n      lt\n      tag_359\n      jumpi\n      tag_360\n      tag_42\n      jump\t// in\n    tag_360:\n    tag_359:\n      swap1\n      0x00\n      mstore\n      keccak256(0x00, 0x20)\n      swap1\n      0x05\n      mul\n      add\n        /* \"contracts/main.sol\":5242:5268  recipientList[i].bloodtype */\n      0x01\n      add\n      sload\n        /* \"contracts/main.sol\":5270:5276  _organ */\n      dup12\n        /* \"contracts/main.sol\":5278:5287  _quantity */\n      dup12\n        /* \"contracts/main.sol\":5289:5302  recipientList */\n      0x04\n        /* \"contracts/main.sol\":5303:5304  i */\n      dup11\n        /* \"contracts/main.sol\":5289:5305  recipientList[i] */\n      dup2\n      sload\n      dup2\n      lt\n      tag_362\n      jumpi\n      tag_363\n      tag_42\n      jump\t// in\n    tag_363:\n    tag_362:\n      swap1\n      0x00\n      mstore\n      keccak256(0x00, 0x20)\n      swap1\n      0x05\n      mul\n      add\n        /* \"contracts/main.sol\":5289:5314  recipientList[i].quantity */\n      0x03\n      add\n      sload\n        /* \"contracts/main.sol\":5316:5329  recipientList */\n      0x04\n        /* \"contracts/main.sol\":5330:5331  i */\n      dup12\n        /* \"contracts/main.sol\":5316:5332  recipientList[i] */\n      dup2\n      sload\n      dup2\n      lt\n      tag_365\n      jumpi\n      tag_366\n      tag_42\n      jump\t// in\n    tag_366:\n    tag_365:\n      swap1\n      0x00\n      mstore\n      keccak256(0x00, 0x20)\n      swap1\n      0x05\n      mul\n      add\n        /* \"contracts/main.sol\":5316:5341  recipientList[i].quantity */\n      0x03\n      add\n      sload\n        /* \"contracts/main.sol\":5343:5352  _hospital */\n      dup14\n        /* \"contracts/main.sol\":5354:5367  recipientList */\n      0x04\n        /* \"contracts/main.sol\":5368:5369  i */\n      dup14\n        /* \"contracts/main.sol\":5354:5370  recipientList[i] */\n      dup2\n      sload\n      dup2\n      lt\n      tag_368\n      jumpi\n      tag_369\n      tag_42\n      jump\t// in\n    tag_369:\n    tag_368:\n      swap1\n      0x00\n      mstore\n      keccak256(0x00, 0x20)\n      swap1\n      0x05\n      mul\n      add\n        /* \"contracts/main.sol\":5354:5379  recipientList[i].hospital */\n      0x04\n      add\n        /* \"contracts/main.sol\":5188:5380  pushMatch(_owner, recipientList[i].owner, _bloodtype, recipientList[i].bloodtype, _organ, _quantity, recipientList[i].quantity, recipientList[i].quantity, _hospital, recipientList[i].hospital) */\n      dup1\n      sload\n      tag_371\n      swap1\n      tag_96\n      jump\t// in\n    tag_371:\n      dup1\n      0x1f\n      add\n      0x20\n      dup1\n      swap2\n      div\n      mul\n      0x20\n      add\n      mload(0x40)\n      swap1\n      dup2\n      add\n      0x40\n      mstore\n      dup1\n      swap3\n      swap2\n      swap1\n      dup2\n      dup2\n      mstore\n      0x20\n      add\n      dup3\n      dup1\n      sload\n      tag_372\n      swap1\n      tag_96\n      jump\t// in\n    tag_372:\n      dup1\n      iszero\n      tag_373\n      jumpi\n      dup1\n      0x1f\n      lt\n      tag_374\n      jumpi\n      0x0100\n      dup1\n      dup4\n      sload\n      div\n      mul\n      dup4\n      mstore\n      swap2\n      0x20\n      add\n      swap2\n      jump(tag_373)\n    tag_374:\n      dup3\n      add\n      swap2\n      swap1\n      0x00\n      mstore\n      keccak256(0x00, 0x20)\n      swap1\n    tag_375:\n      dup2\n      sload\n      dup2\n      mstore\n      swap1\n      0x01\n      add\n      swap1\n      0x20\n      add\n      dup1\n      dup4\n      gt\n      tag_375\n      jumpi\n      dup3\n      swap1\n      sub\n      0x1f\n      and\n      dup3\n      add\n      swap2\n    tag_373:\n      pop\n      pop\n      pop\n      pop\n      pop\n        /* \"contracts/main.sol\":5188:5197  pushMatch */\n      tag_118\n        /* \"contracts/main.sol\":5188:5380  pushMatch(_owner, recipientList[i].owner, _bloodtype, recipientList[i].bloodtype, _organ, _quantity, recipientList[i].quantity, recipientList[i].quantity, _hospital, recipientList[i].hospital) */\n      jump\t// in\n    tag_350:\n        /* \"contracts/main.sol\":5438:5440  -1 */\n      0xffffffffffffffffffffffffffffffffffffffffffffffffffffffffffffffff\n        /* \"contracts/main.sol\":5425:5435  pendingqty */\n      dup2\n        /* \"contracts/main.sol\":5425:5440  pendingqty * -1 */\n      tag_376\n      swap2\n      swap1\n      tag_180\n      jump\t// in\n    tag_376:\n        /* \"contracts/main.sol\":5389:5402  recipientList */\n      0x04\n        /* \"contracts/main.sol\":5403:5404  i */\n      dup5\n        /* \"contracts/main.sol\":5389:5405  recipientList[i] */\n      dup2\n      sload\n      dup2\n      lt\n      tag_377\n      jumpi\n      tag_378\n      tag_42\n      jump\t// in\n    tag_378:\n    tag_377:\n      swap1\n      0x00\n      mstore\n      keccak256(0x00, 0x20)\n      swap1\n      0x05\n      mul\n      add\n        /* \"contracts/main.sol\":5389:5414  recipientList[i].quantity */\n      0x03\n      add\n        /* \"contracts/main.sol\":5389:5441  recipientList[i].quantity = uint256(pendingqty * -1) */\n      dup2\n      swap1\n      sstore\n      pop\n        /* \"contracts/main.sol\":5450:5455  break */\n      pop\n      jump(tag_262)\n        /* \"contracts/main.sol\":4225:5471  if (recipientList[i].bloodtype == posBT[j]) {... */\n    tag_270:\n        /* \"contracts/main.sol\":4213:4216  j++ */\n      dup1\n      dup1\n      0x01\n      add\n      swap2\n      pop\n      pop\n        /* \"contracts/main.sol\":4175:5477  for (uint256 j = 0; j <\tposBT.length; j++) {... */\n      jump(tag_261)\n    tag_262:\n      pop\n        /* \"contracts/main.sol\":4095:5482  if (keccak256(bytes(recipientList[i].organ)) == keccak256(bytes(_organ))) {... */\n    tag_260:\n        /* \"contracts/main.sol\":4085:4088  i++ */\n      dup1\n      dup1\n      0x01\n      add\n      swap2\n      pop\n      pop\n        /* \"contracts/main.sol\":4039:5486  for (uint256 i = 0; i < recipientList.length; i++) {... */\n      jump(tag_253)\n    tag_254:\n      pop\n        /* \"contracts/main.sol\":5495:5505  matchFound */\n      dup1\n        /* \"contracts/main.sol\":5490:5577  if (!matchFound) {... */\n      tag_380\n      jumpi\n        /* \"contracts/main.sol\":5512:5572  pushNew(_owner, _bloodtype, _organ, _quantity, _hospital, 0) */\n      tag_381\n        /* \"contracts/main.sol\":5520:5526  _owner */\n      dup7\n        /* \"contracts/main.sol\":5528:5538  _bloodtype */\n      dup7\n        /* \"contracts/main.sol\":5540:5546  _organ */\n      dup7\n        /* \"contracts/main.sol\":5548:5557  _quantity */\n      dup7\n        /* \"contracts/main.sol\":5559:5568  _hospital */\n      dup7\n        /* \"contracts/main.sol\":5570:5571  0 */\n      0x00\n        /* \"contracts/main.sol\":5512:5519  pushNew */\n      tag_120\n        /* \"contracts/main.sol\":5512:5572  pushNew(_owner, _bloodtype, _organ, _quantity, _hospital, 0) */\n      jump\t// in\n    tag_381:\n        /* \"contracts/main.sol\":5490:5577  if (!matchFound) {... */\n    tag_380:\n        /* \"contracts/main.sol\":3809:5580  {... */\n      pop\n        /* \"contracts/main.sol\":3676:5580  function regDonor(string memory _owner, uint256 _bloodtype, string memory _organ, uint256 _quantity, string memory _hospital) public {... */\n      pop\n      pop\n      pop\n      pop\n      pop\n      jump\t// out\n        /* \"contracts/main.sol\":7654:7787  function showMatches(string memory _pass) public view mlPassCheck(_pass) returns (matched_orgdet[] memory) {... */\n    tag_28:\n        /* \"contracts/main.sol\":7736:7759  matched_orgdet[] memory */\n      0x60\n        /* \"contracts/main.sol\":7720:7725  _pass */\n      dup2\n        /* \"contracts/main.sol\":1078:1089  matchedPass */\n      sload(0x02)\n        /* \"contracts/main.sol\":1065:1070  _pass */\n      dup2\n        /* \"contracts/main.sol\":1048:1071  abi.encodePacked(_pass) */\n      add(0x20, mload(0x40))\n      tag_383\n      swap2\n      swap1\n      tag_188\n      jump\t// in\n    tag_383:\n      mload(0x40)\n      0x20\n      dup2\n      dup4\n      sub\n      sub\n      dup2\n      mstore\n      swap1\n      0x40\n      mstore\n        /* \"contracts/main.sol\":1038:1072  keccak256(abi.encodePacked(_pass)) */\n      dup1\n      mload\n      swap1\n      0x20\n      add\n      keccak256\n        /* \"contracts/main.sol\":1021:1073  abi.encodePacked(keccak256(abi.encodePacked(_pass))) */\n      add(0x20, mload(0x40))\n      tag_384\n      swap2\n      swap1\n      tag_190\n      jump\t// in\n    tag_384:\n      mload(0x40)\n      0x20\n      dup2\n      dup4\n      sub\n      sub\n      dup2\n      mstore\n      swap1\n      0x40\n      mstore\n        /* \"contracts/main.sol\":1011:1074  keccak256(abi.encodePacked(keccak256(abi.encodePacked(_pass)))) */\n      dup1\n      mload\n      swap1\n      0x20\n      add\n      keccak256\n        /* \"contracts/main.sol\":1011:1089  keccak256(abi.encodePacked(keccak256(abi.encodePacked(_pass)))) == matchedPass */\n      eq\n        /* \"contracts/main.sol\":1003:1113  require(keccak256(abi.encodePacked(keccak256(abi.encodePacked(_pass)))) == matchedPass, \"Incorrect password!\") */\n      tag_385\n      jumpi\n      mload(0x40)\n      0x08c379a000000000000000000000000000000000000000000000000000000000\n      dup2\n      mstore\n      0x04\n      add\n      tag_386\n      swap1\n      tag_193\n      jump\t// in\n    tag_386:\n      mload(0x40)\n      dup1\n      swap2\n      sub\n      swap1\n      revert\n    tag_385:\n        /* \"contracts/main.sol\":7772:7783  matchedList */\n      0x05\n        /* \"contracts/main.sol\":7765:7783  return matchedList */\n      dup1\n      sload\n      dup1\n      0x20\n      mul\n      0x20\n      add\n      mload(0x40)\n      swap1\n      dup2\n      add\n      0x40\n      mstore\n      dup1\n      swap3\n      swap2\n      swap1\n      dup2\n      dup2\n      mstore\n      0x20\n      add\n      0x00\n      swap1\n    tag_388:\n      dup3\n      dup3\n      lt\n      iszero\n      tag_389\n      jumpi\n      dup4\n      dup3\n      swap1\n      0x00\n      mstore\n      keccak256(0x00, 0x20)\n      swap1\n      0x0a\n      mul\n      add\n      mload(0x40)\n      dup1\n      0x0140\n      add\n      0x40\n      mstore\n      swap1\n      dup2\n      0x00\n      dup3\n      add\n      dup1\n      sload\n      tag_391\n      swap1\n      tag_96\n      jump\t// in\n    tag_391:\n      dup1\n      0x1f\n      add\n      0x20\n      dup1\n      swap2\n      div\n      mul\n      0x20\n      add\n      mload(0x40)\n      swap1\n      dup2\n      add\n      0x40\n      mstore\n      dup1\n      swap3\n      swap2\n      swap1\n      dup2\n      dup2\n      mstore\n      0x20\n      add\n      dup3\n      dup1\n      sload\n      tag_392\n      swap1\n      tag_96\n      jump\t// in\n    tag_392:\n      dup1\n      iszero\n      tag_393\n      jumpi\n      dup1\n      0x1f\n      lt\n      tag_394\n      jumpi\n      0x0100\n      dup1\n      dup4\n      sload\n      div\n      mul\n      dup4\n      mstore\n      swap2\n      0x20\n      add\n      swap2\n      jump(tag_393)\n    tag_394:\n      dup3\n      add\n      swap2\n      swap1\n      0x00\n      mstore\n      keccak256(0x00, 0x20)\n      swap1\n    tag_395:\n      dup2\n      sload\n      dup2\n      mstore\n      swap1\n      0x01\n      add\n      swap1\n      0x20\n      add\n      dup1\n      dup4\n      gt\n      tag_395\n      jumpi\n      dup3\n      swap1\n      sub\n      0x1f\n      and\n      dup3\n      add\n      swap2\n    tag_393:\n      pop\n      pop\n      pop\n      pop\n      pop\n      dup2\n      mstore\n      0x20\n      add\n      0x01\n      dup3\n      add\n      dup1\n      sload\n      tag_396\n      swap1\n      tag_96\n      jump\t// in\n    tag_396:\n      dup1\n      0x1f\n      add\n      0x20\n      dup1\n      swap2\n      div\n      mul\n      0x20\n      add\n      mload(0x40)\n      swap1\n      dup2\n      add\n      0x40\n      mstore\n      dup1\n      swap3\n      swap2\n      swap1\n      dup2\n      dup2\n      mstore\n      0x20\n      add\n      dup3\n      dup1\n      sload\n      tag_397\n      swap1\n      tag_96\n      jump\t// in\n    tag_397:\n      dup1\n      iszero\n      tag_398\n      jumpi\n      dup1\n      0x1f\n      lt\n      tag_399\n      jumpi\n      0x0100\n      dup1\n      dup4\n      sload\n      div\n      mul\n      dup4\n      mstore\n      swap2\n      0x20\n      add\n      swap2\n      jump(tag_398)\n    tag_399:\n      dup3\n      add\n      swap2\n      swap1\n      0x00\n      mstore\n      keccak256(0x00, 0x20)\n      swap1\n    tag_400:\n      dup2\n      sload\n      dup2\n      mstore\n      swap1\n      0x01\n      add\n      swap1\n      0x20\n      add\n      dup1\n      dup4\n      gt\n      tag_400\n      jumpi\n      dup3\n      swap1\n      sub\n      0x1f\n      and\n      dup3\n      add\n      swap2\n    tag_398:\n      pop\n      pop\n      pop\n      pop\n      pop\n      dup2\n      mstore\n      0x20\n      add\n      0x02\n      dup3\n      add\n      sload\n      dup2\n      mstore\n      0x20\n      add\n      0x03\n      dup3\n      add\n      sload\n      dup2\n      mstore\n      0x20\n      add\n      0x04\n      dup3\n      add\n      dup1\n      sload\n      tag_401\n      swap1\n      tag_96\n      jump\t// in\n    tag_401:\n      dup1\n      0x1f\n      add\n      0x20\n      dup1\n      swap2\n      div\n      mul\n      0x20\n      add\n      mload(0x40)\n      swap1\n      dup2\n      add\n      0x40\n      mstore\n      dup1\n      swap3\n      swap2\n      swap1\n      dup2\n      dup2\n      mstore\n      0x20\n      add\n      dup3\n      dup1\n      sload\n      tag_402\n      swap1\n      tag_96\n      jump\t// in\n    tag_402:\n      dup1\n      iszero\n      tag_403\n      jumpi\n      dup1\n      0x1f\n      lt\n      tag_404\n      jumpi\n      0x0100\n      dup1\n      dup4\n      sload\n      div\n      mul\n      dup4\n      mstore\n      swap2\n      0x20\n      add\n      swap2\n      jump(tag_403)\n    tag_404:\n      dup3\n      add\n      swap2\n      swap1\n      0x00\n      mstore\n      keccak256(0x00, 0x20)\n      swap1\n    tag_405:\n      dup2\n      sload\n      dup2\n      mstore\n      swap1\n      0x01\n      add\n      swap1\n      0x20\n      add\n      dup1\n      dup4\n      gt\n      tag_405\n      jumpi\n      dup3\n      swap1\n      sub\n      0x1f\n      and\n      dup3\n      add\n      swap2\n    tag_403:\n      pop\n      pop\n      pop\n      pop\n      pop\n      dup2\n      mstore\n      0x20\n      add\n      0x05\n      dup3\n      add\n      sload\n      dup2\n      mstore\n      0x20\n      add\n      0x06\n      dup3\n      add\n      sload\n      dup2\n      mstore\n      0x20\n      add\n      0x07\n      dup3\n      add\n      sload\n      dup2\n      mstore\n      0x20\n      add\n      0x08\n      dup3\n      add\n      dup1\n      sload\n      tag_406\n      swap1\n      tag_96\n      jump\t// in\n    tag_406:\n      dup1\n      0x1f\n      add\n      0x20\n      dup1\n      swap2\n      div\n      mul\n      0x20\n      add\n      mload(0x40)\n      swap1\n      dup2\n      add\n      0x40\n      mstore\n      dup1\n      swap3\n      swap2\n      swap1\n      dup2\n      dup2\n      mstore\n      0x20\n      add\n      dup3\n      dup1\n      sload\n      tag_407\n      swap1\n      tag_96\n      jump\t// in\n    tag_407:\n      dup1\n      iszero\n      tag_408\n      jumpi\n      dup1\n      0x1f\n      lt\n      tag_409\n      jumpi\n      0x0100\n      dup1\n      dup4\n      sload\n      div\n      mul\n      dup4\n      mstore\n      swap2\n      0x20\n      add\n      swap2\n      jump(tag_408)\n    tag_409:\n      dup3\n      add\n      swap2\n      swap1\n      0x00\n      mstore\n      keccak256(0x00, 0x20)\n      swap1\n    tag_410:\n      dup2\n      sload\n      dup2\n      mstore\n      swap1\n      0x01\n      add\n      swap1\n      0x20\n      add\n      dup1\n      dup4\n      gt\n      tag_410\n      jumpi\n      dup3\n      swap1\n      sub\n      0x1f\n      and\n      dup3\n      add\n      swap2\n    tag_408:\n      pop\n      pop\n      pop\n      pop\n      pop\n      dup2\n      mstore\n      0x20\n      add\n      0x09\n      dup3\n      add\n      dup1\n      sload\n      tag_411\n      swap1\n      tag_96\n      jump\t// in\n    tag_411:\n      dup1\n      0x1f\n      add\n      0x20\n      dup1\n      swap2\n      div\n      mul\n      0x20\n      add\n      mload(0x40)\n      swap1\n      dup2\n      add\n      0x40\n      mstore\n      dup1\n      swap3\n      swap2\n      swap1\n      dup2\n      dup2\n      mstore\n      0x20\n      add\n      dup3\n      dup1\n      sload\n      tag_412\n      swap1\n      tag_96\n      jump\t// in\n    tag_412:\n      dup1\n      iszero\n      tag_413\n      jumpi\n      dup1\n      0x1f\n      lt\n      tag_414\n      jumpi\n      0x0100\n      dup1\n      dup4\n      sload\n      div\n      mul\n      dup4\n      mstore\n      swap2\n      0x20\n      add\n      swap2\n      jump(tag_413)\n    tag_414:\n      dup3\n      add\n      swap2\n      swap1\n      0x00\n      mstore\n      keccak256(0x00, 0x20)\n      swap1\n    tag_415:\n      dup2\n      sload\n      dup2\n      mstore\n      swap1\n      0x01\n      add\n      swap1\n      0x20\n      add\n      dup1\n      dup4\n      gt\n      tag_415\n      jumpi\n      dup3\n      swap1\n      sub\n      0x1f\n      and\n      dup3\n      add\n      swap2\n    tag_413:\n      pop\n      pop\n      pop\n      pop\n      pop\n      dup2\n      mstore\n      pop\n      pop\n      dup2\n      mstore\n      0x20\n      add\n      swap1\n      0x01\n      add\n      swap1\n      jump(tag_388)\n    tag_389:\n      pop\n      pop\n      pop\n      pop\n      swap2\n      pop\n        /* \"contracts/main.sol\":7654:7787  function showMatches(string memory _pass) public view mlPassCheck(_pass) returns (matched_orgdet[] memory) {... */\n      pop\n      swap2\n      swap1\n      pop\n      jump\t// out\n        /* \"contracts/main.sol\":2709:3261  function pushMatch(string memory _donor, string memory _recipient, uint256 _dbt, uint256 _rbt, string memory _organ, uint256 _dqty, uint256 _rqty, uint256 _mqty, string memory _dhosp, string memory _rhosp) private {... */\n    tag_118:\n        /* \"contracts/main.sol\":2927:2958  matched_orgdet memory match_det */\n      0x00\n        /* \"contracts/main.sol\":2961:3226  matched_orgdet({... */\n      mload(0x40)\n      dup1\n      0x0140\n      add\n      0x40\n      mstore\n      dup1\n        /* \"contracts/main.sol\":2988:2994  _donor */\n      dup13\n        /* \"contracts/main.sol\":2961:3226  matched_orgdet({... */\n      dup2\n      mstore\n      0x20\n      add\n        /* \"contracts/main.sol\":3010:3020  _recipient */\n      dup12\n        /* \"contracts/main.sol\":2961:3226  matched_orgdet({... */\n      dup2\n      mstore\n      0x20\n      add\n        /* \"contracts/main.sol\":3041:3045  _dbt */\n      dup11\n        /* \"contracts/main.sol\":2961:3226  matched_orgdet({... */\n      dup2\n      mstore\n      0x20\n      add\n        /* \"contracts/main.sol\":3070:3074  _rbt */\n      dup10\n        /* \"contracts/main.sol\":2961:3226  matched_orgdet({... */\n      dup2\n      mstore\n      0x20\n      add\n        /* \"contracts/main.sol\":3086:3092  _organ */\n      dup9\n        /* \"contracts/main.sol\":2961:3226  matched_orgdet({... */\n      dup2\n      mstore\n      0x20\n      add\n        /* \"contracts/main.sol\":3112:3117  _dqty */\n      dup8\n        /* \"contracts/main.sol\":2961:3226  matched_orgdet({... */\n      dup2\n      mstore\n      0x20\n      add\n        /* \"contracts/main.sol\":3141:3146  _rqty */\n      dup7\n        /* \"contracts/main.sol\":2961:3226  matched_orgdet({... */\n      dup2\n      mstore\n      0x20\n      add\n        /* \"contracts/main.sol\":3168:3173  _mqty */\n      dup6\n        /* \"contracts/main.sol\":2961:3226  matched_orgdet({... */\n      dup2\n      mstore\n      0x20\n      add\n        /* \"contracts/main.sol\":3189:3195  _dhosp */\n      dup5\n        /* \"contracts/main.sol\":2961:3226  matched_orgdet({... */\n      dup2\n      mstore\n      0x20\n      add\n        /* \"contracts/main.sol\":3215:3221  _rhosp */\n      dup4\n        /* \"contracts/main.sol\":2961:3226  matched_orgdet({... */\n      dup2\n      mstore\n      pop\n        /* \"contracts/main.sol\":2927:3226  matched_orgdet memory match_det = matched_orgdet({... */\n      swap1\n      pop\n        /* \"contracts/main.sol\":3230:3241  matchedList */\n      0x05\n        /* \"contracts/main.sol\":3247:3256  match_det */\n      dup2\n        /* \"contracts/main.sol\":3230:3257  matchedList.push(match_det) */\n      swap1\n      dup1\n      0x01\n      dup2\n      sload\n      add\n      dup1\n      dup3\n      sstore\n      dup1\n      swap2\n      pop\n      pop\n      0x01\n      swap1\n      sub\n      swap1\n      0x00\n      mstore\n      keccak256(0x00, 0x20)\n      swap1\n      0x0a\n      mul\n      add\n      0x00\n      swap1\n      swap2\n      swap1\n      swap2\n      swap1\n      swap2\n      pop\n      0x00\n      dup3\n      add\n      mload\n      dup2\n      0x00\n      add\n      swap1\n      dup2\n      tag_418\n      swap2\n      swap1\n      tag_419\n      jump\t// in\n    tag_418:\n      pop\n      0x20\n      dup3\n      add\n      mload\n      dup2\n      0x01\n      add\n      swap1\n      dup2\n      tag_420\n      swap2\n      swap1\n      tag_419\n      jump\t// in\n    tag_420:\n      pop\n      0x40\n      dup3\n      add\n      mload\n      dup2\n      0x02\n      add\n      sstore\n      0x60\n      dup3\n      add\n      mload\n      dup2\n      0x03\n      add\n      sstore\n      0x80\n      dup3\n      add\n      mload\n      dup2\n      0x04\n      add\n      swap1\n      dup2\n      tag_421\n      swap2\n      swap1\n      tag_419\n      jump\t// in\n    tag_421:\n      pop\n      0xa0\n      dup3\n      add\n      mload\n      dup2\n      0x05\n      add\n      sstore\n      0xc0\n      dup3\n      add\n      mload\n      dup2\n      0x06\n      add\n      sstore\n      0xe0\n      dup3\n      add\n      mload\n      dup2\n      0x07\n      add\n      sstore\n      0x0100\n      dup3\n      add\n      mload\n      dup2\n      0x08\n      add\n      swap1\n      dup2\n      tag_422\n      swap2\n      swap1\n      tag_419\n      jump\t// in\n    tag_422:\n      pop\n      0x0120\n      dup3\n      add\n      mload\n      dup2\n      0x09\n      add\n      swap1\n      dup2\n      tag_423\n      swap2\n      swap1\n      tag_419\n      jump\t// in\n    tag_423:\n      pop\n      pop\n      pop\n        /* \"contracts/main.sol\":2923:3261  {... */\n      pop\n        /* \"contracts/main.sol\":2709:3261  function pushMatch(string memory _donor, string memory _recipient, uint256 _dbt, uint256 _rbt, string memory _organ, uint256 _dqty, uint256 _rqty, uint256 _mqty, string memory _dhosp, string memory _rhosp) private {... */\n      pop\n      pop\n      pop\n      pop\n      pop\n      pop\n      pop\n      pop\n      pop\n      pop\n      jump\t// out\n        /* \"contracts/main.sol\":3264:3673  function pushNew(string memory _owner, uint256 _bloodtype, string memory _organ, uint256 _quantity, string memory _hospital, uint256 _type) private {... */\n    tag_120:\n        /* \"contracts/main.sol\":3416:3438  orgdet memory newEntry */\n      0x00\n        /* \"contracts/main.sol\":3441:3572  orgdet({... */\n      mload(0x40)\n      dup1\n      0xa0\n      add\n      0x40\n      mstore\n      dup1\n        /* \"contracts/main.sol\":3460:3466  _owner */\n      dup9\n        /* \"contracts/main.sol\":3441:3572  orgdet({... */\n      dup2\n      mstore\n      0x20\n      add\n        /* \"contracts/main.sol\":3482:3492  _bloodtype */\n      dup8\n        /* \"contracts/main.sol\":3441:3572  orgdet({... */\n      dup2\n      mstore\n      0x20\n      add\n        /* \"contracts/main.sol\":3504:3510  _organ */\n      dup7\n        /* \"contracts/main.sol\":3441:3572  orgdet({... */\n      dup2\n      mstore\n      0x20\n      add\n        /* \"contracts/main.sol\":3533:3542  _quantity */\n      dup6\n        /* \"contracts/main.sol\":3441:3572  orgdet({... */\n      dup2\n      mstore\n      0x20\n      add\n        /* \"contracts/main.sol\":3558:3567  _hospital */\n      dup5\n        /* \"contracts/main.sol\":3441:3572  orgdet({... */\n      dup2\n      mstore\n      pop\n        /* \"contracts/main.sol\":3416:3572  orgdet memory newEntry = orgdet({... */\n      swap1\n      pop\n        /* \"contracts/main.sol\":3589:3590  0 */\n      0x00\n        /* \"contracts/main.sol\":3580:3585  _type */\n      dup3\n        /* \"contracts/main.sol\":3580:3590  _type == 0 */\n      sub\n        /* \"contracts/main.sol\":3576:3670  if (_type == 0) {... */\n      tag_425\n      jumpi\n        /* \"contracts/main.sol\":3597:3606  donorList */\n      0x03\n        /* \"contracts/main.sol\":3612:3620  newEntry */\n      dup2\n        /* \"contracts/main.sol\":3597:3621  donorList.push(newEntry) */\n      swap1\n      dup1\n      0x01\n      dup2\n      sload\n      add\n      dup1\n      dup3\n      sstore\n      dup1\n      swap2\n      pop\n      pop\n      0x01\n      swap1\n      sub\n      swap1\n      0x00\n      mstore\n      keccak256(0x00, 0x20)\n      swap1\n      0x05\n      mul\n      add\n      0x00\n      swap1\n      swap2\n      swap1\n      swap2\n      swap1\n      swap2\n      pop\n      0x00\n      dup3\n      add\n      mload\n      dup2\n      0x00\n      add\n      swap1\n      dup2\n      tag_427\n      swap2\n      swap1\n      tag_419\n      jump\t// in\n    tag_427:\n      pop\n      0x20\n      dup3\n      add\n      mload\n      dup2\n      0x01\n      add\n      sstore\n      0x40\n      dup3\n      add\n      mload\n      dup2\n      0x02\n      add\n      swap1\n      dup2\n      tag_428\n      swap2\n      swap1\n      tag_419\n      jump\t// in\n    tag_428:\n      pop\n      0x60\n      dup3\n      add\n      mload\n      dup2\n      0x03\n      add\n      sstore\n      0x80\n      dup3\n      add\n      mload\n      dup2\n      0x04\n      add\n      swap1\n      dup2\n      tag_429\n      swap2\n      swap1\n      tag_419\n      jump\t// in\n    tag_429:\n      pop\n      pop\n      pop\n        /* \"contracts/main.sol\":3576:3670  if (_type == 0) {... */\n      jump(tag_430)\n    tag_425:\n        /* \"contracts/main.sol\":3637:3650  recipientList */\n      0x04\n        /* \"contracts/main.sol\":3656:3664  newEntry */\n      dup2\n        /* \"contracts/main.sol\":3637:3665  recipientList.push(newEntry) */\n      swap1\n      dup1\n      0x01\n      dup2\n      sload\n      add\n      dup1\n      dup3\n      sstore\n      dup1\n      swap2\n      pop\n      pop\n      0x01\n      swap1\n      sub\n      swap1\n      0x00\n      mstore\n      keccak256(0x00, 0x20)\n      swap1\n      0x05\n      mul\n      add\n      0x00\n      swap1\n      swap2\n      swap1\n      swap2\n      swap1\n      swap2\n      pop\n      0x00\n      dup3\n      add\n      mload\n      dup2\n      0x00\n      add\n      swap1\n      dup2\n      tag_432\n      swap2\n      swap1\n      tag_419\n      jump\t// in\n    tag_432:\n      pop\n      0x20\n      dup3\n      add\n      mload\n      dup2\n      0x01\n      add\n      sstore\n      0x40\n      dup3\n      add\n      mload\n      dup2\n      0x02\n      add\n      swap1\n      dup2\n      tag_433\n      swap2\n      swap1\n      tag_419\n      jump\t// in\n    tag_433:\n      pop\n      0x60\n      dup3\n      add\n      mload\n      dup2\n      0x03\n      add\n      sstore\n      0x80\n      dup3\n      add\n      mload\n      dup2\n      0x04\n      add\n      swap1\n      dup2\n      tag_434\n      swap2\n      swap1\n      tag_419\n      jump\t// in\n    tag_434:\n      pop\n      pop\n      pop\n        /* \"contracts/main.sol\":3576:3670  if (_type == 0) {... */\n    tag_430:\n        /* \"contracts/main.sol\":3412:3673  {... */\n      pop\n        /* \"contracts/main.sol\":3264:3673  function pushNew(string memory _owner, uint256 _bloodtype, string memory _organ, uint256 _quantity, string memory _hospital, uint256 _type) private {... */\n      pop\n      pop\n      pop\n      pop\n      pop\n      pop\n      jump\t// out\n        /* \"contracts/main.sol\":2523:2706  function pop(orgdet[] storage _list, uint256 _i) private {... */\n    tag_122:\n        /* \"contracts/main.sol\":2584:2602  orgdet memory temp */\n      0x00\n        /* \"contracts/main.sol\":2605:2610  _list */\n      dup3\n        /* \"contracts/main.sol\":2611:2613  _i */\n      dup3\n        /* \"contracts/main.sol\":2605:2614  _list[_i] */\n      dup2\n      sload\n      dup2\n      lt\n      tag_436\n      jumpi\n      tag_437\n      tag_42\n      jump\t// in\n    tag_437:\n    tag_436:\n      swap1\n      0x00\n      mstore\n      keccak256(0x00, 0x20)\n      swap1\n      0x05\n      mul\n      add\n        /* \"contracts/main.sol\":2584:2614  orgdet memory temp = _list[_i] */\n      mload(0x40)\n      dup1\n      0xa0\n      add\n      0x40\n      mstore\n      swap1\n      dup2\n      0x00\n      dup3\n      add\n      dup1\n      sload\n      tag_439\n      swap1\n      tag_96\n      jump\t// in\n    tag_439:\n      dup1\n      0x1f\n      add\n      0x20\n      dup1\n      swap2\n      div\n      mul\n      0x20\n      add\n      mload(0x40)\n      swap1\n      dup2\n      add\n      0x40\n      mstore\n      dup1\n      swap3\n      swap2\n      swap1\n      dup2\n      dup2\n      mstore\n      0x20\n      add\n      dup3\n      dup1\n      sload\n      tag_440\n      swap1\n      tag_96\n      jump\t// in\n    tag_440:\n      dup1\n      iszero\n      tag_441\n      jumpi\n      dup1\n      0x1f\n      lt\n      tag_442\n      jumpi\n      0x0100\n      dup1\n      dup4\n      sload\n      div\n      mul\n      dup4\n      mstore\n      swap2\n      0x20\n      add\n      swap2\n      jump(tag_441)\n    tag_442:\n      dup3\n      add\n      swap2\n      swap1\n      0x00\n      mstore\n      keccak256(0x00, 0x20)\n      swap1\n    tag_443:\n      dup2\n      sload\n      dup2\n      mstore\n      swap1\n      0x01\n      add\n      swap1\n      0x20\n      add\n      dup1\n      dup4\n      gt\n      tag_443\n      jumpi\n      dup3\n      swap1\n      sub\n      0x1f\n      and\n      dup3\n      add\n      swap2\n    tag_441:\n      pop\n      pop\n      pop\n      pop\n      pop\n      dup2\n      mstore\n      0x20\n      add\n      0x01\n      dup3\n      add\n      sload\n      dup2\n      mstore\n      0x20\n      add\n      0x02\n      dup3\n      add\n      dup1\n      sload\n      tag_444\n      swap1\n      tag_96\n      jump\t// in\n    tag_444:\n      dup1\n      0x1f\n      add\n      0x20\n      dup1\n      swap2\n      div\n      mul\n      0x20\n      add\n      mload(0x40)\n      swap1\n      dup2\n      add\n      0x40\n      mstore\n      dup1\n      swap3\n      swap2\n      swap1\n      dup2\n      dup2\n      mstore\n      0x20\n      add\n      dup3\n      dup1\n      sload\n      tag_445\n      swap1\n      tag_96\n      jump\t// in\n    tag_445:\n      dup1\n      iszero\n      tag_446\n      jumpi\n      dup1\n      0x1f\n      lt\n      tag_447\n      jumpi\n      0x0100\n      dup1\n      dup4\n      sload\n      div\n      mul\n      dup4\n      mstore\n      swap2\n      0x20\n      add\n      swap2\n      jump(tag_446)\n    tag_447:\n      dup3\n      add\n      swap2\n      swap1\n      0x00\n      mstore\n      keccak256(0x00, 0x20)\n      swap1\n    tag_448:\n      dup2\n      sload\n      dup2\n      mstore\n      swap1\n      0x01\n      add\n      swap1\n      0x20\n      add\n      dup1\n      dup4\n      gt\n      tag_448\n      jumpi\n      dup3\n      swap1\n      sub\n      0x1f\n      and\n      dup3\n      add\n      swap2\n    tag_446:\n      pop\n      pop\n      pop\n      pop\n      pop\n      dup2\n      mstore\n      0x20\n      add\n      0x03\n      dup3\n      add\n      sload\n      dup2\n      mstore\n      0x20\n      add\n      0x04\n      dup3\n      add\n      dup1\n      sload\n      tag_449\n      swap1\n      tag_96\n      jump\t// in\n    tag_449:\n      dup1\n      0x1f\n      add\n      0x20\n      dup1\n      swap2\n      div\n      mul\n      0x20\n      add\n      mload(0x40)\n      swap1\n      dup2\n      add\n      0x40\n      mstore\n      dup1\n      swap3\n      swap2\n      swap1\n      dup2\n      dup2\n      mstore\n      0x20\n      add\n      dup3\n      dup1\n      sload\n      tag_450\n      swap1\n      tag_96\n      jump\t// in\n    tag_450:\n      dup1\n      iszero\n      tag_451\n      jumpi\n      dup1\n      0x1f\n      lt\n      tag_452\n      jumpi\n      0x0100\n      dup1\n      dup4\n      sload\n      div\n      mul\n      dup4\n      mstore\n      swap2\n      0x20\n      add\n      swap2\n      jump(tag_451)\n    tag_452:\n      dup3\n      add\n      swap2\n      swap1\n      0x00\n      mstore\n      keccak256(0x00, 0x20)\n      swap1\n    tag_453:\n      dup2\n      sload\n      dup2\n      mstore\n      swap1\n      0x01\n      add\n      swap1\n      0x20\n      add\n      dup1\n      dup4\n      gt\n      tag_453\n      jumpi\n      dup3\n      swap1\n      sub\n      0x1f\n      and\n      dup3\n      add\n      swap2\n    tag_451:\n      pop\n      pop\n      pop\n      pop\n      pop\n      dup2\n      mstore\n      pop\n      pop\n      swap1\n      pop\n        /* \"contracts/main.sol\":2630:2635  _list */\n      dup3\n        /* \"contracts/main.sol\":2651:2652  1 */\n      0x01\n        /* \"contracts/main.sol\":2636:2641  _list */\n      dup5\n        /* \"contracts/main.sol\":2636:2648  _list.length */\n      dup1\n      sload\n      swap1\n      pop\n        /* \"contracts/main.sol\":2636:2652  _list.length - 1 */\n      tag_454\n      swap2\n      swap1\n      tag_455\n      jump\t// in\n    tag_454:\n        /* \"contracts/main.sol\":2630:2653  _list[_list.length - 1] */\n      dup2\n      sload\n      dup2\n      lt\n      tag_456\n      jumpi\n      tag_457\n      tag_42\n      jump\t// in\n    tag_457:\n    tag_456:\n      swap1\n      0x00\n      mstore\n      keccak256(0x00, 0x20)\n      swap1\n      0x05\n      mul\n      add\n        /* \"contracts/main.sol\":2618:2623  _list */\n      dup4\n        /* \"contracts/main.sol\":2624:2626  _i */\n      dup4\n        /* \"contracts/main.sol\":2618:2627  _list[_i] */\n      dup2\n      sload\n      dup2\n      lt\n      tag_459\n      jumpi\n      tag_460\n      tag_42\n      jump\t// in\n    tag_460:\n    tag_459:\n      swap1\n      0x00\n      mstore\n      keccak256(0x00, 0x20)\n      swap1\n      0x05\n      mul\n      add\n        /* \"contracts/main.sol\":2618:2653  _list[_i] = _list[_list.length - 1] */\n      0x00\n      dup3\n      add\n      dup2\n      0x00\n      add\n      swap1\n      dup2\n      tag_462\n      swap2\n      swap1\n      tag_463\n      jump\t// in\n    tag_462:\n      pop\n      0x01\n      dup3\n      add\n      sload\n      dup2\n      0x01\n      add\n      sstore\n      0x02\n      dup3\n      add\n      dup2\n      0x02\n      add\n      swap1\n      dup2\n      tag_464\n      swap2\n      swap1\n      tag_463\n      jump\t// in\n    tag_464:\n      pop\n      0x03\n      dup3\n      add\n      sload\n      dup2\n      0x03\n      add\n      sstore\n      0x04\n      dup3\n      add\n      dup2\n      0x04\n      add\n      swap1\n      dup2\n      tag_465\n      swap2\n      swap1\n      tag_463\n      jump\t// in\n    tag_465:\n      pop\n      swap1\n      pop\n      pop\n        /* \"contracts/main.sol\":2683:2687  temp */\n      dup1\n        /* \"contracts/main.sol\":2657:2662  _list */\n      dup4\n        /* \"contracts/main.sol\":2678:2679  1 */\n      0x01\n        /* \"contracts/main.sol\":2663:2668  _list */\n      dup6\n        /* \"contracts/main.sol\":2663:2675  _list.length */\n      dup1\n      sload\n      swap1\n      pop\n        /* \"contracts/main.sol\":2663:2679  _list.length - 1 */\n      tag_466\n      swap2\n      swap1\n      tag_455\n      jump\t// in\n    tag_466:\n        /* \"contracts/main.sol\":2657:2680  _list[_list.length - 1] */\n      dup2\n      sload\n      dup2\n      lt\n      tag_467\n      jumpi\n      tag_468\n      tag_42\n      jump\t// in\n    tag_468:\n    tag_467:\n      swap1\n      0x00\n      mstore\n      keccak256(0x00, 0x20)\n      swap1\n      0x05\n      mul\n      add\n        /* \"contracts/main.sol\":2657:2687  _list[_list.length - 1] = temp */\n      0x00\n      dup3\n      add\n      mload\n      dup2\n      0x00\n      add\n      swap1\n      dup2\n      tag_470\n      swap2\n      swap1\n      tag_419\n      jump\t// in\n    tag_470:\n      pop\n      0x20\n      dup3\n      add\n      mload\n      dup2\n      0x01\n      add\n      sstore\n      0x40\n      dup3\n      add\n      mload\n      dup2\n      0x02\n      add\n      swap1\n      dup2\n      tag_471\n      swap2\n      swap1\n      tag_419\n      jump\t// in\n    tag_471:\n      pop\n      0x60\n      dup3\n      add\n      mload\n      dup2\n      0x03\n      add\n      sstore\n      0x80\n      dup3\n      add\n      mload\n      dup2\n      0x04\n      add\n      swap1\n      dup2\n      tag_472\n      swap2\n      swap1\n      tag_419\n      jump\t// in\n    tag_472:\n      pop\n      swap1\n      pop\n      pop\n        /* \"contracts/main.sol\":2691:2696  _list */\n      dup3\n        /* \"contracts/main.sol\":2691:2702  _list.pop() */\n      dup1\n      sload\n      dup1\n      tag_473\n      jumpi\n      tag_474\n      tag_475\n      jump\t// in\n    tag_474:\n    tag_473:\n      0x01\n      swap1\n      sub\n      dup2\n      dup2\n      swap1\n      0x00\n      mstore\n      keccak256(0x00, 0x20)\n      swap1\n      0x05\n      mul\n      add\n      0x00\n      dup1\n      dup3\n      add\n      0x00\n      tag_477\n      swap2\n      swap1\n      tag_478\n      jump\t// in\n    tag_477:\n      0x01\n      dup3\n      add\n      0x00\n      swap1\n      sstore\n      0x02\n      dup3\n      add\n      0x00\n      tag_479\n      swap2\n      swap1\n      tag_478\n      jump\t// in\n    tag_479:\n      0x03\n      dup3\n      add\n      0x00\n      swap1\n      sstore\n      0x04\n      dup3\n      add\n      0x00\n      tag_480\n      swap2\n      swap1\n      tag_478\n      jump\t// in\n    tag_480:\n      pop\n      pop\n      swap1\n      sstore\n        /* \"contracts/main.sol\":2580:2706  {... */\n      pop\n        /* \"contracts/main.sol\":2523:2706  function pop(orgdet[] storage _list, uint256 _i) private {... */\n      pop\n      pop\n      jump\t// out\n    tag_35:\n      dup3\n      dup1\n      sload\n      dup3\n      dup3\n      sstore\n      swap1\n      0x00\n      mstore\n      keccak256(0x00, 0x20)\n      swap1\n      dup2\n      add\n      swap3\n      dup3\n      iszero\n      tag_481\n      jumpi\n      swap2\n      0x20\n      mul\n      dup3\n      add\n    tag_482:\n      dup3\n      dup2\n      gt\n      iszero\n      tag_483\n      jumpi\n      dup3\n      mload\n      dup3\n      sstore\n      swap2\n      0x20\n      add\n      swap2\n      swap1\n      0x01\n      add\n      swap1\n      jump(tag_482)\n    tag_483:\n    tag_481:\n      pop\n      swap1\n      pop\n      tag_484\n      swap2\n      swap1\n      tag_485\n      jump\t// in\n    tag_484:\n      pop\n      swap1\n      jump\t// out\n    tag_478:\n      pop\n      dup1\n      sload\n      tag_486\n      swap1\n      tag_96\n      jump\t// in\n    tag_486:\n      0x00\n      dup3\n      sstore\n      dup1\n      0x1f\n      lt\n      tag_488\n      jumpi\n      pop\n      jump(tag_487)\n    tag_488:\n      0x1f\n      add\n      0x20\n      swap1\n      div\n      swap1\n      0x00\n      mstore\n      keccak256(0x00, 0x20)\n      swap1\n      dup2\n      add\n      swap1\n      tag_489\n      swap2\n      swap1\n      tag_485\n      jump\t// in\n    tag_489:\n    tag_487:\n      pop\n      jump\t// out\n    tag_485:\n    tag_490:\n      dup1\n      dup3\n      gt\n      iszero\n      tag_491\n      jumpi\n      0x00\n      dup2\n      0x00\n      swap1\n      sstore\n      pop\n      0x01\n      add\n      jump(tag_490)\n    tag_491:\n      pop\n      swap1\n      jump\t// out\n        /* \"#utility.yul\":7:82   */\n    tag_492:\n        /* \"#utility.yul\":40:46   */\n      0x00\n        /* \"#utility.yul\":73:75   */\n      0x40\n        /* \"#utility.yul\":67:76   */\n      mload\n        /* \"#utility.yul\":57:76   */\n      swap1\n      pop\n        /* \"#utility.yul\":7:82   */\n      swap1\n      jump\t// out\n        /* \"#utility.yul\":88:205   */\n    tag_493:\n        /* \"#utility.yul\":197:198   */\n      0x00\n        /* \"#utility.yul\":194:195   */\n      dup1\n        /* \"#utility.yul\":187:199   */\n      revert\n        /* \"#utility.yul\":211:328   */\n    tag_494:\n        /* \"#utility.yul\":320:321   */\n      0x00\n        /* \"#utility.yul\":317:318   */\n      dup1\n        /* \"#utility.yul\":310:322   */\n      revert\n        /* \"#utility.yul\":334:451   */\n    tag_495:\n        /* \"#utility.yul\":443:444   */\n      0x00\n        /* \"#utility.yul\":440:441   */\n      dup1\n        /* \"#utility.yul\":433:445   */\n      revert\n        /* \"#utility.yul\":457:574   */\n    tag_496:\n        /* \"#utility.yul\":566:567   */\n      0x00\n        /* \"#utility.yul\":563:564   */\n      dup1\n        /* \"#utility.yul\":556:568   */\n      revert\n        /* \"#utility.yul\":580:682   */\n    tag_497:\n        /* \"#utility.yul\":621:627   */\n      0x00\n        /* \"#utility.yul\":672:674   */\n      0x1f\n        /* \"#utility.yul\":668:675   */\n      not\n        /* \"#utility.yul\":663:665   */\n      0x1f\n        /* \"#utility.yul\":656:661   */\n      dup4\n        /* \"#utility.yul\":652:666   */\n      add\n        /* \"#utility.yul\":648:676   */\n      and\n        /* \"#utility.yul\":638:676   */\n      swap1\n      pop\n        /* \"#utility.yul\":580:682   */\n      swap2\n      swap1\n      pop\n      jump\t// out\n        /* \"#utility.yul\":688:868   */\n    tag_498:\n        /* \"#utility.yul\":736:813   */\n      0x4e487b7100000000000000000000000000000000000000000000000000000000\n        /* \"#utility.yul\":733:734   */\n      0x00\n        /* \"#utility.yul\":726:814   */\n      mstore\n        /* \"#utility.yul\":833:837   */\n      0x41\n        /* \"#utility.yul\":830:831   */\n      0x04\n        /* \"#utility.yul\":823:838   */\n      mstore\n        /* \"#utility.yul\":857:861   */\n      0x24\n        /* \"#utility.yul\":854:855   */\n      0x00\n        /* \"#utility.yul\":847:862   */\n      revert\n        /* \"#utility.yul\":874:1155   */\n    tag_499:\n        /* \"#utility.yul\":957:984   */\n      tag_568\n        /* \"#utility.yul\":979:983   */\n      dup3\n        /* \"#utility.yul\":957:984   */\n      tag_497\n      jump\t// in\n    tag_568:\n        /* \"#utility.yul\":949:955   */\n      dup2\n        /* \"#utility.yul\":945:985   */\n      add\n        /* \"#utility.yul\":1087:1093   */\n      dup2\n        /* \"#utility.yul\":1075:1085   */\n      dup2\n        /* \"#utility.yul\":1072:1094   */\n      lt\n        /* \"#utility.yul\":1051:1069   */\n      0xffffffffffffffff\n        /* \"#utility.yul\":1039:1049   */\n      dup3\n        /* \"#utility.yul\":1036:1070   */\n      gt\n        /* \"#utility.yul\":1033:1095   */\n      or\n        /* \"#utility.yul\":1030:1118   */\n      iszero\n      tag_569\n      jumpi\n        /* \"#utility.yul\":1098:1116   */\n      tag_570\n      tag_498\n      jump\t// in\n    tag_570:\n        /* \"#utility.yul\":1030:1118   */\n    tag_569:\n        /* \"#utility.yul\":1138:1148   */\n      dup1\n        /* \"#utility.yul\":1134:1136   */\n      0x40\n        /* \"#utility.yul\":1127:1149   */\n      mstore\n        /* \"#utility.yul\":917:1155   */\n      pop\n        /* \"#utility.yul\":874:1155   */\n      pop\n      pop\n      jump\t// out\n        /* \"#utility.yul\":1161:1290   */\n    tag_500:\n        /* \"#utility.yul\":1195:1201   */\n      0x00\n        /* \"#utility.yul\":1222:1242   */\n      tag_572\n      tag_492\n      jump\t// in\n    tag_572:\n        /* \"#utility.yul\":1212:1242   */\n      swap1\n      pop\n        /* \"#utility.yul\":1251:1284   */\n      tag_573\n        /* \"#utility.yul\":1279:1283   */\n      dup3\n        /* \"#utility.yul\":1271:1277   */\n      dup3\n        /* \"#utility.yul\":1251:1284   */\n      tag_499\n      jump\t// in\n    tag_573:\n        /* \"#utility.yul\":1161:1290   */\n      swap2\n      swap1\n      pop\n      jump\t// out\n        /* \"#utility.yul\":1296:1604   */\n    tag_501:\n        /* \"#utility.yul\":1358:1362   */\n      0x00\n        /* \"#utility.yul\":1448:1466   */\n      0xffffffffffffffff\n        /* \"#utility.yul\":1440:1446   */\n      dup3\n        /* \"#utility.yul\":1437:1467   */\n      gt\n        /* \"#utility.yul\":1434:1490   */\n      iszero\n      tag_575\n      jumpi\n        /* \"#utility.yul\":1470:1488   */\n      tag_576\n      tag_498\n      jump\t// in\n    tag_576:\n        /* \"#utility.yul\":1434:1490   */\n    tag_575:\n        /* \"#utility.yul\":1508:1537   */\n      tag_577\n        /* \"#utility.yul\":1530:1536   */\n      dup3\n        /* \"#utility.yul\":1508:1537   */\n      tag_497\n      jump\t// in\n    tag_577:\n        /* \"#utility.yul\":1500:1537   */\n      swap1\n      pop\n        /* \"#utility.yul\":1592:1596   */\n      0x20\n        /* \"#utility.yul\":1586:1590   */\n      dup2\n        /* \"#utility.yul\":1582:1597   */\n      add\n        /* \"#utility.yul\":1574:1597   */\n      swap1\n      pop\n        /* \"#utility.yul\":1296:1604   */\n      swap2\n      swap1\n      pop\n      jump\t// out\n        /* \"#utility.yul\":1610:1758   */\n    tag_502:\n        /* \"#utility.yul\":1708:1714   */\n      dup3\n        /* \"#utility.yul\":1703:1706   */\n      dup2\n        /* \"#utility.yul\":1698:1701   */\n      dup4\n        /* \"#utility.yul\":1685:1715   */\n      calldatacopy\n        /* \"#utility.yul\":1749:1750   */\n      0x00\n        /* \"#utility.yul\":1740:1746   */\n      dup4\n        /* \"#utility.yul\":1735:1738   */\n      dup4\n        /* \"#utility.yul\":1731:1747   */\n      add\n        /* \"#utility.yul\":1724:1751   */\n      mstore\n        /* \"#utility.yul\":1610:1758   */\n      pop\n      pop\n      pop\n      jump\t// out\n        /* \"#utility.yul\":1764:2189   */\n    tag_503:\n        /* \"#utility.yul\":1842:1847   */\n      0x00\n        /* \"#utility.yul\":1867:1933   */\n      tag_580\n        /* \"#utility.yul\":1883:1932   */\n      tag_581\n        /* \"#utility.yul\":1925:1931   */\n      dup5\n        /* \"#utility.yul\":1883:1932   */\n      tag_501\n      jump\t// in\n    tag_581:\n        /* \"#utility.yul\":1867:1933   */\n      tag_500\n      jump\t// in\n    tag_580:\n        /* \"#utility.yul\":1858:1933   */\n      swap1\n      pop\n        /* \"#utility.yul\":1956:1962   */\n      dup3\n        /* \"#utility.yul\":1949:1954   */\n      dup2\n        /* \"#utility.yul\":1942:1963   */\n      mstore\n        /* \"#utility.yul\":1994:1998   */\n      0x20\n        /* \"#utility.yul\":1987:1992   */\n      dup2\n        /* \"#utility.yul\":1983:1999   */\n      add\n        /* \"#utility.yul\":2032:2035   */\n      dup5\n        /* \"#utility.yul\":2023:2029   */\n      dup5\n        /* \"#utility.yul\":2018:2021   */\n      dup5\n        /* \"#utility.yul\":2014:2030   */\n      add\n        /* \"#utility.yul\":2011:2036   */\n      gt\n        /* \"#utility.yul\":2008:2120   */\n      iszero\n      tag_582\n      jumpi\n        /* \"#utility.yul\":2039:2118   */\n      tag_583\n      tag_496\n      jump\t// in\n    tag_583:\n        /* \"#utility.yul\":2008:2120   */\n    tag_582:\n        /* \"#utility.yul\":2129:2183   */\n      tag_584\n        /* \"#utility.yul\":2176:2182   */\n      dup5\n        /* \"#utility.yul\":2171:2174   */\n      dup3\n        /* \"#utility.yul\":2166:2169   */\n      dup6\n        /* \"#utility.yul\":2129:2183   */\n      tag_502\n      jump\t// in\n    tag_584:\n        /* \"#utility.yul\":1848:2189   */\n      pop\n        /* \"#utility.yul\":1764:2189   */\n      swap4\n      swap3\n      pop\n      pop\n      pop\n      jump\t// out\n        /* \"#utility.yul\":2209:2549   */\n    tag_504:\n        /* \"#utility.yul\":2265:2270   */\n      0x00\n        /* \"#utility.yul\":2314:2317   */\n      dup3\n        /* \"#utility.yul\":2307:2311   */\n      0x1f\n        /* \"#utility.yul\":2299:2305   */\n      dup4\n        /* \"#utility.yul\":2295:2312   */\n      add\n        /* \"#utility.yul\":2291:2318   */\n      slt\n        /* \"#utility.yul\":2281:2403   */\n      tag_586\n      jumpi\n        /* \"#utility.yul\":2322:2401   */\n      tag_587\n      tag_495\n      jump\t// in\n    tag_587:\n        /* \"#utility.yul\":2281:2403   */\n    tag_586:\n        /* \"#utility.yul\":2439:2445   */\n      dup2\n        /* \"#utility.yul\":2426:2446   */\n      calldataload\n        /* \"#utility.yul\":2464:2543   */\n      tag_588\n        /* \"#utility.yul\":2539:2542   */\n      dup5\n        /* \"#utility.yul\":2531:2537   */\n      dup3\n        /* \"#utility.yul\":2524:2528   */\n      0x20\n        /* \"#utility.yul\":2516:2522   */\n      dup7\n        /* \"#utility.yul\":2512:2529   */\n      add\n        /* \"#utility.yul\":2464:2543   */\n      tag_503\n      jump\t// in\n    tag_588:\n        /* \"#utility.yul\":2455:2543   */\n      swap2\n      pop\n        /* \"#utility.yul\":2271:2549   */\n      pop\n        /* \"#utility.yul\":2209:2549   */\n      swap3\n      swap2\n      pop\n      pop\n      jump\t// out\n        /* \"#utility.yul\":2555:2632   */\n    tag_505:\n        /* \"#utility.yul\":2592:2599   */\n      0x00\n        /* \"#utility.yul\":2621:2626   */\n      dup2\n        /* \"#utility.yul\":2610:2626   */\n      swap1\n      pop\n        /* \"#utility.yul\":2555:2632   */\n      swap2\n      swap1\n      pop\n      jump\t// out\n        /* \"#utility.yul\":2638:2760   */\n    tag_506:\n        /* \"#utility.yul\":2711:2735   */\n      tag_591\n        /* \"#utility.yul\":2729:2734   */\n      dup2\n        /* \"#utility.yul\":2711:2735   */\n      tag_505\n      jump\t// in\n    tag_591:\n        /* \"#utility.yul\":2704:2709   */\n      dup2\n        /* \"#utility.yul\":2701:2736   */\n      eq\n        /* \"#utility.yul\":2691:2754   */\n      tag_592\n      jumpi\n        /* \"#utility.yul\":2750:2751   */\n      0x00\n        /* \"#utility.yul\":2747:2748   */\n      dup1\n        /* \"#utility.yul\":2740:2752   */\n      revert\n        /* \"#utility.yul\":2691:2754   */\n    tag_592:\n        /* \"#utility.yul\":2638:2760   */\n      pop\n      jump\t// out\n        /* \"#utility.yul\":2766:2905   */\n    tag_507:\n        /* \"#utility.yul\":2812:2817   */\n      0x00\n        /* \"#utility.yul\":2850:2856   */\n      dup2\n        /* \"#utility.yul\":2837:2857   */\n      calldataload\n        /* \"#utility.yul\":2828:2857   */\n      swap1\n      pop\n        /* \"#utility.yul\":2866:2899   */\n      tag_594\n        /* \"#utility.yul\":2893:2898   */\n      dup2\n        /* \"#utility.yul\":2866:2899   */\n      tag_506\n      jump\t// in\n    tag_594:\n        /* \"#utility.yul\":2766:2905   */\n      swap3\n      swap2\n      pop\n      pop\n      jump\t// out\n        /* \"#utility.yul\":2911:4362   */\n    tag_10:\n        /* \"#utility.yul\":3036:3042   */\n      0x00\n        /* \"#utility.yul\":3044:3050   */\n      dup1\n        /* \"#utility.yul\":3052:3058   */\n      0x00\n        /* \"#utility.yul\":3060:3066   */\n      dup1\n        /* \"#utility.yul\":3068:3074   */\n      0x00\n        /* \"#utility.yul\":3117:3120   */\n      0xa0\n        /* \"#utility.yul\":3105:3114   */\n      dup7\n        /* \"#utility.yul\":3096:3103   */\n      dup9\n        /* \"#utility.yul\":3092:3115   */\n      sub\n        /* \"#utility.yul\":3088:3121   */\n      slt\n        /* \"#utility.yul\":3085:3205   */\n      iszero\n      tag_596\n      jumpi\n        /* \"#utility.yul\":3124:3203   */\n      tag_597\n      tag_493\n      jump\t// in\n    tag_597:\n        /* \"#utility.yul\":3085:3205   */\n    tag_596:\n        /* \"#utility.yul\":3272:3273   */\n      0x00\n        /* \"#utility.yul\":3261:3270   */\n      dup7\n        /* \"#utility.yul\":3257:3274   */\n      add\n        /* \"#utility.yul\":3244:3275   */\n      calldataload\n        /* \"#utility.yul\":3302:3320   */\n      0xffffffffffffffff\n        /* \"#utility.yul\":3294:3300   */\n      dup2\n        /* \"#utility.yul\":3291:3321   */\n      gt\n        /* \"#utility.yul\":3288:3405   */\n      iszero\n      tag_598\n      jumpi\n        /* \"#utility.yul\":3324:3403   */\n      tag_599\n      tag_494\n      jump\t// in\n    tag_599:\n        /* \"#utility.yul\":3288:3405   */\n    tag_598:\n        /* \"#utility.yul\":3429:3492   */\n      tag_600\n        /* \"#utility.yul\":3484:3491   */\n      dup9\n        /* \"#utility.yul\":3475:3481   */\n      dup3\n        /* \"#utility.yul\":3464:3473   */\n      dup10\n        /* \"#utility.yul\":3460:3482   */\n      add\n        /* \"#utility.yul\":3429:3492   */\n      tag_504\n      jump\t// in\n    tag_600:\n        /* \"#utility.yul\":3419:3492   */\n      swap6\n      pop\n        /* \"#utility.yul\":3215:3502   */\n      pop\n        /* \"#utility.yul\":3569:3571   */\n      0x20\n        /* \"#utility.yul\":3558:3567   */\n      dup7\n        /* \"#utility.yul\":3554:3572   */\n      add\n        /* \"#utility.yul\":3541:3573   */\n      calldataload\n        /* \"#utility.yul\":3600:3618   */\n      0xffffffffffffffff\n        /* \"#utility.yul\":3592:3598   */\n      dup2\n        /* \"#utility.yul\":3589:3619   */\n      gt\n        /* \"#utility.yul\":3586:3703   */\n      iszero\n      tag_601\n      jumpi\n        /* \"#utility.yul\":3622:3701   */\n      tag_602\n      tag_494\n      jump\t// in\n    tag_602:\n        /* \"#utility.yul\":3586:3703   */\n    tag_601:\n        /* \"#utility.yul\":3727:3790   */\n      tag_603\n        /* \"#utility.yul\":3782:3789   */\n      dup9\n        /* \"#utility.yul\":3773:3779   */\n      dup3\n        /* \"#utility.yul\":3762:3771   */\n      dup10\n        /* \"#utility.yul\":3758:3780   */\n      add\n        /* \"#utility.yul\":3727:3790   */\n      tag_504\n      jump\t// in\n    tag_603:\n        /* \"#utility.yul\":3717:3790   */\n      swap5\n      pop\n        /* \"#utility.yul\":3512:3800   */\n      pop\n        /* \"#utility.yul\":3839:3841   */\n      0x40\n        /* \"#utility.yul\":3865:3918   */\n      tag_604\n        /* \"#utility.yul\":3910:3917   */\n      dup9\n        /* \"#utility.yul\":3901:3907   */\n      dup3\n        /* \"#utility.yul\":3890:3899   */\n      dup10\n        /* \"#utility.yul\":3886:3908   */\n      add\n        /* \"#utility.yul\":3865:3918   */\n      tag_507\n      jump\t// in\n    tag_604:\n        /* \"#utility.yul\":3855:3918   */\n      swap4\n      pop\n        /* \"#utility.yul\":3810:3928   */\n      pop\n        /* \"#utility.yul\":3967:3969   */\n      0x60\n        /* \"#utility.yul\":3993:4046   */\n      tag_605\n        /* \"#utility.yul\":4038:4045   */\n      dup9\n        /* \"#utility.yul\":4029:4035   */\n      dup3\n        /* \"#utility.yul\":4018:4027   */\n      dup10\n        /* \"#utility.yul\":4014:4036   */\n      add\n        /* \"#utility.yul\":3993:4046   */\n      tag_507\n      jump\t// in\n    tag_605:\n        /* \"#utility.yul\":3983:4046   */\n      swap3\n      pop\n        /* \"#utility.yul\":3938:4056   */\n      pop\n        /* \"#utility.yul\":4123:4126   */\n      0x80\n        /* \"#utility.yul\":4112:4121   */\n      dup7\n        /* \"#utility.yul\":4108:4127   */\n      add\n        /* \"#utility.yul\":4095:4128   */\n      calldataload\n        /* \"#utility.yul\":4155:4173   */\n      0xffffffffffffffff\n        /* \"#utility.yul\":4147:4153   */\n      dup2\n        /* \"#utility.yul\":4144:4174   */\n      gt\n        /* \"#utility.yul\":4141:4258   */\n      iszero\n      tag_606\n      jumpi\n        /* \"#utility.yul\":4177:4256   */\n      tag_607\n      tag_494\n      jump\t// in\n    tag_607:\n        /* \"#utility.yul\":4141:4258   */\n    tag_606:\n        /* \"#utility.yul\":4282:4345   */\n      tag_608\n        /* \"#utility.yul\":4337:4344   */\n      dup9\n        /* \"#utility.yul\":4328:4334   */\n      dup3\n        /* \"#utility.yul\":4317:4326   */\n      dup10\n        /* \"#utility.yul\":4313:4335   */\n      add\n        /* \"#utility.yul\":4282:4345   */\n      tag_504\n      jump\t// in\n    tag_608:\n        /* \"#utility.yul\":4272:4345   */\n      swap2\n      pop\n        /* \"#utility.yul\":4066:4355   */\n      pop\n        /* \"#utility.yul\":2911:4362   */\n      swap3\n      swap6\n      pop\n      swap3\n      swap6\n      swap1\n      swap4\n      pop\n      jump\t// out\n        /* \"#utility.yul\":4368:4877   */\n    tag_14:\n        /* \"#utility.yul\":4437:4443   */\n      0x00\n        /* \"#utility.yul\":4486:4488   */\n      0x20\n        /* \"#utility.yul\":4474:4483   */\n      dup3\n        /* \"#utility.yul\":4465:4472   */\n      dup5\n        /* \"#utility.yul\":4461:4484   */\n      sub\n        /* \"#utility.yul\":4457:4489   */\n      slt\n        /* \"#utility.yul\":4454:4573   */\n      iszero\n      tag_610\n      jumpi\n        /* \"#utility.yul\":4492:4571   */\n      tag_611\n      tag_493\n      jump\t// in\n    tag_611:\n        /* \"#utility.yul\":4454:4573   */\n    tag_610:\n        /* \"#utility.yul\":4640:4641   */\n      0x00\n        /* \"#utility.yul\":4629:4638   */\n      dup3\n        /* \"#utility.yul\":4625:4642   */\n      add\n        /* \"#utility.yul\":4612:4643   */\n      calldataload\n        /* \"#utility.yul\":4670:4688   */\n      0xffffffffffffffff\n        /* \"#utility.yul\":4662:4668   */\n      dup2\n        /* \"#utility.yul\":4659:4689   */\n      gt\n        /* \"#utility.yul\":4656:4773   */\n      iszero\n      tag_612\n      jumpi\n        /* \"#utility.yul\":4692:4771   */\n      tag_613\n      tag_494\n      jump\t// in\n    tag_613:\n        /* \"#utility.yul\":4656:4773   */\n    tag_612:\n        /* \"#utility.yul\":4797:4860   */\n      tag_614\n        /* \"#utility.yul\":4852:4859   */\n      dup5\n        /* \"#utility.yul\":4843:4849   */\n      dup3\n        /* \"#utility.yul\":4832:4841   */\n      dup6\n        /* \"#utility.yul\":4828:4850   */\n      add\n        /* \"#utility.yul\":4797:4860   */\n      tag_504\n      jump\t// in\n    tag_614:\n        /* \"#utility.yul\":4787:4860   */\n      swap2\n      pop\n        /* \"#utility.yul\":4583:4870   */\n      pop\n        /* \"#utility.yul\":4368:4877   */\n      swap3\n      swap2\n      pop\n      pop\n      jump\t// out\n        /* \"#utility.yul\":4883:5020   */\n    tag_508:\n        /* \"#utility.yul\":4973:4979   */\n      0x00\n        /* \"#utility.yul\":5007:5012   */\n      dup2\n        /* \"#utility.yul\":5001:5013   */\n      mload\n        /* \"#utility.yul\":4991:5013   */\n      swap1\n      pop\n        /* \"#utility.yul\":4883:5020   */\n      swap2\n      swap1\n      pop\n      jump\t// out\n        /* \"#utility.yul\":5026:5233   */\n    tag_509:\n        /* \"#utility.yul\":5148:5159   */\n      0x00\n        /* \"#utility.yul\":5182:5188   */\n      dup3\n        /* \"#utility.yul\":5177:5180   */\n      dup3\n        /* \"#utility.yul\":5170:5189   */\n      mstore\n        /* \"#utility.yul\":5222:5226   */\n      0x20\n        /* \"#utility.yul\":5217:5220   */\n      dup3\n        /* \"#utility.yul\":5213:5227   */\n      add\n        /* \"#utility.yul\":5198:5227   */\n      swap1\n      pop\n        /* \"#utility.yul\":5026:5233   */\n      swap3\n      swap2\n      pop\n      pop\n      jump\t// out\n        /* \"#utility.yul\":5239:5394   */\n    tag_510:\n        /* \"#utility.yul\":5329:5333   */\n      0x00\n        /* \"#utility.yul\":5352:5355   */\n      dup2\n        /* \"#utility.yul\":5344:5355   */\n      swap1\n      pop\n        /* \"#utility.yul\":5382:5386   */\n      0x20\n        /* \"#utility.yul\":5377:5380   */\n      dup3\n        /* \"#utility.yul\":5373:5387   */\n      add\n        /* \"#utility.yul\":5365:5387   */\n      swap1\n      pop\n        /* \"#utility.yul\":5239:5394   */\n      swap2\n      swap1\n      pop\n      jump\t// out\n        /* \"#utility.yul\":5400:5499   */\n    tag_511:\n        /* \"#utility.yul\":5452:5458   */\n      0x00\n        /* \"#utility.yul\":5486:5491   */\n      dup2\n        /* \"#utility.yul\":5480:5492   */\n      mload\n        /* \"#utility.yul\":5470:5492   */\n      swap1\n      pop\n        /* \"#utility.yul\":5400:5499   */\n      swap2\n      swap1\n      pop\n      jump\t// out\n        /* \"#utility.yul\":5505:5664   */\n    tag_512:\n        /* \"#utility.yul\":5579:5590   */\n      0x00\n        /* \"#utility.yul\":5613:5619   */\n      dup3\n        /* \"#utility.yul\":5608:5611   */\n      dup3\n        /* \"#utility.yul\":5601:5620   */\n      mstore\n        /* \"#utility.yul\":5653:5657   */\n      0x20\n        /* \"#utility.yul\":5648:5651   */\n      dup3\n        /* \"#utility.yul\":5644:5658   */\n      add\n        /* \"#utility.yul\":5629:5658   */\n      swap1\n      pop\n        /* \"#utility.yul\":5505:5664   */\n      swap3\n      swap2\n      pop\n      pop\n      jump\t// out\n        /* \"#utility.yul\":5670:5809   */\n    tag_513:\n        /* \"#utility.yul\":5759:5765   */\n      dup3\n        /* \"#utility.yul\":5754:5757   */\n      dup2\n        /* \"#utility.yul\":5749:5752   */\n      dup4\n        /* \"#utility.yul\":5743:5766   */\n      mcopy\n        /* \"#utility.yul\":5800:5801   */\n      0x00\n        /* \"#utility.yul\":5791:5797   */\n      dup4\n        /* \"#utility.yul\":5786:5789   */\n      dup4\n        /* \"#utility.yul\":5782:5798   */\n      add\n        /* \"#utility.yul\":5775:5802   */\n      mstore\n        /* \"#utility.yul\":5670:5809   */\n      pop\n      pop\n      pop\n      jump\t// out\n        /* \"#utility.yul\":5815:6172   */\n    tag_514:\n        /* \"#utility.yul\":5893:5896   */\n      0x00\n        /* \"#utility.yul\":5921:5960   */\n      tag_622\n        /* \"#utility.yul\":5954:5959   */\n      dup3\n        /* \"#utility.yul\":5921:5960   */\n      tag_511\n      jump\t// in\n    tag_622:\n        /* \"#utility.yul\":5976:6037   */\n      tag_623\n        /* \"#utility.yul\":6030:6036   */\n      dup2\n        /* \"#utility.yul\":6025:6028   */\n      dup6\n        /* \"#utility.yul\":5976:6037   */\n      tag_512\n      jump\t// in\n    tag_623:\n        /* \"#utility.yul\":5969:6037   */\n      swap4\n      pop\n        /* \"#utility.yul\":6046:6111   */\n      tag_624\n        /* \"#utility.yul\":6104:6110   */\n      dup2\n        /* \"#utility.yul\":6099:6102   */\n      dup6\n        /* \"#utility.yul\":6092:6096   */\n      0x20\n        /* \"#utility.yul\":6085:6090   */\n      dup7\n        /* \"#utility.yul\":6081:6097   */\n      add\n        /* \"#utility.yul\":6046:6111   */\n      tag_513\n      jump\t// in\n    tag_624:\n        /* \"#utility.yul\":6136:6165   */\n      tag_625\n        /* \"#utility.yul\":6158:6164   */\n      dup2\n        /* \"#utility.yul\":6136:6165   */\n      tag_497\n      jump\t// in\n    tag_625:\n        /* \"#utility.yul\":6131:6134   */\n      dup5\n        /* \"#utility.yul\":6127:6166   */\n      add\n        /* \"#utility.yul\":6120:6166   */\n      swap2\n      pop\n        /* \"#utility.yul\":5897:6172   */\n      pop\n        /* \"#utility.yul\":5815:6172   */\n      swap3\n      swap2\n      pop\n      pop\n      jump\t// out\n        /* \"#utility.yul\":6178:6286   */\n    tag_515:\n        /* \"#utility.yul\":6255:6279   */\n      tag_627\n        /* \"#utility.yul\":6273:6278   */\n      dup2\n        /* \"#utility.yul\":6255:6279   */\n      tag_505\n      jump\t// in\n    tag_627:\n        /* \"#utility.yul\":6250:6253   */\n      dup3\n        /* \"#utility.yul\":6243:6280   */\n      mstore\n        /* \"#utility.yul\":6178:6286   */\n      pop\n      pop\n      jump\t// out\n        /* \"#utility.yul\":6340:7611   */\n    tag_516:\n        /* \"#utility.yul\":6445:6448   */\n      0x00\n        /* \"#utility.yul\":6481:6485   */\n      0xa0\n        /* \"#utility.yul\":6476:6479   */\n      dup4\n        /* \"#utility.yul\":6472:6486   */\n      add\n        /* \"#utility.yul\":6569:6573   */\n      0x00\n        /* \"#utility.yul\":6562:6567   */\n      dup4\n        /* \"#utility.yul\":6558:6574   */\n      add\n        /* \"#utility.yul\":6552:6575   */\n      mload\n        /* \"#utility.yul\":6622:6625   */\n      dup5\n        /* \"#utility.yul\":6616:6620   */\n      dup3\n        /* \"#utility.yul\":6612:6626   */\n      sub\n        /* \"#utility.yul\":6605:6609   */\n      0x00\n        /* \"#utility.yul\":6600:6603   */\n      dup7\n        /* \"#utility.yul\":6596:6610   */\n      add\n        /* \"#utility.yul\":6589:6627   */\n      mstore\n        /* \"#utility.yul\":6648:6721   */\n      tag_629\n        /* \"#utility.yul\":6716:6720   */\n      dup3\n        /* \"#utility.yul\":6702:6714   */\n      dup3\n        /* \"#utility.yul\":6648:6721   */\n      tag_514\n      jump\t// in\n    tag_629:\n        /* \"#utility.yul\":6640:6721   */\n      swap2\n      pop\n        /* \"#utility.yul\":6496:6732   */\n      pop\n        /* \"#utility.yul\":6819:6823   */\n      0x20\n        /* \"#utility.yul\":6812:6817   */\n      dup4\n        /* \"#utility.yul\":6808:6824   */\n      add\n        /* \"#utility.yul\":6802:6825   */\n      mload\n        /* \"#utility.yul\":6838:6901   */\n      tag_630\n        /* \"#utility.yul\":6895:6899   */\n      0x20\n        /* \"#utility.yul\":6890:6893   */\n      dup7\n        /* \"#utility.yul\":6886:6900   */\n      add\n        /* \"#utility.yul\":6872:6884   */\n      dup3\n        /* \"#utility.yul\":6838:6901   */\n      tag_515\n      jump\t// in\n    tag_630:\n        /* \"#utility.yul\":6742:6911   */\n      pop\n        /* \"#utility.yul\":6994:6998   */\n      0x40\n        /* \"#utility.yul\":6987:6992   */\n      dup4\n        /* \"#utility.yul\":6983:6999   */\n      add\n        /* \"#utility.yul\":6977:7000   */\n      mload\n        /* \"#utility.yul\":7047:7050   */\n      dup5\n        /* \"#utility.yul\":7041:7045   */\n      dup3\n        /* \"#utility.yul\":7037:7051   */\n      sub\n        /* \"#utility.yul\":7030:7034   */\n      0x40\n        /* \"#utility.yul\":7025:7028   */\n      dup7\n        /* \"#utility.yul\":7021:7035   */\n      add\n        /* \"#utility.yul\":7014:7052   */\n      mstore\n        /* \"#utility.yul\":7073:7146   */\n      tag_631\n        /* \"#utility.yul\":7141:7145   */\n      dup3\n        /* \"#utility.yul\":7127:7139   */\n      dup3\n        /* \"#utility.yul\":7073:7146   */\n      tag_514\n      jump\t// in\n    tag_631:\n        /* \"#utility.yul\":7065:7146   */\n      swap2\n      pop\n        /* \"#utility.yul\":6921:7157   */\n      pop\n        /* \"#utility.yul\":7243:7247   */\n      0x60\n        /* \"#utility.yul\":7236:7241   */\n      dup4\n        /* \"#utility.yul\":7232:7248   */\n      add\n        /* \"#utility.yul\":7226:7249   */\n      mload\n        /* \"#utility.yul\":7262:7325   */\n      tag_632\n        /* \"#utility.yul\":7319:7323   */\n      0x60\n        /* \"#utility.yul\":7314:7317   */\n      dup7\n        /* \"#utility.yul\":7310:7324   */\n      add\n        /* \"#utility.yul\":7296:7308   */\n      dup3\n        /* \"#utility.yul\":7262:7325   */\n      tag_515\n      jump\t// in\n    tag_632:\n        /* \"#utility.yul\":7167:7335   */\n      pop\n        /* \"#utility.yul\":7421:7425   */\n      0x80\n        /* \"#utility.yul\":7414:7419   */\n      dup4\n        /* \"#utility.yul\":7410:7426   */\n      add\n        /* \"#utility.yul\":7404:7427   */\n      mload\n        /* \"#utility.yul\":7474:7477   */\n      dup5\n        /* \"#utility.yul\":7468:7472   */\n      dup3\n        /* \"#utility.yul\":7464:7478   */\n      sub\n        /* \"#utility.yul\":7457:7461   */\n      0x80\n        /* \"#utility.yul\":7452:7455   */\n      dup7\n        /* \"#utility.yul\":7448:7462   */\n      add\n        /* \"#utility.yul\":7441:7479   */\n      mstore\n        /* \"#utility.yul\":7500:7573   */\n      tag_633\n        /* \"#utility.yul\":7568:7572   */\n      dup3\n        /* \"#utility.yul\":7554:7566   */\n      dup3\n        /* \"#utility.yul\":7500:7573   */\n      tag_514\n      jump\t// in\n    tag_633:\n        /* \"#utility.yul\":7492:7573   */\n      swap2\n      pop\n        /* \"#utility.yul\":7345:7584   */\n      pop\n        /* \"#utility.yul\":7601:7605   */\n      dup1\n        /* \"#utility.yul\":7594:7605   */\n      swap2\n      pop\n        /* \"#utility.yul\":6450:7611   */\n      pop\n        /* \"#utility.yul\":6340:7611   */\n      swap3\n      swap2\n      pop\n      pop\n      jump\t// out\n        /* \"#utility.yul\":7617:7865   */\n    tag_517:\n        /* \"#utility.yul\":7732:7742   */\n      0x00\n        /* \"#utility.yul\":7767:7859   */\n      tag_635\n        /* \"#utility.yul\":7855:7858   */\n      dup4\n        /* \"#utility.yul\":7847:7853   */\n      dup4\n        /* \"#utility.yul\":7767:7859   */\n      tag_516\n      jump\t// in\n    tag_635:\n        /* \"#utility.yul\":7753:7859   */\n      swap1\n      pop\n        /* \"#utility.yul\":7617:7865   */\n      swap3\n      swap2\n      pop\n      pop\n      jump\t// out\n        /* \"#utility.yul\":7871:8007   */\n    tag_518:\n        /* \"#utility.yul\":7964:7968   */\n      0x00\n        /* \"#utility.yul\":7996:8000   */\n      0x20\n        /* \"#utility.yul\":7991:7994   */\n      dup3\n        /* \"#utility.yul\":7987:8001   */\n      add\n        /* \"#utility.yul\":7979:8001   */\n      swap1\n      pop\n        /* \"#utility.yul\":7871:8007   */\n      swap2\n      swap1\n      pop\n      jump\t// out\n        /* \"#utility.yul\":8065:9160   */\n    tag_519:\n        /* \"#utility.yul\":8230:8233   */\n      0x00\n        /* \"#utility.yul\":8259:8336   */\n      tag_638\n        /* \"#utility.yul\":8330:8335   */\n      dup3\n        /* \"#utility.yul\":8259:8336   */\n      tag_508\n      jump\t// in\n    tag_638:\n        /* \"#utility.yul\":8352:8461   */\n      tag_639\n        /* \"#utility.yul\":8454:8460   */\n      dup2\n        /* \"#utility.yul\":8449:8452   */\n      dup6\n        /* \"#utility.yul\":8352:8461   */\n      tag_509\n      jump\t// in\n    tag_639:\n        /* \"#utility.yul\":8345:8461   */\n      swap4\n      pop\n        /* \"#utility.yul\":8487:8490   */\n      dup4\n        /* \"#utility.yul\":8532:8536   */\n      0x20\n        /* \"#utility.yul\":8524:8530   */\n      dup3\n        /* \"#utility.yul\":8520:8537   */\n      mul\n        /* \"#utility.yul\":8515:8518   */\n      dup6\n        /* \"#utility.yul\":8511:8538   */\n      add\n        /* \"#utility.yul\":8562:8641   */\n      tag_640\n        /* \"#utility.yul\":8635:8640   */\n      dup6\n        /* \"#utility.yul\":8562:8641   */\n      tag_510\n      jump\t// in\n    tag_640:\n        /* \"#utility.yul\":8664:8671   */\n      dup1\n        /* \"#utility.yul\":8695:8696   */\n      0x00\n        /* \"#utility.yul\":8680:9115   */\n    tag_641:\n        /* \"#utility.yul\":8705:8711   */\n      dup6\n        /* \"#utility.yul\":8702:8703   */\n      dup2\n        /* \"#utility.yul\":8699:8712   */\n      lt\n        /* \"#utility.yul\":8680:9115   */\n      iszero\n      tag_643\n      jumpi\n        /* \"#utility.yul\":8776:8785   */\n      dup5\n        /* \"#utility.yul\":8770:8774   */\n      dup5\n        /* \"#utility.yul\":8766:8786   */\n      sub\n        /* \"#utility.yul\":8761:8764   */\n      dup10\n        /* \"#utility.yul\":8754:8787   */\n      mstore\n        /* \"#utility.yul\":8827:8833   */\n      dup2\n        /* \"#utility.yul\":8821:8834   */\n      mload\n        /* \"#utility.yul\":8855:8965   */\n      tag_644\n        /* \"#utility.yul\":8960:8964   */\n      dup6\n        /* \"#utility.yul\":8945:8958   */\n      dup3\n        /* \"#utility.yul\":8855:8965   */\n      tag_517\n      jump\t// in\n    tag_644:\n        /* \"#utility.yul\":8847:8965   */\n      swap5\n      pop\n        /* \"#utility.yul\":8988:9071   */\n      tag_645\n        /* \"#utility.yul\":9064:9070   */\n      dup4\n        /* \"#utility.yul\":8988:9071   */\n      tag_518\n      jump\t// in\n    tag_645:\n        /* \"#utility.yul\":8978:9071   */\n      swap3\n      pop\n        /* \"#utility.yul\":9100:9104   */\n      0x20\n        /* \"#utility.yul\":9095:9098   */\n      dup11\n        /* \"#utility.yul\":9091:9105   */\n      add\n        /* \"#utility.yul\":9084:9105   */\n      swap10\n      pop\n        /* \"#utility.yul\":8740:9115   */\n      pop\n        /* \"#utility.yul\":8727:8728   */\n      0x01\n        /* \"#utility.yul\":8724:8725   */\n      dup2\n        /* \"#utility.yul\":8720:8729   */\n      add\n        /* \"#utility.yul\":8715:8729   */\n      swap1\n      pop\n        /* \"#utility.yul\":8680:9115   */\n      jump(tag_641)\n    tag_643:\n        /* \"#utility.yul\":8684:8698   */\n      pop\n        /* \"#utility.yul\":9131:9135   */\n      dup3\n        /* \"#utility.yul\":9124:9135   */\n      swap8\n      pop\n        /* \"#utility.yul\":9151:9154   */\n      dup8\n        /* \"#utility.yul\":9144:9154   */\n      swap6\n      pop\n        /* \"#utility.yul\":8235:9160   */\n      pop\n      pop\n      pop\n      pop\n      pop\n        /* \"#utility.yul\":8065:9160   */\n      swap3\n      swap2\n      pop\n      pop\n      jump\t// out\n        /* \"#utility.yul\":9166:9631   */\n    tag_17:\n        /* \"#utility.yul\":9355:9359   */\n      0x00\n        /* \"#utility.yul\":9393:9395   */\n      0x20\n        /* \"#utility.yul\":9382:9391   */\n      dup3\n        /* \"#utility.yul\":9378:9396   */\n      add\n        /* \"#utility.yul\":9370:9396   */\n      swap1\n      pop\n        /* \"#utility.yul\":9442:9451   */\n      dup2\n        /* \"#utility.yul\":9436:9440   */\n      dup2\n        /* \"#utility.yul\":9432:9452   */\n      sub\n        /* \"#utility.yul\":9428:9429   */\n      0x00\n        /* \"#utility.yul\":9417:9426   */\n      dup4\n        /* \"#utility.yul\":9413:9430   */\n      add\n        /* \"#utility.yul\":9406:9453   */\n      mstore\n        /* \"#utility.yul\":9470:9624   */\n      tag_647\n        /* \"#utility.yul\":9619:9623   */\n      dup2\n        /* \"#utility.yul\":9610:9616   */\n      dup5\n        /* \"#utility.yul\":9470:9624   */\n      tag_519\n      jump\t// in\n    tag_647:\n        /* \"#utility.yul\":9462:9624   */\n      swap1\n      pop\n        /* \"#utility.yul\":9166:9631   */\n      swap3\n      swap2\n      pop\n      pop\n      jump\t// out\n        /* \"#utility.yul\":9637:11088   */\n    tag_24:\n        /* \"#utility.yul\":9762:9768   */\n      0x00\n        /* \"#utility.yul\":9770:9776   */\n      dup1\n        /* \"#utility.yul\":9778:9784   */\n      0x00\n        /* \"#utility.yul\":9786:9792   */\n      dup1\n        /* \"#utility.yul\":9794:9800   */\n      0x00\n        /* \"#utility.yul\":9843:9846   */\n      0xa0\n        /* \"#utility.yul\":9831:9840   */\n      dup7\n        /* \"#utility.yul\":9822:9829   */\n      dup9\n        /* \"#utility.yul\":9818:9841   */\n      sub\n        /* \"#utility.yul\":9814:9847   */\n      slt\n        /* \"#utility.yul\":9811:9931   */\n      iszero\n      tag_649\n      jumpi\n        /* \"#utility.yul\":9850:9929   */\n      tag_650\n      tag_493\n      jump\t// in\n    tag_650:\n        /* \"#utility.yul\":9811:9931   */\n    tag_649:\n        /* \"#utility.yul\":9998:9999   */\n      0x00\n        /* \"#utility.yul\":9987:9996   */\n      dup7\n        /* \"#utility.yul\":9983:10000   */\n      add\n        /* \"#utility.yul\":9970:10001   */\n      calldataload\n        /* \"#utility.yul\":10028:10046   */\n      0xffffffffffffffff\n        /* \"#utility.yul\":10020:10026   */\n      dup2\n        /* \"#utility.yul\":10017:10047   */\n      gt\n        /* \"#utility.yul\":10014:10131   */\n      iszero\n      tag_651\n      jumpi\n        /* \"#utility.yul\":10050:10129   */\n      tag_652\n      tag_494\n      jump\t// in\n    tag_652:\n        /* \"#utility.yul\":10014:10131   */\n    tag_651:\n        /* \"#utility.yul\":10155:10218   */\n      tag_653\n        /* \"#utility.yul\":10210:10217   */\n      dup9\n        /* \"#utility.yul\":10201:10207   */\n      dup3\n        /* \"#utility.yul\":10190:10199   */\n      dup10\n        /* \"#utility.yul\":10186:10208   */\n      add\n        /* \"#utility.yul\":10155:10218   */\n      tag_504\n      jump\t// in\n    tag_653:\n        /* \"#utility.yul\":10145:10218   */\n      swap6\n      pop\n        /* \"#utility.yul\":9941:10228   */\n      pop\n        /* \"#utility.yul\":10267:10269   */\n      0x20\n        /* \"#utility.yul\":10293:10346   */\n      tag_654\n        /* \"#utility.yul\":10338:10345   */\n      dup9\n        /* \"#utility.yul\":10329:10335   */\n      dup3\n        /* \"#utility.yul\":10318:10327   */\n      dup10\n        /* \"#utility.yul\":10314:10336   */\n      add\n        /* \"#utility.yul\":10293:10346   */\n      tag_507\n      jump\t// in\n    tag_654:\n        /* \"#utility.yul\":10283:10346   */\n      swap5\n      pop\n        /* \"#utility.yul\":10238:10356   */\n      pop\n        /* \"#utility.yul\":10423:10425   */\n      0x40\n        /* \"#utility.yul\":10412:10421   */\n      dup7\n        /* \"#utility.yul\":10408:10426   */\n      add\n        /* \"#utility.yul\":10395:10427   */\n      calldataload\n        /* \"#utility.yul\":10454:10472   */\n      0xffffffffffffffff\n        /* \"#utility.yul\":10446:10452   */\n      dup2\n        /* \"#utility.yul\":10443:10473   */\n      gt\n        /* \"#utility.yul\":10440:10557   */\n      iszero\n      tag_655\n      jumpi\n        /* \"#utility.yul\":10476:10555   */\n      tag_656\n      tag_494\n      jump\t// in\n    tag_656:\n        /* \"#utility.yul\":10440:10557   */\n    tag_655:\n        /* \"#utility.yul\":10581:10644   */\n      tag_657\n        /* \"#utility.yul\":10636:10643   */\n      dup9\n        /* \"#utility.yul\":10627:10633   */\n      dup3\n        /* \"#utility.yul\":10616:10625   */\n      dup10\n        /* \"#utility.yul\":10612:10634   */\n      add\n        /* \"#utility.yul\":10581:10644   */\n      tag_504\n      jump\t// in\n    tag_657:\n        /* \"#utility.yul\":10571:10644   */\n      swap4\n      pop\n        /* \"#utility.yul\":10366:10654   */\n      pop\n        /* \"#utility.yul\":10693:10695   */\n      0x60\n        /* \"#utility.yul\":10719:10772   */\n      tag_658\n        /* \"#utility.yul\":10764:10771   */\n      dup9\n        /* \"#utility.yul\":10755:10761   */\n      dup3\n        /* \"#utility.yul\":10744:10753   */\n      dup10\n        /* \"#utility.yul\":10740:10762   */\n      add\n        /* \"#utility.yul\":10719:10772   */\n      tag_507\n      jump\t// in\n    tag_658:\n        /* \"#utility.yul\":10709:10772   */\n      swap3\n      pop\n        /* \"#utility.yul\":10664:10782   */\n      pop\n        /* \"#utility.yul\":10849:10852   */\n      0x80\n        /* \"#utility.yul\":10838:10847   */\n      dup7\n        /* \"#utility.yul\":10834:10853   */\n      add\n        /* \"#utility.yul\":10821:10854   */\n      calldataload\n        /* \"#utility.yul\":10881:10899   */\n      0xffffffffffffffff\n        /* \"#utility.yul\":10873:10879   */\n      dup2\n        /* \"#utility.yul\":10870:10900   */\n      gt\n        /* \"#utility.yul\":10867:10984   */\n      iszero\n      tag_659\n      jumpi\n        /* \"#utility.yul\":10903:10982   */\n      tag_660\n      tag_494\n      jump\t// in\n    tag_660:\n        /* \"#utility.yul\":10867:10984   */\n    tag_659:\n        /* \"#utility.yul\":11008:11071   */\n      tag_661\n        /* \"#utility.yul\":11063:11070   */\n      dup9\n        /* \"#utility.yul\":11054:11060   */\n      dup3\n        /* \"#utility.yul\":11043:11052   */\n      dup10\n        /* \"#utility.yul\":11039:11061   */\n      add\n        /* \"#utility.yul\":11008:11071   */\n      tag_504\n      jump\t// in\n    tag_661:\n        /* \"#utility.yul\":10998:11071   */\n      swap2\n      pop\n        /* \"#utility.yul\":10792:11081   */\n      pop\n        /* \"#utility.yul\":9637:11088   */\n      swap3\n      swap6\n      pop\n      swap3\n      swap6\n      swap1\n      swap4\n      pop\n      jump\t// out\n        /* \"#utility.yul\":11094:11239   */\n    tag_520:\n        /* \"#utility.yul\":11192:11198   */\n      0x00\n        /* \"#utility.yul\":11226:11231   */\n      dup2\n        /* \"#utility.yul\":11220:11232   */\n      mload\n        /* \"#utility.yul\":11210:11232   */\n      swap1\n      pop\n        /* \"#utility.yul\":11094:11239   */\n      swap2\n      swap1\n      pop\n      jump\t// out\n        /* \"#utility.yul\":11245:11460   */\n    tag_521:\n        /* \"#utility.yul\":11375:11386   */\n      0x00\n        /* \"#utility.yul\":11409:11415   */\n      dup3\n        /* \"#utility.yul\":11404:11407   */\n      dup3\n        /* \"#utility.yul\":11397:11416   */\n      mstore\n        /* \"#utility.yul\":11449:11453   */\n      0x20\n        /* \"#utility.yul\":11444:11447   */\n      dup3\n        /* \"#utility.yul\":11440:11454   */\n      add\n        /* \"#utility.yul\":11425:11454   */\n      swap1\n      pop\n        /* \"#utility.yul\":11245:11460   */\n      swap3\n      swap2\n      pop\n      pop\n      jump\t// out\n        /* \"#utility.yul\":11466:11629   */\n    tag_522:\n        /* \"#utility.yul\":11564:11568   */\n      0x00\n        /* \"#utility.yul\":11587:11590   */\n      dup2\n        /* \"#utility.yul\":11579:11590   */\n      swap1\n      pop\n        /* \"#utility.yul\":11617:11621   */\n      0x20\n        /* \"#utility.yul\":11612:11615   */\n      dup3\n        /* \"#utility.yul\":11608:11622   */\n      add\n        /* \"#utility.yul\":11600:11622   */\n      swap1\n      pop\n        /* \"#utility.yul\":11466:11629   */\n      swap2\n      swap1\n      pop\n      jump\t// out\n        /* \"#utility.yul\":11699:14071   */\n    tag_523:\n        /* \"#utility.yul\":11820:11823   */\n      0x00\n        /* \"#utility.yul\":11856:11862   */\n      0x0140\n        /* \"#utility.yul\":11851:11854   */\n      dup4\n        /* \"#utility.yul\":11847:11863   */\n      add\n        /* \"#utility.yul\":11946:11950   */\n      0x00\n        /* \"#utility.yul\":11939:11944   */\n      dup4\n        /* \"#utility.yul\":11935:11951   */\n      add\n        /* \"#utility.yul\":11929:11952   */\n      mload\n        /* \"#utility.yul\":11999:12002   */\n      dup5\n        /* \"#utility.yul\":11993:11997   */\n      dup3\n        /* \"#utility.yul\":11989:12003   */\n      sub\n        /* \"#utility.yul\":11982:11986   */\n      0x00\n        /* \"#utility.yul\":11977:11980   */\n      dup7\n        /* \"#utility.yul\":11973:11987   */\n      add\n        /* \"#utility.yul\":11966:12004   */\n      mstore\n        /* \"#utility.yul\":12025:12098   */\n      tag_666\n        /* \"#utility.yul\":12093:12097   */\n      dup3\n        /* \"#utility.yul\":12079:12091   */\n      dup3\n        /* \"#utility.yul\":12025:12098   */\n      tag_514\n      jump\t// in\n    tag_666:\n        /* \"#utility.yul\":12017:12098   */\n      swap2\n      pop\n        /* \"#utility.yul\":11873:12109   */\n      pop\n        /* \"#utility.yul\":12196:12200   */\n      0x20\n        /* \"#utility.yul\":12189:12194   */\n      dup4\n        /* \"#utility.yul\":12185:12201   */\n      add\n        /* \"#utility.yul\":12179:12202   */\n      mload\n        /* \"#utility.yul\":12249:12252   */\n      dup5\n        /* \"#utility.yul\":12243:12247   */\n      dup3\n        /* \"#utility.yul\":12239:12253   */\n      sub\n        /* \"#utility.yul\":12232:12236   */\n      0x20\n        /* \"#utility.yul\":12227:12230   */\n      dup7\n        /* \"#utility.yul\":12223:12237   */\n      add\n        /* \"#utility.yul\":12216:12254   */\n      mstore\n        /* \"#utility.yul\":12275:12348   */\n      tag_667\n        /* \"#utility.yul\":12343:12347   */\n      dup3\n        /* \"#utility.yul\":12329:12341   */\n      dup3\n        /* \"#utility.yul\":12275:12348   */\n      tag_514\n      jump\t// in\n    tag_667:\n        /* \"#utility.yul\":12267:12348   */\n      swap2\n      pop\n        /* \"#utility.yul\":12119:12359   */\n      pop\n        /* \"#utility.yul\":12451:12455   */\n      0x40\n        /* \"#utility.yul\":12444:12449   */\n      dup4\n        /* \"#utility.yul\":12440:12456   */\n      add\n        /* \"#utility.yul\":12434:12457   */\n      mload\n        /* \"#utility.yul\":12470:12533   */\n      tag_668\n        /* \"#utility.yul\":12527:12531   */\n      0x40\n        /* \"#utility.yul\":12522:12525   */\n      dup7\n        /* \"#utility.yul\":12518:12532   */\n      add\n        /* \"#utility.yul\":12504:12516   */\n      dup3\n        /* \"#utility.yul\":12470:12533   */\n      tag_515\n      jump\t// in\n    tag_668:\n        /* \"#utility.yul\":12369:12543   */\n      pop\n        /* \"#utility.yul\":12639:12643   */\n      0x60\n        /* \"#utility.yul\":12632:12637   */\n      dup4\n        /* \"#utility.yul\":12628:12644   */\n      add\n        /* \"#utility.yul\":12622:12645   */\n      mload\n        /* \"#utility.yul\":12658:12721   */\n      tag_669\n        /* \"#utility.yul\":12715:12719   */\n      0x60\n        /* \"#utility.yul\":12710:12713   */\n      dup7\n        /* \"#utility.yul\":12706:12720   */\n      add\n        /* \"#utility.yul\":12692:12704   */\n      dup3\n        /* \"#utility.yul\":12658:12721   */\n      tag_515\n      jump\t// in\n    tag_669:\n        /* \"#utility.yul\":12553:12731   */\n      pop\n        /* \"#utility.yul\":12814:12818   */\n      0x80\n        /* \"#utility.yul\":12807:12812   */\n      dup4\n        /* \"#utility.yul\":12803:12819   */\n      add\n        /* \"#utility.yul\":12797:12820   */\n      mload\n        /* \"#utility.yul\":12867:12870   */\n      dup5\n        /* \"#utility.yul\":12861:12865   */\n      dup3\n        /* \"#utility.yul\":12857:12871   */\n      sub\n        /* \"#utility.yul\":12850:12854   */\n      0x80\n        /* \"#utility.yul\":12845:12848   */\n      dup7\n        /* \"#utility.yul\":12841:12855   */\n      add\n        /* \"#utility.yul\":12834:12872   */\n      mstore\n        /* \"#utility.yul\":12893:12966   */\n      tag_670\n        /* \"#utility.yul\":12961:12965   */\n      dup3\n        /* \"#utility.yul\":12947:12959   */\n      dup3\n        /* \"#utility.yul\":12893:12966   */\n      tag_514\n      jump\t// in\n    tag_670:\n        /* \"#utility.yul\":12885:12966   */\n      swap2\n      pop\n        /* \"#utility.yul\":12741:12977   */\n      pop\n        /* \"#utility.yul\":13068:13072   */\n      0xa0\n        /* \"#utility.yul\":13061:13066   */\n      dup4\n        /* \"#utility.yul\":13057:13073   */\n      add\n        /* \"#utility.yul\":13051:13074   */\n      mload\n        /* \"#utility.yul\":13087:13150   */\n      tag_671\n        /* \"#utility.yul\":13144:13148   */\n      0xa0\n        /* \"#utility.yul\":13139:13142   */\n      dup7\n        /* \"#utility.yul\":13135:13149   */\n      add\n        /* \"#utility.yul\":13121:13133   */\n      dup3\n        /* \"#utility.yul\":13087:13150   */\n      tag_515\n      jump\t// in\n    tag_671:\n        /* \"#utility.yul\":12987:13160   */\n      pop\n        /* \"#utility.yul\":13255:13259   */\n      0xc0\n        /* \"#utility.yul\":13248:13253   */\n      dup4\n        /* \"#utility.yul\":13244:13260   */\n      add\n        /* \"#utility.yul\":13238:13261   */\n      mload\n        /* \"#utility.yul\":13274:13337   */\n      tag_672\n        /* \"#utility.yul\":13331:13335   */\n      0xc0\n        /* \"#utility.yul\":13326:13329   */\n      dup7\n        /* \"#utility.yul\":13322:13336   */\n      add\n        /* \"#utility.yul\":13308:13320   */\n      dup3\n        /* \"#utility.yul\":13274:13337   */\n      tag_515\n      jump\t// in\n    tag_672:\n        /* \"#utility.yul\":13170:13347   */\n      pop\n        /* \"#utility.yul\":13440:13444   */\n      0xe0\n        /* \"#utility.yul\":13433:13438   */\n      dup4\n        /* \"#utility.yul\":13429:13445   */\n      add\n        /* \"#utility.yul\":13423:13446   */\n      mload\n        /* \"#utility.yul\":13459:13522   */\n      tag_673\n        /* \"#utility.yul\":13516:13520   */\n      0xe0\n        /* \"#utility.yul\":13511:13514   */\n      dup7\n        /* \"#utility.yul\":13507:13521   */\n      add\n        /* \"#utility.yul\":13493:13505   */\n      dup3\n        /* \"#utility.yul\":13459:13522   */\n      tag_515\n      jump\t// in\n    tag_673:\n        /* \"#utility.yul\":13357:13532   */\n      pop\n        /* \"#utility.yul\":13619:13625   */\n      0x0100\n        /* \"#utility.yul\":13612:13617   */\n      dup4\n        /* \"#utility.yul\":13608:13626   */\n      add\n        /* \"#utility.yul\":13602:13627   */\n      mload\n        /* \"#utility.yul\":13676:13679   */\n      dup5\n        /* \"#utility.yul\":13670:13674   */\n      dup3\n        /* \"#utility.yul\":13666:13680   */\n      sub\n        /* \"#utility.yul\":13657:13663   */\n      0x0100\n        /* \"#utility.yul\":13652:13655   */\n      dup7\n        /* \"#utility.yul\":13648:13664   */\n      add\n        /* \"#utility.yul\":13641:13681   */\n      mstore\n        /* \"#utility.yul\":13702:13775   */\n      tag_674\n        /* \"#utility.yul\":13770:13774   */\n      dup3\n        /* \"#utility.yul\":13756:13768   */\n      dup3\n        /* \"#utility.yul\":13702:13775   */\n      tag_514\n      jump\t// in\n    tag_674:\n        /* \"#utility.yul\":13694:13775   */\n      swap2\n      pop\n        /* \"#utility.yul\":13542:13786   */\n      pop\n        /* \"#utility.yul\":13877:13883   */\n      0x0120\n        /* \"#utility.yul\":13870:13875   */\n      dup4\n        /* \"#utility.yul\":13866:13884   */\n      add\n        /* \"#utility.yul\":13860:13885   */\n      mload\n        /* \"#utility.yul\":13934:13937   */\n      dup5\n        /* \"#utility.yul\":13928:13932   */\n      dup3\n        /* \"#utility.yul\":13924:13938   */\n      sub\n        /* \"#utility.yul\":13915:13921   */\n      0x0120\n        /* \"#utility.yul\":13910:13913   */\n      dup7\n        /* \"#utility.yul\":13906:13922   */\n      add\n        /* \"#utility.yul\":13899:13939   */\n      mstore\n        /* \"#utility.yul\":13960:14033   */\n      tag_675\n        /* \"#utility.yul\":14028:14032   */\n      dup3\n        /* \"#utility.yul\":14014:14026   */\n      dup3\n        /* \"#utility.yul\":13960:14033   */\n      tag_514\n      jump\t// in\n    tag_675:\n        /* \"#utility.yul\":13952:14033   */\n      swap2\n      pop\n        /* \"#utility.yul\":13796:14044   */\n      pop\n        /* \"#utility.yul\":14061:14065   */\n      dup1\n        /* \"#utility.yul\":14054:14065   */\n      swap2\n      pop\n        /* \"#utility.yul\":11825:14071   */\n      pop\n        /* \"#utility.yul\":11699:14071   */\n      swap3\n      swap2\n      pop\n      pop\n      jump\t// out\n        /* \"#utility.yul\":14077:14357   */\n    tag_524:\n        /* \"#utility.yul\":14208:14218   */\n      0x00\n        /* \"#utility.yul\":14243:14351   */\n      tag_677\n        /* \"#utility.yul\":14347:14350   */\n      dup4\n        /* \"#utility.yul\":14339:14345   */\n      dup4\n        /* \"#utility.yul\":14243:14351   */\n      tag_523\n      jump\t// in\n    tag_677:\n        /* \"#utility.yul\":14229:14351   */\n      swap1\n      pop\n        /* \"#utility.yul\":14077:14357   */\n      swap3\n      swap2\n      pop\n      pop\n      jump\t// out\n        /* \"#utility.yul\":14363:14507   */\n    tag_525:\n        /* \"#utility.yul\":14464:14468   */\n      0x00\n        /* \"#utility.yul\":14496:14500   */\n      0x20\n        /* \"#utility.yul\":14491:14494   */\n      dup3\n        /* \"#utility.yul\":14487:14501   */\n      add\n        /* \"#utility.yul\":14479:14501   */\n      swap1\n      pop\n        /* \"#utility.yul\":14363:14507   */\n      swap2\n      swap1\n      pop\n      jump\t// out\n        /* \"#utility.yul\":14581:15740   */\n    tag_526:\n        /* \"#utility.yul\":14762:14765   */\n      0x00\n        /* \"#utility.yul\":14791:14876   */\n      tag_680\n        /* \"#utility.yul\":14870:14875   */\n      dup3\n        /* \"#utility.yul\":14791:14876   */\n      tag_520\n      jump\t// in\n    tag_680:\n        /* \"#utility.yul\":14892:15009   */\n      tag_681\n        /* \"#utility.yul\":15002:15008   */\n      dup2\n        /* \"#utility.yul\":14997:15000   */\n      dup6\n        /* \"#utility.yul\":14892:15009   */\n      tag_521\n      jump\t// in\n    tag_681:\n        /* \"#utility.yul\":14885:15009   */\n      swap4\n      pop\n        /* \"#utility.yul\":15035:15038   */\n      dup4\n        /* \"#utility.yul\":15080:15084   */\n      0x20\n        /* \"#utility.yul\":15072:15078   */\n      dup3\n        /* \"#utility.yul\":15068:15085   */\n      mul\n        /* \"#utility.yul\":15063:15066   */\n      dup6\n        /* \"#utility.yul\":15059:15086   */\n      add\n        /* \"#utility.yul\":15110:15197   */\n      tag_682\n        /* \"#utility.yul\":15191:15196   */\n      dup6\n        /* \"#utility.yul\":15110:15197   */\n      tag_522\n      jump\t// in\n    tag_682:\n        /* \"#utility.yul\":15220:15227   */\n      dup1\n        /* \"#utility.yul\":15251:15252   */\n      0x00\n        /* \"#utility.yul\":15236:15695   */\n    tag_683:\n        /* \"#utility.yul\":15261:15267   */\n      dup6\n        /* \"#utility.yul\":15258:15259   */\n      dup2\n        /* \"#utility.yul\":15255:15268   */\n      lt\n        /* \"#utility.yul\":15236:15695   */\n      iszero\n      tag_685\n      jumpi\n        /* \"#utility.yul\":15332:15341   */\n      dup5\n        /* \"#utility.yul\":15326:15330   */\n      dup5\n        /* \"#utility.yul\":15322:15342   */\n      sub\n        /* \"#utility.yul\":15317:15320   */\n      dup10\n        /* \"#utility.yul\":15310:15343   */\n      mstore\n        /* \"#utility.yul\":15383:15389   */\n      dup2\n        /* \"#utility.yul\":15377:15390   */\n      mload\n        /* \"#utility.yul\":15411:15537   */\n      tag_686\n        /* \"#utility.yul\":15532:15536   */\n      dup6\n        /* \"#utility.yul\":15517:15530   */\n      dup3\n        /* \"#utility.yul\":15411:15537   */\n      tag_524\n      jump\t// in\n    tag_686:\n        /* \"#utility.yul\":15403:15537   */\n      swap5\n      pop\n        /* \"#utility.yul\":15560:15651   */\n      tag_687\n        /* \"#utility.yul\":15644:15650   */\n      dup4\n        /* \"#utility.yul\":15560:15651   */\n      tag_525\n      jump\t// in\n    tag_687:\n        /* \"#utility.yul\":15550:15651   */\n      swap3\n      pop\n        /* \"#utility.yul\":15680:15684   */\n      0x20\n        /* \"#utility.yul\":15675:15678   */\n      dup11\n        /* \"#utility.yul\":15671:15685   */\n      add\n        /* \"#utility.yul\":15664:15685   */\n      swap10\n      pop\n        /* \"#utility.yul\":15296:15695   */\n      pop\n        /* \"#utility.yul\":15283:15284   */\n      0x01\n        /* \"#utility.yul\":15280:15281   */\n      dup2\n        /* \"#utility.yul\":15276:15285   */\n      add\n        /* \"#utility.yul\":15271:15285   */\n      swap1\n      pop\n        /* \"#utility.yul\":15236:15695   */\n      jump(tag_683)\n    tag_685:\n        /* \"#utility.yul\":15240:15254   */\n      pop\n        /* \"#utility.yul\":15711:15715   */\n      dup3\n        /* \"#utility.yul\":15704:15715   */\n      swap8\n      pop\n        /* \"#utility.yul\":15731:15734   */\n      dup8\n        /* \"#utility.yul\":15724:15734   */\n      swap6\n      pop\n        /* \"#utility.yul\":14767:15740   */\n      pop\n      pop\n      pop\n      pop\n      pop\n        /* \"#utility.yul\":14581:15740   */\n      swap3\n      swap2\n      pop\n      pop\n      jump\t// out\n        /* \"#utility.yul\":15746:16243   */\n    tag_30:\n        /* \"#utility.yul\":15951:15955   */\n      0x00\n        /* \"#utility.yul\":15989:15991   */\n      0x20\n        /* \"#utility.yul\":15978:15987   */\n      dup3\n        /* \"#utility.yul\":15974:15992   */\n      add\n        /* \"#utility.yul\":15966:15992   */\n      swap1\n      pop\n        /* \"#utility.yul\":16038:16047   */\n      dup2\n        /* \"#utility.yul\":16032:16036   */\n      dup2\n        /* \"#utility.yul\":16028:16048   */\n      sub\n        /* \"#utility.yul\":16024:16025   */\n      0x00\n        /* \"#utility.yul\":16013:16022   */\n      dup4\n        /* \"#utility.yul\":16009:16026   */\n      add\n        /* \"#utility.yul\":16002:16049   */\n      mstore\n        /* \"#utility.yul\":16066:16236   */\n      tag_689\n        /* \"#utility.yul\":16231:16235   */\n      dup2\n        /* \"#utility.yul\":16222:16228   */\n      dup5\n        /* \"#utility.yul\":16066:16236   */\n      tag_526\n      jump\t// in\n    tag_689:\n        /* \"#utility.yul\":16058:16236   */\n      swap1\n      pop\n        /* \"#utility.yul\":15746:16243   */\n      swap3\n      swap2\n      pop\n      pop\n      jump\t// out\n        /* \"#utility.yul\":16249:16429   */\n    tag_42:\n        /* \"#utility.yul\":16297:16374   */\n      0x4e487b7100000000000000000000000000000000000000000000000000000000\n        /* \"#utility.yul\":16294:16295   */\n      0x00\n        /* \"#utility.yul\":16287:16375   */\n      mstore\n        /* \"#utility.yul\":16394:16398   */\n      0x32\n        /* \"#utility.yul\":16391:16392   */\n      0x04\n        /* \"#utility.yul\":16384:16399   */\n      mstore\n        /* \"#utility.yul\":16418:16422   */\n      0x24\n        /* \"#utility.yul\":16415:16416   */\n      0x00\n        /* \"#utility.yul\":16408:16423   */\n      revert\n        /* \"#utility.yul\":16435:16615   */\n    tag_527:\n        /* \"#utility.yul\":16483:16560   */\n      0x4e487b7100000000000000000000000000000000000000000000000000000000\n        /* \"#utility.yul\":16480:16481   */\n      0x00\n        /* \"#utility.yul\":16473:16561   */\n      mstore\n        /* \"#utility.yul\":16580:16584   */\n      0x22\n        /* \"#utility.yul\":16577:16578   */\n      0x04\n        /* \"#utility.yul\":16570:16585   */\n      mstore\n        /* \"#utility.yul\":16604:16608   */\n      0x24\n        /* \"#utility.yul\":16601:16602   */\n      0x00\n        /* \"#utility.yul\":16594:16609   */\n      revert\n        /* \"#utility.yul\":16621:16941   */\n    tag_96:\n        /* \"#utility.yul\":16665:16671   */\n      0x00\n        /* \"#utility.yul\":16702:16703   */\n      0x02\n        /* \"#utility.yul\":16696:16700   */\n      dup3\n        /* \"#utility.yul\":16692:16704   */\n      div\n        /* \"#utility.yul\":16682:16704   */\n      swap1\n      pop\n        /* \"#utility.yul\":16749:16750   */\n      0x01\n        /* \"#utility.yul\":16743:16747   */\n      dup3\n        /* \"#utility.yul\":16739:16751   */\n      and\n        /* \"#utility.yul\":16770:16788   */\n      dup1\n        /* \"#utility.yul\":16760:16841   */\n      tag_693\n      jumpi\n        /* \"#utility.yul\":16826:16830   */\n      0x7f\n        /* \"#utility.yul\":16818:16824   */\n      dup3\n        /* \"#utility.yul\":16814:16831   */\n      and\n        /* \"#utility.yul\":16804:16831   */\n      swap2\n      pop\n        /* \"#utility.yul\":16760:16841   */\n    tag_693:\n        /* \"#utility.yul\":16888:16890   */\n      0x20\n        /* \"#utility.yul\":16880:16886   */\n      dup3\n        /* \"#utility.yul\":16877:16891   */\n      lt\n        /* \"#utility.yul\":16857:16875   */\n      dup2\n        /* \"#utility.yul\":16854:16892   */\n      sub\n        /* \"#utility.yul\":16851:16935   */\n      tag_694\n      jumpi\n        /* \"#utility.yul\":16907:16925   */\n      tag_695\n      tag_527\n      jump\t// in\n    tag_695:\n        /* \"#utility.yul\":16851:16935   */\n    tag_694:\n        /* \"#utility.yul\":16672:16941   */\n      pop\n        /* \"#utility.yul\":16621:16941   */\n      swap2\n      swap1\n      pop\n      jump\t// out\n        /* \"#utility.yul\":16947:17094   */\n    tag_528:\n        /* \"#utility.yul\":17048:17059   */\n      0x00\n        /* \"#utility.yul\":17085:17088   */\n      dup2\n        /* \"#utility.yul\":17070:17088   */\n      swap1\n      pop\n        /* \"#utility.yul\":16947:17094   */\n      swap3\n      swap2\n      pop\n      pop\n      jump\t// out\n        /* \"#utility.yul\":17100:17244   */\n    tag_529:\n        /* \"#utility.yul\":17152:17156   */\n      0x00\n        /* \"#utility.yul\":17175:17178   */\n      dup2\n        /* \"#utility.yul\":17167:17178   */\n      swap1\n      pop\n        /* \"#utility.yul\":17198:17201   */\n      dup2\n        /* \"#utility.yul\":17195:17196   */\n      0x00\n        /* \"#utility.yul\":17188:17202   */\n      mstore\n        /* \"#utility.yul\":17232:17236   */\n      0x20\n        /* \"#utility.yul\":17229:17230   */\n      0x00\n        /* \"#utility.yul\":17219:17237   */\n      keccak256\n        /* \"#utility.yul\":17211:17237   */\n      swap1\n      pop\n        /* \"#utility.yul\":17100:17244   */\n      swap2\n      swap1\n      pop\n      jump\t// out\n        /* \"#utility.yul\":17272:18150   */\n    tag_530:\n        /* \"#utility.yul\":17377:17380   */\n      0x00\n        /* \"#utility.yul\":17414:17419   */\n      dup2\n        /* \"#utility.yul\":17408:17420   */\n      sload\n        /* \"#utility.yul\":17443:17479   */\n      tag_699\n        /* \"#utility.yul\":17469:17478   */\n      dup2\n        /* \"#utility.yul\":17443:17479   */\n      tag_96\n      jump\t// in\n    tag_699:\n        /* \"#utility.yul\":17495:17583   */\n      tag_700\n        /* \"#utility.yul\":17576:17582   */\n      dup2\n        /* \"#utility.yul\":17571:17574   */\n      dup7\n        /* \"#utility.yul\":17495:17583   */\n      tag_528\n      jump\t// in\n    tag_700:\n        /* \"#utility.yul\":17488:17583   */\n      swap5\n      pop\n        /* \"#utility.yul\":17614:17615   */\n      0x01\n        /* \"#utility.yul\":17603:17612   */\n      dup3\n        /* \"#utility.yul\":17599:17616   */\n      and\n        /* \"#utility.yul\":17630:17631   */\n      0x00\n        /* \"#utility.yul\":17625:17791   */\n      dup2\n      eq\n      tag_702\n      jumpi\n        /* \"#utility.yul\":17805:17806   */\n      0x01\n        /* \"#utility.yul\":17800:18144   */\n      dup2\n      eq\n      tag_703\n      jumpi\n        /* \"#utility.yul\":17592:18144   */\n      jump(tag_701)\n        /* \"#utility.yul\":17625:17791   */\n    tag_702:\n        /* \"#utility.yul\":17709:17713   */\n      0xff\n        /* \"#utility.yul\":17705:17714   */\n      not\n        /* \"#utility.yul\":17694:17703   */\n      dup4\n        /* \"#utility.yul\":17690:17715   */\n      and\n        /* \"#utility.yul\":17685:17688   */\n      dup7\n        /* \"#utility.yul\":17678:17716   */\n      mstore\n        /* \"#utility.yul\":17771:17777   */\n      dup2\n        /* \"#utility.yul\":17764:17778   */\n      iszero\n        /* \"#utility.yul\":17757:17779   */\n      iszero\n        /* \"#utility.yul\":17749:17755   */\n      dup3\n        /* \"#utility.yul\":17745:17780   */\n      mul\n        /* \"#utility.yul\":17740:17743   */\n      dup7\n        /* \"#utility.yul\":17736:17781   */\n      add\n        /* \"#utility.yul\":17729:17781   */\n      swap4\n      pop\n        /* \"#utility.yul\":17625:17791   */\n      jump(tag_701)\n        /* \"#utility.yul\":17800:18144   */\n    tag_703:\n        /* \"#utility.yul\":17867:17908   */\n      tag_704\n        /* \"#utility.yul\":17902:17907   */\n      dup6\n        /* \"#utility.yul\":17867:17908   */\n      tag_529\n      jump\t// in\n    tag_704:\n        /* \"#utility.yul\":17930:17931   */\n      0x00\n        /* \"#utility.yul\":17944:18098   */\n    tag_705:\n        /* \"#utility.yul\":17958:17964   */\n      dup4\n        /* \"#utility.yul\":17955:17956   */\n      dup2\n        /* \"#utility.yul\":17952:17965   */\n      lt\n        /* \"#utility.yul\":17944:18098   */\n      iszero\n      tag_707\n      jumpi\n        /* \"#utility.yul\":18032:18039   */\n      dup2\n        /* \"#utility.yul\":18026:18040   */\n      sload\n        /* \"#utility.yul\":18022:18023   */\n      dup2\n        /* \"#utility.yul\":18017:18020   */\n      dup10\n        /* \"#utility.yul\":18013:18024   */\n      add\n        /* \"#utility.yul\":18006:18041   */\n      mstore\n        /* \"#utility.yul\":18082:18083   */\n      0x01\n        /* \"#utility.yul\":18073:18080   */\n      dup3\n        /* \"#utility.yul\":18069:18084   */\n      add\n        /* \"#utility.yul\":18058:18084   */\n      swap2\n      pop\n        /* \"#utility.yul\":17980:17984   */\n      0x20\n        /* \"#utility.yul\":17977:17978   */\n      dup2\n        /* \"#utility.yul\":17973:17985   */\n      add\n        /* \"#utility.yul\":17968:17985   */\n      swap1\n      pop\n        /* \"#utility.yul\":17944:18098   */\n      jump(tag_705)\n    tag_707:\n        /* \"#utility.yul\":18127:18133   */\n      dup4\n        /* \"#utility.yul\":18122:18125   */\n      dup9\n        /* \"#utility.yul\":18118:18134   */\n      add\n        /* \"#utility.yul\":18111:18134   */\n      swap6\n      pop\n        /* \"#utility.yul\":17807:18144   */\n      pop\n      pop\n        /* \"#utility.yul\":17592:18144   */\n    tag_701:\n      pop\n        /* \"#utility.yul\":17381:18150   */\n      pop\n      pop\n        /* \"#utility.yul\":17272:18150   */\n      swap3\n      swap2\n      pop\n      pop\n      jump\t// out\n        /* \"#utility.yul\":18156:18429   */\n    tag_56:\n        /* \"#utility.yul\":18287:18290   */\n      0x00\n        /* \"#utility.yul\":18309:18403   */\n      tag_709\n        /* \"#utility.yul\":18399:18402   */\n      dup3\n        /* \"#utility.yul\":18390:18396   */\n      dup5\n        /* \"#utility.yul\":18309:18403   */\n      tag_530\n      jump\t// in\n    tag_709:\n        /* \"#utility.yul\":18302:18403   */\n      swap2\n      pop\n        /* \"#utility.yul\":18420:18423   */\n      dup2\n        /* \"#utility.yul\":18413:18423   */\n      swap1\n      pop\n        /* \"#utility.yul\":18156:18429   */\n      swap3\n      swap2\n      pop\n      pop\n      jump\t// out\n        /* \"#utility.yul\":18435:18604   */\n    tag_531:\n        /* \"#utility.yul\":18519:18530   */\n      0x00\n        /* \"#utility.yul\":18553:18559   */\n      dup3\n        /* \"#utility.yul\":18548:18551   */\n      dup3\n        /* \"#utility.yul\":18541:18560   */\n      mstore\n        /* \"#utility.yul\":18593:18597   */\n      0x20\n        /* \"#utility.yul\":18588:18591   */\n      dup3\n        /* \"#utility.yul\":18584:18598   */\n      add\n        /* \"#utility.yul\":18569:18598   */\n      swap1\n      pop\n        /* \"#utility.yul\":18435:18604   */\n      swap3\n      swap2\n      pop\n      pop\n      jump\t// out\n        /* \"#utility.yul\":18610:18751   */\n    tag_532:\n        /* \"#utility.yul\":18659:18663   */\n      0x00\n        /* \"#utility.yul\":18682:18685   */\n      dup2\n        /* \"#utility.yul\":18674:18685   */\n      swap1\n      pop\n        /* \"#utility.yul\":18705:18708   */\n      dup2\n        /* \"#utility.yul\":18702:18703   */\n      0x00\n        /* \"#utility.yul\":18695:18709   */\n      mstore\n        /* \"#utility.yul\":18739:18743   */\n      0x20\n        /* \"#utility.yul\":18736:18737   */\n      0x00\n        /* \"#utility.yul\":18726:18744   */\n      keccak256\n        /* \"#utility.yul\":18718:18744   */\n      swap1\n      pop\n        /* \"#utility.yul\":18610:18751   */\n      swap2\n      swap1\n      pop\n      jump\t// out\n        /* \"#utility.yul\":18781:19612   */\n    tag_533:\n        /* \"#utility.yul\":18866:18869   */\n      0x00\n        /* \"#utility.yul\":18903:18908   */\n      dup2\n        /* \"#utility.yul\":18897:18909   */\n      sload\n        /* \"#utility.yul\":18932:18968   */\n      tag_713\n        /* \"#utility.yul\":18958:18967   */\n      dup2\n        /* \"#utility.yul\":18932:18968   */\n      tag_96\n      jump\t// in\n    tag_713:\n        /* \"#utility.yul\":18984:19055   */\n      tag_714\n        /* \"#utility.yul\":19048:19054   */\n      dup2\n        /* \"#utility.yul\":19043:19046   */\n      dup7\n        /* \"#utility.yul\":18984:19055   */\n      tag_531\n      jump\t// in\n    tag_714:\n        /* \"#utility.yul\":18977:19055   */\n      swap5\n      pop\n        /* \"#utility.yul\":19086:19087   */\n      0x01\n        /* \"#utility.yul\":19075:19084   */\n      dup3\n        /* \"#utility.yul\":19071:19088   */\n      and\n        /* \"#utility.yul\":19102:19103   */\n      0x00\n        /* \"#utility.yul\":19097:19261   */\n      dup2\n      eq\n      tag_716\n      jumpi\n        /* \"#utility.yul\":19275:19276   */\n      0x01\n        /* \"#utility.yul\":19270:19606   */\n      dup2\n      eq\n      tag_717\n      jumpi\n        /* \"#utility.yul\":19064:19606   */\n      jump(tag_715)\n        /* \"#utility.yul\":19097:19261   */\n    tag_716:\n        /* \"#utility.yul\":19181:19185   */\n      0xff\n        /* \"#utility.yul\":19177:19186   */\n      not\n        /* \"#utility.yul\":19166:19175   */\n      dup4\n        /* \"#utility.yul\":19162:19187   */\n      and\n        /* \"#utility.yul\":19157:19160   */\n      dup7\n        /* \"#utility.yul\":19150:19188   */\n      mstore\n        /* \"#utility.yul\":19241:19247   */\n      dup2\n        /* \"#utility.yul\":19234:19248   */\n      iszero\n        /* \"#utility.yul\":19227:19249   */\n      iszero\n        /* \"#utility.yul\":19221:19225   */\n      0x20\n        /* \"#utility.yul\":19217:19250   */\n      mul\n        /* \"#utility.yul\":19212:19215   */\n      dup7\n        /* \"#utility.yul\":19208:19251   */\n      add\n        /* \"#utility.yul\":19201:19251   */\n      swap4\n      pop\n        /* \"#utility.yul\":19097:19261   */\n      jump(tag_715)\n        /* \"#utility.yul\":19270:19606   */\n    tag_717:\n        /* \"#utility.yul\":19337:19375   */\n      tag_718\n        /* \"#utility.yul\":19369:19374   */\n      dup6\n        /* \"#utility.yul\":19337:19375   */\n      tag_532\n      jump\t// in\n    tag_718:\n        /* \"#utility.yul\":19397:19398   */\n      0x00\n        /* \"#utility.yul\":19411:19565   */\n    tag_719:\n        /* \"#utility.yul\":19425:19431   */\n      dup4\n        /* \"#utility.yul\":19422:19423   */\n      dup2\n        /* \"#utility.yul\":19419:19432   */\n      lt\n        /* \"#utility.yul\":19411:19565   */\n      iszero\n      tag_721\n      jumpi\n        /* \"#utility.yul\":19499:19506   */\n      dup2\n        /* \"#utility.yul\":19493:19507   */\n      sload\n        /* \"#utility.yul\":19489:19490   */\n      dup2\n        /* \"#utility.yul\":19484:19487   */\n      dup10\n        /* \"#utility.yul\":19480:19491   */\n      add\n        /* \"#utility.yul\":19473:19508   */\n      mstore\n        /* \"#utility.yul\":19549:19550   */\n      0x01\n        /* \"#utility.yul\":19540:19547   */\n      dup3\n        /* \"#utility.yul\":19536:19551   */\n      add\n        /* \"#utility.yul\":19525:19551   */\n      swap2\n      pop\n        /* \"#utility.yul\":19447:19451   */\n      0x20\n        /* \"#utility.yul\":19444:19445   */\n      dup2\n        /* \"#utility.yul\":19440:19452   */\n      add\n        /* \"#utility.yul\":19435:19452   */\n      swap1\n      pop\n        /* \"#utility.yul\":19411:19565   */\n      jump(tag_719)\n    tag_721:\n        /* \"#utility.yul\":19594:19595   */\n      dup1\n        /* \"#utility.yul\":19589:19592   */\n      dup9\n        /* \"#utility.yul\":19585:19596   */\n      add\n        /* \"#utility.yul\":19578:19596   */\n      swap6\n      pop\n        /* \"#utility.yul\":19277:19606   */\n      pop\n      pop\n        /* \"#utility.yul\":19064:19606   */\n    tag_715:\n      pop\n        /* \"#utility.yul\":18870:19612   */\n      pop\n      pop\n        /* \"#utility.yul\":18781:19612   */\n      swap3\n      swap2\n      pop\n      pop\n      jump\t// out\n        /* \"#utility.yul\":19618:19736   */\n    tag_534:\n        /* \"#utility.yul\":19705:19729   */\n      tag_723\n        /* \"#utility.yul\":19723:19728   */\n      dup2\n        /* \"#utility.yul\":19705:19729   */\n      tag_505\n      jump\t// in\n    tag_723:\n        /* \"#utility.yul\":19700:19703   */\n      dup3\n        /* \"#utility.yul\":19693:19730   */\n      mstore\n        /* \"#utility.yul\":19618:19736   */\n      pop\n      pop\n      jump\t// out\n        /* \"#utility.yul\":19742:20661   */\n    tag_84:\n        /* \"#utility.yul\":19998:20002   */\n      0x00\n        /* \"#utility.yul\":20036:20039   */\n      0xa0\n        /* \"#utility.yul\":20025:20034   */\n      dup3\n        /* \"#utility.yul\":20021:20040   */\n      add\n        /* \"#utility.yul\":20013:20040   */\n      swap1\n      pop\n        /* \"#utility.yul\":20086:20095   */\n      dup2\n        /* \"#utility.yul\":20080:20084   */\n      dup2\n        /* \"#utility.yul\":20076:20096   */\n      sub\n        /* \"#utility.yul\":20072:20073   */\n      0x00\n        /* \"#utility.yul\":20061:20070   */\n      dup4\n        /* \"#utility.yul\":20057:20074   */\n      add\n        /* \"#utility.yul\":20050:20097   */\n      mstore\n        /* \"#utility.yul\":20114:20189   */\n      tag_725\n        /* \"#utility.yul\":20184:20188   */\n      dup2\n        /* \"#utility.yul\":20175:20181   */\n      dup9\n        /* \"#utility.yul\":20114:20189   */\n      tag_533\n      jump\t// in\n    tag_725:\n        /* \"#utility.yul\":20106:20189   */\n      swap1\n      pop\n        /* \"#utility.yul\":20199:20271   */\n      tag_726\n        /* \"#utility.yul\":20267:20269   */\n      0x20\n        /* \"#utility.yul\":20256:20265   */\n      dup4\n        /* \"#utility.yul\":20252:20270   */\n      add\n        /* \"#utility.yul\":20243:20249   */\n      dup8\n        /* \"#utility.yul\":20199:20271   */\n      tag_534\n      jump\t// in\n    tag_726:\n        /* \"#utility.yul\":20318:20327   */\n      dup2\n        /* \"#utility.yul\":20312:20316   */\n      dup2\n        /* \"#utility.yul\":20308:20328   */\n      sub\n        /* \"#utility.yul\":20303:20305   */\n      0x40\n        /* \"#utility.yul\":20292:20301   */\n      dup4\n        /* \"#utility.yul\":20288:20306   */\n      add\n        /* \"#utility.yul\":20281:20329   */\n      mstore\n        /* \"#utility.yul\":20346:20421   */\n      tag_727\n        /* \"#utility.yul\":20416:20420   */\n      dup2\n        /* \"#utility.yul\":20407:20413   */\n      dup7\n        /* \"#utility.yul\":20346:20421   */\n      tag_533\n      jump\t// in\n    tag_727:\n        /* \"#utility.yul\":20338:20421   */\n      swap1\n      pop\n        /* \"#utility.yul\":20431:20503   */\n      tag_728\n        /* \"#utility.yul\":20499:20501   */\n      0x60\n        /* \"#utility.yul\":20488:20497   */\n      dup4\n        /* \"#utility.yul\":20484:20502   */\n      add\n        /* \"#utility.yul\":20475:20481   */\n      dup6\n        /* \"#utility.yul\":20431:20503   */\n      tag_534\n      jump\t// in\n    tag_728:\n        /* \"#utility.yul\":20551:20560   */\n      dup2\n        /* \"#utility.yul\":20545:20549   */\n      dup2\n        /* \"#utility.yul\":20541:20561   */\n      sub\n        /* \"#utility.yul\":20535:20538   */\n      0x80\n        /* \"#utility.yul\":20524:20533   */\n      dup4\n        /* \"#utility.yul\":20520:20539   */\n      add\n        /* \"#utility.yul\":20513:20562   */\n      mstore\n        /* \"#utility.yul\":20579:20654   */\n      tag_729\n        /* \"#utility.yul\":20649:20653   */\n      dup2\n        /* \"#utility.yul\":20640:20646   */\n      dup5\n        /* \"#utility.yul\":20579:20654   */\n      tag_533\n      jump\t// in\n    tag_729:\n        /* \"#utility.yul\":20571:20654   */\n      swap1\n      pop\n        /* \"#utility.yul\":19742:20661   */\n      swap7\n      swap6\n      pop\n      pop\n      pop\n      pop\n      pop\n      pop\n      jump\t// out\n        /* \"#utility.yul\":20667:20743   */\n    tag_535:\n        /* \"#utility.yul\":20703:20710   */\n      0x00\n        /* \"#utility.yul\":20732:20737   */\n      dup2\n        /* \"#utility.yul\":20721:20737   */\n      swap1\n      pop\n        /* \"#utility.yul\":20667:20743   */\n      swap2\n      swap1\n      pop\n      jump\t// out\n        /* \"#utility.yul\":20749:20929   */\n    tag_536:\n        /* \"#utility.yul\":20797:20874   */\n      0x4e487b7100000000000000000000000000000000000000000000000000000000\n        /* \"#utility.yul\":20794:20795   */\n      0x00\n        /* \"#utility.yul\":20787:20875   */\n      mstore\n        /* \"#utility.yul\":20894:20898   */\n      0x11\n        /* \"#utility.yul\":20891:20892   */\n      0x04\n        /* \"#utility.yul\":20884:20899   */\n      mstore\n        /* \"#utility.yul\":20918:20922   */\n      0x24\n        /* \"#utility.yul\":20915:20916   */\n      0x00\n        /* \"#utility.yul\":20908:20923   */\n      revert\n        /* \"#utility.yul\":20935:21307   */\n    tag_89:\n        /* \"#utility.yul\":20974:20978   */\n      0x00\n        /* \"#utility.yul\":20994:21013   */\n      tag_733\n        /* \"#utility.yul\":21011:21012   */\n      dup3\n        /* \"#utility.yul\":20994:21013   */\n      tag_535\n      jump\t// in\n    tag_733:\n        /* \"#utility.yul\":20989:21013   */\n      swap2\n      pop\n        /* \"#utility.yul\":21027:21046   */\n      tag_734\n        /* \"#utility.yul\":21044:21045   */\n      dup4\n        /* \"#utility.yul\":21027:21046   */\n      tag_535\n      jump\t// in\n    tag_734:\n        /* \"#utility.yul\":21022:21046   */\n      swap3\n      pop\n        /* \"#utility.yul\":21070:21071   */\n      dup3\n        /* \"#utility.yul\":21067:21068   */\n      dup3\n        /* \"#utility.yul\":21063:21072   */\n      sub\n        /* \"#utility.yul\":21055:21072   */\n      swap1\n      pop\n        /* \"#utility.yul\":21264:21265   */\n      dup2\n        /* \"#utility.yul\":21258:21262   */\n      dup2\n        /* \"#utility.yul\":21254:21266   */\n      slt\n        /* \"#utility.yul\":21250:21251   */\n      0x00\n        /* \"#utility.yul\":21247:21248   */\n      dup5\n        /* \"#utility.yul\":21243:21252   */\n      slt\n        /* \"#utility.yul\":21239:21267   */\n      and\n        /* \"#utility.yul\":21222:21223   */\n      dup3\n        /* \"#utility.yul\":21216:21220   */\n      dup3\n        /* \"#utility.yul\":21212:21224   */\n      sgt\n        /* \"#utility.yul\":21207:21208   */\n      0x00\n        /* \"#utility.yul\":21204:21205   */\n      dup6\n        /* \"#utility.yul\":21200:21209   */\n      slt\n        /* \"#utility.yul\":21193:21210   */\n      iszero\n        /* \"#utility.yul\":21189:21225   */\n      and\n        /* \"#utility.yul\":21173:21277   */\n      or\n        /* \"#utility.yul\":21170:21300   */\n      iszero\n      tag_735\n      jumpi\n        /* \"#utility.yul\":21280:21298   */\n      tag_736\n      tag_536\n      jump\t// in\n    tag_736:\n        /* \"#utility.yul\":21170:21300   */\n    tag_735:\n        /* \"#utility.yul\":20935:21307   */\n      swap3\n      swap2\n      pop\n      pop\n      jump\t// out\n        /* \"#utility.yul\":21313:21869   */\n    tag_180:\n        /* \"#utility.yul\":21352:21359   */\n      0x00\n        /* \"#utility.yul\":21375:21394   */\n      tag_738\n        /* \"#utility.yul\":21392:21393   */\n      dup3\n        /* \"#utility.yul\":21375:21394   */\n      tag_535\n      jump\t// in\n    tag_738:\n        /* \"#utility.yul\":21370:21394   */\n      swap2\n      pop\n        /* \"#utility.yul\":21408:21427   */\n      tag_739\n        /* \"#utility.yul\":21425:21426   */\n      dup4\n        /* \"#utility.yul\":21408:21427   */\n      tag_535\n      jump\t// in\n    tag_739:\n        /* \"#utility.yul\":21403:21427   */\n      swap3\n      pop\n        /* \"#utility.yul\":21462:21463   */\n      dup3\n        /* \"#utility.yul\":21459:21460   */\n      dup3\n        /* \"#utility.yul\":21455:21464   */\n      mul\n        /* \"#utility.yul\":21484:21513   */\n      tag_740\n        /* \"#utility.yul\":21501:21512   */\n      dup2\n        /* \"#utility.yul\":21484:21513   */\n      tag_535\n      jump\t// in\n    tag_740:\n        /* \"#utility.yul\":21473:21513   */\n      swap2\n      pop\n        /* \"#utility.yul\":21571:21637   */\n      0x8000000000000000000000000000000000000000000000000000000000000000\n        /* \"#utility.yul\":21568:21569   */\n      dup5\n        /* \"#utility.yul\":21565:21638   */\n      eq\n        /* \"#utility.yul\":21561:21562   */\n      0x00\n        /* \"#utility.yul\":21558:21559   */\n      dup5\n        /* \"#utility.yul\":21554:21563   */\n      slt\n        /* \"#utility.yul\":21550:21639   */\n      and\n        /* \"#utility.yul\":21547:21662   */\n      iszero\n      tag_741\n      jumpi\n        /* \"#utility.yul\":21642:21660   */\n      tag_742\n      tag_536\n      jump\t// in\n    tag_742:\n        /* \"#utility.yul\":21547:21662   */\n    tag_741:\n        /* \"#utility.yul\":21812:21813   */\n      dup3\n        /* \"#utility.yul\":21803:21810   */\n      dup3\n        /* \"#utility.yul\":21798:21814   */\n      sdiv\n        /* \"#utility.yul\":21795:21796   */\n      dup5\n        /* \"#utility.yul\":21792:21815   */\n      eq\n        /* \"#utility.yul\":21772:21773   */\n      dup4\n        /* \"#utility.yul\":21765:21774   */\n      iszero\n        /* \"#utility.yul\":21745:21829   */\n      or\n        /* \"#utility.yul\":21722:21862   */\n      tag_743\n      jumpi\n        /* \"#utility.yul\":21842:21860   */\n      tag_744\n      tag_536\n      jump\t// in\n    tag_744:\n        /* \"#utility.yul\":21722:21862   */\n    tag_743:\n        /* \"#utility.yul\":21360:21869   */\n      pop\n        /* \"#utility.yul\":21313:21869   */\n      swap3\n      swap2\n      pop\n      pop\n      jump\t// out\n        /* \"#utility.yul\":21875:22023   */\n    tag_537:\n        /* \"#utility.yul\":21977:21988   */\n      0x00\n        /* \"#utility.yul\":22014:22017   */\n      dup2\n        /* \"#utility.yul\":21999:22017   */\n      swap1\n      pop\n        /* \"#utility.yul\":21875:22023   */\n      swap3\n      swap2\n      pop\n      pop\n      jump\t// out\n        /* \"#utility.yul\":22029:22419   */\n    tag_538:\n        /* \"#utility.yul\":22135:22138   */\n      0x00\n        /* \"#utility.yul\":22163:22202   */\n      tag_747\n        /* \"#utility.yul\":22196:22201   */\n      dup3\n        /* \"#utility.yul\":22163:22202   */\n      tag_511\n      jump\t// in\n    tag_747:\n        /* \"#utility.yul\":22218:22307   */\n      tag_748\n        /* \"#utility.yul\":22300:22306   */\n      dup2\n        /* \"#utility.yul\":22295:22298   */\n      dup6\n        /* \"#utility.yul\":22218:22307   */\n      tag_537\n      jump\t// in\n    tag_748:\n        /* \"#utility.yul\":22211:22307   */\n      swap4\n      pop\n        /* \"#utility.yul\":22316:22381   */\n      tag_749\n        /* \"#utility.yul\":22374:22380   */\n      dup2\n        /* \"#utility.yul\":22369:22372   */\n      dup6\n        /* \"#utility.yul\":22362:22366   */\n      0x20\n        /* \"#utility.yul\":22355:22360   */\n      dup7\n        /* \"#utility.yul\":22351:22367   */\n      add\n        /* \"#utility.yul\":22316:22381   */\n      tag_513\n      jump\t// in\n    tag_749:\n        /* \"#utility.yul\":22406:22412   */\n      dup1\n        /* \"#utility.yul\":22401:22404   */\n      dup5\n        /* \"#utility.yul\":22397:22413   */\n      add\n        /* \"#utility.yul\":22390:22413   */\n      swap2\n      pop\n        /* \"#utility.yul\":22139:22419   */\n      pop\n        /* \"#utility.yul\":22029:22419   */\n      swap3\n      swap2\n      pop\n      pop\n      jump\t// out\n        /* \"#utility.yul\":22425:22700   */\n    tag_188:\n        /* \"#utility.yul\":22557:22560   */\n      0x00\n        /* \"#utility.yul\":22579:22674   */\n      tag_751\n        /* \"#utility.yul\":22670:22673   */\n      dup3\n        /* \"#utility.yul\":22661:22667   */\n      dup5\n        /* \"#utility.yul\":22579:22674   */\n      tag_538\n      jump\t// in\n    tag_751:\n        /* \"#utility.yul\":22572:22674   */\n      swap2\n      pop\n        /* \"#utility.yul\":22691:22694   */\n      dup2\n        /* \"#utility.yul\":22684:22694   */\n      swap1\n      pop\n        /* \"#utility.yul\":22425:22700   */\n      swap3\n      swap2\n      pop\n      pop\n      jump\t// out\n        /* \"#utility.yul\":22706:22783   */\n    tag_539:\n        /* \"#utility.yul\":22743:22750   */\n      0x00\n        /* \"#utility.yul\":22772:22777   */\n      dup2\n        /* \"#utility.yul\":22761:22777   */\n      swap1\n      pop\n        /* \"#utility.yul\":22706:22783   */\n      swap2\n      swap1\n      pop\n      jump\t// out\n        /* \"#utility.yul\":22789:22868   */\n    tag_540:\n        /* \"#utility.yul\":22828:22835   */\n      0x00\n        /* \"#utility.yul\":22857:22862   */\n      dup2\n        /* \"#utility.yul\":22846:22862   */\n      swap1\n      pop\n        /* \"#utility.yul\":22789:22868   */\n      swap2\n      swap1\n      pop\n      jump\t// out\n        /* \"#utility.yul\":22874:23031   */\n    tag_541:\n        /* \"#utility.yul\":22979:23024   */\n      tag_755\n        /* \"#utility.yul\":22999:23023   */\n      tag_756\n        /* \"#utility.yul\":23017:23022   */\n      dup3\n        /* \"#utility.yul\":22999:23023   */\n      tag_539\n      jump\t// in\n    tag_756:\n        /* \"#utility.yul\":22979:23024   */\n      tag_540\n      jump\t// in\n    tag_755:\n        /* \"#utility.yul\":22974:22977   */\n      dup3\n        /* \"#utility.yul\":22967:23025   */\n      mstore\n        /* \"#utility.yul\":22874:23031   */\n      pop\n      pop\n      jump\t// out\n        /* \"#utility.yul\":23037:23293   */\n    tag_190:\n        /* \"#utility.yul\":23149:23152   */\n      0x00\n        /* \"#utility.yul\":23164:23239   */\n      tag_758\n        /* \"#utility.yul\":23235:23238   */\n      dup3\n        /* \"#utility.yul\":23226:23232   */\n      dup5\n        /* \"#utility.yul\":23164:23239   */\n      tag_541\n      jump\t// in\n    tag_758:\n        /* \"#utility.yul\":23264:23266   */\n      0x20\n        /* \"#utility.yul\":23259:23262   */\n      dup3\n        /* \"#utility.yul\":23255:23267   */\n      add\n        /* \"#utility.yul\":23248:23267   */\n      swap2\n      pop\n        /* \"#utility.yul\":23284:23287   */\n      dup2\n        /* \"#utility.yul\":23277:23287   */\n      swap1\n      pop\n        /* \"#utility.yul\":23037:23293   */\n      swap3\n      swap2\n      pop\n      pop\n      jump\t// out\n        /* \"#utility.yul\":23299:23468   */\n    tag_542:\n        /* \"#utility.yul\":23439:23460   */\n      0x496e636f72726563742070617373776f72642100000000000000000000000000\n        /* \"#utility.yul\":23435:23436   */\n      0x00\n        /* \"#utility.yul\":23427:23433   */\n      dup3\n        /* \"#utility.yul\":23423:23437   */\n      add\n        /* \"#utility.yul\":23416:23461   */\n      mstore\n        /* \"#utility.yul\":23299:23468   */\n      pop\n      jump\t// out\n        /* \"#utility.yul\":23474:23840   */\n    tag_543:\n        /* \"#utility.yul\":23616:23619   */\n      0x00\n        /* \"#utility.yul\":23637:23704   */\n      tag_761\n        /* \"#utility.yul\":23701:23703   */\n      0x13\n        /* \"#utility.yul\":23696:23699   */\n      dup4\n        /* \"#utility.yul\":23637:23704   */\n      tag_531\n      jump\t// in\n    tag_761:\n        /* \"#utility.yul\":23630:23704   */\n      swap2\n      pop\n        /* \"#utility.yul\":23713:23806   */\n      tag_762\n        /* \"#utility.yul\":23802:23805   */\n      dup3\n        /* \"#utility.yul\":23713:23806   */\n      tag_542\n      jump\t// in\n    tag_762:\n        /* \"#utility.yul\":23831:23833   */\n      0x20\n        /* \"#utility.yul\":23826:23829   */\n      dup3\n        /* \"#utility.yul\":23822:23834   */\n      add\n        /* \"#utility.yul\":23815:23834   */\n      swap1\n      pop\n        /* \"#utility.yul\":23474:23840   */\n      swap2\n      swap1\n      pop\n      jump\t// out\n        /* \"#utility.yul\":23846:24265   */\n    tag_193:\n        /* \"#utility.yul\":24012:24016   */\n      0x00\n        /* \"#utility.yul\":24050:24052   */\n      0x20\n        /* \"#utility.yul\":24039:24048   */\n      dup3\n        /* \"#utility.yul\":24035:24053   */\n      add\n        /* \"#utility.yul\":24027:24053   */\n      swap1\n      pop\n        /* \"#utility.yul\":24099:24108   */\n      dup2\n        /* \"#utility.yul\":24093:24097   */\n      dup2\n        /* \"#utility.yul\":24089:24109   */\n      sub\n        /* \"#utility.yul\":24085:24086   */\n      0x00\n        /* \"#utility.yul\":24074:24083   */\n      dup4\n        /* \"#utility.yul\":24070:24087   */\n      add\n        /* \"#utility.yul\":24063:24110   */\n      mstore\n        /* \"#utility.yul\":24127:24258   */\n      tag_764\n        /* \"#utility.yul\":24253:24257   */\n      dup2\n        /* \"#utility.yul\":24127:24258   */\n      tag_543\n      jump\t// in\n    tag_764:\n        /* \"#utility.yul\":24119:24258   */\n      swap1\n      pop\n        /* \"#utility.yul\":23846:24265   */\n      swap2\n      swap1\n      pop\n      jump\t// out\n        /* \"#utility.yul\":24271:24364   */\n    tag_544:\n        /* \"#utility.yul\":24308:24314   */\n      0x00\n        /* \"#utility.yul\":24355:24357   */\n      0x20\n        /* \"#utility.yul\":24350:24352   */\n      0x1f\n        /* \"#utility.yul\":24343:24348   */\n      dup4\n        /* \"#utility.yul\":24339:24353   */\n      add\n        /* \"#utility.yul\":24335:24358   */\n      div\n        /* \"#utility.yul\":24325:24358   */\n      swap1\n      pop\n        /* \"#utility.yul\":24271:24364   */\n      swap2\n      swap1\n      pop\n      jump\t// out\n        /* \"#utility.yul\":24370:24477   */\n    tag_545:\n        /* \"#utility.yul\":24414:24422   */\n      0x00\n        /* \"#utility.yul\":24464:24469   */\n      dup3\n        /* \"#utility.yul\":24458:24462   */\n      dup3\n        /* \"#utility.yul\":24454:24470   */\n      shl\n        /* \"#utility.yul\":24433:24470   */\n      swap1\n      pop\n        /* \"#utility.yul\":24370:24477   */\n      swap3\n      swap2\n      pop\n      pop\n      jump\t// out\n        /* \"#utility.yul\":24483:24876   */\n    tag_546:\n        /* \"#utility.yul\":24552:24558   */\n      0x00\n        /* \"#utility.yul\":24602:24603   */\n      0x08\n        /* \"#utility.yul\":24590:24600   */\n      dup4\n        /* \"#utility.yul\":24586:24604   */\n      mul\n        /* \"#utility.yul\":24625:24722   */\n      tag_768\n        /* \"#utility.yul\":24655:24721   */\n      0xffffffffffffffffffffffffffffffffffffffffffffffffffffffffffffffff\n        /* \"#utility.yul\":24644:24653   */\n      dup3\n        /* \"#utility.yul\":24625:24722   */\n      tag_545\n      jump\t// in\n    tag_768:\n        /* \"#utility.yul\":24743:24782   */\n      tag_769\n        /* \"#utility.yul\":24773:24781   */\n      dup7\n        /* \"#utility.yul\":24762:24771   */\n      dup4\n        /* \"#utility.yul\":24743:24782   */\n      tag_545\n      jump\t// in\n    tag_769:\n        /* \"#utility.yul\":24731:24782   */\n      swap6\n      pop\n        /* \"#utility.yul\":24815:24819   */\n      dup1\n        /* \"#utility.yul\":24811:24820   */\n      not\n        /* \"#utility.yul\":24804:24809   */\n      dup5\n        /* \"#utility.yul\":24800:24821   */\n      and\n        /* \"#utility.yul\":24791:24821   */\n      swap4\n      pop\n        /* \"#utility.yul\":24864:24868   */\n      dup1\n        /* \"#utility.yul\":24854:24862   */\n      dup7\n        /* \"#utility.yul\":24850:24869   */\n      and\n        /* \"#utility.yul\":24843:24848   */\n      dup5\n        /* \"#utility.yul\":24840:24870   */\n      or\n        /* \"#utility.yul\":24830:24870   */\n      swap3\n      pop\n        /* \"#utility.yul\":24559:24876   */\n      pop\n      pop\n        /* \"#utility.yul\":24483:24876   */\n      swap4\n      swap3\n      pop\n      pop\n      pop\n      jump\t// out\n        /* \"#utility.yul\":24882:24942   */\n    tag_547:\n        /* \"#utility.yul\":24910:24913   */\n      0x00\n        /* \"#utility.yul\":24931:24936   */\n      dup2\n        /* \"#utility.yul\":24924:24936   */\n      swap1\n      pop\n        /* \"#utility.yul\":24882:24942   */\n      swap2\n      swap1\n      pop\n      jump\t// out\n        /* \"#utility.yul\":24948:25090   */\n    tag_548:\n        /* \"#utility.yul\":24998:25007   */\n      0x00\n        /* \"#utility.yul\":25031:25084   */\n      tag_772\n        /* \"#utility.yul\":25049:25083   */\n      tag_773\n        /* \"#utility.yul\":25058:25082   */\n      tag_774\n        /* \"#utility.yul\":25076:25081   */\n      dup5\n        /* \"#utility.yul\":25058:25082   */\n      tag_505\n      jump\t// in\n    tag_774:\n        /* \"#utility.yul\":25049:25083   */\n      tag_547\n      jump\t// in\n    tag_773:\n        /* \"#utility.yul\":25031:25084   */\n      tag_505\n      jump\t// in\n    tag_772:\n        /* \"#utility.yul\":25018:25084   */\n      swap1\n      pop\n        /* \"#utility.yul\":24948:25090   */\n      swap2\n      swap1\n      pop\n      jump\t// out\n        /* \"#utility.yul\":25096:25171   */\n    tag_549:\n        /* \"#utility.yul\":25139:25142   */\n      0x00\n        /* \"#utility.yul\":25160:25165   */\n      dup2\n        /* \"#utility.yul\":25153:25165   */\n      swap1\n      pop\n        /* \"#utility.yul\":25096:25171   */\n      swap2\n      swap1\n      pop\n      jump\t// out\n        /* \"#utility.yul\":25177:25446   */\n    tag_550:\n        /* \"#utility.yul\":25287:25326   */\n      tag_777\n        /* \"#utility.yul\":25318:25325   */\n      dup4\n        /* \"#utility.yul\":25287:25326   */\n      tag_548\n      jump\t// in\n    tag_777:\n        /* \"#utility.yul\":25348:25439   */\n      tag_778\n        /* \"#utility.yul\":25397:25438   */\n      tag_779\n        /* \"#utility.yul\":25421:25437   */\n      dup3\n        /* \"#utility.yul\":25397:25438   */\n      tag_549\n      jump\t// in\n    tag_779:\n        /* \"#utility.yul\":25389:25395   */\n      dup5\n        /* \"#utility.yul\":25382:25386   */\n      dup5\n        /* \"#utility.yul\":25376:25387   */\n      sload\n        /* \"#utility.yul\":25348:25439   */\n      tag_546\n      jump\t// in\n    tag_778:\n        /* \"#utility.yul\":25342:25346   */\n      dup3\n        /* \"#utility.yul\":25335:25440   */\n      sstore\n        /* \"#utility.yul\":25253:25446   */\n      pop\n        /* \"#utility.yul\":25177:25446   */\n      pop\n      pop\n      pop\n      jump\t// out\n        /* \"#utility.yul\":25452:25525   */\n    tag_551:\n        /* \"#utility.yul\":25497:25500   */\n      0x00\n        /* \"#utility.yul\":25452:25525   */\n      swap1\n      jump\t// out\n        /* \"#utility.yul\":25531:25720   */\n    tag_552:\n        /* \"#utility.yul\":25608:25640   */\n      tag_782\n      tag_551\n      jump\t// in\n    tag_782:\n        /* \"#utility.yul\":25649:25714   */\n      tag_783\n        /* \"#utility.yul\":25707:25713   */\n      dup2\n        /* \"#utility.yul\":25699:25705   */\n      dup5\n        /* \"#utility.yul\":25693:25697   */\n      dup5\n        /* \"#utility.yul\":25649:25714   */\n      tag_550\n      jump\t// in\n    tag_783:\n        /* \"#utility.yul\":25584:25720   */\n      pop\n        /* \"#utility.yul\":25531:25720   */\n      pop\n      pop\n      jump\t// out\n        /* \"#utility.yul\":25726:25912   */\n    tag_553:\n        /* \"#utility.yul\":25786:25906   */\n    tag_785:\n        /* \"#utility.yul\":25803:25806   */\n      dup2\n        /* \"#utility.yul\":25796:25801   */\n      dup2\n        /* \"#utility.yul\":25793:25807   */\n      lt\n        /* \"#utility.yul\":25786:25906   */\n      iszero\n      tag_787\n      jumpi\n        /* \"#utility.yul\":25857:25896   */\n      tag_788\n        /* \"#utility.yul\":25894:25895   */\n      0x00\n        /* \"#utility.yul\":25887:25892   */\n      dup3\n        /* \"#utility.yul\":25857:25896   */\n      tag_552\n      jump\t// in\n    tag_788:\n        /* \"#utility.yul\":25830:25831   */\n      0x01\n        /* \"#utility.yul\":25823:25828   */\n      dup2\n        /* \"#utility.yul\":25819:25832   */\n      add\n        /* \"#utility.yul\":25810:25832   */\n      swap1\n      pop\n        /* \"#utility.yul\":25786:25906   */\n      jump(tag_785)\n    tag_787:\n        /* \"#utility.yul\":25726:25912   */\n      pop\n      pop\n      jump\t// out\n        /* \"#utility.yul\":25918:26461   */\n    tag_554:\n        /* \"#utility.yul\":26019:26021   */\n      0x1f\n        /* \"#utility.yul\":26014:26017   */\n      dup3\n        /* \"#utility.yul\":26011:26022   */\n      gt\n        /* \"#utility.yul\":26008:26454   */\n      iszero\n      tag_790\n      jumpi\n        /* \"#utility.yul\":26053:26091   */\n      tag_791\n        /* \"#utility.yul\":26085:26090   */\n      dup2\n        /* \"#utility.yul\":26053:26091   */\n      tag_532\n      jump\t// in\n    tag_791:\n        /* \"#utility.yul\":26137:26166   */\n      tag_792\n        /* \"#utility.yul\":26155:26165   */\n      dup5\n        /* \"#utility.yul\":26137:26166   */\n      tag_544\n      jump\t// in\n    tag_792:\n        /* \"#utility.yul\":26127:26135   */\n      dup2\n        /* \"#utility.yul\":26123:26167   */\n      add\n        /* \"#utility.yul\":26320:26322   */\n      0x20\n        /* \"#utility.yul\":26308:26318   */\n      dup6\n        /* \"#utility.yul\":26305:26323   */\n      lt\n        /* \"#utility.yul\":26302:26351   */\n      iszero\n      tag_793\n      jumpi\n        /* \"#utility.yul\":26341:26349   */\n      dup2\n        /* \"#utility.yul\":26326:26349   */\n      swap1\n      pop\n        /* \"#utility.yul\":26302:26351   */\n    tag_793:\n        /* \"#utility.yul\":26364:26444   */\n      tag_794\n        /* \"#utility.yul\":26420:26442   */\n      tag_795\n        /* \"#utility.yul\":26438:26441   */\n      dup6\n        /* \"#utility.yul\":26420:26442   */\n      tag_544\n      jump\t// in\n    tag_795:\n        /* \"#utility.yul\":26410:26418   */\n      dup4\n        /* \"#utility.yul\":26406:26443   */\n      add\n        /* \"#utility.yul\":26393:26404   */\n      dup3\n        /* \"#utility.yul\":26364:26444   */\n      tag_553\n      jump\t// in\n    tag_794:\n        /* \"#utility.yul\":26023:26454   */\n      pop\n      pop\n        /* \"#utility.yul\":26008:26454   */\n    tag_790:\n        /* \"#utility.yul\":25918:26461   */\n      pop\n      pop\n      pop\n      jump\t// out\n        /* \"#utility.yul\":26467:26584   */\n    tag_555:\n        /* \"#utility.yul\":26521:26529   */\n      0x00\n        /* \"#utility.yul\":26571:26576   */\n      dup3\n        /* \"#utility.yul\":26565:26569   */\n      dup3\n        /* \"#utility.yul\":26561:26577   */\n      shr\n        /* \"#utility.yul\":26540:26577   */\n      swap1\n      pop\n        /* \"#utility.yul\":26467:26584   */\n      swap3\n      swap2\n      pop\n      pop\n      jump\t// out\n        /* \"#utility.yul\":26590:26759   */\n    tag_556:\n        /* \"#utility.yul\":26634:26640   */\n      0x00\n        /* \"#utility.yul\":26667:26718   */\n      tag_798\n        /* \"#utility.yul\":26715:26716   */\n      0x00\n        /* \"#utility.yul\":26711:26717   */\n      not\n        /* \"#utility.yul\":26703:26708   */\n      dup5\n        /* \"#utility.yul\":26700:26701   */\n      0x08\n        /* \"#utility.yul\":26696:26709   */\n      mul\n        /* \"#utility.yul\":26667:26718   */\n      tag_555\n      jump\t// in\n    tag_798:\n        /* \"#utility.yul\":26663:26719   */\n      not\n        /* \"#utility.yul\":26748:26752   */\n      dup1\n        /* \"#utility.yul\":26742:26746   */\n      dup4\n        /* \"#utility.yul\":26738:26753   */\n      and\n        /* \"#utility.yul\":26728:26753   */\n      swap2\n      pop\n        /* \"#utility.yul\":26641:26759   */\n      pop\n        /* \"#utility.yul\":26590:26759   */\n      swap3\n      swap2\n      pop\n      pop\n      jump\t// out\n        /* \"#utility.yul\":26764:27059   */\n    tag_557:\n        /* \"#utility.yul\":26840:26844   */\n      0x00\n        /* \"#utility.yul\":26986:27015   */\n      tag_800\n        /* \"#utility.yul\":27011:27014   */\n      dup4\n        /* \"#utility.yul\":27005:27009   */\n      dup4\n        /* \"#utility.yul\":26986:27015   */\n      tag_556\n      jump\t// in\n    tag_800:\n        /* \"#utility.yul\":26978:27015   */\n      swap2\n      pop\n        /* \"#utility.yul\":27048:27051   */\n      dup3\n        /* \"#utility.yul\":27045:27046   */\n      0x02\n        /* \"#utility.yul\":27041:27052   */\n      mul\n        /* \"#utility.yul\":27035:27039   */\n      dup3\n        /* \"#utility.yul\":27032:27053   */\n      or\n        /* \"#utility.yul\":27024:27053   */\n      swap1\n      pop\n        /* \"#utility.yul\":26764:27059   */\n      swap3\n      swap2\n      pop\n      pop\n      jump\t// out\n        /* \"#utility.yul\":27064:28459   */\n    tag_419:\n        /* \"#utility.yul\":27181:27218   */\n      tag_802\n        /* \"#utility.yul\":27214:27217   */\n      dup3\n        /* \"#utility.yul\":27181:27218   */\n      tag_511\n      jump\t// in\n    tag_802:\n        /* \"#utility.yul\":27283:27301   */\n      0xffffffffffffffff\n        /* \"#utility.yul\":27275:27281   */\n      dup2\n        /* \"#utility.yul\":27272:27302   */\n      gt\n        /* \"#utility.yul\":27269:27325   */\n      iszero\n      tag_803\n      jumpi\n        /* \"#utility.yul\":27305:27323   */\n      tag_804\n      tag_498\n      jump\t// in\n    tag_804:\n        /* \"#utility.yul\":27269:27325   */\n    tag_803:\n        /* \"#utility.yul\":27349:27387   */\n      tag_805\n        /* \"#utility.yul\":27381:27385   */\n      dup3\n        /* \"#utility.yul\":27375:27386   */\n      sload\n        /* \"#utility.yul\":27349:27387   */\n      tag_96\n      jump\t// in\n    tag_805:\n        /* \"#utility.yul\":27434:27501   */\n      tag_806\n        /* \"#utility.yul\":27494:27500   */\n      dup3\n        /* \"#utility.yul\":27486:27492   */\n      dup3\n        /* \"#utility.yul\":27480:27484   */\n      dup6\n        /* \"#utility.yul\":27434:27501   */\n      tag_554\n      jump\t// in\n    tag_806:\n        /* \"#utility.yul\":27528:27529   */\n      0x00\n        /* \"#utility.yul\":27552:27556   */\n      0x20\n        /* \"#utility.yul\":27539:27556   */\n      swap1\n      pop\n        /* \"#utility.yul\":27584:27586   */\n      0x1f\n        /* \"#utility.yul\":27576:27582   */\n      dup4\n        /* \"#utility.yul\":27573:27587   */\n      gt\n        /* \"#utility.yul\":27601:27602   */\n      0x01\n        /* \"#utility.yul\":27596:28214   */\n      dup2\n      eq\n      tag_808\n      jumpi\n        /* \"#utility.yul\":28258:28259   */\n      0x00\n        /* \"#utility.yul\":28275:28281   */\n      dup5\n        /* \"#utility.yul\":28272:28349   */\n      iszero\n      tag_809\n      jumpi\n        /* \"#utility.yul\":28324:28333   */\n      dup3\n        /* \"#utility.yul\":28319:28322   */\n      dup8\n        /* \"#utility.yul\":28315:28334   */\n      add\n        /* \"#utility.yul\":28309:28335   */\n      mload\n        /* \"#utility.yul\":28300:28335   */\n      swap1\n      pop\n        /* \"#utility.yul\":28272:28349   */\n    tag_809:\n        /* \"#utility.yul\":28375:28442   */\n      tag_810\n        /* \"#utility.yul\":28435:28441   */\n      dup6\n        /* \"#utility.yul\":28428:28433   */\n      dup3\n        /* \"#utility.yul\":28375:28442   */\n      tag_557\n      jump\t// in\n    tag_810:\n        /* \"#utility.yul\":28369:28373   */\n      dup7\n        /* \"#utility.yul\":28362:28443   */\n      sstore\n        /* \"#utility.yul\":28231:28453   */\n      pop\n        /* \"#utility.yul\":27566:28453   */\n      jump(tag_807)\n        /* \"#utility.yul\":27596:28214   */\n    tag_808:\n        /* \"#utility.yul\":27648:27652   */\n      0x1f\n        /* \"#utility.yul\":27644:27653   */\n      not\n        /* \"#utility.yul\":27636:27642   */\n      dup5\n        /* \"#utility.yul\":27632:27654   */\n      and\n        /* \"#utility.yul\":27682:27719   */\n      tag_811\n        /* \"#utility.yul\":27714:27718   */\n      dup7\n        /* \"#utility.yul\":27682:27719   */\n      tag_532\n      jump\t// in\n    tag_811:\n        /* \"#utility.yul\":27741:27742   */\n      0x00\n        /* \"#utility.yul\":27755:27963   */\n    tag_812:\n        /* \"#utility.yul\":27769:27776   */\n      dup3\n        /* \"#utility.yul\":27766:27767   */\n      dup2\n        /* \"#utility.yul\":27763:27777   */\n      lt\n        /* \"#utility.yul\":27755:27963   */\n      iszero\n      tag_814\n      jumpi\n        /* \"#utility.yul\":27848:27857   */\n      dup5\n        /* \"#utility.yul\":27843:27846   */\n      dup10\n        /* \"#utility.yul\":27839:27858   */\n      add\n        /* \"#utility.yul\":27833:27859   */\n      mload\n        /* \"#utility.yul\":27825:27831   */\n      dup3\n        /* \"#utility.yul\":27818:27860   */\n      sstore\n        /* \"#utility.yul\":27899:27900   */\n      0x01\n        /* \"#utility.yul\":27891:27897   */\n      dup3\n        /* \"#utility.yul\":27887:27901   */\n      add\n        /* \"#utility.yul\":27877:27901   */\n      swap2\n      pop\n        /* \"#utility.yul\":27946:27948   */\n      0x20\n        /* \"#utility.yul\":27935:27944   */\n      dup6\n        /* \"#utility.yul\":27931:27949   */\n      add\n        /* \"#utility.yul\":27918:27949   */\n      swap5\n      pop\n        /* \"#utility.yul\":27792:27796   */\n      0x20\n        /* \"#utility.yul\":27789:27790   */\n      dup2\n        /* \"#utility.yul\":27785:27797   */\n      add\n        /* \"#utility.yul\":27780:27797   */\n      swap1\n      pop\n        /* \"#utility.yul\":27755:27963   */\n      jump(tag_812)\n    tag_814:\n        /* \"#utility.yul\":27991:27997   */\n      dup7\n        /* \"#utility.yul\":27982:27989   */\n      dup4\n        /* \"#utility.yul\":27979:27998   */\n      lt\n        /* \"#utility.yul\":27976:28155   */\n      iszero\n      tag_815\n      jumpi\n        /* \"#utility.yul\":28049:28058   */\n      dup5\n        /* \"#utility.yul\":28044:28047   */\n      dup10\n        /* \"#utility.yul\":28040:28059   */\n      add\n        /* \"#utility.yul\":28034:28060   */\n      mload\n        /* \"#utility.yul\":28092:28140   */\n      tag_816\n        /* \"#utility.yul\":28134:28138   */\n      0x1f\n        /* \"#utility.yul\":28126:28132   */\n      dup10\n        /* \"#utility.yul\":28122:28139   */\n      and\n        /* \"#utility.yul\":28111:28120   */\n      dup3\n        /* \"#utility.yul\":28092:28140   */\n      tag_556\n      jump\t// in\n    tag_816:\n        /* \"#utility.yul\":28084:28090   */\n      dup4\n        /* \"#utility.yul\":28077:28141   */\n      sstore\n        /* \"#utility.yul\":27999:28155   */\n      pop\n        /* \"#utility.yul\":27976:28155   */\n    tag_815:\n        /* \"#utility.yul\":28201:28202   */\n      0x01\n        /* \"#utility.yul\":28197:28198   */\n      0x02\n        /* \"#utility.yul\":28189:28195   */\n      dup9\n        /* \"#utility.yul\":28185:28199   */\n      mul\n        /* \"#utility.yul\":28181:28203   */\n      add\n        /* \"#utility.yul\":28175:28179   */\n      dup9\n        /* \"#utility.yul\":28168:28204   */\n      sstore\n        /* \"#utility.yul\":27603:28214   */\n      pop\n      pop\n      pop\n        /* \"#utility.yul\":27566:28453   */\n    tag_807:\n      pop\n        /* \"#utility.yul\":27156:28459   */\n      pop\n      pop\n      pop\n        /* \"#utility.yul\":27064:28459   */\n      pop\n      pop\n      jump\t// out\n        /* \"#utility.yul\":28465:28659   */\n    tag_455:\n        /* \"#utility.yul\":28505:28509   */\n      0x00\n        /* \"#utility.yul\":28525:28545   */\n      tag_818\n        /* \"#utility.yul\":28543:28544   */\n      dup3\n        /* \"#utility.yul\":28525:28545   */\n      tag_505\n      jump\t// in\n    tag_818:\n        /* \"#utility.yul\":28520:28545   */\n      swap2\n      pop\n        /* \"#utility.yul\":28559:28579   */\n      tag_819\n        /* \"#utility.yul\":28577:28578   */\n      dup4\n        /* \"#utility.yul\":28559:28579   */\n      tag_505\n      jump\t// in\n    tag_819:\n        /* \"#utility.yul\":28554:28579   */\n      swap3\n      pop\n        /* \"#utility.yul\":28603:28604   */\n      dup3\n        /* \"#utility.yul\":28600:28601   */\n      dup3\n        /* \"#utility.yul\":28596:28605   */\n      sub\n        /* \"#utility.yul\":28588:28605   */\n      swap1\n      pop\n        /* \"#utility.yul\":28627:28628   */\n      dup2\n        /* \"#utility.yul\":28621:28625   */\n      dup2\n        /* \"#utility.yul\":28618:28629   */\n      gt\n        /* \"#utility.yul\":28615:28652   */\n      iszero\n      tag_820\n      jumpi\n        /* \"#utility.yul\":28632:28650   */\n      tag_821\n      tag_536\n      jump\t// in\n    tag_821:\n        /* \"#utility.yul\":28615:28652   */\n    tag_820:\n        /* \"#utility.yul\":28465:28659   */\n      swap3\n      swap2\n      pop\n      pop\n      jump\t// out\n        /* \"#utility.yul\":28665:28814   */\n    tag_558:\n        /* \"#utility.yul\":28714:28720   */\n      0x00\n        /* \"#utility.yul\":28748:28753   */\n      dup2\n        /* \"#utility.yul\":28742:28754   */\n      sload\n        /* \"#utility.yul\":28732:28754   */\n      swap1\n      pop\n        /* \"#utility.yul\":28774:28807   */\n      tag_823\n        /* \"#utility.yul\":28800:28806   */\n      dup2\n        /* \"#utility.yul\":28774:28807   */\n      tag_96\n      jump\t// in\n    tag_823:\n        /* \"#utility.yul\":28764:28807   */\n      swap1\n      pop\n        /* \"#utility.yul\":28665:28814   */\n      swap2\n      swap1\n      pop\n      jump\t// out\n        /* \"#utility.yul\":28820:30271   */\n    tag_463:\n        /* \"#utility.yul\":28931:28934   */\n      dup2\n        /* \"#utility.yul\":28925:28929   */\n      dup2\n        /* \"#utility.yul\":28922:28935   */\n      sub\n        /* \"#utility.yul\":28919:28945   */\n      tag_825\n      jumpi\n        /* \"#utility.yul\":28938:28943   */\n      pop\n      pop\n      jump(tag_824)\n        /* \"#utility.yul\":28919:28945   */\n    tag_825:\n        /* \"#utility.yul\":28969:29003   */\n      tag_826\n        /* \"#utility.yul\":28999:29002   */\n      dup3\n        /* \"#utility.yul\":28969:29003   */\n      tag_558\n      jump\t// in\n    tag_826:\n        /* \"#utility.yul\":29068:29086   */\n      0xffffffffffffffff\n        /* \"#utility.yul\":29060:29066   */\n      dup2\n        /* \"#utility.yul\":29057:29087   */\n      gt\n        /* \"#utility.yul\":29054:29110   */\n      iszero\n      tag_827\n      jumpi\n        /* \"#utility.yul\":29090:29108   */\n      tag_828\n      tag_498\n      jump\t// in\n    tag_828:\n        /* \"#utility.yul\":29054:29110   */\n    tag_827:\n        /* \"#utility.yul\":29134:29172   */\n      tag_829\n        /* \"#utility.yul\":29166:29170   */\n      dup3\n        /* \"#utility.yul\":29160:29171   */\n      sload\n        /* \"#utility.yul\":29134:29172   */\n      tag_96\n      jump\t// in\n    tag_829:\n        /* \"#utility.yul\":29219:29286   */\n      tag_830\n        /* \"#utility.yul\":29279:29285   */\n      dup3\n        /* \"#utility.yul\":29271:29277   */\n      dup3\n        /* \"#utility.yul\":29265:29269   */\n      dup6\n        /* \"#utility.yul\":29219:29286   */\n      tag_554\n      jump\t// in\n    tag_830:\n        /* \"#utility.yul\":29313:29314   */\n      0x00\n        /* \"#utility.yul\":29342:29344   */\n      0x1f\n        /* \"#utility.yul\":29334:29340   */\n      dup4\n        /* \"#utility.yul\":29331:29345   */\n      gt\n        /* \"#utility.yul\":29359:29360   */\n      0x01\n        /* \"#utility.yul\":29354:30026   */\n      dup2\n      eq\n      tag_832\n      jumpi\n        /* \"#utility.yul\":30070:30071   */\n      0x00\n        /* \"#utility.yul\":30087:30093   */\n      dup5\n        /* \"#utility.yul\":30084:30161   */\n      iszero\n      tag_833\n      jumpi\n        /* \"#utility.yul\":30136:30145   */\n      dup3\n        /* \"#utility.yul\":30131:30134   */\n      dup8\n        /* \"#utility.yul\":30127:30146   */\n      add\n        /* \"#utility.yul\":30121:30147   */\n      sload\n        /* \"#utility.yul\":30112:30147   */\n      swap1\n      pop\n        /* \"#utility.yul\":30084:30161   */\n    tag_833:\n        /* \"#utility.yul\":30187:30254   */\n      tag_834\n        /* \"#utility.yul\":30247:30253   */\n      dup6\n        /* \"#utility.yul\":30240:30245   */\n      dup3\n        /* \"#utility.yul\":30187:30254   */\n      tag_557\n      jump\t// in\n    tag_834:\n        /* \"#utility.yul\":30181:30185   */\n      dup7\n        /* \"#utility.yul\":30174:30255   */\n      sstore\n        /* \"#utility.yul\":30043:30265   */\n      pop\n        /* \"#utility.yul\":29324:30265   */\n      jump(tag_831)\n        /* \"#utility.yul\":29354:30026   */\n    tag_832:\n        /* \"#utility.yul\":29406:29410   */\n      0x1f\n        /* \"#utility.yul\":29402:29411   */\n      not\n        /* \"#utility.yul\":29394:29400   */\n      dup5\n        /* \"#utility.yul\":29390:29412   */\n      and\n        /* \"#utility.yul\":29432:29468   */\n      tag_835\n        /* \"#utility.yul\":29464:29467   */\n      dup8\n        /* \"#utility.yul\":29432:29468   */\n      tag_532\n      jump\t// in\n    tag_835:\n        /* \"#utility.yul\":29425:29468   */\n      swap7\n      pop\n        /* \"#utility.yul\":29495:29532   */\n      tag_836\n        /* \"#utility.yul\":29527:29531   */\n      dup7\n        /* \"#utility.yul\":29495:29532   */\n      tag_532\n      jump\t// in\n    tag_836:\n        /* \"#utility.yul\":29554:29555   */\n      0x00\n        /* \"#utility.yul\":29568:29775   */\n    tag_837:\n        /* \"#utility.yul\":29582:29589   */\n      dup3\n        /* \"#utility.yul\":29579:29580   */\n      dup2\n        /* \"#utility.yul\":29576:29590   */\n      lt\n        /* \"#utility.yul\":29568:29775   */\n      iszero\n      tag_839\n      jumpi\n        /* \"#utility.yul\":29661:29670   */\n      dup5\n        /* \"#utility.yul\":29656:29659   */\n      dup10\n        /* \"#utility.yul\":29652:29671   */\n      add\n        /* \"#utility.yul\":29646:29672   */\n      sload\n        /* \"#utility.yul\":29638:29644   */\n      dup3\n        /* \"#utility.yul\":29631:29673   */\n      sstore\n        /* \"#utility.yul\":29712:29713   */\n      0x01\n        /* \"#utility.yul\":29704:29710   */\n      dup3\n        /* \"#utility.yul\":29700:29714   */\n      add\n        /* \"#utility.yul\":29690:29714   */\n      swap2\n      pop\n        /* \"#utility.yul\":29759:29760   */\n      0x01\n        /* \"#utility.yul\":29748:29757   */\n      dup6\n        /* \"#utility.yul\":29744:29761   */\n      add\n        /* \"#utility.yul\":29731:29761   */\n      swap5\n      pop\n        /* \"#utility.yul\":29605:29609   */\n      0x20\n        /* \"#utility.yul\":29602:29603   */\n      dup2\n        /* \"#utility.yul\":29598:29610   */\n      add\n        /* \"#utility.yul\":29593:29610   */\n      swap1\n      pop\n        /* \"#utility.yul\":29568:29775   */\n      jump(tag_837)\n    tag_839:\n        /* \"#utility.yul\":29803:29809   */\n      dup7\n        /* \"#utility.yul\":29794:29801   */\n      dup4\n        /* \"#utility.yul\":29791:29810   */\n      lt\n        /* \"#utility.yul\":29788:29967   */\n      iszero\n      tag_840\n      jumpi\n        /* \"#utility.yul\":29861:29870   */\n      dup5\n        /* \"#utility.yul\":29856:29859   */\n      dup10\n        /* \"#utility.yul\":29852:29871   */\n      add\n        /* \"#utility.yul\":29846:29872   */\n      sload\n        /* \"#utility.yul\":29904:29952   */\n      tag_841\n        /* \"#utility.yul\":29946:29950   */\n      0x1f\n        /* \"#utility.yul\":29938:29944   */\n      dup10\n        /* \"#utility.yul\":29934:29951   */\n      and\n        /* \"#utility.yul\":29923:29932   */\n      dup3\n        /* \"#utility.yul\":29904:29952   */\n      tag_556\n      jump\t// in\n    tag_841:\n        /* \"#utility.yul\":29896:29902   */\n      dup4\n        /* \"#utility.yul\":29889:29953   */\n      sstore\n        /* \"#utility.yul\":29811:29967   */\n      pop\n        /* \"#utility.yul\":29788:29967   */\n    tag_840:\n        /* \"#utility.yul\":30013:30014   */\n      0x01\n        /* \"#utility.yul\":30009:30010   */\n      0x02\n        /* \"#utility.yul\":30001:30007   */\n      dup9\n        /* \"#utility.yul\":29997:30011   */\n      mul\n        /* \"#utility.yul\":29993:30015   */\n      add\n        /* \"#utility.yul\":29987:29991   */\n      dup9\n        /* \"#utility.yul\":29980:30016   */\n      sstore\n        /* \"#utility.yul\":29361:30026   */\n      pop\n      pop\n      pop\n        /* \"#utility.yul\":29324:30265   */\n    tag_831:\n      pop\n        /* \"#utility.yul\":28909:30271   */\n      pop\n      pop\n      pop\n        /* \"#utility.yul\":28820:30271   */\n      pop\n      pop\n    tag_824:\n      jump\t// out\n        /* \"#utility.yul\":30277:30457   */\n    tag_475:\n        /* \"#utility.yul\":30325:30402   */\n      0x4e487b7100000000000000000000000000000000000000000000000000000000\n        /* \"#utility.yul\":30322:30323   */\n      0x00\n        /* \"#utility.yul\":30315:30403   */\n      mstore\n        /* \"#utility.yul\":30422:30426   */\n      0x31\n        /* \"#utility.yul\":30419:30420   */\n      0x04\n        /* \"#utility.yul\":30412:30427   */\n      mstore\n        /* \"#utility.yul\":30446:30450   */\n      0x24\n        /* \"#utility.yul\":30443:30444   */\n      0x00\n        /* \"#utility.yul\":30436:30451   */\n      revert\n\n    auxdata: 0xa264697066735822122000c1f07ec5ad6530ce93800eeb9610c0a721f8846a6e8fecadd3426e0e4fa4cd64736f6c634300081a0033\n}\n",
				"bytecode": {
					"linkReferences": {},
					"object": "6080604052604051806101400160405280604051806101400160405280600160ff168152602001600160ff1681526020015f60ff1681526020015f60ff1681526020015f60ff1681526020015f60ff168152602001600160ff168152602001600160ff1681526020015f60ff1681526020015f60ff1681525081526020016040518061014001604052805f60ff168152602001600160ff1681526020015f60ff1681526020015f60ff1681526020015f60ff1681526020015f60ff1681526020015f60ff168152602001600160ff1681526020015f60ff1681526020015f60ff1681525081526020016040518061014001604052805f60ff1681526020015f60ff168152602001600160ff168152602001600160ff1681526020015f60ff1681526020015f60ff168152602001600160ff168152602001600160ff1681526020015f60ff1681526020015f60ff1681525081526020016040518061014001604052805f60ff1681526020015f60ff1681526020015f60ff168152602001600160ff1681526020015f60ff1681526020015f60ff1681526020015f60ff168152602001600160ff1681526020015f60ff1681526020015f60ff168152508152602001604051806101400160405280600160ff168152602001600160ff168152602001600160ff168152602001600160ff168152602001600160ff168152602001600160ff168152602001600160ff168152602001600160ff1681526020015f60ff1681526020015f60ff1681525081526020016040518061014001604052805f60ff168152602001600160ff1681526020015f60ff168152602001600160ff1681526020015f60ff168152602001600160ff1681526020015f60ff168152602001600160ff1681526020015f60ff1681526020015f60ff1681525081526020016040518061014001604052805f60ff1681526020015f60ff1681526020015f60ff1681526020015f60ff1681526020015f60ff1681526020015f60ff168152602001600160ff168152602001600160ff1681526020015f60ff1681526020015f60ff1681525081526020016040518061014001604052805f60ff1681526020015f60ff1681526020015f60ff1681526020015f60ff1681526020015f60ff1681526020015f60ff1681526020015f60ff168152602001600160ff1681526020015f60ff1681526020015f60ff1681525081526020016040518061014001604052805f60ff1681526020015f60ff1681526020015f60ff1681526020015f60ff1681526020015f60ff1681526020015f60ff1681526020015f60ff1681526020015f60ff168152602001600160ff1681526020015f60ff1681525081526020016040518061014001604052805f60ff1681526020015f60ff1681526020015f60ff1681526020015f60ff1681526020015f60ff1681526020015f60ff1681526020015f60ff1681526020015f60ff1681526020015f60ff168152602001600160ff16815250815250600690600a61045592919061059c565b50348015610461575f80fd5b50604051613a8c380380613a8c833981810160405281019061048391906107cf565b8260405160200161049491906108b7565b604051602081830303815290604052805190602001205f819055505f546040516020016104c191906108f6565b604051602081830303815290604052805190602001205f81905550816040516020016104ed91906108b7565b6040516020818303038152906040528051906020012060018190555060015460405160200161051c91906108f6565b604051602081830303815290604052805190602001206001819055508060405160200161054991906108b7565b6040516020818303038152906040528051906020012060028190555060025460405160200161057891906108f6565b60405160208183030381529060405280519060200120600281905550505050610910565b82600a800281019282156105db579160200282015b828111156105da5782518290600a6105ca9291906105ec565b50916020019190600a01906105b1565b5b5090506105e89190610631565b5090565b82600a8101928215610620579160200282015b8281111561061f578251829060ff169055916020019190600101906105ff565b5b50905061062d9190610654565b5090565b5b80821115610650575f8181610647919061066f565b50600a01610632565b5090565b5b8082111561066b575f815f905550600101610655565b5090565b5080600a019061067f9190610654565b50565b5f604051905090565b5f80fd5b5f80fd5b5f80fd5b5f80fd5b5f601f19601f8301169050919050565b7f4e487b71000000000000000000000000000000000000000000000000000000005f52604160045260245ffd5b6106e18261069b565b810181811067ffffffffffffffff82111715610700576106ff6106ab565b5b80604052505050565b5f610712610682565b905061071e82826106d8565b919050565b5f67ffffffffffffffff82111561073d5761073c6106ab565b5b6107468261069b565b9050602081019050919050565b8281835e5f83830152505050565b5f61077361076e84610723565b610709565b90508281526020810184848401111561078f5761078e610697565b5b61079a848285610753565b509392505050565b5f82601f8301126107b6576107b5610693565b5b81516107c6848260208601610761565b91505092915050565b5f805f606084860312156107e6576107e561068b565b5b5f84015167ffffffffffffffff8111156108035761080261068f565b5b61080f868287016107a2565b935050602084015167ffffffffffffffff8111156108305761082f61068f565b5b61083c868287016107a2565b925050604084015167ffffffffffffffff81111561085d5761085c61068f565b5b610869868287016107a2565b9150509250925092565b5f81519050919050565b5f81905092915050565b5f61089182610873565b61089b818561087d565b93506108ab818560208601610753565b80840191505092915050565b5f6108c28284610887565b915081905092915050565b5f819050919050565b5f819050919050565b6108f06108eb826108cd565b6108d6565b82525050565b5f61090182846108df565b60208201915081905092915050565b61316f8061091d5f395ff3fe608060405234801561000f575f80fd5b5060043610610055575f3560e01c8063641d79d214610059578063963e9f1f14610075578063ae9ec457146100a5578063b0bd7503146100d5578063c005a930146100f1575b5f80fd5b610073600480360381019061006e91906123d4565b610121565b005b61008f600480360381019061008a919061249f565b6109cf565b60405161009c9190612691565b60405180910390f35b6100bf60048036038101906100ba919061249f565b610c82565b6040516100cc9190612691565b60405180910390f35b6100ef60048036038101906100ea91906126b1565b610f34565b005b61010b6004803603810190610106919061249f565b6117e0565b604051610118919061292a565b60405180910390f35b60088314806101305750600983145b1561015a57604051806020016040528084815250606a9060016101549291906121b1565b506101ce565b5f5b60088110156101cc576001600685600a811061017b5761017a61294a565b5b600a020182600a81106101915761019061294a565b5b0154036101bf57606a81908060018154018082558091505060019003905f5260205f20015f90919091909150555b808060010191505061015c565b505b5f805b6003805490508110156109b1578580519060200120600382815481106101fa576101f961294a565b5b905f5260205f2090600502016002016040516102169190612a70565b6040518091039020036109a4575f5b606a805490508110156109a257606a81815481106102465761024561294a565b5b905f5260205f200154600383815481106102635761026261294a565b5b905f5260205f209060050201600101540361099557600192507f7b68a667d52b8bacd836d1815f339828fd05ba2d41ddacb7ab48c6145d88b566600383815481106102b1576102b061294a565b5b905f5260205f2090600502015f01600384815481106102d3576102d261294a565b5b905f5260205f20906005020160010154600385815481106102f7576102f661294a565b5b905f5260205f2090600502016002016003868154811061031a5761031961294a565b5b905f5260205f209060050201600301546003878154811061033e5761033d61294a565b5b905f5260205f20906005020160040160405161035e959493929190612b38565b60405180910390a15f6003838154811061037b5761037a61294a565b5b905f5260205f20906005020160030154866103969190612bd4565b90505f81131561058c5761056c600384815481106103b7576103b661294a565b5b905f5260205f2090600502015f0180546103d0906129a4565b80601f01602080910402602001604051908101604052809291908181526020018280546103fc906129a4565b80156104475780601f1061041e57610100808354040283529160200191610447565b820191905f5260205f20905b81548152906001019060200180831161042a57829003601f168201915b50505050508a600386815481106104615761046061294a565b5b905f5260205f209060050201600101548a8c600389815481106104875761048661294a565b5b905f5260205f209060050201600301548c60038b815481106104ac576104ab61294a565b5b905f5260205f2090600502016003015460038c815481106104d0576104cf61294a565b5b905f5260205f20906005020160040180546104ea906129a4565b80601f0160208091040260200160405190810160405280929190818152602001828054610516906129a4565b80156105615780601f1061053857610100808354040283529160200191610561565b820191905f5260205f20905b81548152906001019060200180831161054457829003601f168201915b50505050508e611bd2565b61057b89888a84896001611cf3565b610586600384611e31565b506109a2565b5f81036107705761075f600384815481106105aa576105a961294a565b5b905f5260205f2090600502015f0180546105c3906129a4565b80601f01602080910402602001604051908101604052809291908181526020018280546105ef906129a4565b801561063a5780601f106106115761010080835404028352916020019161063a565b820191905f5260205f20905b81548152906001019060200180831161061d57829003601f168201915b50505050508a600386815481106106545761065361294a565b5b905f5260205f209060050201600101548a8c6003898154811061067a5761067961294a565b5b905f5260205f209060050201600301548c60038b8154811061069f5761069e61294a565b5b905f5260205f2090600502016003015460038c815481106106c3576106c261294a565b5b905f5260205f20906005020160040180546106dd906129a4565b80601f0160208091040260200160405190810160405280929190818152602001828054610709906129a4565b80156107545780601f1061072b57610100808354040283529160200191610754565b820191905f5260205f20905b81548152906001019060200180831161073757829003601f168201915b50505050508e611bd2565b61076a600384611e31565b506109a2565b61093c600384815481106107875761078661294a565b5b905f5260205f2090600502015f0180546107a0906129a4565b80601f01602080910402602001604051908101604052809291908181526020018280546107cc906129a4565b80156108175780601f106107ee57610100808354040283529160200191610817565b820191905f5260205f20905b8154815290600101906020018083116107fa57829003601f168201915b50505050508a600386815481106108315761083061294a565b5b905f5260205f209060050201600101548a8c600389815481106108575761085661294a565b5b905f5260205f209060050201600301548c60038b8154811061087c5761087b61294a565b5b905f5260205f2090600502016003015460038c815481106108a05761089f61294a565b5b905f5260205f20906005020160040180546108ba906129a4565b80601f01602080910402602001604051908101604052809291908181526020018280546108e6906129a4565b80156109315780601f1061090857610100808354040283529160200191610931565b820191905f5260205f20905b81548152906001019060200180831161091457829003601f168201915b50505050508e611bd2565b7fffffffffffffffffffffffffffffffffffffffffffffffffffffffffffffffff816109689190612c14565b6003848154811061097c5761097b61294a565b5b905f5260205f20906005020160030181905550506109a2565b8080600101915050610225565b505b80806001019150506101d1565b50806109c7576109c686858786866001611cf3565b5b505050505050565b606081600154816040516020016109e69190612cc4565b60405160208183030381529060405280519060200120604051602001610a0c9190612d03565b6040516020818303038152906040528051906020012014610a62576040517f08c379a0000000000000000000000000000000000000000000000000000000008152600401610a5990612d67565b60405180910390fd5b6004805480602002602001604051908101604052809291908181526020015f905b82821015610c76578382905f5260205f2090600502016040518060a00160405290815f82018054610ab3906129a4565b80601f0160208091040260200160405190810160405280929190818152602001828054610adf906129a4565b8015610b2a5780601f10610b0157610100808354040283529160200191610b2a565b820191905f5260205f20905b815481529060010190602001808311610b0d57829003601f168201915b5050505050815260200160018201548152602001600282018054610b4d906129a4565b80601f0160208091040260200160405190810160405280929190818152602001828054610b79906129a4565b8015610bc45780601f10610b9b57610100808354040283529160200191610bc4565b820191905f5260205f20905b815481529060010190602001808311610ba757829003601f168201915b5050505050815260200160038201548152602001600482018054610be7906129a4565b80601f0160208091040260200160405190810160405280929190818152602001828054610c13906129a4565b8015610c5e5780601f10610c3557610100808354040283529160200191610c5e565b820191905f5260205f20905b815481529060010190602001808311610c4157829003601f168201915b50505050508152505081526020019060010190610a83565b50505050915050919050565b6060815f5481604051602001610c989190612cc4565b60405160208183030381529060405280519060200120604051602001610cbe9190612d03565b6040516020818303038152906040528051906020012014610d14576040517f08c379a0000000000000000000000000000000000000000000000000000000008152600401610d0b90612d67565b60405180910390fd5b6003805480602002602001604051908101604052809291908181526020015f905b82821015610f28578382905f5260205f2090600502016040518060a00160405290815f82018054610d65906129a4565b80601f0160208091040260200160405190810160405280929190818152602001828054610d91906129a4565b8015610ddc5780601f10610db357610100808354040283529160200191610ddc565b820191905f5260205f20905b815481529060010190602001808311610dbf57829003601f168201915b5050505050815260200160018201548152602001600282018054610dff906129a4565b80601f0160208091040260200160405190810160405280929190818152602001828054610e2b906129a4565b8015610e765780601f10610e4d57610100808354040283529160200191610e76565b820191905f5260205f20905b815481529060010190602001808311610e5957829003601f168201915b5050505050815260200160038201548152602001600482018054610e99906129a4565b80601f0160208091040260200160405190810160405280929190818152602001828054610ec5906129a4565b8015610f105780601f10610ee757610100808354040283529160200191610f10565b820191905f5260205f20905b815481529060010190602001808311610ef357829003601f168201915b50505050508152505081526020019060010190610d35565b50505050915050919050565b6008841480610f435750600984145b15610f6d57604051806020016040528085815250606a906001610f679291906121b1565b50610fe1565b5f5b6008811015610fdf576001600682600a8110610f8e57610f8d61294a565b5b600a020186600a8110610fa457610fa361294a565b5b015403610fd257606a81908060018154018082558091505060019003905f5260205f20015f90919091909150555b8080600101915050610f6f565b505b5f805b6004805490508110156117c35784805190602001206004828154811061100d5761100c61294a565b5b905f5260205f2090600502016002016040516110299190612a70565b6040518091039020036117b6575f5b606a805490508110156117b457606a81815481106110595761105861294a565b5b905f5260205f200154600483815481106110765761107561294a565b5b905f5260205f20906005020160010154036117a757600192507fd9454d5938448eec55eb0922cf9b0ef34489b5dd106dc8e5b4f85d6aa3943398600483815481106110c4576110c361294a565b5b905f5260205f2090600502015f01600484815481106110e6576110e561294a565b5b905f5260205f209060050201600101546004858154811061110a5761110961294a565b5b905f5260205f2090600502016002016004868154811061112d5761112c61294a565b5b905f5260205f20906005020160030154600487815481106111515761115061294a565b5b905f5260205f209060050201600401604051611171959493929190612b38565b60405180910390a15f6004838154811061118e5761118d61294a565b5b905f5260205f20906005020160030154866111a99190612bd4565b90505f81131561139e5761137f89600485815481106111cb576111ca61294a565b5b905f5260205f2090600502015f0180546111e4906129a4565b80601f0160208091040260200160405190810160405280929190818152602001828054611210906129a4565b801561125b5780601f106112325761010080835404028352916020019161125b565b820191905f5260205f20905b81548152906001019060200180831161123e57829003601f168201915b50505050508a600487815481106112755761127461294a565b5b905f5260205f209060050201600101548b8b60048a8154811061129b5761129a61294a565b5b905f5260205f2090600502016003015460048b815481106112bf576112be61294a565b5b905f5260205f209060050201600301548d60048d815481106112e4576112e361294a565b5b905f5260205f20906005020160040180546112fe906129a4565b80601f016020809104026020016040519081016040528092919081815260200182805461132a906129a4565b80156113755780601f1061134c57610100808354040283529160200191611375565b820191905f5260205f20905b81548152906001019060200180831161135857829003601f168201915b5050505050611bd2565b61138d89898984895f611cf3565b611398600484611e31565b506117b4565b5f81036115825761157189600485815481106113bd576113bc61294a565b5b905f5260205f2090600502015f0180546113d6906129a4565b80601f0160208091040260200160405190810160405280929190818152602001828054611402906129a4565b801561144d5780601f106114245761010080835404028352916020019161144d565b820191905f5260205f20905b81548152906001019060200180831161143057829003601f168201915b50505050508a600487815481106114675761146661294a565b5b905f5260205f209060050201600101548b8b60048a8154811061148d5761148c61294a565b5b905f5260205f2090600502016003015460048b815481106114b1576114b061294a565b5b905f5260205f209060050201600301548d60048d815481106114d6576114d561294a565b5b905f5260205f20906005020160040180546114f0906129a4565b80601f016020809104026020016040519081016040528092919081815260200182805461151c906129a4565b80156115675780601f1061153e57610100808354040283529160200191611567565b820191905f5260205f20905b81548152906001019060200180831161154a57829003601f168201915b5050505050611bd2565b61157c600484611e31565b506117b4565b61174e896004858154811061159a5761159961294a565b5b905f5260205f2090600502015f0180546115b3906129a4565b80601f01602080910402602001604051908101604052809291908181526020018280546115df906129a4565b801561162a5780601f106116015761010080835404028352916020019161162a565b820191905f5260205f20905b81548152906001019060200180831161160d57829003601f168201915b50505050508a600487815481106116445761164361294a565b5b905f5260205f209060050201600101548b8b60048a8154811061166a5761166961294a565b5b905f5260205f2090600502016003015460048b8154811061168e5761168d61294a565b5b905f5260205f209060050201600301548d60048d815481106116b3576116b261294a565b5b905f5260205f20906005020160040180546116cd906129a4565b80601f01602080910402602001604051908101604052809291908181526020018280546116f9906129a4565b80156117445780601f1061171b57610100808354040283529160200191611744565b820191905f5260205f20905b81548152906001019060200180831161172757829003601f168201915b5050505050611bd2565b7fffffffffffffffffffffffffffffffffffffffffffffffffffffffffffffffff8161177a9190612c14565b6004848154811061178e5761178d61294a565b5b905f5260205f20906005020160030181905550506117b4565b8080600101915050611038565b505b8080600101915050610fe4565b50806117d8576117d786868686865f611cf3565b5b505050505050565b606081600254816040516020016117f79190612cc4565b6040516020818303038152906040528051906020012060405160200161181d9190612d03565b6040516020818303038152906040528051906020012014611873576040517f08c379a000000000000000000000000000000000000000000000000000000000815260040161186a90612d67565b60405180910390fd5b6005805480602002602001604051908101604052809291908181526020015f905b82821015611bc6578382905f5260205f2090600a0201604051806101400160405290815f820180546118c5906129a4565b80601f01602080910402602001604051908101604052809291908181526020018280546118f1906129a4565b801561193c5780601f106119135761010080835404028352916020019161193c565b820191905f5260205f20905b81548152906001019060200180831161191f57829003601f168201915b50505050508152602001600182018054611955906129a4565b80601f0160208091040260200160405190810160405280929190818152602001828054611981906129a4565b80156119cc5780601f106119a3576101008083540402835291602001916119cc565b820191905f5260205f20905b8154815290600101906020018083116119af57829003601f168201915b5050505050815260200160028201548152602001600382015481526020016004820180546119f9906129a4565b80601f0160208091040260200160405190810160405280929190818152602001828054611a25906129a4565b8015611a705780601f10611a4757610100808354040283529160200191611a70565b820191905f5260205f20905b815481529060010190602001808311611a5357829003601f168201915b50505050508152602001600582015481526020016006820154815260200160078201548152602001600882018054611aa7906129a4565b80601f0160208091040260200160405190810160405280929190818152602001828054611ad3906129a4565b8015611b1e5780601f10611af557610100808354040283529160200191611b1e565b820191905f5260205f20905b815481529060010190602001808311611b0157829003601f168201915b50505050508152602001600982018054611b37906129a4565b80601f0160208091040260200160405190810160405280929190818152602001828054611b63906129a4565b8015611bae5780601f10611b8557610100808354040283529160200191611bae565b820191905f5260205f20905b815481529060010190602001808311611b9157829003601f168201915b50505050508152505081526020019060010190611894565b50505050915050919050565b5f6040518061014001604052808c81526020018b81526020018a8152602001898152602001888152602001878152602001868152602001858152602001848152602001838152509050600581908060018154018082558091505060019003905f5260205f2090600a02015f909190919091505f820151815f019081611c579190612f10565b506020820151816001019081611c6d9190612f10565b5060408201518160020155606082015181600301556080820151816004019081611c979190612f10565b5060a0820151816005015560c0820151816006015560e08201518160070155610100820151816008019081611ccc9190612f10565b50610120820151816009019081611ce39190612f10565b5050505050505050505050505050565b5f6040518060a001604052808881526020018781526020018681526020018581526020018481525090505f8203611da857600381908060018154018082558091505060019003905f5260205f2090600502015f909190919091505f820151815f019081611d609190612f10565b50602082015181600101556040820151816002019081611d809190612f10565b50606082015181600301556080820151816004019081611da09190612f10565b505050611e28565b600481908060018154018082558091505060019003905f5260205f2090600502015f909190919091505f820151815f019081611de49190612f10565b50602082015181600101556040820151816002019081611e049190612f10565b50606082015181600301556080820151816004019081611e249190612f10565b5050505b50505050505050565b5f828281548110611e4557611e4461294a565b5b905f5260205f2090600502016040518060a00160405290815f82018054611e6b906129a4565b80601f0160208091040260200160405190810160405280929190818152602001828054611e97906129a4565b8015611ee25780601f10611eb957610100808354040283529160200191611ee2565b820191905f5260205f20905b815481529060010190602001808311611ec557829003601f168201915b5050505050815260200160018201548152602001600282018054611f05906129a4565b80601f0160208091040260200160405190810160405280929190818152602001828054611f31906129a4565b8015611f7c5780601f10611f5357610100808354040283529160200191611f7c565b820191905f5260205f20905b815481529060010190602001808311611f5f57829003601f168201915b5050505050815260200160038201548152602001600482018054611f9f906129a4565b80601f0160208091040260200160405190810160405280929190818152602001828054611fcb906129a4565b80156120165780601f10611fed57610100808354040283529160200191612016565b820191905f5260205f20905b815481529060010190602001808311611ff957829003601f168201915b505050505081525050905082600184805490506120339190612fdf565b815481106120445761204361294a565b5b905f5260205f2090600502018383815481106120635761206261294a565b5b905f5260205f2090600502015f8201815f0190816120819190613027565b5060018201548160010155600282018160020190816120a09190613027565b5060038201548160030155600482018160040190816120bf9190613027565b509050508083600185805490506120d69190612fdf565b815481106120e7576120e661294a565b5b905f5260205f2090600502015f820151815f0190816121069190612f10565b506020820151816001015560408201518160020190816121269190612f10565b506060820151816003015560808201518160040190816121469190612f10565b509050508280548061215b5761215a61310c565b5b600190038181905f5260205f2090600502015f8082015f61217c91906121fc565b600182015f9055600282015f61219291906121fc565b600382015f9055600482015f6121a891906121fc565b50509055505050565b828054828255905f5260205f209081019282156121eb579160200282015b828111156121ea5782518255916020019190600101906121cf565b5b5090506121f89190612239565b5090565b508054612208906129a4565b5f825580601f106122195750612236565b601f0160209004905f5260205f20908101906122359190612239565b5b50565b5b80821115612250575f815f90555060010161223a565b5090565b5f604051905090565b5f80fd5b5f80fd5b5f80fd5b5f80fd5b5f601f19601f8301169050919050565b7f4e487b71000000000000000000000000000000000000000000000000000000005f52604160045260245ffd5b6122b38261226d565b810181811067ffffffffffffffff821117156122d2576122d161227d565b5b80604052505050565b5f6122e4612254565b90506122f082826122aa565b919050565b5f67ffffffffffffffff82111561230f5761230e61227d565b5b6123188261226d565b9050602081019050919050565b828183375f83830152505050565b5f612345612340846122f5565b6122db565b90508281526020810184848401111561236157612360612269565b5b61236c848285612325565b509392505050565b5f82601f83011261238857612387612265565b5b8135612398848260208601612333565b91505092915050565b5f819050919050565b6123b3816123a1565b81146123bd575f80fd5b50565b5f813590506123ce816123aa565b92915050565b5f805f805f60a086880312156123ed576123ec61225d565b5b5f86013567ffffffffffffffff81111561240a57612409612261565b5b61241688828901612374565b955050602086013567ffffffffffffffff81111561243757612436612261565b5b61244388828901612374565b9450506040612454888289016123c0565b9350506060612465888289016123c0565b925050608086013567ffffffffffffffff81111561248657612485612261565b5b61249288828901612374565b9150509295509295909350565b5f602082840312156124b4576124b361225d565b5b5f82013567ffffffffffffffff8111156124d1576124d0612261565b5b6124dd84828501612374565b91505092915050565b5f81519050919050565b5f82825260208201905092915050565b5f819050602082019050919050565b5f81519050919050565b5f82825260208201905092915050565b8281835e5f83830152505050565b5f6125418261250f565b61254b8185612519565b935061255b818560208601612529565b6125648161226d565b840191505092915050565b612578816123a1565b82525050565b5f60a083015f8301518482035f8601526125988282612537565b91505060208301516125ad602086018261256f565b50604083015184820360408601526125c58282612537565b91505060608301516125da606086018261256f565b50608083015184820360808601526125f28282612537565b9150508091505092915050565b5f61260a838361257e565b905092915050565b5f602082019050919050565b5f612628826124e6565b61263281856124f0565b93508360208202850161264485612500565b805f5b8581101561267f578484038952815161266085826125ff565b945061266b83612612565b925060208a01995050600181019050612647565b50829750879550505050505092915050565b5f6020820190508181035f8301526126a9818461261e565b905092915050565b5f805f805f60a086880312156126ca576126c961225d565b5b5f86013567ffffffffffffffff8111156126e7576126e6612261565b5b6126f388828901612374565b9550506020612704888289016123c0565b945050604086013567ffffffffffffffff81111561272557612724612261565b5b61273188828901612374565b9350506060612742888289016123c0565b925050608086013567ffffffffffffffff81111561276357612762612261565b5b61276f88828901612374565b9150509295509295909350565b5f81519050919050565b5f82825260208201905092915050565b5f819050602082019050919050565b5f61014083015f8301518482035f8601526127c08282612537565b915050602083015184820360208601526127da8282612537565b91505060408301516127ef604086018261256f565b506060830151612802606086018261256f565b506080830151848203608086015261281a8282612537565b91505060a083015161282f60a086018261256f565b5060c083015161284260c086018261256f565b5060e083015161285560e086018261256f565b5061010083015184820361010086015261286f8282612537565b91505061012083015184820361012086015261288b8282612537565b9150508091505092915050565b5f6128a383836127a5565b905092915050565b5f602082019050919050565b5f6128c18261277c565b6128cb8185612786565b9350836020820285016128dd85612796565b805f5b8581101561291857848403895281516128f98582612898565b9450612904836128ab565b925060208a019950506001810190506128e0565b50829750879550505050505092915050565b5f6020820190508181035f83015261294281846128b7565b905092915050565b7f4e487b71000000000000000000000000000000000000000000000000000000005f52603260045260245ffd5b7f4e487b71000000000000000000000000000000000000000000000000000000005f52602260045260245ffd5b5f60028204905060018216806129bb57607f821691505b6020821081036129ce576129cd612977565b5b50919050565b5f81905092915050565b5f819050815f5260205f209050919050565b5f81546129fc816129a4565b612a0681866129d4565b9450600182165f8114612a205760018114612a3557612a67565b60ff1983168652811515820286019350612a67565b612a3e856129de565b5f5b83811015612a5f57815481890152600182019150602081019050612a40565b838801955050505b50505092915050565b5f612a7b82846129f0565b915081905092915050565b5f82825260208201905092915050565b5f819050815f5260205f209050919050565b5f8154612ab4816129a4565b612abe8186612a86565b9450600182165f8114612ad85760018114612aee57612b20565b60ff198316865281151560200286019350612b20565b612af785612a96565b5f5b83811015612b1857815481890152600182019150602081019050612af9565b808801955050505b50505092915050565b612b32816123a1565b82525050565b5f60a0820190508181035f830152612b508188612aa8565b9050612b5f6020830187612b29565b8181036040830152612b718186612aa8565b9050612b806060830185612b29565b8181036080830152612b928184612aa8565b90509695505050505050565b5f819050919050565b7f4e487b71000000000000000000000000000000000000000000000000000000005f52601160045260245ffd5b5f612bde82612b9e565b9150612be983612b9e565b925082820390508181125f8412168282135f851215161715612c0e57612c0d612ba7565b5b92915050565b5f612c1e82612b9e565b9150612c2983612b9e565b9250828202612c3781612b9e565b91507f800000000000000000000000000000000000000000000000000000000000000084145f84121615612c6e57612c6d612ba7565b5b8282058414831517612c8357612c82612ba7565b5b5092915050565b5f81905092915050565b5f612c9e8261250f565b612ca88185612c8a565b9350612cb8818560208601612529565b80840191505092915050565b5f612ccf8284612c94565b915081905092915050565b5f819050919050565b5f819050919050565b612cfd612cf882612cda565b612ce3565b82525050565b5f612d0e8284612cec565b60208201915081905092915050565b7f496e636f72726563742070617373776f726421000000000000000000000000005f82015250565b5f612d51601383612a86565b9150612d5c82612d1d565b602082019050919050565b5f6020820190508181035f830152612d7e81612d45565b9050919050565b5f6020601f8301049050919050565b5f82821b905092915050565b5f60088302612dcf7fffffffffffffffffffffffffffffffffffffffffffffffffffffffffffffffff82612d94565b612dd98683612d94565b95508019841693508086168417925050509392505050565b5f819050919050565b5f612e14612e0f612e0a846123a1565b612df1565b6123a1565b9050919050565b5f819050919050565b612e2d83612dfa565b612e41612e3982612e1b565b848454612da0565b825550505050565b5f90565b612e55612e49565b612e60818484612e24565b505050565b5b81811015612e8357612e785f82612e4d565b600181019050612e66565b5050565b601f821115612ec857612e9981612a96565b612ea284612d85565b81016020851015612eb1578190505b612ec5612ebd85612d85565b830182612e65565b50505b505050565b5f82821c905092915050565b5f612ee85f1984600802612ecd565b1980831691505092915050565b5f612f008383612ed9565b9150826002028217905092915050565b612f198261250f565b67ffffffffffffffff811115612f3257612f3161227d565b5b612f3c82546129a4565b612f47828285612e87565b5f60209050601f831160018114612f78575f8415612f66578287015190505b612f708582612ef5565b865550612fd7565b601f198416612f8686612a96565b5f5b82811015612fad57848901518255600182019150602085019450602081019050612f88565b86831015612fca5784890151612fc6601f891682612ed9565b8355505b6001600288020188555050505b505050505050565b5f612fe9826123a1565b9150612ff4836123a1565b925082820390508181111561300c5761300b612ba7565b5b92915050565b5f81549050613020816129a4565b9050919050565b81810361303557505061310a565b61303e82613012565b67ffffffffffffffff8111156130575761305661227d565b5b61306182546129a4565b61306c828285612e87565b5f601f831160018114613099575f8415613087578287015490505b6130918582612ef5565b865550613103565b601f1984166130a787612a96565b96506130b286612a96565b5f5b828110156130d9578489015482556001820191506001850194506020810190506130b4565b868310156130f657848901546130f2601f891682612ed9565b8355505b6001600288020188555050505b5050505050505b565b7f4e487b71000000000000000000000000000000000000000000000000000000005f52603160045260245ffdfea264697066735822122000c1f07ec5ad6530ce93800eeb9610c0a721f8846a6e8fecadd3426e0e4fa4cd64736f6c634300081a0033",
					"opcodes": "PUSH1 0x80 PUSH1 0x40 MSTORE PUSH1 0x40 MLOAD DUP1 PUSH2 0x140 ADD PUSH1 0x40 MSTORE DUP1 PUSH1 0x40 MLOAD DUP1 PUSH2 0x140 ADD PUSH1 0x40 MSTORE DUP1 PUSH1 0x1 PUSH1 0xFF AND DUP2 MSTORE PUSH1 0x20 ADD PUSH1 0x1 PUSH1 0xFF AND DUP2 MSTORE PUSH1 0x20 ADD PUSH0 PUSH1 0xFF AND DUP2 MSTORE PUSH1 0x20 ADD PUSH0 PUSH1 0xFF AND DUP2 MSTORE PUSH1 0x20 ADD PUSH0 PUSH1 0xFF AND DUP2 MSTORE PUSH1 0x20 ADD PUSH0 PUSH1 0xFF AND DUP2 MSTORE PUSH1 0x20 ADD PUSH1 0x1 PUSH1 0xFF AND DUP2 MSTORE PUSH1 0x20 ADD PUSH1 0x1 PUSH1 0xFF AND DUP2 MSTORE PUSH1 0x20 ADD PUSH0 PUSH1 0xFF AND DUP2 MSTORE PUSH1 0x20 ADD PUSH0 PUSH1 0xFF AND DUP2 MSTORE POP DUP2 MSTORE PUSH1 0x20 ADD PUSH1 0x40 MLOAD DUP1 PUSH2 0x140 ADD PUSH1 0x40 MSTORE DUP1 PUSH0 PUSH1 0xFF AND DUP2 MSTORE PUSH1 0x20 ADD PUSH1 0x1 PUSH1 0xFF AND DUP2 MSTORE PUSH1 0x20 ADD PUSH0 PUSH1 0xFF AND DUP2 MSTORE PUSH1 0x20 ADD PUSH0 PUSH1 0xFF AND DUP2 MSTORE PUSH1 0x20 ADD PUSH0 PUSH1 0xFF AND DUP2 MSTORE PUSH1 0x20 ADD PUSH0 PUSH1 0xFF AND DUP2 MSTORE PUSH1 0x20 ADD PUSH0 PUSH1 0xFF AND DUP2 MSTORE PUSH1 0x20 ADD PUSH1 0x1 PUSH1 0xFF AND DUP2 MSTORE PUSH1 0x20 ADD PUSH0 PUSH1 0xFF AND DUP2 MSTORE PUSH1 0x20 ADD PUSH0 PUSH1 0xFF AND DUP2 MSTORE POP DUP2 MSTORE PUSH1 0x20 ADD PUSH1 0x40 MLOAD DUP1 PUSH2 0x140 ADD PUSH1 0x40 MSTORE DUP1 PUSH0 PUSH1 0xFF AND DUP2 MSTORE PUSH1 0x20 ADD PUSH0 PUSH1 0xFF AND DUP2 MSTORE PUSH1 0x20 ADD PUSH1 0x1 PUSH1 0xFF AND DUP2 MSTORE PUSH1 0x20 ADD PUSH1 0x1 PUSH1 0xFF AND DUP2 MSTORE PUSH1 0x20 ADD PUSH0 PUSH1 0xFF AND DUP2 MSTORE PUSH1 0x20 ADD PUSH0 PUSH1 0xFF AND DUP2 MSTORE PUSH1 0x20 ADD PUSH1 0x1 PUSH1 0xFF AND DUP2 MSTORE PUSH1 0x20 ADD PUSH1 0x1 PUSH1 0xFF AND DUP2 MSTORE PUSH1 0x20 ADD PUSH0 PUSH1 0xFF AND DUP2 MSTORE PUSH1 0x20 ADD PUSH0 PUSH1 0xFF AND DUP2 MSTORE POP DUP2 MSTORE PUSH1 0x20 ADD PUSH1 0x40 MLOAD DUP1 PUSH2 0x140 ADD PUSH1 0x40 MSTORE DUP1 PUSH0 PUSH1 0xFF AND DUP2 MSTORE PUSH1 0x20 ADD PUSH0 PUSH1 0xFF AND DUP2 MSTORE PUSH1 0x20 ADD PUSH0 PUSH1 0xFF AND DUP2 MSTORE PUSH1 0x20 ADD PUSH1 0x1 PUSH1 0xFF AND DUP2 MSTORE PUSH1 0x20 ADD PUSH0 PUSH1 0xFF AND DUP2 MSTORE PUSH1 0x20 ADD PUSH0 PUSH1 0xFF AND DUP2 MSTORE PUSH1 0x20 ADD PUSH0 PUSH1 0xFF AND DUP2 MSTORE PUSH1 0x20 ADD PUSH1 0x1 PUSH1 0xFF AND DUP2 MSTORE PUSH1 0x20 ADD PUSH0 PUSH1 0xFF AND DUP2 MSTORE PUSH1 0x20 ADD PUSH0 PUSH1 0xFF AND DUP2 MSTORE POP DUP2 MSTORE PUSH1 0x20 ADD PUSH1 0x40 MLOAD DUP1 PUSH2 0x140 ADD PUSH1 0x40 MSTORE DUP1 PUSH1 0x1 PUSH1 0xFF AND DUP2 MSTORE PUSH1 0x20 ADD PUSH1 0x1 PUSH1 0xFF AND DUP2 MSTORE PUSH1 0x20 ADD PUSH1 0x1 PUSH1 0xFF AND DUP2 MSTORE PUSH1 0x20 ADD PUSH1 0x1 PUSH1 0xFF AND DUP2 MSTORE PUSH1 0x20 ADD PUSH1 0x1 PUSH1 0xFF AND DUP2 MSTORE PUSH1 0x20 ADD PUSH1 0x1 PUSH1 0xFF AND DUP2 MSTORE PUSH1 0x20 ADD PUSH1 0x1 PUSH1 0xFF AND DUP2 MSTORE PUSH1 0x20 ADD PUSH1 0x1 PUSH1 0xFF AND DUP2 MSTORE PUSH1 0x20 ADD PUSH0 PUSH1 0xFF AND DUP2 MSTORE PUSH1 0x20 ADD PUSH0 PUSH1 0xFF AND DUP2 MSTORE POP DUP2 MSTORE PUSH1 0x20 ADD PUSH1 0x40 MLOAD DUP1 PUSH2 0x140 ADD PUSH1 0x40 MSTORE DUP1 PUSH0 PUSH1 0xFF AND DUP2 MSTORE PUSH1 0x20 ADD PUSH1 0x1 PUSH1 0xFF AND DUP2 MSTORE PUSH1 0x20 ADD PUSH0 PUSH1 0xFF AND DUP2 MSTORE PUSH1 0x20 ADD PUSH1 0x1 PUSH1 0xFF AND DUP2 MSTORE PUSH1 0x20 ADD PUSH0 PUSH1 0xFF AND DUP2 MSTORE PUSH1 0x20 ADD PUSH1 0x1 PUSH1 0xFF AND DUP2 MSTORE PUSH1 0x20 ADD PUSH0 PUSH1 0xFF AND DUP2 MSTORE PUSH1 0x20 ADD PUSH1 0x1 PUSH1 0xFF AND DUP2 MSTORE PUSH1 0x20 ADD PUSH0 PUSH1 0xFF AND DUP2 MSTORE PUSH1 0x20 ADD PUSH0 PUSH1 0xFF AND DUP2 MSTORE POP DUP2 MSTORE PUSH1 0x20 ADD PUSH1 0x40 MLOAD DUP1 PUSH2 0x140 ADD PUSH1 0x40 MSTORE DUP1 PUSH0 PUSH1 0xFF AND DUP2 MSTORE PUSH1 0x20 ADD PUSH0 PUSH1 0xFF AND DUP2 MSTORE PUSH1 0x20 ADD PUSH0 PUSH1 0xFF AND DUP2 MSTORE PUSH1 0x20 ADD PUSH0 PUSH1 0xFF AND DUP2 MSTORE PUSH1 0x20 ADD PUSH0 PUSH1 0xFF AND DUP2 MSTORE PUSH1 0x20 ADD PUSH0 PUSH1 0xFF AND DUP2 MSTORE PUSH1 0x20 ADD PUSH1 0x1 PUSH1 0xFF AND DUP2 MSTORE PUSH1 0x20 ADD PUSH1 0x1 PUSH1 0xFF AND DUP2 MSTORE PUSH1 0x20 ADD PUSH0 PUSH1 0xFF AND DUP2 MSTORE PUSH1 0x20 ADD PUSH0 PUSH1 0xFF AND DUP2 MSTORE POP DUP2 MSTORE PUSH1 0x20 ADD PUSH1 0x40 MLOAD DUP1 PUSH2 0x140 ADD PUSH1 0x40 MSTORE DUP1 PUSH0 PUSH1 0xFF AND DUP2 MSTORE PUSH1 0x20 ADD PUSH0 PUSH1 0xFF AND DUP2 MSTORE PUSH1 0x20 ADD PUSH0 PUSH1 0xFF AND DUP2 MSTORE PUSH1 0x20 ADD PUSH0 PUSH1 0xFF AND DUP2 MSTORE PUSH1 0x20 ADD PUSH0 PUSH1 0xFF AND DUP2 MSTORE PUSH1 0x20 ADD PUSH0 PUSH1 0xFF AND DUP2 MSTORE PUSH1 0x20 ADD PUSH0 PUSH1 0xFF AND DUP2 MSTORE PUSH1 0x20 ADD PUSH1 0x1 PUSH1 0xFF AND DUP2 MSTORE PUSH1 0x20 ADD PUSH0 PUSH1 0xFF AND DUP2 MSTORE PUSH1 0x20 ADD PUSH0 PUSH1 0xFF AND DUP2 MSTORE POP DUP2 MSTORE PUSH1 0x20 ADD PUSH1 0x40 MLOAD DUP1 PUSH2 0x140 ADD PUSH1 0x40 MSTORE DUP1 PUSH0 PUSH1 0xFF AND DUP2 MSTORE PUSH1 0x20 ADD PUSH0 PUSH1 0xFF AND DUP2 MSTORE PUSH1 0x20 ADD PUSH0 PUSH1 0xFF AND DUP2 MSTORE PUSH1 0x20 ADD PUSH0 PUSH1 0xFF AND DUP2 MSTORE PUSH1 0x20 ADD PUSH0 PUSH1 0xFF AND DUP2 MSTORE PUSH1 0x20 ADD PUSH0 PUSH1 0xFF AND DUP2 MSTORE PUSH1 0x20 ADD PUSH0 PUSH1 0xFF AND DUP2 MSTORE PUSH1 0x20 ADD PUSH0 PUSH1 0xFF AND DUP2 MSTORE PUSH1 0x20 ADD PUSH1 0x1 PUSH1 0xFF AND DUP2 MSTORE PUSH1 0x20 ADD PUSH0 PUSH1 0xFF AND DUP2 MSTORE POP DUP2 MSTORE PUSH1 0x20 ADD PUSH1 0x40 MLOAD DUP1 PUSH2 0x140 ADD PUSH1 0x40 MSTORE DUP1 PUSH0 PUSH1 0xFF AND DUP2 MSTORE PUSH1 0x20 ADD PUSH0 PUSH1 0xFF AND DUP2 MSTORE PUSH1 0x20 ADD PUSH0 PUSH1 0xFF AND DUP2 MSTORE PUSH1 0x20 ADD PUSH0 PUSH1 0xFF AND DUP2 MSTORE PUSH1 0x20 ADD PUSH0 PUSH1 0xFF AND DUP2 MSTORE PUSH1 0x20 ADD PUSH0 PUSH1 0xFF AND DUP2 MSTORE PUSH1 0x20 ADD PUSH0 PUSH1 0xFF AND DUP2 MSTORE PUSH1 0x20 ADD PUSH0 PUSH1 0xFF AND DUP2 MSTORE PUSH1 0x20 ADD PUSH0 PUSH1 0xFF AND DUP2 MSTORE PUSH1 0x20 ADD PUSH1 0x1 PUSH1 0xFF AND DUP2 MSTORE POP DUP2 MSTORE POP PUSH1 0x6 SWAP1 PUSH1 0xA PUSH2 0x455 SWAP3 SWAP2 SWAP1 PUSH2 0x59C JUMP JUMPDEST POP CALLVALUE DUP1 ISZERO PUSH2 0x461 JUMPI PUSH0 DUP1 REVERT JUMPDEST POP PUSH1 0x40 MLOAD PUSH2 0x3A8C CODESIZE SUB DUP1 PUSH2 0x3A8C DUP4 CODECOPY DUP2 DUP2 ADD PUSH1 0x40 MSTORE DUP2 ADD SWAP1 PUSH2 0x483 SWAP2 SWAP1 PUSH2 0x7CF JUMP JUMPDEST DUP3 PUSH1 0x40 MLOAD PUSH1 0x20 ADD PUSH2 0x494 SWAP2 SWAP1 PUSH2 0x8B7 JUMP JUMPDEST PUSH1 0x40 MLOAD PUSH1 0x20 DUP2 DUP4 SUB SUB DUP2 MSTORE SWAP1 PUSH1 0x40 MSTORE DUP1 MLOAD SWAP1 PUSH1 0x20 ADD KECCAK256 PUSH0 DUP2 SWAP1 SSTORE POP PUSH0 SLOAD PUSH1 0x40 MLOAD PUSH1 0x20 ADD PUSH2 0x4C1 SWAP2 SWAP1 PUSH2 0x8F6 JUMP JUMPDEST PUSH1 0x40 MLOAD PUSH1 0x20 DUP2 DUP4 SUB SUB DUP2 MSTORE SWAP1 PUSH1 0x40 MSTORE DUP1 MLOAD SWAP1 PUSH1 0x20 ADD KECCAK256 PUSH0 DUP2 SWAP1 SSTORE POP DUP2 PUSH1 0x40 MLOAD PUSH1 0x20 ADD PUSH2 0x4ED SWAP2 SWAP1 PUSH2 0x8B7 JUMP JUMPDEST PUSH1 0x40 MLOAD PUSH1 0x20 DUP2 DUP4 SUB SUB DUP2 MSTORE SWAP1 PUSH1 0x40 MSTORE DUP1 MLOAD SWAP1 PUSH1 0x20 ADD KECCAK256 PUSH1 0x1 DUP2 SWAP1 SSTORE POP PUSH1 0x1 SLOAD PUSH1 0x40 MLOAD PUSH1 0x20 ADD PUSH2 0x51C SWAP2 SWAP1 PUSH2 0x8F6 JUMP JUMPDEST PUSH1 0x40 MLOAD PUSH1 0x20 DUP2 DUP4 SUB SUB DUP2 MSTORE SWAP1 PUSH1 0x40 MSTORE DUP1 MLOAD SWAP1 PUSH1 0x20 ADD KECCAK256 PUSH1 0x1 DUP2 SWAP1 SSTORE POP DUP1 PUSH1 0x40 MLOAD PUSH1 0x20 ADD PUSH2 0x549 SWAP2 SWAP1 PUSH2 0x8B7 JUMP JUMPDEST PUSH1 0x40 MLOAD PUSH1 0x20 DUP2 DUP4 SUB SUB DUP2 MSTORE SWAP1 PUSH1 0x40 MSTORE DUP1 MLOAD SWAP1 PUSH1 0x20 ADD KECCAK256 PUSH1 0x2 DUP2 SWAP1 SSTORE POP PUSH1 0x2 SLOAD PUSH1 0x40 MLOAD PUSH1 0x20 ADD PUSH2 0x578 SWAP2 SWAP1 PUSH2 0x8F6 JUMP JUMPDEST PUSH1 0x40 MLOAD PUSH1 0x20 DUP2 DUP4 SUB SUB DUP2 MSTORE SWAP1 PUSH1 0x40 MSTORE DUP1 MLOAD SWAP1 PUSH1 0x20 ADD KECCAK256 PUSH1 0x2 DUP2 SWAP1 SSTORE POP POP POP POP PUSH2 0x910 JUMP JUMPDEST DUP3 PUSH1 0xA DUP1 MUL DUP2 ADD SWAP3 DUP3 ISZERO PUSH2 0x5DB JUMPI SWAP2 PUSH1 0x20 MUL DUP3 ADD JUMPDEST DUP3 DUP2 GT ISZERO PUSH2 0x5DA JUMPI DUP3 MLOAD DUP3 SWAP1 PUSH1 0xA PUSH2 0x5CA SWAP3 SWAP2 SWAP1 PUSH2 0x5EC JUMP JUMPDEST POP SWAP2 PUSH1 0x20 ADD SWAP2 SWAP1 PUSH1 0xA ADD SWAP1 PUSH2 0x5B1 JUMP JUMPDEST JUMPDEST POP SWAP1 POP PUSH2 0x5E8 SWAP2 SWAP1 PUSH2 0x631 JUMP JUMPDEST POP SWAP1 JUMP JUMPDEST DUP3 PUSH1 0xA DUP2 ADD SWAP3 DUP3 ISZERO PUSH2 0x620 JUMPI SWAP2 PUSH1 0x20 MUL DUP3 ADD JUMPDEST DUP3 DUP2 GT ISZERO PUSH2 0x61F JUMPI DUP3 MLOAD DUP3 SWAP1 PUSH1 0xFF AND SWAP1 SSTORE SWAP2 PUSH1 0x20 ADD SWAP2 SWAP1 PUSH1 0x1 ADD SWAP1 PUSH2 0x5FF JUMP JUMPDEST JUMPDEST POP SWAP1 POP PUSH2 0x62D SWAP2 SWAP1 PUSH2 0x654 JUMP JUMPDEST POP SWAP1 JUMP JUMPDEST JUMPDEST DUP1 DUP3 GT ISZERO PUSH2 0x650 JUMPI PUSH0 DUP2 DUP2 PUSH2 0x647 SWAP2 SWAP1 PUSH2 0x66F JUMP JUMPDEST POP PUSH1 0xA ADD PUSH2 0x632 JUMP JUMPDEST POP SWAP1 JUMP JUMPDEST JUMPDEST DUP1 DUP3 GT ISZERO PUSH2 0x66B JUMPI PUSH0 DUP2 PUSH0 SWAP1 SSTORE POP PUSH1 0x1 ADD PUSH2 0x655 JUMP JUMPDEST POP SWAP1 JUMP JUMPDEST POP DUP1 PUSH1 0xA ADD SWAP1 PUSH2 0x67F SWAP2 SWAP1 PUSH2 0x654 JUMP JUMPDEST POP JUMP JUMPDEST PUSH0 PUSH1 0x40 MLOAD SWAP1 POP SWAP1 JUMP JUMPDEST PUSH0 DUP1 REVERT JUMPDEST PUSH0 DUP1 REVERT JUMPDEST PUSH0 DUP1 REVERT JUMPDEST PUSH0 DUP1 REVERT JUMPDEST PUSH0 PUSH1 0x1F NOT PUSH1 0x1F DUP4 ADD AND SWAP1 POP SWAP2 SWAP1 POP JUMP JUMPDEST PUSH32 0x4E487B7100000000000000000000000000000000000000000000000000000000 PUSH0 MSTORE PUSH1 0x41 PUSH1 0x4 MSTORE PUSH1 0x24 PUSH0 REVERT JUMPDEST PUSH2 0x6E1 DUP3 PUSH2 0x69B JUMP JUMPDEST DUP2 ADD DUP2 DUP2 LT PUSH8 0xFFFFFFFFFFFFFFFF DUP3 GT OR ISZERO PUSH2 0x700 JUMPI PUSH2 0x6FF PUSH2 0x6AB JUMP JUMPDEST JUMPDEST DUP1 PUSH1 0x40 MSTORE POP POP POP JUMP JUMPDEST PUSH0 PUSH2 0x712 PUSH2 0x682 JUMP JUMPDEST SWAP1 POP PUSH2 0x71E DUP3 DUP3 PUSH2 0x6D8 JUMP JUMPDEST SWAP2 SWAP1 POP JUMP JUMPDEST PUSH0 PUSH8 0xFFFFFFFFFFFFFFFF DUP3 GT ISZERO PUSH2 0x73D JUMPI PUSH2 0x73C PUSH2 0x6AB JUMP JUMPDEST JUMPDEST PUSH2 0x746 DUP3 PUSH2 0x69B JUMP JUMPDEST SWAP1 POP PUSH1 0x20 DUP2 ADD SWAP1 POP SWAP2 SWAP1 POP JUMP JUMPDEST DUP3 DUP2 DUP4 MCOPY PUSH0 DUP4 DUP4 ADD MSTORE POP POP POP JUMP JUMPDEST PUSH0 PUSH2 0x773 PUSH2 0x76E DUP5 PUSH2 0x723 JUMP JUMPDEST PUSH2 0x709 JUMP JUMPDEST SWAP1 POP DUP3 DUP2 MSTORE PUSH1 0x20 DUP2 ADD DUP5 DUP5 DUP5 ADD GT ISZERO PUSH2 0x78F JUMPI PUSH2 0x78E PUSH2 0x697 JUMP JUMPDEST JUMPDEST PUSH2 0x79A DUP5 DUP3 DUP6 PUSH2 0x753 JUMP JUMPDEST POP SWAP4 SWAP3 POP POP POP JUMP JUMPDEST PUSH0 DUP3 PUSH1 0x1F DUP4 ADD SLT PUSH2 0x7B6 JUMPI PUSH2 0x7B5 PUSH2 0x693 JUMP JUMPDEST JUMPDEST DUP2 MLOAD PUSH2 0x7C6 DUP5 DUP3 PUSH1 0x20 DUP7 ADD PUSH2 0x761 JUMP JUMPDEST SWAP2 POP POP SWAP3 SWAP2 POP POP JUMP JUMPDEST PUSH0 DUP1 PUSH0 PUSH1 0x60 DUP5 DUP7 SUB SLT ISZERO PUSH2 0x7E6 JUMPI PUSH2 0x7E5 PUSH2 0x68B JUMP JUMPDEST JUMPDEST PUSH0 DUP5 ADD MLOAD PUSH8 0xFFFFFFFFFFFFFFFF DUP2 GT ISZERO PUSH2 0x803 JUMPI PUSH2 0x802 PUSH2 0x68F JUMP JUMPDEST JUMPDEST PUSH2 0x80F DUP7 DUP3 DUP8 ADD PUSH2 0x7A2 JUMP JUMPDEST SWAP4 POP POP PUSH1 0x20 DUP5 ADD MLOAD PUSH8 0xFFFFFFFFFFFFFFFF DUP2 GT ISZERO PUSH2 0x830 JUMPI PUSH2 0x82F PUSH2 0x68F JUMP JUMPDEST JUMPDEST PUSH2 0x83C DUP7 DUP3 DUP8 ADD PUSH2 0x7A2 JUMP JUMPDEST SWAP3 POP POP PUSH1 0x40 DUP5 ADD MLOAD PUSH8 0xFFFFFFFFFFFFFFFF DUP2 GT ISZERO PUSH2 0x85D JUMPI PUSH2 0x85C PUSH2 0x68F JUMP JUMPDEST JUMPDEST PUSH2 0x869 DUP7 DUP3 DUP8 ADD PUSH2 0x7A2 JUMP JUMPDEST SWAP2 POP POP SWAP3 POP SWAP3 POP SWAP3 JUMP JUMPDEST PUSH0 DUP2 MLOAD SWAP1 POP SWAP2 SWAP1 POP JUMP JUMPDEST PUSH0 DUP2 SWAP1 POP SWAP3 SWAP2 POP POP JUMP JUMPDEST PUSH0 PUSH2 0x891 DUP3 PUSH2 0x873 JUMP JUMPDEST PUSH2 0x89B DUP2 DUP6 PUSH2 0x87D JUMP JUMPDEST SWAP4 POP PUSH2 0x8AB DUP2 DUP6 PUSH1 0x20 DUP7 ADD PUSH2 0x753 JUMP JUMPDEST DUP1 DUP5 ADD SWAP2 POP POP SWAP3 SWAP2 POP POP JUMP JUMPDEST PUSH0 PUSH2 0x8C2 DUP3 DUP5 PUSH2 0x887 JUMP JUMPDEST SWAP2 POP DUP2 SWAP1 POP SWAP3 SWAP2 POP POP JUMP JUMPDEST PUSH0 DUP2 SWAP1 POP SWAP2 SWAP1 POP JUMP JUMPDEST PUSH0 DUP2 SWAP1 POP SWAP2 SWAP1 POP JUMP JUMPDEST PUSH2 0x8F0 PUSH2 0x8EB DUP3 PUSH2 0x8CD JUMP JUMPDEST PUSH2 0x8D6 JUMP JUMPDEST DUP3 MSTORE POP POP JUMP JUMPDEST PUSH0 PUSH2 0x901 DUP3 DUP5 PUSH2 0x8DF JUMP JUMPDEST PUSH1 0x20 DUP3 ADD SWAP2 POP DUP2 SWAP1 POP SWAP3 SWAP2 POP POP JUMP JUMPDEST PUSH2 0x316F DUP1 PUSH2 0x91D PUSH0 CODECOPY PUSH0 RETURN INVALID PUSH1 0x80 PUSH1 0x40 MSTORE CALLVALUE DUP1 ISZERO PUSH2 0xF JUMPI PUSH0 DUP1 REVERT JUMPDEST POP PUSH1 0x4 CALLDATASIZE LT PUSH2 0x55 JUMPI PUSH0 CALLDATALOAD PUSH1 0xE0 SHR DUP1 PUSH4 0x641D79D2 EQ PUSH2 0x59 JUMPI DUP1 PUSH4 0x963E9F1F EQ PUSH2 0x75 JUMPI DUP1 PUSH4 0xAE9EC457 EQ PUSH2 0xA5 JUMPI DUP1 PUSH4 0xB0BD7503 EQ PUSH2 0xD5 JUMPI DUP1 PUSH4 0xC005A930 EQ PUSH2 0xF1 JUMPI JUMPDEST PUSH0 DUP1 REVERT JUMPDEST PUSH2 0x73 PUSH1 0x4 DUP1 CALLDATASIZE SUB DUP2 ADD SWAP1 PUSH2 0x6E SWAP2 SWAP1 PUSH2 0x23D4 JUMP JUMPDEST PUSH2 0x121 JUMP JUMPDEST STOP JUMPDEST PUSH2 0x8F PUSH1 0x4 DUP1 CALLDATASIZE SUB DUP2 ADD SWAP1 PUSH2 0x8A SWAP2 SWAP1 PUSH2 0x249F JUMP JUMPDEST PUSH2 0x9CF JUMP JUMPDEST PUSH1 0x40 MLOAD PUSH2 0x9C SWAP2 SWAP1 PUSH2 0x2691 JUMP JUMPDEST PUSH1 0x40 MLOAD DUP1 SWAP2 SUB SWAP1 RETURN JUMPDEST PUSH2 0xBF PUSH1 0x4 DUP1 CALLDATASIZE SUB DUP2 ADD SWAP1 PUSH2 0xBA SWAP2 SWAP1 PUSH2 0x249F JUMP JUMPDEST PUSH2 0xC82 JUMP JUMPDEST PUSH1 0x40 MLOAD PUSH2 0xCC SWAP2 SWAP1 PUSH2 0x2691 JUMP JUMPDEST PUSH1 0x40 MLOAD DUP1 SWAP2 SUB SWAP1 RETURN JUMPDEST PUSH2 0xEF PUSH1 0x4 DUP1 CALLDATASIZE SUB DUP2 ADD SWAP1 PUSH2 0xEA SWAP2 SWAP1 PUSH2 0x26B1 JUMP JUMPDEST PUSH2 0xF34 JUMP JUMPDEST STOP JUMPDEST PUSH2 0x10B PUSH1 0x4 DUP1 CALLDATASIZE SUB DUP2 ADD SWAP1 PUSH2 0x106 SWAP2 SWAP1 PUSH2 0x249F JUMP JUMPDEST PUSH2 0x17E0 JUMP JUMPDEST PUSH1 0x40 MLOAD PUSH2 0x118 SWAP2 SWAP1 PUSH2 0x292A JUMP JUMPDEST PUSH1 0x40 MLOAD DUP1 SWAP2 SUB SWAP1 RETURN JUMPDEST PUSH1 0x8 DUP4 EQ DUP1 PUSH2 0x130 JUMPI POP PUSH1 0x9 DUP4 EQ JUMPDEST ISZERO PUSH2 0x15A JUMPI PUSH1 0x40 MLOAD DUP1 PUSH1 0x20 ADD PUSH1 0x40 MSTORE DUP1 DUP5 DUP2 MSTORE POP PUSH1 0x6A SWAP1 PUSH1 0x1 PUSH2 0x154 SWAP3 SWAP2 SWAP1 PUSH2 0x21B1 JUMP JUMPDEST POP PUSH2 0x1CE JUMP JUMPDEST PUSH0 JUMPDEST PUSH1 0x8 DUP2 LT ISZERO PUSH2 0x1CC JUMPI PUSH1 0x1 PUSH1 0x6 DUP6 PUSH1 0xA DUP2 LT PUSH2 0x17B JUMPI PUSH2 0x17A PUSH2 0x294A JUMP JUMPDEST JUMPDEST PUSH1 0xA MUL ADD DUP3 PUSH1 0xA DUP2 LT PUSH2 0x191 JUMPI PUSH2 0x190 PUSH2 0x294A JUMP JUMPDEST JUMPDEST ADD SLOAD SUB PUSH2 0x1BF JUMPI PUSH1 0x6A DUP2 SWAP1 DUP1 PUSH1 0x1 DUP2 SLOAD ADD DUP1 DUP3 SSTORE DUP1 SWAP2 POP POP PUSH1 0x1 SWAP1 SUB SWAP1 PUSH0 MSTORE PUSH1 0x20 PUSH0 KECCAK256 ADD PUSH0 SWAP1 SWAP2 SWAP1 SWAP2 SWAP1 SWAP2 POP SSTORE JUMPDEST DUP1 DUP1 PUSH1 0x1 ADD SWAP2 POP POP PUSH2 0x15C JUMP JUMPDEST POP JUMPDEST PUSH0 DUP1 JUMPDEST PUSH1 0x3 DUP1 SLOAD SWAP1 POP DUP2 LT ISZERO PUSH2 0x9B1 JUMPI DUP6 DUP1 MLOAD SWAP1 PUSH1 0x20 ADD KECCAK256 PUSH1 0x3 DUP3 DUP2 SLOAD DUP2 LT PUSH2 0x1FA JUMPI PUSH2 0x1F9 PUSH2 0x294A JUMP JUMPDEST JUMPDEST SWAP1 PUSH0 MSTORE PUSH1 0x20 PUSH0 KECCAK256 SWAP1 PUSH1 0x5 MUL ADD PUSH1 0x2 ADD PUSH1 0x40 MLOAD PUSH2 0x216 SWAP2 SWAP1 PUSH2 0x2A70 JUMP JUMPDEST PUSH1 0x40 MLOAD DUP1 SWAP2 SUB SWAP1 KECCAK256 SUB PUSH2 0x9A4 JUMPI PUSH0 JUMPDEST PUSH1 0x6A DUP1 SLOAD SWAP1 POP DUP2 LT ISZERO PUSH2 0x9A2 JUMPI PUSH1 0x6A DUP2 DUP2 SLOAD DUP2 LT PUSH2 0x246 JUMPI PUSH2 0x245 PUSH2 0x294A JUMP JUMPDEST JUMPDEST SWAP1 PUSH0 MSTORE PUSH1 0x20 PUSH0 KECCAK256 ADD SLOAD PUSH1 0x3 DUP4 DUP2 SLOAD DUP2 LT PUSH2 0x263 JUMPI PUSH2 0x262 PUSH2 0x294A JUMP JUMPDEST JUMPDEST SWAP1 PUSH0 MSTORE PUSH1 0x20 PUSH0 KECCAK256 SWAP1 PUSH1 0x5 MUL ADD PUSH1 0x1 ADD SLOAD SUB PUSH2 0x995 JUMPI PUSH1 0x1 SWAP3 POP PUSH32 0x7B68A667D52B8BACD836D1815F339828FD05BA2D41DDACB7AB48C6145D88B566 PUSH1 0x3 DUP4 DUP2 SLOAD DUP2 LT PUSH2 0x2B1 JUMPI PUSH2 0x2B0 PUSH2 0x294A JUMP JUMPDEST JUMPDEST SWAP1 PUSH0 MSTORE PUSH1 0x20 PUSH0 KECCAK256 SWAP1 PUSH1 0x5 MUL ADD PUSH0 ADD PUSH1 0x3 DUP5 DUP2 SLOAD DUP2 LT PUSH2 0x2D3 JUMPI PUSH2 0x2D2 PUSH2 0x294A JUMP JUMPDEST JUMPDEST SWAP1 PUSH0 MSTORE PUSH1 0x20 PUSH0 KECCAK256 SWAP1 PUSH1 0x5 MUL ADD PUSH1 0x1 ADD SLOAD PUSH1 0x3 DUP6 DUP2 SLOAD DUP2 LT PUSH2 0x2F7 JUMPI PUSH2 0x2F6 PUSH2 0x294A JUMP JUMPDEST JUMPDEST SWAP1 PUSH0 MSTORE PUSH1 0x20 PUSH0 KECCAK256 SWAP1 PUSH1 0x5 MUL ADD PUSH1 0x2 ADD PUSH1 0x3 DUP7 DUP2 SLOAD DUP2 LT PUSH2 0x31A JUMPI PUSH2 0x319 PUSH2 0x294A JUMP JUMPDEST JUMPDEST SWAP1 PUSH0 MSTORE PUSH1 0x20 PUSH0 KECCAK256 SWAP1 PUSH1 0x5 MUL ADD PUSH1 0x3 ADD SLOAD PUSH1 0x3 DUP8 DUP2 SLOAD DUP2 LT PUSH2 0x33E JUMPI PUSH2 0x33D PUSH2 0x294A JUMP JUMPDEST JUMPDEST SWAP1 PUSH0 MSTORE PUSH1 0x20 PUSH0 KECCAK256 SWAP1 PUSH1 0x5 MUL ADD PUSH1 0x4 ADD PUSH1 0x40 MLOAD PUSH2 0x35E SWAP6 SWAP5 SWAP4 SWAP3 SWAP2 SWAP1 PUSH2 0x2B38 JUMP JUMPDEST PUSH1 0x40 MLOAD DUP1 SWAP2 SUB SWAP1 LOG1 PUSH0 PUSH1 0x3 DUP4 DUP2 SLOAD DUP2 LT PUSH2 0x37B JUMPI PUSH2 0x37A PUSH2 0x294A JUMP JUMPDEST JUMPDEST SWAP1 PUSH0 MSTORE PUSH1 0x20 PUSH0 KECCAK256 SWAP1 PUSH1 0x5 MUL ADD PUSH1 0x3 ADD SLOAD DUP7 PUSH2 0x396 SWAP2 SWAP1 PUSH2 0x2BD4 JUMP JUMPDEST SWAP1 POP PUSH0 DUP2 SGT ISZERO PUSH2 0x58C JUMPI PUSH2 0x56C PUSH1 0x3 DUP5 DUP2 SLOAD DUP2 LT PUSH2 0x3B7 JUMPI PUSH2 0x3B6 PUSH2 0x294A JUMP JUMPDEST JUMPDEST SWAP1 PUSH0 MSTORE PUSH1 0x20 PUSH0 KECCAK256 SWAP1 PUSH1 0x5 MUL ADD PUSH0 ADD DUP1 SLOAD PUSH2 0x3D0 SWAP1 PUSH2 0x29A4 JUMP JUMPDEST DUP1 PUSH1 0x1F ADD PUSH1 0x20 DUP1 SWAP2 DIV MUL PUSH1 0x20 ADD PUSH1 0x40 MLOAD SWAP1 DUP2 ADD PUSH1 0x40 MSTORE DUP1 SWAP3 SWAP2 SWAP1 DUP2 DUP2 MSTORE PUSH1 0x20 ADD DUP3 DUP1 SLOAD PUSH2 0x3FC SWAP1 PUSH2 0x29A4 JUMP JUMPDEST DUP1 ISZERO PUSH2 0x447 JUMPI DUP1 PUSH1 0x1F LT PUSH2 0x41E JUMPI PUSH2 0x100 DUP1 DUP4 SLOAD DIV MUL DUP4 MSTORE SWAP2 PUSH1 0x20 ADD SWAP2 PUSH2 0x447 JUMP JUMPDEST DUP3 ADD SWAP2 SWAP1 PUSH0 MSTORE PUSH1 0x20 PUSH0 KECCAK256 SWAP1 JUMPDEST DUP2 SLOAD DUP2 MSTORE SWAP1 PUSH1 0x1 ADD SWAP1 PUSH1 0x20 ADD DUP1 DUP4 GT PUSH2 0x42A JUMPI DUP3 SWAP1 SUB PUSH1 0x1F AND DUP3 ADD SWAP2 JUMPDEST POP POP POP POP POP DUP11 PUSH1 0x3 DUP7 DUP2 SLOAD DUP2 LT PUSH2 0x461 JUMPI PUSH2 0x460 PUSH2 0x294A JUMP JUMPDEST JUMPDEST SWAP1 PUSH0 MSTORE PUSH1 0x20 PUSH0 KECCAK256 SWAP1 PUSH1 0x5 MUL ADD PUSH1 0x1 ADD SLOAD DUP11 DUP13 PUSH1 0x3 DUP10 DUP2 SLOAD DUP2 LT PUSH2 0x487 JUMPI PUSH2 0x486 PUSH2 0x294A JUMP JUMPDEST JUMPDEST SWAP1 PUSH0 MSTORE PUSH1 0x20 PUSH0 KECCAK256 SWAP1 PUSH1 0x5 MUL ADD PUSH1 0x3 ADD SLOAD DUP13 PUSH1 0x3 DUP12 DUP2 SLOAD DUP2 LT PUSH2 0x4AC JUMPI PUSH2 0x4AB PUSH2 0x294A JUMP JUMPDEST JUMPDEST SWAP1 PUSH0 MSTORE PUSH1 0x20 PUSH0 KECCAK256 SWAP1 PUSH1 0x5 MUL ADD PUSH1 0x3 ADD SLOAD PUSH1 0x3 DUP13 DUP2 SLOAD DUP2 LT PUSH2 0x4D0 JUMPI PUSH2 0x4CF PUSH2 0x294A JUMP JUMPDEST JUMPDEST SWAP1 PUSH0 MSTORE PUSH1 0x20 PUSH0 KECCAK256 SWAP1 PUSH1 0x5 MUL ADD PUSH1 0x4 ADD DUP1 SLOAD PUSH2 0x4EA SWAP1 PUSH2 0x29A4 JUMP JUMPDEST DUP1 PUSH1 0x1F ADD PUSH1 0x20 DUP1 SWAP2 DIV MUL PUSH1 0x20 ADD PUSH1 0x40 MLOAD SWAP1 DUP2 ADD PUSH1 0x40 MSTORE DUP1 SWAP3 SWAP2 SWAP1 DUP2 DUP2 MSTORE PUSH1 0x20 ADD DUP3 DUP1 SLOAD PUSH2 0x516 SWAP1 PUSH2 0x29A4 JUMP JUMPDEST DUP1 ISZERO PUSH2 0x561 JUMPI DUP1 PUSH1 0x1F LT PUSH2 0x538 JUMPI PUSH2 0x100 DUP1 DUP4 SLOAD DIV MUL DUP4 MSTORE SWAP2 PUSH1 0x20 ADD SWAP2 PUSH2 0x561 JUMP JUMPDEST DUP3 ADD SWAP2 SWAP1 PUSH0 MSTORE PUSH1 0x20 PUSH0 KECCAK256 SWAP1 JUMPDEST DUP2 SLOAD DUP2 MSTORE SWAP1 PUSH1 0x1 ADD SWAP1 PUSH1 0x20 ADD DUP1 DUP4 GT PUSH2 0x544 JUMPI DUP3 SWAP1 SUB PUSH1 0x1F AND DUP3 ADD SWAP2 JUMPDEST POP POP POP POP POP DUP15 PUSH2 0x1BD2 JUMP JUMPDEST PUSH2 0x57B DUP10 DUP9 DUP11 DUP5 DUP10 PUSH1 0x1 PUSH2 0x1CF3 JUMP JUMPDEST PUSH2 0x586 PUSH1 0x3 DUP5 PUSH2 0x1E31 JUMP JUMPDEST POP PUSH2 0x9A2 JUMP JUMPDEST PUSH0 DUP2 SUB PUSH2 0x770 JUMPI PUSH2 0x75F PUSH1 0x3 DUP5 DUP2 SLOAD DUP2 LT PUSH2 0x5AA JUMPI PUSH2 0x5A9 PUSH2 0x294A JUMP JUMPDEST JUMPDEST SWAP1 PUSH0 MSTORE PUSH1 0x20 PUSH0 KECCAK256 SWAP1 PUSH1 0x5 MUL ADD PUSH0 ADD DUP1 SLOAD PUSH2 0x5C3 SWAP1 PUSH2 0x29A4 JUMP JUMPDEST DUP1 PUSH1 0x1F ADD PUSH1 0x20 DUP1 SWAP2 DIV MUL PUSH1 0x20 ADD PUSH1 0x40 MLOAD SWAP1 DUP2 ADD PUSH1 0x40 MSTORE DUP1 SWAP3 SWAP2 SWAP1 DUP2 DUP2 MSTORE PUSH1 0x20 ADD DUP3 DUP1 SLOAD PUSH2 0x5EF SWAP1 PUSH2 0x29A4 JUMP JUMPDEST DUP1 ISZERO PUSH2 0x63A JUMPI DUP1 PUSH1 0x1F LT PUSH2 0x611 JUMPI PUSH2 0x100 DUP1 DUP4 SLOAD DIV MUL DUP4 MSTORE SWAP2 PUSH1 0x20 ADD SWAP2 PUSH2 0x63A JUMP JUMPDEST DUP3 ADD SWAP2 SWAP1 PUSH0 MSTORE PUSH1 0x20 PUSH0 KECCAK256 SWAP1 JUMPDEST DUP2 SLOAD DUP2 MSTORE SWAP1 PUSH1 0x1 ADD SWAP1 PUSH1 0x20 ADD DUP1 DUP4 GT PUSH2 0x61D JUMPI DUP3 SWAP1 SUB PUSH1 0x1F AND DUP3 ADD SWAP2 JUMPDEST POP POP POP POP POP DUP11 PUSH1 0x3 DUP7 DUP2 SLOAD DUP2 LT PUSH2 0x654 JUMPI PUSH2 0x653 PUSH2 0x294A JUMP JUMPDEST JUMPDEST SWAP1 PUSH0 MSTORE PUSH1 0x20 PUSH0 KECCAK256 SWAP1 PUSH1 0x5 MUL ADD PUSH1 0x1 ADD SLOAD DUP11 DUP13 PUSH1 0x3 DUP10 DUP2 SLOAD DUP2 LT PUSH2 0x67A JUMPI PUSH2 0x679 PUSH2 0x294A JUMP JUMPDEST JUMPDEST SWAP1 PUSH0 MSTORE PUSH1 0x20 PUSH0 KECCAK256 SWAP1 PUSH1 0x5 MUL ADD PUSH1 0x3 ADD SLOAD DUP13 PUSH1 0x3 DUP12 DUP2 SLOAD DUP2 LT PUSH2 0x69F JUMPI PUSH2 0x69E PUSH2 0x294A JUMP JUMPDEST JUMPDEST SWAP1 PUSH0 MSTORE PUSH1 0x20 PUSH0 KECCAK256 SWAP1 PUSH1 0x5 MUL ADD PUSH1 0x3 ADD SLOAD PUSH1 0x3 DUP13 DUP2 SLOAD DUP2 LT PUSH2 0x6C3 JUMPI PUSH2 0x6C2 PUSH2 0x294A JUMP JUMPDEST JUMPDEST SWAP1 PUSH0 MSTORE PUSH1 0x20 PUSH0 KECCAK256 SWAP1 PUSH1 0x5 MUL ADD PUSH1 0x4 ADD DUP1 SLOAD PUSH2 0x6DD SWAP1 PUSH2 0x29A4 JUMP JUMPDEST DUP1 PUSH1 0x1F ADD PUSH1 0x20 DUP1 SWAP2 DIV MUL PUSH1 0x20 ADD PUSH1 0x40 MLOAD SWAP1 DUP2 ADD PUSH1 0x40 MSTORE DUP1 SWAP3 SWAP2 SWAP1 DUP2 DUP2 MSTORE PUSH1 0x20 ADD DUP3 DUP1 SLOAD PUSH2 0x709 SWAP1 PUSH2 0x29A4 JUMP JUMPDEST DUP1 ISZERO PUSH2 0x754 JUMPI DUP1 PUSH1 0x1F LT PUSH2 0x72B JUMPI PUSH2 0x100 DUP1 DUP4 SLOAD DIV MUL DUP4 MSTORE SWAP2 PUSH1 0x20 ADD SWAP2 PUSH2 0x754 JUMP JUMPDEST DUP3 ADD SWAP2 SWAP1 PUSH0 MSTORE PUSH1 0x20 PUSH0 KECCAK256 SWAP1 JUMPDEST DUP2 SLOAD DUP2 MSTORE SWAP1 PUSH1 0x1 ADD SWAP1 PUSH1 0x20 ADD DUP1 DUP4 GT PUSH2 0x737 JUMPI DUP3 SWAP1 SUB PUSH1 0x1F AND DUP3 ADD SWAP2 JUMPDEST POP POP POP POP POP DUP15 PUSH2 0x1BD2 JUMP JUMPDEST PUSH2 0x76A PUSH1 0x3 DUP5 PUSH2 0x1E31 JUMP JUMPDEST POP PUSH2 0x9A2 JUMP JUMPDEST PUSH2 0x93C PUSH1 0x3 DUP5 DUP2 SLOAD DUP2 LT PUSH2 0x787 JUMPI PUSH2 0x786 PUSH2 0x294A JUMP JUMPDEST JUMPDEST SWAP1 PUSH0 MSTORE PUSH1 0x20 PUSH0 KECCAK256 SWAP1 PUSH1 0x5 MUL ADD PUSH0 ADD DUP1 SLOAD PUSH2 0x7A0 SWAP1 PUSH2 0x29A4 JUMP JUMPDEST DUP1 PUSH1 0x1F ADD PUSH1 0x20 DUP1 SWAP2 DIV MUL PUSH1 0x20 ADD PUSH1 0x40 MLOAD SWAP1 DUP2 ADD PUSH1 0x40 MSTORE DUP1 SWAP3 SWAP2 SWAP1 DUP2 DUP2 MSTORE PUSH1 0x20 ADD DUP3 DUP1 SLOAD PUSH2 0x7CC SWAP1 PUSH2 0x29A4 JUMP JUMPDEST DUP1 ISZERO PUSH2 0x817 JUMPI DUP1 PUSH1 0x1F LT PUSH2 0x7EE JUMPI PUSH2 0x100 DUP1 DUP4 SLOAD DIV MUL DUP4 MSTORE SWAP2 PUSH1 0x20 ADD SWAP2 PUSH2 0x817 JUMP JUMPDEST DUP3 ADD SWAP2 SWAP1 PUSH0 MSTORE PUSH1 0x20 PUSH0 KECCAK256 SWAP1 JUMPDEST DUP2 SLOAD DUP2 MSTORE SWAP1 PUSH1 0x1 ADD SWAP1 PUSH1 0x20 ADD DUP1 DUP4 GT PUSH2 0x7FA JUMPI DUP3 SWAP1 SUB PUSH1 0x1F AND DUP3 ADD SWAP2 JUMPDEST POP POP POP POP POP DUP11 PUSH1 0x3 DUP7 DUP2 SLOAD DUP2 LT PUSH2 0x831 JUMPI PUSH2 0x830 PUSH2 0x294A JUMP JUMPDEST JUMPDEST SWAP1 PUSH0 MSTORE PUSH1 0x20 PUSH0 KECCAK256 SWAP1 PUSH1 0x5 MUL ADD PUSH1 0x1 ADD SLOAD DUP11 DUP13 PUSH1 0x3 DUP10 DUP2 SLOAD DUP2 LT PUSH2 0x857 JUMPI PUSH2 0x856 PUSH2 0x294A JUMP JUMPDEST JUMPDEST SWAP1 PUSH0 MSTORE PUSH1 0x20 PUSH0 KECCAK256 SWAP1 PUSH1 0x5 MUL ADD PUSH1 0x3 ADD SLOAD DUP13 PUSH1 0x3 DUP12 DUP2 SLOAD DUP2 LT PUSH2 0x87C JUMPI PUSH2 0x87B PUSH2 0x294A JUMP JUMPDEST JUMPDEST SWAP1 PUSH0 MSTORE PUSH1 0x20 PUSH0 KECCAK256 SWAP1 PUSH1 0x5 MUL ADD PUSH1 0x3 ADD SLOAD PUSH1 0x3 DUP13 DUP2 SLOAD DUP2 LT PUSH2 0x8A0 JUMPI PUSH2 0x89F PUSH2 0x294A JUMP JUMPDEST JUMPDEST SWAP1 PUSH0 MSTORE PUSH1 0x20 PUSH0 KECCAK256 SWAP1 PUSH1 0x5 MUL ADD PUSH1 0x4 ADD DUP1 SLOAD PUSH2 0x8BA SWAP1 PUSH2 0x29A4 JUMP JUMPDEST DUP1 PUSH1 0x1F ADD PUSH1 0x20 DUP1 SWAP2 DIV MUL PUSH1 0x20 ADD PUSH1 0x40 MLOAD SWAP1 DUP2 ADD PUSH1 0x40 MSTORE DUP1 SWAP3 SWAP2 SWAP1 DUP2 DUP2 MSTORE PUSH1 0x20 ADD DUP3 DUP1 SLOAD PUSH2 0x8E6 SWAP1 PUSH2 0x29A4 JUMP JUMPDEST DUP1 ISZERO PUSH2 0x931 JUMPI DUP1 PUSH1 0x1F LT PUSH2 0x908 JUMPI PUSH2 0x100 DUP1 DUP4 SLOAD DIV MUL DUP4 MSTORE SWAP2 PUSH1 0x20 ADD SWAP2 PUSH2 0x931 JUMP JUMPDEST DUP3 ADD SWAP2 SWAP1 PUSH0 MSTORE PUSH1 0x20 PUSH0 KECCAK256 SWAP1 JUMPDEST DUP2 SLOAD DUP2 MSTORE SWAP1 PUSH1 0x1 ADD SWAP1 PUSH1 0x20 ADD DUP1 DUP4 GT PUSH2 0x914 JUMPI DUP3 SWAP1 SUB PUSH1 0x1F AND DUP3 ADD SWAP2 JUMPDEST POP POP POP POP POP DUP15 PUSH2 0x1BD2 JUMP JUMPDEST PUSH32 0xFFFFFFFFFFFFFFFFFFFFFFFFFFFFFFFFFFFFFFFFFFFFFFFFFFFFFFFFFFFFFFFF DUP2 PUSH2 0x968 SWAP2 SWAP1 PUSH2 0x2C14 JUMP JUMPDEST PUSH1 0x3 DUP5 DUP2 SLOAD DUP2 LT PUSH2 0x97C JUMPI PUSH2 0x97B PUSH2 0x294A JUMP JUMPDEST JUMPDEST SWAP1 PUSH0 MSTORE PUSH1 0x20 PUSH0 KECCAK256 SWAP1 PUSH1 0x5 MUL ADD PUSH1 0x3 ADD DUP2 SWAP1 SSTORE POP POP PUSH2 0x9A2 JUMP JUMPDEST DUP1 DUP1 PUSH1 0x1 ADD SWAP2 POP POP PUSH2 0x225 JUMP JUMPDEST POP JUMPDEST DUP1 DUP1 PUSH1 0x1 ADD SWAP2 POP POP PUSH2 0x1D1 JUMP JUMPDEST POP DUP1 PUSH2 0x9C7 JUMPI PUSH2 0x9C6 DUP7 DUP6 DUP8 DUP7 DUP7 PUSH1 0x1 PUSH2 0x1CF3 JUMP JUMPDEST JUMPDEST POP POP POP POP POP POP JUMP JUMPDEST PUSH1 0x60 DUP2 PUSH1 0x1 SLOAD DUP2 PUSH1 0x40 MLOAD PUSH1 0x20 ADD PUSH2 0x9E6 SWAP2 SWAP1 PUSH2 0x2CC4 JUMP JUMPDEST PUSH1 0x40 MLOAD PUSH1 0x20 DUP2 DUP4 SUB SUB DUP2 MSTORE SWAP1 PUSH1 0x40 MSTORE DUP1 MLOAD SWAP1 PUSH1 0x20 ADD KECCAK256 PUSH1 0x40 MLOAD PUSH1 0x20 ADD PUSH2 0xA0C SWAP2 SWAP1 PUSH2 0x2D03 JUMP JUMPDEST PUSH1 0x40 MLOAD PUSH1 0x20 DUP2 DUP4 SUB SUB DUP2 MSTORE SWAP1 PUSH1 0x40 MSTORE DUP1 MLOAD SWAP1 PUSH1 0x20 ADD KECCAK256 EQ PUSH2 0xA62 JUMPI PUSH1 0x40 MLOAD PUSH32 0x8C379A000000000000000000000000000000000000000000000000000000000 DUP2 MSTORE PUSH1 0x4 ADD PUSH2 0xA59 SWAP1 PUSH2 0x2D67 JUMP JUMPDEST PUSH1 0x40 MLOAD DUP1 SWAP2 SUB SWAP1 REVERT JUMPDEST PUSH1 0x4 DUP1 SLOAD DUP1 PUSH1 0x20 MUL PUSH1 0x20 ADD PUSH1 0x40 MLOAD SWAP1 DUP2 ADD PUSH1 0x40 MSTORE DUP1 SWAP3 SWAP2 SWAP1 DUP2 DUP2 MSTORE PUSH1 0x20 ADD PUSH0 SWAP1 JUMPDEST DUP3 DUP3 LT ISZERO PUSH2 0xC76 JUMPI DUP4 DUP3 SWAP1 PUSH0 MSTORE PUSH1 0x20 PUSH0 KECCAK256 SWAP1 PUSH1 0x5 MUL ADD PUSH1 0x40 MLOAD DUP1 PUSH1 0xA0 ADD PUSH1 0x40 MSTORE SWAP1 DUP2 PUSH0 DUP3 ADD DUP1 SLOAD PUSH2 0xAB3 SWAP1 PUSH2 0x29A4 JUMP JUMPDEST DUP1 PUSH1 0x1F ADD PUSH1 0x20 DUP1 SWAP2 DIV MUL PUSH1 0x20 ADD PUSH1 0x40 MLOAD SWAP1 DUP2 ADD PUSH1 0x40 MSTORE DUP1 SWAP3 SWAP2 SWAP1 DUP2 DUP2 MSTORE PUSH1 0x20 ADD DUP3 DUP1 SLOAD PUSH2 0xADF SWAP1 PUSH2 0x29A4 JUMP JUMPDEST DUP1 ISZERO PUSH2 0xB2A JUMPI DUP1 PUSH1 0x1F LT PUSH2 0xB01 JUMPI PUSH2 0x100 DUP1 DUP4 SLOAD DIV MUL DUP4 MSTORE SWAP2 PUSH1 0x20 ADD SWAP2 PUSH2 0xB2A JUMP JUMPDEST DUP3 ADD SWAP2 SWAP1 PUSH0 MSTORE PUSH1 0x20 PUSH0 KECCAK256 SWAP1 JUMPDEST DUP2 SLOAD DUP2 MSTORE SWAP1 PUSH1 0x1 ADD SWAP1 PUSH1 0x20 ADD DUP1 DUP4 GT PUSH2 0xB0D JUMPI DUP3 SWAP1 SUB PUSH1 0x1F AND DUP3 ADD SWAP2 JUMPDEST POP POP POP POP POP DUP2 MSTORE PUSH1 0x20 ADD PUSH1 0x1 DUP3 ADD SLOAD DUP2 MSTORE PUSH1 0x20 ADD PUSH1 0x2 DUP3 ADD DUP1 SLOAD PUSH2 0xB4D SWAP1 PUSH2 0x29A4 JUMP JUMPDEST DUP1 PUSH1 0x1F ADD PUSH1 0x20 DUP1 SWAP2 DIV MUL PUSH1 0x20 ADD PUSH1 0x40 MLOAD SWAP1 DUP2 ADD PUSH1 0x40 MSTORE DUP1 SWAP3 SWAP2 SWAP1 DUP2 DUP2 MSTORE PUSH1 0x20 ADD DUP3 DUP1 SLOAD PUSH2 0xB79 SWAP1 PUSH2 0x29A4 JUMP JUMPDEST DUP1 ISZERO PUSH2 0xBC4 JUMPI DUP1 PUSH1 0x1F LT PUSH2 0xB9B JUMPI PUSH2 0x100 DUP1 DUP4 SLOAD DIV MUL DUP4 MSTORE SWAP2 PUSH1 0x20 ADD SWAP2 PUSH2 0xBC4 JUMP JUMPDEST DUP3 ADD SWAP2 SWAP1 PUSH0 MSTORE PUSH1 0x20 PUSH0 KECCAK256 SWAP1 JUMPDEST DUP2 SLOAD DUP2 MSTORE SWAP1 PUSH1 0x1 ADD SWAP1 PUSH1 0x20 ADD DUP1 DUP4 GT PUSH2 0xBA7 JUMPI DUP3 SWAP1 SUB PUSH1 0x1F AND DUP3 ADD SWAP2 JUMPDEST POP POP POP POP POP DUP2 MSTORE PUSH1 0x20 ADD PUSH1 0x3 DUP3 ADD SLOAD DUP2 MSTORE PUSH1 0x20 ADD PUSH1 0x4 DUP3 ADD DUP1 SLOAD PUSH2 0xBE7 SWAP1 PUSH2 0x29A4 JUMP JUMPDEST DUP1 PUSH1 0x1F ADD PUSH1 0x20 DUP1 SWAP2 DIV MUL PUSH1 0x20 ADD PUSH1 0x40 MLOAD SWAP1 DUP2 ADD PUSH1 0x40 MSTORE DUP1 SWAP3 SWAP2 SWAP1 DUP2 DUP2 MSTORE PUSH1 0x20 ADD DUP3 DUP1 SLOAD PUSH2 0xC13 SWAP1 PUSH2 0x29A4 JUMP JUMPDEST DUP1 ISZERO PUSH2 0xC5E JUMPI DUP1 PUSH1 0x1F LT PUSH2 0xC35 JUMPI PUSH2 0x100 DUP1 DUP4 SLOAD DIV MUL DUP4 MSTORE SWAP2 PUSH1 0x20 ADD SWAP2 PUSH2 0xC5E JUMP JUMPDEST DUP3 ADD SWAP2 SWAP1 PUSH0 MSTORE PUSH1 0x20 PUSH0 KECCAK256 SWAP1 JUMPDEST DUP2 SLOAD DUP2 MSTORE SWAP1 PUSH1 0x1 ADD SWAP1 PUSH1 0x20 ADD DUP1 DUP4 GT PUSH2 0xC41 JUMPI DUP3 SWAP1 SUB PUSH1 0x1F AND DUP3 ADD SWAP2 JUMPDEST POP POP POP POP POP DUP2 MSTORE POP POP DUP2 MSTORE PUSH1 0x20 ADD SWAP1 PUSH1 0x1 ADD SWAP1 PUSH2 0xA83 JUMP JUMPDEST POP POP POP POP SWAP2 POP POP SWAP2 SWAP1 POP JUMP JUMPDEST PUSH1 0x60 DUP2 PUSH0 SLOAD DUP2 PUSH1 0x40 MLOAD PUSH1 0x20 ADD PUSH2 0xC98 SWAP2 SWAP1 PUSH2 0x2CC4 JUMP JUMPDEST PUSH1 0x40 MLOAD PUSH1 0x20 DUP2 DUP4 SUB SUB DUP2 MSTORE SWAP1 PUSH1 0x40 MSTORE DUP1 MLOAD SWAP1 PUSH1 0x20 ADD KECCAK256 PUSH1 0x40 MLOAD PUSH1 0x20 ADD PUSH2 0xCBE SWAP2 SWAP1 PUSH2 0x2D03 JUMP JUMPDEST PUSH1 0x40 MLOAD PUSH1 0x20 DUP2 DUP4 SUB SUB DUP2 MSTORE SWAP1 PUSH1 0x40 MSTORE DUP1 MLOAD SWAP1 PUSH1 0x20 ADD KECCAK256 EQ PUSH2 0xD14 JUMPI PUSH1 0x40 MLOAD PUSH32 0x8C379A000000000000000000000000000000000000000000000000000000000 DUP2 MSTORE PUSH1 0x4 ADD PUSH2 0xD0B SWAP1 PUSH2 0x2D67 JUMP JUMPDEST PUSH1 0x40 MLOAD DUP1 SWAP2 SUB SWAP1 REVERT JUMPDEST PUSH1 0x3 DUP1 SLOAD DUP1 PUSH1 0x20 MUL PUSH1 0x20 ADD PUSH1 0x40 MLOAD SWAP1 DUP2 ADD PUSH1 0x40 MSTORE DUP1 SWAP3 SWAP2 SWAP1 DUP2 DUP2 MSTORE PUSH1 0x20 ADD PUSH0 SWAP1 JUMPDEST DUP3 DUP3 LT ISZERO PUSH2 0xF28 JUMPI DUP4 DUP3 SWAP1 PUSH0 MSTORE PUSH1 0x20 PUSH0 KECCAK256 SWAP1 PUSH1 0x5 MUL ADD PUSH1 0x40 MLOAD DUP1 PUSH1 0xA0 ADD PUSH1 0x40 MSTORE SWAP1 DUP2 PUSH0 DUP3 ADD DUP1 SLOAD PUSH2 0xD65 SWAP1 PUSH2 0x29A4 JUMP JUMPDEST DUP1 PUSH1 0x1F ADD PUSH1 0x20 DUP1 SWAP2 DIV MUL PUSH1 0x20 ADD PUSH1 0x40 MLOAD SWAP1 DUP2 ADD PUSH1 0x40 MSTORE DUP1 SWAP3 SWAP2 SWAP1 DUP2 DUP2 MSTORE PUSH1 0x20 ADD DUP3 DUP1 SLOAD PUSH2 0xD91 SWAP1 PUSH2 0x29A4 JUMP JUMPDEST DUP1 ISZERO PUSH2 0xDDC JUMPI DUP1 PUSH1 0x1F LT PUSH2 0xDB3 JUMPI PUSH2 0x100 DUP1 DUP4 SLOAD DIV MUL DUP4 MSTORE SWAP2 PUSH1 0x20 ADD SWAP2 PUSH2 0xDDC JUMP JUMPDEST DUP3 ADD SWAP2 SWAP1 PUSH0 MSTORE PUSH1 0x20 PUSH0 KECCAK256 SWAP1 JUMPDEST DUP2 SLOAD DUP2 MSTORE SWAP1 PUSH1 0x1 ADD SWAP1 PUSH1 0x20 ADD DUP1 DUP4 GT PUSH2 0xDBF JUMPI DUP3 SWAP1 SUB PUSH1 0x1F AND DUP3 ADD SWAP2 JUMPDEST POP POP POP POP POP DUP2 MSTORE PUSH1 0x20 ADD PUSH1 0x1 DUP3 ADD SLOAD DUP2 MSTORE PUSH1 0x20 ADD PUSH1 0x2 DUP3 ADD DUP1 SLOAD PUSH2 0xDFF SWAP1 PUSH2 0x29A4 JUMP JUMPDEST DUP1 PUSH1 0x1F ADD PUSH1 0x20 DUP1 SWAP2 DIV MUL PUSH1 0x20 ADD PUSH1 0x40 MLOAD SWAP1 DUP2 ADD PUSH1 0x40 MSTORE DUP1 SWAP3 SWAP2 SWAP1 DUP2 DUP2 MSTORE PUSH1 0x20 ADD DUP3 DUP1 SLOAD PUSH2 0xE2B SWAP1 PUSH2 0x29A4 JUMP JUMPDEST DUP1 ISZERO PUSH2 0xE76 JUMPI DUP1 PUSH1 0x1F LT PUSH2 0xE4D JUMPI PUSH2 0x100 DUP1 DUP4 SLOAD DIV MUL DUP4 MSTORE SWAP2 PUSH1 0x20 ADD SWAP2 PUSH2 0xE76 JUMP JUMPDEST DUP3 ADD SWAP2 SWAP1 PUSH0 MSTORE PUSH1 0x20 PUSH0 KECCAK256 SWAP1 JUMPDEST DUP2 SLOAD DUP2 MSTORE SWAP1 PUSH1 0x1 ADD SWAP1 PUSH1 0x20 ADD DUP1 DUP4 GT PUSH2 0xE59 JUMPI DUP3 SWAP1 SUB PUSH1 0x1F AND DUP3 ADD SWAP2 JUMPDEST POP POP POP POP POP DUP2 MSTORE PUSH1 0x20 ADD PUSH1 0x3 DUP3 ADD SLOAD DUP2 MSTORE PUSH1 0x20 ADD PUSH1 0x4 DUP3 ADD DUP1 SLOAD PUSH2 0xE99 SWAP1 PUSH2 0x29A4 JUMP JUMPDEST DUP1 PUSH1 0x1F ADD PUSH1 0x20 DUP1 SWAP2 DIV MUL PUSH1 0x20 ADD PUSH1 0x40 MLOAD SWAP1 DUP2 ADD PUSH1 0x40 MSTORE DUP1 SWAP3 SWAP2 SWAP1 DUP2 DUP2 MSTORE PUSH1 0x20 ADD DUP3 DUP1 SLOAD PUSH2 0xEC5 SWAP1 PUSH2 0x29A4 JUMP JUMPDEST DUP1 ISZERO PUSH2 0xF10 JUMPI DUP1 PUSH1 0x1F LT PUSH2 0xEE7 JUMPI PUSH2 0x100 DUP1 DUP4 SLOAD DIV MUL DUP4 MSTORE SWAP2 PUSH1 0x20 ADD SWAP2 PUSH2 0xF10 JUMP JUMPDEST DUP3 ADD SWAP2 SWAP1 PUSH0 MSTORE PUSH1 0x20 PUSH0 KECCAK256 SWAP1 JUMPDEST DUP2 SLOAD DUP2 MSTORE SWAP1 PUSH1 0x1 ADD SWAP1 PUSH1 0x20 ADD DUP1 DUP4 GT PUSH2 0xEF3 JUMPI DUP3 SWAP1 SUB PUSH1 0x1F AND DUP3 ADD SWAP2 JUMPDEST POP POP POP POP POP DUP2 MSTORE POP POP DUP2 MSTORE PUSH1 0x20 ADD SWAP1 PUSH1 0x1 ADD SWAP1 PUSH2 0xD35 JUMP JUMPDEST POP POP POP POP SWAP2 POP POP SWAP2 SWAP1 POP JUMP JUMPDEST PUSH1 0x8 DUP5 EQ DUP1 PUSH2 0xF43 JUMPI POP PUSH1 0x9 DUP5 EQ JUMPDEST ISZERO PUSH2 0xF6D JUMPI PUSH1 0x40 MLOAD DUP1 PUSH1 0x20 ADD PUSH1 0x40 MSTORE DUP1 DUP6 DUP2 MSTORE POP PUSH1 0x6A SWAP1 PUSH1 0x1 PUSH2 0xF67 SWAP3 SWAP2 SWAP1 PUSH2 0x21B1 JUMP JUMPDEST POP PUSH2 0xFE1 JUMP JUMPDEST PUSH0 JUMPDEST PUSH1 0x8 DUP2 LT ISZERO PUSH2 0xFDF JUMPI PUSH1 0x1 PUSH1 0x6 DUP3 PUSH1 0xA DUP2 LT PUSH2 0xF8E JUMPI PUSH2 0xF8D PUSH2 0x294A JUMP JUMPDEST JUMPDEST PUSH1 0xA MUL ADD DUP7 PUSH1 0xA DUP2 LT PUSH2 0xFA4 JUMPI PUSH2 0xFA3 PUSH2 0x294A JUMP JUMPDEST JUMPDEST ADD SLOAD SUB PUSH2 0xFD2 JUMPI PUSH1 0x6A DUP2 SWAP1 DUP1 PUSH1 0x1 DUP2 SLOAD ADD DUP1 DUP3 SSTORE DUP1 SWAP2 POP POP PUSH1 0x1 SWAP1 SUB SWAP1 PUSH0 MSTORE PUSH1 0x20 PUSH0 KECCAK256 ADD PUSH0 SWAP1 SWAP2 SWAP1 SWAP2 SWAP1 SWAP2 POP SSTORE JUMPDEST DUP1 DUP1 PUSH1 0x1 ADD SWAP2 POP POP PUSH2 0xF6F JUMP JUMPDEST POP JUMPDEST PUSH0 DUP1 JUMPDEST PUSH1 0x4 DUP1 SLOAD SWAP1 POP DUP2 LT ISZERO PUSH2 0x17C3 JUMPI DUP5 DUP1 MLOAD SWAP1 PUSH1 0x20 ADD KECCAK256 PUSH1 0x4 DUP3 DUP2 SLOAD DUP2 LT PUSH2 0x100D JUMPI PUSH2 0x100C PUSH2 0x294A JUMP JUMPDEST JUMPDEST SWAP1 PUSH0 MSTORE PUSH1 0x20 PUSH0 KECCAK256 SWAP1 PUSH1 0x5 MUL ADD PUSH1 0x2 ADD PUSH1 0x40 MLOAD PUSH2 0x1029 SWAP2 SWAP1 PUSH2 0x2A70 JUMP JUMPDEST PUSH1 0x40 MLOAD DUP1 SWAP2 SUB SWAP1 KECCAK256 SUB PUSH2 0x17B6 JUMPI PUSH0 JUMPDEST PUSH1 0x6A DUP1 SLOAD SWAP1 POP DUP2 LT ISZERO PUSH2 0x17B4 JUMPI PUSH1 0x6A DUP2 DUP2 SLOAD DUP2 LT PUSH2 0x1059 JUMPI PUSH2 0x1058 PUSH2 0x294A JUMP JUMPDEST JUMPDEST SWAP1 PUSH0 MSTORE PUSH1 0x20 PUSH0 KECCAK256 ADD SLOAD PUSH1 0x4 DUP4 DUP2 SLOAD DUP2 LT PUSH2 0x1076 JUMPI PUSH2 0x1075 PUSH2 0x294A JUMP JUMPDEST JUMPDEST SWAP1 PUSH0 MSTORE PUSH1 0x20 PUSH0 KECCAK256 SWAP1 PUSH1 0x5 MUL ADD PUSH1 0x1 ADD SLOAD SUB PUSH2 0x17A7 JUMPI PUSH1 0x1 SWAP3 POP PUSH32 0xD9454D5938448EEC55EB0922CF9B0EF34489B5DD106DC8E5B4F85D6AA3943398 PUSH1 0x4 DUP4 DUP2 SLOAD DUP2 LT PUSH2 0x10C4 JUMPI PUSH2 0x10C3 PUSH2 0x294A JUMP JUMPDEST JUMPDEST SWAP1 PUSH0 MSTORE PUSH1 0x20 PUSH0 KECCAK256 SWAP1 PUSH1 0x5 MUL ADD PUSH0 ADD PUSH1 0x4 DUP5 DUP2 SLOAD DUP2 LT PUSH2 0x10E6 JUMPI PUSH2 0x10E5 PUSH2 0x294A JUMP JUMPDEST JUMPDEST SWAP1 PUSH0 MSTORE PUSH1 0x20 PUSH0 KECCAK256 SWAP1 PUSH1 0x5 MUL ADD PUSH1 0x1 ADD SLOAD PUSH1 0x4 DUP6 DUP2 SLOAD DUP2 LT PUSH2 0x110A JUMPI PUSH2 0x1109 PUSH2 0x294A JUMP JUMPDEST JUMPDEST SWAP1 PUSH0 MSTORE PUSH1 0x20 PUSH0 KECCAK256 SWAP1 PUSH1 0x5 MUL ADD PUSH1 0x2 ADD PUSH1 0x4 DUP7 DUP2 SLOAD DUP2 LT PUSH2 0x112D JUMPI PUSH2 0x112C PUSH2 0x294A JUMP JUMPDEST JUMPDEST SWAP1 PUSH0 MSTORE PUSH1 0x20 PUSH0 KECCAK256 SWAP1 PUSH1 0x5 MUL ADD PUSH1 0x3 ADD SLOAD PUSH1 0x4 DUP8 DUP2 SLOAD DUP2 LT PUSH2 0x1151 JUMPI PUSH2 0x1150 PUSH2 0x294A JUMP JUMPDEST JUMPDEST SWAP1 PUSH0 MSTORE PUSH1 0x20 PUSH0 KECCAK256 SWAP1 PUSH1 0x5 MUL ADD PUSH1 0x4 ADD PUSH1 0x40 MLOAD PUSH2 0x1171 SWAP6 SWAP5 SWAP4 SWAP3 SWAP2 SWAP1 PUSH2 0x2B38 JUMP JUMPDEST PUSH1 0x40 MLOAD DUP1 SWAP2 SUB SWAP1 LOG1 PUSH0 PUSH1 0x4 DUP4 DUP2 SLOAD DUP2 LT PUSH2 0x118E JUMPI PUSH2 0x118D PUSH2 0x294A JUMP JUMPDEST JUMPDEST SWAP1 PUSH0 MSTORE PUSH1 0x20 PUSH0 KECCAK256 SWAP1 PUSH1 0x5 MUL ADD PUSH1 0x3 ADD SLOAD DUP7 PUSH2 0x11A9 SWAP2 SWAP1 PUSH2 0x2BD4 JUMP JUMPDEST SWAP1 POP PUSH0 DUP2 SGT ISZERO PUSH2 0x139E JUMPI PUSH2 0x137F DUP10 PUSH1 0x4 DUP6 DUP2 SLOAD DUP2 LT PUSH2 0x11CB JUMPI PUSH2 0x11CA PUSH2 0x294A JUMP JUMPDEST JUMPDEST SWAP1 PUSH0 MSTORE PUSH1 0x20 PUSH0 KECCAK256 SWAP1 PUSH1 0x5 MUL ADD PUSH0 ADD DUP1 SLOAD PUSH2 0x11E4 SWAP1 PUSH2 0x29A4 JUMP JUMPDEST DUP1 PUSH1 0x1F ADD PUSH1 0x20 DUP1 SWAP2 DIV MUL PUSH1 0x20 ADD PUSH1 0x40 MLOAD SWAP1 DUP2 ADD PUSH1 0x40 MSTORE DUP1 SWAP3 SWAP2 SWAP1 DUP2 DUP2 MSTORE PUSH1 0x20 ADD DUP3 DUP1 SLOAD PUSH2 0x1210 SWAP1 PUSH2 0x29A4 JUMP JUMPDEST DUP1 ISZERO PUSH2 0x125B JUMPI DUP1 PUSH1 0x1F LT PUSH2 0x1232 JUMPI PUSH2 0x100 DUP1 DUP4 SLOAD DIV MUL DUP4 MSTORE SWAP2 PUSH1 0x20 ADD SWAP2 PUSH2 0x125B JUMP JUMPDEST DUP3 ADD SWAP2 SWAP1 PUSH0 MSTORE PUSH1 0x20 PUSH0 KECCAK256 SWAP1 JUMPDEST DUP2 SLOAD DUP2 MSTORE SWAP1 PUSH1 0x1 ADD SWAP1 PUSH1 0x20 ADD DUP1 DUP4 GT PUSH2 0x123E JUMPI DUP3 SWAP1 SUB PUSH1 0x1F AND DUP3 ADD SWAP2 JUMPDEST POP POP POP POP POP DUP11 PUSH1 0x4 DUP8 DUP2 SLOAD DUP2 LT PUSH2 0x1275 JUMPI PUSH2 0x1274 PUSH2 0x294A JUMP JUMPDEST JUMPDEST SWAP1 PUSH0 MSTORE PUSH1 0x20 PUSH0 KECCAK256 SWAP1 PUSH1 0x5 MUL ADD PUSH1 0x1 ADD SLOAD DUP12 DUP12 PUSH1 0x4 DUP11 DUP2 SLOAD DUP2 LT PUSH2 0x129B JUMPI PUSH2 0x129A PUSH2 0x294A JUMP JUMPDEST JUMPDEST SWAP1 PUSH0 MSTORE PUSH1 0x20 PUSH0 KECCAK256 SWAP1 PUSH1 0x5 MUL ADD PUSH1 0x3 ADD SLOAD PUSH1 0x4 DUP12 DUP2 SLOAD DUP2 LT PUSH2 0x12BF JUMPI PUSH2 0x12BE PUSH2 0x294A JUMP JUMPDEST JUMPDEST SWAP1 PUSH0 MSTORE PUSH1 0x20 PUSH0 KECCAK256 SWAP1 PUSH1 0x5 MUL ADD PUSH1 0x3 ADD SLOAD DUP14 PUSH1 0x4 DUP14 DUP2 SLOAD DUP2 LT PUSH2 0x12E4 JUMPI PUSH2 0x12E3 PUSH2 0x294A JUMP JUMPDEST JUMPDEST SWAP1 PUSH0 MSTORE PUSH1 0x20 PUSH0 KECCAK256 SWAP1 PUSH1 0x5 MUL ADD PUSH1 0x4 ADD DUP1 SLOAD PUSH2 0x12FE SWAP1 PUSH2 0x29A4 JUMP JUMPDEST DUP1 PUSH1 0x1F ADD PUSH1 0x20 DUP1 SWAP2 DIV MUL PUSH1 0x20 ADD PUSH1 0x40 MLOAD SWAP1 DUP2 ADD PUSH1 0x40 MSTORE DUP1 SWAP3 SWAP2 SWAP1 DUP2 DUP2 MSTORE PUSH1 0x20 ADD DUP3 DUP1 SLOAD PUSH2 0x132A SWAP1 PUSH2 0x29A4 JUMP JUMPDEST DUP1 ISZERO PUSH2 0x1375 JUMPI DUP1 PUSH1 0x1F LT PUSH2 0x134C JUMPI PUSH2 0x100 DUP1 DUP4 SLOAD DIV MUL DUP4 MSTORE SWAP2 PUSH1 0x20 ADD SWAP2 PUSH2 0x1375 JUMP JUMPDEST DUP3 ADD SWAP2 SWAP1 PUSH0 MSTORE PUSH1 0x20 PUSH0 KECCAK256 SWAP1 JUMPDEST DUP2 SLOAD DUP2 MSTORE SWAP1 PUSH1 0x1 ADD SWAP1 PUSH1 0x20 ADD DUP1 DUP4 GT PUSH2 0x1358 JUMPI DUP3 SWAP1 SUB PUSH1 0x1F AND DUP3 ADD SWAP2 JUMPDEST POP POP POP POP POP PUSH2 0x1BD2 JUMP JUMPDEST PUSH2 0x138D DUP10 DUP10 DUP10 DUP5 DUP10 PUSH0 PUSH2 0x1CF3 JUMP JUMPDEST PUSH2 0x1398 PUSH1 0x4 DUP5 PUSH2 0x1E31 JUMP JUMPDEST POP PUSH2 0x17B4 JUMP JUMPDEST PUSH0 DUP2 SUB PUSH2 0x1582 JUMPI PUSH2 0x1571 DUP10 PUSH1 0x4 DUP6 DUP2 SLOAD DUP2 LT PUSH2 0x13BD JUMPI PUSH2 0x13BC PUSH2 0x294A JUMP JUMPDEST JUMPDEST SWAP1 PUSH0 MSTORE PUSH1 0x20 PUSH0 KECCAK256 SWAP1 PUSH1 0x5 MUL ADD PUSH0 ADD DUP1 SLOAD PUSH2 0x13D6 SWAP1 PUSH2 0x29A4 JUMP JUMPDEST DUP1 PUSH1 0x1F ADD PUSH1 0x20 DUP1 SWAP2 DIV MUL PUSH1 0x20 ADD PUSH1 0x40 MLOAD SWAP1 DUP2 ADD PUSH1 0x40 MSTORE DUP1 SWAP3 SWAP2 SWAP1 DUP2 DUP2 MSTORE PUSH1 0x20 ADD DUP3 DUP1 SLOAD PUSH2 0x1402 SWAP1 PUSH2 0x29A4 JUMP JUMPDEST DUP1 ISZERO PUSH2 0x144D JUMPI DUP1 PUSH1 0x1F LT PUSH2 0x1424 JUMPI PUSH2 0x100 DUP1 DUP4 SLOAD DIV MUL DUP4 MSTORE SWAP2 PUSH1 0x20 ADD SWAP2 PUSH2 0x144D JUMP JUMPDEST DUP3 ADD SWAP2 SWAP1 PUSH0 MSTORE PUSH1 0x20 PUSH0 KECCAK256 SWAP1 JUMPDEST DUP2 SLOAD DUP2 MSTORE SWAP1 PUSH1 0x1 ADD SWAP1 PUSH1 0x20 ADD DUP1 DUP4 GT PUSH2 0x1430 JUMPI DUP3 SWAP1 SUB PUSH1 0x1F AND DUP3 ADD SWAP2 JUMPDEST POP POP POP POP POP DUP11 PUSH1 0x4 DUP8 DUP2 SLOAD DUP2 LT PUSH2 0x1467 JUMPI PUSH2 0x1466 PUSH2 0x294A JUMP JUMPDEST JUMPDEST SWAP1 PUSH0 MSTORE PUSH1 0x20 PUSH0 KECCAK256 SWAP1 PUSH1 0x5 MUL ADD PUSH1 0x1 ADD SLOAD DUP12 DUP12 PUSH1 0x4 DUP11 DUP2 SLOAD DUP2 LT PUSH2 0x148D JUMPI PUSH2 0x148C PUSH2 0x294A JUMP JUMPDEST JUMPDEST SWAP1 PUSH0 MSTORE PUSH1 0x20 PUSH0 KECCAK256 SWAP1 PUSH1 0x5 MUL ADD PUSH1 0x3 ADD SLOAD PUSH1 0x4 DUP12 DUP2 SLOAD DUP2 LT PUSH2 0x14B1 JUMPI PUSH2 0x14B0 PUSH2 0x294A JUMP JUMPDEST JUMPDEST SWAP1 PUSH0 MSTORE PUSH1 0x20 PUSH0 KECCAK256 SWAP1 PUSH1 0x5 MUL ADD PUSH1 0x3 ADD SLOAD DUP14 PUSH1 0x4 DUP14 DUP2 SLOAD DUP2 LT PUSH2 0x14D6 JUMPI PUSH2 0x14D5 PUSH2 0x294A JUMP JUMPDEST JUMPDEST SWAP1 PUSH0 MSTORE PUSH1 0x20 PUSH0 KECCAK256 SWAP1 PUSH1 0x5 MUL ADD PUSH1 0x4 ADD DUP1 SLOAD PUSH2 0x14F0 SWAP1 PUSH2 0x29A4 JUMP JUMPDEST DUP1 PUSH1 0x1F ADD PUSH1 0x20 DUP1 SWAP2 DIV MUL PUSH1 0x20 ADD PUSH1 0x40 MLOAD SWAP1 DUP2 ADD PUSH1 0x40 MSTORE DUP1 SWAP3 SWAP2 SWAP1 DUP2 DUP2 MSTORE PUSH1 0x20 ADD DUP3 DUP1 SLOAD PUSH2 0x151C SWAP1 PUSH2 0x29A4 JUMP JUMPDEST DUP1 ISZERO PUSH2 0x1567 JUMPI DUP1 PUSH1 0x1F LT PUSH2 0x153E JUMPI PUSH2 0x100 DUP1 DUP4 SLOAD DIV MUL DUP4 MSTORE SWAP2 PUSH1 0x20 ADD SWAP2 PUSH2 0x1567 JUMP JUMPDEST DUP3 ADD SWAP2 SWAP1 PUSH0 MSTORE PUSH1 0x20 PUSH0 KECCAK256 SWAP1 JUMPDEST DUP2 SLOAD DUP2 MSTORE SWAP1 PUSH1 0x1 ADD SWAP1 PUSH1 0x20 ADD DUP1 DUP4 GT PUSH2 0x154A JUMPI DUP3 SWAP1 SUB PUSH1 0x1F AND DUP3 ADD SWAP2 JUMPDEST POP POP POP POP POP PUSH2 0x1BD2 JUMP JUMPDEST PUSH2 0x157C PUSH1 0x4 DUP5 PUSH2 0x1E31 JUMP JUMPDEST POP PUSH2 0x17B4 JUMP JUMPDEST PUSH2 0x174E DUP10 PUSH1 0x4 DUP6 DUP2 SLOAD DUP2 LT PUSH2 0x159A JUMPI PUSH2 0x1599 PUSH2 0x294A JUMP JUMPDEST JUMPDEST SWAP1 PUSH0 MSTORE PUSH1 0x20 PUSH0 KECCAK256 SWAP1 PUSH1 0x5 MUL ADD PUSH0 ADD DUP1 SLOAD PUSH2 0x15B3 SWAP1 PUSH2 0x29A4 JUMP JUMPDEST DUP1 PUSH1 0x1F ADD PUSH1 0x20 DUP1 SWAP2 DIV MUL PUSH1 0x20 ADD PUSH1 0x40 MLOAD SWAP1 DUP2 ADD PUSH1 0x40 MSTORE DUP1 SWAP3 SWAP2 SWAP1 DUP2 DUP2 MSTORE PUSH1 0x20 ADD DUP3 DUP1 SLOAD PUSH2 0x15DF SWAP1 PUSH2 0x29A4 JUMP JUMPDEST DUP1 ISZERO PUSH2 0x162A JUMPI DUP1 PUSH1 0x1F LT PUSH2 0x1601 JUMPI PUSH2 0x100 DUP1 DUP4 SLOAD DIV MUL DUP4 MSTORE SWAP2 PUSH1 0x20 ADD SWAP2 PUSH2 0x162A JUMP JUMPDEST DUP3 ADD SWAP2 SWAP1 PUSH0 MSTORE PUSH1 0x20 PUSH0 KECCAK256 SWAP1 JUMPDEST DUP2 SLOAD DUP2 MSTORE SWAP1 PUSH1 0x1 ADD SWAP1 PUSH1 0x20 ADD DUP1 DUP4 GT PUSH2 0x160D JUMPI DUP3 SWAP1 SUB PUSH1 0x1F AND DUP3 ADD SWAP2 JUMPDEST POP POP POP POP POP DUP11 PUSH1 0x4 DUP8 DUP2 SLOAD DUP2 LT PUSH2 0x1644 JUMPI PUSH2 0x1643 PUSH2 0x294A JUMP JUMPDEST JUMPDEST SWAP1 PUSH0 MSTORE PUSH1 0x20 PUSH0 KECCAK256 SWAP1 PUSH1 0x5 MUL ADD PUSH1 0x1 ADD SLOAD DUP12 DUP12 PUSH1 0x4 DUP11 DUP2 SLOAD DUP2 LT PUSH2 0x166A JUMPI PUSH2 0x1669 PUSH2 0x294A JUMP JUMPDEST JUMPDEST SWAP1 PUSH0 MSTORE PUSH1 0x20 PUSH0 KECCAK256 SWAP1 PUSH1 0x5 MUL ADD PUSH1 0x3 ADD SLOAD PUSH1 0x4 DUP12 DUP2 SLOAD DUP2 LT PUSH2 0x168E JUMPI PUSH2 0x168D PUSH2 0x294A JUMP JUMPDEST JUMPDEST SWAP1 PUSH0 MSTORE PUSH1 0x20 PUSH0 KECCAK256 SWAP1 PUSH1 0x5 MUL ADD PUSH1 0x3 ADD SLOAD DUP14 PUSH1 0x4 DUP14 DUP2 SLOAD DUP2 LT PUSH2 0x16B3 JUMPI PUSH2 0x16B2 PUSH2 0x294A JUMP JUMPDEST JUMPDEST SWAP1 PUSH0 MSTORE PUSH1 0x20 PUSH0 KECCAK256 SWAP1 PUSH1 0x5 MUL ADD PUSH1 0x4 ADD DUP1 SLOAD PUSH2 0x16CD SWAP1 PUSH2 0x29A4 JUMP JUMPDEST DUP1 PUSH1 0x1F ADD PUSH1 0x20 DUP1 SWAP2 DIV MUL PUSH1 0x20 ADD PUSH1 0x40 MLOAD SWAP1 DUP2 ADD PUSH1 0x40 MSTORE DUP1 SWAP3 SWAP2 SWAP1 DUP2 DUP2 MSTORE PUSH1 0x20 ADD DUP3 DUP1 SLOAD PUSH2 0x16F9 SWAP1 PUSH2 0x29A4 JUMP JUMPDEST DUP1 ISZERO PUSH2 0x1744 JUMPI DUP1 PUSH1 0x1F LT PUSH2 0x171B JUMPI PUSH2 0x100 DUP1 DUP4 SLOAD DIV MUL DUP4 MSTORE SWAP2 PUSH1 0x20 ADD SWAP2 PUSH2 0x1744 JUMP JUMPDEST DUP3 ADD SWAP2 SWAP1 PUSH0 MSTORE PUSH1 0x20 PUSH0 KECCAK256 SWAP1 JUMPDEST DUP2 SLOAD DUP2 MSTORE SWAP1 PUSH1 0x1 ADD SWAP1 PUSH1 0x20 ADD DUP1 DUP4 GT PUSH2 0x1727 JUMPI DUP3 SWAP1 SUB PUSH1 0x1F AND DUP3 ADD SWAP2 JUMPDEST POP POP POP POP POP PUSH2 0x1BD2 JUMP JUMPDEST PUSH32 0xFFFFFFFFFFFFFFFFFFFFFFFFFFFFFFFFFFFFFFFFFFFFFFFFFFFFFFFFFFFFFFFF DUP2 PUSH2 0x177A SWAP2 SWAP1 PUSH2 0x2C14 JUMP JUMPDEST PUSH1 0x4 DUP5 DUP2 SLOAD DUP2 LT PUSH2 0x178E JUMPI PUSH2 0x178D PUSH2 0x294A JUMP JUMPDEST JUMPDEST SWAP1 PUSH0 MSTORE PUSH1 0x20 PUSH0 KECCAK256 SWAP1 PUSH1 0x5 MUL ADD PUSH1 0x3 ADD DUP2 SWAP1 SSTORE POP POP PUSH2 0x17B4 JUMP JUMPDEST DUP1 DUP1 PUSH1 0x1 ADD SWAP2 POP POP PUSH2 0x1038 JUMP JUMPDEST POP JUMPDEST DUP1 DUP1 PUSH1 0x1 ADD SWAP2 POP POP PUSH2 0xFE4 JUMP JUMPDEST POP DUP1 PUSH2 0x17D8 JUMPI PUSH2 0x17D7 DUP7 DUP7 DUP7 DUP7 DUP7 PUSH0 PUSH2 0x1CF3 JUMP JUMPDEST JUMPDEST POP POP POP POP POP POP JUMP JUMPDEST PUSH1 0x60 DUP2 PUSH1 0x2 SLOAD DUP2 PUSH1 0x40 MLOAD PUSH1 0x20 ADD PUSH2 0x17F7 SWAP2 SWAP1 PUSH2 0x2CC4 JUMP JUMPDEST PUSH1 0x40 MLOAD PUSH1 0x20 DUP2 DUP4 SUB SUB DUP2 MSTORE SWAP1 PUSH1 0x40 MSTORE DUP1 MLOAD SWAP1 PUSH1 0x20 ADD KECCAK256 PUSH1 0x40 MLOAD PUSH1 0x20 ADD PUSH2 0x181D SWAP2 SWAP1 PUSH2 0x2D03 JUMP JUMPDEST PUSH1 0x40 MLOAD PUSH1 0x20 DUP2 DUP4 SUB SUB DUP2 MSTORE SWAP1 PUSH1 0x40 MSTORE DUP1 MLOAD SWAP1 PUSH1 0x20 ADD KECCAK256 EQ PUSH2 0x1873 JUMPI PUSH1 0x40 MLOAD PUSH32 0x8C379A000000000000000000000000000000000000000000000000000000000 DUP2 MSTORE PUSH1 0x4 ADD PUSH2 0x186A SWAP1 PUSH2 0x2D67 JUMP JUMPDEST PUSH1 0x40 MLOAD DUP1 SWAP2 SUB SWAP1 REVERT JUMPDEST PUSH1 0x5 DUP1 SLOAD DUP1 PUSH1 0x20 MUL PUSH1 0x20 ADD PUSH1 0x40 MLOAD SWAP1 DUP2 ADD PUSH1 0x40 MSTORE DUP1 SWAP3 SWAP2 SWAP1 DUP2 DUP2 MSTORE PUSH1 0x20 ADD PUSH0 SWAP1 JUMPDEST DUP3 DUP3 LT ISZERO PUSH2 0x1BC6 JUMPI DUP4 DUP3 SWAP1 PUSH0 MSTORE PUSH1 0x20 PUSH0 KECCAK256 SWAP1 PUSH1 0xA MUL ADD PUSH1 0x40 MLOAD DUP1 PUSH2 0x140 ADD PUSH1 0x40 MSTORE SWAP1 DUP2 PUSH0 DUP3 ADD DUP1 SLOAD PUSH2 0x18C5 SWAP1 PUSH2 0x29A4 JUMP JUMPDEST DUP1 PUSH1 0x1F ADD PUSH1 0x20 DUP1 SWAP2 DIV MUL PUSH1 0x20 ADD PUSH1 0x40 MLOAD SWAP1 DUP2 ADD PUSH1 0x40 MSTORE DUP1 SWAP3 SWAP2 SWAP1 DUP2 DUP2 MSTORE PUSH1 0x20 ADD DUP3 DUP1 SLOAD PUSH2 0x18F1 SWAP1 PUSH2 0x29A4 JUMP JUMPDEST DUP1 ISZERO PUSH2 0x193C JUMPI DUP1 PUSH1 0x1F LT PUSH2 0x1913 JUMPI PUSH2 0x100 DUP1 DUP4 SLOAD DIV MUL DUP4 MSTORE SWAP2 PUSH1 0x20 ADD SWAP2 PUSH2 0x193C JUMP JUMPDEST DUP3 ADD SWAP2 SWAP1 PUSH0 MSTORE PUSH1 0x20 PUSH0 KECCAK256 SWAP1 JUMPDEST DUP2 SLOAD DUP2 MSTORE SWAP1 PUSH1 0x1 ADD SWAP1 PUSH1 0x20 ADD DUP1 DUP4 GT PUSH2 0x191F JUMPI DUP3 SWAP1 SUB PUSH1 0x1F AND DUP3 ADD SWAP2 JUMPDEST POP POP POP POP POP DUP2 MSTORE PUSH1 0x20 ADD PUSH1 0x1 DUP3 ADD DUP1 SLOAD PUSH2 0x1955 SWAP1 PUSH2 0x29A4 JUMP JUMPDEST DUP1 PUSH1 0x1F ADD PUSH1 0x20 DUP1 SWAP2 DIV MUL PUSH1 0x20 ADD PUSH1 0x40 MLOAD SWAP1 DUP2 ADD PUSH1 0x40 MSTORE DUP1 SWAP3 SWAP2 SWAP1 DUP2 DUP2 MSTORE PUSH1 0x20 ADD DUP3 DUP1 SLOAD PUSH2 0x1981 SWAP1 PUSH2 0x29A4 JUMP JUMPDEST DUP1 ISZERO PUSH2 0x19CC JUMPI DUP1 PUSH1 0x1F LT PUSH2 0x19A3 JUMPI PUSH2 0x100 DUP1 DUP4 SLOAD DIV MUL DUP4 MSTORE SWAP2 PUSH1 0x20 ADD SWAP2 PUSH2 0x19CC JUMP JUMPDEST DUP3 ADD SWAP2 SWAP1 PUSH0 MSTORE PUSH1 0x20 PUSH0 KECCAK256 SWAP1 JUMPDEST DUP2 SLOAD DUP2 MSTORE SWAP1 PUSH1 0x1 ADD SWAP1 PUSH1 0x20 ADD DUP1 DUP4 GT PUSH2 0x19AF JUMPI DUP3 SWAP1 SUB PUSH1 0x1F AND DUP3 ADD SWAP2 JUMPDEST POP POP POP POP POP DUP2 MSTORE PUSH1 0x20 ADD PUSH1 0x2 DUP3 ADD SLOAD DUP2 MSTORE PUSH1 0x20 ADD PUSH1 0x3 DUP3 ADD SLOAD DUP2 MSTORE PUSH1 0x20 ADD PUSH1 0x4 DUP3 ADD DUP1 SLOAD PUSH2 0x19F9 SWAP1 PUSH2 0x29A4 JUMP JUMPDEST DUP1 PUSH1 0x1F ADD PUSH1 0x20 DUP1 SWAP2 DIV MUL PUSH1 0x20 ADD PUSH1 0x40 MLOAD SWAP1 DUP2 ADD PUSH1 0x40 MSTORE DUP1 SWAP3 SWAP2 SWAP1 DUP2 DUP2 MSTORE PUSH1 0x20 ADD DUP3 DUP1 SLOAD PUSH2 0x1A25 SWAP1 PUSH2 0x29A4 JUMP JUMPDEST DUP1 ISZERO PUSH2 0x1A70 JUMPI DUP1 PUSH1 0x1F LT PUSH2 0x1A47 JUMPI PUSH2 0x100 DUP1 DUP4 SLOAD DIV MUL DUP4 MSTORE SWAP2 PUSH1 0x20 ADD SWAP2 PUSH2 0x1A70 JUMP JUMPDEST DUP3 ADD SWAP2 SWAP1 PUSH0 MSTORE PUSH1 0x20 PUSH0 KECCAK256 SWAP1 JUMPDEST DUP2 SLOAD DUP2 MSTORE SWAP1 PUSH1 0x1 ADD SWAP1 PUSH1 0x20 ADD DUP1 DUP4 GT PUSH2 0x1A53 JUMPI DUP3 SWAP1 SUB PUSH1 0x1F AND DUP3 ADD SWAP2 JUMPDEST POP POP POP POP POP DUP2 MSTORE PUSH1 0x20 ADD PUSH1 0x5 DUP3 ADD SLOAD DUP2 MSTORE PUSH1 0x20 ADD PUSH1 0x6 DUP3 ADD SLOAD DUP2 MSTORE PUSH1 0x20 ADD PUSH1 0x7 DUP3 ADD SLOAD DUP2 MSTORE PUSH1 0x20 ADD PUSH1 0x8 DUP3 ADD DUP1 SLOAD PUSH2 0x1AA7 SWAP1 PUSH2 0x29A4 JUMP JUMPDEST DUP1 PUSH1 0x1F ADD PUSH1 0x20 DUP1 SWAP2 DIV MUL PUSH1 0x20 ADD PUSH1 0x40 MLOAD SWAP1 DUP2 ADD PUSH1 0x40 MSTORE DUP1 SWAP3 SWAP2 SWAP1 DUP2 DUP2 MSTORE PUSH1 0x20 ADD DUP3 DUP1 SLOAD PUSH2 0x1AD3 SWAP1 PUSH2 0x29A4 JUMP JUMPDEST DUP1 ISZERO PUSH2 0x1B1E JUMPI DUP1 PUSH1 0x1F LT PUSH2 0x1AF5 JUMPI PUSH2 0x100 DUP1 DUP4 SLOAD DIV MUL DUP4 MSTORE SWAP2 PUSH1 0x20 ADD SWAP2 PUSH2 0x1B1E JUMP JUMPDEST DUP3 ADD SWAP2 SWAP1 PUSH0 MSTORE PUSH1 0x20 PUSH0 KECCAK256 SWAP1 JUMPDEST DUP2 SLOAD DUP2 MSTORE SWAP1 PUSH1 0x1 ADD SWAP1 PUSH1 0x20 ADD DUP1 DUP4 GT PUSH2 0x1B01 JUMPI DUP3 SWAP1 SUB PUSH1 0x1F AND DUP3 ADD SWAP2 JUMPDEST POP POP POP POP POP DUP2 MSTORE PUSH1 0x20 ADD PUSH1 0x9 DUP3 ADD DUP1 SLOAD PUSH2 0x1B37 SWAP1 PUSH2 0x29A4 JUMP JUMPDEST DUP1 PUSH1 0x1F ADD PUSH1 0x20 DUP1 SWAP2 DIV MUL PUSH1 0x20 ADD PUSH1 0x40 MLOAD SWAP1 DUP2 ADD PUSH1 0x40 MSTORE DUP1 SWAP3 SWAP2 SWAP1 DUP2 DUP2 MSTORE PUSH1 0x20 ADD DUP3 DUP1 SLOAD PUSH2 0x1B63 SWAP1 PUSH2 0x29A4 JUMP JUMPDEST DUP1 ISZERO PUSH2 0x1BAE JUMPI DUP1 PUSH1 0x1F LT PUSH2 0x1B85 JUMPI PUSH2 0x100 DUP1 DUP4 SLOAD DIV MUL DUP4 MSTORE SWAP2 PUSH1 0x20 ADD SWAP2 PUSH2 0x1BAE JUMP JUMPDEST DUP3 ADD SWAP2 SWAP1 PUSH0 MSTORE PUSH1 0x20 PUSH0 KECCAK256 SWAP1 JUMPDEST DUP2 SLOAD DUP2 MSTORE SWAP1 PUSH1 0x1 ADD SWAP1 PUSH1 0x20 ADD DUP1 DUP4 GT PUSH2 0x1B91 JUMPI DUP3 SWAP1 SUB PUSH1 0x1F AND DUP3 ADD SWAP2 JUMPDEST POP POP POP POP POP DUP2 MSTORE POP POP DUP2 MSTORE PUSH1 0x20 ADD SWAP1 PUSH1 0x1 ADD SWAP1 PUSH2 0x1894 JUMP JUMPDEST POP POP POP POP SWAP2 POP POP SWAP2 SWAP1 POP JUMP JUMPDEST PUSH0 PUSH1 0x40 MLOAD DUP1 PUSH2 0x140 ADD PUSH1 0x40 MSTORE DUP1 DUP13 DUP2 MSTORE PUSH1 0x20 ADD DUP12 DUP2 MSTORE PUSH1 0x20 ADD DUP11 DUP2 MSTORE PUSH1 0x20 ADD DUP10 DUP2 MSTORE PUSH1 0x20 ADD DUP9 DUP2 MSTORE PUSH1 0x20 ADD DUP8 DUP2 MSTORE PUSH1 0x20 ADD DUP7 DUP2 MSTORE PUSH1 0x20 ADD DUP6 DUP2 MSTORE PUSH1 0x20 ADD DUP5 DUP2 MSTORE PUSH1 0x20 ADD DUP4 DUP2 MSTORE POP SWAP1 POP PUSH1 0x5 DUP2 SWAP1 DUP1 PUSH1 0x1 DUP2 SLOAD ADD DUP1 DUP3 SSTORE DUP1 SWAP2 POP POP PUSH1 0x1 SWAP1 SUB SWAP1 PUSH0 MSTORE PUSH1 0x20 PUSH0 KECCAK256 SWAP1 PUSH1 0xA MUL ADD PUSH0 SWAP1 SWAP2 SWAP1 SWAP2 SWAP1 SWAP2 POP PUSH0 DUP3 ADD MLOAD DUP2 PUSH0 ADD SWAP1 DUP2 PUSH2 0x1C57 SWAP2 SWAP1 PUSH2 0x2F10 JUMP JUMPDEST POP PUSH1 0x20 DUP3 ADD MLOAD DUP2 PUSH1 0x1 ADD SWAP1 DUP2 PUSH2 0x1C6D SWAP2 SWAP1 PUSH2 0x2F10 JUMP JUMPDEST POP PUSH1 0x40 DUP3 ADD MLOAD DUP2 PUSH1 0x2 ADD SSTORE PUSH1 0x60 DUP3 ADD MLOAD DUP2 PUSH1 0x3 ADD SSTORE PUSH1 0x80 DUP3 ADD MLOAD DUP2 PUSH1 0x4 ADD SWAP1 DUP2 PUSH2 0x1C97 SWAP2 SWAP1 PUSH2 0x2F10 JUMP JUMPDEST POP PUSH1 0xA0 DUP3 ADD MLOAD DUP2 PUSH1 0x5 ADD SSTORE PUSH1 0xC0 DUP3 ADD MLOAD DUP2 PUSH1 0x6 ADD SSTORE PUSH1 0xE0 DUP3 ADD MLOAD DUP2 PUSH1 0x7 ADD SSTORE PUSH2 0x100 DUP3 ADD MLOAD DUP2 PUSH1 0x8 ADD SWAP1 DUP2 PUSH2 0x1CCC SWAP2 SWAP1 PUSH2 0x2F10 JUMP JUMPDEST POP PUSH2 0x120 DUP3 ADD MLOAD DUP2 PUSH1 0x9 ADD SWAP1 DUP2 PUSH2 0x1CE3 SWAP2 SWAP1 PUSH2 0x2F10 JUMP JUMPDEST POP POP POP POP POP POP POP POP POP POP POP POP POP POP JUMP JUMPDEST PUSH0 PUSH1 0x40 MLOAD DUP1 PUSH1 0xA0 ADD PUSH1 0x40 MSTORE DUP1 DUP9 DUP2 MSTORE PUSH1 0x20 ADD DUP8 DUP2 MSTORE PUSH1 0x20 ADD DUP7 DUP2 MSTORE PUSH1 0x20 ADD DUP6 DUP2 MSTORE PUSH1 0x20 ADD DUP5 DUP2 MSTORE POP SWAP1 POP PUSH0 DUP3 SUB PUSH2 0x1DA8 JUMPI PUSH1 0x3 DUP2 SWAP1 DUP1 PUSH1 0x1 DUP2 SLOAD ADD DUP1 DUP3 SSTORE DUP1 SWAP2 POP POP PUSH1 0x1 SWAP1 SUB SWAP1 PUSH0 MSTORE PUSH1 0x20 PUSH0 KECCAK256 SWAP1 PUSH1 0x5 MUL ADD PUSH0 SWAP1 SWAP2 SWAP1 SWAP2 SWAP1 SWAP2 POP PUSH0 DUP3 ADD MLOAD DUP2 PUSH0 ADD SWAP1 DUP2 PUSH2 0x1D60 SWAP2 SWAP1 PUSH2 0x2F10 JUMP JUMPDEST POP PUSH1 0x20 DUP3 ADD MLOAD DUP2 PUSH1 0x1 ADD SSTORE PUSH1 0x40 DUP3 ADD MLOAD DUP2 PUSH1 0x2 ADD SWAP1 DUP2 PUSH2 0x1D80 SWAP2 SWAP1 PUSH2 0x2F10 JUMP JUMPDEST POP PUSH1 0x60 DUP3 ADD MLOAD DUP2 PUSH1 0x3 ADD SSTORE PUSH1 0x80 DUP3 ADD MLOAD DUP2 PUSH1 0x4 ADD SWAP1 DUP2 PUSH2 0x1DA0 SWAP2 SWAP1 PUSH2 0x2F10 JUMP JUMPDEST POP POP POP PUSH2 0x1E28 JUMP JUMPDEST PUSH1 0x4 DUP2 SWAP1 DUP1 PUSH1 0x1 DUP2 SLOAD ADD DUP1 DUP3 SSTORE DUP1 SWAP2 POP POP PUSH1 0x1 SWAP1 SUB SWAP1 PUSH0 MSTORE PUSH1 0x20 PUSH0 KECCAK256 SWAP1 PUSH1 0x5 MUL ADD PUSH0 SWAP1 SWAP2 SWAP1 SWAP2 SWAP1 SWAP2 POP PUSH0 DUP3 ADD MLOAD DUP2 PUSH0 ADD SWAP1 DUP2 PUSH2 0x1DE4 SWAP2 SWAP1 PUSH2 0x2F10 JUMP JUMPDEST POP PUSH1 0x20 DUP3 ADD MLOAD DUP2 PUSH1 0x1 ADD SSTORE PUSH1 0x40 DUP3 ADD MLOAD DUP2 PUSH1 0x2 ADD SWAP1 DUP2 PUSH2 0x1E04 SWAP2 SWAP1 PUSH2 0x2F10 JUMP JUMPDEST POP PUSH1 0x60 DUP3 ADD MLOAD DUP2 PUSH1 0x3 ADD SSTORE PUSH1 0x80 DUP3 ADD MLOAD DUP2 PUSH1 0x4 ADD SWAP1 DUP2 PUSH2 0x1E24 SWAP2 SWAP1 PUSH2 0x2F10 JUMP JUMPDEST POP POP POP JUMPDEST POP POP POP POP POP POP POP JUMP JUMPDEST PUSH0 DUP3 DUP3 DUP2 SLOAD DUP2 LT PUSH2 0x1E45 JUMPI PUSH2 0x1E44 PUSH2 0x294A JUMP JUMPDEST JUMPDEST SWAP1 PUSH0 MSTORE PUSH1 0x20 PUSH0 KECCAK256 SWAP1 PUSH1 0x5 MUL ADD PUSH1 0x40 MLOAD DUP1 PUSH1 0xA0 ADD PUSH1 0x40 MSTORE SWAP1 DUP2 PUSH0 DUP3 ADD DUP1 SLOAD PUSH2 0x1E6B SWAP1 PUSH2 0x29A4 JUMP JUMPDEST DUP1 PUSH1 0x1F ADD PUSH1 0x20 DUP1 SWAP2 DIV MUL PUSH1 0x20 ADD PUSH1 0x40 MLOAD SWAP1 DUP2 ADD PUSH1 0x40 MSTORE DUP1 SWAP3 SWAP2 SWAP1 DUP2 DUP2 MSTORE PUSH1 0x20 ADD DUP3 DUP1 SLOAD PUSH2 0x1E97 SWAP1 PUSH2 0x29A4 JUMP JUMPDEST DUP1 ISZERO PUSH2 0x1EE2 JUMPI DUP1 PUSH1 0x1F LT PUSH2 0x1EB9 JUMPI PUSH2 0x100 DUP1 DUP4 SLOAD DIV MUL DUP4 MSTORE SWAP2 PUSH1 0x20 ADD SWAP2 PUSH2 0x1EE2 JUMP JUMPDEST DUP3 ADD SWAP2 SWAP1 PUSH0 MSTORE PUSH1 0x20 PUSH0 KECCAK256 SWAP1 JUMPDEST DUP2 SLOAD DUP2 MSTORE SWAP1 PUSH1 0x1 ADD SWAP1 PUSH1 0x20 ADD DUP1 DUP4 GT PUSH2 0x1EC5 JUMPI DUP3 SWAP1 SUB PUSH1 0x1F AND DUP3 ADD SWAP2 JUMPDEST POP POP POP POP POP DUP2 MSTORE PUSH1 0x20 ADD PUSH1 0x1 DUP3 ADD SLOAD DUP2 MSTORE PUSH1 0x20 ADD PUSH1 0x2 DUP3 ADD DUP1 SLOAD PUSH2 0x1F05 SWAP1 PUSH2 0x29A4 JUMP JUMPDEST DUP1 PUSH1 0x1F ADD PUSH1 0x20 DUP1 SWAP2 DIV MUL PUSH1 0x20 ADD PUSH1 0x40 MLOAD SWAP1 DUP2 ADD PUSH1 0x40 MSTORE DUP1 SWAP3 SWAP2 SWAP1 DUP2 DUP2 MSTORE PUSH1 0x20 ADD DUP3 DUP1 SLOAD PUSH2 0x1F31 SWAP1 PUSH2 0x29A4 JUMP JUMPDEST DUP1 ISZERO PUSH2 0x1F7C JUMPI DUP1 PUSH1 0x1F LT PUSH2 0x1F53 JUMPI PUSH2 0x100 DUP1 DUP4 SLOAD DIV MUL DUP4 MSTORE SWAP2 PUSH1 0x20 ADD SWAP2 PUSH2 0x1F7C JUMP JUMPDEST DUP3 ADD SWAP2 SWAP1 PUSH0 MSTORE PUSH1 0x20 PUSH0 KECCAK256 SWAP1 JUMPDEST DUP2 SLOAD DUP2 MSTORE SWAP1 PUSH1 0x1 ADD SWAP1 PUSH1 0x20 ADD DUP1 DUP4 GT PUSH2 0x1F5F JUMPI DUP3 SWAP1 SUB PUSH1 0x1F AND DUP3 ADD SWAP2 JUMPDEST POP POP POP POP POP DUP2 MSTORE PUSH1 0x20 ADD PUSH1 0x3 DUP3 ADD SLOAD DUP2 MSTORE PUSH1 0x20 ADD PUSH1 0x4 DUP3 ADD DUP1 SLOAD PUSH2 0x1F9F SWAP1 PUSH2 0x29A4 JUMP JUMPDEST DUP1 PUSH1 0x1F ADD PUSH1 0x20 DUP1 SWAP2 DIV MUL PUSH1 0x20 ADD PUSH1 0x40 MLOAD SWAP1 DUP2 ADD PUSH1 0x40 MSTORE DUP1 SWAP3 SWAP2 SWAP1 DUP2 DUP2 MSTORE PUSH1 0x20 ADD DUP3 DUP1 SLOAD PUSH2 0x1FCB SWAP1 PUSH2 0x29A4 JUMP JUMPDEST DUP1 ISZERO PUSH2 0x2016 JUMPI DUP1 PUSH1 0x1F LT PUSH2 0x1FED JUMPI PUSH2 0x100 DUP1 DUP4 SLOAD DIV MUL DUP4 MSTORE SWAP2 PUSH1 0x20 ADD SWAP2 PUSH2 0x2016 JUMP JUMPDEST DUP3 ADD SWAP2 SWAP1 PUSH0 MSTORE PUSH1 0x20 PUSH0 KECCAK256 SWAP1 JUMPDEST DUP2 SLOAD DUP2 MSTORE SWAP1 PUSH1 0x1 ADD SWAP1 PUSH1 0x20 ADD DUP1 DUP4 GT PUSH2 0x1FF9 JUMPI DUP3 SWAP1 SUB PUSH1 0x1F AND DUP3 ADD SWAP2 JUMPDEST POP POP POP POP POP DUP2 MSTORE POP POP SWAP1 POP DUP3 PUSH1 0x1 DUP5 DUP1 SLOAD SWAP1 POP PUSH2 0x2033 SWAP2 SWAP1 PUSH2 0x2FDF JUMP JUMPDEST DUP2 SLOAD DUP2 LT PUSH2 0x2044 JUMPI PUSH2 0x2043 PUSH2 0x294A JUMP JUMPDEST JUMPDEST SWAP1 PUSH0 MSTORE PUSH1 0x20 PUSH0 KECCAK256 SWAP1 PUSH1 0x5 MUL ADD DUP4 DUP4 DUP2 SLOAD DUP2 LT PUSH2 0x2063 JUMPI PUSH2 0x2062 PUSH2 0x294A JUMP JUMPDEST JUMPDEST SWAP1 PUSH0 MSTORE PUSH1 0x20 PUSH0 KECCAK256 SWAP1 PUSH1 0x5 MUL ADD PUSH0 DUP3 ADD DUP2 PUSH0 ADD SWAP1 DUP2 PUSH2 0x2081 SWAP2 SWAP1 PUSH2 0x3027 JUMP JUMPDEST POP PUSH1 0x1 DUP3 ADD SLOAD DUP2 PUSH1 0x1 ADD SSTORE PUSH1 0x2 DUP3 ADD DUP2 PUSH1 0x2 ADD SWAP1 DUP2 PUSH2 0x20A0 SWAP2 SWAP1 PUSH2 0x3027 JUMP JUMPDEST POP PUSH1 0x3 DUP3 ADD SLOAD DUP2 PUSH1 0x3 ADD SSTORE PUSH1 0x4 DUP3 ADD DUP2 PUSH1 0x4 ADD SWAP1 DUP2 PUSH2 0x20BF SWAP2 SWAP1 PUSH2 0x3027 JUMP JUMPDEST POP SWAP1 POP POP DUP1 DUP4 PUSH1 0x1 DUP6 DUP1 SLOAD SWAP1 POP PUSH2 0x20D6 SWAP2 SWAP1 PUSH2 0x2FDF JUMP JUMPDEST DUP2 SLOAD DUP2 LT PUSH2 0x20E7 JUMPI PUSH2 0x20E6 PUSH2 0x294A JUMP JUMPDEST JUMPDEST SWAP1 PUSH0 MSTORE PUSH1 0x20 PUSH0 KECCAK256 SWAP1 PUSH1 0x5 MUL ADD PUSH0 DUP3 ADD MLOAD DUP2 PUSH0 ADD SWAP1 DUP2 PUSH2 0x2106 SWAP2 SWAP1 PUSH2 0x2F10 JUMP JUMPDEST POP PUSH1 0x20 DUP3 ADD MLOAD DUP2 PUSH1 0x1 ADD SSTORE PUSH1 0x40 DUP3 ADD MLOAD DUP2 PUSH1 0x2 ADD SWAP1 DUP2 PUSH2 0x2126 SWAP2 SWAP1 PUSH2 0x2F10 JUMP JUMPDEST POP PUSH1 0x60 DUP3 ADD MLOAD DUP2 PUSH1 0x3 ADD SSTORE PUSH1 0x80 DUP3 ADD MLOAD DUP2 PUSH1 0x4 ADD SWAP1 DUP2 PUSH2 0x2146 SWAP2 SWAP1 PUSH2 0x2F10 JUMP JUMPDEST POP SWAP1 POP POP DUP3 DUP1 SLOAD DUP1 PUSH2 0x215B JUMPI PUSH2 0x215A PUSH2 0x310C JUMP JUMPDEST JUMPDEST PUSH1 0x1 SWAP1 SUB DUP2 DUP2 SWAP1 PUSH0 MSTORE PUSH1 0x20 PUSH0 KECCAK256 SWAP1 PUSH1 0x5 MUL ADD PUSH0 DUP1 DUP3 ADD PUSH0 PUSH2 0x217C SWAP2 SWAP1 PUSH2 0x21FC JUMP JUMPDEST PUSH1 0x1 DUP3 ADD PUSH0 SWAP1 SSTORE PUSH1 0x2 DUP3 ADD PUSH0 PUSH2 0x2192 SWAP2 SWAP1 PUSH2 0x21FC JUMP JUMPDEST PUSH1 0x3 DUP3 ADD PUSH0 SWAP1 SSTORE PUSH1 0x4 DUP3 ADD PUSH0 PUSH2 0x21A8 SWAP2 SWAP1 PUSH2 0x21FC JUMP JUMPDEST POP POP SWAP1 SSTORE POP POP POP JUMP JUMPDEST DUP3 DUP1 SLOAD DUP3 DUP3 SSTORE SWAP1 PUSH0 MSTORE PUSH1 0x20 PUSH0 KECCAK256 SWAP1 DUP2 ADD SWAP3 DUP3 ISZERO PUSH2 0x21EB JUMPI SWAP2 PUSH1 0x20 MUL DUP3 ADD JUMPDEST DUP3 DUP2 GT ISZERO PUSH2 0x21EA JUMPI DUP3 MLOAD DUP3 SSTORE SWAP2 PUSH1 0x20 ADD SWAP2 SWAP1 PUSH1 0x1 ADD SWAP1 PUSH2 0x21CF JUMP JUMPDEST JUMPDEST POP SWAP1 POP PUSH2 0x21F8 SWAP2 SWAP1 PUSH2 0x2239 JUMP JUMPDEST POP SWAP1 JUMP JUMPDEST POP DUP1 SLOAD PUSH2 0x2208 SWAP1 PUSH2 0x29A4 JUMP JUMPDEST PUSH0 DUP3 SSTORE DUP1 PUSH1 0x1F LT PUSH2 0x2219 JUMPI POP PUSH2 0x2236 JUMP JUMPDEST PUSH1 0x1F ADD PUSH1 0x20 SWAP1 DIV SWAP1 PUSH0 MSTORE PUSH1 0x20 PUSH0 KECCAK256 SWAP1 DUP2 ADD SWAP1 PUSH2 0x2235 SWAP2 SWAP1 PUSH2 0x2239 JUMP JUMPDEST JUMPDEST POP JUMP JUMPDEST JUMPDEST DUP1 DUP3 GT ISZERO PUSH2 0x2250 JUMPI PUSH0 DUP2 PUSH0 SWAP1 SSTORE POP PUSH1 0x1 ADD PUSH2 0x223A JUMP JUMPDEST POP SWAP1 JUMP JUMPDEST PUSH0 PUSH1 0x40 MLOAD SWAP1 POP SWAP1 JUMP JUMPDEST PUSH0 DUP1 REVERT JUMPDEST PUSH0 DUP1 REVERT JUMPDEST PUSH0 DUP1 REVERT JUMPDEST PUSH0 DUP1 REVERT JUMPDEST PUSH0 PUSH1 0x1F NOT PUSH1 0x1F DUP4 ADD AND SWAP1 POP SWAP2 SWAP1 POP JUMP JUMPDEST PUSH32 0x4E487B7100000000000000000000000000000000000000000000000000000000 PUSH0 MSTORE PUSH1 0x41 PUSH1 0x4 MSTORE PUSH1 0x24 PUSH0 REVERT JUMPDEST PUSH2 0x22B3 DUP3 PUSH2 0x226D JUMP JUMPDEST DUP2 ADD DUP2 DUP2 LT PUSH8 0xFFFFFFFFFFFFFFFF DUP3 GT OR ISZERO PUSH2 0x22D2 JUMPI PUSH2 0x22D1 PUSH2 0x227D JUMP JUMPDEST JUMPDEST DUP1 PUSH1 0x40 MSTORE POP POP POP JUMP JUMPDEST PUSH0 PUSH2 0x22E4 PUSH2 0x2254 JUMP JUMPDEST SWAP1 POP PUSH2 0x22F0 DUP3 DUP3 PUSH2 0x22AA JUMP JUMPDEST SWAP2 SWAP1 POP JUMP JUMPDEST PUSH0 PUSH8 0xFFFFFFFFFFFFFFFF DUP3 GT ISZERO PUSH2 0x230F JUMPI PUSH2 0x230E PUSH2 0x227D JUMP JUMPDEST JUMPDEST PUSH2 0x2318 DUP3 PUSH2 0x226D JUMP JUMPDEST SWAP1 POP PUSH1 0x20 DUP2 ADD SWAP1 POP SWAP2 SWAP1 POP JUMP JUMPDEST DUP3 DUP2 DUP4 CALLDATACOPY PUSH0 DUP4 DUP4 ADD MSTORE POP POP POP JUMP JUMPDEST PUSH0 PUSH2 0x2345 PUSH2 0x2340 DUP5 PUSH2 0x22F5 JUMP JUMPDEST PUSH2 0x22DB JUMP JUMPDEST SWAP1 POP DUP3 DUP2 MSTORE PUSH1 0x20 DUP2 ADD DUP5 DUP5 DUP5 ADD GT ISZERO PUSH2 0x2361 JUMPI PUSH2 0x2360 PUSH2 0x2269 JUMP JUMPDEST JUMPDEST PUSH2 0x236C DUP5 DUP3 DUP6 PUSH2 0x2325 JUMP JUMPDEST POP SWAP4 SWAP3 POP POP POP JUMP JUMPDEST PUSH0 DUP3 PUSH1 0x1F DUP4 ADD SLT PUSH2 0x2388 JUMPI PUSH2 0x2387 PUSH2 0x2265 JUMP JUMPDEST JUMPDEST DUP2 CALLDATALOAD PUSH2 0x2398 DUP5 DUP3 PUSH1 0x20 DUP7 ADD PUSH2 0x2333 JUMP JUMPDEST SWAP2 POP POP SWAP3 SWAP2 POP POP JUMP JUMPDEST PUSH0 DUP2 SWAP1 POP SWAP2 SWAP1 POP JUMP JUMPDEST PUSH2 0x23B3 DUP2 PUSH2 0x23A1 JUMP JUMPDEST DUP2 EQ PUSH2 0x23BD JUMPI PUSH0 DUP1 REVERT JUMPDEST POP JUMP JUMPDEST PUSH0 DUP2 CALLDATALOAD SWAP1 POP PUSH2 0x23CE DUP2 PUSH2 0x23AA JUMP JUMPDEST SWAP3 SWAP2 POP POP JUMP JUMPDEST PUSH0 DUP1 PUSH0 DUP1 PUSH0 PUSH1 0xA0 DUP7 DUP9 SUB SLT ISZERO PUSH2 0x23ED JUMPI PUSH2 0x23EC PUSH2 0x225D JUMP JUMPDEST JUMPDEST PUSH0 DUP7 ADD CALLDATALOAD PUSH8 0xFFFFFFFFFFFFFFFF DUP2 GT ISZERO PUSH2 0x240A JUMPI PUSH2 0x2409 PUSH2 0x2261 JUMP JUMPDEST JUMPDEST PUSH2 0x2416 DUP9 DUP3 DUP10 ADD PUSH2 0x2374 JUMP JUMPDEST SWAP6 POP POP PUSH1 0x20 DUP7 ADD CALLDATALOAD PUSH8 0xFFFFFFFFFFFFFFFF DUP2 GT ISZERO PUSH2 0x2437 JUMPI PUSH2 0x2436 PUSH2 0x2261 JUMP JUMPDEST JUMPDEST PUSH2 0x2443 DUP9 DUP3 DUP10 ADD PUSH2 0x2374 JUMP JUMPDEST SWAP5 POP POP PUSH1 0x40 PUSH2 0x2454 DUP9 DUP3 DUP10 ADD PUSH2 0x23C0 JUMP JUMPDEST SWAP4 POP POP PUSH1 0x60 PUSH2 0x2465 DUP9 DUP3 DUP10 ADD PUSH2 0x23C0 JUMP JUMPDEST SWAP3 POP POP PUSH1 0x80 DUP7 ADD CALLDATALOAD PUSH8 0xFFFFFFFFFFFFFFFF DUP2 GT ISZERO PUSH2 0x2486 JUMPI PUSH2 0x2485 PUSH2 0x2261 JUMP JUMPDEST JUMPDEST PUSH2 0x2492 DUP9 DUP3 DUP10 ADD PUSH2 0x2374 JUMP JUMPDEST SWAP2 POP POP SWAP3 SWAP6 POP SWAP3 SWAP6 SWAP1 SWAP4 POP JUMP JUMPDEST PUSH0 PUSH1 0x20 DUP3 DUP5 SUB SLT ISZERO PUSH2 0x24B4 JUMPI PUSH2 0x24B3 PUSH2 0x225D JUMP JUMPDEST JUMPDEST PUSH0 DUP3 ADD CALLDATALOAD PUSH8 0xFFFFFFFFFFFFFFFF DUP2 GT ISZERO PUSH2 0x24D1 JUMPI PUSH2 0x24D0 PUSH2 0x2261 JUMP JUMPDEST JUMPDEST PUSH2 0x24DD DUP5 DUP3 DUP6 ADD PUSH2 0x2374 JUMP JUMPDEST SWAP2 POP POP SWAP3 SWAP2 POP POP JUMP JUMPDEST PUSH0 DUP2 MLOAD SWAP1 POP SWAP2 SWAP1 POP JUMP JUMPDEST PUSH0 DUP3 DUP3 MSTORE PUSH1 0x20 DUP3 ADD SWAP1 POP SWAP3 SWAP2 POP POP JUMP JUMPDEST PUSH0 DUP2 SWAP1 POP PUSH1 0x20 DUP3 ADD SWAP1 POP SWAP2 SWAP1 POP JUMP JUMPDEST PUSH0 DUP2 MLOAD SWAP1 POP SWAP2 SWAP1 POP JUMP JUMPDEST PUSH0 DUP3 DUP3 MSTORE PUSH1 0x20 DUP3 ADD SWAP1 POP SWAP3 SWAP2 POP POP JUMP JUMPDEST DUP3 DUP2 DUP4 MCOPY PUSH0 DUP4 DUP4 ADD MSTORE POP POP POP JUMP JUMPDEST PUSH0 PUSH2 0x2541 DUP3 PUSH2 0x250F JUMP JUMPDEST PUSH2 0x254B DUP2 DUP6 PUSH2 0x2519 JUMP JUMPDEST SWAP4 POP PUSH2 0x255B DUP2 DUP6 PUSH1 0x20 DUP7 ADD PUSH2 0x2529 JUMP JUMPDEST PUSH2 0x2564 DUP2 PUSH2 0x226D JUMP JUMPDEST DUP5 ADD SWAP2 POP POP SWAP3 SWAP2 POP POP JUMP JUMPDEST PUSH2 0x2578 DUP2 PUSH2 0x23A1 JUMP JUMPDEST DUP3 MSTORE POP POP JUMP JUMPDEST PUSH0 PUSH1 0xA0 DUP4 ADD PUSH0 DUP4 ADD MLOAD DUP5 DUP3 SUB PUSH0 DUP7 ADD MSTORE PUSH2 0x2598 DUP3 DUP3 PUSH2 0x2537 JUMP JUMPDEST SWAP2 POP POP PUSH1 0x20 DUP4 ADD MLOAD PUSH2 0x25AD PUSH1 0x20 DUP7 ADD DUP3 PUSH2 0x256F JUMP JUMPDEST POP PUSH1 0x40 DUP4 ADD MLOAD DUP5 DUP3 SUB PUSH1 0x40 DUP7 ADD MSTORE PUSH2 0x25C5 DUP3 DUP3 PUSH2 0x2537 JUMP JUMPDEST SWAP2 POP POP PUSH1 0x60 DUP4 ADD MLOAD PUSH2 0x25DA PUSH1 0x60 DUP7 ADD DUP3 PUSH2 0x256F JUMP JUMPDEST POP PUSH1 0x80 DUP4 ADD MLOAD DUP5 DUP3 SUB PUSH1 0x80 DUP7 ADD MSTORE PUSH2 0x25F2 DUP3 DUP3 PUSH2 0x2537 JUMP JUMPDEST SWAP2 POP POP DUP1 SWAP2 POP POP SWAP3 SWAP2 POP POP JUMP JUMPDEST PUSH0 PUSH2 0x260A DUP4 DUP4 PUSH2 0x257E JUMP JUMPDEST SWAP1 POP SWAP3 SWAP2 POP POP JUMP JUMPDEST PUSH0 PUSH1 0x20 DUP3 ADD SWAP1 POP SWAP2 SWAP1 POP JUMP JUMPDEST PUSH0 PUSH2 0x2628 DUP3 PUSH2 0x24E6 JUMP JUMPDEST PUSH2 0x2632 DUP2 DUP6 PUSH2 0x24F0 JUMP JUMPDEST SWAP4 POP DUP4 PUSH1 0x20 DUP3 MUL DUP6 ADD PUSH2 0x2644 DUP6 PUSH2 0x2500 JUMP JUMPDEST DUP1 PUSH0 JUMPDEST DUP6 DUP2 LT ISZERO PUSH2 0x267F JUMPI DUP5 DUP5 SUB DUP10 MSTORE DUP2 MLOAD PUSH2 0x2660 DUP6 DUP3 PUSH2 0x25FF JUMP JUMPDEST SWAP5 POP PUSH2 0x266B DUP4 PUSH2 0x2612 JUMP JUMPDEST SWAP3 POP PUSH1 0x20 DUP11 ADD SWAP10 POP POP PUSH1 0x1 DUP2 ADD SWAP1 POP PUSH2 0x2647 JUMP JUMPDEST POP DUP3 SWAP8 POP DUP8 SWAP6 POP POP POP POP POP POP SWAP3 SWAP2 POP POP JUMP JUMPDEST PUSH0 PUSH1 0x20 DUP3 ADD SWAP1 POP DUP2 DUP2 SUB PUSH0 DUP4 ADD MSTORE PUSH2 0x26A9 DUP2 DUP5 PUSH2 0x261E JUMP JUMPDEST SWAP1 POP SWAP3 SWAP2 POP POP JUMP JUMPDEST PUSH0 DUP1 PUSH0 DUP1 PUSH0 PUSH1 0xA0 DUP7 DUP9 SUB SLT ISZERO PUSH2 0x26CA JUMPI PUSH2 0x26C9 PUSH2 0x225D JUMP JUMPDEST JUMPDEST PUSH0 DUP7 ADD CALLDATALOAD PUSH8 0xFFFFFFFFFFFFFFFF DUP2 GT ISZERO PUSH2 0x26E7 JUMPI PUSH2 0x26E6 PUSH2 0x2261 JUMP JUMPDEST JUMPDEST PUSH2 0x26F3 DUP9 DUP3 DUP10 ADD PUSH2 0x2374 JUMP JUMPDEST SWAP6 POP POP PUSH1 0x20 PUSH2 0x2704 DUP9 DUP3 DUP10 ADD PUSH2 0x23C0 JUMP JUMPDEST SWAP5 POP POP PUSH1 0x40 DUP7 ADD CALLDATALOAD PUSH8 0xFFFFFFFFFFFFFFFF DUP2 GT ISZERO PUSH2 0x2725 JUMPI PUSH2 0x2724 PUSH2 0x2261 JUMP JUMPDEST JUMPDEST PUSH2 0x2731 DUP9 DUP3 DUP10 ADD PUSH2 0x2374 JUMP JUMPDEST SWAP4 POP POP PUSH1 0x60 PUSH2 0x2742 DUP9 DUP3 DUP10 ADD PUSH2 0x23C0 JUMP JUMPDEST SWAP3 POP POP PUSH1 0x80 DUP7 ADD CALLDATALOAD PUSH8 0xFFFFFFFFFFFFFFFF DUP2 GT ISZERO PUSH2 0x2763 JUMPI PUSH2 0x2762 PUSH2 0x2261 JUMP JUMPDEST JUMPDEST PUSH2 0x276F DUP9 DUP3 DUP10 ADD PUSH2 0x2374 JUMP JUMPDEST SWAP2 POP POP SWAP3 SWAP6 POP SWAP3 SWAP6 SWAP1 SWAP4 POP JUMP JUMPDEST PUSH0 DUP2 MLOAD SWAP1 POP SWAP2 SWAP1 POP JUMP JUMPDEST PUSH0 DUP3 DUP3 MSTORE PUSH1 0x20 DUP3 ADD SWAP1 POP SWAP3 SWAP2 POP POP JUMP JUMPDEST PUSH0 DUP2 SWAP1 POP PUSH1 0x20 DUP3 ADD SWAP1 POP SWAP2 SWAP1 POP JUMP JUMPDEST PUSH0 PUSH2 0x140 DUP4 ADD PUSH0 DUP4 ADD MLOAD DUP5 DUP3 SUB PUSH0 DUP7 ADD MSTORE PUSH2 0x27C0 DUP3 DUP3 PUSH2 0x2537 JUMP JUMPDEST SWAP2 POP POP PUSH1 0x20 DUP4 ADD MLOAD DUP5 DUP3 SUB PUSH1 0x20 DUP7 ADD MSTORE PUSH2 0x27DA DUP3 DUP3 PUSH2 0x2537 JUMP JUMPDEST SWAP2 POP POP PUSH1 0x40 DUP4 ADD MLOAD PUSH2 0x27EF PUSH1 0x40 DUP7 ADD DUP3 PUSH2 0x256F JUMP JUMPDEST POP PUSH1 0x60 DUP4 ADD MLOAD PUSH2 0x2802 PUSH1 0x60 DUP7 ADD DUP3 PUSH2 0x256F JUMP JUMPDEST POP PUSH1 0x80 DUP4 ADD MLOAD DUP5 DUP3 SUB PUSH1 0x80 DUP7 ADD MSTORE PUSH2 0x281A DUP3 DUP3 PUSH2 0x2537 JUMP JUMPDEST SWAP2 POP POP PUSH1 0xA0 DUP4 ADD MLOAD PUSH2 0x282F PUSH1 0xA0 DUP7 ADD DUP3 PUSH2 0x256F JUMP JUMPDEST POP PUSH1 0xC0 DUP4 ADD MLOAD PUSH2 0x2842 PUSH1 0xC0 DUP7 ADD DUP3 PUSH2 0x256F JUMP JUMPDEST POP PUSH1 0xE0 DUP4 ADD MLOAD PUSH2 0x2855 PUSH1 0xE0 DUP7 ADD DUP3 PUSH2 0x256F JUMP JUMPDEST POP PUSH2 0x100 DUP4 ADD MLOAD DUP5 DUP3 SUB PUSH2 0x100 DUP7 ADD MSTORE PUSH2 0x286F DUP3 DUP3 PUSH2 0x2537 JUMP JUMPDEST SWAP2 POP POP PUSH2 0x120 DUP4 ADD MLOAD DUP5 DUP3 SUB PUSH2 0x120 DUP7 ADD MSTORE PUSH2 0x288B DUP3 DUP3 PUSH2 0x2537 JUMP JUMPDEST SWAP2 POP POP DUP1 SWAP2 POP POP SWAP3 SWAP2 POP POP JUMP JUMPDEST PUSH0 PUSH2 0x28A3 DUP4 DUP4 PUSH2 0x27A5 JUMP JUMPDEST SWAP1 POP SWAP3 SWAP2 POP POP JUMP JUMPDEST PUSH0 PUSH1 0x20 DUP3 ADD SWAP1 POP SWAP2 SWAP1 POP JUMP JUMPDEST PUSH0 PUSH2 0x28C1 DUP3 PUSH2 0x277C JUMP JUMPDEST PUSH2 0x28CB DUP2 DUP6 PUSH2 0x2786 JUMP JUMPDEST SWAP4 POP DUP4 PUSH1 0x20 DUP3 MUL DUP6 ADD PUSH2 0x28DD DUP6 PUSH2 0x2796 JUMP JUMPDEST DUP1 PUSH0 JUMPDEST DUP6 DUP2 LT ISZERO PUSH2 0x2918 JUMPI DUP5 DUP5 SUB DUP10 MSTORE DUP2 MLOAD PUSH2 0x28F9 DUP6 DUP3 PUSH2 0x2898 JUMP JUMPDEST SWAP5 POP PUSH2 0x2904 DUP4 PUSH2 0x28AB JUMP JUMPDEST SWAP3 POP PUSH1 0x20 DUP11 ADD SWAP10 POP POP PUSH1 0x1 DUP2 ADD SWAP1 POP PUSH2 0x28E0 JUMP JUMPDEST POP DUP3 SWAP8 POP DUP8 SWAP6 POP POP POP POP POP POP SWAP3 SWAP2 POP POP JUMP JUMPDEST PUSH0 PUSH1 0x20 DUP3 ADD SWAP1 POP DUP2 DUP2 SUB PUSH0 DUP4 ADD MSTORE PUSH2 0x2942 DUP2 DUP5 PUSH2 0x28B7 JUMP JUMPDEST SWAP1 POP SWAP3 SWAP2 POP POP JUMP JUMPDEST PUSH32 0x4E487B7100000000000000000000000000000000000000000000000000000000 PUSH0 MSTORE PUSH1 0x32 PUSH1 0x4 MSTORE PUSH1 0x24 PUSH0 REVERT JUMPDEST PUSH32 0x4E487B7100000000000000000000000000000000000000000000000000000000 PUSH0 MSTORE PUSH1 0x22 PUSH1 0x4 MSTORE PUSH1 0x24 PUSH0 REVERT JUMPDEST PUSH0 PUSH1 0x2 DUP3 DIV SWAP1 POP PUSH1 0x1 DUP3 AND DUP1 PUSH2 0x29BB JUMPI PUSH1 0x7F DUP3 AND SWAP2 POP JUMPDEST PUSH1 0x20 DUP3 LT DUP2 SUB PUSH2 0x29CE JUMPI PUSH2 0x29CD PUSH2 0x2977 JUMP JUMPDEST JUMPDEST POP SWAP2 SWAP1 POP JUMP JUMPDEST PUSH0 DUP2 SWAP1 POP SWAP3 SWAP2 POP POP JUMP JUMPDEST PUSH0 DUP2 SWAP1 POP DUP2 PUSH0 MSTORE PUSH1 0x20 PUSH0 KECCAK256 SWAP1 POP SWAP2 SWAP1 POP JUMP JUMPDEST PUSH0 DUP2 SLOAD PUSH2 0x29FC DUP2 PUSH2 0x29A4 JUMP JUMPDEST PUSH2 0x2A06 DUP2 DUP7 PUSH2 0x29D4 JUMP JUMPDEST SWAP5 POP PUSH1 0x1 DUP3 AND PUSH0 DUP2 EQ PUSH2 0x2A20 JUMPI PUSH1 0x1 DUP2 EQ PUSH2 0x2A35 JUMPI PUSH2 0x2A67 JUMP JUMPDEST PUSH1 0xFF NOT DUP4 AND DUP7 MSTORE DUP2 ISZERO ISZERO DUP3 MUL DUP7 ADD SWAP4 POP PUSH2 0x2A67 JUMP JUMPDEST PUSH2 0x2A3E DUP6 PUSH2 0x29DE JUMP JUMPDEST PUSH0 JUMPDEST DUP4 DUP2 LT ISZERO PUSH2 0x2A5F JUMPI DUP2 SLOAD DUP2 DUP10 ADD MSTORE PUSH1 0x1 DUP3 ADD SWAP2 POP PUSH1 0x20 DUP2 ADD SWAP1 POP PUSH2 0x2A40 JUMP JUMPDEST DUP4 DUP9 ADD SWAP6 POP POP POP JUMPDEST POP POP POP SWAP3 SWAP2 POP POP JUMP JUMPDEST PUSH0 PUSH2 0x2A7B DUP3 DUP5 PUSH2 0x29F0 JUMP JUMPDEST SWAP2 POP DUP2 SWAP1 POP SWAP3 SWAP2 POP POP JUMP JUMPDEST PUSH0 DUP3 DUP3 MSTORE PUSH1 0x20 DUP3 ADD SWAP1 POP SWAP3 SWAP2 POP POP JUMP JUMPDEST PUSH0 DUP2 SWAP1 POP DUP2 PUSH0 MSTORE PUSH1 0x20 PUSH0 KECCAK256 SWAP1 POP SWAP2 SWAP1 POP JUMP JUMPDEST PUSH0 DUP2 SLOAD PUSH2 0x2AB4 DUP2 PUSH2 0x29A4 JUMP JUMPDEST PUSH2 0x2ABE DUP2 DUP7 PUSH2 0x2A86 JUMP JUMPDEST SWAP5 POP PUSH1 0x1 DUP3 AND PUSH0 DUP2 EQ PUSH2 0x2AD8 JUMPI PUSH1 0x1 DUP2 EQ PUSH2 0x2AEE JUMPI PUSH2 0x2B20 JUMP JUMPDEST PUSH1 0xFF NOT DUP4 AND DUP7 MSTORE DUP2 ISZERO ISZERO PUSH1 0x20 MUL DUP7 ADD SWAP4 POP PUSH2 0x2B20 JUMP JUMPDEST PUSH2 0x2AF7 DUP6 PUSH2 0x2A96 JUMP JUMPDEST PUSH0 JUMPDEST DUP4 DUP2 LT ISZERO PUSH2 0x2B18 JUMPI DUP2 SLOAD DUP2 DUP10 ADD MSTORE PUSH1 0x1 DUP3 ADD SWAP2 POP PUSH1 0x20 DUP2 ADD SWAP1 POP PUSH2 0x2AF9 JUMP JUMPDEST DUP1 DUP9 ADD SWAP6 POP POP POP JUMPDEST POP POP POP SWAP3 SWAP2 POP POP JUMP JUMPDEST PUSH2 0x2B32 DUP2 PUSH2 0x23A1 JUMP JUMPDEST DUP3 MSTORE POP POP JUMP JUMPDEST PUSH0 PUSH1 0xA0 DUP3 ADD SWAP1 POP DUP2 DUP2 SUB PUSH0 DUP4 ADD MSTORE PUSH2 0x2B50 DUP2 DUP9 PUSH2 0x2AA8 JUMP JUMPDEST SWAP1 POP PUSH2 0x2B5F PUSH1 0x20 DUP4 ADD DUP8 PUSH2 0x2B29 JUMP JUMPDEST DUP2 DUP2 SUB PUSH1 0x40 DUP4 ADD MSTORE PUSH2 0x2B71 DUP2 DUP7 PUSH2 0x2AA8 JUMP JUMPDEST SWAP1 POP PUSH2 0x2B80 PUSH1 0x60 DUP4 ADD DUP6 PUSH2 0x2B29 JUMP JUMPDEST DUP2 DUP2 SUB PUSH1 0x80 DUP4 ADD MSTORE PUSH2 0x2B92 DUP2 DUP5 PUSH2 0x2AA8 JUMP JUMPDEST SWAP1 POP SWAP7 SWAP6 POP POP POP POP POP POP JUMP JUMPDEST PUSH0 DUP2 SWAP1 POP SWAP2 SWAP1 POP JUMP JUMPDEST PUSH32 0x4E487B7100000000000000000000000000000000000000000000000000000000 PUSH0 MSTORE PUSH1 0x11 PUSH1 0x4 MSTORE PUSH1 0x24 PUSH0 REVERT JUMPDEST PUSH0 PUSH2 0x2BDE DUP3 PUSH2 0x2B9E JUMP JUMPDEST SWAP2 POP PUSH2 0x2BE9 DUP4 PUSH2 0x2B9E JUMP JUMPDEST SWAP3 POP DUP3 DUP3 SUB SWAP1 POP DUP2 DUP2 SLT PUSH0 DUP5 SLT AND DUP3 DUP3 SGT PUSH0 DUP6 SLT ISZERO AND OR ISZERO PUSH2 0x2C0E JUMPI PUSH2 0x2C0D PUSH2 0x2BA7 JUMP JUMPDEST JUMPDEST SWAP3 SWAP2 POP POP JUMP JUMPDEST PUSH0 PUSH2 0x2C1E DUP3 PUSH2 0x2B9E JUMP JUMPDEST SWAP2 POP PUSH2 0x2C29 DUP4 PUSH2 0x2B9E JUMP JUMPDEST SWAP3 POP DUP3 DUP3 MUL PUSH2 0x2C37 DUP2 PUSH2 0x2B9E JUMP JUMPDEST SWAP2 POP PUSH32 0x8000000000000000000000000000000000000000000000000000000000000000 DUP5 EQ PUSH0 DUP5 SLT AND ISZERO PUSH2 0x2C6E JUMPI PUSH2 0x2C6D PUSH2 0x2BA7 JUMP JUMPDEST JUMPDEST DUP3 DUP3 SDIV DUP5 EQ DUP4 ISZERO OR PUSH2 0x2C83 JUMPI PUSH2 0x2C82 PUSH2 0x2BA7 JUMP JUMPDEST JUMPDEST POP SWAP3 SWAP2 POP POP JUMP JUMPDEST PUSH0 DUP2 SWAP1 POP SWAP3 SWAP2 POP POP JUMP JUMPDEST PUSH0 PUSH2 0x2C9E DUP3 PUSH2 0x250F JUMP JUMPDEST PUSH2 0x2CA8 DUP2 DUP6 PUSH2 0x2C8A JUMP JUMPDEST SWAP4 POP PUSH2 0x2CB8 DUP2 DUP6 PUSH1 0x20 DUP7 ADD PUSH2 0x2529 JUMP JUMPDEST DUP1 DUP5 ADD SWAP2 POP POP SWAP3 SWAP2 POP POP JUMP JUMPDEST PUSH0 PUSH2 0x2CCF DUP3 DUP5 PUSH2 0x2C94 JUMP JUMPDEST SWAP2 POP DUP2 SWAP1 POP SWAP3 SWAP2 POP POP JUMP JUMPDEST PUSH0 DUP2 SWAP1 POP SWAP2 SWAP1 POP JUMP JUMPDEST PUSH0 DUP2 SWAP1 POP SWAP2 SWAP1 POP JUMP JUMPDEST PUSH2 0x2CFD PUSH2 0x2CF8 DUP3 PUSH2 0x2CDA JUMP JUMPDEST PUSH2 0x2CE3 JUMP JUMPDEST DUP3 MSTORE POP POP JUMP JUMPDEST PUSH0 PUSH2 0x2D0E DUP3 DUP5 PUSH2 0x2CEC JUMP JUMPDEST PUSH1 0x20 DUP3 ADD SWAP2 POP DUP2 SWAP1 POP SWAP3 SWAP2 POP POP JUMP JUMPDEST PUSH32 0x496E636F72726563742070617373776F72642100000000000000000000000000 PUSH0 DUP3 ADD MSTORE POP JUMP JUMPDEST PUSH0 PUSH2 0x2D51 PUSH1 0x13 DUP4 PUSH2 0x2A86 JUMP JUMPDEST SWAP2 POP PUSH2 0x2D5C DUP3 PUSH2 0x2D1D JUMP JUMPDEST PUSH1 0x20 DUP3 ADD SWAP1 POP SWAP2 SWAP1 POP JUMP JUMPDEST PUSH0 PUSH1 0x20 DUP3 ADD SWAP1 POP DUP2 DUP2 SUB PUSH0 DUP4 ADD MSTORE PUSH2 0x2D7E DUP2 PUSH2 0x2D45 JUMP JUMPDEST SWAP1 POP SWAP2 SWAP1 POP JUMP JUMPDEST PUSH0 PUSH1 0x20 PUSH1 0x1F DUP4 ADD DIV SWAP1 POP SWAP2 SWAP1 POP JUMP JUMPDEST PUSH0 DUP3 DUP3 SHL SWAP1 POP SWAP3 SWAP2 POP POP JUMP JUMPDEST PUSH0 PUSH1 0x8 DUP4 MUL PUSH2 0x2DCF PUSH32 0xFFFFFFFFFFFFFFFFFFFFFFFFFFFFFFFFFFFFFFFFFFFFFFFFFFFFFFFFFFFFFFFF DUP3 PUSH2 0x2D94 JUMP JUMPDEST PUSH2 0x2DD9 DUP7 DUP4 PUSH2 0x2D94 JUMP JUMPDEST SWAP6 POP DUP1 NOT DUP5 AND SWAP4 POP DUP1 DUP7 AND DUP5 OR SWAP3 POP POP POP SWAP4 SWAP3 POP POP POP JUMP JUMPDEST PUSH0 DUP2 SWAP1 POP SWAP2 SWAP1 POP JUMP JUMPDEST PUSH0 PUSH2 0x2E14 PUSH2 0x2E0F PUSH2 0x2E0A DUP5 PUSH2 0x23A1 JUMP JUMPDEST PUSH2 0x2DF1 JUMP JUMPDEST PUSH2 0x23A1 JUMP JUMPDEST SWAP1 POP SWAP2 SWAP1 POP JUMP JUMPDEST PUSH0 DUP2 SWAP1 POP SWAP2 SWAP1 POP JUMP JUMPDEST PUSH2 0x2E2D DUP4 PUSH2 0x2DFA JUMP JUMPDEST PUSH2 0x2E41 PUSH2 0x2E39 DUP3 PUSH2 0x2E1B JUMP JUMPDEST DUP5 DUP5 SLOAD PUSH2 0x2DA0 JUMP JUMPDEST DUP3 SSTORE POP POP POP POP JUMP JUMPDEST PUSH0 SWAP1 JUMP JUMPDEST PUSH2 0x2E55 PUSH2 0x2E49 JUMP JUMPDEST PUSH2 0x2E60 DUP2 DUP5 DUP5 PUSH2 0x2E24 JUMP JUMPDEST POP POP POP JUMP JUMPDEST JUMPDEST DUP2 DUP2 LT ISZERO PUSH2 0x2E83 JUMPI PUSH2 0x2E78 PUSH0 DUP3 PUSH2 0x2E4D JUMP JUMPDEST PUSH1 0x1 DUP2 ADD SWAP1 POP PUSH2 0x2E66 JUMP JUMPDEST POP POP JUMP JUMPDEST PUSH1 0x1F DUP3 GT ISZERO PUSH2 0x2EC8 JUMPI PUSH2 0x2E99 DUP2 PUSH2 0x2A96 JUMP JUMPDEST PUSH2 0x2EA2 DUP5 PUSH2 0x2D85 JUMP JUMPDEST DUP2 ADD PUSH1 0x20 DUP6 LT ISZERO PUSH2 0x2EB1 JUMPI DUP2 SWAP1 POP JUMPDEST PUSH2 0x2EC5 PUSH2 0x2EBD DUP6 PUSH2 0x2D85 JUMP JUMPDEST DUP4 ADD DUP3 PUSH2 0x2E65 JUMP JUMPDEST POP POP JUMPDEST POP POP POP JUMP JUMPDEST PUSH0 DUP3 DUP3 SHR SWAP1 POP SWAP3 SWAP2 POP POP JUMP JUMPDEST PUSH0 PUSH2 0x2EE8 PUSH0 NOT DUP5 PUSH1 0x8 MUL PUSH2 0x2ECD JUMP JUMPDEST NOT DUP1 DUP4 AND SWAP2 POP POP SWAP3 SWAP2 POP POP JUMP JUMPDEST PUSH0 PUSH2 0x2F00 DUP4 DUP4 PUSH2 0x2ED9 JUMP JUMPDEST SWAP2 POP DUP3 PUSH1 0x2 MUL DUP3 OR SWAP1 POP SWAP3 SWAP2 POP POP JUMP JUMPDEST PUSH2 0x2F19 DUP3 PUSH2 0x250F JUMP JUMPDEST PUSH8 0xFFFFFFFFFFFFFFFF DUP2 GT ISZERO PUSH2 0x2F32 JUMPI PUSH2 0x2F31 PUSH2 0x227D JUMP JUMPDEST JUMPDEST PUSH2 0x2F3C DUP3 SLOAD PUSH2 0x29A4 JUMP JUMPDEST PUSH2 0x2F47 DUP3 DUP3 DUP6 PUSH2 0x2E87 JUMP JUMPDEST PUSH0 PUSH1 0x20 SWAP1 POP PUSH1 0x1F DUP4 GT PUSH1 0x1 DUP2 EQ PUSH2 0x2F78 JUMPI PUSH0 DUP5 ISZERO PUSH2 0x2F66 JUMPI DUP3 DUP8 ADD MLOAD SWAP1 POP JUMPDEST PUSH2 0x2F70 DUP6 DUP3 PUSH2 0x2EF5 JUMP JUMPDEST DUP7 SSTORE POP PUSH2 0x2FD7 JUMP JUMPDEST PUSH1 0x1F NOT DUP5 AND PUSH2 0x2F86 DUP7 PUSH2 0x2A96 JUMP JUMPDEST PUSH0 JUMPDEST DUP3 DUP2 LT ISZERO PUSH2 0x2FAD JUMPI DUP5 DUP10 ADD MLOAD DUP3 SSTORE PUSH1 0x1 DUP3 ADD SWAP2 POP PUSH1 0x20 DUP6 ADD SWAP5 POP PUSH1 0x20 DUP2 ADD SWAP1 POP PUSH2 0x2F88 JUMP JUMPDEST DUP7 DUP4 LT ISZERO PUSH2 0x2FCA JUMPI DUP5 DUP10 ADD MLOAD PUSH2 0x2FC6 PUSH1 0x1F DUP10 AND DUP3 PUSH2 0x2ED9 JUMP JUMPDEST DUP4 SSTORE POP JUMPDEST PUSH1 0x1 PUSH1 0x2 DUP9 MUL ADD DUP9 SSTORE POP POP POP JUMPDEST POP POP POP POP POP POP JUMP JUMPDEST PUSH0 PUSH2 0x2FE9 DUP3 PUSH2 0x23A1 JUMP JUMPDEST SWAP2 POP PUSH2 0x2FF4 DUP4 PUSH2 0x23A1 JUMP JUMPDEST SWAP3 POP DUP3 DUP3 SUB SWAP1 POP DUP2 DUP2 GT ISZERO PUSH2 0x300C JUMPI PUSH2 0x300B PUSH2 0x2BA7 JUMP JUMPDEST JUMPDEST SWAP3 SWAP2 POP POP JUMP JUMPDEST PUSH0 DUP2 SLOAD SWAP1 POP PUSH2 0x3020 DUP2 PUSH2 0x29A4 JUMP JUMPDEST SWAP1 POP SWAP2 SWAP1 POP JUMP JUMPDEST DUP2 DUP2 SUB PUSH2 0x3035 JUMPI POP POP PUSH2 0x310A JUMP JUMPDEST PUSH2 0x303E DUP3 PUSH2 0x3012 JUMP JUMPDEST PUSH8 0xFFFFFFFFFFFFFFFF DUP2 GT ISZERO PUSH2 0x3057 JUMPI PUSH2 0x3056 PUSH2 0x227D JUMP JUMPDEST JUMPDEST PUSH2 0x3061 DUP3 SLOAD PUSH2 0x29A4 JUMP JUMPDEST PUSH2 0x306C DUP3 DUP3 DUP6 PUSH2 0x2E87 JUMP JUMPDEST PUSH0 PUSH1 0x1F DUP4 GT PUSH1 0x1 DUP2 EQ PUSH2 0x3099 JUMPI PUSH0 DUP5 ISZERO PUSH2 0x3087 JUMPI DUP3 DUP8 ADD SLOAD SWAP1 POP JUMPDEST PUSH2 0x3091 DUP6 DUP3 PUSH2 0x2EF5 JUMP JUMPDEST DUP7 SSTORE POP PUSH2 0x3103 JUMP JUMPDEST PUSH1 0x1F NOT DUP5 AND PUSH2 0x30A7 DUP8 PUSH2 0x2A96 JUMP JUMPDEST SWAP7 POP PUSH2 0x30B2 DUP7 PUSH2 0x2A96 JUMP JUMPDEST PUSH0 JUMPDEST DUP3 DUP2 LT ISZERO PUSH2 0x30D9 JUMPI DUP5 DUP10 ADD SLOAD DUP3 SSTORE PUSH1 0x1 DUP3 ADD SWAP2 POP PUSH1 0x1 DUP6 ADD SWAP5 POP PUSH1 0x20 DUP2 ADD SWAP1 POP PUSH2 0x30B4 JUMP JUMPDEST DUP7 DUP4 LT ISZERO PUSH2 0x30F6 JUMPI DUP5 DUP10 ADD SLOAD PUSH2 0x30F2 PUSH1 0x1F DUP10 AND DUP3 PUSH2 0x2ED9 JUMP JUMPDEST DUP4 SSTORE POP JUMPDEST PUSH1 0x1 PUSH1 0x2 DUP9 MUL ADD DUP9 SSTORE POP POP POP JUMPDEST POP POP POP POP POP POP JUMPDEST JUMP JUMPDEST PUSH32 0x4E487B7100000000000000000000000000000000000000000000000000000000 PUSH0 MSTORE PUSH1 0x31 PUSH1 0x4 MSTORE PUSH1 0x24 PUSH0 REVERT INVALID LOG2 PUSH5 0x6970667358 0x22 SLT KECCAK256 STOP 0xC1 CREATE PUSH31 0xC5AD6530CE93800EEB9610C0A721F8846A6E8FECADD3426E0E4FA4CD64736F PUSH13 0x634300081A0033000000000000 "
				},
				"gasEstimates": {
					"creation": {
						"codeDepositCost": "2531000",
						"executionCost": "infinite",
						"totalCost": "infinite"
					},
					"external": {
						"regDonor(string,uint256,string,uint256,string)": "infinite",
						"regRecipient(string,string,uint256,uint256,string)": "infinite",
						"showDonors(string)": "infinite",
						"showMatches(string)": "infinite",
						"showRecipient(string)": "infinite"
					},
					"internal": {
						"pop(struct main.orgdet storage ref[] storage pointer,uint256)": "infinite",
						"pushMatch(string memory,string memory,uint256,uint256,string memory,uint256,uint256,uint256,string memory,string memory)": "infinite",
						"pushNew(string memory,uint256,string memory,uint256,string memory,uint256)": "infinite"
					}
				},
				"methodIdentifiers": {
					"regDonor(string,uint256,string,uint256,string)": "b0bd7503",
					"regRecipient(string,string,uint256,uint256,string)": "641d79d2",
					"showDonors(string)": "ae9ec457",
					"showMatches(string)": "c005a930",
					"showRecipient(string)": "963e9f1f"
				}
			},
			"storageLayout": {
				"storage": [
					{
						"astId": 3,
						"contract": "contracts/main.sol:main",
						"label": "donorPass",
						"offset": 0,
						"slot": "0",
						"type": "t_bytes32"
					},
					{
						"astId": 5,
						"contract": "contracts/main.sol:main",
						"label": "recipientPass",
						"offset": 0,
						"slot": "1",
						"type": "t_bytes32"
					},
					{
						"astId": 7,
						"contract": "contracts/main.sol:main",
						"label": "matchedPass",
						"offset": 0,
						"slot": "2",
						"type": "t_bytes32"
					},
					{
						"astId": 200,
						"contract": "contracts/main.sol:main",
						"label": "donorList",
						"offset": 0,
						"slot": "3",
						"type": "t_array(t_struct(orgdet)151_storage)dyn_storage"
					},
					{
						"astId": 204,
						"contract": "contracts/main.sol:main",
						"label": "recipientList",
						"offset": 0,
						"slot": "4",
						"type": "t_array(t_struct(orgdet)151_storage)dyn_storage"
					},
					{
						"astId": 208,
						"contract": "contracts/main.sol:main",
						"label": "matchedList",
						"offset": 0,
						"slot": "5",
						"type": "t_array(t_struct(matched_orgdet)172_storage)dyn_storage"
					},
					{
						"astId": 325,
						"contract": "contracts/main.sol:main",
						"label": "compatMatrix",
						"offset": 0,
						"slot": "6",
						"type": "t_array(t_array(t_uint256)10_storage)10_storage"
					},
					{
						"astId": 328,
						"contract": "contracts/main.sol:main",
						"label": "posBT",
						"offset": 0,
						"slot": "106",
						"type": "t_array(t_uint256)dyn_storage"
					}
				],
				"types": {
					"t_array(t_array(t_uint256)10_storage)10_storage": {
						"base": "t_array(t_uint256)10_storage",
						"encoding": "inplace",
						"label": "uint256[10][10]",
						"numberOfBytes": "3200"
					},
					"t_array(t_struct(matched_orgdet)172_storage)dyn_storage": {
						"base": "t_struct(matched_orgdet)172_storage",
						"encoding": "dynamic_array",
						"label": "struct main.matched_orgdet[]",
						"numberOfBytes": "32"
					},
					"t_array(t_struct(orgdet)151_storage)dyn_storage": {
						"base": "t_struct(orgdet)151_storage",
						"encoding": "dynamic_array",
						"label": "struct main.orgdet[]",
						"numberOfBytes": "32"
					},
					"t_array(t_uint256)10_storage": {
						"base": "t_uint256",
						"encoding": "inplace",
						"label": "uint256[10]",
						"numberOfBytes": "320"
					},
					"t_array(t_uint256)dyn_storage": {
						"base": "t_uint256",
						"encoding": "dynamic_array",
						"label": "uint256[]",
						"numberOfBytes": "32"
					},
					"t_bytes32": {
						"encoding": "inplace",
						"label": "bytes32",
						"numberOfBytes": "32"
					},
					"t_string_storage": {
						"encoding": "bytes",
						"label": "string",
						"numberOfBytes": "32"
					},
					"t_struct(matched_orgdet)172_storage": {
						"encoding": "inplace",
						"label": "struct main.matched_orgdet",
						"members": [
							{
								"astId": 153,
								"contract": "contracts/main.sol:main",
								"label": "donor",
								"offset": 0,
								"slot": "0",
								"type": "t_string_storage"
							},
							{
								"astId": 155,
								"contract": "contracts/main.sol:main",
								"label": "recipient",
								"offset": 0,
								"slot": "1",
								"type": "t_string_storage"
							},
							{
								"astId": 157,
								"contract": "contracts/main.sol:main",
								"label": "donorbloodtype",
								"offset": 0,
								"slot": "2",
								"type": "t_uint256"
							},
							{
								"astId": 159,
								"contract": "contracts/main.sol:main",
								"label": "recipientbloodtype",
								"offset": 0,
								"slot": "3",
								"type": "t_uint256"
							},
							{
								"astId": 161,
								"contract": "contracts/main.sol:main",
								"label": "organ",
								"offset": 0,
								"slot": "4",
								"type": "t_string_storage"
							},
							{
								"astId": 163,
								"contract": "contracts/main.sol:main",
								"label": "donorquantity",
								"offset": 0,
								"slot": "5",
								"type": "t_uint256"
							},
							{
								"astId": 165,
								"contract": "contracts/main.sol:main",
								"label": "recipientquantity",
								"offset": 0,
								"slot": "6",
								"type": "t_uint256"
							},
							{
								"astId": 167,
								"contract": "contracts/main.sol:main",
								"label": "matchedquantity",
								"offset": 0,
								"slot": "7",
								"type": "t_uint256"
							},
							{
								"astId": 169,
								"contract": "contracts/main.sol:main",
								"label": "donorhosp",
								"offset": 0,
								"slot": "8",
								"type": "t_string_storage"
							},
							{
								"astId": 171,
								"contract": "contracts/main.sol:main",
								"label": "recipienthosp",
								"offset": 0,
								"slot": "9",
								"type": "t_string_storage"
							}
						],
						"numberOfBytes": "320"
					},
					"t_struct(orgdet)151_storage": {
						"encoding": "inplace",
						"label": "struct main.orgdet",
						"members": [
							{
								"astId": 142,
								"contract": "contracts/main.sol:main",
								"label": "owner",
								"offset": 0,
								"slot": "0",
								"type": "t_string_storage"
							},
							{
								"astId": 144,
								"contract": "contracts/main.sol:main",
								"label": "bloodtype",
								"offset": 0,
								"slot": "1",
								"type": "t_uint256"
							},
							{
								"astId": 146,
								"contract": "contracts/main.sol:main",
								"label": "organ",
								"offset": 0,
								"slot": "2",
								"type": "t_string_storage"
							},
							{
								"astId": 148,
								"contract": "contracts/main.sol:main",
								"label": "quantity",
								"offset": 0,
								"slot": "3",
								"type": "t_uint256"
							},
							{
								"astId": 150,
								"contract": "contracts/main.sol:main",
								"label": "hospital",
								"offset": 0,
								"slot": "4",
								"type": "t_string_storage"
							}
						],
						"numberOfBytes": "160"
					},
					"t_uint256": {
						"encoding": "inplace",
						"label": "uint256",
						"numberOfBytes": "32"
					}
				}
			},
			"userdoc": {
				"kind": "user",
				"methods": {},
				"version": 1
			}
		}
	}
}