{
	"data": {
		"bytecode": {
			"linkReferences": {},
			"object": "60016101c08181526101e08290525f6102008190526102208190526102408190526102608190526102808390526102a08390526102c08190526102e081905260809182526103008181526103208490526103408290526103608290526103808290526103a08290526103c08290526103e084905261040082905261042082905260a0526104408181526104608290526104808490526104a08490526104c08290526104e082905261050084905261052084905261054082905261056082905260c0526105808181526105a08290526105c08290526105e08490526106008290526106208290526106408290526106608490526106808290526106a082905260e0526106c08381526106e08490526107008490526107208490526107408490526107608490526107808490526107a08490526107c08290526107e0829052610100526108008181526108208490526108408290526108608490526108808290526108a08490526108c08290526108e0849052610900829052610920829052610120526109408181526109608290526109808290526109a08290526109c08290526109e0829052610a00849052610a20849052610a40829052610a6082905261014052610a80818152610aa0829052610ac0829052610ae0829052610b00829052610b20829052610b40829052610b60849052610b80829052610ba082905261016052610bc0818152610be0829052610c00829052610c20829052610c40829052610c60829052610c80829052610ca0829052610cc0849052610ce082905261018052610e40604052610d00818152610d20829052610d40829052610d60829052610d80829052610da0829052610dc0829052610de0829052610e0091909152610e20929092526101a09190915261029990600890600a610964565b503480156102a5575f80fd5b50604051616e8d380380616e8d8339810160408190526102c491610c6f565b826040516020016102d59190610cfe565b60408051601f198184030181529082905280516020918201205f556102fc91849101610cfe565b60408051601f1981840301815290829052805160209182012060015561032491839101610cfe565b60408051601f1981840301815282825280516020918201206002908155608084018352600f8484019081526e189b1bdbd9081cdd195b4818d95b1b608a1b606086015284528251808401909352600b83526a626f6e65206d6172726f7760a81b838301528382019290925260095f52600390526103c2917f8a8dc4e5242ea8b1ab1d60606dae757e6c2cca9f92a2cced9f72c19960bcb458916109ae565b506040805161014081018252600361010082018181526261726d60e81b6101208401528252825180840184528181526265796560e81b60208281019190915280840191909152835180850185526004808252636661636560e01b828401528486019190915284518086018652908152631a185b9960e21b81830152606084015283518085018552828152626c656760e81b8183015260808401528351808501855260058082526470656e697360d81b8284015260a0850191909152845180860186529081526407363616c760dc1b8183015260c0840152835180850190945260068452657468796d757360d01b8482015260e083019390935260075f529091526104ef907ff2c49132ed1cee2a7e75bde50d332a2f81f1d01e5456d8a19d1df09bd561dbd29060086109fe565b506040805161026081018252600e61022082019081526d1858991bdb5a5b985b081dd85b1b60921b610240830152815281518083018352600d81526c18591c995b985b0819db185b99609a1b6020828101919091528083019190915282518084018452600480825263626f6e6560e01b828401528385019190915283518085018552600981526865736f70686167757360b81b818401526060840152835180850185526006808252650d8c2e4f2dcf60d31b82850152608085019190915284518086018652600a8152696c796d7068206e6f646560b01b8185015260a0850152845180860186526008808252671b985a5b0818995960c21b8286015260c0860191909152855180870187526005808252646e6572766560d81b8287015260e087019190915286518088018852818152646f7661727960d81b81870152610100870152865180880188528281526770616e637265617360c01b81870152610120870152865180880188529384526339b5b4b760e11b8486015261014086019390935285518087018752600f81526e736d616c6c20696e74657374696e6560881b81860152610160860152855180870187528281526539b83632b2b760d11b81860152610180860152855180870187526007808252660e6e8dedac2c6d60cb1b828701526101a087019190915286518088018852918252677465737469636c6560c01b828601526101c086019190915285518087018752908152667472616368656160c81b818501526101e0850152845180860190955284526575746572757360d01b848301526102008301939093525f929092526003909152610774907f405aad32e1adbac89bb7f176e338b8fc6e994ca210c9bb7bdca249b465942250906011610a42565b506040805161014081018252600c61010082019081526b189b1bdbd9081d995cdcd95b60a21b610120830152815281518083018352600981526863617274696c61676560b81b602082810191909152808301919091528251808401845260038082526219985d60ea1b82840152838501919091528351808501855260058152641a19585c9d60da1b818401526060840152835180850185526008808252671b1a59d85b595b9d60c21b8285015260808501919091528451808601865260048152636c756e6760e01b8185015260a085015284518086018652818152676d656e697363757360c01b8185015260c0850152845180860190955260068552653a32b73237b760d11b8584015260e084019490945260025f5290526108b8917fc3a24b0501bd2c13a7e57f2db4369ec4c223447539fc0724a9d55ac4a06ebd4d91906109fe565b506040805160a08101825260066060820190815265636f726e656160d01b6080830152815281518083018352600b81526a68656172742076616c766560a81b602082810191909152808301919091528251808401845260058152643634bb32b960d91b81830152928201929092525f805260039182905261095b917f3617319a054d772f909f7c479a2cebe5066e836a939412e32403c99029b92eff9190610a86565b50505050610e52565b82600a810192821561099e579160200282015b8281111561099e57825161098e908390600a610aca565b5091602001919060010190610977565b506109aa929150610b56565b5090565b828054828255905f5260205f209081019282156109f2579160200282015b828111156109f257825182906109e29082610d98565b50916020019190600101906109cc565b506109aa929150610b69565b828054828255905f5260205f209081019282156109f2579160200282015b828111156109f25782518290610a329082610d98565b5091602001919060010190610a1c565b828054828255905f5260205f209081019282156109f2579160200282015b828111156109f25782518290610a769082610d98565b5091602001919060010190610a60565b828054828255905f5260205f209081019282156109f2579160200282015b828111156109f25782518290610aba9082610d98565b5091602001919060010190610aa4565b600183019183908215610b4a579160200282015f5b83821115610b1c57835183826101000a81548160ff021916908360ff16021790555092602001926001016020815f01049283019260010302610adf565b8015610b485782816101000a81549060ff02191690556001016020815f01049283019260010302610b1c565b505b506109aa929150610b85565b808211156109aa575f8155600101610b56565b808211156109aa575f610b7c8282610b98565b50600101610b69565b808211156109aa575f8155600101610b56565b508054610ba490610d14565b5f825580601f10610bb3575050565b601f0160209004905f5260205f2090810190610bcf9190610b85565b50565b634e487b7160e01b5f52604160045260245ffd5b5f82601f830112610bf5575f80fd5b81516001600160401b03811115610c0e57610c0e610bd2565b604051601f8201601f19908116603f011681016001600160401b0381118282101715610c3c57610c3c610bd2565b604052818152838201602001851015610c53575f80fd5b8160208501602083015e5f918101602001919091529392505050565b5f805f60608486031215610c81575f80fd5b83516001600160401b03811115610c96575f80fd5b610ca286828701610be6565b602086015190945090506001600160401b03811115610cbf575f80fd5b610ccb86828701610be6565b604086015190935090506001600160401b03811115610ce8575f80fd5b610cf486828701610be6565b9150509250925092565b5f82518060208501845e5f920191825250919050565b600181811c90821680610d2857607f821691505b602082108103610d4657634e487b7160e01b5f52602260045260245ffd5b50919050565b601f821115610d9357805f5260205f20601f840160051c81016020851015610d715750805b601f840160051c820191505b81811015610d90575f8155600101610d7d565b50505b505050565b81516001600160401b03811115610db157610db1610bd2565b610dc581610dbf8454610d14565b84610d4c565b6020601f821160018114610df7575f8315610de05750848201515b5f19600385901b1c1916600184901b178455610d90565b5f84815260208120601f198516915b82811015610e265787850151825560209485019460019092019101610e06565b5084821015610e4357868401515f19600387901b60f8161c191681555b50505050600190811b01905550565b61602e80610e5f5f395ff3fe608060405234801561000f575f80fd5b5060043610610055575f3560e01c8063963e9f1f14610059578063ae9ec45714610082578063b59e0f9e14610095578063c005a930146100aa578063f86813ff146100ca575b5f80fd5b61006c6100673660046154f4565b6100dd565b60405161007991906156a6565b60405180910390f35b61006c6100903660046154f4565b6108ec565b6100a86100a336600461592f565b6110ed565b005b6100bd6100b83660046154f4565b61219d565b6040516100799190615a48565b6100a86100d836600461592f565b6130c3565b6060816100ec81600154613bab565b6006805480602002602001604051908101604052809291908181526020015f905b828210156108df575f84815260209020604080516101008101909152600f840290910180548290608082019083908290829061014890615b55565b80601f016020809104026020016040519081016040528092919081815260200182805461017490615b55565b80156101bf5780601f10610196576101008083540402835291602001916101bf565b820191905f5260205f20905b8154815290600101906020018083116101a257829003601f168201915b5050509183525050600182015460ff80821660208401526101009091041660408201526002820180546060909201916101f790615b55565b80601f016020809104026020016040519081016040528092919081815260200182805461022390615b55565b801561026e5780601f106102455761010080835404028352916020019161026e565b820191905f5260205f20905b81548152906001019060200180831161025157829003601f168201915b505050505081525050815260200160038201805461028b90615b55565b80601f01602080910402602001604051908101604052809291908181526020018280546102b790615b55565b80156103025780601f106102d957610100808354040283529160200191610302565b820191905f5260205f20905b8154815290600101906020018083116102e557829003601f168201915b5050509183525050600482015460ff1660208201526040805161014081018252600584018054929093019290918290829061033c90615b55565b80601f016020809104026020016040519081016040528092919081815260200182805461036890615b55565b80156103b35780601f1061038a576101008083540402835291602001916103b3565b820191905f5260205f20905b81548152906001019060200180831161039657829003601f168201915b505050505081526020016001820180546103cc90615b55565b80601f01602080910402602001604051908101604052809291908181526020018280546103f890615b55565b80156104435780601f1061041a57610100808354040283529160200191610443565b820191905f5260205f20905b81548152906001019060200180831161042657829003601f168201915b5050505050815260200160028201805461045c90615b55565b80601f016020809104026020016040519081016040528092919081815260200182805461048890615b55565b80156104d35780601f106104aa576101008083540402835291602001916104d3565b820191905f5260205f20905b8154815290600101906020018083116104b657829003601f168201915b505050505081526020016003820180546104ec90615b55565b80601f016020809104026020016040519081016040528092919081815260200182805461051890615b55565b80156105635780601f1061053a57610100808354040283529160200191610563565b820191905f5260205f20905b81548152906001019060200180831161054657829003601f168201915b5050505050815260200160048201805461057c90615b55565b80601f01602080910402602001604051908101604052809291908181526020018280546105a890615b55565b80156105f35780601f106105ca576101008083540402835291602001916105f3565b820191905f5260205f20905b8154815290600101906020018083116105d657829003601f168201915b5050505050815260200160058201805461060c90615b55565b80601f016020809104026020016040519081016040528092919081815260200182805461063890615b55565b80156106835780601f1061065a57610100808354040283529160200191610683565b820191905f5260205f20905b81548152906001019060200180831161066657829003601f168201915b5050505050815260200160068201805461069c90615b55565b80601f01602080910402602001604051908101604052809291908181526020018280546106c890615b55565b80156107135780601f106106ea57610100808354040283529160200191610713565b820191905f5260205f20905b8154815290600101906020018083116106f657829003601f168201915b5050505050815260200160078201805461072c90615b55565b80601f016020809104026020016040519081016040528092919081815260200182805461075890615b55565b80156107a35780601f1061077a576101008083540402835291602001916107a3565b820191905f5260205f20905b81548152906001019060200180831161078657829003601f168201915b505050505081526020016008820180546107bc90615b55565b80601f01602080910402602001604051908101604052809291908181526020018280546107e890615b55565b80156108335780601f1061080a57610100808354040283529160200191610833565b820191905f5260205f20905b81548152906001019060200180831161081657829003601f168201915b5050505050815260200160098201805461084c90615b55565b80601f016020809104026020016040519081016040528092919081815260200182805461087890615b55565b80156108c35780601f1061089a576101008083540402835291602001916108c3565b820191905f5260205f20905b8154815290600101906020018083116108a657829003601f168201915b505050505081525050815250508152602001906001019061010d565b5050505091505b50919050565b6060816108fa815f54613bab565b6005805480602002602001604051908101604052809291908181526020015f905b828210156108df575f84815260209020604080516101008101909152600f840290910180548290608082019083908290829061095690615b55565b80601f016020809104026020016040519081016040528092919081815260200182805461098290615b55565b80156109cd5780601f106109a4576101008083540402835291602001916109cd565b820191905f5260205f20905b8154815290600101906020018083116109b057829003601f168201915b5050509183525050600182015460ff8082166020840152610100909104166040820152600282018054606090920191610a0590615b55565b80601f0160208091040260200160405190810160405280929190818152602001828054610a3190615b55565b8015610a7c5780601f10610a5357610100808354040283529160200191610a7c565b820191905f5260205f20905b815481529060010190602001808311610a5f57829003601f168201915b5050505050815250508152602001600382018054610a9990615b55565b80601f0160208091040260200160405190810160405280929190818152602001828054610ac590615b55565b8015610b105780601f10610ae757610100808354040283529160200191610b10565b820191905f5260205f20905b815481529060010190602001808311610af357829003601f168201915b5050509183525050600482015460ff16602082015260408051610140810182526005840180549290930192909182908290610b4a90615b55565b80601f0160208091040260200160405190810160405280929190818152602001828054610b7690615b55565b8015610bc15780601f10610b9857610100808354040283529160200191610bc1565b820191905f5260205f20905b815481529060010190602001808311610ba457829003601f168201915b50505050508152602001600182018054610bda90615b55565b80601f0160208091040260200160405190810160405280929190818152602001828054610c0690615b55565b8015610c515780601f10610c2857610100808354040283529160200191610c51565b820191905f5260205f20905b815481529060010190602001808311610c3457829003601f168201915b50505050508152602001600282018054610c6a90615b55565b80601f0160208091040260200160405190810160405280929190818152602001828054610c9690615b55565b8015610ce15780601f10610cb857610100808354040283529160200191610ce1565b820191905f5260205f20905b815481529060010190602001808311610cc457829003601f168201915b50505050508152602001600382018054610cfa90615b55565b80601f0160208091040260200160405190810160405280929190818152602001828054610d2690615b55565b8015610d715780601f10610d4857610100808354040283529160200191610d71565b820191905f5260205f20905b815481529060010190602001808311610d5457829003601f168201915b50505050508152602001600482018054610d8a90615b55565b80601f0160208091040260200160405190810160405280929190818152602001828054610db690615b55565b8015610e015780601f10610dd857610100808354040283529160200191610e01565b820191905f5260205f20905b815481529060010190602001808311610de457829003601f168201915b50505050508152602001600582018054610e1a90615b55565b80601f0160208091040260200160405190810160405280929190818152602001828054610e4690615b55565b8015610e915780601f10610e6857610100808354040283529160200191610e91565b820191905f5260205f20905b815481529060010190602001808311610e7457829003601f168201915b50505050508152602001600682018054610eaa90615b55565b80601f0160208091040260200160405190810160405280929190818152602001828054610ed690615b55565b8015610f215780601f10610ef857610100808354040283529160200191610f21565b820191905f5260205f20905b815481529060010190602001808311610f0457829003601f168201915b50505050508152602001600782018054610f3a90615b55565b80601f0160208091040260200160405190810160405280929190818152602001828054610f6690615b55565b8015610fb15780601f10610f8857610100808354040283529160200191610fb1565b820191905f5260205f20905b815481529060010190602001808311610f9457829003601f168201915b50505050508152602001600882018054610fca90615b55565b80601f0160208091040260200160405190810160405280929190818152602001828054610ff690615b55565b80156110415780601f1061101857610100808354040283529160200191611041565b820191905f5260205f20905b81548152906001019060200180831161102457829003601f168201915b5050505050815260200160098201805461105a90615b55565b80601f016020809104026020016040519081016040528092919081815260200182805461108690615b55565b80156110d15780601f106110a8576101008083540402835291602001916110d1565b820191905f5260205f20905b8154815290600101906020018083116110b457829003601f168201915b505050505081525050815250508152602001906001019061091b565b6110f860045f61539c565b60408085015181516101408101909252611182916008600a5f835b8282101561117657604080516101408101918290529085840190600a90825f855b825461010083900a900460ff16815260206001928301818104948501949093039092029101808411611134579050505050505081526020019060010190611113565b5050505060045f613be0565b5f805b600654811015612182578480519060200120600682815481106111aa576111aa615b87565b905f5260205f2090600f02016003016040516111c69190615b9b565b60405180910390200361217a575f5b60045460ff821610156121785760048160ff16815481106111f8576111f8615b87565b905f5260205f2090602091828204019190069054906101000a900460ff1660ff166006838154811061122c5761122c615b87565b5f9182526020909120600f9091020160010154610100900460ff1603612166575f611824856006858154811061126457611264615b87565b905f5260205f2090600f0201600501604051806101400160405290815f8201805461128e90615b55565b80601f01602080910402602001604051908101604052809291908181526020018280546112ba90615b55565b80156113055780601f106112dc57610100808354040283529160200191611305565b820191905f5260205f20905b8154815290600101906020018083116112e857829003601f168201915b5050505050815260200160018201805461131e90615b55565b80601f016020809104026020016040519081016040528092919081815260200182805461134a90615b55565b80156113955780601f1061136c57610100808354040283529160200191611395565b820191905f5260205f20905b81548152906001019060200180831161137857829003601f168201915b505050505081526020016002820180546113ae90615b55565b80601f01602080910402602001604051908101604052809291908181526020018280546113da90615b55565b80156114255780601f106113fc57610100808354040283529160200191611425565b820191905f5260205f20905b81548152906001019060200180831161140857829003601f168201915b5050505050815260200160038201805461143e90615b55565b80601f016020809104026020016040519081016040528092919081815260200182805461146a90615b55565b80156114b55780601f1061148c576101008083540402835291602001916114b5565b820191905f5260205f20905b81548152906001019060200180831161149857829003601f168201915b505050505081526020016004820180546114ce90615b55565b80601f01602080910402602001604051908101604052809291908181526020018280546114fa90615b55565b80156115455780601f1061151c57610100808354040283529160200191611545565b820191905f5260205f20905b81548152906001019060200180831161152857829003601f168201915b5050505050815260200160058201805461155e90615b55565b80601f016020809104026020016040519081016040528092919081815260200182805461158a90615b55565b80156115d55780601f106115ac576101008083540402835291602001916115d5565b820191905f5260205f20905b8154815290600101906020018083116115b857829003601f168201915b505050505081526020016006820180546115ee90615b55565b80601f016020809104026020016040519081016040528092919081815260200182805461161a90615b55565b80156116655780601f1061163c57610100808354040283529160200191611665565b820191905f5260205f20905b81548152906001019060200180831161164857829003601f168201915b5050505050815260200160078201805461167e90615b55565b80601f01602080910402602001604051908101604052809291908181526020018280546116aa90615b55565b80156116f55780601f106116cc576101008083540402835291602001916116f5565b820191905f5260205f20905b8154815290600101906020018083116116d857829003601f168201915b5050505050815260200160088201805461170e90615b55565b80601f016020809104026020016040519081016040528092919081815260200182805461173a90615b55565b80156117855780601f1061175c57610100808354040283529160200191611785565b820191905f5260205f20905b81548152906001019060200180831161176857829003601f168201915b5050505050815260200160098201805461179e90615b55565b80601f01602080910402602001604051908101604052809291908181526020018280546117ca90615b55565b80156118155780601f106117ec57610100808354040283529160200191611815565b820191905f5260205f20905b8154815290600101906020018083116117f857829003601f168201915b50505050508152505083613d56565b9050611831876003613e7f565b8160ff161061216457600193505f80516020615fd98339815191526006848154811061185f5761185f615b87565b905f5260205f2090600f02015f016006858154811061188057611880615b87565b905f5260205f2090600f0201600301600686815481106118a2576118a2615b87565b5f91825260209091206004600f90920201015460ff166118c385600a615c20565b6040516118d39493929190615cc1565b60405180910390a15f600684815481106118ef576118ef615b87565b5f91825260209091206004600f90920201015461190f9060ff1688615d3d565b90505f815f0b13156120de576120be60078a6006878154811061193457611934615b87565b905f5260205f2090600f02015f016040518060800160405290815f8201805461195c90615b55565b80601f016020809104026020016040519081016040528092919081815260200182805461198890615b55565b80156119d35780601f106119aa576101008083540402835291602001916119d3565b820191905f5260205f20905b8154815290600101906020018083116119b657829003601f168201915b5050509183525050600182015460ff8082166020840152610100909104166040820152600282018054606090920191611a0b90615b55565b80601f0160208091040260200160405190810160405280929190818152602001828054611a3790615b55565b8015611a825780601f10611a5957610100808354040283529160200191611a82565b820191905f5260205f20905b815481529060010190602001808311611a6557829003601f168201915b5050505050815250508b8b60068a81548110611aa057611aa0615b87565b905f5260205f2090600f02016004015f9054906101000a900460ff1660068b81548110611acf57611acf615b87565b905f5260205f2090600f02016004015f9054906101000a900460ff168d60068d81548110611aff57611aff615b87565b905f5260205f2090600f0201600501604051806101400160405290815f82018054611b2990615b55565b80601f0160208091040260200160405190810160405280929190818152602001828054611b5590615b55565b8015611ba05780601f10611b7757610100808354040283529160200191611ba0565b820191905f5260205f20905b815481529060010190602001808311611b8357829003601f168201915b50505050508152602001600182018054611bb990615b55565b80601f0160208091040260200160405190810160405280929190818152602001828054611be590615b55565b8015611c305780601f10611c0757610100808354040283529160200191611c30565b820191905f5260205f20905b815481529060010190602001808311611c1357829003601f168201915b50505050508152602001600282018054611c4990615b55565b80601f0160208091040260200160405190810160405280929190818152602001828054611c7590615b55565b8015611cc05780601f10611c9757610100808354040283529160200191611cc0565b820191905f5260205f20905b815481529060010190602001808311611ca357829003601f168201915b50505050508152602001600382018054611cd990615b55565b80601f0160208091040260200160405190810160405280929190818152602001828054611d0590615b55565b8015611d505780601f10611d2757610100808354040283529160200191611d50565b820191905f5260205f20905b815481529060010190602001808311611d3357829003601f168201915b50505050508152602001600482018054611d6990615b55565b80601f0160208091040260200160405190810160405280929190818152602001828054611d9590615b55565b8015611de05780601f10611db757610100808354040283529160200191611de0565b820191905f5260205f20905b815481529060010190602001808311611dc357829003601f168201915b50505050508152602001600582018054611df990615b55565b80601f0160208091040260200160405190810160405280929190818152602001828054611e2590615b55565b8015611e705780601f10611e4757610100808354040283529160200191611e70565b820191905f5260205f20905b815481529060010190602001808311611e5357829003601f168201915b50505050508152602001600682018054611e8990615b55565b80601f0160208091040260200160405190810160405280929190818152602001828054611eb590615b55565b8015611f005780601f10611ed757610100808354040283529160200191611f00565b820191905f5260205f20905b815481529060010190602001808311611ee357829003601f168201915b50505050508152602001600782018054611f1990615b55565b80601f0160208091040260200160405190810160405280929190818152602001828054611f4590615b55565b8015611f905780601f10611f6757610100808354040283529160200191611f90565b820191905f5260205f20905b815481529060010190602001808311611f7357829003601f168201915b50505050508152602001600882018054611fa990615b55565b80601f0160208091040260200160405190810160405280929190818152602001828054611fd590615b55565b80156120205780601f10611ff757610100808354040283529160200191612020565b820191905f5260205f20905b81548152906001019060200180831161200357829003601f168201915b5050505050815260200160098201805461203990615b55565b80601f016020809104026020016040519081016040528092919081815260200182805461206590615b55565b80156120b05780601f10612087576101008083540402835291602001916120b0565b820191905f5260205f20905b81548152906001019060200180831161209357829003601f168201915b505050505081525050614026565b6120cc60058a8a848a614351565b6120d76006856144fe565b5050612178565b805f0b5f03612100576120cc60078a6006878154811061193457611934615b87565b61211960078a6006878154811061193457611934615b87565b612124815f19615d5d565b6006858154811061213757612137615b87565b905f5260205f2090600f02016004015f6101000a81548160ff021916908360ff1602179055505050612178565b505b8061217081615d79565b9150506111d5565b505b600101611185565b508061219657612196600586868686614351565b5050505050565b6060816121ac81600254613bab565b6007805480602002602001604051908101604052809291908181526020015f905b828210156108df575f84815260209020604080516101808101909152601c84029091018054829061010082019083908290829061220990615b55565b80601f016020809104026020016040519081016040528092919081815260200182805461223590615b55565b80156122805780601f1061225757610100808354040283529160200191612280565b820191905f5260205f20905b81548152906001019060200180831161226357829003601f168201915b5050509183525050600182015460ff80821660208401526101009091041660408201526002820180546060909201916122b890615b55565b80601f01602080910402602001604051908101604052809291908181526020018280546122e490615b55565b801561232f5780601f106123065761010080835404028352916020019161232f565b820191905f5260205f20905b81548152906001019060200180831161231257829003601f168201915b5050505050815250508152602001600382016040518060800160405290815f8201805461235b90615b55565b80601f016020809104026020016040519081016040528092919081815260200182805461238790615b55565b80156123d25780601f106123a9576101008083540402835291602001916123d2565b820191905f5260205f20905b8154815290600101906020018083116123b557829003601f168201915b5050509183525050600182015460ff808216602084015261010090910416604082015260028201805460609092019161240a90615b55565b80601f016020809104026020016040519081016040528092919081815260200182805461243690615b55565b80156124815780601f1061245857610100808354040283529160200191612481565b820191905f5260205f20905b81548152906001019060200180831161246457829003601f168201915b505050505081525050815260200160068201805461249e90615b55565b80601f01602080910402602001604051908101604052809291908181526020018280546124ca90615b55565b80156125155780601f106124ec57610100808354040283529160200191612515565b820191905f5260205f20905b8154815290600101906020018083116124f857829003601f168201915b5050509183525050600782015460ff80821660208401526101008204811660408085019190915262010000909204166060830152805161014081019091526008830180546080909301928290829061256c90615b55565b80601f016020809104026020016040519081016040528092919081815260200182805461259890615b55565b80156125e35780601f106125ba576101008083540402835291602001916125e3565b820191905f5260205f20905b8154815290600101906020018083116125c657829003601f168201915b505050505081526020016001820180546125fc90615b55565b80601f016020809104026020016040519081016040528092919081815260200182805461262890615b55565b80156126735780601f1061264a57610100808354040283529160200191612673565b820191905f5260205f20905b81548152906001019060200180831161265657829003601f168201915b5050505050815260200160028201805461268c90615b55565b80601f01602080910402602001604051908101604052809291908181526020018280546126b890615b55565b80156127035780601f106126da57610100808354040283529160200191612703565b820191905f5260205f20905b8154815290600101906020018083116126e657829003601f168201915b5050505050815260200160038201805461271c90615b55565b80601f016020809104026020016040519081016040528092919081815260200182805461274890615b55565b80156127935780601f1061276a57610100808354040283529160200191612793565b820191905f5260205f20905b81548152906001019060200180831161277657829003601f168201915b505050505081526020016004820180546127ac90615b55565b80601f01602080910402602001604051908101604052809291908181526020018280546127d890615b55565b80156128235780601f106127fa57610100808354040283529160200191612823565b820191905f5260205f20905b81548152906001019060200180831161280657829003601f168201915b5050505050815260200160058201805461283c90615b55565b80601f016020809104026020016040519081016040528092919081815260200182805461286890615b55565b80156128b35780601f1061288a576101008083540402835291602001916128b3565b820191905f5260205f20905b81548152906001019060200180831161289657829003601f168201915b505050505081526020016006820180546128cc90615b55565b80601f01602080910402602001604051908101604052809291908181526020018280546128f890615b55565b80156129435780601f1061291a57610100808354040283529160200191612943565b820191905f5260205f20905b81548152906001019060200180831161292657829003601f168201915b5050505050815260200160078201805461295c90615b55565b80601f016020809104026020016040519081016040528092919081815260200182805461298890615b55565b80156129d35780601f106129aa576101008083540402835291602001916129d3565b820191905f5260205f20905b8154815290600101906020018083116129b657829003601f168201915b505050505081526020016008820180546129ec90615b55565b80601f0160208091040260200160405190810160405280929190818152602001828054612a1890615b55565b8015612a635780601f10612a3a57610100808354040283529160200191612a63565b820191905f5260205f20905b815481529060010190602001808311612a4657829003601f168201915b50505050508152602001600982018054612a7c90615b55565b80601f0160208091040260200160405190810160405280929190818152602001828054612aa890615b55565b8015612af35780601f10612aca57610100808354040283529160200191612af3565b820191905f5260205f20905b815481529060010190602001808311612ad657829003601f168201915b505050505081525050815260200160128201604051806101400160405290815f82018054612b2090615b55565b80601f0160208091040260200160405190810160405280929190818152602001828054612b4c90615b55565b8015612b975780601f10612b6e57610100808354040283529160200191612b97565b820191905f5260205f20905b815481529060010190602001808311612b7a57829003601f168201915b50505050508152602001600182018054612bb090615b55565b80601f0160208091040260200160405190810160405280929190818152602001828054612bdc90615b55565b8015612c275780601f10612bfe57610100808354040283529160200191612c27565b820191905f5260205f20905b815481529060010190602001808311612c0a57829003601f168201915b50505050508152602001600282018054612c4090615b55565b80601f0160208091040260200160405190810160405280929190818152602001828054612c6c90615b55565b8015612cb75780601f10612c8e57610100808354040283529160200191612cb7565b820191905f5260205f20905b815481529060010190602001808311612c9a57829003601f168201915b50505050508152602001600382018054612cd090615b55565b80601f0160208091040260200160405190810160405280929190818152602001828054612cfc90615b55565b8015612d475780601f10612d1e57610100808354040283529160200191612d47565b820191905f5260205f20905b815481529060010190602001808311612d2a57829003601f168201915b50505050508152602001600482018054612d6090615b55565b80601f0160208091040260200160405190810160405280929190818152602001828054612d8c90615b55565b8015612dd75780601f10612dae57610100808354040283529160200191612dd7565b820191905f5260205f20905b815481529060010190602001808311612dba57829003601f168201915b50505050508152602001600582018054612df090615b55565b80601f0160208091040260200160405190810160405280929190818152602001828054612e1c90615b55565b8015612e675780601f10612e3e57610100808354040283529160200191612e67565b820191905f5260205f20905b815481529060010190602001808311612e4a57829003601f168201915b50505050508152602001600682018054612e8090615b55565b80601f0160208091040260200160405190810160405280929190818152602001828054612eac90615b55565b8015612ef75780601f10612ece57610100808354040283529160200191612ef7565b820191905f5260205f20905b815481529060010190602001808311612eda57829003601f168201915b50505050508152602001600782018054612f1090615b55565b80601f0160208091040260200160405190810160405280929190818152602001828054612f3c90615b55565b8015612f875780601f10612f5e57610100808354040283529160200191612f87565b820191905f5260205f20905b815481529060010190602001808311612f6a57829003601f168201915b50505050508152602001600882018054612fa090615b55565b80601f0160208091040260200160405190810160405280929190818152602001828054612fcc90615b55565b80156130175780601f10612fee57610100808354040283529160200191613017565b820191905f5260205f20905b815481529060010190602001808311612ffa57829003601f168201915b5050505050815260200160098201805461303090615b55565b80601f016020809104026020016040519081016040528092919081815260200182805461305c90615b55565b80156130a75780601f1061307e576101008083540402835291602001916130a7565b820191905f5260205f20905b81548152906001019060200180831161308a57829003601f168201915b50505050508152505081525050815260200190600101906121cd565b6130ce60045f61539c565b60408085015181516101408101909252613159916008600a5f835b8282101561314c57604080516101408101918290529085840190600a90825f855b825461010083900a900460ff1681526020600192830181810494850194909303909202910180841161310a5790505050505050815260200190600101906130e9565b5050505060046001613be0565b5f805b600554811015613b975784805190602001206005828154811061318157613181615b87565b905f5260205f2090600f020160030160405161319d9190615b9b565b604051809103902003613b8f575f5b60045460ff82161015613b8d5760048160ff16815481106131cf576131cf615b87565b905f5260205f2090602091828204019190069054906101000a900460ff1660ff166005838154811061320357613203615b87565b5f9182526020909120600f9091020160010154610100900460ff1603613b7b575f61323b856005858154811061126457611264615b87565b9050613248876003613e7f565b8160ff1610613b7957600193505f80516020615fd98339815191526005848154811061327657613276615b87565b905f5260205f2090600f02015f016005858154811061329757613297615b87565b905f5260205f2090600f0201600301600586815481106132b9576132b9615b87565b5f91825260209091206004600f90920201015460ff166132da85600a615c20565b6040516132ea9493929190615cc1565b60405180910390a15f6005848154811061330657613306615b87565b5f91825260209091206004600f9092020101546133269060ff1688615d3d565b90505f815f0b1315613af557613ad560076005868154811061334a5761334a615b87565b905f5260205f2090600f02015f016040518060800160405290815f8201805461337290615b55565b80601f016020809104026020016040519081016040528092919081815260200182805461339e90615b55565b80156133e95780601f106133c0576101008083540402835291602001916133e9565b820191905f5260205f20905b8154815290600101906020018083116133cc57829003601f168201915b5050509183525050600182015460ff808216602084015261010090910416604082015260028201805460609092019161342190615b55565b80601f016020809104026020016040519081016040528092919081815260200182805461344d90615b55565b80156134985780601f1061346f57610100808354040283529160200191613498565b820191905f5260205f20905b81548152906001019060200180831161347b57829003601f168201915b5050505050815250508b8b600589815481106134b6576134b6615b87565b905f5260205f2090600f02016004015f9054906101000a900460ff168c60058b815481106134e6576134e6615b87565b905f5260205f2090600f02016004015f9054906101000a900460ff1660058c8154811061351557613515615b87565b905f5260205f2090600f0201600501604051806101400160405290815f8201805461353f90615b55565b80601f016020809104026020016040519081016040528092919081815260200182805461356b90615b55565b80156135b65780601f1061358d576101008083540402835291602001916135b6565b820191905f5260205f20905b81548152906001019060200180831161359957829003601f168201915b505050505081526020016001820180546135cf90615b55565b80601f01602080910402602001604051908101604052809291908181526020018280546135fb90615b55565b80156136465780601f1061361d57610100808354040283529160200191613646565b820191905f5260205f20905b81548152906001019060200180831161362957829003601f168201915b5050505050815260200160028201805461365f90615b55565b80601f016020809104026020016040519081016040528092919081815260200182805461368b90615b55565b80156136d65780601f106136ad576101008083540402835291602001916136d6565b820191905f5260205f20905b8154815290600101906020018083116136b957829003601f168201915b505050505081526020016003820180546136ef90615b55565b80601f016020809104026020016040519081016040528092919081815260200182805461371b90615b55565b80156137665780601f1061373d57610100808354040283529160200191613766565b820191905f5260205f20905b81548152906001019060200180831161374957829003601f168201915b5050505050815260200160048201805461377f90615b55565b80601f01602080910402602001604051908101604052809291908181526020018280546137ab90615b55565b80156137f65780601f106137cd576101008083540402835291602001916137f6565b820191905f5260205f20905b8154815290600101906020018083116137d957829003601f168201915b5050505050815260200160058201805461380f90615b55565b80601f016020809104026020016040519081016040528092919081815260200182805461383b90615b55565b80156138865780601f1061385d57610100808354040283529160200191613886565b820191905f5260205f20905b81548152906001019060200180831161386957829003601f168201915b5050505050815260200160068201805461389f90615b55565b80601f01602080910402602001604051908101604052809291908181526020018280546138cb90615b55565b80156139165780601f106138ed57610100808354040283529160200191613916565b820191905f5260205f20905b8154815290600101906020018083116138f957829003601f168201915b5050505050815260200160078201805461392f90615b55565b80601f016020809104026020016040519081016040528092919081815260200182805461395b90615b55565b80156139a65780601f1061397d576101008083540402835291602001916139a6565b820191905f5260205f20905b81548152906001019060200180831161398957829003601f168201915b505050505081526020016008820180546139bf90615b55565b80601f01602080910402602001604051908101604052809291908181526020018280546139eb90615b55565b8015613a365780601f10613a0d57610100808354040283529160200191613a36565b820191905f5260205f20905b815481529060010190602001808311613a1957829003601f168201915b50505050508152602001600982018054613a4f90615b55565b80601f0160208091040260200160405190810160405280929190818152602001828054613a7b90615b55565b8015613ac65780601f10613a9d57610100808354040283529160200191613ac6565b820191905f5260205f20905b815481529060010190602001808311613aa957829003601f168201915b5050505050815250508e614026565b613ae360068a8a848a614351565b613aee6005856144fe565b5050613b8d565b805f0b5f03613b1657613ae360076005868154811061334a5761334a615b87565b613b2e60076005868154811061334a5761334a615b87565b613b39815f19615d5d565b60058581548110613b4c57613b4c615b87565b905f5260205f2090600f02016004015f6101000a81548160ff021916908360ff1602179055505050613b8d565b505b80613b8581615d79565b9150506131ac565b505b60010161315c565b508061219657612196600686868686614351565b8082604051602001613bbd9190615d97565b6040516020818303038152906040528051906020012014613bdc575f80fd5b5050565b8360ff1660081480613bf557508360ff166009145b15613c325781546001810183555f83815260209081902090820401805460ff808816601f9094166101000a93840293021916919091179055613d50565b8060ff165f03613cc9575f5b60088160ff161015613cc357838160ff16600a8110613c5f57613c5f615b87565b60200201518560ff16600a8110613c7857613c78615b87565b602002015160ff16600103613cbb5782546001810184555f84815260209081902090820401805460ff808516601f9094166101000a938402930219169190911790555b600101613c3e565b50613d50565b5f5b60088160ff16101561219657838560ff16600a8110613cec57613cec615b87565b60200201518160ff16600a8110613d0557613d05615b87565b602002015160ff16600103613d485782546001810184555f84815260209081902090820401805460ff808516601f9094166101000a938402930219169190911790555b600101613ccb565b50505050565b5f613d69846020015184602001516150f5565b84518451613d7791906150f5565b613d819190615dad565b613d8b9083615dad565b9150613d9f846060015184606001516150f5565b613db1856040015185604001516150f5565b613dbb9190615dad565b613dc59083615dad565b9150613dd98460a001518460a001516150f5565b613deb856080015185608001516150f5565b613df59190615dad565b613dff9083615dad565b9150613e138460e001518460e001516150f5565b613e258560c001518560c001516150f5565b613e2f9190615dad565b613e399083615dad565b9150613e4f8461012001518461012001516150f5565b613e638561010001518561010001516150f5565b613e6d9190615dad565b613e779083615dad565b949350505050565b6040805160a0810182526009815260076020820152600591810191909152600260608201525f608082018190529081805b600581101561401b575f855f858460058110613ece57613ece615b87565b602002015160ff1660ff1681526020019081526020015f20805480602002602001604051908101604052809291908181526020015f905b82821015613fad578382905f5260205f20018054613f2290615b55565b80601f0160208091040260200160405190810160405280929190818152602001828054613f4e90615b55565b8015613f995780601f10613f7057610100808354040283529160200191613f99565b820191905f5260205f20905b815481529060010190602001808311613f7c57829003601f168201915b505050505081526020019060010190613f05565b5050505090505f5b8151811015614011578780519060200120828281518110613fd857613fd8615b87565b6020026020010151805190602001200361400957848360058110613ffe57613ffe615b87565b602002015160ff1693505b600101613fb5565b5050600101613eb0565b509150505b92915050565b604080516101008101825289815260208082018a905291810188905260ff80881660608301528681166080830152851660a082015260c0810184905260e081018390528a54600181018c555f8c8152929092208151805192938493601c90910290920191829081906140989082615e23565b506020820151600182018054604085015160ff9081166101000261ffff19909216931692909217919091179055606082015160028201906140d99082615e23565b50505060208201518051600383019081906140f49082615e23565b506020820151600182018054604085015160ff9081166101000261ffff19909216931692909217919091179055606082015160028201906141359082615e23565b5050506040820151600682019061414c9082615e23565b506060820151600782018054608085015160a086015160ff908116620100000262ff0000199282166101000261ffff199094169190951617919091171691909117905560c08201518051600883019081906141a79082615e23565b50602082015160018201906141bc9082615e23565b50604082015160028201906141d19082615e23565b50606082015160038201906141e69082615e23565b50608082015160048201906141fb9082615e23565b5060a082015160058201906142109082615e23565b5060c082015160068201906142259082615e23565b5060e0820151600782019061423a9082615e23565b5061010082015160088201906142509082615e23565b5061012082015160098201906142669082615e23565b50505060e08201518051601283019081906142819082615e23565b50602082015160018201906142969082615e23565b50604082015160028201906142ab9082615e23565b50606082015160038201906142c09082615e23565b50608082015160048201906142d59082615e23565b5060a082015160058201906142ea9082615e23565b5060c082015160068201906142ff9082615e23565b5060e082015160078201906143149082615e23565b50610100820151600882019061432a9082615e23565b5061012082015160098201906143409082615e23565b505050505050505050505050505050565b60408051608081018252858152602080820186905260ff8516928201929092526060810183905286546001810188555f888152929092208151805192938493600f90910290920191829081906143a79082615e23565b506020820151600182018054604085015160ff9081166101000261ffff19909216931692909217919091179055606082015160028201906143e89082615e23565b505050602082015160038201906143ff9082615e23565b50604082015160048201805460ff191660ff90921691909117905560608201518051600583019081906144329082615e23565b50602082015160018201906144479082615e23565b506040820151600282019061445c9082615e23565b50606082015160038201906144719082615e23565b50608082015160048201906144869082615e23565b5060a0820151600582019061449b9082615e23565b5060c082015160068201906144b09082615e23565b5060e082015160078201906144c59082615e23565b5061010082015160088201906144db9082615e23565b5061012082015160098201906144f19082615e23565b5050505050505050505050565b5f82828154811061451157614511615b87565b905f5260205f2090600f02016040518060800160405290815f82016040518060800160405290815f8201805461454690615b55565b80601f016020809104026020016040519081016040528092919081815260200182805461457290615b55565b80156145bd5780601f10614594576101008083540402835291602001916145bd565b820191905f5260205f20905b8154815290600101906020018083116145a057829003601f168201915b5050509183525050600182015460ff80821660208401526101009091041660408201526002820180546060909201916145f590615b55565b80601f016020809104026020016040519081016040528092919081815260200182805461462190615b55565b801561466c5780601f106146435761010080835404028352916020019161466c565b820191905f5260205f20905b81548152906001019060200180831161464f57829003601f168201915b505050505081525050815260200160038201805461468990615b55565b80601f01602080910402602001604051908101604052809291908181526020018280546146b590615b55565b80156147005780601f106146d757610100808354040283529160200191614700565b820191905f5260205f20905b8154815290600101906020018083116146e357829003601f168201915b5050509183525050600482015460ff1660208201526040805161014081018252600584018054929093019290918290829061473a90615b55565b80601f016020809104026020016040519081016040528092919081815260200182805461476690615b55565b80156147b15780601f10614788576101008083540402835291602001916147b1565b820191905f5260205f20905b81548152906001019060200180831161479457829003601f168201915b505050505081526020016001820180546147ca90615b55565b80601f01602080910402602001604051908101604052809291908181526020018280546147f690615b55565b80156148415780601f1061481857610100808354040283529160200191614841565b820191905f5260205f20905b81548152906001019060200180831161482457829003601f168201915b5050505050815260200160028201805461485a90615b55565b80601f016020809104026020016040519081016040528092919081815260200182805461488690615b55565b80156148d15780601f106148a8576101008083540402835291602001916148d1565b820191905f5260205f20905b8154815290600101906020018083116148b457829003601f168201915b505050505081526020016003820180546148ea90615b55565b80601f016020809104026020016040519081016040528092919081815260200182805461491690615b55565b80156149615780601f1061493857610100808354040283529160200191614961565b820191905f5260205f20905b81548152906001019060200180831161494457829003601f168201915b5050505050815260200160048201805461497a90615b55565b80601f01602080910402602001604051908101604052809291908181526020018280546149a690615b55565b80156149f15780601f106149c8576101008083540402835291602001916149f1565b820191905f5260205f20905b8154815290600101906020018083116149d457829003601f168201915b50505050508152602001600582018054614a0a90615b55565b80601f0160208091040260200160405190810160405280929190818152602001828054614a3690615b55565b8015614a815780601f10614a5857610100808354040283529160200191614a81565b820191905f5260205f20905b815481529060010190602001808311614a6457829003601f168201915b50505050508152602001600682018054614a9a90615b55565b80601f0160208091040260200160405190810160405280929190818152602001828054614ac690615b55565b8015614b115780601f10614ae857610100808354040283529160200191614b11565b820191905f5260205f20905b815481529060010190602001808311614af457829003601f168201915b50505050508152602001600782018054614b2a90615b55565b80601f0160208091040260200160405190810160405280929190818152602001828054614b5690615b55565b8015614ba15780601f10614b7857610100808354040283529160200191614ba1565b820191905f5260205f20905b815481529060010190602001808311614b8457829003601f168201915b50505050508152602001600882018054614bba90615b55565b80601f0160208091040260200160405190810160405280929190818152602001828054614be690615b55565b8015614c315780601f10614c0857610100808354040283529160200191614c31565b820191905f5260205f20905b815481529060010190602001808311614c1457829003601f168201915b50505050508152602001600982018054614c4a90615b55565b80601f0160208091040260200160405190810160405280929190818152602001828054614c7690615b55565b8015614cc15780601f10614c9857610100808354040283529160200191614cc1565b820191905f5260205f20905b815481529060010190602001808311614ca457829003601f168201915b5050509190925250505090525083549091508390614ce190600190615ed8565b81548110614cf157614cf1615b87565b905f5260205f2090600f0201838381548110614d0f57614d0f615b87565b5f9182526020909120600f90910201818180614d2b8382615eeb565b5060018281018054918301805460ff93841660ff19821681178355925461ffff1990911690921761010092839004909316909102919091179055600280820190614d7790840182615eeb565b505050600381810190614d8c90840182615eeb565b50600482810154908201805460ff191660ff909216919091179055600580830190820180614dba8382615eeb565b50600181810190614dcd90840182615eeb565b50600281810190614de090840182615eeb565b50600381810190614df390840182615eeb565b50600481810190614e0690840182615eeb565b50600581810190614e1990840182615eeb565b50600681810190614e2c90840182615eeb565b50600781810190614e3f90840182615eeb565b50600881810190614e5290840182615eeb565b50600981810190614e6590840182615eeb565b50508554849350869250614e7c9150600190615ed8565b81548110614e8c57614e8c615b87565b5f918252602090912082518051600f9093029091019182908190614eb09082615e23565b506020820151600182018054604085015160ff9081166101000261ffff1990921693169290921791909117905560608201516002820190614ef19082615e23565b50505060208201516003820190614f089082615e23565b50604082015160048201805460ff191660ff9092169190911790556060820151805160058301908190614f3b9082615e23565b5060208201516001820190614f509082615e23565b5060408201516002820190614f659082615e23565b5060608201516003820190614f7a9082615e23565b5060808201516004820190614f8f9082615e23565b5060a08201516005820190614fa49082615e23565b5060c08201516006820190614fb99082615e23565b5060e08201516007820190614fce9082615e23565b506101008201516008820190614fe49082615e23565b506101208201516009820190614ffa9082615e23565b5050509050508280548061501057615010615fab565b5f828152602081205f1990920191600f83020190818161503082826153c1565b60018201805461ffff1916905561504a600283015f6153c1565b5061505a9050600383015f6153c1565b60048201805460ff19169055600582015f61507582826153c1565b615082600183015f6153c1565b61508f600283015f6153c1565b61509c600383015f6153c1565b6150a9600483015f6153c1565b6150b6600583015f6153c1565b6150c3600683015f6153c1565b6150d0600783015f6153c1565b6150dd600883015f6153c1565b6150ea600983015f6153c1565b505050509055505050565b5f8060308360018151811061510c5761510c615b87565b016020015161511e919060f81c615fbf565b6030845f8151811061513257615132615b87565b0160200151615144919060f81c615fbf565b61514f90600a615c20565b6151599190615dad565b60ff1660308560018151811061517157615171615b87565b0160200151615183919060f81c615fbf565b6030865f8151811061519757615197615b87565b01602001516151a9919060f81c615fbf565b6151b490600a615c20565b6151be9190615dad565b60ff161490505f6030846004815181106151da576151da615b87565b01602001516151ec919060f81c615fbf565b60308560038151811061520157615201615b87565b0160200151615213919060f81c615fbf565b61521e90600a615c20565b6152289190615dad565b60ff1660308660048151811061524057615240615b87565b0160200151615252919060f81c615fbf565b60308760038151811061526757615267615b87565b0160200151615279919060f81c615fbf565b61528490600a615c20565b61528e9190615dad565b60ff161490505f6030856007815181106152aa576152aa615b87565b01602001516152bc919060f81c615fbf565b6030866006815181106152d1576152d1615b87565b01602001516152e3919060f81c615fbf565b6152ee90600a615c20565b6152f89190615dad565b60ff1660308760078151811061531057615310615b87565b0160200151615322919060f81c615fbf565b60308860068151811061533757615337615b87565b0160200151615349919060f81c615fbf565b61535490600a615c20565b61535e9190615dad565b60ff1614905082801561536e5750815b80156153775750805b156153885760019350505050614020565b5f9350505050614020565b50505092915050565b5080545f8255601f0160209004905f5260205f20908101906153be91906153f4565b50565b5080546153cd90615b55565b5f825580601f106153dc575050565b601f0160209004905f5260205f20908101906153be91905b5b80821115615408575f81556001016153f5565b5090565b634e487b7160e01b5f52604160045260245ffd5b60405161014081016001600160401b03811182821017156154435761544361540c565b60405290565b604051608081016001600160401b03811182821017156154435761544361540c565b5f82601f83011261547a575f80fd5b81356001600160401b038111156154935761549361540c565b604051601f8201601f19908116603f011681016001600160401b03811182821017156154c1576154c161540c565b6040528181528382016020018510156154d8575f80fd5b816020850160208301375f918101602001919091529392505050565b5f60208284031215615504575f80fd5b81356001600160401b03811115615519575f80fd5b613e778482850161546b565b5f81518084528060208401602086015e5f602082860101526020601f19601f83011685010191505092915050565b5f8151608084526155676080850182615525565b905060ff602084015116602085015260ff60408401511660408501526060830151848203606086015261559a8282615525565b95945050505050565b5f815161014084526155b9610140850182615525565b9050602083015184820360208601526155d28282615525565b915050604083015184820360408601526155ec8282615525565b915050606083015184820360608601526156068282615525565b915050608083015184820360808601526156208282615525565b91505060a083015184820360a086015261563a8282615525565b91505060c083015184820360c08601526156548282615525565b91505060e083015184820360e086015261566e8282615525565b91505061010083015184820361010086015261568a8282615525565b91505061012083015184820361012086015261559a8282615525565b5f602082016020835280845180835260408501915060408160051b8601019250602086015f5b8281101561574b57603f1987860301845281518051608087526156f26080880182615553565b90506020820151878203602089015261570b8282615525565b91505060ff604083015116604088015260608201519150868103606088015261573481836155a3565b9650505060209384019391909101906001016156cc565b50929695505050505050565b803560ff81168114615767575f80fd5b919050565b5f610140828403121561577d575f80fd5b615785615420565b905081356001600160401b0381111561579c575f80fd5b6157a88482850161546b565b82525060208201356001600160401b038111156157c3575f80fd5b6157cf8482850161546b565b60208301525060408201356001600160401b038111156157ed575f80fd5b6157f98482850161546b565b60408301525060608201356001600160401b03811115615817575f80fd5b6158238482850161546b565b60608301525060808201356001600160401b03811115615841575f80fd5b61584d8482850161546b565b60808301525060a08201356001600160401b0381111561586b575f80fd5b6158778482850161546b565b60a08301525060c08201356001600160401b03811115615895575f80fd5b6158a18482850161546b565b60c08301525060e08201356001600160401b038111156158bf575f80fd5b6158cb8482850161546b565b60e0830152506101008201356001600160401b038111156158ea575f80fd5b6158f68482850161546b565b610100830152506101208201356001600160401b03811115615916575f80fd5b6159228482850161546b565b6101208301525092915050565b5f805f8060808587031215615942575f80fd5b84356001600160401b03811115615957575f80fd5b850160808188031215615968575f80fd5b615970615449565b81356001600160401b03811115615985575f80fd5b6159918982850161546b565b8252506159a060208301615757565b60208201526159b160408301615757565b604082015260608201356001600160401b038111156159ce575f80fd5b6159da8982850161546b565b60608301525094505060208501356001600160401b038111156159fb575f80fd5b615a078782880161546b565b935050615a1660408601615757565b915060608501356001600160401b03811115615a30575f80fd5b615a3c8782880161576c565b91505092959194509250565b5f602082016020835280845180835260408501915060408160051b8601019250602086015f5b8281101561574b57603f19878603018452815180516101008752615a96610100880182615553565b905060208201518782036020890152615aaf8282615553565b91505060408201518782036040890152615ac98282615525565b9150506060820151615ae0606089018260ff169052565b506080820151615af5608089018260ff169052565b5060a0820151615b0a60a089018260ff169052565b5060c082015187820360c0890152615b2282826155a3565b91505060e0820151915086810360e0880152615b3e81836155a3565b965050506020938401939190910190600101615a6e565b600181811c90821680615b6957607f821691505b6020821081036108e657634e487b7160e01b5f52602260045260245ffd5b634e487b7160e01b5f52603260045260245ffd5b5f808354615ba881615b55565b600182168015615bbf5760018114615bd457615c01565b60ff1983168652811515820286019350615c01565b865f5260205f205f5b83811015615bf957815488820152600190910190602001615bdd565b505081860193505b509195945050505050565b634e487b7160e01b5f52601160045260245ffd5b60ff8181168382160290811690818114615c3c57615c3c615c0c565b5092915050565b5f8154615c4f81615b55565b808552600182168015615c695760018114615c8557615393565b60ff1983166020870152602082151560051b8701019350615393565b845f5260205f205f5b83811015615cb05781546020828a010152600182019150602081019050615c8e565b870160200194505050505092915050565b608081526080808201525f615cda610100830187615c43565b600187015460ff811660a085015260ff8160081c1660c085015250607f198382030160e0840152615d0e8160028901615c43565b90508281036020840152615d228187615c43565b91505060ff8416604083015261559a606083018460ff169052565b5f82810b9082900b03607f198112607f8213171561402057614020615c0c565b5f825f0b825f0b02805f0b9150808214615c3c57615c3c615c0c565b5f60ff821660ff8103615d8e57615d8e615c0c565b60010192915050565b5f82518060208501845e5f920191825250919050565b60ff818116838216019081111561402057614020615c0c565b601f821115615e0a57805f5260205f20601f840160051c81016020851015615deb5750805b601f840160051c820191505b81811015612196575f8155600101615df7565b505050565b5f19600383901b1c191660019190911b1790565b81516001600160401b03811115615e3c57615e3c61540c565b615e5081615e4a8454615b55565b84615dc6565b6020601f821160018114615e7d575f8315615e6b5750848201515b615e758482615e0f565b855550612196565b5f84815260208120601f198516915b82811015615eac5787850151825560209485019460019092019101615e8c565b5084821015615ec957868401515f19600387901b60f8161c191681555b50505050600190811b01905550565b8181038181111561402057614020615c0c565b818103615ef6575050565b615f008254615b55565b6001600160401b03811115615f1757615f1761540c565b615f2581615e4a8454615b55565b5f601f821160018114615f48575f8315615e6b575084820154615e758482615e0f565b5f8581526020808220868352908220601f198616925b83811015615f7e5782860154825560019586019590910190602001615f5e565b5085831015615f9b57818501545f19600388901b60f8161c191681555b5050505050600190811b01905550565b634e487b7160e01b5f52603160045260245ffd5b60ff828116828216039081111561402057614020615c0c56fe9f3ad7e297074403ebbe6920fcfc9ead722b9cf562608507477325d0687d87bea2646970667358221220d676550291e8966ac8b3a186332b142b8ab31119882ee62f77c6c5596e59cb5964736f6c634300081a0033",
			"opcodes": "PUSH1 0x1 PUSH2 0x1C0 DUP2 DUP2 MSTORE PUSH2 0x1E0 DUP3 SWAP1 MSTORE PUSH0 PUSH2 0x200 DUP2 SWAP1 MSTORE PUSH2 0x220 DUP2 SWAP1 MSTORE PUSH2 0x240 DUP2 SWAP1 MSTORE PUSH2 0x260 DUP2 SWAP1 MSTORE PUSH2 0x280 DUP4 SWAP1 MSTORE PUSH2 0x2A0 DUP4 SWAP1 MSTORE PUSH2 0x2C0 DUP2 SWAP1 MSTORE PUSH2 0x2E0 DUP2 SWAP1 MSTORE PUSH1 0x80 SWAP2 DUP3 MSTORE PUSH2 0x300 DUP2 DUP2 MSTORE PUSH2 0x320 DUP5 SWAP1 MSTORE PUSH2 0x340 DUP3 SWAP1 MSTORE PUSH2 0x360 DUP3 SWAP1 MSTORE PUSH2 0x380 DUP3 SWAP1 MSTORE PUSH2 0x3A0 DUP3 SWAP1 MSTORE PUSH2 0x3C0 DUP3 SWAP1 MSTORE PUSH2 0x3E0 DUP5 SWAP1 MSTORE PUSH2 0x400 DUP3 SWAP1 MSTORE PUSH2 0x420 DUP3 SWAP1 MSTORE PUSH1 0xA0 MSTORE PUSH2 0x440 DUP2 DUP2 MSTORE PUSH2 0x460 DUP3 SWAP1 MSTORE PUSH2 0x480 DUP5 SWAP1 MSTORE PUSH2 0x4A0 DUP5 SWAP1 MSTORE PUSH2 0x4C0 DUP3 SWAP1 MSTORE PUSH2 0x4E0 DUP3 SWAP1 MSTORE PUSH2 0x500 DUP5 SWAP1 MSTORE PUSH2 0x520 DUP5 SWAP1 MSTORE PUSH2 0x540 DUP3 SWAP1 MSTORE PUSH2 0x560 DUP3 SWAP1 MSTORE PUSH1 0xC0 MSTORE PUSH2 0x580 DUP2 DUP2 MSTORE PUSH2 0x5A0 DUP3 SWAP1 MSTORE PUSH2 0x5C0 DUP3 SWAP1 MSTORE PUSH2 0x5E0 DUP5 SWAP1 MSTORE PUSH2 0x600 DUP3 SWAP1 MSTORE PUSH2 0x620 DUP3 SWAP1 MSTORE PUSH2 0x640 DUP3 SWAP1 MSTORE PUSH2 0x660 DUP5 SWAP1 MSTORE PUSH2 0x680 DUP3 SWAP1 MSTORE PUSH2 0x6A0 DUP3 SWAP1 MSTORE PUSH1 0xE0 MSTORE PUSH2 0x6C0 DUP4 DUP2 MSTORE PUSH2 0x6E0 DUP5 SWAP1 MSTORE PUSH2 0x700 DUP5 SWAP1 MSTORE PUSH2 0x720 DUP5 SWAP1 MSTORE PUSH2 0x740 DUP5 SWAP1 MSTORE PUSH2 0x760 DUP5 SWAP1 MSTORE PUSH2 0x780 DUP5 SWAP1 MSTORE PUSH2 0x7A0 DUP5 SWAP1 MSTORE PUSH2 0x7C0 DUP3 SWAP1 MSTORE PUSH2 0x7E0 DUP3 SWAP1 MSTORE PUSH2 0x100 MSTORE PUSH2 0x800 DUP2 DUP2 MSTORE PUSH2 0x820 DUP5 SWAP1 MSTORE PUSH2 0x840 DUP3 SWAP1 MSTORE PUSH2 0x860 DUP5 SWAP1 MSTORE PUSH2 0x880 DUP3 SWAP1 MSTORE PUSH2 0x8A0 DUP5 SWAP1 MSTORE PUSH2 0x8C0 DUP3 SWAP1 MSTORE PUSH2 0x8E0 DUP5 SWAP1 MSTORE PUSH2 0x900 DUP3 SWAP1 MSTORE PUSH2 0x920 DUP3 SWAP1 MSTORE PUSH2 0x120 MSTORE PUSH2 0x940 DUP2 DUP2 MSTORE PUSH2 0x960 DUP3 SWAP1 MSTORE PUSH2 0x980 DUP3 SWAP1 MSTORE PUSH2 0x9A0 DUP3 SWAP1 MSTORE PUSH2 0x9C0 DUP3 SWAP1 MSTORE PUSH2 0x9E0 DUP3 SWAP1 MSTORE PUSH2 0xA00 DUP5 SWAP1 MSTORE PUSH2 0xA20 DUP5 SWAP1 MSTORE PUSH2 0xA40 DUP3 SWAP1 MSTORE PUSH2 0xA60 DUP3 SWAP1 MSTORE PUSH2 0x140 MSTORE PUSH2 0xA80 DUP2 DUP2 MSTORE PUSH2 0xAA0 DUP3 SWAP1 MSTORE PUSH2 0xAC0 DUP3 SWAP1 MSTORE PUSH2 0xAE0 DUP3 SWAP1 MSTORE PUSH2 0xB00 DUP3 SWAP1 MSTORE PUSH2 0xB20 DUP3 SWAP1 MSTORE PUSH2 0xB40 DUP3 SWAP1 MSTORE PUSH2 0xB60 DUP5 SWAP1 MSTORE PUSH2 0xB80 DUP3 SWAP1 MSTORE PUSH2 0xBA0 DUP3 SWAP1 MSTORE PUSH2 0x160 MSTORE PUSH2 0xBC0 DUP2 DUP2 MSTORE PUSH2 0xBE0 DUP3 SWAP1 MSTORE PUSH2 0xC00 DUP3 SWAP1 MSTORE PUSH2 0xC20 DUP3 SWAP1 MSTORE PUSH2 0xC40 DUP3 SWAP1 MSTORE PUSH2 0xC60 DUP3 SWAP1 MSTORE PUSH2 0xC80 DUP3 SWAP1 MSTORE PUSH2 0xCA0 DUP3 SWAP1 MSTORE PUSH2 0xCC0 DUP5 SWAP1 MSTORE PUSH2 0xCE0 DUP3 SWAP1 MSTORE PUSH2 0x180 MSTORE PUSH2 0xE40 PUSH1 0x40 MSTORE PUSH2 0xD00 DUP2 DUP2 MSTORE PUSH2 0xD20 DUP3 SWAP1 MSTORE PUSH2 0xD40 DUP3 SWAP1 MSTORE PUSH2 0xD60 DUP3 SWAP1 MSTORE PUSH2 0xD80 DUP3 SWAP1 MSTORE PUSH2 0xDA0 DUP3 SWAP1 MSTORE PUSH2 0xDC0 DUP3 SWAP1 MSTORE PUSH2 0xDE0 DUP3 SWAP1 MSTORE PUSH2 0xE00 SWAP2 SWAP1 SWAP2 MSTORE PUSH2 0xE20 SWAP3 SWAP1 SWAP3 MSTORE PUSH2 0x1A0 SWAP2 SWAP1 SWAP2 MSTORE PUSH2 0x299 SWAP1 PUSH1 0x8 SWAP1 PUSH1 0xA PUSH2 0x964 JUMP JUMPDEST POP CALLVALUE DUP1 ISZERO PUSH2 0x2A5 JUMPI PUSH0 DUP1 REVERT JUMPDEST POP PUSH1 0x40 MLOAD PUSH2 0x6E8D CODESIZE SUB DUP1 PUSH2 0x6E8D DUP4 CODECOPY DUP2 ADD PUSH1 0x40 DUP2 SWAP1 MSTORE PUSH2 0x2C4 SWAP2 PUSH2 0xC6F JUMP JUMPDEST DUP3 PUSH1 0x40 MLOAD PUSH1 0x20 ADD PUSH2 0x2D5 SWAP2 SWAP1 PUSH2 0xCFE JUMP JUMPDEST PUSH1 0x40 DUP1 MLOAD PUSH1 0x1F NOT DUP2 DUP5 SUB ADD DUP2 MSTORE SWAP1 DUP3 SWAP1 MSTORE DUP1 MLOAD PUSH1 0x20 SWAP2 DUP3 ADD KECCAK256 PUSH0 SSTORE PUSH2 0x2FC SWAP2 DUP5 SWAP2 ADD PUSH2 0xCFE JUMP JUMPDEST PUSH1 0x40 DUP1 MLOAD PUSH1 0x1F NOT DUP2 DUP5 SUB ADD DUP2 MSTORE SWAP1 DUP3 SWAP1 MSTORE DUP1 MLOAD PUSH1 0x20 SWAP2 DUP3 ADD KECCAK256 PUSH1 0x1 SSTORE PUSH2 0x324 SWAP2 DUP4 SWAP2 ADD PUSH2 0xCFE JUMP JUMPDEST PUSH1 0x40 DUP1 MLOAD PUSH1 0x1F NOT DUP2 DUP5 SUB ADD DUP2 MSTORE DUP3 DUP3 MSTORE DUP1 MLOAD PUSH1 0x20 SWAP2 DUP3 ADD KECCAK256 PUSH1 0x2 SWAP1 DUP2 SSTORE PUSH1 0x80 DUP5 ADD DUP4 MSTORE PUSH1 0xF DUP5 DUP5 ADD SWAP1 DUP2 MSTORE PUSH15 0x189B1BDBD9081CDD195B4818D95B1B PUSH1 0x8A SHL PUSH1 0x60 DUP7 ADD MSTORE DUP5 MSTORE DUP3 MLOAD DUP1 DUP5 ADD SWAP1 SWAP4 MSTORE PUSH1 0xB DUP4 MSTORE PUSH11 0x626F6E65206D6172726F77 PUSH1 0xA8 SHL DUP4 DUP4 ADD MSTORE DUP4 DUP3 ADD SWAP3 SWAP1 SWAP3 MSTORE PUSH1 0x9 PUSH0 MSTORE PUSH1 0x3 SWAP1 MSTORE PUSH2 0x3C2 SWAP2 PUSH32 0x8A8DC4E5242EA8B1AB1D60606DAE757E6C2CCA9F92A2CCED9F72C19960BCB458 SWAP2 PUSH2 0x9AE JUMP JUMPDEST POP PUSH1 0x40 DUP1 MLOAD PUSH2 0x140 DUP2 ADD DUP3 MSTORE PUSH1 0x3 PUSH2 0x100 DUP3 ADD DUP2 DUP2 MSTORE PUSH3 0x61726D PUSH1 0xE8 SHL PUSH2 0x120 DUP5 ADD MSTORE DUP3 MSTORE DUP3 MLOAD DUP1 DUP5 ADD DUP5 MSTORE DUP2 DUP2 MSTORE PUSH3 0x657965 PUSH1 0xE8 SHL PUSH1 0x20 DUP3 DUP2 ADD SWAP2 SWAP1 SWAP2 MSTORE DUP1 DUP5 ADD SWAP2 SWAP1 SWAP2 MSTORE DUP4 MLOAD DUP1 DUP6 ADD DUP6 MSTORE PUSH1 0x4 DUP1 DUP3 MSTORE PUSH4 0x66616365 PUSH1 0xE0 SHL DUP3 DUP5 ADD MSTORE DUP5 DUP7 ADD SWAP2 SWAP1 SWAP2 MSTORE DUP5 MLOAD DUP1 DUP7 ADD DUP7 MSTORE SWAP1 DUP2 MSTORE PUSH4 0x1A185B99 PUSH1 0xE2 SHL DUP2 DUP4 ADD MSTORE PUSH1 0x60 DUP5 ADD MSTORE DUP4 MLOAD DUP1 DUP6 ADD DUP6 MSTORE DUP3 DUP2 MSTORE PUSH3 0x6C6567 PUSH1 0xE8 SHL DUP2 DUP4 ADD MSTORE PUSH1 0x80 DUP5 ADD MSTORE DUP4 MLOAD DUP1 DUP6 ADD DUP6 MSTORE PUSH1 0x5 DUP1 DUP3 MSTORE PUSH5 0x70656E6973 PUSH1 0xD8 SHL DUP3 DUP5 ADD MSTORE PUSH1 0xA0 DUP6 ADD SWAP2 SWAP1 SWAP2 MSTORE DUP5 MLOAD DUP1 DUP7 ADD DUP7 MSTORE SWAP1 DUP2 MSTORE PUSH5 0x7363616C7 PUSH1 0xDC SHL DUP2 DUP4 ADD MSTORE PUSH1 0xC0 DUP5 ADD MSTORE DUP4 MLOAD DUP1 DUP6 ADD SWAP1 SWAP5 MSTORE PUSH1 0x6 DUP5 MSTORE PUSH6 0x7468796D7573 PUSH1 0xD0 SHL DUP5 DUP3 ADD MSTORE PUSH1 0xE0 DUP4 ADD SWAP4 SWAP1 SWAP4 MSTORE PUSH1 0x7 PUSH0 MSTORE SWAP1 SWAP2 MSTORE PUSH2 0x4EF SWAP1 PUSH32 0xF2C49132ED1CEE2A7E75BDE50D332A2F81F1D01E5456D8A19D1DF09BD561DBD2 SWAP1 PUSH1 0x8 PUSH2 0x9FE JUMP JUMPDEST POP PUSH1 0x40 DUP1 MLOAD PUSH2 0x260 DUP2 ADD DUP3 MSTORE PUSH1 0xE PUSH2 0x220 DUP3 ADD SWAP1 DUP2 MSTORE PUSH14 0x1858991BDB5A5B985B081DD85B1B PUSH1 0x92 SHL PUSH2 0x240 DUP4 ADD MSTORE DUP2 MSTORE DUP2 MLOAD DUP1 DUP4 ADD DUP4 MSTORE PUSH1 0xD DUP2 MSTORE PUSH13 0x18591C995B985B0819DB185B99 PUSH1 0x9A SHL PUSH1 0x20 DUP3 DUP2 ADD SWAP2 SWAP1 SWAP2 MSTORE DUP1 DUP4 ADD SWAP2 SWAP1 SWAP2 MSTORE DUP3 MLOAD DUP1 DUP5 ADD DUP5 MSTORE PUSH1 0x4 DUP1 DUP3 MSTORE PUSH4 0x626F6E65 PUSH1 0xE0 SHL DUP3 DUP5 ADD MSTORE DUP4 DUP6 ADD SWAP2 SWAP1 SWAP2 MSTORE DUP4 MLOAD DUP1 DUP6 ADD DUP6 MSTORE PUSH1 0x9 DUP2 MSTORE PUSH9 0x65736F706861677573 PUSH1 0xB8 SHL DUP2 DUP5 ADD MSTORE PUSH1 0x60 DUP5 ADD MSTORE DUP4 MLOAD DUP1 DUP6 ADD DUP6 MSTORE PUSH1 0x6 DUP1 DUP3 MSTORE PUSH6 0xD8C2E4F2DCF PUSH1 0xD3 SHL DUP3 DUP6 ADD MSTORE PUSH1 0x80 DUP6 ADD SWAP2 SWAP1 SWAP2 MSTORE DUP5 MLOAD DUP1 DUP7 ADD DUP7 MSTORE PUSH1 0xA DUP2 MSTORE PUSH10 0x6C796D7068206E6F6465 PUSH1 0xB0 SHL DUP2 DUP6 ADD MSTORE PUSH1 0xA0 DUP6 ADD MSTORE DUP5 MLOAD DUP1 DUP7 ADD DUP7 MSTORE PUSH1 0x8 DUP1 DUP3 MSTORE PUSH8 0x1B985A5B08189959 PUSH1 0xC2 SHL DUP3 DUP7 ADD MSTORE PUSH1 0xC0 DUP7 ADD SWAP2 SWAP1 SWAP2 MSTORE DUP6 MLOAD DUP1 DUP8 ADD DUP8 MSTORE PUSH1 0x5 DUP1 DUP3 MSTORE PUSH5 0x6E65727665 PUSH1 0xD8 SHL DUP3 DUP8 ADD MSTORE PUSH1 0xE0 DUP8 ADD SWAP2 SWAP1 SWAP2 MSTORE DUP7 MLOAD DUP1 DUP9 ADD DUP9 MSTORE DUP2 DUP2 MSTORE PUSH5 0x6F76617279 PUSH1 0xD8 SHL DUP2 DUP8 ADD MSTORE PUSH2 0x100 DUP8 ADD MSTORE DUP7 MLOAD DUP1 DUP9 ADD DUP9 MSTORE DUP3 DUP2 MSTORE PUSH8 0x70616E6372656173 PUSH1 0xC0 SHL DUP2 DUP8 ADD MSTORE PUSH2 0x120 DUP8 ADD MSTORE DUP7 MLOAD DUP1 DUP9 ADD DUP9 MSTORE SWAP4 DUP5 MSTORE PUSH4 0x39B5B4B7 PUSH1 0xE1 SHL DUP5 DUP7 ADD MSTORE PUSH2 0x140 DUP7 ADD SWAP4 SWAP1 SWAP4 MSTORE DUP6 MLOAD DUP1 DUP8 ADD DUP8 MSTORE PUSH1 0xF DUP2 MSTORE PUSH15 0x736D616C6C20696E74657374696E65 PUSH1 0x88 SHL DUP2 DUP7 ADD MSTORE PUSH2 0x160 DUP7 ADD MSTORE DUP6 MLOAD DUP1 DUP8 ADD DUP8 MSTORE DUP3 DUP2 MSTORE PUSH6 0x39B83632B2B7 PUSH1 0xD1 SHL DUP2 DUP7 ADD MSTORE PUSH2 0x180 DUP7 ADD MSTORE DUP6 MLOAD DUP1 DUP8 ADD DUP8 MSTORE PUSH1 0x7 DUP1 DUP3 MSTORE PUSH7 0xE6E8DEDAC2C6D PUSH1 0xCB SHL DUP3 DUP8 ADD MSTORE PUSH2 0x1A0 DUP8 ADD SWAP2 SWAP1 SWAP2 MSTORE DUP7 MLOAD DUP1 DUP9 ADD DUP9 MSTORE SWAP2 DUP3 MSTORE PUSH8 0x7465737469636C65 PUSH1 0xC0 SHL DUP3 DUP7 ADD MSTORE PUSH2 0x1C0 DUP7 ADD SWAP2 SWAP1 SWAP2 MSTORE DUP6 MLOAD DUP1 DUP8 ADD DUP8 MSTORE SWAP1 DUP2 MSTORE PUSH7 0x74726163686561 PUSH1 0xC8 SHL DUP2 DUP6 ADD MSTORE PUSH2 0x1E0 DUP6 ADD MSTORE DUP5 MLOAD DUP1 DUP7 ADD SWAP1 SWAP6 MSTORE DUP5 MSTORE PUSH6 0x757465727573 PUSH1 0xD0 SHL DUP5 DUP4 ADD MSTORE PUSH2 0x200 DUP4 ADD SWAP4 SWAP1 SWAP4 MSTORE PUSH0 SWAP3 SWAP1 SWAP3 MSTORE PUSH1 0x3 SWAP1 SWAP2 MSTORE PUSH2 0x774 SWAP1 PUSH32 0x405AAD32E1ADBAC89BB7F176E338B8FC6E994CA210C9BB7BDCA249B465942250 SWAP1 PUSH1 0x11 PUSH2 0xA42 JUMP JUMPDEST POP PUSH1 0x40 DUP1 MLOAD PUSH2 0x140 DUP2 ADD DUP3 MSTORE PUSH1 0xC PUSH2 0x100 DUP3 ADD SWAP1 DUP2 MSTORE PUSH12 0x189B1BDBD9081D995CDCD95B PUSH1 0xA2 SHL PUSH2 0x120 DUP4 ADD MSTORE DUP2 MSTORE DUP2 MLOAD DUP1 DUP4 ADD DUP4 MSTORE PUSH1 0x9 DUP2 MSTORE PUSH9 0x63617274696C616765 PUSH1 0xB8 SHL PUSH1 0x20 DUP3 DUP2 ADD SWAP2 SWAP1 SWAP2 MSTORE DUP1 DUP4 ADD SWAP2 SWAP1 SWAP2 MSTORE DUP3 MLOAD DUP1 DUP5 ADD DUP5 MSTORE PUSH1 0x3 DUP1 DUP3 MSTORE PUSH3 0x19985D PUSH1 0xEA SHL DUP3 DUP5 ADD MSTORE DUP4 DUP6 ADD SWAP2 SWAP1 SWAP2 MSTORE DUP4 MLOAD DUP1 DUP6 ADD DUP6 MSTORE PUSH1 0x5 DUP2 MSTORE PUSH5 0x1A19585C9D PUSH1 0xDA SHL DUP2 DUP5 ADD MSTORE PUSH1 0x60 DUP5 ADD MSTORE DUP4 MLOAD DUP1 DUP6 ADD DUP6 MSTORE PUSH1 0x8 DUP1 DUP3 MSTORE PUSH8 0x1B1A59D85B595B9D PUSH1 0xC2 SHL DUP3 DUP6 ADD MSTORE PUSH1 0x80 DUP6 ADD SWAP2 SWAP1 SWAP2 MSTORE DUP5 MLOAD DUP1 DUP7 ADD DUP7 MSTORE PUSH1 0x4 DUP2 MSTORE PUSH4 0x6C756E67 PUSH1 0xE0 SHL DUP2 DUP6 ADD MSTORE PUSH1 0xA0 DUP6 ADD MSTORE DUP5 MLOAD DUP1 DUP7 ADD DUP7 MSTORE DUP2 DUP2 MSTORE PUSH8 0x6D656E6973637573 PUSH1 0xC0 SHL DUP2 DUP6 ADD MSTORE PUSH1 0xC0 DUP6 ADD MSTORE DUP5 MLOAD DUP1 DUP7 ADD SWAP1 SWAP6 MSTORE PUSH1 0x6 DUP6 MSTORE PUSH6 0x3A32B73237B7 PUSH1 0xD1 SHL DUP6 DUP5 ADD MSTORE PUSH1 0xE0 DUP5 ADD SWAP5 SWAP1 SWAP5 MSTORE PUSH1 0x2 PUSH0 MSTORE SWAP1 MSTORE PUSH2 0x8B8 SWAP2 PUSH32 0xC3A24B0501BD2C13A7E57F2DB4369EC4C223447539FC0724A9D55AC4A06EBD4D SWAP2 SWAP1 PUSH2 0x9FE JUMP JUMPDEST POP PUSH1 0x40 DUP1 MLOAD PUSH1 0xA0 DUP2 ADD DUP3 MSTORE PUSH1 0x6 PUSH1 0x60 DUP3 ADD SWAP1 DUP2 MSTORE PUSH6 0x636F726E6561 PUSH1 0xD0 SHL PUSH1 0x80 DUP4 ADD MSTORE DUP2 MSTORE DUP2 MLOAD DUP1 DUP4 ADD DUP4 MSTORE PUSH1 0xB DUP2 MSTORE PUSH11 0x68656172742076616C7665 PUSH1 0xA8 SHL PUSH1 0x20 DUP3 DUP2 ADD SWAP2 SWAP1 SWAP2 MSTORE DUP1 DUP4 ADD SWAP2 SWAP1 SWAP2 MSTORE DUP3 MLOAD DUP1 DUP5 ADD DUP5 MSTORE PUSH1 0x5 DUP2 MSTORE PUSH5 0x3634BB32B9 PUSH1 0xD9 SHL DUP2 DUP4 ADD MSTORE SWAP3 DUP3 ADD SWAP3 SWAP1 SWAP3 MSTORE PUSH0 DUP1 MSTORE PUSH1 0x3 SWAP2 DUP3 SWAP1 MSTORE PUSH2 0x95B SWAP2 PUSH32 0x3617319A054D772F909F7C479A2CEBE5066E836A939412E32403C99029B92EFF SWAP2 SWAP1 PUSH2 0xA86 JUMP JUMPDEST POP POP POP POP PUSH2 0xE52 JUMP JUMPDEST DUP3 PUSH1 0xA DUP2 ADD SWAP3 DUP3 ISZERO PUSH2 0x99E JUMPI SWAP2 PUSH1 0x20 MUL DUP3 ADD JUMPDEST DUP3 DUP2 GT ISZERO PUSH2 0x99E JUMPI DUP3 MLOAD PUSH2 0x98E SWAP1 DUP4 SWAP1 PUSH1 0xA PUSH2 0xACA JUMP JUMPDEST POP SWAP2 PUSH1 0x20 ADD SWAP2 SWAP1 PUSH1 0x1 ADD SWAP1 PUSH2 0x977 JUMP JUMPDEST POP PUSH2 0x9AA SWAP3 SWAP2 POP PUSH2 0xB56 JUMP JUMPDEST POP SWAP1 JUMP JUMPDEST DUP3 DUP1 SLOAD DUP3 DUP3 SSTORE SWAP1 PUSH0 MSTORE PUSH1 0x20 PUSH0 KECCAK256 SWAP1 DUP2 ADD SWAP3 DUP3 ISZERO PUSH2 0x9F2 JUMPI SWAP2 PUSH1 0x20 MUL DUP3 ADD JUMPDEST DUP3 DUP2 GT ISZERO PUSH2 0x9F2 JUMPI DUP3 MLOAD DUP3 SWAP1 PUSH2 0x9E2 SWAP1 DUP3 PUSH2 0xD98 JUMP JUMPDEST POP SWAP2 PUSH1 0x20 ADD SWAP2 SWAP1 PUSH1 0x1 ADD SWAP1 PUSH2 0x9CC JUMP JUMPDEST POP PUSH2 0x9AA SWAP3 SWAP2 POP PUSH2 0xB69 JUMP JUMPDEST DUP3 DUP1 SLOAD DUP3 DUP3 SSTORE SWAP1 PUSH0 MSTORE PUSH1 0x20 PUSH0 KECCAK256 SWAP1 DUP2 ADD SWAP3 DUP3 ISZERO PUSH2 0x9F2 JUMPI SWAP2 PUSH1 0x20 MUL DUP3 ADD JUMPDEST DUP3 DUP2 GT ISZERO PUSH2 0x9F2 JUMPI DUP3 MLOAD DUP3 SWAP1 PUSH2 0xA32 SWAP1 DUP3 PUSH2 0xD98 JUMP JUMPDEST POP SWAP2 PUSH1 0x20 ADD SWAP2 SWAP1 PUSH1 0x1 ADD SWAP1 PUSH2 0xA1C JUMP JUMPDEST DUP3 DUP1 SLOAD DUP3 DUP3 SSTORE SWAP1 PUSH0 MSTORE PUSH1 0x20 PUSH0 KECCAK256 SWAP1 DUP2 ADD SWAP3 DUP3 ISZERO PUSH2 0x9F2 JUMPI SWAP2 PUSH1 0x20 MUL DUP3 ADD JUMPDEST DUP3 DUP2 GT ISZERO PUSH2 0x9F2 JUMPI DUP3 MLOAD DUP3 SWAP1 PUSH2 0xA76 SWAP1 DUP3 PUSH2 0xD98 JUMP JUMPDEST POP SWAP2 PUSH1 0x20 ADD SWAP2 SWAP1 PUSH1 0x1 ADD SWAP1 PUSH2 0xA60 JUMP JUMPDEST DUP3 DUP1 SLOAD DUP3 DUP3 SSTORE SWAP1 PUSH0 MSTORE PUSH1 0x20 PUSH0 KECCAK256 SWAP1 DUP2 ADD SWAP3 DUP3 ISZERO PUSH2 0x9F2 JUMPI SWAP2 PUSH1 0x20 MUL DUP3 ADD JUMPDEST DUP3 DUP2 GT ISZERO PUSH2 0x9F2 JUMPI DUP3 MLOAD DUP3 SWAP1 PUSH2 0xABA SWAP1 DUP3 PUSH2 0xD98 JUMP JUMPDEST POP SWAP2 PUSH1 0x20 ADD SWAP2 SWAP1 PUSH1 0x1 ADD SWAP1 PUSH2 0xAA4 JUMP JUMPDEST PUSH1 0x1 DUP4 ADD SWAP2 DUP4 SWAP1 DUP3 ISZERO PUSH2 0xB4A JUMPI SWAP2 PUSH1 0x20 MUL DUP3 ADD PUSH0 JUMPDEST DUP4 DUP3 GT ISZERO PUSH2 0xB1C JUMPI DUP4 MLOAD DUP4 DUP3 PUSH2 0x100 EXP DUP2 SLOAD DUP2 PUSH1 0xFF MUL NOT AND SWAP1 DUP4 PUSH1 0xFF AND MUL OR SWAP1 SSTORE POP SWAP3 PUSH1 0x20 ADD SWAP3 PUSH1 0x1 ADD PUSH1 0x20 DUP2 PUSH0 ADD DIV SWAP3 DUP4 ADD SWAP3 PUSH1 0x1 SUB MUL PUSH2 0xADF JUMP JUMPDEST DUP1 ISZERO PUSH2 0xB48 JUMPI DUP3 DUP2 PUSH2 0x100 EXP DUP2 SLOAD SWAP1 PUSH1 0xFF MUL NOT AND SWAP1 SSTORE PUSH1 0x1 ADD PUSH1 0x20 DUP2 PUSH0 ADD DIV SWAP3 DUP4 ADD SWAP3 PUSH1 0x1 SUB MUL PUSH2 0xB1C JUMP JUMPDEST POP JUMPDEST POP PUSH2 0x9AA SWAP3 SWAP2 POP PUSH2 0xB85 JUMP JUMPDEST DUP1 DUP3 GT ISZERO PUSH2 0x9AA JUMPI PUSH0 DUP2 SSTORE PUSH1 0x1 ADD PUSH2 0xB56 JUMP JUMPDEST DUP1 DUP3 GT ISZERO PUSH2 0x9AA JUMPI PUSH0 PUSH2 0xB7C DUP3 DUP3 PUSH2 0xB98 JUMP JUMPDEST POP PUSH1 0x1 ADD PUSH2 0xB69 JUMP JUMPDEST DUP1 DUP3 GT ISZERO PUSH2 0x9AA JUMPI PUSH0 DUP2 SSTORE PUSH1 0x1 ADD PUSH2 0xB56 JUMP JUMPDEST POP DUP1 SLOAD PUSH2 0xBA4 SWAP1 PUSH2 0xD14 JUMP JUMPDEST PUSH0 DUP3 SSTORE DUP1 PUSH1 0x1F LT PUSH2 0xBB3 JUMPI POP POP JUMP JUMPDEST PUSH1 0x1F ADD PUSH1 0x20 SWAP1 DIV SWAP1 PUSH0 MSTORE PUSH1 0x20 PUSH0 KECCAK256 SWAP1 DUP2 ADD SWAP1 PUSH2 0xBCF SWAP2 SWAP1 PUSH2 0xB85 JUMP JUMPDEST POP JUMP JUMPDEST PUSH4 0x4E487B71 PUSH1 0xE0 SHL PUSH0 MSTORE PUSH1 0x41 PUSH1 0x4 MSTORE PUSH1 0x24 PUSH0 REVERT JUMPDEST PUSH0 DUP3 PUSH1 0x1F DUP4 ADD SLT PUSH2 0xBF5 JUMPI PUSH0 DUP1 REVERT JUMPDEST DUP2 MLOAD PUSH1 0x1 PUSH1 0x1 PUSH1 0x40 SHL SUB DUP2 GT ISZERO PUSH2 0xC0E JUMPI PUSH2 0xC0E PUSH2 0xBD2 JUMP JUMPDEST PUSH1 0x40 MLOAD PUSH1 0x1F DUP3 ADD PUSH1 0x1F NOT SWAP1 DUP2 AND PUSH1 0x3F ADD AND DUP2 ADD PUSH1 0x1 PUSH1 0x1 PUSH1 0x40 SHL SUB DUP2 GT DUP3 DUP3 LT OR ISZERO PUSH2 0xC3C JUMPI PUSH2 0xC3C PUSH2 0xBD2 JUMP JUMPDEST PUSH1 0x40 MSTORE DUP2 DUP2 MSTORE DUP4 DUP3 ADD PUSH1 0x20 ADD DUP6 LT ISZERO PUSH2 0xC53 JUMPI PUSH0 DUP1 REVERT JUMPDEST DUP2 PUSH1 0x20 DUP6 ADD PUSH1 0x20 DUP4 ADD MCOPY PUSH0 SWAP2 DUP2 ADD PUSH1 0x20 ADD SWAP2 SWAP1 SWAP2 MSTORE SWAP4 SWAP3 POP POP POP JUMP JUMPDEST PUSH0 DUP1 PUSH0 PUSH1 0x60 DUP5 DUP7 SUB SLT ISZERO PUSH2 0xC81 JUMPI PUSH0 DUP1 REVERT JUMPDEST DUP4 MLOAD PUSH1 0x1 PUSH1 0x1 PUSH1 0x40 SHL SUB DUP2 GT ISZERO PUSH2 0xC96 JUMPI PUSH0 DUP1 REVERT JUMPDEST PUSH2 0xCA2 DUP7 DUP3 DUP8 ADD PUSH2 0xBE6 JUMP JUMPDEST PUSH1 0x20 DUP7 ADD MLOAD SWAP1 SWAP5 POP SWAP1 POP PUSH1 0x1 PUSH1 0x1 PUSH1 0x40 SHL SUB DUP2 GT ISZERO PUSH2 0xCBF JUMPI PUSH0 DUP1 REVERT JUMPDEST PUSH2 0xCCB DUP7 DUP3 DUP8 ADD PUSH2 0xBE6 JUMP JUMPDEST PUSH1 0x40 DUP7 ADD MLOAD SWAP1 SWAP4 POP SWAP1 POP PUSH1 0x1 PUSH1 0x1 PUSH1 0x40 SHL SUB DUP2 GT ISZERO PUSH2 0xCE8 JUMPI PUSH0 DUP1 REVERT JUMPDEST PUSH2 0xCF4 DUP7 DUP3 DUP8 ADD PUSH2 0xBE6 JUMP JUMPDEST SWAP2 POP POP SWAP3 POP SWAP3 POP SWAP3 JUMP JUMPDEST PUSH0 DUP3 MLOAD DUP1 PUSH1 0x20 DUP6 ADD DUP5 MCOPY PUSH0 SWAP3 ADD SWAP2 DUP3 MSTORE POP SWAP2 SWAP1 POP JUMP JUMPDEST PUSH1 0x1 DUP2 DUP2 SHR SWAP1 DUP3 AND DUP1 PUSH2 0xD28 JUMPI PUSH1 0x7F DUP3 AND SWAP2 POP JUMPDEST PUSH1 0x20 DUP3 LT DUP2 SUB PUSH2 0xD46 JUMPI PUSH4 0x4E487B71 PUSH1 0xE0 SHL PUSH0 MSTORE PUSH1 0x22 PUSH1 0x4 MSTORE PUSH1 0x24 PUSH0 REVERT JUMPDEST POP SWAP2 SWAP1 POP JUMP JUMPDEST PUSH1 0x1F DUP3 GT ISZERO PUSH2 0xD93 JUMPI DUP1 PUSH0 MSTORE PUSH1 0x20 PUSH0 KECCAK256 PUSH1 0x1F DUP5 ADD PUSH1 0x5 SHR DUP2 ADD PUSH1 0x20 DUP6 LT ISZERO PUSH2 0xD71 JUMPI POP DUP1 JUMPDEST PUSH1 0x1F DUP5 ADD PUSH1 0x5 SHR DUP3 ADD SWAP2 POP JUMPDEST DUP2 DUP2 LT ISZERO PUSH2 0xD90 JUMPI PUSH0 DUP2 SSTORE PUSH1 0x1 ADD PUSH2 0xD7D JUMP JUMPDEST POP POP JUMPDEST POP POP POP JUMP JUMPDEST DUP2 MLOAD PUSH1 0x1 PUSH1 0x1 PUSH1 0x40 SHL SUB DUP2 GT ISZERO PUSH2 0xDB1 JUMPI PUSH2 0xDB1 PUSH2 0xBD2 JUMP JUMPDEST PUSH2 0xDC5 DUP2 PUSH2 0xDBF DUP5 SLOAD PUSH2 0xD14 JUMP JUMPDEST DUP5 PUSH2 0xD4C JUMP JUMPDEST PUSH1 0x20 PUSH1 0x1F DUP3 GT PUSH1 0x1 DUP2 EQ PUSH2 0xDF7 JUMPI PUSH0 DUP4 ISZERO PUSH2 0xDE0 JUMPI POP DUP5 DUP3 ADD MLOAD JUMPDEST PUSH0 NOT PUSH1 0x3 DUP6 SWAP1 SHL SHR NOT AND PUSH1 0x1 DUP5 SWAP1 SHL OR DUP5 SSTORE PUSH2 0xD90 JUMP JUMPDEST PUSH0 DUP5 DUP2 MSTORE PUSH1 0x20 DUP2 KECCAK256 PUSH1 0x1F NOT DUP6 AND SWAP2 JUMPDEST DUP3 DUP2 LT ISZERO PUSH2 0xE26 JUMPI DUP8 DUP6 ADD MLOAD DUP3 SSTORE PUSH1 0x20 SWAP5 DUP6 ADD SWAP5 PUSH1 0x1 SWAP1 SWAP3 ADD SWAP2 ADD PUSH2 0xE06 JUMP JUMPDEST POP DUP5 DUP3 LT ISZERO PUSH2 0xE43 JUMPI DUP7 DUP5 ADD MLOAD PUSH0 NOT PUSH1 0x3 DUP8 SWAP1 SHL PUSH1 0xF8 AND SHR NOT AND DUP2 SSTORE JUMPDEST POP POP POP POP PUSH1 0x1 SWAP1 DUP2 SHL ADD SWAP1 SSTORE POP JUMP JUMPDEST PUSH2 0x602E DUP1 PUSH2 0xE5F PUSH0 CODECOPY PUSH0 RETURN INVALID PUSH1 0x80 PUSH1 0x40 MSTORE CALLVALUE DUP1 ISZERO PUSH2 0xF JUMPI PUSH0 DUP1 REVERT JUMPDEST POP PUSH1 0x4 CALLDATASIZE LT PUSH2 0x55 JUMPI PUSH0 CALLDATALOAD PUSH1 0xE0 SHR DUP1 PUSH4 0x963E9F1F EQ PUSH2 0x59 JUMPI DUP1 PUSH4 0xAE9EC457 EQ PUSH2 0x82 JUMPI DUP1 PUSH4 0xB59E0F9E EQ PUSH2 0x95 JUMPI DUP1 PUSH4 0xC005A930 EQ PUSH2 0xAA JUMPI DUP1 PUSH4 0xF86813FF EQ PUSH2 0xCA JUMPI JUMPDEST PUSH0 DUP1 REVERT JUMPDEST PUSH2 0x6C PUSH2 0x67 CALLDATASIZE PUSH1 0x4 PUSH2 0x54F4 JUMP JUMPDEST PUSH2 0xDD JUMP JUMPDEST PUSH1 0x40 MLOAD PUSH2 0x79 SWAP2 SWAP1 PUSH2 0x56A6 JUMP JUMPDEST PUSH1 0x40 MLOAD DUP1 SWAP2 SUB SWAP1 RETURN JUMPDEST PUSH2 0x6C PUSH2 0x90 CALLDATASIZE PUSH1 0x4 PUSH2 0x54F4 JUMP JUMPDEST PUSH2 0x8EC JUMP JUMPDEST PUSH2 0xA8 PUSH2 0xA3 CALLDATASIZE PUSH1 0x4 PUSH2 0x592F JUMP JUMPDEST PUSH2 0x10ED JUMP JUMPDEST STOP JUMPDEST PUSH2 0xBD PUSH2 0xB8 CALLDATASIZE PUSH1 0x4 PUSH2 0x54F4 JUMP JUMPDEST PUSH2 0x219D JUMP JUMPDEST PUSH1 0x40 MLOAD PUSH2 0x79 SWAP2 SWAP1 PUSH2 0x5A48 JUMP JUMPDEST PUSH2 0xA8 PUSH2 0xD8 CALLDATASIZE PUSH1 0x4 PUSH2 0x592F JUMP JUMPDEST PUSH2 0x30C3 JUMP JUMPDEST PUSH1 0x60 DUP2 PUSH2 0xEC DUP2 PUSH1 0x1 SLOAD PUSH2 0x3BAB JUMP JUMPDEST PUSH1 0x6 DUP1 SLOAD DUP1 PUSH1 0x20 MUL PUSH1 0x20 ADD PUSH1 0x40 MLOAD SWAP1 DUP2 ADD PUSH1 0x40 MSTORE DUP1 SWAP3 SWAP2 SWAP1 DUP2 DUP2 MSTORE PUSH1 0x20 ADD PUSH0 SWAP1 JUMPDEST DUP3 DUP3 LT ISZERO PUSH2 0x8DF JUMPI PUSH0 DUP5 DUP2 MSTORE PUSH1 0x20 SWAP1 KECCAK256 PUSH1 0x40 DUP1 MLOAD PUSH2 0x100 DUP2 ADD SWAP1 SWAP2 MSTORE PUSH1 0xF DUP5 MUL SWAP1 SWAP2 ADD DUP1 SLOAD DUP3 SWAP1 PUSH1 0x80 DUP3 ADD SWAP1 DUP4 SWAP1 DUP3 SWAP1 DUP3 SWAP1 PUSH2 0x148 SWAP1 PUSH2 0x5B55 JUMP JUMPDEST DUP1 PUSH1 0x1F ADD PUSH1 0x20 DUP1 SWAP2 DIV MUL PUSH1 0x20 ADD PUSH1 0x40 MLOAD SWAP1 DUP2 ADD PUSH1 0x40 MSTORE DUP1 SWAP3 SWAP2 SWAP1 DUP2 DUP2 MSTORE PUSH1 0x20 ADD DUP3 DUP1 SLOAD PUSH2 0x174 SWAP1 PUSH2 0x5B55 JUMP JUMPDEST DUP1 ISZERO PUSH2 0x1BF JUMPI DUP1 PUSH1 0x1F LT PUSH2 0x196 JUMPI PUSH2 0x100 DUP1 DUP4 SLOAD DIV MUL DUP4 MSTORE SWAP2 PUSH1 0x20 ADD SWAP2 PUSH2 0x1BF JUMP JUMPDEST DUP3 ADD SWAP2 SWAP1 PUSH0 MSTORE PUSH1 0x20 PUSH0 KECCAK256 SWAP1 JUMPDEST DUP2 SLOAD DUP2 MSTORE SWAP1 PUSH1 0x1 ADD SWAP1 PUSH1 0x20 ADD DUP1 DUP4 GT PUSH2 0x1A2 JUMPI DUP3 SWAP1 SUB PUSH1 0x1F AND DUP3 ADD SWAP2 JUMPDEST POP POP POP SWAP2 DUP4 MSTORE POP POP PUSH1 0x1 DUP3 ADD SLOAD PUSH1 0xFF DUP1 DUP3 AND PUSH1 0x20 DUP5 ADD MSTORE PUSH2 0x100 SWAP1 SWAP2 DIV AND PUSH1 0x40 DUP3 ADD MSTORE PUSH1 0x2 DUP3 ADD DUP1 SLOAD PUSH1 0x60 SWAP1 SWAP3 ADD SWAP2 PUSH2 0x1F7 SWAP1 PUSH2 0x5B55 JUMP JUMPDEST DUP1 PUSH1 0x1F ADD PUSH1 0x20 DUP1 SWAP2 DIV MUL PUSH1 0x20 ADD PUSH1 0x40 MLOAD SWAP1 DUP2 ADD PUSH1 0x40 MSTORE DUP1 SWAP3 SWAP2 SWAP1 DUP2 DUP2 MSTORE PUSH1 0x20 ADD DUP3 DUP1 SLOAD PUSH2 0x223 SWAP1 PUSH2 0x5B55 JUMP JUMPDEST DUP1 ISZERO PUSH2 0x26E JUMPI DUP1 PUSH1 0x1F LT PUSH2 0x245 JUMPI PUSH2 0x100 DUP1 DUP4 SLOAD DIV MUL DUP4 MSTORE SWAP2 PUSH1 0x20 ADD SWAP2 PUSH2 0x26E JUMP JUMPDEST DUP3 ADD SWAP2 SWAP1 PUSH0 MSTORE PUSH1 0x20 PUSH0 KECCAK256 SWAP1 JUMPDEST DUP2 SLOAD DUP2 MSTORE SWAP1 PUSH1 0x1 ADD SWAP1 PUSH1 0x20 ADD DUP1 DUP4 GT PUSH2 0x251 JUMPI DUP3 SWAP1 SUB PUSH1 0x1F AND DUP3 ADD SWAP2 JUMPDEST POP POP POP POP POP DUP2 MSTORE POP POP DUP2 MSTORE PUSH1 0x20 ADD PUSH1 0x3 DUP3 ADD DUP1 SLOAD PUSH2 0x28B SWAP1 PUSH2 0x5B55 JUMP JUMPDEST DUP1 PUSH1 0x1F ADD PUSH1 0x20 DUP1 SWAP2 DIV MUL PUSH1 0x20 ADD PUSH1 0x40 MLOAD SWAP1 DUP2 ADD PUSH1 0x40 MSTORE DUP1 SWAP3 SWAP2 SWAP1 DUP2 DUP2 MSTORE PUSH1 0x20 ADD DUP3 DUP1 SLOAD PUSH2 0x2B7 SWAP1 PUSH2 0x5B55 JUMP JUMPDEST DUP1 ISZERO PUSH2 0x302 JUMPI DUP1 PUSH1 0x1F LT PUSH2 0x2D9 JUMPI PUSH2 0x100 DUP1 DUP4 SLOAD DIV MUL DUP4 MSTORE SWAP2 PUSH1 0x20 ADD SWAP2 PUSH2 0x302 JUMP JUMPDEST DUP3 ADD SWAP2 SWAP1 PUSH0 MSTORE PUSH1 0x20 PUSH0 KECCAK256 SWAP1 JUMPDEST DUP2 SLOAD DUP2 MSTORE SWAP1 PUSH1 0x1 ADD SWAP1 PUSH1 0x20 ADD DUP1 DUP4 GT PUSH2 0x2E5 JUMPI DUP3 SWAP1 SUB PUSH1 0x1F AND DUP3 ADD SWAP2 JUMPDEST POP POP POP SWAP2 DUP4 MSTORE POP POP PUSH1 0x4 DUP3 ADD SLOAD PUSH1 0xFF AND PUSH1 0x20 DUP3 ADD MSTORE PUSH1 0x40 DUP1 MLOAD PUSH2 0x140 DUP2 ADD DUP3 MSTORE PUSH1 0x5 DUP5 ADD DUP1 SLOAD SWAP3 SWAP1 SWAP4 ADD SWAP3 SWAP1 SWAP2 DUP3 SWAP1 DUP3 SWAP1 PUSH2 0x33C SWAP1 PUSH2 0x5B55 JUMP JUMPDEST DUP1 PUSH1 0x1F ADD PUSH1 0x20 DUP1 SWAP2 DIV MUL PUSH1 0x20 ADD PUSH1 0x40 MLOAD SWAP1 DUP2 ADD PUSH1 0x40 MSTORE DUP1 SWAP3 SWAP2 SWAP1 DUP2 DUP2 MSTORE PUSH1 0x20 ADD DUP3 DUP1 SLOAD PUSH2 0x368 SWAP1 PUSH2 0x5B55 JUMP JUMPDEST DUP1 ISZERO PUSH2 0x3B3 JUMPI DUP1 PUSH1 0x1F LT PUSH2 0x38A JUMPI PUSH2 0x100 DUP1 DUP4 SLOAD DIV MUL DUP4 MSTORE SWAP2 PUSH1 0x20 ADD SWAP2 PUSH2 0x3B3 JUMP JUMPDEST DUP3 ADD SWAP2 SWAP1 PUSH0 MSTORE PUSH1 0x20 PUSH0 KECCAK256 SWAP1 JUMPDEST DUP2 SLOAD DUP2 MSTORE SWAP1 PUSH1 0x1 ADD SWAP1 PUSH1 0x20 ADD DUP1 DUP4 GT PUSH2 0x396 JUMPI DUP3 SWAP1 SUB PUSH1 0x1F AND DUP3 ADD SWAP2 JUMPDEST POP POP POP POP POP DUP2 MSTORE PUSH1 0x20 ADD PUSH1 0x1 DUP3 ADD DUP1 SLOAD PUSH2 0x3CC SWAP1 PUSH2 0x5B55 JUMP JUMPDEST DUP1 PUSH1 0x1F ADD PUSH1 0x20 DUP1 SWAP2 DIV MUL PUSH1 0x20 ADD PUSH1 0x40 MLOAD SWAP1 DUP2 ADD PUSH1 0x40 MSTORE DUP1 SWAP3 SWAP2 SWAP1 DUP2 DUP2 MSTORE PUSH1 0x20 ADD DUP3 DUP1 SLOAD PUSH2 0x3F8 SWAP1 PUSH2 0x5B55 JUMP JUMPDEST DUP1 ISZERO PUSH2 0x443 JUMPI DUP1 PUSH1 0x1F LT PUSH2 0x41A JUMPI PUSH2 0x100 DUP1 DUP4 SLOAD DIV MUL DUP4 MSTORE SWAP2 PUSH1 0x20 ADD SWAP2 PUSH2 0x443 JUMP JUMPDEST DUP3 ADD SWAP2 SWAP1 PUSH0 MSTORE PUSH1 0x20 PUSH0 KECCAK256 SWAP1 JUMPDEST DUP2 SLOAD DUP2 MSTORE SWAP1 PUSH1 0x1 ADD SWAP1 PUSH1 0x20 ADD DUP1 DUP4 GT PUSH2 0x426 JUMPI DUP3 SWAP1 SUB PUSH1 0x1F AND DUP3 ADD SWAP2 JUMPDEST POP POP POP POP POP DUP2 MSTORE PUSH1 0x20 ADD PUSH1 0x2 DUP3 ADD DUP1 SLOAD PUSH2 0x45C SWAP1 PUSH2 0x5B55 JUMP JUMPDEST DUP1 PUSH1 0x1F ADD PUSH1 0x20 DUP1 SWAP2 DIV MUL PUSH1 0x20 ADD PUSH1 0x40 MLOAD SWAP1 DUP2 ADD PUSH1 0x40 MSTORE DUP1 SWAP3 SWAP2 SWAP1 DUP2 DUP2 MSTORE PUSH1 0x20 ADD DUP3 DUP1 SLOAD PUSH2 0x488 SWAP1 PUSH2 0x5B55 JUMP JUMPDEST DUP1 ISZERO PUSH2 0x4D3 JUMPI DUP1 PUSH1 0x1F LT PUSH2 0x4AA JUMPI PUSH2 0x100 DUP1 DUP4 SLOAD DIV MUL DUP4 MSTORE SWAP2 PUSH1 0x20 ADD SWAP2 PUSH2 0x4D3 JUMP JUMPDEST DUP3 ADD SWAP2 SWAP1 PUSH0 MSTORE PUSH1 0x20 PUSH0 KECCAK256 SWAP1 JUMPDEST DUP2 SLOAD DUP2 MSTORE SWAP1 PUSH1 0x1 ADD SWAP1 PUSH1 0x20 ADD DUP1 DUP4 GT PUSH2 0x4B6 JUMPI DUP3 SWAP1 SUB PUSH1 0x1F AND DUP3 ADD SWAP2 JUMPDEST POP POP POP POP POP DUP2 MSTORE PUSH1 0x20 ADD PUSH1 0x3 DUP3 ADD DUP1 SLOAD PUSH2 0x4EC SWAP1 PUSH2 0x5B55 JUMP JUMPDEST DUP1 PUSH1 0x1F ADD PUSH1 0x20 DUP1 SWAP2 DIV MUL PUSH1 0x20 ADD PUSH1 0x40 MLOAD SWAP1 DUP2 ADD PUSH1 0x40 MSTORE DUP1 SWAP3 SWAP2 SWAP1 DUP2 DUP2 MSTORE PUSH1 0x20 ADD DUP3 DUP1 SLOAD PUSH2 0x518 SWAP1 PUSH2 0x5B55 JUMP JUMPDEST DUP1 ISZERO PUSH2 0x563 JUMPI DUP1 PUSH1 0x1F LT PUSH2 0x53A JUMPI PUSH2 0x100 DUP1 DUP4 SLOAD DIV MUL DUP4 MSTORE SWAP2 PUSH1 0x20 ADD SWAP2 PUSH2 0x563 JUMP JUMPDEST DUP3 ADD SWAP2 SWAP1 PUSH0 MSTORE PUSH1 0x20 PUSH0 KECCAK256 SWAP1 JUMPDEST DUP2 SLOAD DUP2 MSTORE SWAP1 PUSH1 0x1 ADD SWAP1 PUSH1 0x20 ADD DUP1 DUP4 GT PUSH2 0x546 JUMPI DUP3 SWAP1 SUB PUSH1 0x1F AND DUP3 ADD SWAP2 JUMPDEST POP POP POP POP POP DUP2 MSTORE PUSH1 0x20 ADD PUSH1 0x4 DUP3 ADD DUP1 SLOAD PUSH2 0x57C SWAP1 PUSH2 0x5B55 JUMP JUMPDEST DUP1 PUSH1 0x1F ADD PUSH1 0x20 DUP1 SWAP2 DIV MUL PUSH1 0x20 ADD PUSH1 0x40 MLOAD SWAP1 DUP2 ADD PUSH1 0x40 MSTORE DUP1 SWAP3 SWAP2 SWAP1 DUP2 DUP2 MSTORE PUSH1 0x20 ADD DUP3 DUP1 SLOAD PUSH2 0x5A8 SWAP1 PUSH2 0x5B55 JUMP JUMPDEST DUP1 ISZERO PUSH2 0x5F3 JUMPI DUP1 PUSH1 0x1F LT PUSH2 0x5CA JUMPI PUSH2 0x100 DUP1 DUP4 SLOAD DIV MUL DUP4 MSTORE SWAP2 PUSH1 0x20 ADD SWAP2 PUSH2 0x5F3 JUMP JUMPDEST DUP3 ADD SWAP2 SWAP1 PUSH0 MSTORE PUSH1 0x20 PUSH0 KECCAK256 SWAP1 JUMPDEST DUP2 SLOAD DUP2 MSTORE SWAP1 PUSH1 0x1 ADD SWAP1 PUSH1 0x20 ADD DUP1 DUP4 GT PUSH2 0x5D6 JUMPI DUP3 SWAP1 SUB PUSH1 0x1F AND DUP3 ADD SWAP2 JUMPDEST POP POP POP POP POP DUP2 MSTORE PUSH1 0x20 ADD PUSH1 0x5 DUP3 ADD DUP1 SLOAD PUSH2 0x60C SWAP1 PUSH2 0x5B55 JUMP JUMPDEST DUP1 PUSH1 0x1F ADD PUSH1 0x20 DUP1 SWAP2 DIV MUL PUSH1 0x20 ADD PUSH1 0x40 MLOAD SWAP1 DUP2 ADD PUSH1 0x40 MSTORE DUP1 SWAP3 SWAP2 SWAP1 DUP2 DUP2 MSTORE PUSH1 0x20 ADD DUP3 DUP1 SLOAD PUSH2 0x638 SWAP1 PUSH2 0x5B55 JUMP JUMPDEST DUP1 ISZERO PUSH2 0x683 JUMPI DUP1 PUSH1 0x1F LT PUSH2 0x65A JUMPI PUSH2 0x100 DUP1 DUP4 SLOAD DIV MUL DUP4 MSTORE SWAP2 PUSH1 0x20 ADD SWAP2 PUSH2 0x683 JUMP JUMPDEST DUP3 ADD SWAP2 SWAP1 PUSH0 MSTORE PUSH1 0x20 PUSH0 KECCAK256 SWAP1 JUMPDEST DUP2 SLOAD DUP2 MSTORE SWAP1 PUSH1 0x1 ADD SWAP1 PUSH1 0x20 ADD DUP1 DUP4 GT PUSH2 0x666 JUMPI DUP3 SWAP1 SUB PUSH1 0x1F AND DUP3 ADD SWAP2 JUMPDEST POP POP POP POP POP DUP2 MSTORE PUSH1 0x20 ADD PUSH1 0x6 DUP3 ADD DUP1 SLOAD PUSH2 0x69C SWAP1 PUSH2 0x5B55 JUMP JUMPDEST DUP1 PUSH1 0x1F ADD PUSH1 0x20 DUP1 SWAP2 DIV MUL PUSH1 0x20 ADD PUSH1 0x40 MLOAD SWAP1 DUP2 ADD PUSH1 0x40 MSTORE DUP1 SWAP3 SWAP2 SWAP1 DUP2 DUP2 MSTORE PUSH1 0x20 ADD DUP3 DUP1 SLOAD PUSH2 0x6C8 SWAP1 PUSH2 0x5B55 JUMP JUMPDEST DUP1 ISZERO PUSH2 0x713 JUMPI DUP1 PUSH1 0x1F LT PUSH2 0x6EA JUMPI PUSH2 0x100 DUP1 DUP4 SLOAD DIV MUL DUP4 MSTORE SWAP2 PUSH1 0x20 ADD SWAP2 PUSH2 0x713 JUMP JUMPDEST DUP3 ADD SWAP2 SWAP1 PUSH0 MSTORE PUSH1 0x20 PUSH0 KECCAK256 SWAP1 JUMPDEST DUP2 SLOAD DUP2 MSTORE SWAP1 PUSH1 0x1 ADD SWAP1 PUSH1 0x20 ADD DUP1 DUP4 GT PUSH2 0x6F6 JUMPI DUP3 SWAP1 SUB PUSH1 0x1F AND DUP3 ADD SWAP2 JUMPDEST POP POP POP POP POP DUP2 MSTORE PUSH1 0x20 ADD PUSH1 0x7 DUP3 ADD DUP1 SLOAD PUSH2 0x72C SWAP1 PUSH2 0x5B55 JUMP JUMPDEST DUP1 PUSH1 0x1F ADD PUSH1 0x20 DUP1 SWAP2 DIV MUL PUSH1 0x20 ADD PUSH1 0x40 MLOAD SWAP1 DUP2 ADD PUSH1 0x40 MSTORE DUP1 SWAP3 SWAP2 SWAP1 DUP2 DUP2 MSTORE PUSH1 0x20 ADD DUP3 DUP1 SLOAD PUSH2 0x758 SWAP1 PUSH2 0x5B55 JUMP JUMPDEST DUP1 ISZERO PUSH2 0x7A3 JUMPI DUP1 PUSH1 0x1F LT PUSH2 0x77A JUMPI PUSH2 0x100 DUP1 DUP4 SLOAD DIV MUL DUP4 MSTORE SWAP2 PUSH1 0x20 ADD SWAP2 PUSH2 0x7A3 JUMP JUMPDEST DUP3 ADD SWAP2 SWAP1 PUSH0 MSTORE PUSH1 0x20 PUSH0 KECCAK256 SWAP1 JUMPDEST DUP2 SLOAD DUP2 MSTORE SWAP1 PUSH1 0x1 ADD SWAP1 PUSH1 0x20 ADD DUP1 DUP4 GT PUSH2 0x786 JUMPI DUP3 SWAP1 SUB PUSH1 0x1F AND DUP3 ADD SWAP2 JUMPDEST POP POP POP POP POP DUP2 MSTORE PUSH1 0x20 ADD PUSH1 0x8 DUP3 ADD DUP1 SLOAD PUSH2 0x7BC SWAP1 PUSH2 0x5B55 JUMP JUMPDEST DUP1 PUSH1 0x1F ADD PUSH1 0x20 DUP1 SWAP2 DIV MUL PUSH1 0x20 ADD PUSH1 0x40 MLOAD SWAP1 DUP2 ADD PUSH1 0x40 MSTORE DUP1 SWAP3 SWAP2 SWAP1 DUP2 DUP2 MSTORE PUSH1 0x20 ADD DUP3 DUP1 SLOAD PUSH2 0x7E8 SWAP1 PUSH2 0x5B55 JUMP JUMPDEST DUP1 ISZERO PUSH2 0x833 JUMPI DUP1 PUSH1 0x1F LT PUSH2 0x80A JUMPI PUSH2 0x100 DUP1 DUP4 SLOAD DIV MUL DUP4 MSTORE SWAP2 PUSH1 0x20 ADD SWAP2 PUSH2 0x833 JUMP JUMPDEST DUP3 ADD SWAP2 SWAP1 PUSH0 MSTORE PUSH1 0x20 PUSH0 KECCAK256 SWAP1 JUMPDEST DUP2 SLOAD DUP2 MSTORE SWAP1 PUSH1 0x1 ADD SWAP1 PUSH1 0x20 ADD DUP1 DUP4 GT PUSH2 0x816 JUMPI DUP3 SWAP1 SUB PUSH1 0x1F AND DUP3 ADD SWAP2 JUMPDEST POP POP POP POP POP DUP2 MSTORE PUSH1 0x20 ADD PUSH1 0x9 DUP3 ADD DUP1 SLOAD PUSH2 0x84C SWAP1 PUSH2 0x5B55 JUMP JUMPDEST DUP1 PUSH1 0x1F ADD PUSH1 0x20 DUP1 SWAP2 DIV MUL PUSH1 0x20 ADD PUSH1 0x40 MLOAD SWAP1 DUP2 ADD PUSH1 0x40 MSTORE DUP1 SWAP3 SWAP2 SWAP1 DUP2 DUP2 MSTORE PUSH1 0x20 ADD DUP3 DUP1 SLOAD PUSH2 0x878 SWAP1 PUSH2 0x5B55 JUMP JUMPDEST DUP1 ISZERO PUSH2 0x8C3 JUMPI DUP1 PUSH1 0x1F LT PUSH2 0x89A JUMPI PUSH2 0x100 DUP1 DUP4 SLOAD DIV MUL DUP4 MSTORE SWAP2 PUSH1 0x20 ADD SWAP2 PUSH2 0x8C3 JUMP JUMPDEST DUP3 ADD SWAP2 SWAP1 PUSH0 MSTORE PUSH1 0x20 PUSH0 KECCAK256 SWAP1 JUMPDEST DUP2 SLOAD DUP2 MSTORE SWAP1 PUSH1 0x1 ADD SWAP1 PUSH1 0x20 ADD DUP1 DUP4 GT PUSH2 0x8A6 JUMPI DUP3 SWAP1 SUB PUSH1 0x1F AND DUP3 ADD SWAP2 JUMPDEST POP POP POP POP POP DUP2 MSTORE POP POP DUP2 MSTORE POP POP DUP2 MSTORE PUSH1 0x20 ADD SWAP1 PUSH1 0x1 ADD SWAP1 PUSH2 0x10D JUMP JUMPDEST POP POP POP POP SWAP2 POP JUMPDEST POP SWAP2 SWAP1 POP JUMP JUMPDEST PUSH1 0x60 DUP2 PUSH2 0x8FA DUP2 PUSH0 SLOAD PUSH2 0x3BAB JUMP JUMPDEST PUSH1 0x5 DUP1 SLOAD DUP1 PUSH1 0x20 MUL PUSH1 0x20 ADD PUSH1 0x40 MLOAD SWAP1 DUP2 ADD PUSH1 0x40 MSTORE DUP1 SWAP3 SWAP2 SWAP1 DUP2 DUP2 MSTORE PUSH1 0x20 ADD PUSH0 SWAP1 JUMPDEST DUP3 DUP3 LT ISZERO PUSH2 0x8DF JUMPI PUSH0 DUP5 DUP2 MSTORE PUSH1 0x20 SWAP1 KECCAK256 PUSH1 0x40 DUP1 MLOAD PUSH2 0x100 DUP2 ADD SWAP1 SWAP2 MSTORE PUSH1 0xF DUP5 MUL SWAP1 SWAP2 ADD DUP1 SLOAD DUP3 SWAP1 PUSH1 0x80 DUP3 ADD SWAP1 DUP4 SWAP1 DUP3 SWAP1 DUP3 SWAP1 PUSH2 0x956 SWAP1 PUSH2 0x5B55 JUMP JUMPDEST DUP1 PUSH1 0x1F ADD PUSH1 0x20 DUP1 SWAP2 DIV MUL PUSH1 0x20 ADD PUSH1 0x40 MLOAD SWAP1 DUP2 ADD PUSH1 0x40 MSTORE DUP1 SWAP3 SWAP2 SWAP1 DUP2 DUP2 MSTORE PUSH1 0x20 ADD DUP3 DUP1 SLOAD PUSH2 0x982 SWAP1 PUSH2 0x5B55 JUMP JUMPDEST DUP1 ISZERO PUSH2 0x9CD JUMPI DUP1 PUSH1 0x1F LT PUSH2 0x9A4 JUMPI PUSH2 0x100 DUP1 DUP4 SLOAD DIV MUL DUP4 MSTORE SWAP2 PUSH1 0x20 ADD SWAP2 PUSH2 0x9CD JUMP JUMPDEST DUP3 ADD SWAP2 SWAP1 PUSH0 MSTORE PUSH1 0x20 PUSH0 KECCAK256 SWAP1 JUMPDEST DUP2 SLOAD DUP2 MSTORE SWAP1 PUSH1 0x1 ADD SWAP1 PUSH1 0x20 ADD DUP1 DUP4 GT PUSH2 0x9B0 JUMPI DUP3 SWAP1 SUB PUSH1 0x1F AND DUP3 ADD SWAP2 JUMPDEST POP POP POP SWAP2 DUP4 MSTORE POP POP PUSH1 0x1 DUP3 ADD SLOAD PUSH1 0xFF DUP1 DUP3 AND PUSH1 0x20 DUP5 ADD MSTORE PUSH2 0x100 SWAP1 SWAP2 DIV AND PUSH1 0x40 DUP3 ADD MSTORE PUSH1 0x2 DUP3 ADD DUP1 SLOAD PUSH1 0x60 SWAP1 SWAP3 ADD SWAP2 PUSH2 0xA05 SWAP1 PUSH2 0x5B55 JUMP JUMPDEST DUP1 PUSH1 0x1F ADD PUSH1 0x20 DUP1 SWAP2 DIV MUL PUSH1 0x20 ADD PUSH1 0x40 MLOAD SWAP1 DUP2 ADD PUSH1 0x40 MSTORE DUP1 SWAP3 SWAP2 SWAP1 DUP2 DUP2 MSTORE PUSH1 0x20 ADD DUP3 DUP1 SLOAD PUSH2 0xA31 SWAP1 PUSH2 0x5B55 JUMP JUMPDEST DUP1 ISZERO PUSH2 0xA7C JUMPI DUP1 PUSH1 0x1F LT PUSH2 0xA53 JUMPI PUSH2 0x100 DUP1 DUP4 SLOAD DIV MUL DUP4 MSTORE SWAP2 PUSH1 0x20 ADD SWAP2 PUSH2 0xA7C JUMP JUMPDEST DUP3 ADD SWAP2 SWAP1 PUSH0 MSTORE PUSH1 0x20 PUSH0 KECCAK256 SWAP1 JUMPDEST DUP2 SLOAD DUP2 MSTORE SWAP1 PUSH1 0x1 ADD SWAP1 PUSH1 0x20 ADD DUP1 DUP4 GT PUSH2 0xA5F JUMPI DUP3 SWAP1 SUB PUSH1 0x1F AND DUP3 ADD SWAP2 JUMPDEST POP POP POP POP POP DUP2 MSTORE POP POP DUP2 MSTORE PUSH1 0x20 ADD PUSH1 0x3 DUP3 ADD DUP1 SLOAD PUSH2 0xA99 SWAP1 PUSH2 0x5B55 JUMP JUMPDEST DUP1 PUSH1 0x1F ADD PUSH1 0x20 DUP1 SWAP2 DIV MUL PUSH1 0x20 ADD PUSH1 0x40 MLOAD SWAP1 DUP2 ADD PUSH1 0x40 MSTORE DUP1 SWAP3 SWAP2 SWAP1 DUP2 DUP2 MSTORE PUSH1 0x20 ADD DUP3 DUP1 SLOAD PUSH2 0xAC5 SWAP1 PUSH2 0x5B55 JUMP JUMPDEST DUP1 ISZERO PUSH2 0xB10 JUMPI DUP1 PUSH1 0x1F LT PUSH2 0xAE7 JUMPI PUSH2 0x100 DUP1 DUP4 SLOAD DIV MUL DUP4 MSTORE SWAP2 PUSH1 0x20 ADD SWAP2 PUSH2 0xB10 JUMP JUMPDEST DUP3 ADD SWAP2 SWAP1 PUSH0 MSTORE PUSH1 0x20 PUSH0 KECCAK256 SWAP1 JUMPDEST DUP2 SLOAD DUP2 MSTORE SWAP1 PUSH1 0x1 ADD SWAP1 PUSH1 0x20 ADD DUP1 DUP4 GT PUSH2 0xAF3 JUMPI DUP3 SWAP1 SUB PUSH1 0x1F AND DUP3 ADD SWAP2 JUMPDEST POP POP POP SWAP2 DUP4 MSTORE POP POP PUSH1 0x4 DUP3 ADD SLOAD PUSH1 0xFF AND PUSH1 0x20 DUP3 ADD MSTORE PUSH1 0x40 DUP1 MLOAD PUSH2 0x140 DUP2 ADD DUP3 MSTORE PUSH1 0x5 DUP5 ADD DUP1 SLOAD SWAP3 SWAP1 SWAP4 ADD SWAP3 SWAP1 SWAP2 DUP3 SWAP1 DUP3 SWAP1 PUSH2 0xB4A SWAP1 PUSH2 0x5B55 JUMP JUMPDEST DUP1 PUSH1 0x1F ADD PUSH1 0x20 DUP1 SWAP2 DIV MUL PUSH1 0x20 ADD PUSH1 0x40 MLOAD SWAP1 DUP2 ADD PUSH1 0x40 MSTORE DUP1 SWAP3 SWAP2 SWAP1 DUP2 DUP2 MSTORE PUSH1 0x20 ADD DUP3 DUP1 SLOAD PUSH2 0xB76 SWAP1 PUSH2 0x5B55 JUMP JUMPDEST DUP1 ISZERO PUSH2 0xBC1 JUMPI DUP1 PUSH1 0x1F LT PUSH2 0xB98 JUMPI PUSH2 0x100 DUP1 DUP4 SLOAD DIV MUL DUP4 MSTORE SWAP2 PUSH1 0x20 ADD SWAP2 PUSH2 0xBC1 JUMP JUMPDEST DUP3 ADD SWAP2 SWAP1 PUSH0 MSTORE PUSH1 0x20 PUSH0 KECCAK256 SWAP1 JUMPDEST DUP2 SLOAD DUP2 MSTORE SWAP1 PUSH1 0x1 ADD SWAP1 PUSH1 0x20 ADD DUP1 DUP4 GT PUSH2 0xBA4 JUMPI DUP3 SWAP1 SUB PUSH1 0x1F AND DUP3 ADD SWAP2 JUMPDEST POP POP POP POP POP DUP2 MSTORE PUSH1 0x20 ADD PUSH1 0x1 DUP3 ADD DUP1 SLOAD PUSH2 0xBDA SWAP1 PUSH2 0x5B55 JUMP JUMPDEST DUP1 PUSH1 0x1F ADD PUSH1 0x20 DUP1 SWAP2 DIV MUL PUSH1 0x20 ADD PUSH1 0x40 MLOAD SWAP1 DUP2 ADD PUSH1 0x40 MSTORE DUP1 SWAP3 SWAP2 SWAP1 DUP2 DUP2 MSTORE PUSH1 0x20 ADD DUP3 DUP1 SLOAD PUSH2 0xC06 SWAP1 PUSH2 0x5B55 JUMP JUMPDEST DUP1 ISZERO PUSH2 0xC51 JUMPI DUP1 PUSH1 0x1F LT PUSH2 0xC28 JUMPI PUSH2 0x100 DUP1 DUP4 SLOAD DIV MUL DUP4 MSTORE SWAP2 PUSH1 0x20 ADD SWAP2 PUSH2 0xC51 JUMP JUMPDEST DUP3 ADD SWAP2 SWAP1 PUSH0 MSTORE PUSH1 0x20 PUSH0 KECCAK256 SWAP1 JUMPDEST DUP2 SLOAD DUP2 MSTORE SWAP1 PUSH1 0x1 ADD SWAP1 PUSH1 0x20 ADD DUP1 DUP4 GT PUSH2 0xC34 JUMPI DUP3 SWAP1 SUB PUSH1 0x1F AND DUP3 ADD SWAP2 JUMPDEST POP POP POP POP POP DUP2 MSTORE PUSH1 0x20 ADD PUSH1 0x2 DUP3 ADD DUP1 SLOAD PUSH2 0xC6A SWAP1 PUSH2 0x5B55 JUMP JUMPDEST DUP1 PUSH1 0x1F ADD PUSH1 0x20 DUP1 SWAP2 DIV MUL PUSH1 0x20 ADD PUSH1 0x40 MLOAD SWAP1 DUP2 ADD PUSH1 0x40 MSTORE DUP1 SWAP3 SWAP2 SWAP1 DUP2 DUP2 MSTORE PUSH1 0x20 ADD DUP3 DUP1 SLOAD PUSH2 0xC96 SWAP1 PUSH2 0x5B55 JUMP JUMPDEST DUP1 ISZERO PUSH2 0xCE1 JUMPI DUP1 PUSH1 0x1F LT PUSH2 0xCB8 JUMPI PUSH2 0x100 DUP1 DUP4 SLOAD DIV MUL DUP4 MSTORE SWAP2 PUSH1 0x20 ADD SWAP2 PUSH2 0xCE1 JUMP JUMPDEST DUP3 ADD SWAP2 SWAP1 PUSH0 MSTORE PUSH1 0x20 PUSH0 KECCAK256 SWAP1 JUMPDEST DUP2 SLOAD DUP2 MSTORE SWAP1 PUSH1 0x1 ADD SWAP1 PUSH1 0x20 ADD DUP1 DUP4 GT PUSH2 0xCC4 JUMPI DUP3 SWAP1 SUB PUSH1 0x1F AND DUP3 ADD SWAP2 JUMPDEST POP POP POP POP POP DUP2 MSTORE PUSH1 0x20 ADD PUSH1 0x3 DUP3 ADD DUP1 SLOAD PUSH2 0xCFA SWAP1 PUSH2 0x5B55 JUMP JUMPDEST DUP1 PUSH1 0x1F ADD PUSH1 0x20 DUP1 SWAP2 DIV MUL PUSH1 0x20 ADD PUSH1 0x40 MLOAD SWAP1 DUP2 ADD PUSH1 0x40 MSTORE DUP1 SWAP3 SWAP2 SWAP1 DUP2 DUP2 MSTORE PUSH1 0x20 ADD DUP3 DUP1 SLOAD PUSH2 0xD26 SWAP1 PUSH2 0x5B55 JUMP JUMPDEST DUP1 ISZERO PUSH2 0xD71 JUMPI DUP1 PUSH1 0x1F LT PUSH2 0xD48 JUMPI PUSH2 0x100 DUP1 DUP4 SLOAD DIV MUL DUP4 MSTORE SWAP2 PUSH1 0x20 ADD SWAP2 PUSH2 0xD71 JUMP JUMPDEST DUP3 ADD SWAP2 SWAP1 PUSH0 MSTORE PUSH1 0x20 PUSH0 KECCAK256 SWAP1 JUMPDEST DUP2 SLOAD DUP2 MSTORE SWAP1 PUSH1 0x1 ADD SWAP1 PUSH1 0x20 ADD DUP1 DUP4 GT PUSH2 0xD54 JUMPI DUP3 SWAP1 SUB PUSH1 0x1F AND DUP3 ADD SWAP2 JUMPDEST POP POP POP POP POP DUP2 MSTORE PUSH1 0x20 ADD PUSH1 0x4 DUP3 ADD DUP1 SLOAD PUSH2 0xD8A SWAP1 PUSH2 0x5B55 JUMP JUMPDEST DUP1 PUSH1 0x1F ADD PUSH1 0x20 DUP1 SWAP2 DIV MUL PUSH1 0x20 ADD PUSH1 0x40 MLOAD SWAP1 DUP2 ADD PUSH1 0x40 MSTORE DUP1 SWAP3 SWAP2 SWAP1 DUP2 DUP2 MSTORE PUSH1 0x20 ADD DUP3 DUP1 SLOAD PUSH2 0xDB6 SWAP1 PUSH2 0x5B55 JUMP JUMPDEST DUP1 ISZERO PUSH2 0xE01 JUMPI DUP1 PUSH1 0x1F LT PUSH2 0xDD8 JUMPI PUSH2 0x100 DUP1 DUP4 SLOAD DIV MUL DUP4 MSTORE SWAP2 PUSH1 0x20 ADD SWAP2 PUSH2 0xE01 JUMP JUMPDEST DUP3 ADD SWAP2 SWAP1 PUSH0 MSTORE PUSH1 0x20 PUSH0 KECCAK256 SWAP1 JUMPDEST DUP2 SLOAD DUP2 MSTORE SWAP1 PUSH1 0x1 ADD SWAP1 PUSH1 0x20 ADD DUP1 DUP4 GT PUSH2 0xDE4 JUMPI DUP3 SWAP1 SUB PUSH1 0x1F AND DUP3 ADD SWAP2 JUMPDEST POP POP POP POP POP DUP2 MSTORE PUSH1 0x20 ADD PUSH1 0x5 DUP3 ADD DUP1 SLOAD PUSH2 0xE1A SWAP1 PUSH2 0x5B55 JUMP JUMPDEST DUP1 PUSH1 0x1F ADD PUSH1 0x20 DUP1 SWAP2 DIV MUL PUSH1 0x20 ADD PUSH1 0x40 MLOAD SWAP1 DUP2 ADD PUSH1 0x40 MSTORE DUP1 SWAP3 SWAP2 SWAP1 DUP2 DUP2 MSTORE PUSH1 0x20 ADD DUP3 DUP1 SLOAD PUSH2 0xE46 SWAP1 PUSH2 0x5B55 JUMP JUMPDEST DUP1 ISZERO PUSH2 0xE91 JUMPI DUP1 PUSH1 0x1F LT PUSH2 0xE68 JUMPI PUSH2 0x100 DUP1 DUP4 SLOAD DIV MUL DUP4 MSTORE SWAP2 PUSH1 0x20 ADD SWAP2 PUSH2 0xE91 JUMP JUMPDEST DUP3 ADD SWAP2 SWAP1 PUSH0 MSTORE PUSH1 0x20 PUSH0 KECCAK256 SWAP1 JUMPDEST DUP2 SLOAD DUP2 MSTORE SWAP1 PUSH1 0x1 ADD SWAP1 PUSH1 0x20 ADD DUP1 DUP4 GT PUSH2 0xE74 JUMPI DUP3 SWAP1 SUB PUSH1 0x1F AND DUP3 ADD SWAP2 JUMPDEST POP POP POP POP POP DUP2 MSTORE PUSH1 0x20 ADD PUSH1 0x6 DUP3 ADD DUP1 SLOAD PUSH2 0xEAA SWAP1 PUSH2 0x5B55 JUMP JUMPDEST DUP1 PUSH1 0x1F ADD PUSH1 0x20 DUP1 SWAP2 DIV MUL PUSH1 0x20 ADD PUSH1 0x40 MLOAD SWAP1 DUP2 ADD PUSH1 0x40 MSTORE DUP1 SWAP3 SWAP2 SWAP1 DUP2 DUP2 MSTORE PUSH1 0x20 ADD DUP3 DUP1 SLOAD PUSH2 0xED6 SWAP1 PUSH2 0x5B55 JUMP JUMPDEST DUP1 ISZERO PUSH2 0xF21 JUMPI DUP1 PUSH1 0x1F LT PUSH2 0xEF8 JUMPI PUSH2 0x100 DUP1 DUP4 SLOAD DIV MUL DUP4 MSTORE SWAP2 PUSH1 0x20 ADD SWAP2 PUSH2 0xF21 JUMP JUMPDEST DUP3 ADD SWAP2 SWAP1 PUSH0 MSTORE PUSH1 0x20 PUSH0 KECCAK256 SWAP1 JUMPDEST DUP2 SLOAD DUP2 MSTORE SWAP1 PUSH1 0x1 ADD SWAP1 PUSH1 0x20 ADD DUP1 DUP4 GT PUSH2 0xF04 JUMPI DUP3 SWAP1 SUB PUSH1 0x1F AND DUP3 ADD SWAP2 JUMPDEST POP POP POP POP POP DUP2 MSTORE PUSH1 0x20 ADD PUSH1 0x7 DUP3 ADD DUP1 SLOAD PUSH2 0xF3A SWAP1 PUSH2 0x5B55 JUMP JUMPDEST DUP1 PUSH1 0x1F ADD PUSH1 0x20 DUP1 SWAP2 DIV MUL PUSH1 0x20 ADD PUSH1 0x40 MLOAD SWAP1 DUP2 ADD PUSH1 0x40 MSTORE DUP1 SWAP3 SWAP2 SWAP1 DUP2 DUP2 MSTORE PUSH1 0x20 ADD DUP3 DUP1 SLOAD PUSH2 0xF66 SWAP1 PUSH2 0x5B55 JUMP JUMPDEST DUP1 ISZERO PUSH2 0xFB1 JUMPI DUP1 PUSH1 0x1F LT PUSH2 0xF88 JUMPI PUSH2 0x100 DUP1 DUP4 SLOAD DIV MUL DUP4 MSTORE SWAP2 PUSH1 0x20 ADD SWAP2 PUSH2 0xFB1 JUMP JUMPDEST DUP3 ADD SWAP2 SWAP1 PUSH0 MSTORE PUSH1 0x20 PUSH0 KECCAK256 SWAP1 JUMPDEST DUP2 SLOAD DUP2 MSTORE SWAP1 PUSH1 0x1 ADD SWAP1 PUSH1 0x20 ADD DUP1 DUP4 GT PUSH2 0xF94 JUMPI DUP3 SWAP1 SUB PUSH1 0x1F AND DUP3 ADD SWAP2 JUMPDEST POP POP POP POP POP DUP2 MSTORE PUSH1 0x20 ADD PUSH1 0x8 DUP3 ADD DUP1 SLOAD PUSH2 0xFCA SWAP1 PUSH2 0x5B55 JUMP JUMPDEST DUP1 PUSH1 0x1F ADD PUSH1 0x20 DUP1 SWAP2 DIV MUL PUSH1 0x20 ADD PUSH1 0x40 MLOAD SWAP1 DUP2 ADD PUSH1 0x40 MSTORE DUP1 SWAP3 SWAP2 SWAP1 DUP2 DUP2 MSTORE PUSH1 0x20 ADD DUP3 DUP1 SLOAD PUSH2 0xFF6 SWAP1 PUSH2 0x5B55 JUMP JUMPDEST DUP1 ISZERO PUSH2 0x1041 JUMPI DUP1 PUSH1 0x1F LT PUSH2 0x1018 JUMPI PUSH2 0x100 DUP1 DUP4 SLOAD DIV MUL DUP4 MSTORE SWAP2 PUSH1 0x20 ADD SWAP2 PUSH2 0x1041 JUMP JUMPDEST DUP3 ADD SWAP2 SWAP1 PUSH0 MSTORE PUSH1 0x20 PUSH0 KECCAK256 SWAP1 JUMPDEST DUP2 SLOAD DUP2 MSTORE SWAP1 PUSH1 0x1 ADD SWAP1 PUSH1 0x20 ADD DUP1 DUP4 GT PUSH2 0x1024 JUMPI DUP3 SWAP1 SUB PUSH1 0x1F AND DUP3 ADD SWAP2 JUMPDEST POP POP POP POP POP DUP2 MSTORE PUSH1 0x20 ADD PUSH1 0x9 DUP3 ADD DUP1 SLOAD PUSH2 0x105A SWAP1 PUSH2 0x5B55 JUMP JUMPDEST DUP1 PUSH1 0x1F ADD PUSH1 0x20 DUP1 SWAP2 DIV MUL PUSH1 0x20 ADD PUSH1 0x40 MLOAD SWAP1 DUP2 ADD PUSH1 0x40 MSTORE DUP1 SWAP3 SWAP2 SWAP1 DUP2 DUP2 MSTORE PUSH1 0x20 ADD DUP3 DUP1 SLOAD PUSH2 0x1086 SWAP1 PUSH2 0x5B55 JUMP JUMPDEST DUP1 ISZERO PUSH2 0x10D1 JUMPI DUP1 PUSH1 0x1F LT PUSH2 0x10A8 JUMPI PUSH2 0x100 DUP1 DUP4 SLOAD DIV MUL DUP4 MSTORE SWAP2 PUSH1 0x20 ADD SWAP2 PUSH2 0x10D1 JUMP JUMPDEST DUP3 ADD SWAP2 SWAP1 PUSH0 MSTORE PUSH1 0x20 PUSH0 KECCAK256 SWAP1 JUMPDEST DUP2 SLOAD DUP2 MSTORE SWAP1 PUSH1 0x1 ADD SWAP1 PUSH1 0x20 ADD DUP1 DUP4 GT PUSH2 0x10B4 JUMPI DUP3 SWAP1 SUB PUSH1 0x1F AND DUP3 ADD SWAP2 JUMPDEST POP POP POP POP POP DUP2 MSTORE POP POP DUP2 MSTORE POP POP DUP2 MSTORE PUSH1 0x20 ADD SWAP1 PUSH1 0x1 ADD SWAP1 PUSH2 0x91B JUMP JUMPDEST PUSH2 0x10F8 PUSH1 0x4 PUSH0 PUSH2 0x539C JUMP JUMPDEST PUSH1 0x40 DUP1 DUP6 ADD MLOAD DUP2 MLOAD PUSH2 0x140 DUP2 ADD SWAP1 SWAP3 MSTORE PUSH2 0x1182 SWAP2 PUSH1 0x8 PUSH1 0xA PUSH0 DUP4 JUMPDEST DUP3 DUP3 LT ISZERO PUSH2 0x1176 JUMPI PUSH1 0x40 DUP1 MLOAD PUSH2 0x140 DUP2 ADD SWAP2 DUP3 SWAP1 MSTORE SWAP1 DUP6 DUP5 ADD SWAP1 PUSH1 0xA SWAP1 DUP3 PUSH0 DUP6 JUMPDEST DUP3 SLOAD PUSH2 0x100 DUP4 SWAP1 EXP SWAP1 DIV PUSH1 0xFF AND DUP2 MSTORE PUSH1 0x20 PUSH1 0x1 SWAP3 DUP4 ADD DUP2 DUP2 DIV SWAP5 DUP6 ADD SWAP5 SWAP1 SWAP4 SUB SWAP1 SWAP3 MUL SWAP2 ADD DUP1 DUP5 GT PUSH2 0x1134 JUMPI SWAP1 POP POP POP POP POP POP DUP2 MSTORE PUSH1 0x20 ADD SWAP1 PUSH1 0x1 ADD SWAP1 PUSH2 0x1113 JUMP JUMPDEST POP POP POP POP PUSH1 0x4 PUSH0 PUSH2 0x3BE0 JUMP JUMPDEST PUSH0 DUP1 JUMPDEST PUSH1 0x6 SLOAD DUP2 LT ISZERO PUSH2 0x2182 JUMPI DUP5 DUP1 MLOAD SWAP1 PUSH1 0x20 ADD KECCAK256 PUSH1 0x6 DUP3 DUP2 SLOAD DUP2 LT PUSH2 0x11AA JUMPI PUSH2 0x11AA PUSH2 0x5B87 JUMP JUMPDEST SWAP1 PUSH0 MSTORE PUSH1 0x20 PUSH0 KECCAK256 SWAP1 PUSH1 0xF MUL ADD PUSH1 0x3 ADD PUSH1 0x40 MLOAD PUSH2 0x11C6 SWAP2 SWAP1 PUSH2 0x5B9B JUMP JUMPDEST PUSH1 0x40 MLOAD DUP1 SWAP2 SUB SWAP1 KECCAK256 SUB PUSH2 0x217A JUMPI PUSH0 JUMPDEST PUSH1 0x4 SLOAD PUSH1 0xFF DUP3 AND LT ISZERO PUSH2 0x2178 JUMPI PUSH1 0x4 DUP2 PUSH1 0xFF AND DUP2 SLOAD DUP2 LT PUSH2 0x11F8 JUMPI PUSH2 0x11F8 PUSH2 0x5B87 JUMP JUMPDEST SWAP1 PUSH0 MSTORE PUSH1 0x20 PUSH0 KECCAK256 SWAP1 PUSH1 0x20 SWAP2 DUP3 DUP3 DIV ADD SWAP2 SWAP1 MOD SWAP1 SLOAD SWAP1 PUSH2 0x100 EXP SWAP1 DIV PUSH1 0xFF AND PUSH1 0xFF AND PUSH1 0x6 DUP4 DUP2 SLOAD DUP2 LT PUSH2 0x122C JUMPI PUSH2 0x122C PUSH2 0x5B87 JUMP JUMPDEST PUSH0 SWAP2 DUP3 MSTORE PUSH1 0x20 SWAP1 SWAP2 KECCAK256 PUSH1 0xF SWAP1 SWAP2 MUL ADD PUSH1 0x1 ADD SLOAD PUSH2 0x100 SWAP1 DIV PUSH1 0xFF AND SUB PUSH2 0x2166 JUMPI PUSH0 PUSH2 0x1824 DUP6 PUSH1 0x6 DUP6 DUP2 SLOAD DUP2 LT PUSH2 0x1264 JUMPI PUSH2 0x1264 PUSH2 0x5B87 JUMP JUMPDEST SWAP1 PUSH0 MSTORE PUSH1 0x20 PUSH0 KECCAK256 SWAP1 PUSH1 0xF MUL ADD PUSH1 0x5 ADD PUSH1 0x40 MLOAD DUP1 PUSH2 0x140 ADD PUSH1 0x40 MSTORE SWAP1 DUP2 PUSH0 DUP3 ADD DUP1 SLOAD PUSH2 0x128E SWAP1 PUSH2 0x5B55 JUMP JUMPDEST DUP1 PUSH1 0x1F ADD PUSH1 0x20 DUP1 SWAP2 DIV MUL PUSH1 0x20 ADD PUSH1 0x40 MLOAD SWAP1 DUP2 ADD PUSH1 0x40 MSTORE DUP1 SWAP3 SWAP2 SWAP1 DUP2 DUP2 MSTORE PUSH1 0x20 ADD DUP3 DUP1 SLOAD PUSH2 0x12BA SWAP1 PUSH2 0x5B55 JUMP JUMPDEST DUP1 ISZERO PUSH2 0x1305 JUMPI DUP1 PUSH1 0x1F LT PUSH2 0x12DC JUMPI PUSH2 0x100 DUP1 DUP4 SLOAD DIV MUL DUP4 MSTORE SWAP2 PUSH1 0x20 ADD SWAP2 PUSH2 0x1305 JUMP JUMPDEST DUP3 ADD SWAP2 SWAP1 PUSH0 MSTORE PUSH1 0x20 PUSH0 KECCAK256 SWAP1 JUMPDEST DUP2 SLOAD DUP2 MSTORE SWAP1 PUSH1 0x1 ADD SWAP1 PUSH1 0x20 ADD DUP1 DUP4 GT PUSH2 0x12E8 JUMPI DUP3 SWAP1 SUB PUSH1 0x1F AND DUP3 ADD SWAP2 JUMPDEST POP POP POP POP POP DUP2 MSTORE PUSH1 0x20 ADD PUSH1 0x1 DUP3 ADD DUP1 SLOAD PUSH2 0x131E SWAP1 PUSH2 0x5B55 JUMP JUMPDEST DUP1 PUSH1 0x1F ADD PUSH1 0x20 DUP1 SWAP2 DIV MUL PUSH1 0x20 ADD PUSH1 0x40 MLOAD SWAP1 DUP2 ADD PUSH1 0x40 MSTORE DUP1 SWAP3 SWAP2 SWAP1 DUP2 DUP2 MSTORE PUSH1 0x20 ADD DUP3 DUP1 SLOAD PUSH2 0x134A SWAP1 PUSH2 0x5B55 JUMP JUMPDEST DUP1 ISZERO PUSH2 0x1395 JUMPI DUP1 PUSH1 0x1F LT PUSH2 0x136C JUMPI PUSH2 0x100 DUP1 DUP4 SLOAD DIV MUL DUP4 MSTORE SWAP2 PUSH1 0x20 ADD SWAP2 PUSH2 0x1395 JUMP JUMPDEST DUP3 ADD SWAP2 SWAP1 PUSH0 MSTORE PUSH1 0x20 PUSH0 KECCAK256 SWAP1 JUMPDEST DUP2 SLOAD DUP2 MSTORE SWAP1 PUSH1 0x1 ADD SWAP1 PUSH1 0x20 ADD DUP1 DUP4 GT PUSH2 0x1378 JUMPI DUP3 SWAP1 SUB PUSH1 0x1F AND DUP3 ADD SWAP2 JUMPDEST POP POP POP POP POP DUP2 MSTORE PUSH1 0x20 ADD PUSH1 0x2 DUP3 ADD DUP1 SLOAD PUSH2 0x13AE SWAP1 PUSH2 0x5B55 JUMP JUMPDEST DUP1 PUSH1 0x1F ADD PUSH1 0x20 DUP1 SWAP2 DIV MUL PUSH1 0x20 ADD PUSH1 0x40 MLOAD SWAP1 DUP2 ADD PUSH1 0x40 MSTORE DUP1 SWAP3 SWAP2 SWAP1 DUP2 DUP2 MSTORE PUSH1 0x20 ADD DUP3 DUP1 SLOAD PUSH2 0x13DA SWAP1 PUSH2 0x5B55 JUMP JUMPDEST DUP1 ISZERO PUSH2 0x1425 JUMPI DUP1 PUSH1 0x1F LT PUSH2 0x13FC JUMPI PUSH2 0x100 DUP1 DUP4 SLOAD DIV MUL DUP4 MSTORE SWAP2 PUSH1 0x20 ADD SWAP2 PUSH2 0x1425 JUMP JUMPDEST DUP3 ADD SWAP2 SWAP1 PUSH0 MSTORE PUSH1 0x20 PUSH0 KECCAK256 SWAP1 JUMPDEST DUP2 SLOAD DUP2 MSTORE SWAP1 PUSH1 0x1 ADD SWAP1 PUSH1 0x20 ADD DUP1 DUP4 GT PUSH2 0x1408 JUMPI DUP3 SWAP1 SUB PUSH1 0x1F AND DUP3 ADD SWAP2 JUMPDEST POP POP POP POP POP DUP2 MSTORE PUSH1 0x20 ADD PUSH1 0x3 DUP3 ADD DUP1 SLOAD PUSH2 0x143E SWAP1 PUSH2 0x5B55 JUMP JUMPDEST DUP1 PUSH1 0x1F ADD PUSH1 0x20 DUP1 SWAP2 DIV MUL PUSH1 0x20 ADD PUSH1 0x40 MLOAD SWAP1 DUP2 ADD PUSH1 0x40 MSTORE DUP1 SWAP3 SWAP2 SWAP1 DUP2 DUP2 MSTORE PUSH1 0x20 ADD DUP3 DUP1 SLOAD PUSH2 0x146A SWAP1 PUSH2 0x5B55 JUMP JUMPDEST DUP1 ISZERO PUSH2 0x14B5 JUMPI DUP1 PUSH1 0x1F LT PUSH2 0x148C JUMPI PUSH2 0x100 DUP1 DUP4 SLOAD DIV MUL DUP4 MSTORE SWAP2 PUSH1 0x20 ADD SWAP2 PUSH2 0x14B5 JUMP JUMPDEST DUP3 ADD SWAP2 SWAP1 PUSH0 MSTORE PUSH1 0x20 PUSH0 KECCAK256 SWAP1 JUMPDEST DUP2 SLOAD DUP2 MSTORE SWAP1 PUSH1 0x1 ADD SWAP1 PUSH1 0x20 ADD DUP1 DUP4 GT PUSH2 0x1498 JUMPI DUP3 SWAP1 SUB PUSH1 0x1F AND DUP3 ADD SWAP2 JUMPDEST POP POP POP POP POP DUP2 MSTORE PUSH1 0x20 ADD PUSH1 0x4 DUP3 ADD DUP1 SLOAD PUSH2 0x14CE SWAP1 PUSH2 0x5B55 JUMP JUMPDEST DUP1 PUSH1 0x1F ADD PUSH1 0x20 DUP1 SWAP2 DIV MUL PUSH1 0x20 ADD PUSH1 0x40 MLOAD SWAP1 DUP2 ADD PUSH1 0x40 MSTORE DUP1 SWAP3 SWAP2 SWAP1 DUP2 DUP2 MSTORE PUSH1 0x20 ADD DUP3 DUP1 SLOAD PUSH2 0x14FA SWAP1 PUSH2 0x5B55 JUMP JUMPDEST DUP1 ISZERO PUSH2 0x1545 JUMPI DUP1 PUSH1 0x1F LT PUSH2 0x151C JUMPI PUSH2 0x100 DUP1 DUP4 SLOAD DIV MUL DUP4 MSTORE SWAP2 PUSH1 0x20 ADD SWAP2 PUSH2 0x1545 JUMP JUMPDEST DUP3 ADD SWAP2 SWAP1 PUSH0 MSTORE PUSH1 0x20 PUSH0 KECCAK256 SWAP1 JUMPDEST DUP2 SLOAD DUP2 MSTORE SWAP1 PUSH1 0x1 ADD SWAP1 PUSH1 0x20 ADD DUP1 DUP4 GT PUSH2 0x1528 JUMPI DUP3 SWAP1 SUB PUSH1 0x1F AND DUP3 ADD SWAP2 JUMPDEST POP POP POP POP POP DUP2 MSTORE PUSH1 0x20 ADD PUSH1 0x5 DUP3 ADD DUP1 SLOAD PUSH2 0x155E SWAP1 PUSH2 0x5B55 JUMP JUMPDEST DUP1 PUSH1 0x1F ADD PUSH1 0x20 DUP1 SWAP2 DIV MUL PUSH1 0x20 ADD PUSH1 0x40 MLOAD SWAP1 DUP2 ADD PUSH1 0x40 MSTORE DUP1 SWAP3 SWAP2 SWAP1 DUP2 DUP2 MSTORE PUSH1 0x20 ADD DUP3 DUP1 SLOAD PUSH2 0x158A SWAP1 PUSH2 0x5B55 JUMP JUMPDEST DUP1 ISZERO PUSH2 0x15D5 JUMPI DUP1 PUSH1 0x1F LT PUSH2 0x15AC JUMPI PUSH2 0x100 DUP1 DUP4 SLOAD DIV MUL DUP4 MSTORE SWAP2 PUSH1 0x20 ADD SWAP2 PUSH2 0x15D5 JUMP JUMPDEST DUP3 ADD SWAP2 SWAP1 PUSH0 MSTORE PUSH1 0x20 PUSH0 KECCAK256 SWAP1 JUMPDEST DUP2 SLOAD DUP2 MSTORE SWAP1 PUSH1 0x1 ADD SWAP1 PUSH1 0x20 ADD DUP1 DUP4 GT PUSH2 0x15B8 JUMPI DUP3 SWAP1 SUB PUSH1 0x1F AND DUP3 ADD SWAP2 JUMPDEST POP POP POP POP POP DUP2 MSTORE PUSH1 0x20 ADD PUSH1 0x6 DUP3 ADD DUP1 SLOAD PUSH2 0x15EE SWAP1 PUSH2 0x5B55 JUMP JUMPDEST DUP1 PUSH1 0x1F ADD PUSH1 0x20 DUP1 SWAP2 DIV MUL PUSH1 0x20 ADD PUSH1 0x40 MLOAD SWAP1 DUP2 ADD PUSH1 0x40 MSTORE DUP1 SWAP3 SWAP2 SWAP1 DUP2 DUP2 MSTORE PUSH1 0x20 ADD DUP3 DUP1 SLOAD PUSH2 0x161A SWAP1 PUSH2 0x5B55 JUMP JUMPDEST DUP1 ISZERO PUSH2 0x1665 JUMPI DUP1 PUSH1 0x1F LT PUSH2 0x163C JUMPI PUSH2 0x100 DUP1 DUP4 SLOAD DIV MUL DUP4 MSTORE SWAP2 PUSH1 0x20 ADD SWAP2 PUSH2 0x1665 JUMP JUMPDEST DUP3 ADD SWAP2 SWAP1 PUSH0 MSTORE PUSH1 0x20 PUSH0 KECCAK256 SWAP1 JUMPDEST DUP2 SLOAD DUP2 MSTORE SWAP1 PUSH1 0x1 ADD SWAP1 PUSH1 0x20 ADD DUP1 DUP4 GT PUSH2 0x1648 JUMPI DUP3 SWAP1 SUB PUSH1 0x1F AND DUP3 ADD SWAP2 JUMPDEST POP POP POP POP POP DUP2 MSTORE PUSH1 0x20 ADD PUSH1 0x7 DUP3 ADD DUP1 SLOAD PUSH2 0x167E SWAP1 PUSH2 0x5B55 JUMP JUMPDEST DUP1 PUSH1 0x1F ADD PUSH1 0x20 DUP1 SWAP2 DIV MUL PUSH1 0x20 ADD PUSH1 0x40 MLOAD SWAP1 DUP2 ADD PUSH1 0x40 MSTORE DUP1 SWAP3 SWAP2 SWAP1 DUP2 DUP2 MSTORE PUSH1 0x20 ADD DUP3 DUP1 SLOAD PUSH2 0x16AA SWAP1 PUSH2 0x5B55 JUMP JUMPDEST DUP1 ISZERO PUSH2 0x16F5 JUMPI DUP1 PUSH1 0x1F LT PUSH2 0x16CC JUMPI PUSH2 0x100 DUP1 DUP4 SLOAD DIV MUL DUP4 MSTORE SWAP2 PUSH1 0x20 ADD SWAP2 PUSH2 0x16F5 JUMP JUMPDEST DUP3 ADD SWAP2 SWAP1 PUSH0 MSTORE PUSH1 0x20 PUSH0 KECCAK256 SWAP1 JUMPDEST DUP2 SLOAD DUP2 MSTORE SWAP1 PUSH1 0x1 ADD SWAP1 PUSH1 0x20 ADD DUP1 DUP4 GT PUSH2 0x16D8 JUMPI DUP3 SWAP1 SUB PUSH1 0x1F AND DUP3 ADD SWAP2 JUMPDEST POP POP POP POP POP DUP2 MSTORE PUSH1 0x20 ADD PUSH1 0x8 DUP3 ADD DUP1 SLOAD PUSH2 0x170E SWAP1 PUSH2 0x5B55 JUMP JUMPDEST DUP1 PUSH1 0x1F ADD PUSH1 0x20 DUP1 SWAP2 DIV MUL PUSH1 0x20 ADD PUSH1 0x40 MLOAD SWAP1 DUP2 ADD PUSH1 0x40 MSTORE DUP1 SWAP3 SWAP2 SWAP1 DUP2 DUP2 MSTORE PUSH1 0x20 ADD DUP3 DUP1 SLOAD PUSH2 0x173A SWAP1 PUSH2 0x5B55 JUMP JUMPDEST DUP1 ISZERO PUSH2 0x1785 JUMPI DUP1 PUSH1 0x1F LT PUSH2 0x175C JUMPI PUSH2 0x100 DUP1 DUP4 SLOAD DIV MUL DUP4 MSTORE SWAP2 PUSH1 0x20 ADD SWAP2 PUSH2 0x1785 JUMP JUMPDEST DUP3 ADD SWAP2 SWAP1 PUSH0 MSTORE PUSH1 0x20 PUSH0 KECCAK256 SWAP1 JUMPDEST DUP2 SLOAD DUP2 MSTORE SWAP1 PUSH1 0x1 ADD SWAP1 PUSH1 0x20 ADD DUP1 DUP4 GT PUSH2 0x1768 JUMPI DUP3 SWAP1 SUB PUSH1 0x1F AND DUP3 ADD SWAP2 JUMPDEST POP POP POP POP POP DUP2 MSTORE PUSH1 0x20 ADD PUSH1 0x9 DUP3 ADD DUP1 SLOAD PUSH2 0x179E SWAP1 PUSH2 0x5B55 JUMP JUMPDEST DUP1 PUSH1 0x1F ADD PUSH1 0x20 DUP1 SWAP2 DIV MUL PUSH1 0x20 ADD PUSH1 0x40 MLOAD SWAP1 DUP2 ADD PUSH1 0x40 MSTORE DUP1 SWAP3 SWAP2 SWAP1 DUP2 DUP2 MSTORE PUSH1 0x20 ADD DUP3 DUP1 SLOAD PUSH2 0x17CA SWAP1 PUSH2 0x5B55 JUMP JUMPDEST DUP1 ISZERO PUSH2 0x1815 JUMPI DUP1 PUSH1 0x1F LT PUSH2 0x17EC JUMPI PUSH2 0x100 DUP1 DUP4 SLOAD DIV MUL DUP4 MSTORE SWAP2 PUSH1 0x20 ADD SWAP2 PUSH2 0x1815 JUMP JUMPDEST DUP3 ADD SWAP2 SWAP1 PUSH0 MSTORE PUSH1 0x20 PUSH0 KECCAK256 SWAP1 JUMPDEST DUP2 SLOAD DUP2 MSTORE SWAP1 PUSH1 0x1 ADD SWAP1 PUSH1 0x20 ADD DUP1 DUP4 GT PUSH2 0x17F8 JUMPI DUP3 SWAP1 SUB PUSH1 0x1F AND DUP3 ADD SWAP2 JUMPDEST POP POP POP POP POP DUP2 MSTORE POP POP DUP4 PUSH2 0x3D56 JUMP JUMPDEST SWAP1 POP PUSH2 0x1831 DUP8 PUSH1 0x3 PUSH2 0x3E7F JUMP JUMPDEST DUP2 PUSH1 0xFF AND LT PUSH2 0x2164 JUMPI PUSH1 0x1 SWAP4 POP PUSH0 DUP1 MLOAD PUSH1 0x20 PUSH2 0x5FD9 DUP4 CODECOPY DUP2 MLOAD SWAP2 MSTORE PUSH1 0x6 DUP5 DUP2 SLOAD DUP2 LT PUSH2 0x185F JUMPI PUSH2 0x185F PUSH2 0x5B87 JUMP JUMPDEST SWAP1 PUSH0 MSTORE PUSH1 0x20 PUSH0 KECCAK256 SWAP1 PUSH1 0xF MUL ADD PUSH0 ADD PUSH1 0x6 DUP6 DUP2 SLOAD DUP2 LT PUSH2 0x1880 JUMPI PUSH2 0x1880 PUSH2 0x5B87 JUMP JUMPDEST SWAP1 PUSH0 MSTORE PUSH1 0x20 PUSH0 KECCAK256 SWAP1 PUSH1 0xF MUL ADD PUSH1 0x3 ADD PUSH1 0x6 DUP7 DUP2 SLOAD DUP2 LT PUSH2 0x18A2 JUMPI PUSH2 0x18A2 PUSH2 0x5B87 JUMP JUMPDEST PUSH0 SWAP2 DUP3 MSTORE PUSH1 0x20 SWAP1 SWAP2 KECCAK256 PUSH1 0x4 PUSH1 0xF SWAP1 SWAP3 MUL ADD ADD SLOAD PUSH1 0xFF AND PUSH2 0x18C3 DUP6 PUSH1 0xA PUSH2 0x5C20 JUMP JUMPDEST PUSH1 0x40 MLOAD PUSH2 0x18D3 SWAP5 SWAP4 SWAP3 SWAP2 SWAP1 PUSH2 0x5CC1 JUMP JUMPDEST PUSH1 0x40 MLOAD DUP1 SWAP2 SUB SWAP1 LOG1 PUSH0 PUSH1 0x6 DUP5 DUP2 SLOAD DUP2 LT PUSH2 0x18EF JUMPI PUSH2 0x18EF PUSH2 0x5B87 JUMP JUMPDEST PUSH0 SWAP2 DUP3 MSTORE PUSH1 0x20 SWAP1 SWAP2 KECCAK256 PUSH1 0x4 PUSH1 0xF SWAP1 SWAP3 MUL ADD ADD SLOAD PUSH2 0x190F SWAP1 PUSH1 0xFF AND DUP9 PUSH2 0x5D3D JUMP JUMPDEST SWAP1 POP PUSH0 DUP2 PUSH0 SIGNEXTEND SGT ISZERO PUSH2 0x20DE JUMPI PUSH2 0x20BE PUSH1 0x7 DUP11 PUSH1 0x6 DUP8 DUP2 SLOAD DUP2 LT PUSH2 0x1934 JUMPI PUSH2 0x1934 PUSH2 0x5B87 JUMP JUMPDEST SWAP1 PUSH0 MSTORE PUSH1 0x20 PUSH0 KECCAK256 SWAP1 PUSH1 0xF MUL ADD PUSH0 ADD PUSH1 0x40 MLOAD DUP1 PUSH1 0x80 ADD PUSH1 0x40 MSTORE SWAP1 DUP2 PUSH0 DUP3 ADD DUP1 SLOAD PUSH2 0x195C SWAP1 PUSH2 0x5B55 JUMP JUMPDEST DUP1 PUSH1 0x1F ADD PUSH1 0x20 DUP1 SWAP2 DIV MUL PUSH1 0x20 ADD PUSH1 0x40 MLOAD SWAP1 DUP2 ADD PUSH1 0x40 MSTORE DUP1 SWAP3 SWAP2 SWAP1 DUP2 DUP2 MSTORE PUSH1 0x20 ADD DUP3 DUP1 SLOAD PUSH2 0x1988 SWAP1 PUSH2 0x5B55 JUMP JUMPDEST DUP1 ISZERO PUSH2 0x19D3 JUMPI DUP1 PUSH1 0x1F LT PUSH2 0x19AA JUMPI PUSH2 0x100 DUP1 DUP4 SLOAD DIV MUL DUP4 MSTORE SWAP2 PUSH1 0x20 ADD SWAP2 PUSH2 0x19D3 JUMP JUMPDEST DUP3 ADD SWAP2 SWAP1 PUSH0 MSTORE PUSH1 0x20 PUSH0 KECCAK256 SWAP1 JUMPDEST DUP2 SLOAD DUP2 MSTORE SWAP1 PUSH1 0x1 ADD SWAP1 PUSH1 0x20 ADD DUP1 DUP4 GT PUSH2 0x19B6 JUMPI DUP3 SWAP1 SUB PUSH1 0x1F AND DUP3 ADD SWAP2 JUMPDEST POP POP POP SWAP2 DUP4 MSTORE POP POP PUSH1 0x1 DUP3 ADD SLOAD PUSH1 0xFF DUP1 DUP3 AND PUSH1 0x20 DUP5 ADD MSTORE PUSH2 0x100 SWAP1 SWAP2 DIV AND PUSH1 0x40 DUP3 ADD MSTORE PUSH1 0x2 DUP3 ADD DUP1 SLOAD PUSH1 0x60 SWAP1 SWAP3 ADD SWAP2 PUSH2 0x1A0B SWAP1 PUSH2 0x5B55 JUMP JUMPDEST DUP1 PUSH1 0x1F ADD PUSH1 0x20 DUP1 SWAP2 DIV MUL PUSH1 0x20 ADD PUSH1 0x40 MLOAD SWAP1 DUP2 ADD PUSH1 0x40 MSTORE DUP1 SWAP3 SWAP2 SWAP1 DUP2 DUP2 MSTORE PUSH1 0x20 ADD DUP3 DUP1 SLOAD PUSH2 0x1A37 SWAP1 PUSH2 0x5B55 JUMP JUMPDEST DUP1 ISZERO PUSH2 0x1A82 JUMPI DUP1 PUSH1 0x1F LT PUSH2 0x1A59 JUMPI PUSH2 0x100 DUP1 DUP4 SLOAD DIV MUL DUP4 MSTORE SWAP2 PUSH1 0x20 ADD SWAP2 PUSH2 0x1A82 JUMP JUMPDEST DUP3 ADD SWAP2 SWAP1 PUSH0 MSTORE PUSH1 0x20 PUSH0 KECCAK256 SWAP1 JUMPDEST DUP2 SLOAD DUP2 MSTORE SWAP1 PUSH1 0x1 ADD SWAP1 PUSH1 0x20 ADD DUP1 DUP4 GT PUSH2 0x1A65 JUMPI DUP3 SWAP1 SUB PUSH1 0x1F AND DUP3 ADD SWAP2 JUMPDEST POP POP POP POP POP DUP2 MSTORE POP POP DUP12 DUP12 PUSH1 0x6 DUP11 DUP2 SLOAD DUP2 LT PUSH2 0x1AA0 JUMPI PUSH2 0x1AA0 PUSH2 0x5B87 JUMP JUMPDEST SWAP1 PUSH0 MSTORE PUSH1 0x20 PUSH0 KECCAK256 SWAP1 PUSH1 0xF MUL ADD PUSH1 0x4 ADD PUSH0 SWAP1 SLOAD SWAP1 PUSH2 0x100 EXP SWAP1 DIV PUSH1 0xFF AND PUSH1 0x6 DUP12 DUP2 SLOAD DUP2 LT PUSH2 0x1ACF JUMPI PUSH2 0x1ACF PUSH2 0x5B87 JUMP JUMPDEST SWAP1 PUSH0 MSTORE PUSH1 0x20 PUSH0 KECCAK256 SWAP1 PUSH1 0xF MUL ADD PUSH1 0x4 ADD PUSH0 SWAP1 SLOAD SWAP1 PUSH2 0x100 EXP SWAP1 DIV PUSH1 0xFF AND DUP14 PUSH1 0x6 DUP14 DUP2 SLOAD DUP2 LT PUSH2 0x1AFF JUMPI PUSH2 0x1AFF PUSH2 0x5B87 JUMP JUMPDEST SWAP1 PUSH0 MSTORE PUSH1 0x20 PUSH0 KECCAK256 SWAP1 PUSH1 0xF MUL ADD PUSH1 0x5 ADD PUSH1 0x40 MLOAD DUP1 PUSH2 0x140 ADD PUSH1 0x40 MSTORE SWAP1 DUP2 PUSH0 DUP3 ADD DUP1 SLOAD PUSH2 0x1B29 SWAP1 PUSH2 0x5B55 JUMP JUMPDEST DUP1 PUSH1 0x1F ADD PUSH1 0x20 DUP1 SWAP2 DIV MUL PUSH1 0x20 ADD PUSH1 0x40 MLOAD SWAP1 DUP2 ADD PUSH1 0x40 MSTORE DUP1 SWAP3 SWAP2 SWAP1 DUP2 DUP2 MSTORE PUSH1 0x20 ADD DUP3 DUP1 SLOAD PUSH2 0x1B55 SWAP1 PUSH2 0x5B55 JUMP JUMPDEST DUP1 ISZERO PUSH2 0x1BA0 JUMPI DUP1 PUSH1 0x1F LT PUSH2 0x1B77 JUMPI PUSH2 0x100 DUP1 DUP4 SLOAD DIV MUL DUP4 MSTORE SWAP2 PUSH1 0x20 ADD SWAP2 PUSH2 0x1BA0 JUMP JUMPDEST DUP3 ADD SWAP2 SWAP1 PUSH0 MSTORE PUSH1 0x20 PUSH0 KECCAK256 SWAP1 JUMPDEST DUP2 SLOAD DUP2 MSTORE SWAP1 PUSH1 0x1 ADD SWAP1 PUSH1 0x20 ADD DUP1 DUP4 GT PUSH2 0x1B83 JUMPI DUP3 SWAP1 SUB PUSH1 0x1F AND DUP3 ADD SWAP2 JUMPDEST POP POP POP POP POP DUP2 MSTORE PUSH1 0x20 ADD PUSH1 0x1 DUP3 ADD DUP1 SLOAD PUSH2 0x1BB9 SWAP1 PUSH2 0x5B55 JUMP JUMPDEST DUP1 PUSH1 0x1F ADD PUSH1 0x20 DUP1 SWAP2 DIV MUL PUSH1 0x20 ADD PUSH1 0x40 MLOAD SWAP1 DUP2 ADD PUSH1 0x40 MSTORE DUP1 SWAP3 SWAP2 SWAP1 DUP2 DUP2 MSTORE PUSH1 0x20 ADD DUP3 DUP1 SLOAD PUSH2 0x1BE5 SWAP1 PUSH2 0x5B55 JUMP JUMPDEST DUP1 ISZERO PUSH2 0x1C30 JUMPI DUP1 PUSH1 0x1F LT PUSH2 0x1C07 JUMPI PUSH2 0x100 DUP1 DUP4 SLOAD DIV MUL DUP4 MSTORE SWAP2 PUSH1 0x20 ADD SWAP2 PUSH2 0x1C30 JUMP JUMPDEST DUP3 ADD SWAP2 SWAP1 PUSH0 MSTORE PUSH1 0x20 PUSH0 KECCAK256 SWAP1 JUMPDEST DUP2 SLOAD DUP2 MSTORE SWAP1 PUSH1 0x1 ADD SWAP1 PUSH1 0x20 ADD DUP1 DUP4 GT PUSH2 0x1C13 JUMPI DUP3 SWAP1 SUB PUSH1 0x1F AND DUP3 ADD SWAP2 JUMPDEST POP POP POP POP POP DUP2 MSTORE PUSH1 0x20 ADD PUSH1 0x2 DUP3 ADD DUP1 SLOAD PUSH2 0x1C49 SWAP1 PUSH2 0x5B55 JUMP JUMPDEST DUP1 PUSH1 0x1F ADD PUSH1 0x20 DUP1 SWAP2 DIV MUL PUSH1 0x20 ADD PUSH1 0x40 MLOAD SWAP1 DUP2 ADD PUSH1 0x40 MSTORE DUP1 SWAP3 SWAP2 SWAP1 DUP2 DUP2 MSTORE PUSH1 0x20 ADD DUP3 DUP1 SLOAD PUSH2 0x1C75 SWAP1 PUSH2 0x5B55 JUMP JUMPDEST DUP1 ISZERO PUSH2 0x1CC0 JUMPI DUP1 PUSH1 0x1F LT PUSH2 0x1C97 JUMPI PUSH2 0x100 DUP1 DUP4 SLOAD DIV MUL DUP4 MSTORE SWAP2 PUSH1 0x20 ADD SWAP2 PUSH2 0x1CC0 JUMP JUMPDEST DUP3 ADD SWAP2 SWAP1 PUSH0 MSTORE PUSH1 0x20 PUSH0 KECCAK256 SWAP1 JUMPDEST DUP2 SLOAD DUP2 MSTORE SWAP1 PUSH1 0x1 ADD SWAP1 PUSH1 0x20 ADD DUP1 DUP4 GT PUSH2 0x1CA3 JUMPI DUP3 SWAP1 SUB PUSH1 0x1F AND DUP3 ADD SWAP2 JUMPDEST POP POP POP POP POP DUP2 MSTORE PUSH1 0x20 ADD PUSH1 0x3 DUP3 ADD DUP1 SLOAD PUSH2 0x1CD9 SWAP1 PUSH2 0x5B55 JUMP JUMPDEST DUP1 PUSH1 0x1F ADD PUSH1 0x20 DUP1 SWAP2 DIV MUL PUSH1 0x20 ADD PUSH1 0x40 MLOAD SWAP1 DUP2 ADD PUSH1 0x40 MSTORE DUP1 SWAP3 SWAP2 SWAP1 DUP2 DUP2 MSTORE PUSH1 0x20 ADD DUP3 DUP1 SLOAD PUSH2 0x1D05 SWAP1 PUSH2 0x5B55 JUMP JUMPDEST DUP1 ISZERO PUSH2 0x1D50 JUMPI DUP1 PUSH1 0x1F LT PUSH2 0x1D27 JUMPI PUSH2 0x100 DUP1 DUP4 SLOAD DIV MUL DUP4 MSTORE SWAP2 PUSH1 0x20 ADD SWAP2 PUSH2 0x1D50 JUMP JUMPDEST DUP3 ADD SWAP2 SWAP1 PUSH0 MSTORE PUSH1 0x20 PUSH0 KECCAK256 SWAP1 JUMPDEST DUP2 SLOAD DUP2 MSTORE SWAP1 PUSH1 0x1 ADD SWAP1 PUSH1 0x20 ADD DUP1 DUP4 GT PUSH2 0x1D33 JUMPI DUP3 SWAP1 SUB PUSH1 0x1F AND DUP3 ADD SWAP2 JUMPDEST POP POP POP POP POP DUP2 MSTORE PUSH1 0x20 ADD PUSH1 0x4 DUP3 ADD DUP1 SLOAD PUSH2 0x1D69 SWAP1 PUSH2 0x5B55 JUMP JUMPDEST DUP1 PUSH1 0x1F ADD PUSH1 0x20 DUP1 SWAP2 DIV MUL PUSH1 0x20 ADD PUSH1 0x40 MLOAD SWAP1 DUP2 ADD PUSH1 0x40 MSTORE DUP1 SWAP3 SWAP2 SWAP1 DUP2 DUP2 MSTORE PUSH1 0x20 ADD DUP3 DUP1 SLOAD PUSH2 0x1D95 SWAP1 PUSH2 0x5B55 JUMP JUMPDEST DUP1 ISZERO PUSH2 0x1DE0 JUMPI DUP1 PUSH1 0x1F LT PUSH2 0x1DB7 JUMPI PUSH2 0x100 DUP1 DUP4 SLOAD DIV MUL DUP4 MSTORE SWAP2 PUSH1 0x20 ADD SWAP2 PUSH2 0x1DE0 JUMP JUMPDEST DUP3 ADD SWAP2 SWAP1 PUSH0 MSTORE PUSH1 0x20 PUSH0 KECCAK256 SWAP1 JUMPDEST DUP2 SLOAD DUP2 MSTORE SWAP1 PUSH1 0x1 ADD SWAP1 PUSH1 0x20 ADD DUP1 DUP4 GT PUSH2 0x1DC3 JUMPI DUP3 SWAP1 SUB PUSH1 0x1F AND DUP3 ADD SWAP2 JUMPDEST POP POP POP POP POP DUP2 MSTORE PUSH1 0x20 ADD PUSH1 0x5 DUP3 ADD DUP1 SLOAD PUSH2 0x1DF9 SWAP1 PUSH2 0x5B55 JUMP JUMPDEST DUP1 PUSH1 0x1F ADD PUSH1 0x20 DUP1 SWAP2 DIV MUL PUSH1 0x20 ADD PUSH1 0x40 MLOAD SWAP1 DUP2 ADD PUSH1 0x40 MSTORE DUP1 SWAP3 SWAP2 SWAP1 DUP2 DUP2 MSTORE PUSH1 0x20 ADD DUP3 DUP1 SLOAD PUSH2 0x1E25 SWAP1 PUSH2 0x5B55 JUMP JUMPDEST DUP1 ISZERO PUSH2 0x1E70 JUMPI DUP1 PUSH1 0x1F LT PUSH2 0x1E47 JUMPI PUSH2 0x100 DUP1 DUP4 SLOAD DIV MUL DUP4 MSTORE SWAP2 PUSH1 0x20 ADD SWAP2 PUSH2 0x1E70 JUMP JUMPDEST DUP3 ADD SWAP2 SWAP1 PUSH0 MSTORE PUSH1 0x20 PUSH0 KECCAK256 SWAP1 JUMPDEST DUP2 SLOAD DUP2 MSTORE SWAP1 PUSH1 0x1 ADD SWAP1 PUSH1 0x20 ADD DUP1 DUP4 GT PUSH2 0x1E53 JUMPI DUP3 SWAP1 SUB PUSH1 0x1F AND DUP3 ADD SWAP2 JUMPDEST POP POP POP POP POP DUP2 MSTORE PUSH1 0x20 ADD PUSH1 0x6 DUP3 ADD DUP1 SLOAD PUSH2 0x1E89 SWAP1 PUSH2 0x5B55 JUMP JUMPDEST DUP1 PUSH1 0x1F ADD PUSH1 0x20 DUP1 SWAP2 DIV MUL PUSH1 0x20 ADD PUSH1 0x40 MLOAD SWAP1 DUP2 ADD PUSH1 0x40 MSTORE DUP1 SWAP3 SWAP2 SWAP1 DUP2 DUP2 MSTORE PUSH1 0x20 ADD DUP3 DUP1 SLOAD PUSH2 0x1EB5 SWAP1 PUSH2 0x5B55 JUMP JUMPDEST DUP1 ISZERO PUSH2 0x1F00 JUMPI DUP1 PUSH1 0x1F LT PUSH2 0x1ED7 JUMPI PUSH2 0x100 DUP1 DUP4 SLOAD DIV MUL DUP4 MSTORE SWAP2 PUSH1 0x20 ADD SWAP2 PUSH2 0x1F00 JUMP JUMPDEST DUP3 ADD SWAP2 SWAP1 PUSH0 MSTORE PUSH1 0x20 PUSH0 KECCAK256 SWAP1 JUMPDEST DUP2 SLOAD DUP2 MSTORE SWAP1 PUSH1 0x1 ADD SWAP1 PUSH1 0x20 ADD DUP1 DUP4 GT PUSH2 0x1EE3 JUMPI DUP3 SWAP1 SUB PUSH1 0x1F AND DUP3 ADD SWAP2 JUMPDEST POP POP POP POP POP DUP2 MSTORE PUSH1 0x20 ADD PUSH1 0x7 DUP3 ADD DUP1 SLOAD PUSH2 0x1F19 SWAP1 PUSH2 0x5B55 JUMP JUMPDEST DUP1 PUSH1 0x1F ADD PUSH1 0x20 DUP1 SWAP2 DIV MUL PUSH1 0x20 ADD PUSH1 0x40 MLOAD SWAP1 DUP2 ADD PUSH1 0x40 MSTORE DUP1 SWAP3 SWAP2 SWAP1 DUP2 DUP2 MSTORE PUSH1 0x20 ADD DUP3 DUP1 SLOAD PUSH2 0x1F45 SWAP1 PUSH2 0x5B55 JUMP JUMPDEST DUP1 ISZERO PUSH2 0x1F90 JUMPI DUP1 PUSH1 0x1F LT PUSH2 0x1F67 JUMPI PUSH2 0x100 DUP1 DUP4 SLOAD DIV MUL DUP4 MSTORE SWAP2 PUSH1 0x20 ADD SWAP2 PUSH2 0x1F90 JUMP JUMPDEST DUP3 ADD SWAP2 SWAP1 PUSH0 MSTORE PUSH1 0x20 PUSH0 KECCAK256 SWAP1 JUMPDEST DUP2 SLOAD DUP2 MSTORE SWAP1 PUSH1 0x1 ADD SWAP1 PUSH1 0x20 ADD DUP1 DUP4 GT PUSH2 0x1F73 JUMPI DUP3 SWAP1 SUB PUSH1 0x1F AND DUP3 ADD SWAP2 JUMPDEST POP POP POP POP POP DUP2 MSTORE PUSH1 0x20 ADD PUSH1 0x8 DUP3 ADD DUP1 SLOAD PUSH2 0x1FA9 SWAP1 PUSH2 0x5B55 JUMP JUMPDEST DUP1 PUSH1 0x1F ADD PUSH1 0x20 DUP1 SWAP2 DIV MUL PUSH1 0x20 ADD PUSH1 0x40 MLOAD SWAP1 DUP2 ADD PUSH1 0x40 MSTORE DUP1 SWAP3 SWAP2 SWAP1 DUP2 DUP2 MSTORE PUSH1 0x20 ADD DUP3 DUP1 SLOAD PUSH2 0x1FD5 SWAP1 PUSH2 0x5B55 JUMP JUMPDEST DUP1 ISZERO PUSH2 0x2020 JUMPI DUP1 PUSH1 0x1F LT PUSH2 0x1FF7 JUMPI PUSH2 0x100 DUP1 DUP4 SLOAD DIV MUL DUP4 MSTORE SWAP2 PUSH1 0x20 ADD SWAP2 PUSH2 0x2020 JUMP JUMPDEST DUP3 ADD SWAP2 SWAP1 PUSH0 MSTORE PUSH1 0x20 PUSH0 KECCAK256 SWAP1 JUMPDEST DUP2 SLOAD DUP2 MSTORE SWAP1 PUSH1 0x1 ADD SWAP1 PUSH1 0x20 ADD DUP1 DUP4 GT PUSH2 0x2003 JUMPI DUP3 SWAP1 SUB PUSH1 0x1F AND DUP3 ADD SWAP2 JUMPDEST POP POP POP POP POP DUP2 MSTORE PUSH1 0x20 ADD PUSH1 0x9 DUP3 ADD DUP1 SLOAD PUSH2 0x2039 SWAP1 PUSH2 0x5B55 JUMP JUMPDEST DUP1 PUSH1 0x1F ADD PUSH1 0x20 DUP1 SWAP2 DIV MUL PUSH1 0x20 ADD PUSH1 0x40 MLOAD SWAP1 DUP2 ADD PUSH1 0x40 MSTORE DUP1 SWAP3 SWAP2 SWAP1 DUP2 DUP2 MSTORE PUSH1 0x20 ADD DUP3 DUP1 SLOAD PUSH2 0x2065 SWAP1 PUSH2 0x5B55 JUMP JUMPDEST DUP1 ISZERO PUSH2 0x20B0 JUMPI DUP1 PUSH1 0x1F LT PUSH2 0x2087 JUMPI PUSH2 0x100 DUP1 DUP4 SLOAD DIV MUL DUP4 MSTORE SWAP2 PUSH1 0x20 ADD SWAP2 PUSH2 0x20B0 JUMP JUMPDEST DUP3 ADD SWAP2 SWAP1 PUSH0 MSTORE PUSH1 0x20 PUSH0 KECCAK256 SWAP1 JUMPDEST DUP2 SLOAD DUP2 MSTORE SWAP1 PUSH1 0x1 ADD SWAP1 PUSH1 0x20 ADD DUP1 DUP4 GT PUSH2 0x2093 JUMPI DUP3 SWAP1 SUB PUSH1 0x1F AND DUP3 ADD SWAP2 JUMPDEST POP POP POP POP POP DUP2 MSTORE POP POP PUSH2 0x4026 JUMP JUMPDEST PUSH2 0x20CC PUSH1 0x5 DUP11 DUP11 DUP5 DUP11 PUSH2 0x4351 JUMP JUMPDEST PUSH2 0x20D7 PUSH1 0x6 DUP6 PUSH2 0x44FE JUMP JUMPDEST POP POP PUSH2 0x2178 JUMP JUMPDEST DUP1 PUSH0 SIGNEXTEND PUSH0 SUB PUSH2 0x2100 JUMPI PUSH2 0x20CC PUSH1 0x7 DUP11 PUSH1 0x6 DUP8 DUP2 SLOAD DUP2 LT PUSH2 0x1934 JUMPI PUSH2 0x1934 PUSH2 0x5B87 JUMP JUMPDEST PUSH2 0x2119 PUSH1 0x7 DUP11 PUSH1 0x6 DUP8 DUP2 SLOAD DUP2 LT PUSH2 0x1934 JUMPI PUSH2 0x1934 PUSH2 0x5B87 JUMP JUMPDEST PUSH2 0x2124 DUP2 PUSH0 NOT PUSH2 0x5D5D JUMP JUMPDEST PUSH1 0x6 DUP6 DUP2 SLOAD DUP2 LT PUSH2 0x2137 JUMPI PUSH2 0x2137 PUSH2 0x5B87 JUMP JUMPDEST SWAP1 PUSH0 MSTORE PUSH1 0x20 PUSH0 KECCAK256 SWAP1 PUSH1 0xF MUL ADD PUSH1 0x4 ADD PUSH0 PUSH2 0x100 EXP DUP2 SLOAD DUP2 PUSH1 0xFF MUL NOT AND SWAP1 DUP4 PUSH1 0xFF AND MUL OR SWAP1 SSTORE POP POP POP PUSH2 0x2178 JUMP JUMPDEST POP JUMPDEST DUP1 PUSH2 0x2170 DUP2 PUSH2 0x5D79 JUMP JUMPDEST SWAP2 POP POP PUSH2 0x11D5 JUMP JUMPDEST POP JUMPDEST PUSH1 0x1 ADD PUSH2 0x1185 JUMP JUMPDEST POP DUP1 PUSH2 0x2196 JUMPI PUSH2 0x2196 PUSH1 0x5 DUP7 DUP7 DUP7 DUP7 PUSH2 0x4351 JUMP JUMPDEST POP POP POP POP POP JUMP JUMPDEST PUSH1 0x60 DUP2 PUSH2 0x21AC DUP2 PUSH1 0x2 SLOAD PUSH2 0x3BAB JUMP JUMPDEST PUSH1 0x7 DUP1 SLOAD DUP1 PUSH1 0x20 MUL PUSH1 0x20 ADD PUSH1 0x40 MLOAD SWAP1 DUP2 ADD PUSH1 0x40 MSTORE DUP1 SWAP3 SWAP2 SWAP1 DUP2 DUP2 MSTORE PUSH1 0x20 ADD PUSH0 SWAP1 JUMPDEST DUP3 DUP3 LT ISZERO PUSH2 0x8DF JUMPI PUSH0 DUP5 DUP2 MSTORE PUSH1 0x20 SWAP1 KECCAK256 PUSH1 0x40 DUP1 MLOAD PUSH2 0x180 DUP2 ADD SWAP1 SWAP2 MSTORE PUSH1 0x1C DUP5 MUL SWAP1 SWAP2 ADD DUP1 SLOAD DUP3 SWAP1 PUSH2 0x100 DUP3 ADD SWAP1 DUP4 SWAP1 DUP3 SWAP1 DUP3 SWAP1 PUSH2 0x2209 SWAP1 PUSH2 0x5B55 JUMP JUMPDEST DUP1 PUSH1 0x1F ADD PUSH1 0x20 DUP1 SWAP2 DIV MUL PUSH1 0x20 ADD PUSH1 0x40 MLOAD SWAP1 DUP2 ADD PUSH1 0x40 MSTORE DUP1 SWAP3 SWAP2 SWAP1 DUP2 DUP2 MSTORE PUSH1 0x20 ADD DUP3 DUP1 SLOAD PUSH2 0x2235 SWAP1 PUSH2 0x5B55 JUMP JUMPDEST DUP1 ISZERO PUSH2 0x2280 JUMPI DUP1 PUSH1 0x1F LT PUSH2 0x2257 JUMPI PUSH2 0x100 DUP1 DUP4 SLOAD DIV MUL DUP4 MSTORE SWAP2 PUSH1 0x20 ADD SWAP2 PUSH2 0x2280 JUMP JUMPDEST DUP3 ADD SWAP2 SWAP1 PUSH0 MSTORE PUSH1 0x20 PUSH0 KECCAK256 SWAP1 JUMPDEST DUP2 SLOAD DUP2 MSTORE SWAP1 PUSH1 0x1 ADD SWAP1 PUSH1 0x20 ADD DUP1 DUP4 GT PUSH2 0x2263 JUMPI DUP3 SWAP1 SUB PUSH1 0x1F AND DUP3 ADD SWAP2 JUMPDEST POP POP POP SWAP2 DUP4 MSTORE POP POP PUSH1 0x1 DUP3 ADD SLOAD PUSH1 0xFF DUP1 DUP3 AND PUSH1 0x20 DUP5 ADD MSTORE PUSH2 0x100 SWAP1 SWAP2 DIV AND PUSH1 0x40 DUP3 ADD MSTORE PUSH1 0x2 DUP3 ADD DUP1 SLOAD PUSH1 0x60 SWAP1 SWAP3 ADD SWAP2 PUSH2 0x22B8 SWAP1 PUSH2 0x5B55 JUMP JUMPDEST DUP1 PUSH1 0x1F ADD PUSH1 0x20 DUP1 SWAP2 DIV MUL PUSH1 0x20 ADD PUSH1 0x40 MLOAD SWAP1 DUP2 ADD PUSH1 0x40 MSTORE DUP1 SWAP3 SWAP2 SWAP1 DUP2 DUP2 MSTORE PUSH1 0x20 ADD DUP3 DUP1 SLOAD PUSH2 0x22E4 SWAP1 PUSH2 0x5B55 JUMP JUMPDEST DUP1 ISZERO PUSH2 0x232F JUMPI DUP1 PUSH1 0x1F LT PUSH2 0x2306 JUMPI PUSH2 0x100 DUP1 DUP4 SLOAD DIV MUL DUP4 MSTORE SWAP2 PUSH1 0x20 ADD SWAP2 PUSH2 0x232F JUMP JUMPDEST DUP3 ADD SWAP2 SWAP1 PUSH0 MSTORE PUSH1 0x20 PUSH0 KECCAK256 SWAP1 JUMPDEST DUP2 SLOAD DUP2 MSTORE SWAP1 PUSH1 0x1 ADD SWAP1 PUSH1 0x20 ADD DUP1 DUP4 GT PUSH2 0x2312 JUMPI DUP3 SWAP1 SUB PUSH1 0x1F AND DUP3 ADD SWAP2 JUMPDEST POP POP POP POP POP DUP2 MSTORE POP POP DUP2 MSTORE PUSH1 0x20 ADD PUSH1 0x3 DUP3 ADD PUSH1 0x40 MLOAD DUP1 PUSH1 0x80 ADD PUSH1 0x40 MSTORE SWAP1 DUP2 PUSH0 DUP3 ADD DUP1 SLOAD PUSH2 0x235B SWAP1 PUSH2 0x5B55 JUMP JUMPDEST DUP1 PUSH1 0x1F ADD PUSH1 0x20 DUP1 SWAP2 DIV MUL PUSH1 0x20 ADD PUSH1 0x40 MLOAD SWAP1 DUP2 ADD PUSH1 0x40 MSTORE DUP1 SWAP3 SWAP2 SWAP1 DUP2 DUP2 MSTORE PUSH1 0x20 ADD DUP3 DUP1 SLOAD PUSH2 0x2387 SWAP1 PUSH2 0x5B55 JUMP JUMPDEST DUP1 ISZERO PUSH2 0x23D2 JUMPI DUP1 PUSH1 0x1F LT PUSH2 0x23A9 JUMPI PUSH2 0x100 DUP1 DUP4 SLOAD DIV MUL DUP4 MSTORE SWAP2 PUSH1 0x20 ADD SWAP2 PUSH2 0x23D2 JUMP JUMPDEST DUP3 ADD SWAP2 SWAP1 PUSH0 MSTORE PUSH1 0x20 PUSH0 KECCAK256 SWAP1 JUMPDEST DUP2 SLOAD DUP2 MSTORE SWAP1 PUSH1 0x1 ADD SWAP1 PUSH1 0x20 ADD DUP1 DUP4 GT PUSH2 0x23B5 JUMPI DUP3 SWAP1 SUB PUSH1 0x1F AND DUP3 ADD SWAP2 JUMPDEST POP POP POP SWAP2 DUP4 MSTORE POP POP PUSH1 0x1 DUP3 ADD SLOAD PUSH1 0xFF DUP1 DUP3 AND PUSH1 0x20 DUP5 ADD MSTORE PUSH2 0x100 SWAP1 SWAP2 DIV AND PUSH1 0x40 DUP3 ADD MSTORE PUSH1 0x2 DUP3 ADD DUP1 SLOAD PUSH1 0x60 SWAP1 SWAP3 ADD SWAP2 PUSH2 0x240A SWAP1 PUSH2 0x5B55 JUMP JUMPDEST DUP1 PUSH1 0x1F ADD PUSH1 0x20 DUP1 SWAP2 DIV MUL PUSH1 0x20 ADD PUSH1 0x40 MLOAD SWAP1 DUP2 ADD PUSH1 0x40 MSTORE DUP1 SWAP3 SWAP2 SWAP1 DUP2 DUP2 MSTORE PUSH1 0x20 ADD DUP3 DUP1 SLOAD PUSH2 0x2436 SWAP1 PUSH2 0x5B55 JUMP JUMPDEST DUP1 ISZERO PUSH2 0x2481 JUMPI DUP1 PUSH1 0x1F LT PUSH2 0x2458 JUMPI PUSH2 0x100 DUP1 DUP4 SLOAD DIV MUL DUP4 MSTORE SWAP2 PUSH1 0x20 ADD SWAP2 PUSH2 0x2481 JUMP JUMPDEST DUP3 ADD SWAP2 SWAP1 PUSH0 MSTORE PUSH1 0x20 PUSH0 KECCAK256 SWAP1 JUMPDEST DUP2 SLOAD DUP2 MSTORE SWAP1 PUSH1 0x1 ADD SWAP1 PUSH1 0x20 ADD DUP1 DUP4 GT PUSH2 0x2464 JUMPI DUP3 SWAP1 SUB PUSH1 0x1F AND DUP3 ADD SWAP2 JUMPDEST POP POP POP POP POP DUP2 MSTORE POP POP DUP2 MSTORE PUSH1 0x20 ADD PUSH1 0x6 DUP3 ADD DUP1 SLOAD PUSH2 0x249E SWAP1 PUSH2 0x5B55 JUMP JUMPDEST DUP1 PUSH1 0x1F ADD PUSH1 0x20 DUP1 SWAP2 DIV MUL PUSH1 0x20 ADD PUSH1 0x40 MLOAD SWAP1 DUP2 ADD PUSH1 0x40 MSTORE DUP1 SWAP3 SWAP2 SWAP1 DUP2 DUP2 MSTORE PUSH1 0x20 ADD DUP3 DUP1 SLOAD PUSH2 0x24CA SWAP1 PUSH2 0x5B55 JUMP JUMPDEST DUP1 ISZERO PUSH2 0x2515 JUMPI DUP1 PUSH1 0x1F LT PUSH2 0x24EC JUMPI PUSH2 0x100 DUP1 DUP4 SLOAD DIV MUL DUP4 MSTORE SWAP2 PUSH1 0x20 ADD SWAP2 PUSH2 0x2515 JUMP JUMPDEST DUP3 ADD SWAP2 SWAP1 PUSH0 MSTORE PUSH1 0x20 PUSH0 KECCAK256 SWAP1 JUMPDEST DUP2 SLOAD DUP2 MSTORE SWAP1 PUSH1 0x1 ADD SWAP1 PUSH1 0x20 ADD DUP1 DUP4 GT PUSH2 0x24F8 JUMPI DUP3 SWAP1 SUB PUSH1 0x1F AND DUP3 ADD SWAP2 JUMPDEST POP POP POP SWAP2 DUP4 MSTORE POP POP PUSH1 0x7 DUP3 ADD SLOAD PUSH1 0xFF DUP1 DUP3 AND PUSH1 0x20 DUP5 ADD MSTORE PUSH2 0x100 DUP3 DIV DUP2 AND PUSH1 0x40 DUP1 DUP6 ADD SWAP2 SWAP1 SWAP2 MSTORE PUSH3 0x10000 SWAP1 SWAP3 DIV AND PUSH1 0x60 DUP4 ADD MSTORE DUP1 MLOAD PUSH2 0x140 DUP2 ADD SWAP1 SWAP2 MSTORE PUSH1 0x8 DUP4 ADD DUP1 SLOAD PUSH1 0x80 SWAP1 SWAP4 ADD SWAP3 DUP3 SWAP1 DUP3 SWAP1 PUSH2 0x256C SWAP1 PUSH2 0x5B55 JUMP JUMPDEST DUP1 PUSH1 0x1F ADD PUSH1 0x20 DUP1 SWAP2 DIV MUL PUSH1 0x20 ADD PUSH1 0x40 MLOAD SWAP1 DUP2 ADD PUSH1 0x40 MSTORE DUP1 SWAP3 SWAP2 SWAP1 DUP2 DUP2 MSTORE PUSH1 0x20 ADD DUP3 DUP1 SLOAD PUSH2 0x2598 SWAP1 PUSH2 0x5B55 JUMP JUMPDEST DUP1 ISZERO PUSH2 0x25E3 JUMPI DUP1 PUSH1 0x1F LT PUSH2 0x25BA JUMPI PUSH2 0x100 DUP1 DUP4 SLOAD DIV MUL DUP4 MSTORE SWAP2 PUSH1 0x20 ADD SWAP2 PUSH2 0x25E3 JUMP JUMPDEST DUP3 ADD SWAP2 SWAP1 PUSH0 MSTORE PUSH1 0x20 PUSH0 KECCAK256 SWAP1 JUMPDEST DUP2 SLOAD DUP2 MSTORE SWAP1 PUSH1 0x1 ADD SWAP1 PUSH1 0x20 ADD DUP1 DUP4 GT PUSH2 0x25C6 JUMPI DUP3 SWAP1 SUB PUSH1 0x1F AND DUP3 ADD SWAP2 JUMPDEST POP POP POP POP POP DUP2 MSTORE PUSH1 0x20 ADD PUSH1 0x1 DUP3 ADD DUP1 SLOAD PUSH2 0x25FC SWAP1 PUSH2 0x5B55 JUMP JUMPDEST DUP1 PUSH1 0x1F ADD PUSH1 0x20 DUP1 SWAP2 DIV MUL PUSH1 0x20 ADD PUSH1 0x40 MLOAD SWAP1 DUP2 ADD PUSH1 0x40 MSTORE DUP1 SWAP3 SWAP2 SWAP1 DUP2 DUP2 MSTORE PUSH1 0x20 ADD DUP3 DUP1 SLOAD PUSH2 0x2628 SWAP1 PUSH2 0x5B55 JUMP JUMPDEST DUP1 ISZERO PUSH2 0x2673 JUMPI DUP1 PUSH1 0x1F LT PUSH2 0x264A JUMPI PUSH2 0x100 DUP1 DUP4 SLOAD DIV MUL DUP4 MSTORE SWAP2 PUSH1 0x20 ADD SWAP2 PUSH2 0x2673 JUMP JUMPDEST DUP3 ADD SWAP2 SWAP1 PUSH0 MSTORE PUSH1 0x20 PUSH0 KECCAK256 SWAP1 JUMPDEST DUP2 SLOAD DUP2 MSTORE SWAP1 PUSH1 0x1 ADD SWAP1 PUSH1 0x20 ADD DUP1 DUP4 GT PUSH2 0x2656 JUMPI DUP3 SWAP1 SUB PUSH1 0x1F AND DUP3 ADD SWAP2 JUMPDEST POP POP POP POP POP DUP2 MSTORE PUSH1 0x20 ADD PUSH1 0x2 DUP3 ADD DUP1 SLOAD PUSH2 0x268C SWAP1 PUSH2 0x5B55 JUMP JUMPDEST DUP1 PUSH1 0x1F ADD PUSH1 0x20 DUP1 SWAP2 DIV MUL PUSH1 0x20 ADD PUSH1 0x40 MLOAD SWAP1 DUP2 ADD PUSH1 0x40 MSTORE DUP1 SWAP3 SWAP2 SWAP1 DUP2 DUP2 MSTORE PUSH1 0x20 ADD DUP3 DUP1 SLOAD PUSH2 0x26B8 SWAP1 PUSH2 0x5B55 JUMP JUMPDEST DUP1 ISZERO PUSH2 0x2703 JUMPI DUP1 PUSH1 0x1F LT PUSH2 0x26DA JUMPI PUSH2 0x100 DUP1 DUP4 SLOAD DIV MUL DUP4 MSTORE SWAP2 PUSH1 0x20 ADD SWAP2 PUSH2 0x2703 JUMP JUMPDEST DUP3 ADD SWAP2 SWAP1 PUSH0 MSTORE PUSH1 0x20 PUSH0 KECCAK256 SWAP1 JUMPDEST DUP2 SLOAD DUP2 MSTORE SWAP1 PUSH1 0x1 ADD SWAP1 PUSH1 0x20 ADD DUP1 DUP4 GT PUSH2 0x26E6 JUMPI DUP3 SWAP1 SUB PUSH1 0x1F AND DUP3 ADD SWAP2 JUMPDEST POP POP POP POP POP DUP2 MSTORE PUSH1 0x20 ADD PUSH1 0x3 DUP3 ADD DUP1 SLOAD PUSH2 0x271C SWAP1 PUSH2 0x5B55 JUMP JUMPDEST DUP1 PUSH1 0x1F ADD PUSH1 0x20 DUP1 SWAP2 DIV MUL PUSH1 0x20 ADD PUSH1 0x40 MLOAD SWAP1 DUP2 ADD PUSH1 0x40 MSTORE DUP1 SWAP3 SWAP2 SWAP1 DUP2 DUP2 MSTORE PUSH1 0x20 ADD DUP3 DUP1 SLOAD PUSH2 0x2748 SWAP1 PUSH2 0x5B55 JUMP JUMPDEST DUP1 ISZERO PUSH2 0x2793 JUMPI DUP1 PUSH1 0x1F LT PUSH2 0x276A JUMPI PUSH2 0x100 DUP1 DUP4 SLOAD DIV MUL DUP4 MSTORE SWAP2 PUSH1 0x20 ADD SWAP2 PUSH2 0x2793 JUMP JUMPDEST DUP3 ADD SWAP2 SWAP1 PUSH0 MSTORE PUSH1 0x20 PUSH0 KECCAK256 SWAP1 JUMPDEST DUP2 SLOAD DUP2 MSTORE SWAP1 PUSH1 0x1 ADD SWAP1 PUSH1 0x20 ADD DUP1 DUP4 GT PUSH2 0x2776 JUMPI DUP3 SWAP1 SUB PUSH1 0x1F AND DUP3 ADD SWAP2 JUMPDEST POP POP POP POP POP DUP2 MSTORE PUSH1 0x20 ADD PUSH1 0x4 DUP3 ADD DUP1 SLOAD PUSH2 0x27AC SWAP1 PUSH2 0x5B55 JUMP JUMPDEST DUP1 PUSH1 0x1F ADD PUSH1 0x20 DUP1 SWAP2 DIV MUL PUSH1 0x20 ADD PUSH1 0x40 MLOAD SWAP1 DUP2 ADD PUSH1 0x40 MSTORE DUP1 SWAP3 SWAP2 SWAP1 DUP2 DUP2 MSTORE PUSH1 0x20 ADD DUP3 DUP1 SLOAD PUSH2 0x27D8 SWAP1 PUSH2 0x5B55 JUMP JUMPDEST DUP1 ISZERO PUSH2 0x2823 JUMPI DUP1 PUSH1 0x1F LT PUSH2 0x27FA JUMPI PUSH2 0x100 DUP1 DUP4 SLOAD DIV MUL DUP4 MSTORE SWAP2 PUSH1 0x20 ADD SWAP2 PUSH2 0x2823 JUMP JUMPDEST DUP3 ADD SWAP2 SWAP1 PUSH0 MSTORE PUSH1 0x20 PUSH0 KECCAK256 SWAP1 JUMPDEST DUP2 SLOAD DUP2 MSTORE SWAP1 PUSH1 0x1 ADD SWAP1 PUSH1 0x20 ADD DUP1 DUP4 GT PUSH2 0x2806 JUMPI DUP3 SWAP1 SUB PUSH1 0x1F AND DUP3 ADD SWAP2 JUMPDEST POP POP POP POP POP DUP2 MSTORE PUSH1 0x20 ADD PUSH1 0x5 DUP3 ADD DUP1 SLOAD PUSH2 0x283C SWAP1 PUSH2 0x5B55 JUMP JUMPDEST DUP1 PUSH1 0x1F ADD PUSH1 0x20 DUP1 SWAP2 DIV MUL PUSH1 0x20 ADD PUSH1 0x40 MLOAD SWAP1 DUP2 ADD PUSH1 0x40 MSTORE DUP1 SWAP3 SWAP2 SWAP1 DUP2 DUP2 MSTORE PUSH1 0x20 ADD DUP3 DUP1 SLOAD PUSH2 0x2868 SWAP1 PUSH2 0x5B55 JUMP JUMPDEST DUP1 ISZERO PUSH2 0x28B3 JUMPI DUP1 PUSH1 0x1F LT PUSH2 0x288A JUMPI PUSH2 0x100 DUP1 DUP4 SLOAD DIV MUL DUP4 MSTORE SWAP2 PUSH1 0x20 ADD SWAP2 PUSH2 0x28B3 JUMP JUMPDEST DUP3 ADD SWAP2 SWAP1 PUSH0 MSTORE PUSH1 0x20 PUSH0 KECCAK256 SWAP1 JUMPDEST DUP2 SLOAD DUP2 MSTORE SWAP1 PUSH1 0x1 ADD SWAP1 PUSH1 0x20 ADD DUP1 DUP4 GT PUSH2 0x2896 JUMPI DUP3 SWAP1 SUB PUSH1 0x1F AND DUP3 ADD SWAP2 JUMPDEST POP POP POP POP POP DUP2 MSTORE PUSH1 0x20 ADD PUSH1 0x6 DUP3 ADD DUP1 SLOAD PUSH2 0x28CC SWAP1 PUSH2 0x5B55 JUMP JUMPDEST DUP1 PUSH1 0x1F ADD PUSH1 0x20 DUP1 SWAP2 DIV MUL PUSH1 0x20 ADD PUSH1 0x40 MLOAD SWAP1 DUP2 ADD PUSH1 0x40 MSTORE DUP1 SWAP3 SWAP2 SWAP1 DUP2 DUP2 MSTORE PUSH1 0x20 ADD DUP3 DUP1 SLOAD PUSH2 0x28F8 SWAP1 PUSH2 0x5B55 JUMP JUMPDEST DUP1 ISZERO PUSH2 0x2943 JUMPI DUP1 PUSH1 0x1F LT PUSH2 0x291A JUMPI PUSH2 0x100 DUP1 DUP4 SLOAD DIV MUL DUP4 MSTORE SWAP2 PUSH1 0x20 ADD SWAP2 PUSH2 0x2943 JUMP JUMPDEST DUP3 ADD SWAP2 SWAP1 PUSH0 MSTORE PUSH1 0x20 PUSH0 KECCAK256 SWAP1 JUMPDEST DUP2 SLOAD DUP2 MSTORE SWAP1 PUSH1 0x1 ADD SWAP1 PUSH1 0x20 ADD DUP1 DUP4 GT PUSH2 0x2926 JUMPI DUP3 SWAP1 SUB PUSH1 0x1F AND DUP3 ADD SWAP2 JUMPDEST POP POP POP POP POP DUP2 MSTORE PUSH1 0x20 ADD PUSH1 0x7 DUP3 ADD DUP1 SLOAD PUSH2 0x295C SWAP1 PUSH2 0x5B55 JUMP JUMPDEST DUP1 PUSH1 0x1F ADD PUSH1 0x20 DUP1 SWAP2 DIV MUL PUSH1 0x20 ADD PUSH1 0x40 MLOAD SWAP1 DUP2 ADD PUSH1 0x40 MSTORE DUP1 SWAP3 SWAP2 SWAP1 DUP2 DUP2 MSTORE PUSH1 0x20 ADD DUP3 DUP1 SLOAD PUSH2 0x2988 SWAP1 PUSH2 0x5B55 JUMP JUMPDEST DUP1 ISZERO PUSH2 0x29D3 JUMPI DUP1 PUSH1 0x1F LT PUSH2 0x29AA JUMPI PUSH2 0x100 DUP1 DUP4 SLOAD DIV MUL DUP4 MSTORE SWAP2 PUSH1 0x20 ADD SWAP2 PUSH2 0x29D3 JUMP JUMPDEST DUP3 ADD SWAP2 SWAP1 PUSH0 MSTORE PUSH1 0x20 PUSH0 KECCAK256 SWAP1 JUMPDEST DUP2 SLOAD DUP2 MSTORE SWAP1 PUSH1 0x1 ADD SWAP1 PUSH1 0x20 ADD DUP1 DUP4 GT PUSH2 0x29B6 JUMPI DUP3 SWAP1 SUB PUSH1 0x1F AND DUP3 ADD SWAP2 JUMPDEST POP POP POP POP POP DUP2 MSTORE PUSH1 0x20 ADD PUSH1 0x8 DUP3 ADD DUP1 SLOAD PUSH2 0x29EC SWAP1 PUSH2 0x5B55 JUMP JUMPDEST DUP1 PUSH1 0x1F ADD PUSH1 0x20 DUP1 SWAP2 DIV MUL PUSH1 0x20 ADD PUSH1 0x40 MLOAD SWAP1 DUP2 ADD PUSH1 0x40 MSTORE DUP1 SWAP3 SWAP2 SWAP1 DUP2 DUP2 MSTORE PUSH1 0x20 ADD DUP3 DUP1 SLOAD PUSH2 0x2A18 SWAP1 PUSH2 0x5B55 JUMP JUMPDEST DUP1 ISZERO PUSH2 0x2A63 JUMPI DUP1 PUSH1 0x1F LT PUSH2 0x2A3A JUMPI PUSH2 0x100 DUP1 DUP4 SLOAD DIV MUL DUP4 MSTORE SWAP2 PUSH1 0x20 ADD SWAP2 PUSH2 0x2A63 JUMP JUMPDEST DUP3 ADD SWAP2 SWAP1 PUSH0 MSTORE PUSH1 0x20 PUSH0 KECCAK256 SWAP1 JUMPDEST DUP2 SLOAD DUP2 MSTORE SWAP1 PUSH1 0x1 ADD SWAP1 PUSH1 0x20 ADD DUP1 DUP4 GT PUSH2 0x2A46 JUMPI DUP3 SWAP1 SUB PUSH1 0x1F AND DUP3 ADD SWAP2 JUMPDEST POP POP POP POP POP DUP2 MSTORE PUSH1 0x20 ADD PUSH1 0x9 DUP3 ADD DUP1 SLOAD PUSH2 0x2A7C SWAP1 PUSH2 0x5B55 JUMP JUMPDEST DUP1 PUSH1 0x1F ADD PUSH1 0x20 DUP1 SWAP2 DIV MUL PUSH1 0x20 ADD PUSH1 0x40 MLOAD SWAP1 DUP2 ADD PUSH1 0x40 MSTORE DUP1 SWAP3 SWAP2 SWAP1 DUP2 DUP2 MSTORE PUSH1 0x20 ADD DUP3 DUP1 SLOAD PUSH2 0x2AA8 SWAP1 PUSH2 0x5B55 JUMP JUMPDEST DUP1 ISZERO PUSH2 0x2AF3 JUMPI DUP1 PUSH1 0x1F LT PUSH2 0x2ACA JUMPI PUSH2 0x100 DUP1 DUP4 SLOAD DIV MUL DUP4 MSTORE SWAP2 PUSH1 0x20 ADD SWAP2 PUSH2 0x2AF3 JUMP JUMPDEST DUP3 ADD SWAP2 SWAP1 PUSH0 MSTORE PUSH1 0x20 PUSH0 KECCAK256 SWAP1 JUMPDEST DUP2 SLOAD DUP2 MSTORE SWAP1 PUSH1 0x1 ADD SWAP1 PUSH1 0x20 ADD DUP1 DUP4 GT PUSH2 0x2AD6 JUMPI DUP3 SWAP1 SUB PUSH1 0x1F AND DUP3 ADD SWAP2 JUMPDEST POP POP POP POP POP DUP2 MSTORE POP POP DUP2 MSTORE PUSH1 0x20 ADD PUSH1 0x12 DUP3 ADD PUSH1 0x40 MLOAD DUP1 PUSH2 0x140 ADD PUSH1 0x40 MSTORE SWAP1 DUP2 PUSH0 DUP3 ADD DUP1 SLOAD PUSH2 0x2B20 SWAP1 PUSH2 0x5B55 JUMP JUMPDEST DUP1 PUSH1 0x1F ADD PUSH1 0x20 DUP1 SWAP2 DIV MUL PUSH1 0x20 ADD PUSH1 0x40 MLOAD SWAP1 DUP2 ADD PUSH1 0x40 MSTORE DUP1 SWAP3 SWAP2 SWAP1 DUP2 DUP2 MSTORE PUSH1 0x20 ADD DUP3 DUP1 SLOAD PUSH2 0x2B4C SWAP1 PUSH2 0x5B55 JUMP JUMPDEST DUP1 ISZERO PUSH2 0x2B97 JUMPI DUP1 PUSH1 0x1F LT PUSH2 0x2B6E JUMPI PUSH2 0x100 DUP1 DUP4 SLOAD DIV MUL DUP4 MSTORE SWAP2 PUSH1 0x20 ADD SWAP2 PUSH2 0x2B97 JUMP JUMPDEST DUP3 ADD SWAP2 SWAP1 PUSH0 MSTORE PUSH1 0x20 PUSH0 KECCAK256 SWAP1 JUMPDEST DUP2 SLOAD DUP2 MSTORE SWAP1 PUSH1 0x1 ADD SWAP1 PUSH1 0x20 ADD DUP1 DUP4 GT PUSH2 0x2B7A JUMPI DUP3 SWAP1 SUB PUSH1 0x1F AND DUP3 ADD SWAP2 JUMPDEST POP POP POP POP POP DUP2 MSTORE PUSH1 0x20 ADD PUSH1 0x1 DUP3 ADD DUP1 SLOAD PUSH2 0x2BB0 SWAP1 PUSH2 0x5B55 JUMP JUMPDEST DUP1 PUSH1 0x1F ADD PUSH1 0x20 DUP1 SWAP2 DIV MUL PUSH1 0x20 ADD PUSH1 0x40 MLOAD SWAP1 DUP2 ADD PUSH1 0x40 MSTORE DUP1 SWAP3 SWAP2 SWAP1 DUP2 DUP2 MSTORE PUSH1 0x20 ADD DUP3 DUP1 SLOAD PUSH2 0x2BDC SWAP1 PUSH2 0x5B55 JUMP JUMPDEST DUP1 ISZERO PUSH2 0x2C27 JUMPI DUP1 PUSH1 0x1F LT PUSH2 0x2BFE JUMPI PUSH2 0x100 DUP1 DUP4 SLOAD DIV MUL DUP4 MSTORE SWAP2 PUSH1 0x20 ADD SWAP2 PUSH2 0x2C27 JUMP JUMPDEST DUP3 ADD SWAP2 SWAP1 PUSH0 MSTORE PUSH1 0x20 PUSH0 KECCAK256 SWAP1 JUMPDEST DUP2 SLOAD DUP2 MSTORE SWAP1 PUSH1 0x1 ADD SWAP1 PUSH1 0x20 ADD DUP1 DUP4 GT PUSH2 0x2C0A JUMPI DUP3 SWAP1 SUB PUSH1 0x1F AND DUP3 ADD SWAP2 JUMPDEST POP POP POP POP POP DUP2 MSTORE PUSH1 0x20 ADD PUSH1 0x2 DUP3 ADD DUP1 SLOAD PUSH2 0x2C40 SWAP1 PUSH2 0x5B55 JUMP JUMPDEST DUP1 PUSH1 0x1F ADD PUSH1 0x20 DUP1 SWAP2 DIV MUL PUSH1 0x20 ADD PUSH1 0x40 MLOAD SWAP1 DUP2 ADD PUSH1 0x40 MSTORE DUP1 SWAP3 SWAP2 SWAP1 DUP2 DUP2 MSTORE PUSH1 0x20 ADD DUP3 DUP1 SLOAD PUSH2 0x2C6C SWAP1 PUSH2 0x5B55 JUMP JUMPDEST DUP1 ISZERO PUSH2 0x2CB7 JUMPI DUP1 PUSH1 0x1F LT PUSH2 0x2C8E JUMPI PUSH2 0x100 DUP1 DUP4 SLOAD DIV MUL DUP4 MSTORE SWAP2 PUSH1 0x20 ADD SWAP2 PUSH2 0x2CB7 JUMP JUMPDEST DUP3 ADD SWAP2 SWAP1 PUSH0 MSTORE PUSH1 0x20 PUSH0 KECCAK256 SWAP1 JUMPDEST DUP2 SLOAD DUP2 MSTORE SWAP1 PUSH1 0x1 ADD SWAP1 PUSH1 0x20 ADD DUP1 DUP4 GT PUSH2 0x2C9A JUMPI DUP3 SWAP1 SUB PUSH1 0x1F AND DUP3 ADD SWAP2 JUMPDEST POP POP POP POP POP DUP2 MSTORE PUSH1 0x20 ADD PUSH1 0x3 DUP3 ADD DUP1 SLOAD PUSH2 0x2CD0 SWAP1 PUSH2 0x5B55 JUMP JUMPDEST DUP1 PUSH1 0x1F ADD PUSH1 0x20 DUP1 SWAP2 DIV MUL PUSH1 0x20 ADD PUSH1 0x40 MLOAD SWAP1 DUP2 ADD PUSH1 0x40 MSTORE DUP1 SWAP3 SWAP2 SWAP1 DUP2 DUP2 MSTORE PUSH1 0x20 ADD DUP3 DUP1 SLOAD PUSH2 0x2CFC SWAP1 PUSH2 0x5B55 JUMP JUMPDEST DUP1 ISZERO PUSH2 0x2D47 JUMPI DUP1 PUSH1 0x1F LT PUSH2 0x2D1E JUMPI PUSH2 0x100 DUP1 DUP4 SLOAD DIV MUL DUP4 MSTORE SWAP2 PUSH1 0x20 ADD SWAP2 PUSH2 0x2D47 JUMP JUMPDEST DUP3 ADD SWAP2 SWAP1 PUSH0 MSTORE PUSH1 0x20 PUSH0 KECCAK256 SWAP1 JUMPDEST DUP2 SLOAD DUP2 MSTORE SWAP1 PUSH1 0x1 ADD SWAP1 PUSH1 0x20 ADD DUP1 DUP4 GT PUSH2 0x2D2A JUMPI DUP3 SWAP1 SUB PUSH1 0x1F AND DUP3 ADD SWAP2 JUMPDEST POP POP POP POP POP DUP2 MSTORE PUSH1 0x20 ADD PUSH1 0x4 DUP3 ADD DUP1 SLOAD PUSH2 0x2D60 SWAP1 PUSH2 0x5B55 JUMP JUMPDEST DUP1 PUSH1 0x1F ADD PUSH1 0x20 DUP1 SWAP2 DIV MUL PUSH1 0x20 ADD PUSH1 0x40 MLOAD SWAP1 DUP2 ADD PUSH1 0x40 MSTORE DUP1 SWAP3 SWAP2 SWAP1 DUP2 DUP2 MSTORE PUSH1 0x20 ADD DUP3 DUP1 SLOAD PUSH2 0x2D8C SWAP1 PUSH2 0x5B55 JUMP JUMPDEST DUP1 ISZERO PUSH2 0x2DD7 JUMPI DUP1 PUSH1 0x1F LT PUSH2 0x2DAE JUMPI PUSH2 0x100 DUP1 DUP4 SLOAD DIV MUL DUP4 MSTORE SWAP2 PUSH1 0x20 ADD SWAP2 PUSH2 0x2DD7 JUMP JUMPDEST DUP3 ADD SWAP2 SWAP1 PUSH0 MSTORE PUSH1 0x20 PUSH0 KECCAK256 SWAP1 JUMPDEST DUP2 SLOAD DUP2 MSTORE SWAP1 PUSH1 0x1 ADD SWAP1 PUSH1 0x20 ADD DUP1 DUP4 GT PUSH2 0x2DBA JUMPI DUP3 SWAP1 SUB PUSH1 0x1F AND DUP3 ADD SWAP2 JUMPDEST POP POP POP POP POP DUP2 MSTORE PUSH1 0x20 ADD PUSH1 0x5 DUP3 ADD DUP1 SLOAD PUSH2 0x2DF0 SWAP1 PUSH2 0x5B55 JUMP JUMPDEST DUP1 PUSH1 0x1F ADD PUSH1 0x20 DUP1 SWAP2 DIV MUL PUSH1 0x20 ADD PUSH1 0x40 MLOAD SWAP1 DUP2 ADD PUSH1 0x40 MSTORE DUP1 SWAP3 SWAP2 SWAP1 DUP2 DUP2 MSTORE PUSH1 0x20 ADD DUP3 DUP1 SLOAD PUSH2 0x2E1C SWAP1 PUSH2 0x5B55 JUMP JUMPDEST DUP1 ISZERO PUSH2 0x2E67 JUMPI DUP1 PUSH1 0x1F LT PUSH2 0x2E3E JUMPI PUSH2 0x100 DUP1 DUP4 SLOAD DIV MUL DUP4 MSTORE SWAP2 PUSH1 0x20 ADD SWAP2 PUSH2 0x2E67 JUMP JUMPDEST DUP3 ADD SWAP2 SWAP1 PUSH0 MSTORE PUSH1 0x20 PUSH0 KECCAK256 SWAP1 JUMPDEST DUP2 SLOAD DUP2 MSTORE SWAP1 PUSH1 0x1 ADD SWAP1 PUSH1 0x20 ADD DUP1 DUP4 GT PUSH2 0x2E4A JUMPI DUP3 SWAP1 SUB PUSH1 0x1F AND DUP3 ADD SWAP2 JUMPDEST POP POP POP POP POP DUP2 MSTORE PUSH1 0x20 ADD PUSH1 0x6 DUP3 ADD DUP1 SLOAD PUSH2 0x2E80 SWAP1 PUSH2 0x5B55 JUMP JUMPDEST DUP1 PUSH1 0x1F ADD PUSH1 0x20 DUP1 SWAP2 DIV MUL PUSH1 0x20 ADD PUSH1 0x40 MLOAD SWAP1 DUP2 ADD PUSH1 0x40 MSTORE DUP1 SWAP3 SWAP2 SWAP1 DUP2 DUP2 MSTORE PUSH1 0x20 ADD DUP3 DUP1 SLOAD PUSH2 0x2EAC SWAP1 PUSH2 0x5B55 JUMP JUMPDEST DUP1 ISZERO PUSH2 0x2EF7 JUMPI DUP1 PUSH1 0x1F LT PUSH2 0x2ECE JUMPI PUSH2 0x100 DUP1 DUP4 SLOAD DIV MUL DUP4 MSTORE SWAP2 PUSH1 0x20 ADD SWAP2 PUSH2 0x2EF7 JUMP JUMPDEST DUP3 ADD SWAP2 SWAP1 PUSH0 MSTORE PUSH1 0x20 PUSH0 KECCAK256 SWAP1 JUMPDEST DUP2 SLOAD DUP2 MSTORE SWAP1 PUSH1 0x1 ADD SWAP1 PUSH1 0x20 ADD DUP1 DUP4 GT PUSH2 0x2EDA JUMPI DUP3 SWAP1 SUB PUSH1 0x1F AND DUP3 ADD SWAP2 JUMPDEST POP POP POP POP POP DUP2 MSTORE PUSH1 0x20 ADD PUSH1 0x7 DUP3 ADD DUP1 SLOAD PUSH2 0x2F10 SWAP1 PUSH2 0x5B55 JUMP JUMPDEST DUP1 PUSH1 0x1F ADD PUSH1 0x20 DUP1 SWAP2 DIV MUL PUSH1 0x20 ADD PUSH1 0x40 MLOAD SWAP1 DUP2 ADD PUSH1 0x40 MSTORE DUP1 SWAP3 SWAP2 SWAP1 DUP2 DUP2 MSTORE PUSH1 0x20 ADD DUP3 DUP1 SLOAD PUSH2 0x2F3C SWAP1 PUSH2 0x5B55 JUMP JUMPDEST DUP1 ISZERO PUSH2 0x2F87 JUMPI DUP1 PUSH1 0x1F LT PUSH2 0x2F5E JUMPI PUSH2 0x100 DUP1 DUP4 SLOAD DIV MUL DUP4 MSTORE SWAP2 PUSH1 0x20 ADD SWAP2 PUSH2 0x2F87 JUMP JUMPDEST DUP3 ADD SWAP2 SWAP1 PUSH0 MSTORE PUSH1 0x20 PUSH0 KECCAK256 SWAP1 JUMPDEST DUP2 SLOAD DUP2 MSTORE SWAP1 PUSH1 0x1 ADD SWAP1 PUSH1 0x20 ADD DUP1 DUP4 GT PUSH2 0x2F6A JUMPI DUP3 SWAP1 SUB PUSH1 0x1F AND DUP3 ADD SWAP2 JUMPDEST POP POP POP POP POP DUP2 MSTORE PUSH1 0x20 ADD PUSH1 0x8 DUP3 ADD DUP1 SLOAD PUSH2 0x2FA0 SWAP1 PUSH2 0x5B55 JUMP JUMPDEST DUP1 PUSH1 0x1F ADD PUSH1 0x20 DUP1 SWAP2 DIV MUL PUSH1 0x20 ADD PUSH1 0x40 MLOAD SWAP1 DUP2 ADD PUSH1 0x40 MSTORE DUP1 SWAP3 SWAP2 SWAP1 DUP2 DUP2 MSTORE PUSH1 0x20 ADD DUP3 DUP1 SLOAD PUSH2 0x2FCC SWAP1 PUSH2 0x5B55 JUMP JUMPDEST DUP1 ISZERO PUSH2 0x3017 JUMPI DUP1 PUSH1 0x1F LT PUSH2 0x2FEE JUMPI PUSH2 0x100 DUP1 DUP4 SLOAD DIV MUL DUP4 MSTORE SWAP2 PUSH1 0x20 ADD SWAP2 PUSH2 0x3017 JUMP JUMPDEST DUP3 ADD SWAP2 SWAP1 PUSH0 MSTORE PUSH1 0x20 PUSH0 KECCAK256 SWAP1 JUMPDEST DUP2 SLOAD DUP2 MSTORE SWAP1 PUSH1 0x1 ADD SWAP1 PUSH1 0x20 ADD DUP1 DUP4 GT PUSH2 0x2FFA JUMPI DUP3 SWAP1 SUB PUSH1 0x1F AND DUP3 ADD SWAP2 JUMPDEST POP POP POP POP POP DUP2 MSTORE PUSH1 0x20 ADD PUSH1 0x9 DUP3 ADD DUP1 SLOAD PUSH2 0x3030 SWAP1 PUSH2 0x5B55 JUMP JUMPDEST DUP1 PUSH1 0x1F ADD PUSH1 0x20 DUP1 SWAP2 DIV MUL PUSH1 0x20 ADD PUSH1 0x40 MLOAD SWAP1 DUP2 ADD PUSH1 0x40 MSTORE DUP1 SWAP3 SWAP2 SWAP1 DUP2 DUP2 MSTORE PUSH1 0x20 ADD DUP3 DUP1 SLOAD PUSH2 0x305C SWAP1 PUSH2 0x5B55 JUMP JUMPDEST DUP1 ISZERO PUSH2 0x30A7 JUMPI DUP1 PUSH1 0x1F LT PUSH2 0x307E JUMPI PUSH2 0x100 DUP1 DUP4 SLOAD DIV MUL DUP4 MSTORE SWAP2 PUSH1 0x20 ADD SWAP2 PUSH2 0x30A7 JUMP JUMPDEST DUP3 ADD SWAP2 SWAP1 PUSH0 MSTORE PUSH1 0x20 PUSH0 KECCAK256 SWAP1 JUMPDEST DUP2 SLOAD DUP2 MSTORE SWAP1 PUSH1 0x1 ADD SWAP1 PUSH1 0x20 ADD DUP1 DUP4 GT PUSH2 0x308A JUMPI DUP3 SWAP1 SUB PUSH1 0x1F AND DUP3 ADD SWAP2 JUMPDEST POP POP POP POP POP DUP2 MSTORE POP POP DUP2 MSTORE POP POP DUP2 MSTORE PUSH1 0x20 ADD SWAP1 PUSH1 0x1 ADD SWAP1 PUSH2 0x21CD JUMP JUMPDEST PUSH2 0x30CE PUSH1 0x4 PUSH0 PUSH2 0x539C JUMP JUMPDEST PUSH1 0x40 DUP1 DUP6 ADD MLOAD DUP2 MLOAD PUSH2 0x140 DUP2 ADD SWAP1 SWAP3 MSTORE PUSH2 0x3159 SWAP2 PUSH1 0x8 PUSH1 0xA PUSH0 DUP4 JUMPDEST DUP3 DUP3 LT ISZERO PUSH2 0x314C JUMPI PUSH1 0x40 DUP1 MLOAD PUSH2 0x140 DUP2 ADD SWAP2 DUP3 SWAP1 MSTORE SWAP1 DUP6 DUP5 ADD SWAP1 PUSH1 0xA SWAP1 DUP3 PUSH0 DUP6 JUMPDEST DUP3 SLOAD PUSH2 0x100 DUP4 SWAP1 EXP SWAP1 DIV PUSH1 0xFF AND DUP2 MSTORE PUSH1 0x20 PUSH1 0x1 SWAP3 DUP4 ADD DUP2 DUP2 DIV SWAP5 DUP6 ADD SWAP5 SWAP1 SWAP4 SUB SWAP1 SWAP3 MUL SWAP2 ADD DUP1 DUP5 GT PUSH2 0x310A JUMPI SWAP1 POP POP POP POP POP POP DUP2 MSTORE PUSH1 0x20 ADD SWAP1 PUSH1 0x1 ADD SWAP1 PUSH2 0x30E9 JUMP JUMPDEST POP POP POP POP PUSH1 0x4 PUSH1 0x1 PUSH2 0x3BE0 JUMP JUMPDEST PUSH0 DUP1 JUMPDEST PUSH1 0x5 SLOAD DUP2 LT ISZERO PUSH2 0x3B97 JUMPI DUP5 DUP1 MLOAD SWAP1 PUSH1 0x20 ADD KECCAK256 PUSH1 0x5 DUP3 DUP2 SLOAD DUP2 LT PUSH2 0x3181 JUMPI PUSH2 0x3181 PUSH2 0x5B87 JUMP JUMPDEST SWAP1 PUSH0 MSTORE PUSH1 0x20 PUSH0 KECCAK256 SWAP1 PUSH1 0xF MUL ADD PUSH1 0x3 ADD PUSH1 0x40 MLOAD PUSH2 0x319D SWAP2 SWAP1 PUSH2 0x5B9B JUMP JUMPDEST PUSH1 0x40 MLOAD DUP1 SWAP2 SUB SWAP1 KECCAK256 SUB PUSH2 0x3B8F JUMPI PUSH0 JUMPDEST PUSH1 0x4 SLOAD PUSH1 0xFF DUP3 AND LT ISZERO PUSH2 0x3B8D JUMPI PUSH1 0x4 DUP2 PUSH1 0xFF AND DUP2 SLOAD DUP2 LT PUSH2 0x31CF JUMPI PUSH2 0x31CF PUSH2 0x5B87 JUMP JUMPDEST SWAP1 PUSH0 MSTORE PUSH1 0x20 PUSH0 KECCAK256 SWAP1 PUSH1 0x20 SWAP2 DUP3 DUP3 DIV ADD SWAP2 SWAP1 MOD SWAP1 SLOAD SWAP1 PUSH2 0x100 EXP SWAP1 DIV PUSH1 0xFF AND PUSH1 0xFF AND PUSH1 0x5 DUP4 DUP2 SLOAD DUP2 LT PUSH2 0x3203 JUMPI PUSH2 0x3203 PUSH2 0x5B87 JUMP JUMPDEST PUSH0 SWAP2 DUP3 MSTORE PUSH1 0x20 SWAP1 SWAP2 KECCAK256 PUSH1 0xF SWAP1 SWAP2 MUL ADD PUSH1 0x1 ADD SLOAD PUSH2 0x100 SWAP1 DIV PUSH1 0xFF AND SUB PUSH2 0x3B7B JUMPI PUSH0 PUSH2 0x323B DUP6 PUSH1 0x5 DUP6 DUP2 SLOAD DUP2 LT PUSH2 0x1264 JUMPI PUSH2 0x1264 PUSH2 0x5B87 JUMP JUMPDEST SWAP1 POP PUSH2 0x3248 DUP8 PUSH1 0x3 PUSH2 0x3E7F JUMP JUMPDEST DUP2 PUSH1 0xFF AND LT PUSH2 0x3B79 JUMPI PUSH1 0x1 SWAP4 POP PUSH0 DUP1 MLOAD PUSH1 0x20 PUSH2 0x5FD9 DUP4 CODECOPY DUP2 MLOAD SWAP2 MSTORE PUSH1 0x5 DUP5 DUP2 SLOAD DUP2 LT PUSH2 0x3276 JUMPI PUSH2 0x3276 PUSH2 0x5B87 JUMP JUMPDEST SWAP1 PUSH0 MSTORE PUSH1 0x20 PUSH0 KECCAK256 SWAP1 PUSH1 0xF MUL ADD PUSH0 ADD PUSH1 0x5 DUP6 DUP2 SLOAD DUP2 LT PUSH2 0x3297 JUMPI PUSH2 0x3297 PUSH2 0x5B87 JUMP JUMPDEST SWAP1 PUSH0 MSTORE PUSH1 0x20 PUSH0 KECCAK256 SWAP1 PUSH1 0xF MUL ADD PUSH1 0x3 ADD PUSH1 0x5 DUP7 DUP2 SLOAD DUP2 LT PUSH2 0x32B9 JUMPI PUSH2 0x32B9 PUSH2 0x5B87 JUMP JUMPDEST PUSH0 SWAP2 DUP3 MSTORE PUSH1 0x20 SWAP1 SWAP2 KECCAK256 PUSH1 0x4 PUSH1 0xF SWAP1 SWAP3 MUL ADD ADD SLOAD PUSH1 0xFF AND PUSH2 0x32DA DUP6 PUSH1 0xA PUSH2 0x5C20 JUMP JUMPDEST PUSH1 0x40 MLOAD PUSH2 0x32EA SWAP5 SWAP4 SWAP3 SWAP2 SWAP1 PUSH2 0x5CC1 JUMP JUMPDEST PUSH1 0x40 MLOAD DUP1 SWAP2 SUB SWAP1 LOG1 PUSH0 PUSH1 0x5 DUP5 DUP2 SLOAD DUP2 LT PUSH2 0x3306 JUMPI PUSH2 0x3306 PUSH2 0x5B87 JUMP JUMPDEST PUSH0 SWAP2 DUP3 MSTORE PUSH1 0x20 SWAP1 SWAP2 KECCAK256 PUSH1 0x4 PUSH1 0xF SWAP1 SWAP3 MUL ADD ADD SLOAD PUSH2 0x3326 SWAP1 PUSH1 0xFF AND DUP9 PUSH2 0x5D3D JUMP JUMPDEST SWAP1 POP PUSH0 DUP2 PUSH0 SIGNEXTEND SGT ISZERO PUSH2 0x3AF5 JUMPI PUSH2 0x3AD5 PUSH1 0x7 PUSH1 0x5 DUP7 DUP2 SLOAD DUP2 LT PUSH2 0x334A JUMPI PUSH2 0x334A PUSH2 0x5B87 JUMP JUMPDEST SWAP1 PUSH0 MSTORE PUSH1 0x20 PUSH0 KECCAK256 SWAP1 PUSH1 0xF MUL ADD PUSH0 ADD PUSH1 0x40 MLOAD DUP1 PUSH1 0x80 ADD PUSH1 0x40 MSTORE SWAP1 DUP2 PUSH0 DUP3 ADD DUP1 SLOAD PUSH2 0x3372 SWAP1 PUSH2 0x5B55 JUMP JUMPDEST DUP1 PUSH1 0x1F ADD PUSH1 0x20 DUP1 SWAP2 DIV MUL PUSH1 0x20 ADD PUSH1 0x40 MLOAD SWAP1 DUP2 ADD PUSH1 0x40 MSTORE DUP1 SWAP3 SWAP2 SWAP1 DUP2 DUP2 MSTORE PUSH1 0x20 ADD DUP3 DUP1 SLOAD PUSH2 0x339E SWAP1 PUSH2 0x5B55 JUMP JUMPDEST DUP1 ISZERO PUSH2 0x33E9 JUMPI DUP1 PUSH1 0x1F LT PUSH2 0x33C0 JUMPI PUSH2 0x100 DUP1 DUP4 SLOAD DIV MUL DUP4 MSTORE SWAP2 PUSH1 0x20 ADD SWAP2 PUSH2 0x33E9 JUMP JUMPDEST DUP3 ADD SWAP2 SWAP1 PUSH0 MSTORE PUSH1 0x20 PUSH0 KECCAK256 SWAP1 JUMPDEST DUP2 SLOAD DUP2 MSTORE SWAP1 PUSH1 0x1 ADD SWAP1 PUSH1 0x20 ADD DUP1 DUP4 GT PUSH2 0x33CC JUMPI DUP3 SWAP1 SUB PUSH1 0x1F AND DUP3 ADD SWAP2 JUMPDEST POP POP POP SWAP2 DUP4 MSTORE POP POP PUSH1 0x1 DUP3 ADD SLOAD PUSH1 0xFF DUP1 DUP3 AND PUSH1 0x20 DUP5 ADD MSTORE PUSH2 0x100 SWAP1 SWAP2 DIV AND PUSH1 0x40 DUP3 ADD MSTORE PUSH1 0x2 DUP3 ADD DUP1 SLOAD PUSH1 0x60 SWAP1 SWAP3 ADD SWAP2 PUSH2 0x3421 SWAP1 PUSH2 0x5B55 JUMP JUMPDEST DUP1 PUSH1 0x1F ADD PUSH1 0x20 DUP1 SWAP2 DIV MUL PUSH1 0x20 ADD PUSH1 0x40 MLOAD SWAP1 DUP2 ADD PUSH1 0x40 MSTORE DUP1 SWAP3 SWAP2 SWAP1 DUP2 DUP2 MSTORE PUSH1 0x20 ADD DUP3 DUP1 SLOAD PUSH2 0x344D SWAP1 PUSH2 0x5B55 JUMP JUMPDEST DUP1 ISZERO PUSH2 0x3498 JUMPI DUP1 PUSH1 0x1F LT PUSH2 0x346F JUMPI PUSH2 0x100 DUP1 DUP4 SLOAD DIV MUL DUP4 MSTORE SWAP2 PUSH1 0x20 ADD SWAP2 PUSH2 0x3498 JUMP JUMPDEST DUP3 ADD SWAP2 SWAP1 PUSH0 MSTORE PUSH1 0x20 PUSH0 KECCAK256 SWAP1 JUMPDEST DUP2 SLOAD DUP2 MSTORE SWAP1 PUSH1 0x1 ADD SWAP1 PUSH1 0x20 ADD DUP1 DUP4 GT PUSH2 0x347B JUMPI DUP3 SWAP1 SUB PUSH1 0x1F AND DUP3 ADD SWAP2 JUMPDEST POP POP POP POP POP DUP2 MSTORE POP POP DUP12 DUP12 PUSH1 0x5 DUP10 DUP2 SLOAD DUP2 LT PUSH2 0x34B6 JUMPI PUSH2 0x34B6 PUSH2 0x5B87 JUMP JUMPDEST SWAP1 PUSH0 MSTORE PUSH1 0x20 PUSH0 KECCAK256 SWAP1 PUSH1 0xF MUL ADD PUSH1 0x4 ADD PUSH0 SWAP1 SLOAD SWAP1 PUSH2 0x100 EXP SWAP1 DIV PUSH1 0xFF AND DUP13 PUSH1 0x5 DUP12 DUP2 SLOAD DUP2 LT PUSH2 0x34E6 JUMPI PUSH2 0x34E6 PUSH2 0x5B87 JUMP JUMPDEST SWAP1 PUSH0 MSTORE PUSH1 0x20 PUSH0 KECCAK256 SWAP1 PUSH1 0xF MUL ADD PUSH1 0x4 ADD PUSH0 SWAP1 SLOAD SWAP1 PUSH2 0x100 EXP SWAP1 DIV PUSH1 0xFF AND PUSH1 0x5 DUP13 DUP2 SLOAD DUP2 LT PUSH2 0x3515 JUMPI PUSH2 0x3515 PUSH2 0x5B87 JUMP JUMPDEST SWAP1 PUSH0 MSTORE PUSH1 0x20 PUSH0 KECCAK256 SWAP1 PUSH1 0xF MUL ADD PUSH1 0x5 ADD PUSH1 0x40 MLOAD DUP1 PUSH2 0x140 ADD PUSH1 0x40 MSTORE SWAP1 DUP2 PUSH0 DUP3 ADD DUP1 SLOAD PUSH2 0x353F SWAP1 PUSH2 0x5B55 JUMP JUMPDEST DUP1 PUSH1 0x1F ADD PUSH1 0x20 DUP1 SWAP2 DIV MUL PUSH1 0x20 ADD PUSH1 0x40 MLOAD SWAP1 DUP2 ADD PUSH1 0x40 MSTORE DUP1 SWAP3 SWAP2 SWAP1 DUP2 DUP2 MSTORE PUSH1 0x20 ADD DUP3 DUP1 SLOAD PUSH2 0x356B SWAP1 PUSH2 0x5B55 JUMP JUMPDEST DUP1 ISZERO PUSH2 0x35B6 JUMPI DUP1 PUSH1 0x1F LT PUSH2 0x358D JUMPI PUSH2 0x100 DUP1 DUP4 SLOAD DIV MUL DUP4 MSTORE SWAP2 PUSH1 0x20 ADD SWAP2 PUSH2 0x35B6 JUMP JUMPDEST DUP3 ADD SWAP2 SWAP1 PUSH0 MSTORE PUSH1 0x20 PUSH0 KECCAK256 SWAP1 JUMPDEST DUP2 SLOAD DUP2 MSTORE SWAP1 PUSH1 0x1 ADD SWAP1 PUSH1 0x20 ADD DUP1 DUP4 GT PUSH2 0x3599 JUMPI DUP3 SWAP1 SUB PUSH1 0x1F AND DUP3 ADD SWAP2 JUMPDEST POP POP POP POP POP DUP2 MSTORE PUSH1 0x20 ADD PUSH1 0x1 DUP3 ADD DUP1 SLOAD PUSH2 0x35CF SWAP1 PUSH2 0x5B55 JUMP JUMPDEST DUP1 PUSH1 0x1F ADD PUSH1 0x20 DUP1 SWAP2 DIV MUL PUSH1 0x20 ADD PUSH1 0x40 MLOAD SWAP1 DUP2 ADD PUSH1 0x40 MSTORE DUP1 SWAP3 SWAP2 SWAP1 DUP2 DUP2 MSTORE PUSH1 0x20 ADD DUP3 DUP1 SLOAD PUSH2 0x35FB SWAP1 PUSH2 0x5B55 JUMP JUMPDEST DUP1 ISZERO PUSH2 0x3646 JUMPI DUP1 PUSH1 0x1F LT PUSH2 0x361D JUMPI PUSH2 0x100 DUP1 DUP4 SLOAD DIV MUL DUP4 MSTORE SWAP2 PUSH1 0x20 ADD SWAP2 PUSH2 0x3646 JUMP JUMPDEST DUP3 ADD SWAP2 SWAP1 PUSH0 MSTORE PUSH1 0x20 PUSH0 KECCAK256 SWAP1 JUMPDEST DUP2 SLOAD DUP2 MSTORE SWAP1 PUSH1 0x1 ADD SWAP1 PUSH1 0x20 ADD DUP1 DUP4 GT PUSH2 0x3629 JUMPI DUP3 SWAP1 SUB PUSH1 0x1F AND DUP3 ADD SWAP2 JUMPDEST POP POP POP POP POP DUP2 MSTORE PUSH1 0x20 ADD PUSH1 0x2 DUP3 ADD DUP1 SLOAD PUSH2 0x365F SWAP1 PUSH2 0x5B55 JUMP JUMPDEST DUP1 PUSH1 0x1F ADD PUSH1 0x20 DUP1 SWAP2 DIV MUL PUSH1 0x20 ADD PUSH1 0x40 MLOAD SWAP1 DUP2 ADD PUSH1 0x40 MSTORE DUP1 SWAP3 SWAP2 SWAP1 DUP2 DUP2 MSTORE PUSH1 0x20 ADD DUP3 DUP1 SLOAD PUSH2 0x368B SWAP1 PUSH2 0x5B55 JUMP JUMPDEST DUP1 ISZERO PUSH2 0x36D6 JUMPI DUP1 PUSH1 0x1F LT PUSH2 0x36AD JUMPI PUSH2 0x100 DUP1 DUP4 SLOAD DIV MUL DUP4 MSTORE SWAP2 PUSH1 0x20 ADD SWAP2 PUSH2 0x36D6 JUMP JUMPDEST DUP3 ADD SWAP2 SWAP1 PUSH0 MSTORE PUSH1 0x20 PUSH0 KECCAK256 SWAP1 JUMPDEST DUP2 SLOAD DUP2 MSTORE SWAP1 PUSH1 0x1 ADD SWAP1 PUSH1 0x20 ADD DUP1 DUP4 GT PUSH2 0x36B9 JUMPI DUP3 SWAP1 SUB PUSH1 0x1F AND DUP3 ADD SWAP2 JUMPDEST POP POP POP POP POP DUP2 MSTORE PUSH1 0x20 ADD PUSH1 0x3 DUP3 ADD DUP1 SLOAD PUSH2 0x36EF SWAP1 PUSH2 0x5B55 JUMP JUMPDEST DUP1 PUSH1 0x1F ADD PUSH1 0x20 DUP1 SWAP2 DIV MUL PUSH1 0x20 ADD PUSH1 0x40 MLOAD SWAP1 DUP2 ADD PUSH1 0x40 MSTORE DUP1 SWAP3 SWAP2 SWAP1 DUP2 DUP2 MSTORE PUSH1 0x20 ADD DUP3 DUP1 SLOAD PUSH2 0x371B SWAP1 PUSH2 0x5B55 JUMP JUMPDEST DUP1 ISZERO PUSH2 0x3766 JUMPI DUP1 PUSH1 0x1F LT PUSH2 0x373D JUMPI PUSH2 0x100 DUP1 DUP4 SLOAD DIV MUL DUP4 MSTORE SWAP2 PUSH1 0x20 ADD SWAP2 PUSH2 0x3766 JUMP JUMPDEST DUP3 ADD SWAP2 SWAP1 PUSH0 MSTORE PUSH1 0x20 PUSH0 KECCAK256 SWAP1 JUMPDEST DUP2 SLOAD DUP2 MSTORE SWAP1 PUSH1 0x1 ADD SWAP1 PUSH1 0x20 ADD DUP1 DUP4 GT PUSH2 0x3749 JUMPI DUP3 SWAP1 SUB PUSH1 0x1F AND DUP3 ADD SWAP2 JUMPDEST POP POP POP POP POP DUP2 MSTORE PUSH1 0x20 ADD PUSH1 0x4 DUP3 ADD DUP1 SLOAD PUSH2 0x377F SWAP1 PUSH2 0x5B55 JUMP JUMPDEST DUP1 PUSH1 0x1F ADD PUSH1 0x20 DUP1 SWAP2 DIV MUL PUSH1 0x20 ADD PUSH1 0x40 MLOAD SWAP1 DUP2 ADD PUSH1 0x40 MSTORE DUP1 SWAP3 SWAP2 SWAP1 DUP2 DUP2 MSTORE PUSH1 0x20 ADD DUP3 DUP1 SLOAD PUSH2 0x37AB SWAP1 PUSH2 0x5B55 JUMP JUMPDEST DUP1 ISZERO PUSH2 0x37F6 JUMPI DUP1 PUSH1 0x1F LT PUSH2 0x37CD JUMPI PUSH2 0x100 DUP1 DUP4 SLOAD DIV MUL DUP4 MSTORE SWAP2 PUSH1 0x20 ADD SWAP2 PUSH2 0x37F6 JUMP JUMPDEST DUP3 ADD SWAP2 SWAP1 PUSH0 MSTORE PUSH1 0x20 PUSH0 KECCAK256 SWAP1 JUMPDEST DUP2 SLOAD DUP2 MSTORE SWAP1 PUSH1 0x1 ADD SWAP1 PUSH1 0x20 ADD DUP1 DUP4 GT PUSH2 0x37D9 JUMPI DUP3 SWAP1 SUB PUSH1 0x1F AND DUP3 ADD SWAP2 JUMPDEST POP POP POP POP POP DUP2 MSTORE PUSH1 0x20 ADD PUSH1 0x5 DUP3 ADD DUP1 SLOAD PUSH2 0x380F SWAP1 PUSH2 0x5B55 JUMP JUMPDEST DUP1 PUSH1 0x1F ADD PUSH1 0x20 DUP1 SWAP2 DIV MUL PUSH1 0x20 ADD PUSH1 0x40 MLOAD SWAP1 DUP2 ADD PUSH1 0x40 MSTORE DUP1 SWAP3 SWAP2 SWAP1 DUP2 DUP2 MSTORE PUSH1 0x20 ADD DUP3 DUP1 SLOAD PUSH2 0x383B SWAP1 PUSH2 0x5B55 JUMP JUMPDEST DUP1 ISZERO PUSH2 0x3886 JUMPI DUP1 PUSH1 0x1F LT PUSH2 0x385D JUMPI PUSH2 0x100 DUP1 DUP4 SLOAD DIV MUL DUP4 MSTORE SWAP2 PUSH1 0x20 ADD SWAP2 PUSH2 0x3886 JUMP JUMPDEST DUP3 ADD SWAP2 SWAP1 PUSH0 MSTORE PUSH1 0x20 PUSH0 KECCAK256 SWAP1 JUMPDEST DUP2 SLOAD DUP2 MSTORE SWAP1 PUSH1 0x1 ADD SWAP1 PUSH1 0x20 ADD DUP1 DUP4 GT PUSH2 0x3869 JUMPI DUP3 SWAP1 SUB PUSH1 0x1F AND DUP3 ADD SWAP2 JUMPDEST POP POP POP POP POP DUP2 MSTORE PUSH1 0x20 ADD PUSH1 0x6 DUP3 ADD DUP1 SLOAD PUSH2 0x389F SWAP1 PUSH2 0x5B55 JUMP JUMPDEST DUP1 PUSH1 0x1F ADD PUSH1 0x20 DUP1 SWAP2 DIV MUL PUSH1 0x20 ADD PUSH1 0x40 MLOAD SWAP1 DUP2 ADD PUSH1 0x40 MSTORE DUP1 SWAP3 SWAP2 SWAP1 DUP2 DUP2 MSTORE PUSH1 0x20 ADD DUP3 DUP1 SLOAD PUSH2 0x38CB SWAP1 PUSH2 0x5B55 JUMP JUMPDEST DUP1 ISZERO PUSH2 0x3916 JUMPI DUP1 PUSH1 0x1F LT PUSH2 0x38ED JUMPI PUSH2 0x100 DUP1 DUP4 SLOAD DIV MUL DUP4 MSTORE SWAP2 PUSH1 0x20 ADD SWAP2 PUSH2 0x3916 JUMP JUMPDEST DUP3 ADD SWAP2 SWAP1 PUSH0 MSTORE PUSH1 0x20 PUSH0 KECCAK256 SWAP1 JUMPDEST DUP2 SLOAD DUP2 MSTORE SWAP1 PUSH1 0x1 ADD SWAP1 PUSH1 0x20 ADD DUP1 DUP4 GT PUSH2 0x38F9 JUMPI DUP3 SWAP1 SUB PUSH1 0x1F AND DUP3 ADD SWAP2 JUMPDEST POP POP POP POP POP DUP2 MSTORE PUSH1 0x20 ADD PUSH1 0x7 DUP3 ADD DUP1 SLOAD PUSH2 0x392F SWAP1 PUSH2 0x5B55 JUMP JUMPDEST DUP1 PUSH1 0x1F ADD PUSH1 0x20 DUP1 SWAP2 DIV MUL PUSH1 0x20 ADD PUSH1 0x40 MLOAD SWAP1 DUP2 ADD PUSH1 0x40 MSTORE DUP1 SWAP3 SWAP2 SWAP1 DUP2 DUP2 MSTORE PUSH1 0x20 ADD DUP3 DUP1 SLOAD PUSH2 0x395B SWAP1 PUSH2 0x5B55 JUMP JUMPDEST DUP1 ISZERO PUSH2 0x39A6 JUMPI DUP1 PUSH1 0x1F LT PUSH2 0x397D JUMPI PUSH2 0x100 DUP1 DUP4 SLOAD DIV MUL DUP4 MSTORE SWAP2 PUSH1 0x20 ADD SWAP2 PUSH2 0x39A6 JUMP JUMPDEST DUP3 ADD SWAP2 SWAP1 PUSH0 MSTORE PUSH1 0x20 PUSH0 KECCAK256 SWAP1 JUMPDEST DUP2 SLOAD DUP2 MSTORE SWAP1 PUSH1 0x1 ADD SWAP1 PUSH1 0x20 ADD DUP1 DUP4 GT PUSH2 0x3989 JUMPI DUP3 SWAP1 SUB PUSH1 0x1F AND DUP3 ADD SWAP2 JUMPDEST POP POP POP POP POP DUP2 MSTORE PUSH1 0x20 ADD PUSH1 0x8 DUP3 ADD DUP1 SLOAD PUSH2 0x39BF SWAP1 PUSH2 0x5B55 JUMP JUMPDEST DUP1 PUSH1 0x1F ADD PUSH1 0x20 DUP1 SWAP2 DIV MUL PUSH1 0x20 ADD PUSH1 0x40 MLOAD SWAP1 DUP2 ADD PUSH1 0x40 MSTORE DUP1 SWAP3 SWAP2 SWAP1 DUP2 DUP2 MSTORE PUSH1 0x20 ADD DUP3 DUP1 SLOAD PUSH2 0x39EB SWAP1 PUSH2 0x5B55 JUMP JUMPDEST DUP1 ISZERO PUSH2 0x3A36 JUMPI DUP1 PUSH1 0x1F LT PUSH2 0x3A0D JUMPI PUSH2 0x100 DUP1 DUP4 SLOAD DIV MUL DUP4 MSTORE SWAP2 PUSH1 0x20 ADD SWAP2 PUSH2 0x3A36 JUMP JUMPDEST DUP3 ADD SWAP2 SWAP1 PUSH0 MSTORE PUSH1 0x20 PUSH0 KECCAK256 SWAP1 JUMPDEST DUP2 SLOAD DUP2 MSTORE SWAP1 PUSH1 0x1 ADD SWAP1 PUSH1 0x20 ADD DUP1 DUP4 GT PUSH2 0x3A19 JUMPI DUP3 SWAP1 SUB PUSH1 0x1F AND DUP3 ADD SWAP2 JUMPDEST POP POP POP POP POP DUP2 MSTORE PUSH1 0x20 ADD PUSH1 0x9 DUP3 ADD DUP1 SLOAD PUSH2 0x3A4F SWAP1 PUSH2 0x5B55 JUMP JUMPDEST DUP1 PUSH1 0x1F ADD PUSH1 0x20 DUP1 SWAP2 DIV MUL PUSH1 0x20 ADD PUSH1 0x40 MLOAD SWAP1 DUP2 ADD PUSH1 0x40 MSTORE DUP1 SWAP3 SWAP2 SWAP1 DUP2 DUP2 MSTORE PUSH1 0x20 ADD DUP3 DUP1 SLOAD PUSH2 0x3A7B SWAP1 PUSH2 0x5B55 JUMP JUMPDEST DUP1 ISZERO PUSH2 0x3AC6 JUMPI DUP1 PUSH1 0x1F LT PUSH2 0x3A9D JUMPI PUSH2 0x100 DUP1 DUP4 SLOAD DIV MUL DUP4 MSTORE SWAP2 PUSH1 0x20 ADD SWAP2 PUSH2 0x3AC6 JUMP JUMPDEST DUP3 ADD SWAP2 SWAP1 PUSH0 MSTORE PUSH1 0x20 PUSH0 KECCAK256 SWAP1 JUMPDEST DUP2 SLOAD DUP2 MSTORE SWAP1 PUSH1 0x1 ADD SWAP1 PUSH1 0x20 ADD DUP1 DUP4 GT PUSH2 0x3AA9 JUMPI DUP3 SWAP1 SUB PUSH1 0x1F AND DUP3 ADD SWAP2 JUMPDEST POP POP POP POP POP DUP2 MSTORE POP POP DUP15 PUSH2 0x4026 JUMP JUMPDEST PUSH2 0x3AE3 PUSH1 0x6 DUP11 DUP11 DUP5 DUP11 PUSH2 0x4351 JUMP JUMPDEST PUSH2 0x3AEE PUSH1 0x5 DUP6 PUSH2 0x44FE JUMP JUMPDEST POP POP PUSH2 0x3B8D JUMP JUMPDEST DUP1 PUSH0 SIGNEXTEND PUSH0 SUB PUSH2 0x3B16 JUMPI PUSH2 0x3AE3 PUSH1 0x7 PUSH1 0x5 DUP7 DUP2 SLOAD DUP2 LT PUSH2 0x334A JUMPI PUSH2 0x334A PUSH2 0x5B87 JUMP JUMPDEST PUSH2 0x3B2E PUSH1 0x7 PUSH1 0x5 DUP7 DUP2 SLOAD DUP2 LT PUSH2 0x334A JUMPI PUSH2 0x334A PUSH2 0x5B87 JUMP JUMPDEST PUSH2 0x3B39 DUP2 PUSH0 NOT PUSH2 0x5D5D JUMP JUMPDEST PUSH1 0x5 DUP6 DUP2 SLOAD DUP2 LT PUSH2 0x3B4C JUMPI PUSH2 0x3B4C PUSH2 0x5B87 JUMP JUMPDEST SWAP1 PUSH0 MSTORE PUSH1 0x20 PUSH0 KECCAK256 SWAP1 PUSH1 0xF MUL ADD PUSH1 0x4 ADD PUSH0 PUSH2 0x100 EXP DUP2 SLOAD DUP2 PUSH1 0xFF MUL NOT AND SWAP1 DUP4 PUSH1 0xFF AND MUL OR SWAP1 SSTORE POP POP POP PUSH2 0x3B8D JUMP JUMPDEST POP JUMPDEST DUP1 PUSH2 0x3B85 DUP2 PUSH2 0x5D79 JUMP JUMPDEST SWAP2 POP POP PUSH2 0x31AC JUMP JUMPDEST POP JUMPDEST PUSH1 0x1 ADD PUSH2 0x315C JUMP JUMPDEST POP DUP1 PUSH2 0x2196 JUMPI PUSH2 0x2196 PUSH1 0x6 DUP7 DUP7 DUP7 DUP7 PUSH2 0x4351 JUMP JUMPDEST DUP1 DUP3 PUSH1 0x40 MLOAD PUSH1 0x20 ADD PUSH2 0x3BBD SWAP2 SWAP1 PUSH2 0x5D97 JUMP JUMPDEST PUSH1 0x40 MLOAD PUSH1 0x20 DUP2 DUP4 SUB SUB DUP2 MSTORE SWAP1 PUSH1 0x40 MSTORE DUP1 MLOAD SWAP1 PUSH1 0x20 ADD KECCAK256 EQ PUSH2 0x3BDC JUMPI PUSH0 DUP1 REVERT JUMPDEST POP POP JUMP JUMPDEST DUP4 PUSH1 0xFF AND PUSH1 0x8 EQ DUP1 PUSH2 0x3BF5 JUMPI POP DUP4 PUSH1 0xFF AND PUSH1 0x9 EQ JUMPDEST ISZERO PUSH2 0x3C32 JUMPI DUP2 SLOAD PUSH1 0x1 DUP2 ADD DUP4 SSTORE PUSH0 DUP4 DUP2 MSTORE PUSH1 0x20 SWAP1 DUP2 SWAP1 KECCAK256 SWAP1 DUP3 DIV ADD DUP1 SLOAD PUSH1 0xFF DUP1 DUP9 AND PUSH1 0x1F SWAP1 SWAP5 AND PUSH2 0x100 EXP SWAP4 DUP5 MUL SWAP4 MUL NOT AND SWAP2 SWAP1 SWAP2 OR SWAP1 SSTORE PUSH2 0x3D50 JUMP JUMPDEST DUP1 PUSH1 0xFF AND PUSH0 SUB PUSH2 0x3CC9 JUMPI PUSH0 JUMPDEST PUSH1 0x8 DUP2 PUSH1 0xFF AND LT ISZERO PUSH2 0x3CC3 JUMPI DUP4 DUP2 PUSH1 0xFF AND PUSH1 0xA DUP2 LT PUSH2 0x3C5F JUMPI PUSH2 0x3C5F PUSH2 0x5B87 JUMP JUMPDEST PUSH1 0x20 MUL ADD MLOAD DUP6 PUSH1 0xFF AND PUSH1 0xA DUP2 LT PUSH2 0x3C78 JUMPI PUSH2 0x3C78 PUSH2 0x5B87 JUMP JUMPDEST PUSH1 0x20 MUL ADD MLOAD PUSH1 0xFF AND PUSH1 0x1 SUB PUSH2 0x3CBB JUMPI DUP3 SLOAD PUSH1 0x1 DUP2 ADD DUP5 SSTORE PUSH0 DUP5 DUP2 MSTORE PUSH1 0x20 SWAP1 DUP2 SWAP1 KECCAK256 SWAP1 DUP3 DIV ADD DUP1 SLOAD PUSH1 0xFF DUP1 DUP6 AND PUSH1 0x1F SWAP1 SWAP5 AND PUSH2 0x100 EXP SWAP4 DUP5 MUL SWAP4 MUL NOT AND SWAP2 SWAP1 SWAP2 OR SWAP1 SSTORE JUMPDEST PUSH1 0x1 ADD PUSH2 0x3C3E JUMP JUMPDEST POP PUSH2 0x3D50 JUMP JUMPDEST PUSH0 JUMPDEST PUSH1 0x8 DUP2 PUSH1 0xFF AND LT ISZERO PUSH2 0x2196 JUMPI DUP4 DUP6 PUSH1 0xFF AND PUSH1 0xA DUP2 LT PUSH2 0x3CEC JUMPI PUSH2 0x3CEC PUSH2 0x5B87 JUMP JUMPDEST PUSH1 0x20 MUL ADD MLOAD DUP2 PUSH1 0xFF AND PUSH1 0xA DUP2 LT PUSH2 0x3D05 JUMPI PUSH2 0x3D05 PUSH2 0x5B87 JUMP JUMPDEST PUSH1 0x20 MUL ADD MLOAD PUSH1 0xFF AND PUSH1 0x1 SUB PUSH2 0x3D48 JUMPI DUP3 SLOAD PUSH1 0x1 DUP2 ADD DUP5 SSTORE PUSH0 DUP5 DUP2 MSTORE PUSH1 0x20 SWAP1 DUP2 SWAP1 KECCAK256 SWAP1 DUP3 DIV ADD DUP1 SLOAD PUSH1 0xFF DUP1 DUP6 AND PUSH1 0x1F SWAP1 SWAP5 AND PUSH2 0x100 EXP SWAP4 DUP5 MUL SWAP4 MUL NOT AND SWAP2 SWAP1 SWAP2 OR SWAP1 SSTORE JUMPDEST PUSH1 0x1 ADD PUSH2 0x3CCB JUMP JUMPDEST POP POP POP POP JUMP JUMPDEST PUSH0 PUSH2 0x3D69 DUP5 PUSH1 0x20 ADD MLOAD DUP5 PUSH1 0x20 ADD MLOAD PUSH2 0x50F5 JUMP JUMPDEST DUP5 MLOAD DUP5 MLOAD PUSH2 0x3D77 SWAP2 SWAP1 PUSH2 0x50F5 JUMP JUMPDEST PUSH2 0x3D81 SWAP2 SWAP1 PUSH2 0x5DAD JUMP JUMPDEST PUSH2 0x3D8B SWAP1 DUP4 PUSH2 0x5DAD JUMP JUMPDEST SWAP2 POP PUSH2 0x3D9F DUP5 PUSH1 0x60 ADD MLOAD DUP5 PUSH1 0x60 ADD MLOAD PUSH2 0x50F5 JUMP JUMPDEST PUSH2 0x3DB1 DUP6 PUSH1 0x40 ADD MLOAD DUP6 PUSH1 0x40 ADD MLOAD PUSH2 0x50F5 JUMP JUMPDEST PUSH2 0x3DBB SWAP2 SWAP1 PUSH2 0x5DAD JUMP JUMPDEST PUSH2 0x3DC5 SWAP1 DUP4 PUSH2 0x5DAD JUMP JUMPDEST SWAP2 POP PUSH2 0x3DD9 DUP5 PUSH1 0xA0 ADD MLOAD DUP5 PUSH1 0xA0 ADD MLOAD PUSH2 0x50F5 JUMP JUMPDEST PUSH2 0x3DEB DUP6 PUSH1 0x80 ADD MLOAD DUP6 PUSH1 0x80 ADD MLOAD PUSH2 0x50F5 JUMP JUMPDEST PUSH2 0x3DF5 SWAP2 SWAP1 PUSH2 0x5DAD JUMP JUMPDEST PUSH2 0x3DFF SWAP1 DUP4 PUSH2 0x5DAD JUMP JUMPDEST SWAP2 POP PUSH2 0x3E13 DUP5 PUSH1 0xE0 ADD MLOAD DUP5 PUSH1 0xE0 ADD MLOAD PUSH2 0x50F5 JUMP JUMPDEST PUSH2 0x3E25 DUP6 PUSH1 0xC0 ADD MLOAD DUP6 PUSH1 0xC0 ADD MLOAD PUSH2 0x50F5 JUMP JUMPDEST PUSH2 0x3E2F SWAP2 SWAP1 PUSH2 0x5DAD JUMP JUMPDEST PUSH2 0x3E39 SWAP1 DUP4 PUSH2 0x5DAD JUMP JUMPDEST SWAP2 POP PUSH2 0x3E4F DUP5 PUSH2 0x120 ADD MLOAD DUP5 PUSH2 0x120 ADD MLOAD PUSH2 0x50F5 JUMP JUMPDEST PUSH2 0x3E63 DUP6 PUSH2 0x100 ADD MLOAD DUP6 PUSH2 0x100 ADD MLOAD PUSH2 0x50F5 JUMP JUMPDEST PUSH2 0x3E6D SWAP2 SWAP1 PUSH2 0x5DAD JUMP JUMPDEST PUSH2 0x3E77 SWAP1 DUP4 PUSH2 0x5DAD JUMP JUMPDEST SWAP5 SWAP4 POP POP POP POP JUMP JUMPDEST PUSH1 0x40 DUP1 MLOAD PUSH1 0xA0 DUP2 ADD DUP3 MSTORE PUSH1 0x9 DUP2 MSTORE PUSH1 0x7 PUSH1 0x20 DUP3 ADD MSTORE PUSH1 0x5 SWAP2 DUP2 ADD SWAP2 SWAP1 SWAP2 MSTORE PUSH1 0x2 PUSH1 0x60 DUP3 ADD MSTORE PUSH0 PUSH1 0x80 DUP3 ADD DUP2 SWAP1 MSTORE SWAP1 DUP2 DUP1 JUMPDEST PUSH1 0x5 DUP2 LT ISZERO PUSH2 0x401B JUMPI PUSH0 DUP6 PUSH0 DUP6 DUP5 PUSH1 0x5 DUP2 LT PUSH2 0x3ECE JUMPI PUSH2 0x3ECE PUSH2 0x5B87 JUMP JUMPDEST PUSH1 0x20 MUL ADD MLOAD PUSH1 0xFF AND PUSH1 0xFF AND DUP2 MSTORE PUSH1 0x20 ADD SWAP1 DUP2 MSTORE PUSH1 0x20 ADD PUSH0 KECCAK256 DUP1 SLOAD DUP1 PUSH1 0x20 MUL PUSH1 0x20 ADD PUSH1 0x40 MLOAD SWAP1 DUP2 ADD PUSH1 0x40 MSTORE DUP1 SWAP3 SWAP2 SWAP1 DUP2 DUP2 MSTORE PUSH1 0x20 ADD PUSH0 SWAP1 JUMPDEST DUP3 DUP3 LT ISZERO PUSH2 0x3FAD JUMPI DUP4 DUP3 SWAP1 PUSH0 MSTORE PUSH1 0x20 PUSH0 KECCAK256 ADD DUP1 SLOAD PUSH2 0x3F22 SWAP1 PUSH2 0x5B55 JUMP JUMPDEST DUP1 PUSH1 0x1F ADD PUSH1 0x20 DUP1 SWAP2 DIV MUL PUSH1 0x20 ADD PUSH1 0x40 MLOAD SWAP1 DUP2 ADD PUSH1 0x40 MSTORE DUP1 SWAP3 SWAP2 SWAP1 DUP2 DUP2 MSTORE PUSH1 0x20 ADD DUP3 DUP1 SLOAD PUSH2 0x3F4E SWAP1 PUSH2 0x5B55 JUMP JUMPDEST DUP1 ISZERO PUSH2 0x3F99 JUMPI DUP1 PUSH1 0x1F LT PUSH2 0x3F70 JUMPI PUSH2 0x100 DUP1 DUP4 SLOAD DIV MUL DUP4 MSTORE SWAP2 PUSH1 0x20 ADD SWAP2 PUSH2 0x3F99 JUMP JUMPDEST DUP3 ADD SWAP2 SWAP1 PUSH0 MSTORE PUSH1 0x20 PUSH0 KECCAK256 SWAP1 JUMPDEST DUP2 SLOAD DUP2 MSTORE SWAP1 PUSH1 0x1 ADD SWAP1 PUSH1 0x20 ADD DUP1 DUP4 GT PUSH2 0x3F7C JUMPI DUP3 SWAP1 SUB PUSH1 0x1F AND DUP3 ADD SWAP2 JUMPDEST POP POP POP POP POP DUP2 MSTORE PUSH1 0x20 ADD SWAP1 PUSH1 0x1 ADD SWAP1 PUSH2 0x3F05 JUMP JUMPDEST POP POP POP POP SWAP1 POP PUSH0 JUMPDEST DUP2 MLOAD DUP2 LT ISZERO PUSH2 0x4011 JUMPI DUP8 DUP1 MLOAD SWAP1 PUSH1 0x20 ADD KECCAK256 DUP3 DUP3 DUP2 MLOAD DUP2 LT PUSH2 0x3FD8 JUMPI PUSH2 0x3FD8 PUSH2 0x5B87 JUMP JUMPDEST PUSH1 0x20 MUL PUSH1 0x20 ADD ADD MLOAD DUP1 MLOAD SWAP1 PUSH1 0x20 ADD KECCAK256 SUB PUSH2 0x4009 JUMPI DUP5 DUP4 PUSH1 0x5 DUP2 LT PUSH2 0x3FFE JUMPI PUSH2 0x3FFE PUSH2 0x5B87 JUMP JUMPDEST PUSH1 0x20 MUL ADD MLOAD PUSH1 0xFF AND SWAP4 POP JUMPDEST PUSH1 0x1 ADD PUSH2 0x3FB5 JUMP JUMPDEST POP POP PUSH1 0x1 ADD PUSH2 0x3EB0 JUMP JUMPDEST POP SWAP2 POP POP JUMPDEST SWAP3 SWAP2 POP POP JUMP JUMPDEST PUSH1 0x40 DUP1 MLOAD PUSH2 0x100 DUP2 ADD DUP3 MSTORE DUP10 DUP2 MSTORE PUSH1 0x20 DUP1 DUP3 ADD DUP11 SWAP1 MSTORE SWAP2 DUP2 ADD DUP9 SWAP1 MSTORE PUSH1 0xFF DUP1 DUP9 AND PUSH1 0x60 DUP4 ADD MSTORE DUP7 DUP2 AND PUSH1 0x80 DUP4 ADD MSTORE DUP6 AND PUSH1 0xA0 DUP3 ADD MSTORE PUSH1 0xC0 DUP2 ADD DUP5 SWAP1 MSTORE PUSH1 0xE0 DUP2 ADD DUP4 SWAP1 MSTORE DUP11 SLOAD PUSH1 0x1 DUP2 ADD DUP13 SSTORE PUSH0 DUP13 DUP2 MSTORE SWAP3 SWAP1 SWAP3 KECCAK256 DUP2 MLOAD DUP1 MLOAD SWAP3 SWAP4 DUP5 SWAP4 PUSH1 0x1C SWAP1 SWAP2 MUL SWAP1 SWAP3 ADD SWAP2 DUP3 SWAP1 DUP2 SWAP1 PUSH2 0x4098 SWAP1 DUP3 PUSH2 0x5E23 JUMP JUMPDEST POP PUSH1 0x20 DUP3 ADD MLOAD PUSH1 0x1 DUP3 ADD DUP1 SLOAD PUSH1 0x40 DUP6 ADD MLOAD PUSH1 0xFF SWAP1 DUP2 AND PUSH2 0x100 MUL PUSH2 0xFFFF NOT SWAP1 SWAP3 AND SWAP4 AND SWAP3 SWAP1 SWAP3 OR SWAP2 SWAP1 SWAP2 OR SWAP1 SSTORE PUSH1 0x60 DUP3 ADD MLOAD PUSH1 0x2 DUP3 ADD SWAP1 PUSH2 0x40D9 SWAP1 DUP3 PUSH2 0x5E23 JUMP JUMPDEST POP POP POP PUSH1 0x20 DUP3 ADD MLOAD DUP1 MLOAD PUSH1 0x3 DUP4 ADD SWAP1 DUP2 SWAP1 PUSH2 0x40F4 SWAP1 DUP3 PUSH2 0x5E23 JUMP JUMPDEST POP PUSH1 0x20 DUP3 ADD MLOAD PUSH1 0x1 DUP3 ADD DUP1 SLOAD PUSH1 0x40 DUP6 ADD MLOAD PUSH1 0xFF SWAP1 DUP2 AND PUSH2 0x100 MUL PUSH2 0xFFFF NOT SWAP1 SWAP3 AND SWAP4 AND SWAP3 SWAP1 SWAP3 OR SWAP2 SWAP1 SWAP2 OR SWAP1 SSTORE PUSH1 0x60 DUP3 ADD MLOAD PUSH1 0x2 DUP3 ADD SWAP1 PUSH2 0x4135 SWAP1 DUP3 PUSH2 0x5E23 JUMP JUMPDEST POP POP POP PUSH1 0x40 DUP3 ADD MLOAD PUSH1 0x6 DUP3 ADD SWAP1 PUSH2 0x414C SWAP1 DUP3 PUSH2 0x5E23 JUMP JUMPDEST POP PUSH1 0x60 DUP3 ADD MLOAD PUSH1 0x7 DUP3 ADD DUP1 SLOAD PUSH1 0x80 DUP6 ADD MLOAD PUSH1 0xA0 DUP7 ADD MLOAD PUSH1 0xFF SWAP1 DUP2 AND PUSH3 0x10000 MUL PUSH3 0xFF0000 NOT SWAP3 DUP3 AND PUSH2 0x100 MUL PUSH2 0xFFFF NOT SWAP1 SWAP5 AND SWAP2 SWAP1 SWAP6 AND OR SWAP2 SWAP1 SWAP2 OR AND SWAP2 SWAP1 SWAP2 OR SWAP1 SSTORE PUSH1 0xC0 DUP3 ADD MLOAD DUP1 MLOAD PUSH1 0x8 DUP4 ADD SWAP1 DUP2 SWAP1 PUSH2 0x41A7 SWAP1 DUP3 PUSH2 0x5E23 JUMP JUMPDEST POP PUSH1 0x20 DUP3 ADD MLOAD PUSH1 0x1 DUP3 ADD SWAP1 PUSH2 0x41BC SWAP1 DUP3 PUSH2 0x5E23 JUMP JUMPDEST POP PUSH1 0x40 DUP3 ADD MLOAD PUSH1 0x2 DUP3 ADD SWAP1 PUSH2 0x41D1 SWAP1 DUP3 PUSH2 0x5E23 JUMP JUMPDEST POP PUSH1 0x60 DUP3 ADD MLOAD PUSH1 0x3 DUP3 ADD SWAP1 PUSH2 0x41E6 SWAP1 DUP3 PUSH2 0x5E23 JUMP JUMPDEST POP PUSH1 0x80 DUP3 ADD MLOAD PUSH1 0x4 DUP3 ADD SWAP1 PUSH2 0x41FB SWAP1 DUP3 PUSH2 0x5E23 JUMP JUMPDEST POP PUSH1 0xA0 DUP3 ADD MLOAD PUSH1 0x5 DUP3 ADD SWAP1 PUSH2 0x4210 SWAP1 DUP3 PUSH2 0x5E23 JUMP JUMPDEST POP PUSH1 0xC0 DUP3 ADD MLOAD PUSH1 0x6 DUP3 ADD SWAP1 PUSH2 0x4225 SWAP1 DUP3 PUSH2 0x5E23 JUMP JUMPDEST POP PUSH1 0xE0 DUP3 ADD MLOAD PUSH1 0x7 DUP3 ADD SWAP1 PUSH2 0x423A SWAP1 DUP3 PUSH2 0x5E23 JUMP JUMPDEST POP PUSH2 0x100 DUP3 ADD MLOAD PUSH1 0x8 DUP3 ADD SWAP1 PUSH2 0x4250 SWAP1 DUP3 PUSH2 0x5E23 JUMP JUMPDEST POP PUSH2 0x120 DUP3 ADD MLOAD PUSH1 0x9 DUP3 ADD SWAP1 PUSH2 0x4266 SWAP1 DUP3 PUSH2 0x5E23 JUMP JUMPDEST POP POP POP PUSH1 0xE0 DUP3 ADD MLOAD DUP1 MLOAD PUSH1 0x12 DUP4 ADD SWAP1 DUP2 SWAP1 PUSH2 0x4281 SWAP1 DUP3 PUSH2 0x5E23 JUMP JUMPDEST POP PUSH1 0x20 DUP3 ADD MLOAD PUSH1 0x1 DUP3 ADD SWAP1 PUSH2 0x4296 SWAP1 DUP3 PUSH2 0x5E23 JUMP JUMPDEST POP PUSH1 0x40 DUP3 ADD MLOAD PUSH1 0x2 DUP3 ADD SWAP1 PUSH2 0x42AB SWAP1 DUP3 PUSH2 0x5E23 JUMP JUMPDEST POP PUSH1 0x60 DUP3 ADD MLOAD PUSH1 0x3 DUP3 ADD SWAP1 PUSH2 0x42C0 SWAP1 DUP3 PUSH2 0x5E23 JUMP JUMPDEST POP PUSH1 0x80 DUP3 ADD MLOAD PUSH1 0x4 DUP3 ADD SWAP1 PUSH2 0x42D5 SWAP1 DUP3 PUSH2 0x5E23 JUMP JUMPDEST POP PUSH1 0xA0 DUP3 ADD MLOAD PUSH1 0x5 DUP3 ADD SWAP1 PUSH2 0x42EA SWAP1 DUP3 PUSH2 0x5E23 JUMP JUMPDEST POP PUSH1 0xC0 DUP3 ADD MLOAD PUSH1 0x6 DUP3 ADD SWAP1 PUSH2 0x42FF SWAP1 DUP3 PUSH2 0x5E23 JUMP JUMPDEST POP PUSH1 0xE0 DUP3 ADD MLOAD PUSH1 0x7 DUP3 ADD SWAP1 PUSH2 0x4314 SWAP1 DUP3 PUSH2 0x5E23 JUMP JUMPDEST POP PUSH2 0x100 DUP3 ADD MLOAD PUSH1 0x8 DUP3 ADD SWAP1 PUSH2 0x432A SWAP1 DUP3 PUSH2 0x5E23 JUMP JUMPDEST POP PUSH2 0x120 DUP3 ADD MLOAD PUSH1 0x9 DUP3 ADD SWAP1 PUSH2 0x4340 SWAP1 DUP3 PUSH2 0x5E23 JUMP JUMPDEST POP POP POP POP POP POP POP POP POP POP POP POP POP POP POP JUMP JUMPDEST PUSH1 0x40 DUP1 MLOAD PUSH1 0x80 DUP2 ADD DUP3 MSTORE DUP6 DUP2 MSTORE PUSH1 0x20 DUP1 DUP3 ADD DUP7 SWAP1 MSTORE PUSH1 0xFF DUP6 AND SWAP3 DUP3 ADD SWAP3 SWAP1 SWAP3 MSTORE PUSH1 0x60 DUP2 ADD DUP4 SWAP1 MSTORE DUP7 SLOAD PUSH1 0x1 DUP2 ADD DUP9 SSTORE PUSH0 DUP9 DUP2 MSTORE SWAP3 SWAP1 SWAP3 KECCAK256 DUP2 MLOAD DUP1 MLOAD SWAP3 SWAP4 DUP5 SWAP4 PUSH1 0xF SWAP1 SWAP2 MUL SWAP1 SWAP3 ADD SWAP2 DUP3 SWAP1 DUP2 SWAP1 PUSH2 0x43A7 SWAP1 DUP3 PUSH2 0x5E23 JUMP JUMPDEST POP PUSH1 0x20 DUP3 ADD MLOAD PUSH1 0x1 DUP3 ADD DUP1 SLOAD PUSH1 0x40 DUP6 ADD MLOAD PUSH1 0xFF SWAP1 DUP2 AND PUSH2 0x100 MUL PUSH2 0xFFFF NOT SWAP1 SWAP3 AND SWAP4 AND SWAP3 SWAP1 SWAP3 OR SWAP2 SWAP1 SWAP2 OR SWAP1 SSTORE PUSH1 0x60 DUP3 ADD MLOAD PUSH1 0x2 DUP3 ADD SWAP1 PUSH2 0x43E8 SWAP1 DUP3 PUSH2 0x5E23 JUMP JUMPDEST POP POP POP PUSH1 0x20 DUP3 ADD MLOAD PUSH1 0x3 DUP3 ADD SWAP1 PUSH2 0x43FF SWAP1 DUP3 PUSH2 0x5E23 JUMP JUMPDEST POP PUSH1 0x40 DUP3 ADD MLOAD PUSH1 0x4 DUP3 ADD DUP1 SLOAD PUSH1 0xFF NOT AND PUSH1 0xFF SWAP1 SWAP3 AND SWAP2 SWAP1 SWAP2 OR SWAP1 SSTORE PUSH1 0x60 DUP3 ADD MLOAD DUP1 MLOAD PUSH1 0x5 DUP4 ADD SWAP1 DUP2 SWAP1 PUSH2 0x4432 SWAP1 DUP3 PUSH2 0x5E23 JUMP JUMPDEST POP PUSH1 0x20 DUP3 ADD MLOAD PUSH1 0x1 DUP3 ADD SWAP1 PUSH2 0x4447 SWAP1 DUP3 PUSH2 0x5E23 JUMP JUMPDEST POP PUSH1 0x40 DUP3 ADD MLOAD PUSH1 0x2 DUP3 ADD SWAP1 PUSH2 0x445C SWAP1 DUP3 PUSH2 0x5E23 JUMP JUMPDEST POP PUSH1 0x60 DUP3 ADD MLOAD PUSH1 0x3 DUP3 ADD SWAP1 PUSH2 0x4471 SWAP1 DUP3 PUSH2 0x5E23 JUMP JUMPDEST POP PUSH1 0x80 DUP3 ADD MLOAD PUSH1 0x4 DUP3 ADD SWAP1 PUSH2 0x4486 SWAP1 DUP3 PUSH2 0x5E23 JUMP JUMPDEST POP PUSH1 0xA0 DUP3 ADD MLOAD PUSH1 0x5 DUP3 ADD SWAP1 PUSH2 0x449B SWAP1 DUP3 PUSH2 0x5E23 JUMP JUMPDEST POP PUSH1 0xC0 DUP3 ADD MLOAD PUSH1 0x6 DUP3 ADD SWAP1 PUSH2 0x44B0 SWAP1 DUP3 PUSH2 0x5E23 JUMP JUMPDEST POP PUSH1 0xE0 DUP3 ADD MLOAD PUSH1 0x7 DUP3 ADD SWAP1 PUSH2 0x44C5 SWAP1 DUP3 PUSH2 0x5E23 JUMP JUMPDEST POP PUSH2 0x100 DUP3 ADD MLOAD PUSH1 0x8 DUP3 ADD SWAP1 PUSH2 0x44DB SWAP1 DUP3 PUSH2 0x5E23 JUMP JUMPDEST POP PUSH2 0x120 DUP3 ADD MLOAD PUSH1 0x9 DUP3 ADD SWAP1 PUSH2 0x44F1 SWAP1 DUP3 PUSH2 0x5E23 JUMP JUMPDEST POP POP POP POP POP POP POP POP POP POP POP JUMP JUMPDEST PUSH0 DUP3 DUP3 DUP2 SLOAD DUP2 LT PUSH2 0x4511 JUMPI PUSH2 0x4511 PUSH2 0x5B87 JUMP JUMPDEST SWAP1 PUSH0 MSTORE PUSH1 0x20 PUSH0 KECCAK256 SWAP1 PUSH1 0xF MUL ADD PUSH1 0x40 MLOAD DUP1 PUSH1 0x80 ADD PUSH1 0x40 MSTORE SWAP1 DUP2 PUSH0 DUP3 ADD PUSH1 0x40 MLOAD DUP1 PUSH1 0x80 ADD PUSH1 0x40 MSTORE SWAP1 DUP2 PUSH0 DUP3 ADD DUP1 SLOAD PUSH2 0x4546 SWAP1 PUSH2 0x5B55 JUMP JUMPDEST DUP1 PUSH1 0x1F ADD PUSH1 0x20 DUP1 SWAP2 DIV MUL PUSH1 0x20 ADD PUSH1 0x40 MLOAD SWAP1 DUP2 ADD PUSH1 0x40 MSTORE DUP1 SWAP3 SWAP2 SWAP1 DUP2 DUP2 MSTORE PUSH1 0x20 ADD DUP3 DUP1 SLOAD PUSH2 0x4572 SWAP1 PUSH2 0x5B55 JUMP JUMPDEST DUP1 ISZERO PUSH2 0x45BD JUMPI DUP1 PUSH1 0x1F LT PUSH2 0x4594 JUMPI PUSH2 0x100 DUP1 DUP4 SLOAD DIV MUL DUP4 MSTORE SWAP2 PUSH1 0x20 ADD SWAP2 PUSH2 0x45BD JUMP JUMPDEST DUP3 ADD SWAP2 SWAP1 PUSH0 MSTORE PUSH1 0x20 PUSH0 KECCAK256 SWAP1 JUMPDEST DUP2 SLOAD DUP2 MSTORE SWAP1 PUSH1 0x1 ADD SWAP1 PUSH1 0x20 ADD DUP1 DUP4 GT PUSH2 0x45A0 JUMPI DUP3 SWAP1 SUB PUSH1 0x1F AND DUP3 ADD SWAP2 JUMPDEST POP POP POP SWAP2 DUP4 MSTORE POP POP PUSH1 0x1 DUP3 ADD SLOAD PUSH1 0xFF DUP1 DUP3 AND PUSH1 0x20 DUP5 ADD MSTORE PUSH2 0x100 SWAP1 SWAP2 DIV AND PUSH1 0x40 DUP3 ADD MSTORE PUSH1 0x2 DUP3 ADD DUP1 SLOAD PUSH1 0x60 SWAP1 SWAP3 ADD SWAP2 PUSH2 0x45F5 SWAP1 PUSH2 0x5B55 JUMP JUMPDEST DUP1 PUSH1 0x1F ADD PUSH1 0x20 DUP1 SWAP2 DIV MUL PUSH1 0x20 ADD PUSH1 0x40 MLOAD SWAP1 DUP2 ADD PUSH1 0x40 MSTORE DUP1 SWAP3 SWAP2 SWAP1 DUP2 DUP2 MSTORE PUSH1 0x20 ADD DUP3 DUP1 SLOAD PUSH2 0x4621 SWAP1 PUSH2 0x5B55 JUMP JUMPDEST DUP1 ISZERO PUSH2 0x466C JUMPI DUP1 PUSH1 0x1F LT PUSH2 0x4643 JUMPI PUSH2 0x100 DUP1 DUP4 SLOAD DIV MUL DUP4 MSTORE SWAP2 PUSH1 0x20 ADD SWAP2 PUSH2 0x466C JUMP JUMPDEST DUP3 ADD SWAP2 SWAP1 PUSH0 MSTORE PUSH1 0x20 PUSH0 KECCAK256 SWAP1 JUMPDEST DUP2 SLOAD DUP2 MSTORE SWAP1 PUSH1 0x1 ADD SWAP1 PUSH1 0x20 ADD DUP1 DUP4 GT PUSH2 0x464F JUMPI DUP3 SWAP1 SUB PUSH1 0x1F AND DUP3 ADD SWAP2 JUMPDEST POP POP POP POP POP DUP2 MSTORE POP POP DUP2 MSTORE PUSH1 0x20 ADD PUSH1 0x3 DUP3 ADD DUP1 SLOAD PUSH2 0x4689 SWAP1 PUSH2 0x5B55 JUMP JUMPDEST DUP1 PUSH1 0x1F ADD PUSH1 0x20 DUP1 SWAP2 DIV MUL PUSH1 0x20 ADD PUSH1 0x40 MLOAD SWAP1 DUP2 ADD PUSH1 0x40 MSTORE DUP1 SWAP3 SWAP2 SWAP1 DUP2 DUP2 MSTORE PUSH1 0x20 ADD DUP3 DUP1 SLOAD PUSH2 0x46B5 SWAP1 PUSH2 0x5B55 JUMP JUMPDEST DUP1 ISZERO PUSH2 0x4700 JUMPI DUP1 PUSH1 0x1F LT PUSH2 0x46D7 JUMPI PUSH2 0x100 DUP1 DUP4 SLOAD DIV MUL DUP4 MSTORE SWAP2 PUSH1 0x20 ADD SWAP2 PUSH2 0x4700 JUMP JUMPDEST DUP3 ADD SWAP2 SWAP1 PUSH0 MSTORE PUSH1 0x20 PUSH0 KECCAK256 SWAP1 JUMPDEST DUP2 SLOAD DUP2 MSTORE SWAP1 PUSH1 0x1 ADD SWAP1 PUSH1 0x20 ADD DUP1 DUP4 GT PUSH2 0x46E3 JUMPI DUP3 SWAP1 SUB PUSH1 0x1F AND DUP3 ADD SWAP2 JUMPDEST POP POP POP SWAP2 DUP4 MSTORE POP POP PUSH1 0x4 DUP3 ADD SLOAD PUSH1 0xFF AND PUSH1 0x20 DUP3 ADD MSTORE PUSH1 0x40 DUP1 MLOAD PUSH2 0x140 DUP2 ADD DUP3 MSTORE PUSH1 0x5 DUP5 ADD DUP1 SLOAD SWAP3 SWAP1 SWAP4 ADD SWAP3 SWAP1 SWAP2 DUP3 SWAP1 DUP3 SWAP1 PUSH2 0x473A SWAP1 PUSH2 0x5B55 JUMP JUMPDEST DUP1 PUSH1 0x1F ADD PUSH1 0x20 DUP1 SWAP2 DIV MUL PUSH1 0x20 ADD PUSH1 0x40 MLOAD SWAP1 DUP2 ADD PUSH1 0x40 MSTORE DUP1 SWAP3 SWAP2 SWAP1 DUP2 DUP2 MSTORE PUSH1 0x20 ADD DUP3 DUP1 SLOAD PUSH2 0x4766 SWAP1 PUSH2 0x5B55 JUMP JUMPDEST DUP1 ISZERO PUSH2 0x47B1 JUMPI DUP1 PUSH1 0x1F LT PUSH2 0x4788 JUMPI PUSH2 0x100 DUP1 DUP4 SLOAD DIV MUL DUP4 MSTORE SWAP2 PUSH1 0x20 ADD SWAP2 PUSH2 0x47B1 JUMP JUMPDEST DUP3 ADD SWAP2 SWAP1 PUSH0 MSTORE PUSH1 0x20 PUSH0 KECCAK256 SWAP1 JUMPDEST DUP2 SLOAD DUP2 MSTORE SWAP1 PUSH1 0x1 ADD SWAP1 PUSH1 0x20 ADD DUP1 DUP4 GT PUSH2 0x4794 JUMPI DUP3 SWAP1 SUB PUSH1 0x1F AND DUP3 ADD SWAP2 JUMPDEST POP POP POP POP POP DUP2 MSTORE PUSH1 0x20 ADD PUSH1 0x1 DUP3 ADD DUP1 SLOAD PUSH2 0x47CA SWAP1 PUSH2 0x5B55 JUMP JUMPDEST DUP1 PUSH1 0x1F ADD PUSH1 0x20 DUP1 SWAP2 DIV MUL PUSH1 0x20 ADD PUSH1 0x40 MLOAD SWAP1 DUP2 ADD PUSH1 0x40 MSTORE DUP1 SWAP3 SWAP2 SWAP1 DUP2 DUP2 MSTORE PUSH1 0x20 ADD DUP3 DUP1 SLOAD PUSH2 0x47F6 SWAP1 PUSH2 0x5B55 JUMP JUMPDEST DUP1 ISZERO PUSH2 0x4841 JUMPI DUP1 PUSH1 0x1F LT PUSH2 0x4818 JUMPI PUSH2 0x100 DUP1 DUP4 SLOAD DIV MUL DUP4 MSTORE SWAP2 PUSH1 0x20 ADD SWAP2 PUSH2 0x4841 JUMP JUMPDEST DUP3 ADD SWAP2 SWAP1 PUSH0 MSTORE PUSH1 0x20 PUSH0 KECCAK256 SWAP1 JUMPDEST DUP2 SLOAD DUP2 MSTORE SWAP1 PUSH1 0x1 ADD SWAP1 PUSH1 0x20 ADD DUP1 DUP4 GT PUSH2 0x4824 JUMPI DUP3 SWAP1 SUB PUSH1 0x1F AND DUP3 ADD SWAP2 JUMPDEST POP POP POP POP POP DUP2 MSTORE PUSH1 0x20 ADD PUSH1 0x2 DUP3 ADD DUP1 SLOAD PUSH2 0x485A SWAP1 PUSH2 0x5B55 JUMP JUMPDEST DUP1 PUSH1 0x1F ADD PUSH1 0x20 DUP1 SWAP2 DIV MUL PUSH1 0x20 ADD PUSH1 0x40 MLOAD SWAP1 DUP2 ADD PUSH1 0x40 MSTORE DUP1 SWAP3 SWAP2 SWAP1 DUP2 DUP2 MSTORE PUSH1 0x20 ADD DUP3 DUP1 SLOAD PUSH2 0x4886 SWAP1 PUSH2 0x5B55 JUMP JUMPDEST DUP1 ISZERO PUSH2 0x48D1 JUMPI DUP1 PUSH1 0x1F LT PUSH2 0x48A8 JUMPI PUSH2 0x100 DUP1 DUP4 SLOAD DIV MUL DUP4 MSTORE SWAP2 PUSH1 0x20 ADD SWAP2 PUSH2 0x48D1 JUMP JUMPDEST DUP3 ADD SWAP2 SWAP1 PUSH0 MSTORE PUSH1 0x20 PUSH0 KECCAK256 SWAP1 JUMPDEST DUP2 SLOAD DUP2 MSTORE SWAP1 PUSH1 0x1 ADD SWAP1 PUSH1 0x20 ADD DUP1 DUP4 GT PUSH2 0x48B4 JUMPI DUP3 SWAP1 SUB PUSH1 0x1F AND DUP3 ADD SWAP2 JUMPDEST POP POP POP POP POP DUP2 MSTORE PUSH1 0x20 ADD PUSH1 0x3 DUP3 ADD DUP1 SLOAD PUSH2 0x48EA SWAP1 PUSH2 0x5B55 JUMP JUMPDEST DUP1 PUSH1 0x1F ADD PUSH1 0x20 DUP1 SWAP2 DIV MUL PUSH1 0x20 ADD PUSH1 0x40 MLOAD SWAP1 DUP2 ADD PUSH1 0x40 MSTORE DUP1 SWAP3 SWAP2 SWAP1 DUP2 DUP2 MSTORE PUSH1 0x20 ADD DUP3 DUP1 SLOAD PUSH2 0x4916 SWAP1 PUSH2 0x5B55 JUMP JUMPDEST DUP1 ISZERO PUSH2 0x4961 JUMPI DUP1 PUSH1 0x1F LT PUSH2 0x4938 JUMPI PUSH2 0x100 DUP1 DUP4 SLOAD DIV MUL DUP4 MSTORE SWAP2 PUSH1 0x20 ADD SWAP2 PUSH2 0x4961 JUMP JUMPDEST DUP3 ADD SWAP2 SWAP1 PUSH0 MSTORE PUSH1 0x20 PUSH0 KECCAK256 SWAP1 JUMPDEST DUP2 SLOAD DUP2 MSTORE SWAP1 PUSH1 0x1 ADD SWAP1 PUSH1 0x20 ADD DUP1 DUP4 GT PUSH2 0x4944 JUMPI DUP3 SWAP1 SUB PUSH1 0x1F AND DUP3 ADD SWAP2 JUMPDEST POP POP POP POP POP DUP2 MSTORE PUSH1 0x20 ADD PUSH1 0x4 DUP3 ADD DUP1 SLOAD PUSH2 0x497A SWAP1 PUSH2 0x5B55 JUMP JUMPDEST DUP1 PUSH1 0x1F ADD PUSH1 0x20 DUP1 SWAP2 DIV MUL PUSH1 0x20 ADD PUSH1 0x40 MLOAD SWAP1 DUP2 ADD PUSH1 0x40 MSTORE DUP1 SWAP3 SWAP2 SWAP1 DUP2 DUP2 MSTORE PUSH1 0x20 ADD DUP3 DUP1 SLOAD PUSH2 0x49A6 SWAP1 PUSH2 0x5B55 JUMP JUMPDEST DUP1 ISZERO PUSH2 0x49F1 JUMPI DUP1 PUSH1 0x1F LT PUSH2 0x49C8 JUMPI PUSH2 0x100 DUP1 DUP4 SLOAD DIV MUL DUP4 MSTORE SWAP2 PUSH1 0x20 ADD SWAP2 PUSH2 0x49F1 JUMP JUMPDEST DUP3 ADD SWAP2 SWAP1 PUSH0 MSTORE PUSH1 0x20 PUSH0 KECCAK256 SWAP1 JUMPDEST DUP2 SLOAD DUP2 MSTORE SWAP1 PUSH1 0x1 ADD SWAP1 PUSH1 0x20 ADD DUP1 DUP4 GT PUSH2 0x49D4 JUMPI DUP3 SWAP1 SUB PUSH1 0x1F AND DUP3 ADD SWAP2 JUMPDEST POP POP POP POP POP DUP2 MSTORE PUSH1 0x20 ADD PUSH1 0x5 DUP3 ADD DUP1 SLOAD PUSH2 0x4A0A SWAP1 PUSH2 0x5B55 JUMP JUMPDEST DUP1 PUSH1 0x1F ADD PUSH1 0x20 DUP1 SWAP2 DIV MUL PUSH1 0x20 ADD PUSH1 0x40 MLOAD SWAP1 DUP2 ADD PUSH1 0x40 MSTORE DUP1 SWAP3 SWAP2 SWAP1 DUP2 DUP2 MSTORE PUSH1 0x20 ADD DUP3 DUP1 SLOAD PUSH2 0x4A36 SWAP1 PUSH2 0x5B55 JUMP JUMPDEST DUP1 ISZERO PUSH2 0x4A81 JUMPI DUP1 PUSH1 0x1F LT PUSH2 0x4A58 JUMPI PUSH2 0x100 DUP1 DUP4 SLOAD DIV MUL DUP4 MSTORE SWAP2 PUSH1 0x20 ADD SWAP2 PUSH2 0x4A81 JUMP JUMPDEST DUP3 ADD SWAP2 SWAP1 PUSH0 MSTORE PUSH1 0x20 PUSH0 KECCAK256 SWAP1 JUMPDEST DUP2 SLOAD DUP2 MSTORE SWAP1 PUSH1 0x1 ADD SWAP1 PUSH1 0x20 ADD DUP1 DUP4 GT PUSH2 0x4A64 JUMPI DUP3 SWAP1 SUB PUSH1 0x1F AND DUP3 ADD SWAP2 JUMPDEST POP POP POP POP POP DUP2 MSTORE PUSH1 0x20 ADD PUSH1 0x6 DUP3 ADD DUP1 SLOAD PUSH2 0x4A9A SWAP1 PUSH2 0x5B55 JUMP JUMPDEST DUP1 PUSH1 0x1F ADD PUSH1 0x20 DUP1 SWAP2 DIV MUL PUSH1 0x20 ADD PUSH1 0x40 MLOAD SWAP1 DUP2 ADD PUSH1 0x40 MSTORE DUP1 SWAP3 SWAP2 SWAP1 DUP2 DUP2 MSTORE PUSH1 0x20 ADD DUP3 DUP1 SLOAD PUSH2 0x4AC6 SWAP1 PUSH2 0x5B55 JUMP JUMPDEST DUP1 ISZERO PUSH2 0x4B11 JUMPI DUP1 PUSH1 0x1F LT PUSH2 0x4AE8 JUMPI PUSH2 0x100 DUP1 DUP4 SLOAD DIV MUL DUP4 MSTORE SWAP2 PUSH1 0x20 ADD SWAP2 PUSH2 0x4B11 JUMP JUMPDEST DUP3 ADD SWAP2 SWAP1 PUSH0 MSTORE PUSH1 0x20 PUSH0 KECCAK256 SWAP1 JUMPDEST DUP2 SLOAD DUP2 MSTORE SWAP1 PUSH1 0x1 ADD SWAP1 PUSH1 0x20 ADD DUP1 DUP4 GT PUSH2 0x4AF4 JUMPI DUP3 SWAP1 SUB PUSH1 0x1F AND DUP3 ADD SWAP2 JUMPDEST POP POP POP POP POP DUP2 MSTORE PUSH1 0x20 ADD PUSH1 0x7 DUP3 ADD DUP1 SLOAD PUSH2 0x4B2A SWAP1 PUSH2 0x5B55 JUMP JUMPDEST DUP1 PUSH1 0x1F ADD PUSH1 0x20 DUP1 SWAP2 DIV MUL PUSH1 0x20 ADD PUSH1 0x40 MLOAD SWAP1 DUP2 ADD PUSH1 0x40 MSTORE DUP1 SWAP3 SWAP2 SWAP1 DUP2 DUP2 MSTORE PUSH1 0x20 ADD DUP3 DUP1 SLOAD PUSH2 0x4B56 SWAP1 PUSH2 0x5B55 JUMP JUMPDEST DUP1 ISZERO PUSH2 0x4BA1 JUMPI DUP1 PUSH1 0x1F LT PUSH2 0x4B78 JUMPI PUSH2 0x100 DUP1 DUP4 SLOAD DIV MUL DUP4 MSTORE SWAP2 PUSH1 0x20 ADD SWAP2 PUSH2 0x4BA1 JUMP JUMPDEST DUP3 ADD SWAP2 SWAP1 PUSH0 MSTORE PUSH1 0x20 PUSH0 KECCAK256 SWAP1 JUMPDEST DUP2 SLOAD DUP2 MSTORE SWAP1 PUSH1 0x1 ADD SWAP1 PUSH1 0x20 ADD DUP1 DUP4 GT PUSH2 0x4B84 JUMPI DUP3 SWAP1 SUB PUSH1 0x1F AND DUP3 ADD SWAP2 JUMPDEST POP POP POP POP POP DUP2 MSTORE PUSH1 0x20 ADD PUSH1 0x8 DUP3 ADD DUP1 SLOAD PUSH2 0x4BBA SWAP1 PUSH2 0x5B55 JUMP JUMPDEST DUP1 PUSH1 0x1F ADD PUSH1 0x20 DUP1 SWAP2 DIV MUL PUSH1 0x20 ADD PUSH1 0x40 MLOAD SWAP1 DUP2 ADD PUSH1 0x40 MSTORE DUP1 SWAP3 SWAP2 SWAP1 DUP2 DUP2 MSTORE PUSH1 0x20 ADD DUP3 DUP1 SLOAD PUSH2 0x4BE6 SWAP1 PUSH2 0x5B55 JUMP JUMPDEST DUP1 ISZERO PUSH2 0x4C31 JUMPI DUP1 PUSH1 0x1F LT PUSH2 0x4C08 JUMPI PUSH2 0x100 DUP1 DUP4 SLOAD DIV MUL DUP4 MSTORE SWAP2 PUSH1 0x20 ADD SWAP2 PUSH2 0x4C31 JUMP JUMPDEST DUP3 ADD SWAP2 SWAP1 PUSH0 MSTORE PUSH1 0x20 PUSH0 KECCAK256 SWAP1 JUMPDEST DUP2 SLOAD DUP2 MSTORE SWAP1 PUSH1 0x1 ADD SWAP1 PUSH1 0x20 ADD DUP1 DUP4 GT PUSH2 0x4C14 JUMPI DUP3 SWAP1 SUB PUSH1 0x1F AND DUP3 ADD SWAP2 JUMPDEST POP POP POP POP POP DUP2 MSTORE PUSH1 0x20 ADD PUSH1 0x9 DUP3 ADD DUP1 SLOAD PUSH2 0x4C4A SWAP1 PUSH2 0x5B55 JUMP JUMPDEST DUP1 PUSH1 0x1F ADD PUSH1 0x20 DUP1 SWAP2 DIV MUL PUSH1 0x20 ADD PUSH1 0x40 MLOAD SWAP1 DUP2 ADD PUSH1 0x40 MSTORE DUP1 SWAP3 SWAP2 SWAP1 DUP2 DUP2 MSTORE PUSH1 0x20 ADD DUP3 DUP1 SLOAD PUSH2 0x4C76 SWAP1 PUSH2 0x5B55 JUMP JUMPDEST DUP1 ISZERO PUSH2 0x4CC1 JUMPI DUP1 PUSH1 0x1F LT PUSH2 0x4C98 JUMPI PUSH2 0x100 DUP1 DUP4 SLOAD DIV MUL DUP4 MSTORE SWAP2 PUSH1 0x20 ADD SWAP2 PUSH2 0x4CC1 JUMP JUMPDEST DUP3 ADD SWAP2 SWAP1 PUSH0 MSTORE PUSH1 0x20 PUSH0 KECCAK256 SWAP1 JUMPDEST DUP2 SLOAD DUP2 MSTORE SWAP1 PUSH1 0x1 ADD SWAP1 PUSH1 0x20 ADD DUP1 DUP4 GT PUSH2 0x4CA4 JUMPI DUP3 SWAP1 SUB PUSH1 0x1F AND DUP3 ADD SWAP2 JUMPDEST POP POP POP SWAP2 SWAP1 SWAP3 MSTORE POP POP POP SWAP1 MSTORE POP DUP4 SLOAD SWAP1 SWAP2 POP DUP4 SWAP1 PUSH2 0x4CE1 SWAP1 PUSH1 0x1 SWAP1 PUSH2 0x5ED8 JUMP JUMPDEST DUP2 SLOAD DUP2 LT PUSH2 0x4CF1 JUMPI PUSH2 0x4CF1 PUSH2 0x5B87 JUMP JUMPDEST SWAP1 PUSH0 MSTORE PUSH1 0x20 PUSH0 KECCAK256 SWAP1 PUSH1 0xF MUL ADD DUP4 DUP4 DUP2 SLOAD DUP2 LT PUSH2 0x4D0F JUMPI PUSH2 0x4D0F PUSH2 0x5B87 JUMP JUMPDEST PUSH0 SWAP2 DUP3 MSTORE PUSH1 0x20 SWAP1 SWAP2 KECCAK256 PUSH1 0xF SWAP1 SWAP2 MUL ADD DUP2 DUP2 DUP1 PUSH2 0x4D2B DUP4 DUP3 PUSH2 0x5EEB JUMP JUMPDEST POP PUSH1 0x1 DUP3 DUP2 ADD DUP1 SLOAD SWAP2 DUP4 ADD DUP1 SLOAD PUSH1 0xFF SWAP4 DUP5 AND PUSH1 0xFF NOT DUP3 AND DUP2 OR DUP4 SSTORE SWAP3 SLOAD PUSH2 0xFFFF NOT SWAP1 SWAP2 AND SWAP1 SWAP3 OR PUSH2 0x100 SWAP3 DUP4 SWAP1 DIV SWAP1 SWAP4 AND SWAP1 SWAP2 MUL SWAP2 SWAP1 SWAP2 OR SWAP1 SSTORE PUSH1 0x2 DUP1 DUP3 ADD SWAP1 PUSH2 0x4D77 SWAP1 DUP5 ADD DUP3 PUSH2 0x5EEB JUMP JUMPDEST POP POP POP PUSH1 0x3 DUP2 DUP2 ADD SWAP1 PUSH2 0x4D8C SWAP1 DUP5 ADD DUP3 PUSH2 0x5EEB JUMP JUMPDEST POP PUSH1 0x4 DUP3 DUP2 ADD SLOAD SWAP1 DUP3 ADD DUP1 SLOAD PUSH1 0xFF NOT AND PUSH1 0xFF SWAP1 SWAP3 AND SWAP2 SWAP1 SWAP2 OR SWAP1 SSTORE PUSH1 0x5 DUP1 DUP4 ADD SWAP1 DUP3 ADD DUP1 PUSH2 0x4DBA DUP4 DUP3 PUSH2 0x5EEB JUMP JUMPDEST POP PUSH1 0x1 DUP2 DUP2 ADD SWAP1 PUSH2 0x4DCD SWAP1 DUP5 ADD DUP3 PUSH2 0x5EEB JUMP JUMPDEST POP PUSH1 0x2 DUP2 DUP2 ADD SWAP1 PUSH2 0x4DE0 SWAP1 DUP5 ADD DUP3 PUSH2 0x5EEB JUMP JUMPDEST POP PUSH1 0x3 DUP2 DUP2 ADD SWAP1 PUSH2 0x4DF3 SWAP1 DUP5 ADD DUP3 PUSH2 0x5EEB JUMP JUMPDEST POP PUSH1 0x4 DUP2 DUP2 ADD SWAP1 PUSH2 0x4E06 SWAP1 DUP5 ADD DUP3 PUSH2 0x5EEB JUMP JUMPDEST POP PUSH1 0x5 DUP2 DUP2 ADD SWAP1 PUSH2 0x4E19 SWAP1 DUP5 ADD DUP3 PUSH2 0x5EEB JUMP JUMPDEST POP PUSH1 0x6 DUP2 DUP2 ADD SWAP1 PUSH2 0x4E2C SWAP1 DUP5 ADD DUP3 PUSH2 0x5EEB JUMP JUMPDEST POP PUSH1 0x7 DUP2 DUP2 ADD SWAP1 PUSH2 0x4E3F SWAP1 DUP5 ADD DUP3 PUSH2 0x5EEB JUMP JUMPDEST POP PUSH1 0x8 DUP2 DUP2 ADD SWAP1 PUSH2 0x4E52 SWAP1 DUP5 ADD DUP3 PUSH2 0x5EEB JUMP JUMPDEST POP PUSH1 0x9 DUP2 DUP2 ADD SWAP1 PUSH2 0x4E65 SWAP1 DUP5 ADD DUP3 PUSH2 0x5EEB JUMP JUMPDEST POP POP DUP6 SLOAD DUP5 SWAP4 POP DUP7 SWAP3 POP PUSH2 0x4E7C SWAP2 POP PUSH1 0x1 SWAP1 PUSH2 0x5ED8 JUMP JUMPDEST DUP2 SLOAD DUP2 LT PUSH2 0x4E8C JUMPI PUSH2 0x4E8C PUSH2 0x5B87 JUMP JUMPDEST PUSH0 SWAP2 DUP3 MSTORE PUSH1 0x20 SWAP1 SWAP2 KECCAK256 DUP3 MLOAD DUP1 MLOAD PUSH1 0xF SWAP1 SWAP4 MUL SWAP1 SWAP2 ADD SWAP2 DUP3 SWAP1 DUP2 SWAP1 PUSH2 0x4EB0 SWAP1 DUP3 PUSH2 0x5E23 JUMP JUMPDEST POP PUSH1 0x20 DUP3 ADD MLOAD PUSH1 0x1 DUP3 ADD DUP1 SLOAD PUSH1 0x40 DUP6 ADD MLOAD PUSH1 0xFF SWAP1 DUP2 AND PUSH2 0x100 MUL PUSH2 0xFFFF NOT SWAP1 SWAP3 AND SWAP4 AND SWAP3 SWAP1 SWAP3 OR SWAP2 SWAP1 SWAP2 OR SWAP1 SSTORE PUSH1 0x60 DUP3 ADD MLOAD PUSH1 0x2 DUP3 ADD SWAP1 PUSH2 0x4EF1 SWAP1 DUP3 PUSH2 0x5E23 JUMP JUMPDEST POP POP POP PUSH1 0x20 DUP3 ADD MLOAD PUSH1 0x3 DUP3 ADD SWAP1 PUSH2 0x4F08 SWAP1 DUP3 PUSH2 0x5E23 JUMP JUMPDEST POP PUSH1 0x40 DUP3 ADD MLOAD PUSH1 0x4 DUP3 ADD DUP1 SLOAD PUSH1 0xFF NOT AND PUSH1 0xFF SWAP1 SWAP3 AND SWAP2 SWAP1 SWAP2 OR SWAP1 SSTORE PUSH1 0x60 DUP3 ADD MLOAD DUP1 MLOAD PUSH1 0x5 DUP4 ADD SWAP1 DUP2 SWAP1 PUSH2 0x4F3B SWAP1 DUP3 PUSH2 0x5E23 JUMP JUMPDEST POP PUSH1 0x20 DUP3 ADD MLOAD PUSH1 0x1 DUP3 ADD SWAP1 PUSH2 0x4F50 SWAP1 DUP3 PUSH2 0x5E23 JUMP JUMPDEST POP PUSH1 0x40 DUP3 ADD MLOAD PUSH1 0x2 DUP3 ADD SWAP1 PUSH2 0x4F65 SWAP1 DUP3 PUSH2 0x5E23 JUMP JUMPDEST POP PUSH1 0x60 DUP3 ADD MLOAD PUSH1 0x3 DUP3 ADD SWAP1 PUSH2 0x4F7A SWAP1 DUP3 PUSH2 0x5E23 JUMP JUMPDEST POP PUSH1 0x80 DUP3 ADD MLOAD PUSH1 0x4 DUP3 ADD SWAP1 PUSH2 0x4F8F SWAP1 DUP3 PUSH2 0x5E23 JUMP JUMPDEST POP PUSH1 0xA0 DUP3 ADD MLOAD PUSH1 0x5 DUP3 ADD SWAP1 PUSH2 0x4FA4 SWAP1 DUP3 PUSH2 0x5E23 JUMP JUMPDEST POP PUSH1 0xC0 DUP3 ADD MLOAD PUSH1 0x6 DUP3 ADD SWAP1 PUSH2 0x4FB9 SWAP1 DUP3 PUSH2 0x5E23 JUMP JUMPDEST POP PUSH1 0xE0 DUP3 ADD MLOAD PUSH1 0x7 DUP3 ADD SWAP1 PUSH2 0x4FCE SWAP1 DUP3 PUSH2 0x5E23 JUMP JUMPDEST POP PUSH2 0x100 DUP3 ADD MLOAD PUSH1 0x8 DUP3 ADD SWAP1 PUSH2 0x4FE4 SWAP1 DUP3 PUSH2 0x5E23 JUMP JUMPDEST POP PUSH2 0x120 DUP3 ADD MLOAD PUSH1 0x9 DUP3 ADD SWAP1 PUSH2 0x4FFA SWAP1 DUP3 PUSH2 0x5E23 JUMP JUMPDEST POP POP POP SWAP1 POP POP DUP3 DUP1 SLOAD DUP1 PUSH2 0x5010 JUMPI PUSH2 0x5010 PUSH2 0x5FAB JUMP JUMPDEST PUSH0 DUP3 DUP2 MSTORE PUSH1 0x20 DUP2 KECCAK256 PUSH0 NOT SWAP1 SWAP3 ADD SWAP2 PUSH1 0xF DUP4 MUL ADD SWAP1 DUP2 DUP2 PUSH2 0x5030 DUP3 DUP3 PUSH2 0x53C1 JUMP JUMPDEST PUSH1 0x1 DUP3 ADD DUP1 SLOAD PUSH2 0xFFFF NOT AND SWAP1 SSTORE PUSH2 0x504A PUSH1 0x2 DUP4 ADD PUSH0 PUSH2 0x53C1 JUMP JUMPDEST POP PUSH2 0x505A SWAP1 POP PUSH1 0x3 DUP4 ADD PUSH0 PUSH2 0x53C1 JUMP JUMPDEST PUSH1 0x4 DUP3 ADD DUP1 SLOAD PUSH1 0xFF NOT AND SWAP1 SSTORE PUSH1 0x5 DUP3 ADD PUSH0 PUSH2 0x5075 DUP3 DUP3 PUSH2 0x53C1 JUMP JUMPDEST PUSH2 0x5082 PUSH1 0x1 DUP4 ADD PUSH0 PUSH2 0x53C1 JUMP JUMPDEST PUSH2 0x508F PUSH1 0x2 DUP4 ADD PUSH0 PUSH2 0x53C1 JUMP JUMPDEST PUSH2 0x509C PUSH1 0x3 DUP4 ADD PUSH0 PUSH2 0x53C1 JUMP JUMPDEST PUSH2 0x50A9 PUSH1 0x4 DUP4 ADD PUSH0 PUSH2 0x53C1 JUMP JUMPDEST PUSH2 0x50B6 PUSH1 0x5 DUP4 ADD PUSH0 PUSH2 0x53C1 JUMP JUMPDEST PUSH2 0x50C3 PUSH1 0x6 DUP4 ADD PUSH0 PUSH2 0x53C1 JUMP JUMPDEST PUSH2 0x50D0 PUSH1 0x7 DUP4 ADD PUSH0 PUSH2 0x53C1 JUMP JUMPDEST PUSH2 0x50DD PUSH1 0x8 DUP4 ADD PUSH0 PUSH2 0x53C1 JUMP JUMPDEST PUSH2 0x50EA PUSH1 0x9 DUP4 ADD PUSH0 PUSH2 0x53C1 JUMP JUMPDEST POP POP POP POP SWAP1 SSTORE POP POP POP JUMP JUMPDEST PUSH0 DUP1 PUSH1 0x30 DUP4 PUSH1 0x1 DUP2 MLOAD DUP2 LT PUSH2 0x510C JUMPI PUSH2 0x510C PUSH2 0x5B87 JUMP JUMPDEST ADD PUSH1 0x20 ADD MLOAD PUSH2 0x511E SWAP2 SWAP1 PUSH1 0xF8 SHR PUSH2 0x5FBF JUMP JUMPDEST PUSH1 0x30 DUP5 PUSH0 DUP2 MLOAD DUP2 LT PUSH2 0x5132 JUMPI PUSH2 0x5132 PUSH2 0x5B87 JUMP JUMPDEST ADD PUSH1 0x20 ADD MLOAD PUSH2 0x5144 SWAP2 SWAP1 PUSH1 0xF8 SHR PUSH2 0x5FBF JUMP JUMPDEST PUSH2 0x514F SWAP1 PUSH1 0xA PUSH2 0x5C20 JUMP JUMPDEST PUSH2 0x5159 SWAP2 SWAP1 PUSH2 0x5DAD JUMP JUMPDEST PUSH1 0xFF AND PUSH1 0x30 DUP6 PUSH1 0x1 DUP2 MLOAD DUP2 LT PUSH2 0x5171 JUMPI PUSH2 0x5171 PUSH2 0x5B87 JUMP JUMPDEST ADD PUSH1 0x20 ADD MLOAD PUSH2 0x5183 SWAP2 SWAP1 PUSH1 0xF8 SHR PUSH2 0x5FBF JUMP JUMPDEST PUSH1 0x30 DUP7 PUSH0 DUP2 MLOAD DUP2 LT PUSH2 0x5197 JUMPI PUSH2 0x5197 PUSH2 0x5B87 JUMP JUMPDEST ADD PUSH1 0x20 ADD MLOAD PUSH2 0x51A9 SWAP2 SWAP1 PUSH1 0xF8 SHR PUSH2 0x5FBF JUMP JUMPDEST PUSH2 0x51B4 SWAP1 PUSH1 0xA PUSH2 0x5C20 JUMP JUMPDEST PUSH2 0x51BE SWAP2 SWAP1 PUSH2 0x5DAD JUMP JUMPDEST PUSH1 0xFF AND EQ SWAP1 POP PUSH0 PUSH1 0x30 DUP5 PUSH1 0x4 DUP2 MLOAD DUP2 LT PUSH2 0x51DA JUMPI PUSH2 0x51DA PUSH2 0x5B87 JUMP JUMPDEST ADD PUSH1 0x20 ADD MLOAD PUSH2 0x51EC SWAP2 SWAP1 PUSH1 0xF8 SHR PUSH2 0x5FBF JUMP JUMPDEST PUSH1 0x30 DUP6 PUSH1 0x3 DUP2 MLOAD DUP2 LT PUSH2 0x5201 JUMPI PUSH2 0x5201 PUSH2 0x5B87 JUMP JUMPDEST ADD PUSH1 0x20 ADD MLOAD PUSH2 0x5213 SWAP2 SWAP1 PUSH1 0xF8 SHR PUSH2 0x5FBF JUMP JUMPDEST PUSH2 0x521E SWAP1 PUSH1 0xA PUSH2 0x5C20 JUMP JUMPDEST PUSH2 0x5228 SWAP2 SWAP1 PUSH2 0x5DAD JUMP JUMPDEST PUSH1 0xFF AND PUSH1 0x30 DUP7 PUSH1 0x4 DUP2 MLOAD DUP2 LT PUSH2 0x5240 JUMPI PUSH2 0x5240 PUSH2 0x5B87 JUMP JUMPDEST ADD PUSH1 0x20 ADD MLOAD PUSH2 0x5252 SWAP2 SWAP1 PUSH1 0xF8 SHR PUSH2 0x5FBF JUMP JUMPDEST PUSH1 0x30 DUP8 PUSH1 0x3 DUP2 MLOAD DUP2 LT PUSH2 0x5267 JUMPI PUSH2 0x5267 PUSH2 0x5B87 JUMP JUMPDEST ADD PUSH1 0x20 ADD MLOAD PUSH2 0x5279 SWAP2 SWAP1 PUSH1 0xF8 SHR PUSH2 0x5FBF JUMP JUMPDEST PUSH2 0x5284 SWAP1 PUSH1 0xA PUSH2 0x5C20 JUMP JUMPDEST PUSH2 0x528E SWAP2 SWAP1 PUSH2 0x5DAD JUMP JUMPDEST PUSH1 0xFF AND EQ SWAP1 POP PUSH0 PUSH1 0x30 DUP6 PUSH1 0x7 DUP2 MLOAD DUP2 LT PUSH2 0x52AA JUMPI PUSH2 0x52AA PUSH2 0x5B87 JUMP JUMPDEST ADD PUSH1 0x20 ADD MLOAD PUSH2 0x52BC SWAP2 SWAP1 PUSH1 0xF8 SHR PUSH2 0x5FBF JUMP JUMPDEST PUSH1 0x30 DUP7 PUSH1 0x6 DUP2 MLOAD DUP2 LT PUSH2 0x52D1 JUMPI PUSH2 0x52D1 PUSH2 0x5B87 JUMP JUMPDEST ADD PUSH1 0x20 ADD MLOAD PUSH2 0x52E3 SWAP2 SWAP1 PUSH1 0xF8 SHR PUSH2 0x5FBF JUMP JUMPDEST PUSH2 0x52EE SWAP1 PUSH1 0xA PUSH2 0x5C20 JUMP JUMPDEST PUSH2 0x52F8 SWAP2 SWAP1 PUSH2 0x5DAD JUMP JUMPDEST PUSH1 0xFF AND PUSH1 0x30 DUP8 PUSH1 0x7 DUP2 MLOAD DUP2 LT PUSH2 0x5310 JUMPI PUSH2 0x5310 PUSH2 0x5B87 JUMP JUMPDEST ADD PUSH1 0x20 ADD MLOAD PUSH2 0x5322 SWAP2 SWAP1 PUSH1 0xF8 SHR PUSH2 0x5FBF JUMP JUMPDEST PUSH1 0x30 DUP9 PUSH1 0x6 DUP2 MLOAD DUP2 LT PUSH2 0x5337 JUMPI PUSH2 0x5337 PUSH2 0x5B87 JUMP JUMPDEST ADD PUSH1 0x20 ADD MLOAD PUSH2 0x5349 SWAP2 SWAP1 PUSH1 0xF8 SHR PUSH2 0x5FBF JUMP JUMPDEST PUSH2 0x5354 SWAP1 PUSH1 0xA PUSH2 0x5C20 JUMP JUMPDEST PUSH2 0x535E SWAP2 SWAP1 PUSH2 0x5DAD JUMP JUMPDEST PUSH1 0xFF AND EQ SWAP1 POP DUP3 DUP1 ISZERO PUSH2 0x536E JUMPI POP DUP2 JUMPDEST DUP1 ISZERO PUSH2 0x5377 JUMPI POP DUP1 JUMPDEST ISZERO PUSH2 0x5388 JUMPI PUSH1 0x1 SWAP4 POP POP POP POP PUSH2 0x4020 JUMP JUMPDEST PUSH0 SWAP4 POP POP POP POP PUSH2 0x4020 JUMP JUMPDEST POP POP POP SWAP3 SWAP2 POP POP JUMP JUMPDEST POP DUP1 SLOAD PUSH0 DUP3 SSTORE PUSH1 0x1F ADD PUSH1 0x20 SWAP1 DIV SWAP1 PUSH0 MSTORE PUSH1 0x20 PUSH0 KECCAK256 SWAP1 DUP2 ADD SWAP1 PUSH2 0x53BE SWAP2 SWAP1 PUSH2 0x53F4 JUMP JUMPDEST POP JUMP JUMPDEST POP DUP1 SLOAD PUSH2 0x53CD SWAP1 PUSH2 0x5B55 JUMP JUMPDEST PUSH0 DUP3 SSTORE DUP1 PUSH1 0x1F LT PUSH2 0x53DC JUMPI POP POP JUMP JUMPDEST PUSH1 0x1F ADD PUSH1 0x20 SWAP1 DIV SWAP1 PUSH0 MSTORE PUSH1 0x20 PUSH0 KECCAK256 SWAP1 DUP2 ADD SWAP1 PUSH2 0x53BE SWAP2 SWAP1 JUMPDEST JUMPDEST DUP1 DUP3 GT ISZERO PUSH2 0x5408 JUMPI PUSH0 DUP2 SSTORE PUSH1 0x1 ADD PUSH2 0x53F5 JUMP JUMPDEST POP SWAP1 JUMP JUMPDEST PUSH4 0x4E487B71 PUSH1 0xE0 SHL PUSH0 MSTORE PUSH1 0x41 PUSH1 0x4 MSTORE PUSH1 0x24 PUSH0 REVERT JUMPDEST PUSH1 0x40 MLOAD PUSH2 0x140 DUP2 ADD PUSH1 0x1 PUSH1 0x1 PUSH1 0x40 SHL SUB DUP2 GT DUP3 DUP3 LT OR ISZERO PUSH2 0x5443 JUMPI PUSH2 0x5443 PUSH2 0x540C JUMP JUMPDEST PUSH1 0x40 MSTORE SWAP1 JUMP JUMPDEST PUSH1 0x40 MLOAD PUSH1 0x80 DUP2 ADD PUSH1 0x1 PUSH1 0x1 PUSH1 0x40 SHL SUB DUP2 GT DUP3 DUP3 LT OR ISZERO PUSH2 0x5443 JUMPI PUSH2 0x5443 PUSH2 0x540C JUMP JUMPDEST PUSH0 DUP3 PUSH1 0x1F DUP4 ADD SLT PUSH2 0x547A JUMPI PUSH0 DUP1 REVERT JUMPDEST DUP2 CALLDATALOAD PUSH1 0x1 PUSH1 0x1 PUSH1 0x40 SHL SUB DUP2 GT ISZERO PUSH2 0x5493 JUMPI PUSH2 0x5493 PUSH2 0x540C JUMP JUMPDEST PUSH1 0x40 MLOAD PUSH1 0x1F DUP3 ADD PUSH1 0x1F NOT SWAP1 DUP2 AND PUSH1 0x3F ADD AND DUP2 ADD PUSH1 0x1 PUSH1 0x1 PUSH1 0x40 SHL SUB DUP2 GT DUP3 DUP3 LT OR ISZERO PUSH2 0x54C1 JUMPI PUSH2 0x54C1 PUSH2 0x540C JUMP JUMPDEST PUSH1 0x40 MSTORE DUP2 DUP2 MSTORE DUP4 DUP3 ADD PUSH1 0x20 ADD DUP6 LT ISZERO PUSH2 0x54D8 JUMPI PUSH0 DUP1 REVERT JUMPDEST DUP2 PUSH1 0x20 DUP6 ADD PUSH1 0x20 DUP4 ADD CALLDATACOPY PUSH0 SWAP2 DUP2 ADD PUSH1 0x20 ADD SWAP2 SWAP1 SWAP2 MSTORE SWAP4 SWAP3 POP POP POP JUMP JUMPDEST PUSH0 PUSH1 0x20 DUP3 DUP5 SUB SLT ISZERO PUSH2 0x5504 JUMPI PUSH0 DUP1 REVERT JUMPDEST DUP2 CALLDATALOAD PUSH1 0x1 PUSH1 0x1 PUSH1 0x40 SHL SUB DUP2 GT ISZERO PUSH2 0x5519 JUMPI PUSH0 DUP1 REVERT JUMPDEST PUSH2 0x3E77 DUP5 DUP3 DUP6 ADD PUSH2 0x546B JUMP JUMPDEST PUSH0 DUP2 MLOAD DUP1 DUP5 MSTORE DUP1 PUSH1 0x20 DUP5 ADD PUSH1 0x20 DUP7 ADD MCOPY PUSH0 PUSH1 0x20 DUP3 DUP7 ADD ADD MSTORE PUSH1 0x20 PUSH1 0x1F NOT PUSH1 0x1F DUP4 ADD AND DUP6 ADD ADD SWAP2 POP POP SWAP3 SWAP2 POP POP JUMP JUMPDEST PUSH0 DUP2 MLOAD PUSH1 0x80 DUP5 MSTORE PUSH2 0x5567 PUSH1 0x80 DUP6 ADD DUP3 PUSH2 0x5525 JUMP JUMPDEST SWAP1 POP PUSH1 0xFF PUSH1 0x20 DUP5 ADD MLOAD AND PUSH1 0x20 DUP6 ADD MSTORE PUSH1 0xFF PUSH1 0x40 DUP5 ADD MLOAD AND PUSH1 0x40 DUP6 ADD MSTORE PUSH1 0x60 DUP4 ADD MLOAD DUP5 DUP3 SUB PUSH1 0x60 DUP7 ADD MSTORE PUSH2 0x559A DUP3 DUP3 PUSH2 0x5525 JUMP JUMPDEST SWAP6 SWAP5 POP POP POP POP POP JUMP JUMPDEST PUSH0 DUP2 MLOAD PUSH2 0x140 DUP5 MSTORE PUSH2 0x55B9 PUSH2 0x140 DUP6 ADD DUP3 PUSH2 0x5525 JUMP JUMPDEST SWAP1 POP PUSH1 0x20 DUP4 ADD MLOAD DUP5 DUP3 SUB PUSH1 0x20 DUP7 ADD MSTORE PUSH2 0x55D2 DUP3 DUP3 PUSH2 0x5525 JUMP JUMPDEST SWAP2 POP POP PUSH1 0x40 DUP4 ADD MLOAD DUP5 DUP3 SUB PUSH1 0x40 DUP7 ADD MSTORE PUSH2 0x55EC DUP3 DUP3 PUSH2 0x5525 JUMP JUMPDEST SWAP2 POP POP PUSH1 0x60 DUP4 ADD MLOAD DUP5 DUP3 SUB PUSH1 0x60 DUP7 ADD MSTORE PUSH2 0x5606 DUP3 DUP3 PUSH2 0x5525 JUMP JUMPDEST SWAP2 POP POP PUSH1 0x80 DUP4 ADD MLOAD DUP5 DUP3 SUB PUSH1 0x80 DUP7 ADD MSTORE PUSH2 0x5620 DUP3 DUP3 PUSH2 0x5525 JUMP JUMPDEST SWAP2 POP POP PUSH1 0xA0 DUP4 ADD MLOAD DUP5 DUP3 SUB PUSH1 0xA0 DUP7 ADD MSTORE PUSH2 0x563A DUP3 DUP3 PUSH2 0x5525 JUMP JUMPDEST SWAP2 POP POP PUSH1 0xC0 DUP4 ADD MLOAD DUP5 DUP3 SUB PUSH1 0xC0 DUP7 ADD MSTORE PUSH2 0x5654 DUP3 DUP3 PUSH2 0x5525 JUMP JUMPDEST SWAP2 POP POP PUSH1 0xE0 DUP4 ADD MLOAD DUP5 DUP3 SUB PUSH1 0xE0 DUP7 ADD MSTORE PUSH2 0x566E DUP3 DUP3 PUSH2 0x5525 JUMP JUMPDEST SWAP2 POP POP PUSH2 0x100 DUP4 ADD MLOAD DUP5 DUP3 SUB PUSH2 0x100 DUP7 ADD MSTORE PUSH2 0x568A DUP3 DUP3 PUSH2 0x5525 JUMP JUMPDEST SWAP2 POP POP PUSH2 0x120 DUP4 ADD MLOAD DUP5 DUP3 SUB PUSH2 0x120 DUP7 ADD MSTORE PUSH2 0x559A DUP3 DUP3 PUSH2 0x5525 JUMP JUMPDEST PUSH0 PUSH1 0x20 DUP3 ADD PUSH1 0x20 DUP4 MSTORE DUP1 DUP5 MLOAD DUP1 DUP4 MSTORE PUSH1 0x40 DUP6 ADD SWAP2 POP PUSH1 0x40 DUP2 PUSH1 0x5 SHL DUP7 ADD ADD SWAP3 POP PUSH1 0x20 DUP7 ADD PUSH0 JUMPDEST DUP3 DUP2 LT ISZERO PUSH2 0x574B JUMPI PUSH1 0x3F NOT DUP8 DUP7 SUB ADD DUP5 MSTORE DUP2 MLOAD DUP1 MLOAD PUSH1 0x80 DUP8 MSTORE PUSH2 0x56F2 PUSH1 0x80 DUP9 ADD DUP3 PUSH2 0x5553 JUMP JUMPDEST SWAP1 POP PUSH1 0x20 DUP3 ADD MLOAD DUP8 DUP3 SUB PUSH1 0x20 DUP10 ADD MSTORE PUSH2 0x570B DUP3 DUP3 PUSH2 0x5525 JUMP JUMPDEST SWAP2 POP POP PUSH1 0xFF PUSH1 0x40 DUP4 ADD MLOAD AND PUSH1 0x40 DUP9 ADD MSTORE PUSH1 0x60 DUP3 ADD MLOAD SWAP2 POP DUP7 DUP2 SUB PUSH1 0x60 DUP9 ADD MSTORE PUSH2 0x5734 DUP2 DUP4 PUSH2 0x55A3 JUMP JUMPDEST SWAP7 POP POP POP PUSH1 0x20 SWAP4 DUP5 ADD SWAP4 SWAP2 SWAP1 SWAP2 ADD SWAP1 PUSH1 0x1 ADD PUSH2 0x56CC JUMP JUMPDEST POP SWAP3 SWAP7 SWAP6 POP POP POP POP POP POP JUMP JUMPDEST DUP1 CALLDATALOAD PUSH1 0xFF DUP2 AND DUP2 EQ PUSH2 0x5767 JUMPI PUSH0 DUP1 REVERT JUMPDEST SWAP2 SWAP1 POP JUMP JUMPDEST PUSH0 PUSH2 0x140 DUP3 DUP5 SUB SLT ISZERO PUSH2 0x577D JUMPI PUSH0 DUP1 REVERT JUMPDEST PUSH2 0x5785 PUSH2 0x5420 JUMP JUMPDEST SWAP1 POP DUP2 CALLDATALOAD PUSH1 0x1 PUSH1 0x1 PUSH1 0x40 SHL SUB DUP2 GT ISZERO PUSH2 0x579C JUMPI PUSH0 DUP1 REVERT JUMPDEST PUSH2 0x57A8 DUP5 DUP3 DUP6 ADD PUSH2 0x546B JUMP JUMPDEST DUP3 MSTORE POP PUSH1 0x20 DUP3 ADD CALLDATALOAD PUSH1 0x1 PUSH1 0x1 PUSH1 0x40 SHL SUB DUP2 GT ISZERO PUSH2 0x57C3 JUMPI PUSH0 DUP1 REVERT JUMPDEST PUSH2 0x57CF DUP5 DUP3 DUP6 ADD PUSH2 0x546B JUMP JUMPDEST PUSH1 0x20 DUP4 ADD MSTORE POP PUSH1 0x40 DUP3 ADD CALLDATALOAD PUSH1 0x1 PUSH1 0x1 PUSH1 0x40 SHL SUB DUP2 GT ISZERO PUSH2 0x57ED JUMPI PUSH0 DUP1 REVERT JUMPDEST PUSH2 0x57F9 DUP5 DUP3 DUP6 ADD PUSH2 0x546B JUMP JUMPDEST PUSH1 0x40 DUP4 ADD MSTORE POP PUSH1 0x60 DUP3 ADD CALLDATALOAD PUSH1 0x1 PUSH1 0x1 PUSH1 0x40 SHL SUB DUP2 GT ISZERO PUSH2 0x5817 JUMPI PUSH0 DUP1 REVERT JUMPDEST PUSH2 0x5823 DUP5 DUP3 DUP6 ADD PUSH2 0x546B JUMP JUMPDEST PUSH1 0x60 DUP4 ADD MSTORE POP PUSH1 0x80 DUP3 ADD CALLDATALOAD PUSH1 0x1 PUSH1 0x1 PUSH1 0x40 SHL SUB DUP2 GT ISZERO PUSH2 0x5841 JUMPI PUSH0 DUP1 REVERT JUMPDEST PUSH2 0x584D DUP5 DUP3 DUP6 ADD PUSH2 0x546B JUMP JUMPDEST PUSH1 0x80 DUP4 ADD MSTORE POP PUSH1 0xA0 DUP3 ADD CALLDATALOAD PUSH1 0x1 PUSH1 0x1 PUSH1 0x40 SHL SUB DUP2 GT ISZERO PUSH2 0x586B JUMPI PUSH0 DUP1 REVERT JUMPDEST PUSH2 0x5877 DUP5 DUP3 DUP6 ADD PUSH2 0x546B JUMP JUMPDEST PUSH1 0xA0 DUP4 ADD MSTORE POP PUSH1 0xC0 DUP3 ADD CALLDATALOAD PUSH1 0x1 PUSH1 0x1 PUSH1 0x40 SHL SUB DUP2 GT ISZERO PUSH2 0x5895 JUMPI PUSH0 DUP1 REVERT JUMPDEST PUSH2 0x58A1 DUP5 DUP3 DUP6 ADD PUSH2 0x546B JUMP JUMPDEST PUSH1 0xC0 DUP4 ADD MSTORE POP PUSH1 0xE0 DUP3 ADD CALLDATALOAD PUSH1 0x1 PUSH1 0x1 PUSH1 0x40 SHL SUB DUP2 GT ISZERO PUSH2 0x58BF JUMPI PUSH0 DUP1 REVERT JUMPDEST PUSH2 0x58CB DUP5 DUP3 DUP6 ADD PUSH2 0x546B JUMP JUMPDEST PUSH1 0xE0 DUP4 ADD MSTORE POP PUSH2 0x100 DUP3 ADD CALLDATALOAD PUSH1 0x1 PUSH1 0x1 PUSH1 0x40 SHL SUB DUP2 GT ISZERO PUSH2 0x58EA JUMPI PUSH0 DUP1 REVERT JUMPDEST PUSH2 0x58F6 DUP5 DUP3 DUP6 ADD PUSH2 0x546B JUMP JUMPDEST PUSH2 0x100 DUP4 ADD MSTORE POP PUSH2 0x120 DUP3 ADD CALLDATALOAD PUSH1 0x1 PUSH1 0x1 PUSH1 0x40 SHL SUB DUP2 GT ISZERO PUSH2 0x5916 JUMPI PUSH0 DUP1 REVERT JUMPDEST PUSH2 0x5922 DUP5 DUP3 DUP6 ADD PUSH2 0x546B JUMP JUMPDEST PUSH2 0x120 DUP4 ADD MSTORE POP SWAP3 SWAP2 POP POP JUMP JUMPDEST PUSH0 DUP1 PUSH0 DUP1 PUSH1 0x80 DUP6 DUP8 SUB SLT ISZERO PUSH2 0x5942 JUMPI PUSH0 DUP1 REVERT JUMPDEST DUP5 CALLDATALOAD PUSH1 0x1 PUSH1 0x1 PUSH1 0x40 SHL SUB DUP2 GT ISZERO PUSH2 0x5957 JUMPI PUSH0 DUP1 REVERT JUMPDEST DUP6 ADD PUSH1 0x80 DUP2 DUP9 SUB SLT ISZERO PUSH2 0x5968 JUMPI PUSH0 DUP1 REVERT JUMPDEST PUSH2 0x5970 PUSH2 0x5449 JUMP JUMPDEST DUP2 CALLDATALOAD PUSH1 0x1 PUSH1 0x1 PUSH1 0x40 SHL SUB DUP2 GT ISZERO PUSH2 0x5985 JUMPI PUSH0 DUP1 REVERT JUMPDEST PUSH2 0x5991 DUP10 DUP3 DUP6 ADD PUSH2 0x546B JUMP JUMPDEST DUP3 MSTORE POP PUSH2 0x59A0 PUSH1 0x20 DUP4 ADD PUSH2 0x5757 JUMP JUMPDEST PUSH1 0x20 DUP3 ADD MSTORE PUSH2 0x59B1 PUSH1 0x40 DUP4 ADD PUSH2 0x5757 JUMP JUMPDEST PUSH1 0x40 DUP3 ADD MSTORE PUSH1 0x60 DUP3 ADD CALLDATALOAD PUSH1 0x1 PUSH1 0x1 PUSH1 0x40 SHL SUB DUP2 GT ISZERO PUSH2 0x59CE JUMPI PUSH0 DUP1 REVERT JUMPDEST PUSH2 0x59DA DUP10 DUP3 DUP6 ADD PUSH2 0x546B JUMP JUMPDEST PUSH1 0x60 DUP4 ADD MSTORE POP SWAP5 POP POP PUSH1 0x20 DUP6 ADD CALLDATALOAD PUSH1 0x1 PUSH1 0x1 PUSH1 0x40 SHL SUB DUP2 GT ISZERO PUSH2 0x59FB JUMPI PUSH0 DUP1 REVERT JUMPDEST PUSH2 0x5A07 DUP8 DUP3 DUP9 ADD PUSH2 0x546B JUMP JUMPDEST SWAP4 POP POP PUSH2 0x5A16 PUSH1 0x40 DUP7 ADD PUSH2 0x5757 JUMP JUMPDEST SWAP2 POP PUSH1 0x60 DUP6 ADD CALLDATALOAD PUSH1 0x1 PUSH1 0x1 PUSH1 0x40 SHL SUB DUP2 GT ISZERO PUSH2 0x5A30 JUMPI PUSH0 DUP1 REVERT JUMPDEST PUSH2 0x5A3C DUP8 DUP3 DUP9 ADD PUSH2 0x576C JUMP JUMPDEST SWAP2 POP POP SWAP3 SWAP6 SWAP2 SWAP5 POP SWAP3 POP JUMP JUMPDEST PUSH0 PUSH1 0x20 DUP3 ADD PUSH1 0x20 DUP4 MSTORE DUP1 DUP5 MLOAD DUP1 DUP4 MSTORE PUSH1 0x40 DUP6 ADD SWAP2 POP PUSH1 0x40 DUP2 PUSH1 0x5 SHL DUP7 ADD ADD SWAP3 POP PUSH1 0x20 DUP7 ADD PUSH0 JUMPDEST DUP3 DUP2 LT ISZERO PUSH2 0x574B JUMPI PUSH1 0x3F NOT DUP8 DUP7 SUB ADD DUP5 MSTORE DUP2 MLOAD DUP1 MLOAD PUSH2 0x100 DUP8 MSTORE PUSH2 0x5A96 PUSH2 0x100 DUP9 ADD DUP3 PUSH2 0x5553 JUMP JUMPDEST SWAP1 POP PUSH1 0x20 DUP3 ADD MLOAD DUP8 DUP3 SUB PUSH1 0x20 DUP10 ADD MSTORE PUSH2 0x5AAF DUP3 DUP3 PUSH2 0x5553 JUMP JUMPDEST SWAP2 POP POP PUSH1 0x40 DUP3 ADD MLOAD DUP8 DUP3 SUB PUSH1 0x40 DUP10 ADD MSTORE PUSH2 0x5AC9 DUP3 DUP3 PUSH2 0x5525 JUMP JUMPDEST SWAP2 POP POP PUSH1 0x60 DUP3 ADD MLOAD PUSH2 0x5AE0 PUSH1 0x60 DUP10 ADD DUP3 PUSH1 0xFF AND SWAP1 MSTORE JUMP JUMPDEST POP PUSH1 0x80 DUP3 ADD MLOAD PUSH2 0x5AF5 PUSH1 0x80 DUP10 ADD DUP3 PUSH1 0xFF AND SWAP1 MSTORE JUMP JUMPDEST POP PUSH1 0xA0 DUP3 ADD MLOAD PUSH2 0x5B0A PUSH1 0xA0 DUP10 ADD DUP3 PUSH1 0xFF AND SWAP1 MSTORE JUMP JUMPDEST POP PUSH1 0xC0 DUP3 ADD MLOAD DUP8 DUP3 SUB PUSH1 0xC0 DUP10 ADD MSTORE PUSH2 0x5B22 DUP3 DUP3 PUSH2 0x55A3 JUMP JUMPDEST SWAP2 POP POP PUSH1 0xE0 DUP3 ADD MLOAD SWAP2 POP DUP7 DUP2 SUB PUSH1 0xE0 DUP9 ADD MSTORE PUSH2 0x5B3E DUP2 DUP4 PUSH2 0x55A3 JUMP JUMPDEST SWAP7 POP POP POP PUSH1 0x20 SWAP4 DUP5 ADD SWAP4 SWAP2 SWAP1 SWAP2 ADD SWAP1 PUSH1 0x1 ADD PUSH2 0x5A6E JUMP JUMPDEST PUSH1 0x1 DUP2 DUP2 SHR SWAP1 DUP3 AND DUP1 PUSH2 0x5B69 JUMPI PUSH1 0x7F DUP3 AND SWAP2 POP JUMPDEST PUSH1 0x20 DUP3 LT DUP2 SUB PUSH2 0x8E6 JUMPI PUSH4 0x4E487B71 PUSH1 0xE0 SHL PUSH0 MSTORE PUSH1 0x22 PUSH1 0x4 MSTORE PUSH1 0x24 PUSH0 REVERT JUMPDEST PUSH4 0x4E487B71 PUSH1 0xE0 SHL PUSH0 MSTORE PUSH1 0x32 PUSH1 0x4 MSTORE PUSH1 0x24 PUSH0 REVERT JUMPDEST PUSH0 DUP1 DUP4 SLOAD PUSH2 0x5BA8 DUP2 PUSH2 0x5B55 JUMP JUMPDEST PUSH1 0x1 DUP3 AND DUP1 ISZERO PUSH2 0x5BBF JUMPI PUSH1 0x1 DUP2 EQ PUSH2 0x5BD4 JUMPI PUSH2 0x5C01 JUMP JUMPDEST PUSH1 0xFF NOT DUP4 AND DUP7 MSTORE DUP2 ISZERO ISZERO DUP3 MUL DUP7 ADD SWAP4 POP PUSH2 0x5C01 JUMP JUMPDEST DUP7 PUSH0 MSTORE PUSH1 0x20 PUSH0 KECCAK256 PUSH0 JUMPDEST DUP4 DUP2 LT ISZERO PUSH2 0x5BF9 JUMPI DUP2 SLOAD DUP9 DUP3 ADD MSTORE PUSH1 0x1 SWAP1 SWAP2 ADD SWAP1 PUSH1 0x20 ADD PUSH2 0x5BDD JUMP JUMPDEST POP POP DUP2 DUP7 ADD SWAP4 POP JUMPDEST POP SWAP2 SWAP6 SWAP5 POP POP POP POP POP JUMP JUMPDEST PUSH4 0x4E487B71 PUSH1 0xE0 SHL PUSH0 MSTORE PUSH1 0x11 PUSH1 0x4 MSTORE PUSH1 0x24 PUSH0 REVERT JUMPDEST PUSH1 0xFF DUP2 DUP2 AND DUP4 DUP3 AND MUL SWAP1 DUP2 AND SWAP1 DUP2 DUP2 EQ PUSH2 0x5C3C JUMPI PUSH2 0x5C3C PUSH2 0x5C0C JUMP JUMPDEST POP SWAP3 SWAP2 POP POP JUMP JUMPDEST PUSH0 DUP2 SLOAD PUSH2 0x5C4F DUP2 PUSH2 0x5B55 JUMP JUMPDEST DUP1 DUP6 MSTORE PUSH1 0x1 DUP3 AND DUP1 ISZERO PUSH2 0x5C69 JUMPI PUSH1 0x1 DUP2 EQ PUSH2 0x5C85 JUMPI PUSH2 0x5393 JUMP JUMPDEST PUSH1 0xFF NOT DUP4 AND PUSH1 0x20 DUP8 ADD MSTORE PUSH1 0x20 DUP3 ISZERO ISZERO PUSH1 0x5 SHL DUP8 ADD ADD SWAP4 POP PUSH2 0x5393 JUMP JUMPDEST DUP5 PUSH0 MSTORE PUSH1 0x20 PUSH0 KECCAK256 PUSH0 JUMPDEST DUP4 DUP2 LT ISZERO PUSH2 0x5CB0 JUMPI DUP2 SLOAD PUSH1 0x20 DUP3 DUP11 ADD ADD MSTORE PUSH1 0x1 DUP3 ADD SWAP2 POP PUSH1 0x20 DUP2 ADD SWAP1 POP PUSH2 0x5C8E JUMP JUMPDEST DUP8 ADD PUSH1 0x20 ADD SWAP5 POP POP POP POP POP SWAP3 SWAP2 POP POP JUMP JUMPDEST PUSH1 0x80 DUP2 MSTORE PUSH1 0x80 DUP1 DUP3 ADD MSTORE PUSH0 PUSH2 0x5CDA PUSH2 0x100 DUP4 ADD DUP8 PUSH2 0x5C43 JUMP JUMPDEST PUSH1 0x1 DUP8 ADD SLOAD PUSH1 0xFF DUP2 AND PUSH1 0xA0 DUP6 ADD MSTORE PUSH1 0xFF DUP2 PUSH1 0x8 SHR AND PUSH1 0xC0 DUP6 ADD MSTORE POP PUSH1 0x7F NOT DUP4 DUP3 SUB ADD PUSH1 0xE0 DUP5 ADD MSTORE PUSH2 0x5D0E DUP2 PUSH1 0x2 DUP10 ADD PUSH2 0x5C43 JUMP JUMPDEST SWAP1 POP DUP3 DUP2 SUB PUSH1 0x20 DUP5 ADD MSTORE PUSH2 0x5D22 DUP2 DUP8 PUSH2 0x5C43 JUMP JUMPDEST SWAP2 POP POP PUSH1 0xFF DUP5 AND PUSH1 0x40 DUP4 ADD MSTORE PUSH2 0x559A PUSH1 0x60 DUP4 ADD DUP5 PUSH1 0xFF AND SWAP1 MSTORE JUMP JUMPDEST PUSH0 DUP3 DUP2 SIGNEXTEND SWAP1 DUP3 SWAP1 SIGNEXTEND SUB PUSH1 0x7F NOT DUP2 SLT PUSH1 0x7F DUP3 SGT OR ISZERO PUSH2 0x4020 JUMPI PUSH2 0x4020 PUSH2 0x5C0C JUMP JUMPDEST PUSH0 DUP3 PUSH0 SIGNEXTEND DUP3 PUSH0 SIGNEXTEND MUL DUP1 PUSH0 SIGNEXTEND SWAP2 POP DUP1 DUP3 EQ PUSH2 0x5C3C JUMPI PUSH2 0x5C3C PUSH2 0x5C0C JUMP JUMPDEST PUSH0 PUSH1 0xFF DUP3 AND PUSH1 0xFF DUP2 SUB PUSH2 0x5D8E JUMPI PUSH2 0x5D8E PUSH2 0x5C0C JUMP JUMPDEST PUSH1 0x1 ADD SWAP3 SWAP2 POP POP JUMP JUMPDEST PUSH0 DUP3 MLOAD DUP1 PUSH1 0x20 DUP6 ADD DUP5 MCOPY PUSH0 SWAP3 ADD SWAP2 DUP3 MSTORE POP SWAP2 SWAP1 POP JUMP JUMPDEST PUSH1 0xFF DUP2 DUP2 AND DUP4 DUP3 AND ADD SWAP1 DUP2 GT ISZERO PUSH2 0x4020 JUMPI PUSH2 0x4020 PUSH2 0x5C0C JUMP JUMPDEST PUSH1 0x1F DUP3 GT ISZERO PUSH2 0x5E0A JUMPI DUP1 PUSH0 MSTORE PUSH1 0x20 PUSH0 KECCAK256 PUSH1 0x1F DUP5 ADD PUSH1 0x5 SHR DUP2 ADD PUSH1 0x20 DUP6 LT ISZERO PUSH2 0x5DEB JUMPI POP DUP1 JUMPDEST PUSH1 0x1F DUP5 ADD PUSH1 0x5 SHR DUP3 ADD SWAP2 POP JUMPDEST DUP2 DUP2 LT ISZERO PUSH2 0x2196 JUMPI PUSH0 DUP2 SSTORE PUSH1 0x1 ADD PUSH2 0x5DF7 JUMP JUMPDEST POP POP POP JUMP JUMPDEST PUSH0 NOT PUSH1 0x3 DUP4 SWAP1 SHL SHR NOT AND PUSH1 0x1 SWAP2 SWAP1 SWAP2 SHL OR SWAP1 JUMP JUMPDEST DUP2 MLOAD PUSH1 0x1 PUSH1 0x1 PUSH1 0x40 SHL SUB DUP2 GT ISZERO PUSH2 0x5E3C JUMPI PUSH2 0x5E3C PUSH2 0x540C JUMP JUMPDEST PUSH2 0x5E50 DUP2 PUSH2 0x5E4A DUP5 SLOAD PUSH2 0x5B55 JUMP JUMPDEST DUP5 PUSH2 0x5DC6 JUMP JUMPDEST PUSH1 0x20 PUSH1 0x1F DUP3 GT PUSH1 0x1 DUP2 EQ PUSH2 0x5E7D JUMPI PUSH0 DUP4 ISZERO PUSH2 0x5E6B JUMPI POP DUP5 DUP3 ADD MLOAD JUMPDEST PUSH2 0x5E75 DUP5 DUP3 PUSH2 0x5E0F JUMP JUMPDEST DUP6 SSTORE POP PUSH2 0x2196 JUMP JUMPDEST PUSH0 DUP5 DUP2 MSTORE PUSH1 0x20 DUP2 KECCAK256 PUSH1 0x1F NOT DUP6 AND SWAP2 JUMPDEST DUP3 DUP2 LT ISZERO PUSH2 0x5EAC JUMPI DUP8 DUP6 ADD MLOAD DUP3 SSTORE PUSH1 0x20 SWAP5 DUP6 ADD SWAP5 PUSH1 0x1 SWAP1 SWAP3 ADD SWAP2 ADD PUSH2 0x5E8C JUMP JUMPDEST POP DUP5 DUP3 LT ISZERO PUSH2 0x5EC9 JUMPI DUP7 DUP5 ADD MLOAD PUSH0 NOT PUSH1 0x3 DUP8 SWAP1 SHL PUSH1 0xF8 AND SHR NOT AND DUP2 SSTORE JUMPDEST POP POP POP POP PUSH1 0x1 SWAP1 DUP2 SHL ADD SWAP1 SSTORE POP JUMP JUMPDEST DUP2 DUP2 SUB DUP2 DUP2 GT ISZERO PUSH2 0x4020 JUMPI PUSH2 0x4020 PUSH2 0x5C0C JUMP JUMPDEST DUP2 DUP2 SUB PUSH2 0x5EF6 JUMPI POP POP JUMP JUMPDEST PUSH2 0x5F00 DUP3 SLOAD PUSH2 0x5B55 JUMP JUMPDEST PUSH1 0x1 PUSH1 0x1 PUSH1 0x40 SHL SUB DUP2 GT ISZERO PUSH2 0x5F17 JUMPI PUSH2 0x5F17 PUSH2 0x540C JUMP JUMPDEST PUSH2 0x5F25 DUP2 PUSH2 0x5E4A DUP5 SLOAD PUSH2 0x5B55 JUMP JUMPDEST PUSH0 PUSH1 0x1F DUP3 GT PUSH1 0x1 DUP2 EQ PUSH2 0x5F48 JUMPI PUSH0 DUP4 ISZERO PUSH2 0x5E6B JUMPI POP DUP5 DUP3 ADD SLOAD PUSH2 0x5E75 DUP5 DUP3 PUSH2 0x5E0F JUMP JUMPDEST PUSH0 DUP6 DUP2 MSTORE PUSH1 0x20 DUP1 DUP3 KECCAK256 DUP7 DUP4 MSTORE SWAP1 DUP3 KECCAK256 PUSH1 0x1F NOT DUP7 AND SWAP3 JUMPDEST DUP4 DUP2 LT ISZERO PUSH2 0x5F7E JUMPI DUP3 DUP7 ADD SLOAD DUP3 SSTORE PUSH1 0x1 SWAP6 DUP7 ADD SWAP6 SWAP1 SWAP2 ADD SWAP1 PUSH1 0x20 ADD PUSH2 0x5F5E JUMP JUMPDEST POP DUP6 DUP4 LT ISZERO PUSH2 0x5F9B JUMPI DUP2 DUP6 ADD SLOAD PUSH0 NOT PUSH1 0x3 DUP9 SWAP1 SHL PUSH1 0xF8 AND SHR NOT AND DUP2 SSTORE JUMPDEST POP POP POP POP POP PUSH1 0x1 SWAP1 DUP2 SHL ADD SWAP1 SSTORE POP JUMP JUMPDEST PUSH4 0x4E487B71 PUSH1 0xE0 SHL PUSH0 MSTORE PUSH1 0x31 PUSH1 0x4 MSTORE PUSH1 0x24 PUSH0 REVERT JUMPDEST PUSH1 0xFF DUP3 DUP2 AND DUP3 DUP3 AND SUB SWAP1 DUP2 GT ISZERO PUSH2 0x4020 JUMPI PUSH2 0x4020 PUSH2 0x5C0C JUMP INVALID SWAP16 GASPRICE 0xD7 0xE2 SWAP8 SMOD PREVRANDAO SUB 0xEB 0xBE PUSH10 0x20FCFC9EAD722B9CF562 PUSH1 0x85 SMOD SELFBALANCE PUSH20 0x25D0687D87BEA2646970667358221220D6765502 SWAP2 0xE8 SWAP7 PUSH11 0xC8B3A186332B142B8AB311 NOT DUP9 0x2E 0xE6 0x2F PUSH24 0xC6C5596E59CB5964736F6C634300081A0033000000000000 "
		},
		"gasEstimates": {
			"creation": {
				"codeDepositCost": "4924400",
				"executionCost": "infinite",
				"totalCost": "infinite"
			},
			"external": {
				"regDonor((string,uint8,uint8,string),string,uint8,(string,string,string,string,string,string,string,string,string,string))": "infinite",
				"regRecipient((string,uint8,uint8,string),string,uint8,(string,string,string,string,string,string,string,string,string,string))": "infinite",
				"showDonors(string)": "infinite",
				"showMatches(string)": "infinite",
				"showRecipient(string)": "infinite"
			},
			"internal": {
				"passCheck(string memory,bytes32)": "infinite"
			}
		},
		"methodIdentifiers": {
			"regDonor((string,uint8,uint8,string),string,uint8,(string,string,string,string,string,string,string,string,string,string))": "b59e0f9e",
			"regRecipient((string,uint8,uint8,string),string,uint8,(string,string,string,string,string,string,string,string,string,string))": "f86813ff",
			"showDonors(string)": "ae9ec457",
			"showMatches(string)": "c005a930",
			"showRecipient(string)": "963e9f1f"
		}
	},
	"abi": [
		{
			"inputs": [
				{
					"internalType": "string",
					"name": "_donorPass",
					"type": "string"
				},
				{
					"internalType": "string",
					"name": "_recipientPass",
					"type": "string"
				},
				{
					"internalType": "string",
					"name": "_matchedPass",
					"type": "string"
				}
			],
			"stateMutability": "nonpayable",
			"type": "constructor"
		},
		{
			"anonymous": false,
			"inputs": [
				{
					"components": [
						{
							"internalType": "string",
							"name": "name",
							"type": "string"
						},
						{
							"internalType": "uint8",
							"name": "age",
							"type": "uint8"
						},
						{
							"internalType": "uint8",
							"name": "bloodtype",
							"type": "uint8"
						},
						{
							"internalType": "string",
							"name": "hospital",
							"type": "string"
						}
					],
					"indexed": false,
					"internalType": "struct utils.persInfo",
					"name": "info",
					"type": "tuple"
				},
				{
					"indexed": false,
					"internalType": "string",
					"name": "organ",
					"type": "string"
				},
				{
					"indexed": false,
					"internalType": "uint8",
					"name": "mP",
					"type": "uint8"
				},
				{
					"indexed": false,
					"internalType": "uint8",
					"name": "qty",
					"type": "uint8"
				}
			],
			"name": "MatchFound",
			"type": "event"
		},
		{
			"inputs": [
				{
					"components": [
						{
							"internalType": "string",
							"name": "name",
							"type": "string"
						},
						{
							"internalType": "uint8",
							"name": "age",
							"type": "uint8"
						},
						{
							"internalType": "uint8",
							"name": "bloodtype",
							"type": "uint8"
						},
						{
							"internalType": "string",
							"name": "hospital",
							"type": "string"
						}
					],
					"internalType": "struct utils.persInfo",
					"name": "_info",
					"type": "tuple"
				},
				{
					"internalType": "string",
					"name": "_organ",
					"type": "string"
				},
				{
					"internalType": "uint8",
					"name": "_quantity",
					"type": "uint8"
				},
				{
					"components": [
						{
							"internalType": "string",
							"name": "a1",
							"type": "string"
						},
						{
							"internalType": "string",
							"name": "a2",
							"type": "string"
						},
						{
							"internalType": "string",
							"name": "b1",
							"type": "string"
						},
						{
							"internalType": "string",
							"name": "b2",
							"type": "string"
						},
						{
							"internalType": "string",
							"name": "c1",
							"type": "string"
						},
						{
							"internalType": "string",
							"name": "c2",
							"type": "string"
						},
						{
							"internalType": "string",
							"name": "drb1_1",
							"type": "string"
						},
						{
							"internalType": "string",
							"name": "drb1_2",
							"type": "string"
						},
						{
							"internalType": "string",
							"name": "dqb1_1",
							"type": "string"
						},
						{
							"internalType": "string",
							"name": "dqb1_2",
							"type": "string"
						}
					],
					"internalType": "struct utils.HLA",
					"name": "_report",
					"type": "tuple"
				}
			],
			"name": "regDonor",
			"outputs": [],
			"stateMutability": "nonpayable",
			"type": "function"
		},
		{
			"inputs": [
				{
					"components": [
						{
							"internalType": "string",
							"name": "name",
							"type": "string"
						},
						{
							"internalType": "uint8",
							"name": "age",
							"type": "uint8"
						},
						{
							"internalType": "uint8",
							"name": "bloodtype",
							"type": "uint8"
						},
						{
							"internalType": "string",
							"name": "hospital",
							"type": "string"
						}
					],
					"internalType": "struct utils.persInfo",
					"name": "_info",
					"type": "tuple"
				},
				{
					"internalType": "string",
					"name": "_organ",
					"type": "string"
				},
				{
					"internalType": "uint8",
					"name": "_quantity",
					"type": "uint8"
				},
				{
					"components": [
						{
							"internalType": "string",
							"name": "a1",
							"type": "string"
						},
						{
							"internalType": "string",
							"name": "a2",
							"type": "string"
						},
						{
							"internalType": "string",
							"name": "b1",
							"type": "string"
						},
						{
							"internalType": "string",
							"name": "b2",
							"type": "string"
						},
						{
							"internalType": "string",
							"name": "c1",
							"type": "string"
						},
						{
							"internalType": "string",
							"name": "c2",
							"type": "string"
						},
						{
							"internalType": "string",
							"name": "drb1_1",
							"type": "string"
						},
						{
							"internalType": "string",
							"name": "drb1_2",
							"type": "string"
						},
						{
							"internalType": "string",
							"name": "dqb1_1",
							"type": "string"
						},
						{
							"internalType": "string",
							"name": "dqb1_2",
							"type": "string"
						}
					],
					"internalType": "struct utils.HLA",
					"name": "_report",
					"type": "tuple"
				}
			],
			"name": "regRecipient",
			"outputs": [],
			"stateMutability": "nonpayable",
			"type": "function"
		},
		{
			"inputs": [
				{
					"internalType": "string",
					"name": "_pass",
					"type": "string"
				}
			],
			"name": "showDonors",
			"outputs": [
				{
					"components": [
						{
							"components": [
								{
									"internalType": "string",
									"name": "name",
									"type": "string"
								},
								{
									"internalType": "uint8",
									"name": "age",
									"type": "uint8"
								},
								{
									"internalType": "uint8",
									"name": "bloodtype",
									"type": "uint8"
								},
								{
									"internalType": "string",
									"name": "hospital",
									"type": "string"
								}
							],
							"internalType": "struct utils.persInfo",
							"name": "info",
							"type": "tuple"
						},
						{
							"internalType": "string",
							"name": "organ",
							"type": "string"
						},
						{
							"internalType": "uint8",
							"name": "quantity",
							"type": "uint8"
						},
						{
							"components": [
								{
									"internalType": "string",
									"name": "a1",
									"type": "string"
								},
								{
									"internalType": "string",
									"name": "a2",
									"type": "string"
								},
								{
									"internalType": "string",
									"name": "b1",
									"type": "string"
								},
								{
									"internalType": "string",
									"name": "b2",
									"type": "string"
								},
								{
									"internalType": "string",
									"name": "c1",
									"type": "string"
								},
								{
									"internalType": "string",
									"name": "c2",
									"type": "string"
								},
								{
									"internalType": "string",
									"name": "drb1_1",
									"type": "string"
								},
								{
									"internalType": "string",
									"name": "drb1_2",
									"type": "string"
								},
								{
									"internalType": "string",
									"name": "dqb1_1",
									"type": "string"
								},
								{
									"internalType": "string",
									"name": "dqb1_2",
									"type": "string"
								}
							],
							"internalType": "struct utils.HLA",
							"name": "report",
							"type": "tuple"
						}
					],
					"internalType": "struct utils.orgdet[]",
					"name": "",
					"type": "tuple[]"
				}
			],
			"stateMutability": "view",
			"type": "function"
		},
		{
			"inputs": [
				{
					"internalType": "string",
					"name": "_pass",
					"type": "string"
				}
			],
			"name": "showMatches",
			"outputs": [
				{
					"components": [
						{
							"components": [
								{
									"internalType": "string",
									"name": "name",
									"type": "string"
								},
								{
									"internalType": "uint8",
									"name": "age",
									"type": "uint8"
								},
								{
									"internalType": "uint8",
									"name": "bloodtype",
									"type": "uint8"
								},
								{
									"internalType": "string",
									"name": "hospital",
									"type": "string"
								}
							],
							"internalType": "struct utils.persInfo",
							"name": "donInfo",
							"type": "tuple"
						},
						{
							"components": [
								{
									"internalType": "string",
									"name": "name",
									"type": "string"
								},
								{
									"internalType": "uint8",
									"name": "age",
									"type": "uint8"
								},
								{
									"internalType": "uint8",
									"name": "bloodtype",
									"type": "uint8"
								},
								{
									"internalType": "string",
									"name": "hospital",
									"type": "string"
								}
							],
							"internalType": "struct utils.persInfo",
							"name": "recInfo",
							"type": "tuple"
						},
						{
							"internalType": "string",
							"name": "organ",
							"type": "string"
						},
						{
							"internalType": "uint8",
							"name": "donorquantity",
							"type": "uint8"
						},
						{
							"internalType": "uint8",
							"name": "recipientquantity",
							"type": "uint8"
						},
						{
							"internalType": "uint8",
							"name": "matchedquantity",
							"type": "uint8"
						},
						{
							"components": [
								{
									"internalType": "string",
									"name": "a1",
									"type": "string"
								},
								{
									"internalType": "string",
									"name": "a2",
									"type": "string"
								},
								{
									"internalType": "string",
									"name": "b1",
									"type": "string"
								},
								{
									"internalType": "string",
									"name": "b2",
									"type": "string"
								},
								{
									"internalType": "string",
									"name": "c1",
									"type": "string"
								},
								{
									"internalType": "string",
									"name": "c2",
									"type": "string"
								},
								{
									"internalType": "string",
									"name": "drb1_1",
									"type": "string"
								},
								{
									"internalType": "string",
									"name": "drb1_2",
									"type": "string"
								},
								{
									"internalType": "string",
									"name": "dqb1_1",
									"type": "string"
								},
								{
									"internalType": "string",
									"name": "dqb1_2",
									"type": "string"
								}
							],
							"internalType": "struct utils.HLA",
							"name": "don_rep",
							"type": "tuple"
						},
						{
							"components": [
								{
									"internalType": "string",
									"name": "a1",
									"type": "string"
								},
								{
									"internalType": "string",
									"name": "a2",
									"type": "string"
								},
								{
									"internalType": "string",
									"name": "b1",
									"type": "string"
								},
								{
									"internalType": "string",
									"name": "b2",
									"type": "string"
								},
								{
									"internalType": "string",
									"name": "c1",
									"type": "string"
								},
								{
									"internalType": "string",
									"name": "c2",
									"type": "string"
								},
								{
									"internalType": "string",
									"name": "drb1_1",
									"type": "string"
								},
								{
									"internalType": "string",
									"name": "drb1_2",
									"type": "string"
								},
								{
									"internalType": "string",
									"name": "dqb1_1",
									"type": "string"
								},
								{
									"internalType": "string",
									"name": "dqb1_2",
									"type": "string"
								}
							],
							"internalType": "struct utils.HLA",
							"name": "rec_rep",
							"type": "tuple"
						}
					],
					"internalType": "struct utils.matched_orgdet[]",
					"name": "",
					"type": "tuple[]"
				}
			],
			"stateMutability": "view",
			"type": "function"
		},
		{
			"inputs": [
				{
					"internalType": "string",
					"name": "_pass",
					"type": "string"
				}
			],
			"name": "showRecipient",
			"outputs": [
				{
					"components": [
						{
							"components": [
								{
									"internalType": "string",
									"name": "name",
									"type": "string"
								},
								{
									"internalType": "uint8",
									"name": "age",
									"type": "uint8"
								},
								{
									"internalType": "uint8",
									"name": "bloodtype",
									"type": "uint8"
								},
								{
									"internalType": "string",
									"name": "hospital",
									"type": "string"
								}
							],
							"internalType": "struct utils.persInfo",
							"name": "info",
							"type": "tuple"
						},
						{
							"internalType": "string",
							"name": "organ",
							"type": "string"
						},
						{
							"internalType": "uint8",
							"name": "quantity",
							"type": "uint8"
						},
						{
							"components": [
								{
									"internalType": "string",
									"name": "a1",
									"type": "string"
								},
								{
									"internalType": "string",
									"name": "a2",
									"type": "string"
								},
								{
									"internalType": "string",
									"name": "b1",
									"type": "string"
								},
								{
									"internalType": "string",
									"name": "b2",
									"type": "string"
								},
								{
									"internalType": "string",
									"name": "c1",
									"type": "string"
								},
								{
									"internalType": "string",
									"name": "c2",
									"type": "string"
								},
								{
									"internalType": "string",
									"name": "drb1_1",
									"type": "string"
								},
								{
									"internalType": "string",
									"name": "drb1_2",
									"type": "string"
								},
								{
									"internalType": "string",
									"name": "dqb1_1",
									"type": "string"
								},
								{
									"internalType": "string",
									"name": "dqb1_2",
									"type": "string"
								}
							],
							"internalType": "struct utils.HLA",
							"name": "report",
							"type": "tuple"
						}
					],
					"internalType": "struct utils.orgdet[]",
					"name": "",
					"type": "tuple[]"
				}
			],
			"stateMutability": "view",
			"type": "function"
		}
	]
}