{
	"data": {
		"bytecode": {
			"linkReferences": {},
			"object": "60016101c08181526101e08290525f6102008190526102208190526102408190526102608190526102808390526102a08390526102c08190526102e081905260809182526103008181526103208490526103408290526103608290526103808290526103a08290526103c08290526103e084905261040082905261042082905260a0526104408181526104608290526104808490526104a08490526104c08290526104e082905261050084905261052084905261054082905261056082905260c0526105808181526105a08290526105c08290526105e08490526106008290526106208290526106408290526106608490526106808290526106a082905260e0526106c08381526106e08490526107008490526107208490526107408490526107608490526107808490526107a08490526107c08290526107e0829052610100526108008181526108208490526108408290526108608490526108808290526108a08490526108c08290526108e0849052610900829052610920829052610120526109408181526109608290526109808290526109a08290526109c08290526109e0829052610a00849052610a20849052610a40829052610a6082905261014052610a80818152610aa0829052610ac0829052610ae0829052610b00829052610b20829052610b40829052610b60849052610b80829052610ba082905261016052610bc0818152610be0829052610c00829052610c20829052610c40829052610c60829052610c80829052610ca0829052610cc0849052610ce082905261018052610e40604052610d00818152610d20829052610d40829052610d60829052610d80829052610da0829052610dc0829052610de0829052610e0091909152610e20929092526101a09190915261029990600690600a61090c565b50604051616d8a380380616d8a8339810160408190526102b891610b8e565b806040516020016102c99190610c3e565b60408051601f1981840301815282825280516020918201205f908155608084018352600f8484019081526e189b1bdbd9081cdd195b4818d95b1b608a1b606086015284528251808401909352600b83526a626f6e65206d6172726f7760a81b8383015283820192909252600990915260019052610369907f74a5fbcb419ab7dbacbb2c92a4e163730f0da5c72b911deecf4f05a6b327d0a4906002610956565b506040805161014081018252600361010082018181526261726d60e81b6101208401528252825180840184528181526265796560e81b60208281019190915280840191909152835180850185526004808252636661636560e01b828401528486019190915284518086018652908152631a185b9960e21b81830152606084015283518085018552918252626c656760e81b8282015260808301919091528251808401845260058082526470656e697360d81b8284015260a0840191909152835180850185529081526407363616c760dc1b8183015260c0830152825180840190935260068352657468796d757360d01b8382015260e082019290925260075f52600190915261049b907fdc686ec4a0ff239c70e7c7c36e8f853eced3bc8618f48d2b816da2a74311237e9060086109a6565b506040805161026081018252600e61022082019081526d1858991bdb5a5b985b081dd85b1b60921b610240830152815281518083018352600d81526c18591c995b985b0819db185b99609a1b6020828101919091528083019190915282518084018452600480825263626f6e6560e01b828401528385019190915283518085018552600981526865736f70686167757360b81b818401526060840152835180850185526006808252650d8c2e4f2dcf60d31b82850152608085019190915284518086018652600a8152696c796d7068206e6f646560b01b8185015260a0850152845180860186526008808252671b985a5b0818995960c21b8286015260c0860191909152855180870187526005808252646e6572766560d81b8287015260e087019190915286518088018852818152646f7661727960d81b81870152610100870152865180880188528281526770616e637265617360c01b81870152610120870152865180880188529384526339b5b4b760e11b8486015261014086019390935285518087018752600f81526e736d616c6c20696e74657374696e6560881b81860152610160860152855180870187528281526539b83632b2b760d11b81860152610180860152855180870187526007808252660e6e8dedac2c6d60cb1b828701526101a087019190915286518088018852918252677465737469636c6560c01b828601526101c086019190915285518087018752908152667472616368656160c81b818501526101e0850152845180860190955284526575746572757360d01b848301526102008301939093525f929092526001909152610720907fe2689cd4a84e23ad2f564004f1c9013e9589d260bde6380aba3ca7e09e4df40c9060116109ea565b506040805161014081018252600c61010082019081526b189b1bdbd9081d995cdcd95b60a21b610120830152815281518083018352600981526863617274696c61676560b81b6020828101919091528083019190915282518084018452600381526219985d60ea1b81830152828401528251808401845260058152641a19585c9d60da1b818301526060830152825180840184526008808252671b1a59d85b595b9d60c21b8284015260808401919091528351808501855260048152636c756e6760e01b8184015260a084015283518085018552818152676d656e697363757360c01b8184015260c0840152835180850190945260068452653a32b73237b760d11b8483015260e083019390935260025f5260019052610862917fd9d16d34ffb15ba3a3d852f0d403e2ce1d691fb54de27ac87cd2f993f3ec330f91906109a6565b506040805160a08101825260066060820190815265636f726e656160d01b6080830152815281518083018352600b81526a68656172742076616c766560a81b602082810191909152808301919091528251808401845260058152643634bb32b960d91b81830152928201929092525f80526001909152610905907fa6eef7e35abe7026729641147f7915573c7e97b47efa546f5f6e3230263bcb49906003610a2e565b5050610db1565b82600a8101928215610946579160200282015b82811115610946578251610936908390600a610a72565b509160200191906001019061091f565b50610952929150610afe565b5090565b828054828255905f5260205f2090810192821561099a579160200282015b8281111561099a578251829061098a9082610cf7565b5091602001919060010190610974565b50610952929150610b11565b828054828255905f5260205f2090810192821561099a579160200282015b8281111561099a57825182906109da9082610cf7565b50916020019190600101906109c4565b828054828255905f5260205f2090810192821561099a579160200282015b8281111561099a5782518290610a1e9082610cf7565b5091602001919060010190610a08565b828054828255905f5260205f2090810192821561099a579160200282015b8281111561099a5782518290610a629082610cf7565b5091602001919060010190610a4c565b600183019183908215610af2579160200282015f5b83821115610ac457835183826101000a81548160ff021916908360ff16021790555092602001926001016020815f01049283019260010302610a87565b8015610af05782816101000a81549060ff02191690556001016020815f01049283019260010302610ac4565b505b50610952929150610b2d565b80821115610952575f8155600101610afe565b80821115610952575f610b248282610b40565b50600101610b11565b80821115610952575f8155600101610afe565b508054610b4c90610c73565b5f825580601f10610b5b575050565b601f0160209004905f5260205f2090810190610b779190610b2d565b50565b634e487b7160e01b5f52604160045260245ffd5b5f60208284031215610b9e575f80fd5b81516001600160401b03811115610bb3575f80fd5b8201601f81018413610bc3575f80fd5b80516001600160401b03811115610bdc57610bdc610b7a565b604051601f8201601f19908116603f011681016001600160401b0381118282101715610c0a57610c0a610b7a565b604052818152828201602001861015610c21575f80fd5b8160208401602083015e5f91810160200191909152949350505050565b602081525f82518060208401528060208501604085015e5f604082850101526040601f19601f83011684010191505092915050565b600181811c90821680610c8757607f821691505b602082108103610ca557634e487b7160e01b5f52602260045260245ffd5b50919050565b601f821115610cf257805f5260205f20601f840160051c81016020851015610cd05750805b601f840160051c820191505b81811015610cef575f8155600101610cdc565b50505b505050565b81516001600160401b03811115610d1057610d10610b7a565b610d2481610d1e8454610c73565b84610cab565b6020601f821160018114610d56575f8315610d3f5750848201515b5f19600385901b1c1916600184901b178455610cef565b5f84815260208120601f198516915b82811015610d855787850151825560209485019460019092019101610d65565b5084821015610da257868401515f19600387901b60f8161c191681555b50505050600190811b01905550565b615fcc80610dbe5f395ff3fe608060405234801561000f575f80fd5b506004361061003f575f3560e01c80630f65c93114610043578063b59e0f9e1461006c578063f86813ff14610081575b5f80fd5b610056610051366004615527565b610094565b60405161006391906156ac565b60405180910390f35b61007f61007a366004615993565b6110e0565b005b61007f61008f366004615993565b6121a1565b6060826040516020016100a79190615ab1565b604051602081830303815290604052805190602001206100c8815f54612c9b565b8260ff166003036100dd576100db612caa565b505b8260ff166001036108e6576003805480602002602001604051908101604052809291908181526020015f905b828210156108db575f84815260209020604080516101008101909152600f840290910180548290608082019083908290829061014490615ac3565b80601f016020809104026020016040519081016040528092919081815260200182805461017090615ac3565b80156101bb5780601f10610192576101008083540402835291602001916101bb565b820191905f5260205f20905b81548152906001019060200180831161019e57829003601f168201915b5050509183525050600182015460ff80821660208401526101009091041660408201526002820180546060909201916101f390615ac3565b80601f016020809104026020016040519081016040528092919081815260200182805461021f90615ac3565b801561026a5780601f106102415761010080835404028352916020019161026a565b820191905f5260205f20905b81548152906001019060200180831161024d57829003601f168201915b505050505081525050815260200160038201805461028790615ac3565b80601f01602080910402602001604051908101604052809291908181526020018280546102b390615ac3565b80156102fe5780601f106102d5576101008083540402835291602001916102fe565b820191905f5260205f20905b8154815290600101906020018083116102e157829003601f168201915b5050509183525050600482015460ff1660208201526040805161014081018252600584018054929093019290918290829061033890615ac3565b80601f016020809104026020016040519081016040528092919081815260200182805461036490615ac3565b80156103af5780601f10610386576101008083540402835291602001916103af565b820191905f5260205f20905b81548152906001019060200180831161039257829003601f168201915b505050505081526020016001820180546103c890615ac3565b80601f01602080910402602001604051908101604052809291908181526020018280546103f490615ac3565b801561043f5780601f106104165761010080835404028352916020019161043f565b820191905f5260205f20905b81548152906001019060200180831161042257829003601f168201915b5050505050815260200160028201805461045890615ac3565b80601f016020809104026020016040519081016040528092919081815260200182805461048490615ac3565b80156104cf5780601f106104a6576101008083540402835291602001916104cf565b820191905f5260205f20905b8154815290600101906020018083116104b257829003601f168201915b505050505081526020016003820180546104e890615ac3565b80601f016020809104026020016040519081016040528092919081815260200182805461051490615ac3565b801561055f5780601f106105365761010080835404028352916020019161055f565b820191905f5260205f20905b81548152906001019060200180831161054257829003601f168201915b5050505050815260200160048201805461057890615ac3565b80601f01602080910402602001604051908101604052809291908181526020018280546105a490615ac3565b80156105ef5780601f106105c6576101008083540402835291602001916105ef565b820191905f5260205f20905b8154815290600101906020018083116105d257829003601f168201915b5050505050815260200160058201805461060890615ac3565b80601f016020809104026020016040519081016040528092919081815260200182805461063490615ac3565b801561067f5780601f106106565761010080835404028352916020019161067f565b820191905f5260205f20905b81548152906001019060200180831161066257829003601f168201915b5050505050815260200160068201805461069890615ac3565b80601f01602080910402602001604051908101604052809291908181526020018280546106c490615ac3565b801561070f5780601f106106e65761010080835404028352916020019161070f565b820191905f5260205f20905b8154815290600101906020018083116106f257829003601f168201915b5050505050815260200160078201805461072890615ac3565b80601f016020809104026020016040519081016040528092919081815260200182805461075490615ac3565b801561079f5780601f106107765761010080835404028352916020019161079f565b820191905f5260205f20905b81548152906001019060200180831161078257829003601f168201915b505050505081526020016008820180546107b890615ac3565b80601f01602080910402602001604051908101604052809291908181526020018280546107e490615ac3565b801561082f5780601f106108065761010080835404028352916020019161082f565b820191905f5260205f20905b81548152906001019060200180831161081257829003601f168201915b5050505050815260200160098201805461084890615ac3565b80601f016020809104026020016040519081016040528092919081815260200182805461087490615ac3565b80156108bf5780601f10610896576101008083540402835291602001916108bf565b820191905f5260205f20905b8154815290600101906020018083116108a257829003601f168201915b5050505050815250508152505081526020019060010190610109565b5050505091506110d9565b6004805480602002602001604051908101604052809291908181526020015f905b828210156108db575f84815260209020604080516101008101909152600f840290910180548290608082019083908290829061094290615ac3565b80601f016020809104026020016040519081016040528092919081815260200182805461096e90615ac3565b80156109b95780601f10610990576101008083540402835291602001916109b9565b820191905f5260205f20905b81548152906001019060200180831161099c57829003601f168201915b5050509183525050600182015460ff80821660208401526101009091041660408201526002820180546060909201916109f190615ac3565b80601f0160208091040260200160405190810160405280929190818152602001828054610a1d90615ac3565b8015610a685780601f10610a3f57610100808354040283529160200191610a68565b820191905f5260205f20905b815481529060010190602001808311610a4b57829003601f168201915b5050505050815250508152602001600382018054610a8590615ac3565b80601f0160208091040260200160405190810160405280929190818152602001828054610ab190615ac3565b8015610afc5780601f10610ad357610100808354040283529160200191610afc565b820191905f5260205f20905b815481529060010190602001808311610adf57829003601f168201915b5050509183525050600482015460ff16602082015260408051610140810182526005840180549290930192909182908290610b3690615ac3565b80601f0160208091040260200160405190810160405280929190818152602001828054610b6290615ac3565b8015610bad5780601f10610b8457610100808354040283529160200191610bad565b820191905f5260205f20905b815481529060010190602001808311610b9057829003601f168201915b50505050508152602001600182018054610bc690615ac3565b80601f0160208091040260200160405190810160405280929190818152602001828054610bf290615ac3565b8015610c3d5780601f10610c1457610100808354040283529160200191610c3d565b820191905f5260205f20905b815481529060010190602001808311610c2057829003601f168201915b50505050508152602001600282018054610c5690615ac3565b80601f0160208091040260200160405190810160405280929190818152602001828054610c8290615ac3565b8015610ccd5780601f10610ca457610100808354040283529160200191610ccd565b820191905f5260205f20905b815481529060010190602001808311610cb057829003601f168201915b50505050508152602001600382018054610ce690615ac3565b80601f0160208091040260200160405190810160405280929190818152602001828054610d1290615ac3565b8015610d5d5780601f10610d3457610100808354040283529160200191610d5d565b820191905f5260205f20905b815481529060010190602001808311610d4057829003601f168201915b50505050508152602001600482018054610d7690615ac3565b80601f0160208091040260200160405190810160405280929190818152602001828054610da290615ac3565b8015610ded5780601f10610dc457610100808354040283529160200191610ded565b820191905f5260205f20905b815481529060010190602001808311610dd057829003601f168201915b50505050508152602001600582018054610e0690615ac3565b80601f0160208091040260200160405190810160405280929190818152602001828054610e3290615ac3565b8015610e7d5780601f10610e5457610100808354040283529160200191610e7d565b820191905f5260205f20905b815481529060010190602001808311610e6057829003601f168201915b50505050508152602001600682018054610e9690615ac3565b80601f0160208091040260200160405190810160405280929190818152602001828054610ec290615ac3565b8015610f0d5780601f10610ee457610100808354040283529160200191610f0d565b820191905f5260205f20905b815481529060010190602001808311610ef057829003601f168201915b50505050508152602001600782018054610f2690615ac3565b80601f0160208091040260200160405190810160405280929190818152602001828054610f5290615ac3565b8015610f9d5780601f10610f7457610100808354040283529160200191610f9d565b820191905f5260205f20905b815481529060010190602001808311610f8057829003601f168201915b50505050508152602001600882018054610fb690615ac3565b80601f0160208091040260200160405190810160405280929190818152602001828054610fe290615ac3565b801561102d5780601f106110045761010080835404028352916020019161102d565b820191905f5260205f20905b81548152906001019060200180831161101057829003601f168201915b5050505050815260200160098201805461104690615ac3565b80601f016020809104026020016040519081016040528092919081815260200182805461107290615ac3565b80156110bd5780601f10611094576101008083540402835291602001916110bd565b820191905f5260205f20905b8154815290600101906020018083116110a057829003601f168201915b5050505050815250508152505081526020019060010190610907565b5092915050565b6110ea6002613bcc565b60408085015181516101408101909252611174916006600a5f835b8282101561116857604080516101408101918290529085840190600a90825f855b825461010083900a900460ff16815260206001928301818104948501949093039092029101808411611126579050505050505081526020019060010190611105565b5050505060025f613c13565b5f805b6004548110156121865784805190602001206004828154811061119c5761119c615b14565b905f5260205f2090600f02016003016040516111b89190615b41565b60405180910390200361217e575f5b60025460ff8216101561217c5760028160ff16815481106111ea576111ea615b14565b905f5260205f2090602091828204019190069054906101000a900460ff1660ff166004838154811061121e5761121e615b14565b5f9182526020909120600f9091020160010154610100900460ff160361216a575f611815856004858154811061125657611256615b14565b905f5260205f2090600f0201600501604051806101400160405290815f8201805461128090615ac3565b80601f01602080910402602001604051908101604052809291908181526020018280546112ac90615ac3565b80156112f75780601f106112ce576101008083540402835291602001916112f7565b820191905f5260205f20905b8154815290600101906020018083116112da57829003601f168201915b5050505050815260200160018201805461131090615ac3565b80601f016020809104026020016040519081016040528092919081815260200182805461133c90615ac3565b80156113875780601f1061135e57610100808354040283529160200191611387565b820191905f5260205f20905b81548152906001019060200180831161136a57829003601f168201915b505050505081526020016002820180546113a090615ac3565b80601f01602080910402602001604051908101604052809291908181526020018280546113cc90615ac3565b80156114175780601f106113ee57610100808354040283529160200191611417565b820191905f5260205f20905b8154815290600101906020018083116113fa57829003601f168201915b5050505050815260200160038201805461143090615ac3565b80601f016020809104026020016040519081016040528092919081815260200182805461145c90615ac3565b80156114a75780601f1061147e576101008083540402835291602001916114a7565b820191905f5260205f20905b81548152906001019060200180831161148a57829003601f168201915b505050505081526020016004820180546114c090615ac3565b80601f01602080910402602001604051908101604052809291908181526020018280546114ec90615ac3565b80156115375780601f1061150e57610100808354040283529160200191611537565b820191905f5260205f20905b81548152906001019060200180831161151a57829003601f168201915b5050505050815260200160058201805461155090615ac3565b80601f016020809104026020016040519081016040528092919081815260200182805461157c90615ac3565b80156115c75780601f1061159e576101008083540402835291602001916115c7565b820191905f5260205f20905b8154815290600101906020018083116115aa57829003601f168201915b505050505081526020016006820180546115e090615ac3565b80601f016020809104026020016040519081016040528092919081815260200182805461160c90615ac3565b80156116575780601f1061162e57610100808354040283529160200191611657565b820191905f5260205f20905b81548152906001019060200180831161163a57829003601f168201915b5050505050815260200160078201805461167090615ac3565b80601f016020809104026020016040519081016040528092919081815260200182805461169c90615ac3565b80156116e75780601f106116be576101008083540402835291602001916116e7565b820191905f5260205f20905b8154815290600101906020018083116116ca57829003601f168201915b5050505050815260200160088201805461170090615ac3565b80601f016020809104026020016040519081016040528092919081815260200182805461172c90615ac3565b80156117775780601f1061174e57610100808354040283529160200191611777565b820191905f5260205f20905b81548152906001019060200180831161175a57829003601f168201915b5050505050815260200160098201805461179090615ac3565b80601f01602080910402602001604051908101604052809291908181526020018280546117bc90615ac3565b80156118075780601f106117de57610100808354040283529160200191611807565b820191905f5260205f20905b8154815290600101906020018083116117ea57829003601f168201915b505050505081525050613d89565b9050611822876001613eab565b8160ff161061216857600193507f9f3ad7e297074403ebbe6920fcfc9ead722b9cf562608507477325d0687d87be6004848154811061186357611863615b14565b905f5260205f2090600f02015f016004858154811061188457611884615b14565b905f5260205f2090600f0201600301600486815481106118a6576118a6615b14565b5f91825260209091206004600f90920201015460ff166118c785600a615bdf565b6040516118d79493929190615c7a565b60405180910390a15f600484815481106118f3576118f3615b14565b5f91825260209091206004600f9092020101546119139060ff1688615cf6565b90505f815f0b13156120e2576120c260058a6004878154811061193857611938615b14565b905f5260205f2090600f02015f016040518060800160405290815f8201805461196090615ac3565b80601f016020809104026020016040519081016040528092919081815260200182805461198c90615ac3565b80156119d75780601f106119ae576101008083540402835291602001916119d7565b820191905f5260205f20905b8154815290600101906020018083116119ba57829003601f168201915b5050509183525050600182015460ff8082166020840152610100909104166040820152600282018054606090920191611a0f90615ac3565b80601f0160208091040260200160405190810160405280929190818152602001828054611a3b90615ac3565b8015611a865780601f10611a5d57610100808354040283529160200191611a86565b820191905f5260205f20905b815481529060010190602001808311611a6957829003601f168201915b5050505050815250508b8b60048a81548110611aa457611aa4615b14565b905f5260205f2090600f02016004015f9054906101000a900460ff1660048b81548110611ad357611ad3615b14565b905f5260205f2090600f02016004015f9054906101000a900460ff168d60048d81548110611b0357611b03615b14565b905f5260205f2090600f0201600501604051806101400160405290815f82018054611b2d90615ac3565b80601f0160208091040260200160405190810160405280929190818152602001828054611b5990615ac3565b8015611ba45780601f10611b7b57610100808354040283529160200191611ba4565b820191905f5260205f20905b815481529060010190602001808311611b8757829003601f168201915b50505050508152602001600182018054611bbd90615ac3565b80601f0160208091040260200160405190810160405280929190818152602001828054611be990615ac3565b8015611c345780601f10611c0b57610100808354040283529160200191611c34565b820191905f5260205f20905b815481529060010190602001808311611c1757829003601f168201915b50505050508152602001600282018054611c4d90615ac3565b80601f0160208091040260200160405190810160405280929190818152602001828054611c7990615ac3565b8015611cc45780601f10611c9b57610100808354040283529160200191611cc4565b820191905f5260205f20905b815481529060010190602001808311611ca757829003601f168201915b50505050508152602001600382018054611cdd90615ac3565b80601f0160208091040260200160405190810160405280929190818152602001828054611d0990615ac3565b8015611d545780601f10611d2b57610100808354040283529160200191611d54565b820191905f5260205f20905b815481529060010190602001808311611d3757829003601f168201915b50505050508152602001600482018054611d6d90615ac3565b80601f0160208091040260200160405190810160405280929190818152602001828054611d9990615ac3565b8015611de45780601f10611dbb57610100808354040283529160200191611de4565b820191905f5260205f20905b815481529060010190602001808311611dc757829003601f168201915b50505050508152602001600582018054611dfd90615ac3565b80601f0160208091040260200160405190810160405280929190818152602001828054611e2990615ac3565b8015611e745780601f10611e4b57610100808354040283529160200191611e74565b820191905f5260205f20905b815481529060010190602001808311611e5757829003601f168201915b50505050508152602001600682018054611e8d90615ac3565b80601f0160208091040260200160405190810160405280929190818152602001828054611eb990615ac3565b8015611f045780601f10611edb57610100808354040283529160200191611f04565b820191905f5260205f20905b815481529060010190602001808311611ee757829003601f168201915b50505050508152602001600782018054611f1d90615ac3565b80601f0160208091040260200160405190810160405280929190818152602001828054611f4990615ac3565b8015611f945780601f10611f6b57610100808354040283529160200191611f94565b820191905f5260205f20905b815481529060010190602001808311611f7757829003601f168201915b50505050508152602001600882018054611fad90615ac3565b80601f0160208091040260200160405190810160405280929190818152602001828054611fd990615ac3565b80156120245780601f10611ffb57610100808354040283529160200191612024565b820191905f5260205f20905b81548152906001019060200180831161200757829003601f168201915b5050505050815260200160098201805461203d90615ac3565b80601f016020809104026020016040519081016040528092919081815260200182805461206990615ac3565b80156120b45780601f1061208b576101008083540402835291602001916120b4565b820191905f5260205f20905b81548152906001019060200180831161209757829003601f168201915b50505050508152505061404e565b6120d060038a8a848a614395565b6120db600485614542565b505061217c565b805f0b5f03612104576120d060058a6004878154811061193857611938615b14565b61211d60058a6004878154811061193857611938615b14565b612128815f19615d16565b6004858154811061213b5761213b615b14565b905f5260205f2090600f02016004015f6101000a81548160ff021916908360ff160217905550505061217c565b505b8061217481615d32565b9150506111c7565b505b600101611177565b508061219a5761219a600386868686614395565b5050505050565b6121ab6002613bcc565b60408085015181516101408101909252612236916006600a5f835b8282101561222957604080516101408101918290529085840190600a90825f855b825461010083900a900460ff168152602060019283018181049485019490930390920291018084116121e75790505050505050815260200190600101906121c6565b5050505060026001613c13565b5f805b600354811015612c875784805190602001206003828154811061225e5761225e615b14565b905f5260205f2090600f020160030160405161227a9190615b41565b604051809103902003612c7f575f5b60025460ff82161015612c7d5760028160ff16815481106122ac576122ac615b14565b905f5260205f2090602091828204019190069054906101000a900460ff1660ff16600383815481106122e0576122e0615b14565b5f9182526020909120600f9091020160010154610100900460ff1603612c6b575f612318856003858154811061125657611256615b14565b9050612325876001613eab565b8160ff1610612c6957600193507f9f3ad7e297074403ebbe6920fcfc9ead722b9cf562608507477325d0687d87be6003848154811061236657612366615b14565b905f5260205f2090600f02015f016003858154811061238757612387615b14565b905f5260205f2090600f0201600301600386815481106123a9576123a9615b14565b5f91825260209091206004600f90920201015460ff166123ca85600a615bdf565b6040516123da9493929190615c7a565b60405180910390a15f600384815481106123f6576123f6615b14565b5f91825260209091206004600f9092020101546124169060ff1688615cf6565b90505f815f0b1315612be557612bc560056003868154811061243a5761243a615b14565b905f5260205f2090600f02015f016040518060800160405290815f8201805461246290615ac3565b80601f016020809104026020016040519081016040528092919081815260200182805461248e90615ac3565b80156124d95780601f106124b0576101008083540402835291602001916124d9565b820191905f5260205f20905b8154815290600101906020018083116124bc57829003601f168201915b5050509183525050600182015460ff808216602084015261010090910416604082015260028201805460609092019161251190615ac3565b80601f016020809104026020016040519081016040528092919081815260200182805461253d90615ac3565b80156125885780601f1061255f57610100808354040283529160200191612588565b820191905f5260205f20905b81548152906001019060200180831161256b57829003601f168201915b5050505050815250508b8b600389815481106125a6576125a6615b14565b905f5260205f2090600f02016004015f9054906101000a900460ff168c60038b815481106125d6576125d6615b14565b905f5260205f2090600f02016004015f9054906101000a900460ff1660038c8154811061260557612605615b14565b905f5260205f2090600f0201600501604051806101400160405290815f8201805461262f90615ac3565b80601f016020809104026020016040519081016040528092919081815260200182805461265b90615ac3565b80156126a65780601f1061267d576101008083540402835291602001916126a6565b820191905f5260205f20905b81548152906001019060200180831161268957829003601f168201915b505050505081526020016001820180546126bf90615ac3565b80601f01602080910402602001604051908101604052809291908181526020018280546126eb90615ac3565b80156127365780601f1061270d57610100808354040283529160200191612736565b820191905f5260205f20905b81548152906001019060200180831161271957829003601f168201915b5050505050815260200160028201805461274f90615ac3565b80601f016020809104026020016040519081016040528092919081815260200182805461277b90615ac3565b80156127c65780601f1061279d576101008083540402835291602001916127c6565b820191905f5260205f20905b8154815290600101906020018083116127a957829003601f168201915b505050505081526020016003820180546127df90615ac3565b80601f016020809104026020016040519081016040528092919081815260200182805461280b90615ac3565b80156128565780601f1061282d57610100808354040283529160200191612856565b820191905f5260205f20905b81548152906001019060200180831161283957829003601f168201915b5050505050815260200160048201805461286f90615ac3565b80601f016020809104026020016040519081016040528092919081815260200182805461289b90615ac3565b80156128e65780601f106128bd576101008083540402835291602001916128e6565b820191905f5260205f20905b8154815290600101906020018083116128c957829003601f168201915b505050505081526020016005820180546128ff90615ac3565b80601f016020809104026020016040519081016040528092919081815260200182805461292b90615ac3565b80156129765780601f1061294d57610100808354040283529160200191612976565b820191905f5260205f20905b81548152906001019060200180831161295957829003601f168201915b5050505050815260200160068201805461298f90615ac3565b80601f01602080910402602001604051908101604052809291908181526020018280546129bb90615ac3565b8015612a065780601f106129dd57610100808354040283529160200191612a06565b820191905f5260205f20905b8154815290600101906020018083116129e957829003601f168201915b50505050508152602001600782018054612a1f90615ac3565b80601f0160208091040260200160405190810160405280929190818152602001828054612a4b90615ac3565b8015612a965780601f10612a6d57610100808354040283529160200191612a96565b820191905f5260205f20905b815481529060010190602001808311612a7957829003601f168201915b50505050508152602001600882018054612aaf90615ac3565b80601f0160208091040260200160405190810160405280929190818152602001828054612adb90615ac3565b8015612b265780601f10612afd57610100808354040283529160200191612b26565b820191905f5260205f20905b815481529060010190602001808311612b0957829003601f168201915b50505050508152602001600982018054612b3f90615ac3565b80601f0160208091040260200160405190810160405280929190818152602001828054612b6b90615ac3565b8015612bb65780601f10612b8d57610100808354040283529160200191612bb6565b820191905f5260205f20905b815481529060010190602001808311612b9957829003601f168201915b5050505050815250508e61404e565b612bd360048a8a848a614395565b612bde600385614542565b5050612c7d565b805f0b5f03612c0657612bd360056003868154811061243a5761243a615b14565b612c1e60056003868154811061243a5761243a615b14565b612c29815f19615d16565b60038581548110612c3c57612c3c615b14565b905f5260205f2090600f02016004015f6101000a81548160ff021916908360ff1602179055505050612c7d565b505b80612c7581615d32565b915050612289565b505b600101612239565b508061219a5761219a600486868686614395565b808214612ca6575f80fd5b5050565b60606005805480602002602001604051908101604052809291908181526020015f905b82821015613bc3575f84815260209020604080516101808101909152601c840290910180548290610100820190839082908290612d0990615ac3565b80601f0160208091040260200160405190810160405280929190818152602001828054612d3590615ac3565b8015612d805780601f10612d5757610100808354040283529160200191612d80565b820191905f5260205f20905b815481529060010190602001808311612d6357829003601f168201915b5050509183525050600182015460ff8082166020840152610100909104166040820152600282018054606090920191612db890615ac3565b80601f0160208091040260200160405190810160405280929190818152602001828054612de490615ac3565b8015612e2f5780601f10612e0657610100808354040283529160200191612e2f565b820191905f5260205f20905b815481529060010190602001808311612e1257829003601f168201915b5050505050815250508152602001600382016040518060800160405290815f82018054612e5b90615ac3565b80601f0160208091040260200160405190810160405280929190818152602001828054612e8790615ac3565b8015612ed25780601f10612ea957610100808354040283529160200191612ed2565b820191905f5260205f20905b815481529060010190602001808311612eb557829003601f168201915b5050509183525050600182015460ff8082166020840152610100909104166040820152600282018054606090920191612f0a90615ac3565b80601f0160208091040260200160405190810160405280929190818152602001828054612f3690615ac3565b8015612f815780601f10612f5857610100808354040283529160200191612f81565b820191905f5260205f20905b815481529060010190602001808311612f6457829003601f168201915b5050505050815250508152602001600682018054612f9e90615ac3565b80601f0160208091040260200160405190810160405280929190818152602001828054612fca90615ac3565b80156130155780601f10612fec57610100808354040283529160200191613015565b820191905f5260205f20905b815481529060010190602001808311612ff857829003601f168201915b5050509183525050600782015460ff80821660208401526101008204811660408085019190915262010000909204166060830152805161014081019091526008830180546080909301928290829061306c90615ac3565b80601f016020809104026020016040519081016040528092919081815260200182805461309890615ac3565b80156130e35780601f106130ba576101008083540402835291602001916130e3565b820191905f5260205f20905b8154815290600101906020018083116130c657829003601f168201915b505050505081526020016001820180546130fc90615ac3565b80601f016020809104026020016040519081016040528092919081815260200182805461312890615ac3565b80156131735780601f1061314a57610100808354040283529160200191613173565b820191905f5260205f20905b81548152906001019060200180831161315657829003601f168201915b5050505050815260200160028201805461318c90615ac3565b80601f01602080910402602001604051908101604052809291908181526020018280546131b890615ac3565b80156132035780601f106131da57610100808354040283529160200191613203565b820191905f5260205f20905b8154815290600101906020018083116131e657829003601f168201915b5050505050815260200160038201805461321c90615ac3565b80601f016020809104026020016040519081016040528092919081815260200182805461324890615ac3565b80156132935780601f1061326a57610100808354040283529160200191613293565b820191905f5260205f20905b81548152906001019060200180831161327657829003601f168201915b505050505081526020016004820180546132ac90615ac3565b80601f01602080910402602001604051908101604052809291908181526020018280546132d890615ac3565b80156133235780601f106132fa57610100808354040283529160200191613323565b820191905f5260205f20905b81548152906001019060200180831161330657829003601f168201915b5050505050815260200160058201805461333c90615ac3565b80601f016020809104026020016040519081016040528092919081815260200182805461336890615ac3565b80156133b35780601f1061338a576101008083540402835291602001916133b3565b820191905f5260205f20905b81548152906001019060200180831161339657829003601f168201915b505050505081526020016006820180546133cc90615ac3565b80601f01602080910402602001604051908101604052809291908181526020018280546133f890615ac3565b80156134435780601f1061341a57610100808354040283529160200191613443565b820191905f5260205f20905b81548152906001019060200180831161342657829003601f168201915b5050505050815260200160078201805461345c90615ac3565b80601f016020809104026020016040519081016040528092919081815260200182805461348890615ac3565b80156134d35780601f106134aa576101008083540402835291602001916134d3565b820191905f5260205f20905b8154815290600101906020018083116134b657829003601f168201915b505050505081526020016008820180546134ec90615ac3565b80601f016020809104026020016040519081016040528092919081815260200182805461351890615ac3565b80156135635780601f1061353a57610100808354040283529160200191613563565b820191905f5260205f20905b81548152906001019060200180831161354657829003601f168201915b5050505050815260200160098201805461357c90615ac3565b80601f01602080910402602001604051908101604052809291908181526020018280546135a890615ac3565b80156135f35780601f106135ca576101008083540402835291602001916135f3565b820191905f5260205f20905b8154815290600101906020018083116135d657829003601f168201915b505050505081525050815260200160128201604051806101400160405290815f8201805461362090615ac3565b80601f016020809104026020016040519081016040528092919081815260200182805461364c90615ac3565b80156136975780601f1061366e57610100808354040283529160200191613697565b820191905f5260205f20905b81548152906001019060200180831161367a57829003601f168201915b505050505081526020016001820180546136b090615ac3565b80601f01602080910402602001604051908101604052809291908181526020018280546136dc90615ac3565b80156137275780601f106136fe57610100808354040283529160200191613727565b820191905f5260205f20905b81548152906001019060200180831161370a57829003601f168201915b5050505050815260200160028201805461374090615ac3565b80601f016020809104026020016040519081016040528092919081815260200182805461376c90615ac3565b80156137b75780601f1061378e576101008083540402835291602001916137b7565b820191905f5260205f20905b81548152906001019060200180831161379a57829003601f168201915b505050505081526020016003820180546137d090615ac3565b80601f01602080910402602001604051908101604052809291908181526020018280546137fc90615ac3565b80156138475780601f1061381e57610100808354040283529160200191613847565b820191905f5260205f20905b81548152906001019060200180831161382a57829003601f168201915b5050505050815260200160048201805461386090615ac3565b80601f016020809104026020016040519081016040528092919081815260200182805461388c90615ac3565b80156138d75780601f106138ae576101008083540402835291602001916138d7565b820191905f5260205f20905b8154815290600101906020018083116138ba57829003601f168201915b505050505081526020016005820180546138f090615ac3565b80601f016020809104026020016040519081016040528092919081815260200182805461391c90615ac3565b80156139675780601f1061393e57610100808354040283529160200191613967565b820191905f5260205f20905b81548152906001019060200180831161394a57829003601f168201915b5050505050815260200160068201805461398090615ac3565b80601f01602080910402602001604051908101604052809291908181526020018280546139ac90615ac3565b80156139f75780601f106139ce576101008083540402835291602001916139f7565b820191905f5260205f20905b8154815290600101906020018083116139da57829003601f168201915b50505050508152602001600782018054613a1090615ac3565b80601f0160208091040260200160405190810160405280929190818152602001828054613a3c90615ac3565b8015613a875780601f10613a5e57610100808354040283529160200191613a87565b820191905f5260205f20905b815481529060010190602001808311613a6a57829003601f168201915b50505050508152602001600882018054613aa090615ac3565b80601f0160208091040260200160405190810160405280929190818152602001828054613acc90615ac3565b8015613b175780601f10613aee57610100808354040283529160200191613b17565b820191905f5260205f20905b815481529060010190602001808311613afa57829003601f168201915b50505050508152602001600982018054613b3090615ac3565b80601f0160208091040260200160405190810160405280929190818152602001828054613b5c90615ac3565b8015613ba75780601f10613b7e57610100808354040283529160200191613ba7565b820191905f5260205f20905b815481529060010190602001808311613b8a57829003601f168201915b5050505050815250508152505081526020019060010190612ccd565b50505050905090565b805415613c105780805480613be357613be3615d50565b600190038181905f5260205f2090602091828204019190066101000a81549060ff02191690559055613bcc565b50565b8360ff1660081480613c2857508360ff166009145b15613c655781546001810183555f83815260209081902090820401805460ff808816601f9094166101000a93840293021916919091179055613d83565b8060ff165f03613cfc575f5b60088160ff161015613cf657838160ff16600a8110613c9257613c92615b14565b60200201518560ff16600a8110613cab57613cab615b14565b602002015160ff16600103613cee5782546001810184555f84815260209081902090820401805460ff808516601f9094166101000a938402930219169190911790555b600101613c71565b50613d83565b5f5b60088160ff16101561219a57838560ff16600a8110613d1f57613d1f615b14565b60200201518160ff16600a8110613d3857613d38615b14565b602002015160ff16600103613d7b5782546001810184555f84815260209081902090820401805460ff808516601f9094166101000a938402930219169190911790555b600101613cfe565b50505050565b5f613d9e836101200151836101200151615139565b613db2846101000151846101000151615139565b613dc48560e001518560e00151615139565b613dd68660c001518660c00151615139565b613de88760a001518760a00151615139565b613dfa88608001518860800151615139565b613e0c89606001518960600151615139565b613e1e8a604001518a60400151615139565b613e308b602001518b60200151615139565b8b518b51613e3e9190615139565b613e48905f615d7d565b613e529190615d7d565b613e5c9190615d7d565b613e669190615d7d565b613e709190615d7d565b613e7a9190615d7d565b613e849190615d7d565b613e8e9190615d7d565b613e989190615d7d565b613ea29190615d7d565b90505b92915050565b6040805160a0810182526009815260076020820152600591810191909152600260608201525f6080820181905290815b6005811015614046575f845f848460058110613ef957613ef9615b14565b602002015160ff1660ff1681526020019081526020015f20805480602002602001604051908101604052809291908181526020015f905b82821015613fd8578382905f5260205f20018054613f4d90615ac3565b80601f0160208091040260200160405190810160405280929190818152602001828054613f7990615ac3565b8015613fc45780601f10613f9b57610100808354040283529160200191613fc4565b820191905f5260205f20905b815481529060010190602001808311613fa757829003601f168201915b505050505081526020019060010190613f30565b5050505090505f5b815181101561403c57868051906020012082828151811061400357614003615b14565b602002602001015180519060200120036140345783836005811061402957614029615b14565b602002015160ff1694505b600101613fe0565b5050600101613edb565b505092915050565b604080516101008101825289815260208082018a905291810188905260ff80881660608301528681166080830152851660a082015260c0810184905260e081018390528a54600181018c555f8c8152929092208151805192938493601c90910290920191829081906140c09082615ddf565b506020820151600182018054604085015160ff9081166101000261ffff19909216931692909217919091179055606082015160028201906141019082615ddf565b505050602082015180516003830190819061411c9082615ddf565b506020820151600182018054604085015160ff9081166101000261ffff199092169316929092179190911790556060820151600282019061415d9082615ddf565b505050604082015160068201906141749082615ddf565b506060820151600782018054608085015160a086015160ff90811662010000027fffffffffffffffffffffffffffffffffffffffffffffffffffffffffff00ffff9282166101000261ffff199094169190951617919091171691909117905560c08201518051600883019081906141eb9082615ddf565b50602082015160018201906142009082615ddf565b50604082015160028201906142159082615ddf565b506060820151600382019061422a9082615ddf565b506080820151600482019061423f9082615ddf565b5060a082015160058201906142549082615ddf565b5060c082015160068201906142699082615ddf565b5060e0820151600782019061427e9082615ddf565b5061010082015160088201906142949082615ddf565b5061012082015160098201906142aa9082615ddf565b50505060e08201518051601283019081906142c59082615ddf565b50602082015160018201906142da9082615ddf565b50604082015160028201906142ef9082615ddf565b50606082015160038201906143049082615ddf565b50608082015160048201906143199082615ddf565b5060a0820151600582019061432e9082615ddf565b5060c082015160068201906143439082615ddf565b5060e082015160078201906143589082615ddf565b50610100820151600882019061436e9082615ddf565b5061012082015160098201906143849082615ddf565b505050505050505050505050505050565b60408051608081018252858152602080820186905260ff8516928201929092526060810183905286546001810188555f888152929092208151805192938493600f90910290920191829081906143eb9082615ddf565b506020820151600182018054604085015160ff9081166101000261ffff199092169316929092179190911790556060820151600282019061442c9082615ddf565b505050602082015160038201906144439082615ddf565b50604082015160048201805460ff191660ff90921691909117905560608201518051600583019081906144769082615ddf565b506020820151600182019061448b9082615ddf565b50604082015160028201906144a09082615ddf565b50606082015160038201906144b59082615ddf565b50608082015160048201906144ca9082615ddf565b5060a082015160058201906144df9082615ddf565b5060c082015160068201906144f49082615ddf565b5060e082015160078201906145099082615ddf565b50610100820151600882019061451f9082615ddf565b5061012082015160098201906145359082615ddf565b5050505050505050505050565b5f82828154811061455557614555615b14565b905f5260205f2090600f02016040518060800160405290815f82016040518060800160405290815f8201805461458a90615ac3565b80601f01602080910402602001604051908101604052809291908181526020018280546145b690615ac3565b80156146015780601f106145d857610100808354040283529160200191614601565b820191905f5260205f20905b8154815290600101906020018083116145e457829003601f168201915b5050509183525050600182015460ff808216602084015261010090910416604082015260028201805460609092019161463990615ac3565b80601f016020809104026020016040519081016040528092919081815260200182805461466590615ac3565b80156146b05780601f10614687576101008083540402835291602001916146b0565b820191905f5260205f20905b81548152906001019060200180831161469357829003601f168201915b50505050508152505081526020016003820180546146cd90615ac3565b80601f01602080910402602001604051908101604052809291908181526020018280546146f990615ac3565b80156147445780601f1061471b57610100808354040283529160200191614744565b820191905f5260205f20905b81548152906001019060200180831161472757829003601f168201915b5050509183525050600482015460ff1660208201526040805161014081018252600584018054929093019290918290829061477e90615ac3565b80601f01602080910402602001604051908101604052809291908181526020018280546147aa90615ac3565b80156147f55780601f106147cc576101008083540402835291602001916147f5565b820191905f5260205f20905b8154815290600101906020018083116147d857829003601f168201915b5050505050815260200160018201805461480e90615ac3565b80601f016020809104026020016040519081016040528092919081815260200182805461483a90615ac3565b80156148855780601f1061485c57610100808354040283529160200191614885565b820191905f5260205f20905b81548152906001019060200180831161486857829003601f168201915b5050505050815260200160028201805461489e90615ac3565b80601f01602080910402602001604051908101604052809291908181526020018280546148ca90615ac3565b80156149155780601f106148ec57610100808354040283529160200191614915565b820191905f5260205f20905b8154815290600101906020018083116148f857829003601f168201915b5050505050815260200160038201805461492e90615ac3565b80601f016020809104026020016040519081016040528092919081815260200182805461495a90615ac3565b80156149a55780601f1061497c576101008083540402835291602001916149a5565b820191905f5260205f20905b81548152906001019060200180831161498857829003601f168201915b505050505081526020016004820180546149be90615ac3565b80601f01602080910402602001604051908101604052809291908181526020018280546149ea90615ac3565b8015614a355780601f10614a0c57610100808354040283529160200191614a35565b820191905f5260205f20905b815481529060010190602001808311614a1857829003601f168201915b50505050508152602001600582018054614a4e90615ac3565b80601f0160208091040260200160405190810160405280929190818152602001828054614a7a90615ac3565b8015614ac55780601f10614a9c57610100808354040283529160200191614ac5565b820191905f5260205f20905b815481529060010190602001808311614aa857829003601f168201915b50505050508152602001600682018054614ade90615ac3565b80601f0160208091040260200160405190810160405280929190818152602001828054614b0a90615ac3565b8015614b555780601f10614b2c57610100808354040283529160200191614b55565b820191905f5260205f20905b815481529060010190602001808311614b3857829003601f168201915b50505050508152602001600782018054614b6e90615ac3565b80601f0160208091040260200160405190810160405280929190818152602001828054614b9a90615ac3565b8015614be55780601f10614bbc57610100808354040283529160200191614be5565b820191905f5260205f20905b815481529060010190602001808311614bc857829003601f168201915b50505050508152602001600882018054614bfe90615ac3565b80601f0160208091040260200160405190810160405280929190818152602001828054614c2a90615ac3565b8015614c755780601f10614c4c57610100808354040283529160200191614c75565b820191905f5260205f20905b815481529060010190602001808311614c5857829003601f168201915b50505050508152602001600982018054614c8e90615ac3565b80601f0160208091040260200160405190810160405280929190818152602001828054614cba90615ac3565b8015614d055780601f10614cdc57610100808354040283529160200191614d05565b820191905f5260205f20905b815481529060010190602001808311614ce857829003601f168201915b5050509190925250505090525083549091508390614d2590600190615e9d565b81548110614d3557614d35615b14565b905f5260205f2090600f0201838381548110614d5357614d53615b14565b5f9182526020909120600f90910201818180614d6f8382615eb0565b5060018281018054918301805460ff93841660ff19821681178355925461ffff1990911690921761010092839004909316909102919091179055600280820190614dbb90840182615eb0565b505050600381810190614dd090840182615eb0565b50600482810154908201805460ff191660ff909216919091179055600580830190820180614dfe8382615eb0565b50600181810190614e1190840182615eb0565b50600281810190614e2490840182615eb0565b50600381810190614e3790840182615eb0565b50600481810190614e4a90840182615eb0565b50600581810190614e5d90840182615eb0565b50600681810190614e7090840182615eb0565b50600781810190614e8390840182615eb0565b50600881810190614e9690840182615eb0565b50600981810190614ea990840182615eb0565b50508554849350869250614ec09150600190615e9d565b81548110614ed057614ed0615b14565b5f918252602090912082518051600f9093029091019182908190614ef49082615ddf565b506020820151600182018054604085015160ff9081166101000261ffff1990921693169290921791909117905560608201516002820190614f359082615ddf565b50505060208201516003820190614f4c9082615ddf565b50604082015160048201805460ff191660ff9092169190911790556060820151805160058301908190614f7f9082615ddf565b5060208201516001820190614f949082615ddf565b5060408201516002820190614fa99082615ddf565b5060608201516003820190614fbe9082615ddf565b5060808201516004820190614fd39082615ddf565b5060a08201516005820190614fe89082615ddf565b5060c08201516006820190614ffd9082615ddf565b5060e082015160078201906150129082615ddf565b5061010082015160088201906150289082615ddf565b50610120820151600982019061503e9082615ddf565b5050509050508280548061505457615054615d50565b5f828152602081205f1990920191600f83020190818161507482826153c3565b60018201805461ffff1916905561508e600283015f6153c3565b5061509e9050600383015f6153c3565b60048201805460ff19169055600582015f6150b982826153c3565b6150c6600183015f6153c3565b6150d3600283015f6153c3565b6150e0600383015f6153c3565b6150ed600483015f6153c3565b6150fa600583015f6153c3565b615107600683015f6153c3565b615114600783015f6153c3565b615121600883015f6153c3565b61512e600983015f6153c3565b505050509055505050565b5f60308260018151811061514f5761514f615b14565b0160200151615161919060f81c615f7d565b6030835f8151811061517557615175615b14565b0160200151615187919060f81c615f7d565b61519290600a615bdf565b61519c9190615d7d565b60ff166030846001815181106151b4576151b4615b14565b01602001516151c6919060f81c615f7d565b6030855f815181106151da576151da615b14565b01602001516151ec919060f81c615f7d565b6151f790600a615bdf565b6152019190615d7d565b60ff161480156152da575060308260048151811061522157615221615b14565b0160200151615233919060f81c615f7d565b60308360038151811061524857615248615b14565b016020015161525a919060f81c615f7d565b61526590600a615bdf565b61526f9190615d7d565b60ff1660308460048151811061528757615287615b14565b0160200151615299919060f81c615f7d565b6030856003815181106152ae576152ae615b14565b01602001516152c0919060f81c615f7d565b6152cb90600a615bdf565b6152d59190615d7d565b60ff16145b80156153af57506030826007815181106152f6576152f6615b14565b0160200151615308919060f81c615f7d565b60308360068151811061531d5761531d615b14565b016020015161532f919060f81c615f7d565b61533a90600a615bdf565b6153449190615d7d565b60ff1660308460078151811061535c5761535c615b14565b016020015161536e919060f81c615f7d565b60308560068151811061538357615383615b14565b0160200151615395919060f81c615f7d565b6153a090600a615bdf565b6153aa9190615d7d565b60ff16145b156153bc57506001613ea5565b505f613ea5565b5080546153cf90615ac3565b5f825580601f106153de575050565b601f0160209004905f5260205f2090810190613c1091905b80821115615409575f81556001016153f6565b5090565b7f4e487b71000000000000000000000000000000000000000000000000000000005f52604160045260245ffd5b604051610140810167ffffffffffffffff8111828210171561545e5761545e61540d565b60405290565b6040516080810167ffffffffffffffff8111828210171561545e5761545e61540d565b5f82601f830112615496575f80fd5b813567ffffffffffffffff8111156154b0576154b061540d565b604051601f8201601f19908116603f0116810167ffffffffffffffff811182821017156154df576154df61540d565b6040528181528382016020018510156154f6575f80fd5b816020850160208301375f918101602001919091529392505050565b803560ff81168114615522575f80fd5b919050565b5f8060408385031215615538575f80fd5b823567ffffffffffffffff81111561554e575f80fd5b61555a85828601615487565b92505061556960208401615512565b90509250929050565b5f81518084528060208401602086015e5f602082860101526020601f19601f83011685010191505092915050565b5f815161014084526155b6610140850182615572565b9050602083015184820360208601526155cf8282615572565b915050604083015184820360408601526155e98282615572565b915050606083015184820360608601526156038282615572565b9150506080830151848203608086015261561d8282615572565b91505060a083015184820360a08601526156378282615572565b91505060c083015184820360c08601526156518282615572565b91505060e083015184820360e086015261566b8282615572565b9150506101008301518482036101008601526156878282615572565b9150506101208301518482036101208601526156a38282615572565b95945050505050565b5f602082016020835280845180835260408501915060408160051b8601019250602086015f5b828110156157ba577fffffffffffffffffffffffffffffffffffffffffffffffffffffffffffffffc08786030184528151805160808752805160808089015261571f610100890182615572565b905060ff60208301511660a089015260ff60408301511660c089015260608201519150607f198882030160e08901526157588183615572565b915050602082015187820360208901526157728282615572565b9150506040820151615789604089018260ff169052565b506060820151915086810360608801526157a381836155a0565b9650505060209384019391909101906001016156d2565b50929695505050505050565b5f61014082840312156157d7575f80fd5b6157df61543a565b9050813567ffffffffffffffff8111156157f7575f80fd5b61580384828501615487565b825250602082013567ffffffffffffffff81111561581f575f80fd5b61582b84828501615487565b602083015250604082013567ffffffffffffffff81111561584a575f80fd5b61585684828501615487565b604083015250606082013567ffffffffffffffff811115615875575f80fd5b61588184828501615487565b606083015250608082013567ffffffffffffffff8111156158a0575f80fd5b6158ac84828501615487565b60808301525060a082013567ffffffffffffffff8111156158cb575f80fd5b6158d784828501615487565b60a08301525060c082013567ffffffffffffffff8111156158f6575f80fd5b61590284828501615487565b60c08301525060e082013567ffffffffffffffff811115615921575f80fd5b61592d84828501615487565b60e08301525061010082013567ffffffffffffffff81111561594d575f80fd5b61595984828501615487565b6101008301525061012082013567ffffffffffffffff81111561597a575f80fd5b61598684828501615487565b6101208301525092915050565b5f805f80608085870312156159a6575f80fd5b843567ffffffffffffffff8111156159bc575f80fd5b8501608081880312156159cd575f80fd5b6159d5615464565b813567ffffffffffffffff8111156159eb575f80fd5b6159f789828501615487565b825250615a0660208301615512565b6020820152615a1760408301615512565b6040820152606082013567ffffffffffffffff811115615a35575f80fd5b615a4189828501615487565b606083015250945050602085013567ffffffffffffffff811115615a63575f80fd5b615a6f87828801615487565b935050615a7e60408601615512565b9150606085013567ffffffffffffffff811115615a99575f80fd5b615aa5878288016157c6565b91505092959194509250565b602081525f613ea26020830184615572565b600181811c90821680615ad757607f821691505b602082108103615b0e577f4e487b71000000000000000000000000000000000000000000000000000000005f52602260045260245ffd5b50919050565b7f4e487b71000000000000000000000000000000000000000000000000000000005f52603260045260245ffd5b5f808354615b4e81615ac3565b600182168015615b655760018114615b7a57615ba7565b60ff1983168652811515820286019350615ba7565b865f5260205f205f5b83811015615b9f57815488820152600190910190602001615b83565b505081860193505b509195945050505050565b7f4e487b71000000000000000000000000000000000000000000000000000000005f52601160045260245ffd5b60ff81811683821602908116908181146110d9576110d9615bb2565b5f8154615c0781615ac3565b808552600182168015615c215760018114615c3d57615c71565b60ff1983166020870152602082151560051b8701019350615c71565b845f5260205f205f5b83811015615c685781546020828a010152600182019150602081019050615c46565b87016020019450505b50505092915050565b608081526080808201525f615c93610100830187615bfb565b600187015460ff811660a085015260ff8160081c1660c085015250607f198382030160e0840152615cc78160028901615bfb565b90508281036020840152615cdb8187615bfb565b91505060ff841660408301526156a3606083018460ff169052565b5f82810b9082900b03607f198112607f82131715613ea557613ea5615bb2565b5f825f0b825f0b02805f0b91508082146110d9576110d9615bb2565b5f60ff821660ff8103615d4757615d47615bb2565b60010192915050565b7f4e487b71000000000000000000000000000000000000000000000000000000005f52603160045260245ffd5b60ff8181168382160190811115613ea557613ea5615bb2565b601f821115615dda57805f5260205f20601f840160051c81016020851015615dbb5750805b601f840160051c820191505b8181101561219a575f8155600101615dc7565b505050565b815167ffffffffffffffff811115615df957615df961540d565b615e0d81615e078454615ac3565b84615d96565b6020601f821160018114615e42575f8315615e285750848201515b600184901b5f19600386901b1c198216175b85555061219a565b5f84815260208120601f198516915b82811015615e715787850151825560209485019460019092019101615e51565b5084821015615e8e57868401515f19600387901b60f8161c191681555b50505050600190811b01905550565b81810381811115613ea557613ea5615bb2565b818103615ebb575050565b615ec58254615ac3565b67ffffffffffffffff811115615edd57615edd61540d565b615eeb81615e078454615ac3565b5f601f821160018114615f1a575f8315615e28575081850154600184901b5f19600386901b1c19821617615e3a565b5f8581526020808220868352908220601f198616925b83811015615f505782860154825560019586019590910190602001615f30565b5085831015615f6d57818501545f19600388901b60f8161c191681555b5050505050600190811b01905550565b60ff8281168282160390811115613ea557613ea5615bb256fea26469706673582212205c57270a50841c31d59cd1f887e643824433ce10c26aac16d8cc33c86d4d9dce64736f6c634300081a0033",
			"opcodes": "PUSH1 0x1 PUSH2 0x1C0 DUP2 DUP2 MSTORE PUSH2 0x1E0 DUP3 SWAP1 MSTORE PUSH0 PUSH2 0x200 DUP2 SWAP1 MSTORE PUSH2 0x220 DUP2 SWAP1 MSTORE PUSH2 0x240 DUP2 SWAP1 MSTORE PUSH2 0x260 DUP2 SWAP1 MSTORE PUSH2 0x280 DUP4 SWAP1 MSTORE PUSH2 0x2A0 DUP4 SWAP1 MSTORE PUSH2 0x2C0 DUP2 SWAP1 MSTORE PUSH2 0x2E0 DUP2 SWAP1 MSTORE PUSH1 0x80 SWAP2 DUP3 MSTORE PUSH2 0x300 DUP2 DUP2 MSTORE PUSH2 0x320 DUP5 SWAP1 MSTORE PUSH2 0x340 DUP3 SWAP1 MSTORE PUSH2 0x360 DUP3 SWAP1 MSTORE PUSH2 0x380 DUP3 SWAP1 MSTORE PUSH2 0x3A0 DUP3 SWAP1 MSTORE PUSH2 0x3C0 DUP3 SWAP1 MSTORE PUSH2 0x3E0 DUP5 SWAP1 MSTORE PUSH2 0x400 DUP3 SWAP1 MSTORE PUSH2 0x420 DUP3 SWAP1 MSTORE PUSH1 0xA0 MSTORE PUSH2 0x440 DUP2 DUP2 MSTORE PUSH2 0x460 DUP3 SWAP1 MSTORE PUSH2 0x480 DUP5 SWAP1 MSTORE PUSH2 0x4A0 DUP5 SWAP1 MSTORE PUSH2 0x4C0 DUP3 SWAP1 MSTORE PUSH2 0x4E0 DUP3 SWAP1 MSTORE PUSH2 0x500 DUP5 SWAP1 MSTORE PUSH2 0x520 DUP5 SWAP1 MSTORE PUSH2 0x540 DUP3 SWAP1 MSTORE PUSH2 0x560 DUP3 SWAP1 MSTORE PUSH1 0xC0 MSTORE PUSH2 0x580 DUP2 DUP2 MSTORE PUSH2 0x5A0 DUP3 SWAP1 MSTORE PUSH2 0x5C0 DUP3 SWAP1 MSTORE PUSH2 0x5E0 DUP5 SWAP1 MSTORE PUSH2 0x600 DUP3 SWAP1 MSTORE PUSH2 0x620 DUP3 SWAP1 MSTORE PUSH2 0x640 DUP3 SWAP1 MSTORE PUSH2 0x660 DUP5 SWAP1 MSTORE PUSH2 0x680 DUP3 SWAP1 MSTORE PUSH2 0x6A0 DUP3 SWAP1 MSTORE PUSH1 0xE0 MSTORE PUSH2 0x6C0 DUP4 DUP2 MSTORE PUSH2 0x6E0 DUP5 SWAP1 MSTORE PUSH2 0x700 DUP5 SWAP1 MSTORE PUSH2 0x720 DUP5 SWAP1 MSTORE PUSH2 0x740 DUP5 SWAP1 MSTORE PUSH2 0x760 DUP5 SWAP1 MSTORE PUSH2 0x780 DUP5 SWAP1 MSTORE PUSH2 0x7A0 DUP5 SWAP1 MSTORE PUSH2 0x7C0 DUP3 SWAP1 MSTORE PUSH2 0x7E0 DUP3 SWAP1 MSTORE PUSH2 0x100 MSTORE PUSH2 0x800 DUP2 DUP2 MSTORE PUSH2 0x820 DUP5 SWAP1 MSTORE PUSH2 0x840 DUP3 SWAP1 MSTORE PUSH2 0x860 DUP5 SWAP1 MSTORE PUSH2 0x880 DUP3 SWAP1 MSTORE PUSH2 0x8A0 DUP5 SWAP1 MSTORE PUSH2 0x8C0 DUP3 SWAP1 MSTORE PUSH2 0x8E0 DUP5 SWAP1 MSTORE PUSH2 0x900 DUP3 SWAP1 MSTORE PUSH2 0x920 DUP3 SWAP1 MSTORE PUSH2 0x120 MSTORE PUSH2 0x940 DUP2 DUP2 MSTORE PUSH2 0x960 DUP3 SWAP1 MSTORE PUSH2 0x980 DUP3 SWAP1 MSTORE PUSH2 0x9A0 DUP3 SWAP1 MSTORE PUSH2 0x9C0 DUP3 SWAP1 MSTORE PUSH2 0x9E0 DUP3 SWAP1 MSTORE PUSH2 0xA00 DUP5 SWAP1 MSTORE PUSH2 0xA20 DUP5 SWAP1 MSTORE PUSH2 0xA40 DUP3 SWAP1 MSTORE PUSH2 0xA60 DUP3 SWAP1 MSTORE PUSH2 0x140 MSTORE PUSH2 0xA80 DUP2 DUP2 MSTORE PUSH2 0xAA0 DUP3 SWAP1 MSTORE PUSH2 0xAC0 DUP3 SWAP1 MSTORE PUSH2 0xAE0 DUP3 SWAP1 MSTORE PUSH2 0xB00 DUP3 SWAP1 MSTORE PUSH2 0xB20 DUP3 SWAP1 MSTORE PUSH2 0xB40 DUP3 SWAP1 MSTORE PUSH2 0xB60 DUP5 SWAP1 MSTORE PUSH2 0xB80 DUP3 SWAP1 MSTORE PUSH2 0xBA0 DUP3 SWAP1 MSTORE PUSH2 0x160 MSTORE PUSH2 0xBC0 DUP2 DUP2 MSTORE PUSH2 0xBE0 DUP3 SWAP1 MSTORE PUSH2 0xC00 DUP3 SWAP1 MSTORE PUSH2 0xC20 DUP3 SWAP1 MSTORE PUSH2 0xC40 DUP3 SWAP1 MSTORE PUSH2 0xC60 DUP3 SWAP1 MSTORE PUSH2 0xC80 DUP3 SWAP1 MSTORE PUSH2 0xCA0 DUP3 SWAP1 MSTORE PUSH2 0xCC0 DUP5 SWAP1 MSTORE PUSH2 0xCE0 DUP3 SWAP1 MSTORE PUSH2 0x180 MSTORE PUSH2 0xE40 PUSH1 0x40 MSTORE PUSH2 0xD00 DUP2 DUP2 MSTORE PUSH2 0xD20 DUP3 SWAP1 MSTORE PUSH2 0xD40 DUP3 SWAP1 MSTORE PUSH2 0xD60 DUP3 SWAP1 MSTORE PUSH2 0xD80 DUP3 SWAP1 MSTORE PUSH2 0xDA0 DUP3 SWAP1 MSTORE PUSH2 0xDC0 DUP3 SWAP1 MSTORE PUSH2 0xDE0 DUP3 SWAP1 MSTORE PUSH2 0xE00 SWAP2 SWAP1 SWAP2 MSTORE PUSH2 0xE20 SWAP3 SWAP1 SWAP3 MSTORE PUSH2 0x1A0 SWAP2 SWAP1 SWAP2 MSTORE PUSH2 0x299 SWAP1 PUSH1 0x6 SWAP1 PUSH1 0xA PUSH2 0x90C JUMP JUMPDEST POP PUSH1 0x40 MLOAD PUSH2 0x6D8A CODESIZE SUB DUP1 PUSH2 0x6D8A DUP4 CODECOPY DUP2 ADD PUSH1 0x40 DUP2 SWAP1 MSTORE PUSH2 0x2B8 SWAP2 PUSH2 0xB8E JUMP JUMPDEST DUP1 PUSH1 0x40 MLOAD PUSH1 0x20 ADD PUSH2 0x2C9 SWAP2 SWAP1 PUSH2 0xC3E JUMP JUMPDEST PUSH1 0x40 DUP1 MLOAD PUSH1 0x1F NOT DUP2 DUP5 SUB ADD DUP2 MSTORE DUP3 DUP3 MSTORE DUP1 MLOAD PUSH1 0x20 SWAP2 DUP3 ADD KECCAK256 PUSH0 SWAP1 DUP2 SSTORE PUSH1 0x80 DUP5 ADD DUP4 MSTORE PUSH1 0xF DUP5 DUP5 ADD SWAP1 DUP2 MSTORE PUSH15 0x189B1BDBD9081CDD195B4818D95B1B PUSH1 0x8A SHL PUSH1 0x60 DUP7 ADD MSTORE DUP5 MSTORE DUP3 MLOAD DUP1 DUP5 ADD SWAP1 SWAP4 MSTORE PUSH1 0xB DUP4 MSTORE PUSH11 0x626F6E65206D6172726F77 PUSH1 0xA8 SHL DUP4 DUP4 ADD MSTORE DUP4 DUP3 ADD SWAP3 SWAP1 SWAP3 MSTORE PUSH1 0x9 SWAP1 SWAP2 MSTORE PUSH1 0x1 SWAP1 MSTORE PUSH2 0x369 SWAP1 PUSH32 0x74A5FBCB419AB7DBACBB2C92A4E163730F0DA5C72B911DEECF4F05A6B327D0A4 SWAP1 PUSH1 0x2 PUSH2 0x956 JUMP JUMPDEST POP PUSH1 0x40 DUP1 MLOAD PUSH2 0x140 DUP2 ADD DUP3 MSTORE PUSH1 0x3 PUSH2 0x100 DUP3 ADD DUP2 DUP2 MSTORE PUSH3 0x61726D PUSH1 0xE8 SHL PUSH2 0x120 DUP5 ADD MSTORE DUP3 MSTORE DUP3 MLOAD DUP1 DUP5 ADD DUP5 MSTORE DUP2 DUP2 MSTORE PUSH3 0x657965 PUSH1 0xE8 SHL PUSH1 0x20 DUP3 DUP2 ADD SWAP2 SWAP1 SWAP2 MSTORE DUP1 DUP5 ADD SWAP2 SWAP1 SWAP2 MSTORE DUP4 MLOAD DUP1 DUP6 ADD DUP6 MSTORE PUSH1 0x4 DUP1 DUP3 MSTORE PUSH4 0x66616365 PUSH1 0xE0 SHL DUP3 DUP5 ADD MSTORE DUP5 DUP7 ADD SWAP2 SWAP1 SWAP2 MSTORE DUP5 MLOAD DUP1 DUP7 ADD DUP7 MSTORE SWAP1 DUP2 MSTORE PUSH4 0x1A185B99 PUSH1 0xE2 SHL DUP2 DUP4 ADD MSTORE PUSH1 0x60 DUP5 ADD MSTORE DUP4 MLOAD DUP1 DUP6 ADD DUP6 MSTORE SWAP2 DUP3 MSTORE PUSH3 0x6C6567 PUSH1 0xE8 SHL DUP3 DUP3 ADD MSTORE PUSH1 0x80 DUP4 ADD SWAP2 SWAP1 SWAP2 MSTORE DUP3 MLOAD DUP1 DUP5 ADD DUP5 MSTORE PUSH1 0x5 DUP1 DUP3 MSTORE PUSH5 0x70656E6973 PUSH1 0xD8 SHL DUP3 DUP5 ADD MSTORE PUSH1 0xA0 DUP5 ADD SWAP2 SWAP1 SWAP2 MSTORE DUP4 MLOAD DUP1 DUP6 ADD DUP6 MSTORE SWAP1 DUP2 MSTORE PUSH5 0x7363616C7 PUSH1 0xDC SHL DUP2 DUP4 ADD MSTORE PUSH1 0xC0 DUP4 ADD MSTORE DUP3 MLOAD DUP1 DUP5 ADD SWAP1 SWAP4 MSTORE PUSH1 0x6 DUP4 MSTORE PUSH6 0x7468796D7573 PUSH1 0xD0 SHL DUP4 DUP3 ADD MSTORE PUSH1 0xE0 DUP3 ADD SWAP3 SWAP1 SWAP3 MSTORE PUSH1 0x7 PUSH0 MSTORE PUSH1 0x1 SWAP1 SWAP2 MSTORE PUSH2 0x49B SWAP1 PUSH32 0xDC686EC4A0FF239C70E7C7C36E8F853ECED3BC8618F48D2B816DA2A74311237E SWAP1 PUSH1 0x8 PUSH2 0x9A6 JUMP JUMPDEST POP PUSH1 0x40 DUP1 MLOAD PUSH2 0x260 DUP2 ADD DUP3 MSTORE PUSH1 0xE PUSH2 0x220 DUP3 ADD SWAP1 DUP2 MSTORE PUSH14 0x1858991BDB5A5B985B081DD85B1B PUSH1 0x92 SHL PUSH2 0x240 DUP4 ADD MSTORE DUP2 MSTORE DUP2 MLOAD DUP1 DUP4 ADD DUP4 MSTORE PUSH1 0xD DUP2 MSTORE PUSH13 0x18591C995B985B0819DB185B99 PUSH1 0x9A SHL PUSH1 0x20 DUP3 DUP2 ADD SWAP2 SWAP1 SWAP2 MSTORE DUP1 DUP4 ADD SWAP2 SWAP1 SWAP2 MSTORE DUP3 MLOAD DUP1 DUP5 ADD DUP5 MSTORE PUSH1 0x4 DUP1 DUP3 MSTORE PUSH4 0x626F6E65 PUSH1 0xE0 SHL DUP3 DUP5 ADD MSTORE DUP4 DUP6 ADD SWAP2 SWAP1 SWAP2 MSTORE DUP4 MLOAD DUP1 DUP6 ADD DUP6 MSTORE PUSH1 0x9 DUP2 MSTORE PUSH9 0x65736F706861677573 PUSH1 0xB8 SHL DUP2 DUP5 ADD MSTORE PUSH1 0x60 DUP5 ADD MSTORE DUP4 MLOAD DUP1 DUP6 ADD DUP6 MSTORE PUSH1 0x6 DUP1 DUP3 MSTORE PUSH6 0xD8C2E4F2DCF PUSH1 0xD3 SHL DUP3 DUP6 ADD MSTORE PUSH1 0x80 DUP6 ADD SWAP2 SWAP1 SWAP2 MSTORE DUP5 MLOAD DUP1 DUP7 ADD DUP7 MSTORE PUSH1 0xA DUP2 MSTORE PUSH10 0x6C796D7068206E6F6465 PUSH1 0xB0 SHL DUP2 DUP6 ADD MSTORE PUSH1 0xA0 DUP6 ADD MSTORE DUP5 MLOAD DUP1 DUP7 ADD DUP7 MSTORE PUSH1 0x8 DUP1 DUP3 MSTORE PUSH8 0x1B985A5B08189959 PUSH1 0xC2 SHL DUP3 DUP7 ADD MSTORE PUSH1 0xC0 DUP7 ADD SWAP2 SWAP1 SWAP2 MSTORE DUP6 MLOAD DUP1 DUP8 ADD DUP8 MSTORE PUSH1 0x5 DUP1 DUP3 MSTORE PUSH5 0x6E65727665 PUSH1 0xD8 SHL DUP3 DUP8 ADD MSTORE PUSH1 0xE0 DUP8 ADD SWAP2 SWAP1 SWAP2 MSTORE DUP7 MLOAD DUP1 DUP9 ADD DUP9 MSTORE DUP2 DUP2 MSTORE PUSH5 0x6F76617279 PUSH1 0xD8 SHL DUP2 DUP8 ADD MSTORE PUSH2 0x100 DUP8 ADD MSTORE DUP7 MLOAD DUP1 DUP9 ADD DUP9 MSTORE DUP3 DUP2 MSTORE PUSH8 0x70616E6372656173 PUSH1 0xC0 SHL DUP2 DUP8 ADD MSTORE PUSH2 0x120 DUP8 ADD MSTORE DUP7 MLOAD DUP1 DUP9 ADD DUP9 MSTORE SWAP4 DUP5 MSTORE PUSH4 0x39B5B4B7 PUSH1 0xE1 SHL DUP5 DUP7 ADD MSTORE PUSH2 0x140 DUP7 ADD SWAP4 SWAP1 SWAP4 MSTORE DUP6 MLOAD DUP1 DUP8 ADD DUP8 MSTORE PUSH1 0xF DUP2 MSTORE PUSH15 0x736D616C6C20696E74657374696E65 PUSH1 0x88 SHL DUP2 DUP7 ADD MSTORE PUSH2 0x160 DUP7 ADD MSTORE DUP6 MLOAD DUP1 DUP8 ADD DUP8 MSTORE DUP3 DUP2 MSTORE PUSH6 0x39B83632B2B7 PUSH1 0xD1 SHL DUP2 DUP7 ADD MSTORE PUSH2 0x180 DUP7 ADD MSTORE DUP6 MLOAD DUP1 DUP8 ADD DUP8 MSTORE PUSH1 0x7 DUP1 DUP3 MSTORE PUSH7 0xE6E8DEDAC2C6D PUSH1 0xCB SHL DUP3 DUP8 ADD MSTORE PUSH2 0x1A0 DUP8 ADD SWAP2 SWAP1 SWAP2 MSTORE DUP7 MLOAD DUP1 DUP9 ADD DUP9 MSTORE SWAP2 DUP3 MSTORE PUSH8 0x7465737469636C65 PUSH1 0xC0 SHL DUP3 DUP7 ADD MSTORE PUSH2 0x1C0 DUP7 ADD SWAP2 SWAP1 SWAP2 MSTORE DUP6 MLOAD DUP1 DUP8 ADD DUP8 MSTORE SWAP1 DUP2 MSTORE PUSH7 0x74726163686561 PUSH1 0xC8 SHL DUP2 DUP6 ADD MSTORE PUSH2 0x1E0 DUP6 ADD MSTORE DUP5 MLOAD DUP1 DUP7 ADD SWAP1 SWAP6 MSTORE DUP5 MSTORE PUSH6 0x757465727573 PUSH1 0xD0 SHL DUP5 DUP4 ADD MSTORE PUSH2 0x200 DUP4 ADD SWAP4 SWAP1 SWAP4 MSTORE PUSH0 SWAP3 SWAP1 SWAP3 MSTORE PUSH1 0x1 SWAP1 SWAP2 MSTORE PUSH2 0x720 SWAP1 PUSH32 0xE2689CD4A84E23AD2F564004F1C9013E9589D260BDE6380ABA3CA7E09E4DF40C SWAP1 PUSH1 0x11 PUSH2 0x9EA JUMP JUMPDEST POP PUSH1 0x40 DUP1 MLOAD PUSH2 0x140 DUP2 ADD DUP3 MSTORE PUSH1 0xC PUSH2 0x100 DUP3 ADD SWAP1 DUP2 MSTORE PUSH12 0x189B1BDBD9081D995CDCD95B PUSH1 0xA2 SHL PUSH2 0x120 DUP4 ADD MSTORE DUP2 MSTORE DUP2 MLOAD DUP1 DUP4 ADD DUP4 MSTORE PUSH1 0x9 DUP2 MSTORE PUSH9 0x63617274696C616765 PUSH1 0xB8 SHL PUSH1 0x20 DUP3 DUP2 ADD SWAP2 SWAP1 SWAP2 MSTORE DUP1 DUP4 ADD SWAP2 SWAP1 SWAP2 MSTORE DUP3 MLOAD DUP1 DUP5 ADD DUP5 MSTORE PUSH1 0x3 DUP2 MSTORE PUSH3 0x19985D PUSH1 0xEA SHL DUP2 DUP4 ADD MSTORE DUP3 DUP5 ADD MSTORE DUP3 MLOAD DUP1 DUP5 ADD DUP5 MSTORE PUSH1 0x5 DUP2 MSTORE PUSH5 0x1A19585C9D PUSH1 0xDA SHL DUP2 DUP4 ADD MSTORE PUSH1 0x60 DUP4 ADD MSTORE DUP3 MLOAD DUP1 DUP5 ADD DUP5 MSTORE PUSH1 0x8 DUP1 DUP3 MSTORE PUSH8 0x1B1A59D85B595B9D PUSH1 0xC2 SHL DUP3 DUP5 ADD MSTORE PUSH1 0x80 DUP5 ADD SWAP2 SWAP1 SWAP2 MSTORE DUP4 MLOAD DUP1 DUP6 ADD DUP6 MSTORE PUSH1 0x4 DUP2 MSTORE PUSH4 0x6C756E67 PUSH1 0xE0 SHL DUP2 DUP5 ADD MSTORE PUSH1 0xA0 DUP5 ADD MSTORE DUP4 MLOAD DUP1 DUP6 ADD DUP6 MSTORE DUP2 DUP2 MSTORE PUSH8 0x6D656E6973637573 PUSH1 0xC0 SHL DUP2 DUP5 ADD MSTORE PUSH1 0xC0 DUP5 ADD MSTORE DUP4 MLOAD DUP1 DUP6 ADD SWAP1 SWAP5 MSTORE PUSH1 0x6 DUP5 MSTORE PUSH6 0x3A32B73237B7 PUSH1 0xD1 SHL DUP5 DUP4 ADD MSTORE PUSH1 0xE0 DUP4 ADD SWAP4 SWAP1 SWAP4 MSTORE PUSH1 0x2 PUSH0 MSTORE PUSH1 0x1 SWAP1 MSTORE PUSH2 0x862 SWAP2 PUSH32 0xD9D16D34FFB15BA3A3D852F0D403E2CE1D691FB54DE27AC87CD2F993F3EC330F SWAP2 SWAP1 PUSH2 0x9A6 JUMP JUMPDEST POP PUSH1 0x40 DUP1 MLOAD PUSH1 0xA0 DUP2 ADD DUP3 MSTORE PUSH1 0x6 PUSH1 0x60 DUP3 ADD SWAP1 DUP2 MSTORE PUSH6 0x636F726E6561 PUSH1 0xD0 SHL PUSH1 0x80 DUP4 ADD MSTORE DUP2 MSTORE DUP2 MLOAD DUP1 DUP4 ADD DUP4 MSTORE PUSH1 0xB DUP2 MSTORE PUSH11 0x68656172742076616C7665 PUSH1 0xA8 SHL PUSH1 0x20 DUP3 DUP2 ADD SWAP2 SWAP1 SWAP2 MSTORE DUP1 DUP4 ADD SWAP2 SWAP1 SWAP2 MSTORE DUP3 MLOAD DUP1 DUP5 ADD DUP5 MSTORE PUSH1 0x5 DUP2 MSTORE PUSH5 0x3634BB32B9 PUSH1 0xD9 SHL DUP2 DUP4 ADD MSTORE SWAP3 DUP3 ADD SWAP3 SWAP1 SWAP3 MSTORE PUSH0 DUP1 MSTORE PUSH1 0x1 SWAP1 SWAP2 MSTORE PUSH2 0x905 SWAP1 PUSH32 0xA6EEF7E35ABE7026729641147F7915573C7E97B47EFA546F5F6E3230263BCB49 SWAP1 PUSH1 0x3 PUSH2 0xA2E JUMP JUMPDEST POP POP PUSH2 0xDB1 JUMP JUMPDEST DUP3 PUSH1 0xA DUP2 ADD SWAP3 DUP3 ISZERO PUSH2 0x946 JUMPI SWAP2 PUSH1 0x20 MUL DUP3 ADD JUMPDEST DUP3 DUP2 GT ISZERO PUSH2 0x946 JUMPI DUP3 MLOAD PUSH2 0x936 SWAP1 DUP4 SWAP1 PUSH1 0xA PUSH2 0xA72 JUMP JUMPDEST POP SWAP2 PUSH1 0x20 ADD SWAP2 SWAP1 PUSH1 0x1 ADD SWAP1 PUSH2 0x91F JUMP JUMPDEST POP PUSH2 0x952 SWAP3 SWAP2 POP PUSH2 0xAFE JUMP JUMPDEST POP SWAP1 JUMP JUMPDEST DUP3 DUP1 SLOAD DUP3 DUP3 SSTORE SWAP1 PUSH0 MSTORE PUSH1 0x20 PUSH0 KECCAK256 SWAP1 DUP2 ADD SWAP3 DUP3 ISZERO PUSH2 0x99A JUMPI SWAP2 PUSH1 0x20 MUL DUP3 ADD JUMPDEST DUP3 DUP2 GT ISZERO PUSH2 0x99A JUMPI DUP3 MLOAD DUP3 SWAP1 PUSH2 0x98A SWAP1 DUP3 PUSH2 0xCF7 JUMP JUMPDEST POP SWAP2 PUSH1 0x20 ADD SWAP2 SWAP1 PUSH1 0x1 ADD SWAP1 PUSH2 0x974 JUMP JUMPDEST POP PUSH2 0x952 SWAP3 SWAP2 POP PUSH2 0xB11 JUMP JUMPDEST DUP3 DUP1 SLOAD DUP3 DUP3 SSTORE SWAP1 PUSH0 MSTORE PUSH1 0x20 PUSH0 KECCAK256 SWAP1 DUP2 ADD SWAP3 DUP3 ISZERO PUSH2 0x99A JUMPI SWAP2 PUSH1 0x20 MUL DUP3 ADD JUMPDEST DUP3 DUP2 GT ISZERO PUSH2 0x99A JUMPI DUP3 MLOAD DUP3 SWAP1 PUSH2 0x9DA SWAP1 DUP3 PUSH2 0xCF7 JUMP JUMPDEST POP SWAP2 PUSH1 0x20 ADD SWAP2 SWAP1 PUSH1 0x1 ADD SWAP1 PUSH2 0x9C4 JUMP JUMPDEST DUP3 DUP1 SLOAD DUP3 DUP3 SSTORE SWAP1 PUSH0 MSTORE PUSH1 0x20 PUSH0 KECCAK256 SWAP1 DUP2 ADD SWAP3 DUP3 ISZERO PUSH2 0x99A JUMPI SWAP2 PUSH1 0x20 MUL DUP3 ADD JUMPDEST DUP3 DUP2 GT ISZERO PUSH2 0x99A JUMPI DUP3 MLOAD DUP3 SWAP1 PUSH2 0xA1E SWAP1 DUP3 PUSH2 0xCF7 JUMP JUMPDEST POP SWAP2 PUSH1 0x20 ADD SWAP2 SWAP1 PUSH1 0x1 ADD SWAP1 PUSH2 0xA08 JUMP JUMPDEST DUP3 DUP1 SLOAD DUP3 DUP3 SSTORE SWAP1 PUSH0 MSTORE PUSH1 0x20 PUSH0 KECCAK256 SWAP1 DUP2 ADD SWAP3 DUP3 ISZERO PUSH2 0x99A JUMPI SWAP2 PUSH1 0x20 MUL DUP3 ADD JUMPDEST DUP3 DUP2 GT ISZERO PUSH2 0x99A JUMPI DUP3 MLOAD DUP3 SWAP1 PUSH2 0xA62 SWAP1 DUP3 PUSH2 0xCF7 JUMP JUMPDEST POP SWAP2 PUSH1 0x20 ADD SWAP2 SWAP1 PUSH1 0x1 ADD SWAP1 PUSH2 0xA4C JUMP JUMPDEST PUSH1 0x1 DUP4 ADD SWAP2 DUP4 SWAP1 DUP3 ISZERO PUSH2 0xAF2 JUMPI SWAP2 PUSH1 0x20 MUL DUP3 ADD PUSH0 JUMPDEST DUP4 DUP3 GT ISZERO PUSH2 0xAC4 JUMPI DUP4 MLOAD DUP4 DUP3 PUSH2 0x100 EXP DUP2 SLOAD DUP2 PUSH1 0xFF MUL NOT AND SWAP1 DUP4 PUSH1 0xFF AND MUL OR SWAP1 SSTORE POP SWAP3 PUSH1 0x20 ADD SWAP3 PUSH1 0x1 ADD PUSH1 0x20 DUP2 PUSH0 ADD DIV SWAP3 DUP4 ADD SWAP3 PUSH1 0x1 SUB MUL PUSH2 0xA87 JUMP JUMPDEST DUP1 ISZERO PUSH2 0xAF0 JUMPI DUP3 DUP2 PUSH2 0x100 EXP DUP2 SLOAD SWAP1 PUSH1 0xFF MUL NOT AND SWAP1 SSTORE PUSH1 0x1 ADD PUSH1 0x20 DUP2 PUSH0 ADD DIV SWAP3 DUP4 ADD SWAP3 PUSH1 0x1 SUB MUL PUSH2 0xAC4 JUMP JUMPDEST POP JUMPDEST POP PUSH2 0x952 SWAP3 SWAP2 POP PUSH2 0xB2D JUMP JUMPDEST DUP1 DUP3 GT ISZERO PUSH2 0x952 JUMPI PUSH0 DUP2 SSTORE PUSH1 0x1 ADD PUSH2 0xAFE JUMP JUMPDEST DUP1 DUP3 GT ISZERO PUSH2 0x952 JUMPI PUSH0 PUSH2 0xB24 DUP3 DUP3 PUSH2 0xB40 JUMP JUMPDEST POP PUSH1 0x1 ADD PUSH2 0xB11 JUMP JUMPDEST DUP1 DUP3 GT ISZERO PUSH2 0x952 JUMPI PUSH0 DUP2 SSTORE PUSH1 0x1 ADD PUSH2 0xAFE JUMP JUMPDEST POP DUP1 SLOAD PUSH2 0xB4C SWAP1 PUSH2 0xC73 JUMP JUMPDEST PUSH0 DUP3 SSTORE DUP1 PUSH1 0x1F LT PUSH2 0xB5B JUMPI POP POP JUMP JUMPDEST PUSH1 0x1F ADD PUSH1 0x20 SWAP1 DIV SWAP1 PUSH0 MSTORE PUSH1 0x20 PUSH0 KECCAK256 SWAP1 DUP2 ADD SWAP1 PUSH2 0xB77 SWAP2 SWAP1 PUSH2 0xB2D JUMP JUMPDEST POP JUMP JUMPDEST PUSH4 0x4E487B71 PUSH1 0xE0 SHL PUSH0 MSTORE PUSH1 0x41 PUSH1 0x4 MSTORE PUSH1 0x24 PUSH0 REVERT JUMPDEST PUSH0 PUSH1 0x20 DUP3 DUP5 SUB SLT ISZERO PUSH2 0xB9E JUMPI PUSH0 DUP1 REVERT JUMPDEST DUP2 MLOAD PUSH1 0x1 PUSH1 0x1 PUSH1 0x40 SHL SUB DUP2 GT ISZERO PUSH2 0xBB3 JUMPI PUSH0 DUP1 REVERT JUMPDEST DUP3 ADD PUSH1 0x1F DUP2 ADD DUP5 SGT PUSH2 0xBC3 JUMPI PUSH0 DUP1 REVERT JUMPDEST DUP1 MLOAD PUSH1 0x1 PUSH1 0x1 PUSH1 0x40 SHL SUB DUP2 GT ISZERO PUSH2 0xBDC JUMPI PUSH2 0xBDC PUSH2 0xB7A JUMP JUMPDEST PUSH1 0x40 MLOAD PUSH1 0x1F DUP3 ADD PUSH1 0x1F NOT SWAP1 DUP2 AND PUSH1 0x3F ADD AND DUP2 ADD PUSH1 0x1 PUSH1 0x1 PUSH1 0x40 SHL SUB DUP2 GT DUP3 DUP3 LT OR ISZERO PUSH2 0xC0A JUMPI PUSH2 0xC0A PUSH2 0xB7A JUMP JUMPDEST PUSH1 0x40 MSTORE DUP2 DUP2 MSTORE DUP3 DUP3 ADD PUSH1 0x20 ADD DUP7 LT ISZERO PUSH2 0xC21 JUMPI PUSH0 DUP1 REVERT JUMPDEST DUP2 PUSH1 0x20 DUP5 ADD PUSH1 0x20 DUP4 ADD MCOPY PUSH0 SWAP2 DUP2 ADD PUSH1 0x20 ADD SWAP2 SWAP1 SWAP2 MSTORE SWAP5 SWAP4 POP POP POP POP JUMP JUMPDEST PUSH1 0x20 DUP2 MSTORE PUSH0 DUP3 MLOAD DUP1 PUSH1 0x20 DUP5 ADD MSTORE DUP1 PUSH1 0x20 DUP6 ADD PUSH1 0x40 DUP6 ADD MCOPY PUSH0 PUSH1 0x40 DUP3 DUP6 ADD ADD MSTORE PUSH1 0x40 PUSH1 0x1F NOT PUSH1 0x1F DUP4 ADD AND DUP5 ADD ADD SWAP2 POP POP SWAP3 SWAP2 POP POP JUMP JUMPDEST PUSH1 0x1 DUP2 DUP2 SHR SWAP1 DUP3 AND DUP1 PUSH2 0xC87 JUMPI PUSH1 0x7F DUP3 AND SWAP2 POP JUMPDEST PUSH1 0x20 DUP3 LT DUP2 SUB PUSH2 0xCA5 JUMPI PUSH4 0x4E487B71 PUSH1 0xE0 SHL PUSH0 MSTORE PUSH1 0x22 PUSH1 0x4 MSTORE PUSH1 0x24 PUSH0 REVERT JUMPDEST POP SWAP2 SWAP1 POP JUMP JUMPDEST PUSH1 0x1F DUP3 GT ISZERO PUSH2 0xCF2 JUMPI DUP1 PUSH0 MSTORE PUSH1 0x20 PUSH0 KECCAK256 PUSH1 0x1F DUP5 ADD PUSH1 0x5 SHR DUP2 ADD PUSH1 0x20 DUP6 LT ISZERO PUSH2 0xCD0 JUMPI POP DUP1 JUMPDEST PUSH1 0x1F DUP5 ADD PUSH1 0x5 SHR DUP3 ADD SWAP2 POP JUMPDEST DUP2 DUP2 LT ISZERO PUSH2 0xCEF JUMPI PUSH0 DUP2 SSTORE PUSH1 0x1 ADD PUSH2 0xCDC JUMP JUMPDEST POP POP JUMPDEST POP POP POP JUMP JUMPDEST DUP2 MLOAD PUSH1 0x1 PUSH1 0x1 PUSH1 0x40 SHL SUB DUP2 GT ISZERO PUSH2 0xD10 JUMPI PUSH2 0xD10 PUSH2 0xB7A JUMP JUMPDEST PUSH2 0xD24 DUP2 PUSH2 0xD1E DUP5 SLOAD PUSH2 0xC73 JUMP JUMPDEST DUP5 PUSH2 0xCAB JUMP JUMPDEST PUSH1 0x20 PUSH1 0x1F DUP3 GT PUSH1 0x1 DUP2 EQ PUSH2 0xD56 JUMPI PUSH0 DUP4 ISZERO PUSH2 0xD3F JUMPI POP DUP5 DUP3 ADD MLOAD JUMPDEST PUSH0 NOT PUSH1 0x3 DUP6 SWAP1 SHL SHR NOT AND PUSH1 0x1 DUP5 SWAP1 SHL OR DUP5 SSTORE PUSH2 0xCEF JUMP JUMPDEST PUSH0 DUP5 DUP2 MSTORE PUSH1 0x20 DUP2 KECCAK256 PUSH1 0x1F NOT DUP6 AND SWAP2 JUMPDEST DUP3 DUP2 LT ISZERO PUSH2 0xD85 JUMPI DUP8 DUP6 ADD MLOAD DUP3 SSTORE PUSH1 0x20 SWAP5 DUP6 ADD SWAP5 PUSH1 0x1 SWAP1 SWAP3 ADD SWAP2 ADD PUSH2 0xD65 JUMP JUMPDEST POP DUP5 DUP3 LT ISZERO PUSH2 0xDA2 JUMPI DUP7 DUP5 ADD MLOAD PUSH0 NOT PUSH1 0x3 DUP8 SWAP1 SHL PUSH1 0xF8 AND SHR NOT AND DUP2 SSTORE JUMPDEST POP POP POP POP PUSH1 0x1 SWAP1 DUP2 SHL ADD SWAP1 SSTORE POP JUMP JUMPDEST PUSH2 0x5FCC DUP1 PUSH2 0xDBE PUSH0 CODECOPY PUSH0 RETURN INVALID PUSH1 0x80 PUSH1 0x40 MSTORE CALLVALUE DUP1 ISZERO PUSH2 0xF JUMPI PUSH0 DUP1 REVERT JUMPDEST POP PUSH1 0x4 CALLDATASIZE LT PUSH2 0x3F JUMPI PUSH0 CALLDATALOAD PUSH1 0xE0 SHR DUP1 PUSH4 0xF65C931 EQ PUSH2 0x43 JUMPI DUP1 PUSH4 0xB59E0F9E EQ PUSH2 0x6C JUMPI DUP1 PUSH4 0xF86813FF EQ PUSH2 0x81 JUMPI JUMPDEST PUSH0 DUP1 REVERT JUMPDEST PUSH2 0x56 PUSH2 0x51 CALLDATASIZE PUSH1 0x4 PUSH2 0x5527 JUMP JUMPDEST PUSH2 0x94 JUMP JUMPDEST PUSH1 0x40 MLOAD PUSH2 0x63 SWAP2 SWAP1 PUSH2 0x56AC JUMP JUMPDEST PUSH1 0x40 MLOAD DUP1 SWAP2 SUB SWAP1 RETURN JUMPDEST PUSH2 0x7F PUSH2 0x7A CALLDATASIZE PUSH1 0x4 PUSH2 0x5993 JUMP JUMPDEST PUSH2 0x10E0 JUMP JUMPDEST STOP JUMPDEST PUSH2 0x7F PUSH2 0x8F CALLDATASIZE PUSH1 0x4 PUSH2 0x5993 JUMP JUMPDEST PUSH2 0x21A1 JUMP JUMPDEST PUSH1 0x60 DUP3 PUSH1 0x40 MLOAD PUSH1 0x20 ADD PUSH2 0xA7 SWAP2 SWAP1 PUSH2 0x5AB1 JUMP JUMPDEST PUSH1 0x40 MLOAD PUSH1 0x20 DUP2 DUP4 SUB SUB DUP2 MSTORE SWAP1 PUSH1 0x40 MSTORE DUP1 MLOAD SWAP1 PUSH1 0x20 ADD KECCAK256 PUSH2 0xC8 DUP2 PUSH0 SLOAD PUSH2 0x2C9B JUMP JUMPDEST DUP3 PUSH1 0xFF AND PUSH1 0x3 SUB PUSH2 0xDD JUMPI PUSH2 0xDB PUSH2 0x2CAA JUMP JUMPDEST POP JUMPDEST DUP3 PUSH1 0xFF AND PUSH1 0x1 SUB PUSH2 0x8E6 JUMPI PUSH1 0x3 DUP1 SLOAD DUP1 PUSH1 0x20 MUL PUSH1 0x20 ADD PUSH1 0x40 MLOAD SWAP1 DUP2 ADD PUSH1 0x40 MSTORE DUP1 SWAP3 SWAP2 SWAP1 DUP2 DUP2 MSTORE PUSH1 0x20 ADD PUSH0 SWAP1 JUMPDEST DUP3 DUP3 LT ISZERO PUSH2 0x8DB JUMPI PUSH0 DUP5 DUP2 MSTORE PUSH1 0x20 SWAP1 KECCAK256 PUSH1 0x40 DUP1 MLOAD PUSH2 0x100 DUP2 ADD SWAP1 SWAP2 MSTORE PUSH1 0xF DUP5 MUL SWAP1 SWAP2 ADD DUP1 SLOAD DUP3 SWAP1 PUSH1 0x80 DUP3 ADD SWAP1 DUP4 SWAP1 DUP3 SWAP1 DUP3 SWAP1 PUSH2 0x144 SWAP1 PUSH2 0x5AC3 JUMP JUMPDEST DUP1 PUSH1 0x1F ADD PUSH1 0x20 DUP1 SWAP2 DIV MUL PUSH1 0x20 ADD PUSH1 0x40 MLOAD SWAP1 DUP2 ADD PUSH1 0x40 MSTORE DUP1 SWAP3 SWAP2 SWAP1 DUP2 DUP2 MSTORE PUSH1 0x20 ADD DUP3 DUP1 SLOAD PUSH2 0x170 SWAP1 PUSH2 0x5AC3 JUMP JUMPDEST DUP1 ISZERO PUSH2 0x1BB JUMPI DUP1 PUSH1 0x1F LT PUSH2 0x192 JUMPI PUSH2 0x100 DUP1 DUP4 SLOAD DIV MUL DUP4 MSTORE SWAP2 PUSH1 0x20 ADD SWAP2 PUSH2 0x1BB JUMP JUMPDEST DUP3 ADD SWAP2 SWAP1 PUSH0 MSTORE PUSH1 0x20 PUSH0 KECCAK256 SWAP1 JUMPDEST DUP2 SLOAD DUP2 MSTORE SWAP1 PUSH1 0x1 ADD SWAP1 PUSH1 0x20 ADD DUP1 DUP4 GT PUSH2 0x19E JUMPI DUP3 SWAP1 SUB PUSH1 0x1F AND DUP3 ADD SWAP2 JUMPDEST POP POP POP SWAP2 DUP4 MSTORE POP POP PUSH1 0x1 DUP3 ADD SLOAD PUSH1 0xFF DUP1 DUP3 AND PUSH1 0x20 DUP5 ADD MSTORE PUSH2 0x100 SWAP1 SWAP2 DIV AND PUSH1 0x40 DUP3 ADD MSTORE PUSH1 0x2 DUP3 ADD DUP1 SLOAD PUSH1 0x60 SWAP1 SWAP3 ADD SWAP2 PUSH2 0x1F3 SWAP1 PUSH2 0x5AC3 JUMP JUMPDEST DUP1 PUSH1 0x1F ADD PUSH1 0x20 DUP1 SWAP2 DIV MUL PUSH1 0x20 ADD PUSH1 0x40 MLOAD SWAP1 DUP2 ADD PUSH1 0x40 MSTORE DUP1 SWAP3 SWAP2 SWAP1 DUP2 DUP2 MSTORE PUSH1 0x20 ADD DUP3 DUP1 SLOAD PUSH2 0x21F SWAP1 PUSH2 0x5AC3 JUMP JUMPDEST DUP1 ISZERO PUSH2 0x26A JUMPI DUP1 PUSH1 0x1F LT PUSH2 0x241 JUMPI PUSH2 0x100 DUP1 DUP4 SLOAD DIV MUL DUP4 MSTORE SWAP2 PUSH1 0x20 ADD SWAP2 PUSH2 0x26A JUMP JUMPDEST DUP3 ADD SWAP2 SWAP1 PUSH0 MSTORE PUSH1 0x20 PUSH0 KECCAK256 SWAP1 JUMPDEST DUP2 SLOAD DUP2 MSTORE SWAP1 PUSH1 0x1 ADD SWAP1 PUSH1 0x20 ADD DUP1 DUP4 GT PUSH2 0x24D JUMPI DUP3 SWAP1 SUB PUSH1 0x1F AND DUP3 ADD SWAP2 JUMPDEST POP POP POP POP POP DUP2 MSTORE POP POP DUP2 MSTORE PUSH1 0x20 ADD PUSH1 0x3 DUP3 ADD DUP1 SLOAD PUSH2 0x287 SWAP1 PUSH2 0x5AC3 JUMP JUMPDEST DUP1 PUSH1 0x1F ADD PUSH1 0x20 DUP1 SWAP2 DIV MUL PUSH1 0x20 ADD PUSH1 0x40 MLOAD SWAP1 DUP2 ADD PUSH1 0x40 MSTORE DUP1 SWAP3 SWAP2 SWAP1 DUP2 DUP2 MSTORE PUSH1 0x20 ADD DUP3 DUP1 SLOAD PUSH2 0x2B3 SWAP1 PUSH2 0x5AC3 JUMP JUMPDEST DUP1 ISZERO PUSH2 0x2FE JUMPI DUP1 PUSH1 0x1F LT PUSH2 0x2D5 JUMPI PUSH2 0x100 DUP1 DUP4 SLOAD DIV MUL DUP4 MSTORE SWAP2 PUSH1 0x20 ADD SWAP2 PUSH2 0x2FE JUMP JUMPDEST DUP3 ADD SWAP2 SWAP1 PUSH0 MSTORE PUSH1 0x20 PUSH0 KECCAK256 SWAP1 JUMPDEST DUP2 SLOAD DUP2 MSTORE SWAP1 PUSH1 0x1 ADD SWAP1 PUSH1 0x20 ADD DUP1 DUP4 GT PUSH2 0x2E1 JUMPI DUP3 SWAP1 SUB PUSH1 0x1F AND DUP3 ADD SWAP2 JUMPDEST POP POP POP SWAP2 DUP4 MSTORE POP POP PUSH1 0x4 DUP3 ADD SLOAD PUSH1 0xFF AND PUSH1 0x20 DUP3 ADD MSTORE PUSH1 0x40 DUP1 MLOAD PUSH2 0x140 DUP2 ADD DUP3 MSTORE PUSH1 0x5 DUP5 ADD DUP1 SLOAD SWAP3 SWAP1 SWAP4 ADD SWAP3 SWAP1 SWAP2 DUP3 SWAP1 DUP3 SWAP1 PUSH2 0x338 SWAP1 PUSH2 0x5AC3 JUMP JUMPDEST DUP1 PUSH1 0x1F ADD PUSH1 0x20 DUP1 SWAP2 DIV MUL PUSH1 0x20 ADD PUSH1 0x40 MLOAD SWAP1 DUP2 ADD PUSH1 0x40 MSTORE DUP1 SWAP3 SWAP2 SWAP1 DUP2 DUP2 MSTORE PUSH1 0x20 ADD DUP3 DUP1 SLOAD PUSH2 0x364 SWAP1 PUSH2 0x5AC3 JUMP JUMPDEST DUP1 ISZERO PUSH2 0x3AF JUMPI DUP1 PUSH1 0x1F LT PUSH2 0x386 JUMPI PUSH2 0x100 DUP1 DUP4 SLOAD DIV MUL DUP4 MSTORE SWAP2 PUSH1 0x20 ADD SWAP2 PUSH2 0x3AF JUMP JUMPDEST DUP3 ADD SWAP2 SWAP1 PUSH0 MSTORE PUSH1 0x20 PUSH0 KECCAK256 SWAP1 JUMPDEST DUP2 SLOAD DUP2 MSTORE SWAP1 PUSH1 0x1 ADD SWAP1 PUSH1 0x20 ADD DUP1 DUP4 GT PUSH2 0x392 JUMPI DUP3 SWAP1 SUB PUSH1 0x1F AND DUP3 ADD SWAP2 JUMPDEST POP POP POP POP POP DUP2 MSTORE PUSH1 0x20 ADD PUSH1 0x1 DUP3 ADD DUP1 SLOAD PUSH2 0x3C8 SWAP1 PUSH2 0x5AC3 JUMP JUMPDEST DUP1 PUSH1 0x1F ADD PUSH1 0x20 DUP1 SWAP2 DIV MUL PUSH1 0x20 ADD PUSH1 0x40 MLOAD SWAP1 DUP2 ADD PUSH1 0x40 MSTORE DUP1 SWAP3 SWAP2 SWAP1 DUP2 DUP2 MSTORE PUSH1 0x20 ADD DUP3 DUP1 SLOAD PUSH2 0x3F4 SWAP1 PUSH2 0x5AC3 JUMP JUMPDEST DUP1 ISZERO PUSH2 0x43F JUMPI DUP1 PUSH1 0x1F LT PUSH2 0x416 JUMPI PUSH2 0x100 DUP1 DUP4 SLOAD DIV MUL DUP4 MSTORE SWAP2 PUSH1 0x20 ADD SWAP2 PUSH2 0x43F JUMP JUMPDEST DUP3 ADD SWAP2 SWAP1 PUSH0 MSTORE PUSH1 0x20 PUSH0 KECCAK256 SWAP1 JUMPDEST DUP2 SLOAD DUP2 MSTORE SWAP1 PUSH1 0x1 ADD SWAP1 PUSH1 0x20 ADD DUP1 DUP4 GT PUSH2 0x422 JUMPI DUP3 SWAP1 SUB PUSH1 0x1F AND DUP3 ADD SWAP2 JUMPDEST POP POP POP POP POP DUP2 MSTORE PUSH1 0x20 ADD PUSH1 0x2 DUP3 ADD DUP1 SLOAD PUSH2 0x458 SWAP1 PUSH2 0x5AC3 JUMP JUMPDEST DUP1 PUSH1 0x1F ADD PUSH1 0x20 DUP1 SWAP2 DIV MUL PUSH1 0x20 ADD PUSH1 0x40 MLOAD SWAP1 DUP2 ADD PUSH1 0x40 MSTORE DUP1 SWAP3 SWAP2 SWAP1 DUP2 DUP2 MSTORE PUSH1 0x20 ADD DUP3 DUP1 SLOAD PUSH2 0x484 SWAP1 PUSH2 0x5AC3 JUMP JUMPDEST DUP1 ISZERO PUSH2 0x4CF JUMPI DUP1 PUSH1 0x1F LT PUSH2 0x4A6 JUMPI PUSH2 0x100 DUP1 DUP4 SLOAD DIV MUL DUP4 MSTORE SWAP2 PUSH1 0x20 ADD SWAP2 PUSH2 0x4CF JUMP JUMPDEST DUP3 ADD SWAP2 SWAP1 PUSH0 MSTORE PUSH1 0x20 PUSH0 KECCAK256 SWAP1 JUMPDEST DUP2 SLOAD DUP2 MSTORE SWAP1 PUSH1 0x1 ADD SWAP1 PUSH1 0x20 ADD DUP1 DUP4 GT PUSH2 0x4B2 JUMPI DUP3 SWAP1 SUB PUSH1 0x1F AND DUP3 ADD SWAP2 JUMPDEST POP POP POP POP POP DUP2 MSTORE PUSH1 0x20 ADD PUSH1 0x3 DUP3 ADD DUP1 SLOAD PUSH2 0x4E8 SWAP1 PUSH2 0x5AC3 JUMP JUMPDEST DUP1 PUSH1 0x1F ADD PUSH1 0x20 DUP1 SWAP2 DIV MUL PUSH1 0x20 ADD PUSH1 0x40 MLOAD SWAP1 DUP2 ADD PUSH1 0x40 MSTORE DUP1 SWAP3 SWAP2 SWAP1 DUP2 DUP2 MSTORE PUSH1 0x20 ADD DUP3 DUP1 SLOAD PUSH2 0x514 SWAP1 PUSH2 0x5AC3 JUMP JUMPDEST DUP1 ISZERO PUSH2 0x55F JUMPI DUP1 PUSH1 0x1F LT PUSH2 0x536 JUMPI PUSH2 0x100 DUP1 DUP4 SLOAD DIV MUL DUP4 MSTORE SWAP2 PUSH1 0x20 ADD SWAP2 PUSH2 0x55F JUMP JUMPDEST DUP3 ADD SWAP2 SWAP1 PUSH0 MSTORE PUSH1 0x20 PUSH0 KECCAK256 SWAP1 JUMPDEST DUP2 SLOAD DUP2 MSTORE SWAP1 PUSH1 0x1 ADD SWAP1 PUSH1 0x20 ADD DUP1 DUP4 GT PUSH2 0x542 JUMPI DUP3 SWAP1 SUB PUSH1 0x1F AND DUP3 ADD SWAP2 JUMPDEST POP POP POP POP POP DUP2 MSTORE PUSH1 0x20 ADD PUSH1 0x4 DUP3 ADD DUP1 SLOAD PUSH2 0x578 SWAP1 PUSH2 0x5AC3 JUMP JUMPDEST DUP1 PUSH1 0x1F ADD PUSH1 0x20 DUP1 SWAP2 DIV MUL PUSH1 0x20 ADD PUSH1 0x40 MLOAD SWAP1 DUP2 ADD PUSH1 0x40 MSTORE DUP1 SWAP3 SWAP2 SWAP1 DUP2 DUP2 MSTORE PUSH1 0x20 ADD DUP3 DUP1 SLOAD PUSH2 0x5A4 SWAP1 PUSH2 0x5AC3 JUMP JUMPDEST DUP1 ISZERO PUSH2 0x5EF JUMPI DUP1 PUSH1 0x1F LT PUSH2 0x5C6 JUMPI PUSH2 0x100 DUP1 DUP4 SLOAD DIV MUL DUP4 MSTORE SWAP2 PUSH1 0x20 ADD SWAP2 PUSH2 0x5EF JUMP JUMPDEST DUP3 ADD SWAP2 SWAP1 PUSH0 MSTORE PUSH1 0x20 PUSH0 KECCAK256 SWAP1 JUMPDEST DUP2 SLOAD DUP2 MSTORE SWAP1 PUSH1 0x1 ADD SWAP1 PUSH1 0x20 ADD DUP1 DUP4 GT PUSH2 0x5D2 JUMPI DUP3 SWAP1 SUB PUSH1 0x1F AND DUP3 ADD SWAP2 JUMPDEST POP POP POP POP POP DUP2 MSTORE PUSH1 0x20 ADD PUSH1 0x5 DUP3 ADD DUP1 SLOAD PUSH2 0x608 SWAP1 PUSH2 0x5AC3 JUMP JUMPDEST DUP1 PUSH1 0x1F ADD PUSH1 0x20 DUP1 SWAP2 DIV MUL PUSH1 0x20 ADD PUSH1 0x40 MLOAD SWAP1 DUP2 ADD PUSH1 0x40 MSTORE DUP1 SWAP3 SWAP2 SWAP1 DUP2 DUP2 MSTORE PUSH1 0x20 ADD DUP3 DUP1 SLOAD PUSH2 0x634 SWAP1 PUSH2 0x5AC3 JUMP JUMPDEST DUP1 ISZERO PUSH2 0x67F JUMPI DUP1 PUSH1 0x1F LT PUSH2 0x656 JUMPI PUSH2 0x100 DUP1 DUP4 SLOAD DIV MUL DUP4 MSTORE SWAP2 PUSH1 0x20 ADD SWAP2 PUSH2 0x67F JUMP JUMPDEST DUP3 ADD SWAP2 SWAP1 PUSH0 MSTORE PUSH1 0x20 PUSH0 KECCAK256 SWAP1 JUMPDEST DUP2 SLOAD DUP2 MSTORE SWAP1 PUSH1 0x1 ADD SWAP1 PUSH1 0x20 ADD DUP1 DUP4 GT PUSH2 0x662 JUMPI DUP3 SWAP1 SUB PUSH1 0x1F AND DUP3 ADD SWAP2 JUMPDEST POP POP POP POP POP DUP2 MSTORE PUSH1 0x20 ADD PUSH1 0x6 DUP3 ADD DUP1 SLOAD PUSH2 0x698 SWAP1 PUSH2 0x5AC3 JUMP JUMPDEST DUP1 PUSH1 0x1F ADD PUSH1 0x20 DUP1 SWAP2 DIV MUL PUSH1 0x20 ADD PUSH1 0x40 MLOAD SWAP1 DUP2 ADD PUSH1 0x40 MSTORE DUP1 SWAP3 SWAP2 SWAP1 DUP2 DUP2 MSTORE PUSH1 0x20 ADD DUP3 DUP1 SLOAD PUSH2 0x6C4 SWAP1 PUSH2 0x5AC3 JUMP JUMPDEST DUP1 ISZERO PUSH2 0x70F JUMPI DUP1 PUSH1 0x1F LT PUSH2 0x6E6 JUMPI PUSH2 0x100 DUP1 DUP4 SLOAD DIV MUL DUP4 MSTORE SWAP2 PUSH1 0x20 ADD SWAP2 PUSH2 0x70F JUMP JUMPDEST DUP3 ADD SWAP2 SWAP1 PUSH0 MSTORE PUSH1 0x20 PUSH0 KECCAK256 SWAP1 JUMPDEST DUP2 SLOAD DUP2 MSTORE SWAP1 PUSH1 0x1 ADD SWAP1 PUSH1 0x20 ADD DUP1 DUP4 GT PUSH2 0x6F2 JUMPI DUP3 SWAP1 SUB PUSH1 0x1F AND DUP3 ADD SWAP2 JUMPDEST POP POP POP POP POP DUP2 MSTORE PUSH1 0x20 ADD PUSH1 0x7 DUP3 ADD DUP1 SLOAD PUSH2 0x728 SWAP1 PUSH2 0x5AC3 JUMP JUMPDEST DUP1 PUSH1 0x1F ADD PUSH1 0x20 DUP1 SWAP2 DIV MUL PUSH1 0x20 ADD PUSH1 0x40 MLOAD SWAP1 DUP2 ADD PUSH1 0x40 MSTORE DUP1 SWAP3 SWAP2 SWAP1 DUP2 DUP2 MSTORE PUSH1 0x20 ADD DUP3 DUP1 SLOAD PUSH2 0x754 SWAP1 PUSH2 0x5AC3 JUMP JUMPDEST DUP1 ISZERO PUSH2 0x79F JUMPI DUP1 PUSH1 0x1F LT PUSH2 0x776 JUMPI PUSH2 0x100 DUP1 DUP4 SLOAD DIV MUL DUP4 MSTORE SWAP2 PUSH1 0x20 ADD SWAP2 PUSH2 0x79F JUMP JUMPDEST DUP3 ADD SWAP2 SWAP1 PUSH0 MSTORE PUSH1 0x20 PUSH0 KECCAK256 SWAP1 JUMPDEST DUP2 SLOAD DUP2 MSTORE SWAP1 PUSH1 0x1 ADD SWAP1 PUSH1 0x20 ADD DUP1 DUP4 GT PUSH2 0x782 JUMPI DUP3 SWAP1 SUB PUSH1 0x1F AND DUP3 ADD SWAP2 JUMPDEST POP POP POP POP POP DUP2 MSTORE PUSH1 0x20 ADD PUSH1 0x8 DUP3 ADD DUP1 SLOAD PUSH2 0x7B8 SWAP1 PUSH2 0x5AC3 JUMP JUMPDEST DUP1 PUSH1 0x1F ADD PUSH1 0x20 DUP1 SWAP2 DIV MUL PUSH1 0x20 ADD PUSH1 0x40 MLOAD SWAP1 DUP2 ADD PUSH1 0x40 MSTORE DUP1 SWAP3 SWAP2 SWAP1 DUP2 DUP2 MSTORE PUSH1 0x20 ADD DUP3 DUP1 SLOAD PUSH2 0x7E4 SWAP1 PUSH2 0x5AC3 JUMP JUMPDEST DUP1 ISZERO PUSH2 0x82F JUMPI DUP1 PUSH1 0x1F LT PUSH2 0x806 JUMPI PUSH2 0x100 DUP1 DUP4 SLOAD DIV MUL DUP4 MSTORE SWAP2 PUSH1 0x20 ADD SWAP2 PUSH2 0x82F JUMP JUMPDEST DUP3 ADD SWAP2 SWAP1 PUSH0 MSTORE PUSH1 0x20 PUSH0 KECCAK256 SWAP1 JUMPDEST DUP2 SLOAD DUP2 MSTORE SWAP1 PUSH1 0x1 ADD SWAP1 PUSH1 0x20 ADD DUP1 DUP4 GT PUSH2 0x812 JUMPI DUP3 SWAP1 SUB PUSH1 0x1F AND DUP3 ADD SWAP2 JUMPDEST POP POP POP POP POP DUP2 MSTORE PUSH1 0x20 ADD PUSH1 0x9 DUP3 ADD DUP1 SLOAD PUSH2 0x848 SWAP1 PUSH2 0x5AC3 JUMP JUMPDEST DUP1 PUSH1 0x1F ADD PUSH1 0x20 DUP1 SWAP2 DIV MUL PUSH1 0x20 ADD PUSH1 0x40 MLOAD SWAP1 DUP2 ADD PUSH1 0x40 MSTORE DUP1 SWAP3 SWAP2 SWAP1 DUP2 DUP2 MSTORE PUSH1 0x20 ADD DUP3 DUP1 SLOAD PUSH2 0x874 SWAP1 PUSH2 0x5AC3 JUMP JUMPDEST DUP1 ISZERO PUSH2 0x8BF JUMPI DUP1 PUSH1 0x1F LT PUSH2 0x896 JUMPI PUSH2 0x100 DUP1 DUP4 SLOAD DIV MUL DUP4 MSTORE SWAP2 PUSH1 0x20 ADD SWAP2 PUSH2 0x8BF JUMP JUMPDEST DUP3 ADD SWAP2 SWAP1 PUSH0 MSTORE PUSH1 0x20 PUSH0 KECCAK256 SWAP1 JUMPDEST DUP2 SLOAD DUP2 MSTORE SWAP1 PUSH1 0x1 ADD SWAP1 PUSH1 0x20 ADD DUP1 DUP4 GT PUSH2 0x8A2 JUMPI DUP3 SWAP1 SUB PUSH1 0x1F AND DUP3 ADD SWAP2 JUMPDEST POP POP POP POP POP DUP2 MSTORE POP POP DUP2 MSTORE POP POP DUP2 MSTORE PUSH1 0x20 ADD SWAP1 PUSH1 0x1 ADD SWAP1 PUSH2 0x109 JUMP JUMPDEST POP POP POP POP SWAP2 POP PUSH2 0x10D9 JUMP JUMPDEST PUSH1 0x4 DUP1 SLOAD DUP1 PUSH1 0x20 MUL PUSH1 0x20 ADD PUSH1 0x40 MLOAD SWAP1 DUP2 ADD PUSH1 0x40 MSTORE DUP1 SWAP3 SWAP2 SWAP1 DUP2 DUP2 MSTORE PUSH1 0x20 ADD PUSH0 SWAP1 JUMPDEST DUP3 DUP3 LT ISZERO PUSH2 0x8DB JUMPI PUSH0 DUP5 DUP2 MSTORE PUSH1 0x20 SWAP1 KECCAK256 PUSH1 0x40 DUP1 MLOAD PUSH2 0x100 DUP2 ADD SWAP1 SWAP2 MSTORE PUSH1 0xF DUP5 MUL SWAP1 SWAP2 ADD DUP1 SLOAD DUP3 SWAP1 PUSH1 0x80 DUP3 ADD SWAP1 DUP4 SWAP1 DUP3 SWAP1 DUP3 SWAP1 PUSH2 0x942 SWAP1 PUSH2 0x5AC3 JUMP JUMPDEST DUP1 PUSH1 0x1F ADD PUSH1 0x20 DUP1 SWAP2 DIV MUL PUSH1 0x20 ADD PUSH1 0x40 MLOAD SWAP1 DUP2 ADD PUSH1 0x40 MSTORE DUP1 SWAP3 SWAP2 SWAP1 DUP2 DUP2 MSTORE PUSH1 0x20 ADD DUP3 DUP1 SLOAD PUSH2 0x96E SWAP1 PUSH2 0x5AC3 JUMP JUMPDEST DUP1 ISZERO PUSH2 0x9B9 JUMPI DUP1 PUSH1 0x1F LT PUSH2 0x990 JUMPI PUSH2 0x100 DUP1 DUP4 SLOAD DIV MUL DUP4 MSTORE SWAP2 PUSH1 0x20 ADD SWAP2 PUSH2 0x9B9 JUMP JUMPDEST DUP3 ADD SWAP2 SWAP1 PUSH0 MSTORE PUSH1 0x20 PUSH0 KECCAK256 SWAP1 JUMPDEST DUP2 SLOAD DUP2 MSTORE SWAP1 PUSH1 0x1 ADD SWAP1 PUSH1 0x20 ADD DUP1 DUP4 GT PUSH2 0x99C JUMPI DUP3 SWAP1 SUB PUSH1 0x1F AND DUP3 ADD SWAP2 JUMPDEST POP POP POP SWAP2 DUP4 MSTORE POP POP PUSH1 0x1 DUP3 ADD SLOAD PUSH1 0xFF DUP1 DUP3 AND PUSH1 0x20 DUP5 ADD MSTORE PUSH2 0x100 SWAP1 SWAP2 DIV AND PUSH1 0x40 DUP3 ADD MSTORE PUSH1 0x2 DUP3 ADD DUP1 SLOAD PUSH1 0x60 SWAP1 SWAP3 ADD SWAP2 PUSH2 0x9F1 SWAP1 PUSH2 0x5AC3 JUMP JUMPDEST DUP1 PUSH1 0x1F ADD PUSH1 0x20 DUP1 SWAP2 DIV MUL PUSH1 0x20 ADD PUSH1 0x40 MLOAD SWAP1 DUP2 ADD PUSH1 0x40 MSTORE DUP1 SWAP3 SWAP2 SWAP1 DUP2 DUP2 MSTORE PUSH1 0x20 ADD DUP3 DUP1 SLOAD PUSH2 0xA1D SWAP1 PUSH2 0x5AC3 JUMP JUMPDEST DUP1 ISZERO PUSH2 0xA68 JUMPI DUP1 PUSH1 0x1F LT PUSH2 0xA3F JUMPI PUSH2 0x100 DUP1 DUP4 SLOAD DIV MUL DUP4 MSTORE SWAP2 PUSH1 0x20 ADD SWAP2 PUSH2 0xA68 JUMP JUMPDEST DUP3 ADD SWAP2 SWAP1 PUSH0 MSTORE PUSH1 0x20 PUSH0 KECCAK256 SWAP1 JUMPDEST DUP2 SLOAD DUP2 MSTORE SWAP1 PUSH1 0x1 ADD SWAP1 PUSH1 0x20 ADD DUP1 DUP4 GT PUSH2 0xA4B JUMPI DUP3 SWAP1 SUB PUSH1 0x1F AND DUP3 ADD SWAP2 JUMPDEST POP POP POP POP POP DUP2 MSTORE POP POP DUP2 MSTORE PUSH1 0x20 ADD PUSH1 0x3 DUP3 ADD DUP1 SLOAD PUSH2 0xA85 SWAP1 PUSH2 0x5AC3 JUMP JUMPDEST DUP1 PUSH1 0x1F ADD PUSH1 0x20 DUP1 SWAP2 DIV MUL PUSH1 0x20 ADD PUSH1 0x40 MLOAD SWAP1 DUP2 ADD PUSH1 0x40 MSTORE DUP1 SWAP3 SWAP2 SWAP1 DUP2 DUP2 MSTORE PUSH1 0x20 ADD DUP3 DUP1 SLOAD PUSH2 0xAB1 SWAP1 PUSH2 0x5AC3 JUMP JUMPDEST DUP1 ISZERO PUSH2 0xAFC JUMPI DUP1 PUSH1 0x1F LT PUSH2 0xAD3 JUMPI PUSH2 0x100 DUP1 DUP4 SLOAD DIV MUL DUP4 MSTORE SWAP2 PUSH1 0x20 ADD SWAP2 PUSH2 0xAFC JUMP JUMPDEST DUP3 ADD SWAP2 SWAP1 PUSH0 MSTORE PUSH1 0x20 PUSH0 KECCAK256 SWAP1 JUMPDEST DUP2 SLOAD DUP2 MSTORE SWAP1 PUSH1 0x1 ADD SWAP1 PUSH1 0x20 ADD DUP1 DUP4 GT PUSH2 0xADF JUMPI DUP3 SWAP1 SUB PUSH1 0x1F AND DUP3 ADD SWAP2 JUMPDEST POP POP POP SWAP2 DUP4 MSTORE POP POP PUSH1 0x4 DUP3 ADD SLOAD PUSH1 0xFF AND PUSH1 0x20 DUP3 ADD MSTORE PUSH1 0x40 DUP1 MLOAD PUSH2 0x140 DUP2 ADD DUP3 MSTORE PUSH1 0x5 DUP5 ADD DUP1 SLOAD SWAP3 SWAP1 SWAP4 ADD SWAP3 SWAP1 SWAP2 DUP3 SWAP1 DUP3 SWAP1 PUSH2 0xB36 SWAP1 PUSH2 0x5AC3 JUMP JUMPDEST DUP1 PUSH1 0x1F ADD PUSH1 0x20 DUP1 SWAP2 DIV MUL PUSH1 0x20 ADD PUSH1 0x40 MLOAD SWAP1 DUP2 ADD PUSH1 0x40 MSTORE DUP1 SWAP3 SWAP2 SWAP1 DUP2 DUP2 MSTORE PUSH1 0x20 ADD DUP3 DUP1 SLOAD PUSH2 0xB62 SWAP1 PUSH2 0x5AC3 JUMP JUMPDEST DUP1 ISZERO PUSH2 0xBAD JUMPI DUP1 PUSH1 0x1F LT PUSH2 0xB84 JUMPI PUSH2 0x100 DUP1 DUP4 SLOAD DIV MUL DUP4 MSTORE SWAP2 PUSH1 0x20 ADD SWAP2 PUSH2 0xBAD JUMP JUMPDEST DUP3 ADD SWAP2 SWAP1 PUSH0 MSTORE PUSH1 0x20 PUSH0 KECCAK256 SWAP1 JUMPDEST DUP2 SLOAD DUP2 MSTORE SWAP1 PUSH1 0x1 ADD SWAP1 PUSH1 0x20 ADD DUP1 DUP4 GT PUSH2 0xB90 JUMPI DUP3 SWAP1 SUB PUSH1 0x1F AND DUP3 ADD SWAP2 JUMPDEST POP POP POP POP POP DUP2 MSTORE PUSH1 0x20 ADD PUSH1 0x1 DUP3 ADD DUP1 SLOAD PUSH2 0xBC6 SWAP1 PUSH2 0x5AC3 JUMP JUMPDEST DUP1 PUSH1 0x1F ADD PUSH1 0x20 DUP1 SWAP2 DIV MUL PUSH1 0x20 ADD PUSH1 0x40 MLOAD SWAP1 DUP2 ADD PUSH1 0x40 MSTORE DUP1 SWAP3 SWAP2 SWAP1 DUP2 DUP2 MSTORE PUSH1 0x20 ADD DUP3 DUP1 SLOAD PUSH2 0xBF2 SWAP1 PUSH2 0x5AC3 JUMP JUMPDEST DUP1 ISZERO PUSH2 0xC3D JUMPI DUP1 PUSH1 0x1F LT PUSH2 0xC14 JUMPI PUSH2 0x100 DUP1 DUP4 SLOAD DIV MUL DUP4 MSTORE SWAP2 PUSH1 0x20 ADD SWAP2 PUSH2 0xC3D JUMP JUMPDEST DUP3 ADD SWAP2 SWAP1 PUSH0 MSTORE PUSH1 0x20 PUSH0 KECCAK256 SWAP1 JUMPDEST DUP2 SLOAD DUP2 MSTORE SWAP1 PUSH1 0x1 ADD SWAP1 PUSH1 0x20 ADD DUP1 DUP4 GT PUSH2 0xC20 JUMPI DUP3 SWAP1 SUB PUSH1 0x1F AND DUP3 ADD SWAP2 JUMPDEST POP POP POP POP POP DUP2 MSTORE PUSH1 0x20 ADD PUSH1 0x2 DUP3 ADD DUP1 SLOAD PUSH2 0xC56 SWAP1 PUSH2 0x5AC3 JUMP JUMPDEST DUP1 PUSH1 0x1F ADD PUSH1 0x20 DUP1 SWAP2 DIV MUL PUSH1 0x20 ADD PUSH1 0x40 MLOAD SWAP1 DUP2 ADD PUSH1 0x40 MSTORE DUP1 SWAP3 SWAP2 SWAP1 DUP2 DUP2 MSTORE PUSH1 0x20 ADD DUP3 DUP1 SLOAD PUSH2 0xC82 SWAP1 PUSH2 0x5AC3 JUMP JUMPDEST DUP1 ISZERO PUSH2 0xCCD JUMPI DUP1 PUSH1 0x1F LT PUSH2 0xCA4 JUMPI PUSH2 0x100 DUP1 DUP4 SLOAD DIV MUL DUP4 MSTORE SWAP2 PUSH1 0x20 ADD SWAP2 PUSH2 0xCCD JUMP JUMPDEST DUP3 ADD SWAP2 SWAP1 PUSH0 MSTORE PUSH1 0x20 PUSH0 KECCAK256 SWAP1 JUMPDEST DUP2 SLOAD DUP2 MSTORE SWAP1 PUSH1 0x1 ADD SWAP1 PUSH1 0x20 ADD DUP1 DUP4 GT PUSH2 0xCB0 JUMPI DUP3 SWAP1 SUB PUSH1 0x1F AND DUP3 ADD SWAP2 JUMPDEST POP POP POP POP POP DUP2 MSTORE PUSH1 0x20 ADD PUSH1 0x3 DUP3 ADD DUP1 SLOAD PUSH2 0xCE6 SWAP1 PUSH2 0x5AC3 JUMP JUMPDEST DUP1 PUSH1 0x1F ADD PUSH1 0x20 DUP1 SWAP2 DIV MUL PUSH1 0x20 ADD PUSH1 0x40 MLOAD SWAP1 DUP2 ADD PUSH1 0x40 MSTORE DUP1 SWAP3 SWAP2 SWAP1 DUP2 DUP2 MSTORE PUSH1 0x20 ADD DUP3 DUP1 SLOAD PUSH2 0xD12 SWAP1 PUSH2 0x5AC3 JUMP JUMPDEST DUP1 ISZERO PUSH2 0xD5D JUMPI DUP1 PUSH1 0x1F LT PUSH2 0xD34 JUMPI PUSH2 0x100 DUP1 DUP4 SLOAD DIV MUL DUP4 MSTORE SWAP2 PUSH1 0x20 ADD SWAP2 PUSH2 0xD5D JUMP JUMPDEST DUP3 ADD SWAP2 SWAP1 PUSH0 MSTORE PUSH1 0x20 PUSH0 KECCAK256 SWAP1 JUMPDEST DUP2 SLOAD DUP2 MSTORE SWAP1 PUSH1 0x1 ADD SWAP1 PUSH1 0x20 ADD DUP1 DUP4 GT PUSH2 0xD40 JUMPI DUP3 SWAP1 SUB PUSH1 0x1F AND DUP3 ADD SWAP2 JUMPDEST POP POP POP POP POP DUP2 MSTORE PUSH1 0x20 ADD PUSH1 0x4 DUP3 ADD DUP1 SLOAD PUSH2 0xD76 SWAP1 PUSH2 0x5AC3 JUMP JUMPDEST DUP1 PUSH1 0x1F ADD PUSH1 0x20 DUP1 SWAP2 DIV MUL PUSH1 0x20 ADD PUSH1 0x40 MLOAD SWAP1 DUP2 ADD PUSH1 0x40 MSTORE DUP1 SWAP3 SWAP2 SWAP1 DUP2 DUP2 MSTORE PUSH1 0x20 ADD DUP3 DUP1 SLOAD PUSH2 0xDA2 SWAP1 PUSH2 0x5AC3 JUMP JUMPDEST DUP1 ISZERO PUSH2 0xDED JUMPI DUP1 PUSH1 0x1F LT PUSH2 0xDC4 JUMPI PUSH2 0x100 DUP1 DUP4 SLOAD DIV MUL DUP4 MSTORE SWAP2 PUSH1 0x20 ADD SWAP2 PUSH2 0xDED JUMP JUMPDEST DUP3 ADD SWAP2 SWAP1 PUSH0 MSTORE PUSH1 0x20 PUSH0 KECCAK256 SWAP1 JUMPDEST DUP2 SLOAD DUP2 MSTORE SWAP1 PUSH1 0x1 ADD SWAP1 PUSH1 0x20 ADD DUP1 DUP4 GT PUSH2 0xDD0 JUMPI DUP3 SWAP1 SUB PUSH1 0x1F AND DUP3 ADD SWAP2 JUMPDEST POP POP POP POP POP DUP2 MSTORE PUSH1 0x20 ADD PUSH1 0x5 DUP3 ADD DUP1 SLOAD PUSH2 0xE06 SWAP1 PUSH2 0x5AC3 JUMP JUMPDEST DUP1 PUSH1 0x1F ADD PUSH1 0x20 DUP1 SWAP2 DIV MUL PUSH1 0x20 ADD PUSH1 0x40 MLOAD SWAP1 DUP2 ADD PUSH1 0x40 MSTORE DUP1 SWAP3 SWAP2 SWAP1 DUP2 DUP2 MSTORE PUSH1 0x20 ADD DUP3 DUP1 SLOAD PUSH2 0xE32 SWAP1 PUSH2 0x5AC3 JUMP JUMPDEST DUP1 ISZERO PUSH2 0xE7D JUMPI DUP1 PUSH1 0x1F LT PUSH2 0xE54 JUMPI PUSH2 0x100 DUP1 DUP4 SLOAD DIV MUL DUP4 MSTORE SWAP2 PUSH1 0x20 ADD SWAP2 PUSH2 0xE7D JUMP JUMPDEST DUP3 ADD SWAP2 SWAP1 PUSH0 MSTORE PUSH1 0x20 PUSH0 KECCAK256 SWAP1 JUMPDEST DUP2 SLOAD DUP2 MSTORE SWAP1 PUSH1 0x1 ADD SWAP1 PUSH1 0x20 ADD DUP1 DUP4 GT PUSH2 0xE60 JUMPI DUP3 SWAP1 SUB PUSH1 0x1F AND DUP3 ADD SWAP2 JUMPDEST POP POP POP POP POP DUP2 MSTORE PUSH1 0x20 ADD PUSH1 0x6 DUP3 ADD DUP1 SLOAD PUSH2 0xE96 SWAP1 PUSH2 0x5AC3 JUMP JUMPDEST DUP1 PUSH1 0x1F ADD PUSH1 0x20 DUP1 SWAP2 DIV MUL PUSH1 0x20 ADD PUSH1 0x40 MLOAD SWAP1 DUP2 ADD PUSH1 0x40 MSTORE DUP1 SWAP3 SWAP2 SWAP1 DUP2 DUP2 MSTORE PUSH1 0x20 ADD DUP3 DUP1 SLOAD PUSH2 0xEC2 SWAP1 PUSH2 0x5AC3 JUMP JUMPDEST DUP1 ISZERO PUSH2 0xF0D JUMPI DUP1 PUSH1 0x1F LT PUSH2 0xEE4 JUMPI PUSH2 0x100 DUP1 DUP4 SLOAD DIV MUL DUP4 MSTORE SWAP2 PUSH1 0x20 ADD SWAP2 PUSH2 0xF0D JUMP JUMPDEST DUP3 ADD SWAP2 SWAP1 PUSH0 MSTORE PUSH1 0x20 PUSH0 KECCAK256 SWAP1 JUMPDEST DUP2 SLOAD DUP2 MSTORE SWAP1 PUSH1 0x1 ADD SWAP1 PUSH1 0x20 ADD DUP1 DUP4 GT PUSH2 0xEF0 JUMPI DUP3 SWAP1 SUB PUSH1 0x1F AND DUP3 ADD SWAP2 JUMPDEST POP POP POP POP POP DUP2 MSTORE PUSH1 0x20 ADD PUSH1 0x7 DUP3 ADD DUP1 SLOAD PUSH2 0xF26 SWAP1 PUSH2 0x5AC3 JUMP JUMPDEST DUP1 PUSH1 0x1F ADD PUSH1 0x20 DUP1 SWAP2 DIV MUL PUSH1 0x20 ADD PUSH1 0x40 MLOAD SWAP1 DUP2 ADD PUSH1 0x40 MSTORE DUP1 SWAP3 SWAP2 SWAP1 DUP2 DUP2 MSTORE PUSH1 0x20 ADD DUP3 DUP1 SLOAD PUSH2 0xF52 SWAP1 PUSH2 0x5AC3 JUMP JUMPDEST DUP1 ISZERO PUSH2 0xF9D JUMPI DUP1 PUSH1 0x1F LT PUSH2 0xF74 JUMPI PUSH2 0x100 DUP1 DUP4 SLOAD DIV MUL DUP4 MSTORE SWAP2 PUSH1 0x20 ADD SWAP2 PUSH2 0xF9D JUMP JUMPDEST DUP3 ADD SWAP2 SWAP1 PUSH0 MSTORE PUSH1 0x20 PUSH0 KECCAK256 SWAP1 JUMPDEST DUP2 SLOAD DUP2 MSTORE SWAP1 PUSH1 0x1 ADD SWAP1 PUSH1 0x20 ADD DUP1 DUP4 GT PUSH2 0xF80 JUMPI DUP3 SWAP1 SUB PUSH1 0x1F AND DUP3 ADD SWAP2 JUMPDEST POP POP POP POP POP DUP2 MSTORE PUSH1 0x20 ADD PUSH1 0x8 DUP3 ADD DUP1 SLOAD PUSH2 0xFB6 SWAP1 PUSH2 0x5AC3 JUMP JUMPDEST DUP1 PUSH1 0x1F ADD PUSH1 0x20 DUP1 SWAP2 DIV MUL PUSH1 0x20 ADD PUSH1 0x40 MLOAD SWAP1 DUP2 ADD PUSH1 0x40 MSTORE DUP1 SWAP3 SWAP2 SWAP1 DUP2 DUP2 MSTORE PUSH1 0x20 ADD DUP3 DUP1 SLOAD PUSH2 0xFE2 SWAP1 PUSH2 0x5AC3 JUMP JUMPDEST DUP1 ISZERO PUSH2 0x102D JUMPI DUP1 PUSH1 0x1F LT PUSH2 0x1004 JUMPI PUSH2 0x100 DUP1 DUP4 SLOAD DIV MUL DUP4 MSTORE SWAP2 PUSH1 0x20 ADD SWAP2 PUSH2 0x102D JUMP JUMPDEST DUP3 ADD SWAP2 SWAP1 PUSH0 MSTORE PUSH1 0x20 PUSH0 KECCAK256 SWAP1 JUMPDEST DUP2 SLOAD DUP2 MSTORE SWAP1 PUSH1 0x1 ADD SWAP1 PUSH1 0x20 ADD DUP1 DUP4 GT PUSH2 0x1010 JUMPI DUP3 SWAP1 SUB PUSH1 0x1F AND DUP3 ADD SWAP2 JUMPDEST POP POP POP POP POP DUP2 MSTORE PUSH1 0x20 ADD PUSH1 0x9 DUP3 ADD DUP1 SLOAD PUSH2 0x1046 SWAP1 PUSH2 0x5AC3 JUMP JUMPDEST DUP1 PUSH1 0x1F ADD PUSH1 0x20 DUP1 SWAP2 DIV MUL PUSH1 0x20 ADD PUSH1 0x40 MLOAD SWAP1 DUP2 ADD PUSH1 0x40 MSTORE DUP1 SWAP3 SWAP2 SWAP1 DUP2 DUP2 MSTORE PUSH1 0x20 ADD DUP3 DUP1 SLOAD PUSH2 0x1072 SWAP1 PUSH2 0x5AC3 JUMP JUMPDEST DUP1 ISZERO PUSH2 0x10BD JUMPI DUP1 PUSH1 0x1F LT PUSH2 0x1094 JUMPI PUSH2 0x100 DUP1 DUP4 SLOAD DIV MUL DUP4 MSTORE SWAP2 PUSH1 0x20 ADD SWAP2 PUSH2 0x10BD JUMP JUMPDEST DUP3 ADD SWAP2 SWAP1 PUSH0 MSTORE PUSH1 0x20 PUSH0 KECCAK256 SWAP1 JUMPDEST DUP2 SLOAD DUP2 MSTORE SWAP1 PUSH1 0x1 ADD SWAP1 PUSH1 0x20 ADD DUP1 DUP4 GT PUSH2 0x10A0 JUMPI DUP3 SWAP1 SUB PUSH1 0x1F AND DUP3 ADD SWAP2 JUMPDEST POP POP POP POP POP DUP2 MSTORE POP POP DUP2 MSTORE POP POP DUP2 MSTORE PUSH1 0x20 ADD SWAP1 PUSH1 0x1 ADD SWAP1 PUSH2 0x907 JUMP JUMPDEST POP SWAP3 SWAP2 POP POP JUMP JUMPDEST PUSH2 0x10EA PUSH1 0x2 PUSH2 0x3BCC JUMP JUMPDEST PUSH1 0x40 DUP1 DUP6 ADD MLOAD DUP2 MLOAD PUSH2 0x140 DUP2 ADD SWAP1 SWAP3 MSTORE PUSH2 0x1174 SWAP2 PUSH1 0x6 PUSH1 0xA PUSH0 DUP4 JUMPDEST DUP3 DUP3 LT ISZERO PUSH2 0x1168 JUMPI PUSH1 0x40 DUP1 MLOAD PUSH2 0x140 DUP2 ADD SWAP2 DUP3 SWAP1 MSTORE SWAP1 DUP6 DUP5 ADD SWAP1 PUSH1 0xA SWAP1 DUP3 PUSH0 DUP6 JUMPDEST DUP3 SLOAD PUSH2 0x100 DUP4 SWAP1 EXP SWAP1 DIV PUSH1 0xFF AND DUP2 MSTORE PUSH1 0x20 PUSH1 0x1 SWAP3 DUP4 ADD DUP2 DUP2 DIV SWAP5 DUP6 ADD SWAP5 SWAP1 SWAP4 SUB SWAP1 SWAP3 MUL SWAP2 ADD DUP1 DUP5 GT PUSH2 0x1126 JUMPI SWAP1 POP POP POP POP POP POP DUP2 MSTORE PUSH1 0x20 ADD SWAP1 PUSH1 0x1 ADD SWAP1 PUSH2 0x1105 JUMP JUMPDEST POP POP POP POP PUSH1 0x2 PUSH0 PUSH2 0x3C13 JUMP JUMPDEST PUSH0 DUP1 JUMPDEST PUSH1 0x4 SLOAD DUP2 LT ISZERO PUSH2 0x2186 JUMPI DUP5 DUP1 MLOAD SWAP1 PUSH1 0x20 ADD KECCAK256 PUSH1 0x4 DUP3 DUP2 SLOAD DUP2 LT PUSH2 0x119C JUMPI PUSH2 0x119C PUSH2 0x5B14 JUMP JUMPDEST SWAP1 PUSH0 MSTORE PUSH1 0x20 PUSH0 KECCAK256 SWAP1 PUSH1 0xF MUL ADD PUSH1 0x3 ADD PUSH1 0x40 MLOAD PUSH2 0x11B8 SWAP2 SWAP1 PUSH2 0x5B41 JUMP JUMPDEST PUSH1 0x40 MLOAD DUP1 SWAP2 SUB SWAP1 KECCAK256 SUB PUSH2 0x217E JUMPI PUSH0 JUMPDEST PUSH1 0x2 SLOAD PUSH1 0xFF DUP3 AND LT ISZERO PUSH2 0x217C JUMPI PUSH1 0x2 DUP2 PUSH1 0xFF AND DUP2 SLOAD DUP2 LT PUSH2 0x11EA JUMPI PUSH2 0x11EA PUSH2 0x5B14 JUMP JUMPDEST SWAP1 PUSH0 MSTORE PUSH1 0x20 PUSH0 KECCAK256 SWAP1 PUSH1 0x20 SWAP2 DUP3 DUP3 DIV ADD SWAP2 SWAP1 MOD SWAP1 SLOAD SWAP1 PUSH2 0x100 EXP SWAP1 DIV PUSH1 0xFF AND PUSH1 0xFF AND PUSH1 0x4 DUP4 DUP2 SLOAD DUP2 LT PUSH2 0x121E JUMPI PUSH2 0x121E PUSH2 0x5B14 JUMP JUMPDEST PUSH0 SWAP2 DUP3 MSTORE PUSH1 0x20 SWAP1 SWAP2 KECCAK256 PUSH1 0xF SWAP1 SWAP2 MUL ADD PUSH1 0x1 ADD SLOAD PUSH2 0x100 SWAP1 DIV PUSH1 0xFF AND SUB PUSH2 0x216A JUMPI PUSH0 PUSH2 0x1815 DUP6 PUSH1 0x4 DUP6 DUP2 SLOAD DUP2 LT PUSH2 0x1256 JUMPI PUSH2 0x1256 PUSH2 0x5B14 JUMP JUMPDEST SWAP1 PUSH0 MSTORE PUSH1 0x20 PUSH0 KECCAK256 SWAP1 PUSH1 0xF MUL ADD PUSH1 0x5 ADD PUSH1 0x40 MLOAD DUP1 PUSH2 0x140 ADD PUSH1 0x40 MSTORE SWAP1 DUP2 PUSH0 DUP3 ADD DUP1 SLOAD PUSH2 0x1280 SWAP1 PUSH2 0x5AC3 JUMP JUMPDEST DUP1 PUSH1 0x1F ADD PUSH1 0x20 DUP1 SWAP2 DIV MUL PUSH1 0x20 ADD PUSH1 0x40 MLOAD SWAP1 DUP2 ADD PUSH1 0x40 MSTORE DUP1 SWAP3 SWAP2 SWAP1 DUP2 DUP2 MSTORE PUSH1 0x20 ADD DUP3 DUP1 SLOAD PUSH2 0x12AC SWAP1 PUSH2 0x5AC3 JUMP JUMPDEST DUP1 ISZERO PUSH2 0x12F7 JUMPI DUP1 PUSH1 0x1F LT PUSH2 0x12CE JUMPI PUSH2 0x100 DUP1 DUP4 SLOAD DIV MUL DUP4 MSTORE SWAP2 PUSH1 0x20 ADD SWAP2 PUSH2 0x12F7 JUMP JUMPDEST DUP3 ADD SWAP2 SWAP1 PUSH0 MSTORE PUSH1 0x20 PUSH0 KECCAK256 SWAP1 JUMPDEST DUP2 SLOAD DUP2 MSTORE SWAP1 PUSH1 0x1 ADD SWAP1 PUSH1 0x20 ADD DUP1 DUP4 GT PUSH2 0x12DA JUMPI DUP3 SWAP1 SUB PUSH1 0x1F AND DUP3 ADD SWAP2 JUMPDEST POP POP POP POP POP DUP2 MSTORE PUSH1 0x20 ADD PUSH1 0x1 DUP3 ADD DUP1 SLOAD PUSH2 0x1310 SWAP1 PUSH2 0x5AC3 JUMP JUMPDEST DUP1 PUSH1 0x1F ADD PUSH1 0x20 DUP1 SWAP2 DIV MUL PUSH1 0x20 ADD PUSH1 0x40 MLOAD SWAP1 DUP2 ADD PUSH1 0x40 MSTORE DUP1 SWAP3 SWAP2 SWAP1 DUP2 DUP2 MSTORE PUSH1 0x20 ADD DUP3 DUP1 SLOAD PUSH2 0x133C SWAP1 PUSH2 0x5AC3 JUMP JUMPDEST DUP1 ISZERO PUSH2 0x1387 JUMPI DUP1 PUSH1 0x1F LT PUSH2 0x135E JUMPI PUSH2 0x100 DUP1 DUP4 SLOAD DIV MUL DUP4 MSTORE SWAP2 PUSH1 0x20 ADD SWAP2 PUSH2 0x1387 JUMP JUMPDEST DUP3 ADD SWAP2 SWAP1 PUSH0 MSTORE PUSH1 0x20 PUSH0 KECCAK256 SWAP1 JUMPDEST DUP2 SLOAD DUP2 MSTORE SWAP1 PUSH1 0x1 ADD SWAP1 PUSH1 0x20 ADD DUP1 DUP4 GT PUSH2 0x136A JUMPI DUP3 SWAP1 SUB PUSH1 0x1F AND DUP3 ADD SWAP2 JUMPDEST POP POP POP POP POP DUP2 MSTORE PUSH1 0x20 ADD PUSH1 0x2 DUP3 ADD DUP1 SLOAD PUSH2 0x13A0 SWAP1 PUSH2 0x5AC3 JUMP JUMPDEST DUP1 PUSH1 0x1F ADD PUSH1 0x20 DUP1 SWAP2 DIV MUL PUSH1 0x20 ADD PUSH1 0x40 MLOAD SWAP1 DUP2 ADD PUSH1 0x40 MSTORE DUP1 SWAP3 SWAP2 SWAP1 DUP2 DUP2 MSTORE PUSH1 0x20 ADD DUP3 DUP1 SLOAD PUSH2 0x13CC SWAP1 PUSH2 0x5AC3 JUMP JUMPDEST DUP1 ISZERO PUSH2 0x1417 JUMPI DUP1 PUSH1 0x1F LT PUSH2 0x13EE JUMPI PUSH2 0x100 DUP1 DUP4 SLOAD DIV MUL DUP4 MSTORE SWAP2 PUSH1 0x20 ADD SWAP2 PUSH2 0x1417 JUMP JUMPDEST DUP3 ADD SWAP2 SWAP1 PUSH0 MSTORE PUSH1 0x20 PUSH0 KECCAK256 SWAP1 JUMPDEST DUP2 SLOAD DUP2 MSTORE SWAP1 PUSH1 0x1 ADD SWAP1 PUSH1 0x20 ADD DUP1 DUP4 GT PUSH2 0x13FA JUMPI DUP3 SWAP1 SUB PUSH1 0x1F AND DUP3 ADD SWAP2 JUMPDEST POP POP POP POP POP DUP2 MSTORE PUSH1 0x20 ADD PUSH1 0x3 DUP3 ADD DUP1 SLOAD PUSH2 0x1430 SWAP1 PUSH2 0x5AC3 JUMP JUMPDEST DUP1 PUSH1 0x1F ADD PUSH1 0x20 DUP1 SWAP2 DIV MUL PUSH1 0x20 ADD PUSH1 0x40 MLOAD SWAP1 DUP2 ADD PUSH1 0x40 MSTORE DUP1 SWAP3 SWAP2 SWAP1 DUP2 DUP2 MSTORE PUSH1 0x20 ADD DUP3 DUP1 SLOAD PUSH2 0x145C SWAP1 PUSH2 0x5AC3 JUMP JUMPDEST DUP1 ISZERO PUSH2 0x14A7 JUMPI DUP1 PUSH1 0x1F LT PUSH2 0x147E JUMPI PUSH2 0x100 DUP1 DUP4 SLOAD DIV MUL DUP4 MSTORE SWAP2 PUSH1 0x20 ADD SWAP2 PUSH2 0x14A7 JUMP JUMPDEST DUP3 ADD SWAP2 SWAP1 PUSH0 MSTORE PUSH1 0x20 PUSH0 KECCAK256 SWAP1 JUMPDEST DUP2 SLOAD DUP2 MSTORE SWAP1 PUSH1 0x1 ADD SWAP1 PUSH1 0x20 ADD DUP1 DUP4 GT PUSH2 0x148A JUMPI DUP3 SWAP1 SUB PUSH1 0x1F AND DUP3 ADD SWAP2 JUMPDEST POP POP POP POP POP DUP2 MSTORE PUSH1 0x20 ADD PUSH1 0x4 DUP3 ADD DUP1 SLOAD PUSH2 0x14C0 SWAP1 PUSH2 0x5AC3 JUMP JUMPDEST DUP1 PUSH1 0x1F ADD PUSH1 0x20 DUP1 SWAP2 DIV MUL PUSH1 0x20 ADD PUSH1 0x40 MLOAD SWAP1 DUP2 ADD PUSH1 0x40 MSTORE DUP1 SWAP3 SWAP2 SWAP1 DUP2 DUP2 MSTORE PUSH1 0x20 ADD DUP3 DUP1 SLOAD PUSH2 0x14EC SWAP1 PUSH2 0x5AC3 JUMP JUMPDEST DUP1 ISZERO PUSH2 0x1537 JUMPI DUP1 PUSH1 0x1F LT PUSH2 0x150E JUMPI PUSH2 0x100 DUP1 DUP4 SLOAD DIV MUL DUP4 MSTORE SWAP2 PUSH1 0x20 ADD SWAP2 PUSH2 0x1537 JUMP JUMPDEST DUP3 ADD SWAP2 SWAP1 PUSH0 MSTORE PUSH1 0x20 PUSH0 KECCAK256 SWAP1 JUMPDEST DUP2 SLOAD DUP2 MSTORE SWAP1 PUSH1 0x1 ADD SWAP1 PUSH1 0x20 ADD DUP1 DUP4 GT PUSH2 0x151A JUMPI DUP3 SWAP1 SUB PUSH1 0x1F AND DUP3 ADD SWAP2 JUMPDEST POP POP POP POP POP DUP2 MSTORE PUSH1 0x20 ADD PUSH1 0x5 DUP3 ADD DUP1 SLOAD PUSH2 0x1550 SWAP1 PUSH2 0x5AC3 JUMP JUMPDEST DUP1 PUSH1 0x1F ADD PUSH1 0x20 DUP1 SWAP2 DIV MUL PUSH1 0x20 ADD PUSH1 0x40 MLOAD SWAP1 DUP2 ADD PUSH1 0x40 MSTORE DUP1 SWAP3 SWAP2 SWAP1 DUP2 DUP2 MSTORE PUSH1 0x20 ADD DUP3 DUP1 SLOAD PUSH2 0x157C SWAP1 PUSH2 0x5AC3 JUMP JUMPDEST DUP1 ISZERO PUSH2 0x15C7 JUMPI DUP1 PUSH1 0x1F LT PUSH2 0x159E JUMPI PUSH2 0x100 DUP1 DUP4 SLOAD DIV MUL DUP4 MSTORE SWAP2 PUSH1 0x20 ADD SWAP2 PUSH2 0x15C7 JUMP JUMPDEST DUP3 ADD SWAP2 SWAP1 PUSH0 MSTORE PUSH1 0x20 PUSH0 KECCAK256 SWAP1 JUMPDEST DUP2 SLOAD DUP2 MSTORE SWAP1 PUSH1 0x1 ADD SWAP1 PUSH1 0x20 ADD DUP1 DUP4 GT PUSH2 0x15AA JUMPI DUP3 SWAP1 SUB PUSH1 0x1F AND DUP3 ADD SWAP2 JUMPDEST POP POP POP POP POP DUP2 MSTORE PUSH1 0x20 ADD PUSH1 0x6 DUP3 ADD DUP1 SLOAD PUSH2 0x15E0 SWAP1 PUSH2 0x5AC3 JUMP JUMPDEST DUP1 PUSH1 0x1F ADD PUSH1 0x20 DUP1 SWAP2 DIV MUL PUSH1 0x20 ADD PUSH1 0x40 MLOAD SWAP1 DUP2 ADD PUSH1 0x40 MSTORE DUP1 SWAP3 SWAP2 SWAP1 DUP2 DUP2 MSTORE PUSH1 0x20 ADD DUP3 DUP1 SLOAD PUSH2 0x160C SWAP1 PUSH2 0x5AC3 JUMP JUMPDEST DUP1 ISZERO PUSH2 0x1657 JUMPI DUP1 PUSH1 0x1F LT PUSH2 0x162E JUMPI PUSH2 0x100 DUP1 DUP4 SLOAD DIV MUL DUP4 MSTORE SWAP2 PUSH1 0x20 ADD SWAP2 PUSH2 0x1657 JUMP JUMPDEST DUP3 ADD SWAP2 SWAP1 PUSH0 MSTORE PUSH1 0x20 PUSH0 KECCAK256 SWAP1 JUMPDEST DUP2 SLOAD DUP2 MSTORE SWAP1 PUSH1 0x1 ADD SWAP1 PUSH1 0x20 ADD DUP1 DUP4 GT PUSH2 0x163A JUMPI DUP3 SWAP1 SUB PUSH1 0x1F AND DUP3 ADD SWAP2 JUMPDEST POP POP POP POP POP DUP2 MSTORE PUSH1 0x20 ADD PUSH1 0x7 DUP3 ADD DUP1 SLOAD PUSH2 0x1670 SWAP1 PUSH2 0x5AC3 JUMP JUMPDEST DUP1 PUSH1 0x1F ADD PUSH1 0x20 DUP1 SWAP2 DIV MUL PUSH1 0x20 ADD PUSH1 0x40 MLOAD SWAP1 DUP2 ADD PUSH1 0x40 MSTORE DUP1 SWAP3 SWAP2 SWAP1 DUP2 DUP2 MSTORE PUSH1 0x20 ADD DUP3 DUP1 SLOAD PUSH2 0x169C SWAP1 PUSH2 0x5AC3 JUMP JUMPDEST DUP1 ISZERO PUSH2 0x16E7 JUMPI DUP1 PUSH1 0x1F LT PUSH2 0x16BE JUMPI PUSH2 0x100 DUP1 DUP4 SLOAD DIV MUL DUP4 MSTORE SWAP2 PUSH1 0x20 ADD SWAP2 PUSH2 0x16E7 JUMP JUMPDEST DUP3 ADD SWAP2 SWAP1 PUSH0 MSTORE PUSH1 0x20 PUSH0 KECCAK256 SWAP1 JUMPDEST DUP2 SLOAD DUP2 MSTORE SWAP1 PUSH1 0x1 ADD SWAP1 PUSH1 0x20 ADD DUP1 DUP4 GT PUSH2 0x16CA JUMPI DUP3 SWAP1 SUB PUSH1 0x1F AND DUP3 ADD SWAP2 JUMPDEST POP POP POP POP POP DUP2 MSTORE PUSH1 0x20 ADD PUSH1 0x8 DUP3 ADD DUP1 SLOAD PUSH2 0x1700 SWAP1 PUSH2 0x5AC3 JUMP JUMPDEST DUP1 PUSH1 0x1F ADD PUSH1 0x20 DUP1 SWAP2 DIV MUL PUSH1 0x20 ADD PUSH1 0x40 MLOAD SWAP1 DUP2 ADD PUSH1 0x40 MSTORE DUP1 SWAP3 SWAP2 SWAP1 DUP2 DUP2 MSTORE PUSH1 0x20 ADD DUP3 DUP1 SLOAD PUSH2 0x172C SWAP1 PUSH2 0x5AC3 JUMP JUMPDEST DUP1 ISZERO PUSH2 0x1777 JUMPI DUP1 PUSH1 0x1F LT PUSH2 0x174E JUMPI PUSH2 0x100 DUP1 DUP4 SLOAD DIV MUL DUP4 MSTORE SWAP2 PUSH1 0x20 ADD SWAP2 PUSH2 0x1777 JUMP JUMPDEST DUP3 ADD SWAP2 SWAP1 PUSH0 MSTORE PUSH1 0x20 PUSH0 KECCAK256 SWAP1 JUMPDEST DUP2 SLOAD DUP2 MSTORE SWAP1 PUSH1 0x1 ADD SWAP1 PUSH1 0x20 ADD DUP1 DUP4 GT PUSH2 0x175A JUMPI DUP3 SWAP1 SUB PUSH1 0x1F AND DUP3 ADD SWAP2 JUMPDEST POP POP POP POP POP DUP2 MSTORE PUSH1 0x20 ADD PUSH1 0x9 DUP3 ADD DUP1 SLOAD PUSH2 0x1790 SWAP1 PUSH2 0x5AC3 JUMP JUMPDEST DUP1 PUSH1 0x1F ADD PUSH1 0x20 DUP1 SWAP2 DIV MUL PUSH1 0x20 ADD PUSH1 0x40 MLOAD SWAP1 DUP2 ADD PUSH1 0x40 MSTORE DUP1 SWAP3 SWAP2 SWAP1 DUP2 DUP2 MSTORE PUSH1 0x20 ADD DUP3 DUP1 SLOAD PUSH2 0x17BC SWAP1 PUSH2 0x5AC3 JUMP JUMPDEST DUP1 ISZERO PUSH2 0x1807 JUMPI DUP1 PUSH1 0x1F LT PUSH2 0x17DE JUMPI PUSH2 0x100 DUP1 DUP4 SLOAD DIV MUL DUP4 MSTORE SWAP2 PUSH1 0x20 ADD SWAP2 PUSH2 0x1807 JUMP JUMPDEST DUP3 ADD SWAP2 SWAP1 PUSH0 MSTORE PUSH1 0x20 PUSH0 KECCAK256 SWAP1 JUMPDEST DUP2 SLOAD DUP2 MSTORE SWAP1 PUSH1 0x1 ADD SWAP1 PUSH1 0x20 ADD DUP1 DUP4 GT PUSH2 0x17EA JUMPI DUP3 SWAP1 SUB PUSH1 0x1F AND DUP3 ADD SWAP2 JUMPDEST POP POP POP POP POP DUP2 MSTORE POP POP PUSH2 0x3D89 JUMP JUMPDEST SWAP1 POP PUSH2 0x1822 DUP8 PUSH1 0x1 PUSH2 0x3EAB JUMP JUMPDEST DUP2 PUSH1 0xFF AND LT PUSH2 0x2168 JUMPI PUSH1 0x1 SWAP4 POP PUSH32 0x9F3AD7E297074403EBBE6920FCFC9EAD722B9CF562608507477325D0687D87BE PUSH1 0x4 DUP5 DUP2 SLOAD DUP2 LT PUSH2 0x1863 JUMPI PUSH2 0x1863 PUSH2 0x5B14 JUMP JUMPDEST SWAP1 PUSH0 MSTORE PUSH1 0x20 PUSH0 KECCAK256 SWAP1 PUSH1 0xF MUL ADD PUSH0 ADD PUSH1 0x4 DUP6 DUP2 SLOAD DUP2 LT PUSH2 0x1884 JUMPI PUSH2 0x1884 PUSH2 0x5B14 JUMP JUMPDEST SWAP1 PUSH0 MSTORE PUSH1 0x20 PUSH0 KECCAK256 SWAP1 PUSH1 0xF MUL ADD PUSH1 0x3 ADD PUSH1 0x4 DUP7 DUP2 SLOAD DUP2 LT PUSH2 0x18A6 JUMPI PUSH2 0x18A6 PUSH2 0x5B14 JUMP JUMPDEST PUSH0 SWAP2 DUP3 MSTORE PUSH1 0x20 SWAP1 SWAP2 KECCAK256 PUSH1 0x4 PUSH1 0xF SWAP1 SWAP3 MUL ADD ADD SLOAD PUSH1 0xFF AND PUSH2 0x18C7 DUP6 PUSH1 0xA PUSH2 0x5BDF JUMP JUMPDEST PUSH1 0x40 MLOAD PUSH2 0x18D7 SWAP5 SWAP4 SWAP3 SWAP2 SWAP1 PUSH2 0x5C7A JUMP JUMPDEST PUSH1 0x40 MLOAD DUP1 SWAP2 SUB SWAP1 LOG1 PUSH0 PUSH1 0x4 DUP5 DUP2 SLOAD DUP2 LT PUSH2 0x18F3 JUMPI PUSH2 0x18F3 PUSH2 0x5B14 JUMP JUMPDEST PUSH0 SWAP2 DUP3 MSTORE PUSH1 0x20 SWAP1 SWAP2 KECCAK256 PUSH1 0x4 PUSH1 0xF SWAP1 SWAP3 MUL ADD ADD SLOAD PUSH2 0x1913 SWAP1 PUSH1 0xFF AND DUP9 PUSH2 0x5CF6 JUMP JUMPDEST SWAP1 POP PUSH0 DUP2 PUSH0 SIGNEXTEND SGT ISZERO PUSH2 0x20E2 JUMPI PUSH2 0x20C2 PUSH1 0x5 DUP11 PUSH1 0x4 DUP8 DUP2 SLOAD DUP2 LT PUSH2 0x1938 JUMPI PUSH2 0x1938 PUSH2 0x5B14 JUMP JUMPDEST SWAP1 PUSH0 MSTORE PUSH1 0x20 PUSH0 KECCAK256 SWAP1 PUSH1 0xF MUL ADD PUSH0 ADD PUSH1 0x40 MLOAD DUP1 PUSH1 0x80 ADD PUSH1 0x40 MSTORE SWAP1 DUP2 PUSH0 DUP3 ADD DUP1 SLOAD PUSH2 0x1960 SWAP1 PUSH2 0x5AC3 JUMP JUMPDEST DUP1 PUSH1 0x1F ADD PUSH1 0x20 DUP1 SWAP2 DIV MUL PUSH1 0x20 ADD PUSH1 0x40 MLOAD SWAP1 DUP2 ADD PUSH1 0x40 MSTORE DUP1 SWAP3 SWAP2 SWAP1 DUP2 DUP2 MSTORE PUSH1 0x20 ADD DUP3 DUP1 SLOAD PUSH2 0x198C SWAP1 PUSH2 0x5AC3 JUMP JUMPDEST DUP1 ISZERO PUSH2 0x19D7 JUMPI DUP1 PUSH1 0x1F LT PUSH2 0x19AE JUMPI PUSH2 0x100 DUP1 DUP4 SLOAD DIV MUL DUP4 MSTORE SWAP2 PUSH1 0x20 ADD SWAP2 PUSH2 0x19D7 JUMP JUMPDEST DUP3 ADD SWAP2 SWAP1 PUSH0 MSTORE PUSH1 0x20 PUSH0 KECCAK256 SWAP1 JUMPDEST DUP2 SLOAD DUP2 MSTORE SWAP1 PUSH1 0x1 ADD SWAP1 PUSH1 0x20 ADD DUP1 DUP4 GT PUSH2 0x19BA JUMPI DUP3 SWAP1 SUB PUSH1 0x1F AND DUP3 ADD SWAP2 JUMPDEST POP POP POP SWAP2 DUP4 MSTORE POP POP PUSH1 0x1 DUP3 ADD SLOAD PUSH1 0xFF DUP1 DUP3 AND PUSH1 0x20 DUP5 ADD MSTORE PUSH2 0x100 SWAP1 SWAP2 DIV AND PUSH1 0x40 DUP3 ADD MSTORE PUSH1 0x2 DUP3 ADD DUP1 SLOAD PUSH1 0x60 SWAP1 SWAP3 ADD SWAP2 PUSH2 0x1A0F SWAP1 PUSH2 0x5AC3 JUMP JUMPDEST DUP1 PUSH1 0x1F ADD PUSH1 0x20 DUP1 SWAP2 DIV MUL PUSH1 0x20 ADD PUSH1 0x40 MLOAD SWAP1 DUP2 ADD PUSH1 0x40 MSTORE DUP1 SWAP3 SWAP2 SWAP1 DUP2 DUP2 MSTORE PUSH1 0x20 ADD DUP3 DUP1 SLOAD PUSH2 0x1A3B SWAP1 PUSH2 0x5AC3 JUMP JUMPDEST DUP1 ISZERO PUSH2 0x1A86 JUMPI DUP1 PUSH1 0x1F LT PUSH2 0x1A5D JUMPI PUSH2 0x100 DUP1 DUP4 SLOAD DIV MUL DUP4 MSTORE SWAP2 PUSH1 0x20 ADD SWAP2 PUSH2 0x1A86 JUMP JUMPDEST DUP3 ADD SWAP2 SWAP1 PUSH0 MSTORE PUSH1 0x20 PUSH0 KECCAK256 SWAP1 JUMPDEST DUP2 SLOAD DUP2 MSTORE SWAP1 PUSH1 0x1 ADD SWAP1 PUSH1 0x20 ADD DUP1 DUP4 GT PUSH2 0x1A69 JUMPI DUP3 SWAP1 SUB PUSH1 0x1F AND DUP3 ADD SWAP2 JUMPDEST POP POP POP POP POP DUP2 MSTORE POP POP DUP12 DUP12 PUSH1 0x4 DUP11 DUP2 SLOAD DUP2 LT PUSH2 0x1AA4 JUMPI PUSH2 0x1AA4 PUSH2 0x5B14 JUMP JUMPDEST SWAP1 PUSH0 MSTORE PUSH1 0x20 PUSH0 KECCAK256 SWAP1 PUSH1 0xF MUL ADD PUSH1 0x4 ADD PUSH0 SWAP1 SLOAD SWAP1 PUSH2 0x100 EXP SWAP1 DIV PUSH1 0xFF AND PUSH1 0x4 DUP12 DUP2 SLOAD DUP2 LT PUSH2 0x1AD3 JUMPI PUSH2 0x1AD3 PUSH2 0x5B14 JUMP JUMPDEST SWAP1 PUSH0 MSTORE PUSH1 0x20 PUSH0 KECCAK256 SWAP1 PUSH1 0xF MUL ADD PUSH1 0x4 ADD PUSH0 SWAP1 SLOAD SWAP1 PUSH2 0x100 EXP SWAP1 DIV PUSH1 0xFF AND DUP14 PUSH1 0x4 DUP14 DUP2 SLOAD DUP2 LT PUSH2 0x1B03 JUMPI PUSH2 0x1B03 PUSH2 0x5B14 JUMP JUMPDEST SWAP1 PUSH0 MSTORE PUSH1 0x20 PUSH0 KECCAK256 SWAP1 PUSH1 0xF MUL ADD PUSH1 0x5 ADD PUSH1 0x40 MLOAD DUP1 PUSH2 0x140 ADD PUSH1 0x40 MSTORE SWAP1 DUP2 PUSH0 DUP3 ADD DUP1 SLOAD PUSH2 0x1B2D SWAP1 PUSH2 0x5AC3 JUMP JUMPDEST DUP1 PUSH1 0x1F ADD PUSH1 0x20 DUP1 SWAP2 DIV MUL PUSH1 0x20 ADD PUSH1 0x40 MLOAD SWAP1 DUP2 ADD PUSH1 0x40 MSTORE DUP1 SWAP3 SWAP2 SWAP1 DUP2 DUP2 MSTORE PUSH1 0x20 ADD DUP3 DUP1 SLOAD PUSH2 0x1B59 SWAP1 PUSH2 0x5AC3 JUMP JUMPDEST DUP1 ISZERO PUSH2 0x1BA4 JUMPI DUP1 PUSH1 0x1F LT PUSH2 0x1B7B JUMPI PUSH2 0x100 DUP1 DUP4 SLOAD DIV MUL DUP4 MSTORE SWAP2 PUSH1 0x20 ADD SWAP2 PUSH2 0x1BA4 JUMP JUMPDEST DUP3 ADD SWAP2 SWAP1 PUSH0 MSTORE PUSH1 0x20 PUSH0 KECCAK256 SWAP1 JUMPDEST DUP2 SLOAD DUP2 MSTORE SWAP1 PUSH1 0x1 ADD SWAP1 PUSH1 0x20 ADD DUP1 DUP4 GT PUSH2 0x1B87 JUMPI DUP3 SWAP1 SUB PUSH1 0x1F AND DUP3 ADD SWAP2 JUMPDEST POP POP POP POP POP DUP2 MSTORE PUSH1 0x20 ADD PUSH1 0x1 DUP3 ADD DUP1 SLOAD PUSH2 0x1BBD SWAP1 PUSH2 0x5AC3 JUMP JUMPDEST DUP1 PUSH1 0x1F ADD PUSH1 0x20 DUP1 SWAP2 DIV MUL PUSH1 0x20 ADD PUSH1 0x40 MLOAD SWAP1 DUP2 ADD PUSH1 0x40 MSTORE DUP1 SWAP3 SWAP2 SWAP1 DUP2 DUP2 MSTORE PUSH1 0x20 ADD DUP3 DUP1 SLOAD PUSH2 0x1BE9 SWAP1 PUSH2 0x5AC3 JUMP JUMPDEST DUP1 ISZERO PUSH2 0x1C34 JUMPI DUP1 PUSH1 0x1F LT PUSH2 0x1C0B JUMPI PUSH2 0x100 DUP1 DUP4 SLOAD DIV MUL DUP4 MSTORE SWAP2 PUSH1 0x20 ADD SWAP2 PUSH2 0x1C34 JUMP JUMPDEST DUP3 ADD SWAP2 SWAP1 PUSH0 MSTORE PUSH1 0x20 PUSH0 KECCAK256 SWAP1 JUMPDEST DUP2 SLOAD DUP2 MSTORE SWAP1 PUSH1 0x1 ADD SWAP1 PUSH1 0x20 ADD DUP1 DUP4 GT PUSH2 0x1C17 JUMPI DUP3 SWAP1 SUB PUSH1 0x1F AND DUP3 ADD SWAP2 JUMPDEST POP POP POP POP POP DUP2 MSTORE PUSH1 0x20 ADD PUSH1 0x2 DUP3 ADD DUP1 SLOAD PUSH2 0x1C4D SWAP1 PUSH2 0x5AC3 JUMP JUMPDEST DUP1 PUSH1 0x1F ADD PUSH1 0x20 DUP1 SWAP2 DIV MUL PUSH1 0x20 ADD PUSH1 0x40 MLOAD SWAP1 DUP2 ADD PUSH1 0x40 MSTORE DUP1 SWAP3 SWAP2 SWAP1 DUP2 DUP2 MSTORE PUSH1 0x20 ADD DUP3 DUP1 SLOAD PUSH2 0x1C79 SWAP1 PUSH2 0x5AC3 JUMP JUMPDEST DUP1 ISZERO PUSH2 0x1CC4 JUMPI DUP1 PUSH1 0x1F LT PUSH2 0x1C9B JUMPI PUSH2 0x100 DUP1 DUP4 SLOAD DIV MUL DUP4 MSTORE SWAP2 PUSH1 0x20 ADD SWAP2 PUSH2 0x1CC4 JUMP JUMPDEST DUP3 ADD SWAP2 SWAP1 PUSH0 MSTORE PUSH1 0x20 PUSH0 KECCAK256 SWAP1 JUMPDEST DUP2 SLOAD DUP2 MSTORE SWAP1 PUSH1 0x1 ADD SWAP1 PUSH1 0x20 ADD DUP1 DUP4 GT PUSH2 0x1CA7 JUMPI DUP3 SWAP1 SUB PUSH1 0x1F AND DUP3 ADD SWAP2 JUMPDEST POP POP POP POP POP DUP2 MSTORE PUSH1 0x20 ADD PUSH1 0x3 DUP3 ADD DUP1 SLOAD PUSH2 0x1CDD SWAP1 PUSH2 0x5AC3 JUMP JUMPDEST DUP1 PUSH1 0x1F ADD PUSH1 0x20 DUP1 SWAP2 DIV MUL PUSH1 0x20 ADD PUSH1 0x40 MLOAD SWAP1 DUP2 ADD PUSH1 0x40 MSTORE DUP1 SWAP3 SWAP2 SWAP1 DUP2 DUP2 MSTORE PUSH1 0x20 ADD DUP3 DUP1 SLOAD PUSH2 0x1D09 SWAP1 PUSH2 0x5AC3 JUMP JUMPDEST DUP1 ISZERO PUSH2 0x1D54 JUMPI DUP1 PUSH1 0x1F LT PUSH2 0x1D2B JUMPI PUSH2 0x100 DUP1 DUP4 SLOAD DIV MUL DUP4 MSTORE SWAP2 PUSH1 0x20 ADD SWAP2 PUSH2 0x1D54 JUMP JUMPDEST DUP3 ADD SWAP2 SWAP1 PUSH0 MSTORE PUSH1 0x20 PUSH0 KECCAK256 SWAP1 JUMPDEST DUP2 SLOAD DUP2 MSTORE SWAP1 PUSH1 0x1 ADD SWAP1 PUSH1 0x20 ADD DUP1 DUP4 GT PUSH2 0x1D37 JUMPI DUP3 SWAP1 SUB PUSH1 0x1F AND DUP3 ADD SWAP2 JUMPDEST POP POP POP POP POP DUP2 MSTORE PUSH1 0x20 ADD PUSH1 0x4 DUP3 ADD DUP1 SLOAD PUSH2 0x1D6D SWAP1 PUSH2 0x5AC3 JUMP JUMPDEST DUP1 PUSH1 0x1F ADD PUSH1 0x20 DUP1 SWAP2 DIV MUL PUSH1 0x20 ADD PUSH1 0x40 MLOAD SWAP1 DUP2 ADD PUSH1 0x40 MSTORE DUP1 SWAP3 SWAP2 SWAP1 DUP2 DUP2 MSTORE PUSH1 0x20 ADD DUP3 DUP1 SLOAD PUSH2 0x1D99 SWAP1 PUSH2 0x5AC3 JUMP JUMPDEST DUP1 ISZERO PUSH2 0x1DE4 JUMPI DUP1 PUSH1 0x1F LT PUSH2 0x1DBB JUMPI PUSH2 0x100 DUP1 DUP4 SLOAD DIV MUL DUP4 MSTORE SWAP2 PUSH1 0x20 ADD SWAP2 PUSH2 0x1DE4 JUMP JUMPDEST DUP3 ADD SWAP2 SWAP1 PUSH0 MSTORE PUSH1 0x20 PUSH0 KECCAK256 SWAP1 JUMPDEST DUP2 SLOAD DUP2 MSTORE SWAP1 PUSH1 0x1 ADD SWAP1 PUSH1 0x20 ADD DUP1 DUP4 GT PUSH2 0x1DC7 JUMPI DUP3 SWAP1 SUB PUSH1 0x1F AND DUP3 ADD SWAP2 JUMPDEST POP POP POP POP POP DUP2 MSTORE PUSH1 0x20 ADD PUSH1 0x5 DUP3 ADD DUP1 SLOAD PUSH2 0x1DFD SWAP1 PUSH2 0x5AC3 JUMP JUMPDEST DUP1 PUSH1 0x1F ADD PUSH1 0x20 DUP1 SWAP2 DIV MUL PUSH1 0x20 ADD PUSH1 0x40 MLOAD SWAP1 DUP2 ADD PUSH1 0x40 MSTORE DUP1 SWAP3 SWAP2 SWAP1 DUP2 DUP2 MSTORE PUSH1 0x20 ADD DUP3 DUP1 SLOAD PUSH2 0x1E29 SWAP1 PUSH2 0x5AC3 JUMP JUMPDEST DUP1 ISZERO PUSH2 0x1E74 JUMPI DUP1 PUSH1 0x1F LT PUSH2 0x1E4B JUMPI PUSH2 0x100 DUP1 DUP4 SLOAD DIV MUL DUP4 MSTORE SWAP2 PUSH1 0x20 ADD SWAP2 PUSH2 0x1E74 JUMP JUMPDEST DUP3 ADD SWAP2 SWAP1 PUSH0 MSTORE PUSH1 0x20 PUSH0 KECCAK256 SWAP1 JUMPDEST DUP2 SLOAD DUP2 MSTORE SWAP1 PUSH1 0x1 ADD SWAP1 PUSH1 0x20 ADD DUP1 DUP4 GT PUSH2 0x1E57 JUMPI DUP3 SWAP1 SUB PUSH1 0x1F AND DUP3 ADD SWAP2 JUMPDEST POP POP POP POP POP DUP2 MSTORE PUSH1 0x20 ADD PUSH1 0x6 DUP3 ADD DUP1 SLOAD PUSH2 0x1E8D SWAP1 PUSH2 0x5AC3 JUMP JUMPDEST DUP1 PUSH1 0x1F ADD PUSH1 0x20 DUP1 SWAP2 DIV MUL PUSH1 0x20 ADD PUSH1 0x40 MLOAD SWAP1 DUP2 ADD PUSH1 0x40 MSTORE DUP1 SWAP3 SWAP2 SWAP1 DUP2 DUP2 MSTORE PUSH1 0x20 ADD DUP3 DUP1 SLOAD PUSH2 0x1EB9 SWAP1 PUSH2 0x5AC3 JUMP JUMPDEST DUP1 ISZERO PUSH2 0x1F04 JUMPI DUP1 PUSH1 0x1F LT PUSH2 0x1EDB JUMPI PUSH2 0x100 DUP1 DUP4 SLOAD DIV MUL DUP4 MSTORE SWAP2 PUSH1 0x20 ADD SWAP2 PUSH2 0x1F04 JUMP JUMPDEST DUP3 ADD SWAP2 SWAP1 PUSH0 MSTORE PUSH1 0x20 PUSH0 KECCAK256 SWAP1 JUMPDEST DUP2 SLOAD DUP2 MSTORE SWAP1 PUSH1 0x1 ADD SWAP1 PUSH1 0x20 ADD DUP1 DUP4 GT PUSH2 0x1EE7 JUMPI DUP3 SWAP1 SUB PUSH1 0x1F AND DUP3 ADD SWAP2 JUMPDEST POP POP POP POP POP DUP2 MSTORE PUSH1 0x20 ADD PUSH1 0x7 DUP3 ADD DUP1 SLOAD PUSH2 0x1F1D SWAP1 PUSH2 0x5AC3 JUMP JUMPDEST DUP1 PUSH1 0x1F ADD PUSH1 0x20 DUP1 SWAP2 DIV MUL PUSH1 0x20 ADD PUSH1 0x40 MLOAD SWAP1 DUP2 ADD PUSH1 0x40 MSTORE DUP1 SWAP3 SWAP2 SWAP1 DUP2 DUP2 MSTORE PUSH1 0x20 ADD DUP3 DUP1 SLOAD PUSH2 0x1F49 SWAP1 PUSH2 0x5AC3 JUMP JUMPDEST DUP1 ISZERO PUSH2 0x1F94 JUMPI DUP1 PUSH1 0x1F LT PUSH2 0x1F6B JUMPI PUSH2 0x100 DUP1 DUP4 SLOAD DIV MUL DUP4 MSTORE SWAP2 PUSH1 0x20 ADD SWAP2 PUSH2 0x1F94 JUMP JUMPDEST DUP3 ADD SWAP2 SWAP1 PUSH0 MSTORE PUSH1 0x20 PUSH0 KECCAK256 SWAP1 JUMPDEST DUP2 SLOAD DUP2 MSTORE SWAP1 PUSH1 0x1 ADD SWAP1 PUSH1 0x20 ADD DUP1 DUP4 GT PUSH2 0x1F77 JUMPI DUP3 SWAP1 SUB PUSH1 0x1F AND DUP3 ADD SWAP2 JUMPDEST POP POP POP POP POP DUP2 MSTORE PUSH1 0x20 ADD PUSH1 0x8 DUP3 ADD DUP1 SLOAD PUSH2 0x1FAD SWAP1 PUSH2 0x5AC3 JUMP JUMPDEST DUP1 PUSH1 0x1F ADD PUSH1 0x20 DUP1 SWAP2 DIV MUL PUSH1 0x20 ADD PUSH1 0x40 MLOAD SWAP1 DUP2 ADD PUSH1 0x40 MSTORE DUP1 SWAP3 SWAP2 SWAP1 DUP2 DUP2 MSTORE PUSH1 0x20 ADD DUP3 DUP1 SLOAD PUSH2 0x1FD9 SWAP1 PUSH2 0x5AC3 JUMP JUMPDEST DUP1 ISZERO PUSH2 0x2024 JUMPI DUP1 PUSH1 0x1F LT PUSH2 0x1FFB JUMPI PUSH2 0x100 DUP1 DUP4 SLOAD DIV MUL DUP4 MSTORE SWAP2 PUSH1 0x20 ADD SWAP2 PUSH2 0x2024 JUMP JUMPDEST DUP3 ADD SWAP2 SWAP1 PUSH0 MSTORE PUSH1 0x20 PUSH0 KECCAK256 SWAP1 JUMPDEST DUP2 SLOAD DUP2 MSTORE SWAP1 PUSH1 0x1 ADD SWAP1 PUSH1 0x20 ADD DUP1 DUP4 GT PUSH2 0x2007 JUMPI DUP3 SWAP1 SUB PUSH1 0x1F AND DUP3 ADD SWAP2 JUMPDEST POP POP POP POP POP DUP2 MSTORE PUSH1 0x20 ADD PUSH1 0x9 DUP3 ADD DUP1 SLOAD PUSH2 0x203D SWAP1 PUSH2 0x5AC3 JUMP JUMPDEST DUP1 PUSH1 0x1F ADD PUSH1 0x20 DUP1 SWAP2 DIV MUL PUSH1 0x20 ADD PUSH1 0x40 MLOAD SWAP1 DUP2 ADD PUSH1 0x40 MSTORE DUP1 SWAP3 SWAP2 SWAP1 DUP2 DUP2 MSTORE PUSH1 0x20 ADD DUP3 DUP1 SLOAD PUSH2 0x2069 SWAP1 PUSH2 0x5AC3 JUMP JUMPDEST DUP1 ISZERO PUSH2 0x20B4 JUMPI DUP1 PUSH1 0x1F LT PUSH2 0x208B JUMPI PUSH2 0x100 DUP1 DUP4 SLOAD DIV MUL DUP4 MSTORE SWAP2 PUSH1 0x20 ADD SWAP2 PUSH2 0x20B4 JUMP JUMPDEST DUP3 ADD SWAP2 SWAP1 PUSH0 MSTORE PUSH1 0x20 PUSH0 KECCAK256 SWAP1 JUMPDEST DUP2 SLOAD DUP2 MSTORE SWAP1 PUSH1 0x1 ADD SWAP1 PUSH1 0x20 ADD DUP1 DUP4 GT PUSH2 0x2097 JUMPI DUP3 SWAP1 SUB PUSH1 0x1F AND DUP3 ADD SWAP2 JUMPDEST POP POP POP POP POP DUP2 MSTORE POP POP PUSH2 0x404E JUMP JUMPDEST PUSH2 0x20D0 PUSH1 0x3 DUP11 DUP11 DUP5 DUP11 PUSH2 0x4395 JUMP JUMPDEST PUSH2 0x20DB PUSH1 0x4 DUP6 PUSH2 0x4542 JUMP JUMPDEST POP POP PUSH2 0x217C JUMP JUMPDEST DUP1 PUSH0 SIGNEXTEND PUSH0 SUB PUSH2 0x2104 JUMPI PUSH2 0x20D0 PUSH1 0x5 DUP11 PUSH1 0x4 DUP8 DUP2 SLOAD DUP2 LT PUSH2 0x1938 JUMPI PUSH2 0x1938 PUSH2 0x5B14 JUMP JUMPDEST PUSH2 0x211D PUSH1 0x5 DUP11 PUSH1 0x4 DUP8 DUP2 SLOAD DUP2 LT PUSH2 0x1938 JUMPI PUSH2 0x1938 PUSH2 0x5B14 JUMP JUMPDEST PUSH2 0x2128 DUP2 PUSH0 NOT PUSH2 0x5D16 JUMP JUMPDEST PUSH1 0x4 DUP6 DUP2 SLOAD DUP2 LT PUSH2 0x213B JUMPI PUSH2 0x213B PUSH2 0x5B14 JUMP JUMPDEST SWAP1 PUSH0 MSTORE PUSH1 0x20 PUSH0 KECCAK256 SWAP1 PUSH1 0xF MUL ADD PUSH1 0x4 ADD PUSH0 PUSH2 0x100 EXP DUP2 SLOAD DUP2 PUSH1 0xFF MUL NOT AND SWAP1 DUP4 PUSH1 0xFF AND MUL OR SWAP1 SSTORE POP POP POP PUSH2 0x217C JUMP JUMPDEST POP JUMPDEST DUP1 PUSH2 0x2174 DUP2 PUSH2 0x5D32 JUMP JUMPDEST SWAP2 POP POP PUSH2 0x11C7 JUMP JUMPDEST POP JUMPDEST PUSH1 0x1 ADD PUSH2 0x1177 JUMP JUMPDEST POP DUP1 PUSH2 0x219A JUMPI PUSH2 0x219A PUSH1 0x3 DUP7 DUP7 DUP7 DUP7 PUSH2 0x4395 JUMP JUMPDEST POP POP POP POP POP JUMP JUMPDEST PUSH2 0x21AB PUSH1 0x2 PUSH2 0x3BCC JUMP JUMPDEST PUSH1 0x40 DUP1 DUP6 ADD MLOAD DUP2 MLOAD PUSH2 0x140 DUP2 ADD SWAP1 SWAP3 MSTORE PUSH2 0x2236 SWAP2 PUSH1 0x6 PUSH1 0xA PUSH0 DUP4 JUMPDEST DUP3 DUP3 LT ISZERO PUSH2 0x2229 JUMPI PUSH1 0x40 DUP1 MLOAD PUSH2 0x140 DUP2 ADD SWAP2 DUP3 SWAP1 MSTORE SWAP1 DUP6 DUP5 ADD SWAP1 PUSH1 0xA SWAP1 DUP3 PUSH0 DUP6 JUMPDEST DUP3 SLOAD PUSH2 0x100 DUP4 SWAP1 EXP SWAP1 DIV PUSH1 0xFF AND DUP2 MSTORE PUSH1 0x20 PUSH1 0x1 SWAP3 DUP4 ADD DUP2 DUP2 DIV SWAP5 DUP6 ADD SWAP5 SWAP1 SWAP4 SUB SWAP1 SWAP3 MUL SWAP2 ADD DUP1 DUP5 GT PUSH2 0x21E7 JUMPI SWAP1 POP POP POP POP POP POP DUP2 MSTORE PUSH1 0x20 ADD SWAP1 PUSH1 0x1 ADD SWAP1 PUSH2 0x21C6 JUMP JUMPDEST POP POP POP POP PUSH1 0x2 PUSH1 0x1 PUSH2 0x3C13 JUMP JUMPDEST PUSH0 DUP1 JUMPDEST PUSH1 0x3 SLOAD DUP2 LT ISZERO PUSH2 0x2C87 JUMPI DUP5 DUP1 MLOAD SWAP1 PUSH1 0x20 ADD KECCAK256 PUSH1 0x3 DUP3 DUP2 SLOAD DUP2 LT PUSH2 0x225E JUMPI PUSH2 0x225E PUSH2 0x5B14 JUMP JUMPDEST SWAP1 PUSH0 MSTORE PUSH1 0x20 PUSH0 KECCAK256 SWAP1 PUSH1 0xF MUL ADD PUSH1 0x3 ADD PUSH1 0x40 MLOAD PUSH2 0x227A SWAP2 SWAP1 PUSH2 0x5B41 JUMP JUMPDEST PUSH1 0x40 MLOAD DUP1 SWAP2 SUB SWAP1 KECCAK256 SUB PUSH2 0x2C7F JUMPI PUSH0 JUMPDEST PUSH1 0x2 SLOAD PUSH1 0xFF DUP3 AND LT ISZERO PUSH2 0x2C7D JUMPI PUSH1 0x2 DUP2 PUSH1 0xFF AND DUP2 SLOAD DUP2 LT PUSH2 0x22AC JUMPI PUSH2 0x22AC PUSH2 0x5B14 JUMP JUMPDEST SWAP1 PUSH0 MSTORE PUSH1 0x20 PUSH0 KECCAK256 SWAP1 PUSH1 0x20 SWAP2 DUP3 DUP3 DIV ADD SWAP2 SWAP1 MOD SWAP1 SLOAD SWAP1 PUSH2 0x100 EXP SWAP1 DIV PUSH1 0xFF AND PUSH1 0xFF AND PUSH1 0x3 DUP4 DUP2 SLOAD DUP2 LT PUSH2 0x22E0 JUMPI PUSH2 0x22E0 PUSH2 0x5B14 JUMP JUMPDEST PUSH0 SWAP2 DUP3 MSTORE PUSH1 0x20 SWAP1 SWAP2 KECCAK256 PUSH1 0xF SWAP1 SWAP2 MUL ADD PUSH1 0x1 ADD SLOAD PUSH2 0x100 SWAP1 DIV PUSH1 0xFF AND SUB PUSH2 0x2C6B JUMPI PUSH0 PUSH2 0x2318 DUP6 PUSH1 0x3 DUP6 DUP2 SLOAD DUP2 LT PUSH2 0x1256 JUMPI PUSH2 0x1256 PUSH2 0x5B14 JUMP JUMPDEST SWAP1 POP PUSH2 0x2325 DUP8 PUSH1 0x1 PUSH2 0x3EAB JUMP JUMPDEST DUP2 PUSH1 0xFF AND LT PUSH2 0x2C69 JUMPI PUSH1 0x1 SWAP4 POP PUSH32 0x9F3AD7E297074403EBBE6920FCFC9EAD722B9CF562608507477325D0687D87BE PUSH1 0x3 DUP5 DUP2 SLOAD DUP2 LT PUSH2 0x2366 JUMPI PUSH2 0x2366 PUSH2 0x5B14 JUMP JUMPDEST SWAP1 PUSH0 MSTORE PUSH1 0x20 PUSH0 KECCAK256 SWAP1 PUSH1 0xF MUL ADD PUSH0 ADD PUSH1 0x3 DUP6 DUP2 SLOAD DUP2 LT PUSH2 0x2387 JUMPI PUSH2 0x2387 PUSH2 0x5B14 JUMP JUMPDEST SWAP1 PUSH0 MSTORE PUSH1 0x20 PUSH0 KECCAK256 SWAP1 PUSH1 0xF MUL ADD PUSH1 0x3 ADD PUSH1 0x3 DUP7 DUP2 SLOAD DUP2 LT PUSH2 0x23A9 JUMPI PUSH2 0x23A9 PUSH2 0x5B14 JUMP JUMPDEST PUSH0 SWAP2 DUP3 MSTORE PUSH1 0x20 SWAP1 SWAP2 KECCAK256 PUSH1 0x4 PUSH1 0xF SWAP1 SWAP3 MUL ADD ADD SLOAD PUSH1 0xFF AND PUSH2 0x23CA DUP6 PUSH1 0xA PUSH2 0x5BDF JUMP JUMPDEST PUSH1 0x40 MLOAD PUSH2 0x23DA SWAP5 SWAP4 SWAP3 SWAP2 SWAP1 PUSH2 0x5C7A JUMP JUMPDEST PUSH1 0x40 MLOAD DUP1 SWAP2 SUB SWAP1 LOG1 PUSH0 PUSH1 0x3 DUP5 DUP2 SLOAD DUP2 LT PUSH2 0x23F6 JUMPI PUSH2 0x23F6 PUSH2 0x5B14 JUMP JUMPDEST PUSH0 SWAP2 DUP3 MSTORE PUSH1 0x20 SWAP1 SWAP2 KECCAK256 PUSH1 0x4 PUSH1 0xF SWAP1 SWAP3 MUL ADD ADD SLOAD PUSH2 0x2416 SWAP1 PUSH1 0xFF AND DUP9 PUSH2 0x5CF6 JUMP JUMPDEST SWAP1 POP PUSH0 DUP2 PUSH0 SIGNEXTEND SGT ISZERO PUSH2 0x2BE5 JUMPI PUSH2 0x2BC5 PUSH1 0x5 PUSH1 0x3 DUP7 DUP2 SLOAD DUP2 LT PUSH2 0x243A JUMPI PUSH2 0x243A PUSH2 0x5B14 JUMP JUMPDEST SWAP1 PUSH0 MSTORE PUSH1 0x20 PUSH0 KECCAK256 SWAP1 PUSH1 0xF MUL ADD PUSH0 ADD PUSH1 0x40 MLOAD DUP1 PUSH1 0x80 ADD PUSH1 0x40 MSTORE SWAP1 DUP2 PUSH0 DUP3 ADD DUP1 SLOAD PUSH2 0x2462 SWAP1 PUSH2 0x5AC3 JUMP JUMPDEST DUP1 PUSH1 0x1F ADD PUSH1 0x20 DUP1 SWAP2 DIV MUL PUSH1 0x20 ADD PUSH1 0x40 MLOAD SWAP1 DUP2 ADD PUSH1 0x40 MSTORE DUP1 SWAP3 SWAP2 SWAP1 DUP2 DUP2 MSTORE PUSH1 0x20 ADD DUP3 DUP1 SLOAD PUSH2 0x248E SWAP1 PUSH2 0x5AC3 JUMP JUMPDEST DUP1 ISZERO PUSH2 0x24D9 JUMPI DUP1 PUSH1 0x1F LT PUSH2 0x24B0 JUMPI PUSH2 0x100 DUP1 DUP4 SLOAD DIV MUL DUP4 MSTORE SWAP2 PUSH1 0x20 ADD SWAP2 PUSH2 0x24D9 JUMP JUMPDEST DUP3 ADD SWAP2 SWAP1 PUSH0 MSTORE PUSH1 0x20 PUSH0 KECCAK256 SWAP1 JUMPDEST DUP2 SLOAD DUP2 MSTORE SWAP1 PUSH1 0x1 ADD SWAP1 PUSH1 0x20 ADD DUP1 DUP4 GT PUSH2 0x24BC JUMPI DUP3 SWAP1 SUB PUSH1 0x1F AND DUP3 ADD SWAP2 JUMPDEST POP POP POP SWAP2 DUP4 MSTORE POP POP PUSH1 0x1 DUP3 ADD SLOAD PUSH1 0xFF DUP1 DUP3 AND PUSH1 0x20 DUP5 ADD MSTORE PUSH2 0x100 SWAP1 SWAP2 DIV AND PUSH1 0x40 DUP3 ADD MSTORE PUSH1 0x2 DUP3 ADD DUP1 SLOAD PUSH1 0x60 SWAP1 SWAP3 ADD SWAP2 PUSH2 0x2511 SWAP1 PUSH2 0x5AC3 JUMP JUMPDEST DUP1 PUSH1 0x1F ADD PUSH1 0x20 DUP1 SWAP2 DIV MUL PUSH1 0x20 ADD PUSH1 0x40 MLOAD SWAP1 DUP2 ADD PUSH1 0x40 MSTORE DUP1 SWAP3 SWAP2 SWAP1 DUP2 DUP2 MSTORE PUSH1 0x20 ADD DUP3 DUP1 SLOAD PUSH2 0x253D SWAP1 PUSH2 0x5AC3 JUMP JUMPDEST DUP1 ISZERO PUSH2 0x2588 JUMPI DUP1 PUSH1 0x1F LT PUSH2 0x255F JUMPI PUSH2 0x100 DUP1 DUP4 SLOAD DIV MUL DUP4 MSTORE SWAP2 PUSH1 0x20 ADD SWAP2 PUSH2 0x2588 JUMP JUMPDEST DUP3 ADD SWAP2 SWAP1 PUSH0 MSTORE PUSH1 0x20 PUSH0 KECCAK256 SWAP1 JUMPDEST DUP2 SLOAD DUP2 MSTORE SWAP1 PUSH1 0x1 ADD SWAP1 PUSH1 0x20 ADD DUP1 DUP4 GT PUSH2 0x256B JUMPI DUP3 SWAP1 SUB PUSH1 0x1F AND DUP3 ADD SWAP2 JUMPDEST POP POP POP POP POP DUP2 MSTORE POP POP DUP12 DUP12 PUSH1 0x3 DUP10 DUP2 SLOAD DUP2 LT PUSH2 0x25A6 JUMPI PUSH2 0x25A6 PUSH2 0x5B14 JUMP JUMPDEST SWAP1 PUSH0 MSTORE PUSH1 0x20 PUSH0 KECCAK256 SWAP1 PUSH1 0xF MUL ADD PUSH1 0x4 ADD PUSH0 SWAP1 SLOAD SWAP1 PUSH2 0x100 EXP SWAP1 DIV PUSH1 0xFF AND DUP13 PUSH1 0x3 DUP12 DUP2 SLOAD DUP2 LT PUSH2 0x25D6 JUMPI PUSH2 0x25D6 PUSH2 0x5B14 JUMP JUMPDEST SWAP1 PUSH0 MSTORE PUSH1 0x20 PUSH0 KECCAK256 SWAP1 PUSH1 0xF MUL ADD PUSH1 0x4 ADD PUSH0 SWAP1 SLOAD SWAP1 PUSH2 0x100 EXP SWAP1 DIV PUSH1 0xFF AND PUSH1 0x3 DUP13 DUP2 SLOAD DUP2 LT PUSH2 0x2605 JUMPI PUSH2 0x2605 PUSH2 0x5B14 JUMP JUMPDEST SWAP1 PUSH0 MSTORE PUSH1 0x20 PUSH0 KECCAK256 SWAP1 PUSH1 0xF MUL ADD PUSH1 0x5 ADD PUSH1 0x40 MLOAD DUP1 PUSH2 0x140 ADD PUSH1 0x40 MSTORE SWAP1 DUP2 PUSH0 DUP3 ADD DUP1 SLOAD PUSH2 0x262F SWAP1 PUSH2 0x5AC3 JUMP JUMPDEST DUP1 PUSH1 0x1F ADD PUSH1 0x20 DUP1 SWAP2 DIV MUL PUSH1 0x20 ADD PUSH1 0x40 MLOAD SWAP1 DUP2 ADD PUSH1 0x40 MSTORE DUP1 SWAP3 SWAP2 SWAP1 DUP2 DUP2 MSTORE PUSH1 0x20 ADD DUP3 DUP1 SLOAD PUSH2 0x265B SWAP1 PUSH2 0x5AC3 JUMP JUMPDEST DUP1 ISZERO PUSH2 0x26A6 JUMPI DUP1 PUSH1 0x1F LT PUSH2 0x267D JUMPI PUSH2 0x100 DUP1 DUP4 SLOAD DIV MUL DUP4 MSTORE SWAP2 PUSH1 0x20 ADD SWAP2 PUSH2 0x26A6 JUMP JUMPDEST DUP3 ADD SWAP2 SWAP1 PUSH0 MSTORE PUSH1 0x20 PUSH0 KECCAK256 SWAP1 JUMPDEST DUP2 SLOAD DUP2 MSTORE SWAP1 PUSH1 0x1 ADD SWAP1 PUSH1 0x20 ADD DUP1 DUP4 GT PUSH2 0x2689 JUMPI DUP3 SWAP1 SUB PUSH1 0x1F AND DUP3 ADD SWAP2 JUMPDEST POP POP POP POP POP DUP2 MSTORE PUSH1 0x20 ADD PUSH1 0x1 DUP3 ADD DUP1 SLOAD PUSH2 0x26BF SWAP1 PUSH2 0x5AC3 JUMP JUMPDEST DUP1 PUSH1 0x1F ADD PUSH1 0x20 DUP1 SWAP2 DIV MUL PUSH1 0x20 ADD PUSH1 0x40 MLOAD SWAP1 DUP2 ADD PUSH1 0x40 MSTORE DUP1 SWAP3 SWAP2 SWAP1 DUP2 DUP2 MSTORE PUSH1 0x20 ADD DUP3 DUP1 SLOAD PUSH2 0x26EB SWAP1 PUSH2 0x5AC3 JUMP JUMPDEST DUP1 ISZERO PUSH2 0x2736 JUMPI DUP1 PUSH1 0x1F LT PUSH2 0x270D JUMPI PUSH2 0x100 DUP1 DUP4 SLOAD DIV MUL DUP4 MSTORE SWAP2 PUSH1 0x20 ADD SWAP2 PUSH2 0x2736 JUMP JUMPDEST DUP3 ADD SWAP2 SWAP1 PUSH0 MSTORE PUSH1 0x20 PUSH0 KECCAK256 SWAP1 JUMPDEST DUP2 SLOAD DUP2 MSTORE SWAP1 PUSH1 0x1 ADD SWAP1 PUSH1 0x20 ADD DUP1 DUP4 GT PUSH2 0x2719 JUMPI DUP3 SWAP1 SUB PUSH1 0x1F AND DUP3 ADD SWAP2 JUMPDEST POP POP POP POP POP DUP2 MSTORE PUSH1 0x20 ADD PUSH1 0x2 DUP3 ADD DUP1 SLOAD PUSH2 0x274F SWAP1 PUSH2 0x5AC3 JUMP JUMPDEST DUP1 PUSH1 0x1F ADD PUSH1 0x20 DUP1 SWAP2 DIV MUL PUSH1 0x20 ADD PUSH1 0x40 MLOAD SWAP1 DUP2 ADD PUSH1 0x40 MSTORE DUP1 SWAP3 SWAP2 SWAP1 DUP2 DUP2 MSTORE PUSH1 0x20 ADD DUP3 DUP1 SLOAD PUSH2 0x277B SWAP1 PUSH2 0x5AC3 JUMP JUMPDEST DUP1 ISZERO PUSH2 0x27C6 JUMPI DUP1 PUSH1 0x1F LT PUSH2 0x279D JUMPI PUSH2 0x100 DUP1 DUP4 SLOAD DIV MUL DUP4 MSTORE SWAP2 PUSH1 0x20 ADD SWAP2 PUSH2 0x27C6 JUMP JUMPDEST DUP3 ADD SWAP2 SWAP1 PUSH0 MSTORE PUSH1 0x20 PUSH0 KECCAK256 SWAP1 JUMPDEST DUP2 SLOAD DUP2 MSTORE SWAP1 PUSH1 0x1 ADD SWAP1 PUSH1 0x20 ADD DUP1 DUP4 GT PUSH2 0x27A9 JUMPI DUP3 SWAP1 SUB PUSH1 0x1F AND DUP3 ADD SWAP2 JUMPDEST POP POP POP POP POP DUP2 MSTORE PUSH1 0x20 ADD PUSH1 0x3 DUP3 ADD DUP1 SLOAD PUSH2 0x27DF SWAP1 PUSH2 0x5AC3 JUMP JUMPDEST DUP1 PUSH1 0x1F ADD PUSH1 0x20 DUP1 SWAP2 DIV MUL PUSH1 0x20 ADD PUSH1 0x40 MLOAD SWAP1 DUP2 ADD PUSH1 0x40 MSTORE DUP1 SWAP3 SWAP2 SWAP1 DUP2 DUP2 MSTORE PUSH1 0x20 ADD DUP3 DUP1 SLOAD PUSH2 0x280B SWAP1 PUSH2 0x5AC3 JUMP JUMPDEST DUP1 ISZERO PUSH2 0x2856 JUMPI DUP1 PUSH1 0x1F LT PUSH2 0x282D JUMPI PUSH2 0x100 DUP1 DUP4 SLOAD DIV MUL DUP4 MSTORE SWAP2 PUSH1 0x20 ADD SWAP2 PUSH2 0x2856 JUMP JUMPDEST DUP3 ADD SWAP2 SWAP1 PUSH0 MSTORE PUSH1 0x20 PUSH0 KECCAK256 SWAP1 JUMPDEST DUP2 SLOAD DUP2 MSTORE SWAP1 PUSH1 0x1 ADD SWAP1 PUSH1 0x20 ADD DUP1 DUP4 GT PUSH2 0x2839 JUMPI DUP3 SWAP1 SUB PUSH1 0x1F AND DUP3 ADD SWAP2 JUMPDEST POP POP POP POP POP DUP2 MSTORE PUSH1 0x20 ADD PUSH1 0x4 DUP3 ADD DUP1 SLOAD PUSH2 0x286F SWAP1 PUSH2 0x5AC3 JUMP JUMPDEST DUP1 PUSH1 0x1F ADD PUSH1 0x20 DUP1 SWAP2 DIV MUL PUSH1 0x20 ADD PUSH1 0x40 MLOAD SWAP1 DUP2 ADD PUSH1 0x40 MSTORE DUP1 SWAP3 SWAP2 SWAP1 DUP2 DUP2 MSTORE PUSH1 0x20 ADD DUP3 DUP1 SLOAD PUSH2 0x289B SWAP1 PUSH2 0x5AC3 JUMP JUMPDEST DUP1 ISZERO PUSH2 0x28E6 JUMPI DUP1 PUSH1 0x1F LT PUSH2 0x28BD JUMPI PUSH2 0x100 DUP1 DUP4 SLOAD DIV MUL DUP4 MSTORE SWAP2 PUSH1 0x20 ADD SWAP2 PUSH2 0x28E6 JUMP JUMPDEST DUP3 ADD SWAP2 SWAP1 PUSH0 MSTORE PUSH1 0x20 PUSH0 KECCAK256 SWAP1 JUMPDEST DUP2 SLOAD DUP2 MSTORE SWAP1 PUSH1 0x1 ADD SWAP1 PUSH1 0x20 ADD DUP1 DUP4 GT PUSH2 0x28C9 JUMPI DUP3 SWAP1 SUB PUSH1 0x1F AND DUP3 ADD SWAP2 JUMPDEST POP POP POP POP POP DUP2 MSTORE PUSH1 0x20 ADD PUSH1 0x5 DUP3 ADD DUP1 SLOAD PUSH2 0x28FF SWAP1 PUSH2 0x5AC3 JUMP JUMPDEST DUP1 PUSH1 0x1F ADD PUSH1 0x20 DUP1 SWAP2 DIV MUL PUSH1 0x20 ADD PUSH1 0x40 MLOAD SWAP1 DUP2 ADD PUSH1 0x40 MSTORE DUP1 SWAP3 SWAP2 SWAP1 DUP2 DUP2 MSTORE PUSH1 0x20 ADD DUP3 DUP1 SLOAD PUSH2 0x292B SWAP1 PUSH2 0x5AC3 JUMP JUMPDEST DUP1 ISZERO PUSH2 0x2976 JUMPI DUP1 PUSH1 0x1F LT PUSH2 0x294D JUMPI PUSH2 0x100 DUP1 DUP4 SLOAD DIV MUL DUP4 MSTORE SWAP2 PUSH1 0x20 ADD SWAP2 PUSH2 0x2976 JUMP JUMPDEST DUP3 ADD SWAP2 SWAP1 PUSH0 MSTORE PUSH1 0x20 PUSH0 KECCAK256 SWAP1 JUMPDEST DUP2 SLOAD DUP2 MSTORE SWAP1 PUSH1 0x1 ADD SWAP1 PUSH1 0x20 ADD DUP1 DUP4 GT PUSH2 0x2959 JUMPI DUP3 SWAP1 SUB PUSH1 0x1F AND DUP3 ADD SWAP2 JUMPDEST POP POP POP POP POP DUP2 MSTORE PUSH1 0x20 ADD PUSH1 0x6 DUP3 ADD DUP1 SLOAD PUSH2 0x298F SWAP1 PUSH2 0x5AC3 JUMP JUMPDEST DUP1 PUSH1 0x1F ADD PUSH1 0x20 DUP1 SWAP2 DIV MUL PUSH1 0x20 ADD PUSH1 0x40 MLOAD SWAP1 DUP2 ADD PUSH1 0x40 MSTORE DUP1 SWAP3 SWAP2 SWAP1 DUP2 DUP2 MSTORE PUSH1 0x20 ADD DUP3 DUP1 SLOAD PUSH2 0x29BB SWAP1 PUSH2 0x5AC3 JUMP JUMPDEST DUP1 ISZERO PUSH2 0x2A06 JUMPI DUP1 PUSH1 0x1F LT PUSH2 0x29DD JUMPI PUSH2 0x100 DUP1 DUP4 SLOAD DIV MUL DUP4 MSTORE SWAP2 PUSH1 0x20 ADD SWAP2 PUSH2 0x2A06 JUMP JUMPDEST DUP3 ADD SWAP2 SWAP1 PUSH0 MSTORE PUSH1 0x20 PUSH0 KECCAK256 SWAP1 JUMPDEST DUP2 SLOAD DUP2 MSTORE SWAP1 PUSH1 0x1 ADD SWAP1 PUSH1 0x20 ADD DUP1 DUP4 GT PUSH2 0x29E9 JUMPI DUP3 SWAP1 SUB PUSH1 0x1F AND DUP3 ADD SWAP2 JUMPDEST POP POP POP POP POP DUP2 MSTORE PUSH1 0x20 ADD PUSH1 0x7 DUP3 ADD DUP1 SLOAD PUSH2 0x2A1F SWAP1 PUSH2 0x5AC3 JUMP JUMPDEST DUP1 PUSH1 0x1F ADD PUSH1 0x20 DUP1 SWAP2 DIV MUL PUSH1 0x20 ADD PUSH1 0x40 MLOAD SWAP1 DUP2 ADD PUSH1 0x40 MSTORE DUP1 SWAP3 SWAP2 SWAP1 DUP2 DUP2 MSTORE PUSH1 0x20 ADD DUP3 DUP1 SLOAD PUSH2 0x2A4B SWAP1 PUSH2 0x5AC3 JUMP JUMPDEST DUP1 ISZERO PUSH2 0x2A96 JUMPI DUP1 PUSH1 0x1F LT PUSH2 0x2A6D JUMPI PUSH2 0x100 DUP1 DUP4 SLOAD DIV MUL DUP4 MSTORE SWAP2 PUSH1 0x20 ADD SWAP2 PUSH2 0x2A96 JUMP JUMPDEST DUP3 ADD SWAP2 SWAP1 PUSH0 MSTORE PUSH1 0x20 PUSH0 KECCAK256 SWAP1 JUMPDEST DUP2 SLOAD DUP2 MSTORE SWAP1 PUSH1 0x1 ADD SWAP1 PUSH1 0x20 ADD DUP1 DUP4 GT PUSH2 0x2A79 JUMPI DUP3 SWAP1 SUB PUSH1 0x1F AND DUP3 ADD SWAP2 JUMPDEST POP POP POP POP POP DUP2 MSTORE PUSH1 0x20 ADD PUSH1 0x8 DUP3 ADD DUP1 SLOAD PUSH2 0x2AAF SWAP1 PUSH2 0x5AC3 JUMP JUMPDEST DUP1 PUSH1 0x1F ADD PUSH1 0x20 DUP1 SWAP2 DIV MUL PUSH1 0x20 ADD PUSH1 0x40 MLOAD SWAP1 DUP2 ADD PUSH1 0x40 MSTORE DUP1 SWAP3 SWAP2 SWAP1 DUP2 DUP2 MSTORE PUSH1 0x20 ADD DUP3 DUP1 SLOAD PUSH2 0x2ADB SWAP1 PUSH2 0x5AC3 JUMP JUMPDEST DUP1 ISZERO PUSH2 0x2B26 JUMPI DUP1 PUSH1 0x1F LT PUSH2 0x2AFD JUMPI PUSH2 0x100 DUP1 DUP4 SLOAD DIV MUL DUP4 MSTORE SWAP2 PUSH1 0x20 ADD SWAP2 PUSH2 0x2B26 JUMP JUMPDEST DUP3 ADD SWAP2 SWAP1 PUSH0 MSTORE PUSH1 0x20 PUSH0 KECCAK256 SWAP1 JUMPDEST DUP2 SLOAD DUP2 MSTORE SWAP1 PUSH1 0x1 ADD SWAP1 PUSH1 0x20 ADD DUP1 DUP4 GT PUSH2 0x2B09 JUMPI DUP3 SWAP1 SUB PUSH1 0x1F AND DUP3 ADD SWAP2 JUMPDEST POP POP POP POP POP DUP2 MSTORE PUSH1 0x20 ADD PUSH1 0x9 DUP3 ADD DUP1 SLOAD PUSH2 0x2B3F SWAP1 PUSH2 0x5AC3 JUMP JUMPDEST DUP1 PUSH1 0x1F ADD PUSH1 0x20 DUP1 SWAP2 DIV MUL PUSH1 0x20 ADD PUSH1 0x40 MLOAD SWAP1 DUP2 ADD PUSH1 0x40 MSTORE DUP1 SWAP3 SWAP2 SWAP1 DUP2 DUP2 MSTORE PUSH1 0x20 ADD DUP3 DUP1 SLOAD PUSH2 0x2B6B SWAP1 PUSH2 0x5AC3 JUMP JUMPDEST DUP1 ISZERO PUSH2 0x2BB6 JUMPI DUP1 PUSH1 0x1F LT PUSH2 0x2B8D JUMPI PUSH2 0x100 DUP1 DUP4 SLOAD DIV MUL DUP4 MSTORE SWAP2 PUSH1 0x20 ADD SWAP2 PUSH2 0x2BB6 JUMP JUMPDEST DUP3 ADD SWAP2 SWAP1 PUSH0 MSTORE PUSH1 0x20 PUSH0 KECCAK256 SWAP1 JUMPDEST DUP2 SLOAD DUP2 MSTORE SWAP1 PUSH1 0x1 ADD SWAP1 PUSH1 0x20 ADD DUP1 DUP4 GT PUSH2 0x2B99 JUMPI DUP3 SWAP1 SUB PUSH1 0x1F AND DUP3 ADD SWAP2 JUMPDEST POP POP POP POP POP DUP2 MSTORE POP POP DUP15 PUSH2 0x404E JUMP JUMPDEST PUSH2 0x2BD3 PUSH1 0x4 DUP11 DUP11 DUP5 DUP11 PUSH2 0x4395 JUMP JUMPDEST PUSH2 0x2BDE PUSH1 0x3 DUP6 PUSH2 0x4542 JUMP JUMPDEST POP POP PUSH2 0x2C7D JUMP JUMPDEST DUP1 PUSH0 SIGNEXTEND PUSH0 SUB PUSH2 0x2C06 JUMPI PUSH2 0x2BD3 PUSH1 0x5 PUSH1 0x3 DUP7 DUP2 SLOAD DUP2 LT PUSH2 0x243A JUMPI PUSH2 0x243A PUSH2 0x5B14 JUMP JUMPDEST PUSH2 0x2C1E PUSH1 0x5 PUSH1 0x3 DUP7 DUP2 SLOAD DUP2 LT PUSH2 0x243A JUMPI PUSH2 0x243A PUSH2 0x5B14 JUMP JUMPDEST PUSH2 0x2C29 DUP2 PUSH0 NOT PUSH2 0x5D16 JUMP JUMPDEST PUSH1 0x3 DUP6 DUP2 SLOAD DUP2 LT PUSH2 0x2C3C JUMPI PUSH2 0x2C3C PUSH2 0x5B14 JUMP JUMPDEST SWAP1 PUSH0 MSTORE PUSH1 0x20 PUSH0 KECCAK256 SWAP1 PUSH1 0xF MUL ADD PUSH1 0x4 ADD PUSH0 PUSH2 0x100 EXP DUP2 SLOAD DUP2 PUSH1 0xFF MUL NOT AND SWAP1 DUP4 PUSH1 0xFF AND MUL OR SWAP1 SSTORE POP POP POP PUSH2 0x2C7D JUMP JUMPDEST POP JUMPDEST DUP1 PUSH2 0x2C75 DUP2 PUSH2 0x5D32 JUMP JUMPDEST SWAP2 POP POP PUSH2 0x2289 JUMP JUMPDEST POP JUMPDEST PUSH1 0x1 ADD PUSH2 0x2239 JUMP JUMPDEST POP DUP1 PUSH2 0x219A JUMPI PUSH2 0x219A PUSH1 0x4 DUP7 DUP7 DUP7 DUP7 PUSH2 0x4395 JUMP JUMPDEST DUP1 DUP3 EQ PUSH2 0x2CA6 JUMPI PUSH0 DUP1 REVERT JUMPDEST POP POP JUMP JUMPDEST PUSH1 0x60 PUSH1 0x5 DUP1 SLOAD DUP1 PUSH1 0x20 MUL PUSH1 0x20 ADD PUSH1 0x40 MLOAD SWAP1 DUP2 ADD PUSH1 0x40 MSTORE DUP1 SWAP3 SWAP2 SWAP1 DUP2 DUP2 MSTORE PUSH1 0x20 ADD PUSH0 SWAP1 JUMPDEST DUP3 DUP3 LT ISZERO PUSH2 0x3BC3 JUMPI PUSH0 DUP5 DUP2 MSTORE PUSH1 0x20 SWAP1 KECCAK256 PUSH1 0x40 DUP1 MLOAD PUSH2 0x180 DUP2 ADD SWAP1 SWAP2 MSTORE PUSH1 0x1C DUP5 MUL SWAP1 SWAP2 ADD DUP1 SLOAD DUP3 SWAP1 PUSH2 0x100 DUP3 ADD SWAP1 DUP4 SWAP1 DUP3 SWAP1 DUP3 SWAP1 PUSH2 0x2D09 SWAP1 PUSH2 0x5AC3 JUMP JUMPDEST DUP1 PUSH1 0x1F ADD PUSH1 0x20 DUP1 SWAP2 DIV MUL PUSH1 0x20 ADD PUSH1 0x40 MLOAD SWAP1 DUP2 ADD PUSH1 0x40 MSTORE DUP1 SWAP3 SWAP2 SWAP1 DUP2 DUP2 MSTORE PUSH1 0x20 ADD DUP3 DUP1 SLOAD PUSH2 0x2D35 SWAP1 PUSH2 0x5AC3 JUMP JUMPDEST DUP1 ISZERO PUSH2 0x2D80 JUMPI DUP1 PUSH1 0x1F LT PUSH2 0x2D57 JUMPI PUSH2 0x100 DUP1 DUP4 SLOAD DIV MUL DUP4 MSTORE SWAP2 PUSH1 0x20 ADD SWAP2 PUSH2 0x2D80 JUMP JUMPDEST DUP3 ADD SWAP2 SWAP1 PUSH0 MSTORE PUSH1 0x20 PUSH0 KECCAK256 SWAP1 JUMPDEST DUP2 SLOAD DUP2 MSTORE SWAP1 PUSH1 0x1 ADD SWAP1 PUSH1 0x20 ADD DUP1 DUP4 GT PUSH2 0x2D63 JUMPI DUP3 SWAP1 SUB PUSH1 0x1F AND DUP3 ADD SWAP2 JUMPDEST POP POP POP SWAP2 DUP4 MSTORE POP POP PUSH1 0x1 DUP3 ADD SLOAD PUSH1 0xFF DUP1 DUP3 AND PUSH1 0x20 DUP5 ADD MSTORE PUSH2 0x100 SWAP1 SWAP2 DIV AND PUSH1 0x40 DUP3 ADD MSTORE PUSH1 0x2 DUP3 ADD DUP1 SLOAD PUSH1 0x60 SWAP1 SWAP3 ADD SWAP2 PUSH2 0x2DB8 SWAP1 PUSH2 0x5AC3 JUMP JUMPDEST DUP1 PUSH1 0x1F ADD PUSH1 0x20 DUP1 SWAP2 DIV MUL PUSH1 0x20 ADD PUSH1 0x40 MLOAD SWAP1 DUP2 ADD PUSH1 0x40 MSTORE DUP1 SWAP3 SWAP2 SWAP1 DUP2 DUP2 MSTORE PUSH1 0x20 ADD DUP3 DUP1 SLOAD PUSH2 0x2DE4 SWAP1 PUSH2 0x5AC3 JUMP JUMPDEST DUP1 ISZERO PUSH2 0x2E2F JUMPI DUP1 PUSH1 0x1F LT PUSH2 0x2E06 JUMPI PUSH2 0x100 DUP1 DUP4 SLOAD DIV MUL DUP4 MSTORE SWAP2 PUSH1 0x20 ADD SWAP2 PUSH2 0x2E2F JUMP JUMPDEST DUP3 ADD SWAP2 SWAP1 PUSH0 MSTORE PUSH1 0x20 PUSH0 KECCAK256 SWAP1 JUMPDEST DUP2 SLOAD DUP2 MSTORE SWAP1 PUSH1 0x1 ADD SWAP1 PUSH1 0x20 ADD DUP1 DUP4 GT PUSH2 0x2E12 JUMPI DUP3 SWAP1 SUB PUSH1 0x1F AND DUP3 ADD SWAP2 JUMPDEST POP POP POP POP POP DUP2 MSTORE POP POP DUP2 MSTORE PUSH1 0x20 ADD PUSH1 0x3 DUP3 ADD PUSH1 0x40 MLOAD DUP1 PUSH1 0x80 ADD PUSH1 0x40 MSTORE SWAP1 DUP2 PUSH0 DUP3 ADD DUP1 SLOAD PUSH2 0x2E5B SWAP1 PUSH2 0x5AC3 JUMP JUMPDEST DUP1 PUSH1 0x1F ADD PUSH1 0x20 DUP1 SWAP2 DIV MUL PUSH1 0x20 ADD PUSH1 0x40 MLOAD SWAP1 DUP2 ADD PUSH1 0x40 MSTORE DUP1 SWAP3 SWAP2 SWAP1 DUP2 DUP2 MSTORE PUSH1 0x20 ADD DUP3 DUP1 SLOAD PUSH2 0x2E87 SWAP1 PUSH2 0x5AC3 JUMP JUMPDEST DUP1 ISZERO PUSH2 0x2ED2 JUMPI DUP1 PUSH1 0x1F LT PUSH2 0x2EA9 JUMPI PUSH2 0x100 DUP1 DUP4 SLOAD DIV MUL DUP4 MSTORE SWAP2 PUSH1 0x20 ADD SWAP2 PUSH2 0x2ED2 JUMP JUMPDEST DUP3 ADD SWAP2 SWAP1 PUSH0 MSTORE PUSH1 0x20 PUSH0 KECCAK256 SWAP1 JUMPDEST DUP2 SLOAD DUP2 MSTORE SWAP1 PUSH1 0x1 ADD SWAP1 PUSH1 0x20 ADD DUP1 DUP4 GT PUSH2 0x2EB5 JUMPI DUP3 SWAP1 SUB PUSH1 0x1F AND DUP3 ADD SWAP2 JUMPDEST POP POP POP SWAP2 DUP4 MSTORE POP POP PUSH1 0x1 DUP3 ADD SLOAD PUSH1 0xFF DUP1 DUP3 AND PUSH1 0x20 DUP5 ADD MSTORE PUSH2 0x100 SWAP1 SWAP2 DIV AND PUSH1 0x40 DUP3 ADD MSTORE PUSH1 0x2 DUP3 ADD DUP1 SLOAD PUSH1 0x60 SWAP1 SWAP3 ADD SWAP2 PUSH2 0x2F0A SWAP1 PUSH2 0x5AC3 JUMP JUMPDEST DUP1 PUSH1 0x1F ADD PUSH1 0x20 DUP1 SWAP2 DIV MUL PUSH1 0x20 ADD PUSH1 0x40 MLOAD SWAP1 DUP2 ADD PUSH1 0x40 MSTORE DUP1 SWAP3 SWAP2 SWAP1 DUP2 DUP2 MSTORE PUSH1 0x20 ADD DUP3 DUP1 SLOAD PUSH2 0x2F36 SWAP1 PUSH2 0x5AC3 JUMP JUMPDEST DUP1 ISZERO PUSH2 0x2F81 JUMPI DUP1 PUSH1 0x1F LT PUSH2 0x2F58 JUMPI PUSH2 0x100 DUP1 DUP4 SLOAD DIV MUL DUP4 MSTORE SWAP2 PUSH1 0x20 ADD SWAP2 PUSH2 0x2F81 JUMP JUMPDEST DUP3 ADD SWAP2 SWAP1 PUSH0 MSTORE PUSH1 0x20 PUSH0 KECCAK256 SWAP1 JUMPDEST DUP2 SLOAD DUP2 MSTORE SWAP1 PUSH1 0x1 ADD SWAP1 PUSH1 0x20 ADD DUP1 DUP4 GT PUSH2 0x2F64 JUMPI DUP3 SWAP1 SUB PUSH1 0x1F AND DUP3 ADD SWAP2 JUMPDEST POP POP POP POP POP DUP2 MSTORE POP POP DUP2 MSTORE PUSH1 0x20 ADD PUSH1 0x6 DUP3 ADD DUP1 SLOAD PUSH2 0x2F9E SWAP1 PUSH2 0x5AC3 JUMP JUMPDEST DUP1 PUSH1 0x1F ADD PUSH1 0x20 DUP1 SWAP2 DIV MUL PUSH1 0x20 ADD PUSH1 0x40 MLOAD SWAP1 DUP2 ADD PUSH1 0x40 MSTORE DUP1 SWAP3 SWAP2 SWAP1 DUP2 DUP2 MSTORE PUSH1 0x20 ADD DUP3 DUP1 SLOAD PUSH2 0x2FCA SWAP1 PUSH2 0x5AC3 JUMP JUMPDEST DUP1 ISZERO PUSH2 0x3015 JUMPI DUP1 PUSH1 0x1F LT PUSH2 0x2FEC JUMPI PUSH2 0x100 DUP1 DUP4 SLOAD DIV MUL DUP4 MSTORE SWAP2 PUSH1 0x20 ADD SWAP2 PUSH2 0x3015 JUMP JUMPDEST DUP3 ADD SWAP2 SWAP1 PUSH0 MSTORE PUSH1 0x20 PUSH0 KECCAK256 SWAP1 JUMPDEST DUP2 SLOAD DUP2 MSTORE SWAP1 PUSH1 0x1 ADD SWAP1 PUSH1 0x20 ADD DUP1 DUP4 GT PUSH2 0x2FF8 JUMPI DUP3 SWAP1 SUB PUSH1 0x1F AND DUP3 ADD SWAP2 JUMPDEST POP POP POP SWAP2 DUP4 MSTORE POP POP PUSH1 0x7 DUP3 ADD SLOAD PUSH1 0xFF DUP1 DUP3 AND PUSH1 0x20 DUP5 ADD MSTORE PUSH2 0x100 DUP3 DIV DUP2 AND PUSH1 0x40 DUP1 DUP6 ADD SWAP2 SWAP1 SWAP2 MSTORE PUSH3 0x10000 SWAP1 SWAP3 DIV AND PUSH1 0x60 DUP4 ADD MSTORE DUP1 MLOAD PUSH2 0x140 DUP2 ADD SWAP1 SWAP2 MSTORE PUSH1 0x8 DUP4 ADD DUP1 SLOAD PUSH1 0x80 SWAP1 SWAP4 ADD SWAP3 DUP3 SWAP1 DUP3 SWAP1 PUSH2 0x306C SWAP1 PUSH2 0x5AC3 JUMP JUMPDEST DUP1 PUSH1 0x1F ADD PUSH1 0x20 DUP1 SWAP2 DIV MUL PUSH1 0x20 ADD PUSH1 0x40 MLOAD SWAP1 DUP2 ADD PUSH1 0x40 MSTORE DUP1 SWAP3 SWAP2 SWAP1 DUP2 DUP2 MSTORE PUSH1 0x20 ADD DUP3 DUP1 SLOAD PUSH2 0x3098 SWAP1 PUSH2 0x5AC3 JUMP JUMPDEST DUP1 ISZERO PUSH2 0x30E3 JUMPI DUP1 PUSH1 0x1F LT PUSH2 0x30BA JUMPI PUSH2 0x100 DUP1 DUP4 SLOAD DIV MUL DUP4 MSTORE SWAP2 PUSH1 0x20 ADD SWAP2 PUSH2 0x30E3 JUMP JUMPDEST DUP3 ADD SWAP2 SWAP1 PUSH0 MSTORE PUSH1 0x20 PUSH0 KECCAK256 SWAP1 JUMPDEST DUP2 SLOAD DUP2 MSTORE SWAP1 PUSH1 0x1 ADD SWAP1 PUSH1 0x20 ADD DUP1 DUP4 GT PUSH2 0x30C6 JUMPI DUP3 SWAP1 SUB PUSH1 0x1F AND DUP3 ADD SWAP2 JUMPDEST POP POP POP POP POP DUP2 MSTORE PUSH1 0x20 ADD PUSH1 0x1 DUP3 ADD DUP1 SLOAD PUSH2 0x30FC SWAP1 PUSH2 0x5AC3 JUMP JUMPDEST DUP1 PUSH1 0x1F ADD PUSH1 0x20 DUP1 SWAP2 DIV MUL PUSH1 0x20 ADD PUSH1 0x40 MLOAD SWAP1 DUP2 ADD PUSH1 0x40 MSTORE DUP1 SWAP3 SWAP2 SWAP1 DUP2 DUP2 MSTORE PUSH1 0x20 ADD DUP3 DUP1 SLOAD PUSH2 0x3128 SWAP1 PUSH2 0x5AC3 JUMP JUMPDEST DUP1 ISZERO PUSH2 0x3173 JUMPI DUP1 PUSH1 0x1F LT PUSH2 0x314A JUMPI PUSH2 0x100 DUP1 DUP4 SLOAD DIV MUL DUP4 MSTORE SWAP2 PUSH1 0x20 ADD SWAP2 PUSH2 0x3173 JUMP JUMPDEST DUP3 ADD SWAP2 SWAP1 PUSH0 MSTORE PUSH1 0x20 PUSH0 KECCAK256 SWAP1 JUMPDEST DUP2 SLOAD DUP2 MSTORE SWAP1 PUSH1 0x1 ADD SWAP1 PUSH1 0x20 ADD DUP1 DUP4 GT PUSH2 0x3156 JUMPI DUP3 SWAP1 SUB PUSH1 0x1F AND DUP3 ADD SWAP2 JUMPDEST POP POP POP POP POP DUP2 MSTORE PUSH1 0x20 ADD PUSH1 0x2 DUP3 ADD DUP1 SLOAD PUSH2 0x318C SWAP1 PUSH2 0x5AC3 JUMP JUMPDEST DUP1 PUSH1 0x1F ADD PUSH1 0x20 DUP1 SWAP2 DIV MUL PUSH1 0x20 ADD PUSH1 0x40 MLOAD SWAP1 DUP2 ADD PUSH1 0x40 MSTORE DUP1 SWAP3 SWAP2 SWAP1 DUP2 DUP2 MSTORE PUSH1 0x20 ADD DUP3 DUP1 SLOAD PUSH2 0x31B8 SWAP1 PUSH2 0x5AC3 JUMP JUMPDEST DUP1 ISZERO PUSH2 0x3203 JUMPI DUP1 PUSH1 0x1F LT PUSH2 0x31DA JUMPI PUSH2 0x100 DUP1 DUP4 SLOAD DIV MUL DUP4 MSTORE SWAP2 PUSH1 0x20 ADD SWAP2 PUSH2 0x3203 JUMP JUMPDEST DUP3 ADD SWAP2 SWAP1 PUSH0 MSTORE PUSH1 0x20 PUSH0 KECCAK256 SWAP1 JUMPDEST DUP2 SLOAD DUP2 MSTORE SWAP1 PUSH1 0x1 ADD SWAP1 PUSH1 0x20 ADD DUP1 DUP4 GT PUSH2 0x31E6 JUMPI DUP3 SWAP1 SUB PUSH1 0x1F AND DUP3 ADD SWAP2 JUMPDEST POP POP POP POP POP DUP2 MSTORE PUSH1 0x20 ADD PUSH1 0x3 DUP3 ADD DUP1 SLOAD PUSH2 0x321C SWAP1 PUSH2 0x5AC3 JUMP JUMPDEST DUP1 PUSH1 0x1F ADD PUSH1 0x20 DUP1 SWAP2 DIV MUL PUSH1 0x20 ADD PUSH1 0x40 MLOAD SWAP1 DUP2 ADD PUSH1 0x40 MSTORE DUP1 SWAP3 SWAP2 SWAP1 DUP2 DUP2 MSTORE PUSH1 0x20 ADD DUP3 DUP1 SLOAD PUSH2 0x3248 SWAP1 PUSH2 0x5AC3 JUMP JUMPDEST DUP1 ISZERO PUSH2 0x3293 JUMPI DUP1 PUSH1 0x1F LT PUSH2 0x326A JUMPI PUSH2 0x100 DUP1 DUP4 SLOAD DIV MUL DUP4 MSTORE SWAP2 PUSH1 0x20 ADD SWAP2 PUSH2 0x3293 JUMP JUMPDEST DUP3 ADD SWAP2 SWAP1 PUSH0 MSTORE PUSH1 0x20 PUSH0 KECCAK256 SWAP1 JUMPDEST DUP2 SLOAD DUP2 MSTORE SWAP1 PUSH1 0x1 ADD SWAP1 PUSH1 0x20 ADD DUP1 DUP4 GT PUSH2 0x3276 JUMPI DUP3 SWAP1 SUB PUSH1 0x1F AND DUP3 ADD SWAP2 JUMPDEST POP POP POP POP POP DUP2 MSTORE PUSH1 0x20 ADD PUSH1 0x4 DUP3 ADD DUP1 SLOAD PUSH2 0x32AC SWAP1 PUSH2 0x5AC3 JUMP JUMPDEST DUP1 PUSH1 0x1F ADD PUSH1 0x20 DUP1 SWAP2 DIV MUL PUSH1 0x20 ADD PUSH1 0x40 MLOAD SWAP1 DUP2 ADD PUSH1 0x40 MSTORE DUP1 SWAP3 SWAP2 SWAP1 DUP2 DUP2 MSTORE PUSH1 0x20 ADD DUP3 DUP1 SLOAD PUSH2 0x32D8 SWAP1 PUSH2 0x5AC3 JUMP JUMPDEST DUP1 ISZERO PUSH2 0x3323 JUMPI DUP1 PUSH1 0x1F LT PUSH2 0x32FA JUMPI PUSH2 0x100 DUP1 DUP4 SLOAD DIV MUL DUP4 MSTORE SWAP2 PUSH1 0x20 ADD SWAP2 PUSH2 0x3323 JUMP JUMPDEST DUP3 ADD SWAP2 SWAP1 PUSH0 MSTORE PUSH1 0x20 PUSH0 KECCAK256 SWAP1 JUMPDEST DUP2 SLOAD DUP2 MSTORE SWAP1 PUSH1 0x1 ADD SWAP1 PUSH1 0x20 ADD DUP1 DUP4 GT PUSH2 0x3306 JUMPI DUP3 SWAP1 SUB PUSH1 0x1F AND DUP3 ADD SWAP2 JUMPDEST POP POP POP POP POP DUP2 MSTORE PUSH1 0x20 ADD PUSH1 0x5 DUP3 ADD DUP1 SLOAD PUSH2 0x333C SWAP1 PUSH2 0x5AC3 JUMP JUMPDEST DUP1 PUSH1 0x1F ADD PUSH1 0x20 DUP1 SWAP2 DIV MUL PUSH1 0x20 ADD PUSH1 0x40 MLOAD SWAP1 DUP2 ADD PUSH1 0x40 MSTORE DUP1 SWAP3 SWAP2 SWAP1 DUP2 DUP2 MSTORE PUSH1 0x20 ADD DUP3 DUP1 SLOAD PUSH2 0x3368 SWAP1 PUSH2 0x5AC3 JUMP JUMPDEST DUP1 ISZERO PUSH2 0x33B3 JUMPI DUP1 PUSH1 0x1F LT PUSH2 0x338A JUMPI PUSH2 0x100 DUP1 DUP4 SLOAD DIV MUL DUP4 MSTORE SWAP2 PUSH1 0x20 ADD SWAP2 PUSH2 0x33B3 JUMP JUMPDEST DUP3 ADD SWAP2 SWAP1 PUSH0 MSTORE PUSH1 0x20 PUSH0 KECCAK256 SWAP1 JUMPDEST DUP2 SLOAD DUP2 MSTORE SWAP1 PUSH1 0x1 ADD SWAP1 PUSH1 0x20 ADD DUP1 DUP4 GT PUSH2 0x3396 JUMPI DUP3 SWAP1 SUB PUSH1 0x1F AND DUP3 ADD SWAP2 JUMPDEST POP POP POP POP POP DUP2 MSTORE PUSH1 0x20 ADD PUSH1 0x6 DUP3 ADD DUP1 SLOAD PUSH2 0x33CC SWAP1 PUSH2 0x5AC3 JUMP JUMPDEST DUP1 PUSH1 0x1F ADD PUSH1 0x20 DUP1 SWAP2 DIV MUL PUSH1 0x20 ADD PUSH1 0x40 MLOAD SWAP1 DUP2 ADD PUSH1 0x40 MSTORE DUP1 SWAP3 SWAP2 SWAP1 DUP2 DUP2 MSTORE PUSH1 0x20 ADD DUP3 DUP1 SLOAD PUSH2 0x33F8 SWAP1 PUSH2 0x5AC3 JUMP JUMPDEST DUP1 ISZERO PUSH2 0x3443 JUMPI DUP1 PUSH1 0x1F LT PUSH2 0x341A JUMPI PUSH2 0x100 DUP1 DUP4 SLOAD DIV MUL DUP4 MSTORE SWAP2 PUSH1 0x20 ADD SWAP2 PUSH2 0x3443 JUMP JUMPDEST DUP3 ADD SWAP2 SWAP1 PUSH0 MSTORE PUSH1 0x20 PUSH0 KECCAK256 SWAP1 JUMPDEST DUP2 SLOAD DUP2 MSTORE SWAP1 PUSH1 0x1 ADD SWAP1 PUSH1 0x20 ADD DUP1 DUP4 GT PUSH2 0x3426 JUMPI DUP3 SWAP1 SUB PUSH1 0x1F AND DUP3 ADD SWAP2 JUMPDEST POP POP POP POP POP DUP2 MSTORE PUSH1 0x20 ADD PUSH1 0x7 DUP3 ADD DUP1 SLOAD PUSH2 0x345C SWAP1 PUSH2 0x5AC3 JUMP JUMPDEST DUP1 PUSH1 0x1F ADD PUSH1 0x20 DUP1 SWAP2 DIV MUL PUSH1 0x20 ADD PUSH1 0x40 MLOAD SWAP1 DUP2 ADD PUSH1 0x40 MSTORE DUP1 SWAP3 SWAP2 SWAP1 DUP2 DUP2 MSTORE PUSH1 0x20 ADD DUP3 DUP1 SLOAD PUSH2 0x3488 SWAP1 PUSH2 0x5AC3 JUMP JUMPDEST DUP1 ISZERO PUSH2 0x34D3 JUMPI DUP1 PUSH1 0x1F LT PUSH2 0x34AA JUMPI PUSH2 0x100 DUP1 DUP4 SLOAD DIV MUL DUP4 MSTORE SWAP2 PUSH1 0x20 ADD SWAP2 PUSH2 0x34D3 JUMP JUMPDEST DUP3 ADD SWAP2 SWAP1 PUSH0 MSTORE PUSH1 0x20 PUSH0 KECCAK256 SWAP1 JUMPDEST DUP2 SLOAD DUP2 MSTORE SWAP1 PUSH1 0x1 ADD SWAP1 PUSH1 0x20 ADD DUP1 DUP4 GT PUSH2 0x34B6 JUMPI DUP3 SWAP1 SUB PUSH1 0x1F AND DUP3 ADD SWAP2 JUMPDEST POP POP POP POP POP DUP2 MSTORE PUSH1 0x20 ADD PUSH1 0x8 DUP3 ADD DUP1 SLOAD PUSH2 0x34EC SWAP1 PUSH2 0x5AC3 JUMP JUMPDEST DUP1 PUSH1 0x1F ADD PUSH1 0x20 DUP1 SWAP2 DIV MUL PUSH1 0x20 ADD PUSH1 0x40 MLOAD SWAP1 DUP2 ADD PUSH1 0x40 MSTORE DUP1 SWAP3 SWAP2 SWAP1 DUP2 DUP2 MSTORE PUSH1 0x20 ADD DUP3 DUP1 SLOAD PUSH2 0x3518 SWAP1 PUSH2 0x5AC3 JUMP JUMPDEST DUP1 ISZERO PUSH2 0x3563 JUMPI DUP1 PUSH1 0x1F LT PUSH2 0x353A JUMPI PUSH2 0x100 DUP1 DUP4 SLOAD DIV MUL DUP4 MSTORE SWAP2 PUSH1 0x20 ADD SWAP2 PUSH2 0x3563 JUMP JUMPDEST DUP3 ADD SWAP2 SWAP1 PUSH0 MSTORE PUSH1 0x20 PUSH0 KECCAK256 SWAP1 JUMPDEST DUP2 SLOAD DUP2 MSTORE SWAP1 PUSH1 0x1 ADD SWAP1 PUSH1 0x20 ADD DUP1 DUP4 GT PUSH2 0x3546 JUMPI DUP3 SWAP1 SUB PUSH1 0x1F AND DUP3 ADD SWAP2 JUMPDEST POP POP POP POP POP DUP2 MSTORE PUSH1 0x20 ADD PUSH1 0x9 DUP3 ADD DUP1 SLOAD PUSH2 0x357C SWAP1 PUSH2 0x5AC3 JUMP JUMPDEST DUP1 PUSH1 0x1F ADD PUSH1 0x20 DUP1 SWAP2 DIV MUL PUSH1 0x20 ADD PUSH1 0x40 MLOAD SWAP1 DUP2 ADD PUSH1 0x40 MSTORE DUP1 SWAP3 SWAP2 SWAP1 DUP2 DUP2 MSTORE PUSH1 0x20 ADD DUP3 DUP1 SLOAD PUSH2 0x35A8 SWAP1 PUSH2 0x5AC3 JUMP JUMPDEST DUP1 ISZERO PUSH2 0x35F3 JUMPI DUP1 PUSH1 0x1F LT PUSH2 0x35CA JUMPI PUSH2 0x100 DUP1 DUP4 SLOAD DIV MUL DUP4 MSTORE SWAP2 PUSH1 0x20 ADD SWAP2 PUSH2 0x35F3 JUMP JUMPDEST DUP3 ADD SWAP2 SWAP1 PUSH0 MSTORE PUSH1 0x20 PUSH0 KECCAK256 SWAP1 JUMPDEST DUP2 SLOAD DUP2 MSTORE SWAP1 PUSH1 0x1 ADD SWAP1 PUSH1 0x20 ADD DUP1 DUP4 GT PUSH2 0x35D6 JUMPI DUP3 SWAP1 SUB PUSH1 0x1F AND DUP3 ADD SWAP2 JUMPDEST POP POP POP POP POP DUP2 MSTORE POP POP DUP2 MSTORE PUSH1 0x20 ADD PUSH1 0x12 DUP3 ADD PUSH1 0x40 MLOAD DUP1 PUSH2 0x140 ADD PUSH1 0x40 MSTORE SWAP1 DUP2 PUSH0 DUP3 ADD DUP1 SLOAD PUSH2 0x3620 SWAP1 PUSH2 0x5AC3 JUMP JUMPDEST DUP1 PUSH1 0x1F ADD PUSH1 0x20 DUP1 SWAP2 DIV MUL PUSH1 0x20 ADD PUSH1 0x40 MLOAD SWAP1 DUP2 ADD PUSH1 0x40 MSTORE DUP1 SWAP3 SWAP2 SWAP1 DUP2 DUP2 MSTORE PUSH1 0x20 ADD DUP3 DUP1 SLOAD PUSH2 0x364C SWAP1 PUSH2 0x5AC3 JUMP JUMPDEST DUP1 ISZERO PUSH2 0x3697 JUMPI DUP1 PUSH1 0x1F LT PUSH2 0x366E JUMPI PUSH2 0x100 DUP1 DUP4 SLOAD DIV MUL DUP4 MSTORE SWAP2 PUSH1 0x20 ADD SWAP2 PUSH2 0x3697 JUMP JUMPDEST DUP3 ADD SWAP2 SWAP1 PUSH0 MSTORE PUSH1 0x20 PUSH0 KECCAK256 SWAP1 JUMPDEST DUP2 SLOAD DUP2 MSTORE SWAP1 PUSH1 0x1 ADD SWAP1 PUSH1 0x20 ADD DUP1 DUP4 GT PUSH2 0x367A JUMPI DUP3 SWAP1 SUB PUSH1 0x1F AND DUP3 ADD SWAP2 JUMPDEST POP POP POP POP POP DUP2 MSTORE PUSH1 0x20 ADD PUSH1 0x1 DUP3 ADD DUP1 SLOAD PUSH2 0x36B0 SWAP1 PUSH2 0x5AC3 JUMP JUMPDEST DUP1 PUSH1 0x1F ADD PUSH1 0x20 DUP1 SWAP2 DIV MUL PUSH1 0x20 ADD PUSH1 0x40 MLOAD SWAP1 DUP2 ADD PUSH1 0x40 MSTORE DUP1 SWAP3 SWAP2 SWAP1 DUP2 DUP2 MSTORE PUSH1 0x20 ADD DUP3 DUP1 SLOAD PUSH2 0x36DC SWAP1 PUSH2 0x5AC3 JUMP JUMPDEST DUP1 ISZERO PUSH2 0x3727 JUMPI DUP1 PUSH1 0x1F LT PUSH2 0x36FE JUMPI PUSH2 0x100 DUP1 DUP4 SLOAD DIV MUL DUP4 MSTORE SWAP2 PUSH1 0x20 ADD SWAP2 PUSH2 0x3727 JUMP JUMPDEST DUP3 ADD SWAP2 SWAP1 PUSH0 MSTORE PUSH1 0x20 PUSH0 KECCAK256 SWAP1 JUMPDEST DUP2 SLOAD DUP2 MSTORE SWAP1 PUSH1 0x1 ADD SWAP1 PUSH1 0x20 ADD DUP1 DUP4 GT PUSH2 0x370A JUMPI DUP3 SWAP1 SUB PUSH1 0x1F AND DUP3 ADD SWAP2 JUMPDEST POP POP POP POP POP DUP2 MSTORE PUSH1 0x20 ADD PUSH1 0x2 DUP3 ADD DUP1 SLOAD PUSH2 0x3740 SWAP1 PUSH2 0x5AC3 JUMP JUMPDEST DUP1 PUSH1 0x1F ADD PUSH1 0x20 DUP1 SWAP2 DIV MUL PUSH1 0x20 ADD PUSH1 0x40 MLOAD SWAP1 DUP2 ADD PUSH1 0x40 MSTORE DUP1 SWAP3 SWAP2 SWAP1 DUP2 DUP2 MSTORE PUSH1 0x20 ADD DUP3 DUP1 SLOAD PUSH2 0x376C SWAP1 PUSH2 0x5AC3 JUMP JUMPDEST DUP1 ISZERO PUSH2 0x37B7 JUMPI DUP1 PUSH1 0x1F LT PUSH2 0x378E JUMPI PUSH2 0x100 DUP1 DUP4 SLOAD DIV MUL DUP4 MSTORE SWAP2 PUSH1 0x20 ADD SWAP2 PUSH2 0x37B7 JUMP JUMPDEST DUP3 ADD SWAP2 SWAP1 PUSH0 MSTORE PUSH1 0x20 PUSH0 KECCAK256 SWAP1 JUMPDEST DUP2 SLOAD DUP2 MSTORE SWAP1 PUSH1 0x1 ADD SWAP1 PUSH1 0x20 ADD DUP1 DUP4 GT PUSH2 0x379A JUMPI DUP3 SWAP1 SUB PUSH1 0x1F AND DUP3 ADD SWAP2 JUMPDEST POP POP POP POP POP DUP2 MSTORE PUSH1 0x20 ADD PUSH1 0x3 DUP3 ADD DUP1 SLOAD PUSH2 0x37D0 SWAP1 PUSH2 0x5AC3 JUMP JUMPDEST DUP1 PUSH1 0x1F ADD PUSH1 0x20 DUP1 SWAP2 DIV MUL PUSH1 0x20 ADD PUSH1 0x40 MLOAD SWAP1 DUP2 ADD PUSH1 0x40 MSTORE DUP1 SWAP3 SWAP2 SWAP1 DUP2 DUP2 MSTORE PUSH1 0x20 ADD DUP3 DUP1 SLOAD PUSH2 0x37FC SWAP1 PUSH2 0x5AC3 JUMP JUMPDEST DUP1 ISZERO PUSH2 0x3847 JUMPI DUP1 PUSH1 0x1F LT PUSH2 0x381E JUMPI PUSH2 0x100 DUP1 DUP4 SLOAD DIV MUL DUP4 MSTORE SWAP2 PUSH1 0x20 ADD SWAP2 PUSH2 0x3847 JUMP JUMPDEST DUP3 ADD SWAP2 SWAP1 PUSH0 MSTORE PUSH1 0x20 PUSH0 KECCAK256 SWAP1 JUMPDEST DUP2 SLOAD DUP2 MSTORE SWAP1 PUSH1 0x1 ADD SWAP1 PUSH1 0x20 ADD DUP1 DUP4 GT PUSH2 0x382A JUMPI DUP3 SWAP1 SUB PUSH1 0x1F AND DUP3 ADD SWAP2 JUMPDEST POP POP POP POP POP DUP2 MSTORE PUSH1 0x20 ADD PUSH1 0x4 DUP3 ADD DUP1 SLOAD PUSH2 0x3860 SWAP1 PUSH2 0x5AC3 JUMP JUMPDEST DUP1 PUSH1 0x1F ADD PUSH1 0x20 DUP1 SWAP2 DIV MUL PUSH1 0x20 ADD PUSH1 0x40 MLOAD SWAP1 DUP2 ADD PUSH1 0x40 MSTORE DUP1 SWAP3 SWAP2 SWAP1 DUP2 DUP2 MSTORE PUSH1 0x20 ADD DUP3 DUP1 SLOAD PUSH2 0x388C SWAP1 PUSH2 0x5AC3 JUMP JUMPDEST DUP1 ISZERO PUSH2 0x38D7 JUMPI DUP1 PUSH1 0x1F LT PUSH2 0x38AE JUMPI PUSH2 0x100 DUP1 DUP4 SLOAD DIV MUL DUP4 MSTORE SWAP2 PUSH1 0x20 ADD SWAP2 PUSH2 0x38D7 JUMP JUMPDEST DUP3 ADD SWAP2 SWAP1 PUSH0 MSTORE PUSH1 0x20 PUSH0 KECCAK256 SWAP1 JUMPDEST DUP2 SLOAD DUP2 MSTORE SWAP1 PUSH1 0x1 ADD SWAP1 PUSH1 0x20 ADD DUP1 DUP4 GT PUSH2 0x38BA JUMPI DUP3 SWAP1 SUB PUSH1 0x1F AND DUP3 ADD SWAP2 JUMPDEST POP POP POP POP POP DUP2 MSTORE PUSH1 0x20 ADD PUSH1 0x5 DUP3 ADD DUP1 SLOAD PUSH2 0x38F0 SWAP1 PUSH2 0x5AC3 JUMP JUMPDEST DUP1 PUSH1 0x1F ADD PUSH1 0x20 DUP1 SWAP2 DIV MUL PUSH1 0x20 ADD PUSH1 0x40 MLOAD SWAP1 DUP2 ADD PUSH1 0x40 MSTORE DUP1 SWAP3 SWAP2 SWAP1 DUP2 DUP2 MSTORE PUSH1 0x20 ADD DUP3 DUP1 SLOAD PUSH2 0x391C SWAP1 PUSH2 0x5AC3 JUMP JUMPDEST DUP1 ISZERO PUSH2 0x3967 JUMPI DUP1 PUSH1 0x1F LT PUSH2 0x393E JUMPI PUSH2 0x100 DUP1 DUP4 SLOAD DIV MUL DUP4 MSTORE SWAP2 PUSH1 0x20 ADD SWAP2 PUSH2 0x3967 JUMP JUMPDEST DUP3 ADD SWAP2 SWAP1 PUSH0 MSTORE PUSH1 0x20 PUSH0 KECCAK256 SWAP1 JUMPDEST DUP2 SLOAD DUP2 MSTORE SWAP1 PUSH1 0x1 ADD SWAP1 PUSH1 0x20 ADD DUP1 DUP4 GT PUSH2 0x394A JUMPI DUP3 SWAP1 SUB PUSH1 0x1F AND DUP3 ADD SWAP2 JUMPDEST POP POP POP POP POP DUP2 MSTORE PUSH1 0x20 ADD PUSH1 0x6 DUP3 ADD DUP1 SLOAD PUSH2 0x3980 SWAP1 PUSH2 0x5AC3 JUMP JUMPDEST DUP1 PUSH1 0x1F ADD PUSH1 0x20 DUP1 SWAP2 DIV MUL PUSH1 0x20 ADD PUSH1 0x40 MLOAD SWAP1 DUP2 ADD PUSH1 0x40 MSTORE DUP1 SWAP3 SWAP2 SWAP1 DUP2 DUP2 MSTORE PUSH1 0x20 ADD DUP3 DUP1 SLOAD PUSH2 0x39AC SWAP1 PUSH2 0x5AC3 JUMP JUMPDEST DUP1 ISZERO PUSH2 0x39F7 JUMPI DUP1 PUSH1 0x1F LT PUSH2 0x39CE JUMPI PUSH2 0x100 DUP1 DUP4 SLOAD DIV MUL DUP4 MSTORE SWAP2 PUSH1 0x20 ADD SWAP2 PUSH2 0x39F7 JUMP JUMPDEST DUP3 ADD SWAP2 SWAP1 PUSH0 MSTORE PUSH1 0x20 PUSH0 KECCAK256 SWAP1 JUMPDEST DUP2 SLOAD DUP2 MSTORE SWAP1 PUSH1 0x1 ADD SWAP1 PUSH1 0x20 ADD DUP1 DUP4 GT PUSH2 0x39DA JUMPI DUP3 SWAP1 SUB PUSH1 0x1F AND DUP3 ADD SWAP2 JUMPDEST POP POP POP POP POP DUP2 MSTORE PUSH1 0x20 ADD PUSH1 0x7 DUP3 ADD DUP1 SLOAD PUSH2 0x3A10 SWAP1 PUSH2 0x5AC3 JUMP JUMPDEST DUP1 PUSH1 0x1F ADD PUSH1 0x20 DUP1 SWAP2 DIV MUL PUSH1 0x20 ADD PUSH1 0x40 MLOAD SWAP1 DUP2 ADD PUSH1 0x40 MSTORE DUP1 SWAP3 SWAP2 SWAP1 DUP2 DUP2 MSTORE PUSH1 0x20 ADD DUP3 DUP1 SLOAD PUSH2 0x3A3C SWAP1 PUSH2 0x5AC3 JUMP JUMPDEST DUP1 ISZERO PUSH2 0x3A87 JUMPI DUP1 PUSH1 0x1F LT PUSH2 0x3A5E JUMPI PUSH2 0x100 DUP1 DUP4 SLOAD DIV MUL DUP4 MSTORE SWAP2 PUSH1 0x20 ADD SWAP2 PUSH2 0x3A87 JUMP JUMPDEST DUP3 ADD SWAP2 SWAP1 PUSH0 MSTORE PUSH1 0x20 PUSH0 KECCAK256 SWAP1 JUMPDEST DUP2 SLOAD DUP2 MSTORE SWAP1 PUSH1 0x1 ADD SWAP1 PUSH1 0x20 ADD DUP1 DUP4 GT PUSH2 0x3A6A JUMPI DUP3 SWAP1 SUB PUSH1 0x1F AND DUP3 ADD SWAP2 JUMPDEST POP POP POP POP POP DUP2 MSTORE PUSH1 0x20 ADD PUSH1 0x8 DUP3 ADD DUP1 SLOAD PUSH2 0x3AA0 SWAP1 PUSH2 0x5AC3 JUMP JUMPDEST DUP1 PUSH1 0x1F ADD PUSH1 0x20 DUP1 SWAP2 DIV MUL PUSH1 0x20 ADD PUSH1 0x40 MLOAD SWAP1 DUP2 ADD PUSH1 0x40 MSTORE DUP1 SWAP3 SWAP2 SWAP1 DUP2 DUP2 MSTORE PUSH1 0x20 ADD DUP3 DUP1 SLOAD PUSH2 0x3ACC SWAP1 PUSH2 0x5AC3 JUMP JUMPDEST DUP1 ISZERO PUSH2 0x3B17 JUMPI DUP1 PUSH1 0x1F LT PUSH2 0x3AEE JUMPI PUSH2 0x100 DUP1 DUP4 SLOAD DIV MUL DUP4 MSTORE SWAP2 PUSH1 0x20 ADD SWAP2 PUSH2 0x3B17 JUMP JUMPDEST DUP3 ADD SWAP2 SWAP1 PUSH0 MSTORE PUSH1 0x20 PUSH0 KECCAK256 SWAP1 JUMPDEST DUP2 SLOAD DUP2 MSTORE SWAP1 PUSH1 0x1 ADD SWAP1 PUSH1 0x20 ADD DUP1 DUP4 GT PUSH2 0x3AFA JUMPI DUP3 SWAP1 SUB PUSH1 0x1F AND DUP3 ADD SWAP2 JUMPDEST POP POP POP POP POP DUP2 MSTORE PUSH1 0x20 ADD PUSH1 0x9 DUP3 ADD DUP1 SLOAD PUSH2 0x3B30 SWAP1 PUSH2 0x5AC3 JUMP JUMPDEST DUP1 PUSH1 0x1F ADD PUSH1 0x20 DUP1 SWAP2 DIV MUL PUSH1 0x20 ADD PUSH1 0x40 MLOAD SWAP1 DUP2 ADD PUSH1 0x40 MSTORE DUP1 SWAP3 SWAP2 SWAP1 DUP2 DUP2 MSTORE PUSH1 0x20 ADD DUP3 DUP1 SLOAD PUSH2 0x3B5C SWAP1 PUSH2 0x5AC3 JUMP JUMPDEST DUP1 ISZERO PUSH2 0x3BA7 JUMPI DUP1 PUSH1 0x1F LT PUSH2 0x3B7E JUMPI PUSH2 0x100 DUP1 DUP4 SLOAD DIV MUL DUP4 MSTORE SWAP2 PUSH1 0x20 ADD SWAP2 PUSH2 0x3BA7 JUMP JUMPDEST DUP3 ADD SWAP2 SWAP1 PUSH0 MSTORE PUSH1 0x20 PUSH0 KECCAK256 SWAP1 JUMPDEST DUP2 SLOAD DUP2 MSTORE SWAP1 PUSH1 0x1 ADD SWAP1 PUSH1 0x20 ADD DUP1 DUP4 GT PUSH2 0x3B8A JUMPI DUP3 SWAP1 SUB PUSH1 0x1F AND DUP3 ADD SWAP2 JUMPDEST POP POP POP POP POP DUP2 MSTORE POP POP DUP2 MSTORE POP POP DUP2 MSTORE PUSH1 0x20 ADD SWAP1 PUSH1 0x1 ADD SWAP1 PUSH2 0x2CCD JUMP JUMPDEST POP POP POP POP SWAP1 POP SWAP1 JUMP JUMPDEST DUP1 SLOAD ISZERO PUSH2 0x3C10 JUMPI DUP1 DUP1 SLOAD DUP1 PUSH2 0x3BE3 JUMPI PUSH2 0x3BE3 PUSH2 0x5D50 JUMP JUMPDEST PUSH1 0x1 SWAP1 SUB DUP2 DUP2 SWAP1 PUSH0 MSTORE PUSH1 0x20 PUSH0 KECCAK256 SWAP1 PUSH1 0x20 SWAP2 DUP3 DUP3 DIV ADD SWAP2 SWAP1 MOD PUSH2 0x100 EXP DUP2 SLOAD SWAP1 PUSH1 0xFF MUL NOT AND SWAP1 SSTORE SWAP1 SSTORE PUSH2 0x3BCC JUMP JUMPDEST POP JUMP JUMPDEST DUP4 PUSH1 0xFF AND PUSH1 0x8 EQ DUP1 PUSH2 0x3C28 JUMPI POP DUP4 PUSH1 0xFF AND PUSH1 0x9 EQ JUMPDEST ISZERO PUSH2 0x3C65 JUMPI DUP2 SLOAD PUSH1 0x1 DUP2 ADD DUP4 SSTORE PUSH0 DUP4 DUP2 MSTORE PUSH1 0x20 SWAP1 DUP2 SWAP1 KECCAK256 SWAP1 DUP3 DIV ADD DUP1 SLOAD PUSH1 0xFF DUP1 DUP9 AND PUSH1 0x1F SWAP1 SWAP5 AND PUSH2 0x100 EXP SWAP4 DUP5 MUL SWAP4 MUL NOT AND SWAP2 SWAP1 SWAP2 OR SWAP1 SSTORE PUSH2 0x3D83 JUMP JUMPDEST DUP1 PUSH1 0xFF AND PUSH0 SUB PUSH2 0x3CFC JUMPI PUSH0 JUMPDEST PUSH1 0x8 DUP2 PUSH1 0xFF AND LT ISZERO PUSH2 0x3CF6 JUMPI DUP4 DUP2 PUSH1 0xFF AND PUSH1 0xA DUP2 LT PUSH2 0x3C92 JUMPI PUSH2 0x3C92 PUSH2 0x5B14 JUMP JUMPDEST PUSH1 0x20 MUL ADD MLOAD DUP6 PUSH1 0xFF AND PUSH1 0xA DUP2 LT PUSH2 0x3CAB JUMPI PUSH2 0x3CAB PUSH2 0x5B14 JUMP JUMPDEST PUSH1 0x20 MUL ADD MLOAD PUSH1 0xFF AND PUSH1 0x1 SUB PUSH2 0x3CEE JUMPI DUP3 SLOAD PUSH1 0x1 DUP2 ADD DUP5 SSTORE PUSH0 DUP5 DUP2 MSTORE PUSH1 0x20 SWAP1 DUP2 SWAP1 KECCAK256 SWAP1 DUP3 DIV ADD DUP1 SLOAD PUSH1 0xFF DUP1 DUP6 AND PUSH1 0x1F SWAP1 SWAP5 AND PUSH2 0x100 EXP SWAP4 DUP5 MUL SWAP4 MUL NOT AND SWAP2 SWAP1 SWAP2 OR SWAP1 SSTORE JUMPDEST PUSH1 0x1 ADD PUSH2 0x3C71 JUMP JUMPDEST POP PUSH2 0x3D83 JUMP JUMPDEST PUSH0 JUMPDEST PUSH1 0x8 DUP2 PUSH1 0xFF AND LT ISZERO PUSH2 0x219A JUMPI DUP4 DUP6 PUSH1 0xFF AND PUSH1 0xA DUP2 LT PUSH2 0x3D1F JUMPI PUSH2 0x3D1F PUSH2 0x5B14 JUMP JUMPDEST PUSH1 0x20 MUL ADD MLOAD DUP2 PUSH1 0xFF AND PUSH1 0xA DUP2 LT PUSH2 0x3D38 JUMPI PUSH2 0x3D38 PUSH2 0x5B14 JUMP JUMPDEST PUSH1 0x20 MUL ADD MLOAD PUSH1 0xFF AND PUSH1 0x1 SUB PUSH2 0x3D7B JUMPI DUP3 SLOAD PUSH1 0x1 DUP2 ADD DUP5 SSTORE PUSH0 DUP5 DUP2 MSTORE PUSH1 0x20 SWAP1 DUP2 SWAP1 KECCAK256 SWAP1 DUP3 DIV ADD DUP1 SLOAD PUSH1 0xFF DUP1 DUP6 AND PUSH1 0x1F SWAP1 SWAP5 AND PUSH2 0x100 EXP SWAP4 DUP5 MUL SWAP4 MUL NOT AND SWAP2 SWAP1 SWAP2 OR SWAP1 SSTORE JUMPDEST PUSH1 0x1 ADD PUSH2 0x3CFE JUMP JUMPDEST POP POP POP POP JUMP JUMPDEST PUSH0 PUSH2 0x3D9E DUP4 PUSH2 0x120 ADD MLOAD DUP4 PUSH2 0x120 ADD MLOAD PUSH2 0x5139 JUMP JUMPDEST PUSH2 0x3DB2 DUP5 PUSH2 0x100 ADD MLOAD DUP5 PUSH2 0x100 ADD MLOAD PUSH2 0x5139 JUMP JUMPDEST PUSH2 0x3DC4 DUP6 PUSH1 0xE0 ADD MLOAD DUP6 PUSH1 0xE0 ADD MLOAD PUSH2 0x5139 JUMP JUMPDEST PUSH2 0x3DD6 DUP7 PUSH1 0xC0 ADD MLOAD DUP7 PUSH1 0xC0 ADD MLOAD PUSH2 0x5139 JUMP JUMPDEST PUSH2 0x3DE8 DUP8 PUSH1 0xA0 ADD MLOAD DUP8 PUSH1 0xA0 ADD MLOAD PUSH2 0x5139 JUMP JUMPDEST PUSH2 0x3DFA DUP9 PUSH1 0x80 ADD MLOAD DUP9 PUSH1 0x80 ADD MLOAD PUSH2 0x5139 JUMP JUMPDEST PUSH2 0x3E0C DUP10 PUSH1 0x60 ADD MLOAD DUP10 PUSH1 0x60 ADD MLOAD PUSH2 0x5139 JUMP JUMPDEST PUSH2 0x3E1E DUP11 PUSH1 0x40 ADD MLOAD DUP11 PUSH1 0x40 ADD MLOAD PUSH2 0x5139 JUMP JUMPDEST PUSH2 0x3E30 DUP12 PUSH1 0x20 ADD MLOAD DUP12 PUSH1 0x20 ADD MLOAD PUSH2 0x5139 JUMP JUMPDEST DUP12 MLOAD DUP12 MLOAD PUSH2 0x3E3E SWAP2 SWAP1 PUSH2 0x5139 JUMP JUMPDEST PUSH2 0x3E48 SWAP1 PUSH0 PUSH2 0x5D7D JUMP JUMPDEST PUSH2 0x3E52 SWAP2 SWAP1 PUSH2 0x5D7D JUMP JUMPDEST PUSH2 0x3E5C SWAP2 SWAP1 PUSH2 0x5D7D JUMP JUMPDEST PUSH2 0x3E66 SWAP2 SWAP1 PUSH2 0x5D7D JUMP JUMPDEST PUSH2 0x3E70 SWAP2 SWAP1 PUSH2 0x5D7D JUMP JUMPDEST PUSH2 0x3E7A SWAP2 SWAP1 PUSH2 0x5D7D JUMP JUMPDEST PUSH2 0x3E84 SWAP2 SWAP1 PUSH2 0x5D7D JUMP JUMPDEST PUSH2 0x3E8E SWAP2 SWAP1 PUSH2 0x5D7D JUMP JUMPDEST PUSH2 0x3E98 SWAP2 SWAP1 PUSH2 0x5D7D JUMP JUMPDEST PUSH2 0x3EA2 SWAP2 SWAP1 PUSH2 0x5D7D JUMP JUMPDEST SWAP1 POP JUMPDEST SWAP3 SWAP2 POP POP JUMP JUMPDEST PUSH1 0x40 DUP1 MLOAD PUSH1 0xA0 DUP2 ADD DUP3 MSTORE PUSH1 0x9 DUP2 MSTORE PUSH1 0x7 PUSH1 0x20 DUP3 ADD MSTORE PUSH1 0x5 SWAP2 DUP2 ADD SWAP2 SWAP1 SWAP2 MSTORE PUSH1 0x2 PUSH1 0x60 DUP3 ADD MSTORE PUSH0 PUSH1 0x80 DUP3 ADD DUP2 SWAP1 MSTORE SWAP1 DUP2 JUMPDEST PUSH1 0x5 DUP2 LT ISZERO PUSH2 0x4046 JUMPI PUSH0 DUP5 PUSH0 DUP5 DUP5 PUSH1 0x5 DUP2 LT PUSH2 0x3EF9 JUMPI PUSH2 0x3EF9 PUSH2 0x5B14 JUMP JUMPDEST PUSH1 0x20 MUL ADD MLOAD PUSH1 0xFF AND PUSH1 0xFF AND DUP2 MSTORE PUSH1 0x20 ADD SWAP1 DUP2 MSTORE PUSH1 0x20 ADD PUSH0 KECCAK256 DUP1 SLOAD DUP1 PUSH1 0x20 MUL PUSH1 0x20 ADD PUSH1 0x40 MLOAD SWAP1 DUP2 ADD PUSH1 0x40 MSTORE DUP1 SWAP3 SWAP2 SWAP1 DUP2 DUP2 MSTORE PUSH1 0x20 ADD PUSH0 SWAP1 JUMPDEST DUP3 DUP3 LT ISZERO PUSH2 0x3FD8 JUMPI DUP4 DUP3 SWAP1 PUSH0 MSTORE PUSH1 0x20 PUSH0 KECCAK256 ADD DUP1 SLOAD PUSH2 0x3F4D SWAP1 PUSH2 0x5AC3 JUMP JUMPDEST DUP1 PUSH1 0x1F ADD PUSH1 0x20 DUP1 SWAP2 DIV MUL PUSH1 0x20 ADD PUSH1 0x40 MLOAD SWAP1 DUP2 ADD PUSH1 0x40 MSTORE DUP1 SWAP3 SWAP2 SWAP1 DUP2 DUP2 MSTORE PUSH1 0x20 ADD DUP3 DUP1 SLOAD PUSH2 0x3F79 SWAP1 PUSH2 0x5AC3 JUMP JUMPDEST DUP1 ISZERO PUSH2 0x3FC4 JUMPI DUP1 PUSH1 0x1F LT PUSH2 0x3F9B JUMPI PUSH2 0x100 DUP1 DUP4 SLOAD DIV MUL DUP4 MSTORE SWAP2 PUSH1 0x20 ADD SWAP2 PUSH2 0x3FC4 JUMP JUMPDEST DUP3 ADD SWAP2 SWAP1 PUSH0 MSTORE PUSH1 0x20 PUSH0 KECCAK256 SWAP1 JUMPDEST DUP2 SLOAD DUP2 MSTORE SWAP1 PUSH1 0x1 ADD SWAP1 PUSH1 0x20 ADD DUP1 DUP4 GT PUSH2 0x3FA7 JUMPI DUP3 SWAP1 SUB PUSH1 0x1F AND DUP3 ADD SWAP2 JUMPDEST POP POP POP POP POP DUP2 MSTORE PUSH1 0x20 ADD SWAP1 PUSH1 0x1 ADD SWAP1 PUSH2 0x3F30 JUMP JUMPDEST POP POP POP POP SWAP1 POP PUSH0 JUMPDEST DUP2 MLOAD DUP2 LT ISZERO PUSH2 0x403C JUMPI DUP7 DUP1 MLOAD SWAP1 PUSH1 0x20 ADD KECCAK256 DUP3 DUP3 DUP2 MLOAD DUP2 LT PUSH2 0x4003 JUMPI PUSH2 0x4003 PUSH2 0x5B14 JUMP JUMPDEST PUSH1 0x20 MUL PUSH1 0x20 ADD ADD MLOAD DUP1 MLOAD SWAP1 PUSH1 0x20 ADD KECCAK256 SUB PUSH2 0x4034 JUMPI DUP4 DUP4 PUSH1 0x5 DUP2 LT PUSH2 0x4029 JUMPI PUSH2 0x4029 PUSH2 0x5B14 JUMP JUMPDEST PUSH1 0x20 MUL ADD MLOAD PUSH1 0xFF AND SWAP5 POP JUMPDEST PUSH1 0x1 ADD PUSH2 0x3FE0 JUMP JUMPDEST POP POP PUSH1 0x1 ADD PUSH2 0x3EDB JUMP JUMPDEST POP POP SWAP3 SWAP2 POP POP JUMP JUMPDEST PUSH1 0x40 DUP1 MLOAD PUSH2 0x100 DUP2 ADD DUP3 MSTORE DUP10 DUP2 MSTORE PUSH1 0x20 DUP1 DUP3 ADD DUP11 SWAP1 MSTORE SWAP2 DUP2 ADD DUP9 SWAP1 MSTORE PUSH1 0xFF DUP1 DUP9 AND PUSH1 0x60 DUP4 ADD MSTORE DUP7 DUP2 AND PUSH1 0x80 DUP4 ADD MSTORE DUP6 AND PUSH1 0xA0 DUP3 ADD MSTORE PUSH1 0xC0 DUP2 ADD DUP5 SWAP1 MSTORE PUSH1 0xE0 DUP2 ADD DUP4 SWAP1 MSTORE DUP11 SLOAD PUSH1 0x1 DUP2 ADD DUP13 SSTORE PUSH0 DUP13 DUP2 MSTORE SWAP3 SWAP1 SWAP3 KECCAK256 DUP2 MLOAD DUP1 MLOAD SWAP3 SWAP4 DUP5 SWAP4 PUSH1 0x1C SWAP1 SWAP2 MUL SWAP1 SWAP3 ADD SWAP2 DUP3 SWAP1 DUP2 SWAP1 PUSH2 0x40C0 SWAP1 DUP3 PUSH2 0x5DDF JUMP JUMPDEST POP PUSH1 0x20 DUP3 ADD MLOAD PUSH1 0x1 DUP3 ADD DUP1 SLOAD PUSH1 0x40 DUP6 ADD MLOAD PUSH1 0xFF SWAP1 DUP2 AND PUSH2 0x100 MUL PUSH2 0xFFFF NOT SWAP1 SWAP3 AND SWAP4 AND SWAP3 SWAP1 SWAP3 OR SWAP2 SWAP1 SWAP2 OR SWAP1 SSTORE PUSH1 0x60 DUP3 ADD MLOAD PUSH1 0x2 DUP3 ADD SWAP1 PUSH2 0x4101 SWAP1 DUP3 PUSH2 0x5DDF JUMP JUMPDEST POP POP POP PUSH1 0x20 DUP3 ADD MLOAD DUP1 MLOAD PUSH1 0x3 DUP4 ADD SWAP1 DUP2 SWAP1 PUSH2 0x411C SWAP1 DUP3 PUSH2 0x5DDF JUMP JUMPDEST POP PUSH1 0x20 DUP3 ADD MLOAD PUSH1 0x1 DUP3 ADD DUP1 SLOAD PUSH1 0x40 DUP6 ADD MLOAD PUSH1 0xFF SWAP1 DUP2 AND PUSH2 0x100 MUL PUSH2 0xFFFF NOT SWAP1 SWAP3 AND SWAP4 AND SWAP3 SWAP1 SWAP3 OR SWAP2 SWAP1 SWAP2 OR SWAP1 SSTORE PUSH1 0x60 DUP3 ADD MLOAD PUSH1 0x2 DUP3 ADD SWAP1 PUSH2 0x415D SWAP1 DUP3 PUSH2 0x5DDF JUMP JUMPDEST POP POP POP PUSH1 0x40 DUP3 ADD MLOAD PUSH1 0x6 DUP3 ADD SWAP1 PUSH2 0x4174 SWAP1 DUP3 PUSH2 0x5DDF JUMP JUMPDEST POP PUSH1 0x60 DUP3 ADD MLOAD PUSH1 0x7 DUP3 ADD DUP1 SLOAD PUSH1 0x80 DUP6 ADD MLOAD PUSH1 0xA0 DUP7 ADD MLOAD PUSH1 0xFF SWAP1 DUP2 AND PUSH3 0x10000 MUL PUSH32 0xFFFFFFFFFFFFFFFFFFFFFFFFFFFFFFFFFFFFFFFFFFFFFFFFFFFFFFFFFF00FFFF SWAP3 DUP3 AND PUSH2 0x100 MUL PUSH2 0xFFFF NOT SWAP1 SWAP5 AND SWAP2 SWAP1 SWAP6 AND OR SWAP2 SWAP1 SWAP2 OR AND SWAP2 SWAP1 SWAP2 OR SWAP1 SSTORE PUSH1 0xC0 DUP3 ADD MLOAD DUP1 MLOAD PUSH1 0x8 DUP4 ADD SWAP1 DUP2 SWAP1 PUSH2 0x41EB SWAP1 DUP3 PUSH2 0x5DDF JUMP JUMPDEST POP PUSH1 0x20 DUP3 ADD MLOAD PUSH1 0x1 DUP3 ADD SWAP1 PUSH2 0x4200 SWAP1 DUP3 PUSH2 0x5DDF JUMP JUMPDEST POP PUSH1 0x40 DUP3 ADD MLOAD PUSH1 0x2 DUP3 ADD SWAP1 PUSH2 0x4215 SWAP1 DUP3 PUSH2 0x5DDF JUMP JUMPDEST POP PUSH1 0x60 DUP3 ADD MLOAD PUSH1 0x3 DUP3 ADD SWAP1 PUSH2 0x422A SWAP1 DUP3 PUSH2 0x5DDF JUMP JUMPDEST POP PUSH1 0x80 DUP3 ADD MLOAD PUSH1 0x4 DUP3 ADD SWAP1 PUSH2 0x423F SWAP1 DUP3 PUSH2 0x5DDF JUMP JUMPDEST POP PUSH1 0xA0 DUP3 ADD MLOAD PUSH1 0x5 DUP3 ADD SWAP1 PUSH2 0x4254 SWAP1 DUP3 PUSH2 0x5DDF JUMP JUMPDEST POP PUSH1 0xC0 DUP3 ADD MLOAD PUSH1 0x6 DUP3 ADD SWAP1 PUSH2 0x4269 SWAP1 DUP3 PUSH2 0x5DDF JUMP JUMPDEST POP PUSH1 0xE0 DUP3 ADD MLOAD PUSH1 0x7 DUP3 ADD SWAP1 PUSH2 0x427E SWAP1 DUP3 PUSH2 0x5DDF JUMP JUMPDEST POP PUSH2 0x100 DUP3 ADD MLOAD PUSH1 0x8 DUP3 ADD SWAP1 PUSH2 0x4294 SWAP1 DUP3 PUSH2 0x5DDF JUMP JUMPDEST POP PUSH2 0x120 DUP3 ADD MLOAD PUSH1 0x9 DUP3 ADD SWAP1 PUSH2 0x42AA SWAP1 DUP3 PUSH2 0x5DDF JUMP JUMPDEST POP POP POP PUSH1 0xE0 DUP3 ADD MLOAD DUP1 MLOAD PUSH1 0x12 DUP4 ADD SWAP1 DUP2 SWAP1 PUSH2 0x42C5 SWAP1 DUP3 PUSH2 0x5DDF JUMP JUMPDEST POP PUSH1 0x20 DUP3 ADD MLOAD PUSH1 0x1 DUP3 ADD SWAP1 PUSH2 0x42DA SWAP1 DUP3 PUSH2 0x5DDF JUMP JUMPDEST POP PUSH1 0x40 DUP3 ADD MLOAD PUSH1 0x2 DUP3 ADD SWAP1 PUSH2 0x42EF SWAP1 DUP3 PUSH2 0x5DDF JUMP JUMPDEST POP PUSH1 0x60 DUP3 ADD MLOAD PUSH1 0x3 DUP3 ADD SWAP1 PUSH2 0x4304 SWAP1 DUP3 PUSH2 0x5DDF JUMP JUMPDEST POP PUSH1 0x80 DUP3 ADD MLOAD PUSH1 0x4 DUP3 ADD SWAP1 PUSH2 0x4319 SWAP1 DUP3 PUSH2 0x5DDF JUMP JUMPDEST POP PUSH1 0xA0 DUP3 ADD MLOAD PUSH1 0x5 DUP3 ADD SWAP1 PUSH2 0x432E SWAP1 DUP3 PUSH2 0x5DDF JUMP JUMPDEST POP PUSH1 0xC0 DUP3 ADD MLOAD PUSH1 0x6 DUP3 ADD SWAP1 PUSH2 0x4343 SWAP1 DUP3 PUSH2 0x5DDF JUMP JUMPDEST POP PUSH1 0xE0 DUP3 ADD MLOAD PUSH1 0x7 DUP3 ADD SWAP1 PUSH2 0x4358 SWAP1 DUP3 PUSH2 0x5DDF JUMP JUMPDEST POP PUSH2 0x100 DUP3 ADD MLOAD PUSH1 0x8 DUP3 ADD SWAP1 PUSH2 0x436E SWAP1 DUP3 PUSH2 0x5DDF JUMP JUMPDEST POP PUSH2 0x120 DUP3 ADD MLOAD PUSH1 0x9 DUP3 ADD SWAP1 PUSH2 0x4384 SWAP1 DUP3 PUSH2 0x5DDF JUMP JUMPDEST POP POP POP POP POP POP POP POP POP POP POP POP POP POP POP JUMP JUMPDEST PUSH1 0x40 DUP1 MLOAD PUSH1 0x80 DUP2 ADD DUP3 MSTORE DUP6 DUP2 MSTORE PUSH1 0x20 DUP1 DUP3 ADD DUP7 SWAP1 MSTORE PUSH1 0xFF DUP6 AND SWAP3 DUP3 ADD SWAP3 SWAP1 SWAP3 MSTORE PUSH1 0x60 DUP2 ADD DUP4 SWAP1 MSTORE DUP7 SLOAD PUSH1 0x1 DUP2 ADD DUP9 SSTORE PUSH0 DUP9 DUP2 MSTORE SWAP3 SWAP1 SWAP3 KECCAK256 DUP2 MLOAD DUP1 MLOAD SWAP3 SWAP4 DUP5 SWAP4 PUSH1 0xF SWAP1 SWAP2 MUL SWAP1 SWAP3 ADD SWAP2 DUP3 SWAP1 DUP2 SWAP1 PUSH2 0x43EB SWAP1 DUP3 PUSH2 0x5DDF JUMP JUMPDEST POP PUSH1 0x20 DUP3 ADD MLOAD PUSH1 0x1 DUP3 ADD DUP1 SLOAD PUSH1 0x40 DUP6 ADD MLOAD PUSH1 0xFF SWAP1 DUP2 AND PUSH2 0x100 MUL PUSH2 0xFFFF NOT SWAP1 SWAP3 AND SWAP4 AND SWAP3 SWAP1 SWAP3 OR SWAP2 SWAP1 SWAP2 OR SWAP1 SSTORE PUSH1 0x60 DUP3 ADD MLOAD PUSH1 0x2 DUP3 ADD SWAP1 PUSH2 0x442C SWAP1 DUP3 PUSH2 0x5DDF JUMP JUMPDEST POP POP POP PUSH1 0x20 DUP3 ADD MLOAD PUSH1 0x3 DUP3 ADD SWAP1 PUSH2 0x4443 SWAP1 DUP3 PUSH2 0x5DDF JUMP JUMPDEST POP PUSH1 0x40 DUP3 ADD MLOAD PUSH1 0x4 DUP3 ADD DUP1 SLOAD PUSH1 0xFF NOT AND PUSH1 0xFF SWAP1 SWAP3 AND SWAP2 SWAP1 SWAP2 OR SWAP1 SSTORE PUSH1 0x60 DUP3 ADD MLOAD DUP1 MLOAD PUSH1 0x5 DUP4 ADD SWAP1 DUP2 SWAP1 PUSH2 0x4476 SWAP1 DUP3 PUSH2 0x5DDF JUMP JUMPDEST POP PUSH1 0x20 DUP3 ADD MLOAD PUSH1 0x1 DUP3 ADD SWAP1 PUSH2 0x448B SWAP1 DUP3 PUSH2 0x5DDF JUMP JUMPDEST POP PUSH1 0x40 DUP3 ADD MLOAD PUSH1 0x2 DUP3 ADD SWAP1 PUSH2 0x44A0 SWAP1 DUP3 PUSH2 0x5DDF JUMP JUMPDEST POP PUSH1 0x60 DUP3 ADD MLOAD PUSH1 0x3 DUP3 ADD SWAP1 PUSH2 0x44B5 SWAP1 DUP3 PUSH2 0x5DDF JUMP JUMPDEST POP PUSH1 0x80 DUP3 ADD MLOAD PUSH1 0x4 DUP3 ADD SWAP1 PUSH2 0x44CA SWAP1 DUP3 PUSH2 0x5DDF JUMP JUMPDEST POP PUSH1 0xA0 DUP3 ADD MLOAD PUSH1 0x5 DUP3 ADD SWAP1 PUSH2 0x44DF SWAP1 DUP3 PUSH2 0x5DDF JUMP JUMPDEST POP PUSH1 0xC0 DUP3 ADD MLOAD PUSH1 0x6 DUP3 ADD SWAP1 PUSH2 0x44F4 SWAP1 DUP3 PUSH2 0x5DDF JUMP JUMPDEST POP PUSH1 0xE0 DUP3 ADD MLOAD PUSH1 0x7 DUP3 ADD SWAP1 PUSH2 0x4509 SWAP1 DUP3 PUSH2 0x5DDF JUMP JUMPDEST POP PUSH2 0x100 DUP3 ADD MLOAD PUSH1 0x8 DUP3 ADD SWAP1 PUSH2 0x451F SWAP1 DUP3 PUSH2 0x5DDF JUMP JUMPDEST POP PUSH2 0x120 DUP3 ADD MLOAD PUSH1 0x9 DUP3 ADD SWAP1 PUSH2 0x4535 SWAP1 DUP3 PUSH2 0x5DDF JUMP JUMPDEST POP POP POP POP POP POP POP POP POP POP POP JUMP JUMPDEST PUSH0 DUP3 DUP3 DUP2 SLOAD DUP2 LT PUSH2 0x4555 JUMPI PUSH2 0x4555 PUSH2 0x5B14 JUMP JUMPDEST SWAP1 PUSH0 MSTORE PUSH1 0x20 PUSH0 KECCAK256 SWAP1 PUSH1 0xF MUL ADD PUSH1 0x40 MLOAD DUP1 PUSH1 0x80 ADD PUSH1 0x40 MSTORE SWAP1 DUP2 PUSH0 DUP3 ADD PUSH1 0x40 MLOAD DUP1 PUSH1 0x80 ADD PUSH1 0x40 MSTORE SWAP1 DUP2 PUSH0 DUP3 ADD DUP1 SLOAD PUSH2 0x458A SWAP1 PUSH2 0x5AC3 JUMP JUMPDEST DUP1 PUSH1 0x1F ADD PUSH1 0x20 DUP1 SWAP2 DIV MUL PUSH1 0x20 ADD PUSH1 0x40 MLOAD SWAP1 DUP2 ADD PUSH1 0x40 MSTORE DUP1 SWAP3 SWAP2 SWAP1 DUP2 DUP2 MSTORE PUSH1 0x20 ADD DUP3 DUP1 SLOAD PUSH2 0x45B6 SWAP1 PUSH2 0x5AC3 JUMP JUMPDEST DUP1 ISZERO PUSH2 0x4601 JUMPI DUP1 PUSH1 0x1F LT PUSH2 0x45D8 JUMPI PUSH2 0x100 DUP1 DUP4 SLOAD DIV MUL DUP4 MSTORE SWAP2 PUSH1 0x20 ADD SWAP2 PUSH2 0x4601 JUMP JUMPDEST DUP3 ADD SWAP2 SWAP1 PUSH0 MSTORE PUSH1 0x20 PUSH0 KECCAK256 SWAP1 JUMPDEST DUP2 SLOAD DUP2 MSTORE SWAP1 PUSH1 0x1 ADD SWAP1 PUSH1 0x20 ADD DUP1 DUP4 GT PUSH2 0x45E4 JUMPI DUP3 SWAP1 SUB PUSH1 0x1F AND DUP3 ADD SWAP2 JUMPDEST POP POP POP SWAP2 DUP4 MSTORE POP POP PUSH1 0x1 DUP3 ADD SLOAD PUSH1 0xFF DUP1 DUP3 AND PUSH1 0x20 DUP5 ADD MSTORE PUSH2 0x100 SWAP1 SWAP2 DIV AND PUSH1 0x40 DUP3 ADD MSTORE PUSH1 0x2 DUP3 ADD DUP1 SLOAD PUSH1 0x60 SWAP1 SWAP3 ADD SWAP2 PUSH2 0x4639 SWAP1 PUSH2 0x5AC3 JUMP JUMPDEST DUP1 PUSH1 0x1F ADD PUSH1 0x20 DUP1 SWAP2 DIV MUL PUSH1 0x20 ADD PUSH1 0x40 MLOAD SWAP1 DUP2 ADD PUSH1 0x40 MSTORE DUP1 SWAP3 SWAP2 SWAP1 DUP2 DUP2 MSTORE PUSH1 0x20 ADD DUP3 DUP1 SLOAD PUSH2 0x4665 SWAP1 PUSH2 0x5AC3 JUMP JUMPDEST DUP1 ISZERO PUSH2 0x46B0 JUMPI DUP1 PUSH1 0x1F LT PUSH2 0x4687 JUMPI PUSH2 0x100 DUP1 DUP4 SLOAD DIV MUL DUP4 MSTORE SWAP2 PUSH1 0x20 ADD SWAP2 PUSH2 0x46B0 JUMP JUMPDEST DUP3 ADD SWAP2 SWAP1 PUSH0 MSTORE PUSH1 0x20 PUSH0 KECCAK256 SWAP1 JUMPDEST DUP2 SLOAD DUP2 MSTORE SWAP1 PUSH1 0x1 ADD SWAP1 PUSH1 0x20 ADD DUP1 DUP4 GT PUSH2 0x4693 JUMPI DUP3 SWAP1 SUB PUSH1 0x1F AND DUP3 ADD SWAP2 JUMPDEST POP POP POP POP POP DUP2 MSTORE POP POP DUP2 MSTORE PUSH1 0x20 ADD PUSH1 0x3 DUP3 ADD DUP1 SLOAD PUSH2 0x46CD SWAP1 PUSH2 0x5AC3 JUMP JUMPDEST DUP1 PUSH1 0x1F ADD PUSH1 0x20 DUP1 SWAP2 DIV MUL PUSH1 0x20 ADD PUSH1 0x40 MLOAD SWAP1 DUP2 ADD PUSH1 0x40 MSTORE DUP1 SWAP3 SWAP2 SWAP1 DUP2 DUP2 MSTORE PUSH1 0x20 ADD DUP3 DUP1 SLOAD PUSH2 0x46F9 SWAP1 PUSH2 0x5AC3 JUMP JUMPDEST DUP1 ISZERO PUSH2 0x4744 JUMPI DUP1 PUSH1 0x1F LT PUSH2 0x471B JUMPI PUSH2 0x100 DUP1 DUP4 SLOAD DIV MUL DUP4 MSTORE SWAP2 PUSH1 0x20 ADD SWAP2 PUSH2 0x4744 JUMP JUMPDEST DUP3 ADD SWAP2 SWAP1 PUSH0 MSTORE PUSH1 0x20 PUSH0 KECCAK256 SWAP1 JUMPDEST DUP2 SLOAD DUP2 MSTORE SWAP1 PUSH1 0x1 ADD SWAP1 PUSH1 0x20 ADD DUP1 DUP4 GT PUSH2 0x4727 JUMPI DUP3 SWAP1 SUB PUSH1 0x1F AND DUP3 ADD SWAP2 JUMPDEST POP POP POP SWAP2 DUP4 MSTORE POP POP PUSH1 0x4 DUP3 ADD SLOAD PUSH1 0xFF AND PUSH1 0x20 DUP3 ADD MSTORE PUSH1 0x40 DUP1 MLOAD PUSH2 0x140 DUP2 ADD DUP3 MSTORE PUSH1 0x5 DUP5 ADD DUP1 SLOAD SWAP3 SWAP1 SWAP4 ADD SWAP3 SWAP1 SWAP2 DUP3 SWAP1 DUP3 SWAP1 PUSH2 0x477E SWAP1 PUSH2 0x5AC3 JUMP JUMPDEST DUP1 PUSH1 0x1F ADD PUSH1 0x20 DUP1 SWAP2 DIV MUL PUSH1 0x20 ADD PUSH1 0x40 MLOAD SWAP1 DUP2 ADD PUSH1 0x40 MSTORE DUP1 SWAP3 SWAP2 SWAP1 DUP2 DUP2 MSTORE PUSH1 0x20 ADD DUP3 DUP1 SLOAD PUSH2 0x47AA SWAP1 PUSH2 0x5AC3 JUMP JUMPDEST DUP1 ISZERO PUSH2 0x47F5 JUMPI DUP1 PUSH1 0x1F LT PUSH2 0x47CC JUMPI PUSH2 0x100 DUP1 DUP4 SLOAD DIV MUL DUP4 MSTORE SWAP2 PUSH1 0x20 ADD SWAP2 PUSH2 0x47F5 JUMP JUMPDEST DUP3 ADD SWAP2 SWAP1 PUSH0 MSTORE PUSH1 0x20 PUSH0 KECCAK256 SWAP1 JUMPDEST DUP2 SLOAD DUP2 MSTORE SWAP1 PUSH1 0x1 ADD SWAP1 PUSH1 0x20 ADD DUP1 DUP4 GT PUSH2 0x47D8 JUMPI DUP3 SWAP1 SUB PUSH1 0x1F AND DUP3 ADD SWAP2 JUMPDEST POP POP POP POP POP DUP2 MSTORE PUSH1 0x20 ADD PUSH1 0x1 DUP3 ADD DUP1 SLOAD PUSH2 0x480E SWAP1 PUSH2 0x5AC3 JUMP JUMPDEST DUP1 PUSH1 0x1F ADD PUSH1 0x20 DUP1 SWAP2 DIV MUL PUSH1 0x20 ADD PUSH1 0x40 MLOAD SWAP1 DUP2 ADD PUSH1 0x40 MSTORE DUP1 SWAP3 SWAP2 SWAP1 DUP2 DUP2 MSTORE PUSH1 0x20 ADD DUP3 DUP1 SLOAD PUSH2 0x483A SWAP1 PUSH2 0x5AC3 JUMP JUMPDEST DUP1 ISZERO PUSH2 0x4885 JUMPI DUP1 PUSH1 0x1F LT PUSH2 0x485C JUMPI PUSH2 0x100 DUP1 DUP4 SLOAD DIV MUL DUP4 MSTORE SWAP2 PUSH1 0x20 ADD SWAP2 PUSH2 0x4885 JUMP JUMPDEST DUP3 ADD SWAP2 SWAP1 PUSH0 MSTORE PUSH1 0x20 PUSH0 KECCAK256 SWAP1 JUMPDEST DUP2 SLOAD DUP2 MSTORE SWAP1 PUSH1 0x1 ADD SWAP1 PUSH1 0x20 ADD DUP1 DUP4 GT PUSH2 0x4868 JUMPI DUP3 SWAP1 SUB PUSH1 0x1F AND DUP3 ADD SWAP2 JUMPDEST POP POP POP POP POP DUP2 MSTORE PUSH1 0x20 ADD PUSH1 0x2 DUP3 ADD DUP1 SLOAD PUSH2 0x489E SWAP1 PUSH2 0x5AC3 JUMP JUMPDEST DUP1 PUSH1 0x1F ADD PUSH1 0x20 DUP1 SWAP2 DIV MUL PUSH1 0x20 ADD PUSH1 0x40 MLOAD SWAP1 DUP2 ADD PUSH1 0x40 MSTORE DUP1 SWAP3 SWAP2 SWAP1 DUP2 DUP2 MSTORE PUSH1 0x20 ADD DUP3 DUP1 SLOAD PUSH2 0x48CA SWAP1 PUSH2 0x5AC3 JUMP JUMPDEST DUP1 ISZERO PUSH2 0x4915 JUMPI DUP1 PUSH1 0x1F LT PUSH2 0x48EC JUMPI PUSH2 0x100 DUP1 DUP4 SLOAD DIV MUL DUP4 MSTORE SWAP2 PUSH1 0x20 ADD SWAP2 PUSH2 0x4915 JUMP JUMPDEST DUP3 ADD SWAP2 SWAP1 PUSH0 MSTORE PUSH1 0x20 PUSH0 KECCAK256 SWAP1 JUMPDEST DUP2 SLOAD DUP2 MSTORE SWAP1 PUSH1 0x1 ADD SWAP1 PUSH1 0x20 ADD DUP1 DUP4 GT PUSH2 0x48F8 JUMPI DUP3 SWAP1 SUB PUSH1 0x1F AND DUP3 ADD SWAP2 JUMPDEST POP POP POP POP POP DUP2 MSTORE PUSH1 0x20 ADD PUSH1 0x3 DUP3 ADD DUP1 SLOAD PUSH2 0x492E SWAP1 PUSH2 0x5AC3 JUMP JUMPDEST DUP1 PUSH1 0x1F ADD PUSH1 0x20 DUP1 SWAP2 DIV MUL PUSH1 0x20 ADD PUSH1 0x40 MLOAD SWAP1 DUP2 ADD PUSH1 0x40 MSTORE DUP1 SWAP3 SWAP2 SWAP1 DUP2 DUP2 MSTORE PUSH1 0x20 ADD DUP3 DUP1 SLOAD PUSH2 0x495A SWAP1 PUSH2 0x5AC3 JUMP JUMPDEST DUP1 ISZERO PUSH2 0x49A5 JUMPI DUP1 PUSH1 0x1F LT PUSH2 0x497C JUMPI PUSH2 0x100 DUP1 DUP4 SLOAD DIV MUL DUP4 MSTORE SWAP2 PUSH1 0x20 ADD SWAP2 PUSH2 0x49A5 JUMP JUMPDEST DUP3 ADD SWAP2 SWAP1 PUSH0 MSTORE PUSH1 0x20 PUSH0 KECCAK256 SWAP1 JUMPDEST DUP2 SLOAD DUP2 MSTORE SWAP1 PUSH1 0x1 ADD SWAP1 PUSH1 0x20 ADD DUP1 DUP4 GT PUSH2 0x4988 JUMPI DUP3 SWAP1 SUB PUSH1 0x1F AND DUP3 ADD SWAP2 JUMPDEST POP POP POP POP POP DUP2 MSTORE PUSH1 0x20 ADD PUSH1 0x4 DUP3 ADD DUP1 SLOAD PUSH2 0x49BE SWAP1 PUSH2 0x5AC3 JUMP JUMPDEST DUP1 PUSH1 0x1F ADD PUSH1 0x20 DUP1 SWAP2 DIV MUL PUSH1 0x20 ADD PUSH1 0x40 MLOAD SWAP1 DUP2 ADD PUSH1 0x40 MSTORE DUP1 SWAP3 SWAP2 SWAP1 DUP2 DUP2 MSTORE PUSH1 0x20 ADD DUP3 DUP1 SLOAD PUSH2 0x49EA SWAP1 PUSH2 0x5AC3 JUMP JUMPDEST DUP1 ISZERO PUSH2 0x4A35 JUMPI DUP1 PUSH1 0x1F LT PUSH2 0x4A0C JUMPI PUSH2 0x100 DUP1 DUP4 SLOAD DIV MUL DUP4 MSTORE SWAP2 PUSH1 0x20 ADD SWAP2 PUSH2 0x4A35 JUMP JUMPDEST DUP3 ADD SWAP2 SWAP1 PUSH0 MSTORE PUSH1 0x20 PUSH0 KECCAK256 SWAP1 JUMPDEST DUP2 SLOAD DUP2 MSTORE SWAP1 PUSH1 0x1 ADD SWAP1 PUSH1 0x20 ADD DUP1 DUP4 GT PUSH2 0x4A18 JUMPI DUP3 SWAP1 SUB PUSH1 0x1F AND DUP3 ADD SWAP2 JUMPDEST POP POP POP POP POP DUP2 MSTORE PUSH1 0x20 ADD PUSH1 0x5 DUP3 ADD DUP1 SLOAD PUSH2 0x4A4E SWAP1 PUSH2 0x5AC3 JUMP JUMPDEST DUP1 PUSH1 0x1F ADD PUSH1 0x20 DUP1 SWAP2 DIV MUL PUSH1 0x20 ADD PUSH1 0x40 MLOAD SWAP1 DUP2 ADD PUSH1 0x40 MSTORE DUP1 SWAP3 SWAP2 SWAP1 DUP2 DUP2 MSTORE PUSH1 0x20 ADD DUP3 DUP1 SLOAD PUSH2 0x4A7A SWAP1 PUSH2 0x5AC3 JUMP JUMPDEST DUP1 ISZERO PUSH2 0x4AC5 JUMPI DUP1 PUSH1 0x1F LT PUSH2 0x4A9C JUMPI PUSH2 0x100 DUP1 DUP4 SLOAD DIV MUL DUP4 MSTORE SWAP2 PUSH1 0x20 ADD SWAP2 PUSH2 0x4AC5 JUMP JUMPDEST DUP3 ADD SWAP2 SWAP1 PUSH0 MSTORE PUSH1 0x20 PUSH0 KECCAK256 SWAP1 JUMPDEST DUP2 SLOAD DUP2 MSTORE SWAP1 PUSH1 0x1 ADD SWAP1 PUSH1 0x20 ADD DUP1 DUP4 GT PUSH2 0x4AA8 JUMPI DUP3 SWAP1 SUB PUSH1 0x1F AND DUP3 ADD SWAP2 JUMPDEST POP POP POP POP POP DUP2 MSTORE PUSH1 0x20 ADD PUSH1 0x6 DUP3 ADD DUP1 SLOAD PUSH2 0x4ADE SWAP1 PUSH2 0x5AC3 JUMP JUMPDEST DUP1 PUSH1 0x1F ADD PUSH1 0x20 DUP1 SWAP2 DIV MUL PUSH1 0x20 ADD PUSH1 0x40 MLOAD SWAP1 DUP2 ADD PUSH1 0x40 MSTORE DUP1 SWAP3 SWAP2 SWAP1 DUP2 DUP2 MSTORE PUSH1 0x20 ADD DUP3 DUP1 SLOAD PUSH2 0x4B0A SWAP1 PUSH2 0x5AC3 JUMP JUMPDEST DUP1 ISZERO PUSH2 0x4B55 JUMPI DUP1 PUSH1 0x1F LT PUSH2 0x4B2C JUMPI PUSH2 0x100 DUP1 DUP4 SLOAD DIV MUL DUP4 MSTORE SWAP2 PUSH1 0x20 ADD SWAP2 PUSH2 0x4B55 JUMP JUMPDEST DUP3 ADD SWAP2 SWAP1 PUSH0 MSTORE PUSH1 0x20 PUSH0 KECCAK256 SWAP1 JUMPDEST DUP2 SLOAD DUP2 MSTORE SWAP1 PUSH1 0x1 ADD SWAP1 PUSH1 0x20 ADD DUP1 DUP4 GT PUSH2 0x4B38 JUMPI DUP3 SWAP1 SUB PUSH1 0x1F AND DUP3 ADD SWAP2 JUMPDEST POP POP POP POP POP DUP2 MSTORE PUSH1 0x20 ADD PUSH1 0x7 DUP3 ADD DUP1 SLOAD PUSH2 0x4B6E SWAP1 PUSH2 0x5AC3 JUMP JUMPDEST DUP1 PUSH1 0x1F ADD PUSH1 0x20 DUP1 SWAP2 DIV MUL PUSH1 0x20 ADD PUSH1 0x40 MLOAD SWAP1 DUP2 ADD PUSH1 0x40 MSTORE DUP1 SWAP3 SWAP2 SWAP1 DUP2 DUP2 MSTORE PUSH1 0x20 ADD DUP3 DUP1 SLOAD PUSH2 0x4B9A SWAP1 PUSH2 0x5AC3 JUMP JUMPDEST DUP1 ISZERO PUSH2 0x4BE5 JUMPI DUP1 PUSH1 0x1F LT PUSH2 0x4BBC JUMPI PUSH2 0x100 DUP1 DUP4 SLOAD DIV MUL DUP4 MSTORE SWAP2 PUSH1 0x20 ADD SWAP2 PUSH2 0x4BE5 JUMP JUMPDEST DUP3 ADD SWAP2 SWAP1 PUSH0 MSTORE PUSH1 0x20 PUSH0 KECCAK256 SWAP1 JUMPDEST DUP2 SLOAD DUP2 MSTORE SWAP1 PUSH1 0x1 ADD SWAP1 PUSH1 0x20 ADD DUP1 DUP4 GT PUSH2 0x4BC8 JUMPI DUP3 SWAP1 SUB PUSH1 0x1F AND DUP3 ADD SWAP2 JUMPDEST POP POP POP POP POP DUP2 MSTORE PUSH1 0x20 ADD PUSH1 0x8 DUP3 ADD DUP1 SLOAD PUSH2 0x4BFE SWAP1 PUSH2 0x5AC3 JUMP JUMPDEST DUP1 PUSH1 0x1F ADD PUSH1 0x20 DUP1 SWAP2 DIV MUL PUSH1 0x20 ADD PUSH1 0x40 MLOAD SWAP1 DUP2 ADD PUSH1 0x40 MSTORE DUP1 SWAP3 SWAP2 SWAP1 DUP2 DUP2 MSTORE PUSH1 0x20 ADD DUP3 DUP1 SLOAD PUSH2 0x4C2A SWAP1 PUSH2 0x5AC3 JUMP JUMPDEST DUP1 ISZERO PUSH2 0x4C75 JUMPI DUP1 PUSH1 0x1F LT PUSH2 0x4C4C JUMPI PUSH2 0x100 DUP1 DUP4 SLOAD DIV MUL DUP4 MSTORE SWAP2 PUSH1 0x20 ADD SWAP2 PUSH2 0x4C75 JUMP JUMPDEST DUP3 ADD SWAP2 SWAP1 PUSH0 MSTORE PUSH1 0x20 PUSH0 KECCAK256 SWAP1 JUMPDEST DUP2 SLOAD DUP2 MSTORE SWAP1 PUSH1 0x1 ADD SWAP1 PUSH1 0x20 ADD DUP1 DUP4 GT PUSH2 0x4C58 JUMPI DUP3 SWAP1 SUB PUSH1 0x1F AND DUP3 ADD SWAP2 JUMPDEST POP POP POP POP POP DUP2 MSTORE PUSH1 0x20 ADD PUSH1 0x9 DUP3 ADD DUP1 SLOAD PUSH2 0x4C8E SWAP1 PUSH2 0x5AC3 JUMP JUMPDEST DUP1 PUSH1 0x1F ADD PUSH1 0x20 DUP1 SWAP2 DIV MUL PUSH1 0x20 ADD PUSH1 0x40 MLOAD SWAP1 DUP2 ADD PUSH1 0x40 MSTORE DUP1 SWAP3 SWAP2 SWAP1 DUP2 DUP2 MSTORE PUSH1 0x20 ADD DUP3 DUP1 SLOAD PUSH2 0x4CBA SWAP1 PUSH2 0x5AC3 JUMP JUMPDEST DUP1 ISZERO PUSH2 0x4D05 JUMPI DUP1 PUSH1 0x1F LT PUSH2 0x4CDC JUMPI PUSH2 0x100 DUP1 DUP4 SLOAD DIV MUL DUP4 MSTORE SWAP2 PUSH1 0x20 ADD SWAP2 PUSH2 0x4D05 JUMP JUMPDEST DUP3 ADD SWAP2 SWAP1 PUSH0 MSTORE PUSH1 0x20 PUSH0 KECCAK256 SWAP1 JUMPDEST DUP2 SLOAD DUP2 MSTORE SWAP1 PUSH1 0x1 ADD SWAP1 PUSH1 0x20 ADD DUP1 DUP4 GT PUSH2 0x4CE8 JUMPI DUP3 SWAP1 SUB PUSH1 0x1F AND DUP3 ADD SWAP2 JUMPDEST POP POP POP SWAP2 SWAP1 SWAP3 MSTORE POP POP POP SWAP1 MSTORE POP DUP4 SLOAD SWAP1 SWAP2 POP DUP4 SWAP1 PUSH2 0x4D25 SWAP1 PUSH1 0x1 SWAP1 PUSH2 0x5E9D JUMP JUMPDEST DUP2 SLOAD DUP2 LT PUSH2 0x4D35 JUMPI PUSH2 0x4D35 PUSH2 0x5B14 JUMP JUMPDEST SWAP1 PUSH0 MSTORE PUSH1 0x20 PUSH0 KECCAK256 SWAP1 PUSH1 0xF MUL ADD DUP4 DUP4 DUP2 SLOAD DUP2 LT PUSH2 0x4D53 JUMPI PUSH2 0x4D53 PUSH2 0x5B14 JUMP JUMPDEST PUSH0 SWAP2 DUP3 MSTORE PUSH1 0x20 SWAP1 SWAP2 KECCAK256 PUSH1 0xF SWAP1 SWAP2 MUL ADD DUP2 DUP2 DUP1 PUSH2 0x4D6F DUP4 DUP3 PUSH2 0x5EB0 JUMP JUMPDEST POP PUSH1 0x1 DUP3 DUP2 ADD DUP1 SLOAD SWAP2 DUP4 ADD DUP1 SLOAD PUSH1 0xFF SWAP4 DUP5 AND PUSH1 0xFF NOT DUP3 AND DUP2 OR DUP4 SSTORE SWAP3 SLOAD PUSH2 0xFFFF NOT SWAP1 SWAP2 AND SWAP1 SWAP3 OR PUSH2 0x100 SWAP3 DUP4 SWAP1 DIV SWAP1 SWAP4 AND SWAP1 SWAP2 MUL SWAP2 SWAP1 SWAP2 OR SWAP1 SSTORE PUSH1 0x2 DUP1 DUP3 ADD SWAP1 PUSH2 0x4DBB SWAP1 DUP5 ADD DUP3 PUSH2 0x5EB0 JUMP JUMPDEST POP POP POP PUSH1 0x3 DUP2 DUP2 ADD SWAP1 PUSH2 0x4DD0 SWAP1 DUP5 ADD DUP3 PUSH2 0x5EB0 JUMP JUMPDEST POP PUSH1 0x4 DUP3 DUP2 ADD SLOAD SWAP1 DUP3 ADD DUP1 SLOAD PUSH1 0xFF NOT AND PUSH1 0xFF SWAP1 SWAP3 AND SWAP2 SWAP1 SWAP2 OR SWAP1 SSTORE PUSH1 0x5 DUP1 DUP4 ADD SWAP1 DUP3 ADD DUP1 PUSH2 0x4DFE DUP4 DUP3 PUSH2 0x5EB0 JUMP JUMPDEST POP PUSH1 0x1 DUP2 DUP2 ADD SWAP1 PUSH2 0x4E11 SWAP1 DUP5 ADD DUP3 PUSH2 0x5EB0 JUMP JUMPDEST POP PUSH1 0x2 DUP2 DUP2 ADD SWAP1 PUSH2 0x4E24 SWAP1 DUP5 ADD DUP3 PUSH2 0x5EB0 JUMP JUMPDEST POP PUSH1 0x3 DUP2 DUP2 ADD SWAP1 PUSH2 0x4E37 SWAP1 DUP5 ADD DUP3 PUSH2 0x5EB0 JUMP JUMPDEST POP PUSH1 0x4 DUP2 DUP2 ADD SWAP1 PUSH2 0x4E4A SWAP1 DUP5 ADD DUP3 PUSH2 0x5EB0 JUMP JUMPDEST POP PUSH1 0x5 DUP2 DUP2 ADD SWAP1 PUSH2 0x4E5D SWAP1 DUP5 ADD DUP3 PUSH2 0x5EB0 JUMP JUMPDEST POP PUSH1 0x6 DUP2 DUP2 ADD SWAP1 PUSH2 0x4E70 SWAP1 DUP5 ADD DUP3 PUSH2 0x5EB0 JUMP JUMPDEST POP PUSH1 0x7 DUP2 DUP2 ADD SWAP1 PUSH2 0x4E83 SWAP1 DUP5 ADD DUP3 PUSH2 0x5EB0 JUMP JUMPDEST POP PUSH1 0x8 DUP2 DUP2 ADD SWAP1 PUSH2 0x4E96 SWAP1 DUP5 ADD DUP3 PUSH2 0x5EB0 JUMP JUMPDEST POP PUSH1 0x9 DUP2 DUP2 ADD SWAP1 PUSH2 0x4EA9 SWAP1 DUP5 ADD DUP3 PUSH2 0x5EB0 JUMP JUMPDEST POP POP DUP6 SLOAD DUP5 SWAP4 POP DUP7 SWAP3 POP PUSH2 0x4EC0 SWAP2 POP PUSH1 0x1 SWAP1 PUSH2 0x5E9D JUMP JUMPDEST DUP2 SLOAD DUP2 LT PUSH2 0x4ED0 JUMPI PUSH2 0x4ED0 PUSH2 0x5B14 JUMP JUMPDEST PUSH0 SWAP2 DUP3 MSTORE PUSH1 0x20 SWAP1 SWAP2 KECCAK256 DUP3 MLOAD DUP1 MLOAD PUSH1 0xF SWAP1 SWAP4 MUL SWAP1 SWAP2 ADD SWAP2 DUP3 SWAP1 DUP2 SWAP1 PUSH2 0x4EF4 SWAP1 DUP3 PUSH2 0x5DDF JUMP JUMPDEST POP PUSH1 0x20 DUP3 ADD MLOAD PUSH1 0x1 DUP3 ADD DUP1 SLOAD PUSH1 0x40 DUP6 ADD MLOAD PUSH1 0xFF SWAP1 DUP2 AND PUSH2 0x100 MUL PUSH2 0xFFFF NOT SWAP1 SWAP3 AND SWAP4 AND SWAP3 SWAP1 SWAP3 OR SWAP2 SWAP1 SWAP2 OR SWAP1 SSTORE PUSH1 0x60 DUP3 ADD MLOAD PUSH1 0x2 DUP3 ADD SWAP1 PUSH2 0x4F35 SWAP1 DUP3 PUSH2 0x5DDF JUMP JUMPDEST POP POP POP PUSH1 0x20 DUP3 ADD MLOAD PUSH1 0x3 DUP3 ADD SWAP1 PUSH2 0x4F4C SWAP1 DUP3 PUSH2 0x5DDF JUMP JUMPDEST POP PUSH1 0x40 DUP3 ADD MLOAD PUSH1 0x4 DUP3 ADD DUP1 SLOAD PUSH1 0xFF NOT AND PUSH1 0xFF SWAP1 SWAP3 AND SWAP2 SWAP1 SWAP2 OR SWAP1 SSTORE PUSH1 0x60 DUP3 ADD MLOAD DUP1 MLOAD PUSH1 0x5 DUP4 ADD SWAP1 DUP2 SWAP1 PUSH2 0x4F7F SWAP1 DUP3 PUSH2 0x5DDF JUMP JUMPDEST POP PUSH1 0x20 DUP3 ADD MLOAD PUSH1 0x1 DUP3 ADD SWAP1 PUSH2 0x4F94 SWAP1 DUP3 PUSH2 0x5DDF JUMP JUMPDEST POP PUSH1 0x40 DUP3 ADD MLOAD PUSH1 0x2 DUP3 ADD SWAP1 PUSH2 0x4FA9 SWAP1 DUP3 PUSH2 0x5DDF JUMP JUMPDEST POP PUSH1 0x60 DUP3 ADD MLOAD PUSH1 0x3 DUP3 ADD SWAP1 PUSH2 0x4FBE SWAP1 DUP3 PUSH2 0x5DDF JUMP JUMPDEST POP PUSH1 0x80 DUP3 ADD MLOAD PUSH1 0x4 DUP3 ADD SWAP1 PUSH2 0x4FD3 SWAP1 DUP3 PUSH2 0x5DDF JUMP JUMPDEST POP PUSH1 0xA0 DUP3 ADD MLOAD PUSH1 0x5 DUP3 ADD SWAP1 PUSH2 0x4FE8 SWAP1 DUP3 PUSH2 0x5DDF JUMP JUMPDEST POP PUSH1 0xC0 DUP3 ADD MLOAD PUSH1 0x6 DUP3 ADD SWAP1 PUSH2 0x4FFD SWAP1 DUP3 PUSH2 0x5DDF JUMP JUMPDEST POP PUSH1 0xE0 DUP3 ADD MLOAD PUSH1 0x7 DUP3 ADD SWAP1 PUSH2 0x5012 SWAP1 DUP3 PUSH2 0x5DDF JUMP JUMPDEST POP PUSH2 0x100 DUP3 ADD MLOAD PUSH1 0x8 DUP3 ADD SWAP1 PUSH2 0x5028 SWAP1 DUP3 PUSH2 0x5DDF JUMP JUMPDEST POP PUSH2 0x120 DUP3 ADD MLOAD PUSH1 0x9 DUP3 ADD SWAP1 PUSH2 0x503E SWAP1 DUP3 PUSH2 0x5DDF JUMP JUMPDEST POP POP POP SWAP1 POP POP DUP3 DUP1 SLOAD DUP1 PUSH2 0x5054 JUMPI PUSH2 0x5054 PUSH2 0x5D50 JUMP JUMPDEST PUSH0 DUP3 DUP2 MSTORE PUSH1 0x20 DUP2 KECCAK256 PUSH0 NOT SWAP1 SWAP3 ADD SWAP2 PUSH1 0xF DUP4 MUL ADD SWAP1 DUP2 DUP2 PUSH2 0x5074 DUP3 DUP3 PUSH2 0x53C3 JUMP JUMPDEST PUSH1 0x1 DUP3 ADD DUP1 SLOAD PUSH2 0xFFFF NOT AND SWAP1 SSTORE PUSH2 0x508E PUSH1 0x2 DUP4 ADD PUSH0 PUSH2 0x53C3 JUMP JUMPDEST POP PUSH2 0x509E SWAP1 POP PUSH1 0x3 DUP4 ADD PUSH0 PUSH2 0x53C3 JUMP JUMPDEST PUSH1 0x4 DUP3 ADD DUP1 SLOAD PUSH1 0xFF NOT AND SWAP1 SSTORE PUSH1 0x5 DUP3 ADD PUSH0 PUSH2 0x50B9 DUP3 DUP3 PUSH2 0x53C3 JUMP JUMPDEST PUSH2 0x50C6 PUSH1 0x1 DUP4 ADD PUSH0 PUSH2 0x53C3 JUMP JUMPDEST PUSH2 0x50D3 PUSH1 0x2 DUP4 ADD PUSH0 PUSH2 0x53C3 JUMP JUMPDEST PUSH2 0x50E0 PUSH1 0x3 DUP4 ADD PUSH0 PUSH2 0x53C3 JUMP JUMPDEST PUSH2 0x50ED PUSH1 0x4 DUP4 ADD PUSH0 PUSH2 0x53C3 JUMP JUMPDEST PUSH2 0x50FA PUSH1 0x5 DUP4 ADD PUSH0 PUSH2 0x53C3 JUMP JUMPDEST PUSH2 0x5107 PUSH1 0x6 DUP4 ADD PUSH0 PUSH2 0x53C3 JUMP JUMPDEST PUSH2 0x5114 PUSH1 0x7 DUP4 ADD PUSH0 PUSH2 0x53C3 JUMP JUMPDEST PUSH2 0x5121 PUSH1 0x8 DUP4 ADD PUSH0 PUSH2 0x53C3 JUMP JUMPDEST PUSH2 0x512E PUSH1 0x9 DUP4 ADD PUSH0 PUSH2 0x53C3 JUMP JUMPDEST POP POP POP POP SWAP1 SSTORE POP POP POP JUMP JUMPDEST PUSH0 PUSH1 0x30 DUP3 PUSH1 0x1 DUP2 MLOAD DUP2 LT PUSH2 0x514F JUMPI PUSH2 0x514F PUSH2 0x5B14 JUMP JUMPDEST ADD PUSH1 0x20 ADD MLOAD PUSH2 0x5161 SWAP2 SWAP1 PUSH1 0xF8 SHR PUSH2 0x5F7D JUMP JUMPDEST PUSH1 0x30 DUP4 PUSH0 DUP2 MLOAD DUP2 LT PUSH2 0x5175 JUMPI PUSH2 0x5175 PUSH2 0x5B14 JUMP JUMPDEST ADD PUSH1 0x20 ADD MLOAD PUSH2 0x5187 SWAP2 SWAP1 PUSH1 0xF8 SHR PUSH2 0x5F7D JUMP JUMPDEST PUSH2 0x5192 SWAP1 PUSH1 0xA PUSH2 0x5BDF JUMP JUMPDEST PUSH2 0x519C SWAP2 SWAP1 PUSH2 0x5D7D JUMP JUMPDEST PUSH1 0xFF AND PUSH1 0x30 DUP5 PUSH1 0x1 DUP2 MLOAD DUP2 LT PUSH2 0x51B4 JUMPI PUSH2 0x51B4 PUSH2 0x5B14 JUMP JUMPDEST ADD PUSH1 0x20 ADD MLOAD PUSH2 0x51C6 SWAP2 SWAP1 PUSH1 0xF8 SHR PUSH2 0x5F7D JUMP JUMPDEST PUSH1 0x30 DUP6 PUSH0 DUP2 MLOAD DUP2 LT PUSH2 0x51DA JUMPI PUSH2 0x51DA PUSH2 0x5B14 JUMP JUMPDEST ADD PUSH1 0x20 ADD MLOAD PUSH2 0x51EC SWAP2 SWAP1 PUSH1 0xF8 SHR PUSH2 0x5F7D JUMP JUMPDEST PUSH2 0x51F7 SWAP1 PUSH1 0xA PUSH2 0x5BDF JUMP JUMPDEST PUSH2 0x5201 SWAP2 SWAP1 PUSH2 0x5D7D JUMP JUMPDEST PUSH1 0xFF AND EQ DUP1 ISZERO PUSH2 0x52DA JUMPI POP PUSH1 0x30 DUP3 PUSH1 0x4 DUP2 MLOAD DUP2 LT PUSH2 0x5221 JUMPI PUSH2 0x5221 PUSH2 0x5B14 JUMP JUMPDEST ADD PUSH1 0x20 ADD MLOAD PUSH2 0x5233 SWAP2 SWAP1 PUSH1 0xF8 SHR PUSH2 0x5F7D JUMP JUMPDEST PUSH1 0x30 DUP4 PUSH1 0x3 DUP2 MLOAD DUP2 LT PUSH2 0x5248 JUMPI PUSH2 0x5248 PUSH2 0x5B14 JUMP JUMPDEST ADD PUSH1 0x20 ADD MLOAD PUSH2 0x525A SWAP2 SWAP1 PUSH1 0xF8 SHR PUSH2 0x5F7D JUMP JUMPDEST PUSH2 0x5265 SWAP1 PUSH1 0xA PUSH2 0x5BDF JUMP JUMPDEST PUSH2 0x526F SWAP2 SWAP1 PUSH2 0x5D7D JUMP JUMPDEST PUSH1 0xFF AND PUSH1 0x30 DUP5 PUSH1 0x4 DUP2 MLOAD DUP2 LT PUSH2 0x5287 JUMPI PUSH2 0x5287 PUSH2 0x5B14 JUMP JUMPDEST ADD PUSH1 0x20 ADD MLOAD PUSH2 0x5299 SWAP2 SWAP1 PUSH1 0xF8 SHR PUSH2 0x5F7D JUMP JUMPDEST PUSH1 0x30 DUP6 PUSH1 0x3 DUP2 MLOAD DUP2 LT PUSH2 0x52AE JUMPI PUSH2 0x52AE PUSH2 0x5B14 JUMP JUMPDEST ADD PUSH1 0x20 ADD MLOAD PUSH2 0x52C0 SWAP2 SWAP1 PUSH1 0xF8 SHR PUSH2 0x5F7D JUMP JUMPDEST PUSH2 0x52CB SWAP1 PUSH1 0xA PUSH2 0x5BDF JUMP JUMPDEST PUSH2 0x52D5 SWAP2 SWAP1 PUSH2 0x5D7D JUMP JUMPDEST PUSH1 0xFF AND EQ JUMPDEST DUP1 ISZERO PUSH2 0x53AF JUMPI POP PUSH1 0x30 DUP3 PUSH1 0x7 DUP2 MLOAD DUP2 LT PUSH2 0x52F6 JUMPI PUSH2 0x52F6 PUSH2 0x5B14 JUMP JUMPDEST ADD PUSH1 0x20 ADD MLOAD PUSH2 0x5308 SWAP2 SWAP1 PUSH1 0xF8 SHR PUSH2 0x5F7D JUMP JUMPDEST PUSH1 0x30 DUP4 PUSH1 0x6 DUP2 MLOAD DUP2 LT PUSH2 0x531D JUMPI PUSH2 0x531D PUSH2 0x5B14 JUMP JUMPDEST ADD PUSH1 0x20 ADD MLOAD PUSH2 0x532F SWAP2 SWAP1 PUSH1 0xF8 SHR PUSH2 0x5F7D JUMP JUMPDEST PUSH2 0x533A SWAP1 PUSH1 0xA PUSH2 0x5BDF JUMP JUMPDEST PUSH2 0x5344 SWAP2 SWAP1 PUSH2 0x5D7D JUMP JUMPDEST PUSH1 0xFF AND PUSH1 0x30 DUP5 PUSH1 0x7 DUP2 MLOAD DUP2 LT PUSH2 0x535C JUMPI PUSH2 0x535C PUSH2 0x5B14 JUMP JUMPDEST ADD PUSH1 0x20 ADD MLOAD PUSH2 0x536E SWAP2 SWAP1 PUSH1 0xF8 SHR PUSH2 0x5F7D JUMP JUMPDEST PUSH1 0x30 DUP6 PUSH1 0x6 DUP2 MLOAD DUP2 LT PUSH2 0x5383 JUMPI PUSH2 0x5383 PUSH2 0x5B14 JUMP JUMPDEST ADD PUSH1 0x20 ADD MLOAD PUSH2 0x5395 SWAP2 SWAP1 PUSH1 0xF8 SHR PUSH2 0x5F7D JUMP JUMPDEST PUSH2 0x53A0 SWAP1 PUSH1 0xA PUSH2 0x5BDF JUMP JUMPDEST PUSH2 0x53AA SWAP2 SWAP1 PUSH2 0x5D7D JUMP JUMPDEST PUSH1 0xFF AND EQ JUMPDEST ISZERO PUSH2 0x53BC JUMPI POP PUSH1 0x1 PUSH2 0x3EA5 JUMP JUMPDEST POP PUSH0 PUSH2 0x3EA5 JUMP JUMPDEST POP DUP1 SLOAD PUSH2 0x53CF SWAP1 PUSH2 0x5AC3 JUMP JUMPDEST PUSH0 DUP3 SSTORE DUP1 PUSH1 0x1F LT PUSH2 0x53DE JUMPI POP POP JUMP JUMPDEST PUSH1 0x1F ADD PUSH1 0x20 SWAP1 DIV SWAP1 PUSH0 MSTORE PUSH1 0x20 PUSH0 KECCAK256 SWAP1 DUP2 ADD SWAP1 PUSH2 0x3C10 SWAP2 SWAP1 JUMPDEST DUP1 DUP3 GT ISZERO PUSH2 0x5409 JUMPI PUSH0 DUP2 SSTORE PUSH1 0x1 ADD PUSH2 0x53F6 JUMP JUMPDEST POP SWAP1 JUMP JUMPDEST PUSH32 0x4E487B7100000000000000000000000000000000000000000000000000000000 PUSH0 MSTORE PUSH1 0x41 PUSH1 0x4 MSTORE PUSH1 0x24 PUSH0 REVERT JUMPDEST PUSH1 0x40 MLOAD PUSH2 0x140 DUP2 ADD PUSH8 0xFFFFFFFFFFFFFFFF DUP2 GT DUP3 DUP3 LT OR ISZERO PUSH2 0x545E JUMPI PUSH2 0x545E PUSH2 0x540D JUMP JUMPDEST PUSH1 0x40 MSTORE SWAP1 JUMP JUMPDEST PUSH1 0x40 MLOAD PUSH1 0x80 DUP2 ADD PUSH8 0xFFFFFFFFFFFFFFFF DUP2 GT DUP3 DUP3 LT OR ISZERO PUSH2 0x545E JUMPI PUSH2 0x545E PUSH2 0x540D JUMP JUMPDEST PUSH0 DUP3 PUSH1 0x1F DUP4 ADD SLT PUSH2 0x5496 JUMPI PUSH0 DUP1 REVERT JUMPDEST DUP2 CALLDATALOAD PUSH8 0xFFFFFFFFFFFFFFFF DUP2 GT ISZERO PUSH2 0x54B0 JUMPI PUSH2 0x54B0 PUSH2 0x540D JUMP JUMPDEST PUSH1 0x40 MLOAD PUSH1 0x1F DUP3 ADD PUSH1 0x1F NOT SWAP1 DUP2 AND PUSH1 0x3F ADD AND DUP2 ADD PUSH8 0xFFFFFFFFFFFFFFFF DUP2 GT DUP3 DUP3 LT OR ISZERO PUSH2 0x54DF JUMPI PUSH2 0x54DF PUSH2 0x540D JUMP JUMPDEST PUSH1 0x40 MSTORE DUP2 DUP2 MSTORE DUP4 DUP3 ADD PUSH1 0x20 ADD DUP6 LT ISZERO PUSH2 0x54F6 JUMPI PUSH0 DUP1 REVERT JUMPDEST DUP2 PUSH1 0x20 DUP6 ADD PUSH1 0x20 DUP4 ADD CALLDATACOPY PUSH0 SWAP2 DUP2 ADD PUSH1 0x20 ADD SWAP2 SWAP1 SWAP2 MSTORE SWAP4 SWAP3 POP POP POP JUMP JUMPDEST DUP1 CALLDATALOAD PUSH1 0xFF DUP2 AND DUP2 EQ PUSH2 0x5522 JUMPI PUSH0 DUP1 REVERT JUMPDEST SWAP2 SWAP1 POP JUMP JUMPDEST PUSH0 DUP1 PUSH1 0x40 DUP4 DUP6 SUB SLT ISZERO PUSH2 0x5538 JUMPI PUSH0 DUP1 REVERT JUMPDEST DUP3 CALLDATALOAD PUSH8 0xFFFFFFFFFFFFFFFF DUP2 GT ISZERO PUSH2 0x554E JUMPI PUSH0 DUP1 REVERT JUMPDEST PUSH2 0x555A DUP6 DUP3 DUP7 ADD PUSH2 0x5487 JUMP JUMPDEST SWAP3 POP POP PUSH2 0x5569 PUSH1 0x20 DUP5 ADD PUSH2 0x5512 JUMP JUMPDEST SWAP1 POP SWAP3 POP SWAP3 SWAP1 POP JUMP JUMPDEST PUSH0 DUP2 MLOAD DUP1 DUP5 MSTORE DUP1 PUSH1 0x20 DUP5 ADD PUSH1 0x20 DUP7 ADD MCOPY PUSH0 PUSH1 0x20 DUP3 DUP7 ADD ADD MSTORE PUSH1 0x20 PUSH1 0x1F NOT PUSH1 0x1F DUP4 ADD AND DUP6 ADD ADD SWAP2 POP POP SWAP3 SWAP2 POP POP JUMP JUMPDEST PUSH0 DUP2 MLOAD PUSH2 0x140 DUP5 MSTORE PUSH2 0x55B6 PUSH2 0x140 DUP6 ADD DUP3 PUSH2 0x5572 JUMP JUMPDEST SWAP1 POP PUSH1 0x20 DUP4 ADD MLOAD DUP5 DUP3 SUB PUSH1 0x20 DUP7 ADD MSTORE PUSH2 0x55CF DUP3 DUP3 PUSH2 0x5572 JUMP JUMPDEST SWAP2 POP POP PUSH1 0x40 DUP4 ADD MLOAD DUP5 DUP3 SUB PUSH1 0x40 DUP7 ADD MSTORE PUSH2 0x55E9 DUP3 DUP3 PUSH2 0x5572 JUMP JUMPDEST SWAP2 POP POP PUSH1 0x60 DUP4 ADD MLOAD DUP5 DUP3 SUB PUSH1 0x60 DUP7 ADD MSTORE PUSH2 0x5603 DUP3 DUP3 PUSH2 0x5572 JUMP JUMPDEST SWAP2 POP POP PUSH1 0x80 DUP4 ADD MLOAD DUP5 DUP3 SUB PUSH1 0x80 DUP7 ADD MSTORE PUSH2 0x561D DUP3 DUP3 PUSH2 0x5572 JUMP JUMPDEST SWAP2 POP POP PUSH1 0xA0 DUP4 ADD MLOAD DUP5 DUP3 SUB PUSH1 0xA0 DUP7 ADD MSTORE PUSH2 0x5637 DUP3 DUP3 PUSH2 0x5572 JUMP JUMPDEST SWAP2 POP POP PUSH1 0xC0 DUP4 ADD MLOAD DUP5 DUP3 SUB PUSH1 0xC0 DUP7 ADD MSTORE PUSH2 0x5651 DUP3 DUP3 PUSH2 0x5572 JUMP JUMPDEST SWAP2 POP POP PUSH1 0xE0 DUP4 ADD MLOAD DUP5 DUP3 SUB PUSH1 0xE0 DUP7 ADD MSTORE PUSH2 0x566B DUP3 DUP3 PUSH2 0x5572 JUMP JUMPDEST SWAP2 POP POP PUSH2 0x100 DUP4 ADD MLOAD DUP5 DUP3 SUB PUSH2 0x100 DUP7 ADD MSTORE PUSH2 0x5687 DUP3 DUP3 PUSH2 0x5572 JUMP JUMPDEST SWAP2 POP POP PUSH2 0x120 DUP4 ADD MLOAD DUP5 DUP3 SUB PUSH2 0x120 DUP7 ADD MSTORE PUSH2 0x56A3 DUP3 DUP3 PUSH2 0x5572 JUMP JUMPDEST SWAP6 SWAP5 POP POP POP POP POP JUMP JUMPDEST PUSH0 PUSH1 0x20 DUP3 ADD PUSH1 0x20 DUP4 MSTORE DUP1 DUP5 MLOAD DUP1 DUP4 MSTORE PUSH1 0x40 DUP6 ADD SWAP2 POP PUSH1 0x40 DUP2 PUSH1 0x5 SHL DUP7 ADD ADD SWAP3 POP PUSH1 0x20 DUP7 ADD PUSH0 JUMPDEST DUP3 DUP2 LT ISZERO PUSH2 0x57BA JUMPI PUSH32 0xFFFFFFFFFFFFFFFFFFFFFFFFFFFFFFFFFFFFFFFFFFFFFFFFFFFFFFFFFFFFFFC0 DUP8 DUP7 SUB ADD DUP5 MSTORE DUP2 MLOAD DUP1 MLOAD PUSH1 0x80 DUP8 MSTORE DUP1 MLOAD PUSH1 0x80 DUP1 DUP10 ADD MSTORE PUSH2 0x571F PUSH2 0x100 DUP10 ADD DUP3 PUSH2 0x5572 JUMP JUMPDEST SWAP1 POP PUSH1 0xFF PUSH1 0x20 DUP4 ADD MLOAD AND PUSH1 0xA0 DUP10 ADD MSTORE PUSH1 0xFF PUSH1 0x40 DUP4 ADD MLOAD AND PUSH1 0xC0 DUP10 ADD MSTORE PUSH1 0x60 DUP3 ADD MLOAD SWAP2 POP PUSH1 0x7F NOT DUP9 DUP3 SUB ADD PUSH1 0xE0 DUP10 ADD MSTORE PUSH2 0x5758 DUP2 DUP4 PUSH2 0x5572 JUMP JUMPDEST SWAP2 POP POP PUSH1 0x20 DUP3 ADD MLOAD DUP8 DUP3 SUB PUSH1 0x20 DUP10 ADD MSTORE PUSH2 0x5772 DUP3 DUP3 PUSH2 0x5572 JUMP JUMPDEST SWAP2 POP POP PUSH1 0x40 DUP3 ADD MLOAD PUSH2 0x5789 PUSH1 0x40 DUP10 ADD DUP3 PUSH1 0xFF AND SWAP1 MSTORE JUMP JUMPDEST POP PUSH1 0x60 DUP3 ADD MLOAD SWAP2 POP DUP7 DUP2 SUB PUSH1 0x60 DUP9 ADD MSTORE PUSH2 0x57A3 DUP2 DUP4 PUSH2 0x55A0 JUMP JUMPDEST SWAP7 POP POP POP PUSH1 0x20 SWAP4 DUP5 ADD SWAP4 SWAP2 SWAP1 SWAP2 ADD SWAP1 PUSH1 0x1 ADD PUSH2 0x56D2 JUMP JUMPDEST POP SWAP3 SWAP7 SWAP6 POP POP POP POP POP POP JUMP JUMPDEST PUSH0 PUSH2 0x140 DUP3 DUP5 SUB SLT ISZERO PUSH2 0x57D7 JUMPI PUSH0 DUP1 REVERT JUMPDEST PUSH2 0x57DF PUSH2 0x543A JUMP JUMPDEST SWAP1 POP DUP2 CALLDATALOAD PUSH8 0xFFFFFFFFFFFFFFFF DUP2 GT ISZERO PUSH2 0x57F7 JUMPI PUSH0 DUP1 REVERT JUMPDEST PUSH2 0x5803 DUP5 DUP3 DUP6 ADD PUSH2 0x5487 JUMP JUMPDEST DUP3 MSTORE POP PUSH1 0x20 DUP3 ADD CALLDATALOAD PUSH8 0xFFFFFFFFFFFFFFFF DUP2 GT ISZERO PUSH2 0x581F JUMPI PUSH0 DUP1 REVERT JUMPDEST PUSH2 0x582B DUP5 DUP3 DUP6 ADD PUSH2 0x5487 JUMP JUMPDEST PUSH1 0x20 DUP4 ADD MSTORE POP PUSH1 0x40 DUP3 ADD CALLDATALOAD PUSH8 0xFFFFFFFFFFFFFFFF DUP2 GT ISZERO PUSH2 0x584A JUMPI PUSH0 DUP1 REVERT JUMPDEST PUSH2 0x5856 DUP5 DUP3 DUP6 ADD PUSH2 0x5487 JUMP JUMPDEST PUSH1 0x40 DUP4 ADD MSTORE POP PUSH1 0x60 DUP3 ADD CALLDATALOAD PUSH8 0xFFFFFFFFFFFFFFFF DUP2 GT ISZERO PUSH2 0x5875 JUMPI PUSH0 DUP1 REVERT JUMPDEST PUSH2 0x5881 DUP5 DUP3 DUP6 ADD PUSH2 0x5487 JUMP JUMPDEST PUSH1 0x60 DUP4 ADD MSTORE POP PUSH1 0x80 DUP3 ADD CALLDATALOAD PUSH8 0xFFFFFFFFFFFFFFFF DUP2 GT ISZERO PUSH2 0x58A0 JUMPI PUSH0 DUP1 REVERT JUMPDEST PUSH2 0x58AC DUP5 DUP3 DUP6 ADD PUSH2 0x5487 JUMP JUMPDEST PUSH1 0x80 DUP4 ADD MSTORE POP PUSH1 0xA0 DUP3 ADD CALLDATALOAD PUSH8 0xFFFFFFFFFFFFFFFF DUP2 GT ISZERO PUSH2 0x58CB JUMPI PUSH0 DUP1 REVERT JUMPDEST PUSH2 0x58D7 DUP5 DUP3 DUP6 ADD PUSH2 0x5487 JUMP JUMPDEST PUSH1 0xA0 DUP4 ADD MSTORE POP PUSH1 0xC0 DUP3 ADD CALLDATALOAD PUSH8 0xFFFFFFFFFFFFFFFF DUP2 GT ISZERO PUSH2 0x58F6 JUMPI PUSH0 DUP1 REVERT JUMPDEST PUSH2 0x5902 DUP5 DUP3 DUP6 ADD PUSH2 0x5487 JUMP JUMPDEST PUSH1 0xC0 DUP4 ADD MSTORE POP PUSH1 0xE0 DUP3 ADD CALLDATALOAD PUSH8 0xFFFFFFFFFFFFFFFF DUP2 GT ISZERO PUSH2 0x5921 JUMPI PUSH0 DUP1 REVERT JUMPDEST PUSH2 0x592D DUP5 DUP3 DUP6 ADD PUSH2 0x5487 JUMP JUMPDEST PUSH1 0xE0 DUP4 ADD MSTORE POP PUSH2 0x100 DUP3 ADD CALLDATALOAD PUSH8 0xFFFFFFFFFFFFFFFF DUP2 GT ISZERO PUSH2 0x594D JUMPI PUSH0 DUP1 REVERT JUMPDEST PUSH2 0x5959 DUP5 DUP3 DUP6 ADD PUSH2 0x5487 JUMP JUMPDEST PUSH2 0x100 DUP4 ADD MSTORE POP PUSH2 0x120 DUP3 ADD CALLDATALOAD PUSH8 0xFFFFFFFFFFFFFFFF DUP2 GT ISZERO PUSH2 0x597A JUMPI PUSH0 DUP1 REVERT JUMPDEST PUSH2 0x5986 DUP5 DUP3 DUP6 ADD PUSH2 0x5487 JUMP JUMPDEST PUSH2 0x120 DUP4 ADD MSTORE POP SWAP3 SWAP2 POP POP JUMP JUMPDEST PUSH0 DUP1 PUSH0 DUP1 PUSH1 0x80 DUP6 DUP8 SUB SLT ISZERO PUSH2 0x59A6 JUMPI PUSH0 DUP1 REVERT JUMPDEST DUP5 CALLDATALOAD PUSH8 0xFFFFFFFFFFFFFFFF DUP2 GT ISZERO PUSH2 0x59BC JUMPI PUSH0 DUP1 REVERT JUMPDEST DUP6 ADD PUSH1 0x80 DUP2 DUP9 SUB SLT ISZERO PUSH2 0x59CD JUMPI PUSH0 DUP1 REVERT JUMPDEST PUSH2 0x59D5 PUSH2 0x5464 JUMP JUMPDEST DUP2 CALLDATALOAD PUSH8 0xFFFFFFFFFFFFFFFF DUP2 GT ISZERO PUSH2 0x59EB JUMPI PUSH0 DUP1 REVERT JUMPDEST PUSH2 0x59F7 DUP10 DUP3 DUP6 ADD PUSH2 0x5487 JUMP JUMPDEST DUP3 MSTORE POP PUSH2 0x5A06 PUSH1 0x20 DUP4 ADD PUSH2 0x5512 JUMP JUMPDEST PUSH1 0x20 DUP3 ADD MSTORE PUSH2 0x5A17 PUSH1 0x40 DUP4 ADD PUSH2 0x5512 JUMP JUMPDEST PUSH1 0x40 DUP3 ADD MSTORE PUSH1 0x60 DUP3 ADD CALLDATALOAD PUSH8 0xFFFFFFFFFFFFFFFF DUP2 GT ISZERO PUSH2 0x5A35 JUMPI PUSH0 DUP1 REVERT JUMPDEST PUSH2 0x5A41 DUP10 DUP3 DUP6 ADD PUSH2 0x5487 JUMP JUMPDEST PUSH1 0x60 DUP4 ADD MSTORE POP SWAP5 POP POP PUSH1 0x20 DUP6 ADD CALLDATALOAD PUSH8 0xFFFFFFFFFFFFFFFF DUP2 GT ISZERO PUSH2 0x5A63 JUMPI PUSH0 DUP1 REVERT JUMPDEST PUSH2 0x5A6F DUP8 DUP3 DUP9 ADD PUSH2 0x5487 JUMP JUMPDEST SWAP4 POP POP PUSH2 0x5A7E PUSH1 0x40 DUP7 ADD PUSH2 0x5512 JUMP JUMPDEST SWAP2 POP PUSH1 0x60 DUP6 ADD CALLDATALOAD PUSH8 0xFFFFFFFFFFFFFFFF DUP2 GT ISZERO PUSH2 0x5A99 JUMPI PUSH0 DUP1 REVERT JUMPDEST PUSH2 0x5AA5 DUP8 DUP3 DUP9 ADD PUSH2 0x57C6 JUMP JUMPDEST SWAP2 POP POP SWAP3 SWAP6 SWAP2 SWAP5 POP SWAP3 POP JUMP JUMPDEST PUSH1 0x20 DUP2 MSTORE PUSH0 PUSH2 0x3EA2 PUSH1 0x20 DUP4 ADD DUP5 PUSH2 0x5572 JUMP JUMPDEST PUSH1 0x1 DUP2 DUP2 SHR SWAP1 DUP3 AND DUP1 PUSH2 0x5AD7 JUMPI PUSH1 0x7F DUP3 AND SWAP2 POP JUMPDEST PUSH1 0x20 DUP3 LT DUP2 SUB PUSH2 0x5B0E JUMPI PUSH32 0x4E487B7100000000000000000000000000000000000000000000000000000000 PUSH0 MSTORE PUSH1 0x22 PUSH1 0x4 MSTORE PUSH1 0x24 PUSH0 REVERT JUMPDEST POP SWAP2 SWAP1 POP JUMP JUMPDEST PUSH32 0x4E487B7100000000000000000000000000000000000000000000000000000000 PUSH0 MSTORE PUSH1 0x32 PUSH1 0x4 MSTORE PUSH1 0x24 PUSH0 REVERT JUMPDEST PUSH0 DUP1 DUP4 SLOAD PUSH2 0x5B4E DUP2 PUSH2 0x5AC3 JUMP JUMPDEST PUSH1 0x1 DUP3 AND DUP1 ISZERO PUSH2 0x5B65 JUMPI PUSH1 0x1 DUP2 EQ PUSH2 0x5B7A JUMPI PUSH2 0x5BA7 JUMP JUMPDEST PUSH1 0xFF NOT DUP4 AND DUP7 MSTORE DUP2 ISZERO ISZERO DUP3 MUL DUP7 ADD SWAP4 POP PUSH2 0x5BA7 JUMP JUMPDEST DUP7 PUSH0 MSTORE PUSH1 0x20 PUSH0 KECCAK256 PUSH0 JUMPDEST DUP4 DUP2 LT ISZERO PUSH2 0x5B9F JUMPI DUP2 SLOAD DUP9 DUP3 ADD MSTORE PUSH1 0x1 SWAP1 SWAP2 ADD SWAP1 PUSH1 0x20 ADD PUSH2 0x5B83 JUMP JUMPDEST POP POP DUP2 DUP7 ADD SWAP4 POP JUMPDEST POP SWAP2 SWAP6 SWAP5 POP POP POP POP POP JUMP JUMPDEST PUSH32 0x4E487B7100000000000000000000000000000000000000000000000000000000 PUSH0 MSTORE PUSH1 0x11 PUSH1 0x4 MSTORE PUSH1 0x24 PUSH0 REVERT JUMPDEST PUSH1 0xFF DUP2 DUP2 AND DUP4 DUP3 AND MUL SWAP1 DUP2 AND SWAP1 DUP2 DUP2 EQ PUSH2 0x10D9 JUMPI PUSH2 0x10D9 PUSH2 0x5BB2 JUMP JUMPDEST PUSH0 DUP2 SLOAD PUSH2 0x5C07 DUP2 PUSH2 0x5AC3 JUMP JUMPDEST DUP1 DUP6 MSTORE PUSH1 0x1 DUP3 AND DUP1 ISZERO PUSH2 0x5C21 JUMPI PUSH1 0x1 DUP2 EQ PUSH2 0x5C3D JUMPI PUSH2 0x5C71 JUMP JUMPDEST PUSH1 0xFF NOT DUP4 AND PUSH1 0x20 DUP8 ADD MSTORE PUSH1 0x20 DUP3 ISZERO ISZERO PUSH1 0x5 SHL DUP8 ADD ADD SWAP4 POP PUSH2 0x5C71 JUMP JUMPDEST DUP5 PUSH0 MSTORE PUSH1 0x20 PUSH0 KECCAK256 PUSH0 JUMPDEST DUP4 DUP2 LT ISZERO PUSH2 0x5C68 JUMPI DUP2 SLOAD PUSH1 0x20 DUP3 DUP11 ADD ADD MSTORE PUSH1 0x1 DUP3 ADD SWAP2 POP PUSH1 0x20 DUP2 ADD SWAP1 POP PUSH2 0x5C46 JUMP JUMPDEST DUP8 ADD PUSH1 0x20 ADD SWAP5 POP POP JUMPDEST POP POP POP SWAP3 SWAP2 POP POP JUMP JUMPDEST PUSH1 0x80 DUP2 MSTORE PUSH1 0x80 DUP1 DUP3 ADD MSTORE PUSH0 PUSH2 0x5C93 PUSH2 0x100 DUP4 ADD DUP8 PUSH2 0x5BFB JUMP JUMPDEST PUSH1 0x1 DUP8 ADD SLOAD PUSH1 0xFF DUP2 AND PUSH1 0xA0 DUP6 ADD MSTORE PUSH1 0xFF DUP2 PUSH1 0x8 SHR AND PUSH1 0xC0 DUP6 ADD MSTORE POP PUSH1 0x7F NOT DUP4 DUP3 SUB ADD PUSH1 0xE0 DUP5 ADD MSTORE PUSH2 0x5CC7 DUP2 PUSH1 0x2 DUP10 ADD PUSH2 0x5BFB JUMP JUMPDEST SWAP1 POP DUP3 DUP2 SUB PUSH1 0x20 DUP5 ADD MSTORE PUSH2 0x5CDB DUP2 DUP8 PUSH2 0x5BFB JUMP JUMPDEST SWAP2 POP POP PUSH1 0xFF DUP5 AND PUSH1 0x40 DUP4 ADD MSTORE PUSH2 0x56A3 PUSH1 0x60 DUP4 ADD DUP5 PUSH1 0xFF AND SWAP1 MSTORE JUMP JUMPDEST PUSH0 DUP3 DUP2 SIGNEXTEND SWAP1 DUP3 SWAP1 SIGNEXTEND SUB PUSH1 0x7F NOT DUP2 SLT PUSH1 0x7F DUP3 SGT OR ISZERO PUSH2 0x3EA5 JUMPI PUSH2 0x3EA5 PUSH2 0x5BB2 JUMP JUMPDEST PUSH0 DUP3 PUSH0 SIGNEXTEND DUP3 PUSH0 SIGNEXTEND MUL DUP1 PUSH0 SIGNEXTEND SWAP2 POP DUP1 DUP3 EQ PUSH2 0x10D9 JUMPI PUSH2 0x10D9 PUSH2 0x5BB2 JUMP JUMPDEST PUSH0 PUSH1 0xFF DUP3 AND PUSH1 0xFF DUP2 SUB PUSH2 0x5D47 JUMPI PUSH2 0x5D47 PUSH2 0x5BB2 JUMP JUMPDEST PUSH1 0x1 ADD SWAP3 SWAP2 POP POP JUMP JUMPDEST PUSH32 0x4E487B7100000000000000000000000000000000000000000000000000000000 PUSH0 MSTORE PUSH1 0x31 PUSH1 0x4 MSTORE PUSH1 0x24 PUSH0 REVERT JUMPDEST PUSH1 0xFF DUP2 DUP2 AND DUP4 DUP3 AND ADD SWAP1 DUP2 GT ISZERO PUSH2 0x3EA5 JUMPI PUSH2 0x3EA5 PUSH2 0x5BB2 JUMP JUMPDEST PUSH1 0x1F DUP3 GT ISZERO PUSH2 0x5DDA JUMPI DUP1 PUSH0 MSTORE PUSH1 0x20 PUSH0 KECCAK256 PUSH1 0x1F DUP5 ADD PUSH1 0x5 SHR DUP2 ADD PUSH1 0x20 DUP6 LT ISZERO PUSH2 0x5DBB JUMPI POP DUP1 JUMPDEST PUSH1 0x1F DUP5 ADD PUSH1 0x5 SHR DUP3 ADD SWAP2 POP JUMPDEST DUP2 DUP2 LT ISZERO PUSH2 0x219A JUMPI PUSH0 DUP2 SSTORE PUSH1 0x1 ADD PUSH2 0x5DC7 JUMP JUMPDEST POP POP POP JUMP JUMPDEST DUP2 MLOAD PUSH8 0xFFFFFFFFFFFFFFFF DUP2 GT ISZERO PUSH2 0x5DF9 JUMPI PUSH2 0x5DF9 PUSH2 0x540D JUMP JUMPDEST PUSH2 0x5E0D DUP2 PUSH2 0x5E07 DUP5 SLOAD PUSH2 0x5AC3 JUMP JUMPDEST DUP5 PUSH2 0x5D96 JUMP JUMPDEST PUSH1 0x20 PUSH1 0x1F DUP3 GT PUSH1 0x1 DUP2 EQ PUSH2 0x5E42 JUMPI PUSH0 DUP4 ISZERO PUSH2 0x5E28 JUMPI POP DUP5 DUP3 ADD MLOAD JUMPDEST PUSH1 0x1 DUP5 SWAP1 SHL PUSH0 NOT PUSH1 0x3 DUP7 SWAP1 SHL SHR NOT DUP3 AND OR JUMPDEST DUP6 SSTORE POP PUSH2 0x219A JUMP JUMPDEST PUSH0 DUP5 DUP2 MSTORE PUSH1 0x20 DUP2 KECCAK256 PUSH1 0x1F NOT DUP6 AND SWAP2 JUMPDEST DUP3 DUP2 LT ISZERO PUSH2 0x5E71 JUMPI DUP8 DUP6 ADD MLOAD DUP3 SSTORE PUSH1 0x20 SWAP5 DUP6 ADD SWAP5 PUSH1 0x1 SWAP1 SWAP3 ADD SWAP2 ADD PUSH2 0x5E51 JUMP JUMPDEST POP DUP5 DUP3 LT ISZERO PUSH2 0x5E8E JUMPI DUP7 DUP5 ADD MLOAD PUSH0 NOT PUSH1 0x3 DUP8 SWAP1 SHL PUSH1 0xF8 AND SHR NOT AND DUP2 SSTORE JUMPDEST POP POP POP POP PUSH1 0x1 SWAP1 DUP2 SHL ADD SWAP1 SSTORE POP JUMP JUMPDEST DUP2 DUP2 SUB DUP2 DUP2 GT ISZERO PUSH2 0x3EA5 JUMPI PUSH2 0x3EA5 PUSH2 0x5BB2 JUMP JUMPDEST DUP2 DUP2 SUB PUSH2 0x5EBB JUMPI POP POP JUMP JUMPDEST PUSH2 0x5EC5 DUP3 SLOAD PUSH2 0x5AC3 JUMP JUMPDEST PUSH8 0xFFFFFFFFFFFFFFFF DUP2 GT ISZERO PUSH2 0x5EDD JUMPI PUSH2 0x5EDD PUSH2 0x540D JUMP JUMPDEST PUSH2 0x5EEB DUP2 PUSH2 0x5E07 DUP5 SLOAD PUSH2 0x5AC3 JUMP JUMPDEST PUSH0 PUSH1 0x1F DUP3 GT PUSH1 0x1 DUP2 EQ PUSH2 0x5F1A JUMPI PUSH0 DUP4 ISZERO PUSH2 0x5E28 JUMPI POP DUP2 DUP6 ADD SLOAD PUSH1 0x1 DUP5 SWAP1 SHL PUSH0 NOT PUSH1 0x3 DUP7 SWAP1 SHL SHR NOT DUP3 AND OR PUSH2 0x5E3A JUMP JUMPDEST PUSH0 DUP6 DUP2 MSTORE PUSH1 0x20 DUP1 DUP3 KECCAK256 DUP7 DUP4 MSTORE SWAP1 DUP3 KECCAK256 PUSH1 0x1F NOT DUP7 AND SWAP3 JUMPDEST DUP4 DUP2 LT ISZERO PUSH2 0x5F50 JUMPI DUP3 DUP7 ADD SLOAD DUP3 SSTORE PUSH1 0x1 SWAP6 DUP7 ADD SWAP6 SWAP1 SWAP2 ADD SWAP1 PUSH1 0x20 ADD PUSH2 0x5F30 JUMP JUMPDEST POP DUP6 DUP4 LT ISZERO PUSH2 0x5F6D JUMPI DUP2 DUP6 ADD SLOAD PUSH0 NOT PUSH1 0x3 DUP9 SWAP1 SHL PUSH1 0xF8 AND SHR NOT AND DUP2 SSTORE JUMPDEST POP POP POP POP POP PUSH1 0x1 SWAP1 DUP2 SHL ADD SWAP1 SSTORE POP JUMP JUMPDEST PUSH1 0xFF DUP3 DUP2 AND DUP3 DUP3 AND SUB SWAP1 DUP2 GT ISZERO PUSH2 0x3EA5 JUMPI PUSH2 0x3EA5 PUSH2 0x5BB2 JUMP INVALID LOG2 PUSH5 0x6970667358 0x22 SLT KECCAK256 TLOAD JUMPI 0x27 EXP POP DUP5 SHR BALANCE 0xD5 SWAP13 0xD1 0xF8 DUP8 0xE6 NUMBER DUP3 PREVRANDAO CALLER 0xCE LT 0xC2 PUSH11 0xAC16D8CC33C86D4D9DCE64 PUSH20 0x6F6C634300081A00330000000000000000000000 "
		},
		"gasEstimates": {
			"creation": {
				"codeDepositCost": "4904800",
				"executionCost": "infinite",
				"totalCost": "infinite"
			},
			"external": {
				"regDonor((string,uint8,uint8,string),string,uint8,(string,string,string,string,string,string,string,string,string,string))": "infinite",
				"regRecipient((string,uint8,uint8,string),string,uint8,(string,string,string,string,string,string,string,string,string,string))": "infinite",
				"showLists(string,uint8)": "infinite"
			},
			"internal": {
				"showMatch()": "infinite"
			}
		},
		"methodIdentifiers": {
			"regDonor((string,uint8,uint8,string),string,uint8,(string,string,string,string,string,string,string,string,string,string))": "b59e0f9e",
			"regRecipient((string,uint8,uint8,string),string,uint8,(string,string,string,string,string,string,string,string,string,string))": "f86813ff",
			"showLists(string,uint8)": "0f65c931"
		}
	},
	"abi": [
		{
			"inputs": [
				{
					"internalType": "string",
					"name": "_adminPass",
					"type": "string"
				}
			],
			"stateMutability": "payable",
			"type": "constructor"
		},
		{
			"anonymous": false,
			"inputs": [
				{
					"components": [
						{
							"internalType": "string",
							"name": "name",
							"type": "string"
						},
						{
							"internalType": "uint8",
							"name": "age",
							"type": "uint8"
						},
						{
							"internalType": "uint8",
							"name": "bloodtype",
							"type": "uint8"
						},
						{
							"internalType": "string",
							"name": "hospital",
							"type": "string"
						}
					],
					"indexed": false,
					"internalType": "struct utils.persInfo",
					"name": "info",
					"type": "tuple"
				},
				{
					"indexed": false,
					"internalType": "string",
					"name": "organ",
					"type": "string"
				},
				{
					"indexed": false,
					"internalType": "uint8",
					"name": "mP",
					"type": "uint8"
				},
				{
					"indexed": false,
					"internalType": "uint8",
					"name": "qty",
					"type": "uint8"
				}
			],
			"name": "MatchFound",
			"type": "event"
		},
		{
			"inputs": [
				{
					"components": [
						{
							"internalType": "string",
							"name": "name",
							"type": "string"
						},
						{
							"internalType": "uint8",
							"name": "age",
							"type": "uint8"
						},
						{
							"internalType": "uint8",
							"name": "bloodtype",
							"type": "uint8"
						},
						{
							"internalType": "string",
							"name": "hospital",
							"type": "string"
						}
					],
					"internalType": "struct utils.persInfo",
					"name": "_info",
					"type": "tuple"
				},
				{
					"internalType": "string",
					"name": "_organ",
					"type": "string"
				},
				{
					"internalType": "uint8",
					"name": "_quantity",
					"type": "uint8"
				},
				{
					"components": [
						{
							"internalType": "string",
							"name": "a1",
							"type": "string"
						},
						{
							"internalType": "string",
							"name": "a2",
							"type": "string"
						},
						{
							"internalType": "string",
							"name": "b1",
							"type": "string"
						},
						{
							"internalType": "string",
							"name": "b2",
							"type": "string"
						},
						{
							"internalType": "string",
							"name": "c1",
							"type": "string"
						},
						{
							"internalType": "string",
							"name": "c2",
							"type": "string"
						},
						{
							"internalType": "string",
							"name": "drb1_1",
							"type": "string"
						},
						{
							"internalType": "string",
							"name": "drb1_2",
							"type": "string"
						},
						{
							"internalType": "string",
							"name": "dqb1_1",
							"type": "string"
						},
						{
							"internalType": "string",
							"name": "dqb1_2",
							"type": "string"
						}
					],
					"internalType": "struct utils.HLA",
					"name": "_report",
					"type": "tuple"
				}
			],
			"name": "regDonor",
			"outputs": [],
			"stateMutability": "nonpayable",
			"type": "function"
		},
		{
			"inputs": [
				{
					"components": [
						{
							"internalType": "string",
							"name": "name",
							"type": "string"
						},
						{
							"internalType": "uint8",
							"name": "age",
							"type": "uint8"
						},
						{
							"internalType": "uint8",
							"name": "bloodtype",
							"type": "uint8"
						},
						{
							"internalType": "string",
							"name": "hospital",
							"type": "string"
						}
					],
					"internalType": "struct utils.persInfo",
					"name": "_info",
					"type": "tuple"
				},
				{
					"internalType": "string",
					"name": "_organ",
					"type": "string"
				},
				{
					"internalType": "uint8",
					"name": "_quantity",
					"type": "uint8"
				},
				{
					"components": [
						{
							"internalType": "string",
							"name": "a1",
							"type": "string"
						},
						{
							"internalType": "string",
							"name": "a2",
							"type": "string"
						},
						{
							"internalType": "string",
							"name": "b1",
							"type": "string"
						},
						{
							"internalType": "string",
							"name": "b2",
							"type": "string"
						},
						{
							"internalType": "string",
							"name": "c1",
							"type": "string"
						},
						{
							"internalType": "string",
							"name": "c2",
							"type": "string"
						},
						{
							"internalType": "string",
							"name": "drb1_1",
							"type": "string"
						},
						{
							"internalType": "string",
							"name": "drb1_2",
							"type": "string"
						},
						{
							"internalType": "string",
							"name": "dqb1_1",
							"type": "string"
						},
						{
							"internalType": "string",
							"name": "dqb1_2",
							"type": "string"
						}
					],
					"internalType": "struct utils.HLA",
					"name": "_report",
					"type": "tuple"
				}
			],
			"name": "regRecipient",
			"outputs": [],
			"stateMutability": "nonpayable",
			"type": "function"
		},
		{
			"inputs": [
				{
					"internalType": "string",
					"name": "_pass",
					"type": "string"
				},
				{
					"internalType": "uint8",
					"name": "c",
					"type": "uint8"
				}
			],
			"name": "showLists",
			"outputs": [
				{
					"components": [
						{
							"components": [
								{
									"internalType": "string",
									"name": "name",
									"type": "string"
								},
								{
									"internalType": "uint8",
									"name": "age",
									"type": "uint8"
								},
								{
									"internalType": "uint8",
									"name": "bloodtype",
									"type": "uint8"
								},
								{
									"internalType": "string",
									"name": "hospital",
									"type": "string"
								}
							],
							"internalType": "struct utils.persInfo",
							"name": "info",
							"type": "tuple"
						},
						{
							"internalType": "string",
							"name": "organ",
							"type": "string"
						},
						{
							"internalType": "uint8",
							"name": "quantity",
							"type": "uint8"
						},
						{
							"components": [
								{
									"internalType": "string",
									"name": "a1",
									"type": "string"
								},
								{
									"internalType": "string",
									"name": "a2",
									"type": "string"
								},
								{
									"internalType": "string",
									"name": "b1",
									"type": "string"
								},
								{
									"internalType": "string",
									"name": "b2",
									"type": "string"
								},
								{
									"internalType": "string",
									"name": "c1",
									"type": "string"
								},
								{
									"internalType": "string",
									"name": "c2",
									"type": "string"
								},
								{
									"internalType": "string",
									"name": "drb1_1",
									"type": "string"
								},
								{
									"internalType": "string",
									"name": "drb1_2",
									"type": "string"
								},
								{
									"internalType": "string",
									"name": "dqb1_1",
									"type": "string"
								},
								{
									"internalType": "string",
									"name": "dqb1_2",
									"type": "string"
								}
							],
							"internalType": "struct utils.HLA",
							"name": "report",
							"type": "tuple"
						}
					],
					"internalType": "struct utils.orgdet[]",
					"name": "",
					"type": "tuple[]"
				}
			],
			"stateMutability": "view",
			"type": "function"
		}
	]
}