{
	"data": {
		"bytecode": {
			"linkReferences": {},
			"object": "60016101c08181526101e08290525f6102008190526102208190526102408190526102608190526102808390526102a08390526102c08190526102e081905260809182526103008181526103208490526103408290526103608290526103808290526103a08290526103c08290526103e084905261040082905261042082905260a0526104408181526104608290526104808490526104a08490526104c08290526104e082905261050084905261052084905261054082905261056082905260c0526105808181526105a08290526105c08290526105e08490526106008290526106208290526106408290526106608490526106808290526106a082905260e0526106c08381526106e08490526107008490526107208490526107408490526107608490526107808490526107a08490526107c08290526107e0829052610100526108008181526108208490526108408290526108608490526108808290526108a08490526108c08290526108e0849052610900829052610920829052610120526109408181526109608290526109808290526109a08290526109c08290526109e0829052610a00849052610a20849052610a40829052610a6082905261014052610a80818152610aa0829052610ac0829052610ae0829052610b00829052610b20829052610b40829052610b60849052610b80829052610ba082905261016052610bc0818152610be0829052610c00829052610c20829052610c40829052610c60829052610c80829052610ca0829052610cc0849052610ce082905261018052610e40604052610d00818152610d20829052610d40829052610d60829052610d80829052610da0829052610dc0829052610de0829052610e0091909152610e20929092526101a09190915261029990600690600a61090c565b506040516169453803806169458339810160408190526102b891610b8e565b806040516020016102c99190610c3e565b60408051601f1981840301815282825280516020918201205f908155608084018352600f8484019081526e189b1bdbd9081cdd195b4818d95b1b608a1b606086015284528251808401909352600b83526a626f6e65206d6172726f7760a81b8383015283820192909252600990915260019052610369907f74a5fbcb419ab7dbacbb2c92a4e163730f0da5c72b911deecf4f05a6b327d0a4906002610956565b506040805161014081018252600361010082018181526261726d60e81b6101208401528252825180840184528181526265796560e81b60208281019190915280840191909152835180850185526004808252636661636560e01b828401528486019190915284518086018652908152631a185b9960e21b81830152606084015283518085018552918252626c656760e81b8282015260808301919091528251808401845260058082526470656e697360d81b8284015260a0840191909152835180850185529081526407363616c760dc1b8183015260c0830152825180840190935260068352657468796d757360d01b8382015260e082019290925260075f52600190915261049b907fdc686ec4a0ff239c70e7c7c36e8f853eced3bc8618f48d2b816da2a74311237e9060086109a6565b506040805161026081018252600e61022082019081526d1858991bdb5a5b985b081dd85b1b60921b610240830152815281518083018352600d81526c18591c995b985b0819db185b99609a1b6020828101919091528083019190915282518084018452600480825263626f6e6560e01b828401528385019190915283518085018552600981526865736f70686167757360b81b818401526060840152835180850185526006808252650d8c2e4f2dcf60d31b82850152608085019190915284518086018652600a8152696c796d7068206e6f646560b01b8185015260a0850152845180860186526008808252671b985a5b0818995960c21b8286015260c0860191909152855180870187526005808252646e6572766560d81b8287015260e087019190915286518088018852818152646f7661727960d81b81870152610100870152865180880188528281526770616e637265617360c01b81870152610120870152865180880188529384526339b5b4b760e11b8486015261014086019390935285518087018752600f81526e736d616c6c20696e74657374696e6560881b81860152610160860152855180870187528281526539b83632b2b760d11b81860152610180860152855180870187526007808252660e6e8dedac2c6d60cb1b828701526101a087019190915286518088018852918252677465737469636c6560c01b828601526101c086019190915285518087018752908152667472616368656160c81b818501526101e0850152845180860190955284526575746572757360d01b848301526102008301939093525f929092526001909152610720907fe2689cd4a84e23ad2f564004f1c9013e9589d260bde6380aba3ca7e09e4df40c9060116109ea565b506040805161014081018252600c61010082019081526b189b1bdbd9081d995cdcd95b60a21b610120830152815281518083018352600981526863617274696c61676560b81b6020828101919091528083019190915282518084018452600381526219985d60ea1b81830152828401528251808401845260058152641a19585c9d60da1b818301526060830152825180840184526008808252671b1a59d85b595b9d60c21b8284015260808401919091528351808501855260048152636c756e6760e01b8184015260a084015283518085018552818152676d656e697363757360c01b8184015260c0840152835180850190945260068452653a32b73237b760d11b8483015260e083019390935260025f5260019052610862917fd9d16d34ffb15ba3a3d852f0d403e2ce1d691fb54de27ac87cd2f993f3ec330f91906109a6565b506040805160a08101825260066060820190815265636f726e656160d01b6080830152815281518083018352600b81526a68656172742076616c766560a81b602082810191909152808301919091528251808401845260058152643634bb32b960d91b81830152928201929092525f80526001909152610905907fa6eef7e35abe7026729641147f7915573c7e97b47efa546f5f6e3230263bcb49906003610a2e565b5050610db1565b82600a8101928215610946579160200282015b82811115610946578251610936908390600a610a72565b509160200191906001019061091f565b50610952929150610afe565b5090565b828054828255905f5260205f2090810192821561099a579160200282015b8281111561099a578251829061098a9082610cf7565b5091602001919060010190610974565b50610952929150610b11565b828054828255905f5260205f2090810192821561099a579160200282015b8281111561099a57825182906109da9082610cf7565b50916020019190600101906109c4565b828054828255905f5260205f2090810192821561099a579160200282015b8281111561099a5782518290610a1e9082610cf7565b5091602001919060010190610a08565b828054828255905f5260205f2090810192821561099a579160200282015b8281111561099a5782518290610a629082610cf7565b5091602001919060010190610a4c565b600183019183908215610af2579160200282015f5b83821115610ac457835183826101000a81548160ff021916908360ff16021790555092602001926001016020815f01049283019260010302610a87565b8015610af05782816101000a81549060ff02191690556001016020815f01049283019260010302610ac4565b505b50610952929150610b2d565b80821115610952575f8155600101610afe565b80821115610952575f610b248282610b40565b50600101610b11565b80821115610952575f8155600101610afe565b508054610b4c90610c73565b5f825580601f10610b5b575050565b601f0160209004905f5260205f2090810190610b779190610b2d565b50565b634e487b7160e01b5f52604160045260245ffd5b5f60208284031215610b9e575f5ffd5b81516001600160401b03811115610bb3575f5ffd5b8201601f81018413610bc3575f5ffd5b80516001600160401b03811115610bdc57610bdc610b7a565b604051601f8201601f19908116603f011681016001600160401b0381118282101715610c0a57610c0a610b7a565b604052818152828201602001861015610c21575f5ffd5b8160208401602083015e5f91810160200191909152949350505050565b602081525f82518060208401528060208501604085015e5f604082850101526040601f19601f83011684010191505092915050565b600181811c90821680610c8757607f821691505b602082108103610ca557634e487b7160e01b5f52602260045260245ffd5b50919050565b601f821115610cf257805f5260205f20601f840160051c81016020851015610cd05750805b601f840160051c820191505b81811015610cef575f8155600101610cdc565b50505b505050565b81516001600160401b03811115610d1057610d10610b7a565b610d2481610d1e8454610c73565b84610cab565b6020601f821160018114610d56575f8315610d3f5750848201515b5f19600385901b1c1916600184901b178455610cef565b5f84815260208120601f198516915b82811015610d855787850151825560209485019460019092019101610d65565b5084821015610da257868401515f19600387901b60f8161c191681555b50505050600190811b01905550565b615b8780610dbe5f395ff3fe608060405234801561000f575f5ffd5b506004361061003f575f3560e01c80630f65c93114610043578063b59e0f9e1461006c578063f86813ff14610081575b5f5ffd5b610056610051366004614f76565b610094565b6040516100639190615119565b60405180910390f35b61007f61007a36600461541e565b6108f1565b005b61007f61008f36600461541e565b6119d1565b6060826040516020016100a7919061553c565b604051602081830303815290604052805190602001206100c8815f546124ea565b8260ff166003036100dd576100db61255b565b505b60028360ff16106100ef5760046100f2565b60035b805480602002602001604051908101604052809291908181526020015f905b828210156108e3575f84815260209020604080516101008101909152600f840290910180548290608082019083908290829061014c9061554e565b80601f01602080910402602001604051908101604052809291908181526020018280546101789061554e565b80156101c35780601f1061019a576101008083540402835291602001916101c3565b820191905f5260205f20905b8154815290600101906020018083116101a657829003601f168201915b5050509183525050600182015460ff80821660208401526101009091041660408201526002820180546060909201916101fb9061554e565b80601f01602080910402602001604051908101604052809291908181526020018280546102279061554e565b80156102725780601f1061024957610100808354040283529160200191610272565b820191905f5260205f20905b81548152906001019060200180831161025557829003601f168201915b505050505081525050815260200160038201805461028f9061554e565b80601f01602080910402602001604051908101604052809291908181526020018280546102bb9061554e565b80156103065780601f106102dd57610100808354040283529160200191610306565b820191905f5260205f20905b8154815290600101906020018083116102e957829003601f168201915b5050509183525050600482015460ff166020820152604080516101408101825260058401805492909301929091829082906103409061554e565b80601f016020809104026020016040519081016040528092919081815260200182805461036c9061554e565b80156103b75780601f1061038e576101008083540402835291602001916103b7565b820191905f5260205f20905b81548152906001019060200180831161039a57829003601f168201915b505050505081526020016001820180546103d09061554e565b80601f01602080910402602001604051908101604052809291908181526020018280546103fc9061554e565b80156104475780601f1061041e57610100808354040283529160200191610447565b820191905f5260205f20905b81548152906001019060200180831161042a57829003601f168201915b505050505081526020016002820180546104609061554e565b80601f016020809104026020016040519081016040528092919081815260200182805461048c9061554e565b80156104d75780601f106104ae576101008083540402835291602001916104d7565b820191905f5260205f20905b8154815290600101906020018083116104ba57829003601f168201915b505050505081526020016003820180546104f09061554e565b80601f016020809104026020016040519081016040528092919081815260200182805461051c9061554e565b80156105675780601f1061053e57610100808354040283529160200191610567565b820191905f5260205f20905b81548152906001019060200180831161054a57829003601f168201915b505050505081526020016004820180546105809061554e565b80601f01602080910402602001604051908101604052809291908181526020018280546105ac9061554e565b80156105f75780601f106105ce576101008083540402835291602001916105f7565b820191905f5260205f20905b8154815290600101906020018083116105da57829003601f168201915b505050505081526020016005820180546106109061554e565b80601f016020809104026020016040519081016040528092919081815260200182805461063c9061554e565b80156106875780601f1061065e57610100808354040283529160200191610687565b820191905f5260205f20905b81548152906001019060200180831161066a57829003601f168201915b505050505081526020016006820180546106a09061554e565b80601f01602080910402602001604051908101604052809291908181526020018280546106cc9061554e565b80156107175780601f106106ee57610100808354040283529160200191610717565b820191905f5260205f20905b8154815290600101906020018083116106fa57829003601f168201915b505050505081526020016007820180546107309061554e565b80601f016020809104026020016040519081016040528092919081815260200182805461075c9061554e565b80156107a75780601f1061077e576101008083540402835291602001916107a7565b820191905f5260205f20905b81548152906001019060200180831161078a57829003601f168201915b505050505081526020016008820180546107c09061554e565b80601f01602080910402602001604051908101604052809291908181526020018280546107ec9061554e565b80156108375780601f1061080e57610100808354040283529160200191610837565b820191905f5260205f20905b81548152906001019060200180831161081a57829003601f168201915b505050505081526020016009820180546108509061554e565b80601f016020809104026020016040519081016040528092919081815260200182805461087c9061554e565b80156108c75780601f1061089e576101008083540402835291602001916108c7565b820191905f5260205f20905b8154815290600101906020018083116108aa57829003601f168201915b5050505050815250508152505081526020019060010190610111565b5050505091505b5092915050565b6108fb600261347d565b60408085015181516101408101909252610985916006600a5f835b8282101561097957604080516101408101918290529085840190600a90825f855b825461010083900a900460ff16815260206001928301818104948501949093039092029101808411610937579050505050505081526020019060010190610916565b5050505060025f6134c4565b5f805b6004548110156119b6578480519060200120600482815481106109ad576109ad61559f565b905f5260205f2090600f02016003016040516109c991906155cc565b6040518091039020036119ae575f5b60025460ff821610156119ac5760028160ff16815481106109fb576109fb61559f565b905f5260205f2090602091828204019190069054906101000a900460ff1660ff1660048381548110610a2f57610a2f61559f565b5f9182526020909120600f9091020160010154610100900460ff160361199a575f6110268560048581548110610a6757610a6761559f565b905f5260205f2090600f0201600501604051806101400160405290815f82018054610a919061554e565b80601f0160208091040260200160405190810160405280929190818152602001828054610abd9061554e565b8015610b085780601f10610adf57610100808354040283529160200191610b08565b820191905f5260205f20905b815481529060010190602001808311610aeb57829003601f168201915b50505050508152602001600182018054610b219061554e565b80601f0160208091040260200160405190810160405280929190818152602001828054610b4d9061554e565b8015610b985780601f10610b6f57610100808354040283529160200191610b98565b820191905f5260205f20905b815481529060010190602001808311610b7b57829003601f168201915b50505050508152602001600282018054610bb19061554e565b80601f0160208091040260200160405190810160405280929190818152602001828054610bdd9061554e565b8015610c285780601f10610bff57610100808354040283529160200191610c28565b820191905f5260205f20905b815481529060010190602001808311610c0b57829003601f168201915b50505050508152602001600382018054610c419061554e565b80601f0160208091040260200160405190810160405280929190818152602001828054610c6d9061554e565b8015610cb85780601f10610c8f57610100808354040283529160200191610cb8565b820191905f5260205f20905b815481529060010190602001808311610c9b57829003601f168201915b50505050508152602001600482018054610cd19061554e565b80601f0160208091040260200160405190810160405280929190818152602001828054610cfd9061554e565b8015610d485780601f10610d1f57610100808354040283529160200191610d48565b820191905f5260205f20905b815481529060010190602001808311610d2b57829003601f168201915b50505050508152602001600582018054610d619061554e565b80601f0160208091040260200160405190810160405280929190818152602001828054610d8d9061554e565b8015610dd85780601f10610daf57610100808354040283529160200191610dd8565b820191905f5260205f20905b815481529060010190602001808311610dbb57829003601f168201915b50505050508152602001600682018054610df19061554e565b80601f0160208091040260200160405190810160405280929190818152602001828054610e1d9061554e565b8015610e685780601f10610e3f57610100808354040283529160200191610e68565b820191905f5260205f20905b815481529060010190602001808311610e4b57829003601f168201915b50505050508152602001600782018054610e819061554e565b80601f0160208091040260200160405190810160405280929190818152602001828054610ead9061554e565b8015610ef85780601f10610ecf57610100808354040283529160200191610ef8565b820191905f5260205f20905b815481529060010190602001808311610edb57829003601f168201915b50505050508152602001600882018054610f119061554e565b80601f0160208091040260200160405190810160405280929190818152602001828054610f3d9061554e565b8015610f885780601f10610f5f57610100808354040283529160200191610f88565b820191905f5260205f20905b815481529060010190602001808311610f6b57829003601f168201915b50505050508152602001600982018054610fa19061554e565b80601f0160208091040260200160405190810160405280929190818152602001828054610fcd9061554e565b80156110185780601f10610fef57610100808354040283529160200191611018565b820191905f5260205f20905b815481529060010190602001808311610ffb57829003601f168201915b50505050508152505061363a565b905061103387600161375c565b8160ff161061199857600193507f9f3ad7e297074403ebbe6920fcfc9ead722b9cf562608507477325d0687d87be600484815481106110745761107461559f565b905f5260205f2090600f02015f01600485815481106110955761109561559f565b905f5260205f2090600f0201600301600486815481106110b7576110b761559f565b5f91825260209091206004600f90920201015460ff166110d885600a615688565b6040516110e89493929190615741565b60405180910390a15f600484815481106111045761110461559f565b5f91825260209091206004600f9092020101546111249060ff16886157db565b90505f815f0b13156118f3576118d360058a600487815481106111495761114961559f565b905f5260205f2090600f02015f016040518060800160405290815f820180546111719061554e565b80601f016020809104026020016040519081016040528092919081815260200182805461119d9061554e565b80156111e85780601f106111bf576101008083540402835291602001916111e8565b820191905f5260205f20905b8154815290600101906020018083116111cb57829003601f168201915b5050509183525050600182015460ff80821660208401526101009091041660408201526002820180546060909201916112209061554e565b80601f016020809104026020016040519081016040528092919081815260200182805461124c9061554e565b80156112975780601f1061126e57610100808354040283529160200191611297565b820191905f5260205f20905b81548152906001019060200180831161127a57829003601f168201915b5050505050815250508b8b60048a815481106112b5576112b561559f565b905f5260205f2090600f02016004015f9054906101000a900460ff1660048b815481106112e4576112e461559f565b905f5260205f2090600f02016004015f9054906101000a900460ff168d60048d815481106113145761131461559f565b905f5260205f2090600f0201600501604051806101400160405290815f8201805461133e9061554e565b80601f016020809104026020016040519081016040528092919081815260200182805461136a9061554e565b80156113b55780601f1061138c576101008083540402835291602001916113b5565b820191905f5260205f20905b81548152906001019060200180831161139857829003601f168201915b505050505081526020016001820180546113ce9061554e565b80601f01602080910402602001604051908101604052809291908181526020018280546113fa9061554e565b80156114455780601f1061141c57610100808354040283529160200191611445565b820191905f5260205f20905b81548152906001019060200180831161142857829003601f168201915b5050505050815260200160028201805461145e9061554e565b80601f016020809104026020016040519081016040528092919081815260200182805461148a9061554e565b80156114d55780601f106114ac576101008083540402835291602001916114d5565b820191905f5260205f20905b8154815290600101906020018083116114b857829003601f168201915b505050505081526020016003820180546114ee9061554e565b80601f016020809104026020016040519081016040528092919081815260200182805461151a9061554e565b80156115655780601f1061153c57610100808354040283529160200191611565565b820191905f5260205f20905b81548152906001019060200180831161154857829003601f168201915b5050505050815260200160048201805461157e9061554e565b80601f01602080910402602001604051908101604052809291908181526020018280546115aa9061554e565b80156115f55780601f106115cc576101008083540402835291602001916115f5565b820191905f5260205f20905b8154815290600101906020018083116115d857829003601f168201915b5050505050815260200160058201805461160e9061554e565b80601f016020809104026020016040519081016040528092919081815260200182805461163a9061554e565b80156116855780601f1061165c57610100808354040283529160200191611685565b820191905f5260205f20905b81548152906001019060200180831161166857829003601f168201915b5050505050815260200160068201805461169e9061554e565b80601f01602080910402602001604051908101604052809291908181526020018280546116ca9061554e565b80156117155780601f106116ec57610100808354040283529160200191611715565b820191905f5260205f20905b8154815290600101906020018083116116f857829003601f168201915b5050505050815260200160078201805461172e9061554e565b80601f016020809104026020016040519081016040528092919081815260200182805461175a9061554e565b80156117a55780601f1061177c576101008083540402835291602001916117a5565b820191905f5260205f20905b81548152906001019060200180831161178857829003601f168201915b505050505081526020016008820180546117be9061554e565b80601f01602080910402602001604051908101604052809291908181526020018280546117ea9061554e565b80156118355780601f1061180c57610100808354040283529160200191611835565b820191905f5260205f20905b81548152906001019060200180831161181857829003601f168201915b5050505050815260200160098201805461184e9061554e565b80601f016020809104026020016040519081016040528092919081815260200182805461187a9061554e565b80156118c55780601f1061189c576101008083540402835291602001916118c5565b820191905f5260205f20905b8154815290600101906020018083116118a857829003601f168201915b505050505081525050613900565b6118e160038a8a848a613c9e565b6118ec600485613e86565b50506119ac565b805f0b5f03611915576118e160058a600487815481106111495761114961559f565b61192e60058a600487815481106111495761114961559f565b611958817fffffffffffffffffffffffffffffffffffffffffffffffffffffffffffffffff615819565b6004858154811061196b5761196b61559f565b905f5260205f2090600f02016004015f6101000a81548160ff021916908360ff16021790555050506119ac565b505b806119a481615835565b9150506109d8565b505b600101610988565b50806119ca576119ca600386868686613c9e565b5050505050565b6119db600261347d565b60408085015181516101408101909252611a66916006600a5f835b82821015611a5957604080516101408101918290529085840190600a90825f855b825461010083900a900460ff16815260206001928301818104948501949093039092029101808411611a175790505050505050815260200190600101906119f6565b50505050600260016134c4565b5f805b6003548110156124d657848051906020012060038281548110611a8e57611a8e61559f565b905f5260205f2090600f0201600301604051611aaa91906155cc565b6040518091039020036124ce575f5b60025460ff821610156124cc5760028160ff1681548110611adc57611adc61559f565b905f5260205f2090602091828204019190069054906101000a900460ff1660ff1660038381548110611b1057611b1061559f565b5f9182526020909120600f9091020160010154610100900460ff16036124ba575f611b488560038581548110610a6757610a6761559f565b9050611b5587600161375c565b8160ff16106124b857600193507f9f3ad7e297074403ebbe6920fcfc9ead722b9cf562608507477325d0687d87be60038481548110611b9657611b9661559f565b905f5260205f2090600f02015f0160038581548110611bb757611bb761559f565b905f5260205f2090600f020160030160038681548110611bd957611bd961559f565b5f91825260209091206004600f90920201015460ff16611bfa85600a615688565b604051611c0a9493929190615741565b60405180910390a15f60038481548110611c2657611c2661559f565b5f91825260209091206004600f909202010154611c469060ff16886157db565b90505f815f0b1315612415576123f5600560038681548110611c6a57611c6a61559f565b905f5260205f2090600f02015f016040518060800160405290815f82018054611c929061554e565b80601f0160208091040260200160405190810160405280929190818152602001828054611cbe9061554e565b8015611d095780601f10611ce057610100808354040283529160200191611d09565b820191905f5260205f20905b815481529060010190602001808311611cec57829003601f168201915b5050509183525050600182015460ff8082166020840152610100909104166040820152600282018054606090920191611d419061554e565b80601f0160208091040260200160405190810160405280929190818152602001828054611d6d9061554e565b8015611db85780601f10611d8f57610100808354040283529160200191611db8565b820191905f5260205f20905b815481529060010190602001808311611d9b57829003601f168201915b5050505050815250508b8b60038981548110611dd657611dd661559f565b905f5260205f2090600f02016004015f9054906101000a900460ff168c60038b81548110611e0657611e0661559f565b905f5260205f2090600f02016004015f9054906101000a900460ff1660038c81548110611e3557611e3561559f565b905f5260205f2090600f0201600501604051806101400160405290815f82018054611e5f9061554e565b80601f0160208091040260200160405190810160405280929190818152602001828054611e8b9061554e565b8015611ed65780601f10611ead57610100808354040283529160200191611ed6565b820191905f5260205f20905b815481529060010190602001808311611eb957829003601f168201915b50505050508152602001600182018054611eef9061554e565b80601f0160208091040260200160405190810160405280929190818152602001828054611f1b9061554e565b8015611f665780601f10611f3d57610100808354040283529160200191611f66565b820191905f5260205f20905b815481529060010190602001808311611f4957829003601f168201915b50505050508152602001600282018054611f7f9061554e565b80601f0160208091040260200160405190810160405280929190818152602001828054611fab9061554e565b8015611ff65780601f10611fcd57610100808354040283529160200191611ff6565b820191905f5260205f20905b815481529060010190602001808311611fd957829003601f168201915b5050505050815260200160038201805461200f9061554e565b80601f016020809104026020016040519081016040528092919081815260200182805461203b9061554e565b80156120865780601f1061205d57610100808354040283529160200191612086565b820191905f5260205f20905b81548152906001019060200180831161206957829003601f168201915b5050505050815260200160048201805461209f9061554e565b80601f01602080910402602001604051908101604052809291908181526020018280546120cb9061554e565b80156121165780601f106120ed57610100808354040283529160200191612116565b820191905f5260205f20905b8154815290600101906020018083116120f957829003601f168201915b5050505050815260200160058201805461212f9061554e565b80601f016020809104026020016040519081016040528092919081815260200182805461215b9061554e565b80156121a65780601f1061217d576101008083540402835291602001916121a6565b820191905f5260205f20905b81548152906001019060200180831161218957829003601f168201915b505050505081526020016006820180546121bf9061554e565b80601f01602080910402602001604051908101604052809291908181526020018280546121eb9061554e565b80156122365780601f1061220d57610100808354040283529160200191612236565b820191905f5260205f20905b81548152906001019060200180831161221957829003601f168201915b5050505050815260200160078201805461224f9061554e565b80601f016020809104026020016040519081016040528092919081815260200182805461227b9061554e565b80156122c65780601f1061229d576101008083540402835291602001916122c6565b820191905f5260205f20905b8154815290600101906020018083116122a957829003601f168201915b505050505081526020016008820180546122df9061554e565b80601f016020809104026020016040519081016040528092919081815260200182805461230b9061554e565b80156123565780601f1061232d57610100808354040283529160200191612356565b820191905f5260205f20905b81548152906001019060200180831161233957829003601f168201915b5050505050815260200160098201805461236f9061554e565b80601f016020809104026020016040519081016040528092919081815260200182805461239b9061554e565b80156123e65780601f106123bd576101008083540402835291602001916123e6565b820191905f5260205f20905b8154815290600101906020018083116123c957829003601f168201915b5050505050815250508e613900565b61240360048a8a848a613c9e565b61240e600385613e86565b50506124cc565b805f0b5f0361243657612403600560038681548110611c6a57611c6a61559f565b61244e600560038681548110611c6a57611c6a61559f565b612478817fffffffffffffffffffffffffffffffffffffffffffffffffffffffffffffffff615819565b6003858154811061248b5761248b61559f565b905f5260205f2090600f02016004015f6101000a81548160ff021916908360ff16021790555050506124cc565b505b806124c481615835565b915050611ab9565b505b600101611a69565b50806119ca576119ca600486868686613c9e565b808214612557576040517f08c379a000000000000000000000000000000000000000000000000000000000815260206004820152600f60248201527f57726f6e672050617373776f7264210000000000000000000000000000000000604482015260640160405180910390fd5b5050565b60606005805480602002602001604051908101604052809291908181526020015f905b82821015613474575f84815260209020604080516101808101909152601c8402909101805482906101008201908390829082906125ba9061554e565b80601f01602080910402602001604051908101604052809291908181526020018280546125e69061554e565b80156126315780601f1061260857610100808354040283529160200191612631565b820191905f5260205f20905b81548152906001019060200180831161261457829003601f168201915b5050509183525050600182015460ff80821660208401526101009091041660408201526002820180546060909201916126699061554e565b80601f01602080910402602001604051908101604052809291908181526020018280546126959061554e565b80156126e05780601f106126b7576101008083540402835291602001916126e0565b820191905f5260205f20905b8154815290600101906020018083116126c357829003601f168201915b5050505050815250508152602001600382016040518060800160405290815f8201805461270c9061554e565b80601f01602080910402602001604051908101604052809291908181526020018280546127389061554e565b80156127835780601f1061275a57610100808354040283529160200191612783565b820191905f5260205f20905b81548152906001019060200180831161276657829003601f168201915b5050509183525050600182015460ff80821660208401526101009091041660408201526002820180546060909201916127bb9061554e565b80601f01602080910402602001604051908101604052809291908181526020018280546127e79061554e565b80156128325780601f1061280957610100808354040283529160200191612832565b820191905f5260205f20905b81548152906001019060200180831161281557829003601f168201915b505050505081525050815260200160068201805461284f9061554e565b80601f016020809104026020016040519081016040528092919081815260200182805461287b9061554e565b80156128c65780601f1061289d576101008083540402835291602001916128c6565b820191905f5260205f20905b8154815290600101906020018083116128a957829003601f168201915b5050509183525050600782015460ff80821660208401526101008204811660408085019190915262010000909204166060830152805161014081019091526008830180546080909301928290829061291d9061554e565b80601f01602080910402602001604051908101604052809291908181526020018280546129499061554e565b80156129945780601f1061296b57610100808354040283529160200191612994565b820191905f5260205f20905b81548152906001019060200180831161297757829003601f168201915b505050505081526020016001820180546129ad9061554e565b80601f01602080910402602001604051908101604052809291908181526020018280546129d99061554e565b8015612a245780601f106129fb57610100808354040283529160200191612a24565b820191905f5260205f20905b815481529060010190602001808311612a0757829003601f168201915b50505050508152602001600282018054612a3d9061554e565b80601f0160208091040260200160405190810160405280929190818152602001828054612a699061554e565b8015612ab45780601f10612a8b57610100808354040283529160200191612ab4565b820191905f5260205f20905b815481529060010190602001808311612a9757829003601f168201915b50505050508152602001600382018054612acd9061554e565b80601f0160208091040260200160405190810160405280929190818152602001828054612af99061554e565b8015612b445780601f10612b1b57610100808354040283529160200191612b44565b820191905f5260205f20905b815481529060010190602001808311612b2757829003601f168201915b50505050508152602001600482018054612b5d9061554e565b80601f0160208091040260200160405190810160405280929190818152602001828054612b899061554e565b8015612bd45780601f10612bab57610100808354040283529160200191612bd4565b820191905f5260205f20905b815481529060010190602001808311612bb757829003601f168201915b50505050508152602001600582018054612bed9061554e565b80601f0160208091040260200160405190810160405280929190818152602001828054612c199061554e565b8015612c645780601f10612c3b57610100808354040283529160200191612c64565b820191905f5260205f20905b815481529060010190602001808311612c4757829003601f168201915b50505050508152602001600682018054612c7d9061554e565b80601f0160208091040260200160405190810160405280929190818152602001828054612ca99061554e565b8015612cf45780601f10612ccb57610100808354040283529160200191612cf4565b820191905f5260205f20905b815481529060010190602001808311612cd757829003601f168201915b50505050508152602001600782018054612d0d9061554e565b80601f0160208091040260200160405190810160405280929190818152602001828054612d399061554e565b8015612d845780601f10612d5b57610100808354040283529160200191612d84565b820191905f5260205f20905b815481529060010190602001808311612d6757829003601f168201915b50505050508152602001600882018054612d9d9061554e565b80601f0160208091040260200160405190810160405280929190818152602001828054612dc99061554e565b8015612e145780601f10612deb57610100808354040283529160200191612e14565b820191905f5260205f20905b815481529060010190602001808311612df757829003601f168201915b50505050508152602001600982018054612e2d9061554e565b80601f0160208091040260200160405190810160405280929190818152602001828054612e599061554e565b8015612ea45780601f10612e7b57610100808354040283529160200191612ea4565b820191905f5260205f20905b815481529060010190602001808311612e8757829003601f168201915b505050505081525050815260200160128201604051806101400160405290815f82018054612ed19061554e565b80601f0160208091040260200160405190810160405280929190818152602001828054612efd9061554e565b8015612f485780601f10612f1f57610100808354040283529160200191612f48565b820191905f5260205f20905b815481529060010190602001808311612f2b57829003601f168201915b50505050508152602001600182018054612f619061554e565b80601f0160208091040260200160405190810160405280929190818152602001828054612f8d9061554e565b8015612fd85780601f10612faf57610100808354040283529160200191612fd8565b820191905f5260205f20905b815481529060010190602001808311612fbb57829003601f168201915b50505050508152602001600282018054612ff19061554e565b80601f016020809104026020016040519081016040528092919081815260200182805461301d9061554e565b80156130685780601f1061303f57610100808354040283529160200191613068565b820191905f5260205f20905b81548152906001019060200180831161304b57829003601f168201915b505050505081526020016003820180546130819061554e565b80601f01602080910402602001604051908101604052809291908181526020018280546130ad9061554e565b80156130f85780601f106130cf576101008083540402835291602001916130f8565b820191905f5260205f20905b8154815290600101906020018083116130db57829003601f168201915b505050505081526020016004820180546131119061554e565b80601f016020809104026020016040519081016040528092919081815260200182805461313d9061554e565b80156131885780601f1061315f57610100808354040283529160200191613188565b820191905f5260205f20905b81548152906001019060200180831161316b57829003601f168201915b505050505081526020016005820180546131a19061554e565b80601f01602080910402602001604051908101604052809291908181526020018280546131cd9061554e565b80156132185780601f106131ef57610100808354040283529160200191613218565b820191905f5260205f20905b8154815290600101906020018083116131fb57829003601f168201915b505050505081526020016006820180546132319061554e565b80601f016020809104026020016040519081016040528092919081815260200182805461325d9061554e565b80156132a85780601f1061327f576101008083540402835291602001916132a8565b820191905f5260205f20905b81548152906001019060200180831161328b57829003601f168201915b505050505081526020016007820180546132c19061554e565b80601f01602080910402602001604051908101604052809291908181526020018280546132ed9061554e565b80156133385780601f1061330f57610100808354040283529160200191613338565b820191905f5260205f20905b81548152906001019060200180831161331b57829003601f168201915b505050505081526020016008820180546133519061554e565b80601f016020809104026020016040519081016040528092919081815260200182805461337d9061554e565b80156133c85780601f1061339f576101008083540402835291602001916133c8565b820191905f5260205f20905b8154815290600101906020018083116133ab57829003601f168201915b505050505081526020016009820180546133e19061554e565b80601f016020809104026020016040519081016040528092919081815260200182805461340d9061554e565b80156134585780601f1061342f57610100808354040283529160200191613458565b820191905f5260205f20905b81548152906001019060200180831161343b57829003601f168201915b505050505081525050815250508152602001906001019061257e565b50505050905090565b8054156134c1578080548061349457613494615853565b600190038181905f5260205f2090602091828204019190066101000a81549060ff0219169055905561347d565b50565b8360ff16600814806134d957508360ff166009145b156135165781546001810183555f83815260209081902090820401805460ff808816601f9094166101000a93840293021916919091179055613634565b8060ff165f036135ad575f5b60088160ff1610156135a757838160ff16600a81106135435761354361559f565b60200201518560ff16600a811061355c5761355c61559f565b602002015160ff1660010361359f5782546001810184555f84815260209081902090820401805460ff808516601f9094166101000a938402930219169190911790555b600101613522565b50613634565b5f5b60088160ff1610156119ca57838560ff16600a81106135d0576135d061559f565b60200201518160ff16600a81106135e9576135e961559f565b602002015160ff1660010361362c5782546001810184555f84815260209081902090820401805460ff808516601f9094166101000a938402930219169190911790555b6001016135af565b50505050565b5f61364f836101200151836101200151614b6b565b613663846101000151846101000151614b6b565b6136758560e001518560e00151614b6b565b6136878660c001518660c00151614b6b565b6136998760a001518760a00151614b6b565b6136ab88608001518860800151614b6b565b6136bd89606001518960600151614b6b565b6136cf8a604001518a60400151614b6b565b6136e18b602001518b60200151614b6b565b8b518b516136ef9190614b6b565b6136f9905f615880565b6137039190615880565b61370d9190615880565b6137179190615880565b6137219190615880565b61372b9190615880565b6137359190615880565b61373f9190615880565b6137499190615880565b6137539190615880565b90505b92915050565b6040805160a081018252600980825260076020830152600592820192909252600260608201525f608082018190525b60058110156138f8575f845f8484600581106137a9576137a961559f565b602002015160ff1660ff1681526020019081526020015f20805480602002602001604051908101604052809291908181526020015f905b82821015613888578382905f5260205f200180546137fd9061554e565b80601f01602080910402602001604051908101604052809291908181526020018280546138299061554e565b80156138745780601f1061384b57610100808354040283529160200191613874565b820191905f5260205f20905b81548152906001019060200180831161385757829003601f168201915b5050505050815260200190600101906137e0565b509293505f925050505b81518110156138ee5786805190602001208282815181106138b5576138b561559f565b602002602001015180519060200120036138e6578383600581106138db576138db61559f565b602002015160ff1694505b600101613892565b505060010161378b565b505092915050565b604080516101008101825289815260208082018a905291810188905260ff80881660608301528681166080830152851660a082015260c0810184905260e081018390528a54600181018c555f8c8152929092208151805192938493601c909102909201918290819061397290826158e2565b506020820151600182018054604085015160ff908116610100027fffffffffffffffffffffffffffffffffffffffffffffffffffffffffffff0000909216931692909217919091179055606082015160028201906139d090826158e2565b50505060208201518051600383019081906139eb90826158e2565b506020820151600182018054604085015160ff908116610100027fffffffffffffffffffffffffffffffffffffffffffffffffffffffffffff000090921693169290921791909117905560608201516002820190613a4990826158e2565b50505060408201516006820190613a6090826158e2565b506060820151600782018054608085015160a086015160ff90811662010000027fffffffffffffffffffffffffffffffffffffffffffffffffffffffffff00ffff928216610100027fffffffffffffffffffffffffffffffffffffffffffffffffffffffffffff00009094169190951617919091171691909117905560c0820151805160088301908190613af490826158e2565b5060208201516001820190613b0990826158e2565b5060408201516002820190613b1e90826158e2565b5060608201516003820190613b3390826158e2565b5060808201516004820190613b4890826158e2565b5060a08201516005820190613b5d90826158e2565b5060c08201516006820190613b7290826158e2565b5060e08201516007820190613b8790826158e2565b506101008201516008820190613b9d90826158e2565b506101208201516009820190613bb390826158e2565b50505060e0820151805160128301908190613bce90826158e2565b5060208201516001820190613be390826158e2565b5060408201516002820190613bf890826158e2565b5060608201516003820190613c0d90826158e2565b5060808201516004820190613c2290826158e2565b5060a08201516005820190613c3790826158e2565b5060c08201516006820190613c4c90826158e2565b5060e08201516007820190613c6190826158e2565b506101008201516008820190613c7790826158e2565b506101208201516009820190613c8d90826158e2565b505050505050505050505050505050565b60408051608081018252858152602080820186905260ff8516928201929092526060810183905286546001810188555f888152929092208151805192938493600f9091029092019182908190613cf490826158e2565b506020820151600182018054604085015160ff908116610100027fffffffffffffffffffffffffffffffffffffffffffffffffffffffffffff000090921693169290921791909117905560608201516002820190613d5290826158e2565b50505060208201516003820190613d6990826158e2565b5060408201516004820180547fffffffffffffffffffffffffffffffffffffffffffffffffffffffffffffff001660ff9092169190911790556060820151805160058301908190613dba90826158e2565b5060208201516001820190613dcf90826158e2565b5060408201516002820190613de490826158e2565b5060608201516003820190613df990826158e2565b5060808201516004820190613e0e90826158e2565b5060a08201516005820190613e2390826158e2565b5060c08201516006820190613e3890826158e2565b5060e08201516007820190613e4d90826158e2565b506101008201516008820190613e6390826158e2565b506101208201516009820190613e7990826158e2565b5050505050505050505050565b5f828281548110613e9957613e9961559f565b905f5260205f2090600f02016040518060800160405290815f82016040518060800160405290815f82018054613ece9061554e565b80601f0160208091040260200160405190810160405280929190818152602001828054613efa9061554e565b8015613f455780601f10613f1c57610100808354040283529160200191613f45565b820191905f5260205f20905b815481529060010190602001808311613f2857829003601f168201915b5050509183525050600182015460ff8082166020840152610100909104166040820152600282018054606090920191613f7d9061554e565b80601f0160208091040260200160405190810160405280929190818152602001828054613fa99061554e565b8015613ff45780601f10613fcb57610100808354040283529160200191613ff4565b820191905f5260205f20905b815481529060010190602001808311613fd757829003601f168201915b50505050508152505081526020016003820180546140119061554e565b80601f016020809104026020016040519081016040528092919081815260200182805461403d9061554e565b80156140885780601f1061405f57610100808354040283529160200191614088565b820191905f5260205f20905b81548152906001019060200180831161406b57829003601f168201915b5050509183525050600482015460ff166020820152604080516101408101825260058401805492909301929091829082906140c29061554e565b80601f01602080910402602001604051908101604052809291908181526020018280546140ee9061554e565b80156141395780601f1061411057610100808354040283529160200191614139565b820191905f5260205f20905b81548152906001019060200180831161411c57829003601f168201915b505050505081526020016001820180546141529061554e565b80601f016020809104026020016040519081016040528092919081815260200182805461417e9061554e565b80156141c95780601f106141a0576101008083540402835291602001916141c9565b820191905f5260205f20905b8154815290600101906020018083116141ac57829003601f168201915b505050505081526020016002820180546141e29061554e565b80601f016020809104026020016040519081016040528092919081815260200182805461420e9061554e565b80156142595780601f1061423057610100808354040283529160200191614259565b820191905f5260205f20905b81548152906001019060200180831161423c57829003601f168201915b505050505081526020016003820180546142729061554e565b80601f016020809104026020016040519081016040528092919081815260200182805461429e9061554e565b80156142e95780601f106142c0576101008083540402835291602001916142e9565b820191905f5260205f20905b8154815290600101906020018083116142cc57829003601f168201915b505050505081526020016004820180546143029061554e565b80601f016020809104026020016040519081016040528092919081815260200182805461432e9061554e565b80156143795780601f1061435057610100808354040283529160200191614379565b820191905f5260205f20905b81548152906001019060200180831161435c57829003601f168201915b505050505081526020016005820180546143929061554e565b80601f01602080910402602001604051908101604052809291908181526020018280546143be9061554e565b80156144095780601f106143e057610100808354040283529160200191614409565b820191905f5260205f20905b8154815290600101906020018083116143ec57829003601f168201915b505050505081526020016006820180546144229061554e565b80601f016020809104026020016040519081016040528092919081815260200182805461444e9061554e565b80156144995780601f1061447057610100808354040283529160200191614499565b820191905f5260205f20905b81548152906001019060200180831161447c57829003601f168201915b505050505081526020016007820180546144b29061554e565b80601f01602080910402602001604051908101604052809291908181526020018280546144de9061554e565b80156145295780601f1061450057610100808354040283529160200191614529565b820191905f5260205f20905b81548152906001019060200180831161450c57829003601f168201915b505050505081526020016008820180546145429061554e565b80601f016020809104026020016040519081016040528092919081815260200182805461456e9061554e565b80156145b95780601f10614590576101008083540402835291602001916145b9565b820191905f5260205f20905b81548152906001019060200180831161459c57829003601f168201915b505050505081526020016009820180546145d29061554e565b80601f01602080910402602001604051908101604052809291908181526020018280546145fe9061554e565b80156146495780601f1061462057610100808354040283529160200191614649565b820191905f5260205f20905b81548152906001019060200180831161462c57829003601f168201915b5050509190925250505090525083549091508390614669906001906159fc565b815481106146795761467961559f565b905f5260205f2090600f02018383815481106146975761469761559f565b5f9182526020909120600f909102018181806146b38382615a0f565b5060018281018054918301805460ff9384167fffffffffffffffffffffffffffffffffffffffffffffffffffffffffffffff0082168117835592547fffffffffffffffffffffffffffffffffffffffffffffffffffffffffffff00009091169092176101009283900490931690910291909117905560028082019061473a90840182615a0f565b50505060038181019061474f90840182615a0f565b5060048281015490820180547fffffffffffffffffffffffffffffffffffffffffffffffffffffffffffffff001660ff90921691909117905560058083019082018061479b8382615a0f565b506001818101906147ae90840182615a0f565b506002818101906147c190840182615a0f565b506003818101906147d490840182615a0f565b506004818101906147e790840182615a0f565b506005818101906147fa90840182615a0f565b5060068181019061480d90840182615a0f565b5060078181019061482090840182615a0f565b5060088181019061483390840182615a0f565b5060098181019061484690840182615a0f565b5050855484935086925061485d91506001906159fc565b8154811061486d5761486d61559f565b5f918252602090912082518051600f909302909101918290819061489190826158e2565b506020820151600182018054604085015160ff908116610100027fffffffffffffffffffffffffffffffffffffffffffffffffffffffffffff0000909216931692909217919091179055606082015160028201906148ef90826158e2565b5050506020820151600382019061490690826158e2565b5060408201516004820180547fffffffffffffffffffffffffffffffffffffffffffffffffffffffffffffff001660ff909216919091179055606082015180516005830190819061495790826158e2565b506020820151600182019061496c90826158e2565b506040820151600282019061498190826158e2565b506060820151600382019061499690826158e2565b50608082015160048201906149ab90826158e2565b5060a082015160058201906149c090826158e2565b5060c082015160068201906149d590826158e2565b5060e082015160078201906149ea90826158e2565b506101008201516008820190614a0090826158e2565b506101208201516009820190614a1690826158e2565b50505090505082805480614a2c57614a2c615853565b5f828152602081207fffffffffffffffffffffffffffffffffffffffffffffffffffffffffffffffff90920191600f830201908181614a6b8282614df4565b6001820180547fffffffffffffffffffffffffffffffffffffffffffffffffffffffffffff0000169055614aa2600283015f614df4565b50614ab29050600383015f614df4565b6004820180547fffffffffffffffffffffffffffffffffffffffffffffffffffffffffffffff00169055600582015f614aeb8282614df4565b614af8600183015f614df4565b614b05600283015f614df4565b614b12600383015f614df4565b614b1f600483015f614df4565b614b2c600583015f614df4565b614b39600683015f614df4565b614b46600783015f614df4565b614b53600883015f614df4565b614b60600983015f614df4565b505050509055505050565b5f603082600181518110614b8157614b8161559f565b0160200151614b93919060f81c615b38565b6030835f81518110614ba757614ba761559f565b0160200151614bb9919060f81c615b38565b614bc490600a615688565b614bce9190615880565b60ff16603084600181518110614be657614be661559f565b0160200151614bf8919060f81c615b38565b6030855f81518110614c0c57614c0c61559f565b0160200151614c1e919060f81c615b38565b614c2990600a615688565b614c339190615880565b60ff16148015614d0c5750603082600481518110614c5357614c5361559f565b0160200151614c65919060f81c615b38565b603083600381518110614c7a57614c7a61559f565b0160200151614c8c919060f81c615b38565b614c9790600a615688565b614ca19190615880565b60ff16603084600481518110614cb957614cb961559f565b0160200151614ccb919060f81c615b38565b603085600381518110614ce057614ce061559f565b0160200151614cf2919060f81c615b38565b614cfd90600a615688565b614d079190615880565b60ff16145b8015614de15750603082600781518110614d2857614d2861559f565b0160200151614d3a919060f81c615b38565b603083600681518110614d4f57614d4f61559f565b0160200151614d61919060f81c615b38565b614d6c90600a615688565b614d769190615880565b60ff16603084600781518110614d8e57614d8e61559f565b0160200151614da0919060f81c615b38565b603085600681518110614db557614db561559f565b0160200151614dc7919060f81c615b38565b614dd290600a615688565b614ddc9190615880565b60ff16145b614deb575f613753565b50600192915050565b508054614e009061554e565b5f825580601f10614e0f575050565b601f0160209004905f5260205f20908101906134c191905b80821115614e3a575f8155600101614e27565b5090565b7f4e487b71000000000000000000000000000000000000000000000000000000005f52604160045260245ffd5b604051610140810167ffffffffffffffff81118282101715614e8f57614e8f614e3e565b60405290565b6040516080810167ffffffffffffffff81118282101715614e8f57614e8f614e3e565b5f82601f830112614ec7575f5ffd5b813567ffffffffffffffff811115614ee157614ee1614e3e565b604051601f82017fffffffffffffffffffffffffffffffffffffffffffffffffffffffffffffffe0908116603f0116810167ffffffffffffffff81118282101715614f2e57614f2e614e3e565b604052818152838201602001851015614f45575f5ffd5b816020850160208301375f918101602001919091529392505050565b803560ff81168114614f71575f5ffd5b919050565b5f5f60408385031215614f87575f5ffd5b823567ffffffffffffffff811115614f9d575f5ffd5b614fa985828601614eb8565b925050614fb860208401614f61565b90509250929050565b5f81518084528060208401602086015e5f6020828601015260207fffffffffffffffffffffffffffffffffffffffffffffffffffffffffffffffe0601f83011685010191505092915050565b5f81516101408452615023610140850182614fc1565b90506020830151848203602086015261503c8282614fc1565b915050604083015184820360408601526150568282614fc1565b915050606083015184820360608601526150708282614fc1565b9150506080830151848203608086015261508a8282614fc1565b91505060a083015184820360a08601526150a48282614fc1565b91505060c083015184820360c08601526150be8282614fc1565b91505060e083015184820360e08601526150d88282614fc1565b9150506101008301518482036101008601526150f48282614fc1565b9150506101208301518482036101208601526151108282614fc1565b95945050505050565b5f602082016020835280845180835260408501915060408160051b8601019250602086015f5b82811015615245577fffffffffffffffffffffffffffffffffffffffffffffffffffffffffffffffc08786030184528151805160808752805160808089015261518c610100890182614fc1565b905060ff60208301511660a089015260ff60408301511660c0890152606082015191507fffffffffffffffffffffffffffffffffffffffffffffffffffffffffffffff808882030160e08901526151e38183614fc1565b915050602082015187820360208901526151fd8282614fc1565b9150506040820151615214604089018260ff169052565b5060608201519150868103606088015261522e818361500d565b96505050602093840193919091019060010161513f565b50929695505050505050565b5f6101408284031215615262575f5ffd5b61526a614e6b565b9050813567ffffffffffffffff811115615282575f5ffd5b61528e84828501614eb8565b825250602082013567ffffffffffffffff8111156152aa575f5ffd5b6152b684828501614eb8565b602083015250604082013567ffffffffffffffff8111156152d5575f5ffd5b6152e184828501614eb8565b604083015250606082013567ffffffffffffffff811115615300575f5ffd5b61530c84828501614eb8565b606083015250608082013567ffffffffffffffff81111561532b575f5ffd5b61533784828501614eb8565b60808301525060a082013567ffffffffffffffff811115615356575f5ffd5b61536284828501614eb8565b60a08301525060c082013567ffffffffffffffff811115615381575f5ffd5b61538d84828501614eb8565b60c08301525060e082013567ffffffffffffffff8111156153ac575f5ffd5b6153b884828501614eb8565b60e08301525061010082013567ffffffffffffffff8111156153d8575f5ffd5b6153e484828501614eb8565b6101008301525061012082013567ffffffffffffffff811115615405575f5ffd5b61541184828501614eb8565b6101208301525092915050565b5f5f5f5f60808587031215615431575f5ffd5b843567ffffffffffffffff811115615447575f5ffd5b850160808188031215615458575f5ffd5b615460614e95565b813567ffffffffffffffff811115615476575f5ffd5b61548289828501614eb8565b82525061549160208301614f61565b60208201526154a260408301614f61565b6040820152606082013567ffffffffffffffff8111156154c0575f5ffd5b6154cc89828501614eb8565b606083015250945050602085013567ffffffffffffffff8111156154ee575f5ffd5b6154fa87828801614eb8565b93505061550960408601614f61565b9150606085013567ffffffffffffffff811115615524575f5ffd5b61553087828801615251565b91505092959194509250565b602081525f6137536020830184614fc1565b600181811c9082168061556257607f821691505b602082108103615599577f4e487b71000000000000000000000000000000000000000000000000000000005f52602260045260245ffd5b50919050565b7f4e487b71000000000000000000000000000000000000000000000000000000005f52603260045260245ffd5b5f5f83546155d98161554e565b6001821680156155f0576001811461562357615650565b7fffffffffffffffffffffffffffffffffffffffffffffffffffffffffffffff0083168652811515820286019350615650565b865f5260205f205f5b838110156156485781548882015260019091019060200161562c565b505081860193505b509195945050505050565b7f4e487b71000000000000000000000000000000000000000000000000000000005f52601160045260245ffd5b60ff81811683821602908116908181146108ea576108ea61565b565b5f81546156b08161554e565b8085526001821680156156ca576001811461570457615738565b7fffffffffffffffffffffffffffffffffffffffffffffffffffffffffffffff0083166020870152602082151560051b8701019350615738565b845f5260205f205f5b8381101561572f5781546020828a01015260018201915060208101905061570d565b87016020019450505b50505092915050565b608081526080808201525f61575a6101008301876156a4565b600187015460ff811660a085015260ff8160081c1660c0850152507fffffffffffffffffffffffffffffffffffffffffffffffffffffffffffffff808382030160e08401526157ac81600289016156a4565b905082810360208401526157c081876156a4565b91505060ff84166040830152615110606083018460ff169052565b5f82810b9082900b037fffffffffffffffffffffffffffffffffffffffffffffffffffffffffffffff808112607f821317156137565761375661565b565b5f825f0b825f0b02805f0b91508082146108ea576108ea61565b565b5f60ff821660ff810361584a5761584a61565b565b60010192915050565b7f4e487b71000000000000000000000000000000000000000000000000000000005f52603160045260245ffd5b60ff81811683821601908111156137565761375661565b565b601f8211156158dd57805f5260205f20601f840160051c810160208510156158be5750805b601f840160051c820191505b818110156119ca575f81556001016158ca565b505050565b815167ffffffffffffffff8111156158fc576158fc614e3e565b6159108161590a845461554e565b84615899565b6020601f821160018114615964575f831561592b5750848201515b600184901b7fffffffffffffffffffffffffffffffffffffffffffffffffffffffffffffffff600386901b1c198216175b8555506119ca565b5f848152602081207fffffffffffffffffffffffffffffffffffffffffffffffffffffffffffffffe08516915b828110156159b15787850151825560209485019460019092019101615991565b50848210156159ed57868401517fffffffffffffffffffffffffffffffffffffffffffffffffffffffffffffffff600387901b60f8161c191681555b50505050600190811b01905550565b818103818111156137565761375661565b565b818103615a1a575050565b615a24825461554e565b67ffffffffffffffff811115615a3c57615a3c614e3e565b615a4a8161590a845461554e565b5f601f821160018114615a98575f831561592b575081850154600184901b7fffffffffffffffffffffffffffffffffffffffffffffffffffffffffffffffff600386901b1c1982161761595c565b5f85815260208082208683529082207fffffffffffffffffffffffffffffffffffffffffffffffffffffffffffffffe08616925b83811015615aec5782860154825560019586019590910190602001615acc565b5085831015615b2857818501547fffffffffffffffffffffffffffffffffffffffffffffffffffffffffffffffff600388901b60f8161c191681555b5050505050600190811b01905550565b60ff82811682821603908111156137565761375661565b56fea2646970667358221220fa44f835959b545b1f702531c3a3b7dfa7135a71b0b27dc42912a6ccbc81a59864736f6c634300081e0033",
			"opcodes": "PUSH1 0x1 PUSH2 0x1C0 DUP2 DUP2 MSTORE PUSH2 0x1E0 DUP3 SWAP1 MSTORE PUSH0 PUSH2 0x200 DUP2 SWAP1 MSTORE PUSH2 0x220 DUP2 SWAP1 MSTORE PUSH2 0x240 DUP2 SWAP1 MSTORE PUSH2 0x260 DUP2 SWAP1 MSTORE PUSH2 0x280 DUP4 SWAP1 MSTORE PUSH2 0x2A0 DUP4 SWAP1 MSTORE PUSH2 0x2C0 DUP2 SWAP1 MSTORE PUSH2 0x2E0 DUP2 SWAP1 MSTORE PUSH1 0x80 SWAP2 DUP3 MSTORE PUSH2 0x300 DUP2 DUP2 MSTORE PUSH2 0x320 DUP5 SWAP1 MSTORE PUSH2 0x340 DUP3 SWAP1 MSTORE PUSH2 0x360 DUP3 SWAP1 MSTORE PUSH2 0x380 DUP3 SWAP1 MSTORE PUSH2 0x3A0 DUP3 SWAP1 MSTORE PUSH2 0x3C0 DUP3 SWAP1 MSTORE PUSH2 0x3E0 DUP5 SWAP1 MSTORE PUSH2 0x400 DUP3 SWAP1 MSTORE PUSH2 0x420 DUP3 SWAP1 MSTORE PUSH1 0xA0 MSTORE PUSH2 0x440 DUP2 DUP2 MSTORE PUSH2 0x460 DUP3 SWAP1 MSTORE PUSH2 0x480 DUP5 SWAP1 MSTORE PUSH2 0x4A0 DUP5 SWAP1 MSTORE PUSH2 0x4C0 DUP3 SWAP1 MSTORE PUSH2 0x4E0 DUP3 SWAP1 MSTORE PUSH2 0x500 DUP5 SWAP1 MSTORE PUSH2 0x520 DUP5 SWAP1 MSTORE PUSH2 0x540 DUP3 SWAP1 MSTORE PUSH2 0x560 DUP3 SWAP1 MSTORE PUSH1 0xC0 MSTORE PUSH2 0x580 DUP2 DUP2 MSTORE PUSH2 0x5A0 DUP3 SWAP1 MSTORE PUSH2 0x5C0 DUP3 SWAP1 MSTORE PUSH2 0x5E0 DUP5 SWAP1 MSTORE PUSH2 0x600 DUP3 SWAP1 MSTORE PUSH2 0x620 DUP3 SWAP1 MSTORE PUSH2 0x640 DUP3 SWAP1 MSTORE PUSH2 0x660 DUP5 SWAP1 MSTORE PUSH2 0x680 DUP3 SWAP1 MSTORE PUSH2 0x6A0 DUP3 SWAP1 MSTORE PUSH1 0xE0 MSTORE PUSH2 0x6C0 DUP4 DUP2 MSTORE PUSH2 0x6E0 DUP5 SWAP1 MSTORE PUSH2 0x700 DUP5 SWAP1 MSTORE PUSH2 0x720 DUP5 SWAP1 MSTORE PUSH2 0x740 DUP5 SWAP1 MSTORE PUSH2 0x760 DUP5 SWAP1 MSTORE PUSH2 0x780 DUP5 SWAP1 MSTORE PUSH2 0x7A0 DUP5 SWAP1 MSTORE PUSH2 0x7C0 DUP3 SWAP1 MSTORE PUSH2 0x7E0 DUP3 SWAP1 MSTORE PUSH2 0x100 MSTORE PUSH2 0x800 DUP2 DUP2 MSTORE PUSH2 0x820 DUP5 SWAP1 MSTORE PUSH2 0x840 DUP3 SWAP1 MSTORE PUSH2 0x860 DUP5 SWAP1 MSTORE PUSH2 0x880 DUP3 SWAP1 MSTORE PUSH2 0x8A0 DUP5 SWAP1 MSTORE PUSH2 0x8C0 DUP3 SWAP1 MSTORE PUSH2 0x8E0 DUP5 SWAP1 MSTORE PUSH2 0x900 DUP3 SWAP1 MSTORE PUSH2 0x920 DUP3 SWAP1 MSTORE PUSH2 0x120 MSTORE PUSH2 0x940 DUP2 DUP2 MSTORE PUSH2 0x960 DUP3 SWAP1 MSTORE PUSH2 0x980 DUP3 SWAP1 MSTORE PUSH2 0x9A0 DUP3 SWAP1 MSTORE PUSH2 0x9C0 DUP3 SWAP1 MSTORE PUSH2 0x9E0 DUP3 SWAP1 MSTORE PUSH2 0xA00 DUP5 SWAP1 MSTORE PUSH2 0xA20 DUP5 SWAP1 MSTORE PUSH2 0xA40 DUP3 SWAP1 MSTORE PUSH2 0xA60 DUP3 SWAP1 MSTORE PUSH2 0x140 MSTORE PUSH2 0xA80 DUP2 DUP2 MSTORE PUSH2 0xAA0 DUP3 SWAP1 MSTORE PUSH2 0xAC0 DUP3 SWAP1 MSTORE PUSH2 0xAE0 DUP3 SWAP1 MSTORE PUSH2 0xB00 DUP3 SWAP1 MSTORE PUSH2 0xB20 DUP3 SWAP1 MSTORE PUSH2 0xB40 DUP3 SWAP1 MSTORE PUSH2 0xB60 DUP5 SWAP1 MSTORE PUSH2 0xB80 DUP3 SWAP1 MSTORE PUSH2 0xBA0 DUP3 SWAP1 MSTORE PUSH2 0x160 MSTORE PUSH2 0xBC0 DUP2 DUP2 MSTORE PUSH2 0xBE0 DUP3 SWAP1 MSTORE PUSH2 0xC00 DUP3 SWAP1 MSTORE PUSH2 0xC20 DUP3 SWAP1 MSTORE PUSH2 0xC40 DUP3 SWAP1 MSTORE PUSH2 0xC60 DUP3 SWAP1 MSTORE PUSH2 0xC80 DUP3 SWAP1 MSTORE PUSH2 0xCA0 DUP3 SWAP1 MSTORE PUSH2 0xCC0 DUP5 SWAP1 MSTORE PUSH2 0xCE0 DUP3 SWAP1 MSTORE PUSH2 0x180 MSTORE PUSH2 0xE40 PUSH1 0x40 MSTORE PUSH2 0xD00 DUP2 DUP2 MSTORE PUSH2 0xD20 DUP3 SWAP1 MSTORE PUSH2 0xD40 DUP3 SWAP1 MSTORE PUSH2 0xD60 DUP3 SWAP1 MSTORE PUSH2 0xD80 DUP3 SWAP1 MSTORE PUSH2 0xDA0 DUP3 SWAP1 MSTORE PUSH2 0xDC0 DUP3 SWAP1 MSTORE PUSH2 0xDE0 DUP3 SWAP1 MSTORE PUSH2 0xE00 SWAP2 SWAP1 SWAP2 MSTORE PUSH2 0xE20 SWAP3 SWAP1 SWAP3 MSTORE PUSH2 0x1A0 SWAP2 SWAP1 SWAP2 MSTORE PUSH2 0x299 SWAP1 PUSH1 0x6 SWAP1 PUSH1 0xA PUSH2 0x90C JUMP JUMPDEST POP PUSH1 0x40 MLOAD PUSH2 0x6945 CODESIZE SUB DUP1 PUSH2 0x6945 DUP4 CODECOPY DUP2 ADD PUSH1 0x40 DUP2 SWAP1 MSTORE PUSH2 0x2B8 SWAP2 PUSH2 0xB8E JUMP JUMPDEST DUP1 PUSH1 0x40 MLOAD PUSH1 0x20 ADD PUSH2 0x2C9 SWAP2 SWAP1 PUSH2 0xC3E JUMP JUMPDEST PUSH1 0x40 DUP1 MLOAD PUSH1 0x1F NOT DUP2 DUP5 SUB ADD DUP2 MSTORE DUP3 DUP3 MSTORE DUP1 MLOAD PUSH1 0x20 SWAP2 DUP3 ADD KECCAK256 PUSH0 SWAP1 DUP2 SSTORE PUSH1 0x80 DUP5 ADD DUP4 MSTORE PUSH1 0xF DUP5 DUP5 ADD SWAP1 DUP2 MSTORE PUSH15 0x189B1BDBD9081CDD195B4818D95B1B PUSH1 0x8A SHL PUSH1 0x60 DUP7 ADD MSTORE DUP5 MSTORE DUP3 MLOAD DUP1 DUP5 ADD SWAP1 SWAP4 MSTORE PUSH1 0xB DUP4 MSTORE PUSH11 0x626F6E65206D6172726F77 PUSH1 0xA8 SHL DUP4 DUP4 ADD MSTORE DUP4 DUP3 ADD SWAP3 SWAP1 SWAP3 MSTORE PUSH1 0x9 SWAP1 SWAP2 MSTORE PUSH1 0x1 SWAP1 MSTORE PUSH2 0x369 SWAP1 PUSH32 0x74A5FBCB419AB7DBACBB2C92A4E163730F0DA5C72B911DEECF4F05A6B327D0A4 SWAP1 PUSH1 0x2 PUSH2 0x956 JUMP JUMPDEST POP PUSH1 0x40 DUP1 MLOAD PUSH2 0x140 DUP2 ADD DUP3 MSTORE PUSH1 0x3 PUSH2 0x100 DUP3 ADD DUP2 DUP2 MSTORE PUSH3 0x61726D PUSH1 0xE8 SHL PUSH2 0x120 DUP5 ADD MSTORE DUP3 MSTORE DUP3 MLOAD DUP1 DUP5 ADD DUP5 MSTORE DUP2 DUP2 MSTORE PUSH3 0x657965 PUSH1 0xE8 SHL PUSH1 0x20 DUP3 DUP2 ADD SWAP2 SWAP1 SWAP2 MSTORE DUP1 DUP5 ADD SWAP2 SWAP1 SWAP2 MSTORE DUP4 MLOAD DUP1 DUP6 ADD DUP6 MSTORE PUSH1 0x4 DUP1 DUP3 MSTORE PUSH4 0x66616365 PUSH1 0xE0 SHL DUP3 DUP5 ADD MSTORE DUP5 DUP7 ADD SWAP2 SWAP1 SWAP2 MSTORE DUP5 MLOAD DUP1 DUP7 ADD DUP7 MSTORE SWAP1 DUP2 MSTORE PUSH4 0x1A185B99 PUSH1 0xE2 SHL DUP2 DUP4 ADD MSTORE PUSH1 0x60 DUP5 ADD MSTORE DUP4 MLOAD DUP1 DUP6 ADD DUP6 MSTORE SWAP2 DUP3 MSTORE PUSH3 0x6C6567 PUSH1 0xE8 SHL DUP3 DUP3 ADD MSTORE PUSH1 0x80 DUP4 ADD SWAP2 SWAP1 SWAP2 MSTORE DUP3 MLOAD DUP1 DUP5 ADD DUP5 MSTORE PUSH1 0x5 DUP1 DUP3 MSTORE PUSH5 0x70656E6973 PUSH1 0xD8 SHL DUP3 DUP5 ADD MSTORE PUSH1 0xA0 DUP5 ADD SWAP2 SWAP1 SWAP2 MSTORE DUP4 MLOAD DUP1 DUP6 ADD DUP6 MSTORE SWAP1 DUP2 MSTORE PUSH5 0x7363616C7 PUSH1 0xDC SHL DUP2 DUP4 ADD MSTORE PUSH1 0xC0 DUP4 ADD MSTORE DUP3 MLOAD DUP1 DUP5 ADD SWAP1 SWAP4 MSTORE PUSH1 0x6 DUP4 MSTORE PUSH6 0x7468796D7573 PUSH1 0xD0 SHL DUP4 DUP3 ADD MSTORE PUSH1 0xE0 DUP3 ADD SWAP3 SWAP1 SWAP3 MSTORE PUSH1 0x7 PUSH0 MSTORE PUSH1 0x1 SWAP1 SWAP2 MSTORE PUSH2 0x49B SWAP1 PUSH32 0xDC686EC4A0FF239C70E7C7C36E8F853ECED3BC8618F48D2B816DA2A74311237E SWAP1 PUSH1 0x8 PUSH2 0x9A6 JUMP JUMPDEST POP PUSH1 0x40 DUP1 MLOAD PUSH2 0x260 DUP2 ADD DUP3 MSTORE PUSH1 0xE PUSH2 0x220 DUP3 ADD SWAP1 DUP2 MSTORE PUSH14 0x1858991BDB5A5B985B081DD85B1B PUSH1 0x92 SHL PUSH2 0x240 DUP4 ADD MSTORE DUP2 MSTORE DUP2 MLOAD DUP1 DUP4 ADD DUP4 MSTORE PUSH1 0xD DUP2 MSTORE PUSH13 0x18591C995B985B0819DB185B99 PUSH1 0x9A SHL PUSH1 0x20 DUP3 DUP2 ADD SWAP2 SWAP1 SWAP2 MSTORE DUP1 DUP4 ADD SWAP2 SWAP1 SWAP2 MSTORE DUP3 MLOAD DUP1 DUP5 ADD DUP5 MSTORE PUSH1 0x4 DUP1 DUP3 MSTORE PUSH4 0x626F6E65 PUSH1 0xE0 SHL DUP3 DUP5 ADD MSTORE DUP4 DUP6 ADD SWAP2 SWAP1 SWAP2 MSTORE DUP4 MLOAD DUP1 DUP6 ADD DUP6 MSTORE PUSH1 0x9 DUP2 MSTORE PUSH9 0x65736F706861677573 PUSH1 0xB8 SHL DUP2 DUP5 ADD MSTORE PUSH1 0x60 DUP5 ADD MSTORE DUP4 MLOAD DUP1 DUP6 ADD DUP6 MSTORE PUSH1 0x6 DUP1 DUP3 MSTORE PUSH6 0xD8C2E4F2DCF PUSH1 0xD3 SHL DUP3 DUP6 ADD MSTORE PUSH1 0x80 DUP6 ADD SWAP2 SWAP1 SWAP2 MSTORE DUP5 MLOAD DUP1 DUP7 ADD DUP7 MSTORE PUSH1 0xA DUP2 MSTORE PUSH10 0x6C796D7068206E6F6465 PUSH1 0xB0 SHL DUP2 DUP6 ADD MSTORE PUSH1 0xA0 DUP6 ADD MSTORE DUP5 MLOAD DUP1 DUP7 ADD DUP7 MSTORE PUSH1 0x8 DUP1 DUP3 MSTORE PUSH8 0x1B985A5B08189959 PUSH1 0xC2 SHL DUP3 DUP7 ADD MSTORE PUSH1 0xC0 DUP7 ADD SWAP2 SWAP1 SWAP2 MSTORE DUP6 MLOAD DUP1 DUP8 ADD DUP8 MSTORE PUSH1 0x5 DUP1 DUP3 MSTORE PUSH5 0x6E65727665 PUSH1 0xD8 SHL DUP3 DUP8 ADD MSTORE PUSH1 0xE0 DUP8 ADD SWAP2 SWAP1 SWAP2 MSTORE DUP7 MLOAD DUP1 DUP9 ADD DUP9 MSTORE DUP2 DUP2 MSTORE PUSH5 0x6F76617279 PUSH1 0xD8 SHL DUP2 DUP8 ADD MSTORE PUSH2 0x100 DUP8 ADD MSTORE DUP7 MLOAD DUP1 DUP9 ADD DUP9 MSTORE DUP3 DUP2 MSTORE PUSH8 0x70616E6372656173 PUSH1 0xC0 SHL DUP2 DUP8 ADD MSTORE PUSH2 0x120 DUP8 ADD MSTORE DUP7 MLOAD DUP1 DUP9 ADD DUP9 MSTORE SWAP4 DUP5 MSTORE PUSH4 0x39B5B4B7 PUSH1 0xE1 SHL DUP5 DUP7 ADD MSTORE PUSH2 0x140 DUP7 ADD SWAP4 SWAP1 SWAP4 MSTORE DUP6 MLOAD DUP1 DUP8 ADD DUP8 MSTORE PUSH1 0xF DUP2 MSTORE PUSH15 0x736D616C6C20696E74657374696E65 PUSH1 0x88 SHL DUP2 DUP7 ADD MSTORE PUSH2 0x160 DUP7 ADD MSTORE DUP6 MLOAD DUP1 DUP8 ADD DUP8 MSTORE DUP3 DUP2 MSTORE PUSH6 0x39B83632B2B7 PUSH1 0xD1 SHL DUP2 DUP7 ADD MSTORE PUSH2 0x180 DUP7 ADD MSTORE DUP6 MLOAD DUP1 DUP8 ADD DUP8 MSTORE PUSH1 0x7 DUP1 DUP3 MSTORE PUSH7 0xE6E8DEDAC2C6D PUSH1 0xCB SHL DUP3 DUP8 ADD MSTORE PUSH2 0x1A0 DUP8 ADD SWAP2 SWAP1 SWAP2 MSTORE DUP7 MLOAD DUP1 DUP9 ADD DUP9 MSTORE SWAP2 DUP3 MSTORE PUSH8 0x7465737469636C65 PUSH1 0xC0 SHL DUP3 DUP7 ADD MSTORE PUSH2 0x1C0 DUP7 ADD SWAP2 SWAP1 SWAP2 MSTORE DUP6 MLOAD DUP1 DUP8 ADD DUP8 MSTORE SWAP1 DUP2 MSTORE PUSH7 0x74726163686561 PUSH1 0xC8 SHL DUP2 DUP6 ADD MSTORE PUSH2 0x1E0 DUP6 ADD MSTORE DUP5 MLOAD DUP1 DUP7 ADD SWAP1 SWAP6 MSTORE DUP5 MSTORE PUSH6 0x757465727573 PUSH1 0xD0 SHL DUP5 DUP4 ADD MSTORE PUSH2 0x200 DUP4 ADD SWAP4 SWAP1 SWAP4 MSTORE PUSH0 SWAP3 SWAP1 SWAP3 MSTORE PUSH1 0x1 SWAP1 SWAP2 MSTORE PUSH2 0x720 SWAP1 PUSH32 0xE2689CD4A84E23AD2F564004F1C9013E9589D260BDE6380ABA3CA7E09E4DF40C SWAP1 PUSH1 0x11 PUSH2 0x9EA JUMP JUMPDEST POP PUSH1 0x40 DUP1 MLOAD PUSH2 0x140 DUP2 ADD DUP3 MSTORE PUSH1 0xC PUSH2 0x100 DUP3 ADD SWAP1 DUP2 MSTORE PUSH12 0x189B1BDBD9081D995CDCD95B PUSH1 0xA2 SHL PUSH2 0x120 DUP4 ADD MSTORE DUP2 MSTORE DUP2 MLOAD DUP1 DUP4 ADD DUP4 MSTORE PUSH1 0x9 DUP2 MSTORE PUSH9 0x63617274696C616765 PUSH1 0xB8 SHL PUSH1 0x20 DUP3 DUP2 ADD SWAP2 SWAP1 SWAP2 MSTORE DUP1 DUP4 ADD SWAP2 SWAP1 SWAP2 MSTORE DUP3 MLOAD DUP1 DUP5 ADD DUP5 MSTORE PUSH1 0x3 DUP2 MSTORE PUSH3 0x19985D PUSH1 0xEA SHL DUP2 DUP4 ADD MSTORE DUP3 DUP5 ADD MSTORE DUP3 MLOAD DUP1 DUP5 ADD DUP5 MSTORE PUSH1 0x5 DUP2 MSTORE PUSH5 0x1A19585C9D PUSH1 0xDA SHL DUP2 DUP4 ADD MSTORE PUSH1 0x60 DUP4 ADD MSTORE DUP3 MLOAD DUP1 DUP5 ADD DUP5 MSTORE PUSH1 0x8 DUP1 DUP3 MSTORE PUSH8 0x1B1A59D85B595B9D PUSH1 0xC2 SHL DUP3 DUP5 ADD MSTORE PUSH1 0x80 DUP5 ADD SWAP2 SWAP1 SWAP2 MSTORE DUP4 MLOAD DUP1 DUP6 ADD DUP6 MSTORE PUSH1 0x4 DUP2 MSTORE PUSH4 0x6C756E67 PUSH1 0xE0 SHL DUP2 DUP5 ADD MSTORE PUSH1 0xA0 DUP5 ADD MSTORE DUP4 MLOAD DUP1 DUP6 ADD DUP6 MSTORE DUP2 DUP2 MSTORE PUSH8 0x6D656E6973637573 PUSH1 0xC0 SHL DUP2 DUP5 ADD MSTORE PUSH1 0xC0 DUP5 ADD MSTORE DUP4 MLOAD DUP1 DUP6 ADD SWAP1 SWAP5 MSTORE PUSH1 0x6 DUP5 MSTORE PUSH6 0x3A32B73237B7 PUSH1 0xD1 SHL DUP5 DUP4 ADD MSTORE PUSH1 0xE0 DUP4 ADD SWAP4 SWAP1 SWAP4 MSTORE PUSH1 0x2 PUSH0 MSTORE PUSH1 0x1 SWAP1 MSTORE PUSH2 0x862 SWAP2 PUSH32 0xD9D16D34FFB15BA3A3D852F0D403E2CE1D691FB54DE27AC87CD2F993F3EC330F SWAP2 SWAP1 PUSH2 0x9A6 JUMP JUMPDEST POP PUSH1 0x40 DUP1 MLOAD PUSH1 0xA0 DUP2 ADD DUP3 MSTORE PUSH1 0x6 PUSH1 0x60 DUP3 ADD SWAP1 DUP2 MSTORE PUSH6 0x636F726E6561 PUSH1 0xD0 SHL PUSH1 0x80 DUP4 ADD MSTORE DUP2 MSTORE DUP2 MLOAD DUP1 DUP4 ADD DUP4 MSTORE PUSH1 0xB DUP2 MSTORE PUSH11 0x68656172742076616C7665 PUSH1 0xA8 SHL PUSH1 0x20 DUP3 DUP2 ADD SWAP2 SWAP1 SWAP2 MSTORE DUP1 DUP4 ADD SWAP2 SWAP1 SWAP2 MSTORE DUP3 MLOAD DUP1 DUP5 ADD DUP5 MSTORE PUSH1 0x5 DUP2 MSTORE PUSH5 0x3634BB32B9 PUSH1 0xD9 SHL DUP2 DUP4 ADD MSTORE SWAP3 DUP3 ADD SWAP3 SWAP1 SWAP3 MSTORE PUSH0 DUP1 MSTORE PUSH1 0x1 SWAP1 SWAP2 MSTORE PUSH2 0x905 SWAP1 PUSH32 0xA6EEF7E35ABE7026729641147F7915573C7E97B47EFA546F5F6E3230263BCB49 SWAP1 PUSH1 0x3 PUSH2 0xA2E JUMP JUMPDEST POP POP PUSH2 0xDB1 JUMP JUMPDEST DUP3 PUSH1 0xA DUP2 ADD SWAP3 DUP3 ISZERO PUSH2 0x946 JUMPI SWAP2 PUSH1 0x20 MUL DUP3 ADD JUMPDEST DUP3 DUP2 GT ISZERO PUSH2 0x946 JUMPI DUP3 MLOAD PUSH2 0x936 SWAP1 DUP4 SWAP1 PUSH1 0xA PUSH2 0xA72 JUMP JUMPDEST POP SWAP2 PUSH1 0x20 ADD SWAP2 SWAP1 PUSH1 0x1 ADD SWAP1 PUSH2 0x91F JUMP JUMPDEST POP PUSH2 0x952 SWAP3 SWAP2 POP PUSH2 0xAFE JUMP JUMPDEST POP SWAP1 JUMP JUMPDEST DUP3 DUP1 SLOAD DUP3 DUP3 SSTORE SWAP1 PUSH0 MSTORE PUSH1 0x20 PUSH0 KECCAK256 SWAP1 DUP2 ADD SWAP3 DUP3 ISZERO PUSH2 0x99A JUMPI SWAP2 PUSH1 0x20 MUL DUP3 ADD JUMPDEST DUP3 DUP2 GT ISZERO PUSH2 0x99A JUMPI DUP3 MLOAD DUP3 SWAP1 PUSH2 0x98A SWAP1 DUP3 PUSH2 0xCF7 JUMP JUMPDEST POP SWAP2 PUSH1 0x20 ADD SWAP2 SWAP1 PUSH1 0x1 ADD SWAP1 PUSH2 0x974 JUMP JUMPDEST POP PUSH2 0x952 SWAP3 SWAP2 POP PUSH2 0xB11 JUMP JUMPDEST DUP3 DUP1 SLOAD DUP3 DUP3 SSTORE SWAP1 PUSH0 MSTORE PUSH1 0x20 PUSH0 KECCAK256 SWAP1 DUP2 ADD SWAP3 DUP3 ISZERO PUSH2 0x99A JUMPI SWAP2 PUSH1 0x20 MUL DUP3 ADD JUMPDEST DUP3 DUP2 GT ISZERO PUSH2 0x99A JUMPI DUP3 MLOAD DUP3 SWAP1 PUSH2 0x9DA SWAP1 DUP3 PUSH2 0xCF7 JUMP JUMPDEST POP SWAP2 PUSH1 0x20 ADD SWAP2 SWAP1 PUSH1 0x1 ADD SWAP1 PUSH2 0x9C4 JUMP JUMPDEST DUP3 DUP1 SLOAD DUP3 DUP3 SSTORE SWAP1 PUSH0 MSTORE PUSH1 0x20 PUSH0 KECCAK256 SWAP1 DUP2 ADD SWAP3 DUP3 ISZERO PUSH2 0x99A JUMPI SWAP2 PUSH1 0x20 MUL DUP3 ADD JUMPDEST DUP3 DUP2 GT ISZERO PUSH2 0x99A JUMPI DUP3 MLOAD DUP3 SWAP1 PUSH2 0xA1E SWAP1 DUP3 PUSH2 0xCF7 JUMP JUMPDEST POP SWAP2 PUSH1 0x20 ADD SWAP2 SWAP1 PUSH1 0x1 ADD SWAP1 PUSH2 0xA08 JUMP JUMPDEST DUP3 DUP1 SLOAD DUP3 DUP3 SSTORE SWAP1 PUSH0 MSTORE PUSH1 0x20 PUSH0 KECCAK256 SWAP1 DUP2 ADD SWAP3 DUP3 ISZERO PUSH2 0x99A JUMPI SWAP2 PUSH1 0x20 MUL DUP3 ADD JUMPDEST DUP3 DUP2 GT ISZERO PUSH2 0x99A JUMPI DUP3 MLOAD DUP3 SWAP1 PUSH2 0xA62 SWAP1 DUP3 PUSH2 0xCF7 JUMP JUMPDEST POP SWAP2 PUSH1 0x20 ADD SWAP2 SWAP1 PUSH1 0x1 ADD SWAP1 PUSH2 0xA4C JUMP JUMPDEST PUSH1 0x1 DUP4 ADD SWAP2 DUP4 SWAP1 DUP3 ISZERO PUSH2 0xAF2 JUMPI SWAP2 PUSH1 0x20 MUL DUP3 ADD PUSH0 JUMPDEST DUP4 DUP3 GT ISZERO PUSH2 0xAC4 JUMPI DUP4 MLOAD DUP4 DUP3 PUSH2 0x100 EXP DUP2 SLOAD DUP2 PUSH1 0xFF MUL NOT AND SWAP1 DUP4 PUSH1 0xFF AND MUL OR SWAP1 SSTORE POP SWAP3 PUSH1 0x20 ADD SWAP3 PUSH1 0x1 ADD PUSH1 0x20 DUP2 PUSH0 ADD DIV SWAP3 DUP4 ADD SWAP3 PUSH1 0x1 SUB MUL PUSH2 0xA87 JUMP JUMPDEST DUP1 ISZERO PUSH2 0xAF0 JUMPI DUP3 DUP2 PUSH2 0x100 EXP DUP2 SLOAD SWAP1 PUSH1 0xFF MUL NOT AND SWAP1 SSTORE PUSH1 0x1 ADD PUSH1 0x20 DUP2 PUSH0 ADD DIV SWAP3 DUP4 ADD SWAP3 PUSH1 0x1 SUB MUL PUSH2 0xAC4 JUMP JUMPDEST POP JUMPDEST POP PUSH2 0x952 SWAP3 SWAP2 POP PUSH2 0xB2D JUMP JUMPDEST DUP1 DUP3 GT ISZERO PUSH2 0x952 JUMPI PUSH0 DUP2 SSTORE PUSH1 0x1 ADD PUSH2 0xAFE JUMP JUMPDEST DUP1 DUP3 GT ISZERO PUSH2 0x952 JUMPI PUSH0 PUSH2 0xB24 DUP3 DUP3 PUSH2 0xB40 JUMP JUMPDEST POP PUSH1 0x1 ADD PUSH2 0xB11 JUMP JUMPDEST DUP1 DUP3 GT ISZERO PUSH2 0x952 JUMPI PUSH0 DUP2 SSTORE PUSH1 0x1 ADD PUSH2 0xAFE JUMP JUMPDEST POP DUP1 SLOAD PUSH2 0xB4C SWAP1 PUSH2 0xC73 JUMP JUMPDEST PUSH0 DUP3 SSTORE DUP1 PUSH1 0x1F LT PUSH2 0xB5B JUMPI POP POP JUMP JUMPDEST PUSH1 0x1F ADD PUSH1 0x20 SWAP1 DIV SWAP1 PUSH0 MSTORE PUSH1 0x20 PUSH0 KECCAK256 SWAP1 DUP2 ADD SWAP1 PUSH2 0xB77 SWAP2 SWAP1 PUSH2 0xB2D JUMP JUMPDEST POP JUMP JUMPDEST PUSH4 0x4E487B71 PUSH1 0xE0 SHL PUSH0 MSTORE PUSH1 0x41 PUSH1 0x4 MSTORE PUSH1 0x24 PUSH0 REVERT JUMPDEST PUSH0 PUSH1 0x20 DUP3 DUP5 SUB SLT ISZERO PUSH2 0xB9E JUMPI PUSH0 PUSH0 REVERT JUMPDEST DUP2 MLOAD PUSH1 0x1 PUSH1 0x1 PUSH1 0x40 SHL SUB DUP2 GT ISZERO PUSH2 0xBB3 JUMPI PUSH0 PUSH0 REVERT JUMPDEST DUP3 ADD PUSH1 0x1F DUP2 ADD DUP5 SGT PUSH2 0xBC3 JUMPI PUSH0 PUSH0 REVERT JUMPDEST DUP1 MLOAD PUSH1 0x1 PUSH1 0x1 PUSH1 0x40 SHL SUB DUP2 GT ISZERO PUSH2 0xBDC JUMPI PUSH2 0xBDC PUSH2 0xB7A JUMP JUMPDEST PUSH1 0x40 MLOAD PUSH1 0x1F DUP3 ADD PUSH1 0x1F NOT SWAP1 DUP2 AND PUSH1 0x3F ADD AND DUP2 ADD PUSH1 0x1 PUSH1 0x1 PUSH1 0x40 SHL SUB DUP2 GT DUP3 DUP3 LT OR ISZERO PUSH2 0xC0A JUMPI PUSH2 0xC0A PUSH2 0xB7A JUMP JUMPDEST PUSH1 0x40 MSTORE DUP2 DUP2 MSTORE DUP3 DUP3 ADD PUSH1 0x20 ADD DUP7 LT ISZERO PUSH2 0xC21 JUMPI PUSH0 PUSH0 REVERT JUMPDEST DUP2 PUSH1 0x20 DUP5 ADD PUSH1 0x20 DUP4 ADD MCOPY PUSH0 SWAP2 DUP2 ADD PUSH1 0x20 ADD SWAP2 SWAP1 SWAP2 MSTORE SWAP5 SWAP4 POP POP POP POP JUMP JUMPDEST PUSH1 0x20 DUP2 MSTORE PUSH0 DUP3 MLOAD DUP1 PUSH1 0x20 DUP5 ADD MSTORE DUP1 PUSH1 0x20 DUP6 ADD PUSH1 0x40 DUP6 ADD MCOPY PUSH0 PUSH1 0x40 DUP3 DUP6 ADD ADD MSTORE PUSH1 0x40 PUSH1 0x1F NOT PUSH1 0x1F DUP4 ADD AND DUP5 ADD ADD SWAP2 POP POP SWAP3 SWAP2 POP POP JUMP JUMPDEST PUSH1 0x1 DUP2 DUP2 SHR SWAP1 DUP3 AND DUP1 PUSH2 0xC87 JUMPI PUSH1 0x7F DUP3 AND SWAP2 POP JUMPDEST PUSH1 0x20 DUP3 LT DUP2 SUB PUSH2 0xCA5 JUMPI PUSH4 0x4E487B71 PUSH1 0xE0 SHL PUSH0 MSTORE PUSH1 0x22 PUSH1 0x4 MSTORE PUSH1 0x24 PUSH0 REVERT JUMPDEST POP SWAP2 SWAP1 POP JUMP JUMPDEST PUSH1 0x1F DUP3 GT ISZERO PUSH2 0xCF2 JUMPI DUP1 PUSH0 MSTORE PUSH1 0x20 PUSH0 KECCAK256 PUSH1 0x1F DUP5 ADD PUSH1 0x5 SHR DUP2 ADD PUSH1 0x20 DUP6 LT ISZERO PUSH2 0xCD0 JUMPI POP DUP1 JUMPDEST PUSH1 0x1F DUP5 ADD PUSH1 0x5 SHR DUP3 ADD SWAP2 POP JUMPDEST DUP2 DUP2 LT ISZERO PUSH2 0xCEF JUMPI PUSH0 DUP2 SSTORE PUSH1 0x1 ADD PUSH2 0xCDC JUMP JUMPDEST POP POP JUMPDEST POP POP POP JUMP JUMPDEST DUP2 MLOAD PUSH1 0x1 PUSH1 0x1 PUSH1 0x40 SHL SUB DUP2 GT ISZERO PUSH2 0xD10 JUMPI PUSH2 0xD10 PUSH2 0xB7A JUMP JUMPDEST PUSH2 0xD24 DUP2 PUSH2 0xD1E DUP5 SLOAD PUSH2 0xC73 JUMP JUMPDEST DUP5 PUSH2 0xCAB JUMP JUMPDEST PUSH1 0x20 PUSH1 0x1F DUP3 GT PUSH1 0x1 DUP2 EQ PUSH2 0xD56 JUMPI PUSH0 DUP4 ISZERO PUSH2 0xD3F JUMPI POP DUP5 DUP3 ADD MLOAD JUMPDEST PUSH0 NOT PUSH1 0x3 DUP6 SWAP1 SHL SHR NOT AND PUSH1 0x1 DUP5 SWAP1 SHL OR DUP5 SSTORE PUSH2 0xCEF JUMP JUMPDEST PUSH0 DUP5 DUP2 MSTORE PUSH1 0x20 DUP2 KECCAK256 PUSH1 0x1F NOT DUP6 AND SWAP2 JUMPDEST DUP3 DUP2 LT ISZERO PUSH2 0xD85 JUMPI DUP8 DUP6 ADD MLOAD DUP3 SSTORE PUSH1 0x20 SWAP5 DUP6 ADD SWAP5 PUSH1 0x1 SWAP1 SWAP3 ADD SWAP2 ADD PUSH2 0xD65 JUMP JUMPDEST POP DUP5 DUP3 LT ISZERO PUSH2 0xDA2 JUMPI DUP7 DUP5 ADD MLOAD PUSH0 NOT PUSH1 0x3 DUP8 SWAP1 SHL PUSH1 0xF8 AND SHR NOT AND DUP2 SSTORE JUMPDEST POP POP POP POP PUSH1 0x1 SWAP1 DUP2 SHL ADD SWAP1 SSTORE POP JUMP JUMPDEST PUSH2 0x5B87 DUP1 PUSH2 0xDBE PUSH0 CODECOPY PUSH0 RETURN INVALID PUSH1 0x80 PUSH1 0x40 MSTORE CALLVALUE DUP1 ISZERO PUSH2 0xF JUMPI PUSH0 PUSH0 REVERT JUMPDEST POP PUSH1 0x4 CALLDATASIZE LT PUSH2 0x3F JUMPI PUSH0 CALLDATALOAD PUSH1 0xE0 SHR DUP1 PUSH4 0xF65C931 EQ PUSH2 0x43 JUMPI DUP1 PUSH4 0xB59E0F9E EQ PUSH2 0x6C JUMPI DUP1 PUSH4 0xF86813FF EQ PUSH2 0x81 JUMPI JUMPDEST PUSH0 PUSH0 REVERT JUMPDEST PUSH2 0x56 PUSH2 0x51 CALLDATASIZE PUSH1 0x4 PUSH2 0x4F76 JUMP JUMPDEST PUSH2 0x94 JUMP JUMPDEST PUSH1 0x40 MLOAD PUSH2 0x63 SWAP2 SWAP1 PUSH2 0x5119 JUMP JUMPDEST PUSH1 0x40 MLOAD DUP1 SWAP2 SUB SWAP1 RETURN JUMPDEST PUSH2 0x7F PUSH2 0x7A CALLDATASIZE PUSH1 0x4 PUSH2 0x541E JUMP JUMPDEST PUSH2 0x8F1 JUMP JUMPDEST STOP JUMPDEST PUSH2 0x7F PUSH2 0x8F CALLDATASIZE PUSH1 0x4 PUSH2 0x541E JUMP JUMPDEST PUSH2 0x19D1 JUMP JUMPDEST PUSH1 0x60 DUP3 PUSH1 0x40 MLOAD PUSH1 0x20 ADD PUSH2 0xA7 SWAP2 SWAP1 PUSH2 0x553C JUMP JUMPDEST PUSH1 0x40 MLOAD PUSH1 0x20 DUP2 DUP4 SUB SUB DUP2 MSTORE SWAP1 PUSH1 0x40 MSTORE DUP1 MLOAD SWAP1 PUSH1 0x20 ADD KECCAK256 PUSH2 0xC8 DUP2 PUSH0 SLOAD PUSH2 0x24EA JUMP JUMPDEST DUP3 PUSH1 0xFF AND PUSH1 0x3 SUB PUSH2 0xDD JUMPI PUSH2 0xDB PUSH2 0x255B JUMP JUMPDEST POP JUMPDEST PUSH1 0x2 DUP4 PUSH1 0xFF AND LT PUSH2 0xEF JUMPI PUSH1 0x4 PUSH2 0xF2 JUMP JUMPDEST PUSH1 0x3 JUMPDEST DUP1 SLOAD DUP1 PUSH1 0x20 MUL PUSH1 0x20 ADD PUSH1 0x40 MLOAD SWAP1 DUP2 ADD PUSH1 0x40 MSTORE DUP1 SWAP3 SWAP2 SWAP1 DUP2 DUP2 MSTORE PUSH1 0x20 ADD PUSH0 SWAP1 JUMPDEST DUP3 DUP3 LT ISZERO PUSH2 0x8E3 JUMPI PUSH0 DUP5 DUP2 MSTORE PUSH1 0x20 SWAP1 KECCAK256 PUSH1 0x40 DUP1 MLOAD PUSH2 0x100 DUP2 ADD SWAP1 SWAP2 MSTORE PUSH1 0xF DUP5 MUL SWAP1 SWAP2 ADD DUP1 SLOAD DUP3 SWAP1 PUSH1 0x80 DUP3 ADD SWAP1 DUP4 SWAP1 DUP3 SWAP1 DUP3 SWAP1 PUSH2 0x14C SWAP1 PUSH2 0x554E JUMP JUMPDEST DUP1 PUSH1 0x1F ADD PUSH1 0x20 DUP1 SWAP2 DIV MUL PUSH1 0x20 ADD PUSH1 0x40 MLOAD SWAP1 DUP2 ADD PUSH1 0x40 MSTORE DUP1 SWAP3 SWAP2 SWAP1 DUP2 DUP2 MSTORE PUSH1 0x20 ADD DUP3 DUP1 SLOAD PUSH2 0x178 SWAP1 PUSH2 0x554E JUMP JUMPDEST DUP1 ISZERO PUSH2 0x1C3 JUMPI DUP1 PUSH1 0x1F LT PUSH2 0x19A JUMPI PUSH2 0x100 DUP1 DUP4 SLOAD DIV MUL DUP4 MSTORE SWAP2 PUSH1 0x20 ADD SWAP2 PUSH2 0x1C3 JUMP JUMPDEST DUP3 ADD SWAP2 SWAP1 PUSH0 MSTORE PUSH1 0x20 PUSH0 KECCAK256 SWAP1 JUMPDEST DUP2 SLOAD DUP2 MSTORE SWAP1 PUSH1 0x1 ADD SWAP1 PUSH1 0x20 ADD DUP1 DUP4 GT PUSH2 0x1A6 JUMPI DUP3 SWAP1 SUB PUSH1 0x1F AND DUP3 ADD SWAP2 JUMPDEST POP POP POP SWAP2 DUP4 MSTORE POP POP PUSH1 0x1 DUP3 ADD SLOAD PUSH1 0xFF DUP1 DUP3 AND PUSH1 0x20 DUP5 ADD MSTORE PUSH2 0x100 SWAP1 SWAP2 DIV AND PUSH1 0x40 DUP3 ADD MSTORE PUSH1 0x2 DUP3 ADD DUP1 SLOAD PUSH1 0x60 SWAP1 SWAP3 ADD SWAP2 PUSH2 0x1FB SWAP1 PUSH2 0x554E JUMP JUMPDEST DUP1 PUSH1 0x1F ADD PUSH1 0x20 DUP1 SWAP2 DIV MUL PUSH1 0x20 ADD PUSH1 0x40 MLOAD SWAP1 DUP2 ADD PUSH1 0x40 MSTORE DUP1 SWAP3 SWAP2 SWAP1 DUP2 DUP2 MSTORE PUSH1 0x20 ADD DUP3 DUP1 SLOAD PUSH2 0x227 SWAP1 PUSH2 0x554E JUMP JUMPDEST DUP1 ISZERO PUSH2 0x272 JUMPI DUP1 PUSH1 0x1F LT PUSH2 0x249 JUMPI PUSH2 0x100 DUP1 DUP4 SLOAD DIV MUL DUP4 MSTORE SWAP2 PUSH1 0x20 ADD SWAP2 PUSH2 0x272 JUMP JUMPDEST DUP3 ADD SWAP2 SWAP1 PUSH0 MSTORE PUSH1 0x20 PUSH0 KECCAK256 SWAP1 JUMPDEST DUP2 SLOAD DUP2 MSTORE SWAP1 PUSH1 0x1 ADD SWAP1 PUSH1 0x20 ADD DUP1 DUP4 GT PUSH2 0x255 JUMPI DUP3 SWAP1 SUB PUSH1 0x1F AND DUP3 ADD SWAP2 JUMPDEST POP POP POP POP POP DUP2 MSTORE POP POP DUP2 MSTORE PUSH1 0x20 ADD PUSH1 0x3 DUP3 ADD DUP1 SLOAD PUSH2 0x28F SWAP1 PUSH2 0x554E JUMP JUMPDEST DUP1 PUSH1 0x1F ADD PUSH1 0x20 DUP1 SWAP2 DIV MUL PUSH1 0x20 ADD PUSH1 0x40 MLOAD SWAP1 DUP2 ADD PUSH1 0x40 MSTORE DUP1 SWAP3 SWAP2 SWAP1 DUP2 DUP2 MSTORE PUSH1 0x20 ADD DUP3 DUP1 SLOAD PUSH2 0x2BB SWAP1 PUSH2 0x554E JUMP JUMPDEST DUP1 ISZERO PUSH2 0x306 JUMPI DUP1 PUSH1 0x1F LT PUSH2 0x2DD JUMPI PUSH2 0x100 DUP1 DUP4 SLOAD DIV MUL DUP4 MSTORE SWAP2 PUSH1 0x20 ADD SWAP2 PUSH2 0x306 JUMP JUMPDEST DUP3 ADD SWAP2 SWAP1 PUSH0 MSTORE PUSH1 0x20 PUSH0 KECCAK256 SWAP1 JUMPDEST DUP2 SLOAD DUP2 MSTORE SWAP1 PUSH1 0x1 ADD SWAP1 PUSH1 0x20 ADD DUP1 DUP4 GT PUSH2 0x2E9 JUMPI DUP3 SWAP1 SUB PUSH1 0x1F AND DUP3 ADD SWAP2 JUMPDEST POP POP POP SWAP2 DUP4 MSTORE POP POP PUSH1 0x4 DUP3 ADD SLOAD PUSH1 0xFF AND PUSH1 0x20 DUP3 ADD MSTORE PUSH1 0x40 DUP1 MLOAD PUSH2 0x140 DUP2 ADD DUP3 MSTORE PUSH1 0x5 DUP5 ADD DUP1 SLOAD SWAP3 SWAP1 SWAP4 ADD SWAP3 SWAP1 SWAP2 DUP3 SWAP1 DUP3 SWAP1 PUSH2 0x340 SWAP1 PUSH2 0x554E JUMP JUMPDEST DUP1 PUSH1 0x1F ADD PUSH1 0x20 DUP1 SWAP2 DIV MUL PUSH1 0x20 ADD PUSH1 0x40 MLOAD SWAP1 DUP2 ADD PUSH1 0x40 MSTORE DUP1 SWAP3 SWAP2 SWAP1 DUP2 DUP2 MSTORE PUSH1 0x20 ADD DUP3 DUP1 SLOAD PUSH2 0x36C SWAP1 PUSH2 0x554E JUMP JUMPDEST DUP1 ISZERO PUSH2 0x3B7 JUMPI DUP1 PUSH1 0x1F LT PUSH2 0x38E JUMPI PUSH2 0x100 DUP1 DUP4 SLOAD DIV MUL DUP4 MSTORE SWAP2 PUSH1 0x20 ADD SWAP2 PUSH2 0x3B7 JUMP JUMPDEST DUP3 ADD SWAP2 SWAP1 PUSH0 MSTORE PUSH1 0x20 PUSH0 KECCAK256 SWAP1 JUMPDEST DUP2 SLOAD DUP2 MSTORE SWAP1 PUSH1 0x1 ADD SWAP1 PUSH1 0x20 ADD DUP1 DUP4 GT PUSH2 0x39A JUMPI DUP3 SWAP1 SUB PUSH1 0x1F AND DUP3 ADD SWAP2 JUMPDEST POP POP POP POP POP DUP2 MSTORE PUSH1 0x20 ADD PUSH1 0x1 DUP3 ADD DUP1 SLOAD PUSH2 0x3D0 SWAP1 PUSH2 0x554E JUMP JUMPDEST DUP1 PUSH1 0x1F ADD PUSH1 0x20 DUP1 SWAP2 DIV MUL PUSH1 0x20 ADD PUSH1 0x40 MLOAD SWAP1 DUP2 ADD PUSH1 0x40 MSTORE DUP1 SWAP3 SWAP2 SWAP1 DUP2 DUP2 MSTORE PUSH1 0x20 ADD DUP3 DUP1 SLOAD PUSH2 0x3FC SWAP1 PUSH2 0x554E JUMP JUMPDEST DUP1 ISZERO PUSH2 0x447 JUMPI DUP1 PUSH1 0x1F LT PUSH2 0x41E JUMPI PUSH2 0x100 DUP1 DUP4 SLOAD DIV MUL DUP4 MSTORE SWAP2 PUSH1 0x20 ADD SWAP2 PUSH2 0x447 JUMP JUMPDEST DUP3 ADD SWAP2 SWAP1 PUSH0 MSTORE PUSH1 0x20 PUSH0 KECCAK256 SWAP1 JUMPDEST DUP2 SLOAD DUP2 MSTORE SWAP1 PUSH1 0x1 ADD SWAP1 PUSH1 0x20 ADD DUP1 DUP4 GT PUSH2 0x42A JUMPI DUP3 SWAP1 SUB PUSH1 0x1F AND DUP3 ADD SWAP2 JUMPDEST POP POP POP POP POP DUP2 MSTORE PUSH1 0x20 ADD PUSH1 0x2 DUP3 ADD DUP1 SLOAD PUSH2 0x460 SWAP1 PUSH2 0x554E JUMP JUMPDEST DUP1 PUSH1 0x1F ADD PUSH1 0x20 DUP1 SWAP2 DIV MUL PUSH1 0x20 ADD PUSH1 0x40 MLOAD SWAP1 DUP2 ADD PUSH1 0x40 MSTORE DUP1 SWAP3 SWAP2 SWAP1 DUP2 DUP2 MSTORE PUSH1 0x20 ADD DUP3 DUP1 SLOAD PUSH2 0x48C SWAP1 PUSH2 0x554E JUMP JUMPDEST DUP1 ISZERO PUSH2 0x4D7 JUMPI DUP1 PUSH1 0x1F LT PUSH2 0x4AE JUMPI PUSH2 0x100 DUP1 DUP4 SLOAD DIV MUL DUP4 MSTORE SWAP2 PUSH1 0x20 ADD SWAP2 PUSH2 0x4D7 JUMP JUMPDEST DUP3 ADD SWAP2 SWAP1 PUSH0 MSTORE PUSH1 0x20 PUSH0 KECCAK256 SWAP1 JUMPDEST DUP2 SLOAD DUP2 MSTORE SWAP1 PUSH1 0x1 ADD SWAP1 PUSH1 0x20 ADD DUP1 DUP4 GT PUSH2 0x4BA JUMPI DUP3 SWAP1 SUB PUSH1 0x1F AND DUP3 ADD SWAP2 JUMPDEST POP POP POP POP POP DUP2 MSTORE PUSH1 0x20 ADD PUSH1 0x3 DUP3 ADD DUP1 SLOAD PUSH2 0x4F0 SWAP1 PUSH2 0x554E JUMP JUMPDEST DUP1 PUSH1 0x1F ADD PUSH1 0x20 DUP1 SWAP2 DIV MUL PUSH1 0x20 ADD PUSH1 0x40 MLOAD SWAP1 DUP2 ADD PUSH1 0x40 MSTORE DUP1 SWAP3 SWAP2 SWAP1 DUP2 DUP2 MSTORE PUSH1 0x20 ADD DUP3 DUP1 SLOAD PUSH2 0x51C SWAP1 PUSH2 0x554E JUMP JUMPDEST DUP1 ISZERO PUSH2 0x567 JUMPI DUP1 PUSH1 0x1F LT PUSH2 0x53E JUMPI PUSH2 0x100 DUP1 DUP4 SLOAD DIV MUL DUP4 MSTORE SWAP2 PUSH1 0x20 ADD SWAP2 PUSH2 0x567 JUMP JUMPDEST DUP3 ADD SWAP2 SWAP1 PUSH0 MSTORE PUSH1 0x20 PUSH0 KECCAK256 SWAP1 JUMPDEST DUP2 SLOAD DUP2 MSTORE SWAP1 PUSH1 0x1 ADD SWAP1 PUSH1 0x20 ADD DUP1 DUP4 GT PUSH2 0x54A JUMPI DUP3 SWAP1 SUB PUSH1 0x1F AND DUP3 ADD SWAP2 JUMPDEST POP POP POP POP POP DUP2 MSTORE PUSH1 0x20 ADD PUSH1 0x4 DUP3 ADD DUP1 SLOAD PUSH2 0x580 SWAP1 PUSH2 0x554E JUMP JUMPDEST DUP1 PUSH1 0x1F ADD PUSH1 0x20 DUP1 SWAP2 DIV MUL PUSH1 0x20 ADD PUSH1 0x40 MLOAD SWAP1 DUP2 ADD PUSH1 0x40 MSTORE DUP1 SWAP3 SWAP2 SWAP1 DUP2 DUP2 MSTORE PUSH1 0x20 ADD DUP3 DUP1 SLOAD PUSH2 0x5AC SWAP1 PUSH2 0x554E JUMP JUMPDEST DUP1 ISZERO PUSH2 0x5F7 JUMPI DUP1 PUSH1 0x1F LT PUSH2 0x5CE JUMPI PUSH2 0x100 DUP1 DUP4 SLOAD DIV MUL DUP4 MSTORE SWAP2 PUSH1 0x20 ADD SWAP2 PUSH2 0x5F7 JUMP JUMPDEST DUP3 ADD SWAP2 SWAP1 PUSH0 MSTORE PUSH1 0x20 PUSH0 KECCAK256 SWAP1 JUMPDEST DUP2 SLOAD DUP2 MSTORE SWAP1 PUSH1 0x1 ADD SWAP1 PUSH1 0x20 ADD DUP1 DUP4 GT PUSH2 0x5DA JUMPI DUP3 SWAP1 SUB PUSH1 0x1F AND DUP3 ADD SWAP2 JUMPDEST POP POP POP POP POP DUP2 MSTORE PUSH1 0x20 ADD PUSH1 0x5 DUP3 ADD DUP1 SLOAD PUSH2 0x610 SWAP1 PUSH2 0x554E JUMP JUMPDEST DUP1 PUSH1 0x1F ADD PUSH1 0x20 DUP1 SWAP2 DIV MUL PUSH1 0x20 ADD PUSH1 0x40 MLOAD SWAP1 DUP2 ADD PUSH1 0x40 MSTORE DUP1 SWAP3 SWAP2 SWAP1 DUP2 DUP2 MSTORE PUSH1 0x20 ADD DUP3 DUP1 SLOAD PUSH2 0x63C SWAP1 PUSH2 0x554E JUMP JUMPDEST DUP1 ISZERO PUSH2 0x687 JUMPI DUP1 PUSH1 0x1F LT PUSH2 0x65E JUMPI PUSH2 0x100 DUP1 DUP4 SLOAD DIV MUL DUP4 MSTORE SWAP2 PUSH1 0x20 ADD SWAP2 PUSH2 0x687 JUMP JUMPDEST DUP3 ADD SWAP2 SWAP1 PUSH0 MSTORE PUSH1 0x20 PUSH0 KECCAK256 SWAP1 JUMPDEST DUP2 SLOAD DUP2 MSTORE SWAP1 PUSH1 0x1 ADD SWAP1 PUSH1 0x20 ADD DUP1 DUP4 GT PUSH2 0x66A JUMPI DUP3 SWAP1 SUB PUSH1 0x1F AND DUP3 ADD SWAP2 JUMPDEST POP POP POP POP POP DUP2 MSTORE PUSH1 0x20 ADD PUSH1 0x6 DUP3 ADD DUP1 SLOAD PUSH2 0x6A0 SWAP1 PUSH2 0x554E JUMP JUMPDEST DUP1 PUSH1 0x1F ADD PUSH1 0x20 DUP1 SWAP2 DIV MUL PUSH1 0x20 ADD PUSH1 0x40 MLOAD SWAP1 DUP2 ADD PUSH1 0x40 MSTORE DUP1 SWAP3 SWAP2 SWAP1 DUP2 DUP2 MSTORE PUSH1 0x20 ADD DUP3 DUP1 SLOAD PUSH2 0x6CC SWAP1 PUSH2 0x554E JUMP JUMPDEST DUP1 ISZERO PUSH2 0x717 JUMPI DUP1 PUSH1 0x1F LT PUSH2 0x6EE JUMPI PUSH2 0x100 DUP1 DUP4 SLOAD DIV MUL DUP4 MSTORE SWAP2 PUSH1 0x20 ADD SWAP2 PUSH2 0x717 JUMP JUMPDEST DUP3 ADD SWAP2 SWAP1 PUSH0 MSTORE PUSH1 0x20 PUSH0 KECCAK256 SWAP1 JUMPDEST DUP2 SLOAD DUP2 MSTORE SWAP1 PUSH1 0x1 ADD SWAP1 PUSH1 0x20 ADD DUP1 DUP4 GT PUSH2 0x6FA JUMPI DUP3 SWAP1 SUB PUSH1 0x1F AND DUP3 ADD SWAP2 JUMPDEST POP POP POP POP POP DUP2 MSTORE PUSH1 0x20 ADD PUSH1 0x7 DUP3 ADD DUP1 SLOAD PUSH2 0x730 SWAP1 PUSH2 0x554E JUMP JUMPDEST DUP1 PUSH1 0x1F ADD PUSH1 0x20 DUP1 SWAP2 DIV MUL PUSH1 0x20 ADD PUSH1 0x40 MLOAD SWAP1 DUP2 ADD PUSH1 0x40 MSTORE DUP1 SWAP3 SWAP2 SWAP1 DUP2 DUP2 MSTORE PUSH1 0x20 ADD DUP3 DUP1 SLOAD PUSH2 0x75C SWAP1 PUSH2 0x554E JUMP JUMPDEST DUP1 ISZERO PUSH2 0x7A7 JUMPI DUP1 PUSH1 0x1F LT PUSH2 0x77E JUMPI PUSH2 0x100 DUP1 DUP4 SLOAD DIV MUL DUP4 MSTORE SWAP2 PUSH1 0x20 ADD SWAP2 PUSH2 0x7A7 JUMP JUMPDEST DUP3 ADD SWAP2 SWAP1 PUSH0 MSTORE PUSH1 0x20 PUSH0 KECCAK256 SWAP1 JUMPDEST DUP2 SLOAD DUP2 MSTORE SWAP1 PUSH1 0x1 ADD SWAP1 PUSH1 0x20 ADD DUP1 DUP4 GT PUSH2 0x78A JUMPI DUP3 SWAP1 SUB PUSH1 0x1F AND DUP3 ADD SWAP2 JUMPDEST POP POP POP POP POP DUP2 MSTORE PUSH1 0x20 ADD PUSH1 0x8 DUP3 ADD DUP1 SLOAD PUSH2 0x7C0 SWAP1 PUSH2 0x554E JUMP JUMPDEST DUP1 PUSH1 0x1F ADD PUSH1 0x20 DUP1 SWAP2 DIV MUL PUSH1 0x20 ADD PUSH1 0x40 MLOAD SWAP1 DUP2 ADD PUSH1 0x40 MSTORE DUP1 SWAP3 SWAP2 SWAP1 DUP2 DUP2 MSTORE PUSH1 0x20 ADD DUP3 DUP1 SLOAD PUSH2 0x7EC SWAP1 PUSH2 0x554E JUMP JUMPDEST DUP1 ISZERO PUSH2 0x837 JUMPI DUP1 PUSH1 0x1F LT PUSH2 0x80E JUMPI PUSH2 0x100 DUP1 DUP4 SLOAD DIV MUL DUP4 MSTORE SWAP2 PUSH1 0x20 ADD SWAP2 PUSH2 0x837 JUMP JUMPDEST DUP3 ADD SWAP2 SWAP1 PUSH0 MSTORE PUSH1 0x20 PUSH0 KECCAK256 SWAP1 JUMPDEST DUP2 SLOAD DUP2 MSTORE SWAP1 PUSH1 0x1 ADD SWAP1 PUSH1 0x20 ADD DUP1 DUP4 GT PUSH2 0x81A JUMPI DUP3 SWAP1 SUB PUSH1 0x1F AND DUP3 ADD SWAP2 JUMPDEST POP POP POP POP POP DUP2 MSTORE PUSH1 0x20 ADD PUSH1 0x9 DUP3 ADD DUP1 SLOAD PUSH2 0x850 SWAP1 PUSH2 0x554E JUMP JUMPDEST DUP1 PUSH1 0x1F ADD PUSH1 0x20 DUP1 SWAP2 DIV MUL PUSH1 0x20 ADD PUSH1 0x40 MLOAD SWAP1 DUP2 ADD PUSH1 0x40 MSTORE DUP1 SWAP3 SWAP2 SWAP1 DUP2 DUP2 MSTORE PUSH1 0x20 ADD DUP3 DUP1 SLOAD PUSH2 0x87C SWAP1 PUSH2 0x554E JUMP JUMPDEST DUP1 ISZERO PUSH2 0x8C7 JUMPI DUP1 PUSH1 0x1F LT PUSH2 0x89E JUMPI PUSH2 0x100 DUP1 DUP4 SLOAD DIV MUL DUP4 MSTORE SWAP2 PUSH1 0x20 ADD SWAP2 PUSH2 0x8C7 JUMP JUMPDEST DUP3 ADD SWAP2 SWAP1 PUSH0 MSTORE PUSH1 0x20 PUSH0 KECCAK256 SWAP1 JUMPDEST DUP2 SLOAD DUP2 MSTORE SWAP1 PUSH1 0x1 ADD SWAP1 PUSH1 0x20 ADD DUP1 DUP4 GT PUSH2 0x8AA JUMPI DUP3 SWAP1 SUB PUSH1 0x1F AND DUP3 ADD SWAP2 JUMPDEST POP POP POP POP POP DUP2 MSTORE POP POP DUP2 MSTORE POP POP DUP2 MSTORE PUSH1 0x20 ADD SWAP1 PUSH1 0x1 ADD SWAP1 PUSH2 0x111 JUMP JUMPDEST POP POP POP POP SWAP2 POP JUMPDEST POP SWAP3 SWAP2 POP POP JUMP JUMPDEST PUSH2 0x8FB PUSH1 0x2 PUSH2 0x347D JUMP JUMPDEST PUSH1 0x40 DUP1 DUP6 ADD MLOAD DUP2 MLOAD PUSH2 0x140 DUP2 ADD SWAP1 SWAP3 MSTORE PUSH2 0x985 SWAP2 PUSH1 0x6 PUSH1 0xA PUSH0 DUP4 JUMPDEST DUP3 DUP3 LT ISZERO PUSH2 0x979 JUMPI PUSH1 0x40 DUP1 MLOAD PUSH2 0x140 DUP2 ADD SWAP2 DUP3 SWAP1 MSTORE SWAP1 DUP6 DUP5 ADD SWAP1 PUSH1 0xA SWAP1 DUP3 PUSH0 DUP6 JUMPDEST DUP3 SLOAD PUSH2 0x100 DUP4 SWAP1 EXP SWAP1 DIV PUSH1 0xFF AND DUP2 MSTORE PUSH1 0x20 PUSH1 0x1 SWAP3 DUP4 ADD DUP2 DUP2 DIV SWAP5 DUP6 ADD SWAP5 SWAP1 SWAP4 SUB SWAP1 SWAP3 MUL SWAP2 ADD DUP1 DUP5 GT PUSH2 0x937 JUMPI SWAP1 POP POP POP POP POP POP DUP2 MSTORE PUSH1 0x20 ADD SWAP1 PUSH1 0x1 ADD SWAP1 PUSH2 0x916 JUMP JUMPDEST POP POP POP POP PUSH1 0x2 PUSH0 PUSH2 0x34C4 JUMP JUMPDEST PUSH0 DUP1 JUMPDEST PUSH1 0x4 SLOAD DUP2 LT ISZERO PUSH2 0x19B6 JUMPI DUP5 DUP1 MLOAD SWAP1 PUSH1 0x20 ADD KECCAK256 PUSH1 0x4 DUP3 DUP2 SLOAD DUP2 LT PUSH2 0x9AD JUMPI PUSH2 0x9AD PUSH2 0x559F JUMP JUMPDEST SWAP1 PUSH0 MSTORE PUSH1 0x20 PUSH0 KECCAK256 SWAP1 PUSH1 0xF MUL ADD PUSH1 0x3 ADD PUSH1 0x40 MLOAD PUSH2 0x9C9 SWAP2 SWAP1 PUSH2 0x55CC JUMP JUMPDEST PUSH1 0x40 MLOAD DUP1 SWAP2 SUB SWAP1 KECCAK256 SUB PUSH2 0x19AE JUMPI PUSH0 JUMPDEST PUSH1 0x2 SLOAD PUSH1 0xFF DUP3 AND LT ISZERO PUSH2 0x19AC JUMPI PUSH1 0x2 DUP2 PUSH1 0xFF AND DUP2 SLOAD DUP2 LT PUSH2 0x9FB JUMPI PUSH2 0x9FB PUSH2 0x559F JUMP JUMPDEST SWAP1 PUSH0 MSTORE PUSH1 0x20 PUSH0 KECCAK256 SWAP1 PUSH1 0x20 SWAP2 DUP3 DUP3 DIV ADD SWAP2 SWAP1 MOD SWAP1 SLOAD SWAP1 PUSH2 0x100 EXP SWAP1 DIV PUSH1 0xFF AND PUSH1 0xFF AND PUSH1 0x4 DUP4 DUP2 SLOAD DUP2 LT PUSH2 0xA2F JUMPI PUSH2 0xA2F PUSH2 0x559F JUMP JUMPDEST PUSH0 SWAP2 DUP3 MSTORE PUSH1 0x20 SWAP1 SWAP2 KECCAK256 PUSH1 0xF SWAP1 SWAP2 MUL ADD PUSH1 0x1 ADD SLOAD PUSH2 0x100 SWAP1 DIV PUSH1 0xFF AND SUB PUSH2 0x199A JUMPI PUSH0 PUSH2 0x1026 DUP6 PUSH1 0x4 DUP6 DUP2 SLOAD DUP2 LT PUSH2 0xA67 JUMPI PUSH2 0xA67 PUSH2 0x559F JUMP JUMPDEST SWAP1 PUSH0 MSTORE PUSH1 0x20 PUSH0 KECCAK256 SWAP1 PUSH1 0xF MUL ADD PUSH1 0x5 ADD PUSH1 0x40 MLOAD DUP1 PUSH2 0x140 ADD PUSH1 0x40 MSTORE SWAP1 DUP2 PUSH0 DUP3 ADD DUP1 SLOAD PUSH2 0xA91 SWAP1 PUSH2 0x554E JUMP JUMPDEST DUP1 PUSH1 0x1F ADD PUSH1 0x20 DUP1 SWAP2 DIV MUL PUSH1 0x20 ADD PUSH1 0x40 MLOAD SWAP1 DUP2 ADD PUSH1 0x40 MSTORE DUP1 SWAP3 SWAP2 SWAP1 DUP2 DUP2 MSTORE PUSH1 0x20 ADD DUP3 DUP1 SLOAD PUSH2 0xABD SWAP1 PUSH2 0x554E JUMP JUMPDEST DUP1 ISZERO PUSH2 0xB08 JUMPI DUP1 PUSH1 0x1F LT PUSH2 0xADF JUMPI PUSH2 0x100 DUP1 DUP4 SLOAD DIV MUL DUP4 MSTORE SWAP2 PUSH1 0x20 ADD SWAP2 PUSH2 0xB08 JUMP JUMPDEST DUP3 ADD SWAP2 SWAP1 PUSH0 MSTORE PUSH1 0x20 PUSH0 KECCAK256 SWAP1 JUMPDEST DUP2 SLOAD DUP2 MSTORE SWAP1 PUSH1 0x1 ADD SWAP1 PUSH1 0x20 ADD DUP1 DUP4 GT PUSH2 0xAEB JUMPI DUP3 SWAP1 SUB PUSH1 0x1F AND DUP3 ADD SWAP2 JUMPDEST POP POP POP POP POP DUP2 MSTORE PUSH1 0x20 ADD PUSH1 0x1 DUP3 ADD DUP1 SLOAD PUSH2 0xB21 SWAP1 PUSH2 0x554E JUMP JUMPDEST DUP1 PUSH1 0x1F ADD PUSH1 0x20 DUP1 SWAP2 DIV MUL PUSH1 0x20 ADD PUSH1 0x40 MLOAD SWAP1 DUP2 ADD PUSH1 0x40 MSTORE DUP1 SWAP3 SWAP2 SWAP1 DUP2 DUP2 MSTORE PUSH1 0x20 ADD DUP3 DUP1 SLOAD PUSH2 0xB4D SWAP1 PUSH2 0x554E JUMP JUMPDEST DUP1 ISZERO PUSH2 0xB98 JUMPI DUP1 PUSH1 0x1F LT PUSH2 0xB6F JUMPI PUSH2 0x100 DUP1 DUP4 SLOAD DIV MUL DUP4 MSTORE SWAP2 PUSH1 0x20 ADD SWAP2 PUSH2 0xB98 JUMP JUMPDEST DUP3 ADD SWAP2 SWAP1 PUSH0 MSTORE PUSH1 0x20 PUSH0 KECCAK256 SWAP1 JUMPDEST DUP2 SLOAD DUP2 MSTORE SWAP1 PUSH1 0x1 ADD SWAP1 PUSH1 0x20 ADD DUP1 DUP4 GT PUSH2 0xB7B JUMPI DUP3 SWAP1 SUB PUSH1 0x1F AND DUP3 ADD SWAP2 JUMPDEST POP POP POP POP POP DUP2 MSTORE PUSH1 0x20 ADD PUSH1 0x2 DUP3 ADD DUP1 SLOAD PUSH2 0xBB1 SWAP1 PUSH2 0x554E JUMP JUMPDEST DUP1 PUSH1 0x1F ADD PUSH1 0x20 DUP1 SWAP2 DIV MUL PUSH1 0x20 ADD PUSH1 0x40 MLOAD SWAP1 DUP2 ADD PUSH1 0x40 MSTORE DUP1 SWAP3 SWAP2 SWAP1 DUP2 DUP2 MSTORE PUSH1 0x20 ADD DUP3 DUP1 SLOAD PUSH2 0xBDD SWAP1 PUSH2 0x554E JUMP JUMPDEST DUP1 ISZERO PUSH2 0xC28 JUMPI DUP1 PUSH1 0x1F LT PUSH2 0xBFF JUMPI PUSH2 0x100 DUP1 DUP4 SLOAD DIV MUL DUP4 MSTORE SWAP2 PUSH1 0x20 ADD SWAP2 PUSH2 0xC28 JUMP JUMPDEST DUP3 ADD SWAP2 SWAP1 PUSH0 MSTORE PUSH1 0x20 PUSH0 KECCAK256 SWAP1 JUMPDEST DUP2 SLOAD DUP2 MSTORE SWAP1 PUSH1 0x1 ADD SWAP1 PUSH1 0x20 ADD DUP1 DUP4 GT PUSH2 0xC0B JUMPI DUP3 SWAP1 SUB PUSH1 0x1F AND DUP3 ADD SWAP2 JUMPDEST POP POP POP POP POP DUP2 MSTORE PUSH1 0x20 ADD PUSH1 0x3 DUP3 ADD DUP1 SLOAD PUSH2 0xC41 SWAP1 PUSH2 0x554E JUMP JUMPDEST DUP1 PUSH1 0x1F ADD PUSH1 0x20 DUP1 SWAP2 DIV MUL PUSH1 0x20 ADD PUSH1 0x40 MLOAD SWAP1 DUP2 ADD PUSH1 0x40 MSTORE DUP1 SWAP3 SWAP2 SWAP1 DUP2 DUP2 MSTORE PUSH1 0x20 ADD DUP3 DUP1 SLOAD PUSH2 0xC6D SWAP1 PUSH2 0x554E JUMP JUMPDEST DUP1 ISZERO PUSH2 0xCB8 JUMPI DUP1 PUSH1 0x1F LT PUSH2 0xC8F JUMPI PUSH2 0x100 DUP1 DUP4 SLOAD DIV MUL DUP4 MSTORE SWAP2 PUSH1 0x20 ADD SWAP2 PUSH2 0xCB8 JUMP JUMPDEST DUP3 ADD SWAP2 SWAP1 PUSH0 MSTORE PUSH1 0x20 PUSH0 KECCAK256 SWAP1 JUMPDEST DUP2 SLOAD DUP2 MSTORE SWAP1 PUSH1 0x1 ADD SWAP1 PUSH1 0x20 ADD DUP1 DUP4 GT PUSH2 0xC9B JUMPI DUP3 SWAP1 SUB PUSH1 0x1F AND DUP3 ADD SWAP2 JUMPDEST POP POP POP POP POP DUP2 MSTORE PUSH1 0x20 ADD PUSH1 0x4 DUP3 ADD DUP1 SLOAD PUSH2 0xCD1 SWAP1 PUSH2 0x554E JUMP JUMPDEST DUP1 PUSH1 0x1F ADD PUSH1 0x20 DUP1 SWAP2 DIV MUL PUSH1 0x20 ADD PUSH1 0x40 MLOAD SWAP1 DUP2 ADD PUSH1 0x40 MSTORE DUP1 SWAP3 SWAP2 SWAP1 DUP2 DUP2 MSTORE PUSH1 0x20 ADD DUP3 DUP1 SLOAD PUSH2 0xCFD SWAP1 PUSH2 0x554E JUMP JUMPDEST DUP1 ISZERO PUSH2 0xD48 JUMPI DUP1 PUSH1 0x1F LT PUSH2 0xD1F JUMPI PUSH2 0x100 DUP1 DUP4 SLOAD DIV MUL DUP4 MSTORE SWAP2 PUSH1 0x20 ADD SWAP2 PUSH2 0xD48 JUMP JUMPDEST DUP3 ADD SWAP2 SWAP1 PUSH0 MSTORE PUSH1 0x20 PUSH0 KECCAK256 SWAP1 JUMPDEST DUP2 SLOAD DUP2 MSTORE SWAP1 PUSH1 0x1 ADD SWAP1 PUSH1 0x20 ADD DUP1 DUP4 GT PUSH2 0xD2B JUMPI DUP3 SWAP1 SUB PUSH1 0x1F AND DUP3 ADD SWAP2 JUMPDEST POP POP POP POP POP DUP2 MSTORE PUSH1 0x20 ADD PUSH1 0x5 DUP3 ADD DUP1 SLOAD PUSH2 0xD61 SWAP1 PUSH2 0x554E JUMP JUMPDEST DUP1 PUSH1 0x1F ADD PUSH1 0x20 DUP1 SWAP2 DIV MUL PUSH1 0x20 ADD PUSH1 0x40 MLOAD SWAP1 DUP2 ADD PUSH1 0x40 MSTORE DUP1 SWAP3 SWAP2 SWAP1 DUP2 DUP2 MSTORE PUSH1 0x20 ADD DUP3 DUP1 SLOAD PUSH2 0xD8D SWAP1 PUSH2 0x554E JUMP JUMPDEST DUP1 ISZERO PUSH2 0xDD8 JUMPI DUP1 PUSH1 0x1F LT PUSH2 0xDAF JUMPI PUSH2 0x100 DUP1 DUP4 SLOAD DIV MUL DUP4 MSTORE SWAP2 PUSH1 0x20 ADD SWAP2 PUSH2 0xDD8 JUMP JUMPDEST DUP3 ADD SWAP2 SWAP1 PUSH0 MSTORE PUSH1 0x20 PUSH0 KECCAK256 SWAP1 JUMPDEST DUP2 SLOAD DUP2 MSTORE SWAP1 PUSH1 0x1 ADD SWAP1 PUSH1 0x20 ADD DUP1 DUP4 GT PUSH2 0xDBB JUMPI DUP3 SWAP1 SUB PUSH1 0x1F AND DUP3 ADD SWAP2 JUMPDEST POP POP POP POP POP DUP2 MSTORE PUSH1 0x20 ADD PUSH1 0x6 DUP3 ADD DUP1 SLOAD PUSH2 0xDF1 SWAP1 PUSH2 0x554E JUMP JUMPDEST DUP1 PUSH1 0x1F ADD PUSH1 0x20 DUP1 SWAP2 DIV MUL PUSH1 0x20 ADD PUSH1 0x40 MLOAD SWAP1 DUP2 ADD PUSH1 0x40 MSTORE DUP1 SWAP3 SWAP2 SWAP1 DUP2 DUP2 MSTORE PUSH1 0x20 ADD DUP3 DUP1 SLOAD PUSH2 0xE1D SWAP1 PUSH2 0x554E JUMP JUMPDEST DUP1 ISZERO PUSH2 0xE68 JUMPI DUP1 PUSH1 0x1F LT PUSH2 0xE3F JUMPI PUSH2 0x100 DUP1 DUP4 SLOAD DIV MUL DUP4 MSTORE SWAP2 PUSH1 0x20 ADD SWAP2 PUSH2 0xE68 JUMP JUMPDEST DUP3 ADD SWAP2 SWAP1 PUSH0 MSTORE PUSH1 0x20 PUSH0 KECCAK256 SWAP1 JUMPDEST DUP2 SLOAD DUP2 MSTORE SWAP1 PUSH1 0x1 ADD SWAP1 PUSH1 0x20 ADD DUP1 DUP4 GT PUSH2 0xE4B JUMPI DUP3 SWAP1 SUB PUSH1 0x1F AND DUP3 ADD SWAP2 JUMPDEST POP POP POP POP POP DUP2 MSTORE PUSH1 0x20 ADD PUSH1 0x7 DUP3 ADD DUP1 SLOAD PUSH2 0xE81 SWAP1 PUSH2 0x554E JUMP JUMPDEST DUP1 PUSH1 0x1F ADD PUSH1 0x20 DUP1 SWAP2 DIV MUL PUSH1 0x20 ADD PUSH1 0x40 MLOAD SWAP1 DUP2 ADD PUSH1 0x40 MSTORE DUP1 SWAP3 SWAP2 SWAP1 DUP2 DUP2 MSTORE PUSH1 0x20 ADD DUP3 DUP1 SLOAD PUSH2 0xEAD SWAP1 PUSH2 0x554E JUMP JUMPDEST DUP1 ISZERO PUSH2 0xEF8 JUMPI DUP1 PUSH1 0x1F LT PUSH2 0xECF JUMPI PUSH2 0x100 DUP1 DUP4 SLOAD DIV MUL DUP4 MSTORE SWAP2 PUSH1 0x20 ADD SWAP2 PUSH2 0xEF8 JUMP JUMPDEST DUP3 ADD SWAP2 SWAP1 PUSH0 MSTORE PUSH1 0x20 PUSH0 KECCAK256 SWAP1 JUMPDEST DUP2 SLOAD DUP2 MSTORE SWAP1 PUSH1 0x1 ADD SWAP1 PUSH1 0x20 ADD DUP1 DUP4 GT PUSH2 0xEDB JUMPI DUP3 SWAP1 SUB PUSH1 0x1F AND DUP3 ADD SWAP2 JUMPDEST POP POP POP POP POP DUP2 MSTORE PUSH1 0x20 ADD PUSH1 0x8 DUP3 ADD DUP1 SLOAD PUSH2 0xF11 SWAP1 PUSH2 0x554E JUMP JUMPDEST DUP1 PUSH1 0x1F ADD PUSH1 0x20 DUP1 SWAP2 DIV MUL PUSH1 0x20 ADD PUSH1 0x40 MLOAD SWAP1 DUP2 ADD PUSH1 0x40 MSTORE DUP1 SWAP3 SWAP2 SWAP1 DUP2 DUP2 MSTORE PUSH1 0x20 ADD DUP3 DUP1 SLOAD PUSH2 0xF3D SWAP1 PUSH2 0x554E JUMP JUMPDEST DUP1 ISZERO PUSH2 0xF88 JUMPI DUP1 PUSH1 0x1F LT PUSH2 0xF5F JUMPI PUSH2 0x100 DUP1 DUP4 SLOAD DIV MUL DUP4 MSTORE SWAP2 PUSH1 0x20 ADD SWAP2 PUSH2 0xF88 JUMP JUMPDEST DUP3 ADD SWAP2 SWAP1 PUSH0 MSTORE PUSH1 0x20 PUSH0 KECCAK256 SWAP1 JUMPDEST DUP2 SLOAD DUP2 MSTORE SWAP1 PUSH1 0x1 ADD SWAP1 PUSH1 0x20 ADD DUP1 DUP4 GT PUSH2 0xF6B JUMPI DUP3 SWAP1 SUB PUSH1 0x1F AND DUP3 ADD SWAP2 JUMPDEST POP POP POP POP POP DUP2 MSTORE PUSH1 0x20 ADD PUSH1 0x9 DUP3 ADD DUP1 SLOAD PUSH2 0xFA1 SWAP1 PUSH2 0x554E JUMP JUMPDEST DUP1 PUSH1 0x1F ADD PUSH1 0x20 DUP1 SWAP2 DIV MUL PUSH1 0x20 ADD PUSH1 0x40 MLOAD SWAP1 DUP2 ADD PUSH1 0x40 MSTORE DUP1 SWAP3 SWAP2 SWAP1 DUP2 DUP2 MSTORE PUSH1 0x20 ADD DUP3 DUP1 SLOAD PUSH2 0xFCD SWAP1 PUSH2 0x554E JUMP JUMPDEST DUP1 ISZERO PUSH2 0x1018 JUMPI DUP1 PUSH1 0x1F LT PUSH2 0xFEF JUMPI PUSH2 0x100 DUP1 DUP4 SLOAD DIV MUL DUP4 MSTORE SWAP2 PUSH1 0x20 ADD SWAP2 PUSH2 0x1018 JUMP JUMPDEST DUP3 ADD SWAP2 SWAP1 PUSH0 MSTORE PUSH1 0x20 PUSH0 KECCAK256 SWAP1 JUMPDEST DUP2 SLOAD DUP2 MSTORE SWAP1 PUSH1 0x1 ADD SWAP1 PUSH1 0x20 ADD DUP1 DUP4 GT PUSH2 0xFFB JUMPI DUP3 SWAP1 SUB PUSH1 0x1F AND DUP3 ADD SWAP2 JUMPDEST POP POP POP POP POP DUP2 MSTORE POP POP PUSH2 0x363A JUMP JUMPDEST SWAP1 POP PUSH2 0x1033 DUP8 PUSH1 0x1 PUSH2 0x375C JUMP JUMPDEST DUP2 PUSH1 0xFF AND LT PUSH2 0x1998 JUMPI PUSH1 0x1 SWAP4 POP PUSH32 0x9F3AD7E297074403EBBE6920FCFC9EAD722B9CF562608507477325D0687D87BE PUSH1 0x4 DUP5 DUP2 SLOAD DUP2 LT PUSH2 0x1074 JUMPI PUSH2 0x1074 PUSH2 0x559F JUMP JUMPDEST SWAP1 PUSH0 MSTORE PUSH1 0x20 PUSH0 KECCAK256 SWAP1 PUSH1 0xF MUL ADD PUSH0 ADD PUSH1 0x4 DUP6 DUP2 SLOAD DUP2 LT PUSH2 0x1095 JUMPI PUSH2 0x1095 PUSH2 0x559F JUMP JUMPDEST SWAP1 PUSH0 MSTORE PUSH1 0x20 PUSH0 KECCAK256 SWAP1 PUSH1 0xF MUL ADD PUSH1 0x3 ADD PUSH1 0x4 DUP7 DUP2 SLOAD DUP2 LT PUSH2 0x10B7 JUMPI PUSH2 0x10B7 PUSH2 0x559F JUMP JUMPDEST PUSH0 SWAP2 DUP3 MSTORE PUSH1 0x20 SWAP1 SWAP2 KECCAK256 PUSH1 0x4 PUSH1 0xF SWAP1 SWAP3 MUL ADD ADD SLOAD PUSH1 0xFF AND PUSH2 0x10D8 DUP6 PUSH1 0xA PUSH2 0x5688 JUMP JUMPDEST PUSH1 0x40 MLOAD PUSH2 0x10E8 SWAP5 SWAP4 SWAP3 SWAP2 SWAP1 PUSH2 0x5741 JUMP JUMPDEST PUSH1 0x40 MLOAD DUP1 SWAP2 SUB SWAP1 LOG1 PUSH0 PUSH1 0x4 DUP5 DUP2 SLOAD DUP2 LT PUSH2 0x1104 JUMPI PUSH2 0x1104 PUSH2 0x559F JUMP JUMPDEST PUSH0 SWAP2 DUP3 MSTORE PUSH1 0x20 SWAP1 SWAP2 KECCAK256 PUSH1 0x4 PUSH1 0xF SWAP1 SWAP3 MUL ADD ADD SLOAD PUSH2 0x1124 SWAP1 PUSH1 0xFF AND DUP9 PUSH2 0x57DB JUMP JUMPDEST SWAP1 POP PUSH0 DUP2 PUSH0 SIGNEXTEND SGT ISZERO PUSH2 0x18F3 JUMPI PUSH2 0x18D3 PUSH1 0x5 DUP11 PUSH1 0x4 DUP8 DUP2 SLOAD DUP2 LT PUSH2 0x1149 JUMPI PUSH2 0x1149 PUSH2 0x559F JUMP JUMPDEST SWAP1 PUSH0 MSTORE PUSH1 0x20 PUSH0 KECCAK256 SWAP1 PUSH1 0xF MUL ADD PUSH0 ADD PUSH1 0x40 MLOAD DUP1 PUSH1 0x80 ADD PUSH1 0x40 MSTORE SWAP1 DUP2 PUSH0 DUP3 ADD DUP1 SLOAD PUSH2 0x1171 SWAP1 PUSH2 0x554E JUMP JUMPDEST DUP1 PUSH1 0x1F ADD PUSH1 0x20 DUP1 SWAP2 DIV MUL PUSH1 0x20 ADD PUSH1 0x40 MLOAD SWAP1 DUP2 ADD PUSH1 0x40 MSTORE DUP1 SWAP3 SWAP2 SWAP1 DUP2 DUP2 MSTORE PUSH1 0x20 ADD DUP3 DUP1 SLOAD PUSH2 0x119D SWAP1 PUSH2 0x554E JUMP JUMPDEST DUP1 ISZERO PUSH2 0x11E8 JUMPI DUP1 PUSH1 0x1F LT PUSH2 0x11BF JUMPI PUSH2 0x100 DUP1 DUP4 SLOAD DIV MUL DUP4 MSTORE SWAP2 PUSH1 0x20 ADD SWAP2 PUSH2 0x11E8 JUMP JUMPDEST DUP3 ADD SWAP2 SWAP1 PUSH0 MSTORE PUSH1 0x20 PUSH0 KECCAK256 SWAP1 JUMPDEST DUP2 SLOAD DUP2 MSTORE SWAP1 PUSH1 0x1 ADD SWAP1 PUSH1 0x20 ADD DUP1 DUP4 GT PUSH2 0x11CB JUMPI DUP3 SWAP1 SUB PUSH1 0x1F AND DUP3 ADD SWAP2 JUMPDEST POP POP POP SWAP2 DUP4 MSTORE POP POP PUSH1 0x1 DUP3 ADD SLOAD PUSH1 0xFF DUP1 DUP3 AND PUSH1 0x20 DUP5 ADD MSTORE PUSH2 0x100 SWAP1 SWAP2 DIV AND PUSH1 0x40 DUP3 ADD MSTORE PUSH1 0x2 DUP3 ADD DUP1 SLOAD PUSH1 0x60 SWAP1 SWAP3 ADD SWAP2 PUSH2 0x1220 SWAP1 PUSH2 0x554E JUMP JUMPDEST DUP1 PUSH1 0x1F ADD PUSH1 0x20 DUP1 SWAP2 DIV MUL PUSH1 0x20 ADD PUSH1 0x40 MLOAD SWAP1 DUP2 ADD PUSH1 0x40 MSTORE DUP1 SWAP3 SWAP2 SWAP1 DUP2 DUP2 MSTORE PUSH1 0x20 ADD DUP3 DUP1 SLOAD PUSH2 0x124C SWAP1 PUSH2 0x554E JUMP JUMPDEST DUP1 ISZERO PUSH2 0x1297 JUMPI DUP1 PUSH1 0x1F LT PUSH2 0x126E JUMPI PUSH2 0x100 DUP1 DUP4 SLOAD DIV MUL DUP4 MSTORE SWAP2 PUSH1 0x20 ADD SWAP2 PUSH2 0x1297 JUMP JUMPDEST DUP3 ADD SWAP2 SWAP1 PUSH0 MSTORE PUSH1 0x20 PUSH0 KECCAK256 SWAP1 JUMPDEST DUP2 SLOAD DUP2 MSTORE SWAP1 PUSH1 0x1 ADD SWAP1 PUSH1 0x20 ADD DUP1 DUP4 GT PUSH2 0x127A JUMPI DUP3 SWAP1 SUB PUSH1 0x1F AND DUP3 ADD SWAP2 JUMPDEST POP POP POP POP POP DUP2 MSTORE POP POP DUP12 DUP12 PUSH1 0x4 DUP11 DUP2 SLOAD DUP2 LT PUSH2 0x12B5 JUMPI PUSH2 0x12B5 PUSH2 0x559F JUMP JUMPDEST SWAP1 PUSH0 MSTORE PUSH1 0x20 PUSH0 KECCAK256 SWAP1 PUSH1 0xF MUL ADD PUSH1 0x4 ADD PUSH0 SWAP1 SLOAD SWAP1 PUSH2 0x100 EXP SWAP1 DIV PUSH1 0xFF AND PUSH1 0x4 DUP12 DUP2 SLOAD DUP2 LT PUSH2 0x12E4 JUMPI PUSH2 0x12E4 PUSH2 0x559F JUMP JUMPDEST SWAP1 PUSH0 MSTORE PUSH1 0x20 PUSH0 KECCAK256 SWAP1 PUSH1 0xF MUL ADD PUSH1 0x4 ADD PUSH0 SWAP1 SLOAD SWAP1 PUSH2 0x100 EXP SWAP1 DIV PUSH1 0xFF AND DUP14 PUSH1 0x4 DUP14 DUP2 SLOAD DUP2 LT PUSH2 0x1314 JUMPI PUSH2 0x1314 PUSH2 0x559F JUMP JUMPDEST SWAP1 PUSH0 MSTORE PUSH1 0x20 PUSH0 KECCAK256 SWAP1 PUSH1 0xF MUL ADD PUSH1 0x5 ADD PUSH1 0x40 MLOAD DUP1 PUSH2 0x140 ADD PUSH1 0x40 MSTORE SWAP1 DUP2 PUSH0 DUP3 ADD DUP1 SLOAD PUSH2 0x133E SWAP1 PUSH2 0x554E JUMP JUMPDEST DUP1 PUSH1 0x1F ADD PUSH1 0x20 DUP1 SWAP2 DIV MUL PUSH1 0x20 ADD PUSH1 0x40 MLOAD SWAP1 DUP2 ADD PUSH1 0x40 MSTORE DUP1 SWAP3 SWAP2 SWAP1 DUP2 DUP2 MSTORE PUSH1 0x20 ADD DUP3 DUP1 SLOAD PUSH2 0x136A SWAP1 PUSH2 0x554E JUMP JUMPDEST DUP1 ISZERO PUSH2 0x13B5 JUMPI DUP1 PUSH1 0x1F LT PUSH2 0x138C JUMPI PUSH2 0x100 DUP1 DUP4 SLOAD DIV MUL DUP4 MSTORE SWAP2 PUSH1 0x20 ADD SWAP2 PUSH2 0x13B5 JUMP JUMPDEST DUP3 ADD SWAP2 SWAP1 PUSH0 MSTORE PUSH1 0x20 PUSH0 KECCAK256 SWAP1 JUMPDEST DUP2 SLOAD DUP2 MSTORE SWAP1 PUSH1 0x1 ADD SWAP1 PUSH1 0x20 ADD DUP1 DUP4 GT PUSH2 0x1398 JUMPI DUP3 SWAP1 SUB PUSH1 0x1F AND DUP3 ADD SWAP2 JUMPDEST POP POP POP POP POP DUP2 MSTORE PUSH1 0x20 ADD PUSH1 0x1 DUP3 ADD DUP1 SLOAD PUSH2 0x13CE SWAP1 PUSH2 0x554E JUMP JUMPDEST DUP1 PUSH1 0x1F ADD PUSH1 0x20 DUP1 SWAP2 DIV MUL PUSH1 0x20 ADD PUSH1 0x40 MLOAD SWAP1 DUP2 ADD PUSH1 0x40 MSTORE DUP1 SWAP3 SWAP2 SWAP1 DUP2 DUP2 MSTORE PUSH1 0x20 ADD DUP3 DUP1 SLOAD PUSH2 0x13FA SWAP1 PUSH2 0x554E JUMP JUMPDEST DUP1 ISZERO PUSH2 0x1445 JUMPI DUP1 PUSH1 0x1F LT PUSH2 0x141C JUMPI PUSH2 0x100 DUP1 DUP4 SLOAD DIV MUL DUP4 MSTORE SWAP2 PUSH1 0x20 ADD SWAP2 PUSH2 0x1445 JUMP JUMPDEST DUP3 ADD SWAP2 SWAP1 PUSH0 MSTORE PUSH1 0x20 PUSH0 KECCAK256 SWAP1 JUMPDEST DUP2 SLOAD DUP2 MSTORE SWAP1 PUSH1 0x1 ADD SWAP1 PUSH1 0x20 ADD DUP1 DUP4 GT PUSH2 0x1428 JUMPI DUP3 SWAP1 SUB PUSH1 0x1F AND DUP3 ADD SWAP2 JUMPDEST POP POP POP POP POP DUP2 MSTORE PUSH1 0x20 ADD PUSH1 0x2 DUP3 ADD DUP1 SLOAD PUSH2 0x145E SWAP1 PUSH2 0x554E JUMP JUMPDEST DUP1 PUSH1 0x1F ADD PUSH1 0x20 DUP1 SWAP2 DIV MUL PUSH1 0x20 ADD PUSH1 0x40 MLOAD SWAP1 DUP2 ADD PUSH1 0x40 MSTORE DUP1 SWAP3 SWAP2 SWAP1 DUP2 DUP2 MSTORE PUSH1 0x20 ADD DUP3 DUP1 SLOAD PUSH2 0x148A SWAP1 PUSH2 0x554E JUMP JUMPDEST DUP1 ISZERO PUSH2 0x14D5 JUMPI DUP1 PUSH1 0x1F LT PUSH2 0x14AC JUMPI PUSH2 0x100 DUP1 DUP4 SLOAD DIV MUL DUP4 MSTORE SWAP2 PUSH1 0x20 ADD SWAP2 PUSH2 0x14D5 JUMP JUMPDEST DUP3 ADD SWAP2 SWAP1 PUSH0 MSTORE PUSH1 0x20 PUSH0 KECCAK256 SWAP1 JUMPDEST DUP2 SLOAD DUP2 MSTORE SWAP1 PUSH1 0x1 ADD SWAP1 PUSH1 0x20 ADD DUP1 DUP4 GT PUSH2 0x14B8 JUMPI DUP3 SWAP1 SUB PUSH1 0x1F AND DUP3 ADD SWAP2 JUMPDEST POP POP POP POP POP DUP2 MSTORE PUSH1 0x20 ADD PUSH1 0x3 DUP3 ADD DUP1 SLOAD PUSH2 0x14EE SWAP1 PUSH2 0x554E JUMP JUMPDEST DUP1 PUSH1 0x1F ADD PUSH1 0x20 DUP1 SWAP2 DIV MUL PUSH1 0x20 ADD PUSH1 0x40 MLOAD SWAP1 DUP2 ADD PUSH1 0x40 MSTORE DUP1 SWAP3 SWAP2 SWAP1 DUP2 DUP2 MSTORE PUSH1 0x20 ADD DUP3 DUP1 SLOAD PUSH2 0x151A SWAP1 PUSH2 0x554E JUMP JUMPDEST DUP1 ISZERO PUSH2 0x1565 JUMPI DUP1 PUSH1 0x1F LT PUSH2 0x153C JUMPI PUSH2 0x100 DUP1 DUP4 SLOAD DIV MUL DUP4 MSTORE SWAP2 PUSH1 0x20 ADD SWAP2 PUSH2 0x1565 JUMP JUMPDEST DUP3 ADD SWAP2 SWAP1 PUSH0 MSTORE PUSH1 0x20 PUSH0 KECCAK256 SWAP1 JUMPDEST DUP2 SLOAD DUP2 MSTORE SWAP1 PUSH1 0x1 ADD SWAP1 PUSH1 0x20 ADD DUP1 DUP4 GT PUSH2 0x1548 JUMPI DUP3 SWAP1 SUB PUSH1 0x1F AND DUP3 ADD SWAP2 JUMPDEST POP POP POP POP POP DUP2 MSTORE PUSH1 0x20 ADD PUSH1 0x4 DUP3 ADD DUP1 SLOAD PUSH2 0x157E SWAP1 PUSH2 0x554E JUMP JUMPDEST DUP1 PUSH1 0x1F ADD PUSH1 0x20 DUP1 SWAP2 DIV MUL PUSH1 0x20 ADD PUSH1 0x40 MLOAD SWAP1 DUP2 ADD PUSH1 0x40 MSTORE DUP1 SWAP3 SWAP2 SWAP1 DUP2 DUP2 MSTORE PUSH1 0x20 ADD DUP3 DUP1 SLOAD PUSH2 0x15AA SWAP1 PUSH2 0x554E JUMP JUMPDEST DUP1 ISZERO PUSH2 0x15F5 JUMPI DUP1 PUSH1 0x1F LT PUSH2 0x15CC JUMPI PUSH2 0x100 DUP1 DUP4 SLOAD DIV MUL DUP4 MSTORE SWAP2 PUSH1 0x20 ADD SWAP2 PUSH2 0x15F5 JUMP JUMPDEST DUP3 ADD SWAP2 SWAP1 PUSH0 MSTORE PUSH1 0x20 PUSH0 KECCAK256 SWAP1 JUMPDEST DUP2 SLOAD DUP2 MSTORE SWAP1 PUSH1 0x1 ADD SWAP1 PUSH1 0x20 ADD DUP1 DUP4 GT PUSH2 0x15D8 JUMPI DUP3 SWAP1 SUB PUSH1 0x1F AND DUP3 ADD SWAP2 JUMPDEST POP POP POP POP POP DUP2 MSTORE PUSH1 0x20 ADD PUSH1 0x5 DUP3 ADD DUP1 SLOAD PUSH2 0x160E SWAP1 PUSH2 0x554E JUMP JUMPDEST DUP1 PUSH1 0x1F ADD PUSH1 0x20 DUP1 SWAP2 DIV MUL PUSH1 0x20 ADD PUSH1 0x40 MLOAD SWAP1 DUP2 ADD PUSH1 0x40 MSTORE DUP1 SWAP3 SWAP2 SWAP1 DUP2 DUP2 MSTORE PUSH1 0x20 ADD DUP3 DUP1 SLOAD PUSH2 0x163A SWAP1 PUSH2 0x554E JUMP JUMPDEST DUP1 ISZERO PUSH2 0x1685 JUMPI DUP1 PUSH1 0x1F LT PUSH2 0x165C JUMPI PUSH2 0x100 DUP1 DUP4 SLOAD DIV MUL DUP4 MSTORE SWAP2 PUSH1 0x20 ADD SWAP2 PUSH2 0x1685 JUMP JUMPDEST DUP3 ADD SWAP2 SWAP1 PUSH0 MSTORE PUSH1 0x20 PUSH0 KECCAK256 SWAP1 JUMPDEST DUP2 SLOAD DUP2 MSTORE SWAP1 PUSH1 0x1 ADD SWAP1 PUSH1 0x20 ADD DUP1 DUP4 GT PUSH2 0x1668 JUMPI DUP3 SWAP1 SUB PUSH1 0x1F AND DUP3 ADD SWAP2 JUMPDEST POP POP POP POP POP DUP2 MSTORE PUSH1 0x20 ADD PUSH1 0x6 DUP3 ADD DUP1 SLOAD PUSH2 0x169E SWAP1 PUSH2 0x554E JUMP JUMPDEST DUP1 PUSH1 0x1F ADD PUSH1 0x20 DUP1 SWAP2 DIV MUL PUSH1 0x20 ADD PUSH1 0x40 MLOAD SWAP1 DUP2 ADD PUSH1 0x40 MSTORE DUP1 SWAP3 SWAP2 SWAP1 DUP2 DUP2 MSTORE PUSH1 0x20 ADD DUP3 DUP1 SLOAD PUSH2 0x16CA SWAP1 PUSH2 0x554E JUMP JUMPDEST DUP1 ISZERO PUSH2 0x1715 JUMPI DUP1 PUSH1 0x1F LT PUSH2 0x16EC JUMPI PUSH2 0x100 DUP1 DUP4 SLOAD DIV MUL DUP4 MSTORE SWAP2 PUSH1 0x20 ADD SWAP2 PUSH2 0x1715 JUMP JUMPDEST DUP3 ADD SWAP2 SWAP1 PUSH0 MSTORE PUSH1 0x20 PUSH0 KECCAK256 SWAP1 JUMPDEST DUP2 SLOAD DUP2 MSTORE SWAP1 PUSH1 0x1 ADD SWAP1 PUSH1 0x20 ADD DUP1 DUP4 GT PUSH2 0x16F8 JUMPI DUP3 SWAP1 SUB PUSH1 0x1F AND DUP3 ADD SWAP2 JUMPDEST POP POP POP POP POP DUP2 MSTORE PUSH1 0x20 ADD PUSH1 0x7 DUP3 ADD DUP1 SLOAD PUSH2 0x172E SWAP1 PUSH2 0x554E JUMP JUMPDEST DUP1 PUSH1 0x1F ADD PUSH1 0x20 DUP1 SWAP2 DIV MUL PUSH1 0x20 ADD PUSH1 0x40 MLOAD SWAP1 DUP2 ADD PUSH1 0x40 MSTORE DUP1 SWAP3 SWAP2 SWAP1 DUP2 DUP2 MSTORE PUSH1 0x20 ADD DUP3 DUP1 SLOAD PUSH2 0x175A SWAP1 PUSH2 0x554E JUMP JUMPDEST DUP1 ISZERO PUSH2 0x17A5 JUMPI DUP1 PUSH1 0x1F LT PUSH2 0x177C JUMPI PUSH2 0x100 DUP1 DUP4 SLOAD DIV MUL DUP4 MSTORE SWAP2 PUSH1 0x20 ADD SWAP2 PUSH2 0x17A5 JUMP JUMPDEST DUP3 ADD SWAP2 SWAP1 PUSH0 MSTORE PUSH1 0x20 PUSH0 KECCAK256 SWAP1 JUMPDEST DUP2 SLOAD DUP2 MSTORE SWAP1 PUSH1 0x1 ADD SWAP1 PUSH1 0x20 ADD DUP1 DUP4 GT PUSH2 0x1788 JUMPI DUP3 SWAP1 SUB PUSH1 0x1F AND DUP3 ADD SWAP2 JUMPDEST POP POP POP POP POP DUP2 MSTORE PUSH1 0x20 ADD PUSH1 0x8 DUP3 ADD DUP1 SLOAD PUSH2 0x17BE SWAP1 PUSH2 0x554E JUMP JUMPDEST DUP1 PUSH1 0x1F ADD PUSH1 0x20 DUP1 SWAP2 DIV MUL PUSH1 0x20 ADD PUSH1 0x40 MLOAD SWAP1 DUP2 ADD PUSH1 0x40 MSTORE DUP1 SWAP3 SWAP2 SWAP1 DUP2 DUP2 MSTORE PUSH1 0x20 ADD DUP3 DUP1 SLOAD PUSH2 0x17EA SWAP1 PUSH2 0x554E JUMP JUMPDEST DUP1 ISZERO PUSH2 0x1835 JUMPI DUP1 PUSH1 0x1F LT PUSH2 0x180C JUMPI PUSH2 0x100 DUP1 DUP4 SLOAD DIV MUL DUP4 MSTORE SWAP2 PUSH1 0x20 ADD SWAP2 PUSH2 0x1835 JUMP JUMPDEST DUP3 ADD SWAP2 SWAP1 PUSH0 MSTORE PUSH1 0x20 PUSH0 KECCAK256 SWAP1 JUMPDEST DUP2 SLOAD DUP2 MSTORE SWAP1 PUSH1 0x1 ADD SWAP1 PUSH1 0x20 ADD DUP1 DUP4 GT PUSH2 0x1818 JUMPI DUP3 SWAP1 SUB PUSH1 0x1F AND DUP3 ADD SWAP2 JUMPDEST POP POP POP POP POP DUP2 MSTORE PUSH1 0x20 ADD PUSH1 0x9 DUP3 ADD DUP1 SLOAD PUSH2 0x184E SWAP1 PUSH2 0x554E JUMP JUMPDEST DUP1 PUSH1 0x1F ADD PUSH1 0x20 DUP1 SWAP2 DIV MUL PUSH1 0x20 ADD PUSH1 0x40 MLOAD SWAP1 DUP2 ADD PUSH1 0x40 MSTORE DUP1 SWAP3 SWAP2 SWAP1 DUP2 DUP2 MSTORE PUSH1 0x20 ADD DUP3 DUP1 SLOAD PUSH2 0x187A SWAP1 PUSH2 0x554E JUMP JUMPDEST DUP1 ISZERO PUSH2 0x18C5 JUMPI DUP1 PUSH1 0x1F LT PUSH2 0x189C JUMPI PUSH2 0x100 DUP1 DUP4 SLOAD DIV MUL DUP4 MSTORE SWAP2 PUSH1 0x20 ADD SWAP2 PUSH2 0x18C5 JUMP JUMPDEST DUP3 ADD SWAP2 SWAP1 PUSH0 MSTORE PUSH1 0x20 PUSH0 KECCAK256 SWAP1 JUMPDEST DUP2 SLOAD DUP2 MSTORE SWAP1 PUSH1 0x1 ADD SWAP1 PUSH1 0x20 ADD DUP1 DUP4 GT PUSH2 0x18A8 JUMPI DUP3 SWAP1 SUB PUSH1 0x1F AND DUP3 ADD SWAP2 JUMPDEST POP POP POP POP POP DUP2 MSTORE POP POP PUSH2 0x3900 JUMP JUMPDEST PUSH2 0x18E1 PUSH1 0x3 DUP11 DUP11 DUP5 DUP11 PUSH2 0x3C9E JUMP JUMPDEST PUSH2 0x18EC PUSH1 0x4 DUP6 PUSH2 0x3E86 JUMP JUMPDEST POP POP PUSH2 0x19AC JUMP JUMPDEST DUP1 PUSH0 SIGNEXTEND PUSH0 SUB PUSH2 0x1915 JUMPI PUSH2 0x18E1 PUSH1 0x5 DUP11 PUSH1 0x4 DUP8 DUP2 SLOAD DUP2 LT PUSH2 0x1149 JUMPI PUSH2 0x1149 PUSH2 0x559F JUMP JUMPDEST PUSH2 0x192E PUSH1 0x5 DUP11 PUSH1 0x4 DUP8 DUP2 SLOAD DUP2 LT PUSH2 0x1149 JUMPI PUSH2 0x1149 PUSH2 0x559F JUMP JUMPDEST PUSH2 0x1958 DUP2 PUSH32 0xFFFFFFFFFFFFFFFFFFFFFFFFFFFFFFFFFFFFFFFFFFFFFFFFFFFFFFFFFFFFFFFF PUSH2 0x5819 JUMP JUMPDEST PUSH1 0x4 DUP6 DUP2 SLOAD DUP2 LT PUSH2 0x196B JUMPI PUSH2 0x196B PUSH2 0x559F JUMP JUMPDEST SWAP1 PUSH0 MSTORE PUSH1 0x20 PUSH0 KECCAK256 SWAP1 PUSH1 0xF MUL ADD PUSH1 0x4 ADD PUSH0 PUSH2 0x100 EXP DUP2 SLOAD DUP2 PUSH1 0xFF MUL NOT AND SWAP1 DUP4 PUSH1 0xFF AND MUL OR SWAP1 SSTORE POP POP POP PUSH2 0x19AC JUMP JUMPDEST POP JUMPDEST DUP1 PUSH2 0x19A4 DUP2 PUSH2 0x5835 JUMP JUMPDEST SWAP2 POP POP PUSH2 0x9D8 JUMP JUMPDEST POP JUMPDEST PUSH1 0x1 ADD PUSH2 0x988 JUMP JUMPDEST POP DUP1 PUSH2 0x19CA JUMPI PUSH2 0x19CA PUSH1 0x3 DUP7 DUP7 DUP7 DUP7 PUSH2 0x3C9E JUMP JUMPDEST POP POP POP POP POP JUMP JUMPDEST PUSH2 0x19DB PUSH1 0x2 PUSH2 0x347D JUMP JUMPDEST PUSH1 0x40 DUP1 DUP6 ADD MLOAD DUP2 MLOAD PUSH2 0x140 DUP2 ADD SWAP1 SWAP3 MSTORE PUSH2 0x1A66 SWAP2 PUSH1 0x6 PUSH1 0xA PUSH0 DUP4 JUMPDEST DUP3 DUP3 LT ISZERO PUSH2 0x1A59 JUMPI PUSH1 0x40 DUP1 MLOAD PUSH2 0x140 DUP2 ADD SWAP2 DUP3 SWAP1 MSTORE SWAP1 DUP6 DUP5 ADD SWAP1 PUSH1 0xA SWAP1 DUP3 PUSH0 DUP6 JUMPDEST DUP3 SLOAD PUSH2 0x100 DUP4 SWAP1 EXP SWAP1 DIV PUSH1 0xFF AND DUP2 MSTORE PUSH1 0x20 PUSH1 0x1 SWAP3 DUP4 ADD DUP2 DUP2 DIV SWAP5 DUP6 ADD SWAP5 SWAP1 SWAP4 SUB SWAP1 SWAP3 MUL SWAP2 ADD DUP1 DUP5 GT PUSH2 0x1A17 JUMPI SWAP1 POP POP POP POP POP POP DUP2 MSTORE PUSH1 0x20 ADD SWAP1 PUSH1 0x1 ADD SWAP1 PUSH2 0x19F6 JUMP JUMPDEST POP POP POP POP PUSH1 0x2 PUSH1 0x1 PUSH2 0x34C4 JUMP JUMPDEST PUSH0 DUP1 JUMPDEST PUSH1 0x3 SLOAD DUP2 LT ISZERO PUSH2 0x24D6 JUMPI DUP5 DUP1 MLOAD SWAP1 PUSH1 0x20 ADD KECCAK256 PUSH1 0x3 DUP3 DUP2 SLOAD DUP2 LT PUSH2 0x1A8E JUMPI PUSH2 0x1A8E PUSH2 0x559F JUMP JUMPDEST SWAP1 PUSH0 MSTORE PUSH1 0x20 PUSH0 KECCAK256 SWAP1 PUSH1 0xF MUL ADD PUSH1 0x3 ADD PUSH1 0x40 MLOAD PUSH2 0x1AAA SWAP2 SWAP1 PUSH2 0x55CC JUMP JUMPDEST PUSH1 0x40 MLOAD DUP1 SWAP2 SUB SWAP1 KECCAK256 SUB PUSH2 0x24CE JUMPI PUSH0 JUMPDEST PUSH1 0x2 SLOAD PUSH1 0xFF DUP3 AND LT ISZERO PUSH2 0x24CC JUMPI PUSH1 0x2 DUP2 PUSH1 0xFF AND DUP2 SLOAD DUP2 LT PUSH2 0x1ADC JUMPI PUSH2 0x1ADC PUSH2 0x559F JUMP JUMPDEST SWAP1 PUSH0 MSTORE PUSH1 0x20 PUSH0 KECCAK256 SWAP1 PUSH1 0x20 SWAP2 DUP3 DUP3 DIV ADD SWAP2 SWAP1 MOD SWAP1 SLOAD SWAP1 PUSH2 0x100 EXP SWAP1 DIV PUSH1 0xFF AND PUSH1 0xFF AND PUSH1 0x3 DUP4 DUP2 SLOAD DUP2 LT PUSH2 0x1B10 JUMPI PUSH2 0x1B10 PUSH2 0x559F JUMP JUMPDEST PUSH0 SWAP2 DUP3 MSTORE PUSH1 0x20 SWAP1 SWAP2 KECCAK256 PUSH1 0xF SWAP1 SWAP2 MUL ADD PUSH1 0x1 ADD SLOAD PUSH2 0x100 SWAP1 DIV PUSH1 0xFF AND SUB PUSH2 0x24BA JUMPI PUSH0 PUSH2 0x1B48 DUP6 PUSH1 0x3 DUP6 DUP2 SLOAD DUP2 LT PUSH2 0xA67 JUMPI PUSH2 0xA67 PUSH2 0x559F JUMP JUMPDEST SWAP1 POP PUSH2 0x1B55 DUP8 PUSH1 0x1 PUSH2 0x375C JUMP JUMPDEST DUP2 PUSH1 0xFF AND LT PUSH2 0x24B8 JUMPI PUSH1 0x1 SWAP4 POP PUSH32 0x9F3AD7E297074403EBBE6920FCFC9EAD722B9CF562608507477325D0687D87BE PUSH1 0x3 DUP5 DUP2 SLOAD DUP2 LT PUSH2 0x1B96 JUMPI PUSH2 0x1B96 PUSH2 0x559F JUMP JUMPDEST SWAP1 PUSH0 MSTORE PUSH1 0x20 PUSH0 KECCAK256 SWAP1 PUSH1 0xF MUL ADD PUSH0 ADD PUSH1 0x3 DUP6 DUP2 SLOAD DUP2 LT PUSH2 0x1BB7 JUMPI PUSH2 0x1BB7 PUSH2 0x559F JUMP JUMPDEST SWAP1 PUSH0 MSTORE PUSH1 0x20 PUSH0 KECCAK256 SWAP1 PUSH1 0xF MUL ADD PUSH1 0x3 ADD PUSH1 0x3 DUP7 DUP2 SLOAD DUP2 LT PUSH2 0x1BD9 JUMPI PUSH2 0x1BD9 PUSH2 0x559F JUMP JUMPDEST PUSH0 SWAP2 DUP3 MSTORE PUSH1 0x20 SWAP1 SWAP2 KECCAK256 PUSH1 0x4 PUSH1 0xF SWAP1 SWAP3 MUL ADD ADD SLOAD PUSH1 0xFF AND PUSH2 0x1BFA DUP6 PUSH1 0xA PUSH2 0x5688 JUMP JUMPDEST PUSH1 0x40 MLOAD PUSH2 0x1C0A SWAP5 SWAP4 SWAP3 SWAP2 SWAP1 PUSH2 0x5741 JUMP JUMPDEST PUSH1 0x40 MLOAD DUP1 SWAP2 SUB SWAP1 LOG1 PUSH0 PUSH1 0x3 DUP5 DUP2 SLOAD DUP2 LT PUSH2 0x1C26 JUMPI PUSH2 0x1C26 PUSH2 0x559F JUMP JUMPDEST PUSH0 SWAP2 DUP3 MSTORE PUSH1 0x20 SWAP1 SWAP2 KECCAK256 PUSH1 0x4 PUSH1 0xF SWAP1 SWAP3 MUL ADD ADD SLOAD PUSH2 0x1C46 SWAP1 PUSH1 0xFF AND DUP9 PUSH2 0x57DB JUMP JUMPDEST SWAP1 POP PUSH0 DUP2 PUSH0 SIGNEXTEND SGT ISZERO PUSH2 0x2415 JUMPI PUSH2 0x23F5 PUSH1 0x5 PUSH1 0x3 DUP7 DUP2 SLOAD DUP2 LT PUSH2 0x1C6A JUMPI PUSH2 0x1C6A PUSH2 0x559F JUMP JUMPDEST SWAP1 PUSH0 MSTORE PUSH1 0x20 PUSH0 KECCAK256 SWAP1 PUSH1 0xF MUL ADD PUSH0 ADD PUSH1 0x40 MLOAD DUP1 PUSH1 0x80 ADD PUSH1 0x40 MSTORE SWAP1 DUP2 PUSH0 DUP3 ADD DUP1 SLOAD PUSH2 0x1C92 SWAP1 PUSH2 0x554E JUMP JUMPDEST DUP1 PUSH1 0x1F ADD PUSH1 0x20 DUP1 SWAP2 DIV MUL PUSH1 0x20 ADD PUSH1 0x40 MLOAD SWAP1 DUP2 ADD PUSH1 0x40 MSTORE DUP1 SWAP3 SWAP2 SWAP1 DUP2 DUP2 MSTORE PUSH1 0x20 ADD DUP3 DUP1 SLOAD PUSH2 0x1CBE SWAP1 PUSH2 0x554E JUMP JUMPDEST DUP1 ISZERO PUSH2 0x1D09 JUMPI DUP1 PUSH1 0x1F LT PUSH2 0x1CE0 JUMPI PUSH2 0x100 DUP1 DUP4 SLOAD DIV MUL DUP4 MSTORE SWAP2 PUSH1 0x20 ADD SWAP2 PUSH2 0x1D09 JUMP JUMPDEST DUP3 ADD SWAP2 SWAP1 PUSH0 MSTORE PUSH1 0x20 PUSH0 KECCAK256 SWAP1 JUMPDEST DUP2 SLOAD DUP2 MSTORE SWAP1 PUSH1 0x1 ADD SWAP1 PUSH1 0x20 ADD DUP1 DUP4 GT PUSH2 0x1CEC JUMPI DUP3 SWAP1 SUB PUSH1 0x1F AND DUP3 ADD SWAP2 JUMPDEST POP POP POP SWAP2 DUP4 MSTORE POP POP PUSH1 0x1 DUP3 ADD SLOAD PUSH1 0xFF DUP1 DUP3 AND PUSH1 0x20 DUP5 ADD MSTORE PUSH2 0x100 SWAP1 SWAP2 DIV AND PUSH1 0x40 DUP3 ADD MSTORE PUSH1 0x2 DUP3 ADD DUP1 SLOAD PUSH1 0x60 SWAP1 SWAP3 ADD SWAP2 PUSH2 0x1D41 SWAP1 PUSH2 0x554E JUMP JUMPDEST DUP1 PUSH1 0x1F ADD PUSH1 0x20 DUP1 SWAP2 DIV MUL PUSH1 0x20 ADD PUSH1 0x40 MLOAD SWAP1 DUP2 ADD PUSH1 0x40 MSTORE DUP1 SWAP3 SWAP2 SWAP1 DUP2 DUP2 MSTORE PUSH1 0x20 ADD DUP3 DUP1 SLOAD PUSH2 0x1D6D SWAP1 PUSH2 0x554E JUMP JUMPDEST DUP1 ISZERO PUSH2 0x1DB8 JUMPI DUP1 PUSH1 0x1F LT PUSH2 0x1D8F JUMPI PUSH2 0x100 DUP1 DUP4 SLOAD DIV MUL DUP4 MSTORE SWAP2 PUSH1 0x20 ADD SWAP2 PUSH2 0x1DB8 JUMP JUMPDEST DUP3 ADD SWAP2 SWAP1 PUSH0 MSTORE PUSH1 0x20 PUSH0 KECCAK256 SWAP1 JUMPDEST DUP2 SLOAD DUP2 MSTORE SWAP1 PUSH1 0x1 ADD SWAP1 PUSH1 0x20 ADD DUP1 DUP4 GT PUSH2 0x1D9B JUMPI DUP3 SWAP1 SUB PUSH1 0x1F AND DUP3 ADD SWAP2 JUMPDEST POP POP POP POP POP DUP2 MSTORE POP POP DUP12 DUP12 PUSH1 0x3 DUP10 DUP2 SLOAD DUP2 LT PUSH2 0x1DD6 JUMPI PUSH2 0x1DD6 PUSH2 0x559F JUMP JUMPDEST SWAP1 PUSH0 MSTORE PUSH1 0x20 PUSH0 KECCAK256 SWAP1 PUSH1 0xF MUL ADD PUSH1 0x4 ADD PUSH0 SWAP1 SLOAD SWAP1 PUSH2 0x100 EXP SWAP1 DIV PUSH1 0xFF AND DUP13 PUSH1 0x3 DUP12 DUP2 SLOAD DUP2 LT PUSH2 0x1E06 JUMPI PUSH2 0x1E06 PUSH2 0x559F JUMP JUMPDEST SWAP1 PUSH0 MSTORE PUSH1 0x20 PUSH0 KECCAK256 SWAP1 PUSH1 0xF MUL ADD PUSH1 0x4 ADD PUSH0 SWAP1 SLOAD SWAP1 PUSH2 0x100 EXP SWAP1 DIV PUSH1 0xFF AND PUSH1 0x3 DUP13 DUP2 SLOAD DUP2 LT PUSH2 0x1E35 JUMPI PUSH2 0x1E35 PUSH2 0x559F JUMP JUMPDEST SWAP1 PUSH0 MSTORE PUSH1 0x20 PUSH0 KECCAK256 SWAP1 PUSH1 0xF MUL ADD PUSH1 0x5 ADD PUSH1 0x40 MLOAD DUP1 PUSH2 0x140 ADD PUSH1 0x40 MSTORE SWAP1 DUP2 PUSH0 DUP3 ADD DUP1 SLOAD PUSH2 0x1E5F SWAP1 PUSH2 0x554E JUMP JUMPDEST DUP1 PUSH1 0x1F ADD PUSH1 0x20 DUP1 SWAP2 DIV MUL PUSH1 0x20 ADD PUSH1 0x40 MLOAD SWAP1 DUP2 ADD PUSH1 0x40 MSTORE DUP1 SWAP3 SWAP2 SWAP1 DUP2 DUP2 MSTORE PUSH1 0x20 ADD DUP3 DUP1 SLOAD PUSH2 0x1E8B SWAP1 PUSH2 0x554E JUMP JUMPDEST DUP1 ISZERO PUSH2 0x1ED6 JUMPI DUP1 PUSH1 0x1F LT PUSH2 0x1EAD JUMPI PUSH2 0x100 DUP1 DUP4 SLOAD DIV MUL DUP4 MSTORE SWAP2 PUSH1 0x20 ADD SWAP2 PUSH2 0x1ED6 JUMP JUMPDEST DUP3 ADD SWAP2 SWAP1 PUSH0 MSTORE PUSH1 0x20 PUSH0 KECCAK256 SWAP1 JUMPDEST DUP2 SLOAD DUP2 MSTORE SWAP1 PUSH1 0x1 ADD SWAP1 PUSH1 0x20 ADD DUP1 DUP4 GT PUSH2 0x1EB9 JUMPI DUP3 SWAP1 SUB PUSH1 0x1F AND DUP3 ADD SWAP2 JUMPDEST POP POP POP POP POP DUP2 MSTORE PUSH1 0x20 ADD PUSH1 0x1 DUP3 ADD DUP1 SLOAD PUSH2 0x1EEF SWAP1 PUSH2 0x554E JUMP JUMPDEST DUP1 PUSH1 0x1F ADD PUSH1 0x20 DUP1 SWAP2 DIV MUL PUSH1 0x20 ADD PUSH1 0x40 MLOAD SWAP1 DUP2 ADD PUSH1 0x40 MSTORE DUP1 SWAP3 SWAP2 SWAP1 DUP2 DUP2 MSTORE PUSH1 0x20 ADD DUP3 DUP1 SLOAD PUSH2 0x1F1B SWAP1 PUSH2 0x554E JUMP JUMPDEST DUP1 ISZERO PUSH2 0x1F66 JUMPI DUP1 PUSH1 0x1F LT PUSH2 0x1F3D JUMPI PUSH2 0x100 DUP1 DUP4 SLOAD DIV MUL DUP4 MSTORE SWAP2 PUSH1 0x20 ADD SWAP2 PUSH2 0x1F66 JUMP JUMPDEST DUP3 ADD SWAP2 SWAP1 PUSH0 MSTORE PUSH1 0x20 PUSH0 KECCAK256 SWAP1 JUMPDEST DUP2 SLOAD DUP2 MSTORE SWAP1 PUSH1 0x1 ADD SWAP1 PUSH1 0x20 ADD DUP1 DUP4 GT PUSH2 0x1F49 JUMPI DUP3 SWAP1 SUB PUSH1 0x1F AND DUP3 ADD SWAP2 JUMPDEST POP POP POP POP POP DUP2 MSTORE PUSH1 0x20 ADD PUSH1 0x2 DUP3 ADD DUP1 SLOAD PUSH2 0x1F7F SWAP1 PUSH2 0x554E JUMP JUMPDEST DUP1 PUSH1 0x1F ADD PUSH1 0x20 DUP1 SWAP2 DIV MUL PUSH1 0x20 ADD PUSH1 0x40 MLOAD SWAP1 DUP2 ADD PUSH1 0x40 MSTORE DUP1 SWAP3 SWAP2 SWAP1 DUP2 DUP2 MSTORE PUSH1 0x20 ADD DUP3 DUP1 SLOAD PUSH2 0x1FAB SWAP1 PUSH2 0x554E JUMP JUMPDEST DUP1 ISZERO PUSH2 0x1FF6 JUMPI DUP1 PUSH1 0x1F LT PUSH2 0x1FCD JUMPI PUSH2 0x100 DUP1 DUP4 SLOAD DIV MUL DUP4 MSTORE SWAP2 PUSH1 0x20 ADD SWAP2 PUSH2 0x1FF6 JUMP JUMPDEST DUP3 ADD SWAP2 SWAP1 PUSH0 MSTORE PUSH1 0x20 PUSH0 KECCAK256 SWAP1 JUMPDEST DUP2 SLOAD DUP2 MSTORE SWAP1 PUSH1 0x1 ADD SWAP1 PUSH1 0x20 ADD DUP1 DUP4 GT PUSH2 0x1FD9 JUMPI DUP3 SWAP1 SUB PUSH1 0x1F AND DUP3 ADD SWAP2 JUMPDEST POP POP POP POP POP DUP2 MSTORE PUSH1 0x20 ADD PUSH1 0x3 DUP3 ADD DUP1 SLOAD PUSH2 0x200F SWAP1 PUSH2 0x554E JUMP JUMPDEST DUP1 PUSH1 0x1F ADD PUSH1 0x20 DUP1 SWAP2 DIV MUL PUSH1 0x20 ADD PUSH1 0x40 MLOAD SWAP1 DUP2 ADD PUSH1 0x40 MSTORE DUP1 SWAP3 SWAP2 SWAP1 DUP2 DUP2 MSTORE PUSH1 0x20 ADD DUP3 DUP1 SLOAD PUSH2 0x203B SWAP1 PUSH2 0x554E JUMP JUMPDEST DUP1 ISZERO PUSH2 0x2086 JUMPI DUP1 PUSH1 0x1F LT PUSH2 0x205D JUMPI PUSH2 0x100 DUP1 DUP4 SLOAD DIV MUL DUP4 MSTORE SWAP2 PUSH1 0x20 ADD SWAP2 PUSH2 0x2086 JUMP JUMPDEST DUP3 ADD SWAP2 SWAP1 PUSH0 MSTORE PUSH1 0x20 PUSH0 KECCAK256 SWAP1 JUMPDEST DUP2 SLOAD DUP2 MSTORE SWAP1 PUSH1 0x1 ADD SWAP1 PUSH1 0x20 ADD DUP1 DUP4 GT PUSH2 0x2069 JUMPI DUP3 SWAP1 SUB PUSH1 0x1F AND DUP3 ADD SWAP2 JUMPDEST POP POP POP POP POP DUP2 MSTORE PUSH1 0x20 ADD PUSH1 0x4 DUP3 ADD DUP1 SLOAD PUSH2 0x209F SWAP1 PUSH2 0x554E JUMP JUMPDEST DUP1 PUSH1 0x1F ADD PUSH1 0x20 DUP1 SWAP2 DIV MUL PUSH1 0x20 ADD PUSH1 0x40 MLOAD SWAP1 DUP2 ADD PUSH1 0x40 MSTORE DUP1 SWAP3 SWAP2 SWAP1 DUP2 DUP2 MSTORE PUSH1 0x20 ADD DUP3 DUP1 SLOAD PUSH2 0x20CB SWAP1 PUSH2 0x554E JUMP JUMPDEST DUP1 ISZERO PUSH2 0x2116 JUMPI DUP1 PUSH1 0x1F LT PUSH2 0x20ED JUMPI PUSH2 0x100 DUP1 DUP4 SLOAD DIV MUL DUP4 MSTORE SWAP2 PUSH1 0x20 ADD SWAP2 PUSH2 0x2116 JUMP JUMPDEST DUP3 ADD SWAP2 SWAP1 PUSH0 MSTORE PUSH1 0x20 PUSH0 KECCAK256 SWAP1 JUMPDEST DUP2 SLOAD DUP2 MSTORE SWAP1 PUSH1 0x1 ADD SWAP1 PUSH1 0x20 ADD DUP1 DUP4 GT PUSH2 0x20F9 JUMPI DUP3 SWAP1 SUB PUSH1 0x1F AND DUP3 ADD SWAP2 JUMPDEST POP POP POP POP POP DUP2 MSTORE PUSH1 0x20 ADD PUSH1 0x5 DUP3 ADD DUP1 SLOAD PUSH2 0x212F SWAP1 PUSH2 0x554E JUMP JUMPDEST DUP1 PUSH1 0x1F ADD PUSH1 0x20 DUP1 SWAP2 DIV MUL PUSH1 0x20 ADD PUSH1 0x40 MLOAD SWAP1 DUP2 ADD PUSH1 0x40 MSTORE DUP1 SWAP3 SWAP2 SWAP1 DUP2 DUP2 MSTORE PUSH1 0x20 ADD DUP3 DUP1 SLOAD PUSH2 0x215B SWAP1 PUSH2 0x554E JUMP JUMPDEST DUP1 ISZERO PUSH2 0x21A6 JUMPI DUP1 PUSH1 0x1F LT PUSH2 0x217D JUMPI PUSH2 0x100 DUP1 DUP4 SLOAD DIV MUL DUP4 MSTORE SWAP2 PUSH1 0x20 ADD SWAP2 PUSH2 0x21A6 JUMP JUMPDEST DUP3 ADD SWAP2 SWAP1 PUSH0 MSTORE PUSH1 0x20 PUSH0 KECCAK256 SWAP1 JUMPDEST DUP2 SLOAD DUP2 MSTORE SWAP1 PUSH1 0x1 ADD SWAP1 PUSH1 0x20 ADD DUP1 DUP4 GT PUSH2 0x2189 JUMPI DUP3 SWAP1 SUB PUSH1 0x1F AND DUP3 ADD SWAP2 JUMPDEST POP POP POP POP POP DUP2 MSTORE PUSH1 0x20 ADD PUSH1 0x6 DUP3 ADD DUP1 SLOAD PUSH2 0x21BF SWAP1 PUSH2 0x554E JUMP JUMPDEST DUP1 PUSH1 0x1F ADD PUSH1 0x20 DUP1 SWAP2 DIV MUL PUSH1 0x20 ADD PUSH1 0x40 MLOAD SWAP1 DUP2 ADD PUSH1 0x40 MSTORE DUP1 SWAP3 SWAP2 SWAP1 DUP2 DUP2 MSTORE PUSH1 0x20 ADD DUP3 DUP1 SLOAD PUSH2 0x21EB SWAP1 PUSH2 0x554E JUMP JUMPDEST DUP1 ISZERO PUSH2 0x2236 JUMPI DUP1 PUSH1 0x1F LT PUSH2 0x220D JUMPI PUSH2 0x100 DUP1 DUP4 SLOAD DIV MUL DUP4 MSTORE SWAP2 PUSH1 0x20 ADD SWAP2 PUSH2 0x2236 JUMP JUMPDEST DUP3 ADD SWAP2 SWAP1 PUSH0 MSTORE PUSH1 0x20 PUSH0 KECCAK256 SWAP1 JUMPDEST DUP2 SLOAD DUP2 MSTORE SWAP1 PUSH1 0x1 ADD SWAP1 PUSH1 0x20 ADD DUP1 DUP4 GT PUSH2 0x2219 JUMPI DUP3 SWAP1 SUB PUSH1 0x1F AND DUP3 ADD SWAP2 JUMPDEST POP POP POP POP POP DUP2 MSTORE PUSH1 0x20 ADD PUSH1 0x7 DUP3 ADD DUP1 SLOAD PUSH2 0x224F SWAP1 PUSH2 0x554E JUMP JUMPDEST DUP1 PUSH1 0x1F ADD PUSH1 0x20 DUP1 SWAP2 DIV MUL PUSH1 0x20 ADD PUSH1 0x40 MLOAD SWAP1 DUP2 ADD PUSH1 0x40 MSTORE DUP1 SWAP3 SWAP2 SWAP1 DUP2 DUP2 MSTORE PUSH1 0x20 ADD DUP3 DUP1 SLOAD PUSH2 0x227B SWAP1 PUSH2 0x554E JUMP JUMPDEST DUP1 ISZERO PUSH2 0x22C6 JUMPI DUP1 PUSH1 0x1F LT PUSH2 0x229D JUMPI PUSH2 0x100 DUP1 DUP4 SLOAD DIV MUL DUP4 MSTORE SWAP2 PUSH1 0x20 ADD SWAP2 PUSH2 0x22C6 JUMP JUMPDEST DUP3 ADD SWAP2 SWAP1 PUSH0 MSTORE PUSH1 0x20 PUSH0 KECCAK256 SWAP1 JUMPDEST DUP2 SLOAD DUP2 MSTORE SWAP1 PUSH1 0x1 ADD SWAP1 PUSH1 0x20 ADD DUP1 DUP4 GT PUSH2 0x22A9 JUMPI DUP3 SWAP1 SUB PUSH1 0x1F AND DUP3 ADD SWAP2 JUMPDEST POP POP POP POP POP DUP2 MSTORE PUSH1 0x20 ADD PUSH1 0x8 DUP3 ADD DUP1 SLOAD PUSH2 0x22DF SWAP1 PUSH2 0x554E JUMP JUMPDEST DUP1 PUSH1 0x1F ADD PUSH1 0x20 DUP1 SWAP2 DIV MUL PUSH1 0x20 ADD PUSH1 0x40 MLOAD SWAP1 DUP2 ADD PUSH1 0x40 MSTORE DUP1 SWAP3 SWAP2 SWAP1 DUP2 DUP2 MSTORE PUSH1 0x20 ADD DUP3 DUP1 SLOAD PUSH2 0x230B SWAP1 PUSH2 0x554E JUMP JUMPDEST DUP1 ISZERO PUSH2 0x2356 JUMPI DUP1 PUSH1 0x1F LT PUSH2 0x232D JUMPI PUSH2 0x100 DUP1 DUP4 SLOAD DIV MUL DUP4 MSTORE SWAP2 PUSH1 0x20 ADD SWAP2 PUSH2 0x2356 JUMP JUMPDEST DUP3 ADD SWAP2 SWAP1 PUSH0 MSTORE PUSH1 0x20 PUSH0 KECCAK256 SWAP1 JUMPDEST DUP2 SLOAD DUP2 MSTORE SWAP1 PUSH1 0x1 ADD SWAP1 PUSH1 0x20 ADD DUP1 DUP4 GT PUSH2 0x2339 JUMPI DUP3 SWAP1 SUB PUSH1 0x1F AND DUP3 ADD SWAP2 JUMPDEST POP POP POP POP POP DUP2 MSTORE PUSH1 0x20 ADD PUSH1 0x9 DUP3 ADD DUP1 SLOAD PUSH2 0x236F SWAP1 PUSH2 0x554E JUMP JUMPDEST DUP1 PUSH1 0x1F ADD PUSH1 0x20 DUP1 SWAP2 DIV MUL PUSH1 0x20 ADD PUSH1 0x40 MLOAD SWAP1 DUP2 ADD PUSH1 0x40 MSTORE DUP1 SWAP3 SWAP2 SWAP1 DUP2 DUP2 MSTORE PUSH1 0x20 ADD DUP3 DUP1 SLOAD PUSH2 0x239B SWAP1 PUSH2 0x554E JUMP JUMPDEST DUP1 ISZERO PUSH2 0x23E6 JUMPI DUP1 PUSH1 0x1F LT PUSH2 0x23BD JUMPI PUSH2 0x100 DUP1 DUP4 SLOAD DIV MUL DUP4 MSTORE SWAP2 PUSH1 0x20 ADD SWAP2 PUSH2 0x23E6 JUMP JUMPDEST DUP3 ADD SWAP2 SWAP1 PUSH0 MSTORE PUSH1 0x20 PUSH0 KECCAK256 SWAP1 JUMPDEST DUP2 SLOAD DUP2 MSTORE SWAP1 PUSH1 0x1 ADD SWAP1 PUSH1 0x20 ADD DUP1 DUP4 GT PUSH2 0x23C9 JUMPI DUP3 SWAP1 SUB PUSH1 0x1F AND DUP3 ADD SWAP2 JUMPDEST POP POP POP POP POP DUP2 MSTORE POP POP DUP15 PUSH2 0x3900 JUMP JUMPDEST PUSH2 0x2403 PUSH1 0x4 DUP11 DUP11 DUP5 DUP11 PUSH2 0x3C9E JUMP JUMPDEST PUSH2 0x240E PUSH1 0x3 DUP6 PUSH2 0x3E86 JUMP JUMPDEST POP POP PUSH2 0x24CC JUMP JUMPDEST DUP1 PUSH0 SIGNEXTEND PUSH0 SUB PUSH2 0x2436 JUMPI PUSH2 0x2403 PUSH1 0x5 PUSH1 0x3 DUP7 DUP2 SLOAD DUP2 LT PUSH2 0x1C6A JUMPI PUSH2 0x1C6A PUSH2 0x559F JUMP JUMPDEST PUSH2 0x244E PUSH1 0x5 PUSH1 0x3 DUP7 DUP2 SLOAD DUP2 LT PUSH2 0x1C6A JUMPI PUSH2 0x1C6A PUSH2 0x559F JUMP JUMPDEST PUSH2 0x2478 DUP2 PUSH32 0xFFFFFFFFFFFFFFFFFFFFFFFFFFFFFFFFFFFFFFFFFFFFFFFFFFFFFFFFFFFFFFFF PUSH2 0x5819 JUMP JUMPDEST PUSH1 0x3 DUP6 DUP2 SLOAD DUP2 LT PUSH2 0x248B JUMPI PUSH2 0x248B PUSH2 0x559F JUMP JUMPDEST SWAP1 PUSH0 MSTORE PUSH1 0x20 PUSH0 KECCAK256 SWAP1 PUSH1 0xF MUL ADD PUSH1 0x4 ADD PUSH0 PUSH2 0x100 EXP DUP2 SLOAD DUP2 PUSH1 0xFF MUL NOT AND SWAP1 DUP4 PUSH1 0xFF AND MUL OR SWAP1 SSTORE POP POP POP PUSH2 0x24CC JUMP JUMPDEST POP JUMPDEST DUP1 PUSH2 0x24C4 DUP2 PUSH2 0x5835 JUMP JUMPDEST SWAP2 POP POP PUSH2 0x1AB9 JUMP JUMPDEST POP JUMPDEST PUSH1 0x1 ADD PUSH2 0x1A69 JUMP JUMPDEST POP DUP1 PUSH2 0x19CA JUMPI PUSH2 0x19CA PUSH1 0x4 DUP7 DUP7 DUP7 DUP7 PUSH2 0x3C9E JUMP JUMPDEST DUP1 DUP3 EQ PUSH2 0x2557 JUMPI PUSH1 0x40 MLOAD PUSH32 0x8C379A000000000000000000000000000000000000000000000000000000000 DUP2 MSTORE PUSH1 0x20 PUSH1 0x4 DUP3 ADD MSTORE PUSH1 0xF PUSH1 0x24 DUP3 ADD MSTORE PUSH32 0x57726F6E672050617373776F7264210000000000000000000000000000000000 PUSH1 0x44 DUP3 ADD MSTORE PUSH1 0x64 ADD PUSH1 0x40 MLOAD DUP1 SWAP2 SUB SWAP1 REVERT JUMPDEST POP POP JUMP JUMPDEST PUSH1 0x60 PUSH1 0x5 DUP1 SLOAD DUP1 PUSH1 0x20 MUL PUSH1 0x20 ADD PUSH1 0x40 MLOAD SWAP1 DUP2 ADD PUSH1 0x40 MSTORE DUP1 SWAP3 SWAP2 SWAP1 DUP2 DUP2 MSTORE PUSH1 0x20 ADD PUSH0 SWAP1 JUMPDEST DUP3 DUP3 LT ISZERO PUSH2 0x3474 JUMPI PUSH0 DUP5 DUP2 MSTORE PUSH1 0x20 SWAP1 KECCAK256 PUSH1 0x40 DUP1 MLOAD PUSH2 0x180 DUP2 ADD SWAP1 SWAP2 MSTORE PUSH1 0x1C DUP5 MUL SWAP1 SWAP2 ADD DUP1 SLOAD DUP3 SWAP1 PUSH2 0x100 DUP3 ADD SWAP1 DUP4 SWAP1 DUP3 SWAP1 DUP3 SWAP1 PUSH2 0x25BA SWAP1 PUSH2 0x554E JUMP JUMPDEST DUP1 PUSH1 0x1F ADD PUSH1 0x20 DUP1 SWAP2 DIV MUL PUSH1 0x20 ADD PUSH1 0x40 MLOAD SWAP1 DUP2 ADD PUSH1 0x40 MSTORE DUP1 SWAP3 SWAP2 SWAP1 DUP2 DUP2 MSTORE PUSH1 0x20 ADD DUP3 DUP1 SLOAD PUSH2 0x25E6 SWAP1 PUSH2 0x554E JUMP JUMPDEST DUP1 ISZERO PUSH2 0x2631 JUMPI DUP1 PUSH1 0x1F LT PUSH2 0x2608 JUMPI PUSH2 0x100 DUP1 DUP4 SLOAD DIV MUL DUP4 MSTORE SWAP2 PUSH1 0x20 ADD SWAP2 PUSH2 0x2631 JUMP JUMPDEST DUP3 ADD SWAP2 SWAP1 PUSH0 MSTORE PUSH1 0x20 PUSH0 KECCAK256 SWAP1 JUMPDEST DUP2 SLOAD DUP2 MSTORE SWAP1 PUSH1 0x1 ADD SWAP1 PUSH1 0x20 ADD DUP1 DUP4 GT PUSH2 0x2614 JUMPI DUP3 SWAP1 SUB PUSH1 0x1F AND DUP3 ADD SWAP2 JUMPDEST POP POP POP SWAP2 DUP4 MSTORE POP POP PUSH1 0x1 DUP3 ADD SLOAD PUSH1 0xFF DUP1 DUP3 AND PUSH1 0x20 DUP5 ADD MSTORE PUSH2 0x100 SWAP1 SWAP2 DIV AND PUSH1 0x40 DUP3 ADD MSTORE PUSH1 0x2 DUP3 ADD DUP1 SLOAD PUSH1 0x60 SWAP1 SWAP3 ADD SWAP2 PUSH2 0x2669 SWAP1 PUSH2 0x554E JUMP JUMPDEST DUP1 PUSH1 0x1F ADD PUSH1 0x20 DUP1 SWAP2 DIV MUL PUSH1 0x20 ADD PUSH1 0x40 MLOAD SWAP1 DUP2 ADD PUSH1 0x40 MSTORE DUP1 SWAP3 SWAP2 SWAP1 DUP2 DUP2 MSTORE PUSH1 0x20 ADD DUP3 DUP1 SLOAD PUSH2 0x2695 SWAP1 PUSH2 0x554E JUMP JUMPDEST DUP1 ISZERO PUSH2 0x26E0 JUMPI DUP1 PUSH1 0x1F LT PUSH2 0x26B7 JUMPI PUSH2 0x100 DUP1 DUP4 SLOAD DIV MUL DUP4 MSTORE SWAP2 PUSH1 0x20 ADD SWAP2 PUSH2 0x26E0 JUMP JUMPDEST DUP3 ADD SWAP2 SWAP1 PUSH0 MSTORE PUSH1 0x20 PUSH0 KECCAK256 SWAP1 JUMPDEST DUP2 SLOAD DUP2 MSTORE SWAP1 PUSH1 0x1 ADD SWAP1 PUSH1 0x20 ADD DUP1 DUP4 GT PUSH2 0x26C3 JUMPI DUP3 SWAP1 SUB PUSH1 0x1F AND DUP3 ADD SWAP2 JUMPDEST POP POP POP POP POP DUP2 MSTORE POP POP DUP2 MSTORE PUSH1 0x20 ADD PUSH1 0x3 DUP3 ADD PUSH1 0x40 MLOAD DUP1 PUSH1 0x80 ADD PUSH1 0x40 MSTORE SWAP1 DUP2 PUSH0 DUP3 ADD DUP1 SLOAD PUSH2 0x270C SWAP1 PUSH2 0x554E JUMP JUMPDEST DUP1 PUSH1 0x1F ADD PUSH1 0x20 DUP1 SWAP2 DIV MUL PUSH1 0x20 ADD PUSH1 0x40 MLOAD SWAP1 DUP2 ADD PUSH1 0x40 MSTORE DUP1 SWAP3 SWAP2 SWAP1 DUP2 DUP2 MSTORE PUSH1 0x20 ADD DUP3 DUP1 SLOAD PUSH2 0x2738 SWAP1 PUSH2 0x554E JUMP JUMPDEST DUP1 ISZERO PUSH2 0x2783 JUMPI DUP1 PUSH1 0x1F LT PUSH2 0x275A JUMPI PUSH2 0x100 DUP1 DUP4 SLOAD DIV MUL DUP4 MSTORE SWAP2 PUSH1 0x20 ADD SWAP2 PUSH2 0x2783 JUMP JUMPDEST DUP3 ADD SWAP2 SWAP1 PUSH0 MSTORE PUSH1 0x20 PUSH0 KECCAK256 SWAP1 JUMPDEST DUP2 SLOAD DUP2 MSTORE SWAP1 PUSH1 0x1 ADD SWAP1 PUSH1 0x20 ADD DUP1 DUP4 GT PUSH2 0x2766 JUMPI DUP3 SWAP1 SUB PUSH1 0x1F AND DUP3 ADD SWAP2 JUMPDEST POP POP POP SWAP2 DUP4 MSTORE POP POP PUSH1 0x1 DUP3 ADD SLOAD PUSH1 0xFF DUP1 DUP3 AND PUSH1 0x20 DUP5 ADD MSTORE PUSH2 0x100 SWAP1 SWAP2 DIV AND PUSH1 0x40 DUP3 ADD MSTORE PUSH1 0x2 DUP3 ADD DUP1 SLOAD PUSH1 0x60 SWAP1 SWAP3 ADD SWAP2 PUSH2 0x27BB SWAP1 PUSH2 0x554E JUMP JUMPDEST DUP1 PUSH1 0x1F ADD PUSH1 0x20 DUP1 SWAP2 DIV MUL PUSH1 0x20 ADD PUSH1 0x40 MLOAD SWAP1 DUP2 ADD PUSH1 0x40 MSTORE DUP1 SWAP3 SWAP2 SWAP1 DUP2 DUP2 MSTORE PUSH1 0x20 ADD DUP3 DUP1 SLOAD PUSH2 0x27E7 SWAP1 PUSH2 0x554E JUMP JUMPDEST DUP1 ISZERO PUSH2 0x2832 JUMPI DUP1 PUSH1 0x1F LT PUSH2 0x2809 JUMPI PUSH2 0x100 DUP1 DUP4 SLOAD DIV MUL DUP4 MSTORE SWAP2 PUSH1 0x20 ADD SWAP2 PUSH2 0x2832 JUMP JUMPDEST DUP3 ADD SWAP2 SWAP1 PUSH0 MSTORE PUSH1 0x20 PUSH0 KECCAK256 SWAP1 JUMPDEST DUP2 SLOAD DUP2 MSTORE SWAP1 PUSH1 0x1 ADD SWAP1 PUSH1 0x20 ADD DUP1 DUP4 GT PUSH2 0x2815 JUMPI DUP3 SWAP1 SUB PUSH1 0x1F AND DUP3 ADD SWAP2 JUMPDEST POP POP POP POP POP DUP2 MSTORE POP POP DUP2 MSTORE PUSH1 0x20 ADD PUSH1 0x6 DUP3 ADD DUP1 SLOAD PUSH2 0x284F SWAP1 PUSH2 0x554E JUMP JUMPDEST DUP1 PUSH1 0x1F ADD PUSH1 0x20 DUP1 SWAP2 DIV MUL PUSH1 0x20 ADD PUSH1 0x40 MLOAD SWAP1 DUP2 ADD PUSH1 0x40 MSTORE DUP1 SWAP3 SWAP2 SWAP1 DUP2 DUP2 MSTORE PUSH1 0x20 ADD DUP3 DUP1 SLOAD PUSH2 0x287B SWAP1 PUSH2 0x554E JUMP JUMPDEST DUP1 ISZERO PUSH2 0x28C6 JUMPI DUP1 PUSH1 0x1F LT PUSH2 0x289D JUMPI PUSH2 0x100 DUP1 DUP4 SLOAD DIV MUL DUP4 MSTORE SWAP2 PUSH1 0x20 ADD SWAP2 PUSH2 0x28C6 JUMP JUMPDEST DUP3 ADD SWAP2 SWAP1 PUSH0 MSTORE PUSH1 0x20 PUSH0 KECCAK256 SWAP1 JUMPDEST DUP2 SLOAD DUP2 MSTORE SWAP1 PUSH1 0x1 ADD SWAP1 PUSH1 0x20 ADD DUP1 DUP4 GT PUSH2 0x28A9 JUMPI DUP3 SWAP1 SUB PUSH1 0x1F AND DUP3 ADD SWAP2 JUMPDEST POP POP POP SWAP2 DUP4 MSTORE POP POP PUSH1 0x7 DUP3 ADD SLOAD PUSH1 0xFF DUP1 DUP3 AND PUSH1 0x20 DUP5 ADD MSTORE PUSH2 0x100 DUP3 DIV DUP2 AND PUSH1 0x40 DUP1 DUP6 ADD SWAP2 SWAP1 SWAP2 MSTORE PUSH3 0x10000 SWAP1 SWAP3 DIV AND PUSH1 0x60 DUP4 ADD MSTORE DUP1 MLOAD PUSH2 0x140 DUP2 ADD SWAP1 SWAP2 MSTORE PUSH1 0x8 DUP4 ADD DUP1 SLOAD PUSH1 0x80 SWAP1 SWAP4 ADD SWAP3 DUP3 SWAP1 DUP3 SWAP1 PUSH2 0x291D SWAP1 PUSH2 0x554E JUMP JUMPDEST DUP1 PUSH1 0x1F ADD PUSH1 0x20 DUP1 SWAP2 DIV MUL PUSH1 0x20 ADD PUSH1 0x40 MLOAD SWAP1 DUP2 ADD PUSH1 0x40 MSTORE DUP1 SWAP3 SWAP2 SWAP1 DUP2 DUP2 MSTORE PUSH1 0x20 ADD DUP3 DUP1 SLOAD PUSH2 0x2949 SWAP1 PUSH2 0x554E JUMP JUMPDEST DUP1 ISZERO PUSH2 0x2994 JUMPI DUP1 PUSH1 0x1F LT PUSH2 0x296B JUMPI PUSH2 0x100 DUP1 DUP4 SLOAD DIV MUL DUP4 MSTORE SWAP2 PUSH1 0x20 ADD SWAP2 PUSH2 0x2994 JUMP JUMPDEST DUP3 ADD SWAP2 SWAP1 PUSH0 MSTORE PUSH1 0x20 PUSH0 KECCAK256 SWAP1 JUMPDEST DUP2 SLOAD DUP2 MSTORE SWAP1 PUSH1 0x1 ADD SWAP1 PUSH1 0x20 ADD DUP1 DUP4 GT PUSH2 0x2977 JUMPI DUP3 SWAP1 SUB PUSH1 0x1F AND DUP3 ADD SWAP2 JUMPDEST POP POP POP POP POP DUP2 MSTORE PUSH1 0x20 ADD PUSH1 0x1 DUP3 ADD DUP1 SLOAD PUSH2 0x29AD SWAP1 PUSH2 0x554E JUMP JUMPDEST DUP1 PUSH1 0x1F ADD PUSH1 0x20 DUP1 SWAP2 DIV MUL PUSH1 0x20 ADD PUSH1 0x40 MLOAD SWAP1 DUP2 ADD PUSH1 0x40 MSTORE DUP1 SWAP3 SWAP2 SWAP1 DUP2 DUP2 MSTORE PUSH1 0x20 ADD DUP3 DUP1 SLOAD PUSH2 0x29D9 SWAP1 PUSH2 0x554E JUMP JUMPDEST DUP1 ISZERO PUSH2 0x2A24 JUMPI DUP1 PUSH1 0x1F LT PUSH2 0x29FB JUMPI PUSH2 0x100 DUP1 DUP4 SLOAD DIV MUL DUP4 MSTORE SWAP2 PUSH1 0x20 ADD SWAP2 PUSH2 0x2A24 JUMP JUMPDEST DUP3 ADD SWAP2 SWAP1 PUSH0 MSTORE PUSH1 0x20 PUSH0 KECCAK256 SWAP1 JUMPDEST DUP2 SLOAD DUP2 MSTORE SWAP1 PUSH1 0x1 ADD SWAP1 PUSH1 0x20 ADD DUP1 DUP4 GT PUSH2 0x2A07 JUMPI DUP3 SWAP1 SUB PUSH1 0x1F AND DUP3 ADD SWAP2 JUMPDEST POP POP POP POP POP DUP2 MSTORE PUSH1 0x20 ADD PUSH1 0x2 DUP3 ADD DUP1 SLOAD PUSH2 0x2A3D SWAP1 PUSH2 0x554E JUMP JUMPDEST DUP1 PUSH1 0x1F ADD PUSH1 0x20 DUP1 SWAP2 DIV MUL PUSH1 0x20 ADD PUSH1 0x40 MLOAD SWAP1 DUP2 ADD PUSH1 0x40 MSTORE DUP1 SWAP3 SWAP2 SWAP1 DUP2 DUP2 MSTORE PUSH1 0x20 ADD DUP3 DUP1 SLOAD PUSH2 0x2A69 SWAP1 PUSH2 0x554E JUMP JUMPDEST DUP1 ISZERO PUSH2 0x2AB4 JUMPI DUP1 PUSH1 0x1F LT PUSH2 0x2A8B JUMPI PUSH2 0x100 DUP1 DUP4 SLOAD DIV MUL DUP4 MSTORE SWAP2 PUSH1 0x20 ADD SWAP2 PUSH2 0x2AB4 JUMP JUMPDEST DUP3 ADD SWAP2 SWAP1 PUSH0 MSTORE PUSH1 0x20 PUSH0 KECCAK256 SWAP1 JUMPDEST DUP2 SLOAD DUP2 MSTORE SWAP1 PUSH1 0x1 ADD SWAP1 PUSH1 0x20 ADD DUP1 DUP4 GT PUSH2 0x2A97 JUMPI DUP3 SWAP1 SUB PUSH1 0x1F AND DUP3 ADD SWAP2 JUMPDEST POP POP POP POP POP DUP2 MSTORE PUSH1 0x20 ADD PUSH1 0x3 DUP3 ADD DUP1 SLOAD PUSH2 0x2ACD SWAP1 PUSH2 0x554E JUMP JUMPDEST DUP1 PUSH1 0x1F ADD PUSH1 0x20 DUP1 SWAP2 DIV MUL PUSH1 0x20 ADD PUSH1 0x40 MLOAD SWAP1 DUP2 ADD PUSH1 0x40 MSTORE DUP1 SWAP3 SWAP2 SWAP1 DUP2 DUP2 MSTORE PUSH1 0x20 ADD DUP3 DUP1 SLOAD PUSH2 0x2AF9 SWAP1 PUSH2 0x554E JUMP JUMPDEST DUP1 ISZERO PUSH2 0x2B44 JUMPI DUP1 PUSH1 0x1F LT PUSH2 0x2B1B JUMPI PUSH2 0x100 DUP1 DUP4 SLOAD DIV MUL DUP4 MSTORE SWAP2 PUSH1 0x20 ADD SWAP2 PUSH2 0x2B44 JUMP JUMPDEST DUP3 ADD SWAP2 SWAP1 PUSH0 MSTORE PUSH1 0x20 PUSH0 KECCAK256 SWAP1 JUMPDEST DUP2 SLOAD DUP2 MSTORE SWAP1 PUSH1 0x1 ADD SWAP1 PUSH1 0x20 ADD DUP1 DUP4 GT PUSH2 0x2B27 JUMPI DUP3 SWAP1 SUB PUSH1 0x1F AND DUP3 ADD SWAP2 JUMPDEST POP POP POP POP POP DUP2 MSTORE PUSH1 0x20 ADD PUSH1 0x4 DUP3 ADD DUP1 SLOAD PUSH2 0x2B5D SWAP1 PUSH2 0x554E JUMP JUMPDEST DUP1 PUSH1 0x1F ADD PUSH1 0x20 DUP1 SWAP2 DIV MUL PUSH1 0x20 ADD PUSH1 0x40 MLOAD SWAP1 DUP2 ADD PUSH1 0x40 MSTORE DUP1 SWAP3 SWAP2 SWAP1 DUP2 DUP2 MSTORE PUSH1 0x20 ADD DUP3 DUP1 SLOAD PUSH2 0x2B89 SWAP1 PUSH2 0x554E JUMP JUMPDEST DUP1 ISZERO PUSH2 0x2BD4 JUMPI DUP1 PUSH1 0x1F LT PUSH2 0x2BAB JUMPI PUSH2 0x100 DUP1 DUP4 SLOAD DIV MUL DUP4 MSTORE SWAP2 PUSH1 0x20 ADD SWAP2 PUSH2 0x2BD4 JUMP JUMPDEST DUP3 ADD SWAP2 SWAP1 PUSH0 MSTORE PUSH1 0x20 PUSH0 KECCAK256 SWAP1 JUMPDEST DUP2 SLOAD DUP2 MSTORE SWAP1 PUSH1 0x1 ADD SWAP1 PUSH1 0x20 ADD DUP1 DUP4 GT PUSH2 0x2BB7 JUMPI DUP3 SWAP1 SUB PUSH1 0x1F AND DUP3 ADD SWAP2 JUMPDEST POP POP POP POP POP DUP2 MSTORE PUSH1 0x20 ADD PUSH1 0x5 DUP3 ADD DUP1 SLOAD PUSH2 0x2BED SWAP1 PUSH2 0x554E JUMP JUMPDEST DUP1 PUSH1 0x1F ADD PUSH1 0x20 DUP1 SWAP2 DIV MUL PUSH1 0x20 ADD PUSH1 0x40 MLOAD SWAP1 DUP2 ADD PUSH1 0x40 MSTORE DUP1 SWAP3 SWAP2 SWAP1 DUP2 DUP2 MSTORE PUSH1 0x20 ADD DUP3 DUP1 SLOAD PUSH2 0x2C19 SWAP1 PUSH2 0x554E JUMP JUMPDEST DUP1 ISZERO PUSH2 0x2C64 JUMPI DUP1 PUSH1 0x1F LT PUSH2 0x2C3B JUMPI PUSH2 0x100 DUP1 DUP4 SLOAD DIV MUL DUP4 MSTORE SWAP2 PUSH1 0x20 ADD SWAP2 PUSH2 0x2C64 JUMP JUMPDEST DUP3 ADD SWAP2 SWAP1 PUSH0 MSTORE PUSH1 0x20 PUSH0 KECCAK256 SWAP1 JUMPDEST DUP2 SLOAD DUP2 MSTORE SWAP1 PUSH1 0x1 ADD SWAP1 PUSH1 0x20 ADD DUP1 DUP4 GT PUSH2 0x2C47 JUMPI DUP3 SWAP1 SUB PUSH1 0x1F AND DUP3 ADD SWAP2 JUMPDEST POP POP POP POP POP DUP2 MSTORE PUSH1 0x20 ADD PUSH1 0x6 DUP3 ADD DUP1 SLOAD PUSH2 0x2C7D SWAP1 PUSH2 0x554E JUMP JUMPDEST DUP1 PUSH1 0x1F ADD PUSH1 0x20 DUP1 SWAP2 DIV MUL PUSH1 0x20 ADD PUSH1 0x40 MLOAD SWAP1 DUP2 ADD PUSH1 0x40 MSTORE DUP1 SWAP3 SWAP2 SWAP1 DUP2 DUP2 MSTORE PUSH1 0x20 ADD DUP3 DUP1 SLOAD PUSH2 0x2CA9 SWAP1 PUSH2 0x554E JUMP JUMPDEST DUP1 ISZERO PUSH2 0x2CF4 JUMPI DUP1 PUSH1 0x1F LT PUSH2 0x2CCB JUMPI PUSH2 0x100 DUP1 DUP4 SLOAD DIV MUL DUP4 MSTORE SWAP2 PUSH1 0x20 ADD SWAP2 PUSH2 0x2CF4 JUMP JUMPDEST DUP3 ADD SWAP2 SWAP1 PUSH0 MSTORE PUSH1 0x20 PUSH0 KECCAK256 SWAP1 JUMPDEST DUP2 SLOAD DUP2 MSTORE SWAP1 PUSH1 0x1 ADD SWAP1 PUSH1 0x20 ADD DUP1 DUP4 GT PUSH2 0x2CD7 JUMPI DUP3 SWAP1 SUB PUSH1 0x1F AND DUP3 ADD SWAP2 JUMPDEST POP POP POP POP POP DUP2 MSTORE PUSH1 0x20 ADD PUSH1 0x7 DUP3 ADD DUP1 SLOAD PUSH2 0x2D0D SWAP1 PUSH2 0x554E JUMP JUMPDEST DUP1 PUSH1 0x1F ADD PUSH1 0x20 DUP1 SWAP2 DIV MUL PUSH1 0x20 ADD PUSH1 0x40 MLOAD SWAP1 DUP2 ADD PUSH1 0x40 MSTORE DUP1 SWAP3 SWAP2 SWAP1 DUP2 DUP2 MSTORE PUSH1 0x20 ADD DUP3 DUP1 SLOAD PUSH2 0x2D39 SWAP1 PUSH2 0x554E JUMP JUMPDEST DUP1 ISZERO PUSH2 0x2D84 JUMPI DUP1 PUSH1 0x1F LT PUSH2 0x2D5B JUMPI PUSH2 0x100 DUP1 DUP4 SLOAD DIV MUL DUP4 MSTORE SWAP2 PUSH1 0x20 ADD SWAP2 PUSH2 0x2D84 JUMP JUMPDEST DUP3 ADD SWAP2 SWAP1 PUSH0 MSTORE PUSH1 0x20 PUSH0 KECCAK256 SWAP1 JUMPDEST DUP2 SLOAD DUP2 MSTORE SWAP1 PUSH1 0x1 ADD SWAP1 PUSH1 0x20 ADD DUP1 DUP4 GT PUSH2 0x2D67 JUMPI DUP3 SWAP1 SUB PUSH1 0x1F AND DUP3 ADD SWAP2 JUMPDEST POP POP POP POP POP DUP2 MSTORE PUSH1 0x20 ADD PUSH1 0x8 DUP3 ADD DUP1 SLOAD PUSH2 0x2D9D SWAP1 PUSH2 0x554E JUMP JUMPDEST DUP1 PUSH1 0x1F ADD PUSH1 0x20 DUP1 SWAP2 DIV MUL PUSH1 0x20 ADD PUSH1 0x40 MLOAD SWAP1 DUP2 ADD PUSH1 0x40 MSTORE DUP1 SWAP3 SWAP2 SWAP1 DUP2 DUP2 MSTORE PUSH1 0x20 ADD DUP3 DUP1 SLOAD PUSH2 0x2DC9 SWAP1 PUSH2 0x554E JUMP JUMPDEST DUP1 ISZERO PUSH2 0x2E14 JUMPI DUP1 PUSH1 0x1F LT PUSH2 0x2DEB JUMPI PUSH2 0x100 DUP1 DUP4 SLOAD DIV MUL DUP4 MSTORE SWAP2 PUSH1 0x20 ADD SWAP2 PUSH2 0x2E14 JUMP JUMPDEST DUP3 ADD SWAP2 SWAP1 PUSH0 MSTORE PUSH1 0x20 PUSH0 KECCAK256 SWAP1 JUMPDEST DUP2 SLOAD DUP2 MSTORE SWAP1 PUSH1 0x1 ADD SWAP1 PUSH1 0x20 ADD DUP1 DUP4 GT PUSH2 0x2DF7 JUMPI DUP3 SWAP1 SUB PUSH1 0x1F AND DUP3 ADD SWAP2 JUMPDEST POP POP POP POP POP DUP2 MSTORE PUSH1 0x20 ADD PUSH1 0x9 DUP3 ADD DUP1 SLOAD PUSH2 0x2E2D SWAP1 PUSH2 0x554E JUMP JUMPDEST DUP1 PUSH1 0x1F ADD PUSH1 0x20 DUP1 SWAP2 DIV MUL PUSH1 0x20 ADD PUSH1 0x40 MLOAD SWAP1 DUP2 ADD PUSH1 0x40 MSTORE DUP1 SWAP3 SWAP2 SWAP1 DUP2 DUP2 MSTORE PUSH1 0x20 ADD DUP3 DUP1 SLOAD PUSH2 0x2E59 SWAP1 PUSH2 0x554E JUMP JUMPDEST DUP1 ISZERO PUSH2 0x2EA4 JUMPI DUP1 PUSH1 0x1F LT PUSH2 0x2E7B JUMPI PUSH2 0x100 DUP1 DUP4 SLOAD DIV MUL DUP4 MSTORE SWAP2 PUSH1 0x20 ADD SWAP2 PUSH2 0x2EA4 JUMP JUMPDEST DUP3 ADD SWAP2 SWAP1 PUSH0 MSTORE PUSH1 0x20 PUSH0 KECCAK256 SWAP1 JUMPDEST DUP2 SLOAD DUP2 MSTORE SWAP1 PUSH1 0x1 ADD SWAP1 PUSH1 0x20 ADD DUP1 DUP4 GT PUSH2 0x2E87 JUMPI DUP3 SWAP1 SUB PUSH1 0x1F AND DUP3 ADD SWAP2 JUMPDEST POP POP POP POP POP DUP2 MSTORE POP POP DUP2 MSTORE PUSH1 0x20 ADD PUSH1 0x12 DUP3 ADD PUSH1 0x40 MLOAD DUP1 PUSH2 0x140 ADD PUSH1 0x40 MSTORE SWAP1 DUP2 PUSH0 DUP3 ADD DUP1 SLOAD PUSH2 0x2ED1 SWAP1 PUSH2 0x554E JUMP JUMPDEST DUP1 PUSH1 0x1F ADD PUSH1 0x20 DUP1 SWAP2 DIV MUL PUSH1 0x20 ADD PUSH1 0x40 MLOAD SWAP1 DUP2 ADD PUSH1 0x40 MSTORE DUP1 SWAP3 SWAP2 SWAP1 DUP2 DUP2 MSTORE PUSH1 0x20 ADD DUP3 DUP1 SLOAD PUSH2 0x2EFD SWAP1 PUSH2 0x554E JUMP JUMPDEST DUP1 ISZERO PUSH2 0x2F48 JUMPI DUP1 PUSH1 0x1F LT PUSH2 0x2F1F JUMPI PUSH2 0x100 DUP1 DUP4 SLOAD DIV MUL DUP4 MSTORE SWAP2 PUSH1 0x20 ADD SWAP2 PUSH2 0x2F48 JUMP JUMPDEST DUP3 ADD SWAP2 SWAP1 PUSH0 MSTORE PUSH1 0x20 PUSH0 KECCAK256 SWAP1 JUMPDEST DUP2 SLOAD DUP2 MSTORE SWAP1 PUSH1 0x1 ADD SWAP1 PUSH1 0x20 ADD DUP1 DUP4 GT PUSH2 0x2F2B JUMPI DUP3 SWAP1 SUB PUSH1 0x1F AND DUP3 ADD SWAP2 JUMPDEST POP POP POP POP POP DUP2 MSTORE PUSH1 0x20 ADD PUSH1 0x1 DUP3 ADD DUP1 SLOAD PUSH2 0x2F61 SWAP1 PUSH2 0x554E JUMP JUMPDEST DUP1 PUSH1 0x1F ADD PUSH1 0x20 DUP1 SWAP2 DIV MUL PUSH1 0x20 ADD PUSH1 0x40 MLOAD SWAP1 DUP2 ADD PUSH1 0x40 MSTORE DUP1 SWAP3 SWAP2 SWAP1 DUP2 DUP2 MSTORE PUSH1 0x20 ADD DUP3 DUP1 SLOAD PUSH2 0x2F8D SWAP1 PUSH2 0x554E JUMP JUMPDEST DUP1 ISZERO PUSH2 0x2FD8 JUMPI DUP1 PUSH1 0x1F LT PUSH2 0x2FAF JUMPI PUSH2 0x100 DUP1 DUP4 SLOAD DIV MUL DUP4 MSTORE SWAP2 PUSH1 0x20 ADD SWAP2 PUSH2 0x2FD8 JUMP JUMPDEST DUP3 ADD SWAP2 SWAP1 PUSH0 MSTORE PUSH1 0x20 PUSH0 KECCAK256 SWAP1 JUMPDEST DUP2 SLOAD DUP2 MSTORE SWAP1 PUSH1 0x1 ADD SWAP1 PUSH1 0x20 ADD DUP1 DUP4 GT PUSH2 0x2FBB JUMPI DUP3 SWAP1 SUB PUSH1 0x1F AND DUP3 ADD SWAP2 JUMPDEST POP POP POP POP POP DUP2 MSTORE PUSH1 0x20 ADD PUSH1 0x2 DUP3 ADD DUP1 SLOAD PUSH2 0x2FF1 SWAP1 PUSH2 0x554E JUMP JUMPDEST DUP1 PUSH1 0x1F ADD PUSH1 0x20 DUP1 SWAP2 DIV MUL PUSH1 0x20 ADD PUSH1 0x40 MLOAD SWAP1 DUP2 ADD PUSH1 0x40 MSTORE DUP1 SWAP3 SWAP2 SWAP1 DUP2 DUP2 MSTORE PUSH1 0x20 ADD DUP3 DUP1 SLOAD PUSH2 0x301D SWAP1 PUSH2 0x554E JUMP JUMPDEST DUP1 ISZERO PUSH2 0x3068 JUMPI DUP1 PUSH1 0x1F LT PUSH2 0x303F JUMPI PUSH2 0x100 DUP1 DUP4 SLOAD DIV MUL DUP4 MSTORE SWAP2 PUSH1 0x20 ADD SWAP2 PUSH2 0x3068 JUMP JUMPDEST DUP3 ADD SWAP2 SWAP1 PUSH0 MSTORE PUSH1 0x20 PUSH0 KECCAK256 SWAP1 JUMPDEST DUP2 SLOAD DUP2 MSTORE SWAP1 PUSH1 0x1 ADD SWAP1 PUSH1 0x20 ADD DUP1 DUP4 GT PUSH2 0x304B JUMPI DUP3 SWAP1 SUB PUSH1 0x1F AND DUP3 ADD SWAP2 JUMPDEST POP POP POP POP POP DUP2 MSTORE PUSH1 0x20 ADD PUSH1 0x3 DUP3 ADD DUP1 SLOAD PUSH2 0x3081 SWAP1 PUSH2 0x554E JUMP JUMPDEST DUP1 PUSH1 0x1F ADD PUSH1 0x20 DUP1 SWAP2 DIV MUL PUSH1 0x20 ADD PUSH1 0x40 MLOAD SWAP1 DUP2 ADD PUSH1 0x40 MSTORE DUP1 SWAP3 SWAP2 SWAP1 DUP2 DUP2 MSTORE PUSH1 0x20 ADD DUP3 DUP1 SLOAD PUSH2 0x30AD SWAP1 PUSH2 0x554E JUMP JUMPDEST DUP1 ISZERO PUSH2 0x30F8 JUMPI DUP1 PUSH1 0x1F LT PUSH2 0x30CF JUMPI PUSH2 0x100 DUP1 DUP4 SLOAD DIV MUL DUP4 MSTORE SWAP2 PUSH1 0x20 ADD SWAP2 PUSH2 0x30F8 JUMP JUMPDEST DUP3 ADD SWAP2 SWAP1 PUSH0 MSTORE PUSH1 0x20 PUSH0 KECCAK256 SWAP1 JUMPDEST DUP2 SLOAD DUP2 MSTORE SWAP1 PUSH1 0x1 ADD SWAP1 PUSH1 0x20 ADD DUP1 DUP4 GT PUSH2 0x30DB JUMPI DUP3 SWAP1 SUB PUSH1 0x1F AND DUP3 ADD SWAP2 JUMPDEST POP POP POP POP POP DUP2 MSTORE PUSH1 0x20 ADD PUSH1 0x4 DUP3 ADD DUP1 SLOAD PUSH2 0x3111 SWAP1 PUSH2 0x554E JUMP JUMPDEST DUP1 PUSH1 0x1F ADD PUSH1 0x20 DUP1 SWAP2 DIV MUL PUSH1 0x20 ADD PUSH1 0x40 MLOAD SWAP1 DUP2 ADD PUSH1 0x40 MSTORE DUP1 SWAP3 SWAP2 SWAP1 DUP2 DUP2 MSTORE PUSH1 0x20 ADD DUP3 DUP1 SLOAD PUSH2 0x313D SWAP1 PUSH2 0x554E JUMP JUMPDEST DUP1 ISZERO PUSH2 0x3188 JUMPI DUP1 PUSH1 0x1F LT PUSH2 0x315F JUMPI PUSH2 0x100 DUP1 DUP4 SLOAD DIV MUL DUP4 MSTORE SWAP2 PUSH1 0x20 ADD SWAP2 PUSH2 0x3188 JUMP JUMPDEST DUP3 ADD SWAP2 SWAP1 PUSH0 MSTORE PUSH1 0x20 PUSH0 KECCAK256 SWAP1 JUMPDEST DUP2 SLOAD DUP2 MSTORE SWAP1 PUSH1 0x1 ADD SWAP1 PUSH1 0x20 ADD DUP1 DUP4 GT PUSH2 0x316B JUMPI DUP3 SWAP1 SUB PUSH1 0x1F AND DUP3 ADD SWAP2 JUMPDEST POP POP POP POP POP DUP2 MSTORE PUSH1 0x20 ADD PUSH1 0x5 DUP3 ADD DUP1 SLOAD PUSH2 0x31A1 SWAP1 PUSH2 0x554E JUMP JUMPDEST DUP1 PUSH1 0x1F ADD PUSH1 0x20 DUP1 SWAP2 DIV MUL PUSH1 0x20 ADD PUSH1 0x40 MLOAD SWAP1 DUP2 ADD PUSH1 0x40 MSTORE DUP1 SWAP3 SWAP2 SWAP1 DUP2 DUP2 MSTORE PUSH1 0x20 ADD DUP3 DUP1 SLOAD PUSH2 0x31CD SWAP1 PUSH2 0x554E JUMP JUMPDEST DUP1 ISZERO PUSH2 0x3218 JUMPI DUP1 PUSH1 0x1F LT PUSH2 0x31EF JUMPI PUSH2 0x100 DUP1 DUP4 SLOAD DIV MUL DUP4 MSTORE SWAP2 PUSH1 0x20 ADD SWAP2 PUSH2 0x3218 JUMP JUMPDEST DUP3 ADD SWAP2 SWAP1 PUSH0 MSTORE PUSH1 0x20 PUSH0 KECCAK256 SWAP1 JUMPDEST DUP2 SLOAD DUP2 MSTORE SWAP1 PUSH1 0x1 ADD SWAP1 PUSH1 0x20 ADD DUP1 DUP4 GT PUSH2 0x31FB JUMPI DUP3 SWAP1 SUB PUSH1 0x1F AND DUP3 ADD SWAP2 JUMPDEST POP POP POP POP POP DUP2 MSTORE PUSH1 0x20 ADD PUSH1 0x6 DUP3 ADD DUP1 SLOAD PUSH2 0x3231 SWAP1 PUSH2 0x554E JUMP JUMPDEST DUP1 PUSH1 0x1F ADD PUSH1 0x20 DUP1 SWAP2 DIV MUL PUSH1 0x20 ADD PUSH1 0x40 MLOAD SWAP1 DUP2 ADD PUSH1 0x40 MSTORE DUP1 SWAP3 SWAP2 SWAP1 DUP2 DUP2 MSTORE PUSH1 0x20 ADD DUP3 DUP1 SLOAD PUSH2 0x325D SWAP1 PUSH2 0x554E JUMP JUMPDEST DUP1 ISZERO PUSH2 0x32A8 JUMPI DUP1 PUSH1 0x1F LT PUSH2 0x327F JUMPI PUSH2 0x100 DUP1 DUP4 SLOAD DIV MUL DUP4 MSTORE SWAP2 PUSH1 0x20 ADD SWAP2 PUSH2 0x32A8 JUMP JUMPDEST DUP3 ADD SWAP2 SWAP1 PUSH0 MSTORE PUSH1 0x20 PUSH0 KECCAK256 SWAP1 JUMPDEST DUP2 SLOAD DUP2 MSTORE SWAP1 PUSH1 0x1 ADD SWAP1 PUSH1 0x20 ADD DUP1 DUP4 GT PUSH2 0x328B JUMPI DUP3 SWAP1 SUB PUSH1 0x1F AND DUP3 ADD SWAP2 JUMPDEST POP POP POP POP POP DUP2 MSTORE PUSH1 0x20 ADD PUSH1 0x7 DUP3 ADD DUP1 SLOAD PUSH2 0x32C1 SWAP1 PUSH2 0x554E JUMP JUMPDEST DUP1 PUSH1 0x1F ADD PUSH1 0x20 DUP1 SWAP2 DIV MUL PUSH1 0x20 ADD PUSH1 0x40 MLOAD SWAP1 DUP2 ADD PUSH1 0x40 MSTORE DUP1 SWAP3 SWAP2 SWAP1 DUP2 DUP2 MSTORE PUSH1 0x20 ADD DUP3 DUP1 SLOAD PUSH2 0x32ED SWAP1 PUSH2 0x554E JUMP JUMPDEST DUP1 ISZERO PUSH2 0x3338 JUMPI DUP1 PUSH1 0x1F LT PUSH2 0x330F JUMPI PUSH2 0x100 DUP1 DUP4 SLOAD DIV MUL DUP4 MSTORE SWAP2 PUSH1 0x20 ADD SWAP2 PUSH2 0x3338 JUMP JUMPDEST DUP3 ADD SWAP2 SWAP1 PUSH0 MSTORE PUSH1 0x20 PUSH0 KECCAK256 SWAP1 JUMPDEST DUP2 SLOAD DUP2 MSTORE SWAP1 PUSH1 0x1 ADD SWAP1 PUSH1 0x20 ADD DUP1 DUP4 GT PUSH2 0x331B JUMPI DUP3 SWAP1 SUB PUSH1 0x1F AND DUP3 ADD SWAP2 JUMPDEST POP POP POP POP POP DUP2 MSTORE PUSH1 0x20 ADD PUSH1 0x8 DUP3 ADD DUP1 SLOAD PUSH2 0x3351 SWAP1 PUSH2 0x554E JUMP JUMPDEST DUP1 PUSH1 0x1F ADD PUSH1 0x20 DUP1 SWAP2 DIV MUL PUSH1 0x20 ADD PUSH1 0x40 MLOAD SWAP1 DUP2 ADD PUSH1 0x40 MSTORE DUP1 SWAP3 SWAP2 SWAP1 DUP2 DUP2 MSTORE PUSH1 0x20 ADD DUP3 DUP1 SLOAD PUSH2 0x337D SWAP1 PUSH2 0x554E JUMP JUMPDEST DUP1 ISZERO PUSH2 0x33C8 JUMPI DUP1 PUSH1 0x1F LT PUSH2 0x339F JUMPI PUSH2 0x100 DUP1 DUP4 SLOAD DIV MUL DUP4 MSTORE SWAP2 PUSH1 0x20 ADD SWAP2 PUSH2 0x33C8 JUMP JUMPDEST DUP3 ADD SWAP2 SWAP1 PUSH0 MSTORE PUSH1 0x20 PUSH0 KECCAK256 SWAP1 JUMPDEST DUP2 SLOAD DUP2 MSTORE SWAP1 PUSH1 0x1 ADD SWAP1 PUSH1 0x20 ADD DUP1 DUP4 GT PUSH2 0x33AB JUMPI DUP3 SWAP1 SUB PUSH1 0x1F AND DUP3 ADD SWAP2 JUMPDEST POP POP POP POP POP DUP2 MSTORE PUSH1 0x20 ADD PUSH1 0x9 DUP3 ADD DUP1 SLOAD PUSH2 0x33E1 SWAP1 PUSH2 0x554E JUMP JUMPDEST DUP1 PUSH1 0x1F ADD PUSH1 0x20 DUP1 SWAP2 DIV MUL PUSH1 0x20 ADD PUSH1 0x40 MLOAD SWAP1 DUP2 ADD PUSH1 0x40 MSTORE DUP1 SWAP3 SWAP2 SWAP1 DUP2 DUP2 MSTORE PUSH1 0x20 ADD DUP3 DUP1 SLOAD PUSH2 0x340D SWAP1 PUSH2 0x554E JUMP JUMPDEST DUP1 ISZERO PUSH2 0x3458 JUMPI DUP1 PUSH1 0x1F LT PUSH2 0x342F JUMPI PUSH2 0x100 DUP1 DUP4 SLOAD DIV MUL DUP4 MSTORE SWAP2 PUSH1 0x20 ADD SWAP2 PUSH2 0x3458 JUMP JUMPDEST DUP3 ADD SWAP2 SWAP1 PUSH0 MSTORE PUSH1 0x20 PUSH0 KECCAK256 SWAP1 JUMPDEST DUP2 SLOAD DUP2 MSTORE SWAP1 PUSH1 0x1 ADD SWAP1 PUSH1 0x20 ADD DUP1 DUP4 GT PUSH2 0x343B JUMPI DUP3 SWAP1 SUB PUSH1 0x1F AND DUP3 ADD SWAP2 JUMPDEST POP POP POP POP POP DUP2 MSTORE POP POP DUP2 MSTORE POP POP DUP2 MSTORE PUSH1 0x20 ADD SWAP1 PUSH1 0x1 ADD SWAP1 PUSH2 0x257E JUMP JUMPDEST POP POP POP POP SWAP1 POP SWAP1 JUMP JUMPDEST DUP1 SLOAD ISZERO PUSH2 0x34C1 JUMPI DUP1 DUP1 SLOAD DUP1 PUSH2 0x3494 JUMPI PUSH2 0x3494 PUSH2 0x5853 JUMP JUMPDEST PUSH1 0x1 SWAP1 SUB DUP2 DUP2 SWAP1 PUSH0 MSTORE PUSH1 0x20 PUSH0 KECCAK256 SWAP1 PUSH1 0x20 SWAP2 DUP3 DUP3 DIV ADD SWAP2 SWAP1 MOD PUSH2 0x100 EXP DUP2 SLOAD SWAP1 PUSH1 0xFF MUL NOT AND SWAP1 SSTORE SWAP1 SSTORE PUSH2 0x347D JUMP JUMPDEST POP JUMP JUMPDEST DUP4 PUSH1 0xFF AND PUSH1 0x8 EQ DUP1 PUSH2 0x34D9 JUMPI POP DUP4 PUSH1 0xFF AND PUSH1 0x9 EQ JUMPDEST ISZERO PUSH2 0x3516 JUMPI DUP2 SLOAD PUSH1 0x1 DUP2 ADD DUP4 SSTORE PUSH0 DUP4 DUP2 MSTORE PUSH1 0x20 SWAP1 DUP2 SWAP1 KECCAK256 SWAP1 DUP3 DIV ADD DUP1 SLOAD PUSH1 0xFF DUP1 DUP9 AND PUSH1 0x1F SWAP1 SWAP5 AND PUSH2 0x100 EXP SWAP4 DUP5 MUL SWAP4 MUL NOT AND SWAP2 SWAP1 SWAP2 OR SWAP1 SSTORE PUSH2 0x3634 JUMP JUMPDEST DUP1 PUSH1 0xFF AND PUSH0 SUB PUSH2 0x35AD JUMPI PUSH0 JUMPDEST PUSH1 0x8 DUP2 PUSH1 0xFF AND LT ISZERO PUSH2 0x35A7 JUMPI DUP4 DUP2 PUSH1 0xFF AND PUSH1 0xA DUP2 LT PUSH2 0x3543 JUMPI PUSH2 0x3543 PUSH2 0x559F JUMP JUMPDEST PUSH1 0x20 MUL ADD MLOAD DUP6 PUSH1 0xFF AND PUSH1 0xA DUP2 LT PUSH2 0x355C JUMPI PUSH2 0x355C PUSH2 0x559F JUMP JUMPDEST PUSH1 0x20 MUL ADD MLOAD PUSH1 0xFF AND PUSH1 0x1 SUB PUSH2 0x359F JUMPI DUP3 SLOAD PUSH1 0x1 DUP2 ADD DUP5 SSTORE PUSH0 DUP5 DUP2 MSTORE PUSH1 0x20 SWAP1 DUP2 SWAP1 KECCAK256 SWAP1 DUP3 DIV ADD DUP1 SLOAD PUSH1 0xFF DUP1 DUP6 AND PUSH1 0x1F SWAP1 SWAP5 AND PUSH2 0x100 EXP SWAP4 DUP5 MUL SWAP4 MUL NOT AND SWAP2 SWAP1 SWAP2 OR SWAP1 SSTORE JUMPDEST PUSH1 0x1 ADD PUSH2 0x3522 JUMP JUMPDEST POP PUSH2 0x3634 JUMP JUMPDEST PUSH0 JUMPDEST PUSH1 0x8 DUP2 PUSH1 0xFF AND LT ISZERO PUSH2 0x19CA JUMPI DUP4 DUP6 PUSH1 0xFF AND PUSH1 0xA DUP2 LT PUSH2 0x35D0 JUMPI PUSH2 0x35D0 PUSH2 0x559F JUMP JUMPDEST PUSH1 0x20 MUL ADD MLOAD DUP2 PUSH1 0xFF AND PUSH1 0xA DUP2 LT PUSH2 0x35E9 JUMPI PUSH2 0x35E9 PUSH2 0x559F JUMP JUMPDEST PUSH1 0x20 MUL ADD MLOAD PUSH1 0xFF AND PUSH1 0x1 SUB PUSH2 0x362C JUMPI DUP3 SLOAD PUSH1 0x1 DUP2 ADD DUP5 SSTORE PUSH0 DUP5 DUP2 MSTORE PUSH1 0x20 SWAP1 DUP2 SWAP1 KECCAK256 SWAP1 DUP3 DIV ADD DUP1 SLOAD PUSH1 0xFF DUP1 DUP6 AND PUSH1 0x1F SWAP1 SWAP5 AND PUSH2 0x100 EXP SWAP4 DUP5 MUL SWAP4 MUL NOT AND SWAP2 SWAP1 SWAP2 OR SWAP1 SSTORE JUMPDEST PUSH1 0x1 ADD PUSH2 0x35AF JUMP JUMPDEST POP POP POP POP JUMP JUMPDEST PUSH0 PUSH2 0x364F DUP4 PUSH2 0x120 ADD MLOAD DUP4 PUSH2 0x120 ADD MLOAD PUSH2 0x4B6B JUMP JUMPDEST PUSH2 0x3663 DUP5 PUSH2 0x100 ADD MLOAD DUP5 PUSH2 0x100 ADD MLOAD PUSH2 0x4B6B JUMP JUMPDEST PUSH2 0x3675 DUP6 PUSH1 0xE0 ADD MLOAD DUP6 PUSH1 0xE0 ADD MLOAD PUSH2 0x4B6B JUMP JUMPDEST PUSH2 0x3687 DUP7 PUSH1 0xC0 ADD MLOAD DUP7 PUSH1 0xC0 ADD MLOAD PUSH2 0x4B6B JUMP JUMPDEST PUSH2 0x3699 DUP8 PUSH1 0xA0 ADD MLOAD DUP8 PUSH1 0xA0 ADD MLOAD PUSH2 0x4B6B JUMP JUMPDEST PUSH2 0x36AB DUP9 PUSH1 0x80 ADD MLOAD DUP9 PUSH1 0x80 ADD MLOAD PUSH2 0x4B6B JUMP JUMPDEST PUSH2 0x36BD DUP10 PUSH1 0x60 ADD MLOAD DUP10 PUSH1 0x60 ADD MLOAD PUSH2 0x4B6B JUMP JUMPDEST PUSH2 0x36CF DUP11 PUSH1 0x40 ADD MLOAD DUP11 PUSH1 0x40 ADD MLOAD PUSH2 0x4B6B JUMP JUMPDEST PUSH2 0x36E1 DUP12 PUSH1 0x20 ADD MLOAD DUP12 PUSH1 0x20 ADD MLOAD PUSH2 0x4B6B JUMP JUMPDEST DUP12 MLOAD DUP12 MLOAD PUSH2 0x36EF SWAP2 SWAP1 PUSH2 0x4B6B JUMP JUMPDEST PUSH2 0x36F9 SWAP1 PUSH0 PUSH2 0x5880 JUMP JUMPDEST PUSH2 0x3703 SWAP2 SWAP1 PUSH2 0x5880 JUMP JUMPDEST PUSH2 0x370D SWAP2 SWAP1 PUSH2 0x5880 JUMP JUMPDEST PUSH2 0x3717 SWAP2 SWAP1 PUSH2 0x5880 JUMP JUMPDEST PUSH2 0x3721 SWAP2 SWAP1 PUSH2 0x5880 JUMP JUMPDEST PUSH2 0x372B SWAP2 SWAP1 PUSH2 0x5880 JUMP JUMPDEST PUSH2 0x3735 SWAP2 SWAP1 PUSH2 0x5880 JUMP JUMPDEST PUSH2 0x373F SWAP2 SWAP1 PUSH2 0x5880 JUMP JUMPDEST PUSH2 0x3749 SWAP2 SWAP1 PUSH2 0x5880 JUMP JUMPDEST PUSH2 0x3753 SWAP2 SWAP1 PUSH2 0x5880 JUMP JUMPDEST SWAP1 POP JUMPDEST SWAP3 SWAP2 POP POP JUMP JUMPDEST PUSH1 0x40 DUP1 MLOAD PUSH1 0xA0 DUP2 ADD DUP3 MSTORE PUSH1 0x9 DUP1 DUP3 MSTORE PUSH1 0x7 PUSH1 0x20 DUP4 ADD MSTORE PUSH1 0x5 SWAP3 DUP3 ADD SWAP3 SWAP1 SWAP3 MSTORE PUSH1 0x2 PUSH1 0x60 DUP3 ADD MSTORE PUSH0 PUSH1 0x80 DUP3 ADD DUP2 SWAP1 MSTORE JUMPDEST PUSH1 0x5 DUP2 LT ISZERO PUSH2 0x38F8 JUMPI PUSH0 DUP5 PUSH0 DUP5 DUP5 PUSH1 0x5 DUP2 LT PUSH2 0x37A9 JUMPI PUSH2 0x37A9 PUSH2 0x559F JUMP JUMPDEST PUSH1 0x20 MUL ADD MLOAD PUSH1 0xFF AND PUSH1 0xFF AND DUP2 MSTORE PUSH1 0x20 ADD SWAP1 DUP2 MSTORE PUSH1 0x20 ADD PUSH0 KECCAK256 DUP1 SLOAD DUP1 PUSH1 0x20 MUL PUSH1 0x20 ADD PUSH1 0x40 MLOAD SWAP1 DUP2 ADD PUSH1 0x40 MSTORE DUP1 SWAP3 SWAP2 SWAP1 DUP2 DUP2 MSTORE PUSH1 0x20 ADD PUSH0 SWAP1 JUMPDEST DUP3 DUP3 LT ISZERO PUSH2 0x3888 JUMPI DUP4 DUP3 SWAP1 PUSH0 MSTORE PUSH1 0x20 PUSH0 KECCAK256 ADD DUP1 SLOAD PUSH2 0x37FD SWAP1 PUSH2 0x554E JUMP JUMPDEST DUP1 PUSH1 0x1F ADD PUSH1 0x20 DUP1 SWAP2 DIV MUL PUSH1 0x20 ADD PUSH1 0x40 MLOAD SWAP1 DUP2 ADD PUSH1 0x40 MSTORE DUP1 SWAP3 SWAP2 SWAP1 DUP2 DUP2 MSTORE PUSH1 0x20 ADD DUP3 DUP1 SLOAD PUSH2 0x3829 SWAP1 PUSH2 0x554E JUMP JUMPDEST DUP1 ISZERO PUSH2 0x3874 JUMPI DUP1 PUSH1 0x1F LT PUSH2 0x384B JUMPI PUSH2 0x100 DUP1 DUP4 SLOAD DIV MUL DUP4 MSTORE SWAP2 PUSH1 0x20 ADD SWAP2 PUSH2 0x3874 JUMP JUMPDEST DUP3 ADD SWAP2 SWAP1 PUSH0 MSTORE PUSH1 0x20 PUSH0 KECCAK256 SWAP1 JUMPDEST DUP2 SLOAD DUP2 MSTORE SWAP1 PUSH1 0x1 ADD SWAP1 PUSH1 0x20 ADD DUP1 DUP4 GT PUSH2 0x3857 JUMPI DUP3 SWAP1 SUB PUSH1 0x1F AND DUP3 ADD SWAP2 JUMPDEST POP POP POP POP POP DUP2 MSTORE PUSH1 0x20 ADD SWAP1 PUSH1 0x1 ADD SWAP1 PUSH2 0x37E0 JUMP JUMPDEST POP SWAP3 SWAP4 POP PUSH0 SWAP3 POP POP POP JUMPDEST DUP2 MLOAD DUP2 LT ISZERO PUSH2 0x38EE JUMPI DUP7 DUP1 MLOAD SWAP1 PUSH1 0x20 ADD KECCAK256 DUP3 DUP3 DUP2 MLOAD DUP2 LT PUSH2 0x38B5 JUMPI PUSH2 0x38B5 PUSH2 0x559F JUMP JUMPDEST PUSH1 0x20 MUL PUSH1 0x20 ADD ADD MLOAD DUP1 MLOAD SWAP1 PUSH1 0x20 ADD KECCAK256 SUB PUSH2 0x38E6 JUMPI DUP4 DUP4 PUSH1 0x5 DUP2 LT PUSH2 0x38DB JUMPI PUSH2 0x38DB PUSH2 0x559F JUMP JUMPDEST PUSH1 0x20 MUL ADD MLOAD PUSH1 0xFF AND SWAP5 POP JUMPDEST PUSH1 0x1 ADD PUSH2 0x3892 JUMP JUMPDEST POP POP PUSH1 0x1 ADD PUSH2 0x378B JUMP JUMPDEST POP POP SWAP3 SWAP2 POP POP JUMP JUMPDEST PUSH1 0x40 DUP1 MLOAD PUSH2 0x100 DUP2 ADD DUP3 MSTORE DUP10 DUP2 MSTORE PUSH1 0x20 DUP1 DUP3 ADD DUP11 SWAP1 MSTORE SWAP2 DUP2 ADD DUP9 SWAP1 MSTORE PUSH1 0xFF DUP1 DUP9 AND PUSH1 0x60 DUP4 ADD MSTORE DUP7 DUP2 AND PUSH1 0x80 DUP4 ADD MSTORE DUP6 AND PUSH1 0xA0 DUP3 ADD MSTORE PUSH1 0xC0 DUP2 ADD DUP5 SWAP1 MSTORE PUSH1 0xE0 DUP2 ADD DUP4 SWAP1 MSTORE DUP11 SLOAD PUSH1 0x1 DUP2 ADD DUP13 SSTORE PUSH0 DUP13 DUP2 MSTORE SWAP3 SWAP1 SWAP3 KECCAK256 DUP2 MLOAD DUP1 MLOAD SWAP3 SWAP4 DUP5 SWAP4 PUSH1 0x1C SWAP1 SWAP2 MUL SWAP1 SWAP3 ADD SWAP2 DUP3 SWAP1 DUP2 SWAP1 PUSH2 0x3972 SWAP1 DUP3 PUSH2 0x58E2 JUMP JUMPDEST POP PUSH1 0x20 DUP3 ADD MLOAD PUSH1 0x1 DUP3 ADD DUP1 SLOAD PUSH1 0x40 DUP6 ADD MLOAD PUSH1 0xFF SWAP1 DUP2 AND PUSH2 0x100 MUL PUSH32 0xFFFFFFFFFFFFFFFFFFFFFFFFFFFFFFFFFFFFFFFFFFFFFFFFFFFFFFFFFFFF0000 SWAP1 SWAP3 AND SWAP4 AND SWAP3 SWAP1 SWAP3 OR SWAP2 SWAP1 SWAP2 OR SWAP1 SSTORE PUSH1 0x60 DUP3 ADD MLOAD PUSH1 0x2 DUP3 ADD SWAP1 PUSH2 0x39D0 SWAP1 DUP3 PUSH2 0x58E2 JUMP JUMPDEST POP POP POP PUSH1 0x20 DUP3 ADD MLOAD DUP1 MLOAD PUSH1 0x3 DUP4 ADD SWAP1 DUP2 SWAP1 PUSH2 0x39EB SWAP1 DUP3 PUSH2 0x58E2 JUMP JUMPDEST POP PUSH1 0x20 DUP3 ADD MLOAD PUSH1 0x1 DUP3 ADD DUP1 SLOAD PUSH1 0x40 DUP6 ADD MLOAD PUSH1 0xFF SWAP1 DUP2 AND PUSH2 0x100 MUL PUSH32 0xFFFFFFFFFFFFFFFFFFFFFFFFFFFFFFFFFFFFFFFFFFFFFFFFFFFFFFFFFFFF0000 SWAP1 SWAP3 AND SWAP4 AND SWAP3 SWAP1 SWAP3 OR SWAP2 SWAP1 SWAP2 OR SWAP1 SSTORE PUSH1 0x60 DUP3 ADD MLOAD PUSH1 0x2 DUP3 ADD SWAP1 PUSH2 0x3A49 SWAP1 DUP3 PUSH2 0x58E2 JUMP JUMPDEST POP POP POP PUSH1 0x40 DUP3 ADD MLOAD PUSH1 0x6 DUP3 ADD SWAP1 PUSH2 0x3A60 SWAP1 DUP3 PUSH2 0x58E2 JUMP JUMPDEST POP PUSH1 0x60 DUP3 ADD MLOAD PUSH1 0x7 DUP3 ADD DUP1 SLOAD PUSH1 0x80 DUP6 ADD MLOAD PUSH1 0xA0 DUP7 ADD MLOAD PUSH1 0xFF SWAP1 DUP2 AND PUSH3 0x10000 MUL PUSH32 0xFFFFFFFFFFFFFFFFFFFFFFFFFFFFFFFFFFFFFFFFFFFFFFFFFFFFFFFFFF00FFFF SWAP3 DUP3 AND PUSH2 0x100 MUL PUSH32 0xFFFFFFFFFFFFFFFFFFFFFFFFFFFFFFFFFFFFFFFFFFFFFFFFFFFFFFFFFFFF0000 SWAP1 SWAP5 AND SWAP2 SWAP1 SWAP6 AND OR SWAP2 SWAP1 SWAP2 OR AND SWAP2 SWAP1 SWAP2 OR SWAP1 SSTORE PUSH1 0xC0 DUP3 ADD MLOAD DUP1 MLOAD PUSH1 0x8 DUP4 ADD SWAP1 DUP2 SWAP1 PUSH2 0x3AF4 SWAP1 DUP3 PUSH2 0x58E2 JUMP JUMPDEST POP PUSH1 0x20 DUP3 ADD MLOAD PUSH1 0x1 DUP3 ADD SWAP1 PUSH2 0x3B09 SWAP1 DUP3 PUSH2 0x58E2 JUMP JUMPDEST POP PUSH1 0x40 DUP3 ADD MLOAD PUSH1 0x2 DUP3 ADD SWAP1 PUSH2 0x3B1E SWAP1 DUP3 PUSH2 0x58E2 JUMP JUMPDEST POP PUSH1 0x60 DUP3 ADD MLOAD PUSH1 0x3 DUP3 ADD SWAP1 PUSH2 0x3B33 SWAP1 DUP3 PUSH2 0x58E2 JUMP JUMPDEST POP PUSH1 0x80 DUP3 ADD MLOAD PUSH1 0x4 DUP3 ADD SWAP1 PUSH2 0x3B48 SWAP1 DUP3 PUSH2 0x58E2 JUMP JUMPDEST POP PUSH1 0xA0 DUP3 ADD MLOAD PUSH1 0x5 DUP3 ADD SWAP1 PUSH2 0x3B5D SWAP1 DUP3 PUSH2 0x58E2 JUMP JUMPDEST POP PUSH1 0xC0 DUP3 ADD MLOAD PUSH1 0x6 DUP3 ADD SWAP1 PUSH2 0x3B72 SWAP1 DUP3 PUSH2 0x58E2 JUMP JUMPDEST POP PUSH1 0xE0 DUP3 ADD MLOAD PUSH1 0x7 DUP3 ADD SWAP1 PUSH2 0x3B87 SWAP1 DUP3 PUSH2 0x58E2 JUMP JUMPDEST POP PUSH2 0x100 DUP3 ADD MLOAD PUSH1 0x8 DUP3 ADD SWAP1 PUSH2 0x3B9D SWAP1 DUP3 PUSH2 0x58E2 JUMP JUMPDEST POP PUSH2 0x120 DUP3 ADD MLOAD PUSH1 0x9 DUP3 ADD SWAP1 PUSH2 0x3BB3 SWAP1 DUP3 PUSH2 0x58E2 JUMP JUMPDEST POP POP POP PUSH1 0xE0 DUP3 ADD MLOAD DUP1 MLOAD PUSH1 0x12 DUP4 ADD SWAP1 DUP2 SWAP1 PUSH2 0x3BCE SWAP1 DUP3 PUSH2 0x58E2 JUMP JUMPDEST POP PUSH1 0x20 DUP3 ADD MLOAD PUSH1 0x1 DUP3 ADD SWAP1 PUSH2 0x3BE3 SWAP1 DUP3 PUSH2 0x58E2 JUMP JUMPDEST POP PUSH1 0x40 DUP3 ADD MLOAD PUSH1 0x2 DUP3 ADD SWAP1 PUSH2 0x3BF8 SWAP1 DUP3 PUSH2 0x58E2 JUMP JUMPDEST POP PUSH1 0x60 DUP3 ADD MLOAD PUSH1 0x3 DUP3 ADD SWAP1 PUSH2 0x3C0D SWAP1 DUP3 PUSH2 0x58E2 JUMP JUMPDEST POP PUSH1 0x80 DUP3 ADD MLOAD PUSH1 0x4 DUP3 ADD SWAP1 PUSH2 0x3C22 SWAP1 DUP3 PUSH2 0x58E2 JUMP JUMPDEST POP PUSH1 0xA0 DUP3 ADD MLOAD PUSH1 0x5 DUP3 ADD SWAP1 PUSH2 0x3C37 SWAP1 DUP3 PUSH2 0x58E2 JUMP JUMPDEST POP PUSH1 0xC0 DUP3 ADD MLOAD PUSH1 0x6 DUP3 ADD SWAP1 PUSH2 0x3C4C SWAP1 DUP3 PUSH2 0x58E2 JUMP JUMPDEST POP PUSH1 0xE0 DUP3 ADD MLOAD PUSH1 0x7 DUP3 ADD SWAP1 PUSH2 0x3C61 SWAP1 DUP3 PUSH2 0x58E2 JUMP JUMPDEST POP PUSH2 0x100 DUP3 ADD MLOAD PUSH1 0x8 DUP3 ADD SWAP1 PUSH2 0x3C77 SWAP1 DUP3 PUSH2 0x58E2 JUMP JUMPDEST POP PUSH2 0x120 DUP3 ADD MLOAD PUSH1 0x9 DUP3 ADD SWAP1 PUSH2 0x3C8D SWAP1 DUP3 PUSH2 0x58E2 JUMP JUMPDEST POP POP POP POP POP POP POP POP POP POP POP POP POP POP POP JUMP JUMPDEST PUSH1 0x40 DUP1 MLOAD PUSH1 0x80 DUP2 ADD DUP3 MSTORE DUP6 DUP2 MSTORE PUSH1 0x20 DUP1 DUP3 ADD DUP7 SWAP1 MSTORE PUSH1 0xFF DUP6 AND SWAP3 DUP3 ADD SWAP3 SWAP1 SWAP3 MSTORE PUSH1 0x60 DUP2 ADD DUP4 SWAP1 MSTORE DUP7 SLOAD PUSH1 0x1 DUP2 ADD DUP9 SSTORE PUSH0 DUP9 DUP2 MSTORE SWAP3 SWAP1 SWAP3 KECCAK256 DUP2 MLOAD DUP1 MLOAD SWAP3 SWAP4 DUP5 SWAP4 PUSH1 0xF SWAP1 SWAP2 MUL SWAP1 SWAP3 ADD SWAP2 DUP3 SWAP1 DUP2 SWAP1 PUSH2 0x3CF4 SWAP1 DUP3 PUSH2 0x58E2 JUMP JUMPDEST POP PUSH1 0x20 DUP3 ADD MLOAD PUSH1 0x1 DUP3 ADD DUP1 SLOAD PUSH1 0x40 DUP6 ADD MLOAD PUSH1 0xFF SWAP1 DUP2 AND PUSH2 0x100 MUL PUSH32 0xFFFFFFFFFFFFFFFFFFFFFFFFFFFFFFFFFFFFFFFFFFFFFFFFFFFFFFFFFFFF0000 SWAP1 SWAP3 AND SWAP4 AND SWAP3 SWAP1 SWAP3 OR SWAP2 SWAP1 SWAP2 OR SWAP1 SSTORE PUSH1 0x60 DUP3 ADD MLOAD PUSH1 0x2 DUP3 ADD SWAP1 PUSH2 0x3D52 SWAP1 DUP3 PUSH2 0x58E2 JUMP JUMPDEST POP POP POP PUSH1 0x20 DUP3 ADD MLOAD PUSH1 0x3 DUP3 ADD SWAP1 PUSH2 0x3D69 SWAP1 DUP3 PUSH2 0x58E2 JUMP JUMPDEST POP PUSH1 0x40 DUP3 ADD MLOAD PUSH1 0x4 DUP3 ADD DUP1 SLOAD PUSH32 0xFFFFFFFFFFFFFFFFFFFFFFFFFFFFFFFFFFFFFFFFFFFFFFFFFFFFFFFFFFFFFF00 AND PUSH1 0xFF SWAP1 SWAP3 AND SWAP2 SWAP1 SWAP2 OR SWAP1 SSTORE PUSH1 0x60 DUP3 ADD MLOAD DUP1 MLOAD PUSH1 0x5 DUP4 ADD SWAP1 DUP2 SWAP1 PUSH2 0x3DBA SWAP1 DUP3 PUSH2 0x58E2 JUMP JUMPDEST POP PUSH1 0x20 DUP3 ADD MLOAD PUSH1 0x1 DUP3 ADD SWAP1 PUSH2 0x3DCF SWAP1 DUP3 PUSH2 0x58E2 JUMP JUMPDEST POP PUSH1 0x40 DUP3 ADD MLOAD PUSH1 0x2 DUP3 ADD SWAP1 PUSH2 0x3DE4 SWAP1 DUP3 PUSH2 0x58E2 JUMP JUMPDEST POP PUSH1 0x60 DUP3 ADD MLOAD PUSH1 0x3 DUP3 ADD SWAP1 PUSH2 0x3DF9 SWAP1 DUP3 PUSH2 0x58E2 JUMP JUMPDEST POP PUSH1 0x80 DUP3 ADD MLOAD PUSH1 0x4 DUP3 ADD SWAP1 PUSH2 0x3E0E SWAP1 DUP3 PUSH2 0x58E2 JUMP JUMPDEST POP PUSH1 0xA0 DUP3 ADD MLOAD PUSH1 0x5 DUP3 ADD SWAP1 PUSH2 0x3E23 SWAP1 DUP3 PUSH2 0x58E2 JUMP JUMPDEST POP PUSH1 0xC0 DUP3 ADD MLOAD PUSH1 0x6 DUP3 ADD SWAP1 PUSH2 0x3E38 SWAP1 DUP3 PUSH2 0x58E2 JUMP JUMPDEST POP PUSH1 0xE0 DUP3 ADD MLOAD PUSH1 0x7 DUP3 ADD SWAP1 PUSH2 0x3E4D SWAP1 DUP3 PUSH2 0x58E2 JUMP JUMPDEST POP PUSH2 0x100 DUP3 ADD MLOAD PUSH1 0x8 DUP3 ADD SWAP1 PUSH2 0x3E63 SWAP1 DUP3 PUSH2 0x58E2 JUMP JUMPDEST POP PUSH2 0x120 DUP3 ADD MLOAD PUSH1 0x9 DUP3 ADD SWAP1 PUSH2 0x3E79 SWAP1 DUP3 PUSH2 0x58E2 JUMP JUMPDEST POP POP POP POP POP POP POP POP POP POP POP JUMP JUMPDEST PUSH0 DUP3 DUP3 DUP2 SLOAD DUP2 LT PUSH2 0x3E99 JUMPI PUSH2 0x3E99 PUSH2 0x559F JUMP JUMPDEST SWAP1 PUSH0 MSTORE PUSH1 0x20 PUSH0 KECCAK256 SWAP1 PUSH1 0xF MUL ADD PUSH1 0x40 MLOAD DUP1 PUSH1 0x80 ADD PUSH1 0x40 MSTORE SWAP1 DUP2 PUSH0 DUP3 ADD PUSH1 0x40 MLOAD DUP1 PUSH1 0x80 ADD PUSH1 0x40 MSTORE SWAP1 DUP2 PUSH0 DUP3 ADD DUP1 SLOAD PUSH2 0x3ECE SWAP1 PUSH2 0x554E JUMP JUMPDEST DUP1 PUSH1 0x1F ADD PUSH1 0x20 DUP1 SWAP2 DIV MUL PUSH1 0x20 ADD PUSH1 0x40 MLOAD SWAP1 DUP2 ADD PUSH1 0x40 MSTORE DUP1 SWAP3 SWAP2 SWAP1 DUP2 DUP2 MSTORE PUSH1 0x20 ADD DUP3 DUP1 SLOAD PUSH2 0x3EFA SWAP1 PUSH2 0x554E JUMP JUMPDEST DUP1 ISZERO PUSH2 0x3F45 JUMPI DUP1 PUSH1 0x1F LT PUSH2 0x3F1C JUMPI PUSH2 0x100 DUP1 DUP4 SLOAD DIV MUL DUP4 MSTORE SWAP2 PUSH1 0x20 ADD SWAP2 PUSH2 0x3F45 JUMP JUMPDEST DUP3 ADD SWAP2 SWAP1 PUSH0 MSTORE PUSH1 0x20 PUSH0 KECCAK256 SWAP1 JUMPDEST DUP2 SLOAD DUP2 MSTORE SWAP1 PUSH1 0x1 ADD SWAP1 PUSH1 0x20 ADD DUP1 DUP4 GT PUSH2 0x3F28 JUMPI DUP3 SWAP1 SUB PUSH1 0x1F AND DUP3 ADD SWAP2 JUMPDEST POP POP POP SWAP2 DUP4 MSTORE POP POP PUSH1 0x1 DUP3 ADD SLOAD PUSH1 0xFF DUP1 DUP3 AND PUSH1 0x20 DUP5 ADD MSTORE PUSH2 0x100 SWAP1 SWAP2 DIV AND PUSH1 0x40 DUP3 ADD MSTORE PUSH1 0x2 DUP3 ADD DUP1 SLOAD PUSH1 0x60 SWAP1 SWAP3 ADD SWAP2 PUSH2 0x3F7D SWAP1 PUSH2 0x554E JUMP JUMPDEST DUP1 PUSH1 0x1F ADD PUSH1 0x20 DUP1 SWAP2 DIV MUL PUSH1 0x20 ADD PUSH1 0x40 MLOAD SWAP1 DUP2 ADD PUSH1 0x40 MSTORE DUP1 SWAP3 SWAP2 SWAP1 DUP2 DUP2 MSTORE PUSH1 0x20 ADD DUP3 DUP1 SLOAD PUSH2 0x3FA9 SWAP1 PUSH2 0x554E JUMP JUMPDEST DUP1 ISZERO PUSH2 0x3FF4 JUMPI DUP1 PUSH1 0x1F LT PUSH2 0x3FCB JUMPI PUSH2 0x100 DUP1 DUP4 SLOAD DIV MUL DUP4 MSTORE SWAP2 PUSH1 0x20 ADD SWAP2 PUSH2 0x3FF4 JUMP JUMPDEST DUP3 ADD SWAP2 SWAP1 PUSH0 MSTORE PUSH1 0x20 PUSH0 KECCAK256 SWAP1 JUMPDEST DUP2 SLOAD DUP2 MSTORE SWAP1 PUSH1 0x1 ADD SWAP1 PUSH1 0x20 ADD DUP1 DUP4 GT PUSH2 0x3FD7 JUMPI DUP3 SWAP1 SUB PUSH1 0x1F AND DUP3 ADD SWAP2 JUMPDEST POP POP POP POP POP DUP2 MSTORE POP POP DUP2 MSTORE PUSH1 0x20 ADD PUSH1 0x3 DUP3 ADD DUP1 SLOAD PUSH2 0x4011 SWAP1 PUSH2 0x554E JUMP JUMPDEST DUP1 PUSH1 0x1F ADD PUSH1 0x20 DUP1 SWAP2 DIV MUL PUSH1 0x20 ADD PUSH1 0x40 MLOAD SWAP1 DUP2 ADD PUSH1 0x40 MSTORE DUP1 SWAP3 SWAP2 SWAP1 DUP2 DUP2 MSTORE PUSH1 0x20 ADD DUP3 DUP1 SLOAD PUSH2 0x403D SWAP1 PUSH2 0x554E JUMP JUMPDEST DUP1 ISZERO PUSH2 0x4088 JUMPI DUP1 PUSH1 0x1F LT PUSH2 0x405F JUMPI PUSH2 0x100 DUP1 DUP4 SLOAD DIV MUL DUP4 MSTORE SWAP2 PUSH1 0x20 ADD SWAP2 PUSH2 0x4088 JUMP JUMPDEST DUP3 ADD SWAP2 SWAP1 PUSH0 MSTORE PUSH1 0x20 PUSH0 KECCAK256 SWAP1 JUMPDEST DUP2 SLOAD DUP2 MSTORE SWAP1 PUSH1 0x1 ADD SWAP1 PUSH1 0x20 ADD DUP1 DUP4 GT PUSH2 0x406B JUMPI DUP3 SWAP1 SUB PUSH1 0x1F AND DUP3 ADD SWAP2 JUMPDEST POP POP POP SWAP2 DUP4 MSTORE POP POP PUSH1 0x4 DUP3 ADD SLOAD PUSH1 0xFF AND PUSH1 0x20 DUP3 ADD MSTORE PUSH1 0x40 DUP1 MLOAD PUSH2 0x140 DUP2 ADD DUP3 MSTORE PUSH1 0x5 DUP5 ADD DUP1 SLOAD SWAP3 SWAP1 SWAP4 ADD SWAP3 SWAP1 SWAP2 DUP3 SWAP1 DUP3 SWAP1 PUSH2 0x40C2 SWAP1 PUSH2 0x554E JUMP JUMPDEST DUP1 PUSH1 0x1F ADD PUSH1 0x20 DUP1 SWAP2 DIV MUL PUSH1 0x20 ADD PUSH1 0x40 MLOAD SWAP1 DUP2 ADD PUSH1 0x40 MSTORE DUP1 SWAP3 SWAP2 SWAP1 DUP2 DUP2 MSTORE PUSH1 0x20 ADD DUP3 DUP1 SLOAD PUSH2 0x40EE SWAP1 PUSH2 0x554E JUMP JUMPDEST DUP1 ISZERO PUSH2 0x4139 JUMPI DUP1 PUSH1 0x1F LT PUSH2 0x4110 JUMPI PUSH2 0x100 DUP1 DUP4 SLOAD DIV MUL DUP4 MSTORE SWAP2 PUSH1 0x20 ADD SWAP2 PUSH2 0x4139 JUMP JUMPDEST DUP3 ADD SWAP2 SWAP1 PUSH0 MSTORE PUSH1 0x20 PUSH0 KECCAK256 SWAP1 JUMPDEST DUP2 SLOAD DUP2 MSTORE SWAP1 PUSH1 0x1 ADD SWAP1 PUSH1 0x20 ADD DUP1 DUP4 GT PUSH2 0x411C JUMPI DUP3 SWAP1 SUB PUSH1 0x1F AND DUP3 ADD SWAP2 JUMPDEST POP POP POP POP POP DUP2 MSTORE PUSH1 0x20 ADD PUSH1 0x1 DUP3 ADD DUP1 SLOAD PUSH2 0x4152 SWAP1 PUSH2 0x554E JUMP JUMPDEST DUP1 PUSH1 0x1F ADD PUSH1 0x20 DUP1 SWAP2 DIV MUL PUSH1 0x20 ADD PUSH1 0x40 MLOAD SWAP1 DUP2 ADD PUSH1 0x40 MSTORE DUP1 SWAP3 SWAP2 SWAP1 DUP2 DUP2 MSTORE PUSH1 0x20 ADD DUP3 DUP1 SLOAD PUSH2 0x417E SWAP1 PUSH2 0x554E JUMP JUMPDEST DUP1 ISZERO PUSH2 0x41C9 JUMPI DUP1 PUSH1 0x1F LT PUSH2 0x41A0 JUMPI PUSH2 0x100 DUP1 DUP4 SLOAD DIV MUL DUP4 MSTORE SWAP2 PUSH1 0x20 ADD SWAP2 PUSH2 0x41C9 JUMP JUMPDEST DUP3 ADD SWAP2 SWAP1 PUSH0 MSTORE PUSH1 0x20 PUSH0 KECCAK256 SWAP1 JUMPDEST DUP2 SLOAD DUP2 MSTORE SWAP1 PUSH1 0x1 ADD SWAP1 PUSH1 0x20 ADD DUP1 DUP4 GT PUSH2 0x41AC JUMPI DUP3 SWAP1 SUB PUSH1 0x1F AND DUP3 ADD SWAP2 JUMPDEST POP POP POP POP POP DUP2 MSTORE PUSH1 0x20 ADD PUSH1 0x2 DUP3 ADD DUP1 SLOAD PUSH2 0x41E2 SWAP1 PUSH2 0x554E JUMP JUMPDEST DUP1 PUSH1 0x1F ADD PUSH1 0x20 DUP1 SWAP2 DIV MUL PUSH1 0x20 ADD PUSH1 0x40 MLOAD SWAP1 DUP2 ADD PUSH1 0x40 MSTORE DUP1 SWAP3 SWAP2 SWAP1 DUP2 DUP2 MSTORE PUSH1 0x20 ADD DUP3 DUP1 SLOAD PUSH2 0x420E SWAP1 PUSH2 0x554E JUMP JUMPDEST DUP1 ISZERO PUSH2 0x4259 JUMPI DUP1 PUSH1 0x1F LT PUSH2 0x4230 JUMPI PUSH2 0x100 DUP1 DUP4 SLOAD DIV MUL DUP4 MSTORE SWAP2 PUSH1 0x20 ADD SWAP2 PUSH2 0x4259 JUMP JUMPDEST DUP3 ADD SWAP2 SWAP1 PUSH0 MSTORE PUSH1 0x20 PUSH0 KECCAK256 SWAP1 JUMPDEST DUP2 SLOAD DUP2 MSTORE SWAP1 PUSH1 0x1 ADD SWAP1 PUSH1 0x20 ADD DUP1 DUP4 GT PUSH2 0x423C JUMPI DUP3 SWAP1 SUB PUSH1 0x1F AND DUP3 ADD SWAP2 JUMPDEST POP POP POP POP POP DUP2 MSTORE PUSH1 0x20 ADD PUSH1 0x3 DUP3 ADD DUP1 SLOAD PUSH2 0x4272 SWAP1 PUSH2 0x554E JUMP JUMPDEST DUP1 PUSH1 0x1F ADD PUSH1 0x20 DUP1 SWAP2 DIV MUL PUSH1 0x20 ADD PUSH1 0x40 MLOAD SWAP1 DUP2 ADD PUSH1 0x40 MSTORE DUP1 SWAP3 SWAP2 SWAP1 DUP2 DUP2 MSTORE PUSH1 0x20 ADD DUP3 DUP1 SLOAD PUSH2 0x429E SWAP1 PUSH2 0x554E JUMP JUMPDEST DUP1 ISZERO PUSH2 0x42E9 JUMPI DUP1 PUSH1 0x1F LT PUSH2 0x42C0 JUMPI PUSH2 0x100 DUP1 DUP4 SLOAD DIV MUL DUP4 MSTORE SWAP2 PUSH1 0x20 ADD SWAP2 PUSH2 0x42E9 JUMP JUMPDEST DUP3 ADD SWAP2 SWAP1 PUSH0 MSTORE PUSH1 0x20 PUSH0 KECCAK256 SWAP1 JUMPDEST DUP2 SLOAD DUP2 MSTORE SWAP1 PUSH1 0x1 ADD SWAP1 PUSH1 0x20 ADD DUP1 DUP4 GT PUSH2 0x42CC JUMPI DUP3 SWAP1 SUB PUSH1 0x1F AND DUP3 ADD SWAP2 JUMPDEST POP POP POP POP POP DUP2 MSTORE PUSH1 0x20 ADD PUSH1 0x4 DUP3 ADD DUP1 SLOAD PUSH2 0x4302 SWAP1 PUSH2 0x554E JUMP JUMPDEST DUP1 PUSH1 0x1F ADD PUSH1 0x20 DUP1 SWAP2 DIV MUL PUSH1 0x20 ADD PUSH1 0x40 MLOAD SWAP1 DUP2 ADD PUSH1 0x40 MSTORE DUP1 SWAP3 SWAP2 SWAP1 DUP2 DUP2 MSTORE PUSH1 0x20 ADD DUP3 DUP1 SLOAD PUSH2 0x432E SWAP1 PUSH2 0x554E JUMP JUMPDEST DUP1 ISZERO PUSH2 0x4379 JUMPI DUP1 PUSH1 0x1F LT PUSH2 0x4350 JUMPI PUSH2 0x100 DUP1 DUP4 SLOAD DIV MUL DUP4 MSTORE SWAP2 PUSH1 0x20 ADD SWAP2 PUSH2 0x4379 JUMP JUMPDEST DUP3 ADD SWAP2 SWAP1 PUSH0 MSTORE PUSH1 0x20 PUSH0 KECCAK256 SWAP1 JUMPDEST DUP2 SLOAD DUP2 MSTORE SWAP1 PUSH1 0x1 ADD SWAP1 PUSH1 0x20 ADD DUP1 DUP4 GT PUSH2 0x435C JUMPI DUP3 SWAP1 SUB PUSH1 0x1F AND DUP3 ADD SWAP2 JUMPDEST POP POP POP POP POP DUP2 MSTORE PUSH1 0x20 ADD PUSH1 0x5 DUP3 ADD DUP1 SLOAD PUSH2 0x4392 SWAP1 PUSH2 0x554E JUMP JUMPDEST DUP1 PUSH1 0x1F ADD PUSH1 0x20 DUP1 SWAP2 DIV MUL PUSH1 0x20 ADD PUSH1 0x40 MLOAD SWAP1 DUP2 ADD PUSH1 0x40 MSTORE DUP1 SWAP3 SWAP2 SWAP1 DUP2 DUP2 MSTORE PUSH1 0x20 ADD DUP3 DUP1 SLOAD PUSH2 0x43BE SWAP1 PUSH2 0x554E JUMP JUMPDEST DUP1 ISZERO PUSH2 0x4409 JUMPI DUP1 PUSH1 0x1F LT PUSH2 0x43E0 JUMPI PUSH2 0x100 DUP1 DUP4 SLOAD DIV MUL DUP4 MSTORE SWAP2 PUSH1 0x20 ADD SWAP2 PUSH2 0x4409 JUMP JUMPDEST DUP3 ADD SWAP2 SWAP1 PUSH0 MSTORE PUSH1 0x20 PUSH0 KECCAK256 SWAP1 JUMPDEST DUP2 SLOAD DUP2 MSTORE SWAP1 PUSH1 0x1 ADD SWAP1 PUSH1 0x20 ADD DUP1 DUP4 GT PUSH2 0x43EC JUMPI DUP3 SWAP1 SUB PUSH1 0x1F AND DUP3 ADD SWAP2 JUMPDEST POP POP POP POP POP DUP2 MSTORE PUSH1 0x20 ADD PUSH1 0x6 DUP3 ADD DUP1 SLOAD PUSH2 0x4422 SWAP1 PUSH2 0x554E JUMP JUMPDEST DUP1 PUSH1 0x1F ADD PUSH1 0x20 DUP1 SWAP2 DIV MUL PUSH1 0x20 ADD PUSH1 0x40 MLOAD SWAP1 DUP2 ADD PUSH1 0x40 MSTORE DUP1 SWAP3 SWAP2 SWAP1 DUP2 DUP2 MSTORE PUSH1 0x20 ADD DUP3 DUP1 SLOAD PUSH2 0x444E SWAP1 PUSH2 0x554E JUMP JUMPDEST DUP1 ISZERO PUSH2 0x4499 JUMPI DUP1 PUSH1 0x1F LT PUSH2 0x4470 JUMPI PUSH2 0x100 DUP1 DUP4 SLOAD DIV MUL DUP4 MSTORE SWAP2 PUSH1 0x20 ADD SWAP2 PUSH2 0x4499 JUMP JUMPDEST DUP3 ADD SWAP2 SWAP1 PUSH0 MSTORE PUSH1 0x20 PUSH0 KECCAK256 SWAP1 JUMPDEST DUP2 SLOAD DUP2 MSTORE SWAP1 PUSH1 0x1 ADD SWAP1 PUSH1 0x20 ADD DUP1 DUP4 GT PUSH2 0x447C JUMPI DUP3 SWAP1 SUB PUSH1 0x1F AND DUP3 ADD SWAP2 JUMPDEST POP POP POP POP POP DUP2 MSTORE PUSH1 0x20 ADD PUSH1 0x7 DUP3 ADD DUP1 SLOAD PUSH2 0x44B2 SWAP1 PUSH2 0x554E JUMP JUMPDEST DUP1 PUSH1 0x1F ADD PUSH1 0x20 DUP1 SWAP2 DIV MUL PUSH1 0x20 ADD PUSH1 0x40 MLOAD SWAP1 DUP2 ADD PUSH1 0x40 MSTORE DUP1 SWAP3 SWAP2 SWAP1 DUP2 DUP2 MSTORE PUSH1 0x20 ADD DUP3 DUP1 SLOAD PUSH2 0x44DE SWAP1 PUSH2 0x554E JUMP JUMPDEST DUP1 ISZERO PUSH2 0x4529 JUMPI DUP1 PUSH1 0x1F LT PUSH2 0x4500 JUMPI PUSH2 0x100 DUP1 DUP4 SLOAD DIV MUL DUP4 MSTORE SWAP2 PUSH1 0x20 ADD SWAP2 PUSH2 0x4529 JUMP JUMPDEST DUP3 ADD SWAP2 SWAP1 PUSH0 MSTORE PUSH1 0x20 PUSH0 KECCAK256 SWAP1 JUMPDEST DUP2 SLOAD DUP2 MSTORE SWAP1 PUSH1 0x1 ADD SWAP1 PUSH1 0x20 ADD DUP1 DUP4 GT PUSH2 0x450C JUMPI DUP3 SWAP1 SUB PUSH1 0x1F AND DUP3 ADD SWAP2 JUMPDEST POP POP POP POP POP DUP2 MSTORE PUSH1 0x20 ADD PUSH1 0x8 DUP3 ADD DUP1 SLOAD PUSH2 0x4542 SWAP1 PUSH2 0x554E JUMP JUMPDEST DUP1 PUSH1 0x1F ADD PUSH1 0x20 DUP1 SWAP2 DIV MUL PUSH1 0x20 ADD PUSH1 0x40 MLOAD SWAP1 DUP2 ADD PUSH1 0x40 MSTORE DUP1 SWAP3 SWAP2 SWAP1 DUP2 DUP2 MSTORE PUSH1 0x20 ADD DUP3 DUP1 SLOAD PUSH2 0x456E SWAP1 PUSH2 0x554E JUMP JUMPDEST DUP1 ISZERO PUSH2 0x45B9 JUMPI DUP1 PUSH1 0x1F LT PUSH2 0x4590 JUMPI PUSH2 0x100 DUP1 DUP4 SLOAD DIV MUL DUP4 MSTORE SWAP2 PUSH1 0x20 ADD SWAP2 PUSH2 0x45B9 JUMP JUMPDEST DUP3 ADD SWAP2 SWAP1 PUSH0 MSTORE PUSH1 0x20 PUSH0 KECCAK256 SWAP1 JUMPDEST DUP2 SLOAD DUP2 MSTORE SWAP1 PUSH1 0x1 ADD SWAP1 PUSH1 0x20 ADD DUP1 DUP4 GT PUSH2 0x459C JUMPI DUP3 SWAP1 SUB PUSH1 0x1F AND DUP3 ADD SWAP2 JUMPDEST POP POP POP POP POP DUP2 MSTORE PUSH1 0x20 ADD PUSH1 0x9 DUP3 ADD DUP1 SLOAD PUSH2 0x45D2 SWAP1 PUSH2 0x554E JUMP JUMPDEST DUP1 PUSH1 0x1F ADD PUSH1 0x20 DUP1 SWAP2 DIV MUL PUSH1 0x20 ADD PUSH1 0x40 MLOAD SWAP1 DUP2 ADD PUSH1 0x40 MSTORE DUP1 SWAP3 SWAP2 SWAP1 DUP2 DUP2 MSTORE PUSH1 0x20 ADD DUP3 DUP1 SLOAD PUSH2 0x45FE SWAP1 PUSH2 0x554E JUMP JUMPDEST DUP1 ISZERO PUSH2 0x4649 JUMPI DUP1 PUSH1 0x1F LT PUSH2 0x4620 JUMPI PUSH2 0x100 DUP1 DUP4 SLOAD DIV MUL DUP4 MSTORE SWAP2 PUSH1 0x20 ADD SWAP2 PUSH2 0x4649 JUMP JUMPDEST DUP3 ADD SWAP2 SWAP1 PUSH0 MSTORE PUSH1 0x20 PUSH0 KECCAK256 SWAP1 JUMPDEST DUP2 SLOAD DUP2 MSTORE SWAP1 PUSH1 0x1 ADD SWAP1 PUSH1 0x20 ADD DUP1 DUP4 GT PUSH2 0x462C JUMPI DUP3 SWAP1 SUB PUSH1 0x1F AND DUP3 ADD SWAP2 JUMPDEST POP POP POP SWAP2 SWAP1 SWAP3 MSTORE POP POP POP SWAP1 MSTORE POP DUP4 SLOAD SWAP1 SWAP2 POP DUP4 SWAP1 PUSH2 0x4669 SWAP1 PUSH1 0x1 SWAP1 PUSH2 0x59FC JUMP JUMPDEST DUP2 SLOAD DUP2 LT PUSH2 0x4679 JUMPI PUSH2 0x4679 PUSH2 0x559F JUMP JUMPDEST SWAP1 PUSH0 MSTORE PUSH1 0x20 PUSH0 KECCAK256 SWAP1 PUSH1 0xF MUL ADD DUP4 DUP4 DUP2 SLOAD DUP2 LT PUSH2 0x4697 JUMPI PUSH2 0x4697 PUSH2 0x559F JUMP JUMPDEST PUSH0 SWAP2 DUP3 MSTORE PUSH1 0x20 SWAP1 SWAP2 KECCAK256 PUSH1 0xF SWAP1 SWAP2 MUL ADD DUP2 DUP2 DUP1 PUSH2 0x46B3 DUP4 DUP3 PUSH2 0x5A0F JUMP JUMPDEST POP PUSH1 0x1 DUP3 DUP2 ADD DUP1 SLOAD SWAP2 DUP4 ADD DUP1 SLOAD PUSH1 0xFF SWAP4 DUP5 AND PUSH32 0xFFFFFFFFFFFFFFFFFFFFFFFFFFFFFFFFFFFFFFFFFFFFFFFFFFFFFFFFFFFFFF00 DUP3 AND DUP2 OR DUP4 SSTORE SWAP3 SLOAD PUSH32 0xFFFFFFFFFFFFFFFFFFFFFFFFFFFFFFFFFFFFFFFFFFFFFFFFFFFFFFFFFFFF0000 SWAP1 SWAP2 AND SWAP1 SWAP3 OR PUSH2 0x100 SWAP3 DUP4 SWAP1 DIV SWAP1 SWAP4 AND SWAP1 SWAP2 MUL SWAP2 SWAP1 SWAP2 OR SWAP1 SSTORE PUSH1 0x2 DUP1 DUP3 ADD SWAP1 PUSH2 0x473A SWAP1 DUP5 ADD DUP3 PUSH2 0x5A0F JUMP JUMPDEST POP POP POP PUSH1 0x3 DUP2 DUP2 ADD SWAP1 PUSH2 0x474F SWAP1 DUP5 ADD DUP3 PUSH2 0x5A0F JUMP JUMPDEST POP PUSH1 0x4 DUP3 DUP2 ADD SLOAD SWAP1 DUP3 ADD DUP1 SLOAD PUSH32 0xFFFFFFFFFFFFFFFFFFFFFFFFFFFFFFFFFFFFFFFFFFFFFFFFFFFFFFFFFFFFFF00 AND PUSH1 0xFF SWAP1 SWAP3 AND SWAP2 SWAP1 SWAP2 OR SWAP1 SSTORE PUSH1 0x5 DUP1 DUP4 ADD SWAP1 DUP3 ADD DUP1 PUSH2 0x479B DUP4 DUP3 PUSH2 0x5A0F JUMP JUMPDEST POP PUSH1 0x1 DUP2 DUP2 ADD SWAP1 PUSH2 0x47AE SWAP1 DUP5 ADD DUP3 PUSH2 0x5A0F JUMP JUMPDEST POP PUSH1 0x2 DUP2 DUP2 ADD SWAP1 PUSH2 0x47C1 SWAP1 DUP5 ADD DUP3 PUSH2 0x5A0F JUMP JUMPDEST POP PUSH1 0x3 DUP2 DUP2 ADD SWAP1 PUSH2 0x47D4 SWAP1 DUP5 ADD DUP3 PUSH2 0x5A0F JUMP JUMPDEST POP PUSH1 0x4 DUP2 DUP2 ADD SWAP1 PUSH2 0x47E7 SWAP1 DUP5 ADD DUP3 PUSH2 0x5A0F JUMP JUMPDEST POP PUSH1 0x5 DUP2 DUP2 ADD SWAP1 PUSH2 0x47FA SWAP1 DUP5 ADD DUP3 PUSH2 0x5A0F JUMP JUMPDEST POP PUSH1 0x6 DUP2 DUP2 ADD SWAP1 PUSH2 0x480D SWAP1 DUP5 ADD DUP3 PUSH2 0x5A0F JUMP JUMPDEST POP PUSH1 0x7 DUP2 DUP2 ADD SWAP1 PUSH2 0x4820 SWAP1 DUP5 ADD DUP3 PUSH2 0x5A0F JUMP JUMPDEST POP PUSH1 0x8 DUP2 DUP2 ADD SWAP1 PUSH2 0x4833 SWAP1 DUP5 ADD DUP3 PUSH2 0x5A0F JUMP JUMPDEST POP PUSH1 0x9 DUP2 DUP2 ADD SWAP1 PUSH2 0x4846 SWAP1 DUP5 ADD DUP3 PUSH2 0x5A0F JUMP JUMPDEST POP POP DUP6 SLOAD DUP5 SWAP4 POP DUP7 SWAP3 POP PUSH2 0x485D SWAP2 POP PUSH1 0x1 SWAP1 PUSH2 0x59FC JUMP JUMPDEST DUP2 SLOAD DUP2 LT PUSH2 0x486D JUMPI PUSH2 0x486D PUSH2 0x559F JUMP JUMPDEST PUSH0 SWAP2 DUP3 MSTORE PUSH1 0x20 SWAP1 SWAP2 KECCAK256 DUP3 MLOAD DUP1 MLOAD PUSH1 0xF SWAP1 SWAP4 MUL SWAP1 SWAP2 ADD SWAP2 DUP3 SWAP1 DUP2 SWAP1 PUSH2 0x4891 SWAP1 DUP3 PUSH2 0x58E2 JUMP JUMPDEST POP PUSH1 0x20 DUP3 ADD MLOAD PUSH1 0x1 DUP3 ADD DUP1 SLOAD PUSH1 0x40 DUP6 ADD MLOAD PUSH1 0xFF SWAP1 DUP2 AND PUSH2 0x100 MUL PUSH32 0xFFFFFFFFFFFFFFFFFFFFFFFFFFFFFFFFFFFFFFFFFFFFFFFFFFFFFFFFFFFF0000 SWAP1 SWAP3 AND SWAP4 AND SWAP3 SWAP1 SWAP3 OR SWAP2 SWAP1 SWAP2 OR SWAP1 SSTORE PUSH1 0x60 DUP3 ADD MLOAD PUSH1 0x2 DUP3 ADD SWAP1 PUSH2 0x48EF SWAP1 DUP3 PUSH2 0x58E2 JUMP JUMPDEST POP POP POP PUSH1 0x20 DUP3 ADD MLOAD PUSH1 0x3 DUP3 ADD SWAP1 PUSH2 0x4906 SWAP1 DUP3 PUSH2 0x58E2 JUMP JUMPDEST POP PUSH1 0x40 DUP3 ADD MLOAD PUSH1 0x4 DUP3 ADD DUP1 SLOAD PUSH32 0xFFFFFFFFFFFFFFFFFFFFFFFFFFFFFFFFFFFFFFFFFFFFFFFFFFFFFFFFFFFFFF00 AND PUSH1 0xFF SWAP1 SWAP3 AND SWAP2 SWAP1 SWAP2 OR SWAP1 SSTORE PUSH1 0x60 DUP3 ADD MLOAD DUP1 MLOAD PUSH1 0x5 DUP4 ADD SWAP1 DUP2 SWAP1 PUSH2 0x4957 SWAP1 DUP3 PUSH2 0x58E2 JUMP JUMPDEST POP PUSH1 0x20 DUP3 ADD MLOAD PUSH1 0x1 DUP3 ADD SWAP1 PUSH2 0x496C SWAP1 DUP3 PUSH2 0x58E2 JUMP JUMPDEST POP PUSH1 0x40 DUP3 ADD MLOAD PUSH1 0x2 DUP3 ADD SWAP1 PUSH2 0x4981 SWAP1 DUP3 PUSH2 0x58E2 JUMP JUMPDEST POP PUSH1 0x60 DUP3 ADD MLOAD PUSH1 0x3 DUP3 ADD SWAP1 PUSH2 0x4996 SWAP1 DUP3 PUSH2 0x58E2 JUMP JUMPDEST POP PUSH1 0x80 DUP3 ADD MLOAD PUSH1 0x4 DUP3 ADD SWAP1 PUSH2 0x49AB SWAP1 DUP3 PUSH2 0x58E2 JUMP JUMPDEST POP PUSH1 0xA0 DUP3 ADD MLOAD PUSH1 0x5 DUP3 ADD SWAP1 PUSH2 0x49C0 SWAP1 DUP3 PUSH2 0x58E2 JUMP JUMPDEST POP PUSH1 0xC0 DUP3 ADD MLOAD PUSH1 0x6 DUP3 ADD SWAP1 PUSH2 0x49D5 SWAP1 DUP3 PUSH2 0x58E2 JUMP JUMPDEST POP PUSH1 0xE0 DUP3 ADD MLOAD PUSH1 0x7 DUP3 ADD SWAP1 PUSH2 0x49EA SWAP1 DUP3 PUSH2 0x58E2 JUMP JUMPDEST POP PUSH2 0x100 DUP3 ADD MLOAD PUSH1 0x8 DUP3 ADD SWAP1 PUSH2 0x4A00 SWAP1 DUP3 PUSH2 0x58E2 JUMP JUMPDEST POP PUSH2 0x120 DUP3 ADD MLOAD PUSH1 0x9 DUP3 ADD SWAP1 PUSH2 0x4A16 SWAP1 DUP3 PUSH2 0x58E2 JUMP JUMPDEST POP POP POP SWAP1 POP POP DUP3 DUP1 SLOAD DUP1 PUSH2 0x4A2C JUMPI PUSH2 0x4A2C PUSH2 0x5853 JUMP JUMPDEST PUSH0 DUP3 DUP2 MSTORE PUSH1 0x20 DUP2 KECCAK256 PUSH32 0xFFFFFFFFFFFFFFFFFFFFFFFFFFFFFFFFFFFFFFFFFFFFFFFFFFFFFFFFFFFFFFFF SWAP1 SWAP3 ADD SWAP2 PUSH1 0xF DUP4 MUL ADD SWAP1 DUP2 DUP2 PUSH2 0x4A6B DUP3 DUP3 PUSH2 0x4DF4 JUMP JUMPDEST PUSH1 0x1 DUP3 ADD DUP1 SLOAD PUSH32 0xFFFFFFFFFFFFFFFFFFFFFFFFFFFFFFFFFFFFFFFFFFFFFFFFFFFFFFFFFFFF0000 AND SWAP1 SSTORE PUSH2 0x4AA2 PUSH1 0x2 DUP4 ADD PUSH0 PUSH2 0x4DF4 JUMP JUMPDEST POP PUSH2 0x4AB2 SWAP1 POP PUSH1 0x3 DUP4 ADD PUSH0 PUSH2 0x4DF4 JUMP JUMPDEST PUSH1 0x4 DUP3 ADD DUP1 SLOAD PUSH32 0xFFFFFFFFFFFFFFFFFFFFFFFFFFFFFFFFFFFFFFFFFFFFFFFFFFFFFFFFFFFFFF00 AND SWAP1 SSTORE PUSH1 0x5 DUP3 ADD PUSH0 PUSH2 0x4AEB DUP3 DUP3 PUSH2 0x4DF4 JUMP JUMPDEST PUSH2 0x4AF8 PUSH1 0x1 DUP4 ADD PUSH0 PUSH2 0x4DF4 JUMP JUMPDEST PUSH2 0x4B05 PUSH1 0x2 DUP4 ADD PUSH0 PUSH2 0x4DF4 JUMP JUMPDEST PUSH2 0x4B12 PUSH1 0x3 DUP4 ADD PUSH0 PUSH2 0x4DF4 JUMP JUMPDEST PUSH2 0x4B1F PUSH1 0x4 DUP4 ADD PUSH0 PUSH2 0x4DF4 JUMP JUMPDEST PUSH2 0x4B2C PUSH1 0x5 DUP4 ADD PUSH0 PUSH2 0x4DF4 JUMP JUMPDEST PUSH2 0x4B39 PUSH1 0x6 DUP4 ADD PUSH0 PUSH2 0x4DF4 JUMP JUMPDEST PUSH2 0x4B46 PUSH1 0x7 DUP4 ADD PUSH0 PUSH2 0x4DF4 JUMP JUMPDEST PUSH2 0x4B53 PUSH1 0x8 DUP4 ADD PUSH0 PUSH2 0x4DF4 JUMP JUMPDEST PUSH2 0x4B60 PUSH1 0x9 DUP4 ADD PUSH0 PUSH2 0x4DF4 JUMP JUMPDEST POP POP POP POP SWAP1 SSTORE POP POP POP JUMP JUMPDEST PUSH0 PUSH1 0x30 DUP3 PUSH1 0x1 DUP2 MLOAD DUP2 LT PUSH2 0x4B81 JUMPI PUSH2 0x4B81 PUSH2 0x559F JUMP JUMPDEST ADD PUSH1 0x20 ADD MLOAD PUSH2 0x4B93 SWAP2 SWAP1 PUSH1 0xF8 SHR PUSH2 0x5B38 JUMP JUMPDEST PUSH1 0x30 DUP4 PUSH0 DUP2 MLOAD DUP2 LT PUSH2 0x4BA7 JUMPI PUSH2 0x4BA7 PUSH2 0x559F JUMP JUMPDEST ADD PUSH1 0x20 ADD MLOAD PUSH2 0x4BB9 SWAP2 SWAP1 PUSH1 0xF8 SHR PUSH2 0x5B38 JUMP JUMPDEST PUSH2 0x4BC4 SWAP1 PUSH1 0xA PUSH2 0x5688 JUMP JUMPDEST PUSH2 0x4BCE SWAP2 SWAP1 PUSH2 0x5880 JUMP JUMPDEST PUSH1 0xFF AND PUSH1 0x30 DUP5 PUSH1 0x1 DUP2 MLOAD DUP2 LT PUSH2 0x4BE6 JUMPI PUSH2 0x4BE6 PUSH2 0x559F JUMP JUMPDEST ADD PUSH1 0x20 ADD MLOAD PUSH2 0x4BF8 SWAP2 SWAP1 PUSH1 0xF8 SHR PUSH2 0x5B38 JUMP JUMPDEST PUSH1 0x30 DUP6 PUSH0 DUP2 MLOAD DUP2 LT PUSH2 0x4C0C JUMPI PUSH2 0x4C0C PUSH2 0x559F JUMP JUMPDEST ADD PUSH1 0x20 ADD MLOAD PUSH2 0x4C1E SWAP2 SWAP1 PUSH1 0xF8 SHR PUSH2 0x5B38 JUMP JUMPDEST PUSH2 0x4C29 SWAP1 PUSH1 0xA PUSH2 0x5688 JUMP JUMPDEST PUSH2 0x4C33 SWAP2 SWAP1 PUSH2 0x5880 JUMP JUMPDEST PUSH1 0xFF AND EQ DUP1 ISZERO PUSH2 0x4D0C JUMPI POP PUSH1 0x30 DUP3 PUSH1 0x4 DUP2 MLOAD DUP2 LT PUSH2 0x4C53 JUMPI PUSH2 0x4C53 PUSH2 0x559F JUMP JUMPDEST ADD PUSH1 0x20 ADD MLOAD PUSH2 0x4C65 SWAP2 SWAP1 PUSH1 0xF8 SHR PUSH2 0x5B38 JUMP JUMPDEST PUSH1 0x30 DUP4 PUSH1 0x3 DUP2 MLOAD DUP2 LT PUSH2 0x4C7A JUMPI PUSH2 0x4C7A PUSH2 0x559F JUMP JUMPDEST ADD PUSH1 0x20 ADD MLOAD PUSH2 0x4C8C SWAP2 SWAP1 PUSH1 0xF8 SHR PUSH2 0x5B38 JUMP JUMPDEST PUSH2 0x4C97 SWAP1 PUSH1 0xA PUSH2 0x5688 JUMP JUMPDEST PUSH2 0x4CA1 SWAP2 SWAP1 PUSH2 0x5880 JUMP JUMPDEST PUSH1 0xFF AND PUSH1 0x30 DUP5 PUSH1 0x4 DUP2 MLOAD DUP2 LT PUSH2 0x4CB9 JUMPI PUSH2 0x4CB9 PUSH2 0x559F JUMP JUMPDEST ADD PUSH1 0x20 ADD MLOAD PUSH2 0x4CCB SWAP2 SWAP1 PUSH1 0xF8 SHR PUSH2 0x5B38 JUMP JUMPDEST PUSH1 0x30 DUP6 PUSH1 0x3 DUP2 MLOAD DUP2 LT PUSH2 0x4CE0 JUMPI PUSH2 0x4CE0 PUSH2 0x559F JUMP JUMPDEST ADD PUSH1 0x20 ADD MLOAD PUSH2 0x4CF2 SWAP2 SWAP1 PUSH1 0xF8 SHR PUSH2 0x5B38 JUMP JUMPDEST PUSH2 0x4CFD SWAP1 PUSH1 0xA PUSH2 0x5688 JUMP JUMPDEST PUSH2 0x4D07 SWAP2 SWAP1 PUSH2 0x5880 JUMP JUMPDEST PUSH1 0xFF AND EQ JUMPDEST DUP1 ISZERO PUSH2 0x4DE1 JUMPI POP PUSH1 0x30 DUP3 PUSH1 0x7 DUP2 MLOAD DUP2 LT PUSH2 0x4D28 JUMPI PUSH2 0x4D28 PUSH2 0x559F JUMP JUMPDEST ADD PUSH1 0x20 ADD MLOAD PUSH2 0x4D3A SWAP2 SWAP1 PUSH1 0xF8 SHR PUSH2 0x5B38 JUMP JUMPDEST PUSH1 0x30 DUP4 PUSH1 0x6 DUP2 MLOAD DUP2 LT PUSH2 0x4D4F JUMPI PUSH2 0x4D4F PUSH2 0x559F JUMP JUMPDEST ADD PUSH1 0x20 ADD MLOAD PUSH2 0x4D61 SWAP2 SWAP1 PUSH1 0xF8 SHR PUSH2 0x5B38 JUMP JUMPDEST PUSH2 0x4D6C SWAP1 PUSH1 0xA PUSH2 0x5688 JUMP JUMPDEST PUSH2 0x4D76 SWAP2 SWAP1 PUSH2 0x5880 JUMP JUMPDEST PUSH1 0xFF AND PUSH1 0x30 DUP5 PUSH1 0x7 DUP2 MLOAD DUP2 LT PUSH2 0x4D8E JUMPI PUSH2 0x4D8E PUSH2 0x559F JUMP JUMPDEST ADD PUSH1 0x20 ADD MLOAD PUSH2 0x4DA0 SWAP2 SWAP1 PUSH1 0xF8 SHR PUSH2 0x5B38 JUMP JUMPDEST PUSH1 0x30 DUP6 PUSH1 0x6 DUP2 MLOAD DUP2 LT PUSH2 0x4DB5 JUMPI PUSH2 0x4DB5 PUSH2 0x559F JUMP JUMPDEST ADD PUSH1 0x20 ADD MLOAD PUSH2 0x4DC7 SWAP2 SWAP1 PUSH1 0xF8 SHR PUSH2 0x5B38 JUMP JUMPDEST PUSH2 0x4DD2 SWAP1 PUSH1 0xA PUSH2 0x5688 JUMP JUMPDEST PUSH2 0x4DDC SWAP2 SWAP1 PUSH2 0x5880 JUMP JUMPDEST PUSH1 0xFF AND EQ JUMPDEST PUSH2 0x4DEB JUMPI PUSH0 PUSH2 0x3753 JUMP JUMPDEST POP PUSH1 0x1 SWAP3 SWAP2 POP POP JUMP JUMPDEST POP DUP1 SLOAD PUSH2 0x4E00 SWAP1 PUSH2 0x554E JUMP JUMPDEST PUSH0 DUP3 SSTORE DUP1 PUSH1 0x1F LT PUSH2 0x4E0F JUMPI POP POP JUMP JUMPDEST PUSH1 0x1F ADD PUSH1 0x20 SWAP1 DIV SWAP1 PUSH0 MSTORE PUSH1 0x20 PUSH0 KECCAK256 SWAP1 DUP2 ADD SWAP1 PUSH2 0x34C1 SWAP2 SWAP1 JUMPDEST DUP1 DUP3 GT ISZERO PUSH2 0x4E3A JUMPI PUSH0 DUP2 SSTORE PUSH1 0x1 ADD PUSH2 0x4E27 JUMP JUMPDEST POP SWAP1 JUMP JUMPDEST PUSH32 0x4E487B7100000000000000000000000000000000000000000000000000000000 PUSH0 MSTORE PUSH1 0x41 PUSH1 0x4 MSTORE PUSH1 0x24 PUSH0 REVERT JUMPDEST PUSH1 0x40 MLOAD PUSH2 0x140 DUP2 ADD PUSH8 0xFFFFFFFFFFFFFFFF DUP2 GT DUP3 DUP3 LT OR ISZERO PUSH2 0x4E8F JUMPI PUSH2 0x4E8F PUSH2 0x4E3E JUMP JUMPDEST PUSH1 0x40 MSTORE SWAP1 JUMP JUMPDEST PUSH1 0x40 MLOAD PUSH1 0x80 DUP2 ADD PUSH8 0xFFFFFFFFFFFFFFFF DUP2 GT DUP3 DUP3 LT OR ISZERO PUSH2 0x4E8F JUMPI PUSH2 0x4E8F PUSH2 0x4E3E JUMP JUMPDEST PUSH0 DUP3 PUSH1 0x1F DUP4 ADD SLT PUSH2 0x4EC7 JUMPI PUSH0 PUSH0 REVERT JUMPDEST DUP2 CALLDATALOAD PUSH8 0xFFFFFFFFFFFFFFFF DUP2 GT ISZERO PUSH2 0x4EE1 JUMPI PUSH2 0x4EE1 PUSH2 0x4E3E JUMP JUMPDEST PUSH1 0x40 MLOAD PUSH1 0x1F DUP3 ADD PUSH32 0xFFFFFFFFFFFFFFFFFFFFFFFFFFFFFFFFFFFFFFFFFFFFFFFFFFFFFFFFFFFFFFE0 SWAP1 DUP2 AND PUSH1 0x3F ADD AND DUP2 ADD PUSH8 0xFFFFFFFFFFFFFFFF DUP2 GT DUP3 DUP3 LT OR ISZERO PUSH2 0x4F2E JUMPI PUSH2 0x4F2E PUSH2 0x4E3E JUMP JUMPDEST PUSH1 0x40 MSTORE DUP2 DUP2 MSTORE DUP4 DUP3 ADD PUSH1 0x20 ADD DUP6 LT ISZERO PUSH2 0x4F45 JUMPI PUSH0 PUSH0 REVERT JUMPDEST DUP2 PUSH1 0x20 DUP6 ADD PUSH1 0x20 DUP4 ADD CALLDATACOPY PUSH0 SWAP2 DUP2 ADD PUSH1 0x20 ADD SWAP2 SWAP1 SWAP2 MSTORE SWAP4 SWAP3 POP POP POP JUMP JUMPDEST DUP1 CALLDATALOAD PUSH1 0xFF DUP2 AND DUP2 EQ PUSH2 0x4F71 JUMPI PUSH0 PUSH0 REVERT JUMPDEST SWAP2 SWAP1 POP JUMP JUMPDEST PUSH0 PUSH0 PUSH1 0x40 DUP4 DUP6 SUB SLT ISZERO PUSH2 0x4F87 JUMPI PUSH0 PUSH0 REVERT JUMPDEST DUP3 CALLDATALOAD PUSH8 0xFFFFFFFFFFFFFFFF DUP2 GT ISZERO PUSH2 0x4F9D JUMPI PUSH0 PUSH0 REVERT JUMPDEST PUSH2 0x4FA9 DUP6 DUP3 DUP7 ADD PUSH2 0x4EB8 JUMP JUMPDEST SWAP3 POP POP PUSH2 0x4FB8 PUSH1 0x20 DUP5 ADD PUSH2 0x4F61 JUMP JUMPDEST SWAP1 POP SWAP3 POP SWAP3 SWAP1 POP JUMP JUMPDEST PUSH0 DUP2 MLOAD DUP1 DUP5 MSTORE DUP1 PUSH1 0x20 DUP5 ADD PUSH1 0x20 DUP7 ADD MCOPY PUSH0 PUSH1 0x20 DUP3 DUP7 ADD ADD MSTORE PUSH1 0x20 PUSH32 0xFFFFFFFFFFFFFFFFFFFFFFFFFFFFFFFFFFFFFFFFFFFFFFFFFFFFFFFFFFFFFFE0 PUSH1 0x1F DUP4 ADD AND DUP6 ADD ADD SWAP2 POP POP SWAP3 SWAP2 POP POP JUMP JUMPDEST PUSH0 DUP2 MLOAD PUSH2 0x140 DUP5 MSTORE PUSH2 0x5023 PUSH2 0x140 DUP6 ADD DUP3 PUSH2 0x4FC1 JUMP JUMPDEST SWAP1 POP PUSH1 0x20 DUP4 ADD MLOAD DUP5 DUP3 SUB PUSH1 0x20 DUP7 ADD MSTORE PUSH2 0x503C DUP3 DUP3 PUSH2 0x4FC1 JUMP JUMPDEST SWAP2 POP POP PUSH1 0x40 DUP4 ADD MLOAD DUP5 DUP3 SUB PUSH1 0x40 DUP7 ADD MSTORE PUSH2 0x5056 DUP3 DUP3 PUSH2 0x4FC1 JUMP JUMPDEST SWAP2 POP POP PUSH1 0x60 DUP4 ADD MLOAD DUP5 DUP3 SUB PUSH1 0x60 DUP7 ADD MSTORE PUSH2 0x5070 DUP3 DUP3 PUSH2 0x4FC1 JUMP JUMPDEST SWAP2 POP POP PUSH1 0x80 DUP4 ADD MLOAD DUP5 DUP3 SUB PUSH1 0x80 DUP7 ADD MSTORE PUSH2 0x508A DUP3 DUP3 PUSH2 0x4FC1 JUMP JUMPDEST SWAP2 POP POP PUSH1 0xA0 DUP4 ADD MLOAD DUP5 DUP3 SUB PUSH1 0xA0 DUP7 ADD MSTORE PUSH2 0x50A4 DUP3 DUP3 PUSH2 0x4FC1 JUMP JUMPDEST SWAP2 POP POP PUSH1 0xC0 DUP4 ADD MLOAD DUP5 DUP3 SUB PUSH1 0xC0 DUP7 ADD MSTORE PUSH2 0x50BE DUP3 DUP3 PUSH2 0x4FC1 JUMP JUMPDEST SWAP2 POP POP PUSH1 0xE0 DUP4 ADD MLOAD DUP5 DUP3 SUB PUSH1 0xE0 DUP7 ADD MSTORE PUSH2 0x50D8 DUP3 DUP3 PUSH2 0x4FC1 JUMP JUMPDEST SWAP2 POP POP PUSH2 0x100 DUP4 ADD MLOAD DUP5 DUP3 SUB PUSH2 0x100 DUP7 ADD MSTORE PUSH2 0x50F4 DUP3 DUP3 PUSH2 0x4FC1 JUMP JUMPDEST SWAP2 POP POP PUSH2 0x120 DUP4 ADD MLOAD DUP5 DUP3 SUB PUSH2 0x120 DUP7 ADD MSTORE PUSH2 0x5110 DUP3 DUP3 PUSH2 0x4FC1 JUMP JUMPDEST SWAP6 SWAP5 POP POP POP POP POP JUMP JUMPDEST PUSH0 PUSH1 0x20 DUP3 ADD PUSH1 0x20 DUP4 MSTORE DUP1 DUP5 MLOAD DUP1 DUP4 MSTORE PUSH1 0x40 DUP6 ADD SWAP2 POP PUSH1 0x40 DUP2 PUSH1 0x5 SHL DUP7 ADD ADD SWAP3 POP PUSH1 0x20 DUP7 ADD PUSH0 JUMPDEST DUP3 DUP2 LT ISZERO PUSH2 0x5245 JUMPI PUSH32 0xFFFFFFFFFFFFFFFFFFFFFFFFFFFFFFFFFFFFFFFFFFFFFFFFFFFFFFFFFFFFFFC0 DUP8 DUP7 SUB ADD DUP5 MSTORE DUP2 MLOAD DUP1 MLOAD PUSH1 0x80 DUP8 MSTORE DUP1 MLOAD PUSH1 0x80 DUP1 DUP10 ADD MSTORE PUSH2 0x518C PUSH2 0x100 DUP10 ADD DUP3 PUSH2 0x4FC1 JUMP JUMPDEST SWAP1 POP PUSH1 0xFF PUSH1 0x20 DUP4 ADD MLOAD AND PUSH1 0xA0 DUP10 ADD MSTORE PUSH1 0xFF PUSH1 0x40 DUP4 ADD MLOAD AND PUSH1 0xC0 DUP10 ADD MSTORE PUSH1 0x60 DUP3 ADD MLOAD SWAP2 POP PUSH32 0xFFFFFFFFFFFFFFFFFFFFFFFFFFFFFFFFFFFFFFFFFFFFFFFFFFFFFFFFFFFFFF80 DUP9 DUP3 SUB ADD PUSH1 0xE0 DUP10 ADD MSTORE PUSH2 0x51E3 DUP2 DUP4 PUSH2 0x4FC1 JUMP JUMPDEST SWAP2 POP POP PUSH1 0x20 DUP3 ADD MLOAD DUP8 DUP3 SUB PUSH1 0x20 DUP10 ADD MSTORE PUSH2 0x51FD DUP3 DUP3 PUSH2 0x4FC1 JUMP JUMPDEST SWAP2 POP POP PUSH1 0x40 DUP3 ADD MLOAD PUSH2 0x5214 PUSH1 0x40 DUP10 ADD DUP3 PUSH1 0xFF AND SWAP1 MSTORE JUMP JUMPDEST POP PUSH1 0x60 DUP3 ADD MLOAD SWAP2 POP DUP7 DUP2 SUB PUSH1 0x60 DUP9 ADD MSTORE PUSH2 0x522E DUP2 DUP4 PUSH2 0x500D JUMP JUMPDEST SWAP7 POP POP POP PUSH1 0x20 SWAP4 DUP5 ADD SWAP4 SWAP2 SWAP1 SWAP2 ADD SWAP1 PUSH1 0x1 ADD PUSH2 0x513F JUMP JUMPDEST POP SWAP3 SWAP7 SWAP6 POP POP POP POP POP POP JUMP JUMPDEST PUSH0 PUSH2 0x140 DUP3 DUP5 SUB SLT ISZERO PUSH2 0x5262 JUMPI PUSH0 PUSH0 REVERT JUMPDEST PUSH2 0x526A PUSH2 0x4E6B JUMP JUMPDEST SWAP1 POP DUP2 CALLDATALOAD PUSH8 0xFFFFFFFFFFFFFFFF DUP2 GT ISZERO PUSH2 0x5282 JUMPI PUSH0 PUSH0 REVERT JUMPDEST PUSH2 0x528E DUP5 DUP3 DUP6 ADD PUSH2 0x4EB8 JUMP JUMPDEST DUP3 MSTORE POP PUSH1 0x20 DUP3 ADD CALLDATALOAD PUSH8 0xFFFFFFFFFFFFFFFF DUP2 GT ISZERO PUSH2 0x52AA JUMPI PUSH0 PUSH0 REVERT JUMPDEST PUSH2 0x52B6 DUP5 DUP3 DUP6 ADD PUSH2 0x4EB8 JUMP JUMPDEST PUSH1 0x20 DUP4 ADD MSTORE POP PUSH1 0x40 DUP3 ADD CALLDATALOAD PUSH8 0xFFFFFFFFFFFFFFFF DUP2 GT ISZERO PUSH2 0x52D5 JUMPI PUSH0 PUSH0 REVERT JUMPDEST PUSH2 0x52E1 DUP5 DUP3 DUP6 ADD PUSH2 0x4EB8 JUMP JUMPDEST PUSH1 0x40 DUP4 ADD MSTORE POP PUSH1 0x60 DUP3 ADD CALLDATALOAD PUSH8 0xFFFFFFFFFFFFFFFF DUP2 GT ISZERO PUSH2 0x5300 JUMPI PUSH0 PUSH0 REVERT JUMPDEST PUSH2 0x530C DUP5 DUP3 DUP6 ADD PUSH2 0x4EB8 JUMP JUMPDEST PUSH1 0x60 DUP4 ADD MSTORE POP PUSH1 0x80 DUP3 ADD CALLDATALOAD PUSH8 0xFFFFFFFFFFFFFFFF DUP2 GT ISZERO PUSH2 0x532B JUMPI PUSH0 PUSH0 REVERT JUMPDEST PUSH2 0x5337 DUP5 DUP3 DUP6 ADD PUSH2 0x4EB8 JUMP JUMPDEST PUSH1 0x80 DUP4 ADD MSTORE POP PUSH1 0xA0 DUP3 ADD CALLDATALOAD PUSH8 0xFFFFFFFFFFFFFFFF DUP2 GT ISZERO PUSH2 0x5356 JUMPI PUSH0 PUSH0 REVERT JUMPDEST PUSH2 0x5362 DUP5 DUP3 DUP6 ADD PUSH2 0x4EB8 JUMP JUMPDEST PUSH1 0xA0 DUP4 ADD MSTORE POP PUSH1 0xC0 DUP3 ADD CALLDATALOAD PUSH8 0xFFFFFFFFFFFFFFFF DUP2 GT ISZERO PUSH2 0x5381 JUMPI PUSH0 PUSH0 REVERT JUMPDEST PUSH2 0x538D DUP5 DUP3 DUP6 ADD PUSH2 0x4EB8 JUMP JUMPDEST PUSH1 0xC0 DUP4 ADD MSTORE POP PUSH1 0xE0 DUP3 ADD CALLDATALOAD PUSH8 0xFFFFFFFFFFFFFFFF DUP2 GT ISZERO PUSH2 0x53AC JUMPI PUSH0 PUSH0 REVERT JUMPDEST PUSH2 0x53B8 DUP5 DUP3 DUP6 ADD PUSH2 0x4EB8 JUMP JUMPDEST PUSH1 0xE0 DUP4 ADD MSTORE POP PUSH2 0x100 DUP3 ADD CALLDATALOAD PUSH8 0xFFFFFFFFFFFFFFFF DUP2 GT ISZERO PUSH2 0x53D8 JUMPI PUSH0 PUSH0 REVERT JUMPDEST PUSH2 0x53E4 DUP5 DUP3 DUP6 ADD PUSH2 0x4EB8 JUMP JUMPDEST PUSH2 0x100 DUP4 ADD MSTORE POP PUSH2 0x120 DUP3 ADD CALLDATALOAD PUSH8 0xFFFFFFFFFFFFFFFF DUP2 GT ISZERO PUSH2 0x5405 JUMPI PUSH0 PUSH0 REVERT JUMPDEST PUSH2 0x5411 DUP5 DUP3 DUP6 ADD PUSH2 0x4EB8 JUMP JUMPDEST PUSH2 0x120 DUP4 ADD MSTORE POP SWAP3 SWAP2 POP POP JUMP JUMPDEST PUSH0 PUSH0 PUSH0 PUSH0 PUSH1 0x80 DUP6 DUP8 SUB SLT ISZERO PUSH2 0x5431 JUMPI PUSH0 PUSH0 REVERT JUMPDEST DUP5 CALLDATALOAD PUSH8 0xFFFFFFFFFFFFFFFF DUP2 GT ISZERO PUSH2 0x5447 JUMPI PUSH0 PUSH0 REVERT JUMPDEST DUP6 ADD PUSH1 0x80 DUP2 DUP9 SUB SLT ISZERO PUSH2 0x5458 JUMPI PUSH0 PUSH0 REVERT JUMPDEST PUSH2 0x5460 PUSH2 0x4E95 JUMP JUMPDEST DUP2 CALLDATALOAD PUSH8 0xFFFFFFFFFFFFFFFF DUP2 GT ISZERO PUSH2 0x5476 JUMPI PUSH0 PUSH0 REVERT JUMPDEST PUSH2 0x5482 DUP10 DUP3 DUP6 ADD PUSH2 0x4EB8 JUMP JUMPDEST DUP3 MSTORE POP PUSH2 0x5491 PUSH1 0x20 DUP4 ADD PUSH2 0x4F61 JUMP JUMPDEST PUSH1 0x20 DUP3 ADD MSTORE PUSH2 0x54A2 PUSH1 0x40 DUP4 ADD PUSH2 0x4F61 JUMP JUMPDEST PUSH1 0x40 DUP3 ADD MSTORE PUSH1 0x60 DUP3 ADD CALLDATALOAD PUSH8 0xFFFFFFFFFFFFFFFF DUP2 GT ISZERO PUSH2 0x54C0 JUMPI PUSH0 PUSH0 REVERT JUMPDEST PUSH2 0x54CC DUP10 DUP3 DUP6 ADD PUSH2 0x4EB8 JUMP JUMPDEST PUSH1 0x60 DUP4 ADD MSTORE POP SWAP5 POP POP PUSH1 0x20 DUP6 ADD CALLDATALOAD PUSH8 0xFFFFFFFFFFFFFFFF DUP2 GT ISZERO PUSH2 0x54EE JUMPI PUSH0 PUSH0 REVERT JUMPDEST PUSH2 0x54FA DUP8 DUP3 DUP9 ADD PUSH2 0x4EB8 JUMP JUMPDEST SWAP4 POP POP PUSH2 0x5509 PUSH1 0x40 DUP7 ADD PUSH2 0x4F61 JUMP JUMPDEST SWAP2 POP PUSH1 0x60 DUP6 ADD CALLDATALOAD PUSH8 0xFFFFFFFFFFFFFFFF DUP2 GT ISZERO PUSH2 0x5524 JUMPI PUSH0 PUSH0 REVERT JUMPDEST PUSH2 0x5530 DUP8 DUP3 DUP9 ADD PUSH2 0x5251 JUMP JUMPDEST SWAP2 POP POP SWAP3 SWAP6 SWAP2 SWAP5 POP SWAP3 POP JUMP JUMPDEST PUSH1 0x20 DUP2 MSTORE PUSH0 PUSH2 0x3753 PUSH1 0x20 DUP4 ADD DUP5 PUSH2 0x4FC1 JUMP JUMPDEST PUSH1 0x1 DUP2 DUP2 SHR SWAP1 DUP3 AND DUP1 PUSH2 0x5562 JUMPI PUSH1 0x7F DUP3 AND SWAP2 POP JUMPDEST PUSH1 0x20 DUP3 LT DUP2 SUB PUSH2 0x5599 JUMPI PUSH32 0x4E487B7100000000000000000000000000000000000000000000000000000000 PUSH0 MSTORE PUSH1 0x22 PUSH1 0x4 MSTORE PUSH1 0x24 PUSH0 REVERT JUMPDEST POP SWAP2 SWAP1 POP JUMP JUMPDEST PUSH32 0x4E487B7100000000000000000000000000000000000000000000000000000000 PUSH0 MSTORE PUSH1 0x32 PUSH1 0x4 MSTORE PUSH1 0x24 PUSH0 REVERT JUMPDEST PUSH0 PUSH0 DUP4 SLOAD PUSH2 0x55D9 DUP2 PUSH2 0x554E JUMP JUMPDEST PUSH1 0x1 DUP3 AND DUP1 ISZERO PUSH2 0x55F0 JUMPI PUSH1 0x1 DUP2 EQ PUSH2 0x5623 JUMPI PUSH2 0x5650 JUMP JUMPDEST PUSH32 0xFFFFFFFFFFFFFFFFFFFFFFFFFFFFFFFFFFFFFFFFFFFFFFFFFFFFFFFFFFFFFF00 DUP4 AND DUP7 MSTORE DUP2 ISZERO ISZERO DUP3 MUL DUP7 ADD SWAP4 POP PUSH2 0x5650 JUMP JUMPDEST DUP7 PUSH0 MSTORE PUSH1 0x20 PUSH0 KECCAK256 PUSH0 JUMPDEST DUP4 DUP2 LT ISZERO PUSH2 0x5648 JUMPI DUP2 SLOAD DUP9 DUP3 ADD MSTORE PUSH1 0x1 SWAP1 SWAP2 ADD SWAP1 PUSH1 0x20 ADD PUSH2 0x562C JUMP JUMPDEST POP POP DUP2 DUP7 ADD SWAP4 POP JUMPDEST POP SWAP2 SWAP6 SWAP5 POP POP POP POP POP JUMP JUMPDEST PUSH32 0x4E487B7100000000000000000000000000000000000000000000000000000000 PUSH0 MSTORE PUSH1 0x11 PUSH1 0x4 MSTORE PUSH1 0x24 PUSH0 REVERT JUMPDEST PUSH1 0xFF DUP2 DUP2 AND DUP4 DUP3 AND MUL SWAP1 DUP2 AND SWAP1 DUP2 DUP2 EQ PUSH2 0x8EA JUMPI PUSH2 0x8EA PUSH2 0x565B JUMP JUMPDEST PUSH0 DUP2 SLOAD PUSH2 0x56B0 DUP2 PUSH2 0x554E JUMP JUMPDEST DUP1 DUP6 MSTORE PUSH1 0x1 DUP3 AND DUP1 ISZERO PUSH2 0x56CA JUMPI PUSH1 0x1 DUP2 EQ PUSH2 0x5704 JUMPI PUSH2 0x5738 JUMP JUMPDEST PUSH32 0xFFFFFFFFFFFFFFFFFFFFFFFFFFFFFFFFFFFFFFFFFFFFFFFFFFFFFFFFFFFFFF00 DUP4 AND PUSH1 0x20 DUP8 ADD MSTORE PUSH1 0x20 DUP3 ISZERO ISZERO PUSH1 0x5 SHL DUP8 ADD ADD SWAP4 POP PUSH2 0x5738 JUMP JUMPDEST DUP5 PUSH0 MSTORE PUSH1 0x20 PUSH0 KECCAK256 PUSH0 JUMPDEST DUP4 DUP2 LT ISZERO PUSH2 0x572F JUMPI DUP2 SLOAD PUSH1 0x20 DUP3 DUP11 ADD ADD MSTORE PUSH1 0x1 DUP3 ADD SWAP2 POP PUSH1 0x20 DUP2 ADD SWAP1 POP PUSH2 0x570D JUMP JUMPDEST DUP8 ADD PUSH1 0x20 ADD SWAP5 POP POP JUMPDEST POP POP POP SWAP3 SWAP2 POP POP JUMP JUMPDEST PUSH1 0x80 DUP2 MSTORE PUSH1 0x80 DUP1 DUP3 ADD MSTORE PUSH0 PUSH2 0x575A PUSH2 0x100 DUP4 ADD DUP8 PUSH2 0x56A4 JUMP JUMPDEST PUSH1 0x1 DUP8 ADD SLOAD PUSH1 0xFF DUP2 AND PUSH1 0xA0 DUP6 ADD MSTORE PUSH1 0xFF DUP2 PUSH1 0x8 SHR AND PUSH1 0xC0 DUP6 ADD MSTORE POP PUSH32 0xFFFFFFFFFFFFFFFFFFFFFFFFFFFFFFFFFFFFFFFFFFFFFFFFFFFFFFFFFFFFFF80 DUP4 DUP3 SUB ADD PUSH1 0xE0 DUP5 ADD MSTORE PUSH2 0x57AC DUP2 PUSH1 0x2 DUP10 ADD PUSH2 0x56A4 JUMP JUMPDEST SWAP1 POP DUP3 DUP2 SUB PUSH1 0x20 DUP5 ADD MSTORE PUSH2 0x57C0 DUP2 DUP8 PUSH2 0x56A4 JUMP JUMPDEST SWAP2 POP POP PUSH1 0xFF DUP5 AND PUSH1 0x40 DUP4 ADD MSTORE PUSH2 0x5110 PUSH1 0x60 DUP4 ADD DUP5 PUSH1 0xFF AND SWAP1 MSTORE JUMP JUMPDEST PUSH0 DUP3 DUP2 SIGNEXTEND SWAP1 DUP3 SWAP1 SIGNEXTEND SUB PUSH32 0xFFFFFFFFFFFFFFFFFFFFFFFFFFFFFFFFFFFFFFFFFFFFFFFFFFFFFFFFFFFFFF80 DUP2 SLT PUSH1 0x7F DUP3 SGT OR ISZERO PUSH2 0x3756 JUMPI PUSH2 0x3756 PUSH2 0x565B JUMP JUMPDEST PUSH0 DUP3 PUSH0 SIGNEXTEND DUP3 PUSH0 SIGNEXTEND MUL DUP1 PUSH0 SIGNEXTEND SWAP2 POP DUP1 DUP3 EQ PUSH2 0x8EA JUMPI PUSH2 0x8EA PUSH2 0x565B JUMP JUMPDEST PUSH0 PUSH1 0xFF DUP3 AND PUSH1 0xFF DUP2 SUB PUSH2 0x584A JUMPI PUSH2 0x584A PUSH2 0x565B JUMP JUMPDEST PUSH1 0x1 ADD SWAP3 SWAP2 POP POP JUMP JUMPDEST PUSH32 0x4E487B7100000000000000000000000000000000000000000000000000000000 PUSH0 MSTORE PUSH1 0x31 PUSH1 0x4 MSTORE PUSH1 0x24 PUSH0 REVERT JUMPDEST PUSH1 0xFF DUP2 DUP2 AND DUP4 DUP3 AND ADD SWAP1 DUP2 GT ISZERO PUSH2 0x3756 JUMPI PUSH2 0x3756 PUSH2 0x565B JUMP JUMPDEST PUSH1 0x1F DUP3 GT ISZERO PUSH2 0x58DD JUMPI DUP1 PUSH0 MSTORE PUSH1 0x20 PUSH0 KECCAK256 PUSH1 0x1F DUP5 ADD PUSH1 0x5 SHR DUP2 ADD PUSH1 0x20 DUP6 LT ISZERO PUSH2 0x58BE JUMPI POP DUP1 JUMPDEST PUSH1 0x1F DUP5 ADD PUSH1 0x5 SHR DUP3 ADD SWAP2 POP JUMPDEST DUP2 DUP2 LT ISZERO PUSH2 0x19CA JUMPI PUSH0 DUP2 SSTORE PUSH1 0x1 ADD PUSH2 0x58CA JUMP JUMPDEST POP POP POP JUMP JUMPDEST DUP2 MLOAD PUSH8 0xFFFFFFFFFFFFFFFF DUP2 GT ISZERO PUSH2 0x58FC JUMPI PUSH2 0x58FC PUSH2 0x4E3E JUMP JUMPDEST PUSH2 0x5910 DUP2 PUSH2 0x590A DUP5 SLOAD PUSH2 0x554E JUMP JUMPDEST DUP5 PUSH2 0x5899 JUMP JUMPDEST PUSH1 0x20 PUSH1 0x1F DUP3 GT PUSH1 0x1 DUP2 EQ PUSH2 0x5964 JUMPI PUSH0 DUP4 ISZERO PUSH2 0x592B JUMPI POP DUP5 DUP3 ADD MLOAD JUMPDEST PUSH1 0x1 DUP5 SWAP1 SHL PUSH32 0xFFFFFFFFFFFFFFFFFFFFFFFFFFFFFFFFFFFFFFFFFFFFFFFFFFFFFFFFFFFFFFFF PUSH1 0x3 DUP7 SWAP1 SHL SHR NOT DUP3 AND OR JUMPDEST DUP6 SSTORE POP PUSH2 0x19CA JUMP JUMPDEST PUSH0 DUP5 DUP2 MSTORE PUSH1 0x20 DUP2 KECCAK256 PUSH32 0xFFFFFFFFFFFFFFFFFFFFFFFFFFFFFFFFFFFFFFFFFFFFFFFFFFFFFFFFFFFFFFE0 DUP6 AND SWAP2 JUMPDEST DUP3 DUP2 LT ISZERO PUSH2 0x59B1 JUMPI DUP8 DUP6 ADD MLOAD DUP3 SSTORE PUSH1 0x20 SWAP5 DUP6 ADD SWAP5 PUSH1 0x1 SWAP1 SWAP3 ADD SWAP2 ADD PUSH2 0x5991 JUMP JUMPDEST POP DUP5 DUP3 LT ISZERO PUSH2 0x59ED JUMPI DUP7 DUP5 ADD MLOAD PUSH32 0xFFFFFFFFFFFFFFFFFFFFFFFFFFFFFFFFFFFFFFFFFFFFFFFFFFFFFFFFFFFFFFFF PUSH1 0x3 DUP8 SWAP1 SHL PUSH1 0xF8 AND SHR NOT AND DUP2 SSTORE JUMPDEST POP POP POP POP PUSH1 0x1 SWAP1 DUP2 SHL ADD SWAP1 SSTORE POP JUMP JUMPDEST DUP2 DUP2 SUB DUP2 DUP2 GT ISZERO PUSH2 0x3756 JUMPI PUSH2 0x3756 PUSH2 0x565B JUMP JUMPDEST DUP2 DUP2 SUB PUSH2 0x5A1A JUMPI POP POP JUMP JUMPDEST PUSH2 0x5A24 DUP3 SLOAD PUSH2 0x554E JUMP JUMPDEST PUSH8 0xFFFFFFFFFFFFFFFF DUP2 GT ISZERO PUSH2 0x5A3C JUMPI PUSH2 0x5A3C PUSH2 0x4E3E JUMP JUMPDEST PUSH2 0x5A4A DUP2 PUSH2 0x590A DUP5 SLOAD PUSH2 0x554E JUMP JUMPDEST PUSH0 PUSH1 0x1F DUP3 GT PUSH1 0x1 DUP2 EQ PUSH2 0x5A98 JUMPI PUSH0 DUP4 ISZERO PUSH2 0x592B JUMPI POP DUP2 DUP6 ADD SLOAD PUSH1 0x1 DUP5 SWAP1 SHL PUSH32 0xFFFFFFFFFFFFFFFFFFFFFFFFFFFFFFFFFFFFFFFFFFFFFFFFFFFFFFFFFFFFFFFF PUSH1 0x3 DUP7 SWAP1 SHL SHR NOT DUP3 AND OR PUSH2 0x595C JUMP JUMPDEST PUSH0 DUP6 DUP2 MSTORE PUSH1 0x20 DUP1 DUP3 KECCAK256 DUP7 DUP4 MSTORE SWAP1 DUP3 KECCAK256 PUSH32 0xFFFFFFFFFFFFFFFFFFFFFFFFFFFFFFFFFFFFFFFFFFFFFFFFFFFFFFFFFFFFFFE0 DUP7 AND SWAP3 JUMPDEST DUP4 DUP2 LT ISZERO PUSH2 0x5AEC JUMPI DUP3 DUP7 ADD SLOAD DUP3 SSTORE PUSH1 0x1 SWAP6 DUP7 ADD SWAP6 SWAP1 SWAP2 ADD SWAP1 PUSH1 0x20 ADD PUSH2 0x5ACC JUMP JUMPDEST POP DUP6 DUP4 LT ISZERO PUSH2 0x5B28 JUMPI DUP2 DUP6 ADD SLOAD PUSH32 0xFFFFFFFFFFFFFFFFFFFFFFFFFFFFFFFFFFFFFFFFFFFFFFFFFFFFFFFFFFFFFFFF PUSH1 0x3 DUP9 SWAP1 SHL PUSH1 0xF8 AND SHR NOT AND DUP2 SSTORE JUMPDEST POP POP POP POP POP PUSH1 0x1 SWAP1 DUP2 SHL ADD SWAP1 SSTORE POP JUMP JUMPDEST PUSH1 0xFF DUP3 DUP2 AND DUP3 DUP3 AND SUB SWAP1 DUP2 GT ISZERO PUSH2 0x3756 JUMPI PUSH2 0x3756 PUSH2 0x565B JUMP INVALID LOG2 PUSH5 0x6970667358 0x22 SLT KECCAK256 STATICCALL PREVRANDAO EXTCALL CALLDATALOAD SWAP6 SWAP12 SLOAD JUMPDEST 0x1F PUSH17 0x2531C3A3B7DFA7135A71B0B27DC42912A6 0xCC 0xBC DUP2 0xA5 SWAP9 PUSH5 0x736F6C6343 STOP ADDMOD 0x1E STOP CALLER "
		},
		"gasEstimates": {
			"creation": {
				"codeDepositCost": "4686200",
				"executionCost": "infinite",
				"totalCost": "infinite"
			},
			"external": {
				"regDonor((string,uint8,uint8,string),string,uint8,(string,string,string,string,string,string,string,string,string,string))": "infinite",
				"regRecipient((string,uint8,uint8,string),string,uint8,(string,string,string,string,string,string,string,string,string,string))": "infinite",
				"showLists(string,uint8)": "infinite"
			},
			"internal": {
				"showMatch()": "infinite"
			}
		},
		"methodIdentifiers": {
			"regDonor((string,uint8,uint8,string),string,uint8,(string,string,string,string,string,string,string,string,string,string))": "b59e0f9e",
			"regRecipient((string,uint8,uint8,string),string,uint8,(string,string,string,string,string,string,string,string,string,string))": "f86813ff",
			"showLists(string,uint8)": "0f65c931"
		}
	},
	"abi": [
		{
			"inputs": [
				{
					"internalType": "string",
					"name": "_adminPass",
					"type": "string"
				}
			],
			"stateMutability": "payable",
			"type": "constructor"
		},
		{
			"anonymous": false,
			"inputs": [
				{
					"components": [
						{
							"internalType": "string",
							"name": "name",
							"type": "string"
						},
						{
							"internalType": "uint8",
							"name": "age",
							"type": "uint8"
						},
						{
							"internalType": "uint8",
							"name": "bloodtype",
							"type": "uint8"
						},
						{
							"internalType": "string",
							"name": "hospital",
							"type": "string"
						}
					],
					"indexed": false,
					"internalType": "struct utils.persInfo",
					"name": "info",
					"type": "tuple"
				},
				{
					"indexed": false,
					"internalType": "string",
					"name": "organ",
					"type": "string"
				},
				{
					"indexed": false,
					"internalType": "uint8",
					"name": "mP",
					"type": "uint8"
				},
				{
					"indexed": false,
					"internalType": "uint8",
					"name": "qty",
					"type": "uint8"
				}
			],
			"name": "MatchFound",
			"type": "event"
		},
		{
			"inputs": [
				{
					"components": [
						{
							"internalType": "string",
							"name": "name",
							"type": "string"
						},
						{
							"internalType": "uint8",
							"name": "age",
							"type": "uint8"
						},
						{
							"internalType": "uint8",
							"name": "bloodtype",
							"type": "uint8"
						},
						{
							"internalType": "string",
							"name": "hospital",
							"type": "string"
						}
					],
					"internalType": "struct utils.persInfo",
					"name": "_info",
					"type": "tuple"
				},
				{
					"internalType": "string",
					"name": "_organ",
					"type": "string"
				},
				{
					"internalType": "uint8",
					"name": "_quantity",
					"type": "uint8"
				},
				{
					"components": [
						{
							"internalType": "string",
							"name": "a1",
							"type": "string"
						},
						{
							"internalType": "string",
							"name": "a2",
							"type": "string"
						},
						{
							"internalType": "string",
							"name": "b1",
							"type": "string"
						},
						{
							"internalType": "string",
							"name": "b2",
							"type": "string"
						},
						{
							"internalType": "string",
							"name": "c1",
							"type": "string"
						},
						{
							"internalType": "string",
							"name": "c2",
							"type": "string"
						},
						{
							"internalType": "string",
							"name": "drb1_1",
							"type": "string"
						},
						{
							"internalType": "string",
							"name": "drb1_2",
							"type": "string"
						},
						{
							"internalType": "string",
							"name": "dqb1_1",
							"type": "string"
						},
						{
							"internalType": "string",
							"name": "dqb1_2",
							"type": "string"
						}
					],
					"internalType": "struct utils.HLA",
					"name": "_report",
					"type": "tuple"
				}
			],
			"name": "regDonor",
			"outputs": [],
			"stateMutability": "nonpayable",
			"type": "function"
		},
		{
			"inputs": [
				{
					"components": [
						{
							"internalType": "string",
							"name": "name",
							"type": "string"
						},
						{
							"internalType": "uint8",
							"name": "age",
							"type": "uint8"
						},
						{
							"internalType": "uint8",
							"name": "bloodtype",
							"type": "uint8"
						},
						{
							"internalType": "string",
							"name": "hospital",
							"type": "string"
						}
					],
					"internalType": "struct utils.persInfo",
					"name": "_info",
					"type": "tuple"
				},
				{
					"internalType": "string",
					"name": "_organ",
					"type": "string"
				},
				{
					"internalType": "uint8",
					"name": "_quantity",
					"type": "uint8"
				},
				{
					"components": [
						{
							"internalType": "string",
							"name": "a1",
							"type": "string"
						},
						{
							"internalType": "string",
							"name": "a2",
							"type": "string"
						},
						{
							"internalType": "string",
							"name": "b1",
							"type": "string"
						},
						{
							"internalType": "string",
							"name": "b2",
							"type": "string"
						},
						{
							"internalType": "string",
							"name": "c1",
							"type": "string"
						},
						{
							"internalType": "string",
							"name": "c2",
							"type": "string"
						},
						{
							"internalType": "string",
							"name": "drb1_1",
							"type": "string"
						},
						{
							"internalType": "string",
							"name": "drb1_2",
							"type": "string"
						},
						{
							"internalType": "string",
							"name": "dqb1_1",
							"type": "string"
						},
						{
							"internalType": "string",
							"name": "dqb1_2",
							"type": "string"
						}
					],
					"internalType": "struct utils.HLA",
					"name": "_report",
					"type": "tuple"
				}
			],
			"name": "regRecipient",
			"outputs": [],
			"stateMutability": "nonpayable",
			"type": "function"
		},
		{
			"inputs": [
				{
					"internalType": "string",
					"name": "_pass",
					"type": "string"
				},
				{
					"internalType": "uint8",
					"name": "_c",
					"type": "uint8"
				}
			],
			"name": "showLists",
			"outputs": [
				{
					"components": [
						{
							"components": [
								{
									"internalType": "string",
									"name": "name",
									"type": "string"
								},
								{
									"internalType": "uint8",
									"name": "age",
									"type": "uint8"
								},
								{
									"internalType": "uint8",
									"name": "bloodtype",
									"type": "uint8"
								},
								{
									"internalType": "string",
									"name": "hospital",
									"type": "string"
								}
							],
							"internalType": "struct utils.persInfo",
							"name": "info",
							"type": "tuple"
						},
						{
							"internalType": "string",
							"name": "organ",
							"type": "string"
						},
						{
							"internalType": "uint8",
							"name": "quantity",
							"type": "uint8"
						},
						{
							"components": [
								{
									"internalType": "string",
									"name": "a1",
									"type": "string"
								},
								{
									"internalType": "string",
									"name": "a2",
									"type": "string"
								},
								{
									"internalType": "string",
									"name": "b1",
									"type": "string"
								},
								{
									"internalType": "string",
									"name": "b2",
									"type": "string"
								},
								{
									"internalType": "string",
									"name": "c1",
									"type": "string"
								},
								{
									"internalType": "string",
									"name": "c2",
									"type": "string"
								},
								{
									"internalType": "string",
									"name": "drb1_1",
									"type": "string"
								},
								{
									"internalType": "string",
									"name": "drb1_2",
									"type": "string"
								},
								{
									"internalType": "string",
									"name": "dqb1_1",
									"type": "string"
								},
								{
									"internalType": "string",
									"name": "dqb1_2",
									"type": "string"
								}
							],
							"internalType": "struct utils.HLA",
							"name": "report",
							"type": "tuple"
						}
					],
					"internalType": "struct utils.orgdet[]",
					"name": "",
					"type": "tuple[]"
				}
			],
			"stateMutability": "view",
			"type": "function"
		}
	]
}