{
	"data": {
		"bytecode": {
			"linkReferences": {},
			"object": "6080604052604051806101400160405280604051806101400160405280600160ff168152602001600160ff1681526020015f60ff1681526020015f60ff1681526020015f60ff1681526020015f60ff168152602001600160ff168152602001600160ff1681526020015f60ff1681526020015f60ff1681525081526020016040518061014001604052805f60ff168152602001600160ff1681526020015f60ff1681526020015f60ff1681526020015f60ff1681526020015f60ff1681526020015f60ff168152602001600160ff1681526020015f60ff1681526020015f60ff1681525081526020016040518061014001604052805f60ff1681526020015f60ff168152602001600160ff168152602001600160ff1681526020015f60ff1681526020015f60ff168152602001600160ff168152602001600160ff1681526020015f60ff1681526020015f60ff1681525081526020016040518061014001604052805f60ff1681526020015f60ff1681526020015f60ff168152602001600160ff1681526020015f60ff1681526020015f60ff1681526020015f60ff168152602001600160ff1681526020015f60ff1681526020015f60ff168152508152602001604051806101400160405280600160ff168152602001600160ff168152602001600160ff168152602001600160ff168152602001600160ff168152602001600160ff168152602001600160ff168152602001600160ff1681526020015f60ff1681526020015f60ff1681525081526020016040518061014001604052805f60ff168152602001600160ff1681526020015f60ff168152602001600160ff1681526020015f60ff168152602001600160ff1681526020015f60ff168152602001600160ff1681526020015f60ff1681526020015f60ff1681525081526020016040518061014001604052805f60ff1681526020015f60ff1681526020015f60ff1681526020015f60ff1681526020015f60ff1681526020015f60ff168152602001600160ff168152602001600160ff1681526020015f60ff1681526020015f60ff1681525081526020016040518061014001604052805f60ff1681526020015f60ff1681526020015f60ff1681526020015f60ff1681526020015f60ff1681526020015f60ff1681526020015f60ff168152602001600160ff1681526020015f60ff1681526020015f60ff1681525081526020016040518061014001604052805f60ff1681526020015f60ff1681526020015f60ff1681526020015f60ff1681526020015f60ff1681526020015f60ff1681526020015f60ff1681526020015f60ff168152602001600160ff1681526020015f60ff1681525081526020016040518061014001604052805f60ff1681526020015f60ff1681526020015f60ff1681526020015f60ff1681526020015f60ff1681526020015f60ff1681526020015f60ff1681526020015f60ff1681526020015f60ff168152602001600160ff16815250815250600690600a61045592919061059c565b50348015610461575f80fd5b506040516131fe3803806131fe833981810160405281019061048391906107cf565b8260405160200161049491906108b7565b604051602081830303815290604052805190602001205f819055505f546040516020016104c191906108f6565b604051602081830303815290604052805190602001205f81905550816040516020016104ed91906108b7565b6040516020818303038152906040528051906020012060018190555060015460405160200161051c91906108f6565b604051602081830303815290604052805190602001206001819055508060405160200161054991906108b7565b6040516020818303038152906040528051906020012060028190555060025460405160200161057891906108f6565b60405160208183030381529060405280519060200120600281905550505050610910565b82600a800281019282156105db579160200282015b828111156105da5782518290600a6105ca9291906105ec565b50916020019190600a01906105b1565b5b5090506105e89190610631565b5090565b82600a8101928215610620579160200282015b8281111561061f578251829060ff169055916020019190600101906105ff565b5b50905061062d9190610654565b5090565b5b80821115610650575f8181610647919061066f565b50600a01610632565b5090565b5b8082111561066b575f815f905550600101610655565b5090565b5080600a019061067f9190610654565b50565b5f604051905090565b5f80fd5b5f80fd5b5f80fd5b5f80fd5b5f601f19601f8301169050919050565b7f4e487b71000000000000000000000000000000000000000000000000000000005f52604160045260245ffd5b6106e18261069b565b810181811067ffffffffffffffff82111715610700576106ff6106ab565b5b80604052505050565b5f610712610682565b905061071e82826106d8565b919050565b5f67ffffffffffffffff82111561073d5761073c6106ab565b5b6107468261069b565b9050602081019050919050565b8281835e5f83830152505050565b5f61077361076e84610723565b610709565b90508281526020810184848401111561078f5761078e610697565b5b61079a848285610753565b509392505050565b5f82601f8301126107b6576107b5610693565b5b81516107c6848260208601610761565b91505092915050565b5f805f606084860312156107e6576107e561068b565b5b5f84015167ffffffffffffffff8111156108035761080261068f565b5b61080f868287016107a2565b935050602084015167ffffffffffffffff8111156108305761082f61068f565b5b61083c868287016107a2565b925050604084015167ffffffffffffffff81111561085d5761085c61068f565b5b610869868287016107a2565b9150509250925092565b5f81519050919050565b5f81905092915050565b5f61089182610873565b61089b818561087d565b93506108ab818560208601610753565b80840191505092915050565b5f6108c28284610887565b915081905092915050565b5f819050919050565b5f819050919050565b6108f06108eb826108cd565b6108d6565b82525050565b5f61090182846108df565b60208201915081905092915050565b6128e18061091d5f395ff3fe608060405234801561000f575f80fd5b5060043610610055575f3560e01c80634bb792ac14610059578063822e242e14610075578063963e9f1f14610091578063ae9ec457146100c1578063c005a930146100f1575b5f80fd5b610073600480360381019061006e9190611c0b565b610121565b005b61008f600480360381019061008a9190611ca7565b6107a7565b005b6100ab60048036038101906100a69190611d43565b610e2b565b6040516100b89190611f1b565b60405180910390f35b6100db60048036038101906100d69190611d43565b61104e565b6040516100e89190611f1b565b60405180910390f35b61010b60048036038101906101069190611d43565b611270565b60405161011891906120b1565b60405180910390f35b60088214806101305750600982145b1561015a57604051806020016040528083815250606a9060016101549291906119e8565b506101ce565b5f5b60088110156101cc576001600684600a811061017b5761017a6120d1565b5b600a020182600a8110610191576101906120d1565b5b0154036101bf57606a81908060018154018082558091505060019003905f5260205f20015f90919091909150555b808060010191505061015c565b505b5f805b60038054905081101561078b578480519060200120600382815481106101fa576101f96120d1565b5b905f5260205f20906004020160020160405161021691906121f7565b60405180910390200361077e575f5b606a8054905081101561077c57606a8181548110610246576102456120d1565b5b905f5260205f20015460038381548110610263576102626120d1565b5b905f5260205f209060040201600101540361076f57600192507f2a721c885fffcf96f50f455dd2ca696caf61d72d984ea9334daea189844a932b600383815481106102b1576102b06120d1565b5b905f5260205f2090600402015f01600384815481106102d3576102d26120d1565b5b905f5260205f20906004020160010154600385815481106102f7576102f66120d1565b5b905f5260205f2090600402016002016003868154811061031a576103196120d1565b5b905f5260205f2090600402016003015460405161033a94939291906122bf565b60405180910390a15f60038381548110610357576103566120d1565b5b905f5260205f20906004020160030154856103729190612346565b90505f8113156104bc5761049d60038481548110610393576103926120d1565b5b905f5260205f2090600402015f0180546103ac9061212b565b80601f01602080910402602001604051908101604052809291908181526020018280546103d89061212b565b80156104235780601f106103fa57610100808354040283529160200191610423565b820191905f5260205f20905b81548152906001019060200180831161040657829003601f168201915b5050505050896003868154811061043d5761043c6120d1565b5b905f5260205f20906004020160010154898b60038981548110610463576104626120d1565b5b905f5260205f209060040201600301548b60038b81548110610488576104876120d1565b5b905f5260205f20906004020160030154611542565b6104ab888789846001611627565b6104b6600384611732565b5061077c565b5f81036105f5576105e4600384815481106104da576104d96120d1565b5b905f5260205f2090600402015f0180546104f39061212b565b80601f016020809104026020016040519081016040528092919081815260200182805461051f9061212b565b801561056a5780601f106105415761010080835404028352916020019161056a565b820191905f5260205f20905b81548152906001019060200180831161054d57829003601f168201915b50505050508960038681548110610584576105836120d1565b5b905f5260205f20906004020160010154898b600389815481106105aa576105a96120d1565b5b905f5260205f209060040201600301548b60038b815481106105cf576105ce6120d1565b5b905f5260205f20906004020160030154611542565b6105ef600384611732565b5061077c565b6107166003848154811061060c5761060b6120d1565b5b905f5260205f2090600402015f0180546106259061212b565b80601f01602080910402602001604051908101604052809291908181526020018280546106519061212b565b801561069c5780601f106106735761010080835404028352916020019161069c565b820191905f5260205f20905b81548152906001019060200180831161067f57829003601f168201915b505050505089600386815481106106b6576106b56120d1565b5b905f5260205f20906004020160010154898b600389815481106106dc576106db6120d1565b5b905f5260205f209060040201600301548b60038b81548110610701576107006120d1565b5b905f5260205f20906004020160030154611542565b7fffffffffffffffffffffffffffffffffffffffffffffffffffffffffffffffff816107429190612386565b60038481548110610756576107556120d1565b5b905f5260205f209060040201600301819055505061077c565b8080600101915050610225565b505b80806001019150506101d1565b50806107a05761079f858486856001611627565b5b5050505050565b60088314806107b65750600983145b156107e057604051806020016040528084815250606a9060016107da9291906119e8565b50610854565b5f5b6008811015610852576001600682600a8110610801576108006120d1565b5b600a020185600a8110610817576108166120d1565b5b01540361084557606a81908060018154018082558091505060019003905f5260205f20015f90919091909150555b80806001019150506107e2565b505b5f805b600480549050811015610e10578380519060200120600482815481106108805761087f6120d1565b5b905f5260205f20906004020160020160405161089c91906121f7565b604051809103902003610e03575f5b606a80549050811015610e0157606a81815481106108cc576108cb6120d1565b5b905f5260205f200154600483815481106108e9576108e86120d1565b5b905f5260205f2090600402016001015403610df457600192507fcc97805e28e324dc39be995161797f1fdf935c9b4ebab652ef2cc60de7f0f39460048381548110610937576109366120d1565b5b905f5260205f2090600402015f0160048481548110610959576109586120d1565b5b905f5260205f209060040201600101546004858154811061097d5761097c6120d1565b5b905f5260205f209060040201600201600486815481106109a05761099f6120d1565b5b905f5260205f209060040201600301546040516109c094939291906122bf565b60405180910390a15f600483815481106109dd576109dc6120d1565b5b905f5260205f20906004020160030154856109f89190612346565b90505f811315610b4157610b238860048581548110610a1a57610a196120d1565b5b905f5260205f2090600402015f018054610a339061212b565b80601f0160208091040260200160405190810160405280929190818152602001828054610a5f9061212b565b8015610aaa5780601f10610a8157610100808354040283529160200191610aaa565b820191905f5260205f20905b815481529060010190602001808311610a8d57829003601f168201915b50505050508960048781548110610ac457610ac36120d1565b5b905f5260205f209060040201600101548a8a60048a81548110610aea57610ae96120d1565b5b905f5260205f2090600402016003015460048b81548110610b0e57610b0d6120d1565b5b905f5260205f20906004020160030154611542565b610b30888888845f611627565b610b3b600484611732565b50610e01565b5f8103610c7a57610c698860048581548110610b6057610b5f6120d1565b5b905f5260205f2090600402015f018054610b799061212b565b80601f0160208091040260200160405190810160405280929190818152602001828054610ba59061212b565b8015610bf05780601f10610bc757610100808354040283529160200191610bf0565b820191905f5260205f20905b815481529060010190602001808311610bd357829003601f168201915b50505050508960048781548110610c0a57610c096120d1565b5b905f5260205f209060040201600101548a8a60048a81548110610c3057610c2f6120d1565b5b905f5260205f2090600402016003015460048b81548110610c5457610c536120d1565b5b905f5260205f20906004020160030154611542565b610c74600484611732565b50610e01565b610d9b8860048581548110610c9257610c916120d1565b5b905f5260205f2090600402015f018054610cab9061212b565b80601f0160208091040260200160405190810160405280929190818152602001828054610cd79061212b565b8015610d225780601f10610cf957610100808354040283529160200191610d22565b820191905f5260205f20905b815481529060010190602001808311610d0557829003601f168201915b50505050508960048781548110610d3c57610d3b6120d1565b5b905f5260205f209060040201600101548a8a60048a81548110610d6257610d616120d1565b5b905f5260205f2090600402016003015460048b81548110610d8657610d856120d1565b5b905f5260205f20906004020160030154611542565b7fffffffffffffffffffffffffffffffffffffffffffffffffffffffffffffffff81610dc79190612386565b60048481548110610ddb57610dda6120d1565b5b905f5260205f2090600402016003018190555050610e01565b80806001019150506108ab565b505b8080600101915050610857565b5080610e2457610e23858585855f611627565b5b5050505050565b60608160015481604051602001610e429190612436565b60405160208183030381529060405280519060200120604051602001610e689190612475565b6040516020818303038152906040528051906020012014610ebe576040517f08c379a0000000000000000000000000000000000000000000000000000000008152600401610eb5906124d9565b60405180910390fd5b6004805480602002602001604051908101604052809291908181526020015f905b82821015611042578382905f5260205f2090600402016040518060800160405290815f82018054610f0f9061212b565b80601f0160208091040260200160405190810160405280929190818152602001828054610f3b9061212b565b8015610f865780601f10610f5d57610100808354040283529160200191610f86565b820191905f5260205f20905b815481529060010190602001808311610f6957829003601f168201915b5050505050815260200160018201548152602001600282018054610fa99061212b565b80601f0160208091040260200160405190810160405280929190818152602001828054610fd59061212b565b80156110205780601f10610ff757610100808354040283529160200191611020565b820191905f5260205f20905b81548152906001019060200180831161100357829003601f168201915b5050505050815260200160038201548152505081526020019060010190610edf565b50505050915050919050565b6060815f54816040516020016110649190612436565b6040516020818303038152906040528051906020012060405160200161108a9190612475565b60405160208183030381529060405280519060200120146110e0576040517f08c379a00000000000000000000000000000000000000000000000000000000081526004016110d7906124d9565b60405180910390fd5b6003805480602002602001604051908101604052809291908181526020015f905b82821015611264578382905f5260205f2090600402016040518060800160405290815f820180546111319061212b565b80601f016020809104026020016040519081016040528092919081815260200182805461115d9061212b565b80156111a85780601f1061117f576101008083540402835291602001916111a8565b820191905f5260205f20905b81548152906001019060200180831161118b57829003601f168201915b50505050508152602001600182015481526020016002820180546111cb9061212b565b80601f01602080910402602001604051908101604052809291908181526020018280546111f79061212b565b80156112425780601f1061121957610100808354040283529160200191611242565b820191905f5260205f20905b81548152906001019060200180831161122557829003601f168201915b5050505050815260200160038201548152505081526020019060010190611101565b50505050915050919050565b606081600254816040516020016112879190612436565b604051602081830303815290604052805190602001206040516020016112ad9190612475565b6040516020818303038152906040528051906020012014611303576040517f08c379a00000000000000000000000000000000000000000000000000000000081526004016112fa906124d9565b60405180910390fd5b6005805480602002602001604051908101604052809291908181526020015f905b82821015611536578382905f5260205f209060080201604051806101000160405290815f820180546113559061212b565b80601f01602080910402602001604051908101604052809291908181526020018280546113819061212b565b80156113cc5780601f106113a3576101008083540402835291602001916113cc565b820191905f5260205f20905b8154815290600101906020018083116113af57829003601f168201915b505050505081526020016001820180546113e59061212b565b80601f01602080910402602001604051908101604052809291908181526020018280546114119061212b565b801561145c5780601f106114335761010080835404028352916020019161145c565b820191905f5260205f20905b81548152906001019060200180831161143f57829003601f168201915b5050505050815260200160028201548152602001600382015481526020016004820180546114899061212b565b80601f01602080910402602001604051908101604052809291908181526020018280546114b59061212b565b80156115005780601f106114d757610100808354040283529160200191611500565b820191905f5260205f20905b8154815290600101906020018083116114e357829003601f168201915b50505050508152602001600582015481526020016006820154815260200160078201548152505081526020019060010190611324565b50505050915050919050565b5f6040518061010001604052808a8152602001898152602001888152602001878152602001868152602001858152602001848152602001838152509050600581908060018154018082558091505060019003905f5260205f2090600802015f909190919091505f820151815f0190816115bb9190612682565b5060208201518160010190816115d19190612682565b50604082015181600201556060820151816003015560808201518160040190816115fb9190612682565b5060a0820151816005015560c0820151816006015560e082015181600701555050505050505050505050565b5f60405180608001604052808781526020018681526020018581526020018481525090505f82036116c057600381908060018154018082558091505060019003905f5260205f2090600402015f909190919091505f820151815f01908161168e9190612682565b506020820151816001015560408201518160020190816116ae9190612682565b5060608201518160030155505061172a565b600481908060018154018082558091505060019003905f5260205f2090600402015f909190919091505f820151815f0190816116fc9190612682565b5060208201518160010155604082015181600201908161171c9190612682565b506060820151816003015550505b505050505050565b5f828281548110611746576117456120d1565b5b905f5260205f2090600402016040518060800160405290815f8201805461176c9061212b565b80601f01602080910402602001604051908101604052809291908181526020018280546117989061212b565b80156117e35780601f106117ba576101008083540402835291602001916117e3565b820191905f5260205f20905b8154815290600101906020018083116117c657829003601f168201915b50505050508152602001600182015481526020016002820180546118069061212b565b80601f01602080910402602001604051908101604052809291908181526020018280546118329061212b565b801561187d5780601f106118545761010080835404028352916020019161187d565b820191905f5260205f20905b81548152906001019060200180831161186057829003601f168201915b50505050508152602001600382015481525050905082600184805490506118a49190612751565b815481106118b5576118b46120d1565b5b905f5260205f2090600402018383815481106118d4576118d36120d1565b5b905f5260205f2090600402015f8201815f0190816118f29190612799565b5060018201548160010155600282018160020190816119119190612799565b50600382015481600301559050508083600185805490506119329190612751565b81548110611943576119426120d1565b5b905f5260205f2090600402015f820151815f0190816119629190612682565b506020820151816001015560408201518160020190816119829190612682565b5060608201518160030155905050828054806119a1576119a061287e565b5b600190038181905f5260205f2090600402015f8082015f6119c29190611a33565b600182015f9055600282015f6119d89190611a33565b600382015f905550509055505050565b828054828255905f5260205f20908101928215611a22579160200282015b82811115611a21578251825591602001919060010190611a06565b5b509050611a2f9190611a70565b5090565b508054611a3f9061212b565b5f825580601f10611a505750611a6d565b601f0160209004905f5260205f2090810190611a6c9190611a70565b5b50565b5b80821115611a87575f815f905550600101611a71565b5090565b5f604051905090565b5f80fd5b5f80fd5b5f80fd5b5f80fd5b5f601f19601f8301169050919050565b7f4e487b71000000000000000000000000000000000000000000000000000000005f52604160045260245ffd5b611aea82611aa4565b810181811067ffffffffffffffff82111715611b0957611b08611ab4565b5b80604052505050565b5f611b1b611a8b565b9050611b278282611ae1565b919050565b5f67ffffffffffffffff821115611b4657611b45611ab4565b5b611b4f82611aa4565b9050602081019050919050565b828183375f83830152505050565b5f611b7c611b7784611b2c565b611b12565b905082815260208101848484011115611b9857611b97611aa0565b5b611ba3848285611b5c565b509392505050565b5f82601f830112611bbf57611bbe611a9c565b5b8135611bcf848260208601611b6a565b91505092915050565b5f819050919050565b611bea81611bd8565b8114611bf4575f80fd5b50565b5f81359050611c0581611be1565b92915050565b5f805f8060808587031215611c2357611c22611a94565b5b5f85013567ffffffffffffffff811115611c4057611c3f611a98565b5b611c4c87828801611bab565b945050602085013567ffffffffffffffff811115611c6d57611c6c611a98565b5b611c7987828801611bab565b9350506040611c8a87828801611bf7565b9250506060611c9b87828801611bf7565b91505092959194509250565b5f805f8060808587031215611cbf57611cbe611a94565b5b5f85013567ffffffffffffffff811115611cdc57611cdb611a98565b5b611ce887828801611bab565b9450506020611cf987828801611bf7565b935050604085013567ffffffffffffffff811115611d1a57611d19611a98565b5b611d2687828801611bab565b9250506060611d3787828801611bf7565b91505092959194509250565b5f60208284031215611d5857611d57611a94565b5b5f82013567ffffffffffffffff811115611d7557611d74611a98565b5b611d8184828501611bab565b91505092915050565b5f81519050919050565b5f82825260208201905092915050565b5f819050602082019050919050565b5f81519050919050565b5f82825260208201905092915050565b8281835e5f83830152505050565b5f611de582611db3565b611def8185611dbd565b9350611dff818560208601611dcd565b611e0881611aa4565b840191505092915050565b611e1c81611bd8565b82525050565b5f608083015f8301518482035f860152611e3c8282611ddb565b9150506020830151611e516020860182611e13565b5060408301518482036040860152611e698282611ddb565b9150506060830151611e7e6060860182611e13565b508091505092915050565b5f611e948383611e22565b905092915050565b5f602082019050919050565b5f611eb282611d8a565b611ebc8185611d94565b935083602082028501611ece85611da4565b805f5b85811015611f095784840389528151611eea8582611e89565b9450611ef583611e9c565b925060208a01995050600181019050611ed1565b50829750879550505050505092915050565b5f6020820190508181035f830152611f338184611ea8565b905092915050565b5f81519050919050565b5f82825260208201905092915050565b5f819050602082019050919050565b5f61010083015f8301518482035f860152611f7f8282611ddb565b91505060208301518482036020860152611f998282611ddb565b9150506040830151611fae6040860182611e13565b506060830151611fc16060860182611e13565b5060808301518482036080860152611fd98282611ddb565b91505060a0830151611fee60a0860182611e13565b5060c083015161200160c0860182611e13565b5060e083015161201460e0860182611e13565b508091505092915050565b5f61202a8383611f64565b905092915050565b5f602082019050919050565b5f61204882611f3b565b6120528185611f45565b93508360208202850161206485611f55565b805f5b8581101561209f5784840389528151612080858261201f565b945061208b83612032565b925060208a01995050600181019050612067565b50829750879550505050505092915050565b5f6020820190508181035f8301526120c9818461203e565b905092915050565b7f4e487b71000000000000000000000000000000000000000000000000000000005f52603260045260245ffd5b7f4e487b71000000000000000000000000000000000000000000000000000000005f52602260045260245ffd5b5f600282049050600182168061214257607f821691505b602082108103612155576121546120fe565b5b50919050565b5f81905092915050565b5f819050815f5260205f209050919050565b5f81546121838161212b565b61218d818661215b565b9450600182165f81146121a757600181146121bc576121ee565b60ff19831686528115158202860193506121ee565b6121c585612165565b5f5b838110156121e6578154818901526001820191506020810190506121c7565b838801955050505b50505092915050565b5f6122028284612177565b915081905092915050565b5f82825260208201905092915050565b5f819050815f5260205f209050919050565b5f815461223b8161212b565b612245818661220d565b9450600182165f811461225f5760018114612275576122a7565b60ff1983168652811515602002860193506122a7565b61227e8561221d565b5f5b8381101561229f57815481890152600182019150602081019050612280565b808801955050505b50505092915050565b6122b981611bd8565b82525050565b5f6080820190508181035f8301526122d7818761222f565b90506122e660208301866122b0565b81810360408301526122f8818561222f565b905061230760608301846122b0565b95945050505050565b5f819050919050565b7f4e487b71000000000000000000000000000000000000000000000000000000005f52601160045260245ffd5b5f61235082612310565b915061235b83612310565b925082820390508181125f8412168282135f8512151617156123805761237f612319565b5b92915050565b5f61239082612310565b915061239b83612310565b92508282026123a981612310565b91507f800000000000000000000000000000000000000000000000000000000000000084145f841216156123e0576123df612319565b5b82820584148315176123f5576123f4612319565b5b5092915050565b5f81905092915050565b5f61241082611db3565b61241a81856123fc565b935061242a818560208601611dcd565b80840191505092915050565b5f6124418284612406565b915081905092915050565b5f819050919050565b5f819050919050565b61246f61246a8261244c565b612455565b82525050565b5f612480828461245e565b60208201915081905092915050565b7f496e636f72726563742070617373776f726421000000000000000000000000005f82015250565b5f6124c360138361220d565b91506124ce8261248f565b602082019050919050565b5f6020820190508181035f8301526124f0816124b7565b9050919050565b5f6020601f8301049050919050565b5f82821b905092915050565b5f600883026125417fffffffffffffffffffffffffffffffffffffffffffffffffffffffffffffffff82612506565b61254b8683612506565b95508019841693508086168417925050509392505050565b5f819050919050565b5f61258661258161257c84611bd8565b612563565b611bd8565b9050919050565b5f819050919050565b61259f8361256c565b6125b36125ab8261258d565b848454612512565b825550505050565b5f90565b6125c76125bb565b6125d2818484612596565b505050565b5b818110156125f5576125ea5f826125bf565b6001810190506125d8565b5050565b601f82111561263a5761260b8161221d565b612614846124f7565b81016020851015612623578190505b61263761262f856124f7565b8301826125d7565b50505b505050565b5f82821c905092915050565b5f61265a5f198460080261263f565b1980831691505092915050565b5f612672838361264b565b9150826002028217905092915050565b61268b82611db3565b67ffffffffffffffff8111156126a4576126a3611ab4565b5b6126ae825461212b565b6126b98282856125f9565b5f60209050601f8311600181146126ea575f84156126d8578287015190505b6126e28582612667565b865550612749565b601f1984166126f88661221d565b5f5b8281101561271f578489015182556001820191506020850194506020810190506126fa565b8683101561273c5784890151612738601f89168261264b565b8355505b6001600288020188555050505b505050505050565b5f61275b82611bd8565b915061276683611bd8565b925082820390508181111561277e5761277d612319565b5b92915050565b5f815490506127928161212b565b9050919050565b8181036127a757505061287c565b6127b082612784565b67ffffffffffffffff8111156127c9576127c8611ab4565b5b6127d3825461212b565b6127de8282856125f9565b5f601f83116001811461280b575f84156127f9578287015490505b6128038582612667565b865550612875565b601f1984166128198761221d565b96506128248661221d565b5f5b8281101561284b57848901548255600182019150600185019450602081019050612826565b868310156128685784890154612864601f89168261264b565b8355505b6001600288020188555050505b5050505050505b565b7f4e487b71000000000000000000000000000000000000000000000000000000005f52603160045260245ffdfea26469706673582212208872068e68a7427fdcc7e2c06171544d080317115dca21ed86e321b3bb7eef2164736f6c634300081a0033",
			"opcodes": "PUSH1 0x80 PUSH1 0x40 MSTORE PUSH1 0x40 MLOAD DUP1 PUSH2 0x140 ADD PUSH1 0x40 MSTORE DUP1 PUSH1 0x40 MLOAD DUP1 PUSH2 0x140 ADD PUSH1 0x40 MSTORE DUP1 PUSH1 0x1 PUSH1 0xFF AND DUP2 MSTORE PUSH1 0x20 ADD PUSH1 0x1 PUSH1 0xFF AND DUP2 MSTORE PUSH1 0x20 ADD PUSH0 PUSH1 0xFF AND DUP2 MSTORE PUSH1 0x20 ADD PUSH0 PUSH1 0xFF AND DUP2 MSTORE PUSH1 0x20 ADD PUSH0 PUSH1 0xFF AND DUP2 MSTORE PUSH1 0x20 ADD PUSH0 PUSH1 0xFF AND DUP2 MSTORE PUSH1 0x20 ADD PUSH1 0x1 PUSH1 0xFF AND DUP2 MSTORE PUSH1 0x20 ADD PUSH1 0x1 PUSH1 0xFF AND DUP2 MSTORE PUSH1 0x20 ADD PUSH0 PUSH1 0xFF AND DUP2 MSTORE PUSH1 0x20 ADD PUSH0 PUSH1 0xFF AND DUP2 MSTORE POP DUP2 MSTORE PUSH1 0x20 ADD PUSH1 0x40 MLOAD DUP1 PUSH2 0x140 ADD PUSH1 0x40 MSTORE DUP1 PUSH0 PUSH1 0xFF AND DUP2 MSTORE PUSH1 0x20 ADD PUSH1 0x1 PUSH1 0xFF AND DUP2 MSTORE PUSH1 0x20 ADD PUSH0 PUSH1 0xFF AND DUP2 MSTORE PUSH1 0x20 ADD PUSH0 PUSH1 0xFF AND DUP2 MSTORE PUSH1 0x20 ADD PUSH0 PUSH1 0xFF AND DUP2 MSTORE PUSH1 0x20 ADD PUSH0 PUSH1 0xFF AND DUP2 MSTORE PUSH1 0x20 ADD PUSH0 PUSH1 0xFF AND DUP2 MSTORE PUSH1 0x20 ADD PUSH1 0x1 PUSH1 0xFF AND DUP2 MSTORE PUSH1 0x20 ADD PUSH0 PUSH1 0xFF AND DUP2 MSTORE PUSH1 0x20 ADD PUSH0 PUSH1 0xFF AND DUP2 MSTORE POP DUP2 MSTORE PUSH1 0x20 ADD PUSH1 0x40 MLOAD DUP1 PUSH2 0x140 ADD PUSH1 0x40 MSTORE DUP1 PUSH0 PUSH1 0xFF AND DUP2 MSTORE PUSH1 0x20 ADD PUSH0 PUSH1 0xFF AND DUP2 MSTORE PUSH1 0x20 ADD PUSH1 0x1 PUSH1 0xFF AND DUP2 MSTORE PUSH1 0x20 ADD PUSH1 0x1 PUSH1 0xFF AND DUP2 MSTORE PUSH1 0x20 ADD PUSH0 PUSH1 0xFF AND DUP2 MSTORE PUSH1 0x20 ADD PUSH0 PUSH1 0xFF AND DUP2 MSTORE PUSH1 0x20 ADD PUSH1 0x1 PUSH1 0xFF AND DUP2 MSTORE PUSH1 0x20 ADD PUSH1 0x1 PUSH1 0xFF AND DUP2 MSTORE PUSH1 0x20 ADD PUSH0 PUSH1 0xFF AND DUP2 MSTORE PUSH1 0x20 ADD PUSH0 PUSH1 0xFF AND DUP2 MSTORE POP DUP2 MSTORE PUSH1 0x20 ADD PUSH1 0x40 MLOAD DUP1 PUSH2 0x140 ADD PUSH1 0x40 MSTORE DUP1 PUSH0 PUSH1 0xFF AND DUP2 MSTORE PUSH1 0x20 ADD PUSH0 PUSH1 0xFF AND DUP2 MSTORE PUSH1 0x20 ADD PUSH0 PUSH1 0xFF AND DUP2 MSTORE PUSH1 0x20 ADD PUSH1 0x1 PUSH1 0xFF AND DUP2 MSTORE PUSH1 0x20 ADD PUSH0 PUSH1 0xFF AND DUP2 MSTORE PUSH1 0x20 ADD PUSH0 PUSH1 0xFF AND DUP2 MSTORE PUSH1 0x20 ADD PUSH0 PUSH1 0xFF AND DUP2 MSTORE PUSH1 0x20 ADD PUSH1 0x1 PUSH1 0xFF AND DUP2 MSTORE PUSH1 0x20 ADD PUSH0 PUSH1 0xFF AND DUP2 MSTORE PUSH1 0x20 ADD PUSH0 PUSH1 0xFF AND DUP2 MSTORE POP DUP2 MSTORE PUSH1 0x20 ADD PUSH1 0x40 MLOAD DUP1 PUSH2 0x140 ADD PUSH1 0x40 MSTORE DUP1 PUSH1 0x1 PUSH1 0xFF AND DUP2 MSTORE PUSH1 0x20 ADD PUSH1 0x1 PUSH1 0xFF AND DUP2 MSTORE PUSH1 0x20 ADD PUSH1 0x1 PUSH1 0xFF AND DUP2 MSTORE PUSH1 0x20 ADD PUSH1 0x1 PUSH1 0xFF AND DUP2 MSTORE PUSH1 0x20 ADD PUSH1 0x1 PUSH1 0xFF AND DUP2 MSTORE PUSH1 0x20 ADD PUSH1 0x1 PUSH1 0xFF AND DUP2 MSTORE PUSH1 0x20 ADD PUSH1 0x1 PUSH1 0xFF AND DUP2 MSTORE PUSH1 0x20 ADD PUSH1 0x1 PUSH1 0xFF AND DUP2 MSTORE PUSH1 0x20 ADD PUSH0 PUSH1 0xFF AND DUP2 MSTORE PUSH1 0x20 ADD PUSH0 PUSH1 0xFF AND DUP2 MSTORE POP DUP2 MSTORE PUSH1 0x20 ADD PUSH1 0x40 MLOAD DUP1 PUSH2 0x140 ADD PUSH1 0x40 MSTORE DUP1 PUSH0 PUSH1 0xFF AND DUP2 MSTORE PUSH1 0x20 ADD PUSH1 0x1 PUSH1 0xFF AND DUP2 MSTORE PUSH1 0x20 ADD PUSH0 PUSH1 0xFF AND DUP2 MSTORE PUSH1 0x20 ADD PUSH1 0x1 PUSH1 0xFF AND DUP2 MSTORE PUSH1 0x20 ADD PUSH0 PUSH1 0xFF AND DUP2 MSTORE PUSH1 0x20 ADD PUSH1 0x1 PUSH1 0xFF AND DUP2 MSTORE PUSH1 0x20 ADD PUSH0 PUSH1 0xFF AND DUP2 MSTORE PUSH1 0x20 ADD PUSH1 0x1 PUSH1 0xFF AND DUP2 MSTORE PUSH1 0x20 ADD PUSH0 PUSH1 0xFF AND DUP2 MSTORE PUSH1 0x20 ADD PUSH0 PUSH1 0xFF AND DUP2 MSTORE POP DUP2 MSTORE PUSH1 0x20 ADD PUSH1 0x40 MLOAD DUP1 PUSH2 0x140 ADD PUSH1 0x40 MSTORE DUP1 PUSH0 PUSH1 0xFF AND DUP2 MSTORE PUSH1 0x20 ADD PUSH0 PUSH1 0xFF AND DUP2 MSTORE PUSH1 0x20 ADD PUSH0 PUSH1 0xFF AND DUP2 MSTORE PUSH1 0x20 ADD PUSH0 PUSH1 0xFF AND DUP2 MSTORE PUSH1 0x20 ADD PUSH0 PUSH1 0xFF AND DUP2 MSTORE PUSH1 0x20 ADD PUSH0 PUSH1 0xFF AND DUP2 MSTORE PUSH1 0x20 ADD PUSH1 0x1 PUSH1 0xFF AND DUP2 MSTORE PUSH1 0x20 ADD PUSH1 0x1 PUSH1 0xFF AND DUP2 MSTORE PUSH1 0x20 ADD PUSH0 PUSH1 0xFF AND DUP2 MSTORE PUSH1 0x20 ADD PUSH0 PUSH1 0xFF AND DUP2 MSTORE POP DUP2 MSTORE PUSH1 0x20 ADD PUSH1 0x40 MLOAD DUP1 PUSH2 0x140 ADD PUSH1 0x40 MSTORE DUP1 PUSH0 PUSH1 0xFF AND DUP2 MSTORE PUSH1 0x20 ADD PUSH0 PUSH1 0xFF AND DUP2 MSTORE PUSH1 0x20 ADD PUSH0 PUSH1 0xFF AND DUP2 MSTORE PUSH1 0x20 ADD PUSH0 PUSH1 0xFF AND DUP2 MSTORE PUSH1 0x20 ADD PUSH0 PUSH1 0xFF AND DUP2 MSTORE PUSH1 0x20 ADD PUSH0 PUSH1 0xFF AND DUP2 MSTORE PUSH1 0x20 ADD PUSH0 PUSH1 0xFF AND DUP2 MSTORE PUSH1 0x20 ADD PUSH1 0x1 PUSH1 0xFF AND DUP2 MSTORE PUSH1 0x20 ADD PUSH0 PUSH1 0xFF AND DUP2 MSTORE PUSH1 0x20 ADD PUSH0 PUSH1 0xFF AND DUP2 MSTORE POP DUP2 MSTORE PUSH1 0x20 ADD PUSH1 0x40 MLOAD DUP1 PUSH2 0x140 ADD PUSH1 0x40 MSTORE DUP1 PUSH0 PUSH1 0xFF AND DUP2 MSTORE PUSH1 0x20 ADD PUSH0 PUSH1 0xFF AND DUP2 MSTORE PUSH1 0x20 ADD PUSH0 PUSH1 0xFF AND DUP2 MSTORE PUSH1 0x20 ADD PUSH0 PUSH1 0xFF AND DUP2 MSTORE PUSH1 0x20 ADD PUSH0 PUSH1 0xFF AND DUP2 MSTORE PUSH1 0x20 ADD PUSH0 PUSH1 0xFF AND DUP2 MSTORE PUSH1 0x20 ADD PUSH0 PUSH1 0xFF AND DUP2 MSTORE PUSH1 0x20 ADD PUSH0 PUSH1 0xFF AND DUP2 MSTORE PUSH1 0x20 ADD PUSH1 0x1 PUSH1 0xFF AND DUP2 MSTORE PUSH1 0x20 ADD PUSH0 PUSH1 0xFF AND DUP2 MSTORE POP DUP2 MSTORE PUSH1 0x20 ADD PUSH1 0x40 MLOAD DUP1 PUSH2 0x140 ADD PUSH1 0x40 MSTORE DUP1 PUSH0 PUSH1 0xFF AND DUP2 MSTORE PUSH1 0x20 ADD PUSH0 PUSH1 0xFF AND DUP2 MSTORE PUSH1 0x20 ADD PUSH0 PUSH1 0xFF AND DUP2 MSTORE PUSH1 0x20 ADD PUSH0 PUSH1 0xFF AND DUP2 MSTORE PUSH1 0x20 ADD PUSH0 PUSH1 0xFF AND DUP2 MSTORE PUSH1 0x20 ADD PUSH0 PUSH1 0xFF AND DUP2 MSTORE PUSH1 0x20 ADD PUSH0 PUSH1 0xFF AND DUP2 MSTORE PUSH1 0x20 ADD PUSH0 PUSH1 0xFF AND DUP2 MSTORE PUSH1 0x20 ADD PUSH0 PUSH1 0xFF AND DUP2 MSTORE PUSH1 0x20 ADD PUSH1 0x1 PUSH1 0xFF AND DUP2 MSTORE POP DUP2 MSTORE POP PUSH1 0x6 SWAP1 PUSH1 0xA PUSH2 0x455 SWAP3 SWAP2 SWAP1 PUSH2 0x59C JUMP JUMPDEST POP CALLVALUE DUP1 ISZERO PUSH2 0x461 JUMPI PUSH0 DUP1 REVERT JUMPDEST POP PUSH1 0x40 MLOAD PUSH2 0x31FE CODESIZE SUB DUP1 PUSH2 0x31FE DUP4 CODECOPY DUP2 DUP2 ADD PUSH1 0x40 MSTORE DUP2 ADD SWAP1 PUSH2 0x483 SWAP2 SWAP1 PUSH2 0x7CF JUMP JUMPDEST DUP3 PUSH1 0x40 MLOAD PUSH1 0x20 ADD PUSH2 0x494 SWAP2 SWAP1 PUSH2 0x8B7 JUMP JUMPDEST PUSH1 0x40 MLOAD PUSH1 0x20 DUP2 DUP4 SUB SUB DUP2 MSTORE SWAP1 PUSH1 0x40 MSTORE DUP1 MLOAD SWAP1 PUSH1 0x20 ADD KECCAK256 PUSH0 DUP2 SWAP1 SSTORE POP PUSH0 SLOAD PUSH1 0x40 MLOAD PUSH1 0x20 ADD PUSH2 0x4C1 SWAP2 SWAP1 PUSH2 0x8F6 JUMP JUMPDEST PUSH1 0x40 MLOAD PUSH1 0x20 DUP2 DUP4 SUB SUB DUP2 MSTORE SWAP1 PUSH1 0x40 MSTORE DUP1 MLOAD SWAP1 PUSH1 0x20 ADD KECCAK256 PUSH0 DUP2 SWAP1 SSTORE POP DUP2 PUSH1 0x40 MLOAD PUSH1 0x20 ADD PUSH2 0x4ED SWAP2 SWAP1 PUSH2 0x8B7 JUMP JUMPDEST PUSH1 0x40 MLOAD PUSH1 0x20 DUP2 DUP4 SUB SUB DUP2 MSTORE SWAP1 PUSH1 0x40 MSTORE DUP1 MLOAD SWAP1 PUSH1 0x20 ADD KECCAK256 PUSH1 0x1 DUP2 SWAP1 SSTORE POP PUSH1 0x1 SLOAD PUSH1 0x40 MLOAD PUSH1 0x20 ADD PUSH2 0x51C SWAP2 SWAP1 PUSH2 0x8F6 JUMP JUMPDEST PUSH1 0x40 MLOAD PUSH1 0x20 DUP2 DUP4 SUB SUB DUP2 MSTORE SWAP1 PUSH1 0x40 MSTORE DUP1 MLOAD SWAP1 PUSH1 0x20 ADD KECCAK256 PUSH1 0x1 DUP2 SWAP1 SSTORE POP DUP1 PUSH1 0x40 MLOAD PUSH1 0x20 ADD PUSH2 0x549 SWAP2 SWAP1 PUSH2 0x8B7 JUMP JUMPDEST PUSH1 0x40 MLOAD PUSH1 0x20 DUP2 DUP4 SUB SUB DUP2 MSTORE SWAP1 PUSH1 0x40 MSTORE DUP1 MLOAD SWAP1 PUSH1 0x20 ADD KECCAK256 PUSH1 0x2 DUP2 SWAP1 SSTORE POP PUSH1 0x2 SLOAD PUSH1 0x40 MLOAD PUSH1 0x20 ADD PUSH2 0x578 SWAP2 SWAP1 PUSH2 0x8F6 JUMP JUMPDEST PUSH1 0x40 MLOAD PUSH1 0x20 DUP2 DUP4 SUB SUB DUP2 MSTORE SWAP1 PUSH1 0x40 MSTORE DUP1 MLOAD SWAP1 PUSH1 0x20 ADD KECCAK256 PUSH1 0x2 DUP2 SWAP1 SSTORE POP POP POP POP PUSH2 0x910 JUMP JUMPDEST DUP3 PUSH1 0xA DUP1 MUL DUP2 ADD SWAP3 DUP3 ISZERO PUSH2 0x5DB JUMPI SWAP2 PUSH1 0x20 MUL DUP3 ADD JUMPDEST DUP3 DUP2 GT ISZERO PUSH2 0x5DA JUMPI DUP3 MLOAD DUP3 SWAP1 PUSH1 0xA PUSH2 0x5CA SWAP3 SWAP2 SWAP1 PUSH2 0x5EC JUMP JUMPDEST POP SWAP2 PUSH1 0x20 ADD SWAP2 SWAP1 PUSH1 0xA ADD SWAP1 PUSH2 0x5B1 JUMP JUMPDEST JUMPDEST POP SWAP1 POP PUSH2 0x5E8 SWAP2 SWAP1 PUSH2 0x631 JUMP JUMPDEST POP SWAP1 JUMP JUMPDEST DUP3 PUSH1 0xA DUP2 ADD SWAP3 DUP3 ISZERO PUSH2 0x620 JUMPI SWAP2 PUSH1 0x20 MUL DUP3 ADD JUMPDEST DUP3 DUP2 GT ISZERO PUSH2 0x61F JUMPI DUP3 MLOAD DUP3 SWAP1 PUSH1 0xFF AND SWAP1 SSTORE SWAP2 PUSH1 0x20 ADD SWAP2 SWAP1 PUSH1 0x1 ADD SWAP1 PUSH2 0x5FF JUMP JUMPDEST JUMPDEST POP SWAP1 POP PUSH2 0x62D SWAP2 SWAP1 PUSH2 0x654 JUMP JUMPDEST POP SWAP1 JUMP JUMPDEST JUMPDEST DUP1 DUP3 GT ISZERO PUSH2 0x650 JUMPI PUSH0 DUP2 DUP2 PUSH2 0x647 SWAP2 SWAP1 PUSH2 0x66F JUMP JUMPDEST POP PUSH1 0xA ADD PUSH2 0x632 JUMP JUMPDEST POP SWAP1 JUMP JUMPDEST JUMPDEST DUP1 DUP3 GT ISZERO PUSH2 0x66B JUMPI PUSH0 DUP2 PUSH0 SWAP1 SSTORE POP PUSH1 0x1 ADD PUSH2 0x655 JUMP JUMPDEST POP SWAP1 JUMP JUMPDEST POP DUP1 PUSH1 0xA ADD SWAP1 PUSH2 0x67F SWAP2 SWAP1 PUSH2 0x654 JUMP JUMPDEST POP JUMP JUMPDEST PUSH0 PUSH1 0x40 MLOAD SWAP1 POP SWAP1 JUMP JUMPDEST PUSH0 DUP1 REVERT JUMPDEST PUSH0 DUP1 REVERT JUMPDEST PUSH0 DUP1 REVERT JUMPDEST PUSH0 DUP1 REVERT JUMPDEST PUSH0 PUSH1 0x1F NOT PUSH1 0x1F DUP4 ADD AND SWAP1 POP SWAP2 SWAP1 POP JUMP JUMPDEST PUSH32 0x4E487B7100000000000000000000000000000000000000000000000000000000 PUSH0 MSTORE PUSH1 0x41 PUSH1 0x4 MSTORE PUSH1 0x24 PUSH0 REVERT JUMPDEST PUSH2 0x6E1 DUP3 PUSH2 0x69B JUMP JUMPDEST DUP2 ADD DUP2 DUP2 LT PUSH8 0xFFFFFFFFFFFFFFFF DUP3 GT OR ISZERO PUSH2 0x700 JUMPI PUSH2 0x6FF PUSH2 0x6AB JUMP JUMPDEST JUMPDEST DUP1 PUSH1 0x40 MSTORE POP POP POP JUMP JUMPDEST PUSH0 PUSH2 0x712 PUSH2 0x682 JUMP JUMPDEST SWAP1 POP PUSH2 0x71E DUP3 DUP3 PUSH2 0x6D8 JUMP JUMPDEST SWAP2 SWAP1 POP JUMP JUMPDEST PUSH0 PUSH8 0xFFFFFFFFFFFFFFFF DUP3 GT ISZERO PUSH2 0x73D JUMPI PUSH2 0x73C PUSH2 0x6AB JUMP JUMPDEST JUMPDEST PUSH2 0x746 DUP3 PUSH2 0x69B JUMP JUMPDEST SWAP1 POP PUSH1 0x20 DUP2 ADD SWAP1 POP SWAP2 SWAP1 POP JUMP JUMPDEST DUP3 DUP2 DUP4 MCOPY PUSH0 DUP4 DUP4 ADD MSTORE POP POP POP JUMP JUMPDEST PUSH0 PUSH2 0x773 PUSH2 0x76E DUP5 PUSH2 0x723 JUMP JUMPDEST PUSH2 0x709 JUMP JUMPDEST SWAP1 POP DUP3 DUP2 MSTORE PUSH1 0x20 DUP2 ADD DUP5 DUP5 DUP5 ADD GT ISZERO PUSH2 0x78F JUMPI PUSH2 0x78E PUSH2 0x697 JUMP JUMPDEST JUMPDEST PUSH2 0x79A DUP5 DUP3 DUP6 PUSH2 0x753 JUMP JUMPDEST POP SWAP4 SWAP3 POP POP POP JUMP JUMPDEST PUSH0 DUP3 PUSH1 0x1F DUP4 ADD SLT PUSH2 0x7B6 JUMPI PUSH2 0x7B5 PUSH2 0x693 JUMP JUMPDEST JUMPDEST DUP2 MLOAD PUSH2 0x7C6 DUP5 DUP3 PUSH1 0x20 DUP7 ADD PUSH2 0x761 JUMP JUMPDEST SWAP2 POP POP SWAP3 SWAP2 POP POP JUMP JUMPDEST PUSH0 DUP1 PUSH0 PUSH1 0x60 DUP5 DUP7 SUB SLT ISZERO PUSH2 0x7E6 JUMPI PUSH2 0x7E5 PUSH2 0x68B JUMP JUMPDEST JUMPDEST PUSH0 DUP5 ADD MLOAD PUSH8 0xFFFFFFFFFFFFFFFF DUP2 GT ISZERO PUSH2 0x803 JUMPI PUSH2 0x802 PUSH2 0x68F JUMP JUMPDEST JUMPDEST PUSH2 0x80F DUP7 DUP3 DUP8 ADD PUSH2 0x7A2 JUMP JUMPDEST SWAP4 POP POP PUSH1 0x20 DUP5 ADD MLOAD PUSH8 0xFFFFFFFFFFFFFFFF DUP2 GT ISZERO PUSH2 0x830 JUMPI PUSH2 0x82F PUSH2 0x68F JUMP JUMPDEST JUMPDEST PUSH2 0x83C DUP7 DUP3 DUP8 ADD PUSH2 0x7A2 JUMP JUMPDEST SWAP3 POP POP PUSH1 0x40 DUP5 ADD MLOAD PUSH8 0xFFFFFFFFFFFFFFFF DUP2 GT ISZERO PUSH2 0x85D JUMPI PUSH2 0x85C PUSH2 0x68F JUMP JUMPDEST JUMPDEST PUSH2 0x869 DUP7 DUP3 DUP8 ADD PUSH2 0x7A2 JUMP JUMPDEST SWAP2 POP POP SWAP3 POP SWAP3 POP SWAP3 JUMP JUMPDEST PUSH0 DUP2 MLOAD SWAP1 POP SWAP2 SWAP1 POP JUMP JUMPDEST PUSH0 DUP2 SWAP1 POP SWAP3 SWAP2 POP POP JUMP JUMPDEST PUSH0 PUSH2 0x891 DUP3 PUSH2 0x873 JUMP JUMPDEST PUSH2 0x89B DUP2 DUP6 PUSH2 0x87D JUMP JUMPDEST SWAP4 POP PUSH2 0x8AB DUP2 DUP6 PUSH1 0x20 DUP7 ADD PUSH2 0x753 JUMP JUMPDEST DUP1 DUP5 ADD SWAP2 POP POP SWAP3 SWAP2 POP POP JUMP JUMPDEST PUSH0 PUSH2 0x8C2 DUP3 DUP5 PUSH2 0x887 JUMP JUMPDEST SWAP2 POP DUP2 SWAP1 POP SWAP3 SWAP2 POP POP JUMP JUMPDEST PUSH0 DUP2 SWAP1 POP SWAP2 SWAP1 POP JUMP JUMPDEST PUSH0 DUP2 SWAP1 POP SWAP2 SWAP1 POP JUMP JUMPDEST PUSH2 0x8F0 PUSH2 0x8EB DUP3 PUSH2 0x8CD JUMP JUMPDEST PUSH2 0x8D6 JUMP JUMPDEST DUP3 MSTORE POP POP JUMP JUMPDEST PUSH0 PUSH2 0x901 DUP3 DUP5 PUSH2 0x8DF JUMP JUMPDEST PUSH1 0x20 DUP3 ADD SWAP2 POP DUP2 SWAP1 POP SWAP3 SWAP2 POP POP JUMP JUMPDEST PUSH2 0x28E1 DUP1 PUSH2 0x91D PUSH0 CODECOPY PUSH0 RETURN INVALID PUSH1 0x80 PUSH1 0x40 MSTORE CALLVALUE DUP1 ISZERO PUSH2 0xF JUMPI PUSH0 DUP1 REVERT JUMPDEST POP PUSH1 0x4 CALLDATASIZE LT PUSH2 0x55 JUMPI PUSH0 CALLDATALOAD PUSH1 0xE0 SHR DUP1 PUSH4 0x4BB792AC EQ PUSH2 0x59 JUMPI DUP1 PUSH4 0x822E242E EQ PUSH2 0x75 JUMPI DUP1 PUSH4 0x963E9F1F EQ PUSH2 0x91 JUMPI DUP1 PUSH4 0xAE9EC457 EQ PUSH2 0xC1 JUMPI DUP1 PUSH4 0xC005A930 EQ PUSH2 0xF1 JUMPI JUMPDEST PUSH0 DUP1 REVERT JUMPDEST PUSH2 0x73 PUSH1 0x4 DUP1 CALLDATASIZE SUB DUP2 ADD SWAP1 PUSH2 0x6E SWAP2 SWAP1 PUSH2 0x1C0B JUMP JUMPDEST PUSH2 0x121 JUMP JUMPDEST STOP JUMPDEST PUSH2 0x8F PUSH1 0x4 DUP1 CALLDATASIZE SUB DUP2 ADD SWAP1 PUSH2 0x8A SWAP2 SWAP1 PUSH2 0x1CA7 JUMP JUMPDEST PUSH2 0x7A7 JUMP JUMPDEST STOP JUMPDEST PUSH2 0xAB PUSH1 0x4 DUP1 CALLDATASIZE SUB DUP2 ADD SWAP1 PUSH2 0xA6 SWAP2 SWAP1 PUSH2 0x1D43 JUMP JUMPDEST PUSH2 0xE2B JUMP JUMPDEST PUSH1 0x40 MLOAD PUSH2 0xB8 SWAP2 SWAP1 PUSH2 0x1F1B JUMP JUMPDEST PUSH1 0x40 MLOAD DUP1 SWAP2 SUB SWAP1 RETURN JUMPDEST PUSH2 0xDB PUSH1 0x4 DUP1 CALLDATASIZE SUB DUP2 ADD SWAP1 PUSH2 0xD6 SWAP2 SWAP1 PUSH2 0x1D43 JUMP JUMPDEST PUSH2 0x104E JUMP JUMPDEST PUSH1 0x40 MLOAD PUSH2 0xE8 SWAP2 SWAP1 PUSH2 0x1F1B JUMP JUMPDEST PUSH1 0x40 MLOAD DUP1 SWAP2 SUB SWAP1 RETURN JUMPDEST PUSH2 0x10B PUSH1 0x4 DUP1 CALLDATASIZE SUB DUP2 ADD SWAP1 PUSH2 0x106 SWAP2 SWAP1 PUSH2 0x1D43 JUMP JUMPDEST PUSH2 0x1270 JUMP JUMPDEST PUSH1 0x40 MLOAD PUSH2 0x118 SWAP2 SWAP1 PUSH2 0x20B1 JUMP JUMPDEST PUSH1 0x40 MLOAD DUP1 SWAP2 SUB SWAP1 RETURN JUMPDEST PUSH1 0x8 DUP3 EQ DUP1 PUSH2 0x130 JUMPI POP PUSH1 0x9 DUP3 EQ JUMPDEST ISZERO PUSH2 0x15A JUMPI PUSH1 0x40 MLOAD DUP1 PUSH1 0x20 ADD PUSH1 0x40 MSTORE DUP1 DUP4 DUP2 MSTORE POP PUSH1 0x6A SWAP1 PUSH1 0x1 PUSH2 0x154 SWAP3 SWAP2 SWAP1 PUSH2 0x19E8 JUMP JUMPDEST POP PUSH2 0x1CE JUMP JUMPDEST PUSH0 JUMPDEST PUSH1 0x8 DUP2 LT ISZERO PUSH2 0x1CC JUMPI PUSH1 0x1 PUSH1 0x6 DUP5 PUSH1 0xA DUP2 LT PUSH2 0x17B JUMPI PUSH2 0x17A PUSH2 0x20D1 JUMP JUMPDEST JUMPDEST PUSH1 0xA MUL ADD DUP3 PUSH1 0xA DUP2 LT PUSH2 0x191 JUMPI PUSH2 0x190 PUSH2 0x20D1 JUMP JUMPDEST JUMPDEST ADD SLOAD SUB PUSH2 0x1BF JUMPI PUSH1 0x6A DUP2 SWAP1 DUP1 PUSH1 0x1 DUP2 SLOAD ADD DUP1 DUP3 SSTORE DUP1 SWAP2 POP POP PUSH1 0x1 SWAP1 SUB SWAP1 PUSH0 MSTORE PUSH1 0x20 PUSH0 KECCAK256 ADD PUSH0 SWAP1 SWAP2 SWAP1 SWAP2 SWAP1 SWAP2 POP SSTORE JUMPDEST DUP1 DUP1 PUSH1 0x1 ADD SWAP2 POP POP PUSH2 0x15C JUMP JUMPDEST POP JUMPDEST PUSH0 DUP1 JUMPDEST PUSH1 0x3 DUP1 SLOAD SWAP1 POP DUP2 LT ISZERO PUSH2 0x78B JUMPI DUP5 DUP1 MLOAD SWAP1 PUSH1 0x20 ADD KECCAK256 PUSH1 0x3 DUP3 DUP2 SLOAD DUP2 LT PUSH2 0x1FA JUMPI PUSH2 0x1F9 PUSH2 0x20D1 JUMP JUMPDEST JUMPDEST SWAP1 PUSH0 MSTORE PUSH1 0x20 PUSH0 KECCAK256 SWAP1 PUSH1 0x4 MUL ADD PUSH1 0x2 ADD PUSH1 0x40 MLOAD PUSH2 0x216 SWAP2 SWAP1 PUSH2 0x21F7 JUMP JUMPDEST PUSH1 0x40 MLOAD DUP1 SWAP2 SUB SWAP1 KECCAK256 SUB PUSH2 0x77E JUMPI PUSH0 JUMPDEST PUSH1 0x6A DUP1 SLOAD SWAP1 POP DUP2 LT ISZERO PUSH2 0x77C JUMPI PUSH1 0x6A DUP2 DUP2 SLOAD DUP2 LT PUSH2 0x246 JUMPI PUSH2 0x245 PUSH2 0x20D1 JUMP JUMPDEST JUMPDEST SWAP1 PUSH0 MSTORE PUSH1 0x20 PUSH0 KECCAK256 ADD SLOAD PUSH1 0x3 DUP4 DUP2 SLOAD DUP2 LT PUSH2 0x263 JUMPI PUSH2 0x262 PUSH2 0x20D1 JUMP JUMPDEST JUMPDEST SWAP1 PUSH0 MSTORE PUSH1 0x20 PUSH0 KECCAK256 SWAP1 PUSH1 0x4 MUL ADD PUSH1 0x1 ADD SLOAD SUB PUSH2 0x76F JUMPI PUSH1 0x1 SWAP3 POP PUSH32 0x2A721C885FFFCF96F50F455DD2CA696CAF61D72D984EA9334DAEA189844A932B PUSH1 0x3 DUP4 DUP2 SLOAD DUP2 LT PUSH2 0x2B1 JUMPI PUSH2 0x2B0 PUSH2 0x20D1 JUMP JUMPDEST JUMPDEST SWAP1 PUSH0 MSTORE PUSH1 0x20 PUSH0 KECCAK256 SWAP1 PUSH1 0x4 MUL ADD PUSH0 ADD PUSH1 0x3 DUP5 DUP2 SLOAD DUP2 LT PUSH2 0x2D3 JUMPI PUSH2 0x2D2 PUSH2 0x20D1 JUMP JUMPDEST JUMPDEST SWAP1 PUSH0 MSTORE PUSH1 0x20 PUSH0 KECCAK256 SWAP1 PUSH1 0x4 MUL ADD PUSH1 0x1 ADD SLOAD PUSH1 0x3 DUP6 DUP2 SLOAD DUP2 LT PUSH2 0x2F7 JUMPI PUSH2 0x2F6 PUSH2 0x20D1 JUMP JUMPDEST JUMPDEST SWAP1 PUSH0 MSTORE PUSH1 0x20 PUSH0 KECCAK256 SWAP1 PUSH1 0x4 MUL ADD PUSH1 0x2 ADD PUSH1 0x3 DUP7 DUP2 SLOAD DUP2 LT PUSH2 0x31A JUMPI PUSH2 0x319 PUSH2 0x20D1 JUMP JUMPDEST JUMPDEST SWAP1 PUSH0 MSTORE PUSH1 0x20 PUSH0 KECCAK256 SWAP1 PUSH1 0x4 MUL ADD PUSH1 0x3 ADD SLOAD PUSH1 0x40 MLOAD PUSH2 0x33A SWAP5 SWAP4 SWAP3 SWAP2 SWAP1 PUSH2 0x22BF JUMP JUMPDEST PUSH1 0x40 MLOAD DUP1 SWAP2 SUB SWAP1 LOG1 PUSH0 PUSH1 0x3 DUP4 DUP2 SLOAD DUP2 LT PUSH2 0x357 JUMPI PUSH2 0x356 PUSH2 0x20D1 JUMP JUMPDEST JUMPDEST SWAP1 PUSH0 MSTORE PUSH1 0x20 PUSH0 KECCAK256 SWAP1 PUSH1 0x4 MUL ADD PUSH1 0x3 ADD SLOAD DUP6 PUSH2 0x372 SWAP2 SWAP1 PUSH2 0x2346 JUMP JUMPDEST SWAP1 POP PUSH0 DUP2 SGT ISZERO PUSH2 0x4BC JUMPI PUSH2 0x49D PUSH1 0x3 DUP5 DUP2 SLOAD DUP2 LT PUSH2 0x393 JUMPI PUSH2 0x392 PUSH2 0x20D1 JUMP JUMPDEST JUMPDEST SWAP1 PUSH0 MSTORE PUSH1 0x20 PUSH0 KECCAK256 SWAP1 PUSH1 0x4 MUL ADD PUSH0 ADD DUP1 SLOAD PUSH2 0x3AC SWAP1 PUSH2 0x212B JUMP JUMPDEST DUP1 PUSH1 0x1F ADD PUSH1 0x20 DUP1 SWAP2 DIV MUL PUSH1 0x20 ADD PUSH1 0x40 MLOAD SWAP1 DUP2 ADD PUSH1 0x40 MSTORE DUP1 SWAP3 SWAP2 SWAP1 DUP2 DUP2 MSTORE PUSH1 0x20 ADD DUP3 DUP1 SLOAD PUSH2 0x3D8 SWAP1 PUSH2 0x212B JUMP JUMPDEST DUP1 ISZERO PUSH2 0x423 JUMPI DUP1 PUSH1 0x1F LT PUSH2 0x3FA JUMPI PUSH2 0x100 DUP1 DUP4 SLOAD DIV MUL DUP4 MSTORE SWAP2 PUSH1 0x20 ADD SWAP2 PUSH2 0x423 JUMP JUMPDEST DUP3 ADD SWAP2 SWAP1 PUSH0 MSTORE PUSH1 0x20 PUSH0 KECCAK256 SWAP1 JUMPDEST DUP2 SLOAD DUP2 MSTORE SWAP1 PUSH1 0x1 ADD SWAP1 PUSH1 0x20 ADD DUP1 DUP4 GT PUSH2 0x406 JUMPI DUP3 SWAP1 SUB PUSH1 0x1F AND DUP3 ADD SWAP2 JUMPDEST POP POP POP POP POP DUP10 PUSH1 0x3 DUP7 DUP2 SLOAD DUP2 LT PUSH2 0x43D JUMPI PUSH2 0x43C PUSH2 0x20D1 JUMP JUMPDEST JUMPDEST SWAP1 PUSH0 MSTORE PUSH1 0x20 PUSH0 KECCAK256 SWAP1 PUSH1 0x4 MUL ADD PUSH1 0x1 ADD SLOAD DUP10 DUP12 PUSH1 0x3 DUP10 DUP2 SLOAD DUP2 LT PUSH2 0x463 JUMPI PUSH2 0x462 PUSH2 0x20D1 JUMP JUMPDEST JUMPDEST SWAP1 PUSH0 MSTORE PUSH1 0x20 PUSH0 KECCAK256 SWAP1 PUSH1 0x4 MUL ADD PUSH1 0x3 ADD SLOAD DUP12 PUSH1 0x3 DUP12 DUP2 SLOAD DUP2 LT PUSH2 0x488 JUMPI PUSH2 0x487 PUSH2 0x20D1 JUMP JUMPDEST JUMPDEST SWAP1 PUSH0 MSTORE PUSH1 0x20 PUSH0 KECCAK256 SWAP1 PUSH1 0x4 MUL ADD PUSH1 0x3 ADD SLOAD PUSH2 0x1542 JUMP JUMPDEST PUSH2 0x4AB DUP9 DUP8 DUP10 DUP5 PUSH1 0x1 PUSH2 0x1627 JUMP JUMPDEST PUSH2 0x4B6 PUSH1 0x3 DUP5 PUSH2 0x1732 JUMP JUMPDEST POP PUSH2 0x77C JUMP JUMPDEST PUSH0 DUP2 SUB PUSH2 0x5F5 JUMPI PUSH2 0x5E4 PUSH1 0x3 DUP5 DUP2 SLOAD DUP2 LT PUSH2 0x4DA JUMPI PUSH2 0x4D9 PUSH2 0x20D1 JUMP JUMPDEST JUMPDEST SWAP1 PUSH0 MSTORE PUSH1 0x20 PUSH0 KECCAK256 SWAP1 PUSH1 0x4 MUL ADD PUSH0 ADD DUP1 SLOAD PUSH2 0x4F3 SWAP1 PUSH2 0x212B JUMP JUMPDEST DUP1 PUSH1 0x1F ADD PUSH1 0x20 DUP1 SWAP2 DIV MUL PUSH1 0x20 ADD PUSH1 0x40 MLOAD SWAP1 DUP2 ADD PUSH1 0x40 MSTORE DUP1 SWAP3 SWAP2 SWAP1 DUP2 DUP2 MSTORE PUSH1 0x20 ADD DUP3 DUP1 SLOAD PUSH2 0x51F SWAP1 PUSH2 0x212B JUMP JUMPDEST DUP1 ISZERO PUSH2 0x56A JUMPI DUP1 PUSH1 0x1F LT PUSH2 0x541 JUMPI PUSH2 0x100 DUP1 DUP4 SLOAD DIV MUL DUP4 MSTORE SWAP2 PUSH1 0x20 ADD SWAP2 PUSH2 0x56A JUMP JUMPDEST DUP3 ADD SWAP2 SWAP1 PUSH0 MSTORE PUSH1 0x20 PUSH0 KECCAK256 SWAP1 JUMPDEST DUP2 SLOAD DUP2 MSTORE SWAP1 PUSH1 0x1 ADD SWAP1 PUSH1 0x20 ADD DUP1 DUP4 GT PUSH2 0x54D JUMPI DUP3 SWAP1 SUB PUSH1 0x1F AND DUP3 ADD SWAP2 JUMPDEST POP POP POP POP POP DUP10 PUSH1 0x3 DUP7 DUP2 SLOAD DUP2 LT PUSH2 0x584 JUMPI PUSH2 0x583 PUSH2 0x20D1 JUMP JUMPDEST JUMPDEST SWAP1 PUSH0 MSTORE PUSH1 0x20 PUSH0 KECCAK256 SWAP1 PUSH1 0x4 MUL ADD PUSH1 0x1 ADD SLOAD DUP10 DUP12 PUSH1 0x3 DUP10 DUP2 SLOAD DUP2 LT PUSH2 0x5AA JUMPI PUSH2 0x5A9 PUSH2 0x20D1 JUMP JUMPDEST JUMPDEST SWAP1 PUSH0 MSTORE PUSH1 0x20 PUSH0 KECCAK256 SWAP1 PUSH1 0x4 MUL ADD PUSH1 0x3 ADD SLOAD DUP12 PUSH1 0x3 DUP12 DUP2 SLOAD DUP2 LT PUSH2 0x5CF JUMPI PUSH2 0x5CE PUSH2 0x20D1 JUMP JUMPDEST JUMPDEST SWAP1 PUSH0 MSTORE PUSH1 0x20 PUSH0 KECCAK256 SWAP1 PUSH1 0x4 MUL ADD PUSH1 0x3 ADD SLOAD PUSH2 0x1542 JUMP JUMPDEST PUSH2 0x5EF PUSH1 0x3 DUP5 PUSH2 0x1732 JUMP JUMPDEST POP PUSH2 0x77C JUMP JUMPDEST PUSH2 0x716 PUSH1 0x3 DUP5 DUP2 SLOAD DUP2 LT PUSH2 0x60C JUMPI PUSH2 0x60B PUSH2 0x20D1 JUMP JUMPDEST JUMPDEST SWAP1 PUSH0 MSTORE PUSH1 0x20 PUSH0 KECCAK256 SWAP1 PUSH1 0x4 MUL ADD PUSH0 ADD DUP1 SLOAD PUSH2 0x625 SWAP1 PUSH2 0x212B JUMP JUMPDEST DUP1 PUSH1 0x1F ADD PUSH1 0x20 DUP1 SWAP2 DIV MUL PUSH1 0x20 ADD PUSH1 0x40 MLOAD SWAP1 DUP2 ADD PUSH1 0x40 MSTORE DUP1 SWAP3 SWAP2 SWAP1 DUP2 DUP2 MSTORE PUSH1 0x20 ADD DUP3 DUP1 SLOAD PUSH2 0x651 SWAP1 PUSH2 0x212B JUMP JUMPDEST DUP1 ISZERO PUSH2 0x69C JUMPI DUP1 PUSH1 0x1F LT PUSH2 0x673 JUMPI PUSH2 0x100 DUP1 DUP4 SLOAD DIV MUL DUP4 MSTORE SWAP2 PUSH1 0x20 ADD SWAP2 PUSH2 0x69C JUMP JUMPDEST DUP3 ADD SWAP2 SWAP1 PUSH0 MSTORE PUSH1 0x20 PUSH0 KECCAK256 SWAP1 JUMPDEST DUP2 SLOAD DUP2 MSTORE SWAP1 PUSH1 0x1 ADD SWAP1 PUSH1 0x20 ADD DUP1 DUP4 GT PUSH2 0x67F JUMPI DUP3 SWAP1 SUB PUSH1 0x1F AND DUP3 ADD SWAP2 JUMPDEST POP POP POP POP POP DUP10 PUSH1 0x3 DUP7 DUP2 SLOAD DUP2 LT PUSH2 0x6B6 JUMPI PUSH2 0x6B5 PUSH2 0x20D1 JUMP JUMPDEST JUMPDEST SWAP1 PUSH0 MSTORE PUSH1 0x20 PUSH0 KECCAK256 SWAP1 PUSH1 0x4 MUL ADD PUSH1 0x1 ADD SLOAD DUP10 DUP12 PUSH1 0x3 DUP10 DUP2 SLOAD DUP2 LT PUSH2 0x6DC JUMPI PUSH2 0x6DB PUSH2 0x20D1 JUMP JUMPDEST JUMPDEST SWAP1 PUSH0 MSTORE PUSH1 0x20 PUSH0 KECCAK256 SWAP1 PUSH1 0x4 MUL ADD PUSH1 0x3 ADD SLOAD DUP12 PUSH1 0x3 DUP12 DUP2 SLOAD DUP2 LT PUSH2 0x701 JUMPI PUSH2 0x700 PUSH2 0x20D1 JUMP JUMPDEST JUMPDEST SWAP1 PUSH0 MSTORE PUSH1 0x20 PUSH0 KECCAK256 SWAP1 PUSH1 0x4 MUL ADD PUSH1 0x3 ADD SLOAD PUSH2 0x1542 JUMP JUMPDEST PUSH32 0xFFFFFFFFFFFFFFFFFFFFFFFFFFFFFFFFFFFFFFFFFFFFFFFFFFFFFFFFFFFFFFFF DUP2 PUSH2 0x742 SWAP2 SWAP1 PUSH2 0x2386 JUMP JUMPDEST PUSH1 0x3 DUP5 DUP2 SLOAD DUP2 LT PUSH2 0x756 JUMPI PUSH2 0x755 PUSH2 0x20D1 JUMP JUMPDEST JUMPDEST SWAP1 PUSH0 MSTORE PUSH1 0x20 PUSH0 KECCAK256 SWAP1 PUSH1 0x4 MUL ADD PUSH1 0x3 ADD DUP2 SWAP1 SSTORE POP POP PUSH2 0x77C JUMP JUMPDEST DUP1 DUP1 PUSH1 0x1 ADD SWAP2 POP POP PUSH2 0x225 JUMP JUMPDEST POP JUMPDEST DUP1 DUP1 PUSH1 0x1 ADD SWAP2 POP POP PUSH2 0x1D1 JUMP JUMPDEST POP DUP1 PUSH2 0x7A0 JUMPI PUSH2 0x79F DUP6 DUP5 DUP7 DUP6 PUSH1 0x1 PUSH2 0x1627 JUMP JUMPDEST JUMPDEST POP POP POP POP POP JUMP JUMPDEST PUSH1 0x8 DUP4 EQ DUP1 PUSH2 0x7B6 JUMPI POP PUSH1 0x9 DUP4 EQ JUMPDEST ISZERO PUSH2 0x7E0 JUMPI PUSH1 0x40 MLOAD DUP1 PUSH1 0x20 ADD PUSH1 0x40 MSTORE DUP1 DUP5 DUP2 MSTORE POP PUSH1 0x6A SWAP1 PUSH1 0x1 PUSH2 0x7DA SWAP3 SWAP2 SWAP1 PUSH2 0x19E8 JUMP JUMPDEST POP PUSH2 0x854 JUMP JUMPDEST PUSH0 JUMPDEST PUSH1 0x8 DUP2 LT ISZERO PUSH2 0x852 JUMPI PUSH1 0x1 PUSH1 0x6 DUP3 PUSH1 0xA DUP2 LT PUSH2 0x801 JUMPI PUSH2 0x800 PUSH2 0x20D1 JUMP JUMPDEST JUMPDEST PUSH1 0xA MUL ADD DUP6 PUSH1 0xA DUP2 LT PUSH2 0x817 JUMPI PUSH2 0x816 PUSH2 0x20D1 JUMP JUMPDEST JUMPDEST ADD SLOAD SUB PUSH2 0x845 JUMPI PUSH1 0x6A DUP2 SWAP1 DUP1 PUSH1 0x1 DUP2 SLOAD ADD DUP1 DUP3 SSTORE DUP1 SWAP2 POP POP PUSH1 0x1 SWAP1 SUB SWAP1 PUSH0 MSTORE PUSH1 0x20 PUSH0 KECCAK256 ADD PUSH0 SWAP1 SWAP2 SWAP1 SWAP2 SWAP1 SWAP2 POP SSTORE JUMPDEST DUP1 DUP1 PUSH1 0x1 ADD SWAP2 POP POP PUSH2 0x7E2 JUMP JUMPDEST POP JUMPDEST PUSH0 DUP1 JUMPDEST PUSH1 0x4 DUP1 SLOAD SWAP1 POP DUP2 LT ISZERO PUSH2 0xE10 JUMPI DUP4 DUP1 MLOAD SWAP1 PUSH1 0x20 ADD KECCAK256 PUSH1 0x4 DUP3 DUP2 SLOAD DUP2 LT PUSH2 0x880 JUMPI PUSH2 0x87F PUSH2 0x20D1 JUMP JUMPDEST JUMPDEST SWAP1 PUSH0 MSTORE PUSH1 0x20 PUSH0 KECCAK256 SWAP1 PUSH1 0x4 MUL ADD PUSH1 0x2 ADD PUSH1 0x40 MLOAD PUSH2 0x89C SWAP2 SWAP1 PUSH2 0x21F7 JUMP JUMPDEST PUSH1 0x40 MLOAD DUP1 SWAP2 SUB SWAP1 KECCAK256 SUB PUSH2 0xE03 JUMPI PUSH0 JUMPDEST PUSH1 0x6A DUP1 SLOAD SWAP1 POP DUP2 LT ISZERO PUSH2 0xE01 JUMPI PUSH1 0x6A DUP2 DUP2 SLOAD DUP2 LT PUSH2 0x8CC JUMPI PUSH2 0x8CB PUSH2 0x20D1 JUMP JUMPDEST JUMPDEST SWAP1 PUSH0 MSTORE PUSH1 0x20 PUSH0 KECCAK256 ADD SLOAD PUSH1 0x4 DUP4 DUP2 SLOAD DUP2 LT PUSH2 0x8E9 JUMPI PUSH2 0x8E8 PUSH2 0x20D1 JUMP JUMPDEST JUMPDEST SWAP1 PUSH0 MSTORE PUSH1 0x20 PUSH0 KECCAK256 SWAP1 PUSH1 0x4 MUL ADD PUSH1 0x1 ADD SLOAD SUB PUSH2 0xDF4 JUMPI PUSH1 0x1 SWAP3 POP PUSH32 0xCC97805E28E324DC39BE995161797F1FDF935C9B4EBAB652EF2CC60DE7F0F394 PUSH1 0x4 DUP4 DUP2 SLOAD DUP2 LT PUSH2 0x937 JUMPI PUSH2 0x936 PUSH2 0x20D1 JUMP JUMPDEST JUMPDEST SWAP1 PUSH0 MSTORE PUSH1 0x20 PUSH0 KECCAK256 SWAP1 PUSH1 0x4 MUL ADD PUSH0 ADD PUSH1 0x4 DUP5 DUP2 SLOAD DUP2 LT PUSH2 0x959 JUMPI PUSH2 0x958 PUSH2 0x20D1 JUMP JUMPDEST JUMPDEST SWAP1 PUSH0 MSTORE PUSH1 0x20 PUSH0 KECCAK256 SWAP1 PUSH1 0x4 MUL ADD PUSH1 0x1 ADD SLOAD PUSH1 0x4 DUP6 DUP2 SLOAD DUP2 LT PUSH2 0x97D JUMPI PUSH2 0x97C PUSH2 0x20D1 JUMP JUMPDEST JUMPDEST SWAP1 PUSH0 MSTORE PUSH1 0x20 PUSH0 KECCAK256 SWAP1 PUSH1 0x4 MUL ADD PUSH1 0x2 ADD PUSH1 0x4 DUP7 DUP2 SLOAD DUP2 LT PUSH2 0x9A0 JUMPI PUSH2 0x99F PUSH2 0x20D1 JUMP JUMPDEST JUMPDEST SWAP1 PUSH0 MSTORE PUSH1 0x20 PUSH0 KECCAK256 SWAP1 PUSH1 0x4 MUL ADD PUSH1 0x3 ADD SLOAD PUSH1 0x40 MLOAD PUSH2 0x9C0 SWAP5 SWAP4 SWAP3 SWAP2 SWAP1 PUSH2 0x22BF JUMP JUMPDEST PUSH1 0x40 MLOAD DUP1 SWAP2 SUB SWAP1 LOG1 PUSH0 PUSH1 0x4 DUP4 DUP2 SLOAD DUP2 LT PUSH2 0x9DD JUMPI PUSH2 0x9DC PUSH2 0x20D1 JUMP JUMPDEST JUMPDEST SWAP1 PUSH0 MSTORE PUSH1 0x20 PUSH0 KECCAK256 SWAP1 PUSH1 0x4 MUL ADD PUSH1 0x3 ADD SLOAD DUP6 PUSH2 0x9F8 SWAP2 SWAP1 PUSH2 0x2346 JUMP JUMPDEST SWAP1 POP PUSH0 DUP2 SGT ISZERO PUSH2 0xB41 JUMPI PUSH2 0xB23 DUP9 PUSH1 0x4 DUP6 DUP2 SLOAD DUP2 LT PUSH2 0xA1A JUMPI PUSH2 0xA19 PUSH2 0x20D1 JUMP JUMPDEST JUMPDEST SWAP1 PUSH0 MSTORE PUSH1 0x20 PUSH0 KECCAK256 SWAP1 PUSH1 0x4 MUL ADD PUSH0 ADD DUP1 SLOAD PUSH2 0xA33 SWAP1 PUSH2 0x212B JUMP JUMPDEST DUP1 PUSH1 0x1F ADD PUSH1 0x20 DUP1 SWAP2 DIV MUL PUSH1 0x20 ADD PUSH1 0x40 MLOAD SWAP1 DUP2 ADD PUSH1 0x40 MSTORE DUP1 SWAP3 SWAP2 SWAP1 DUP2 DUP2 MSTORE PUSH1 0x20 ADD DUP3 DUP1 SLOAD PUSH2 0xA5F SWAP1 PUSH2 0x212B JUMP JUMPDEST DUP1 ISZERO PUSH2 0xAAA JUMPI DUP1 PUSH1 0x1F LT PUSH2 0xA81 JUMPI PUSH2 0x100 DUP1 DUP4 SLOAD DIV MUL DUP4 MSTORE SWAP2 PUSH1 0x20 ADD SWAP2 PUSH2 0xAAA JUMP JUMPDEST DUP3 ADD SWAP2 SWAP1 PUSH0 MSTORE PUSH1 0x20 PUSH0 KECCAK256 SWAP1 JUMPDEST DUP2 SLOAD DUP2 MSTORE SWAP1 PUSH1 0x1 ADD SWAP1 PUSH1 0x20 ADD DUP1 DUP4 GT PUSH2 0xA8D JUMPI DUP3 SWAP1 SUB PUSH1 0x1F AND DUP3 ADD SWAP2 JUMPDEST POP POP POP POP POP DUP10 PUSH1 0x4 DUP8 DUP2 SLOAD DUP2 LT PUSH2 0xAC4 JUMPI PUSH2 0xAC3 PUSH2 0x20D1 JUMP JUMPDEST JUMPDEST SWAP1 PUSH0 MSTORE PUSH1 0x20 PUSH0 KECCAK256 SWAP1 PUSH1 0x4 MUL ADD PUSH1 0x1 ADD SLOAD DUP11 DUP11 PUSH1 0x4 DUP11 DUP2 SLOAD DUP2 LT PUSH2 0xAEA JUMPI PUSH2 0xAE9 PUSH2 0x20D1 JUMP JUMPDEST JUMPDEST SWAP1 PUSH0 MSTORE PUSH1 0x20 PUSH0 KECCAK256 SWAP1 PUSH1 0x4 MUL ADD PUSH1 0x3 ADD SLOAD PUSH1 0x4 DUP12 DUP2 SLOAD DUP2 LT PUSH2 0xB0E JUMPI PUSH2 0xB0D PUSH2 0x20D1 JUMP JUMPDEST JUMPDEST SWAP1 PUSH0 MSTORE PUSH1 0x20 PUSH0 KECCAK256 SWAP1 PUSH1 0x4 MUL ADD PUSH1 0x3 ADD SLOAD PUSH2 0x1542 JUMP JUMPDEST PUSH2 0xB30 DUP9 DUP9 DUP9 DUP5 PUSH0 PUSH2 0x1627 JUMP JUMPDEST PUSH2 0xB3B PUSH1 0x4 DUP5 PUSH2 0x1732 JUMP JUMPDEST POP PUSH2 0xE01 JUMP JUMPDEST PUSH0 DUP2 SUB PUSH2 0xC7A JUMPI PUSH2 0xC69 DUP9 PUSH1 0x4 DUP6 DUP2 SLOAD DUP2 LT PUSH2 0xB60 JUMPI PUSH2 0xB5F PUSH2 0x20D1 JUMP JUMPDEST JUMPDEST SWAP1 PUSH0 MSTORE PUSH1 0x20 PUSH0 KECCAK256 SWAP1 PUSH1 0x4 MUL ADD PUSH0 ADD DUP1 SLOAD PUSH2 0xB79 SWAP1 PUSH2 0x212B JUMP JUMPDEST DUP1 PUSH1 0x1F ADD PUSH1 0x20 DUP1 SWAP2 DIV MUL PUSH1 0x20 ADD PUSH1 0x40 MLOAD SWAP1 DUP2 ADD PUSH1 0x40 MSTORE DUP1 SWAP3 SWAP2 SWAP1 DUP2 DUP2 MSTORE PUSH1 0x20 ADD DUP3 DUP1 SLOAD PUSH2 0xBA5 SWAP1 PUSH2 0x212B JUMP JUMPDEST DUP1 ISZERO PUSH2 0xBF0 JUMPI DUP1 PUSH1 0x1F LT PUSH2 0xBC7 JUMPI PUSH2 0x100 DUP1 DUP4 SLOAD DIV MUL DUP4 MSTORE SWAP2 PUSH1 0x20 ADD SWAP2 PUSH2 0xBF0 JUMP JUMPDEST DUP3 ADD SWAP2 SWAP1 PUSH0 MSTORE PUSH1 0x20 PUSH0 KECCAK256 SWAP1 JUMPDEST DUP2 SLOAD DUP2 MSTORE SWAP1 PUSH1 0x1 ADD SWAP1 PUSH1 0x20 ADD DUP1 DUP4 GT PUSH2 0xBD3 JUMPI DUP3 SWAP1 SUB PUSH1 0x1F AND DUP3 ADD SWAP2 JUMPDEST POP POP POP POP POP DUP10 PUSH1 0x4 DUP8 DUP2 SLOAD DUP2 LT PUSH2 0xC0A JUMPI PUSH2 0xC09 PUSH2 0x20D1 JUMP JUMPDEST JUMPDEST SWAP1 PUSH0 MSTORE PUSH1 0x20 PUSH0 KECCAK256 SWAP1 PUSH1 0x4 MUL ADD PUSH1 0x1 ADD SLOAD DUP11 DUP11 PUSH1 0x4 DUP11 DUP2 SLOAD DUP2 LT PUSH2 0xC30 JUMPI PUSH2 0xC2F PUSH2 0x20D1 JUMP JUMPDEST JUMPDEST SWAP1 PUSH0 MSTORE PUSH1 0x20 PUSH0 KECCAK256 SWAP1 PUSH1 0x4 MUL ADD PUSH1 0x3 ADD SLOAD PUSH1 0x4 DUP12 DUP2 SLOAD DUP2 LT PUSH2 0xC54 JUMPI PUSH2 0xC53 PUSH2 0x20D1 JUMP JUMPDEST JUMPDEST SWAP1 PUSH0 MSTORE PUSH1 0x20 PUSH0 KECCAK256 SWAP1 PUSH1 0x4 MUL ADD PUSH1 0x3 ADD SLOAD PUSH2 0x1542 JUMP JUMPDEST PUSH2 0xC74 PUSH1 0x4 DUP5 PUSH2 0x1732 JUMP JUMPDEST POP PUSH2 0xE01 JUMP JUMPDEST PUSH2 0xD9B DUP9 PUSH1 0x4 DUP6 DUP2 SLOAD DUP2 LT PUSH2 0xC92 JUMPI PUSH2 0xC91 PUSH2 0x20D1 JUMP JUMPDEST JUMPDEST SWAP1 PUSH0 MSTORE PUSH1 0x20 PUSH0 KECCAK256 SWAP1 PUSH1 0x4 MUL ADD PUSH0 ADD DUP1 SLOAD PUSH2 0xCAB SWAP1 PUSH2 0x212B JUMP JUMPDEST DUP1 PUSH1 0x1F ADD PUSH1 0x20 DUP1 SWAP2 DIV MUL PUSH1 0x20 ADD PUSH1 0x40 MLOAD SWAP1 DUP2 ADD PUSH1 0x40 MSTORE DUP1 SWAP3 SWAP2 SWAP1 DUP2 DUP2 MSTORE PUSH1 0x20 ADD DUP3 DUP1 SLOAD PUSH2 0xCD7 SWAP1 PUSH2 0x212B JUMP JUMPDEST DUP1 ISZERO PUSH2 0xD22 JUMPI DUP1 PUSH1 0x1F LT PUSH2 0xCF9 JUMPI PUSH2 0x100 DUP1 DUP4 SLOAD DIV MUL DUP4 MSTORE SWAP2 PUSH1 0x20 ADD SWAP2 PUSH2 0xD22 JUMP JUMPDEST DUP3 ADD SWAP2 SWAP1 PUSH0 MSTORE PUSH1 0x20 PUSH0 KECCAK256 SWAP1 JUMPDEST DUP2 SLOAD DUP2 MSTORE SWAP1 PUSH1 0x1 ADD SWAP1 PUSH1 0x20 ADD DUP1 DUP4 GT PUSH2 0xD05 JUMPI DUP3 SWAP1 SUB PUSH1 0x1F AND DUP3 ADD SWAP2 JUMPDEST POP POP POP POP POP DUP10 PUSH1 0x4 DUP8 DUP2 SLOAD DUP2 LT PUSH2 0xD3C JUMPI PUSH2 0xD3B PUSH2 0x20D1 JUMP JUMPDEST JUMPDEST SWAP1 PUSH0 MSTORE PUSH1 0x20 PUSH0 KECCAK256 SWAP1 PUSH1 0x4 MUL ADD PUSH1 0x1 ADD SLOAD DUP11 DUP11 PUSH1 0x4 DUP11 DUP2 SLOAD DUP2 LT PUSH2 0xD62 JUMPI PUSH2 0xD61 PUSH2 0x20D1 JUMP JUMPDEST JUMPDEST SWAP1 PUSH0 MSTORE PUSH1 0x20 PUSH0 KECCAK256 SWAP1 PUSH1 0x4 MUL ADD PUSH1 0x3 ADD SLOAD PUSH1 0x4 DUP12 DUP2 SLOAD DUP2 LT PUSH2 0xD86 JUMPI PUSH2 0xD85 PUSH2 0x20D1 JUMP JUMPDEST JUMPDEST SWAP1 PUSH0 MSTORE PUSH1 0x20 PUSH0 KECCAK256 SWAP1 PUSH1 0x4 MUL ADD PUSH1 0x3 ADD SLOAD PUSH2 0x1542 JUMP JUMPDEST PUSH32 0xFFFFFFFFFFFFFFFFFFFFFFFFFFFFFFFFFFFFFFFFFFFFFFFFFFFFFFFFFFFFFFFF DUP2 PUSH2 0xDC7 SWAP2 SWAP1 PUSH2 0x2386 JUMP JUMPDEST PUSH1 0x4 DUP5 DUP2 SLOAD DUP2 LT PUSH2 0xDDB JUMPI PUSH2 0xDDA PUSH2 0x20D1 JUMP JUMPDEST JUMPDEST SWAP1 PUSH0 MSTORE PUSH1 0x20 PUSH0 KECCAK256 SWAP1 PUSH1 0x4 MUL ADD PUSH1 0x3 ADD DUP2 SWAP1 SSTORE POP POP PUSH2 0xE01 JUMP JUMPDEST DUP1 DUP1 PUSH1 0x1 ADD SWAP2 POP POP PUSH2 0x8AB JUMP JUMPDEST POP JUMPDEST DUP1 DUP1 PUSH1 0x1 ADD SWAP2 POP POP PUSH2 0x857 JUMP JUMPDEST POP DUP1 PUSH2 0xE24 JUMPI PUSH2 0xE23 DUP6 DUP6 DUP6 DUP6 PUSH0 PUSH2 0x1627 JUMP JUMPDEST JUMPDEST POP POP POP POP POP JUMP JUMPDEST PUSH1 0x60 DUP2 PUSH1 0x1 SLOAD DUP2 PUSH1 0x40 MLOAD PUSH1 0x20 ADD PUSH2 0xE42 SWAP2 SWAP1 PUSH2 0x2436 JUMP JUMPDEST PUSH1 0x40 MLOAD PUSH1 0x20 DUP2 DUP4 SUB SUB DUP2 MSTORE SWAP1 PUSH1 0x40 MSTORE DUP1 MLOAD SWAP1 PUSH1 0x20 ADD KECCAK256 PUSH1 0x40 MLOAD PUSH1 0x20 ADD PUSH2 0xE68 SWAP2 SWAP1 PUSH2 0x2475 JUMP JUMPDEST PUSH1 0x40 MLOAD PUSH1 0x20 DUP2 DUP4 SUB SUB DUP2 MSTORE SWAP1 PUSH1 0x40 MSTORE DUP1 MLOAD SWAP1 PUSH1 0x20 ADD KECCAK256 EQ PUSH2 0xEBE JUMPI PUSH1 0x40 MLOAD PUSH32 0x8C379A000000000000000000000000000000000000000000000000000000000 DUP2 MSTORE PUSH1 0x4 ADD PUSH2 0xEB5 SWAP1 PUSH2 0x24D9 JUMP JUMPDEST PUSH1 0x40 MLOAD DUP1 SWAP2 SUB SWAP1 REVERT JUMPDEST PUSH1 0x4 DUP1 SLOAD DUP1 PUSH1 0x20 MUL PUSH1 0x20 ADD PUSH1 0x40 MLOAD SWAP1 DUP2 ADD PUSH1 0x40 MSTORE DUP1 SWAP3 SWAP2 SWAP1 DUP2 DUP2 MSTORE PUSH1 0x20 ADD PUSH0 SWAP1 JUMPDEST DUP3 DUP3 LT ISZERO PUSH2 0x1042 JUMPI DUP4 DUP3 SWAP1 PUSH0 MSTORE PUSH1 0x20 PUSH0 KECCAK256 SWAP1 PUSH1 0x4 MUL ADD PUSH1 0x40 MLOAD DUP1 PUSH1 0x80 ADD PUSH1 0x40 MSTORE SWAP1 DUP2 PUSH0 DUP3 ADD DUP1 SLOAD PUSH2 0xF0F SWAP1 PUSH2 0x212B JUMP JUMPDEST DUP1 PUSH1 0x1F ADD PUSH1 0x20 DUP1 SWAP2 DIV MUL PUSH1 0x20 ADD PUSH1 0x40 MLOAD SWAP1 DUP2 ADD PUSH1 0x40 MSTORE DUP1 SWAP3 SWAP2 SWAP1 DUP2 DUP2 MSTORE PUSH1 0x20 ADD DUP3 DUP1 SLOAD PUSH2 0xF3B SWAP1 PUSH2 0x212B JUMP JUMPDEST DUP1 ISZERO PUSH2 0xF86 JUMPI DUP1 PUSH1 0x1F LT PUSH2 0xF5D JUMPI PUSH2 0x100 DUP1 DUP4 SLOAD DIV MUL DUP4 MSTORE SWAP2 PUSH1 0x20 ADD SWAP2 PUSH2 0xF86 JUMP JUMPDEST DUP3 ADD SWAP2 SWAP1 PUSH0 MSTORE PUSH1 0x20 PUSH0 KECCAK256 SWAP1 JUMPDEST DUP2 SLOAD DUP2 MSTORE SWAP1 PUSH1 0x1 ADD SWAP1 PUSH1 0x20 ADD DUP1 DUP4 GT PUSH2 0xF69 JUMPI DUP3 SWAP1 SUB PUSH1 0x1F AND DUP3 ADD SWAP2 JUMPDEST POP POP POP POP POP DUP2 MSTORE PUSH1 0x20 ADD PUSH1 0x1 DUP3 ADD SLOAD DUP2 MSTORE PUSH1 0x20 ADD PUSH1 0x2 DUP3 ADD DUP1 SLOAD PUSH2 0xFA9 SWAP1 PUSH2 0x212B JUMP JUMPDEST DUP1 PUSH1 0x1F ADD PUSH1 0x20 DUP1 SWAP2 DIV MUL PUSH1 0x20 ADD PUSH1 0x40 MLOAD SWAP1 DUP2 ADD PUSH1 0x40 MSTORE DUP1 SWAP3 SWAP2 SWAP1 DUP2 DUP2 MSTORE PUSH1 0x20 ADD DUP3 DUP1 SLOAD PUSH2 0xFD5 SWAP1 PUSH2 0x212B JUMP JUMPDEST DUP1 ISZERO PUSH2 0x1020 JUMPI DUP1 PUSH1 0x1F LT PUSH2 0xFF7 JUMPI PUSH2 0x100 DUP1 DUP4 SLOAD DIV MUL DUP4 MSTORE SWAP2 PUSH1 0x20 ADD SWAP2 PUSH2 0x1020 JUMP JUMPDEST DUP3 ADD SWAP2 SWAP1 PUSH0 MSTORE PUSH1 0x20 PUSH0 KECCAK256 SWAP1 JUMPDEST DUP2 SLOAD DUP2 MSTORE SWAP1 PUSH1 0x1 ADD SWAP1 PUSH1 0x20 ADD DUP1 DUP4 GT PUSH2 0x1003 JUMPI DUP3 SWAP1 SUB PUSH1 0x1F AND DUP3 ADD SWAP2 JUMPDEST POP POP POP POP POP DUP2 MSTORE PUSH1 0x20 ADD PUSH1 0x3 DUP3 ADD SLOAD DUP2 MSTORE POP POP DUP2 MSTORE PUSH1 0x20 ADD SWAP1 PUSH1 0x1 ADD SWAP1 PUSH2 0xEDF JUMP JUMPDEST POP POP POP POP SWAP2 POP POP SWAP2 SWAP1 POP JUMP JUMPDEST PUSH1 0x60 DUP2 PUSH0 SLOAD DUP2 PUSH1 0x40 MLOAD PUSH1 0x20 ADD PUSH2 0x1064 SWAP2 SWAP1 PUSH2 0x2436 JUMP JUMPDEST PUSH1 0x40 MLOAD PUSH1 0x20 DUP2 DUP4 SUB SUB DUP2 MSTORE SWAP1 PUSH1 0x40 MSTORE DUP1 MLOAD SWAP1 PUSH1 0x20 ADD KECCAK256 PUSH1 0x40 MLOAD PUSH1 0x20 ADD PUSH2 0x108A SWAP2 SWAP1 PUSH2 0x2475 JUMP JUMPDEST PUSH1 0x40 MLOAD PUSH1 0x20 DUP2 DUP4 SUB SUB DUP2 MSTORE SWAP1 PUSH1 0x40 MSTORE DUP1 MLOAD SWAP1 PUSH1 0x20 ADD KECCAK256 EQ PUSH2 0x10E0 JUMPI PUSH1 0x40 MLOAD PUSH32 0x8C379A000000000000000000000000000000000000000000000000000000000 DUP2 MSTORE PUSH1 0x4 ADD PUSH2 0x10D7 SWAP1 PUSH2 0x24D9 JUMP JUMPDEST PUSH1 0x40 MLOAD DUP1 SWAP2 SUB SWAP1 REVERT JUMPDEST PUSH1 0x3 DUP1 SLOAD DUP1 PUSH1 0x20 MUL PUSH1 0x20 ADD PUSH1 0x40 MLOAD SWAP1 DUP2 ADD PUSH1 0x40 MSTORE DUP1 SWAP3 SWAP2 SWAP1 DUP2 DUP2 MSTORE PUSH1 0x20 ADD PUSH0 SWAP1 JUMPDEST DUP3 DUP3 LT ISZERO PUSH2 0x1264 JUMPI DUP4 DUP3 SWAP1 PUSH0 MSTORE PUSH1 0x20 PUSH0 KECCAK256 SWAP1 PUSH1 0x4 MUL ADD PUSH1 0x40 MLOAD DUP1 PUSH1 0x80 ADD PUSH1 0x40 MSTORE SWAP1 DUP2 PUSH0 DUP3 ADD DUP1 SLOAD PUSH2 0x1131 SWAP1 PUSH2 0x212B JUMP JUMPDEST DUP1 PUSH1 0x1F ADD PUSH1 0x20 DUP1 SWAP2 DIV MUL PUSH1 0x20 ADD PUSH1 0x40 MLOAD SWAP1 DUP2 ADD PUSH1 0x40 MSTORE DUP1 SWAP3 SWAP2 SWAP1 DUP2 DUP2 MSTORE PUSH1 0x20 ADD DUP3 DUP1 SLOAD PUSH2 0x115D SWAP1 PUSH2 0x212B JUMP JUMPDEST DUP1 ISZERO PUSH2 0x11A8 JUMPI DUP1 PUSH1 0x1F LT PUSH2 0x117F JUMPI PUSH2 0x100 DUP1 DUP4 SLOAD DIV MUL DUP4 MSTORE SWAP2 PUSH1 0x20 ADD SWAP2 PUSH2 0x11A8 JUMP JUMPDEST DUP3 ADD SWAP2 SWAP1 PUSH0 MSTORE PUSH1 0x20 PUSH0 KECCAK256 SWAP1 JUMPDEST DUP2 SLOAD DUP2 MSTORE SWAP1 PUSH1 0x1 ADD SWAP1 PUSH1 0x20 ADD DUP1 DUP4 GT PUSH2 0x118B JUMPI DUP3 SWAP1 SUB PUSH1 0x1F AND DUP3 ADD SWAP2 JUMPDEST POP POP POP POP POP DUP2 MSTORE PUSH1 0x20 ADD PUSH1 0x1 DUP3 ADD SLOAD DUP2 MSTORE PUSH1 0x20 ADD PUSH1 0x2 DUP3 ADD DUP1 SLOAD PUSH2 0x11CB SWAP1 PUSH2 0x212B JUMP JUMPDEST DUP1 PUSH1 0x1F ADD PUSH1 0x20 DUP1 SWAP2 DIV MUL PUSH1 0x20 ADD PUSH1 0x40 MLOAD SWAP1 DUP2 ADD PUSH1 0x40 MSTORE DUP1 SWAP3 SWAP2 SWAP1 DUP2 DUP2 MSTORE PUSH1 0x20 ADD DUP3 DUP1 SLOAD PUSH2 0x11F7 SWAP1 PUSH2 0x212B JUMP JUMPDEST DUP1 ISZERO PUSH2 0x1242 JUMPI DUP1 PUSH1 0x1F LT PUSH2 0x1219 JUMPI PUSH2 0x100 DUP1 DUP4 SLOAD DIV MUL DUP4 MSTORE SWAP2 PUSH1 0x20 ADD SWAP2 PUSH2 0x1242 JUMP JUMPDEST DUP3 ADD SWAP2 SWAP1 PUSH0 MSTORE PUSH1 0x20 PUSH0 KECCAK256 SWAP1 JUMPDEST DUP2 SLOAD DUP2 MSTORE SWAP1 PUSH1 0x1 ADD SWAP1 PUSH1 0x20 ADD DUP1 DUP4 GT PUSH2 0x1225 JUMPI DUP3 SWAP1 SUB PUSH1 0x1F AND DUP3 ADD SWAP2 JUMPDEST POP POP POP POP POP DUP2 MSTORE PUSH1 0x20 ADD PUSH1 0x3 DUP3 ADD SLOAD DUP2 MSTORE POP POP DUP2 MSTORE PUSH1 0x20 ADD SWAP1 PUSH1 0x1 ADD SWAP1 PUSH2 0x1101 JUMP JUMPDEST POP POP POP POP SWAP2 POP POP SWAP2 SWAP1 POP JUMP JUMPDEST PUSH1 0x60 DUP2 PUSH1 0x2 SLOAD DUP2 PUSH1 0x40 MLOAD PUSH1 0x20 ADD PUSH2 0x1287 SWAP2 SWAP1 PUSH2 0x2436 JUMP JUMPDEST PUSH1 0x40 MLOAD PUSH1 0x20 DUP2 DUP4 SUB SUB DUP2 MSTORE SWAP1 PUSH1 0x40 MSTORE DUP1 MLOAD SWAP1 PUSH1 0x20 ADD KECCAK256 PUSH1 0x40 MLOAD PUSH1 0x20 ADD PUSH2 0x12AD SWAP2 SWAP1 PUSH2 0x2475 JUMP JUMPDEST PUSH1 0x40 MLOAD PUSH1 0x20 DUP2 DUP4 SUB SUB DUP2 MSTORE SWAP1 PUSH1 0x40 MSTORE DUP1 MLOAD SWAP1 PUSH1 0x20 ADD KECCAK256 EQ PUSH2 0x1303 JUMPI PUSH1 0x40 MLOAD PUSH32 0x8C379A000000000000000000000000000000000000000000000000000000000 DUP2 MSTORE PUSH1 0x4 ADD PUSH2 0x12FA SWAP1 PUSH2 0x24D9 JUMP JUMPDEST PUSH1 0x40 MLOAD DUP1 SWAP2 SUB SWAP1 REVERT JUMPDEST PUSH1 0x5 DUP1 SLOAD DUP1 PUSH1 0x20 MUL PUSH1 0x20 ADD PUSH1 0x40 MLOAD SWAP1 DUP2 ADD PUSH1 0x40 MSTORE DUP1 SWAP3 SWAP2 SWAP1 DUP2 DUP2 MSTORE PUSH1 0x20 ADD PUSH0 SWAP1 JUMPDEST DUP3 DUP3 LT ISZERO PUSH2 0x1536 JUMPI DUP4 DUP3 SWAP1 PUSH0 MSTORE PUSH1 0x20 PUSH0 KECCAK256 SWAP1 PUSH1 0x8 MUL ADD PUSH1 0x40 MLOAD DUP1 PUSH2 0x100 ADD PUSH1 0x40 MSTORE SWAP1 DUP2 PUSH0 DUP3 ADD DUP1 SLOAD PUSH2 0x1355 SWAP1 PUSH2 0x212B JUMP JUMPDEST DUP1 PUSH1 0x1F ADD PUSH1 0x20 DUP1 SWAP2 DIV MUL PUSH1 0x20 ADD PUSH1 0x40 MLOAD SWAP1 DUP2 ADD PUSH1 0x40 MSTORE DUP1 SWAP3 SWAP2 SWAP1 DUP2 DUP2 MSTORE PUSH1 0x20 ADD DUP3 DUP1 SLOAD PUSH2 0x1381 SWAP1 PUSH2 0x212B JUMP JUMPDEST DUP1 ISZERO PUSH2 0x13CC JUMPI DUP1 PUSH1 0x1F LT PUSH2 0x13A3 JUMPI PUSH2 0x100 DUP1 DUP4 SLOAD DIV MUL DUP4 MSTORE SWAP2 PUSH1 0x20 ADD SWAP2 PUSH2 0x13CC JUMP JUMPDEST DUP3 ADD SWAP2 SWAP1 PUSH0 MSTORE PUSH1 0x20 PUSH0 KECCAK256 SWAP1 JUMPDEST DUP2 SLOAD DUP2 MSTORE SWAP1 PUSH1 0x1 ADD SWAP1 PUSH1 0x20 ADD DUP1 DUP4 GT PUSH2 0x13AF JUMPI DUP3 SWAP1 SUB PUSH1 0x1F AND DUP3 ADD SWAP2 JUMPDEST POP POP POP POP POP DUP2 MSTORE PUSH1 0x20 ADD PUSH1 0x1 DUP3 ADD DUP1 SLOAD PUSH2 0x13E5 SWAP1 PUSH2 0x212B JUMP JUMPDEST DUP1 PUSH1 0x1F ADD PUSH1 0x20 DUP1 SWAP2 DIV MUL PUSH1 0x20 ADD PUSH1 0x40 MLOAD SWAP1 DUP2 ADD PUSH1 0x40 MSTORE DUP1 SWAP3 SWAP2 SWAP1 DUP2 DUP2 MSTORE PUSH1 0x20 ADD DUP3 DUP1 SLOAD PUSH2 0x1411 SWAP1 PUSH2 0x212B JUMP JUMPDEST DUP1 ISZERO PUSH2 0x145C JUMPI DUP1 PUSH1 0x1F LT PUSH2 0x1433 JUMPI PUSH2 0x100 DUP1 DUP4 SLOAD DIV MUL DUP4 MSTORE SWAP2 PUSH1 0x20 ADD SWAP2 PUSH2 0x145C JUMP JUMPDEST DUP3 ADD SWAP2 SWAP1 PUSH0 MSTORE PUSH1 0x20 PUSH0 KECCAK256 SWAP1 JUMPDEST DUP2 SLOAD DUP2 MSTORE SWAP1 PUSH1 0x1 ADD SWAP1 PUSH1 0x20 ADD DUP1 DUP4 GT PUSH2 0x143F JUMPI DUP3 SWAP1 SUB PUSH1 0x1F AND DUP3 ADD SWAP2 JUMPDEST POP POP POP POP POP DUP2 MSTORE PUSH1 0x20 ADD PUSH1 0x2 DUP3 ADD SLOAD DUP2 MSTORE PUSH1 0x20 ADD PUSH1 0x3 DUP3 ADD SLOAD DUP2 MSTORE PUSH1 0x20 ADD PUSH1 0x4 DUP3 ADD DUP1 SLOAD PUSH2 0x1489 SWAP1 PUSH2 0x212B JUMP JUMPDEST DUP1 PUSH1 0x1F ADD PUSH1 0x20 DUP1 SWAP2 DIV MUL PUSH1 0x20 ADD PUSH1 0x40 MLOAD SWAP1 DUP2 ADD PUSH1 0x40 MSTORE DUP1 SWAP3 SWAP2 SWAP1 DUP2 DUP2 MSTORE PUSH1 0x20 ADD DUP3 DUP1 SLOAD PUSH2 0x14B5 SWAP1 PUSH2 0x212B JUMP JUMPDEST DUP1 ISZERO PUSH2 0x1500 JUMPI DUP1 PUSH1 0x1F LT PUSH2 0x14D7 JUMPI PUSH2 0x100 DUP1 DUP4 SLOAD DIV MUL DUP4 MSTORE SWAP2 PUSH1 0x20 ADD SWAP2 PUSH2 0x1500 JUMP JUMPDEST DUP3 ADD SWAP2 SWAP1 PUSH0 MSTORE PUSH1 0x20 PUSH0 KECCAK256 SWAP1 JUMPDEST DUP2 SLOAD DUP2 MSTORE SWAP1 PUSH1 0x1 ADD SWAP1 PUSH1 0x20 ADD DUP1 DUP4 GT PUSH2 0x14E3 JUMPI DUP3 SWAP1 SUB PUSH1 0x1F AND DUP3 ADD SWAP2 JUMPDEST POP POP POP POP POP DUP2 MSTORE PUSH1 0x20 ADD PUSH1 0x5 DUP3 ADD SLOAD DUP2 MSTORE PUSH1 0x20 ADD PUSH1 0x6 DUP3 ADD SLOAD DUP2 MSTORE PUSH1 0x20 ADD PUSH1 0x7 DUP3 ADD SLOAD DUP2 MSTORE POP POP DUP2 MSTORE PUSH1 0x20 ADD SWAP1 PUSH1 0x1 ADD SWAP1 PUSH2 0x1324 JUMP JUMPDEST POP POP POP POP SWAP2 POP POP SWAP2 SWAP1 POP JUMP JUMPDEST PUSH0 PUSH1 0x40 MLOAD DUP1 PUSH2 0x100 ADD PUSH1 0x40 MSTORE DUP1 DUP11 DUP2 MSTORE PUSH1 0x20 ADD DUP10 DUP2 MSTORE PUSH1 0x20 ADD DUP9 DUP2 MSTORE PUSH1 0x20 ADD DUP8 DUP2 MSTORE PUSH1 0x20 ADD DUP7 DUP2 MSTORE PUSH1 0x20 ADD DUP6 DUP2 MSTORE PUSH1 0x20 ADD DUP5 DUP2 MSTORE PUSH1 0x20 ADD DUP4 DUP2 MSTORE POP SWAP1 POP PUSH1 0x5 DUP2 SWAP1 DUP1 PUSH1 0x1 DUP2 SLOAD ADD DUP1 DUP3 SSTORE DUP1 SWAP2 POP POP PUSH1 0x1 SWAP1 SUB SWAP1 PUSH0 MSTORE PUSH1 0x20 PUSH0 KECCAK256 SWAP1 PUSH1 0x8 MUL ADD PUSH0 SWAP1 SWAP2 SWAP1 SWAP2 SWAP1 SWAP2 POP PUSH0 DUP3 ADD MLOAD DUP2 PUSH0 ADD SWAP1 DUP2 PUSH2 0x15BB SWAP2 SWAP1 PUSH2 0x2682 JUMP JUMPDEST POP PUSH1 0x20 DUP3 ADD MLOAD DUP2 PUSH1 0x1 ADD SWAP1 DUP2 PUSH2 0x15D1 SWAP2 SWAP1 PUSH2 0x2682 JUMP JUMPDEST POP PUSH1 0x40 DUP3 ADD MLOAD DUP2 PUSH1 0x2 ADD SSTORE PUSH1 0x60 DUP3 ADD MLOAD DUP2 PUSH1 0x3 ADD SSTORE PUSH1 0x80 DUP3 ADD MLOAD DUP2 PUSH1 0x4 ADD SWAP1 DUP2 PUSH2 0x15FB SWAP2 SWAP1 PUSH2 0x2682 JUMP JUMPDEST POP PUSH1 0xA0 DUP3 ADD MLOAD DUP2 PUSH1 0x5 ADD SSTORE PUSH1 0xC0 DUP3 ADD MLOAD DUP2 PUSH1 0x6 ADD SSTORE PUSH1 0xE0 DUP3 ADD MLOAD DUP2 PUSH1 0x7 ADD SSTORE POP POP POP POP POP POP POP POP POP POP POP JUMP JUMPDEST PUSH0 PUSH1 0x40 MLOAD DUP1 PUSH1 0x80 ADD PUSH1 0x40 MSTORE DUP1 DUP8 DUP2 MSTORE PUSH1 0x20 ADD DUP7 DUP2 MSTORE PUSH1 0x20 ADD DUP6 DUP2 MSTORE PUSH1 0x20 ADD DUP5 DUP2 MSTORE POP SWAP1 POP PUSH0 DUP3 SUB PUSH2 0x16C0 JUMPI PUSH1 0x3 DUP2 SWAP1 DUP1 PUSH1 0x1 DUP2 SLOAD ADD DUP1 DUP3 SSTORE DUP1 SWAP2 POP POP PUSH1 0x1 SWAP1 SUB SWAP1 PUSH0 MSTORE PUSH1 0x20 PUSH0 KECCAK256 SWAP1 PUSH1 0x4 MUL ADD PUSH0 SWAP1 SWAP2 SWAP1 SWAP2 SWAP1 SWAP2 POP PUSH0 DUP3 ADD MLOAD DUP2 PUSH0 ADD SWAP1 DUP2 PUSH2 0x168E SWAP2 SWAP1 PUSH2 0x2682 JUMP JUMPDEST POP PUSH1 0x20 DUP3 ADD MLOAD DUP2 PUSH1 0x1 ADD SSTORE PUSH1 0x40 DUP3 ADD MLOAD DUP2 PUSH1 0x2 ADD SWAP1 DUP2 PUSH2 0x16AE SWAP2 SWAP1 PUSH2 0x2682 JUMP JUMPDEST POP PUSH1 0x60 DUP3 ADD MLOAD DUP2 PUSH1 0x3 ADD SSTORE POP POP PUSH2 0x172A JUMP JUMPDEST PUSH1 0x4 DUP2 SWAP1 DUP1 PUSH1 0x1 DUP2 SLOAD ADD DUP1 DUP3 SSTORE DUP1 SWAP2 POP POP PUSH1 0x1 SWAP1 SUB SWAP1 PUSH0 MSTORE PUSH1 0x20 PUSH0 KECCAK256 SWAP1 PUSH1 0x4 MUL ADD PUSH0 SWAP1 SWAP2 SWAP1 SWAP2 SWAP1 SWAP2 POP PUSH0 DUP3 ADD MLOAD DUP2 PUSH0 ADD SWAP1 DUP2 PUSH2 0x16FC SWAP2 SWAP1 PUSH2 0x2682 JUMP JUMPDEST POP PUSH1 0x20 DUP3 ADD MLOAD DUP2 PUSH1 0x1 ADD SSTORE PUSH1 0x40 DUP3 ADD MLOAD DUP2 PUSH1 0x2 ADD SWAP1 DUP2 PUSH2 0x171C SWAP2 SWAP1 PUSH2 0x2682 JUMP JUMPDEST POP PUSH1 0x60 DUP3 ADD MLOAD DUP2 PUSH1 0x3 ADD SSTORE POP POP JUMPDEST POP POP POP POP POP POP JUMP JUMPDEST PUSH0 DUP3 DUP3 DUP2 SLOAD DUP2 LT PUSH2 0x1746 JUMPI PUSH2 0x1745 PUSH2 0x20D1 JUMP JUMPDEST JUMPDEST SWAP1 PUSH0 MSTORE PUSH1 0x20 PUSH0 KECCAK256 SWAP1 PUSH1 0x4 MUL ADD PUSH1 0x40 MLOAD DUP1 PUSH1 0x80 ADD PUSH1 0x40 MSTORE SWAP1 DUP2 PUSH0 DUP3 ADD DUP1 SLOAD PUSH2 0x176C SWAP1 PUSH2 0x212B JUMP JUMPDEST DUP1 PUSH1 0x1F ADD PUSH1 0x20 DUP1 SWAP2 DIV MUL PUSH1 0x20 ADD PUSH1 0x40 MLOAD SWAP1 DUP2 ADD PUSH1 0x40 MSTORE DUP1 SWAP3 SWAP2 SWAP1 DUP2 DUP2 MSTORE PUSH1 0x20 ADD DUP3 DUP1 SLOAD PUSH2 0x1798 SWAP1 PUSH2 0x212B JUMP JUMPDEST DUP1 ISZERO PUSH2 0x17E3 JUMPI DUP1 PUSH1 0x1F LT PUSH2 0x17BA JUMPI PUSH2 0x100 DUP1 DUP4 SLOAD DIV MUL DUP4 MSTORE SWAP2 PUSH1 0x20 ADD SWAP2 PUSH2 0x17E3 JUMP JUMPDEST DUP3 ADD SWAP2 SWAP1 PUSH0 MSTORE PUSH1 0x20 PUSH0 KECCAK256 SWAP1 JUMPDEST DUP2 SLOAD DUP2 MSTORE SWAP1 PUSH1 0x1 ADD SWAP1 PUSH1 0x20 ADD DUP1 DUP4 GT PUSH2 0x17C6 JUMPI DUP3 SWAP1 SUB PUSH1 0x1F AND DUP3 ADD SWAP2 JUMPDEST POP POP POP POP POP DUP2 MSTORE PUSH1 0x20 ADD PUSH1 0x1 DUP3 ADD SLOAD DUP2 MSTORE PUSH1 0x20 ADD PUSH1 0x2 DUP3 ADD DUP1 SLOAD PUSH2 0x1806 SWAP1 PUSH2 0x212B JUMP JUMPDEST DUP1 PUSH1 0x1F ADD PUSH1 0x20 DUP1 SWAP2 DIV MUL PUSH1 0x20 ADD PUSH1 0x40 MLOAD SWAP1 DUP2 ADD PUSH1 0x40 MSTORE DUP1 SWAP3 SWAP2 SWAP1 DUP2 DUP2 MSTORE PUSH1 0x20 ADD DUP3 DUP1 SLOAD PUSH2 0x1832 SWAP1 PUSH2 0x212B JUMP JUMPDEST DUP1 ISZERO PUSH2 0x187D JUMPI DUP1 PUSH1 0x1F LT PUSH2 0x1854 JUMPI PUSH2 0x100 DUP1 DUP4 SLOAD DIV MUL DUP4 MSTORE SWAP2 PUSH1 0x20 ADD SWAP2 PUSH2 0x187D JUMP JUMPDEST DUP3 ADD SWAP2 SWAP1 PUSH0 MSTORE PUSH1 0x20 PUSH0 KECCAK256 SWAP1 JUMPDEST DUP2 SLOAD DUP2 MSTORE SWAP1 PUSH1 0x1 ADD SWAP1 PUSH1 0x20 ADD DUP1 DUP4 GT PUSH2 0x1860 JUMPI DUP3 SWAP1 SUB PUSH1 0x1F AND DUP3 ADD SWAP2 JUMPDEST POP POP POP POP POP DUP2 MSTORE PUSH1 0x20 ADD PUSH1 0x3 DUP3 ADD SLOAD DUP2 MSTORE POP POP SWAP1 POP DUP3 PUSH1 0x1 DUP5 DUP1 SLOAD SWAP1 POP PUSH2 0x18A4 SWAP2 SWAP1 PUSH2 0x2751 JUMP JUMPDEST DUP2 SLOAD DUP2 LT PUSH2 0x18B5 JUMPI PUSH2 0x18B4 PUSH2 0x20D1 JUMP JUMPDEST JUMPDEST SWAP1 PUSH0 MSTORE PUSH1 0x20 PUSH0 KECCAK256 SWAP1 PUSH1 0x4 MUL ADD DUP4 DUP4 DUP2 SLOAD DUP2 LT PUSH2 0x18D4 JUMPI PUSH2 0x18D3 PUSH2 0x20D1 JUMP JUMPDEST JUMPDEST SWAP1 PUSH0 MSTORE PUSH1 0x20 PUSH0 KECCAK256 SWAP1 PUSH1 0x4 MUL ADD PUSH0 DUP3 ADD DUP2 PUSH0 ADD SWAP1 DUP2 PUSH2 0x18F2 SWAP2 SWAP1 PUSH2 0x2799 JUMP JUMPDEST POP PUSH1 0x1 DUP3 ADD SLOAD DUP2 PUSH1 0x1 ADD SSTORE PUSH1 0x2 DUP3 ADD DUP2 PUSH1 0x2 ADD SWAP1 DUP2 PUSH2 0x1911 SWAP2 SWAP1 PUSH2 0x2799 JUMP JUMPDEST POP PUSH1 0x3 DUP3 ADD SLOAD DUP2 PUSH1 0x3 ADD SSTORE SWAP1 POP POP DUP1 DUP4 PUSH1 0x1 DUP6 DUP1 SLOAD SWAP1 POP PUSH2 0x1932 SWAP2 SWAP1 PUSH2 0x2751 JUMP JUMPDEST DUP2 SLOAD DUP2 LT PUSH2 0x1943 JUMPI PUSH2 0x1942 PUSH2 0x20D1 JUMP JUMPDEST JUMPDEST SWAP1 PUSH0 MSTORE PUSH1 0x20 PUSH0 KECCAK256 SWAP1 PUSH1 0x4 MUL ADD PUSH0 DUP3 ADD MLOAD DUP2 PUSH0 ADD SWAP1 DUP2 PUSH2 0x1962 SWAP2 SWAP1 PUSH2 0x2682 JUMP JUMPDEST POP PUSH1 0x20 DUP3 ADD MLOAD DUP2 PUSH1 0x1 ADD SSTORE PUSH1 0x40 DUP3 ADD MLOAD DUP2 PUSH1 0x2 ADD SWAP1 DUP2 PUSH2 0x1982 SWAP2 SWAP1 PUSH2 0x2682 JUMP JUMPDEST POP PUSH1 0x60 DUP3 ADD MLOAD DUP2 PUSH1 0x3 ADD SSTORE SWAP1 POP POP DUP3 DUP1 SLOAD DUP1 PUSH2 0x19A1 JUMPI PUSH2 0x19A0 PUSH2 0x287E JUMP JUMPDEST JUMPDEST PUSH1 0x1 SWAP1 SUB DUP2 DUP2 SWAP1 PUSH0 MSTORE PUSH1 0x20 PUSH0 KECCAK256 SWAP1 PUSH1 0x4 MUL ADD PUSH0 DUP1 DUP3 ADD PUSH0 PUSH2 0x19C2 SWAP2 SWAP1 PUSH2 0x1A33 JUMP JUMPDEST PUSH1 0x1 DUP3 ADD PUSH0 SWAP1 SSTORE PUSH1 0x2 DUP3 ADD PUSH0 PUSH2 0x19D8 SWAP2 SWAP1 PUSH2 0x1A33 JUMP JUMPDEST PUSH1 0x3 DUP3 ADD PUSH0 SWAP1 SSTORE POP POP SWAP1 SSTORE POP POP POP JUMP JUMPDEST DUP3 DUP1 SLOAD DUP3 DUP3 SSTORE SWAP1 PUSH0 MSTORE PUSH1 0x20 PUSH0 KECCAK256 SWAP1 DUP2 ADD SWAP3 DUP3 ISZERO PUSH2 0x1A22 JUMPI SWAP2 PUSH1 0x20 MUL DUP3 ADD JUMPDEST DUP3 DUP2 GT ISZERO PUSH2 0x1A21 JUMPI DUP3 MLOAD DUP3 SSTORE SWAP2 PUSH1 0x20 ADD SWAP2 SWAP1 PUSH1 0x1 ADD SWAP1 PUSH2 0x1A06 JUMP JUMPDEST JUMPDEST POP SWAP1 POP PUSH2 0x1A2F SWAP2 SWAP1 PUSH2 0x1A70 JUMP JUMPDEST POP SWAP1 JUMP JUMPDEST POP DUP1 SLOAD PUSH2 0x1A3F SWAP1 PUSH2 0x212B JUMP JUMPDEST PUSH0 DUP3 SSTORE DUP1 PUSH1 0x1F LT PUSH2 0x1A50 JUMPI POP PUSH2 0x1A6D JUMP JUMPDEST PUSH1 0x1F ADD PUSH1 0x20 SWAP1 DIV SWAP1 PUSH0 MSTORE PUSH1 0x20 PUSH0 KECCAK256 SWAP1 DUP2 ADD SWAP1 PUSH2 0x1A6C SWAP2 SWAP1 PUSH2 0x1A70 JUMP JUMPDEST JUMPDEST POP JUMP JUMPDEST JUMPDEST DUP1 DUP3 GT ISZERO PUSH2 0x1A87 JUMPI PUSH0 DUP2 PUSH0 SWAP1 SSTORE POP PUSH1 0x1 ADD PUSH2 0x1A71 JUMP JUMPDEST POP SWAP1 JUMP JUMPDEST PUSH0 PUSH1 0x40 MLOAD SWAP1 POP SWAP1 JUMP JUMPDEST PUSH0 DUP1 REVERT JUMPDEST PUSH0 DUP1 REVERT JUMPDEST PUSH0 DUP1 REVERT JUMPDEST PUSH0 DUP1 REVERT JUMPDEST PUSH0 PUSH1 0x1F NOT PUSH1 0x1F DUP4 ADD AND SWAP1 POP SWAP2 SWAP1 POP JUMP JUMPDEST PUSH32 0x4E487B7100000000000000000000000000000000000000000000000000000000 PUSH0 MSTORE PUSH1 0x41 PUSH1 0x4 MSTORE PUSH1 0x24 PUSH0 REVERT JUMPDEST PUSH2 0x1AEA DUP3 PUSH2 0x1AA4 JUMP JUMPDEST DUP2 ADD DUP2 DUP2 LT PUSH8 0xFFFFFFFFFFFFFFFF DUP3 GT OR ISZERO PUSH2 0x1B09 JUMPI PUSH2 0x1B08 PUSH2 0x1AB4 JUMP JUMPDEST JUMPDEST DUP1 PUSH1 0x40 MSTORE POP POP POP JUMP JUMPDEST PUSH0 PUSH2 0x1B1B PUSH2 0x1A8B JUMP JUMPDEST SWAP1 POP PUSH2 0x1B27 DUP3 DUP3 PUSH2 0x1AE1 JUMP JUMPDEST SWAP2 SWAP1 POP JUMP JUMPDEST PUSH0 PUSH8 0xFFFFFFFFFFFFFFFF DUP3 GT ISZERO PUSH2 0x1B46 JUMPI PUSH2 0x1B45 PUSH2 0x1AB4 JUMP JUMPDEST JUMPDEST PUSH2 0x1B4F DUP3 PUSH2 0x1AA4 JUMP JUMPDEST SWAP1 POP PUSH1 0x20 DUP2 ADD SWAP1 POP SWAP2 SWAP1 POP JUMP JUMPDEST DUP3 DUP2 DUP4 CALLDATACOPY PUSH0 DUP4 DUP4 ADD MSTORE POP POP POP JUMP JUMPDEST PUSH0 PUSH2 0x1B7C PUSH2 0x1B77 DUP5 PUSH2 0x1B2C JUMP JUMPDEST PUSH2 0x1B12 JUMP JUMPDEST SWAP1 POP DUP3 DUP2 MSTORE PUSH1 0x20 DUP2 ADD DUP5 DUP5 DUP5 ADD GT ISZERO PUSH2 0x1B98 JUMPI PUSH2 0x1B97 PUSH2 0x1AA0 JUMP JUMPDEST JUMPDEST PUSH2 0x1BA3 DUP5 DUP3 DUP6 PUSH2 0x1B5C JUMP JUMPDEST POP SWAP4 SWAP3 POP POP POP JUMP JUMPDEST PUSH0 DUP3 PUSH1 0x1F DUP4 ADD SLT PUSH2 0x1BBF JUMPI PUSH2 0x1BBE PUSH2 0x1A9C JUMP JUMPDEST JUMPDEST DUP2 CALLDATALOAD PUSH2 0x1BCF DUP5 DUP3 PUSH1 0x20 DUP7 ADD PUSH2 0x1B6A JUMP JUMPDEST SWAP2 POP POP SWAP3 SWAP2 POP POP JUMP JUMPDEST PUSH0 DUP2 SWAP1 POP SWAP2 SWAP1 POP JUMP JUMPDEST PUSH2 0x1BEA DUP2 PUSH2 0x1BD8 JUMP JUMPDEST DUP2 EQ PUSH2 0x1BF4 JUMPI PUSH0 DUP1 REVERT JUMPDEST POP JUMP JUMPDEST PUSH0 DUP2 CALLDATALOAD SWAP1 POP PUSH2 0x1C05 DUP2 PUSH2 0x1BE1 JUMP JUMPDEST SWAP3 SWAP2 POP POP JUMP JUMPDEST PUSH0 DUP1 PUSH0 DUP1 PUSH1 0x80 DUP6 DUP8 SUB SLT ISZERO PUSH2 0x1C23 JUMPI PUSH2 0x1C22 PUSH2 0x1A94 JUMP JUMPDEST JUMPDEST PUSH0 DUP6 ADD CALLDATALOAD PUSH8 0xFFFFFFFFFFFFFFFF DUP2 GT ISZERO PUSH2 0x1C40 JUMPI PUSH2 0x1C3F PUSH2 0x1A98 JUMP JUMPDEST JUMPDEST PUSH2 0x1C4C DUP8 DUP3 DUP9 ADD PUSH2 0x1BAB JUMP JUMPDEST SWAP5 POP POP PUSH1 0x20 DUP6 ADD CALLDATALOAD PUSH8 0xFFFFFFFFFFFFFFFF DUP2 GT ISZERO PUSH2 0x1C6D JUMPI PUSH2 0x1C6C PUSH2 0x1A98 JUMP JUMPDEST JUMPDEST PUSH2 0x1C79 DUP8 DUP3 DUP9 ADD PUSH2 0x1BAB JUMP JUMPDEST SWAP4 POP POP PUSH1 0x40 PUSH2 0x1C8A DUP8 DUP3 DUP9 ADD PUSH2 0x1BF7 JUMP JUMPDEST SWAP3 POP POP PUSH1 0x60 PUSH2 0x1C9B DUP8 DUP3 DUP9 ADD PUSH2 0x1BF7 JUMP JUMPDEST SWAP2 POP POP SWAP3 SWAP6 SWAP2 SWAP5 POP SWAP3 POP JUMP JUMPDEST PUSH0 DUP1 PUSH0 DUP1 PUSH1 0x80 DUP6 DUP8 SUB SLT ISZERO PUSH2 0x1CBF JUMPI PUSH2 0x1CBE PUSH2 0x1A94 JUMP JUMPDEST JUMPDEST PUSH0 DUP6 ADD CALLDATALOAD PUSH8 0xFFFFFFFFFFFFFFFF DUP2 GT ISZERO PUSH2 0x1CDC JUMPI PUSH2 0x1CDB PUSH2 0x1A98 JUMP JUMPDEST JUMPDEST PUSH2 0x1CE8 DUP8 DUP3 DUP9 ADD PUSH2 0x1BAB JUMP JUMPDEST SWAP5 POP POP PUSH1 0x20 PUSH2 0x1CF9 DUP8 DUP3 DUP9 ADD PUSH2 0x1BF7 JUMP JUMPDEST SWAP4 POP POP PUSH1 0x40 DUP6 ADD CALLDATALOAD PUSH8 0xFFFFFFFFFFFFFFFF DUP2 GT ISZERO PUSH2 0x1D1A JUMPI PUSH2 0x1D19 PUSH2 0x1A98 JUMP JUMPDEST JUMPDEST PUSH2 0x1D26 DUP8 DUP3 DUP9 ADD PUSH2 0x1BAB JUMP JUMPDEST SWAP3 POP POP PUSH1 0x60 PUSH2 0x1D37 DUP8 DUP3 DUP9 ADD PUSH2 0x1BF7 JUMP JUMPDEST SWAP2 POP POP SWAP3 SWAP6 SWAP2 SWAP5 POP SWAP3 POP JUMP JUMPDEST PUSH0 PUSH1 0x20 DUP3 DUP5 SUB SLT ISZERO PUSH2 0x1D58 JUMPI PUSH2 0x1D57 PUSH2 0x1A94 JUMP JUMPDEST JUMPDEST PUSH0 DUP3 ADD CALLDATALOAD PUSH8 0xFFFFFFFFFFFFFFFF DUP2 GT ISZERO PUSH2 0x1D75 JUMPI PUSH2 0x1D74 PUSH2 0x1A98 JUMP JUMPDEST JUMPDEST PUSH2 0x1D81 DUP5 DUP3 DUP6 ADD PUSH2 0x1BAB JUMP JUMPDEST SWAP2 POP POP SWAP3 SWAP2 POP POP JUMP JUMPDEST PUSH0 DUP2 MLOAD SWAP1 POP SWAP2 SWAP1 POP JUMP JUMPDEST PUSH0 DUP3 DUP3 MSTORE PUSH1 0x20 DUP3 ADD SWAP1 POP SWAP3 SWAP2 POP POP JUMP JUMPDEST PUSH0 DUP2 SWAP1 POP PUSH1 0x20 DUP3 ADD SWAP1 POP SWAP2 SWAP1 POP JUMP JUMPDEST PUSH0 DUP2 MLOAD SWAP1 POP SWAP2 SWAP1 POP JUMP JUMPDEST PUSH0 DUP3 DUP3 MSTORE PUSH1 0x20 DUP3 ADD SWAP1 POP SWAP3 SWAP2 POP POP JUMP JUMPDEST DUP3 DUP2 DUP4 MCOPY PUSH0 DUP4 DUP4 ADD MSTORE POP POP POP JUMP JUMPDEST PUSH0 PUSH2 0x1DE5 DUP3 PUSH2 0x1DB3 JUMP JUMPDEST PUSH2 0x1DEF DUP2 DUP6 PUSH2 0x1DBD JUMP JUMPDEST SWAP4 POP PUSH2 0x1DFF DUP2 DUP6 PUSH1 0x20 DUP7 ADD PUSH2 0x1DCD JUMP JUMPDEST PUSH2 0x1E08 DUP2 PUSH2 0x1AA4 JUMP JUMPDEST DUP5 ADD SWAP2 POP POP SWAP3 SWAP2 POP POP JUMP JUMPDEST PUSH2 0x1E1C DUP2 PUSH2 0x1BD8 JUMP JUMPDEST DUP3 MSTORE POP POP JUMP JUMPDEST PUSH0 PUSH1 0x80 DUP4 ADD PUSH0 DUP4 ADD MLOAD DUP5 DUP3 SUB PUSH0 DUP7 ADD MSTORE PUSH2 0x1E3C DUP3 DUP3 PUSH2 0x1DDB JUMP JUMPDEST SWAP2 POP POP PUSH1 0x20 DUP4 ADD MLOAD PUSH2 0x1E51 PUSH1 0x20 DUP7 ADD DUP3 PUSH2 0x1E13 JUMP JUMPDEST POP PUSH1 0x40 DUP4 ADD MLOAD DUP5 DUP3 SUB PUSH1 0x40 DUP7 ADD MSTORE PUSH2 0x1E69 DUP3 DUP3 PUSH2 0x1DDB JUMP JUMPDEST SWAP2 POP POP PUSH1 0x60 DUP4 ADD MLOAD PUSH2 0x1E7E PUSH1 0x60 DUP7 ADD DUP3 PUSH2 0x1E13 JUMP JUMPDEST POP DUP1 SWAP2 POP POP SWAP3 SWAP2 POP POP JUMP JUMPDEST PUSH0 PUSH2 0x1E94 DUP4 DUP4 PUSH2 0x1E22 JUMP JUMPDEST SWAP1 POP SWAP3 SWAP2 POP POP JUMP JUMPDEST PUSH0 PUSH1 0x20 DUP3 ADD SWAP1 POP SWAP2 SWAP1 POP JUMP JUMPDEST PUSH0 PUSH2 0x1EB2 DUP3 PUSH2 0x1D8A JUMP JUMPDEST PUSH2 0x1EBC DUP2 DUP6 PUSH2 0x1D94 JUMP JUMPDEST SWAP4 POP DUP4 PUSH1 0x20 DUP3 MUL DUP6 ADD PUSH2 0x1ECE DUP6 PUSH2 0x1DA4 JUMP JUMPDEST DUP1 PUSH0 JUMPDEST DUP6 DUP2 LT ISZERO PUSH2 0x1F09 JUMPI DUP5 DUP5 SUB DUP10 MSTORE DUP2 MLOAD PUSH2 0x1EEA DUP6 DUP3 PUSH2 0x1E89 JUMP JUMPDEST SWAP5 POP PUSH2 0x1EF5 DUP4 PUSH2 0x1E9C JUMP JUMPDEST SWAP3 POP PUSH1 0x20 DUP11 ADD SWAP10 POP POP PUSH1 0x1 DUP2 ADD SWAP1 POP PUSH2 0x1ED1 JUMP JUMPDEST POP DUP3 SWAP8 POP DUP8 SWAP6 POP POP POP POP POP POP SWAP3 SWAP2 POP POP JUMP JUMPDEST PUSH0 PUSH1 0x20 DUP3 ADD SWAP1 POP DUP2 DUP2 SUB PUSH0 DUP4 ADD MSTORE PUSH2 0x1F33 DUP2 DUP5 PUSH2 0x1EA8 JUMP JUMPDEST SWAP1 POP SWAP3 SWAP2 POP POP JUMP JUMPDEST PUSH0 DUP2 MLOAD SWAP1 POP SWAP2 SWAP1 POP JUMP JUMPDEST PUSH0 DUP3 DUP3 MSTORE PUSH1 0x20 DUP3 ADD SWAP1 POP SWAP3 SWAP2 POP POP JUMP JUMPDEST PUSH0 DUP2 SWAP1 POP PUSH1 0x20 DUP3 ADD SWAP1 POP SWAP2 SWAP1 POP JUMP JUMPDEST PUSH0 PUSH2 0x100 DUP4 ADD PUSH0 DUP4 ADD MLOAD DUP5 DUP3 SUB PUSH0 DUP7 ADD MSTORE PUSH2 0x1F7F DUP3 DUP3 PUSH2 0x1DDB JUMP JUMPDEST SWAP2 POP POP PUSH1 0x20 DUP4 ADD MLOAD DUP5 DUP3 SUB PUSH1 0x20 DUP7 ADD MSTORE PUSH2 0x1F99 DUP3 DUP3 PUSH2 0x1DDB JUMP JUMPDEST SWAP2 POP POP PUSH1 0x40 DUP4 ADD MLOAD PUSH2 0x1FAE PUSH1 0x40 DUP7 ADD DUP3 PUSH2 0x1E13 JUMP JUMPDEST POP PUSH1 0x60 DUP4 ADD MLOAD PUSH2 0x1FC1 PUSH1 0x60 DUP7 ADD DUP3 PUSH2 0x1E13 JUMP JUMPDEST POP PUSH1 0x80 DUP4 ADD MLOAD DUP5 DUP3 SUB PUSH1 0x80 DUP7 ADD MSTORE PUSH2 0x1FD9 DUP3 DUP3 PUSH2 0x1DDB JUMP JUMPDEST SWAP2 POP POP PUSH1 0xA0 DUP4 ADD MLOAD PUSH2 0x1FEE PUSH1 0xA0 DUP7 ADD DUP3 PUSH2 0x1E13 JUMP JUMPDEST POP PUSH1 0xC0 DUP4 ADD MLOAD PUSH2 0x2001 PUSH1 0xC0 DUP7 ADD DUP3 PUSH2 0x1E13 JUMP JUMPDEST POP PUSH1 0xE0 DUP4 ADD MLOAD PUSH2 0x2014 PUSH1 0xE0 DUP7 ADD DUP3 PUSH2 0x1E13 JUMP JUMPDEST POP DUP1 SWAP2 POP POP SWAP3 SWAP2 POP POP JUMP JUMPDEST PUSH0 PUSH2 0x202A DUP4 DUP4 PUSH2 0x1F64 JUMP JUMPDEST SWAP1 POP SWAP3 SWAP2 POP POP JUMP JUMPDEST PUSH0 PUSH1 0x20 DUP3 ADD SWAP1 POP SWAP2 SWAP1 POP JUMP JUMPDEST PUSH0 PUSH2 0x2048 DUP3 PUSH2 0x1F3B JUMP JUMPDEST PUSH2 0x2052 DUP2 DUP6 PUSH2 0x1F45 JUMP JUMPDEST SWAP4 POP DUP4 PUSH1 0x20 DUP3 MUL DUP6 ADD PUSH2 0x2064 DUP6 PUSH2 0x1F55 JUMP JUMPDEST DUP1 PUSH0 JUMPDEST DUP6 DUP2 LT ISZERO PUSH2 0x209F JUMPI DUP5 DUP5 SUB DUP10 MSTORE DUP2 MLOAD PUSH2 0x2080 DUP6 DUP3 PUSH2 0x201F JUMP JUMPDEST SWAP5 POP PUSH2 0x208B DUP4 PUSH2 0x2032 JUMP JUMPDEST SWAP3 POP PUSH1 0x20 DUP11 ADD SWAP10 POP POP PUSH1 0x1 DUP2 ADD SWAP1 POP PUSH2 0x2067 JUMP JUMPDEST POP DUP3 SWAP8 POP DUP8 SWAP6 POP POP POP POP POP POP SWAP3 SWAP2 POP POP JUMP JUMPDEST PUSH0 PUSH1 0x20 DUP3 ADD SWAP1 POP DUP2 DUP2 SUB PUSH0 DUP4 ADD MSTORE PUSH2 0x20C9 DUP2 DUP5 PUSH2 0x203E JUMP JUMPDEST SWAP1 POP SWAP3 SWAP2 POP POP JUMP JUMPDEST PUSH32 0x4E487B7100000000000000000000000000000000000000000000000000000000 PUSH0 MSTORE PUSH1 0x32 PUSH1 0x4 MSTORE PUSH1 0x24 PUSH0 REVERT JUMPDEST PUSH32 0x4E487B7100000000000000000000000000000000000000000000000000000000 PUSH0 MSTORE PUSH1 0x22 PUSH1 0x4 MSTORE PUSH1 0x24 PUSH0 REVERT JUMPDEST PUSH0 PUSH1 0x2 DUP3 DIV SWAP1 POP PUSH1 0x1 DUP3 AND DUP1 PUSH2 0x2142 JUMPI PUSH1 0x7F DUP3 AND SWAP2 POP JUMPDEST PUSH1 0x20 DUP3 LT DUP2 SUB PUSH2 0x2155 JUMPI PUSH2 0x2154 PUSH2 0x20FE JUMP JUMPDEST JUMPDEST POP SWAP2 SWAP1 POP JUMP JUMPDEST PUSH0 DUP2 SWAP1 POP SWAP3 SWAP2 POP POP JUMP JUMPDEST PUSH0 DUP2 SWAP1 POP DUP2 PUSH0 MSTORE PUSH1 0x20 PUSH0 KECCAK256 SWAP1 POP SWAP2 SWAP1 POP JUMP JUMPDEST PUSH0 DUP2 SLOAD PUSH2 0x2183 DUP2 PUSH2 0x212B JUMP JUMPDEST PUSH2 0x218D DUP2 DUP7 PUSH2 0x215B JUMP JUMPDEST SWAP5 POP PUSH1 0x1 DUP3 AND PUSH0 DUP2 EQ PUSH2 0x21A7 JUMPI PUSH1 0x1 DUP2 EQ PUSH2 0x21BC JUMPI PUSH2 0x21EE JUMP JUMPDEST PUSH1 0xFF NOT DUP4 AND DUP7 MSTORE DUP2 ISZERO ISZERO DUP3 MUL DUP7 ADD SWAP4 POP PUSH2 0x21EE JUMP JUMPDEST PUSH2 0x21C5 DUP6 PUSH2 0x2165 JUMP JUMPDEST PUSH0 JUMPDEST DUP4 DUP2 LT ISZERO PUSH2 0x21E6 JUMPI DUP2 SLOAD DUP2 DUP10 ADD MSTORE PUSH1 0x1 DUP3 ADD SWAP2 POP PUSH1 0x20 DUP2 ADD SWAP1 POP PUSH2 0x21C7 JUMP JUMPDEST DUP4 DUP9 ADD SWAP6 POP POP POP JUMPDEST POP POP POP SWAP3 SWAP2 POP POP JUMP JUMPDEST PUSH0 PUSH2 0x2202 DUP3 DUP5 PUSH2 0x2177 JUMP JUMPDEST SWAP2 POP DUP2 SWAP1 POP SWAP3 SWAP2 POP POP JUMP JUMPDEST PUSH0 DUP3 DUP3 MSTORE PUSH1 0x20 DUP3 ADD SWAP1 POP SWAP3 SWAP2 POP POP JUMP JUMPDEST PUSH0 DUP2 SWAP1 POP DUP2 PUSH0 MSTORE PUSH1 0x20 PUSH0 KECCAK256 SWAP1 POP SWAP2 SWAP1 POP JUMP JUMPDEST PUSH0 DUP2 SLOAD PUSH2 0x223B DUP2 PUSH2 0x212B JUMP JUMPDEST PUSH2 0x2245 DUP2 DUP7 PUSH2 0x220D JUMP JUMPDEST SWAP5 POP PUSH1 0x1 DUP3 AND PUSH0 DUP2 EQ PUSH2 0x225F JUMPI PUSH1 0x1 DUP2 EQ PUSH2 0x2275 JUMPI PUSH2 0x22A7 JUMP JUMPDEST PUSH1 0xFF NOT DUP4 AND DUP7 MSTORE DUP2 ISZERO ISZERO PUSH1 0x20 MUL DUP7 ADD SWAP4 POP PUSH2 0x22A7 JUMP JUMPDEST PUSH2 0x227E DUP6 PUSH2 0x221D JUMP JUMPDEST PUSH0 JUMPDEST DUP4 DUP2 LT ISZERO PUSH2 0x229F JUMPI DUP2 SLOAD DUP2 DUP10 ADD MSTORE PUSH1 0x1 DUP3 ADD SWAP2 POP PUSH1 0x20 DUP2 ADD SWAP1 POP PUSH2 0x2280 JUMP JUMPDEST DUP1 DUP9 ADD SWAP6 POP POP POP JUMPDEST POP POP POP SWAP3 SWAP2 POP POP JUMP JUMPDEST PUSH2 0x22B9 DUP2 PUSH2 0x1BD8 JUMP JUMPDEST DUP3 MSTORE POP POP JUMP JUMPDEST PUSH0 PUSH1 0x80 DUP3 ADD SWAP1 POP DUP2 DUP2 SUB PUSH0 DUP4 ADD MSTORE PUSH2 0x22D7 DUP2 DUP8 PUSH2 0x222F JUMP JUMPDEST SWAP1 POP PUSH2 0x22E6 PUSH1 0x20 DUP4 ADD DUP7 PUSH2 0x22B0 JUMP JUMPDEST DUP2 DUP2 SUB PUSH1 0x40 DUP4 ADD MSTORE PUSH2 0x22F8 DUP2 DUP6 PUSH2 0x222F JUMP JUMPDEST SWAP1 POP PUSH2 0x2307 PUSH1 0x60 DUP4 ADD DUP5 PUSH2 0x22B0 JUMP JUMPDEST SWAP6 SWAP5 POP POP POP POP POP JUMP JUMPDEST PUSH0 DUP2 SWAP1 POP SWAP2 SWAP1 POP JUMP JUMPDEST PUSH32 0x4E487B7100000000000000000000000000000000000000000000000000000000 PUSH0 MSTORE PUSH1 0x11 PUSH1 0x4 MSTORE PUSH1 0x24 PUSH0 REVERT JUMPDEST PUSH0 PUSH2 0x2350 DUP3 PUSH2 0x2310 JUMP JUMPDEST SWAP2 POP PUSH2 0x235B DUP4 PUSH2 0x2310 JUMP JUMPDEST SWAP3 POP DUP3 DUP3 SUB SWAP1 POP DUP2 DUP2 SLT PUSH0 DUP5 SLT AND DUP3 DUP3 SGT PUSH0 DUP6 SLT ISZERO AND OR ISZERO PUSH2 0x2380 JUMPI PUSH2 0x237F PUSH2 0x2319 JUMP JUMPDEST JUMPDEST SWAP3 SWAP2 POP POP JUMP JUMPDEST PUSH0 PUSH2 0x2390 DUP3 PUSH2 0x2310 JUMP JUMPDEST SWAP2 POP PUSH2 0x239B DUP4 PUSH2 0x2310 JUMP JUMPDEST SWAP3 POP DUP3 DUP3 MUL PUSH2 0x23A9 DUP2 PUSH2 0x2310 JUMP JUMPDEST SWAP2 POP PUSH32 0x8000000000000000000000000000000000000000000000000000000000000000 DUP5 EQ PUSH0 DUP5 SLT AND ISZERO PUSH2 0x23E0 JUMPI PUSH2 0x23DF PUSH2 0x2319 JUMP JUMPDEST JUMPDEST DUP3 DUP3 SDIV DUP5 EQ DUP4 ISZERO OR PUSH2 0x23F5 JUMPI PUSH2 0x23F4 PUSH2 0x2319 JUMP JUMPDEST JUMPDEST POP SWAP3 SWAP2 POP POP JUMP JUMPDEST PUSH0 DUP2 SWAP1 POP SWAP3 SWAP2 POP POP JUMP JUMPDEST PUSH0 PUSH2 0x2410 DUP3 PUSH2 0x1DB3 JUMP JUMPDEST PUSH2 0x241A DUP2 DUP6 PUSH2 0x23FC JUMP JUMPDEST SWAP4 POP PUSH2 0x242A DUP2 DUP6 PUSH1 0x20 DUP7 ADD PUSH2 0x1DCD JUMP JUMPDEST DUP1 DUP5 ADD SWAP2 POP POP SWAP3 SWAP2 POP POP JUMP JUMPDEST PUSH0 PUSH2 0x2441 DUP3 DUP5 PUSH2 0x2406 JUMP JUMPDEST SWAP2 POP DUP2 SWAP1 POP SWAP3 SWAP2 POP POP JUMP JUMPDEST PUSH0 DUP2 SWAP1 POP SWAP2 SWAP1 POP JUMP JUMPDEST PUSH0 DUP2 SWAP1 POP SWAP2 SWAP1 POP JUMP JUMPDEST PUSH2 0x246F PUSH2 0x246A DUP3 PUSH2 0x244C JUMP JUMPDEST PUSH2 0x2455 JUMP JUMPDEST DUP3 MSTORE POP POP JUMP JUMPDEST PUSH0 PUSH2 0x2480 DUP3 DUP5 PUSH2 0x245E JUMP JUMPDEST PUSH1 0x20 DUP3 ADD SWAP2 POP DUP2 SWAP1 POP SWAP3 SWAP2 POP POP JUMP JUMPDEST PUSH32 0x496E636F72726563742070617373776F72642100000000000000000000000000 PUSH0 DUP3 ADD MSTORE POP JUMP JUMPDEST PUSH0 PUSH2 0x24C3 PUSH1 0x13 DUP4 PUSH2 0x220D JUMP JUMPDEST SWAP2 POP PUSH2 0x24CE DUP3 PUSH2 0x248F JUMP JUMPDEST PUSH1 0x20 DUP3 ADD SWAP1 POP SWAP2 SWAP1 POP JUMP JUMPDEST PUSH0 PUSH1 0x20 DUP3 ADD SWAP1 POP DUP2 DUP2 SUB PUSH0 DUP4 ADD MSTORE PUSH2 0x24F0 DUP2 PUSH2 0x24B7 JUMP JUMPDEST SWAP1 POP SWAP2 SWAP1 POP JUMP JUMPDEST PUSH0 PUSH1 0x20 PUSH1 0x1F DUP4 ADD DIV SWAP1 POP SWAP2 SWAP1 POP JUMP JUMPDEST PUSH0 DUP3 DUP3 SHL SWAP1 POP SWAP3 SWAP2 POP POP JUMP JUMPDEST PUSH0 PUSH1 0x8 DUP4 MUL PUSH2 0x2541 PUSH32 0xFFFFFFFFFFFFFFFFFFFFFFFFFFFFFFFFFFFFFFFFFFFFFFFFFFFFFFFFFFFFFFFF DUP3 PUSH2 0x2506 JUMP JUMPDEST PUSH2 0x254B DUP7 DUP4 PUSH2 0x2506 JUMP JUMPDEST SWAP6 POP DUP1 NOT DUP5 AND SWAP4 POP DUP1 DUP7 AND DUP5 OR SWAP3 POP POP POP SWAP4 SWAP3 POP POP POP JUMP JUMPDEST PUSH0 DUP2 SWAP1 POP SWAP2 SWAP1 POP JUMP JUMPDEST PUSH0 PUSH2 0x2586 PUSH2 0x2581 PUSH2 0x257C DUP5 PUSH2 0x1BD8 JUMP JUMPDEST PUSH2 0x2563 JUMP JUMPDEST PUSH2 0x1BD8 JUMP JUMPDEST SWAP1 POP SWAP2 SWAP1 POP JUMP JUMPDEST PUSH0 DUP2 SWAP1 POP SWAP2 SWAP1 POP JUMP JUMPDEST PUSH2 0x259F DUP4 PUSH2 0x256C JUMP JUMPDEST PUSH2 0x25B3 PUSH2 0x25AB DUP3 PUSH2 0x258D JUMP JUMPDEST DUP5 DUP5 SLOAD PUSH2 0x2512 JUMP JUMPDEST DUP3 SSTORE POP POP POP POP JUMP JUMPDEST PUSH0 SWAP1 JUMP JUMPDEST PUSH2 0x25C7 PUSH2 0x25BB JUMP JUMPDEST PUSH2 0x25D2 DUP2 DUP5 DUP5 PUSH2 0x2596 JUMP JUMPDEST POP POP POP JUMP JUMPDEST JUMPDEST DUP2 DUP2 LT ISZERO PUSH2 0x25F5 JUMPI PUSH2 0x25EA PUSH0 DUP3 PUSH2 0x25BF JUMP JUMPDEST PUSH1 0x1 DUP2 ADD SWAP1 POP PUSH2 0x25D8 JUMP JUMPDEST POP POP JUMP JUMPDEST PUSH1 0x1F DUP3 GT ISZERO PUSH2 0x263A JUMPI PUSH2 0x260B DUP2 PUSH2 0x221D JUMP JUMPDEST PUSH2 0x2614 DUP5 PUSH2 0x24F7 JUMP JUMPDEST DUP2 ADD PUSH1 0x20 DUP6 LT ISZERO PUSH2 0x2623 JUMPI DUP2 SWAP1 POP JUMPDEST PUSH2 0x2637 PUSH2 0x262F DUP6 PUSH2 0x24F7 JUMP JUMPDEST DUP4 ADD DUP3 PUSH2 0x25D7 JUMP JUMPDEST POP POP JUMPDEST POP POP POP JUMP JUMPDEST PUSH0 DUP3 DUP3 SHR SWAP1 POP SWAP3 SWAP2 POP POP JUMP JUMPDEST PUSH0 PUSH2 0x265A PUSH0 NOT DUP5 PUSH1 0x8 MUL PUSH2 0x263F JUMP JUMPDEST NOT DUP1 DUP4 AND SWAP2 POP POP SWAP3 SWAP2 POP POP JUMP JUMPDEST PUSH0 PUSH2 0x2672 DUP4 DUP4 PUSH2 0x264B JUMP JUMPDEST SWAP2 POP DUP3 PUSH1 0x2 MUL DUP3 OR SWAP1 POP SWAP3 SWAP2 POP POP JUMP JUMPDEST PUSH2 0x268B DUP3 PUSH2 0x1DB3 JUMP JUMPDEST PUSH8 0xFFFFFFFFFFFFFFFF DUP2 GT ISZERO PUSH2 0x26A4 JUMPI PUSH2 0x26A3 PUSH2 0x1AB4 JUMP JUMPDEST JUMPDEST PUSH2 0x26AE DUP3 SLOAD PUSH2 0x212B JUMP JUMPDEST PUSH2 0x26B9 DUP3 DUP3 DUP6 PUSH2 0x25F9 JUMP JUMPDEST PUSH0 PUSH1 0x20 SWAP1 POP PUSH1 0x1F DUP4 GT PUSH1 0x1 DUP2 EQ PUSH2 0x26EA JUMPI PUSH0 DUP5 ISZERO PUSH2 0x26D8 JUMPI DUP3 DUP8 ADD MLOAD SWAP1 POP JUMPDEST PUSH2 0x26E2 DUP6 DUP3 PUSH2 0x2667 JUMP JUMPDEST DUP7 SSTORE POP PUSH2 0x2749 JUMP JUMPDEST PUSH1 0x1F NOT DUP5 AND PUSH2 0x26F8 DUP7 PUSH2 0x221D JUMP JUMPDEST PUSH0 JUMPDEST DUP3 DUP2 LT ISZERO PUSH2 0x271F JUMPI DUP5 DUP10 ADD MLOAD DUP3 SSTORE PUSH1 0x1 DUP3 ADD SWAP2 POP PUSH1 0x20 DUP6 ADD SWAP5 POP PUSH1 0x20 DUP2 ADD SWAP1 POP PUSH2 0x26FA JUMP JUMPDEST DUP7 DUP4 LT ISZERO PUSH2 0x273C JUMPI DUP5 DUP10 ADD MLOAD PUSH2 0x2738 PUSH1 0x1F DUP10 AND DUP3 PUSH2 0x264B JUMP JUMPDEST DUP4 SSTORE POP JUMPDEST PUSH1 0x1 PUSH1 0x2 DUP9 MUL ADD DUP9 SSTORE POP POP POP JUMPDEST POP POP POP POP POP POP JUMP JUMPDEST PUSH0 PUSH2 0x275B DUP3 PUSH2 0x1BD8 JUMP JUMPDEST SWAP2 POP PUSH2 0x2766 DUP4 PUSH2 0x1BD8 JUMP JUMPDEST SWAP3 POP DUP3 DUP3 SUB SWAP1 POP DUP2 DUP2 GT ISZERO PUSH2 0x277E JUMPI PUSH2 0x277D PUSH2 0x2319 JUMP JUMPDEST JUMPDEST SWAP3 SWAP2 POP POP JUMP JUMPDEST PUSH0 DUP2 SLOAD SWAP1 POP PUSH2 0x2792 DUP2 PUSH2 0x212B JUMP JUMPDEST SWAP1 POP SWAP2 SWAP1 POP JUMP JUMPDEST DUP2 DUP2 SUB PUSH2 0x27A7 JUMPI POP POP PUSH2 0x287C JUMP JUMPDEST PUSH2 0x27B0 DUP3 PUSH2 0x2784 JUMP JUMPDEST PUSH8 0xFFFFFFFFFFFFFFFF DUP2 GT ISZERO PUSH2 0x27C9 JUMPI PUSH2 0x27C8 PUSH2 0x1AB4 JUMP JUMPDEST JUMPDEST PUSH2 0x27D3 DUP3 SLOAD PUSH2 0x212B JUMP JUMPDEST PUSH2 0x27DE DUP3 DUP3 DUP6 PUSH2 0x25F9 JUMP JUMPDEST PUSH0 PUSH1 0x1F DUP4 GT PUSH1 0x1 DUP2 EQ PUSH2 0x280B JUMPI PUSH0 DUP5 ISZERO PUSH2 0x27F9 JUMPI DUP3 DUP8 ADD SLOAD SWAP1 POP JUMPDEST PUSH2 0x2803 DUP6 DUP3 PUSH2 0x2667 JUMP JUMPDEST DUP7 SSTORE POP PUSH2 0x2875 JUMP JUMPDEST PUSH1 0x1F NOT DUP5 AND PUSH2 0x2819 DUP8 PUSH2 0x221D JUMP JUMPDEST SWAP7 POP PUSH2 0x2824 DUP7 PUSH2 0x221D JUMP JUMPDEST PUSH0 JUMPDEST DUP3 DUP2 LT ISZERO PUSH2 0x284B JUMPI DUP5 DUP10 ADD SLOAD DUP3 SSTORE PUSH1 0x1 DUP3 ADD SWAP2 POP PUSH1 0x1 DUP6 ADD SWAP5 POP PUSH1 0x20 DUP2 ADD SWAP1 POP PUSH2 0x2826 JUMP JUMPDEST DUP7 DUP4 LT ISZERO PUSH2 0x2868 JUMPI DUP5 DUP10 ADD SLOAD PUSH2 0x2864 PUSH1 0x1F DUP10 AND DUP3 PUSH2 0x264B JUMP JUMPDEST DUP4 SSTORE POP JUMPDEST PUSH1 0x1 PUSH1 0x2 DUP9 MUL ADD DUP9 SSTORE POP POP POP JUMPDEST POP POP POP POP POP POP JUMPDEST JUMP JUMPDEST PUSH32 0x4E487B7100000000000000000000000000000000000000000000000000000000 PUSH0 MSTORE PUSH1 0x31 PUSH1 0x4 MSTORE PUSH1 0x24 PUSH0 REVERT INVALID LOG2 PUSH5 0x6970667358 0x22 SLT KECCAK256 DUP9 PUSH19 0x68E68A7427FDCC7E2C06171544D080317115D 0xCA 0x21 0xED DUP7 0xE3 0x21 0xB3 0xBB PUSH31 0xEF2164736F6C634300081A0033000000000000000000000000000000000000 "
		},
		"gasEstimates": {
			"creation": {
				"codeDepositCost": "2093000",
				"executionCost": "infinite",
				"totalCost": "infinite"
			},
			"external": {
				"regDonor(string,uint256,string,uint256)": "infinite",
				"regRecipient(string,string,uint256,uint256)": "infinite",
				"showDonors(string)": "infinite",
				"showMatches(string)": "infinite",
				"showRecipient(string)": "infinite"
			},
			"internal": {
				"pop(struct main.orgdet storage ref[] storage pointer,uint256)": "infinite",
				"pushMatch(string memory,string memory,uint256,uint256,string memory,uint256,uint256,uint256)": "infinite",
				"pushNew(string memory,uint256,string memory,uint256,uint256)": "infinite"
			}
		},
		"methodIdentifiers": {
			"regDonor(string,uint256,string,uint256)": "822e242e",
			"regRecipient(string,string,uint256,uint256)": "4bb792ac",
			"showDonors(string)": "ae9ec457",
			"showMatches(string)": "c005a930",
			"showRecipient(string)": "963e9f1f"
		}
	},
	"abi": [
		{
			"inputs": [
				{
					"internalType": "string",
					"name": "_donorPass",
					"type": "string"
				},
				{
					"internalType": "string",
					"name": "_recipientPass",
					"type": "string"
				},
				{
					"internalType": "string",
					"name": "_matchedPass",
					"type": "string"
				}
			],
			"stateMutability": "nonpayable",
			"type": "constructor"
		},
		{
			"anonymous": false,
			"inputs": [
				{
					"indexed": false,
					"internalType": "string",
					"name": "donorOwner",
					"type": "string"
				},
				{
					"indexed": false,
					"internalType": "uint256",
					"name": "donorBloodType",
					"type": "uint256"
				},
				{
					"indexed": false,
					"internalType": "string",
					"name": "donorOrgan",
					"type": "string"
				},
				{
					"indexed": false,
					"internalType": "uint256",
					"name": "donorQuantity",
					"type": "uint256"
				}
			],
			"name": "DonMatchFound",
			"type": "event"
		},
		{
			"anonymous": false,
			"inputs": [
				{
					"indexed": false,
					"internalType": "string",
					"name": "recipientOwner",
					"type": "string"
				},
				{
					"indexed": false,
					"internalType": "uint256",
					"name": "recipientBloodType",
					"type": "uint256"
				},
				{
					"indexed": false,
					"internalType": "string",
					"name": "recipientOrgan",
					"type": "string"
				},
				{
					"indexed": false,
					"internalType": "uint256",
					"name": "recipientQuantity",
					"type": "uint256"
				}
			],
			"name": "RecMatchFound",
			"type": "event"
		},
		{
			"inputs": [
				{
					"internalType": "string",
					"name": "_owner",
					"type": "string"
				},
				{
					"internalType": "uint256",
					"name": "_bloodtype",
					"type": "uint256"
				},
				{
					"internalType": "string",
					"name": "_organ",
					"type": "string"
				},
				{
					"internalType": "uint256",
					"name": "_quantity",
					"type": "uint256"
				}
			],
			"name": "regDonor",
			"outputs": [],
			"stateMutability": "nonpayable",
			"type": "function"
		},
		{
			"inputs": [
				{
					"internalType": "string",
					"name": "_owner",
					"type": "string"
				},
				{
					"internalType": "string",
					"name": "_organ",
					"type": "string"
				},
				{
					"internalType": "uint256",
					"name": "_bloodtype",
					"type": "uint256"
				},
				{
					"internalType": "uint256",
					"name": "_quantity",
					"type": "uint256"
				}
			],
			"name": "regRecipient",
			"outputs": [],
			"stateMutability": "nonpayable",
			"type": "function"
		},
		{
			"inputs": [
				{
					"internalType": "string",
					"name": "_pass",
					"type": "string"
				}
			],
			"name": "showDonors",
			"outputs": [
				{
					"components": [
						{
							"internalType": "string",
							"name": "owner",
							"type": "string"
						},
						{
							"internalType": "uint256",
							"name": "bloodtype",
							"type": "uint256"
						},
						{
							"internalType": "string",
							"name": "organ",
							"type": "string"
						},
						{
							"internalType": "uint256",
							"name": "quantity",
							"type": "uint256"
						}
					],
					"internalType": "struct main.orgdet[]",
					"name": "",
					"type": "tuple[]"
				}
			],
			"stateMutability": "view",
			"type": "function"
		},
		{
			"inputs": [
				{
					"internalType": "string",
					"name": "_pass",
					"type": "string"
				}
			],
			"name": "showMatches",
			"outputs": [
				{
					"components": [
						{
							"internalType": "string",
							"name": "donor",
							"type": "string"
						},
						{
							"internalType": "string",
							"name": "recipient",
							"type": "string"
						},
						{
							"internalType": "uint256",
							"name": "donorbloodtype",
							"type": "uint256"
						},
						{
							"internalType": "uint256",
							"name": "recipientbloodtype",
							"type": "uint256"
						},
						{
							"internalType": "string",
							"name": "organ",
							"type": "string"
						},
						{
							"internalType": "uint256",
							"name": "donorquantity",
							"type": "uint256"
						},
						{
							"internalType": "uint256",
							"name": "recipientquantity",
							"type": "uint256"
						},
						{
							"internalType": "uint256",
							"name": "matchedquantity",
							"type": "uint256"
						}
					],
					"internalType": "struct main.matched_orgdet[]",
					"name": "",
					"type": "tuple[]"
				}
			],
			"stateMutability": "view",
			"type": "function"
		},
		{
			"inputs": [
				{
					"internalType": "string",
					"name": "_pass",
					"type": "string"
				}
			],
			"name": "showRecipient",
			"outputs": [
				{
					"components": [
						{
							"internalType": "string",
							"name": "owner",
							"type": "string"
						},
						{
							"internalType": "uint256",
							"name": "bloodtype",
							"type": "uint256"
						},
						{
							"internalType": "string",
							"name": "organ",
							"type": "string"
						},
						{
							"internalType": "uint256",
							"name": "quantity",
							"type": "uint256"
						}
					],
					"internalType": "struct main.orgdet[]",
					"name": "",
					"type": "tuple[]"
				}
			],
			"stateMutability": "view",
			"type": "function"
		}
	]
}